GSCN  --  Command Scanner Interface for DIAGNOSTICS	MACRO %53(1020) 10:54 19-Feb-79 Page 1
GSCN	MAC	22-May-78 10:53		KEYBOARD INTERFACE                                                                 SEQ 0296

     1					TITLE GSCN  --  Command Scanner Interface for DIAGNOSTICS
     2
     3							SEARCH	GLXMAC		;OPEN SYMBOLS NEEDED
     4							SEARCH	MACTEN
     5							SEARCH	UUOSYM
     6
     7						SALL
     8					;This module emulates the command scanning and text input routines found
     9					;	in the TOPS-20 operating system. (Somewhat)
    10
    11					;SPECIAL DIAGNOSTIC DEFINITIONS, OVERRIDE GLXMAC
    12
    13			000100		.PRIIN=100
    14			000101		.PRIOU=101
    15
    16			000002		.FDSTR=2	;STRUCTURE
    17			000003		.FDPPN=3	;PPN
    18			000004		.FDNAM=4	;NAME
    19			000005		.FDEXT=5	;EXT
    20
    21		100000	000000		GJ%OLD=1B2
    22
    23		260740	000000		OPDEF	GO	[PUSHJ	P,]
    24		263740	000000		OPDEF	RTN	[POPJ	P,]
    25		261740	000000		OPDEF	PUT	[PUSH	P,]
    26		262740	000000		OPDEF	GETIT	[POP	P,]
    27
    28					EXTERN	$CCLIN
GSCN  --  Command Scanner Interface for DIAGNOSTICS	MACRO %53(1020) 10:54 19-Feb-79 Page 2
GSCN	MAC	22-May-78 10:53		Table of Contents                                                                  SEQ 0297

    29					SUBTTL Table of Contents
    30
    31					;               TABLE OF CONTENTS FOR GLXSCN
    32					;
    33					;
    34					;                        SECTION                                   PAGE
    35					;    1. Table of Contents.........................................   2
    36					;    2. Local Definitions.........................................   3
    37					;    3. Module Storage............................................   4
    38					;    4. S%INIT  --  Initialization of the Scanning Module.........   5
    39					;    5. S%RCOC  --  Read Character  Output Control table..........   6
    40					;    6. S%WCOC  --  Write Character  Output Control table.........   6
    41					;    7. S%STYP  --  Set terminal type.............................   7
    42					;    8. S%TXTI  --  Handle Terminal Input.........................   8
    43					;    9. TXTL  --  Loop for inputting text.........................   9
    44					;   10. Utilities for text handling...............................  10
    45					;   11. SPCHK  --  Check for special characters...................  15
    46					;   12. CCU  --  Handle ^U (Rubout entire line)...................  16
    47					;   13. CCR  --  Handle ^R (Re-type the line).....................  17
    48					;   14. CCDEL  --  Handle Rubout (Delete one character)...........  18
    49					;   15. CCW  --  Handle ^W (Delete back to punctuation character).  19
    50					;   16. BEGBUF  --  Handle rubouts to beginning of buffer.........  19
GSCN  --  Command Scanner Interface for DIAGNOSTICS	MACRO %53(1020) 10:54 19-Feb-79 Page 3
GSCN	MAC	22-May-78 10:53		Revision History                                                                   SEQ 0298

    51					SUBTTL	Revision History
    52
    53
    54					COMMENT \
    55
    56					Edit	SPR/QAR/GCO	Reason
    57					----	-----------	-------------------------------------------
    58
    59					0001			Create GLXSCN module
    60					0002			Fix a number of interrupt race problems and
    61								start adding ESCape sequence code
    62					0003			Add support for parsing of a string; fix bug in
    63								.CMINI which caused prompts not at left margin
    64					0004			TOTALLY HACKED UP FOR DIAGNOSTICS
    65
    66					\  ;END OF REVISION HISTORY
GSCN  --  Command Scanner Interface for DIAGNOSTICS	MACRO %53(1020) 10:54 19-Feb-79 Page 4
GSCN	MAC	22-May-78 10:53		Revision History                                                                   SEQ 0299

    67					; Entry Points found in this module
    68
    69						ENTRY	S%INIT			;INIT THE COMMAND SCANNER MODULE
    70						ENTRY	S%CMND			;SCAN A COMMAND
    71						ENTRY	S%SCMP			;COMPARE TWO STRINGS
    72						ENTRY	S%TBLK			;LOOK UP A STRING IN A TABLE
    73						ENTRY	S%ERR			;TYPE OUT SCANNER'S LAST ERROR
    74
    75					;SPECIAL DIAGNOSTICS MACROS
    76
    77					DEFINE	$$DATA(NAM,SIZ<1>)<
    78					NAM:	BLOCK	SIZ
    79					>
    80
    81					DEFINE	$$GDATA(NAM,SIZ<1>)<
    82					NAM:	BLOCK	SIZ
    83					>
GSCN  --  Command Scanner Interface for DIAGNOSTICS	MACRO %53(1020) 10:54 19-Feb-79 Page 5
GSCN	MAC	22-May-78 10:53		Local Definitions                                                                  SEQ 0300

    84					SUBTTL Local Definitions
    85
    86					; Special Accumulator definitions
    87
    88			000016			C==16				;GLOBAL CHARACTER REGISTER
    89			000013			P5==P4+1			;S%CMND NEEDS LOTS OF ACS
    90			000014			F==14				;FLAG AC
    91			000015			Q1==15				;
    92			000016			Q2==16				;DON'T DEFINE Q3 OR Q4
    93
    94					; Special characters
    95
    96			000134			.CHBSL=="\"			;BACKSLASH
    97
    98					; Control character former
    99
   100						DEFINE $C(A)<"A"-100>		;JUST ASCII MINUS LEAD BIT
   101
   102					; Bad parse return macro
   103
   104						DEFINE NOPARS(CODE,TEXT)<
   105						  MOVE	T1,[XWD	CODE,[ASCIZ /TEXT/]]
   106						  JRST  XCOMNE > ;END OF NOPARS DEFINITION
   107
   108					; Special bit testing macros
   109
   110						DEFINE JXN(AC,FLD,ADDR)<
   111						  TXNN	AC,FLD
   112						  SKIPA
   113						  JRST  ADDR > ;END OF JXN DEFINITION
   114
   115						DEFINE JXE(AC,FLD,ADDR)<
   116						  TXNE	AC,FLD
   117						  SKIPA
   118						  JRST	ADDR > ;END OF JXE DEFINITION
   119
   120						DEFINE	JXO(AC,FLD,ADDR)<
   121						  TXC	AC,FLD
   122						  TXCN	AC,FLD
   123						  JRST	ADDR > ;END OF JXO DEFINITION
   124
   125						DEFINE	RETSKP<JRST	[AOS 0(P)
   126								         POPJ P,] >
   127
   128					; Bit table - 36. Words long with word N containing 1B<N>
   129
   130			000000			XX==0
   131	000000'				BITS:	XLIST
   132						LIST
GSCN  --  Command Scanner Interface for DIAGNOSTICS	MACRO %53(1020) 10:54 19-Feb-79 Page 6
GSCN	MAC	22-May-78 10:53		Module Storage                                                                     SEQ 0301

   133					SUBTTL	Module Storage
   134
   135
   136	000044'					$$DATA	RD,.RDSIZ		;INTERNAL ARGUMENT BLOCK
   137
   138	000055'					$$DATA	PCALL			;PUSHDOWN LIST SAVE FOR COMND
   139	000056'					$$DATA	ATBPTR			;ATOM BUFFER POINTER (END)
   140	000057'					$$DATA	ATBSIZ			;ATOM BUFFER SIZE
   141	000060'					$$DATA	STKFEN			;FENCE FOR STACK RESTORATION
   142	000061'					$$DATA	FNARG			;FUNCTION ARGUMENT
   143	000062'					$$DATA	CMCCM,2			;SAVED CC CODES
   144	000064'					$$DATA	CMRBRK			;POINTER TO BREAK SET TABLE
   145	000065'					$$DATA	CMCSF			;SAVED FLAGS
   146	000066'					$$DATA	CMCSAC,7		;SAVED ACS DURING S%TXTI FROM S%CMND
   147	000075'					$$DATA	CMCSC			;
   148	000076'					$$DATA	CMCBLF			;
   149	000077'					$$DATA	TBA			;TABLE ARGUMENTS
   150	000100'					$$DATA	STRG			;TEMP STRING POINTER
   151	000101'					$$DATA	REMSTR			;"REMEMBER"ED STRING
   152	000102'					$$DATA	XXXPTR			;RE-USABLE STRING POINTER STORAGE
   153	000103'					$$DATA	CRBLK,CR.SIZ		;RETURNED BLOCK OF ANSWERS
   154	000106'					$$DATA	TABDON			;END OF TAB FOR "?"
   155	000107'					$$DATA	TABSIZ			;SIZE OF TAB LARGER THAN LARGEST KEYWORD
   156	000110'					$$DATA	LSTERR			;ERROR CODE RETURNED FROM NOPARS
   157	000111'					$$DATA	BIGSIZ			;LENGTH OF LONGEST KEYWORD
   158	000112'					$$DATA	KEYSIZ			;NOMINAL KEYWORD LENGTH
   159	000113'					$$DATA	PWIDTH			;TERMINAL'S WIDTH
   160	000114'					$$DATA	CURPOS			;LINE POSITION OF CURSOR
   161	000115'					$$DATA	Q3SAVE			;NO Q3 EXISTS
   162	000116'					$$DATA	IFOB			;INDIRECT FILESPEC FOB
   163	000117'					$$DATA	IIFN			;IFN OF INDIRECT FILE
   164	000120'					$$DATA	TI,.RDSIZ		;S%TXTI ARGUMENT BLOCK
   165	000131'					$$DATA	TRMUDX			;CONTROLLING TERMINAL'S UDX
   166	000132'					$$DATA	NODSIX			;SIXBIT NODE-ID
GSCN  --  Command Scanner Interface for DIAGNOSTICS	MACRO %53(1020) 10:54 19-Feb-79 Page 7
GSCN	MAC	22-May-78 10:53		S%INIT  --  Initialize the GLXSCN Module                                           SEQ 0302

   167					SUBTTL	S%INIT  --  Initialize the GLXSCN Module
   168
   169					IFN FTUUOS,<
   170	000133'	205 01 0 00 646471 	S%INIT:	MOVSI	S1,'TTY'		;LOAD TTY NAME
   171	000134'	047 01 0 00 000127 		IONDX.	S1,			;GET THE I/O INDEX
   172	000135'	255 00 0 00 000000 		  JFCL				;IGNORE THE ERROR
   173	000136'	202 01 0 00 000131'		MOVEM	S1,TRMUDX		;AND STORE THE UDX
   174	000137'	254 00 0 00 003747'		$RETT				;AND RETURN
   175					>  ;END IFN FTUUOS
   176
   177					IFN FTJSYS,<
   178					S%INIT:	$RETT				;RETURN
   179					>  ;END IFN FTJSYS
GSCN  --  Command Scanner Interface for DIAGNOSTICS	MACRO %53(1020) 10:54 19-Feb-79 Page 8
GSCN	MAC	22-May-78 10:53		S%ERR - ERROR TYPEOUT ROUTINE                                                      SEQ 0303

   180					SUBTTL S%ERR - ERROR TYPEOUT ROUTINE
   181
   182						IFN	FTUUOS,<;!!!BEGINNING OF TOPS10 ROUTINE
   183	000140'	550 01 0 00 000110'	S%ERR:	HRRZ	S1,LSTERR		;GET ADDRESS OF ERROR
   184	000141'	322 01 0 00 004026'		JUMPE	S1,[POPJ P,0]		;RETURN IF NONE
   185						OUTSTR	[ASCIZ/
   186	000142'	051 03 0 00 004027'	?/]
   187	000143'	051 03 1 00 000001 		OUTSTR	@S1
   188						OUTSTR	[ASCIZ /
   189	000144'	051 03 0 00 004030'	/]
   190	000145'	263 17 0 00 000000 		POPJ	P,0
   191					>; !!!END OF TOPS10 ROUTINE
   192
   193						IFN	FTJSYS,<;!!!BEGINNING OF TOPS20 ROUTINE
   194					S%ERR:	MOVX	S1,.PRIOU		;TO PRIMARY OUTPUT
   195						MOVE	S2,[.FHSLF,,-1]		;OUR LAST ERROR
   196						ERSTR				;TYPE OUT THE ERROR STRING
   197						HALTF				;UNDEFINED ERROR NUMBER
   198						HALTF				;BAD DESTINATION DESIGNATOR
   199						POPJ	P,0
   200					>;!!!END OF TOPS20 ROUTINE
GSCN  --  Command Scanner Interface for DIAGNOSTICS	MACRO %53(1020) 10:54 19-Feb-79 Page 9
GSCN	MAC	22-May-78 10:53		S%CMND  --  Scan a command                                                         SEQ 0304

   201					SUBTTL S%CMND  --  Scan a command
   202
   203					;The S%CMND routine provides a command scanner interface similar to the
   204					;	TOPS-20 COMND JSYS.
   205
   206					;CALL IS:	S1/ Pointer to Command State Block
   207					;		S2/ Pointer to list of Function Descriptor Blocks
   208					;		    See GLXMAC or MONSYM for a description of these
   209
   210					;TRUE RETURN:	ALWAYS,
   211					;		S1/ Length of Command Reply block
   212					;		S2/ Address of the Command Reply block
   213
   214
   215
   216					;LOCAL FLAGS (RH OF F)
   217
   218			400000		CMQUES==1B18			;? TYPED
   219			200000		CMSWF==1B19			;BEG OF SWITCH SEEN
   220			100000		CMUSRF==1B20			;USER NAME REQUIRED
   221			040000		CMDEFF==1B21			;DEFAULT FIELD GIVEN
   222			020000		CMCFF==1B22			;^F RECOGNIZED FIELD
   223			010000		CMQUE2==1B23			;IN SECOND OR SUBSEQUENT HELP POSSIBILITY
   224			004000		CMBOL==1B24			;FIELD IS AT BEG OF LINE
   225			002000		CMTF1==1B25			;INTERNAL TEMP FLAG
   226			001000		CMINDF==1B26			;DOING GTJFN ON INDIRECT FILE
   227
   228					;FLAGS IN FUNCTION DISPATCH TABLE
   229
   230		400000	000000		CMNOD==1B0			;NO DEFAULT POSSIBLE
   231
   232			000050		NOIBCH=="("			;NOISE WORD BEG CHARACTER
   233			000051		NOIECH==")"			;NOISE WORD END CHARACTER
   234			000057		CMSWCH=="/"			;SWITCH CHARACTER
   235			000072		CMSWTM==":"			;SWITCH TERMINATOR
   236			000077		CMHLPC=="?"			;HELP CHARACTER
   237			000041		CMCOM1=="!"			;COMMENT CHARACTER
   238			000073		CMCOM2==";"			;FULL LINE COMMENT CHARACTER
   239			000043		CMDEFC=="#"			;DEFAULT FIELD CHARACTER
   240			000006		CMFREC=="F"-100			;FIELD RECOGNITION CHARACTER
   241			000100		CMINDC=="@"			;INDIRECT FILE CHARACTER
   242			000010		CMRDOC=="H"-100			;REDO COMMAND CHARACTER
   243			000042		CMQTCH==""""			;CHARACTER FOR QUOTED STRINGS
   244			000055		CMCONC=="-"			;LINE CONTINUATION CHARACTER
GSCN  --  Command Scanner Interface for DIAGNOSTICS	MACRO %53(1020) 10:54 19-Feb-79 Page 10
GSCN	MAC	22-May-78 10:53		S%CMND  --  Scan a command                                                         SEQ 0305

   245
   246					;NOPARSE ERROR CODES
   247			000001		NPXNSW==1
   248			000002		NPXNOM==2
   249			000003		NPXNUL==3
   250			000004		NPXINW==4
   251			000005		NPXNC==5
   252			000006		NPXICN==6
   253			000007		NPXIDT==7
   254			000010		NPXNQS==10
   255			000011		NPXAMB==11
   256			000012		NPXNMT==12
   257			000013		NPXCMA==13
   258			000014		NPXNNC==14	;TOO MANY CHARACTERS IN NODE NAME
   259			000015		NPXNNI==15	;ILLEGAL CHARACTER IN NODE NAME
   260			000016		NPXNSN==16	;NO SUCH NODE
   261
   262
   263						IFN	FTJSYS,< ;BEGINNING OF COMND JSYS CALL
   264					S%CMND:	COMND
   265						ERJMP	.RETF
   266						MOVEM	S1,CRBLK+CR.FLG
   267						MOVEM	S2,CRBLK+CR.RES
   268						MOVEM	T1,CRBLK+CR.FNB
   269						MOVEI	S1,CR.SIZ
   270						MOVEI	S2,CRBLK
   271						$RETT
   272					>;END OF COMND JSYS CALL
   273
   274					;DIAGNOSTICS COMND JSYS EQUIVELANT
   275
   276	000146'	260 17 0 00 000161'	S%CMND:	PUSHJ	P,.S%CMND
   277	000147'	200 01 0 00 000103'		MOVE	1,CRBLK+CR.FLG
   278	000150'	200 02 0 00 000104'		MOVE	2,CRBLK+CR.RES
   279	000151'	200 03 0 00 000105'		MOVE	3,CRBLK+CR.FNB
   280	000152'	263 17 0 00 000000 		POPJ	P,
   281
   282	000153'	260 17 0 00 000000*	F%IBYT:	GO	$CCLIN		;GET CHAR FROM TAKE FILE
   283	000154'	254 00 0 00 003747'		$RETT
   284
   285	000155'	260 17 0 00 003773'	F%IOPN:	$STOP(FSO,F%IOPN ERROR)
   286	000157'	260 17 0 00 003773'	F%REL:	$STOP(FSR,F%REL ERROR)
   287
GSCN  --  Command Scanner Interface for DIAGNOSTICS	MACRO %53(1020) 10:54 19-Feb-79 Page 11
GSCN	MAC	22-May-78 10:53		S%CMND  --  Scan a command                                                         SEQ 0306

   288						IFN	FTUUOS,<;BEGINNING OF TOPS-10 COMND CALL ROUTINE
   289					;!!!!!NOTE WELL - THIS CONDITIONAL RUNS TO THE END OF COMND ROUTINE
   290
   291	000161'	552 17 0 00 000055'	.S%CMND:HRRZM	P,PCALL		;SAVE STACK POINTER
   292	000162'	260 17 0 00 003647'		PUSHJ	P,.SAVE4	;SAVE P REGS
   293	000163'	260 17 0 00 003703'		SAVE	P5		;P5 WON'T BE SAVED BY THAT
   294	000164'	260 17 0 00 003665'		PUSHJ	P,.SAVET	;AND T REGS
   295	000165'	260 17 0 00 003723'		SAVE	Q1		;AND Q REGS
   296	000166'	260 17 0 00 003733'		SAVE	Q2
   297	000167'	260 17 0 00 003713'		SAVE	F		;AND F REGISTER
   298	000170'	260 17 0 00 000176'		PUSHJ	P,XCOMND	;DO THE WORK
   299	000171'	550 06 0 10 000000 		HRRZ T4,.CMFLG(P2) 	;GET REPARSE DISPATCH ADDRESS IF ANY
   300	000172'	322 06 0 00 000175'		JUMPE	T4,COMN1
   301	000173'	603 14 0 00 040000 		TXNE	F,CM%RPT	;REPARSE NEEDED?
   302	000174'	542 06 1 00 000055'		HRRM	T4,@PCALL	;YES, EFFECT TRANSFER
   303	000175'	263 17 0 00 000000 	COMN1:	POPJ	P,0		;NO RETURN
   304
   305	000176'	202 01 0 00 000010 	XCOMND::MOVEM	S1,P2		;SAVE BLOCK PTR
   306	000177'	202 02 0 00 000007 		MOVEM	S2,P1		;SAVE FN BLOCK PTR
   307	000200'	504 07 0 00 000007 		HRL	P1,P1		;SAVE COPY OF ORIGINAL
   308	000201'	202 17 0 00 000060'		MOVEM	P,STKFEN	;SAVE CURRENT STACK AS FENCE
   309						MOVEI	T1,[.CMRTY	;LIST OF BYTE POINTERS TO CHECK
   310							    .CMBFP
   311							    .CMPTR
   312							    .CMABP
   313	000202'	201 03 0 00 004043'			    0]		;MARK OF END OF LIST
   314	000203'	260 17 0 00 001240'		PUSHJ	P,CHKABP	;CHECK ALL BYTE PTRS
   315	000204'	200 11 0 10 000005 		MOVE	P3,.CMCNT(P2)	;SETUP ACTIVE VARIABLES
   316	000205'	200 12 0 10 000004 		MOVE	P4,.CMPTR(P2)
   317	000206'	200 13 0 10 000006 		MOVE	P5,.CMINC(P2)
   318	000207'	510 14 0 10 000000 		HLLZ	F,.CMFLG(P2) 	;GET 'GIVEN' FLAGS
   319	000210'	621 14 0 00 010000 		TXZ	F,CM%PFE
   320	000211'	623 14 0 00 400000 		TXZE	F,CM%ESC	;PREVIOUS FIELD HAD ESC?
   321	000212'	661 14 0 00 010000 		TXO	F,CM%PFE	;YES
   322	000213'	260 17 0 00 002674'		PUSHJ	P,K%RCOC		;GET COC MODES
   323	000214'	124 01 0 00 000062'		DMOVEM	S1,CMCCM	;SAVE THEM
   324	000215'	621 01 0 00 000060 		TXZ	S1,3B<CMFREC*2+1> ;NO ECHO ^F
   325	000216'	621 01 0 00 000003 		TXZ	S1,3B<CMRDOC*2+1> ;OR ^H
   326	000217'	660 01 0 00 140000 		TXO	S1,3B<.CHLFD*2+1> ;PROPER HANDLING OF NL
   327	000220'	620 02 0 00 600000 		TXZ	S2,3B<.CHESC*2+1-^D36> ;SET ESC TO NO ECHO
   328	000221'	260 17 0 00 002676'		PUSHJ	P,K%WCOC	;AND WRITE THEM BACK
   329						; ..
GSCN  --  Command Scanner Interface for DIAGNOSTICS	MACRO %53(1020) 10:54 19-Feb-79 Page 12
GSCN	MAC	22-May-78 10:53		S%CMND  --  Scan a command                                                         SEQ 0307

   330
   331						; ..
   332	000222'	200 17 0 00 000060'	XCOMN0:	MOVE	P,STKFEN	;NORMALIZE STACK IN CASE ABORTED ROUTINES
   333	000223'	630 14 0 00 004050'		TXZ	F,CM%ESC+CM%NOP+CM%EOC+CM%RPT+CM%SWT+CMBOL+CMCFF+CMDEFF+CMINDF ;INIT FLAGS
   334	000224'	316 12 0 10 000003 		CAMN	P4,.CMBFP(P2)	;AT BEG OF LINE?
   335	000225'	660 14 0 00 004000 		TXO	F,CMBOL		;YES
   336	000226'	135 03 0 00 004051'	XCOM1:	LOAD	T1,.CMFNP(P1),CM%FFL ;GET FUNCTION FLAGS
   337	000227'	137 03 0 00 004052'		STORE	T1,F,CM%FFL	;KEEP WITH OTHER FLAGS
   338	000230'	554 15 0 00 000007 		HLRZ	Q1,P1		;GET CM%DPP FLAG FROM FIRST BLOCK ONLY
   339	000231'	430 14 0 15 000000 		XOR	F,.CMFNP(Q1)
   340	000232'	621 14 0 00 000002 		TXZ	F,CM%DPP
   341	000233'	430 14 0 15 000000 		XOR	F,.CMFNP(Q1)
   342	000234'	200 03 0 07 000001 		MOVE	T1,.CMDAT(P1)	;GET FUNCTION DATA IF ANY
   343	000235'	202 03 0 00 000061'		MOVEM	T1,FNARG	;KEEP LOCALLY
   344	000236'	135 03 0 00 004053'		LOAD	T1,.CMFNP(P1),CM%FNC ;GET FUNCTION CODE
   345	000237'	301 03 0 00 000000 		CAIL	T1,0		;VALIDATE FN CODE
   346	000240'	301 03 0 00 000027 		CAIL	T1,MAXCFN
   347	000241'	260 17 0 00 003773'		$STOP(BFC,Bad function code)
   348	000243'	200 03 0 03 000324'		MOVE	T1,CFNTAB(T1)	;GET TABLE ENTRY FOR IT
   349	000244'	607 03 0 00 400000 		JXN	T1,CMNOD,XCOM3	;DISPATCH NOW IF NO DEFAULT POSSIBLE
   350	000245'	334 00 0 00 000000
   351	000246'	254 00 0 00 000267'
   352	000247'	260 17 0 00 000742'		PUSHJ	P,INILCH	;SKIP SPACES AND INIT ATOM BUFFER
   353	000250'	260 17 0 00 000765'		PUSHJ	P,CMCIN		;GET INITIAL INPUT
   354	000251'	306 03 0 00 000055 		CAIN	T1,CMCONC	;POSSIBLE LINE CONTINUATION?
   355						JRST	[PUSHJ	P,CMCIN		;YES, SEE IF NL FOLLOWS
   356							CAIE	T1,.CHLFD
   357							PUSHJ	P,CMRSET	;NO, RESET FIELD
   358							PUSHJ	P,CMCIN		;RE-READ FIRST CHAR
   359	000252'	254 00 0 00 004062'			JRST	.+1]		;CONTINUE
   360	000253'	306 03 0 00 000073 		CAIN	T1,CMCOM2	;COMMENT?
   361	000254'	254 00 0 00 000307'		JRST	CMCMT2		;YES
   362	000255'	306 03 0 00 000041 		CAIN	T1,CMCOM1
   363	000256'	254 00 0 00 000310'		JRST	CMCMT1		;YES
   364	000257'	306 03 0 00 000100 		CAIN	T1,CMINDC	;INDIRECT INDICATOR?
   365						JRST	[TXNN	F,CM%XIF	;YES, INDIRECT FILES ALLOWED?
   366							JRST	CMIND		;YES, DO IT
   367	000260'	254 00 0 00 004067'			JRST	.+1]		;NO, KEEP CHARACTER AS ORDINARY INPUT
   368	000261'	306 03 0 00 000012 		CAIN	T1,.CHLFD	;EOL BEGINS FIELD?
   369						JRST	[PUSHJ	P,CMDIP		;YES, PUT IT BACK
   370						        LOAD	T1,.CMFNP(P1),CM%FNC ;GET FUNCTION CODE
   371							CAIN	T1,.CMCFM	;CONFIRM?
   372							JRST	XCOM3		;YES, DO IT
   373							TXNE	F,CM%DPP	;HAVE DEFAULT?
   374							JRST	XCOM5		;YES, USE IT
   375							TXNN	F,CMBOL		;AT BGN OF BFR?
   376							JRST	XCOM3		;NO, TRY NULL FIELD
   377							PUSHJ	P,CMRSET
   378							SETZ	P5,0		;YES, EMPTY LINE.  IGNORE
   379							PUSHJ	P,CMRTY1	;REDO PROMPT
   380	000262'	254 00 0 00 004072'			JRST	XCOMN0]		;TRY AGAIN
GSCN  --  Command Scanner Interface for DIAGNOSTICS	MACRO %53(1020) 10:54 19-Feb-79 Page 13
GSCN	MAC	22-May-78 10:53		S%CMND  --  Scan a command                                                         SEQ 0308

   381	000263'	302 03 0 00 000033 		CAIE	T1,.CHESC	;ESC AT BEG OF FIELD?
   382	000264'	306 03 0 00 000006 		CAIN	T1,CMFREC
   383	000265'	254 00 0 00 000271'		JRST	XCOM4		;^F AT BEG OF FIELD
   384					   ;	CAIN	T1,CMDEFC	;OR DEFAULT REQUEST?
   385					   ;	JRST	XCOM4		;YES
   386	000266'	260 17 0 00 001116'	XCOM2:	PUSHJ	P,CMDIP		;PUT CHAR BACK
   387	000267'	135 03 0 00 004053'	XCOM3:	LOAD	T1,.CMFNP(P1),CM%FNC	;GET FUNCTION CODE
   388	000270'	254 00 1 03 000324'		JRST	@CFNTAB(T1)	;DO IT
   389
   390					;ESC OR ^F AT BEG OF FIELD
   391
   392	000271'	607 14 0 00 000002 	XCOM4:	TXNN	F,CM%DPP	;YES, HAVE DEFAULT STRING?
   393	000272'	254 00 0 00 000266'		JRST	XCOM2		;NO
   394	000273'	260 17 0 00 001110'		PUSHJ	P,CMDCH		;FLUSH RECOG CHAR
   395	000274'	554 15 0 00 000007 	XCOM5:	HLRZ	Q1,P1		;GET PTR TO FIRST FLD BLOCK
   396	000275'	200 03 0 15 000003 		MOVE	T1,.CMDEF(Q1)	;GET DEFAULT STRING PTR
   397	000276'	260 17 0 00 001252'		PUSHJ	P,CHKBP		;CHECK POINTER
   398	000277'	202 03 0 00 000015 		MOVEM	T1,Q1
   399	000300'	660 14 0 00 040000 		TXO	F,CMDEFF	;NOTE FIELD ALREADY IN ATOM BFR
   400	000301'	134 03 0 00 000015 	XCOM6:	ILDB	T1,Q1
   401						JUMPE	T1,[PUSHJ P,CHKLCH	;CHECK FOR NULL DEFAULT STRING
   402							CAIG	T1,0
   403							$STOP(BDS,Bad Default String) ;NULL STRING ILLEGAL
   404							PUSHJ	P,TIELCH	;END OF STRING, TIE OFF ATOM BUFFER
   405							TXNE	F,CMCFF		;^F RECOG?
   406							JRST	XCOMRF		;YES, GO GET MORE INPUT
   407							JXE	F,CM%ESC,XCOM3	;GO DIRECT TO FUNCTION IF NO RECOG
   408							MOVEI	T1,.CHESC
   409							PUSHJ	P,CMDIBQ	;YES, APPEND ESC TO BUFFER
   410							PUSHJ	P,CMRSET	;RESET LINE VARIABLES
   411	000302'	322 03 0 00 004114'			JRST	XCOMN0]		;TREAT AS ORDINARY INPUT
   412	000303'	260 17 0 00 000747'		PUSHJ	P,STOLCH	;STOR CHAR IN ATOM BUFFER
   413	000304'	603 14 0 00 400000 		TXNE	F,CM%ESC	;RECOGNIZING?
   414	000305'	260 17 0 00 001130'		PUSHJ	P,CMDIB		;YES, CHAR TO MAIN BUFFER ALSO
   415	000306'	254 00 0 00 000301'		JRST	XCOM6
GSCN  --  Command Scanner Interface for DIAGNOSTICS	MACRO %53(1020) 10:54 19-Feb-79 Page 14
GSCN	MAC	22-May-78 10:53		S%CMND  --  Scan a command                                                         SEQ 0309

   416
   417					;COMMENT
   418
   419	000307'	474 03 0 00 000000 	CMCMT2:	SETO	T1,		;SAY NO TERMINATOR OTHER THAN EOL
   420	000310'	202 03 0 00 000016 	CMCMT1:	MOVEM	T1,Q2		;REMEMBER MATCHING TERMINATOR
   421	000311'	260 17 0 00 000765'	CMCOM:	PUSHJ	P,CMCIN		;GET NEXT CHAR
   422	000312'	306 03 0 00 000055 		CAIN	T1,CMCONC	;POSSIBLE LINE CONTINUATION?
   423						JRST	[PUSHJ	P,CMCIN		;YES, CHECK FOR NL FOLLOWING
   424							CAIN	T1,.CHLFD
   425							JRST	CMCOM		;YES, STAY IN COMMENT
   426	000313'	254 00 0 00 004132'			JRST	.+1]		;NO, EXAMINE CHARACTER
   427	000314'	302 03 0 00 000006 		CAIE	T1,CMFREC	;RECOG REQUEST?
   428	000315'	306 03 0 00 000033 		CAIN	T1,.CHESC
   429						JRST	[PUSHJ	P,CMAMB		;YES, DING
   430	000316'	254 00 0 00 004136'			JRST	CMCOM]		;KEEP GOING
   431	000317'	306 03 0 00 000012 		CAIN	T1,.CHLFD	;END OF LINE?
   432						JRST	[PUSHJ	P,CMDIP		;YES, PUT IT BACK
   433	000320'	254 00 0 00 004140'			JRST	XCOM1]		;DO WHATEVER
   434	000321'	316 03 0 00 000016 		CAMN	T1,Q2		;MATCHING TERMINATOR?
   435	000322'	254 00 0 00 000226'		JRST	XCOM1		;YES, END OF COMMENT
   436	000323'	254 00 0 00 000311'		JRST	CMCOM		;NO, KEEP LOOKING
   437
   438					;TABLE OF COMND FUNCTIONS
   439
   440	000000				CFNTAB:	PHASE 0
   441	000000	000000	001345'		.CMKEY::!XCMKEY			;KEYWORD
   442	000001	000000	001665'		.CMNUM::!XCMNUM			;INTEGER
   443	000002	400000	001607'		.CMNOI::!XCMNOI+CMNOD		;NOISE WORD
   444	000003	000000	001331'		.CMSWI::!XCMSWI			;SWITCH
   445	000004	000000	002064'		.CMIFI::!XCMIFI			;INPUT FILE
   446	000005	000000	002064'		.CMOFI::!XCMOFI			;OUTPUT FILE
   447	000006	000000	002064'		.CMFIL::!XCMFIL			;GENERAL FILESPEC
   448	000007	000000	002051'		.CMFLD::!XCMFLD			;ARBITRARY FIELD
   449	000010	000000	001643'		.CMCFM::!XCMCFM			;CONFIRM
   450	000011	000000	002361'		.CMDIR::!XCMDIR			;DIRECTORY NAME
   451	000012	000000	002361'		.CMUSR::!XCMUSR			;USER NAME
   452	000013	000000	002435'		.CMCMA::!XCMCMA			;COMMA
   453	000014	400000	001260'		.CMINI::!XCMINI+CMNOD		;INITIALIZE COMMAND
   454	000015	000000	001662'		.CMFLT::!XCMFLT			;FLOATING POINT NUMBER
   455	000016	000000	001777'		.CMDEV::!XCMDEV			;DEVICE NAME
   456	000017	000000	001602'		.CMTXT::!XCMTXT			;TEXT
   457	000020	000000	001774'		.CMTAD::!XCMTAD			;TIME AND DATE
   458	000021	000000	002033'		.CMQST::!XCMQST			;QUOTED STRING
   459	000022	400000	002041'		.CMUQS::!XCMUQS+CMNOD		;UNQUOTED STRING
   460	000023	000000	002340'		.CMTOK::!XCMTOK			;TOKEN
   461	000024	000000	001664'		.CMNUX::!XCMNUX			;NUMBER DELIMITED BY NON-DIGIT
   462	000025	000000	002055'		.CMACT::!XCMACT			;ACCOUNT
   463	000026	000000	002060'		.CMNOD::!XCMNOD		;NODE NAME
   464	000353'					DEPHASE
   465			000027		MAXCFN==.-CFNTAB
GSCN  --  Command Scanner Interface for DIAGNOSTICS	MACRO %53(1020) 10:54 19-Feb-79 Page 15
GSCN	MAC	22-May-78 10:53		S%CMND  --  Scan a command                                                         SEQ 0310

   466
   467					;HERE TO GET MORE INPUT AND RETRY FIELD
   468
   469	000353'	260 17 0 00 000357'	XCOMRF:	PUSHJ	P,CMRSET	;RESET VARIABLES TO BEGINNING OF FIELD
   470	000354'	260 17 0 00 000777'		PUSHJ	P,CMCIN1	;GET MORE INPUT
   471	000355'	544 07 0 00 000007 		HLR	P1,P1		;RESET ALTERNATIVE LIST
   472	000356'	254 00 0 00 000222'		JRST	XCOMN0
   473
   474					;RESET VARIABLES TO BEGINNING OF CURRENT FIELD
   475
   476	000357'	274 13 0 00 000011 	CMRSET:	SUB	P5,P3		;RESET VARIABLES TO BGN OF FIELD
   477	000360'	270 13 0 10 000005 		ADD	P5,.CMCNT(P2)	;KEEP ALL CURRENT INPUT
   478	000361'	200 11 0 10 000005 		MOVE	P3,.CMCNT(P2)
   479	000362'	200 12 0 10 000004 		MOVE	P4,.CMPTR(P2)
   480	000363'	263 17 0 00 000000 		POPJ	P,0
GSCN  --  Command Scanner Interface for DIAGNOSTICS	MACRO %53(1020) 10:54 19-Feb-79 Page 16
GSCN	MAC	22-May-78 10:53		S%CMND  --  Scan a command                                                         SEQ 0311

   481
   482					;STANDARD EXITS
   483
   484					;RETURN BECAUSE ENTIRE COMMAND DELETED
   485
   486	000364'	661 14 0 00 040000 	XCOMXL:	TXO	F,CM%RPT	;NOTE REPEAT PARSE NEEDED
   487	000365'	200 03 0 00 000012 		MOVE	T1,P4		;BACK POINTER TO BEG OF BUFFER
   488	000366'	200 04 0 10 000003 		MOVE	T2,.CMBFP(P2)
   489	000367'	202 04 0 00 000012 		MOVEM	T2,P4
   490	000370'	260 17 0 00 001077'		PUSHJ	P,SUBBP		;SEE HOW MANY CHARS DELETED
   491	000371'	272 03 0 00 000011 		ADDM	T1,P3		;UPDATE SPACE COUNT
   492	000372'	400 13 0 00 000000 		SETZ	P5,		;NOTE NO INPUT
   493	000373'	260 17 0 00 000470'		PUSHJ	P,CMRTY1	;RETYPE PROMPT
   494	000374'	254 00 0 00 000410'		JRST	XCOMXI		;EXIT
   495
   496					;RETURN AND REPEAT PARSE BECAUSE USER DELETED BACK INTO ALREADY
   497					;PARSED TEXT
   498
   499	000375'	661 14 0 00 040000 	XCOMRP:	TXO	F,CM%RPT	;REQUEST REPEAT
   500	000376'	200 03 0 00 000012 		MOVE	T1,P4		;COMPUTE NUMBER CHARS IN BUFFER
   501	000377'	200 04 0 10 000003 		MOVE	T2,.CMBFP(P2)
   502	000400'	202 04 0 00 000012 		MOVEM	T2,P4		;RESET PTR TO TOP OF BUFFER
   503	000401'	260 17 0 00 001077'		PUSHJ	P,SUBBP		;COMPUTE PTR-TOP
   504	000402'	202 03 0 00 000013 		MOVEM	T1,P5		;SET AS NUMBER CHARS FOLLOWING PTR
   505	000403'	272 03 0 00 000011 		ADDM	T1,P3		;RESET COUNT TO TOP OF BUFFER
   506	000404'	322 03 0 00 000364'		JUMPE	T1,XCOMXL	;JUMP IF LINE NOW EMPTY
   507	000405'	254 00 0 00 000417'		JRST	XCOMX1		;OTHERWISE UPDATE VARIABLES AND EXIT
   508
   509					;GOOD RETURN
   510
   511	000406'	603 14 0 00 400000 	XCOMXR:	TXNE	F,CM%ESC	;RECOG CHARACTER TERMINATED?
   512	000407'	260 17 0 00 001110'		PUSHJ	P,CMDCH		;YES, FLUSH IT
   513	000410'	627 14 0 00 400000 	XCOMXI:	TXZN	F,CM%ESC	;FIELD TERMINATED WITH RECOG?
   514	000411'	254 00 0 00 000417'		JRST	XCOMX1		;NO
   515	000412'	602 14 0 00 020000 		TXNE	F,CMCFF		;^F RECOG?
   516	000413'	254 00 0 00 000353'		JRST	XCOMRF		;YES, GET MORE INPUT BEFORE RETURNING
   517	000414'	661 14 0 00 400000 		TXO	F,CM%ESC	;SET FLAG
   518	000415'	201 03 0 00 000040 		MOVEI	T1," "		;TERMINATE TYPESCRIPT WITH SPACE
   519	000416'	260 17 0 00 001130'		PUSHJ	P,CMDIB
   520	000417'	202 11 0 10 000005 	XCOMX1:	MOVEM	P3,.CMCNT(P2)	;UPDATE VARIABLES
   521	000420'	202 12 0 10 000004 		MOVEM	P4,.CMPTR(P2)
   522	000421'	202 13 0 10 000006 		MOVEM	P5,.CMINC(P2)
   523	000422'	200 17 0 00 000060'	XCOMX2:	MOVE	P,STKFEN	;RESET STACK
   524	000423'	120 01 0 00 000062'		DMOVE	S1,CMCCM	;GET SAVED CC MODES
   525	000424'	260 17 0 00 002676'		PUSHJ	P,K%WCOC	;RESTORE THEM
   526	000425'	202 07 0 00 000105'		MOVEM	P1,CRBLK+CR.FNB	;RETURN PTR TO FUNCTION BLOCK USED
   527	000426'	621 14 0 00 000777 		TXZ	F,CM%FFL	;FLUSH FUNCTION FLAGS
   528	000427'	502 14 0 10 000000 		HLLM	 F,.CMFLG(P2)	;RETURN FLAGS
   529	000430'	202 10 0 00 000103'		MOVEM	P2,CRBLK+CR.FLG	;STORE BLK ADDRESS
   530	000431'	502 14 0 00 000103'		HLLM	F,CRBLK+CR.FLG	;AND THE FLAGS
   531	000432'	201 01 0 00 000003 		MOVEI	S1,CR.SIZ	;LOAD SIZE OF RETURNED BLOCK
   532	000433'	201 02 0 00 000103'		MOVEI	S2,CRBLK	;AND ITS LOCATION
   533	000434'	254 00 0 00 003747'		$RETT			;AND TAKE A GOOD RETURN
GSCN  --  Command Scanner Interface for DIAGNOSTICS	MACRO %53(1020) 10:54 19-Feb-79 Page 17
GSCN	MAC	22-May-78 10:53		S%CMND  --  Scan a command                                                         SEQ 0312

   534
   535					;FAILURE RETURNS - FAILED TO PARSE
   536
   537	000435'	202 03 0 00 000110'	XCOMNE:	MOVEM	T1,LSTERR	;SAVE ERROR CODE
   538	000436'	606 14 0 00 400000 	XCOMNP:	JXN	F,CMQUES,CMRTYP	;IF IN HELP, DON'T RETURN NOW
   539	000437'	334 00 0 00 000000
   540	000440'	254 00 0 00 000450'
   541	000441'	260 17 0 00 000357'		PUSHJ	P,CMRSET	;RESET FIELD VARIABLES
   542	000442'	202 13 0 10 000006 		MOVEM	P5,.CMINC(P2)	;FIX USER BLOCK
   543	000443'	550 03 0 07 000000 		LOAD	T1,.CMFNP(P1),CM%LST	;GET PTR TO NEXT FN BLOCK
   544	000444'	542 03 0 00 000007 		HRRM	T1,P1		;SAVE IT
   545	000445'	326 03 0 00 000222'		JUMPN	T1,XCOMN0	;DISPATCH IF THERE IS ANOTHER FUNCTION
   546	000446'	661 14 0 00 200000 		TXO	F,CM%NOP	;NO OTHER POSSIBILITIES, SAY NO PARSE
   547	000447'	254 00 0 00 000422'		JRST	XCOMX2
   548
   549					;HERE AFTER EACH HELP OUTPUT
   550
   551	000450'	260 17 0 00 000357'	CMRTYP:	PUSHJ	P,CMRSET	;RESET FIELD VARIABLES
   552	000451'	550 03 0 07 000000 		LOAD	T1,.CMFNP(P1),CM%LST ;GET NEXT FUNCTION IN LIST
   553	000452'	542 03 0 00 000007 		HRRM	T1,P1
   554	000453'	660 14 0 00 410000 		TXO	F,CMQUES+CMQUE2	;NOTE IN SECOND HELP POSSIBILITY
   555	000454'	326 03 0 00 000222'		JUMPN	T1,XCOMN0	;DO SUBSEQUENT HELPS
   556	000455'	201 03 0 00 000012 		MOVEI	T1,.CHLFD	;START NEW LINE
   557	000456'	260 17 0 00 001173'		PUSHJ	P,CMCOUT
   558	000457'	544 07 0 00 000007 		HLR	P1,P1		;END OF LIST, REINIT IT
   559	000460'	370 00 0 00 000013 		SOS P5			;FLUSH QMARK FROM INPUT
   560	000461'	620 14 0 00 410000 		TXZ	F,CMQUES+CMQUE2	;NOTE NOT IN HELP
   561	000462'	260 17 0 00 000470'		PUSHJ	P,CMRTY1	;RETYPE LINE
   562	000463'	254 00 0 00 000222'		JRST	XCOMN0		;RESTART PARSE OF CURRENT FIELD
   563
   564	000464'	661 14 0 00 200000 	XCOMEO:	TXO	F,CM%NOP	;SET NO PARSE
   565	000465'	201 02 0 00 000103'		MOVEI	S2,CRBLK
   566	000466'	200 17 0 00 000060'		MOVE	P,STKFEN	;FIXUP STACK
   567	000467'	254 00 0 00 003746'		$RETF
GSCN  --  Command Scanner Interface for DIAGNOSTICS	MACRO %53(1020) 10:54 19-Feb-79 Page 18
GSCN	MAC	22-May-78 10:53		S%CMND  --  Scan a command                                                         SEQ 0313

   568
   569					;RETYPE LINE INCLUDING ADVANCE INPUT IF ANY
   570
   571	000470'				CMRTY1:;**	HRRZ	T1,.CMIOJ(P2) ;GET OUT JFN
   572					;**	RFPOS
   573					;**	HRRZ	T2,T2
   574					;**	JUMPE	T2,CMRTY2	;JUMP IF AT LEFT MARGIN
   575	000470'	561 03 0 00 004030'		HRROI	T1,[BYTE (7) .CHCRT,.CHLFD] ;NOT AT MARGIN, GIVE CRLF
   576	000471'	260 17 0 00 001175'		PUSHJ	P,CMSOUT		;
   577	000472'	332 15 0 10 000002 	CMRTY2:	SKIPE	Q1,.CMRTY(P2)	;GET ^R PTR IF ANY
   578	000473'	316 15 0 10 000003 	CMRTY3:	CAMN	Q1,.CMBFP(P2)	;UP TO TOP OF BFR?
   579	000474'	254 00 0 00 000477'		JRST	CMRTY4		;DONE WITH ^R PTR
   580	000475'	134 03 0 00 000015 		ILDB	T1,Q1		;TYPE ^R BFR
   581						JUMPN	T1,[PUSHJ P,CMCOUT
   582	000476'	326 03 0 00 004142'			    JRST CMRTY3]
   583	000477'	200 15 0 10 000003 	CMRTY4:	MOVE	Q1,.CMBFP(P2)	;GET MAIN BFR PTR
   584	000500'	316 15 0 00 000012 	CMRTY5:	CAMN	Q1,P4		;UP TO CURRENT PTR?
   585	000501'	254 00 0 00 000505'		JRST	CMRTY6		;YES, GO DO ADVANCE INPUT
   586	000502'	134 03 0 00 000015 		ILDB	T1,Q1		;TYPE OUT COMMAND BFR
   587	000503'	260 17 0 00 001173'		PUSHJ	P,CMCOUT
   588	000504'	254 00 0 00 000500'		JRST	CMRTY5
   589
   590	000505'	200 16 0 00 000013 	CMRTY6:	MOVE	Q2,P5		;GET INPUT COUNT
   591					CMRTY7:	SOJL	Q2,[SETZ T1,0		;ALL INPUT PRINTED, TIE OFF
   592							    IDPB T1,Q1		;BUFFER
   593	000506'	361 16 0 00 004144'			    POPJ P,0]
   594	000507'	134 03 0 00 000015 		ILDB	T1,Q1
   595	000510'	260 17 0 00 001173'		PUSHJ	P,CMCOUT
   596	000511'	254 00 0 00 000506'		JRST	CMRTY7
GSCN  --  Command Scanner Interface for DIAGNOSTICS	MACRO %53(1020) 10:54 19-Feb-79 Page 19
GSCN	MAC	22-May-78 10:53		S%CMND  --  Scan a command                                                         SEQ 0314

   597					;INDIRECT FILE HANDLING
   598
   599	000512'	640 14 0 00 010000 	CMIND:	JXO	F,CMQUE2,XCOMNP	;NO SECOND HELP POSSIBILITIES
   600	000513'	646 14 0 00 010000
   601	000514'	254 00 0 00 000436'
   602	000515'	260 17 0 00 002062'		PUSHJ	P,CMATFI	;GET A JFN ON THE INDIRECT FILE
   603	000516'	254 00 0 00 000562'		 JRST CMINDE		;FAILED
   604	000517'	260 17 0 00 001646'		PUSHJ	P,CMCFM0	;DO A CONFIRM
   605						 JRST	[HRROI T1,[ASCIZ /
   606					?Indirect file not confirmed.
   607					/]
   608							PUSHJ	P,CMSOUT
   609							TXO	F,CM%NOP
   610	000520'	254 00 0 00 004156'			JRST	XCOMX2]
   611	000521'	550 01 0 10 000011 		LOAD	S1,.CMGJB(P2),CM%GJB ;GET ADDR OF FD
   612	000522'	336 02 0 01 000002 		SKIPN	S2,.FDSTR(S1)	;IF DEVICE HAS NOT BEEN SPECIFIED,
   613	000523'	205 02 0 00 446353 		MOVSI	S2,'DSK'	;DEFAULT TO DISK
   614	000524'	202 02 0 01 000002 		MOVEM	S2,.FDSTR(S1)	;
   615	000525'	336 02 0 01 000005 		SKIPN	S2,.FDEXT(S1)	;AND DEFAULT THE EXTENSION
   616	000526'	205 02 0 00 435544 		MOVSI	S2,'CMD'	;TO ".CMD"
   617	000527'	202 02 0 01 000005 		MOVEM	S2,.FDEXT(S1)	;
   618	000530'	202 01 0 00 000116'		STORE	S1,IFOB+FOB.FD	;STORE IT
   619	000531'	201 01 0 00 000207 		MOVX	S1,FB.LSN!<INSVL.(7,FB.BSZ)> ;IGNORE LINE NUMBERS
   620	000532'	202 01 0 00 000117'		STORE	S1,IFOB+FOB.CW	;STORE
   621	000533'	201 01 0 00 000002 		MOVEI	S1,2		;SHORT FOB
   622	000534'	201 02 0 00 000116'		MOVEI	S2,IFOB		;AND ITS ADDRESS
   623	000535'	260 17 0 00 000155'		PUSHJ	P,F%IOPN	;OPEN FOR INPUT
   624	000536'	322 00 0 00 000562'		JUMPF	CMINDE		;IF FAILS,TELL WHY
   625	000537'	202 01 0 00 000117'		MOVEM	S1,IIFN		;STORE IFN
   626	000540'	260 17 0 00 000357'		PUSHJ	P,CMRSET	;FLUSH INDIRECT FILESPEC FROM BUFFER
   627	000541'	200 01 0 00 000117'	CMIND1:	MOVE	S1,IIFN		;GET IFN
   628	000542'	260 17 0 00 000153'		PUSHJ	P,F%IBYT	;GET A BYTE
   629	000543'	322 00 0 00 000555'		JUMPF	CMIND2		;IF FAILS FIND OUT WHY
   630	000544'	302 02 0 00 000010 		CAIE	S2,CMRDOC	;IGNORE ^H
   631	000545'	306 02 0 00 000015 		CAIN	S2,.CHCRT	;IGNORE CR
   632	000546'	254 00 0 00 000541'		JRST	CMIND1
   633	000547'	302 02 0 00 000012 		CAIE	S2,.CHLFD	;CONVERT EOL TO SPACE
   634	000550'	306 02 0 00 000033 		CAIN	S2,.CHESC	;DITTO ESC (BUT THERE SHOULDN'T BE ANY)
   635	000551'	201 02 0 00 000040 		MOVEI	S2," "
   636	000552'	200 03 0 00 000002 		MOVE	T1,S2		;COPY CHARACTER
   637	000553'	260 17 0 00 001131'		PUSHJ	P,CMDIBQ	;PUT CHAR IN BUFFER WITHOUT TYPEOUT
   638	000554'	254 00 0 00 000541'		JRST	CMIND1
GSCN  --  Command Scanner Interface for DIAGNOSTICS	MACRO %53(1020) 10:54 19-Feb-79 Page 20
GSCN	MAC	22-May-78 10:53		S%CMND  --  Scan a command                                                         SEQ 0315

   639	000555'	200 01 0 00 000117'	CMIND2:	MOVE	S1,IIFN		;CLOSE OFF THE FILE NOW
   640	000556'	260 17 0 00 000157'		PUSHJ	P,F%REL		;
   641	000557'	201 03 0 00 000012 		MOVEI	T1,.CHLFD	;TIE OFF LINE
   642	000560'	260 17 0 00 001131'		PUSHJ	P,CMDIBQ
   643	000561'	254 00 0 00 000375'		JRST	XCOMRP		;REPARSE LINE AS NOW CONSTITUTED
   644
   645	000562'	260 17 0 00 002655'	CMINDE:	PUSHJ	P,I%IOFF		;TURN OFF INTERRUPTS
   646	000563'	037 01 0 00 000000 		PCRLF
   647	000564'	201 00 0 00 004162'		MOVEI	[ASCIZ/?PROBLEM WITH INDIRECT FILE:/]
   648	000565'	037 17 0 00 000001 		PNTALF
   649	000566'	260 17 0 00 002654'		PUSHJ	P,I%ION			;THEN TURN THEM BACK ON
   650	000567'	661 14 0 00 200000 		TXO	F,CM%NOP	;RETURN FAILURE, NO CHECK ALTERNATIVES
   651	000570'	254 00 0 00 000422'		JRST	XCOMX2
GSCN  --  Command Scanner Interface for DIAGNOSTICS	MACRO %53(1020) 10:54 19-Feb-79 Page 21
GSCN	MAC	22-May-78 10:53		S%CMND  --  Scan a command                                                         SEQ 0316

   652
   653					;****************************************
   654					;COMND - LOCAL SUBROUTINES
   655					;****************************************
   656
   657					;READ NEXT FIELD ATOM
   658					;ASSUMES ATOM BUFFER ALREADY SETUP
   659
   660	000571'	201 03 0 00 000573'	CMRATM:	MOVEI	T1,FLDBRK	;USE STANDARD FIELD BREAK SET
   661	000572'	254 00 0 00 000615'		PJRST	CMRFLD		;PARSE THE FIELD
   662
   663	000573'	777777	777760		FLDBRK:	777777,,777760		;ALL CONTROL CHARS
   664	000574'	777754	001760			777754,,001760		;ALL EXCEPT - , NUMBERS
   665	000575'	400000	000760			400000,,000760		;ALL EXCEPT UC ALPHABETICS
   666	000576'	400000	000760			400000,,000760		;ALL EXCEPT LC ALPHABETICS
   667
   668					;READ FILESPEC FIELD - FILESPEC PUNCTUATION CHARACTERS
   669					;ARE LEGAL ( :, <, >, ., ;)
   670
   671	000577'	201 03 0 00 000601'	CMRFIL:	MOVEI	T1,FILBRK	;USE FILE BREAK SET
   672	000600'	254 00 0 00 000645'		PJRST	CFRFLD
   673
   674	000601'	777777	777760		FILBRK:	777777,,777760		;ALL CC
   675	000602'	747504	000520			747504,,000520		;PUNCT, NUMBERS
   676	000603'	400000	000260			400000,,000260		;UC, BRACKETS
   677	000604'	400000	000760			400000,,000760		;LC
   678
   679					;USERNAME BREAK SET. BREAKS ON EVERYTHING EXCEPT DOT AND ALPHABETICS.
   680
   681	000605'	777777	777760		USRBRK:	-1,,777760		;BREAK ON CONTROLS
   682	000606'	777744	001760			777744,,001760		;DON'T BREAK ON "-", ".", DIGITS
   683	000607'	400000	000760			400000,,760		;DON'T BREAK ON UPPERCASE LETTERS
   684	000610'	400000	000760			400000,,760		;OR LOWERCASE LETTERS
   685
   686					;READ TO END OF LINE
   687
   688	000611'	000200	000000		EOLBRK:	1B<.CHLFD>		;END OF LINE ONLY
   689	000612'	000000	000000			EXP	0,0,0		;THREE WORDS OF 0'S
   690	000613'	000000	000000
   691	000614'	000000	000000
GSCN  --  Command Scanner Interface for DIAGNOSTICS	MACRO %53(1020) 10:54 19-Feb-79 Page 22
GSCN	MAC	22-May-78 10:53		S%CMND  --  Scan a command                                                         SEQ 0317

   692
   693					;GENERAL FIELD PARSE ROUTINE - TAKES BREAK SET MASK
   694					; T1/ ADDRESS OF 4-WORD BREAK SET MASK
   695					;	PUSHJ	P,CMRFLD
   696					; RETURNS +1, FIELD COPIED TO ATOM BUFFER, TERMINATOR BACKED UP
   697
   698	000615'	202 03 0 00 000064'	CMRFLD:	MOVEM	T1,CMRBRK	;SAVE BREAK TABLE ADDRESS
   699	000616'	602 14 0 00 040000 		TXNE	F,CMDEFF	;DEFAULT GIVEN?
   700	000617'	254 00 0 00 000644'		JRST	CMRATT		;YES, ALREADY IN BUFFER
   701	000620'	260 17 0 00 000765'	CMRAT1:	PUSHJ	P,CMCIN		;GET A CHAR
   702	000621'	302 03 0 00 000006 	CMRAT2:	CAIE	T1,CMFREC	;^F RECOGNITION?
   703	000622'	306 03 0 00 000033 		CAIN	T1,.CHESC	;ESC?
   704						JRST	[PUSHJ	P,CHKLCH	;YES, RETURN IF ANYTHING NOW
   705							JUMPG	T1,CMRATT	;IN ATOM BFR
   706							PUSHJ	P,CMAMB		;NOTHING THERE, DING
   707	000623'	254 00 0 00 004170'			JRST	CMRAT1]		;KEEP TRYING
   708	000624'	302 03 0 00 000040 		CAIE	T1," "		;SPACE OR TAB?
   709	000625'	306 03 0 00 000011 		CAIN	T1,.CHTAB
   710						JRST	[PUSHJ	P,CHKLCH	;YES, RETURN IF ANYTHING
   711							JUMPG	T1,CMRATT	;IN ATOM BFR
   712	000626'	254 00 0 00 004174'			JRST	CMRAT1]		;OTHERWISE IGNORE
   713	000627'	306 03 0 00 000012 		CAIN	T1,.CHLFD	;OR EOL?
   714	000630'	254 00 0 00 000643'		JRST	CMRATR		;YES
   715	000631'	306 03 0 00 000077 		CAIN	T1,CMHLPC	;HELP REQUEST?
   716						JRST	[TXO	F,CMQUES	;YES, FLAG
   717	000632'	254 00 0 00 004177'			JRST	CMRATT]
   718	000633'	200 04 0 00 000003 		move	T2,t1		;get copy of char
   719	000634'	231 04 0 00 000040 		IDIVI	T2,40		;COMPUTE INDEX TO BIT MASK
   720	000635'	200 05 0 05 000000'		MOVE	T3,BITS(t3)
   721	000636'	270 04 0 00 000064'		ADD	T2,CMRBRK
   722	000637'	612 05 0 04 000000 		TDNE	T3,0(t2)	;BREAK CHARACTER?
   723	000640'	254 00 0 00 000643'		JRST	CMRATR		;YES
   724	000641'	260 17 0 00 000747'	CMRAT3:	PUSHJ	P,STOLCH	;BUILD KEYWORD STRING
   725	000642'	254 00 0 00 000620'		JRST	CMRAT1
   726
   727	000643'	260 17 0 00 001116'	CMRATR:	PUSHJ	P,CMDIP		;PUT CHARACTER BACK IN BUFFER
   728	000644'	254 00 0 00 000757'	CMRATT:	PJRST	TIELCH		;TIE OFF ATOM BUFFER AND RETURN
GSCN  --  Command Scanner Interface for DIAGNOSTICS	MACRO %53(1020) 10:54 19-Feb-79 Page 23
GSCN	MAC	22-May-78 10:53		S%CMND  --  Scan a command                                                         SEQ 0318

   729
   730					;FILE SPEC FIELD PARSE ROUTINE - TAKES BREAK SET MASK
   731					; T1/ ADDRESS OF 4-WORD BREAK SET MASK
   732					;	PUSHJ	P,CFRFLD
   733					; RETURNS +1, FIELD COPIED TO ATOM BUFFER, TERMINATOR BACKED UP
   734
   735	000645'	202 03 0 00 000064'	CFRFLD:	MOVEM	T1,CMRBRK	;SAVE BREAK TABLE ADDRESS
   736	000646'	602 14 0 00 040000 		TXNE	F,CMDEFF	;DEFAULT GIVEN?
   737	000647'	254 00 0 00 000674'		JRST	CFRATT		;YES, ALREADY IN BUFFER
   738	000650'	260 17 0 00 000765'	CFRAT1:	PUSHJ	P,CMCIN		;GET A CHAR
   739	000651'	302 03 0 00 000006 	CFRAT2:	CAIE	T1,CMFREC	;^F RECOGNITION?
   740	000652'	306 03 0 00 000033 		CAIN	T1,.CHESC	;ESC?
   741	000653'	254 00 0 00 000674'		JRST	CFRATT		;YES
   742	000654'	302 03 0 00 000040 		CAIE	T1," "		;SPACE OR TAB?
   743	000655'	306 03 0 00 000011 		CAIN	T1,.CHTAB
   744						JRST	[PUSHJ	P,CHKLCH	;YES, RETURN IF ANYTHING
   745							JUMPG	T1,CFRATT	;IN ATOM BFR
   746	000656'	254 00 0 00 004201'			JRST	CFRAT1]		;OTHERWISE IGNORE
   747	000657'	306 03 0 00 000012 		CAIN	T1,.CHLFD	;OR EOL?
   748	000660'	254 00 0 00 000673'		JRST	CFRATR		;YES
   749	000661'	306 03 0 00 000077 		CAIN	T1,CMHLPC	;HELP REQUEST?
   750						JRST	[TXO	F,CMQUES	;YES, FLAG
   751	000662'	254 00 0 00 004204'			JRST	CFRATT]
   752	000663'	200 04 0 00 000003 		move	T2,t1		;get copy of char
   753	000664'	231 04 0 00 000040 		IDIVI	T2,40		;COMPUTE INDEX TO BIT MASK
   754	000665'	200 05 0 05 000000'		MOVE	T3,BITS(t3)
   755	000666'	270 04 0 00 000064'		ADD	T2,CMRBRK
   756	000667'	612 05 0 04 000000 		TDNE	T3,0(t2)	;BREAK CHARACTER?
   757	000670'	254 00 0 00 000673'		JRST	CFRATR		;YES
   758	000671'	260 17 0 00 000747'	CFRAT3:	PUSHJ	P,STOLCH	;BUILD KEYWORD STRING
   759	000672'	254 00 0 00 000650'		JRST	CFRAT1
   760
   761	000673'	260 17 0 00 001116'	CFRATR:	PUSHJ	P,CMDIP		;PUT CHARACTER BACK IN BUFFER
   762	000674'	254 00 0 00 000757'	CFRATT:	PJRST	TIELCH		;TIE OFF ATOM BUFFER AND RETURN
GSCN  --  Command Scanner Interface for DIAGNOSTICS	MACRO %53(1020) 10:54 19-Feb-79 Page 24
GSCN	MAC	22-May-78 10:53		S%CMND  --  Scan a command                                                         SEQ 0319

   763
   764					;ATOM READ FOR SPECIAL FIELDS - DOES NOT ALLOW RECOGNITION
   765					;READ FIELD TO CR
   766
   767	000675'	624 14 0 00 002000 	CMRSTR:	TXZA	F,CMTF1		;FLAG NO TERMINATE ON SPACE
   768						; ..			;CONTINUE IN CMRSPC
   769
   770					;READ FIELD TO SPACE OR CR
   771
   772	000676'	660 14 0 00 002000 	CMRSPC:	TXO	F,CMTF1		;FLAG TERMINATE ON SPACE
   773	000677'	602 14 0 00 040000 		TXNE	F,CMDEFF	;HAVE FIELD ALREADY?
   774	000700'	263 17 0 00 000000 		POPJ	P,0		;YES
   775	000701'	260 17 0 00 000765'	CMRSP1:	PUSHJ	P,CMCIN		;GET CHAR
   776	000702'	306 03 0 00 000077 		CAIN	T1,CMHLPC	;HELP?
   777						JRST	[TXO	F,CMQUES	;YES
   778	000703'	254 00 0 00 004206'			POPJ	P,0]
   779	000704'	302 03 0 00 000033 		CAIE	T1,.CHESC	;RECOG REQUEST?
   780	000705'	306 03 0 00 000006 		CAIN	T1,CMFREC
   781						JRST	[PUSHJ	P,CMAMB		;DING
   782	000706'	254 00 0 00 004210'			JRST	CMRSP1]		;CONTINUE
   783	000707'	302 03 0 00 000011 		CAIE	T1,.CHTAB
   784	000710'	306 03 0 00 000040 		CAIN	T1," "		;END OF FIELD?
   785						JRST	[JXE	F,CMTF1,.+1	;CONTINUE IF NOT TERMINATING ON BLANK
   786							PUSHJ	P,CHKLCH	;SEE IF ANY NON-BLANK SEEN
   787							JUMPE	T1,CMRSP1	;JUMP IF LEADING BLANK
   788	000711'	254 00 0 00 004212'			JRST	CMRATT]		;TERMINATING BLANK
   789	000712'	306 03 0 00 000012 		CAIN	T1,.CHLFD	;END OF LINE?
   790	000713'	254 00 0 00 000643'		JRST	CMRATR		;YES
   791	000714'	260 17 0 00 000747'		PUSHJ	P,STOLCH	;NO, CHAR TO ATOM BUFFER
   792	000715'	254 00 0 00 000701'		JRST	CMRSP1		;CONTINUE
GSCN  --  Command Scanner Interface for DIAGNOSTICS	MACRO %53(1020) 10:54 19-Feb-79 Page 25
GSCN	MAC	22-May-78 10:53		S%CMND  --  Scan a command                                                         SEQ 0320

   793					;READ QUOTED STRING INTO ATOM BUFFER
   794					;STRING DELIMITED BY ", "" MEANS LITERAL "
   795
   796	000716'	602 14 0 00 040000 	CMRQST:	TXNE	F,CMDEFF	;HAVE DEFAULT?
   797	000717'	254 00 0 00 004220'		RETSKP			;YES
   798	000720'	260 17 0 00 000765'		PUSHJ	P,CMCIN		;GET FIRST CHAR
   799	000721'	306 03 0 00 000077 		CAIN	T1,CMHLPC	;FIRST CHAR IS HELP?
   800						JRST	[TXO	F,CMQUES	;YES
   801	000722'	254 00 0 00 004222'			RETSKP]
   802	000723'	302 03 0 00 000042 		CAIE	T1,CMQTCH	;START OF STRING?
   803	000724'	263 17 0 00 000000 		POPJ	P,0		;NO, FAIL
   804	000725'	260 17 0 00 000765'	CMRQS1:	PUSHJ	P,CMCIN		;READ NEXT CHAR
   805	000726'	306 03 0 00 000012 		CAIN	T1,.CHLFD	;LINE ENDED UNEXPECTEDLY?
   806	000727'	254 00 0 00 004224'		JRST	[PJRST	CMDIP]	;YES, PUT LF BACK AND RETURN FAIL
   807	000730'	302 03 0 00 000042 		CAIE	T1,CMQTCH	;ANOTHER QUOTE?
   808	000731'	254 00 0 00 000740'		JRST	CMRQS2		;NO, GO STORE CHARACTER
   809	000732'	260 17 0 00 000765'		PUSHJ	P,CMCIN		;YES, PEEK AT ONE AFTER
   810	000733'	306 03 0 00 000042 		CAIN	T1,CMQTCH	;PAIR OF QUOTES?
   811	000734'	254 00 0 00 000740'		JRST	CMRQS2		;YES, STORE ONE
   812	000735'	260 17 0 00 001116'		PUSHJ	P,CMDIP		;NO, PUT BACK NEXT CHAR
   813	000736'	260 17 0 00 000757'		PUSHJ	P,TIELCH	;TIE OFF ATOM BUFFER
   814	000737'	254 00 0 00 004220'		RETSKP			;GOOD
   815
   816	000740'	260 17 0 00 000747'	CMRQS2:	PUSHJ	P,STOLCH	;STOR CHAR IN ATOM BUFFER
   817	000741'	254 00 0 00 000725'		JRST	CMRQS1		;KEEP LOOKING
   818
   819					;INIT ATOM BUFFER
   820
   821	000742'	200 03 0 10 000007 	INILCH:	MOVE	T1,.CMABP(P2)	;GET PTR
   822	000743'	202 03 0 00 000056'		MOVEM	T1,ATBPTR
   823	000744'	200 03 0 10 000010 		MOVE	T1,.CMABC(P2)	;GET SIZE
   824	000745'	202 03 0 00 000057'		MOVEM	T1,ATBSIZ
   825	000746'	254 00 0 00 001072'		PJRST	CMSKSP		;FLUSH INITIAL SPACES
   826
   827					;STORE CHARACTER IN ATOM BUFFER
   828
   829	000747'	375 00 0 00 000057'	STOLCH:	SOSGE	ATBSIZ		;ROOM?
   830	000750'	260 17 0 00 003773'		$STOP(ABS,Atom buffer too small) ;NO
   831	000752'	136 03 0 00 000056'		IDPB	T1,ATBPTR
   832	000753'	263 17 0 00 000000 		POPJ	P,0
   833
   834					;CHECK NUMBER OF CHARACTERS IN ATOM BUFFER
   835
   836	000754'	200 03 0 10 000010 	CHKLCH:	MOVE	T1,.CMABC(P2)	;GET ORIG COUNT
   837	000755'	274 03 0 00 000057'		SUB	T1,ATBSIZ	;COMPUTE DIFFERENCE
   838	000756'	263 17 0 00 000000 		POPJ	P,0
   839
   840					;TIE OFF ATOM BUFFER
   841
   842	000757'	337 00 0 00 000057'	TIELCH:	SKIPG	ATBSIZ		;ROOM FOR NULL?
   843	000760'	260 17 0 00 000750'		PUSHJ	P,S..ABS	;NO, LOSE
   844	000761'	400 03 0 00 000000 		SETZ	T1,0
   845	000762'	200 05 0 00 000056'		MOVE	T3,ATBPTR	;GET POINTER
   846	000763'	136 03 0 00 000005 		IDPB	T1,T3		;DEPOSIT WITHOUT CHANGING PTR
   847	000764'	263 17 0 00 000000 		POPJ	P,0
GSCN  --  Command Scanner Interface for DIAGNOSTICS	MACRO %53(1020) 10:54 19-Feb-79 Page 26
GSCN	MAC	22-May-78 10:53		S%CMND  --  Scan a command                                                         SEQ 0321

   848
   849					;GET NEXT INPUT CHARACTER FOR PROCESSING
   850					;APPEND TEXT TO BUFFER IF NECESSARY WITH INTERNAL TEXTI
   851					;	PUSHJ	P,CMCIN
   852					; RETURNS +1 ALWAYS, T1/ CHARACTER
   853
   854					CMCIN:	SOJL	P5,[SETZ P5,0		;MAKE INPUT EXACTLY EMPTY
   855							PUSHJ	P,CMCIN1	;NONE LEFT, GO GET MORE
   856	000765'	361 13 0 00 004234'			JRST	CMCIN]
   857	000766'	134 03 0 00 000012 		ILDB	T1,P4		;GET NEXT ONE
   858	000767'	370 00 0 00 000011 		SOS	P3		;UPDATE FREE COUNT
   859	000770'	306 03 0 00 000006 		CAIN	T1,CMFREC	;^F?
   860						JRST	[TXO F,CM%ESC+CMCFF	;YES
   861	000771'	254 00 0 00 004240'			 POPJ	P,0]
   862	000772'	306 03 0 00 000033 		CAIN	T1,.CHESC	;ESC?
   863						JRST	[TXO F,CM%ESC		;YES
   864	000773'	254 00 0 00 004242'			 POPJ	P,0]
   865	000774'	306 03 0 00 000012 		CAIN	T1,.CHLFD	;END OF LINE?
   866	000775'	661 14 0 00 100000 		TXO	F,CM%EOC	;YES, MEANS END OF COMMAND
   867	000776'	263 17 0 00 000000 		POPJ	P,0
GSCN  --  Command Scanner Interface for DIAGNOSTICS	MACRO %53(1020) 10:54 19-Feb-79 Page 27
GSCN	MAC	22-May-78 10:53		S%CMND  --  Scan a command                                                         SEQ 0322

   868
   869	000777'	202 14 0 00 000065'	CMCIN1:	MOVEM	F,CMCSF		;SAVE F
   870	001000'	402 00 0 00 000076'		SETZM CMCBLF		;INIT ACCUMULATED FLAGS
   871	001001'	200 03 0 00 004244'		MOVE	T1,[XWD P1,CMCSAC] ;PREPARE FOR BLT
   872	001002'	251 03 0 00 000071'		BLT	T1,CMCSAC+3	;SAVE P1-P4
   873	001003'	205 03 0 00 565000 		MOVX	T1,RD%BRK+RD%PUN+RD%BEL+RD%CRF+RD%JFN+RD%BBG ;SETUP FLAGS
   874	001004'	603 14 0 00 000020 		TXNE	F,CM%NJF	;WERE JFN'S PASSED?
   875	001005'	621 03 0 00 004000 		TXZ	T1,RD%JFN	;NO, PASS THAT FACT
   876	001006'	603 14 0 00 004000 		TXNE	F,CM%RAI	;RAISE INPUT REQUESTED?
   877	001007'	661 03 0 00 000200 		TXO	T1,RD%RAI	;YES, PASS IT
   878	001010'	202 03 0 00 000121'		MOVEM	T1,TI+.RDFLG	;STORE FLAGS FOR TEXTI
   879	001011'	201 03 0 00 000010 		MOVX	T1,.RDBKL	;GET NUMBER OF WORDS TO PASS
   880	001012'	202 03 0 00 000120'		MOVEM	T1,TI+.RDCWB	;AND STORE IT
   881	001013'	200 03 0 10 000002 		MOVE	T1,.CMRTY(P2)	;SETUP ^R BUFFER
   882	001014'	202 03 0 00 000126'		MOVEM	T1,TI+.RDRTY	;FOR TXTI
   883	001015'	200 03 0 10 000003 		MOVE	T1,.CMBFP(P2)	;SETUP TOP OF BUFFER
   884	001016'	202 03 0 00 000125'		MOVEM	T1,TI+.RDBFP	;
   885	001017'	402 00 0 00 000127'		SETZM	TI+.RDBRK	;NO SPECIAL BREAK MASK
   886	001020'	202 12 0 00 000130'		MOVEM	P4,TI+.RDBKL	;STORE CURRENT PTR FOR BACK UP LIMIT
   887	001021'	202 11 0 00 000075'		MOVEM	P3,CMCSC	;SAVE CURRENT COUNT
   888	001022'	274 11 0 00 000013 		SUB	P3,P5		;ADJUST COUNT FOR ADVANCE INPUT
   889	001023'	202 11 0 00 000124'		MOVEM	P3,TI+.RDDBC	;AND STORE FOR THE TEXT INPUT
   890	001024'	332 00 0 00 000013 		SKIPE	P5		;PUSH POINTER PAST CURRENT INPUT
   891	001025'	133 00 0 00 000012 		IBP	P4		;
   892	001026'	367 13 0 00 001025'		SOJG	P5,.-1		;
   893	001027'	202 12 0 00 000123'		MOVEM	P4,TI+.RDDBP	;STORE FOR INPUT
   894	001030'	200 01 0 10 000001 		MOVE	S1,.CMIOJ(P2)	;GET THE JFNS
   895	001031'	202 01 0 00 000122'		MOVEM	S1,TI+.RDIOJ	;STORE FOR TEXTI
   896	001032'	337 00 0 00 000011 	CMCIN2:	SKIPG	P3		;ROOM IN BUFFER FOR MORE INPUT?
   897	001033'	260 17 0 00 003773'		$STOP(TMT,Too much text) 	;NO
   898	001035'	201 01 0 00 000120'		MOVEI	S1,TI		;GET LOCATION OF TEXTI BLOCK
   899	001036'	260 17 0 00 003001'		PUSHJ	P,K%TXTI	;DO INTERNAL TEXTI
   900						JUMPF	[MOVEI	S1,EREOF$
   901	001037'	322 00 0 00 004252'			JRST	XCOMEO]
   902	001040'	434 14 0 00 000121'		IOR	F,TI+.RDFLG	;GET FLAGS
   903	001041'	603 14 0 00 000020 		TXNE	F,RD%BFE	;BUFFER EMPTY?
   904	001042'	254 00 0 00 001067'		JRST	CMCIN4		;YES
   905	001043'	437 14 0 00 000076'		IORB	F,CMCBLF	;ACCUMULATE FLAGS (RD%BLR)
   906	001044'	135 03 0 00 000123'		LDB	T1,TI+.RDDBP		;GET LAST CHAR
   907	001045'	200 12 0 00 000123'		MOVE	P4,TI+.RDDBP	;REMEMBER POINTER
   908	001046'	200 11 0 00 000124'		MOVE	P3,TI+.RDDBC	;AND COUNT
   909	001047'	302 03 0 00 000012 		CAIE	T1,.CHLFD	;AN ACTION CHAR?
   910	001050'	306 03 0 00 000033 		CAIN	T1,.CHESC
   911	001051'	254 00 0 00 001056'		JRST	CMCIN3		;YES
   912	001052'	302 03 0 00 000077 		CAIE	T1,CMHLPC
   913	001053'	306 03 0 00 000006 		CAIN	T1,CMFREC	;^F?
   914	001054'	254 00 0 00 001056'		JRST	CMCIN3		;YES
   915	001055'	254 00 0 00 001032'		JRST	CMCIN2		;NO, GET MORE INPUT
GSCN  --  Command Scanner Interface for DIAGNOSTICS	MACRO %53(1020) 10:54 19-Feb-79 Page 28
GSCN	MAC	22-May-78 10:53		S%CMND  --  Scan a command                                                         SEQ 0323

   916
   917	001056'	603 14 0 00 000010 	CMCIN3:	TXNE	F,RD%BLR	;BACKUP LIMIT REACHED?
   918	001057'	254 00 0 00 001067'		JRST	CMCIN4		;YES, CLEANUP AND REPARSE
   919	001060'	200 13 0 00 000075'		MOVE	P5,CMCSC	;RECOVER PREVIOUS COUNT
   920	001061'	274 13 0 00 000011 		SUB	P5,P3		;COMPUTE CHARACTERS JUST APPENDED
   921	001062'	205 03 0 00 000066'		MOVSI	T1,CMCSAC	;RESTORE ACS P1-P4, F
   922	001063'	541 03 0 00 000007 		HRRI	T1,P1
   923	001064'	251 03 0 00 000012 		BLT	T1,P4
   924	001065'	200 14 0 00 000065'		MOVE	F,CMCSF
   925	001066'	263 17 0 00 000000 		POPJ	P,0
   926
   927					;HERE ON RETURN FROM TEXTI WHICH REACHED BACKUP LIMIT OR WHICH RETURNED
   928					;BECAUSE BUFFER EMPTY.  MUST REPARSE LINE.  RESTORE ACS, BUT LEAVE
   929					;MAIN POINTER AS RETURNED BY TEXTI.
   930
   931	001067'	120 07 0 00 000066'	CMCIN4:	DMOVE	P1,CMCSAC	;RESTORE P1&P2
   932	001070'	200 14 0 00 000065'		MOVE	F,CMCSF		;RESTORE F
   933	001071'	254 00 0 00 000375'		JRST	XCOMRP		;RETURN REPEAT PARSE
GSCN  --  Command Scanner Interface for DIAGNOSTICS	MACRO %53(1020) 10:54 19-Feb-79 Page 29
GSCN	MAC	22-May-78 10:53		S%CMND  --  Scan a command                                                         SEQ 0324

   934
   935					;SKIP LEADING TABS OR SPACES
   936
   937	001072'	260 17 0 00 000765'	CMSKSP:	PUSHJ	P,CMCIN		;GET A CHAR
   938	001073'	302 03 0 00 000040 		CAIE	T1," "		;SPACE OR TAB?
   939	001074'	306 03 0 00 000011 		CAIN	T1,.CHTAB
   940	001075'	254 00 0 00 001072'		JRST	CMSKSP		;YES, KEEP LOOKING
   941	001076'	254 00 0 00 001116'		PJRST	CMDIP		;NO, PUT IT BACK
   942
   943					;LOCAL ROUTINE - SUBTRACT ASCII BYTE PTRS
   944					;	T1, T2/ ASCII BYTE PTRS
   945					;	PUSHJ	P,SUBBP
   946					; RETURNS +1 ALWAYS,
   947					; T1/ T1-T2
   948
   949	001077'	550 05 0 00 000003 	SUBBP:	HRRZ	T3,T1		;COMPUTE 5*(A1-A2)+(P2-P1)/7
   950	001100'	275 05 0 04 000000 		SUBI	T3,0(T2)
   951	001101'	221 05 0 00 000005 		IMULI	T3,5		;COMPUTE NUMBER CHARS IN THOSE WORDS
   952	001102'	135 03 0 00 004254'		LDB	T1,[POINT 6,T1,5]
   953	001103'	135 04 0 00 004255'		LDB	T2,[POINT 6,T2,5]
   954	001104'	276 04 0 00 000003 		SUBM	T2,T1
   955	001105'	231 03 0 00 000007 		IDIVI	T1,7
   956	001106'	270 03 0 00 000005 		ADD	T1,T3
   957	001107'	263 17 0 00 000000 		POPJ	P,0
   958
   959					;LOCAL ROUTINE - DELETE LAST CHAR INPUT
   960
   961	001110'	200 03 0 00 000012 	CMDCH:	MOVE	T1,P4
   962	001111'	260 17 0 00 001136'		PUSHJ	P,DBP		;DECREMENT BYTE PTR
   963	001112'	202 03 0 00 000012 		MOVEM	T1,P4
   964	001113'	350 00 0 00 000011 		AOS	P3		;ADJUST SPACE COUNT
   965	001114'	400 13 0 00 000000 		SETZ	P5,0		;CAN'T BE ANY WAITING INPUT
   966	001115'	263 17 0 00 000000 		POPJ	P,0
   967
   968					;LOCAL ROUTINE - DECREMENT INPUT POINTER
   969
   970	001116'	135 03 0 00 000012 	CMDIP:	LDB	T1,P4		;CHECK THE CHARACTER
   971	001117'	302 03 0 00 000006 		CAIE	T1,CMFREC	;A RECOG REQUEST CHAR?
   972	001120'	306 03 0 00 000033 		CAIN	T1,.CHESC
   973	001121'	630 14 0 00 004237'		TXZ	F,CM%ESC+CMCFF	;YES, RESET FLAGS
   974	001122'	200 03 0 00 000012 		MOVE	T1,P4		;GET POINTER
   975	001123'	260 17 0 00 001136'		PUSHJ	P,DBP		;DECREMENT IT
   976	001124'	202 03 0 00 000012 		MOVEM	T1,P4		;PUT IT BACK
   977	001125'	350 00 0 00 000013 		AOS	P5		;ADJUST COUNTS
   978	001126'	350 00 0 00 000011 		AOS	P3
   979	001127'	263 17 0 00 000000 		POPJ	P,0
GSCN  --  Command Scanner Interface for DIAGNOSTICS	MACRO %53(1020) 10:54 19-Feb-79 Page 30
GSCN	MAC	22-May-78 10:53		S%CMND  --  Scan a command                                                         SEQ 0325

   980
   981					;LOCAL ROUTINE - DEPOSIT INTO INPUT BUFFER
   982
   983	001130'	260 17 0 00 001173'	CMDIB:	PUSHJ	P,CMCOUT	;TYPE THE CHAR
   984	001131'	400 13 0 00 000000 	CMDIBQ:	SETZ	P5,0		;CLEAR ADVANCE COUNT
   985	001132'	375 00 0 00 000011 		SOSGE	P3		;ROOM?
   986	001133'	260 17 0 00 000750'		PUSHJ	P,S..ABS	;NO
   987	001134'	136 03 0 00 000012 		IDPB	T1,P4		;APPEND BYTE TO USER'S BUFFER
   988	001135'	263 17 0 00 000000 		POPJ	P,0
   989
   990					;LOCAL ROUTINE - DECREMENT BYTE POINTER
   991
   992	001136'	370 00 0 00 000003 	DBP:	SOS	T1		;BACK OFF ONE WORD
   993	001137'	133 00 0 00 000003 		IBP	T1		;AND THEN GO FORWARD 4 TIMES
   994	001140'	133 00 0 00 000003 		IBP	T1
   995	001141'	133 00 0 00 000003 		IBP	T1
   996	001142'	133 00 0 00 000003 		IBP	T1
   997	001143'	254 00 0 00 003747'		$RETT			;THEN RETURN
GSCN  --  Command Scanner Interface for DIAGNOSTICS	MACRO %53(1020) 10:54 19-Feb-79 Page 31
GSCN	MAC	22-May-78 10:53		S%CMND  --  Scan a command                                                         SEQ 0326

   998
   999					;APPEND CHARACTER TO INPUT BUFFER
  1000					; T1/ CHARACTER
  1001
  1002	001144'	202 03 0 00 000006 	CMAPC:	MOVEM	T1,T4		;SAVE CHAR
  1003	001145'	200 04 0 00 000013 		MOVE	T2,P5		;ADVANCE COUNT
  1004	001146'	133 04 0 00 000012 		ADJBP	T2,P4		;COMPUTE POINTER TO END OF INPUT
  1005	001147'	136 06 0 00 000004 		IDPB	T4,T2		;APPEND THE CHAR
  1006	001150'	350 00 0 00 000013 		AOS	P5		;UPDATE ADVANCE COUNT
  1007	001151'	263 17 0 00 000000 		POPJ	P,0
  1008
  1009					;DO CALLER-SUPPLIED HELP TEXT IF ANY
  1010
  1011	001152'				DOHLP:	HRROI	T1,[ASCIZ /
  1012	001152'	561 03 0 00 004256'	  or/]
  1013	001153'	602 14 0 00 010000 		TXNE	F,CMQUE2	;IN ALTERNATE HELP POSSIBILITIES?
  1014	001154'	260 17 0 00 001175'		PUSHJ	P,CMSOUT	;YES, NOT ALTERNATIVE
  1015	001155'	607 14 0 00 000004 		TXNN	F,CM%HPP	;HAVE HELP POINTER?
  1016	001156'	263 17 0 00 000000 		POPJ	P,0		;NO
  1017	001157'	201 03 0 00 000040 		MOVEI	T1," "
  1018	001160'	260 17 0 00 001173'		PUSHJ	P,CMCOUT	;SPACE BEFORE USER TEXT
  1019	001161'	550 03 0 00 000007 		HRRZ	T1,P1		;LOAD ADDRESS
  1020	001162'	200 03 0 03 000002 		MOVE	T1,.CMHLP(T1)	;YES, GET IT
  1021	001163'	260 17 0 00 001175'		PUSHJ	P,CMUSOU	;YES, TYPE IT
  1022	001164'	263 17 0 00 000000 		POPJ	P,0
  1023
  1024					;HANDLE AMBIGUOUS TYPEIN
  1025
  1026	001165'	627 14 0 00 400000 	CMAMB:	TXZN	F,CM%ESC	;ESC SEEN?
  1027	001166'	254 00 0 00 004270'		JRST	[NOPARS (NPXAMB,UNRECOGNIZED CONTROL CHARACTER)] ;NO, SAME AS UNREC
  1028	001167'	260 17 0 00 001110'		PUSHJ	P,CMDCH		;FLUSH RECOG CHAR FROM BUFFER
  1029	001170'	201 03 0 00 000007 		MOVEI	T1,.CHBEL	;INDICATE AMBIGUOUS
  1030	001171'	260 17 0 00 001173'		PUSHJ	P,CMCOUT
  1031	001172'	254 00 0 00 000353'		JRST	XCOMRF		;GET MORE INPUT AND RESTART
GSCN  --  Command Scanner Interface for DIAGNOSTICS	MACRO %53(1020) 10:54 19-Feb-79 Page 32
GSCN	MAC	22-May-78 10:53		S%CMND  --  Scan a command                                                         SEQ 0327

  1032					;OUTPUT CHARACTER TO SPECIFIED DESTINATION
  1033					; T1/ CHAR
  1034					;	PUSHJ	P,CMCOUT
  1035					; RETURNS +1 ALWAYS
  1036
  1037	001173'	051 01 0 00 000003 	CMCOUT:	OUTCHR	T1			;OUTPUT THE CHARACTER
  1038	001174'	263 17 0 00 000000 		POPJ	P,0
  1039
  1040					;OUTPUT STRING FROM CURRENT CONTEXT
  1041					; T1/ STRING PTR
  1042					;	PUSHJ	P,CMSOUT
  1043					; RETURN +1 ALWAYS
  1044
  1045	001175'				CMUSOU:
  1046	001175'	554 01 0 00 000003 	CMSOUT:	HLRZ	S1,T1			;GET LH OF POINTER TO S1
  1047	001176'	306 01 0 00 777777 		CAIN	S1,-1			;IS IT A -1?
  1048	001177'	201 01 0 00 440700 		MOVEI	S1,(POINT 7,0)		;YES, MAKE IT POINT 7,
  1049	001200'	306 01 0 00 440700 		CAIN	S1,(POINT 7,0)		;IS IT A WORD-ALIGNED POINTER?
  1050	001201'	254 00 0 00 001207'		JRST	CMSO.2			;YES, DO AN OUTSTR FOR EFFICIENCY
  1051	001202'	504 03 0 00 000001 		HRL	T1,S1			;NO, COMPLETE THE BYTE POINTER
  1052	001203'	134 01 0 00 000003 	CMSO.1:	ILDB	S1,T1			;GET A CHARACTER
  1053	001204'	322 01 0 00 003750'		JUMPE	S1,.POPJ		;TERMINATE ON NULL
  1054	001205'	051 01 0 00 000001 		OUTCHR	S1			;OUTPUT THE CHARACTER
  1055	001206'	254 00 0 00 001203'		JRST	CMSO.1			;AND LOOP FOR MORE
  1056
  1057	001207'	051 03 0 03 000000 	CMSO.2:	OUTSTR	0(T1)			;TYPE OUT THE STRING
  1058	001210'	263 17 0 00 000000 		POPJ	P,			;AND RETURN
  1059
  1060					;OUTPUT CHARACTER TO SPECIFIED DESTINATION
  1061					; T1/ CHAR
  1062					;	PUSHJ	P,XMCOUT
  1063					; RETURNS +1 ALWAYS
  1064
  1065	001211'	051 01 0 00 000003 	XMCOUT:	OUTCHR	T1
  1066	001212'	306 03 0 00 000011 		CAIN	T1,^D9
  1067	001213'	254 00 0 00 001230'		JRST	XMCS.1
  1068	001214'	254 00 0 00 001236'		JRST	XMCS.2
GSCN  --  Command Scanner Interface for DIAGNOSTICS	MACRO %53(1020) 10:54 19-Feb-79 Page 33
GSCN	MAC	22-May-78 10:53		S%CMND  --  Scan a command                                                         SEQ 0328

  1069
  1070					;OUTPUT STRING FROM CURRENT CONTEXT
  1071					; T1/ STRING PTR
  1072					;	PUSHJ	P,XMSOUT
  1073					; RETURN +1 ALWAYS
  1074
  1075	001215'	554 01 0 00 000003 	XMSOUT:	HLRZ	S1,T1			;GET LH OF POINTER TO S1
  1076	001216'	306 01 0 00 777777 		CAIN	S1,-1			;IS IT A -1?
  1077	001217'	505 03 0 00 440700 		HRLI	T1,(POINT 7,0)		;YES, MAKE POINT 7
  1078	001220'	134 01 0 00 000003 	XMSO.1:	ILDB	S1,T1			;GET A CHARACTER
  1079	001221'	322 01 0 00 003750'		JUMPE	S1,.POPJ		;TERMINATE ON NULL
  1080	001222'	260 17 0 00 001225'		PUSHJ	P,XMCSPC		;GO OUTPUT THE CHARACTER
  1081	001223'	254 00 0 00 001220'		JRST	XMSO.1			;AND LOOP FOR MORE
  1082	001224'	263 17 0 00 000000 		POPJ	P,0
  1083
  1084	001225'	051 01 0 00 000001 	XMCSPC:	OUTCHR	S1			;OUTPUT A CHARACTER
  1085	001226'	302 01 0 00 000011 		CAIE	S1,^D9
  1086	001227'	254 00 0 00 001236'		JRST	XMCS.2
  1087	001230'	200 01 0 00 000114'	XMCS.1:	MOVE	S1,CURPOS
  1088	001231'	271 01 0 00 000010 		ADDI	S1,8
  1089	001232'	231 01 0 00 000010 		IDIVI	S1,8
  1090	001233'	221 01 0 00 000010 		IMULI	S1,8
  1091	001234'	202 01 0 00 000114'		MOVEM	S1,CURPOS
  1092	001235'	334 00 0 00 000000 		SKIPA
  1093	001236'	350 00 0 00 000114'	XMCS.2:	AOS	CURPOS		;MAINTAIN POSITION
  1094	001237'	263 17 0 00 000000 		POPJ	P,0
GSCN  --  Command Scanner Interface for DIAGNOSTICS	MACRO %53(1020) 10:54 19-Feb-79 Page 34
GSCN	MAC	22-May-78 10:53		S%CMND  --  Scan a command                                                         SEQ 0329

  1095
  1096					;CHECK ALL BYTE PTRS
  1097					; T1/ PTR TO LIST OF ADDRESSES, TERMINATED BY 0
  1098
  1099	001240'	260 17 0 00 003723'	CHKABP:	SAVE	Q1		;SAVE ACS
  1100	001241'	260 17 0 00 003733'		SAVE	Q2		;THAT WE USE
  1101	001242'	202 03 0 00 000015 		MOVEM	T1,Q1		;SAVE LIST PTR
  1102	001243'	200 16 0 15 000000 	CHKAB1:	MOVE	Q2,0(Q1)	;GET NEXT ADDRESS
  1103	001244'	322 16 0 00 003747'		JUMPE	Q2,.RETT		;DONE ON 0
  1104	001245'	271 16 0 10 000000 		ADDI	Q2,0(P2)	;MAKE PTR TO BLOCK
  1105	001246'	200 03 0 16 000000 		MOVE	T1,0(Q2)	;GET BYTE PTR
  1106	001247'	260 17 0 00 001252'		PUSHJ	P,CHKBP		;CHECK AND NORMALIZE
  1107	001250'	202 03 0 16 000000 		MOVEM	T1,0(Q2)	;PUT IT BACK
  1108	001251'	344 15 0 00 001243'		AOJA	Q1,CHKAB1	;DO NEXT
  1109
  1110					;CHECK A BYTE PTR
  1111					; T1/ BYTE PTR - IF LH IS -1, PTR IS FIXED
  1112
  1113	001252'	554 04 0 00 000003 	CHKBP:	HLRZ	T2,T1
  1114	001253'	306 04 0 00 777777 		CAIN	T2,-1
  1115	001254'	505 03 0 00 440700 		HRLI	T1,(POINT 7)
  1116	001255'	135 04 0 00 004272'		LDB	T2,[POINT 6,T1,11] ;GET BYTE SIZE
  1117	001256'	133 00 0 00 000003 		IBP	T1		;INCREMENT AND DECREMENT TO NORMALIZE
  1118	001257'	254 00 0 00 001136'		PJRST	DBP
GSCN  --  Command Scanner Interface for DIAGNOSTICS	MACRO %53(1020) 10:54 19-Feb-79 Page 35
GSCN	MAC	22-May-78 10:53		S%CMND  --  Scan a command                                                         SEQ 0330

  1119
  1120					;************************
  1121					;FUNCTIONS
  1122					;************************
  1123
  1124					;INITIALIZE LINE AND CHECK FOR REDO REQUEST
  1125
  1126	001260'	550 03 0 10 000001 	XCMINI:	HRRZ	T1,.CMIOJ(P2)	;DOING OUTPUT TO TERMINAL?
  1127	001261'	302 03 0 00 000101 		CAXE	T1,.PRIOU	;..
  1128	001262'	254 00 0 00 001313'		JRST	CMINI4		;NO, SKIP REPAIR
  1129	001263'	201 03 0 00 004030'		MOVEI	T1,[BYTE (7).CHCRT,.CHLFD] ;GET TO LEFT MARGIN
  1130	001264'	260 17 0 00 001175'		PUSHJ	P,CMSOUT
  1131	001265'	332 15 0 10 000002 	CMINI1:	SKIPE Q1,.CMRTY(P2)	;DO PROMPT IF ANY
  1132	001266'	316 15 0 10 000003 	CMINI2:	CAMN Q1,.CMBFP(P2)	;STOP AT TOP OF BUFFER
  1133	001267'	254 00 0 00 001272'		JRST	CMINI3
  1134	001270'	134 03 0 00 000015 		ILDB T1,Q1
  1135						JUMPN	T1,[PUSHJ P,CMCOUT
  1136	001271'	326 03 0 00 004273'			    JRST CMINI2]
  1137	001272'	316 12 0 10 000003 	CMINI3:	CAMN	P4,.CMBFP(P2)	;BUFFER EMPTY?
  1138	001273'	254 00 0 00 001313'		JRST	CMINI4		;YES, NO REDO POSSIBLE
  1139	001274'	135 03 0 00 000012 		LDB	T1,P4		;CHECK LAST CHAR
  1140	001275'	306 03 0 00 000012 		CAIN	T1,.CHLFD	;END OF LINE?
  1141	001276'	254 00 0 00 001313'		JRST	CMINI4		;YES, LAST COMMAND OK, NO REDO
  1142	001277'	051 00 0 00 000003 		INCHRW	T1		;GET FIRST CHARACTER
  1143	001300'	306 03 0 00 000010 		CAIN	T1,CMRDOC	;IS IT REDO?
  1144	001301'	254 00 0 00 001322'		JRST	CMINI5		;YES
  1145	001302'	200 04 0 00 000131'		MOVE	T2,TRMUDX	;GET TERMINAL'S UDX
  1146	001303'	200 06 0 00 000003 		MOVE	T4,T1		;COPY CHARACTER
  1147	001304'	242 06 0 00 000035 		LSH	T4,^D36-7	;AND POSITION IT
  1148	001305'	201 03 0 00 000021 		MOVX	T1,.TOTYP	;RE-INSERT INTO INPUT BUFFER
  1149	001306'	201 05 0 00 000006 		MOVEI	T3,T4		;POINT TO STRING
  1150	001307'	200 01 0 00 004275'		MOVE	S1,[XWD 3,T1]	;POINT TO ARGUMENT BLOCK
  1151	001310'	047 01 0 00 000116 		TRMOP.	S1,		;AND DO IT
  1152	001311'	260 17 0 00 003773'		$STOP(TRI,TRMOP RE-INSERT FAILURE)
  1153	001313'	200 03 0 00 000012 	CMINI4:	MOVE	T1,P4		;RESET LINE VARIABLES
  1154	001314'	200 04 0 10 000003 		MOVE	T2,.CMBFP(P2)
  1155	001315'	202 04 0 00 000012 		MOVEM	T2,P4
  1156	001316'	260 17 0 00 001077'		PUSHJ	P,SUBBP		;COMPUTE CHARACTERS IN LINE
  1157	001317'	272 03 0 00 000011 		ADDM	T1,P3		;UPDATE SPACE COUNT
  1158	001320'	400 13 0 00 000000 		SETZ	P5,0		;RESET ADVANCE COUNT
  1159	001321'	254 00 0 00 000410'		JRST	XCOMXI		;RETURN GOOD
  1160
  1161	001322'	200 11 0 10 000005 	CMINI5:	MOVE	P3,.CMCNT(P2)	;RESET VARIABLES TO CURR FIELD
  1162	001323'	200 12 0 10 000004 		MOVE	P4,.CMPTR(P2)
  1163	001324'	400 13 0 00 000000 		SETZ	P5,0		;NO INPUT
  1164	001325'	201 03 0 00 004030'		MOVEI	T1,[BYTE (7).CHCRT,.CHLFD] ;START NEW LINE
  1165	001326'	260 17 0 00 001175'		PUSHJ	P,CMSOUT	;
  1166	001327'	260 17 0 00 000470'		PUSHJ	P,CMRTY1	;RETYPE
  1167	001330'	254 00 0 00 000375'		JRST	XCOMRP		;RETURN TO REPARSE
GSCN  --  Command Scanner Interface for DIAGNOSTICS	MACRO %53(1020) 10:54 19-Feb-79 Page 36
GSCN	MAC	22-May-78 10:53		S%CMND  --  Scan a command                                                         SEQ 0331

  1168
  1169					;SWITCH - LIKE KEYWORD BUT PRECEEDED BY SLASH
  1170
  1171	001331'	660 14 0 00 200000 	XCMSWI:	TXO	F,CMSWF		;NOTE DOING SWITCH
  1172	001332'	602 14 0 00 040000 		TXNE	F,CMDEFF	;DEFAULT GIVEN?
  1173	001333'	254 00 0 00 001346'		JRST	CMKEY0		;YES, SLASH ALREADY ASSUMED
  1174	001334'	260 17 0 00 000765'		PUSHJ	P,CMCIN		;GET FIRST CHAR
  1175	001335'	302 03 0 00 000006 		CAIE	T1,CMFREC	;^F
  1176	001336'	306 03 0 00 000033 		CAIN	T1,.CHESC	;ESC?
  1177						JRST	[PUSHJ	P,CMAMB		;YES, INDICATE AMBIGUOUS
  1178	001337'	254 00 0 00 004305'			 JRST	XCMSWI]		;TRY AGAIN
  1179	001340'	306 03 0 00 000077 		CAIN	T1,CMHLPC	;HELP?
  1180						JRST	[SETZ	T1,0
  1181							 MOVE	T2,ATBPTR
  1182							 IDPB	T1,T2
  1183							 MOVE	T1,FNARG	;GET TABLE PTR
  1184							 MOVEI	T1,1(T1)	;POINT TO FIRST TABLE ENTRY
  1185	001341'	254 00 0 00 004307'			 JRST	CMQ2]		;TYPE OPTIONS
  1186	001342'	302 03 0 00 000057 		CAIE	T1,CMSWCH	;THE SWITCH CHARACTER?
  1187						JRST	[PUSHJ	P,CMDIP		;NO, PUT IT BACK
  1188	001343'	254 00 0 00 004325'			 NOPARS	(NPXNSW,UNRECOGNIZABLE SWITCH CONSTRUCTION)] 	;RETURN NO PARSE
  1189	001344'	254 00 0 00 001346'		JRST	CMKEY0		;CONTINUE LIKE KEYWORD
GSCN  --  Command Scanner Interface for DIAGNOSTICS	MACRO %53(1020) 10:54 19-Feb-79 Page 37
GSCN	MAC	22-May-78 10:53		S%CMND  --  Scan a command                                                         SEQ 0332

  1190					;KEYWORD LOOKUP FUNCTION
  1191
  1192	001345'	620 14 0 00 200000 	XCMKEY:	TXZ	F,CMSWF		;NOT SWITCH
  1193	001346'				CMKEY0:
  1194	001346'	260 17 0 00 000571'	KEYW1:	PUSHJ	P,CMRATM	;READ THE FIELD INTO LOCAL BUFFER
  1195	001347'	200 03 0 00 000061'		MOVE	T1,FNARG	;GET TABLE HEADER ADDRESS
  1196	001350'	200 04 0 10 000007 		MOVE	T2,.CMABP(P2)	;POINT TO KEYWORD BUFFER
  1197	001351'	260 17 0 00 002523'		PUSHJ	P,XTLOOK	;LOOKUP
  1198	001352'	602 14 0 00 400000 		TXNE	F,CMQUES	;HAD "?"
  1199	001353'	254 00 0 00 001431'		JRST	CMQ1		;YES, GO TYPE ALTERNATIVES
  1200	001354'	607 04 0 00 400000 		JXN	T2,TL%NOM,[NOPARS (NPXNOM,NO KEYWORD MATCH)] ;NO MATCH
  1201	001355'	334 00 0 00 000000
  1202	001356'	254 00 0 00 004335'
  1203						JXN	T2,TL%AMB,[PUSHJ P,CMAMB ;AMBIGUOUS, DING OR FAIL
  1204	001357'	607 04 0 00 200000 				   JRST	 KEYW1]	;GET MORE INPUT
  1205	001360'	334 00 0 00 000000
  1206	001361'	254 00 0 00 004337'
  1207	001362'	202 03 0 00 000004 		MOVEM	T1,T2		;SAVE TABLE INDEX
  1208	001363'	202 03 0 00 000104'		MOVEM	T1,CRBLK+CR.RES	;AS RESULT
  1209	001364'	603 14 0 00 400000 		JXE	F,CM%ESC,KEYW4	;DONE IF NO REC WANTED
  1210	001365'	334 00 0 00 000000
  1211	001366'	254 00 0 00 001412'
  1212	001367'	202 05 0 00 000015 		MOVEM	T3,Q1		;SAVE PTR TO REMAINDER OF STRING
  1213	001370'	260 17 0 00 001110'		PUSHJ	P,CMDCH		;FLUSH RECOG CHARACTER
  1214	001371'	134 03 0 00 000015 	KEYW2:	ILDB	T1,Q1		;TYPE REMAINDER OF KEYWORD
  1215	001372'	322 03 0 00 001377'		JUMPE	T1,KEYW3	;DONE
  1216	001373'	260 17 0 00 001130'		PUSHJ	P,CMDIB		;APPEND COMPLETION TO BUFFER
  1217	001374'	306 03 0 00 000072 		CAIN	T1,CMSWTM	;A SWITCH TERMINATOR?
  1218						JRST	[TXZ	F,CM%ESC	;YES, OVERRIDES ESC
  1219							 TXO	F,CM%SWT	;NOTE SWITCH TERMINAOTR
  1220							 TXNN	F,CMSWF		;IN SWITCH?
  1221							 PUSHJ	P,CMDIP		;NO, PUT TERMINATOR BACK
  1222	001375'	254 00 0 00 004341'			 JRST	XCOMXI]		;DONE
  1223	001376'	254 00 0 00 001371'		JRST	KEYW2
  1224
  1225	001377'	602 14 0 00 200000 	KEYW3:	JXE	F,CMSWF,XCOMXI	;DONE IF NOT SWITCH
  1226	001400'	334 00 0 00 000000
  1227	001401'	254 00 0 00 000410'
  1228	001402'	200 15 0 00 000061'		MOVE	Q1,FNARG	;CHECK FUNCTION FLAGS
  1229	001403'	603 15 0 00 400000 		JXE	Q1,CM%VRQ,XCOMXI ;DONE IF NO VALUE REQUIRED
  1230	001404'	334 00 0 00 000000
  1231	001405'	254 00 0 00 000410'
  1232	001406'	201 03 0 00 000072 		MOVEI	T1,CMSWTM	;INCLUDE COLON IN RECOGNITION
  1233	001407'	260 17 0 00 001130'		PUSHJ	P,CMDIB
  1234	001410'	661 14 0 00 020000 		TXO	F,CM%SWT	;NOTE SWITCH TERMINATOR
  1235	001411'	254 00 0 00 000417'		JRST	XCOMX1		;INHIBIT ADDITIONAL SPACE
GSCN  --  Command Scanner Interface for DIAGNOSTICS	MACRO %53(1020) 10:54 19-Feb-79 Page 38
GSCN	MAC	22-May-78 10:53		S%CMND  --  Scan a command                                                         SEQ 0333

  1236
  1237	001412'	260 17 0 00 000754'	KEYW4:	PUSHJ	P,CHKLCH	;SEE IF ATOM NON-NULL
  1238	001413'	322 03 0 00 004353'		JUMPE	T1,[NOPARS (NPXNUL,KEYWORD EXPECTED)] ;FAIL IF NULL
  1239	001414'	602 14 0 00 200000 		JXE	F,CMSWF,XCOMXI	;DONE IF NOT SWITCH
  1240	001415'	334 00 0 00 000000
  1241	001416'	254 00 0 00 000410'
  1242	001417'	260 17 0 00 001072'		PUSHJ	P,CMSKSP	;SKIP SPACES
  1243	001420'	260 17 0 00 000765'		PUSHJ	P,CMCIN		;GET NON-BLANK CHAR
  1244	001421'	306 03 0 00 000072 		CAIN	T1,CMSWTM	;SWITCH TERMINATOR?
  1245						JRST	[TXO	F,CM%SWT	;YES, NOTE
  1246	001422'	254 00 0 00 004355'			 JRST	XCOMXI]		;DONE
  1247	001423'	260 17 0 00 001116'		PUSHJ	P,CMDIP		;NO, PUT IT BACK
  1248	001424'	200 15 0 00 000061'		MOVE	Q1,FNARG
  1249	001425'	607 15 0 00 400000 		JXN	Q1,CM%VRQ,XCOMNP ;FAIL IF VALUE WAS REQUIRED
  1250	001426'	334 00 0 00 000000
  1251	001427'	254 00 0 00 000436'
  1252	001430'	254 00 0 00 000410'		JRST	XCOMXI		;OTHERWISE OK
GSCN  --  Command Scanner Interface for DIAGNOSTICS	MACRO %53(1020) 10:54 19-Feb-79 Page 39
GSCN	MAC	22-May-78 10:53		S%CMND  --  Scan a command                                                         SEQ 0334

  1253
  1254					;"?" TYPED, FIRST PARTIAL MATCH FOUND.  TYPE ALL PARTIAL MATCHES
  1255
  1256					CMQ1:	JXN	T2,TL%NOM,[
  1257							JXN	F,CMQUE2,CMRTYP ;DO NOTHING IF NOT FIRST ALTERNATIVE
  1258							HRROI	T1,[ASCIZ / keyword (no defined keywords match this input)/]
  1259							PUSHJ	P,CMSOUT	;TYPE MESSAGE
  1260	001431'	607 04 0 00 400000 			JRST	CMRTYP]		;RETYPE LINE AND CONTINUE
  1261	001432'	334 00 0 00 000000
  1262	001433'	254 00 0 00 004371'
  1263	001434'	202 03 0 00 000016 	CMQ2:	MOVEM	T1,Q2		;SAVE TABLE INDEX
  1264	001435'	260 17 0 00 001152'		PUSHJ	P,DOHLP		;DO USER HELP IF ANY
  1265	001436'	603 14 0 00 000001 		TXNE	F,CM%SDH	;DEFAULT HELP SUPPRESSED?
  1266	001437'	254 00 0 00 000450'		JRST	CMRTYP		;YES, DONE
  1267	001440'	200 03 0 00 000061'		MOVE	T1,FNARG	;GET TABLE PTR
  1268	001441'	554 15 0 03 000000 		HLRZ	Q1,0(T1)	;GET TABLE SIZE
  1269	001442'	271 15 0 03 000001 		ADDI	Q1,1(T1)	;COMPUTE TABLE END ADDRESS FOR BELOW
  1270						HRROI	T1,[ASCIZ / one of the following:
  1271	001443'	561 03 0 00 004377'	/]
  1272	001444'	260 17 0 00 001175'		PUSHJ	P,CMSOUT
  1273	001445'	402 00 0 00 000114'		SETZM	CURPOS		;CLEAR CURRENT POSITION
  1274	001446'	360 16 0 00 000000 		SOJ	Q2,0		;GETS INCREMENTED BEFORE EACH APPLICATION
  1275	001447'	202 16 0 00 000115'		MOVEM	Q2,Q3SAVE	;SAVE SO IT CAN BE REINITIALIZED
  1276	001450'	402 00 0 00 000107'		SETZM	TABSIZ		;START WITH TAB SIZE OF 0
  1277	001451'	476 00 0 00 000113'		SETOM	PWIDTH		;MARK THAT WE DON'T KNOW WIDTH YET
  1278	001452'	260 17 0 00 001472'	CMTAB1:	PUSHJ	P,CMNXTE	;GET TO NEXT VALID KEYWORD IN TABLE
  1279	001453'	254 00 0 00 001460'		JRST	CMTAB2		;NO MORE IN TABLE
  1280	001454'	260 17 0 00 001572'		PUSHJ	P,CMGTLN	;CALCULATE LENGTH OF KEYWORD
  1281	001455'	311 03 0 00 000107'		CAML	T1,TABSIZ	;LONGEST SEEN SO FAR?
  1282	001456'	202 03 0 00 000107'		MOVEM	T1,TABSIZ	;YES, REMEMBER IT
  1283	001457'	254 00 0 00 001452'		JRST	CMTAB1		;LOOK AT REST
  1284	001460'	200 03 0 00 000107'	CMTAB2:	MOVE	T1,TABSIZ
  1285	001461'	202 03 0 00 000111'		MOVEM	T1,BIGSIZ	;REMEMBER LENGTH OF LONGEST KEYWORD
  1286	001462'	201 03 0 00 000004 		MOVEI	T1,3+1		;3 SPACES AFTER CRLF AND LEAVE AT LEAST
  1287									;ONE SPACE BETWEEN ITEMS
  1288	001463'	272 03 0 00 000107'		ADDM	T1,TABSIZ
  1289	001464'	200 16 0 00 000115'		MOVE	Q2,Q3SAVE	;RESTART TABLE POINTER FOR ACTUAL LISTING
  1290	001465'	260 17 0 00 001472'	CMQ3:	PUSHJ	P,CMNXTE	;GET TO NEXT KEYWORD
  1291	001466'	254 00 0 00 000450'		JRST	CMRTYP		;NO MORE, REPEAT COMMAND SO FAR AND CONTINUE
  1292	001467'	260 17 0 00 001514'		PUSHJ	P,KEYTAB	;JUSTIFY "TYPEBALL" FOR KEYWORD TYPEOUT
  1293	001470'	260 17 0 00 001215'		PUSHJ	P,XMSOUT	;TYPE IT
  1294	001471'	254 00 0 00 001465'		JRST	CMQ3		;TRY NEXT
GSCN  --  Command Scanner Interface for DIAGNOSTICS	MACRO %53(1020) 10:54 19-Feb-79 Page 40
GSCN	MAC	22-May-78 10:53		S%CMND  --  Scan a command                                                         SEQ 0335

  1295					;ROUTINE WHICH TAKES POINTER TO TABLE IN Q2, POINTER TO END OF TABLE
  1296					;IN Q1, AND RETURNS POINTER TO KEYWORD NAME IN T1. SKIPS UNLESS TABLE
  1297					;IS EXHAUSTED. ONLY CONSIDERS PRINTABLE KEYWORDS, AND UPDATES Q2.
  1298
  1299	001472'	350 00 0 00 000016 	CMNXTE:	AOS	Q2		;LOOK AT NEXT TABLE ENTRY
  1300	001473'	311 16 0 00 000015 		CAML	Q2,Q1		;BEYOND END OF TABLE?
  1301	001474'	263 17 0 00 000000 		POPJ	P,0		;YES, FINISHED LIST
  1302	001475'	554 04 0 16 000000 		HLRZ	T2,0(Q2)	;GET STRING PTR FOR IT
  1303	001476'	260 17 0 00 002455'		PUSHJ	P,CHKTBS	;GET FLAGS FROM STRING
  1304	001477'	606 03 0 00 000003 		JXN	T1,CM%INV+CM%NOR,CMNXTE ;SKIP ENTRY IF INVISIBLE OR NOREC
  1305	001500'	334 00 0 00 000000
  1306	001501'	254 00 0 00 001472'
  1307	001502'	200 03 0 10 000007 		MOVE	T1,.CMABP(P2)	;PTR TO PARTIAL KEYWORD
  1308	001503'	260 17 0 00 002476'		PUSHJ	P,USTCMP	;COMPARE
  1309	001504'	322 03 0 00 001510'		JUMPE	T1,CMNXT1	;OK IF EXACT MATCH
  1310	001505'	603 03 0 00 200000 		JXE	T1,SC%SUB,.POPJ ;DONE IF NOT SUBSTRING
  1311	001506'	334 00 0 00 000000
  1312	001507'	254 00 0 00 003750'
  1313
  1314	001510'	554 04 0 16 000000 	CMNXT1:	HLRZ	T2,0(Q2)	;GET PTR TO STRING FOR THIS ENTRY
  1315	001511'	260 17 0 00 002455'		PUSHJ	P,CHKTBS
  1316	001512'	200 03 0 00 000004 		MOVE	T1,T2
  1317	001513'	254 00 0 00 004220'		RETSKP
GSCN  --  Command Scanner Interface for DIAGNOSTICS	MACRO %53(1020) 10:54 19-Feb-79 Page 41
GSCN	MAC	22-May-78 10:53		S%CMND  --  Scan a command                                                         SEQ 0336

  1318					;ROUTINE TO CALL BEFORE TYPING KEYWORD IN RESPONSE TO "?". GIVE
  1319					;IT USER'S BYTE POINTER IN T1. IT DECIDES WHETHER KEYWORD WILL FIT
  1320					;ON THIS LINE, AND STARTS NEW LINE IF NOT. IT THEN OUTPUTS A TAB,
  1321					;FOLLOWED BY SWITCH DELIMITER (IF KEYWORD IS A SWITCH).
  1322
  1323	001514'	260 17 0 00 003665'	KEYTAB:	PUSHJ	P,.SAVET	;DON'T CLOBBER USER'S BYTE POINTER
  1324	001515'	260 17 0 00 001572'		PUSHJ	P,CMGTLN	;COMPUTE LENGTH OF KEYWORD
  1325	001516'	202 03 0 00 000112'		MOVEM	T1,KEYSIZ	;REMEMBER LENGTH
  1326	001517'	550 03 0 10 000001 		HRRZ	T1,.CMIOJ(P2)	;GET OUTPUT CHANNEL
  1327	001520'	331 00 0 00 000113'		SKIPL	PWIDTH		;DO WE ALREADY KNOW HOW WIDE PAPER IS?
  1328	001521'	254 00 0 00 001533'		JRST	KEY2		;YES, SO DON'T DO SYSTEM CALL
  1329	001522'	201 04 0 00 000110 		MOVEI	T2,^D72		;START DEFAULT
  1330	001523'	202 04 0 00 000113'		MOVEM	T2,PWIDTH
  1331	001524'	200 06 0 00 000131'		MOVE	T4,TRMUDX	;GET OUR UDX
  1332	001525'	201 05 0 00 001012 		MOVX	T3,.TOWID	;FUNCTION FOR CARRIAGE POSITION
  1333	001526'	200 04 0 00 004404'		MOVE	T2,[XWD 2,T3]
  1334	001527'	047 04 0 00 000116 		TRMOP.	T2,0
  1335					;	$STOP(TWF,TRMOP WIDTH FAILURE)
  1336	001530'	201 04 0 00 000110 		MOVEI	T2,^D72		;IF ERROR, MAKE WIDTH 72
  1337	001531'	202 04 0 00 000113'	KEY1:	MOVEM	T2,PWIDTH	;SAVE WIDTH, SO NO JSYS CALL NEXT TIME
  1338	001532'	254 00 0 00 001545'		JRST	KEY4		;FIRST TIME THROUGHM, ASSUME NO TAB NEEDED
  1339	001533'	200 04 0 00 000114'	KEY2:	MOVE	T2,CURPOS		;GET OUR CURRENT POSITION
  1340						PUSHJ	P,[ CMTAB: ADD	T2,TABSIZ  ;FIGURE OUT MAXIMUM PLACE TAB CAN MOVE US TO
  1341								   IDIV	T2,TABSIZ  ;SCALE DOWN TO REALLY WHERE
  1342								   IMUL	T2,TABSIZ  ;TAB WILL BRING US TO
  1343	001534'	260 17 0 00 004405'				   POPJ	P,0]
  1344	001535'	270 04 0 00 000111'		ADD	T2,BIGSIZ	;MAKE SURE WE HAVE ROOM FOR ANOTHER COLUMN
  1345						HRROI	T1,[ASCIZ /
  1346	001536'	561 03 0 00 004030'	/]
  1347	001537'	317 04 0 00 000113'		CAMG	T2,PWIDTH	;ROOM FOR ANOTHER KEYWORD ON THIS LINE?
  1348	001540'	254 00 0 00 001544'		JRST	KEY3		;YES, SO DON'T START NEW LINE
  1349	001541'	260 17 0 00 001215'		PUSHJ	P,XMSOUT	;GET TO NEXT LINE
  1350	001542'	402 00 0 00 000114'		SETZM	CURPOS		;CLEAR CURRENT POSITON
  1351	001543'	304 00 0 00 000000 		CAIA			;NO TAB NECESSARY AT BEGINNING OF LINE
  1352	001544'	260 17 0 00 001551'	KEY3:	PUSHJ	P,TYPTAB	;TYPE A TAB
  1353	001545'	201 03 0 00 000057 	KEY4:	MOVX	T1,CMSWCH
  1354	001546'	602 14 0 00 200000 		TXNE	F,CMSWF		;IN SWITCH FIELD?
  1355	001547'	260 17 0 00 001211'		PUSHJ	P,XMCOUT	;YES, TYPE SWITCH INDICATOR
  1356	001550'	263 17 0 00 000000 		POPJ	P,0		;READY TO TYPE KEYWORD ALL ON SAME LINE NOW
GSCN  --  Command Scanner Interface for DIAGNOSTICS	MACRO %53(1020) 10:54 19-Feb-79 Page 42
GSCN	MAC	22-May-78 10:53		S%CMND  --  Scan a command                                                         SEQ 0337

  1357					;ROUTINE TO TYPE TAB OF SIZE TABSIZ. IT ASSUMES HARDWARE TABS ARE OF
  1358					;SIZE 8 AND TRIES TO TYPE AS MANY REAL TABS AS IT CAN, AND THEN SPACES
  1359					;OVER REST OF THE WAY.
  1360
  1361	001551'	200 04 0 00 000114'	TYPTAB:	MOVE	T2,CURPOS	;SEE WHERE WE'RE STARTING ON LINE
  1362	001552'	260 17 0 00 004405'		PUSHJ	P,CMTAB		;SEE WHERE WE WANT TO GET TO
  1363	001553'	202 04 0 00 000106'		MOVEM	T2,TABDON	;REMEMBER WHERE WE WANT TO GET TO
  1364	001554'	200 03 0 00 000114'	TYPTB1:	MOVE	T1,CURPOS	;GET WHERE WE ARE
  1365	001555'	271 03 0 00 000010 		ADDI	T1,8		;HARDWARE TAB MIGHT GO THIS FAR
  1366	001556'	620 03 0 00 000007 		TRZ	T1,7		;BUT MAYBE NOT QUITE
  1367	001557'	313 03 0 00 000106'		CAMLE	T1,TABDON	;WILL HARDWARE TAB GO TOO FAR?
  1368	001560'	254 00 0 00 001564'		JRST	TYPTB2		;YES
  1369	001561'	201 03 0 00 000011 		MOVEI	T1,.CHTAB
  1370	001562'	260 17 0 00 001211'		PUSHJ	P,XMCOUT	;AND TYPE IT
  1371	001563'	254 00 0 00 001554'		JRST	TYPTB1		;LOOP FOR AS MANY HARDWARE TABS AS WE CAN GET AWAY WITH
  1372	001564'	200 03 0 00 000114'	TYPTB2:	MOVE	T1,CURPOS
  1373	001565'	311 03 0 00 000106'		CAML	T1,TABDON	;ARE WE THERE YET?
  1374	001566'	263 17 0 00 000000 		POPJ	P,0		;YES, SO TAB IS TYPED
  1375	001567'	201 03 0 00 000040 		MOVEI	T1," "		;NO, SO SPACE OVER
  1376	001570'	260 17 0 00 001211'		PUSHJ	P,XMCOUT
  1377	001571'	254 00 0 00 001564'		JRST	TYPTB2		;AND LOOP FOR REST OF SPACES
  1378
  1379					;ROUTINE TAKING POINTER TO KEYWORD IN T1. RETURNS KEYWORD LENGTH IN
  1380					;T1. GIVES EXTRA 1 FOR SWITCH, ASSUMING A SLASH WILL PREFIX ITS
  1381					;PRINTOUT.
  1382
  1383	001572'	201 06 0 00 000000 	CMGTLN:	MOVEI	T4,0		;COUNT OF NUMBER OF CHARACTERS NEEDED FOR THIS KEYWORD
  1384	001573'	134 04 0 00 000003 	CMGT.1:	ILDB	T2,T1		;PICK UP NEXT CHARACTER FROM KEYWORD
  1385	001574'	302 04 0 00 000000 		CAIE	T2,0		;ASSUME KEYWORD ENDS ON NULL
  1386	001575'	344 06 0 00 001573'		AOJA	T4,CMGT.1	;NOT OVER YET, ACCUMULATE ITS LENGTH
  1387	001576'	602 14 0 00 200000 		TXNE	F,CMSWF		;IS THIS A SWITCH?
  1388	001577'	340 06 0 00 000000 		AOJ	T4,0		;YES, DELIMITER TAKES UP ANOTHER SPACE
  1389	001600'	200 03 0 00 000006 		MOVE	T1,T4		;RETURN LENGTH IN T1
  1390	001601'	263 17 0 00 000000 		POPJ	P,0
  1391
  1392					;ARBITRARY TEXT TO ACTION CHARACTER
  1393
  1394	001602'	260 17 0 00 000675'	XCMTXT:	PUSHJ	P,CMRSTR	;READ STRING
  1395						JXN	F,CMQUES,[PUSHJ P,DOHLP ;DO USER HELP
  1396							HRROI	T1,[ASCIZ / text string/]
  1397							TXNN	F,CM%SDH
  1398							PUSHJ	P,CMSOUT	;TYPE HELP UNLESS SUPPRESSED
  1399	001603'	606 14 0 00 400000 			JRST	CMRTYP]		;NO DEFAULT MESSAGE
  1400	001604'	334 00 0 00 000000
  1401	001605'	254 00 0 00 004414'
  1402	001606'	254 00 0 00 000410'		JRST	XCOMXI		;DONE
GSCN  --  Command Scanner Interface for DIAGNOSTICS	MACRO %53(1020) 10:54 19-Feb-79 Page 43
GSCN	MAC	22-May-78 10:53		S%CMND  --  Scan a command                                                         SEQ 0338

  1403
  1404					;NOISE WORD FUNCTION
  1405
  1406	001607'	200 03 0 00 000061'	XCMNOI:	MOVE	T1,FNARG	;GET STRING PTR
  1407	001610'	260 17 0 00 001252'		PUSHJ	P,CHKBP		;CHECK AND NORMALIZE
  1408	001611'	202 03 0 00 000102'		MOVEM	T1,XXXPTR
  1409	001612'	607 14 0 00 010000 		TXNN	F,CM%PFE	;PREVIOUS FIELD ENDED WITH ESC?
  1410	001613'	254 00 0 00 001624'		JRST	CMNOI3		;NO
  1411	001614'	661 14 0 00 400000 	CMNOI1:	TXO	F,CM%ESC	;YES, MEANS THIS ONE DID TOO
  1412	001615'	201 03 0 00 000050 		MOVEI	T1,NOIBCH	;TYPE NOISE BEG CHAR
  1413	001616'	260 17 0 00 001130'		PUSHJ	P,CMDIB		; AND PUT IT IN BUFFER
  1414	001617'	134 03 0 00 000102'	CMNOI2:	ILDB	T1,XXXPTR		;GET NEXT NOISE CHAR
  1415						JUMPN	T1,[PUSHJ P,CMDIB	;PUT IT IN BUFFER IF NOT END OF STRING
  1416	001620'	326 03 0 00 004421'			JRST	CMNOI2]
  1417	001621'	201 03 0 00 000051 		MOVEI	T1,NOIECH	;END OF STRING, TYPE END CHAR
  1418	001622'	260 17 0 00 001130'		PUSHJ	P,CMDIB
  1419	001623'	254 00 0 00 000410'		JRST	XCOMXI		;EXIT
  1420
  1421					;PREVIOUS FIELD NOT TERMINATED WITH ESC - PASS NOISE WORD IF TYPED
  1422
  1423	001624'	260 17 0 00 001072'	CMNOI3:	PUSHJ	P,CMSKSP	;BYPASS SPACES
  1424	001625'	260 17 0 00 000765'		PUSHJ	P,CMCIN		;GET FIRST CHAR
  1425	001626'	302 03 0 00 000050 		CAIE	T1,NOIBCH	;NOISE BEG CHAR?
  1426						JRST	[PUSHJ	P,CMDIP		;NO, NOT A NOISE WORD, PUT IT BACK
  1427	001627'	254 00 0 00 004344'			 JRST	XCOMXI]		;RETURN OK
  1428	001630'	260 17 0 00 000765'	CMNOI4:	PUSHJ	P,CMCIN		;GET NEXT NOISE CHAR
  1429	001631'	302 03 0 00 000006 		CAIE	T1,CMFREC	;^F?
  1430	001632'	306 03 0 00 000033 		CAIN	T1,.CHESC	;ESC?
  1431						JRST	[PUSHJ	P,CMDCH		;YES, FLUSH IT
  1432	001633'	254 00 0 00 004423'			JRST	CMNOI2]		;COMPLETE NOISE WORD FOR USER
  1433	001634'	134 04 0 00 000102'		ILDB	T2,XXXPTR		;COMPARE WITH GIVEN STRING
  1434	001635'	316 03 0 00 000004 		CAMN	T1,T2
  1435	001636'	254 00 0 00 001630'		JRST	CMNOI4		;STILL SAME AS EXPECTED
  1436	001637'	306 03 0 00 000051 		CAIN	T1,NOIECH	;NOT SAME, STRING ENDED TOGETHER?
  1437	001640'	322 04 0 00 000410'		JUMPE	T2,XCOMXI	;YES, EXIT OK
  1438	001641'	200 03 0 00 004430'		NOPARS	(NPXINW,BAD NOISE WORD)	;NO, PROBABLY BAD NOISE WORD
  1439	001642'	254 00 0 00 000435'
GSCN  --  Command Scanner Interface for DIAGNOSTICS	MACRO %53(1020) 10:54 19-Feb-79 Page 44
GSCN	MAC	22-May-78 10:53		S%CMND  --  Scan a command                                                         SEQ 0339

  1440
  1441					;CONFIRM
  1442
  1443	001643'	260 17 0 00 001646'	XCMCFM:	PUSHJ	P,CMCFM0	;DO THE WORK
  1444	001644'	254 00 0 00 004437'		 JRST	[NOPARS (NPXNC,CONFIRMATION REQUIRED)]	;FAILED
  1445	001645'	254 00 0 00 000410'		JRST	XCOMXI		;OK
  1446
  1447	001646'	260 17 0 00 000765'	CMCFM0:	PUSHJ	P,CMCIN		;GET CHAR
  1448	001647'	302 03 0 00 000011 		CAIE	T1,.CHTAB	;BLANK?
  1449	001650'	306 03 0 00 000040 		CAIN	T1," "
  1450	001651'	254 00 0 00 001646'		JRST	CMCFM0		;YES, IGNORE
  1451	001652'	306 03 0 00 000077 		CAIN	T1,CMHLPC	;HELP?
  1452						JRST	[PUSHJ	P,DOHLP
  1453						HRROI	T1,[ASCIZ / confirm with carriage return/]
  1454							 TXNN	F,CM%SDH
  1455							 PUSHJ	P,CMSOUT	;GIVE HELP MESSAGE
  1456	001653'	254 00 0 00 004447'			 JRST	CMRTYP]		;RETYPE AND TRY AGAIN
  1457	001654'	302 03 0 00 000006 		CAIE	T1,CMFREC	;^F?
  1458	001655'	306 03 0 00 000033 		CAIN	T1,.CHESC	;ESC?
  1459						JRST	[PUSHJ	P,CMAMB		;YES, DING
  1460	001656'	254 00 0 00 004454'			 JRST	CMCFM0]		;TRY AGAIN
  1461	001657'	302 03 0 00 000012 		CAIE	T1,.CHLFD	;NL (NEW LINE, I.E. LINEFEED)
  1462	001660'	263 17 0 00 000000 		POPJ	P,0		;NO, FAIL
  1463	001661'	254 00 0 00 004220'		RETSKP			;YES
GSCN  --  Command Scanner Interface for DIAGNOSTICS	MACRO %53(1020) 10:54 19-Feb-79 Page 45
GSCN	MAC	22-May-78 10:53		S%CMND  --  Scan a command                                                         SEQ 0340

  1464
  1465					;FLOATING POINT NUMBER
  1466
  1467	001662'	260 17 0 00 003773'	XCMFLT:	$STOP(SFP,Scanning floating point not implemented)
  1468					REPEAT 0,<
  1469						MOVEI	T1,FLTBRK	;USE SPECIAL BREAK SET
  1470						PUSHJ	P,CMRFLD	;READ FIELD
  1471						JXN	F,CMQUES,[PUSHJ P,DOHLP
  1472							HRROI	T1,[ASCIZ / number/]
  1473							TXNN	F,CM%SDH	;SUPPRESS DEFAULT?
  1474							PUSHJ	P,CMSOUT	;NO, DO IT
  1475							JRST	CMRTYP]
  1476						MOVE	T1,.CMABP(P2)	;NUMBER NOW IN ATOM BUFFER, GET PTR
  1477						MOVEM	T1,T1
  1478						IMCALL	.FLIN
  1479						 JRST	[MOVEM	T3,T2		;FAILED, RETURN ERROR CODE
  1480							 JRST	XCOMNP]
  1481						JRST	CMNUMR		;DO NUMBER CLEANUP AND RETURN
  1482
  1483					;FLOATING POINT BREAK SET MASK, ALLOWS +, -, ., E, NUMBERS
  1484
  1485					FLTBRK:	777777,,777760
  1486						777644,,001760
  1487						400000,,000760
  1488						400000,,000760
  1489
  1490					 >;END OF REPEAT 0
  1491					;NUMBER
  1492
  1493	001664'	334 03 0 00 004470'	XCMNUX:	SKIPA	T1,[NUXBRK]	;USE SPECIAL BREAK SET
  1494	001665'	201 03 0 00 001704'	XCMNUM:	MOVEI	T1,NUMBRK	;USE REGULAR BREAK SET
  1495	001666'	260 17 0 00 000615'		PUSHJ	P,CMRFLD	;READ FIELD
  1496	001667'	602 14 0 00 400000 		TXNE	F,CMQUES	;SAW "?"
  1497	001670'	254 00 0 00 001741'		JRST	CMNUMH		;YES
  1498	001671'	200 03 0 10 000007 		MOVE	T1,.CMABP(P2)	;SETUP NIN
  1499	001672'	200 05 0 00 000061'		MOVE	T3,FNARG	;GET RADIX
  1500	001673'	260 17 0 00 001714'		PUSHJ	P,NUMIN		;PARSE THE NUMBER
  1501	001674'	254 00 0 00 001702'		JRST	CMNUM1		;NO PARSE
  1502	001675'	202 04 0 00 000104'	CMNUMR:	MOVEM	T2,CRBLK+CR.RES	;STORE RESULT
  1503	001676'	200 04 0 00 000056'		MOVE	T2,ATBPTR
  1504	001677'	133 00 0 00 000004 		IBP	T2		;BUMP PTR PAST TERMINATOR
  1505	001700'	316 03 0 00 000004 		CAMN	T1,T2		;NIN SAW WHOLE FIELD?
  1506						JRST	[MOVE	T2,CRBLK+CR.RES
  1507	001701'	254 00 0 00 004471'			JRST	XCOMXR] ; YES, RECOVER RESULT AND RETURN
  1508	001702'	200 03 0 00 004501'	CMNUM1:	NOPARS	(NPXICN,NUMERIC CHARACTER EXPECTED)	;INVALID CHARACTER IN NUMBER
  1509	001703'	254 00 0 00 000435'
GSCN  --  Command Scanner Interface for DIAGNOSTICS	MACRO %53(1020) 10:54 19-Feb-79 Page 46
GSCN	MAC	22-May-78 10:53		S%CMND  --  Scan a command                                                         SEQ 0341

  1510
  1511					;NUMBER BREAK SET, ALLOWS +, -, NUMBERS
  1512
  1513	001704'	777777	777760		NUMBRK:	777777,,777760
  1514	001705'	777654	001760			777654,,001760
  1515	001706'	400000	000760			400000,,000760
  1516	001707'	400000	000760			400000,,000760
  1517
  1518	001710'	777777	777760		NUXBRK:	777777,,777760
  1519	001711'	777654	001760			777654,,001760
  1520	001712'	777777	777760			777777,,777760
  1521	001713'	777777	777760			777777,,777760
  1522
  1523
  1524					;NUMERIC INPUT ROUTINE
  1525					;	T1/ BYTE POINTER TO STRING
  1526					;	T3/ BASE TO USE
  1527					;
  1528					;RETURNS T1 UPDATED,T2 THE RESULT
  1529
  1530	001714'	400 02 0 00 000000 	NUMIN:	SETZ	S2,0		;CLEAR MODIFIER
  1531	001715'	134 01 0 00 000003 		ILDB	S1,T1		;GET FIRST CHARACTER
  1532	001716'	306 01 0 00 000040 		CAIN	S1," "		;A BLANK?
  1533	001717'	254 00 0 00 001714'		JRST	NUMIN		;YES, IGNORE IT
  1534	001720'	306 01 0 00 000055 		CAIN	S1,"-"		;IS IT MINUS SIGN?
  1535	001721'	561 02 0 00 777777 		MOVX	S2,-1		;YES, REMEMBER IT
  1536	001722'	306 01 0 00 000053 		CAIN	S1,"+"		;IS IT PLUS SIGN?
  1537	001723'	201 02 0 00 000001 		MOVX	S2,+1		;YES, REMEMBER IT
  1538	001724'	332 00 0 00 000002 		SKIPE	S2		;IF WE HAD EITHER + OR -
  1539	001725'	134 01 0 00 000003 		ILDB	S1,T1		;GET NEXT BYTE
  1540	001726'	307 01 0 05 000057 		CAIG	S1,"0"-1(T3)	;TOO BIG
  1541	001727'	305 01 0 00 000060 		CAIGE	S1,"0"		;OR TOO SMALL?
  1542	001730'	263 17 0 00 000000 		POPJ	P,0		;YES, TAKE FAILURE RETURN
  1543	001731'	400 04 0 00 000000 		SETZ	T2,0		;CLEAR THE RESULT
  1544	001732'	221 04 0 05 000000 	NUMI.1:	IMULI	T2,0(T3)	;SHIFT OVER 1 DIGIT
  1545	001733'	271 04 0 01 777720 		ADDI	T2,-"0"(S1)	;AND ADD IN THIS ONE
  1546	001734'	134 01 0 00 000003 		ILDB	S1,T1		;GET NEXT CHAR
  1547	001735'	307 01 0 05 000057 		CAIG	S1,"0"-1(T3)	;IN RANGE?
  1548	001736'	305 01 0 00 000060 		CAIGE	S1,"0"
  1549						JRST	[SKIPE	S2
  1550							IMUL	T2,S2
  1551	001737'	254 00 0 00 004502'			RETSKP]
  1552	001740'	254 00 0 00 001732'		JRST	NUMI.1		;YES, REPEAT
GSCN  --  Command Scanner Interface for DIAGNOSTICS	MACRO %53(1020) 10:54 19-Feb-79 Page 47
GSCN	MAC	22-May-78 10:53		S%CMND  --  Scan a command                                                         SEQ 0342

  1553
  1554	001741'	260 17 0 00 001152'	CMNUMH:	PUSHJ	P,DOHLP		;DO USER SUPPLIED MESSAGE
  1555	001742'	607 14 0 00 000001 		JXN	F,CM%SDH,CMRTYP	;SUPPRESS DEFAULT HELP IF REQUESTED
  1556	001743'	334 00 0 00 000000
  1557	001744'	254 00 0 00 000450'
  1558	001745'	550 04 0 00 000061'		HRRZ	T2,FNARG	;GET BASE
  1559	001746'	301 04 0 00 000002 		CAIL	T2,^D2		;LEGAL?
  1560	001747'	303 04 0 00 000012 		CAILE	T2,^D10
  1561	001750'	260 17 0 00 003773'		$STOP(IBN,Illegal base for number)
  1562	001752'	306 04 0 00 000012 		CAIN	T2,^D10		;DECIMAL?
  1563	001753'	254 00 0 00 001771'		JRST	CMNH10		;YES
  1564	001754'	306 04 0 00 000010 		CAIN	T2,^D8		;OCTAL?
  1565	001755'	254 00 0 00 001767'		JRST	CMNH8		;YES
  1566	001756'	561 03 0 00 004514'		HRROI	T1,[ASCIZ / a number in base /]
  1567	001757'	260 17 0 00 001175'		PUSHJ	P,CMSOUT	;ARBITRARY BASE
  1568	001760'	550 03 0 10 000001 		HRRZ	T1,.CMIOJ(P2)
  1569	001761'	550 04 0 00 000061'		HRRZ	T2,FNARG
  1570	001762'	201 05 0 00 000012 		MOVEI	T3,^D10
  1571	001763'	271 04 0 00 000060 		ADDI	T2,"0"		;CONVERT BASE TO ASCII
  1572	001764'	051 01 0 00 000004 		OUTCHR	T2			;OUTPUT THE BASE
  1573	001765'	275 04 0 00 000060 		SUBI	T2,"0"			;CONVERT IT BACK
  1574	001766'	254 00 0 00 000450'		JRST	CMRTYP		;RETYPE LINE AND CONTINUE
  1575
  1576	001767'	561 03 0 00 004520'	CMNH8:	HRROI	T1,[ASCIZ / octal number/]
  1577	001770'	254 00 0 00 001772'		JRST	CMNH
  1578
  1579	001771'	561 03 0 00 004523'	CMNH10:	HRROI	T1,[ASCIZ / decimal number/]
  1580	001772'	260 17 0 00 001175'	CMNH:	PUSHJ	P,CMSOUT
  1581	001773'	254 00 0 00 000450'		JRST	CMRTYP
GSCN  --  Command Scanner Interface for DIAGNOSTICS	MACRO %53(1020) 10:54 19-Feb-79 Page 48
GSCN	MAC	22-May-78 10:53		S%CMND  --  Scan a command                                                         SEQ 0343

  1582					;DATE AND/OR TIME
  1583					;FLAGS IN ARG SPECIFY WHICH
  1584
  1585	001774'	260 17 0 00 003773'	XCMTAD:	$STOP(SDT,Scanning date/time not implemented)
  1586
  1587					REPEAT 0,<
  1588						MOVE	Q1,FNARG	;GET ARG
  1589						PUSHJ	P,CMRSPC	;READ FIRST FIELD
  1590						JXN	F,CMQUES,CMTADH	;DO HELP IF REQUESTED
  1591						JXN	F,CMDEFF,CMTAD1	;JUMP IF NOW HAVE FIELD DEFAULT
  1592						TXC	Q1,CM%IDA+CM%ITM ;DATE AND TIME BOTH?
  1593						TXCN	Q1,CM%IDA+CM%ITM
  1594						JRST	[MOVEI	T1," "		;YES, PUT SPACE IN ATOM BUFFER
  1595							PUSHJ	P,STOLCH
  1596							PUSHJ	P,CMRSPC	;READ SECOND FIELD
  1597							JXN	F,CMQUES,CMTADH ;DO HELP
  1598							JRST	.+1]
  1599					CMTAD1:	MOVE	T1,.CMABP(P2)	;POINT TO ATOM BUFFER
  1600						MOVEM	T1,T1
  1601						MOVX	T2,1B0+1B6	;SETUP FLAGS FOR IDTNC
  1602						TXNE	Q1,CM%IDA	;DATE WANTED?
  1603						TXZ	T2,1B0		;YES
  1604						TXNE	Q1,CM%ITM	;TIME WANTED?
  1605						TXZ	T2,1B6		;YES
  1606					;**	IMCALL .IDTNC
  1607						 JRST	XCOMNP		;FAILED
  1608						TXNE	Q1,CM%NCI	;CONVERT TO INTERNAL FORMAT?
  1609						JRST	[MOVSI	T1,T2		;NO, STORE DATA IN USER BLOCK
  1610							HRR	T1,Q1
  1611							BLT	T1,2(Q1)
  1612							JRST	XCOMXR]
  1613						TXNN	Q1,CM%IDA	;HAVE DATE?
  1614						JRST	[SETO	T2,0		;NO, DEFAULT TO TODAY
  1615							SETZ	T4,0
  1616					;**		ODCNV			;GET TODAY
  1617					;**		UMOVEM	T3,T3
  1618							JRST	.+1]
  1619					;**	IMCALL	.IDCNV		;CONVERT TO INTERNAL
  1620						 JRST	XCOMNP		;FAILED
  1621						MOVEM	T2,CRBLK+CR.RES	;STORE RESULT
  1622						JRST	XCOMXR		;OK, TAD ALREADY IN T2
  1623
  1624					;TIME/DATE HELP
  1625
  1626					CMTADH:	PUSHJ	P,DOHLP		;DO USER TEXT
  1627						JXN	F,CM%SDH,CMRTYP	;CHECK SUPPRESS DEFAULT
  1628						LOAD	T1,Q1,<CM%IDA+CM%ITM> ;GET FLAGS
  1629						HRRO	T1,[[ASCIZ //]
  1630							    [ASCIZ / time/]
  1631							    [ASCIZ / date/]
  1632							    [ASCIZ / date and time/]](T1)
  1633						PUSHJ	P,CMSOUT	;PRINT APPROPRIATE MESSAGE
  1634					> ;END OF REPEAT 0
  1635	001776'	254 00 0 00 000450'		JRST	CMRTYP
GSCN  --  Command Scanner Interface for DIAGNOSTICS	MACRO %53(1020) 10:54 19-Feb-79 Page 49
GSCN	MAC	22-May-78 10:53		S%CMND  --  Scan a command                                                         SEQ 0344

  1636
  1637					;DEVICE
  1638
  1639	001777'	260 17 0 00 000571'	XCMDEV:	PUSHJ	P,CMRATM	;GET THE FIELD
  1640	002000'	606 14 0 00 400000 		JXN	F,CMQUES,CMDEVH	;HELP
  1641	002001'	334 00 0 00 000000
  1642	002002'	254 00 0 00 002026'
  1643						JXN	F,CM%ESC,[PUSHJ P,CMAMB ;NO ESC ALLOWED
  1644	002003'	607 14 0 00 400000 				  JRST XCMDEV ]  ;ON DEVICE
  1645	002004'	334 00 0 00 000000
  1646	002005'	254 00 0 00 004540'
  1647	002006'	260 17 0 00 000765'		PUSHJ	P,CMCIN		;CHECK TERMINATOR
  1648	002007'	302 03 0 00 000072 		CAIE	T1,":"		;DEVICE?
  1649	002010'	254 00 0 00 004551'		JRST	[NOPARS (NPXIDT,IMPROPER DEVICE SPECIFICATION)]	;NO, FAIL
  1650	002011'	200 03 0 10 000007 	CMDEV1:	MOVE	T1,.CMABP(P2)	;SETUP STDEV ARGS
  1651	002012'	202 03 0 00 000102'		MOVEM	T1,XXXPTR	;STORE POINTER
  1652	002013'	260 17 0 00 002277'		PUSHJ	P,FTOKEN	;GET TOKEN
  1653	002014'	322 03 0 00 000436'		JUMPE	T1,XCOMNP	;IF NULL SPEC
  1654	002015'	302 04 0 00 000072 		CAIE	T2,":"		; OR NOT TERMINATED WITH COLON
  1655	002016'	254 00 0 00 000436'		JRST	XCOMNP		; THEN FAILED TO PARSE
  1656	002017'	202 03 0 00 000104'		MOVEM	T1,CRBLK+CR.RES	;STORE RESULT
  1657	002020'	603 14 0 00 400000 		JXE	F,CM%ESC,XCOMXR	;SUCCESS, DONE IF NO ESC
  1658	002021'	334 00 0 00 000000
  1659	002022'	254 00 0 00 000406'
  1660	002023'	201 03 0 00 000072 		MOVEI	T1,":"		;RECOG, APPEND TERMINATOR
  1661	002024'	260 17 0 00 001130'		PUSHJ	P,CMDIB
  1662	002025'	254 00 0 00 000410'		JRST	XCOMXI
  1663
  1664	002026'	260 17 0 00 001152'	CMDEVH:	PUSHJ	P,DOHLP		;DO USER HELP
  1665	002027'	561 03 0 00 004553'		HRROI	T1,[ASCIZ / device name/]
  1666	002030'	607 14 0 00 000001 		TXNN	F,CM%SDH	;SUPPRESS DEFAULT?
  1667	002031'	260 17 0 00 001175'		PUSHJ	P,CMSOUT	;NO, DO IT
  1668	002032'	254 00 0 00 000450'		JRST	CMRTYP
  1669
  1670
  1671
  1672
  1673					;QUOTED STRING
  1674
  1675	002033'	260 17 0 00 000716'	XCMQST:	PUSHJ	P,CMRQST	;READ THE STRING
  1676	002034'	254 00 0 00 004564'		 JRST	[NOPARS	(NPXNQS,QUOTED STRING EXPECTED)] ;FAILED
  1677						JXN	F,CMQUES,[PUSHJ P,DOHLP ;DO USER HELP
  1678							HRROI	T1,[ASCIZ / quoted string/]
  1679							TXNN	F,CM%SDH	;DEFAULT HELP?
  1680							PUSHJ	P,CMSOUT	;YES
  1681	002035'	606 14 0 00 400000 			JRST	CMRTYP]
  1682	002036'	334 00 0 00 000000
  1683	002037'	254 00 0 00 004571'
  1684	002040'	254 00 0 00 000410'		JRST	XCOMXI
GSCN  --  Command Scanner Interface for DIAGNOSTICS	MACRO %53(1020) 10:54 19-Feb-79 Page 50
GSCN	MAC	22-May-78 10:53		S%CMND  --  Scan a command                                                         SEQ 0345

  1685
  1686					;UNQUOTED STRING - TAKES BIT MASK (4 WORDS * 32 BITS) TO SPECIFY BREAKS.
  1687
  1688	002041'				XCMUQS:
  1689	002041'	260 17 0 00 000765'	CMUQS1:	PUSHJ	P,CMCIN		;GET A CHAR
  1690	002042'	231 03 0 00 000040 		IDIVI	T1,^D32		;COMPUTE INDEX TO BIT ARRAY
  1691	002043'	200 04 0 04 000000'		MOVE	T2,BITS(T2)
  1692	002044'	270 03 0 00 000061'		ADD	T1,FNARG
  1693	002045'	616 04 0 03 000000 		TDNN	T2,0(T1)	;BIT ON?
  1694	002046'	254 00 0 00 002041'		JRST	CMUQS1		;NO, KEEP GOING
  1695	002047'	260 17 0 00 001116'		PUSHJ	P,CMDIP		;YES, PUT CHAR BACK
  1696	002050'	254 00 0 00 000410'		JRST	XCOMXI		;DONE
  1697
  1698					;ARBITRARY FIELD
  1699
  1700	002051'	260 17 0 00 000571'	XCMFLD:	PUSHJ	P,CMRATM
  1701	002052'	602 14 0 00 400000 	CMFLD1:	TXNE	F,CMQUES	;"?" SEEN?
  1702						JRST	[PUSHJ	P,DOHLP		;YES, DO USER MESSAGE
  1703	002053'	254 00 0 00 004576'			 JRST	CMRTYP]
  1704	002054'	254 00 0 00 000406'		JRST	XCOMXR		;LEAVE FIELD IN ATOM BUFFER
  1705
  1706					;ACCOUNT
  1707	002055'	201 03 0 00 000605'	XCMACT:	MOVEI	T1,USRBRK	;SAME BREAK SET AS USER NAME FIELD
  1708	002056'	260 17 0 00 000615'		PUSHJ	P,CMRFLD	;READ FIELD
  1709	002057'	254 00 0 00 002052'		JRST	CMFLD1		;FINISH LIKE ARBITRARY FIELD
GSCN  --  Command Scanner Interface for DIAGNOSTICS	MACRO %53(1020) 10:54 19-Feb-79 Page 51
GSCN	MAC	22-May-78 10:53		S%CMND  --  Scan a command                                                         SEQ 0346

  1710					;NODE NAME
  1711
  1712	002060'	260 17 0 00 003773'	XCMNOD:	$STOP(NOD,SCANNING NODE NOT IMPLEMENTED)
  1713
  1714						REPEAT	0,<
  1715						PUSHJ	P,CMRATM	;GET AN ATOM
  1716						JXN	F,CMQUES,[PUSHJ	P,DOHLP	;TYPE OUT USER'S HELP
  1717								  HRROI	T1,[ASCIZ / Node Name/] ;SET UP DEFAULT HELP
  1718								  TXNN	F,CM%SDH	;DOES USER NOT WANT IT
  1719								  PUSHJ	P,CMSOUT	;NO,TYPE IT
  1720								  JRST	CMRTYP]		;AND RETYPE COMMAND
  1721						MOVE	T1,.CMABP(P2)	;POINT AT THE ATOM BUFFER
  1722						MOVEI	T3,^D8		;TRY AS AN OCTAL NUMBER
  1723						PUSHJ	P,NUMIN		;READ IT
  1724						  JRST	XNOD1		;LOST, TRY AS A SIXBIT NAME
  1725						MOVEM	T2,CRBLK+CR.RES	;SAVE AS RESULT
  1726						MOVE	T2,ATBPTR	;GET POINTER TO END OF ATOM BUFFER
  1727						IBP	T2		;POINT AT TERMINATOR
  1728						CAME	T1,T2		;OUR POINTER END THE SAME PLACE?
  1729						JRST	XNOD1		;NO, NOT A GOOD NUMBER
  1730						MOVE	T3,CRBLK+CR.RES	;NODE NUMER WE JUST PARSED
  1731						TXNE	F,CM%PO		;PARSE ONLY?
  1732						JRST	[CAILE	T3,77	;ILLEGAL NODE NUMBER?
  1733							JRST	XNOD1	;YES, TRY A NAME
  1734							JRST	XCOMXI]	;GOOD NODE NUMBER, RETURN
  1735						MOVE	T1,[XWD .NDRNN,T2] ;CHECK TO MAKE SURE THAT THIS NODE NUMBER EXISTS
  1736						MOVEI	T2,2		;2 ARGS
  1737						NODE.	T1,		;TRY IT FOR EXISTANCE
  1738						  SKIPA			;NOT A NODE NUMBER, TRY AS A NAME
  1739						JRST	XCOMXI		;A GOOD NODE NUMBER, RETURN
  1740					XNOD1:	MOVE	T1,.CMABP(P2)	;POINT AT THE ATOM BUFFER
  1741						MOVEI	T2,6		;GET MAX NUMBER OF CHARACTERS IN NAME
  1742						MOVE	T4,[POINT 6,NODSIX]; BP TO NODE STORAGE
  1743						SETZM	NODSIX		;START FRESH
  1744					XNOD2:	ILDB	T3,T1		;GET NEXT CHARACTER FROM ATOM BUFFER
  1745						CAIL	T3,"0"		;IS THE CHARACTER
  1746						CAILE	T3,"Z"		;NUMERIC OR UPPER CASE?
  1747						JRST	XNOD4		;ITS NOT
  1748						CAILE	T3,"9"		;...
  1749						CAIL	T3,"A"		;...
  1750						CAIA			;GOOD CHARACTER, JUST SAVE IT
  1751						JRST	XNOD4		;TRY FOR LOWER CASE ALPHA
  1752					XNOD3:	SUBI	T3,"a"-"A"	;SIXBITIZE
  1753						IDPB	T3,T4		;FILL OUT SIXBIT NODE NAME
  1754						SOJGE	T2,XNOD2	;HAVE WE SEEN ENOUGH CHARACTERS?
  1755						NOPARS	(NPXNNC,IMPROPER NODE NAME)	;TOO MANY CHARACTERS IN NODE NAME
GSCN  --  Command Scanner Interface for DIAGNOSTICS	MACRO %53(1020) 10:54 19-Feb-79 Page 52
GSCN	MAC	22-May-78 10:53		S%CMND  --  Scan a command                                                         SEQ 0347

  1756
  1757					XNOD4:	CAIG	T3,"z"		;BIGGER THAN LOWER CASE Z?
  1758						CAIGE	T3,"a"		;OR LESS THAN LOWER CASE A?
  1759						JRST	XNOD5		;YES, GIVE ILLEGAL CHARACTER IN NODE NAME
  1760						SUBI	T3,"a"-"A"	;CONVERT CHARACTER TO UPPER CASE
  1761						JRST	XNOD3		;SAVE IT AN LOOK FOR MORE
  1762					XNOD5:	MOVE	T2,ATBPTR	;GET POINTER TO END OF ATOM BUFFER
  1763						IBP	T2		;POINT AT TERMINATOR
  1764						CAMN	T1,T2		;OUR POINTER END THE SAME PLACE?
  1765						JRST	XNOD6		;GO DO NODE UUO
  1766						NOPARS	(NPXNNI,NODE NAME EXPECTED)	;ILLEGAL CHARACTER IN NODE NAME
  1767
  1768					XNOD6:	MOVEI	T2,2		;2 ARGS
  1769						MOVE	T3,NODSIX
  1770						MOVE	T1,[XWD .NDRNN,T2]
  1771						NODE.	T1,0
  1772						JRST	[NOPARS (NPXNSN,NO SUCH NODE)]
  1773						MOVEM	T1,CRBLK+CR.RES	;STORE NUMBER
  1774						JRST	XCOMXI		;AND RETURN
  1775					>
GSCN  --  Command Scanner Interface for DIAGNOSTICS	MACRO %53(1020) 10:54 19-Feb-79 Page 53
GSCN	MAC	22-May-78 10:53		S%CMND  --  Scan a command                                                         SEQ 0348

  1776					;INDIRECT FILESPEC (INTERNAL CALL)
  1777
  1778	002062'				CMATFI:
  1779	002062'	660 14 0 00 001000 		TXO	F,CMINDF	;NOTE GETTING INDIRECT FILE
  1780	002063'	254 00 0 00 002064'		JRST	XCMIFI		;AND HANDLE AS INPUT FILE
  1781
  1782	002064'				XCMOFI:
  1783	002064'				XCMIFI:
  1784
  1785	002064'	260 17 0 00 000577'	XCMFIL:	PUSHJ	P,CMRFIL	;GET FILE SPECIFICATION
  1786	002065'	606 14 0 00 400000 		JXN	F,CMQUES,CMFHLP	;IF THEY WANT HELP, GIVE IT TO THEM
  1787	002066'	334 00 0 00 000000
  1788	002067'	254 00 0 00 002322'
  1789					;	JXN	F,CM%ESC,[ PUSHJ P,CMAMB ;NO RECOGNITION AVAILABLE
  1790					;			   JRST XCMFIL]
  1791	002070'	260 17 0 00 002101'		PUSHJ	P,FILIN		;GET FILE SPEC
  1792	002071'	254 00 0 00 000436'		  JRST	XCOMNP		;IF FAILS ITS A NO PARSE
  1793	002072'	200 04 0 00 000056'		MOVE	T2,ATBPTR	;GET POINTER TO ATOM BUFFER END
  1794	002073'	133 00 0 00 000004 		IBP	T2		;BUMP PAST TERMINATOR
  1795	002074'	312 04 0 00 000102'		CAME	T2,XXXPTR	;DOES IT MATCH?
  1796	002075'	254 00 0 00 000436'		JRST	XCOMNP		;NO, TERMINATED PREMATURELY
  1797	002076'	622 14 0 00 001000 		TXZE	F,CMINDF	;ARE WE DOING INDIRECT FILE?
  1798	002077'	254 00 0 00 004220'		RETSKP			;YES , RETURN FOR PROCESSING
  1799	002100'	254 00 0 00 000410'		JRST	XCOMXI		;OTHERWISE, DONE
  1800
  1801
  1802	002101'	402 00 0 00 004024'	FILIN:	SETZM	DEVSUP#
  1803	002102'	402 00 0 00 004025'		SETZM	PPNSUP#
  1804	002103'	260 17 0 00 003617'		PUSHJ	P,.SAVE1	;SAVE A REG
  1805	002104'	550 02 0 10 000011 		LOAD	S2,.CMGJB(P2),CM%GJB ;GET ADDR OF FD
  1806	002105'	202 02 0 00 000104'		MOVEM	S2,CRBLK+CR.RES	;SAVE IT FOR CALLER
  1807	002106'	200 07 0 00 000002 		MOVE	P1,S2		;AND REMEMBER IT
  1808	002107'	201 01 0 00 000012 		MOVX	S1,FDXSIZ	;NOW ZERO IT OUT
  1809	002110'	542 01 0 02 000000 		STORE	S1,.FDLEN(S2),FD.LEN ;STORE LENGTH INTO FD
  1810	002111'	200 03 0 10 000007 		MOVE	T1,.CMABP(P2)	;GET ATOM BUFFER POINTER
  1811	002112'	202 03 0 00 000102'		MOVEM	T1,XXXPTR	;STORE IT
  1812	002113'	260 17 0 00 002277'		PUSHJ	P,FTOKEN	;GET FIRST FILE TOKEN
  1813	002114'	302 04 0 00 000032 		CAIE	T2,':'		;IS FIRST PART A DEVICE
  1814	002115'	254 00 0 00 002121'		JRST	FILI.1		;NO
  1815	002116'	202 03 0 07 000002 		MOVEM	T1,.FDSTR(P1)	;STORE STRUCTURE NAME
  1816	002117'	476 00 0 00 004024'		SETOM	DEVSUP
  1817	002120'	260 17 0 00 002277'		PUSHJ	P,FTOKEN	;YES, LOAD NEXT TOKEN
  1818	002121'	326 03 0 00 002137'	FILI.1:	JUMPN	T1,FILI.2	;IF WE HAVE SOMETHING, IT MUST BE FILENAM
  1819	002122'	302 04 0 00 000073 		CAIE	T2,'['		;IF NOT, EXPECT A PPN HERE
  1820	002123'	306 04 0 00 000074 		CAIN	T2,74		;
  1821	002124'	334 00 0 00 000000 		SKIPA			;IT IS A PPN
  1822	002125'	254 00 0 00 002137'		JRST	FILI.2		;CHECK FOR SUFFICIENT FILE-SPEC
  1823	002126'	200 03 0 00 000102'		MOVE	T1,XXXPTR	;GET POINTER TO PPN
  1824	002127'	260 17 0 00 001136'		PUSHJ	P,DBP		;DECREMENT POINTER
  1825	002130'	200 04 0 00 000003 		MOVE	T2,T1		;GET INTO PLACE
GSCN  --  Command Scanner Interface for DIAGNOSTICS	MACRO %53(1020) 10:54 19-Feb-79 Page 54
GSCN	MAC	22-May-78 10:53		S%CMND  --  Scan a command                                                         SEQ 0349

  1826	002131'	260 17 0 00 002405'		PUSHJ	P,PPNIN		;GET PPN
  1827	002132'	263 17 0 00 000000 		  POPJ	P,		;PASS ON FAILURE
  1828	002133'	202 03 0 00 000102'		MOVEM	T1,XXXPTR	;STORE CORRECTED POINTER
  1829	002134'	202 04 0 07 000003 		STORE	T2,.FDPPN(P1)	;STORE THE PPN NOW
  1830	002135'	476 00 0 00 004025'		SETOM	PPNSUP
  1831	002136'	260 17 0 00 002277'		PUSHJ	P,FTOKEN	;AND GET NEXT PART
  1832	002137'	336 00 0 00 004024'	FILI.2:	SKIPN DEVSUP		;WAS DEVICE SUPPLIED ?
  1833	002140'	260 17 0 00 002237'		GO	DEVSP1		;NO, GET DEFAULT IF SUPPLIED
  1834	002141'	336 00 0 00 004025'		SKIPN	PPNSUP		;WAS PPN SUPPLIED ?
  1835	002142'	260 17 0 00 002256'		GO	PPNSP1		;NO, GET DEFAULT IF SUPPLIED
  1836	002143'	336 00 0 00 000003 		SKIPN	T1		;ANY FILE NAME ?
  1837	002144'	260 17 0 00 002176'		GO	NAMSP1		;NO, GET DEFAULT
  1838	002145'	202 03 0 07 000004 		STORE	T1,.FDNAM(P1)	;STORE NAME
  1839	002146'	302 04 0 00 000016 		CAIE	T2,'.'		;IS THERE AN EXTENSION?
  1840	002147'	254 00 0 00 002215'		JRST	EXTSUP		;NO, GET DEFAULT
  1841	002150'	260 17 0 00 002277'		PUSHJ	P,FTOKEN	;GET EXTENSION
  1842	002151'	336 00 0 00 000003 		SKIPN	T1		;ANY EXT ?
  1843	002152'	260 17 0 00 002223'		GO	EXTSP1		;NO, GET DEFAULT IF SUPPLIED
  1844	002153'	202 03 0 07 000005 		STORE	T1,.FDEXT(P1)	;AND STORE IT
  1845	002154'	302 04 0 00 000073 	FILI.3:	CAIE	T2,'['		;HAVE WE GOT A PPN?
  1846	002155'	306 04 0 00 000074 		CAIN	T2,74		;NOW
  1847	002156'	334 00 0 00 000000 		SKIPA			;YES, WE HAVE
  1848	002157'	254 00 0 00 002170'		JRST	FILI.4		;CHECK FOR SUFFICIENT FILE-SPEC
  1849	002160'	200 03 0 00 000102'		MOVE	T1,XXXPTR	;RELOAD THE POINTER
  1850	002161'	260 17 0 00 001136'		PUSHJ	P,DBP		;DECREMENT IT
  1851	002162'	200 04 0 00 000003 		MOVE	T2,T1		;AND THEN PARSE THE
  1852	002163'	260 17 0 00 002405'		PUSHJ	P,PPNIN		;PPN
  1853	002164'	263 17 0 00 000000 		  POPJ	P,		;RETURN A FAILURE
  1854	002165'	202 03 0 00 000102'		MOVEM	T1,XXXPTR	;STORE CORRECTED POINTER
  1855	002166'	202 04 0 07 000003 		STORE	T2,.FDPPN(P1)	;STORE PPN IF OK
  1856	002167'	133 00 0 00 000102'		IBP	XXXPTR		;AND BUMP PAST IT
  1857	002170'	336 01 0 07 000002 	FILI.4:	SKIPN	S1,.FDSTR(P1)	;SEE IF USER SUPPLIED A DEFAULT DEVICE
  1858	002171'	205 01 0 00 446353 		MOVSI	S1,'DSK'	;NO, SUPPLY DEFAULT DEVICE
  1859	002172'	202 01 0 07 000002 		STORE	S1,.FDSTR(P1)	;STORE DEFAULT DEVICE
  1860	002173'	336 00 0 07 000004 		SKIPN	.FDNAM(P1)	;MAKE SURE THERE IS A NAME
  1861	002174'	263 17 0 00 000000 		POPJ	P,		;NO NAME, BAD FILE SPEC
  1862	002175'	254 00 0 00 004220'		RETSKP			;TAKE GOOD RETURN
GSCN  --  Command Scanner Interface for DIAGNOSTICS	MACRO %53(1020) 10:54 19-Feb-79 Page 55
GSCN	MAC	22-May-78 10:53		S%CMND  --  Scan a command                                                         SEQ 0350

  1863					;PROCESS FILE PARAMETER DEFAULTS
  1864
  1865	002176'	550 00 0 07 000004 	NAMSP1:	HRRZ	.FDNAM(P1)	;GET DEFAULT POINTER
  1866	002177'	336 00 0 00 000000 		SKIPN			;ANY SUPPLIED ?
  1867	002200'	260 17 0 00 003773'		$STOP(NNS,NO DEFAULT NAME SUPPLIED)
  1868	002202'	603 14 0 00 400000 		TLNE	F,(CM%ESC)	;ESCAPE TERMINATE FIELD ?
  1869	002203'	037 17 0 00 000001 		PNTALF			;PRINT IT
  1870
  1871	002204'	261 17 0 00 000004 		PUT	T2
  1872	002205'	261 17 0 00 000102'		PUT	XXXPTR
  1873	002206'	550 00 0 07 000004 		HRRZ	.FDNAM(P1)
  1874	002207'	505 00 0 00 440700 		HRLI	440700		;MAKE BYTE POINTER
  1875	002210'	202 00 0 00 000102'		MOVEM	XXXPTR
  1876
  1877	002211'	260 17 0 00 002277'		GO	FTOKEN		;PROCESS FILE NAME
  1878
  1879	002212'	262 17 0 00 000102'		GETIT	XXXPTR
  1880	002213'	262 17 0 00 000004 		GETIT	T2
  1881	002214'	263 17 0 00 000000 		RTN
  1882
  1883	002215'	336 00 0 07 000005 	EXTSUP:	SKIPN .FDEXT(P1)	;ANY DEFAULT EXT ?
  1884	002216'	254 00 0 00 002154'		JRST	FILI.3
  1885	002217'	603 14 0 00 400000 		TLNE	F,(CM%ESC)	;ESCAPE TERMINATE FIELD ?
  1886	002220'	037 01 0 00 000056 		PNTCIF	"."
  1887	002221'	260 17 0 00 002223'		GO	EXTSP1		;PROCESS DEFAULT
  1888	002222'	254 00 0 00 002153'		JRST	FILI.3-1
  1889
  1890	002223'	550 00 0 07 000005 	EXTSP1:	HRRZ	.FDEXT(P1)	;GET DEFAULT POINTER
  1891	002224'	603 14 0 00 400000 		TLNE	F,(CM%ESC)	;ESCAPE TERMINATE FIELD ?
  1892	002225'	037 17 0 00 000001 		PNTALF			;PRINT IT
  1893
  1894	002226'	261 17 0 00 000004 		PUT	T2
  1895	002227'	261 17 0 00 000102'		PUT	XXXPTR
  1896	002230'	550 00 0 07 000005 		HRRZ	.FDEXT(P1)
  1897	002231'	505 00 0 00 440700 		HRLI	440700		;MAKE BYTE POINTER
  1898	002232'	202 00 0 00 000102'		MOVEM	XXXPTR
  1899
  1900	002233'	260 17 0 00 002277'		GO	FTOKEN		;PROCESS FILE EXT
  1901
  1902	002234'	262 17 0 00 000102'		GETIT	XXXPTR
  1903	002235'	262 17 0 00 000004 		GETIT	T2
  1904	002236'	263 17 0 00 000000 		RTN
GSCN  --  Command Scanner Interface for DIAGNOSTICS	MACRO %53(1020) 10:54 19-Feb-79 Page 56
GSCN	MAC	22-May-78 10:53		S%CMND  --  Scan a command                                                         SEQ 0351

  1905
  1906	002237'	336 00 0 07 000002 	DEVSP1:	SKIPN	.FDSTR(P1)	;ANY DEFAULT SUPPLIED ?
  1907	002240'	263 17 0 00 000000 		RTN			;NO
  1908
  1909	002241'	261 17 0 00 000004 		PUT	T2
  1910	002242'	261 17 0 00 000102'		PUT	XXXPTR
  1911
  1912	002243'	550 00 0 07 000002 		HRRZ	.FDSTR(P1)
  1913	002244'	603 14 0 00 400000 		TLNE	F,(CM%ESC)	;ESCAPE TERMINATE FIELD ?
  1914	002245'	037 17 0 00 000001 		PNTALF			;PRINT IT
  1915
  1916	002246'	550 00 0 07 000002 		HRRZ	.FDSTR(P1)
  1917	002247'	505 00 0 00 440700 		HRLI	440700
  1918	002250'	202 00 0 00 000102'		MOVEM	XXXPTR
  1919	002251'	260 17 0 00 002277'		GO	FTOKEN		;PROCESS DEFAULT
  1920	002252'	202 03 0 07 000002 		STORE	T1,.FDSTR(P1)
  1921
  1922	002253'	262 17 0 00 000102'		GETIT	XXXPTR
  1923	002254'	262 17 0 00 000004 		GETIT	T2
  1924	002255'	263 17 0 00 000000 		RTN
GSCN  --  Command Scanner Interface for DIAGNOSTICS	MACRO %53(1020) 10:54 19-Feb-79 Page 57
GSCN	MAC	22-May-78 10:53		S%CMND  --  Scan a command                                                         SEQ 0352

  1925
  1926	002256'	336 00 0 07 000003 	PPNSP1:	SKIPN	.FDPPN(P1)	;ANY DEFAULT SUPPLIED ?
  1927	002257'	263 17 0 00 000000 		RTN			;NO
  1928
  1929	002260'	261 17 0 00 000003 		PUT	T1
  1930	002261'	261 17 0 00 000004 		PUT	T2
  1931
  1932	002262'	550 00 0 07 000003 		HRRZ	.FDPPN(P1)
  1933	002263'	603 14 0 00 400000 		TLNE	F,(CM%ESC)	;ESCAPE TERMINATE FIELD ?
  1934	002264'	037 17 0 00 000001 		PNTALF			;PRINT IT
  1935
  1936	002265'	550 00 0 07 000003 		HRRZ	.FDPPN(P1)
  1937	002266'	505 00 0 00 440700 		HRLI	440700
  1938	002267'	202 00 0 00 000004 		MOVEM	 T2
  1939
  1940	002270'	260 17 0 00 002405'		GO	PPNIN		;PROCESS PPN
  1941	002271'	260 17 0 00 003773'		$STOP(DPP,DEFAULT PPN ERROR)
  1942
  1943	002273'	202 04 0 07 000003 		STORE	T2,.FDPPN(P1)
  1944
  1945	002274'	262 17 0 00 000004 		GETIT	T2
  1946	002275'	262 17 0 00 000003 		GETIT	T1
  1947	002276'	263 17 0 00 000000 		RTN
GSCN  --  Command Scanner Interface for DIAGNOSTICS	MACRO %53(1020) 10:54 19-Feb-79 Page 58
GSCN	MAC	22-May-78 10:53		S%CMND  --  Scan a command                                                         SEQ 0353

  1948
  1949	002277'	402 00 0 00 000003 	FTOKEN:	SETZM	T1		;CLEAR RESULT
  1950	002300'	200 05 0 00 004625'		MOVE	T3,[POINT 6,T1]	;AND POINT TO STORAGE AREA
  1951
  1952	002301'	134 04 0 00 000102'	FTOK.1:	ILDB	T2,XXXPTR	;GET A BYTE
  1953	002302'	260 17 0 00 002315'		PUSHJ	P,C7TO6		;CONVERT TO SIXBIT
  1954	002303'	307 04 0 00 000072 		CAIG	T2,'Z'		;IS IT IN RANGE?
  1955	002304'	305 04 0 00 000020 		CAIGE	T2,'0'		;
  1956	002305'	263 17 0 00 000000 		POPJ	P,0		;NO
  1957	002306'	303 04 0 00 000031 		CAILE	T2,'9'		;
  1958	002307'	301 04 0 00 000041 		CAIL	T2,'A'		;
  1959	002310'	334 00 0 00 000000 		SKIPA
  1960	002311'	263 17 0 00 000000 		POPJ	P,0
  1961	002312'	603 05 0 00 770000 		TXNE	T3,<INSVL.(77,BP.POS)> ;IS THERE ROOM?
  1962	002313'	136 04 0 00 000005 		IDPB	T2,T3		;YES,STORE IT
  1963	002314'	254 00 0 00 002301'		JRST	FTOK.1		;TRY ANOTHER
  1964
  1965	002315'	301 04 0 00 000141 	C7TO6:	CAIL	T2,"a"		;IS IT LC?
  1966	002316'	275 04 0 00 000040 		SUBI	T2,40		;YES
  1967	002317'	275 04 0 00 000040 		SUBI	T2," "		;CONVERT TO SIXBIT
  1968	002320'	405 04 0 00 000077 		ANDI	T2,77		;MASK IT AND
  1969	002321'	263 17 0 00 000000 		POPJ	P,		;RETURN
GSCN  --  Command Scanner Interface for DIAGNOSTICS	MACRO %53(1020) 10:54 19-Feb-79 Page 59
GSCN	MAC	22-May-78 10:53		S%CMND  --  Scan a command                                                         SEQ 0354

  1970
  1971					;FILESPEC HELP
  1972
  1973					CMFHLP:	JXO	F,CMINDF,[HRROI	T1,[ASCIZ / filespec of indirect file/]
  1974	002322'	640 14 0 00 001000 			JRST	CMFH1]	;SPECIAL HELP IF INDIRECT FILESPEC
  1975	002323'	646 14 0 00 001000
  1976	002324'	254 00 0 00 004634'
  1977	002325'	260 17 0 00 001152'		PUSHJ	P,DOHLP		;DO USER MESSAGE
  1978	002326'	607 14 0 00 000001 		JXN	F,CM%SDH,CMRTYP	;SUPPRESS DEFAULT HELP IF REQUESTED
  1979	002327'	334 00 0 00 000000
  1980	002330'	254 00 0 00 000450'
  1981					;	LOAD	T2,.CMFNP(P1),CM%FNC	;GET FUNCTION CODE
  1982					;	CAXE	T2,.CMIFI		;INPUT FILE?
  1983	002331'	550 04 0 10 000011 		LOAD	T2,.CMGJB(P2),CM%GJB ;GET ADDR OF FD
  1984	002332'	200 04 0 04 000000 		MOVE	T2,(T2)
  1985	002333'	607 04 0 00 100000 		TLNN	T2,(GJ%OLD)
  1986	002334'	334 03 0 00 004642'		SKIPA	T1,[-1,,[ASCIZ / output filespec/]] ;NO, OUTPUT
  1987	002335'	561 03 0 00 004643'		HRROI	T1,[ASCIZ \ input filespec\]	;YES,INPUT
  1988	002336'	260 17 0 00 001175'	CMFH1:	PUSHJ	P,CMSOUT
  1989	002337'	254 00 0 00 000450'		JRST	CMRTYP
  1990
  1991					;TOKEN - ARBITRARY SYMBOL AS SPECIFIED BY FN DATA
  1992
  1993	002340'	200 15 0 00 000061'	XCMTOK:	MOVE	Q1,FNARG	;GET STRING ADDRESS
  1994	002341'	134 16 0 00 000015 	CMTOK1:	ILDB	Q2,Q1		;GET NEXT CHAR IN STRING
  1995						JUMPE	Q2,[PUSHJ P,TIELCH	;SUCCESS IF END OF STRING
  1996	002342'	322 16 0 00 004647'			JRST	XCOMXI]
  1997	002343'	260 17 0 00 000765'	CMTOK2:	PUSHJ	P,CMCIN		;GET NEXT CHAR OF INPUT
  1998	002344'	316 03 0 00 000016 		CAMN	T1,Q2		;MATCH?
  1999						JRST	[PUSHJ	P,STOLCH	;YES, APPEND TO ATOM BUFFER
  2000	002345'	254 00 0 00 004651'			JRST	CMTOK1]		;CONTINUE
  2001	002346'	302 03 0 00 000006 		CAIE	T1,CMFREC	;RECOG REQUEST?
  2002	002347'	306 03 0 00 000033 		CAIN	T1,.CHESC
  2003						JRST	[PUSHJ	P,CMAMB		;YES, CAN'T
  2004	002350'	254 00 0 00 004653'			JRST	CMTOK2]
  2005	002351'	306 03 0 00 000077 		CAIN	T1,CMHLPC	;HELP REQUEST?
  2006						JRST	[PUSHJ	P,DOHLP		;YES
  2007							JXN	F,CM%SDH,CMRTYP
  2008							MOVEI	T1,""""		;TYPE "token"
  2009							PUSHJ	P,CMCOUT
  2010							MOVE	T1,FNARG
  2011							PUSHJ	P,CMUSOU
  2012							MOVEI	T1,""""
  2013							PUSHJ	P,CMCOUT
  2014	002352'	254 00 0 00 004655'			JRST	CMRTYP]
  2015	002353'	200 03 0 00 004674'		NOPARS	(NPXNMT,INVALID TOKEN FOUND)	;NO MATCH OF TOKEN
  2016	002354'	254 00 0 00 000435'
GSCN  --  Command Scanner Interface for DIAGNOSTICS	MACRO %53(1020) 10:54 19-Feb-79 Page 60
GSCN	MAC	22-May-78 10:53		S%CMND  --  Scan a command                                                         SEQ 0355

  2017					; PPN (EITHER DIRECTORY OR USER NAME FUNCTION)
  2018
  2019
  2020	002355'	777777	777760		PPNBRK:	777777,,777760
  2021	002356'	777734	007537			777734,,007537
  2022	002357'	777777	777277			777777,,777277
  2023	002360'	777777	777760			777777,,777760
  2024
  2025	002361'				XCMDIR:
  2026	002361'				XCMUSR:				;EQUIVALENT
  2027	002361'	201 03 0 00 002355'		MOVEI	T1,PPNBRK	;GET PROPER BREAK SET
  2028	002362'	260 17 0 00 000615'		PUSHJ	P,CMRFLD	;GET FIELD
  2029	002363'	602 14 0 00 400000 		TXNE	F,CMQUES	;HELP?
  2030	002364'	254 00 0 00 002376'		JRST	CMDIRH		;YES
  2031	002365'	603 14 0 00 400000 		TXNE	F,CM%ESC	;RECOGNITION WANTED?
  2032						JRST	[ PUSHJ P,CMAMB ;YES, ALWAYS AMBIGOUS
  2033	002366'	254 00 0 00 004675'			  JRST XCMUSR ]
  2034	002367'	200 04 0 10 000007 		MOVE	T2,.CMABP(P2)	;PTR TO TYPEIN
  2035	002370'	260 17 0 00 002405'		PUSHJ	P,PPNIN		;PARSE PPN
  2036	002371'	254 00 0 00 000436'		  JRST	XCOMNP		;ILLEGAL SYNTAX
  2037	002372'	202 04 0 00 000104'		MOVEM	T2,CRBLK+CR.RES		;STORE RESULT
  2038	002373'	312 03 0 00 000056'		CAME	T1,ATBPTR	;CHECK THAT WE SAW WHOLE FIELD
  2039	002374'	254 00 0 00 000436'		JRST	XCOMNP		;IF NOT, PARSE FAILURE
  2040	002375'	254 00 0 00 000410'		JRST	XCOMXI		;DONE NOW
GSCN  --  Command Scanner Interface for DIAGNOSTICS	MACRO %53(1020) 10:54 19-Feb-79 Page 61
GSCN	MAC	22-May-78 10:53		S%CMND  --  Scan a command                                                         SEQ 0356

  2041
  2042					;DIRECTORY/USER HELP
  2043
  2044	002376'	260 17 0 00 001152'	CMDIRH:	PUSHJ	P,DOHLP		;DO USER HELP
  2045	002377'	607 14 0 00 000001 		JXN	F,CM%SDH,CMRTYP	;SUPPRESS DEFAULT HELP IF REQUESTED TO
  2046	002400'	334 00 0 00 000000
  2047	002401'	254 00 0 00 000450'
  2048	002402'	561 03 0 00 004677'		HRROI	T1,[ASCIZ / Project-Programmer number/]
  2049	002403'	260 17 0 00 001175'		PUSHJ	P,CMSOUT
  2050	002404'	254 00 0 00 000450'		JRST	CMRTYP		;RETYPE AND CONTINUE
  2051
  2052
  2053	002405'	260 17 0 00 003617'	PPNIN:	PUSHJ	P,.SAVE1	;SAVE A REG
  2054	002406'	134 01 0 00 000004 		ILDB	S1,T2		;GET FIRST BYTE
  2055	002407'	306 01 0 00 000040 		CAIN	S1," "		;SKIP LEADING BLANKS
  2056	002410'	254 00 0 00 002405'		JRST	PPNIN		;
  2057	002411'	302 01 0 00 000074 		CAIE	S1,74		;BETTER BE A BRACKET OF SOME
  2058	002412'	306 01 0 00 000133 		CAIN	S1,"["		;KIND
  2059	002413'	334 00 0 00 000000 		SKIPA			;IT IS
  2060	002414'	263 17 0 00 000000 		POPJ	P,		;IT IS NOT, FAIL NOW
  2061	002415'	200 03 0 00 000004 		MOVE	T1,T2		;COPY BP
  2062	002416'	201 05 0 00 000010 		MOVEI	T3,^D8		;AND MAKE IT OCTAL
  2063	002417'	260 17 0 00 001714'		PUSHJ	P,NUMIN		;PARSE PROJECT NUMBER
  2064	002420'	263 17 0 00 000000 		  POPJ	P,		;IF IT FAILS, GIVE UP NOW
  2065	002421'	135 01 0 00 000003 		LDB	S1,T1		;GET TERMINATOR BYTE
  2066	002422'	302 01 0 00 000054 		CAIE	S1,","		;BETTER BE A COMMA
  2067	002423'	263 17 0 00 000000 		POPJ	P,		;NOT, GIVE UP NOW
  2068	002424'	514 07 0 00 000004 		HRLZ	P1,T2		;REMEMBER PROJECT NR.
  2069	002425'	260 17 0 00 001714'		PUSHJ	P,NUMIN		;GET 2ND HALF (PROGRAMMER NR.)
  2070	002426'	263 17 0 00 000000 		  POPJ	P,		;PASS ON FAILURE
  2071	002427'	500 04 0 00 000007 		HLL	T2,P1		;ASSEMBLE PPN
  2072	002430'	135 01 0 00 000003 		LDB	S1,T1		;GET TERMINATOR
  2073	002431'	302 01 0 00 000135 		CAIE	S1,"]"		;AND CHECK IT
  2074	002432'	306 01 0 00 000076 		CAIN	S1,76		;FOR BRACKET
  2075	002433'	254 00 0 00 004220'		RETSKP			;ALL IS OK
  2076	002434'	263 17 0 00 000000 		POPJ	P,		;OR FAIL
GSCN  --  Command Scanner Interface for DIAGNOSTICS	MACRO %53(1020) 10:54 19-Feb-79 Page 62
GSCN	MAC	22-May-78 10:53		S%CMND  --  Scan a command                                                         SEQ 0357

  2077
  2078					;COMMA, ARBITRARY CHARACTER
  2079
  2080	002435'	201 03 0 00 000054 	XCMCMA:	MOVEI	T1,","		;SETUP COMMA AS CHARACTER TO FIND
  2081	002436'	202 03 0 00 000061'		MOVEM	T1,FNARG
  2082	002437'	260 17 0 00 000765'	CMCHR:	PUSHJ	P,CMCIN		;GET A CHAR
  2083	002440'	302 03 0 00 000011 		CAIE	T1,.CHTAB	;BLANK?
  2084	002441'	306 03 0 00 000040 		CAIN	T1," "
  2085	002442'	254 00 0 00 002437'		JRST	CMCHR		;YES, IGNORE
  2086	002443'	550 04 0 00 000061'		HRRZ	T2,FNARG	;GET SPECIFIED CHAR
  2087	002444'	316 03 0 00 000004 		CAMN	T1,T2		;THE RIGHT ONE?
  2088	002445'	254 00 0 00 000410'		JRST	XCOMXI		;YES, WIN
  2089	002446'	302 03 0 00 000006 		CAIE	T1,CMFREC	;^F?
  2090	002447'	306 03 0 00 000033 		CAIN	T1,.CHESC	;ESC?
  2091						JRST	[PUSHJ	P,CMAMB		;YES, DING
  2092	002450'	254 00 0 00 004705'			JRST	CMCHR]		;TRY AGAIN
  2093	002451'	306 03 0 00 000077 		CAIN	T1,CMHLPC	;HELP?
  2094						JRST	[PUSHJ	P,DOHLP
  2095							JXN	F,CM%SDH,CMRTYP ;JUMP IF SUPPRESSING HELP
  2096							MOVEI	T1,""""		;TYPE "char"
  2097							PUSHJ	P,CMCOUT
  2098							HRRZ	T1,FNARG
  2099							PUSHJ	P,CMCOUT
  2100							MOVEI	T1,""""
  2101							PUSHJ	P,CMCOUT
  2102	002452'	254 00 0 00 004707'			JRST	CMRTYP]
  2103	002453'	200 03 0 00 004726'		NOPARS	(NPXCMA,COMMA WAS EXPECTED)	;FAIL
  2104	002454'	254 00 0 00 000435'
GSCN  --  Command Scanner Interface for DIAGNOSTICS	MACRO %53(1020) 10:54 19-Feb-79 Page 63
GSCN	MAC	22-May-78 10:53		S%CMND  --  Scan a command                                                         SEQ 0358

  2105
  2106					;LOCAL ROUTINE TO SETUP BYTE PTR TO TABLE STRING AND GET FLAGS
  2107					; T2/ ADDRESS OF STRING
  2108					;	PUSHJ	P,CHKTBS
  2109					; T1/ FLAGS
  2110					; T2/ BYTE POINTER TO STRING
  2111
  2112	002455'	505 04 0 00 440700 	CHKTBS:	HRLI	T2,(POINT 7)	;SETUP P AND S FIELDS
  2113	002456'	332 03 0 04 000000 		SKIPE	T1,0(T2)	;CHECK FIRST WORD OF STRING
  2114	002457'	603 03 0 00 774000 		TXNE	T1,177B6	;FIRST CHAR 0 AND WORD NOT ALL-0?
  2115	002460'	634 03 0 00 000003 		TDZA	T1,T1		;NO, MAKE FLAGS ALL 0
  2116	002461'	350 00 0 00 000004 		AOS	T2		;YES, HAVE FLAGS, ADJUST BYTE PTR
  2117	002462'	263 17 0 00 000000 		POPJ	P,0
GSCN  --  Command Scanner Interface for DIAGNOSTICS	MACRO %53(1020) 10:54 19-Feb-79 Page 64
GSCN	MAC	22-May-78 10:53		S%SCMP  --  String Comparison Routine                                              SEQ 0359

  2118					SUBTTL S%SCMP  --  String Comparison Routine
  2119
  2120					;CALL IS:	 S1/ TEST STRING POINTER
  2121					;		 S2/ BASE STRING POINTER
  2122					;TRUE RETURN:	  S1/ COMPARE CODE:
  2123					;	1B0 (SC%LSS) - TEST STRING LESS THAN BASE STRING
  2124					;	1B1 (SC%SUB) - TEST STRING SUBSET OF BASE STRING
  2125					;	1B2 (SC%GTR) - TEST STRING GREATER THAN BASE STRING
  2126					;	N.O.T.A. MEANS EXACT MATCH
  2127					;		S2/ UPDATED BASE STRING POINTER, USEFUL IN CASE TEST STRING
  2128					;	WAS SUBSET
  2129
  2130	002463'	260 17 0 00 003665'	S%SCMP:	PUSHJ	P,.SAVET		;SAVE T REGS
  2131	002464'	120 03 0 00 000001 		DMOVE	T1,S1			;COPY ARGUMENTS
  2132	002465'	554 05 0 00 000003 		HLRZ	T3,T1
  2133	002466'	306 05 0 00 777777 		CAIN	T3,-1
  2134	002467'	505 03 0 00 440700 		HRLI	T1,(POINT 7)
  2135	002470'	554 05 0 00 000004 		HLRZ	T3,T2
  2136	002471'	306 05 0 00 777777 		CAIN	T3,-1
  2137	002472'	505 04 0 00 440700 		HRLI	T2,(POINT 7)
  2138	002473'	260 17 0 00 002476'		PUSHJ	P,USTCMP	;DO THE WORK
  2139	002474'	120 01 0 00 000003 		DMOVE	S1,T1			;PUT THE ARGUMENTS BACK
  2140	002475'	254 00 0 00 003747'		$RETT
GSCN  --  Command Scanner Interface for DIAGNOSTICS	MACRO %53(1020) 10:54 19-Feb-79 Page 65
GSCN	MAC	22-May-78 10:53		S%SCMP  --  String Comparison Routine                                              SEQ 0360

  2141					;STRING COMPARE ROUTINE - REFERENCES PREVIOUS CONTEXT.
  2142					; T1/ TEST STRING POINTER
  2143					; T2/ BASE STRING POINTER
  2144					;	PUSHJ	P,USTCMP
  2145					;RETURN AS FOR .STCMP
  2146
  2147	002476'	134 05 0 00 000003 	USTCMP::ILDB	T3,T1		;GET NEXT BYTE FROM EACH STRING
  2148	002477'	301 05 0 00 000141 		CAIL	T3,"A"+40	;LC LETTER?
  2149						JRST	[CAIG	T3,"Z"+40
  2150							SUBI	T3,40		;YES, CONVERT TO UC
  2151	002500'	254 00 0 00 004727'			JRST	.+1]
  2152	002501'	134 06 0 00 000004 		ILDB	T4,T2
  2153	002502'	301 06 0 00 000141 		CAIL	T4,"A"+40	;LC LETTER?
  2154						JRST	[CAIG	T4,"Z"+40
  2155							SUBI	T4,40		;YES, CONVERT TO UC
  2156	002503'	254 00 0 00 004732'			JRST	.+1]
  2157	002504'	312 05 0 00 000006 		CAME	T3,T4		;STILL EQUAL?
  2158	002505'	254 00 0 00 002511'		JRST	STRC2		;NO, GO SEE WHY
  2159	002506'	326 05 0 00 002476'		JUMPN	T3,USTCMP	;KEEP GOING IF NOT END OF STRING
  2160	002507'	400 03 0 00 000000 		SETZ	T1,		;STRINGS ENDED TOGETHER, EXACT MATCH.
  2161	002510'	263 17 0 00 000000 		POPJ	P,0		;RETURN 0
  2162
  2163	002511'				STRC2:	JUMPE	T3,[MOVX T1,SC%SUB 	;TEST STRING ENDED, IS A SUBSET
  2164							ADD	T2,[7B5] 	;DECREMENT BASE POINTER ONE BYTE
  2165	002511'	322 05 0 00 004736'			POPJ	P,0]
  2166	002512'	317 05 0 00 000006 		CAMG	T3,T4		;STRINGS UNEQUAL
  2167	002513'	334 03 0 00 004741'		SKIPA	T1,[SC%LSS]	;TEST STRING LESS
  2168	002514'	205 03 0 00 100000 		MOVX	T1,SC%GTR	;TEST STRING GREATER
  2169	002515'	263 17 0 00 000000 		POPJ	P,0
GSCN  --  Command Scanner Interface for DIAGNOSTICS	MACRO %53(1020) 10:54 19-Feb-79 Page 66
GSCN	MAC	22-May-78 10:53		S%TBLK  --  Table lookup routine                                                   SEQ 0361

  2170					SUBTTL S%TBLK  --  Table lookup routine
  2171
  2172
  2173					;CALL IS:	S1/ ADDRESS OF TABLE HEADER WORD
  2174					;		S2/ STRING POINTER TO STRING TO BE FOUND
  2175					;
  2176					;TRUE RETURN:	 S1/ ADDRESS OF ENTRY WHICH MATCHED OR WHERE ENTRY WOULD BE
  2177					;		IF IT WERE IN TABLE
  2178					;		  S2/ RECOGNITION CODE:
  2179					;	1B0 (TL%NOM) - NO MATCH
  2180					;	1B1 (TL%AMB) - AMBIGUOUS
  2181					;	1B2 (TL%ABR) - UNIQUE ABBREVIATION
  2182					;	1B3 (TL%EXM) - EXACT MATCH
  2183
  2184	002516'	260 17 0 00 003665'	S%TBLK:	PUSHJ	P,.SAVET		;SAVE SOME REGISTERS
  2185	002517'	120 03 0 00 000001 		DMOVE	T1,S1			;COPY INPUT ARGUMENTS
  2186	002520'	260 17 0 00 002525'		PUSHJ	P,XTLOK0		;DO THE WORK
  2187	002521'	120 01 0 00 000003 		DMOVE	S1,T1			;RE-COPY ARGUMENTS
  2188	002522'	254 00 0 00 003747'		$RETT				;AND RETURN
GSCN  --  Command Scanner Interface for DIAGNOSTICS	MACRO %53(1020) 10:54 19-Feb-79 Page 67
GSCN	MAC	22-May-78 10:53		S%TBLK  --  Table lookup routine                                                   SEQ 0362

  2189					;WORKER ROUTINE - MAY BE CALLED INTERNALLY.
  2190					; RETURNS +1 SUCCESS, ACS AS ABOVE
  2191
  2192					;INTERNAL AC USAGE:
  2193					; T1/ TEST STRING FROM CALL
  2194					; T2/ STRING FROM TABLE
  2195					; T3/ CLOBBERED BY USTCMP
  2196					; T4/ " "
  2197					; P1/ CURRENT TABLE INDEX
  2198					; P2/ ADDRESS OF TABLE INDEXED BY P1 - USED FOR INDIRECTION
  2199					; P3/ INDEX INCREMENT FOR LOG SEARCH
  2200					; P4/ SIZE OF TABLE
  2201
  2202	002523'	260 17 0 00 003647'	XTLOOK::	PUSHJ	P,.SAVE4	;PRESERVE ACS
  2203	002524'	260 17 0 00 003703'		SAVE	P5
  2204	002525'	554 05 0 00 000004 	XTLOK0:	HLRZ	T3,T2		;CHECK STRING POINTER
  2205	002526'	302 05 0 00 777777 		CAIE	T3,-1		;LH 0 OR -1?
  2206	002527'	306 05 0 00 000000 		CAIN	T3,0
  2207	002530'	505 04 0 00 440700 		HRLI	T2,(POINT 7)	;YES, FILL IN
  2208	002531'	202 04 0 00 000100'		MOVEM	T2,STRG
  2209	002532'	201 10 0 03 000001 		MOVEI	P2,1(T1)	;CONSTRUCT ADDRESS OF FIRST ENTRY
  2210	002533'	505 10 0 00 000007 		HRLI	P2,P1		;MAKE IT INDEXED BY P1
  2211	002534'	554 12 0 03 000000 		HLRZ	P4,0(T1)	;GET PRESENT SIZE
  2212	002535'	200 11 0 00 000012 		MOVE	P3,P4		;INITIAL INCREMENT IS SIZE
  2213	002536'	200 07 0 00 000012 		MOVE	P1,P4		;SET INITIAL INDEX TO SIZE/2
  2214	002537'	240 07 0 00 777777 		ASH	P1,-1
  2215	002540'	322 12 0 00 002556'		JUMPE	P4,TABLKX	;IF TABLE EMPTY THEN NO MATCH
  2216	002541'	554 04 1 00 000010 	TABLK0:	HLRZ	T2,@P2		;GET STRING ADR FROM TABLE
  2217	002542'	260 17 0 00 002455'		PUSHJ	P,CHKTBS	;CONSTRUCT POINTER
  2218	002543'	200 03 0 00 000100'		MOVE	T1,STRG		;GET TEST STRING
  2219	002544'	260 17 0 00 002476'		PUSHJ	P,USTCMP	;COMPARE
  2220	002545'	326 03 0 00 002561'		JUMPN	T1,TABLK1	;JUMP IF NOT EXACTLY EQUAL
  2221	002546'	554 04 1 00 000010 	TABLKF:	HLRZ	T2,@P2		;GET STRING ADDRESS
  2222	002547'	260 17 0 00 002455'		PUSHJ	P,CHKTBS	;GET FLAGS
  2223	002550'	606 03 0 00 000002 		JXN	T1,CM%NOR,TABLKM ;MAKE IT AMBIG IF NOREC ENTRY
  2224	002551'	334 00 0 00 000000
  2225	002552'	254 00 0 00 002555'
  2226	002553'	205 04 0 00 040000 		MOVX	T2,TL%EXM	;EXACTLY EQUAL, RETURN CODE
  2227	002554'	254 00 0 00 002557'		JRST	TABLKA
  2228
  2229	002555'	334 04 0 00 004742'	TABLKM:	SKIPA	T2,[TL%AMB]	;AMBIGUOUS RETURN
  2230	002556'	205 04 0 00 400000 	TABLKX:	MOVX	T2,TL%NOM	;NO MATCH RETURN
  2231	002557'	201 03 1 00 000010 	TABLKA:	MOVEI	T1,@P2		;RETURN ADR WHERE ENTRY IS OR SHOULD BE
  2232	002560'	263 17 0 00 000000 		POPJ	P,
GSCN  --  Command Scanner Interface for DIAGNOSTICS	MACRO %53(1020) 10:54 19-Feb-79 Page 68
GSCN	MAC	22-May-78 10:53		S%TBLK  --  Table lookup routine                                                   SEQ 0363

  2233
  2234					;STRING MAY BE UNEQUAL OR A SUBSET, SEE WHICH
  2235
  2236	002561'	603 03 0 00 200000 	TABLK1:	JXE	T1,SC%SUB,TABLKN ;UNEQUAL, GO SETUP NEXT PROBE
  2237	002562'	334 00 0 00 000000
  2238	002563'	254 00 0 00 002623'
  2239	002564'	202 04 0 00 000101'	TABLK3:	MOVEM	T2,REMSTR	;SUBSTRING, SAVE REMAINDER
  2240	002565'	322 07 0 00 002600'		JUMPE	P1,TABLK2	;JUMP IF THIS FIRST ENTRY IN TABLE
  2241	002566'	201 03 1 00 000010 		MOVEI	T1,@P2		;CHECK NEXT HIGHER ENTRY IN TABLE
  2242	002567'	554 04 0 03 777777 		HLRZ	T2,-1(T1)	;GET ITS STRING ADDRESS
  2243	002570'	260 17 0 00 002455'		PUSHJ	P,CHKTBS	;BUILD BYTE PTR
  2244	002571'	200 03 0 00 000100'		MOVE	T1,STRG		;GET TEST STRING
  2245	002572'	260 17 0 00 002476'		PUSHJ	P,USTCMP	;TEST PREVIOUS ENTRY
  2246	002573'	322 03 0 00 004743'		JUMPE	T1,[SOJA P1,TABLKF] ;EXACTLY EQUAL, DONE. FIX INDEX.
  2247	002574'	607 03 0 00 100000 		JXN	T1,SC%GTR,TABLK2 ;IF LESS THEN HAVE FOUND HIGHEST SUBSTR
  2248	002575'	334 00 0 00 000000
  2249	002576'	254 00 0 00 002600'
  2250	002577'	364 07 0 00 002564'		SOJA	P1,TABLK3	;STILL A SUBSTR, CHECK HIGHER
  2251
  2252					;NOW POINT AT HIGHEST ENTRY WHICH IS A SUBSTR.  IF THERE IS AN EXACT
  2253					;MATCH, IT IS BEFORE ALL SUBSETS AND HAS ALREADY BEEN FOUND
  2254
  2255	002600'	201 03 1 00 000010 	TABLK2:	MOVEI	T1,@P2		;CHECK NEXT ENTRY FOR AMBIGUOUS
  2256	002601'	301 07 0 12 777777 		CAIL	P1,-1(P4)	;NOW AT LAST ENTRY IN TABLE?
  2257	002602'	254 00 0 00 002613'		JRST	TBLK2A		;YES, THIS ENTRY IS DISTINCT
  2258	002603'	554 04 0 03 000001 		HLRZ	T2,1(T1)	;GET STRING ADR OF NEXT ENTRY
  2259	002604'	260 17 0 00 002455'		PUSHJ	P,CHKTBS	;BUILD BYTE PTR
  2260	002605'	200 03 0 00 000100'		MOVE	T1,STRG		;GET TEST STRING
  2261	002606'	260 17 0 00 002476'		PUSHJ	P,USTCMP	;COMPARE NEXT LOWER ENTRY
  2262	002607'	322 03 0 00 004752'		JUMPE	T1,[$STOP(BTF,Bad table format)] ;EXACT MATCH,TABLE IS BAD
  2263	002610'	607 03 0 00 200000 		JXN	T1,SC%SUB,TABLKM ;NEXT ENTRY NOT DISTINCT, DO AMBIG RETURN
  2264	002611'	334 00 0 00 000000
  2265	002612'	254 00 0 00 002555'
  2266	002613'	554 04 1 00 000010 	TBLK2A:	HLRZ T2,@P2		;CHECK FLAGS FOR THIS ENTRY
  2267	002614'	260 17 0 00 002455'		PUSHJ	P,CHKTBS
  2268	002615'	606 03 0 00 000002 		JXN	T1,CM%NOR,TABLKM ;FAIL IF NOREC BIT SET
  2269	002616'	334 00 0 00 000000
  2270	002617'	254 00 0 00 002555'
  2271	002620'	205 04 0 00 100000 		MOVX	T2,TL%ABR	;GIVE LEGAL ABBREVIATION RETURN
  2272	002621'	200 05 0 00 000101'		MOVE	T3,REMSTR	;RETURN PTR TO REMAINDER OF STRING
  2273	002622'	254 00 0 00 002557'		JRST	TABLKA
GSCN  --  Command Scanner Interface for DIAGNOSTICS	MACRO %53(1020) 10:54 19-Feb-79 Page 69
GSCN	MAC	22-May-78 10:53		S%TBLK  --  Table lookup routine                                                   SEQ 0364

  2274
  2275					;HERE WHEN PROBE NOT EQUAL
  2276
  2277	002623'	307 11 0 00 000001 	TABLKN:	CAIG	P3,1		;INCREMENT NOW 1?
  2278						JRST	[JXN	T1,SC%LSS,TABLKX ;YES, NO MATCH FOUND
  2279	002624'	254 00 0 00 004754'			AOJA	P1,TABLKX] 	;IF STRING GREATER, BUMP ADR FOR INSERT
  2280	002625'	350 00 0 00 000011 		AOS	P3		;NEXT INC = <INC+1>/2
  2281	002626'	240 11 0 00 777777 		ASH	P3,-1
  2282	002627'	603 03 0 00 100000 		TXNE	T1,SC%GTR	;IF LAST PROBE LOW, ADD INCREMENT
  2283	002630'	270 07 0 00 000011 		ADD	P1,P3
  2284	002631'	603 03 0 00 400000 		TXNE	T1,SC%LSS
  2285	002632'	274 07 0 00 000011 		SUB	P1,P3		;LAST PROBE HIGH, SUBTRACT INCR
  2286	002633'	301 07 0 12 000000 	TBLKN1:	CAIL	P1,0(P4)	;AFTER END OF TABLE?
  2287						JRST	[MOVX	T1,SC%LSS	;YES, FAKE PROBE TOO HIGH
  2288	002634'	254 00 0 00 004760'			JRST	TABLKN]
  2289	002635'	325 07 0 00 002541'		JUMPGE	P1,TABLK0	;IF STILL WITHIN TABLE RANGE, GO PROBE
  2290	002636'	205 03 0 00 100000 		MOVX	T1,SC%GTR	;BEFORE START OF TABLE, FAKE LOW PROBE
  2291	002637'	254 00 0 00 002623'		JRST	TABLKN
  2292
  2293	002640'				SCN%L:				;LABEL THE LITERAL POOL
  2294
  2295					>;;!!!!!NOTE WELL - THIS CONDITIONAL STARTED AT LABEL S%CMND
  2296
GSCN  --  Command Scanner Interface for DIAGNOSTICS	MACRO %53(1020) 10:54 19-Feb-79 Page 1
GKBD	MAC	22-May-78 10:54		KEYBOARD INTERFACE                                                                 SEQ 0365

  2297					SUBTTL	KEYBOARD INTERFACE
  2298
  2299					;This module provides a timesharing terminal interface for the
  2300					;DIAGNOSTIC library.  The interface itself attempts to emulate as
  2301					;far as possible the TEXTI JSYS implemented in the TOPS20 monitor.
  2302
GSCN  --  Command Scanner Interface for DIAGNOSTICS	MACRO %53(1020) 10:54 19-Feb-79 Page 2
GKBD	MAC	22-May-78 10:54		Table of Contents                                                                  SEQ 0366

  2303					SUBTTL Table of Contents
  2304
  2305					;               TABLE OF CONTENTS FOR GLXKBD
  2306					;
  2307					;
  2308					;                        SECTION                                   PAGE
  2309					;    1. Table of Contents.........................................   2
  2310					;    2. Revision History..........................................   3
  2311					;    3. Local Definitions.........................................   5
  2312					;    4. Module Storage............................................   6
  2313					;    5. K%INIT  --  Initialization of the Scanning Module.........   7
  2314					;    6. K%RCOC  --  Read Character Output Control Table...........   8
  2315					;    7. K%WCOC  --  Write Character  Output Control table.........   9
  2316					;    8. K%SUET  --  Set User Escape Table.........................  10
  2317					;    9. K%STYP  --  Set terminal type.............................  11
  2318					;   10. K%TXTI  --  Handle Terminal Input.........................  13
  2319					;   11. TXTL  --  Loop for inputting text.........................  14
  2320					;   12. TTYCHR  --  Here to receive 1 character from the TTY......  16
  2321					;   13. Utilities for text handling...............................  17
  2322					;   14. SPCHK  --  Check for special characters...................  22
  2323					;   15. CCU  --  Handle ^U (Rubout entire line)...................  23
  2324					;   16. CCR  --  Handle ^R (Re-type the line).....................  24
  2325					;   17. CCDEL  --  Handle Rubout (Delete one character)...........  25
  2326					;   18. CCW  --  Handle ^W (Delete back to punctuation character).  26
  2327					;   19. BEGBUF  --  Handle rubouts to beginning of buffer.........  27
  2328					;   20. TYPEBP  --  Type a string according to a byte-pointer.....  27
GSCN  --  Command Scanner Interface for DIAGNOSTICS	MACRO %53(1020) 10:54 19-Feb-79 Page 3
GKBD	MAC	22-May-78 10:54		Revision History                                                                   SEQ 0367

  2329					SUBTTL	Revision History
  2330
  2331
  2332					COMMENT \
  2333
  2334					Edit	GCO	Reason
  2335					----	---	-------------------------------------------
  2336
  2337					0001		Create GLXKBD module
  2338					0002		Fix a number of interrupt race problems and
  2339							start adding ESCape sequence code
  2340					0003	009	Implement a new TEXTI flag to causes 'nothing' to echo.
  2341					0004	010	Make K%STYP set some additional characteristic like LC..
  2342					0005		Allow the source word (.RDIOJ) contain a byte-pointer to
  2343							an ASCIZ string if RD%JFN is off in the flag word (this
  2344							is additional compatibility with the TEXTI JSYS).
  2345					006		TOTALLY HACKED UP FOR DIAGNOSTICS
  2346
  2347					\  ;END OF REVISION HISTORY
GSCN  --  Command Scanner Interface for DIAGNOSTICS	MACRO %53(1020) 10:54 19-Feb-79 Page 4
GKBD	MAC	22-May-78 10:54		Revision History                                                                   SEQ 0368

  2348					; Entry Points found in this module
  2349
  2350						ENTRY	K%INIT			;INITIALIZATION POINT
  2351						ENTRY	K%TXTI			;TEXT INPUT ROUTINE
  2352						ENTRY	K%RCOC			;READ COC TABLE
  2353						ENTRY	K%WCOC			;WRITE COC TABLE
  2354						ENTRY	K%STYP			;SET TERMINAL TYPE
  2355						ENTRY	K%SUET			;SETUP USER ESCAPE TABLE
GSCN  --  Command Scanner Interface for DIAGNOSTICS	MACRO %53(1020) 10:54 19-Feb-79 Page 5
GKBD	MAC	22-May-78 10:54		Local Definitions                                                                  SEQ 0369

  2356					SUBTTL Local Definitions
  2357
  2358					; Special Accumulator definitions
  2359
  2360			000016			C==16				;GLOBAL CHARACTER REGISTER
  2361
  2362					; Special characters
  2363
  2364			000134			.CHBSL=="\"			;BACKSLASH
  2365
  2366					; Control character former
  2367
  2368						DEFINE $C(A)<"A"-100>		;JUST ASCII MINUS LEAD BIT
  2369
GSCN  --  Command Scanner Interface for DIAGNOSTICS	MACRO %53(1020) 10:54 19-Feb-79 Page 6
GKBD	MAC	22-May-78 10:54		Module Storage                                                                     SEQ 0370

  2370					SUBTTL	Module Storage
  2371
  2372
  2373	002640'					$$DATA	TTYFLG			;FLAGS FROM INITIALIZATION BLOCK
  2374					;	$$DATA	RD,.RDSIZ		;INTERNAL ARGUMENT BLOCK
  2375	002641'					$$DATA	COCTAB,2		;CHARACTER OUTPUT CONTROL TABLE
  2376	002643'					$$DATA	TRMPTR			;POINTER TO TERMINAL CONTROL
  2377	002644'					$$DATA	RUBFLG			;-1 WHEN LAST CHAR WAS RUBOUT
  2378	002645'					$$DATA	ARGLOC			;LOCATION OF CALLER'S ARGUMENT BLOCK
  2379	002646'					$$DATA	BCKFLG			;-1 WHEN BACKUP LIMIT HAS BEEN PASSED
  2380	002647'					$$DATA	UESCTB			;ADDRESS OF USER ESCAPE TABLE
  2381	002650'					$$DATA	CURESC			;CURRENT STATE OF ESCAPE SEQ PROCESSOR
  2382	002651'					$$DATA	TRMTYP			;TERMINAL TYPE
  2383					;	$$DATA	TRMUDX			;UDX FOR TERMINAL
  2384	002652'					$$DATA	BGLINE			;POINTER TO BEGINNING OF CURRENT LINE
  2385	002653'					$$DATA	BGBUFR			;MY POINTER TO BEGINNING OF BUFFER
  2386
  2387	002654'	263 17 0 00 000000 	I%ION:	POPJ	P,
  2388	002655'	263 17 0 00 000000 	I%IOFF:	POPJ	P,
GSCN  --  Command Scanner Interface for DIAGNOSTICS	MACRO %53(1020) 10:54 19-Feb-79 Page 7
GKBD	MAC	22-May-78 10:54		K%INIT  --  Initialization of the Scanning Module                                  SEQ 0371

  2389					SUBTTL	K%INIT  --  Initialization of the Scanning Module
  2390
  2391					;K%INIT is called during the intialization phase of the host program via the
  2392					;	I%INIT call.  If command scanning is desired, the controlling terminal
  2393					;	is taken over, etc...
  2394
  2395					;CALL IS:	S1/ Length of the Initialization Block
  2396					;		S2/ Address of the Initialization Block
  2397					;
  2398					;TRUE RETURN:	No arguments are returned
  2399
  2400	002656'				K%INIT:
  2401					IFN FTJSYS,<
  2402						DMOVE	S1,[BYTE (2) 0,1,1,1,1,1,1,2,3,2,2,1,1,2,1,1,1,1
  2403							    BYTE (2) 0,0,0,0,0,0,1,1,1,3,2,2,2,2,0,0,0,0] ;LOAD COCTAB
  2404						PJRST	K%WCOC			;WRITE THE COC AND RETURN
  2405					>  ;END IFN FTJSYS
  2406
  2407					IFN FTUUOS,<
  2408					;	MOVEI	S1,16			;USE CHANNEL 16
  2409					;	IOR	S1,[OPEN [IO.LEM+IO.SUP+IO.TEC+.IOASC ;SET ALL THE FUNNY MODES
  2410					;		    SIXBIT /TTY/	;ON THE CONTROLLING TERMINAL
  2411					;		    XWD  0,0 ]]		;ALLOCATING NO BUFFERS
  2412					;	XCT	S1			;OPEN UP THE TERMINAL FOR SCANNING
  2413						OPEN	16,[IO.LEM+IO.SUP+IO.TEC+.IOASC
  2414							    SIXBIT/TTY/
  2415	002656'	050 16 0 00 004762'			    0]
  2416	002657'	260 17 0 00 003773'		  $STOP(COT,Cannot OPEN terminal)
  2417						DMOVE	S1,[BYTE (2) 0,1,1,1,1,1,1,2,3,2,2,1,1,2,1,1,1,1
  2418	002661'	120 01 0 00 004774'			    BYTE (2) 0,0,0,0,0,0,1,1,1,3,2,2,2,2,0,0,0,0] ;LOAD COCTAB
  2419	002662'	260 17 0 00 002676'		PUSHJ	P,K%WCOC		;WRITE THE TABLE
  2420	002663'	205 01 0 00 646471 		MOVSI	S1,'TTY'		;LOAD TTY NAME
  2421	002664'	047 01 0 00 000127 		IONDX.	S1,			;GET IO INDEX
  2422	002665'	255 00 0 00 000000 		  JFCL				;IGNORE ERROR
  2423	002666'	202 01 0 00 000131'		MOVEM	S1,TRMUDX		;STORE FOR VARIOUS TRMOPS
  2424	002667'	402 00 0 00 002647'		SETZM	UESCTB			;NO ESCAPE SEQUENCES
  2425	002670'	402 00 0 00 002650'		SETZM	CURESC			;CLEAR ESCAPE MACHINE
  2426	002671'	201 01 0 00 000000 		MOVX	S1,.TT33		;ASSUME THIS IS A 33
  2427	002672'	476 00 0 00 002640'		SETOM	TTYFLG			;SET TTY OPENED
  2428	002673'	254 00 0 00 002715'		PJRST	K%STYP			;SET TYPE AND RETURN
  2429					>  ;END IFN FTUUOS
GSCN  --  Command Scanner Interface for DIAGNOSTICS	MACRO %53(1020) 10:54 19-Feb-79 Page 8
GKBD	MAC	22-May-78 10:54		K%RCOC  --  Read Character Output Control Table                                    SEQ 0372

  2430					SUBTTL K%RCOC  --  Read Character Output Control Table
  2431
  2432					;K%RCOC and K%WCOC are used to read/write the control character output
  2433					;	table.  For each character 0-37, there is a 2 bit field indicating
  2434					;	how this character should be echoed.  This two word table then
  2435					;	consists of bit pairs code as:
  2436					;	  00 - Do not echo at all
  2437					;	  01 - Indicate by ^X
  2438					;	  10 - Send the actual ASCII code (I.E. 7 for ^G)
  2439					;	  11 - Simulate the character
  2440
  2441
  2442					;CALL IS:	No arguments
  2443					;
  2444					;TRUE RETURN:	S1/ First word of COC table
  2445					;		S2/ Second word of COC table
  2446
  2447					IFN FTUUOS,<
  2448	002674'	120 01 0 00 002641'	K%RCOC:	DMOVE	S1,COCTAB		;GET TABLE
  2449	002675'	254 00 0 00 003747'		$RETT				;AND RETURN
  2450					>  ;END IFN FTUUOS
  2451
  2452
  2453					IFN FTJSYS,<
  2454					K%RCOC:	PUSH	P,S2+1			;SAVE A 3RD AC
  2455						MOVX	S1,.PRIIN		;LOAD PRINCIPLE INPUT JFN
  2456						RFCOC				;READ THE COC TABLE
  2457						MOVE	S1,S2			;GET FIRST WORD INTO S1
  2458						MOVE	S2,S2+1			;GET SECOND WORD INTO S2
  2459						POP	P,S2+1			;RESTORE THE SAVED AC
  2460						$RETT				;AND RETURN
  2461					>  ;END IFN FTJSYS
GSCN  --  Command Scanner Interface for DIAGNOSTICS	MACRO %53(1020) 10:54 19-Feb-79 Page 9
GKBD	MAC	22-May-78 10:54		K%WCOC  --  Write Character  Output Control table                                  SEQ 0373

  2462					SUBTTL K%WCOC  --  Write Character  Output Control table
  2463
  2464					;See explanation above
  2465
  2466					;CALL IS:	S1/ First word of COC table
  2467					;		S2/ Second word of COC table
  2468					;
  2469					;TRUE RETURN:	Always
  2470
  2471					IFN FTUUOS,<
  2472	002676'	124 01 0 00 002641'	K%WCOC:	DMOVEM	S1,COCTAB		;STORE THE TABLE
  2473	002677'	254 00 0 00 003747'		$RETT				;AND RETURN
  2474					>  ;END IFN FTUUOS
  2475
  2476					IFN FTJSYS,<
  2477					K%WCOC:	PUSH	P,S2+1			;SAVE A 3RD JSYS AC
  2478						MOVE	S2+1,S2			;PUT SECOND WORD IN T1
  2479						MOVE	S2,S1			;PUT FIRST WORD IN S2
  2480						MOVEI	S1,.PRIIN		;GET PRINCIPLE INPUT JFN
  2481						SFCOC				;SET COC TABLE
  2482						POP	P,S2+1			;RESTORE S2+1
  2483						$RETT				;AND RETURN
  2484					>  ;END IFN FTJSYS
GSCN  --  Command Scanner Interface for DIAGNOSTICS	MACRO %53(1020) 10:54 19-Feb-79 Page 10
GKBD	MAC	22-May-78 10:54		K%SUET  --  Set User Escape Table                                                  SEQ 0374

  2485					SUBTTL	K%SUET  --  Set User Escape Table
  2486
  2487					;K%SUET is called to setup the address of the user escape table if the
  2488					;	program wants special action on ESCape sequences.
  2489					;
  2490					;Call:	S1/  address of User Escape Table
  2491					;	      or 0 to clear the UET entry
  2492					;
  2493					;T Ret:	always
  2494
  2495					IFN FTUUOS,<
  2496	002700'	202 01 0 00 002647'	K%SUET:	MOVEM	S1,UESCTB		;SAVE THE ESCAPE TABLE ADDRESS
  2497	002701'	402 00 0 00 002650'		SETZM	CURESC			;CLEAR CURRENT STATE
  2498	002702'	200 01 0 00 002651'		MOVE	S1,TRMTYP		;GET TERMINAL TYPE
  2499	002703'	302 01 0 00 000011 		CAXE	S1,.TTV50		;IS IT A VT50?
  2500	002704'	306 01 0 00 000015 		CAXN	S1,.TTV52		;OR A VT52?
  2501	002705'	334 00 0 00 000000 		SKIPA				;YES, SET IT UP
  2502	002706'	254 00 0 00 003747'		$RETT				;RETURN
  2503
  2504	002707'	051 01 0 00 004776'		OUTCHR	[.CHESC]		;OUTPUT AN ESCAPE
  2505	002710'	201 01 0 00 000075 		MOVEI	S1,"="			;THIS SETS THE MODE
  2506	002711'	336 00 0 00 002647'		SKIPN	UESCTB			;PROGRAM IS CLEARING IT
  2507	002712'	201 01 0 00 000076 		MOVEI	S1,76			;CLEAR IT
  2508	002713'	051 01 0 00 000001 		OUTCHR	S1			;PUT OUT THE CHARACTER
  2509	002714'	254 00 0 00 003747'		$RETT				;AND RETURN
  2510					>  ;END IFN FTUUOS
  2511
  2512					IFN FTJSYS,<
  2513					K%SUET:	HALT .				;NOT IMPLEMENT
  2514					>  ;END IFN FTJSYS
GSCN  --  Command Scanner Interface for DIAGNOSTICS	MACRO %53(1020) 10:54 19-Feb-79 Page 11
GKBD	MAC	22-May-78 10:54		K%STYP  --  Set terminal type                                                      SEQ 0375

  2515					SUBTTL K%STYP  --  Set terminal type
  2516
  2517					;K%STYP is used to give the scanning module knowledge of the terminal type
  2518					;	in use as the command terminal.
  2519
  2520					;CALL IS:	S1/ Terminal type code (See GLXMAC)
  2521					;
  2522					;TRUE RETURN:	Terminal is a known type
  2523					;FALSE RETURN:	The terminal code does not appear in SCN's tables
  2524
  2525
  2526					IFN FTJSYS,<
  2527					K%STYP:	MOVE	S2,S1			;PUT TYPE IN S2
  2528						MOVX	S1,.PRIIN		;LOAD PRINCIPLE INPUT JFN
  2529						STTYP				;SET TERMINAL TYPE
  2530						ERJMP	.RETF			;LOSE IF JSYS DID
  2531						$RETT				;ELSE WIN.
  2532					>  ;END IFN FTJSYS
  2533
  2534					IFN FTUUOS,<
  2535	002715'	260 17 0 00 003647'	K%STYP:	PUSHJ	P,.SAVE4		;SAVE SOME PERM ACS
  2536	002716'	200 07 0 00 000001 		MOVE	P1,S1			;AND COPY INPUT ARGUMENT
  2537	002717'	205 01 0 00 777766 		MOVSI	S1,-TTTABL		;LENGTH OF TABLE
  2538
  2539	002720'	554 02 0 01 002741'	STYP.2:	HLRZ	S2,TTTAB(S1)		;GET A TERMINAL TYPE CODE
  2540	002721'	312 07 0 00 000002 		CAME	P1,S2			;A MATCH?
  2541	002722'	253 01 0 00 002720'		AOBJN	S1,STYP.2		;NO, TRY ALL THE ENTRIES
  2542	002723'	325 01 0 00 003746'		JUMPGE	S1,.RETF		;TAKE FAILURE IF NOT FOUND
  2543
  2544	002724'	200 02 0 01 002753'		MOVE	S2,TTSET(S1)		;GET ADDRESS OF SETUP ROUTINE
  2545	002725'	271 01 0 00 002741'		ADDI	S1,TTTAB		;ADD TABLE ADDRESS TO OFFSET
  2546	002726'	552 01 0 00 002643'		HRRZM	S1,TRMPTR		;STORE POINTER FOR LATER USE
  2547	002727'	202 07 0 00 002651'		MOVEM	P1,TRMTYP		;AND SAVE THE TERMINAL TYPE
  2548	002730'	607 02 0 00 777777 		TLNN	S2,-1			;IS THERE A WIDTH THERE?
  2549	002731'	254 00 0 02 000000 		PJRST	0(S2)			;NO, JUST SET TERMINAL SPECIFIC STUFF
  2550	002732'	200 01 0 00 004777'		MOVE	S1,[3,,P1]		;SETUP AN ARG BLOCK
  2551	002733'	201 07 0 00 002012 		MOVX	P1,.TOWID+.TOSET	;SET WIDTH FUNCTION
  2552	002734'	200 10 0 00 000131'		MOVE	P2,TRMUDX		;GET THE UDX
  2553	002735'	554 11 0 00 000002 		HLRZ	P3,S2			;GET THE WIDTH
  2554	002736'	047 01 0 00 000116 		TRMOP.	S1,			;SET THE WIDTH
  2555	002737'	255 00 0 00 000000 		  JFCL				;IGNORE THE ERROR
  2556	002740'	254 00 0 02 000000 		PJRST	0(S2)			;AND DO TERMINAL SPECIFIC STUFF
  2557
  2558
  2559					;TABLES ARE ON THE FOLLOWING PAGE
  2560					;
  2561					;STILL IN IFN FTUUOS
GSCN  --  Command Scanner Interface for DIAGNOSTICS	MACRO %53(1020) 10:54 19-Feb-79 Page 12
GKBD	MAC	22-May-78 10:54		K%STYP  --  Set terminal type                                                      SEQ 0376

  2562					;FORMAT OF THE TTTAB TABLE IS:
  2563					;	XWD	TERMINAL-TYPE,ADDRESS-OF-CONTROL-TABLE
  2564					;
  2565					;EACH ENTRY IN THE CONTROL TABLE IS THE ADDRESS OF A PARTICULAR
  2566					;	CONTROL SEQUENCE FOR THE TERMINAL.
  2567					;
  2568					;THE SEQUENCES ARE:
  2569			000000			.TCEOL==0			;ERASE TO END-OF-LINE
  2570
  2571	002741'	000000	000000		TTTAB:	.TT33,,0			;MODEL 33 TTY
  2572	002742'	000001	000000			.TT35,,0			;MODEL 35 TTY
  2573	002743'	000002	000000			.TT37,,0			;MODEL 37 TTY
  2574	002744'	000003	000000			.TTEXE,,0			;EXECUPORT
  2575	002745'	000010	005001'			.TTV05,,[[BYTE (7)37,177,177,177]];VT05
  2576	002746'	000011	005003'			.TTV50,,[[BYTE (7).CHESC,"J"]]	;VT50
  2577	002747'	000012	000000			.TTL30,,0			;LA30
  2578	002750'	000014	000000			.TTL36,,0			;LA36
  2579	002751'	000015	005003'			.TTV52,,[[BYTE (7) .CHESC,"J"]]	;VT52
  2580	002752'	000015	005003'			.TTV52,,[[BYTE (7) .CHESC,"J"]]	;AND ONE FOR PATCHING
  2581			000012			  TTTABL==.-TTTAB
  2582
  2583
  2584					;FORMAT OF TABLE IS WIDTH,,ADR OF SETUP ROUTINE
  2585					;    IF WIDTH IS 0, IT ISN'T SET
  2586					;	***MUST BE PARALLEL TO TTTAB***
  2587
  2588	002753'	000110	003747'		TTSET:	XWD	^D72,.RETT		;MODEL 33 TTY
  2589	002754'	000110	003747'			XWD	^D72,.RETT		;MODEL 35 TTY
  2590	002755'	000110	003747'			XWD	^D72,.RETT		;MODEL 37 TTY
  2591	002756'	000110	003747'			XWD	^D72,.RETT		;EXECUPORT
  2592	002757'	000110	003747'			XWD	^D72,.RETT		;VT05
  2593	002760'	000120	002765'			XWD	^D80,SETVT5		;VT50
  2594	002761'	000110	003747'			XWD	^D72,.RETT		;LA30
  2595	002762'	000000	003747'			XWD	^D00,.RETT		;LA36
  2596	002763'	000120	002765'			XWD	^D80,SETVT5		;VT52
  2597	002764'	000120	002765'			XWD	^D80,SETVT5		;PATCH SPACE
  2598
  2599
  2600					;TERMINAL SETUP ROUTINES
  2601	002765'	051 01 0 00 004776'	SETVT5:	OUTCHR	[.CHESC]		;PUT OUT AN ESCAPE
  2602	002766'	201 01 0 00 000075 		MOVEI	S1,"="			;TO SET ALTERNATE MODE
  2603	002767'	336 00 0 00 002647'		SKIPN	UESCTB			;DID PROGRAM SET IT
  2604	002770'	201 01 0 00 000076 		MOVEI	S1,76			;NOPE.
  2605	002771'	051 01 0 00 000001 		OUTCHR	S1			;PUT IT OUT
  2606	002772'	200 01 0 00 004777'		MOVE	S1,[3,,P1]		;GET TRMOP ARG POINTER
  2607	002773'	201 07 0 00 002003 		MOVX	P1,.TOLCT+.TOSET	;SET TT LC
  2608	002774'	200 10 0 00 000131'		MOVE	P2,TRMUDX		;GET THE UDX
  2609	002775'	400 11 0 00 000000 		SETZ	P3,			;SET A FLAG?
  2610	002776'	047 01 0 00 000116 		TRMOP.	S1,			;DO THE TRMOP
  2611	002777'	255 00 0 00 000000 		  JFCL				;IGNORE ERROR
  2612	003000'	254 00 0 00 003747'		$RETT				;AND RETURN
  2613					>  ;END IFN FTUUOS
GSCN  --  Command Scanner Interface for DIAGNOSTICS	MACRO %53(1020) 10:54 19-Feb-79 Page 13
GKBD	MAC	22-May-78 10:54		K%TXTI  --  Handle Terminal Input                                                  SEQ 0377

  2614					SUBTTL K%TXTI  --  Handle Terminal Input
  2615
  2616					;This routine is used to do input from the controlling terminal.  It
  2617					;	acts much like the TOPS-20 JSYS TEXTI.
  2618
  2619					;CALL IS:	S1/ Address of a TEXTI format argument block
  2620					;
  2621					;TRUE RETURN:	Always, with an updated argument block
  2622
  2623					IFN FTJSYS,<
  2624					K%TXTI:	TEXTI				;DO THE TEXTI JSYS
  2625						ERJMP	.RETF			;LOSE IF HE DID
  2626						$RETT				;AND RETURN
  2627					>  ;END IFN FTJSYS
  2628
  2629					IFN FTUUOS,<
  2630	003001'	336 00 0 00 002640'	K%TXTI:	SKIPN	TTYFLG			;WAS TERMINAL EVER OPENED?
  2631	003002'	260 17 0 00 003773'		$STOP(TNO,Terminal never opened) ;APPARENTLY NOT
  2632	003004'	202 01 0 00 002645'		MOVEM	S1,ARGLOC		;REMEMBER ARGUMENT BLOCK LOCATION
  2633	003005'	260 17 0 00 003733'		SAVE	C			;SAVE CHARACTER AC
  2634	003006'	260 17 0 00 003665'		PUSHJ	P,.SAVET		;MAKE T REGS AVAILABLE FOR SCRATCH
  2635	003007'	201 01 0 00 000011 		MOVEI	S1,.RDSIZ		;GET SIZE OF BLOCK
  2636	003010'	201 02 0 00 000044'		MOVEI	S2,RD			;AND ITS LOCATION
  2637	003011'	260 17 0 00 003605'		PUSHJ	P,.ZCHNK		;AND NOW ZERO THE BLOCK OUT
  2638	003012'	504 02 0 00 002645'		HRL	S2,ARGLOC		;FORM A XFER POINTER
  2639	003013'	200 01 0 00 002645'		MOVE	S1,ARGLOC		;GET LOCATION OF BLOCK
  2640	003014'	200 01 0 01 000000 		MOVE	S1,.RDCWB(S1)		;LENGTH OF BLOCK TO MOVE
  2641	003015'	271 01 0 02 000000 		ADDI	S1,0(S2)		;NOW HAVE LAST WORD TO MOVE
  2642	003016'	251 02 0 01 000000 		BLT	S2,0(S1)		;MOVE USER BLOCK
  2643	003017'	260 17 0 00 003206'		PUSHJ	P,CONVBP		;CONVERT ALL BYTE POINTERS ETC..
  2644	003020'	402 00 0 00 002644'		SETZM	RUBFLG			;CLEAR RUBOUT IN PROGRESS FLAG
  2645	003021'	402 00 0 00 002646'		SETZM	BCKFLG			;CLEAR BACKUP LIMIT FLAG
  2646	003022'	254 00 0 00 003042'		JRST	TXTL			;YES, DON'T SLEEP
  2647
  2648
  2649									;CONTINUED ON NEXT PAGE
GSCN  --  Command Scanner Interface for DIAGNOSTICS	MACRO %53(1020) 10:54 19-Feb-79 Page 14
GKBD	MAC	22-May-78 10:54		K%TXTI  --  Handle Terminal Input                                                  SEQ 0378

  2650									;CONTINUED FROM PREVIOUS PAGE
  2651
  2652					; HERE WHEN ALL IS DONE, S1 CONTAINS FLAGS TO STORE
  2653
  2654	003023'	332 00 0 00 002646'	FINTXT:	SKIPE	BCKFLG			;WAS BACKUP LIMIT REACHED?
  2655	003024'	661 01 0 00 000010 		IORX	S1,RD%BLR		;YES, TURN ON THE INDICATOR
  2656	003025'	436 01 0 00 000045'		IORM	S1,RD+.RDFLG		;STORE FLAGS
  2657	003026'	336 00 0 00 000050'		SKIPN	RD+.RDDBC		;ANY ROOM FOR A TERMINATING NULL?
  2658	003027'	254 00 0 00 003033'		JRST	FINT.1			;NO, SO CANNOT DEPOSIT NULL
  2659	003030'	400 01 0 00 000000 		SETZ	S1,			;GET A NULL
  2660	003031'	200 02 0 00 000047'		MOVE	S2,RD+.RDDBP		;GET THE BYTE POINTER
  2661	003032'	136 01 0 00 000002 		IDPB	S1,S2			;AND STORE IT
  2662	003033'	200 01 0 00 002645'	FINT.1:	MOVE	S1,ARGLOC		;GET LOCATION OF ARG BLOCK
  2663	003034'	200 02 0 01 000000 		MOVE	S2,.RDCWB(S1)		;AND SIZE OF IT-1
  2664	003035'	270 02 0 00 000001 		ADD	S2,S1			;GET LAST WORD TO MOVE
  2665	003036'	505 01 0 00 000044'		HRLI	S1,RD			;TRANSFER FROM OUR FULL ARG BLOCK
  2666	003037'	251 01 0 02 000000 		BLT	S1,0(S2)		;TO THE USER'S POSSIBLY PARTIAL
  2667	003040'	260 17 0 00 002654'		PUSHJ	P,I%ION			;RE-ENABLE INTERRUPTS JUST IN CASE
  2668	003041'	254 00 0 00 003747'		$RETT
  2669
  2670					;STILL IN IFN FTUUOS FOR A LONG TIME
GSCN  --  Command Scanner Interface for DIAGNOSTICS	MACRO %53(1020) 10:54 19-Feb-79 Page 15
GKBD	MAC	22-May-78 10:54		TXTL  --  Loop for inputting text                                                  SEQ 0379

  2671					SUBTTL TXTL  --  Loop for inputting text
  2672
  2673					;TXTL is a lower level routine which loops for each character, calling
  2674					;	all the worker routines.  It exits when the appropriate condition
  2675					;	 (ie, break or full) occurs.
  2676
  2677					;CALL IS:	No arguments
  2678					;
  2679					;TRUE RETURN:	Always
  2680
  2681
  2682	003042'	260 17 0 00 002654'	TXTL:	PUSHJ	P,I%ION			;TURN ON INTERRUPTS IF OFF
  2683	003043'	331 00 0 00 002646'		SKIPL	BCKFLG			;WAS BACKUP LIMIT REACHED?
  2684	003044'	337 01 0 00 000050'		SKIPG	S1,RD+.RDDBC		;ANY ROOM FOR ANOTHER CHARACTER?
  2685	003045'	254 00 0 00 003023'		JRST	FINTXT			;NO, RETURN WITH NO FLAGS SET
  2686	003046'	205 01 0 00 004000 		MOVX	S1,RD%JFN		;GET THE "JFN PRESENT" BIT
  2687	003047'	616 01 0 00 000045'		TDNN	S1,RD+.RDFLG		;SKIP IF SET
  2688						JRST	[ILDB C,RD+.RDFLG	;ELSE, GET A CHARACTER
  2689							 JUMPN C,TXTL.2		;AND CONTINUE IF NOT NULL
  2690							 MOVX S1,RD%BTM		;LOAD "BREAK TERMINATOR" FLAG
  2691	003050'	254 00 0 00 005013'			 JRST FINTXT]		;AND RETURN
  2692	003051'	554 01 0 00 000046'		HLRZ	S1,RD+.RDIOJ		;GET PRIMARY INPUT JFN
  2693	003052'	302 01 0 00 000100 		CAXE	S1,.PRIIN		;TERMINAL?
  2694	003053'	254 00 0 00 003110'		JRST	TXTL.4			;NO
  2695
  2696	003054'	332 00 0 00 002650'		SKIPE	CURESC			;ARE WE IN AN ESCAPE SEQUENCE?
  2697	003055'	254 00 0 00 003122'		JRST	TXTL.5			;YES, GET NEXT CHARACTER
  2698	003056'	260 17 0 00 003134'		PUSHJ	P,TTYCHR		;NO,GET A CHARACTER
  2699	003057'	306 16 0 00 000033 		CAIN	C,.CHESC		;IS IT AN ESCAPE?
  2700	003060'	336 01 0 00 002647'		SKIPN	S1,UESCTB		;YES, HAS USER SETUP A TABLE?
  2701	003061'	254 00 0 00 003073'		JRST	TXTL.2			;NO, CONTINUE ON
  2702	003062'	202 01 0 00 002650'		MOVEM	S1,CURESC		;SAVE AS CURRENT STATE
  2703
  2704	003063'	260 17 0 00 003134'	TXTL.1:	PUSHJ	P,TTYCHR		;GET THE NEXT CHARACTER
  2705	003064'	270 16 0 00 002650'		ADD	C,CURESC		;GET ADR OF TABLE ENTRY
  2706	003065'	200 01 0 16 000000 		MOVE	S1,0(C)			;AND GET THE WORD
  2707	003066'	202 01 0 00 002650'		MOVEM	S1,CURESC		;STORE AS CURRENT STATE
  2708						JUMPE	S1,[OUTCHR [.CHBEL]	;TYPE A BELL
  2709	003067'	322 01 0 00 005017'			    JRST TXTL]		;AND LOOP AROUND
  2710	003070'	607 01 0 00 777777 		TLNN	S1,-1			;IS IT 0,,ADR?
  2711	003071'	254 00 0 00 003063'		JRST	TXTL.1			;YES, LOOP
  2712	003072'	254 00 0 00 003042'		JRST	TXTL			;NO, A BP FINALLY
  2713
  2714
  2715									;TXTL IS CONTINUED ON THE FOLLOWING PAGE
GSCN  --  Command Scanner Interface for DIAGNOSTICS	MACRO %53(1020) 10:54 19-Feb-79 Page 16
GKBD	MAC	22-May-78 10:54		TXTL  --  Loop for inputting text                                                  SEQ 0380

  2716									;CONTINUED FROM THE PREVIOUS PAGE
  2717
  2718	003073'	322 16 0 00 003042'	TXTL.2:	JUMPE	C,TXTL			;IGNORE NULLS
  2719
  2720	003074'	260 17 0 00 003171'		PUSHJ	P,CONVRT		;CONVERT LOWER TO UPPER, ETC.
  2721	003075'	260 17 0 00 003360'		PUSHJ	P,SPCHK			;SEE IF ITS A SPECIAL FUNCTION
  2722	003076'	321 00 0 01 000000 		JUMPT	0(S1)			;IF ITS SPECIAL, GO HANDLE IT
  2723
  2724	003077'	260 17 0 00 003146'		PUSHJ	P,STOC			;STORE THE CHARACTER
  2725	003100'	260 17 0 00 002654'		PUSHJ	P,I%ION			;OK, SAFE TO BE INTERRUPTED
  2726	003101'	356 00 0 00 002644'		AOSN	RUBFLG			;CLEAR RUBFLG, WAS IT UP?
  2727	003102'	051 01 0 00 005021'		OUTCHR	[.CHBSL]		;YES, CLOSE THE RUBOUT SET
  2728	003103'	260 17 0 00 003273'		PUSHJ	P,ECHO			;AND ECHO IT
  2729	003104'	260 17 0 00 003314'	TXTL.3:	PUSHJ	P,CBRK			;CHECK FOR A BREAK
  2730	003105'	322 00 0 00 003042'		JUMPF	TXTL			;IF NOT, GET NEXT CHARACTER
  2731	003106'	205 01 0 00 000040 		MOVX	S1,RD%BTM		;FLAG THAT BREAK ENDED INPUT
  2732	003107'	254 00 0 00 003023'		JRST	FINTXT			;AND RETURN
  2733
  2734	003110'	260 17 0 00 000153'	TXTL.4:	PUSHJ	P,F%IBYT		;GET NEXT CHARACTER FROM FILE
  2735						JUMPF	[CAXE	S1,EREOF$
  2736							JRST	TXTL.6
  2737	003111'	322 00 0 00 005022'			$RETF]
  2738	003112'	336 16 0 00 000002 		SKIPN	C,S2			;NULL?
  2739	003113'	254 00 0 00 003110'		JRST	TXTL.4			;YES
  2740	003114'	550 01 0 00 000046'		HRRZ	S1,RD+.RDIOJ
  2741	003115'	306 01 0 00 000101 		CAIN	S1,.PRIOU		;OUTPUT TO TERMINAL ?
  2742	003116'	260 17 0 00 003273'		PUSHJ	P,ECHO			;YES
  2743	003117'	260 17 0 00 003171'		PUSHJ	P,CONVRT		;CONVERT CASING
  2744	003120'	260 17 0 00 003146'		PUSHJ	P,STOC			;STORE
  2745	003121'	254 00 0 00 003104'		JRST	TXTL.3			;LOOP
  2746
  2747	003122'	134 16 0 00 002650'	TXTL.5:	ILDB	C,CURESC		;GET THE CHARACTER
  2748	003123'	336 00 0 00 000016 		SKIPN	C			;FINALLY HIT A NULL?
  2749	003124'	402 00 0 00 002650'		SETZM	CURESC			;YES, CLEAR THE POINTER
  2750	003125'	305 16 0 00 000200 		CAIGE	C,200			;SPECIAL CHARACTER?
  2751	003126'	254 00 0 00 003073'		JRST	TXTL.2			;NO, HANDLE NORMALLY
  2752	003127'	275 16 0 00 000200 		SUBI	C,200			;MAKE SOMETHING OF IT
  2753	003130'	051 01 0 00 000016 		OUTCHR	C			;OUTPUT IT
  2754	003131'	254 00 0 00 003122'		JRST	TXTL.5			;AND LOOP
  2755
  2756	003132'	260 17 0 00 003773'	TXTL.6:	$STOP(FSE,File System Error)
  2757
GSCN  --  Command Scanner Interface for DIAGNOSTICS	MACRO %53(1020) 10:54 19-Feb-79 Page 17
GKBD	MAC	22-May-78 10:54		TTYCHR  --  Here to receive 1 character from the TTY                               SEQ 0381

  2758					SUBTTL	TTYCHR  --  Here to receive 1 character from the TTY
  2759
  2760					;TTYCHR is written to be interruptable until a character is typed.
  2761					;	When a character is available, TTYCHR goes IOFF and returns
  2762					;	the character in C   WITH INTERRUPTS OFF so that input is not
  2763					;	lost.
  2764
  2765	003134'	051 13 0 00 000000 	TTYCHR:	SKPINC				;SKIP IF A CHARACTER IS THERE
  2766	003135'	334 00 0 00 000000 		SKIPA				;NONE THERE YET, SLEEP
  2767	003136'	254 00 0 00 003143'		JRST	TTYC.1			;READY!!
  2768	003137'	205 01 0 00 000010 		MOVX	S1,HB.RTC		;LOAD SOME HIBER BITS
  2769	003140'	047 01 0 00 000072 		HIBER	S1,			;SLEEP
  2770	003141'	255 00 0 00 000000 		  JFCL				;IGNORE IT
  2771	003142'	254 00 0 00 003134'		JRST	TTYCHR			;AND LOOP FOR A CHARACTER
  2772
  2773	003143'	260 17 0 00 002655'	TTYC.1:	PUSHJ	P,I%IOFF		;NEED NOT TO BE INTERRUPTED HERE
  2774	003144'	051 00 0 00 000016 		INCHRW	C			;ASK FOR A CHARACTER
  2775	003145'	254 00 0 00 003747'		$RETT				;AND RETURN """IOFF"""
GSCN  --  Command Scanner Interface for DIAGNOSTICS	MACRO %53(1020) 10:54 19-Feb-79 Page 18
GKBD	MAC	22-May-78 10:54		Utilities for text handling                                                        SEQ 0382

  2776					SUBTTL Utilities for text handling
  2777
  2778					; STOC - Store an input character
  2779
  2780	003146'	302 16 0 00 000015 	STOC:	CAIE	C,.CHCRT		;IS THIS A CARRIAGE-RETURN?
  2781	003147'	254 00 0 00 003152'		JRST	STOC.1			;NO
  2782	003150'	135 01 0 00 005033'		LOAD	S1,RD+.RDFLG,RD%CRF	;DO WE WANT TO SUPRESS IT?
  2783	003151'	326 01 0 00 003747'		JUMPN	S1,.RETT		;YES,GIVE UP NOW
  2784	003152'	136 16 0 00 000047'	STOC.1:	IDPB	C,RD+.RDDBP		;STORE FOR POINTER
  2785	003153'	370 00 0 00 000050'		SOS	RD+.RDDBC		;AND DECREMENT COUNT
  2786	003154'	254 00 0 00 003747'		$RETT				;THEN RETURN
  2787
  2788					; USTOC - Unstore a character
  2789
  2790	003155'	336 01 0 00 000054'	USTOC:	SKIPN	S1,RD+.RDBKL		;IS BACKUP LIMIT GIVEN?
  2791	003156'	254 00 0 00 003161'		JRST	USTO.1			;NO
  2792	003157'	316 01 0 00 000047'		CAMN	S1,RD+.RDDBP		;AND ARE WE AT THE LIMIT?
  2793	003160'	476 00 0 00 002646'		SETOM	BCKFLG			;REMEMBER THIS FOR LATER
  2794	003161'	370 01 0 00 000047'	USTO.1:	SOS	S1,RD+.RDDBP		;BACK OFF 5 BYTES
  2795	003162'	201 02 0 00 000004 		MOVEI	S2,4			;AND THEN GO FORWARD
  2796	003163'	133 00 0 00 000001 		IBP	S1			;BY INCREMENTING
  2797	003164'	367 02 0 00 003163'		SOJG	S2,.-1			;FOUR TIMES
  2798	003165'	260 17 0 00 003241'		PUSHJ	P,MAKBP			;CONVERT IT
  2799	003166'	202 01 0 00 000047'		MOVEM	S1,RD+.RDDBP		;AND RE-STORE IT
  2800	003167'	350 00 0 00 000050'		AOS	RD+.RDDBC		;ONE MORE BYTE AVAILABLE
  2801	003170'	254 00 0 00 003747'		$RETT				;THEN RETURN
GSCN  --  Command Scanner Interface for DIAGNOSTICS	MACRO %53(1020) 10:54 19-Feb-79 Page 19
GKBD	MAC	22-May-78 10:54		Utilities for text handling                                                        SEQ 0383

  2802					; CONVRT - Do case conversion as necessary
  2803
  2804	003171'	135 01 0 00 005034'	CONVRT:	LOAD	S1,RD+.RDFLG,RD%RAI	;DOES CALLER WANT INPUT RAISED?
  2805	003172'	302 16 0 00 000010 		CAXE	C,$C(H)			;OR IS THIS ^H?
  2806	003173'	322 01 0 00 003747'		JUMPE	S1,.RETT		;IF NOT, RETURN NOW
  2807	003174'	301 16 0 00 000141 		CAIL	C,"a"			;IS IT IN RANGE OF LC A
  2808	003175'	303 16 0 00 000172 		CAILE	C,"z"			; TO LC Z?
  2809	003176'	334 00 0 00 000000 		SKIPA				;NO, DON'T CONVERT IT
  2810	003177'	275 16 0 00 000040 		SUBI	C,"a"-"A"		;ELSE DO THE CONVERSION
  2811	003200'	302 16 0 00 000010 		CAXE	C,$C(H)			;IF NOT ^H, THEN
  2812	003201'	254 00 0 00 003747'		$RETT				;RETURN
  2813	003202'	260 17 0 00 003264'		PUSHJ	P,GETCOC		;GET CONTROL CODE
  2814	003203'	306 01 0 00 000003 		CAXN	S1,3			;IS "SIMULATE" ON?
  2815	003204'	201 16 0 00 000177 		MOVEI	C,.CHDEL		;YES, CONVERT TO RUBOUT
  2816	003205'	254 00 0 00 003747'		$RETT				;THEN RETURN
  2817
  2818
  2819					;  CONVBP - Convert default byte pointers
  2820
  2821	003206'	336 01 0 00 000047'	CONVBP:	SKIPN	S1,RD+.RDDBP		;GET REQUIRED POINTER
  2822	003207'	260 17 0 00 003773'		$STOP(IBP,Illegal byte pointer in K%TXTI)
  2823	003211'	260 17 0 00 003241'		PUSHJ	P,MAKBP			;CONVERT TO NORMAL
  2824	003212'	202 01 0 00 000047'		MOVEM	S1,RD+.RDDBP		;STORE IT BACK
  2825	003213'	336 01 0 00 000051'		SKIPN	S1,RD+.RDBFP		;GET INITIAL POINTER IF GIVEN
  2826	003214'	200 01 0 00 000047'		MOVE	S1,RD+.RDDBP		;IF NOT, SET TO DESTINATION
  2827	003215'	260 17 0 00 003241'		PUSHJ	P,MAKBP			;CONVERT
  2828	003216'	202 01 0 00 002652'		MOVEM	S1,BGLINE		;STORE AS BEGINNING OF LINE
  2829	003217'	202 01 0 00 002653'		MOVEM	S1,BGBUFR		;STORE AS BEGINNING OF BUFFER
  2830	003220'	336 01 0 00 000054'		SKIPN	S1,RD+.RDBKL		;GET BACKUP LIMIT IF GIVEN
  2831	003221'	254 00 0 00 003224'		JRST	COBP.1			;NOT GIVEN, SKIP THIS
  2832	003222'	260 17 0 00 003241'		PUSHJ	P,MAKBP			;CONVERT IT
  2833	003223'	202 01 0 00 000054'		MOVEM	S1,RD+.RDBKL		;AND STORE IT BACK
  2834	003224'	336 01 0 00 000052'	COBP.1:	SKIPN	S1,RD+.RDRTY		;IS RE-TYPE PROMPT GIVEN?
  2835	003225'	254 00 0 00 003747'		$RETT				;NO
  2836	003226'	260 17 0 00 003241'		PUSHJ	P,MAKBP			;CONVERT IT
  2837	003227'	202 01 0 00 000052'		MOVEM	S1,RD+.RDRTY		;STORE IT BACK
  2838	003230'	205 01 0 00 004000 		MOVX	S1,RD%JFN		;GET THE "JFN PRESENT" BIT
  2839	003231'	612 01 0 00 000045'		TDNE	S1,RD+.RDFLG		;SKIP IF NOT SET
  2840	003232'	254 00 0 00 003747'		$RETT				;SET...NO BYTE-POINTER
  2841	003233'	336 01 0 00 000046'		SKIPN	S1,RD+.RDIOJ		;GET THE BYTE POINTER
  2842	003234'	260 17 0 00 003773'		$STOP(IIP,Illegal Input Pointer)
  2843	003236'	260 17 0 00 003241'		PUSHJ	P,MAKBP			;CONVERT THE BYTE POINTER
  2844	003237'	202 01 0 00 000046'		MOVEM	S1,RD+.RDIOJ		;AND RE-STORE IT
  2845	003240'	254 00 0 00 003747'		$RETT				;RETURN
GSCN  --  Command Scanner Interface for DIAGNOSTICS	MACRO %53(1020) 10:54 19-Feb-79 Page 20
GKBD	MAC	22-May-78 10:54		Utilities for text handling                                                        SEQ 0384

  2846					; MAKBP - Un-default a byte pointer
  2847
  2848	003241'	641 01 0 00 777777 	MAKBP:	TLC	S1,-1			;COMPLEMENT LH (BYTE POINTER PART)
  2849	003242'	647 01 0 00 777777 		TLCN	S1,-1			;CHANGE BACK , TEST FOR -1
  2850	003243'	505 01 0 00 440700 		HRLI	S1,(POINT 7)		;IF DEFAULTED,CONVERT TO ASCII
  2851	003244'	135 02 0 00 005055'		LOAD	S2,S1,BP.POS		;GET POSITION (BITS TO RIGHT)
  2852	003245'	305 02 0 00 000007 		CAIGE	S2,7			;ENOUGH FOR ANOTHER BYTE?
  2853						JRST	[ MOVEI S2,^D36		;NO, MAKE IT ^D36 BITS TO
  2854							  STORE S2,S1,BP.POS	;THE RIGHT IN NEXT WORD
  2855	003246'	254 00 0 00 005056'			  AOJA	S1,.RETT]	;AND RETURN
  2856	003247'	254 00 0 00 003747'		$RETT				;THEN RETURN
  2857
  2858
  2859
  2860
  2861					; IMGSTR - Output a string as it was echoed
  2862
  2863	003250'	260 17 0 00 003733'	IMGSTR:	SAVE	C			;SAVE CHARACTER REGISTER
  2864	003251'	260 17 0 00 003617'		PUSHJ	P,.SAVE1		;SAVE P1
  2865	003252'	260 17 0 00 003241'		PUSHJ	P,MAKBP			;MAKE A BYTE POINTER
  2866	003253'	200 07 0 00 000001 		MOVE	P1,S1			;GET THE POINTER IN P1
  2867	003254'	134 16 0 00 000007 	IMGS.1:	ILDB	C,P1			;GET A CHARACTER
  2868	003255'	322 16 0 00 003750'		JUMPE	C,.POPJ			;RETURN ON NULL
  2869	003256'	260 17 0 00 003273'		PUSHJ	P,ECHO			;RE-ECHO IT
  2870	003257'	254 00 0 00 003254'		JRST	IMGS.1			;LOOP FOR MORE
  2871
  2872
  2873
  2874					; CLINE - Clear current video line
  2875
  2876	003260'	051 01 0 00 005061'	CLINE:	OUTCHR	[.CHCRT]		;OUTPUT A CARRAIGE RETURN
  2877	003261'	550 01 1 00 002643'		HRRZ	S1,@TRMPTR		;GET CONTROL CODE FOR ERASE
  2878	003262'	051 03 1 01 000000 		OUTSTR	@.TCEOL(S1)		;TO END OF LINE
  2879	003263'	254 00 0 00 003747'		$RETT				;AND RETURN
  2880
  2881
  2882					; GETCOC - Fetch COC for a given character
  2883
  2884	003264'	200 01 0 00 000016 	GETCOC:	MOVE	S1,C			;GET CHARACTER
  2885	003265'	231 01 0 00 000022 		IDIVI	S1,^D18			;2 BITS PER CHAR = 18 CHARS PER WORD
  2886	003266'	200 01 0 01 002641'		MOVE	S1,COCTAB(S1)		;GET RIGHT WORD OF COC
  2887	003267'	240 02 0 00 000001 		ASH	S2,1			;TWO BITS NEEDED FOR ONE CHARACTER
  2888	003270'	245 01 0 02 000002 		ROTC	S1,2(S2)		;POSITION COC AS BITS 34&5 OF S2
  2889	003271'	135 01 0 00 005062'		LDB	S1,[POINT 2,S2,35]	;GET INTO S1 FOR RETURN
  2890	003272'	254 00 0 00 003747'		$RETT				;AND RETURN
GSCN  --  Command Scanner Interface for DIAGNOSTICS	MACRO %53(1020) 10:54 19-Feb-79 Page 21
GKBD	MAC	22-May-78 10:54		Utilities for text handling                                                        SEQ 0385

  2891					; ECHO - HANDLE CHARACTER ECHOING
  2892
  2893	003273'	201 01 0 00 000001 	ECHO:	MOVX	S1,RD%NEC		;GET NO ECHO BIT
  2894	003274'	612 01 0 00 000045'		TDNE	S1,RD+.RDFLG		;TEST IT
  2895	003275'	254 00 0 00 003747'		$RETT				;RETURN IF SET
  2896	003276'	301 16 0 00 000040 		CAIL	C," "			;IS THIS A PRINTABLE CHARACTER?
  2897	003277'	254 00 0 00 003306'		JRST	ECHO.2			;YES, JUST OUTPUT IT
  2898	003300'	260 17 0 00 003264'		PUSHJ	P,GETCOC		;GET COC CODE FOR CHARACTER
  2899	003301'	254 00 1 01 005063'		JRST	@[EXP .RETT,ECHO.1,ECHO.2,ECHO.3](S1) ;DISPATCH FOR HANDLING
  2900
  2901					; SEND ^ (UP-ARROW) FOLLOWED BY PRINTABLE FORM OF CHARACTER
  2902
  2903	003302'	201 01 0 16 000100 	ECHO.1:	MOVEI	S1,100(C)		;GET PRINTABLE FORM OF CHARACTER
  2904	003303'	051 01 0 00 005067'		OUTCHR	["^"]			;PRINT UP-ARROW
  2905	003304'	051 01 0 00 000001 		OUTCHR	S1			;AND THE CHARACTER
  2906	003305'	254 00 0 00 003747'		$RETT				;AND RETURN
  2907
  2908					; SEND ACTUAL CODE FOR THIS CHARACTER (TRUE ECHO)
  2909
  2910	003306'	051 01 0 00 000016 	ECHO.2:	OUTCHR	C			;PRINT IT
  2911	003307'	254 00 0 00 003747'		$RETT				;AND RETURN
  2912
  2913					; SIMULATE ACTION FOR CHARACTER
  2914
  2915	003310'	302 16 0 00 000033 	ECHO.3:	CAXE	C,.CHESC		;ONLY KNOW HOW TO SIMULATE ESCAPE (33)
  2916	003311'	254 00 0 00 003306'		JRST	ECHO.2			;SO IF NOT THAT, SEND ACTUAL CODE
  2917	003312'	051 01 0 00 005070'		OUTCHR	["$"]			;SIMULATE ESC WITH "$" (DOLLAR SIGN)
  2918	003313'	254 00 0 00 003747'		$RETT				;AND RETURN
GSCN  --  Command Scanner Interface for DIAGNOSTICS	MACRO %53(1020) 10:54 19-Feb-79 Page 22
GKBD	MAC	22-May-78 10:54		Utilities for text handling                                                        SEQ 0386

  2919					; CBRK - Check to see if character is a break
  2920
  2921	003314'	336 00 0 00 000053'	CBRK:	SKIPN	RD+.RDBRK		;IS A USER SUPPLIED BREAK TABLE PRESENT?
  2922	003315'	254 00 0 00 003324'		JRST	CBRK.1			;NO, GO TO NEXT SECTION
  2923	003316'	200 01 0 00 000016 		MOVE	S1,C			;GET CODE FOR CHARACTER
  2924	003317'	231 01 0 00 000040 		IDIVI	S1,^D32			;32 CODES PER WORD
  2925	003320'	270 01 0 00 000053'		ADD	S1,RD+.RDBRK		;GET RIGHT WORD OF TABLE
  2926	003321'	200 01 0 01 000000 		MOVE	S1,0(S1)		;IE WORD 0-3
  2927	003322'	242 01 0 02 000000 		LSH	S1,0(S2)		;POSITION RIGHT BIT TO SIGN BIT
  2928	003323'	321 01 0 00 003747'		JUMPL	S1,.RETT		;TAKE THIS BREAK IF WANTED
  2929
  2930	003324'	205 01 0 00 777774 	CBRK.1:	MOVSI	S1,-BTBLL		;GET BREAK TABLE LENGTH
  2931
  2932	003325'	510 02 0 01 003341'	CBRK.2:	HLLZ	S2,BTBL(S1)		;GET ONLY FLAG PORTION
  2933	003326'	616 02 0 00 000045'		TDNN	S2,RD+.RDFLG		;IS THIS BREAK SET FLAG ON?
  2934	003327'	254 00 0 00 003337'		JRST	CBRK.4			;NO, SKIP THIS TEST
  2935	003330'	550 02 0 01 003341'		HRRZ	S2,BTBL(S1)		;NOW GET ADDRESS PORTION
  2936	003331'	505 02 0 00 440700 		HRLI	S2,(POINT 7)		;FORM A BYTE POINTER
  2937
  2938	003332'	134 03 0 00 000002 	CBRK.3:	ILDB	T1,S2			;GET BYTE
  2939	003333'	322 03 0 00 003337'		JUMPE	T1,CBRK.4		;IF NULL, WE HAVE A NO MATCH
  2940	003334'	316 03 0 00 000016 		CAMN	T1,C			;DOES THIS MATCH A BREAK CHARACTER?
  2941	003335'	254 00 0 00 003747'		$RETT				;YES, TAKE TRUE RETURN
  2942	003336'	254 00 0 00 003332'		JRST	CBRK.3			;LOOP FOR ALL
  2943
  2944	003337'	253 01 0 00 003325'	CBRK.4:	AOBJN	S1,CBRK.2		;STEP THROUGH ENTIRE TABLE
  2945	003340'	254 00 0 00 003746'		$RETF				;FINALLY, ITS NOT A BREAK
  2946
  2947
  2948					; FORMAT OF TABLE IS:  FLGS,,[BYTE (7) CHR,CHR, WHICH ARE BREAK IF FLG IS SET]
  2949
  2950	003341'	400000	005071'		BTBL:	RD%BRK+[BYTE(7) $C(Z),.CHESC]	;^Z,$
  2951	003342'	200000	005072'			RD%TOP+[BYTE(7) $C(G),$C(L),$C(Z),.CHESC,.CHLFD,.CHCRT,0]
  2952	003343'	100000	003345'			RD%PUN+PUNTAB
  2953	003344'	040000	005074'			RD%BEL+[BYTE(7) .CHLFD,0]
  2954
  2955			000004			BTBLL==.-BTBL
  2956
  2957
  2958	003345'				PUNTAB:					;TABLE OF PUNCTUATION CHARACTERS
  2959	003345'	040 041 042 043 044 0 		BYTE (7) 40,41,42,43,44,45,46,47,50,51,52,53,54,55,56,57,34,35,36,37
  2960	003346'	045 046 047 050 051 0
  2961	003347'	052 053 054 055 056 0
  2962	003350'	057 034 035 036 037 0
  2963	003351'	072 073 074 075 076 0 		BYTE (7) 72,73,74,75,76,77,100,133,134,135,136,137,140,173,174
  2964	003352'	077 100 133 134 135 0
  2965	003353'	136 137 140 173 174 0
  2966	003354'	001 002 003 004 005 0 		BYTE(7) $C(A),$C(B),$C(C),$C(D),$C(E),$C(F),$C(H),$C(I),$C(K),$C(N)
  2967	003355'	006 010 011 013 016 0
  2968	003356'	017 020 021 023 024 0 		BYTE(7) $C(O),$C(P),$C(Q),$C(S),$C(T),175,176,$C(X),$C(Y),0
  2969	003357'	175 176 030 031 000 0
GSCN  --  Command Scanner Interface for DIAGNOSTICS	MACRO %53(1020) 10:54 19-Feb-79 Page 23
GKBD	MAC	22-May-78 10:54		SPCHK  --  Check for special characters                                            SEQ 0387

  2970					SUBTTL SPCHK  --  Check for special characters
  2971
  2972					;SPCHK is called to detect special formatting and edit characters as they
  2973					; come in.
  2974					;
  2975					;CALL IS:	C/ Character
  2976					;
  2977					;TRUE RETURN:	S1/ Address of routine to call
  2978					;FALSE RETURN:	Character was not special
  2979
  2980	003360'	205 01 0 00 777774 	SPCHK:	MOVSI	S1,-SCTBLL		;GET LENGTH OF TABLE
  2981
  2982	003361'	554 02 0 01 003372'	SPCH.1:	HLRZ	S2,SCTBL(S1)		;GET CHARACTER
  2983	003362'	312 02 0 00 000016 		CAME	S2,C			;A MATCH?
  2984	003363'	253 01 0 00 003361'		AOBJN	S1,SPCH.1		;LOOP LOOKING FOR MATCH
  2985	003364'	325 01 0 00 003746'		JUMPGE	S1,.RETF		;IF NO MATCH, RETURN FALSE
  2986
  2987	003365'	550 01 0 01 003372'		HRRZ	S1,SCTBL(S1)		;GET PROCESSOR ADDRESS
  2988	003366'	135 02 0 00 005075'		LOAD	S2,RD+.RDFLG,RD%SUI	;GET ^U SUPRESS BIT
  2989	003367'	306 01 0 00 000025 		CAIN	S1,$C(U)		;IF NOT CONTROL-U,
  2990	003370'	326 02 0 00 003746'		PJUMPN	S2,.RETF		;IF A SUPPRESS ^U, RETURN FALSE
  2991	003371'	254 00 0 00 003747'		$RETT				;RETURN TRUE
  2992
  2993
  2994	003372'	000177	003441'		SCTBL:	.CHDEL,,CCDEL			;DELETE (177)
  2995	003373'	000025	003376'			$C(U),,CCU			;^U
  2996	003374'	000022	003421'			$C(R),,CCR			;^R
  2997	003375'	000027	003470'			$C(W),,CCW			;^W
  2998
  2999			000004			  SCTBLL==.-SCTBL
GSCN  --  Command Scanner Interface for DIAGNOSTICS	MACRO %53(1020) 10:54 19-Feb-79 Page 24
GKBD	MAC	22-May-78 10:54		CCU  --  Handle ^U (Rubout entire line)                                            SEQ 0388

  3000					SUBTTL  CCU  --  Handle ^U (Rubout entire line)
  3001
  3002					;HERE TO PROCESS ^U (RESTART INPUT)
  3003
  3004	003376'	402 00 0 00 002644'	CCU:	SETZM	RUBFLG			;CLEAR RUBOUT FLAG
  3005	003377'	200 01 0 00 002652'		MOVE	S1,BGLINE		;GET BEGINNING POINTER
  3006	003400'	316 01 0 00 000047'		CAMN	S1,RD+.RDDBP		;DOES CURRENT MATCH FIRST?
  3007	003401'	254 00 0 00 003404'		JRST	CCU.1			;YES, SO WE ARE AT FRONT
  3008	003402'	260 17 0 00 003155'		PUSHJ	P,USTOC			;UNSTORE 1 CHARACTER
  3009	003403'	254 00 0 00 003376'		JRST	CCU			;TRY AGAIN
  3010
  3011	003404'	550 01 1 00 002643'	CCU.1:	HRRZ	S1,@TRMPTR		;GET CONTROL CODE PART
  3012	003405'	326 01 0 00 003410'		JUMPN	S1,CCU.2		;IF VIDEO, HANDLE IT THAT WAY
  3013
  3014						OUTSTR	[ASCIZ/
  3015	003406'	051 03 0 00 004030'	/]					;GIVE A NEW LINE
  3016	003407'	254 00 0 00 003411'		JRST	CCU.3			;AND CONTINUE
  3017
  3018	003410'	260 17 0 00 003260'	CCU.2:	PUSHJ	P,CLINE			;CLEAR THE LINE
  3019
  3020	003411'	261 17 0 00 000003 	CCU.3:	PUSH	P,T1			;SAVE T1
  3021	003412'	332 03 0 00 000052'		SKIPE	T1,RD+.RDRTY		;IF A PROMPT WAS GIVEN,
  3022	003413'	260 17 0 00 003516'		PUSHJ	P,TYPEBP		;RESEND THE PROMPT
  3023	003414'	262 17 0 00 000003 		POP	P,T1			;RESTORE T1
  3024	003415'	135 01 0 00 005076'		LOAD	S1,RD+.RDFLG,RD%RND	;DOES USER WANT RETURN ON EMPTY?
  3025	003416'	322 01 0 00 003042'		JUMPE	S1,TXTL			;NO, GO FOR MORE INPUT
  3026	003417'	205 01 0 00 000020 		MOVX	S1,RD%BFE		;INDICATE BUFFER EMPTY
  3027	003420'	254 00 0 00 003023'		JRST	FINTXT			;AND FINISH UP
GSCN  --  Command Scanner Interface for DIAGNOSTICS	MACRO %53(1020) 10:54 19-Feb-79 Page 25
GKBD	MAC	22-May-78 10:54		CCR  --  Handle ^R (Re-type the line)                                              SEQ 0389

  3028					SUBTTL CCR  --  Handle ^R (Re-type the line)
  3029
  3030
  3031	003421'	402 00 0 00 002644'	CCR:	SETZM	RUBFLG			;CLEAR RUBOUT FLAG
  3032	003422'	550 01 1 00 002643'		HRRZ	S1,@TRMPTR		;GET TERMINAL POINTER
  3033	003423'	322 01 0 00 003426'		JUMPE	S1,CCR.1		;IF NULL, ITS HARD COPY
  3034	003424'	260 17 0 00 003260'		PUSHJ	P,CLINE			;CLEAR THE LINE
  3035	003425'	334 00 0 00 000000 		SKIPA				;AND DON'T GO TO NEXT ONE
  3036	003426'				CCR.1:	OUTSTR	[ASCIZ/
  3037	003426'	051 03 0 00 004030'	/]					;GET TO NEXT LINE
  3038	003427'	261 17 0 00 000003 		PUSH	P,T1			;SAVE T1
  3039	003430'	332 03 0 00 000052'		SKIPE	T1,RD+.RDRTY		;IS RE-PROMPT GIVEN?
  3040	003431'	260 17 0 00 003516'		PUSHJ	P,TYPEBP		;YES, OUTPUT IT
  3041	003432'	200 01 0 00 000047'		MOVE	S1,RD+.RDDBP		;GET CURRENT BYTE POINTER
  3042	003433'	201 02 0 00 000000 		MOVEI	S2,0			;AND A NULL TO DEPOSIT
  3043	003434'	136 02 0 00 000001 		IDPB	S2,S1			;STORE AS ASCIZ TERMINATOR
  3044	003435'	200 01 0 00 002652'		MOVE	S1,BGLINE		;GET POINTER TO LINE
  3045	003436'	260 17 0 00 003250'		PUSHJ	P,IMGSTR		;OUTPUT AN STRING AS ECHOED
  3046	003437'	262 17 0 00 000003 		POP	P,T1			;RESTORE T1
  3047	003440'	254 00 0 00 003042'		JRST	TXTL			;WHEN DONE, GET NEXT CHARACTER
GSCN  --  Command Scanner Interface for DIAGNOSTICS	MACRO %53(1020) 10:54 19-Feb-79 Page 26
GKBD	MAC	22-May-78 10:54		CCDEL  --  Handle Rubout (Delete one character)                                    SEQ 0390

  3048					SUBTTL CCDEL  --  Handle Rubout (Delete one character)
  3049
  3050
  3051	003441'	200 01 0 00 000047'	CCDEL:	MOVE	S1,RD+.RDDBP		;GET CURRENT POINTER
  3052	003442'	316 01 0 00 002653'		CAMN	S1,BGBUFR		;ARE WE BACK UP TO BEGINNING?
  3053	003443'	254 00 0 00 003512'		JRST	BEGBUF			;YES, AT BEGINNING OF BUFFER
  3054
  3055	003444'	260 17 0 00 003155'		PUSHJ	P,USTOC			;UN-STORE A CHARACTER
  3056	003445'	200 01 0 00 000047'		MOVE	S1,RD+.RDDBP		;GET CORRECTED POINTER
  3057	003446'	134 16 0 00 000001 		ILDB	C,S1			;THEN GET DELETED CHARACTER
  3058
  3059	003447'	550 01 1 00 002643'		HRRZ	S1,@TRMPTR		;GET POINTER TO CONTROL CODE
  3060	003450'	326 01 0 00 003456'		JUMPN	S1,CCDL.1		;IF THERE IS CODE,DO IT
  3061
  3062	003451'	331 00 0 00 002644'		SKIPL	RUBFLG			;WAS PREVIOUS CHAR A RUBOUT?
  3063	003452'	051 01 0 00 005021'		OUTCHR	[.CHBSL]		;START RUBOUT SET WITH BACKSLASH
  3064	003453'	476 00 0 00 002644'		SETOM	RUBFLG			;AND SET FLAG TO REMEMBER IT
  3065	003454'	260 17 0 00 003273'		PUSHJ	P,ECHO			;ECHO THE CHARACTER
  3066	003455'	254 00 0 00 003042'		JRST	TXTL			;THEN RETURN FOR NEXT CHARACTER
  3067
  3068	003456'	305 16 0 00 000040 	CCDL.1:	CAIGE	C," "			;WAS DELETED CHARACTER PRINTING?
  3069	003457'	254 00 0 00 003462'		JRST	CCDL.2			;NO, NEED FURTHER ANALYSIS
  3070	003460'	051 03 0 00 005077'		OUTSTR	[BYTE (7)10,40,10]	;OUTPUT BACKSPACE,SPACE,BACKSPACE
  3071	003461'	254 00 0 00 003042'		JRST	TXTL			;THEN CONTINUE
  3072
  3073	003462'	260 17 0 00 003264'	CCDL.2:	PUSHJ	P,GETCOC		;GET COC FOR THIS CHARACTER
  3074	003463'	322 01 0 00 003042'		JUMPE	S1,TXTL			;IF CODE 0 , NOTHING THERE AT ALL
  3075	003464'	302 01 0 00 000001 		CAXE	S1,1			;IF ITS A ONE, JUST RUBOUT 2 CHARACTERS
  3076	003465'	254 00 0 00 003421'		JRST	CCR			;ELSE FORCE A RETYPE OF THE LINE
  3077	003466'	051 03 0 00 005100'		OUTSTR	[BYTE (7)10,10,40,40,10,10]	;OUTPUT BACK,BACK,SPACE,SPACE,BACK,BACK
  3078	003467'	254 00 0 00 003042'		JRST	TXTL			;THEN GET NEXT INPUT
GSCN  --  Command Scanner Interface for DIAGNOSTICS	MACRO %53(1020) 10:54 19-Feb-79 Page 27
GKBD	MAC	22-May-78 10:54		CCW  --  Handle ^W (Delete back to punctuation character)                          SEQ 0391

  3079					SUBTTL CCW  --  Handle ^W (Delete back to punctuation character)
  3080
  3081
  3082	003470'	402 00 0 00 002644'	CCW:	SETZM	RUBFLG			;CLEAR RUBOUT FLAG
  3083	003471'	200 01 0 00 000047'		MOVE	S1,RD+.RDDBP		;GET BYTE POINTER
  3084	003472'	316 01 0 00 002652'		CAMN	S1,BGLINE		;IF AT THE BEGINNING, GO HANDLE IT
  3085	003473'	254 00 0 00 003512'		JRST	BEGBUF			;BY RINGING OR RETURNING
  3086
  3087	003474'	260 17 0 00 003155'	CCW.1:	PUSHJ	P,USTOC			;UN-STORE ONE CHARACTER
  3088	003475'	200 01 0 00 000047'		MOVE	S1,RD+.RDDBP		;GET CORRECTED POINTER
  3089	003476'	316 01 0 00 002652'		CAMN	S1,BGLINE		;ARE WE AT BEGINNING NOW?
  3090	003477'	254 00 0 00 003511'		JRST	CCW.3			;YES, THATS A PUNCTUATION ALL RIGHT
  3091	003500'	275 01 0 00 000001 		SUBI	S1,1			;GET CHAR PRECEDING THIS ONE
  3092	003501'	201 02 0 00 000005 		MOVEI	S2,5			;BY BACKING OFF AND INCREMENTING
  3093	003502'	134 16 0 00 000001 		ILDB	C,S1			;THE RIGHT NUMBER OF TIMES
  3094	003503'	367 02 0 00 003502'		SOJG	S2,.-1			;
  3095	003504'	200 01 0 00 005102'		MOVE	S1,[POINT 7,PUNTAB]	;POINT TO PUNCTUATION TABLE
  3096
  3097	003505'	134 02 0 00 000001 	CCW.2:	ILDB	S2,S1			;GET A PUNCTUATION CHARACTER
  3098	003506'	322 02 0 00 003474'		JUMPE	S2,CCW.1		;IF AT END, DELETE ANOTHER CHARACTER
  3099	003507'	312 02 0 00 000016 		CAME	S2,C			;IS NEXT CHAR A PUNCTUATION CHAR?
  3100	003510'	254 00 0 00 003505'		JRST	CCW.2			;NO, TRY NEXT IN LIST
  3101
  3102	003511'	254 00 0 00 003421'	CCW.3:	JRST	CCR			;HAVE DELETED FAR ENOUGH, RETYPE LINE
GSCN  --  Command Scanner Interface for DIAGNOSTICS	MACRO %53(1020) 10:54 19-Feb-79 Page 28
GKBD	MAC	22-May-78 10:54		BEGBUF  --  Handle rubouts to beginning of buffer                                  SEQ 0392

  3103					SUBTTL BEGBUF  --  Handle rubouts to beginning of buffer
  3104
  3105					;Here to handle deletion of characters till beginning of buffer.
  3106					;	Either ring bell and wait, or return to caller.
  3107
  3108	003512'	135 01 0 00 005076'	BEGBUF:	LOAD	S1,RD+.RDFLG,RD%RND	;GET FLAG FOR RETURN HERE
  3109						JUMPN	S1,[ MOVX S1,RD%BFE	;FLAG IS LIT, RETURN BUFFER EMPTRY NOW
  3110	003513'	326 01 0 00 005103'			     JRST FINTXT ]	;TO CALLER
  3111	003514'	051 01 0 00 004046'		OUTCHR	[.CHBEL]		;SEND "BELL" AND
  3112	003515'	254 00 0 00 003042'		JRST	TXTL			;THEN RETURN FOR NEXT CHARACTER
  3113
  3114
  3115
  3116					SUBTTL	TYPEBP  --  Type a string according to a byte-pointer
  3117
  3118					;Call with a byte-pointer in T1
  3119
  3120	003516'	554 01 0 00 000003 	TYPEBP:	HLRZ	S1,T1			;GET LEFT HALF OF POINTER
  3121	003517'	306 01 0 00 777777 		CAIN	S1,-1			;IS IT -1
  3122	003520'	201 01 0 00 440700 		MOVEI	S1,(POINT 7,0)		;YES, MAKE IT STANDARD
  3123	003521'	306 01 0 00 440700 		CAIN	S1,(POINT 7,0)		;WORD ALIGNED?
  3124	003522'	254 00 0 00 003527'		JRST	TYPE.2			;YES, DO AN OUTSTR
  3125
  3126	003523'	134 01 0 00 000003 	TYPE.1:	ILDB	S1,T1			;GET A CHARACTER
  3127	003524'	322 01 0 00 003747'		JUMPE	S1,.RETT		;DONE ON A NULL
  3128	003525'	051 01 0 00 000001 		OUTCHR	S1			;TYPE IT
  3129	003526'	254 00 0 00 003523'		JRST	TYPE.1			;AND LOOP
  3130
  3131	003527'	051 03 0 03 000000 	TYPE.2:	OUTSTR	0(T1)			;TYPE THE STRING
  3132	003530'	254 00 0 00 003747'		$RETT				;AND RETURN
  3133
  3134					>  ;END IFN FTUUOS FROM K%TXTI
  3135
  3136	003531'				KBD%L:			;LABEL THE LITERAL POOL
  3137
GSCN  --  Command Scanner Interface for DIAGNOSTICS	MACRO %53(1020) 10:54 19-Feb-79 Page 1
GCOM	MAC	22-May-78 10:54		GLXCOM  --  Common module for Sub-Systems Components                               SEQ 0393

  3138					SUBTTL	GLXCOM  --  Common module for Sub-Systems Components
  3139
  3140					;	Entry points found in GLXCOM
  3141
  3142					ENTRY	.INIT	;Initialize the common module
  3143					ENTRY	.ZPAGA	;Zero a page given its address in S1
  3144					ENTRY	.ZPAGN	;Zero a page given its page number in S1
  3145					ENTRY	.ZCHNK	;Zero an arbitrary area of memory
  3146
  3147					ENTRY	.SAVE1	;Co-routine to save P1
  3148					ENTRY	.SAVE2	;Co-routine to save P1,P2
  3149					ENTRY	.SAVE3	;Co-routine to save P1,P2,P3
  3150					ENTRY	.SAVE4	;Co-routine to save P1,P2,P3,P4
  3151					ENTRY	.SAVET	;Co-routine to save T1,T2,T3,T4
  3152					ENTRY	.SV13	;Co-routine to save 13 (use SAVE Macro)
  3153					ENTRY	.SV14	;Co-routine to save 14 (use SAVE Macro)
  3154					ENTRY	.SV15	;Co-routine to save 15 (use SAVE Macro)
  3155					ENTRY	.SV16	;Co-routine to save 16 (use SAVE Macro)
  3156
  3157					ENTRY	.RETT	;Set TF= TRUE and return
  3158					ENTRY	.RETF	;Set TF= FALSE and return
  3159					ENTRY	.RETE	;Set TF= FALSE, set S1=GLXLIB error code and return
  3160
  3161					ENTRY	.AOS, .SOS , .ZERO ;Support for INCR, DECR AND ZERO
  3162
  3163					ENTRY	.POPJ
  3164
  3165					ENTRY	.STOP	;GLXLIB Central STOP CODE processor
GSCN  --  Command Scanner Interface for DIAGNOSTICS	MACRO %53(1020) 10:54 19-Feb-79 Page 2
GCOM	MAC	22-May-78 10:54		Table of contents                                                                  SEQ 0394

  3166					SUBTTL Table of contents
  3167
  3168					;               TABLE OF CONTENTS FOR GLXCOM
  3169					;
  3170					;
  3171					;                        SECTION                                   PAGE
  3172					;    1. Table of contents.........................................   2
  3173					;    2. Revision History..........................................   3
  3174					;    3. Global Storage............................................   4
  3175					;    4. .INIT  - Initialize the common code.......................   5
  3176					;    5. .ZPAGA - .ZPAGN - .ZCHNK  --  Zero out memory.............   6
  3177					;    6. .SAVEx Routines -- Save permanent ACS.....................   7
  3178					;    7. .SAVET -- Routine to save the temporary ACS...............   8
  3179					;    8. .SVxx  --  Routines for saving random ACS.................   9
  3180					;    9. .POPJ, .RETE,.RETT & .RETF -- Common return routines......  10
  3181					;   10. .AOS, .SOS and .ZERO - Support for INCR,DECR, ZERO........  11
  3182					;   11. STOP CODE Processor.......................................  12
GSCN  --  Command Scanner Interface for DIAGNOSTICS	MACRO %53(1020) 10:54 19-Feb-79 Page 3
GCOM	MAC	22-May-78 10:54		Revision History                                                                   SEQ 0395

  3183					SUBTTL Revision History
  3184
  3185					COMMENT \
  3186
  3187					Edit	SPR/QAR		Explanation
  3188					----	-------		-----------------------------------------------
  3189					0001			First model
  3190					0002			Create from SBSCOM
  3191					0003			Convert to new OTS format
  3192					0004			TOTALLY HACKED UP FOR DIAGNOSTICS
  3193
  3194
  3195					End of Revision History
  3196					\
GSCN  --  Command Scanner Interface for DIAGNOSTICS	MACRO %53(1020) 10:54 19-Feb-79 Page 4
GCOM	MAC	22-May-78 10:54		Global Storage                                                                     SEQ 0396

  3197					SUBTTL Global Storage
  3198
  3199
  3200					; GLOBAL CRASH INFORMATION
  3201
  3202	003531'					$$GDATA	.SPC			;PC OF STOP
  3203	003532'					$$GDATA	.SCODE			;SIXBIT CODE OF STOP CODE
  3204	003533'					$$GDATA	.SERR			;LAST OPERATING SYSTEM ERROR (TOPS-20)
  3205	003534'					$$GDATA	.SACS,20		;ACS AT TIME OF STOP
  3206	003554'					$$GDATA	.SPTBL			;BASE OF PAGE TABLE
  3207	003555'					$$GDATA	.SPRGM			;NAME OF PROGRAM
  3208	003556'					$$GDATA	.SPVER			;VERSION OF PROGRAM
  3209	003557'					$$GDATA	.SPLIB			;VERSION OF THE OTS
  3210
  3211	003560'					$$GDATA	.LGERR			;LAST GALAXY ERROR PROCESSED VIA .RETE
  3212	003561'					$$GDATA	.LGEPC			;PC (USUALLY) OF LAST $RETE
GSCN  --  Command Scanner Interface for DIAGNOSTICS	MACRO %53(1020) 10:54 19-Feb-79 Page 5
GCOM	MAC	22-May-78 10:54		.INIT  - Initialize the common code                                                SEQ 0397

  3213					SUBTTL .INIT  - Initialize the common code
  3214
  3215					;This code is set up for the stop code processor.
  3216					;	Information is copied to the crash block from parameters
  3217					;	not known at load time.
  3218
  3219					;CALL IS:	S1/ Length of the IB (Initialization Block)
  3220					;		S2/ Address of the IB
  3221
  3222	003562'	200 01 0 02 000000 	.INIT:	MOVE	S1,IB.PRG(S2)		;GET PROGRAM NAME
  3223	003563'	202 01 0 00 003555'		MOVEM	S1,.SPRGM		;STORE FOR LATER
  3224	003564'	200 01 0 02 000005 		MOVE	S1,IB.VER(S2)		;GET PROGRAM VERSION
  3225	003565'	202 01 0 00 003556'		MOVEM	S1,.SPVER		;SAVE IT
  3226					;	MOVEI	S1,PAGTBL##		;GET ADDRESS OF PAGE TABLE
  3227					;	MOVEM	S1,.SPTBL		;STORE FOR LATER
  3228	003566'	200 01 0 00 005105'		MOVX	S1,GLXVRS		;GET LIBRARY VERSION NUMBER
  3229	003567'	202 01 0 00 003557'		MOVEM	S1,.SPLIB		;SAVE IT AWAY
  3230	003570'	201 01 0 00 000005 		MOVX	S1,%%.GLX		;GET GLXLIB MAJOR CHANGE NUMBER
  3231	003571'	312 01 0 02 000004 		CAME	S1,IB.PID(S2)		;DO WE MATCH CALLING PROGRAM?
  3232	003572'	260 17 0 00 003773'		$STOP(WVG,Wrong version of GLXLIB) ;APPARENTLY NOT
  3233	003574'	254 00 0 00 003747'		$RETT				;RETURN
GSCN  --  Command Scanner Interface for DIAGNOSTICS	MACRO %53(1020) 10:54 19-Feb-79 Page 6
GCOM	MAC	22-May-78 10:54		.ZPAGA - .ZPAGN - .ZCHNK  --  Zero out memory                                      SEQ 0398

  3234					SUBTTL	.ZPAGA - .ZPAGN - .ZCHNK  --  Zero out memory
  3235
  3236					;ROUTINES TO COMPLETELY ZERO A PAGE OF MEMORY.  .ZPAGA IS
  3237					;	CALLED WITH THE ADDRESS OF THE FIRST WORD OF THE PAGE
  3238					;	IN S1 AND .ZPAGN IS CALLED WITH THE PAGE NUMBER IN S1.
  3239					;	.ZCHNK IS USED TO ZERO A CHUNK OF MEMORY
  3240					;	  SIZE IN S1 AND LOCATION S2
  3241					;	ALL ACS ARE PRESERVED
  3242
  3243	003575'	261 17 0 00 000001 	.ZPAGN:	PUSH	P,S1			;SAVE PAGE NUMBER
  3244	003576'	242 01 0 00 000011 		PG2ADR	S1			;CONVERT PAGE NUMBER TO ADR
  3245	003577'	334 00 0 00 000000 		SKIPA				;DON'T SAVE S1 TWICE
  3246
  3247	003600'	261 17 0 00 000001 	.ZPAGA:	PUSH	P,S1			;SAVE S1
  3248	003601'	261 17 0 00 000002 		PUSH	P,S2			;AND S2
  3249	003602'	200 02 0 00 000001 		MOVE	S2,S1			;GET ADDRESS INTO S2
  3250	003603'	201 01 0 00 001000 		MOVX	S1,PAGSIZ		;AND ONE PAGE SIZE INTO S1
  3251	003604'	254 00 0 00 003607'		PJRST	ZCHN.1			;JOIN COMMON CODE
  3252
  3253	003605'	261 17 0 00 000001 	.ZCHNK:	PUSH	P,S1			;SAVE CALLER'S SIZE
  3254	003606'	261 17 0 00 000002 		PUSH	P,S2			;AND ADDRESS
  3255	003607'	271 01 0 02 000000 	ZCHN.1:	ADDI	S1,0(S2)		;COMPUTE END ADDRESS
  3256	003610'	402 00 0 02 000000 		ZERO	0(S2)			;CLEAR FIRST WORD
  3257	003611'	507 00 0 00 000002 		HRLS	S2			;GET ADDR,,ADDR OF CHUNK
  3258	003612'	350 00 0 00 000002 		AOS	S2			;AND NOW ADDR,,ADDR+1
  3259	003613'	251 02 0 01 777777 		BLT	S2,-1(S1)		;NOW CLEAR THE CHUNK
  3260	003614'	262 17 0 00 000002 		POP	P,S2			;RESTORE CALLER'S CHUNK ADDR
  3261	003615'	262 17 0 00 000001 		POP	P,S1			;AND HIS SIZE
  3262	003616'	254 00 0 00 003747'		$RETT				;AND RETURN
GSCN  --  Command Scanner Interface for DIAGNOSTICS	MACRO %53(1020) 10:54 19-Feb-79 Page 7
GCOM	MAC	22-May-78 10:54		.SAVEx Routines -- Save permanent ACS                                              SEQ 0399

  3263					SUBTTL .SAVEx Routines -- Save permanent ACS
  3264
  3265					;THESE ROUTINES ACT AS CO-ROUTINES WITH THE ROUTINES WHICH CALL THEM,
  3266					;	THEREFORE NO CORRESPONDING "RESTORE" ROUTINES ARE NEEDED. WHEN
  3267					;	THE CALLING ROUTINE RETURNS TO ITS CALLER, IT ACTUALLY RETURNS
  3268					;	VIA THE RESTORE ROUTINES AUTOMATICALLY.
  3269
  3270	003617'	250 07 0 17 000000 	.SAVE1:	EXCH	P1,(P)		;SAVE P1 GET CALLERS ADDRESS
  3271	003620'	261 17 0 00 003623'		PUSH	P,.+3		;SAVE RETURN ADDRESS FOR CALLER
  3272	003621'	505 07 0 17 777777 		HRLI	P1,-1(P)	;MAKE IT LOOK LIKE RESULT OF JSA
  3273	003622'	267 07 0 07 000000 		JRA	P1,(P1)		;CALL THE CALLER
  3274	003623'	304 00 0 00 003623'		  CAIA	.		;NON-SKIP RETURN
  3275	003624'	350 00 0 17 777777 		AOS	-1(P)		;SKIP RETURN
  3276	003625'	254 00 0 00 003663'		JRST	RES1		;RESTORE P1
  3277
  3278	003626'	250 07 0 17 000000 	.SAVE2:	EXCH	P1,(P)		;SAVE P1 GET CALLERS ADDRESS
  3279	003627'	261 17 0 00 000010 		PUSH	P,P2		;SAVE P2
  3280	003630'	261 17 0 00 003633'		PUSH	P,.+3		;SAVE RETURN ADDRESS
  3281	003631'	505 07 0 17 777776 		HRLI	P1,-2(P)	;SETUP FOR THE JRA
  3282	003632'	267 07 0 07 000000 		JRA	P1,(P1)		;CALL THE CALLER
  3283	003633'	304 00 0 00 003633'		  CAIA	.		;NON-SKIP RETURN
  3284	003634'	350 00 0 17 777776 		AOS	-2(P)		;SKIP RETURN
  3285	003635'	254 00 0 00 003662'		JRST	RES2		;RESTORE P2,P1
  3286
  3287	003636'	250 07 0 17 000000 	.SAVE3:	EXCH	P1,(P)		;SAVE P1 GET RETURN ADDRESS
  3288	003637'	261 17 0 00 000010 		PUSH	P,P2		;SAVE P2
  3289	003640'	261 17 0 00 000011 		PUSH	P,P3		;SAVE P3
  3290	003641'	261 17 0 00 003644'		PUSH	P,.+3		;SAVE RETURN ADDRESS
  3291	003642'	505 07 0 17 777775 		HRLI	P1,-3(P)	;SETUP FOR JRA
  3292	003643'	267 07 0 07 000000 		JRA	P1,(P1)		;AND CALL THE CALLER
  3293	003644'	304 00 0 00 003644'		  CAIA	.		;NON-SKIP
  3294	003645'	350 00 0 17 777775 		AOS	-3(P)		;SKIP RETURN
  3295	003646'	254 00 0 00 003661'		JRST	RES3		;AND RESTORE P3,P2,P1
  3296
  3297	003647'	250 07 0 17 000000 	.SAVE4:	EXCH	P1,(P)		;SAVE P1 GET RETURN ADDRESS
  3298	003650'	261 17 0 00 000010 		PUSH	P,P2		;SAVE P2
  3299	003651'	261 17 0 00 000011 		PUSH	P,P3		;SAVE P3
  3300	003652'	261 17 0 00 000012 		PUSH	P,P4		;SAVE P4
  3301	003653'	261 17 0 00 003656'		PUSH	P,.+3		;SAVE RETURN ADDRESS
  3302	003654'	505 07 0 17 777774 		HRLI	P1,-4(P)	;SETUP FOR RETURN
  3303	003655'	267 07 0 07 000000 		JRA	P1,(P1)		;AND RETURN
  3304	003656'	304 00 0 00 003656'		  CAIA	.		;NON-SKIP RETURN
  3305	003657'	350 00 0 17 777774 		AOS	-4(P)		;SKIP RETURN
  3306	003660'	262 17 0 00 000012 	RES4:	POP	P,P4		;RESTORE P4
  3307	003661'	262 17 0 00 000011 	RES3:	POP	P,P3		;RESTORE P3
  3308	003662'	262 17 0 00 000010 	RES2:	POP	P,P2		;RESTORE P2
  3309	003663'	262 17 0 00 000007 	RES1:	POP	P,P1		;RESTORE P1
  3310	003664'	263 17 0 00 000000 		POPJ	P,		;AND RETURN
GSCN  --  Command Scanner Interface for DIAGNOSTICS	MACRO %53(1020) 10:54 19-Feb-79 Page 8
GCOM	MAC	22-May-78 10:54		.SAVET -- Routine to save the temporary ACS                                        SEQ 0400

  3311					SUBTTL .SAVET -- Routine to save the temporary ACS
  3312
  3313	003665'	250 03 0 17 000000 	.SAVET:	EXCH	T1,(P)		;SAVE T1 AND GET RETURN ADDRESS
  3314	003666'	261 17 0 00 000004 		PUSH	P,T2		;SAVE T2
  3315	003667'	261 17 0 00 000005 		PUSH	P,T3		;SAVE T3
  3316	003670'	261 17 0 00 000006 		PUSH	P,T4		;SAVE T4
  3317	003671'	261 17 0 00 003674'		PUSH	P,.+3		;SAVE RETURN ADDRESS
  3318	003672'	505 03 0 17 777774 		HRLI	T1,-4(P)	;SETUP FOR JRA
  3319	003673'	267 03 0 03 000000 		JRA	T1,(T1)		;AND CALL THE CALLER
  3320	003674'	304 00 0 00 003674'		  CAIA	.		;RETURN HERE ON NON-SKIP
  3321	003675'	350 00 0 17 777774 		AOS	-4(P)		;RETURN HERE ON SKIP
  3322	003676'	262 17 0 00 000006 		POP	P,T4		;RESTORE T4
  3323	003677'	262 17 0 00 000005 		POP	P,T3		;RESTORE T3
  3324	003700'	262 17 0 00 000004 		POP	P,T2		;RESTORE T2
  3325	003701'	262 17 0 00 000003 		POP	P,T1		;RESTORE T1
  3326	003702'	263 17 0 00 000000 		POPJ	P,		;RETURN
GSCN  --  Command Scanner Interface for DIAGNOSTICS	MACRO %53(1020) 10:54 19-Feb-79 Page 9
GCOM	MAC	22-May-78 10:54		.SVxx  --  Routines for saving random ACS                                          SEQ 0401

  3327					SUBTTL .SVxx  --  Routines for saving random ACS
  3328
  3329
  3330					; THESE ROUTINES ARE CALLED BY THE SAVE MACRO FOR ABSOLUTE AC'S
  3331					;	13,14,15, & 16. THE MACRO FIGURES OUT WHICH ONE
  3332
  3333	003703'	250 13 0 17 000000 	.SV13:	EXCH	13,(P)		;SAVE 13 GET CALLERS ADDRESS
  3334	003704'	261 17 0 00 003707'		PUSH	P,.+3		;SAVE RETURN ADDRESS FOR CALLER
  3335	003705'	505 13 0 17 777777 		HRLI	13,-1(P)	;MAKE IT LOOK LIKE RESULT OF JSA
  3336	003706'	267 13 0 13 000000 		JRA	13,(13)		;CALL THE CALLER
  3337	003707'	304 00 0 00 003707'		  CAIA	.		;NON-SKIP RETURN
  3338	003710'	350 00 0 17 777777 		AOS	-1(P)		;SKIP RETURN
  3339	003711'	262 17 0 00 000013 		POP	P,13		;RESTORE 13
  3340	003712'	263 17 0 00 000000 		POPJ	P,		;AND RETURN
  3341
  3342	003713'	250 14 0 17 000000 	.SV14:	EXCH	14,(P)		;SAVE 14 GET CALLERS ADDRESS
  3343	003714'	261 17 0 00 003717'		PUSH	P,.+3		;SAVE RETURN ADDRESS FOR CALLER
  3344	003715'	505 14 0 17 777777 		HRLI	14,-1(P)	;MAKE IT LOOK LIKE RESULT OF JSA
  3345	003716'	267 14 0 14 000000 		JRA	14,(14)		;CALL THE CALLER
  3346	003717'	304 00 0 00 003717'		  CAIA	.		;NON-SKIP RETURN
  3347	003720'	350 00 0 17 777777 		AOS	-1(P)		;SKIP RETURN
  3348	003721'	262 17 0 00 000014 		POP	P,14		;RESTORE 14
  3349	003722'	263 17 0 00 000000 		POPJ	P,		;AND RETURN
  3350
  3351	003723'	250 15 0 17 000000 	.SV15:	EXCH	15,(P)		;SAVE 15 GET CALLERS ADDRESS
  3352	003724'	261 17 0 00 003727'		PUSH	P,.+3		;SAVE RETURN ADDRESS FOR CALLER
  3353	003725'	505 15 0 17 777777 		HRLI	15,-1(P)	;MAKE IT LOOK LIKE RESULT OF JSA
  3354	003726'	267 15 0 15 000000 		JRA	15,(15)		;CALL THE CALLER
  3355	003727'	304 00 0 00 003727'		  CAIA	.		;NON-SKIP RETURN
  3356	003730'	350 00 0 17 777777 		AOS	-1(P)		;SKIP RETURN
  3357	003731'	262 17 0 00 000015 		POP	P,15		;RESTORE 15
  3358	003732'	263 17 0 00 000000 		POPJ	P,		;AND RETURN
  3359
  3360	003733'	250 16 0 17 000000 	.SV16:	EXCH	16,(P)		;SAVE 16 GET CALLERS ADDRESS
  3361	003734'	261 17 0 00 003737'		PUSH	P,.+3		;SAVE RETURN ADDRESS FOR CALLER
  3362	003735'	505 16 0 17 777777 		HRLI	16,-1(P)	;MAKE IT LOOK LIKE RESULT OF JSA
  3363	003736'	267 16 0 16 000000 		JRA	16,(16)		;CALL THE CALLER
  3364	003737'	304 00 0 00 003737'		  CAIA	.		;NON-SKIP RETURN
  3365	003740'	350 00 0 17 777777 		AOS	-1(P)		;SKIP RETURN
  3366	003741'	262 17 0 00 000016 		POP	P,16		;RESTORE 16
  3367	003742'	263 17 0 00 000000 		POPJ	P,		;AND RETURN
GSCN  --  Command Scanner Interface for DIAGNOSTICS	MACRO %53(1020) 10:54 19-Feb-79 Page 10
GCOM	MAC	22-May-78 10:54		.POPJ, .RETE,.RETT & .RETF -- Common return routines                               SEQ 0402

  3368					SUBTTL .POPJ, .RETE,.RETT & .RETF -- Common return routines
  3369
  3370
  3371					; $RETE calls .RETE to set up the last GALAXY error and location
  3372					; then set TF = FALSE and return.
  3373
  3374	003743'	552 00 0 00 003561'	.RETE:	HRRZM	TF,.LGEPC	;CALLED VIA JSP TF, SO SET UP PC OF LAST ERROR
  3375	003744'	550 01 1 00 003561'		HRRZ	S1,@.LGEPC	;NOW FETCH ERROR CODE
  3376	003745'	202 01 0 00 003560'		MOVEM	S1,.LGERR	;AND REMEMBER IT
  3377									;FALL INTO .RETF
  3378
  3379					; .RETT AND .RETF are called via the $RETT and $RETF macros and can also
  3380					; be called directly.  They both set the value of TF, one to TRUE and the other
  3381					; to FALSE.  After doing this, they return via a POPJ P,
  3382
  3383					;The .POPJ  routine can be jumped
  3384					; to get a return, without changing the value in the TF register
  3385
  3386	003746'	634 00 0 00 000000 	.RETF:	TDZA	TF,TF		;CLEAR VALUE MEANS FALSE
  3387	003747'	474 00 0 00 000000 	.RETT:	SETO	TF,		;ALL ONES MEANS TRUE
  3388	003750'	263 17 0 00 000000 	.POPJ:	POPJ	P,		;RETURN
GSCN  --  Command Scanner Interface for DIAGNOSTICS	MACRO %53(1020) 10:54 19-Feb-79 Page 11
GCOM	MAC	22-May-78 10:54		.AOS, .SOS and .ZERO - Support for INCR,DECR, ZERO                                 SEQ 0403

  3389					SUBTTL .AOS, .SOS and .ZERO - Support for INCR,DECR, ZERO
  3390
  3391					; These routines are never used directly, but are available for the
  3392					; INCR, DECR and ZERO macros to use when the field is neither a fullword
  3393					; or either half word.
  3394
  3395	003751'	261 17 0 00 000000 	.AOS:	PUSH	P,TF			;SAVE REGISTER WE WILL USE
  3396	003752'	550 00 0 17 777777 		HRRZ	TF,-1(P)		;GET LOCATION OF JUMP [POINTR()]
  3397	003753'	261 17 1 00 000000 		PUSH	P,@TF			;STORE IN ON THE STACK
  3398	003754'	135 00 1 17 000000 		LDB	TF,@0(P)		;GET THE BYTE TO BE INCREASED
  3399	003755'	344 00 0 00 003767'		AOJA	TF,ZERO.1		;INCREASE IT AND RETURN
  3400
  3401	003756'	261 17 0 00 000000 	.SOS:	PUSH	P,TF			;SAVE TF
  3402	003757'	550 00 0 17 777777 		HRRZ	TF,-1(P)		;PICK UP LOCATION OF CALL
  3403	003760'	261 17 1 00 000000 		PUSH	P,@TF			;SAVE ADDR OF POINTER ON STACK
  3404	003761'	135 00 1 17 000000 		LDB	TF,@0(P)		;GET THE BYTE
  3405	003762'	364 00 0 00 003767'		SOJA	TF,ZERO.1		;DECREASE BY ONE AND RETURN
  3406
  3407
  3408	003763'	261 17 0 00 000000 	.ZERO:	PUSH	P,TF			;SAVE TF
  3409	003764'	550 00 0 17 777777 		HRRZ	TF,-1(P)		;GET ADDR OF CALL
  3410	003765'	261 17 1 00 000000 		PUSH	P,@TF			;SAVE ADDR OF POINTER ON THE STACK
  3411	003766'	400 00 0 00 000000 		SETZ	TF,			;GET A ZERO BYTE
  3412	003767'	137 00 1 17 000000 	ZERO.1:	DPB	TF,@0(P)		;STORE IT BACK
  3413	003770'	262 17 0 00 000000 		POP	P,TF			;CLEAR POINTER OF STACK
  3414	003771'	262 17 0 00 000000 		POP	P,TF			;RESTORE TF
  3415	003772'	263 17 0 00 000000 		POPJ	P,			;THEN RETURN
GSCN  --  Command Scanner Interface for DIAGNOSTICS	MACRO %53(1020) 10:54 19-Feb-79 Page 12
GCOM	MAC	22-May-78 10:54		STOP CODE Processor                                                                SEQ 0404

  3416					SUBTTL STOP CODE Processor
  3417
  3418					; This routine handles the call caused by the 	$STOP Macro
  3419
  3420	003773'	202 00 0 00 003534'	.STOP:	MOVEM	0,.SACS			;STORE FIRST AC
  3421	003774'	200 00 0 00 005115'		MOVE	0,[XWD 1,.SACS+1]	;SET FOR THE REST
  3422	003775'	251 00 0 00 003553'		BLT	0,.SACS+17		;STORE THEM ALL
  3423	003776'	200 03 0 17 000000 		MOVE	T1,0(P)			;GET LOCATION CALLED FROM
  3424	003777'	200 04 1 03 000000 		MOVE	T2,@0(T1)		;THEN GET POINTER WORD TO CODE
  3425	004000'	512 04 0 00 003532'		HLLZM	T2,.SCODE		;STORE SIXBIT CODE
  3426	004001'	201 05 1 03 000000 		MOVEI	T3,@0(T1)		;GET LOCATION THAT XWD FETCHED FROM
  3427	004002'	271 05 0 00 000001 		ADDI	T3,1			;THEN INCREMENT TO MODULE NAME
  3428	004003'	201 03 0 03 777777 		MOVEI	T1,-1(T1)		;GET ACTUAL LOCATION OF 'PUSHJ P,.STOP'
  3429	004004'	202 03 0 00 003531'		MOVEM	T1,.SPC			;REMEMBER IT
  3430
  3431		037740	000001			OPDEF	PNTALF	[37B8!17B12!1]
  3432		037040	000002			OPDEF	PNTSXF	[37B8!1B12!2]
  3433		037300	000001			OPDEF	PNT6F	[37B8!6B12!1]
  3434		037040	004023'			OPDEF	PCRLF	[37B8!1B12!CRLF]
  3435		037040	000000			OPDEF	PNTCIF	[37B8!1B12!0]
  3436
  3437						MOVEI	[ASCIZ/
  3438	004005'	201 00 0 00 005116'	?STOP CODE - /]
  3439	004006'	037 17 0 00 000001 		PNTALF
  3440	004007'	554 00 0 00 000004 		HLRZ	0,T2
  3441	004010'	037 01 0 00 000002 		PNTSXF
  3442						MOVEI	[ASCIZ/
  3443	004011'	201 00 0 00 005122'	  REASON: /]
  3444	004012'	037 17 0 00 000001 		PNTALF
  3445	004013'	550 00 0 00 000004 		HRRZ	0,T2
  3446	004014'	037 17 0 00 000001 		PNTALF
  3447						MOVEI	[ASCIZ/
  3448	004015'	201 00 0 00 005125'	  ERROR PC = /]
  3449	004016'	037 17 0 00 000001 		PNTALF
  3450	004017'	200 00 0 00 003531'		MOVE	.SPC
  3451	004020'	037 06 0 00 000001 		PNT6F
  3452	004021'	037 01 0 00 004023'		PCRLF
  3453	004022'	047 00 0 00 000012 		EXIT
  3454	004023'				CRLF:	ASCIZ/
  3455	004023'	015 012 000 000 000 	/
GSCN  --  Command Scanner Interface for DIAGNOSTICS	MACRO %53(1020) 10:54 19-Feb-79 Page 13
GCOM	MAC	22-May-78 10:54		STOP CODE Processor                                                                SEQ 0405

  3456
  3457						REPEAT	0,<
  3458						SETOM	TXTLVL##		;MAKE SURE TEXT WON'T STOP US
  3459						$TEXT(T%TTY,<?Stop code - ^W/T2,LHMASK/ - in module ^W/0(T3)/ on ^H9/[-1]/ at ^C/[-
  3460					1]/>)
  3461						$TEXT(T%TTY,<  Reason: ^T/0(T2)/>)
  3462						$TEXT(T%TTY,<  Program is ^W/.SPRGM/ Version ^V/.SPVER/ using GLXLIB Version ^V/.SP
  3463					LIB/>)
  3464						$TEXT(T%TTY,<  Last  GLXLIB error: ^O/.LGERR,RHMASK/ (^E/.LGERR/)>)
  3465					IFN FTJSYS,<
  3466						MOVX	S1,.FHSLF		;FOR SELF,
  3467						GETER				;LOOK UP MOST RECENT ERROR
  3468						 ERJMP	.+1			;IGNORE ANY ERRORS
  3469						MOVEM	S2,.SERR		;SAVE THE ERROR
  3470						$TEXT(T%TTY,<  Last TOPS-20 error: ^O/.SERR,RHMASK/ (^A>)
  3471						MOVX	S1,.PRIOU		;TO PRIMARY OUTPUT
  3472						HRLI	S2,.FHSLF		;SET FOR SELF
  3473						SETZ	T1,			;INFINITE BYTES
  3474						ERSTR				;PRINT ERROR STRING
  3475						  JFCL				;
  3476						  JFCL				;TWO POSSIBLE ERROR RETURNS
  3477						$TEXT(T%TTY,<) >)
  3478					>
  3479						HRRZ	P1,DDTADR		;GET DDT'S ADDRESS
  3480						JUMPE	P1,STOP.1		;IF NOT THERE, TYPE OUT ACS AND EXIT
  3481						PUSH	P,P1			;SAVE IT ON THE STACK
  3482						$TEXT(T%TTY,<^M^J  Entering DDT	(Crash block starts at loc ^O/[.SPC]/)>)
  3483						MOVSI	16,.SACS		;RESTORE THE ACS
  3484						BLT	16,16			;TO THE USER
  3485						POPJ	P,			;GO ENTER DDT
  3486
  3487					STOP.1:	$TEXT(T%TTY,<^M^JContents of the ACs  (Crash block starts at location ^O/[.SPC]/)^M
  3488					^J>)
  3489						MOVEI	S1,0			;START WITH AC 0
  3490					STOP.2:$TEXT(T%TTY,< ^O2/S1//^O15/.SACS(S1)/^O15/.SACS+1(S1)/^O15/.SACS+2(S1)/^O15/.SACS+3(
  3491					S1)/>)
  3492						ADDI	S1,4			;STEP TO NEXT FOUR
  3493						CAIE	S1,20			;LOOP FOR ALL ACS
  3494						JRST	STOP.2			;
  3495						$TEXT(T%TTY,<^M^JLast 9 Stack Locations:^M^J>)
  3496						$TEXT(T%TTY,< -1(P)/^O15/-1(P)/   -2(P)/^O15/-2(P)/   -3(P)/^O15/-3(P)/>)
  3497						$TEXT(T%TTY,< -4(P)/^O15/-4(P)/   -5(P)/^O15/-5(P)/   -6(P)/^O15/-6(P)/>)
  3498						$TEXT(T%TTY,< -7(P)/^O15/-7(P)/   -8(P)/^O15/-8(P)/   -9(P)/^O15/-9(P)/>)
  3499						PJRST	I%EXIT			;EXIT FROM THE PROGRAM
  3500					>
GSCN  --  Command Scanner Interface for DIAGNOSTICS	MACRO %53(1020) 10:54 19-Feb-79 Page 14
GCOM	MAC	22-May-78 10:54		STOP CODE Processor                                                                SEQ 0406

  3501	004024'				COM%L:
  3502						END

NO ERRORS DETECTED

PROGRAM BREAK IS 005131
CPU TIME USED 00:31.191

52P CORE USED
GSCN  --  Command Scanner Interface for DIAGNOSTICS	MACRO %53(1020) 10:54 19-Feb-79 Page S-1
GCOM	MAC	22-May-78 10:54		SYMBOL TABLE                                                                       SEQ 0407

ARGLOC		002645'		CM%NOP	200000	000000	sin	CMINI1		001265'		CMSWF		200000	spd
ATBPTR		000056'		CM%NOR		000002	sin	CMINI2		001266'		CMSWTM		000072	spd
ATBSIZ		000057'		CM%PFE	010000	000000	sin	CMINI3		001272'		CMTAB		004405'
BCKFLG		002646'		CM%RAI	004000	000000	sin	CMINI4		001313'		CMTAB1		001452'
BEGBUF		003512'		CM%RPT	040000	000000	sin	CMINI5		001322'		CMTAB2		001460'
BGBUFR		002653'		CM%SDH	000001	000000	sin	CMKEY0		001346'		CMTF1		002000	spd
BGLINE		002652'		CM%SWT	020000	000000	sin	CMNH		001772'		CMTOK1		002341'
BIGSIZ		000111'		CM%VRQ	400000	000000	sin	CMNH10		001771'		CMTOK2		002343'
BITS		000000'		CM%XIF	002000	000000	sin	CMNH8		001767'		CMUQS1		002041'
BP.POS	770000	000000	spd	CMAMB		001165'		CMNOD	400000	000000	spd	CMUSOU		001175'
BTBL		003341'		CMAPC		001144'		CMNOI1		001614'		CMUSRF		100000	spd
BTBLL		000004	spd	CMATFI		002062'		CMNOI2		001617'		COBP.1		003224'
C		000016	spd	CMBOL		004000	spd	CMNOI3		001624'		COCTAB		002641'
C7TO6		002315'		CMCBLF		000076'		CMNOI4		001630'		COM%L		004024'
CBRK		003314'		CMCCM		000062'		CMNUM1		001702'		COMN1		000175'
CBRK.1		003324'		CMCFF		020000	spd	CMNUMH		001741'		CONVBP		003206'
CBRK.2		003325'		CMCFM0		001646'		CMNUMR		001675'		CONVRT		003171'
CBRK.3		003332'		CMCHR		002437'		CMNXT1		001510'		CR.FLG		000000	spd
CBRK.4		003337'		CMCIN		000765'		CMNXTE		001472'		CR.FNB		000002	spd
CCDEL		003441'		CMCIN1		000777'		CMQ1		001431'		CR.RES		000001	spd
CCDL.1		003456'		CMCIN2		001032'		CMQ2		001434'		CR.SIZ		000003	spd
CCDL.2		003462'		CMCIN3		001056'		CMQ3		001465'		CRBLK		000103'
CCR		003421'		CMCIN4		001067'		CMQTCH		000042	spd	CRLF		004023'
CCR.1		003426'		CMCMT1		000310'		CMQUE2		010000	spd	CURESC		002650'
CCU		003376'		CMCMT2		000307'		CMQUES		400000	spd	CURPOS		000114'
CCU.1		003404'		CMCOM		000311'		CMRAT1		000620'		DBP		001136'
CCU.2		003410'		CMCOM1		000041	spd	CMRAT2		000621'		DEVSP1		002237'
CCU.3		003411'		CMCOM2		000073	spd	CMRAT3		000641'		DEVSUP		004024'
CCW		003470'		CMCONC		000055	spd	CMRATM		000571'		DOHLP		001152'
CCW.1		003474'		CMCOUT		001173'		CMRATR		000643'		ECHO		003273'
CCW.2		003505'		CMCSAC		000066'		CMRATT		000644'		ECHO.1		003302'
CCW.3		003511'		CMCSC		000075'		CMRBRK		000064'		ECHO.2		003306'
CFNTAB		000324'		CMCSF		000065'		CMRDOC		000010	spd	ECHO.3		003310'
CFRAT1		000650'		CMDCH		001110'		CMRFIL		000577'		EOLBRK		000611'
CFRAT2		000651'		CMDEFC		000043	spd	CMRFLD		000615'		EREOF$		000001	spd
CFRAT3		000671'		CMDEFF		040000	spd	CMRQS1		000725'		EXIT	047000	000012
CFRATR		000673'		CMDEV1		002011'		CMRQS2		000740'		EXTSP1		002223'
CFRATT		000674'		CMDEVH		002026'		CMRQST		000716'		EXTSUP		002215'
CFRFLD		000645'		CMDIB		001130'		CMRSET		000357'		F		000014	spd
CHKAB1		001243'		CMDIBQ		001131'		CMRSP1		000701'		F%IBYT		000153'
CHKABP		001240'		CMDIP		001116'		CMRSPC		000676'		F%IOPN		000155'
CHKBP		001252'		CMDIRH		002376'		CMRSTR		000675'		F%REL		000157'
CHKLCH		000754'		CMFH1		002336'		CMRTY1		000470'		FB.BSZ		000077	spd
CHKTBS		002455'		CMFHLP		002322'		CMRTY2		000472'		FB.LSN		000200	spd
CLINE		003260'		CMFLD1		002052'		CMRTY3		000473'		FD.LEN		777777	spd
CM%DPP	000002	000000	sin	CMFREC		000006	spd	CMRTY4		000477'		FDXSIZ		000012	spd
CM%EOC	100000	000000	sin	CMGT.1		001573'		CMRTY5		000500'		FILBRK		000601'
CM%ESC	400000	000000	sin	CMGTLN		001572'		CMRTY6		000505'		FILI.1		002121'
CM%FFL	000777	000000	sin	CMHLPC		000077	spd	CMRTY7		000506'		FILI.2		002137'
CM%FNC	777000	000000	sin	CMIND		000512'		CMRTYP		000450'		FILI.3		002154'
CM%GJB		777777	sin	CMIND1		000541'		CMSKSP		001072'		FILI.4		002170'
CM%HPP	000004	000000	sin	CMIND2		000555'		CMSO.1		001203'		FILIN		002101'
CM%INV		000001	sin	CMINDC		000100	spd	CMSO.2		001207'		FINT.1		003033'
CM%LST		777777	sin	CMINDE		000562'		CMSOUT		001175'		FINTXT		003023'
CM%NJF	000020	000000	sin	CMINDF		001000	spd	CMSWCH		000057	spd	FLDBRK		000573'
GSCN  --  Command Scanner Interface for DIAGNOSTICS	MACRO %53(1020) 10:54 19-Feb-79 Page S-2
GCOM	MAC	22-May-78 10:54		SYMBOL TABLE                                                                       SEQ 0408

FNARG		000061'		NPXAMB		000011	spd	RD%NEC		000001	spd	STRG		000100'
FOB.CW		000001	spd	NPXCMA		000013	spd	RD%PUN	100000	000000	spd	STYP.2		002720'
FOB.FD		000000	spd	NPXICN		000006	spd	RD%RAI	000200	000000	spd	SUBBP		001077'
FTJSYS		000000	sin	NPXIDT		000007	spd	RD%RND	010000	000000	spd	T1		000003	spd
FTOK.1		002301'		NPXINW		000004	spd	RD%SUI	000100	000000	spd	T2		000004	spd
FTOKEN		002277'		NPXNC		000005	spd	RD%TOP	200000	000000	spd	T3		000005	spd
FTUUOS	777777	777777	sin	NPXNMT		000012	spd	REMSTR		000101'		T4		000006	spd
GETCOC		003264'		NPXNNC		000014	spd	RES1		003663'		TABDON		000106'
GETIT	262740	000000		NPXNNI		000015	spd	RES2		003662'		TABLK0		002541'
GJ%OLD	100000	000000		NPXNOM		000002	spd	RES3		003661'		TABLK1		002561'
GLXVRS	000100	000027	spd	NPXNQS		000010	spd	RES4		003660'		TABLK2		002600'
GO	260740	000000		NPXNSN		000016	spd	RTN	263740	000000		TABLK3		002564'
HB.RTC	000010	000000	spd	NPXNSW		000001	spd	RUBFLG		002644'		TABLKA		002557'
HIBER	047000	000072		NPXNUL		000003	spd	S%CMND		000146'	ent	TABLKF		002546'
I%IOFF		002655'		NUMBRK		001704'		S%ERR		000140'	ent	TABLKM		002555'
I%ION		002654'		NUMI.1		001732'		S%INIT		000133'	ent	TABLKN		002623'
IB.PID		000004	spd	NUMIN		001714'		S%SCMP		002463'	ent	TABLKX		002556'
IB.PRG		000000	spd	NUXBRK		001710'		S%TBLK		002516'	ent	TABSIZ		000107'
IB.VER		000005	spd	OPEN	050000	000000		S..ABS		000750'	int	TBA		000077'
IFOB		000116'		OUTCHR	051040	000000		S..BDS		004116'	int	TBLK2A		002613'
IIFN		000117'		OUTSTR	051140	000000		S..BFC		000241'	int	TBLKN1		002633'
IMGS.1		003254'		P		000017	spd	S..BTF		004752'	int	TF		000000	spd
IMGSTR		003250'		P1		000007	spd	S..COT		002657'	int	TI		000120'
INCHRW	051000	000000		P2		000010	spd	S..DPP		002271'	int	TIELCH		000757'
INILCH		000742'		P3		000011	spd	S..FSE		003132'	int	TL%ABR	100000	000000	spd
IO.LEM		000100	spd	P4		000012	spd	S..FSO		000155'	int	TL%AMB	200000	000000	spd
IO.SUP		000200	spd	P5		000013	spd	S..FSR		000157'	int	TL%EXM	040000	000000	spd
IO.TEC		000400	spd	PAGSIZ		001000	spd	S..IBN		001750'	int	TL%NOM	400000	000000	spd
IONDX.	047000	000127		PCALL		000055'		S..IBP		003207'	int	TRMOP.	047000	000116
JUMPF	322000	000000		PCRLF	037040	004023'		S..IIP		003234'	int	TRMPTR		002643'
JUMPT	321000	000000		PJRST	254000	000000	spd	S..NNS		002200'	int	TRMTYP		002651'
K%INIT		002656'	ent	PJUMPN	326000	000000	spd	S..NOD		002060'	int	TRMUDX		000131'
K%RCOC		002674'	ent	PNT6F	037300	000001		S..SDT		001774'	int	TTSET		002753'
K%STYP		002715'	ent	PNTALF	037740	000001		S..SFP		001662'	int	TTTAB		002741'
K%SUET		002700'	ent	PNTCIF	037040	000000		S..TMT		001033'	int	TTTABL		000012	spd
K%TXTI		003001'	ent	PNTSXF	037040	000002		S..TNO		003002'	int	TTYC.1		003143'
K%WCOC		002676'	ent	PPNBRK		002355'		S..TRI		001311'	int	TTYCHR		003134'
KBD%L		003531'		PPNIN		002405'		S..WVG		003572'	int	TTYFLG		002640'
KEY1		001531'		PPNSP1		002256'		S1		000001	spd	TXTL		003042'
KEY2		001533'		PPNSUP		004025'		S2		000002	spd	TXTL.1		003063'
KEY3		001544'		PUNTAB		003345'		SC%GTR	100000	000000	spd	TXTL.2		003073'
KEY4		001545'		PUT	261740	000000		SC%LSS	400000	000000	spd	TXTL.3		003104'
KEYSIZ		000112'		PWIDTH		000113'		SC%SUB	200000	000000	spd	TXTL.4		003110'
KEYTAB		001514'		Q1		000015	spd	SCN%L		002640'		TXTL.5		003122'
KEYW1		001346'		Q2		000016	spd	SCTBL		003372'		TXTL.6		003132'
KEYW2		001371'		Q3SAVE		000115'		SCTBLL		000004	spd	TYPE.1		003523'
KEYW3		001377'		RD		000044'		SETVT5		002765'		TYPE.2		003527'
KEYW4		001412'		RD%BBG	001000	000000	spd	SKPINC	051540	000000		TYPEBP		003516'
LSTERR		000110'		RD%BEL	040000	000000	spd	SPCH.1		003361'		TYPTAB		001551'
MAKBP		003241'		RD%BFE	000020	000000	spd	SPCHK		003360'		TYPTB1		001554'
MAXCFN		000027	spd	RD%BLR	000010	000000	spd	STKFEN		000060'		TYPTB2		001564'
NAMSP1		002176'		RD%BRK	400000	000000	spd	STOC		003146'		UESCTB		002647'
NODSIX		000132'		RD%BTM	000040	000000	spd	STOC.1		003152'		USRBRK		000605'
NOIBCH		000050	spd	RD%CRF	020000	000000	spd	STOLCH		000747'		USTCMP		002476'	int
NOIECH		000051	spd	RD%JFN	004000	000000	spd	STRC2		002511'		USTO.1		003161'
GSCN  --  Command Scanner Interface for DIAGNOSTICS	MACRO %53(1020) 10:54 19-Feb-79 Page S-3
GCOM	MAC	22-May-78 10:54		SYMBOL TABLE                                                                       SEQ 0409

USTOC		003155'		%%.GLX		000005	spd	.LGERR		003560'
XCMACT		002055'		..T		000000	spd	.POPJ		003750'	ent
XCMCFM		001643'		.AOS		003751'	ent	.PRIIN		000100
XCMCMA		002435'		.CHBEL		000007	spd	.PRIOU		000101
XCMDEV		001777'		.CHBSL		000134	spd	.RDBFP		000005	spd
XCMDIR		002361'		.CHCRT		000015	spd	.RDBKL		000010	spd
XCMFIL		002064'		.CHDEL		000177	spd	.RDBRK		000007	spd
XCMFLD		002051'		.CHESC		000033	spd	.RDCWB		000000	spd
XCMFLT		001662'		.CHLFD		000012	spd	.RDDBC		000004	spd
XCMIFI		002064'		.CHTAB		000011	spd	.RDDBP		000003	spd
XCMINI		001260'		.CMABC		000010	sin	.RDFLG		000001	spd
XCMKEY		001345'		.CMABP		000007	sin	.RDIOJ		000002	spd
XCMNOD		002060'		.CMACT		000025	sin	.RDRTY		000006	spd
XCMNOI		001607'		.CMBFP		000003	sin	.RDSIZ		000011	spd
XCMNUM		001665'		.CMCFM		000010	spd	.RETE		003743'	ent
XCMNUX		001664'		.CMCMA		000013	sin	.RETF		003746'	ent
XCMOFI		002064'		.CMCNT		000005	sin	.RETT		003747'	ent
XCMQST		002033'		.CMDAT		000001	sin	.S%CMN		000161'
XCMSWI		001331'		.CMDEF		000003	sin	.SACS		003534'
XCMTAD		001774'		.CMDEV		000016	sin	.SAVE1		003617'	ent
XCMTOK		002340'		.CMDIR		000011	sin	.SAVE2		003626'	ent
XCMTXT		001602'		.CMFIL		000006	sin	.SAVE3		003636'	ent
XCMUQS		002041'		.CMFLD		000007	sin	.SAVE4		003647'	ent
XCMUSR		002361'		.CMFLG		000000	sin	.SAVET		003665'	ent
XCOM1		000226'		.CMFLT		000015	sin	.SCODE		003532'
XCOM2		000266'		.CMFNP		000000	sin	.SERR		003533'
XCOM3		000267'		.CMGJB		000011	sin	.SOS		003756'	ent
XCOM4		000271'		.CMHLP		000002	sin	.SPC		003531'
XCOM5		000274'		.CMIFI		000004	sin	.SPLIB		003557'
XCOM6		000301'		.CMINC		000006	sin	.SPRGM		003555'
XCOMEO		000464'		.CMINI		000014	sin	.SPTBL		003554'
XCOMN0		000222'		.CMIOJ		000001	sin	.SPVER		003556'
XCOMND		000176'	int	.CMKEY		000000	sin	.STOP		003773'	ent
XCOMNE		000435'		.CMNOD		000026	sin	.SV13		003703'	ent
XCOMNP		000436'		.CMNOI		000002	sin	.SV14		003713'	ent
XCOMRF		000353'		.CMNUM		000001	sin	.SV15		003723'	ent
XCOMRP		000375'		.CMNUX		000024	sin	.SV16		003733'	ent
XCOMX1		000417'		.CMOFI		000005	sin	.TCEOL		000000	spd
XCOMX2		000422'		.CMPTR		000004	sin	.TOLCT		001003	spd
XCOMXI		000410'		.CMQST		000021	sin	.TOSET		001000	spd
XCOMXL		000364'		.CMRTY		000002	sin	.TOTYP		000021	spd
XCOMXR		000406'		.CMSWI		000003	sin	.TOWID		001012	spd
XMCOUT		001211'		.CMTAD		000020	sin	.TT33		000000	spd
XMCS.1		001230'		.CMTOK		000023	sin	.TT35		000001	spd
XMCS.2		001236'		.CMTXT		000017	sin	.TT37		000002	spd
XMCSPC		001225'		.CMUQS		000022	sin	.TTEXE		000003	spd
XMSO.1		001220'		.CMUSR		000012	sin	.TTL30		000012	spd
XMSOUT		001215'		.FDEXT		000005		.TTL36		000014	spd
XTLOK0		002525'		.FDLEN		000000	spd	.TTV05		000010	spd
XTLOOK		002523'	int	.FDNAM		000004		.TTV50		000011	spd
XX		000044	spd	.FDPPN		000003		.TTV52		000015	spd
XXXPTR		000102'		.FDSTR		000002		.ZCHNK		003605'	ent
ZCHN.1		003607'		.INIT		003562'	ent	.ZERO		003763'	ent
ZERO.1		003767'		.IOASC		000000	spd	.ZPAGA		003600'	ent
$CCLIN		000153'	ext	.LGEPC		003561'		.ZPAGN		003575'	ent

ARGLOC	  2378#	  2632	  2638	  2639	  2662
ATBPTR	   139#	   822	   831	   845	  1181	  1503	  1793	  2038                                                     SEQ 0410
ATBSIZ	   140#	   824	   829	   837	   842
BCKFLG	  2379#	  2645	  2654	  2683	  2793
BEGBUF	  3053	  3085	  3108#
BGBUFR	  2385#	  2829	  3052
BGLINE	  2384#	  2828	  3005	  3044	  3084	  3089
BIGSIZ	   157#	  1285	  1344
BITS	   131#	   720	   754	  1691
BP.POS	  1961	  2851	  2854
BTBL	  2932	  2935	  2950#	  2955
BTBLL	  2930	  2955#
C	    88#	  2360#	  2633	  2688	  2689	  2699	  2705	  2706	  2718	  2738	  2747	  2748	  2750	  2752
	  2753	  2774	  2780	  2784	  2805	  2807	  2808	  2810	  2811	  2815	  2863	  2867	  2868	  2884
	  2896	  2903	  2910	  2915	  2923	  2940	  2983	  3057	  3068	  3093	  3099
C7TO6	  1953	  1965#
CBRK	  2729	  2921#
CBRK.1	  2922	  2930#
CBRK.2	  2932#	  2944
CBRK.3	  2938#	  2942
CBRK.4	  2934	  2939	  2944#
CCDEL	  2994	  3051#
CCDL.1	  3060	  3068#
CCDL.2	  3069	  3073#
CCR	  2996	  3031#	  3076	  3102
CCR.1	  3033	  3036#
CCU	  2995	  3004#	  3009
CCU.1	  3007	  3011#
CCU.2	  3012	  3018#
CCU.3	  3016	  3020#
CCW	  2997	  3082#
CCW.1	  3087#	  3098
CCW.2	  3097#	  3100
CCW.3	  3090	  3102#
CFNTAB	   348	   388	   440#	   465
CFRAT1	   738#	   746	   759
CFRAT2	   739#
CFRAT3	   758#
CFRATR	   748	   757	   761#
CFRATT	   737	   741	   745	   751	   762#
CFRFLD	   672	   735#
CHKAB1	  1102#	  1108
CHKABP	   314	  1099#
CHKBP	   397	  1106	  1113#	  1407
CHKLCH	   401	   704	   710	   744	   786	   836#	  1237
CHKTBS	  1303	  1315	  2112#	  2217	  2222	  2243	  2259	  2267
CLINE	  2876#	  3018	  3034
CM%DPP	   340	   373	   392
CM%EOC	   333	   866
CM%ESC	   320	   333	   407	   413	   511	   513	   517	   860	   863	   973	  1026	  1209	  1218	  1411
	  1644	  1657	  1868	  1885	  1891	  1913	  1933	  2031
CM%FFL	   336	   337	   527
CM%FNC	   344	   370	   387
CM%GJB	   611	   612	  1805	  1806	  1983	  1984
CM%HPP	  1015                                                                                                             SEQ 0411
CM%INV	  1304
CM%LST	   543	   544	   552	   553
CM%NJF	   874
CM%NOP	   333	   546	   564	   609	   650
CM%NOR	  1304	  2223	  2268
CM%PFE	   319	   321	  1409
CM%RAI	   876
CM%RPT	   301	   333	   486	   499
CM%SDH	  1265	  1401	  1454	  1555	  1666	  1683	  1978	  2007	  2045	  2095
CM%SWT	   333	  1219	  1234	  1245
CM%VRQ	  1229	  1249
CM%XIF	   365
CMAMB	   429	   706	   781	  1026#	  1177	  1206	  1459	  1646	  2003	  2032	  2091
CMAPC	  1002#
CMATFI	   602	  1778#
CMBOL	   224#	   333	   335	   375
CMCBLF	   148#	   870	   905
CMCCM	   143#	   323	   524
CMCFF	   222#	   333	   405	   515	   860	   973
CMCFM0	   604	  1443	  1447#	  1450	  1460
CMCHR	  2082#	  2085	  2092
CMCIN	   353	   355	   358	   421	   423	   701	   738	   775	   798	   804	   809	   854#	   856	   937
	  1174	  1243	  1424	  1428	  1447	  1647	  1689	  1997	  2082
CMCIN1	   470	   855	   869#
CMCIN2	   896#	   915
CMCIN3	   911	   914	   917#
CMCIN4	   904	   918	   931#
CMCMT1	   363	   420#
CMCMT2	   361	   419#
CMCOM	   421#	   425	   430	   436
CMCOM1	   237#	   362
CMCOM2	   238#	   360
CMCONC	   244#	   354	   422
CMCOUT	   557	   581	   587	   595	   983	  1018	  1030	  1037#	  1135	  2009	  2013	  2097	  2099	  2101
CMCSAC	   146#	   871	   872	   921	   931
CMCSC	   147#	   887	   919
CMCSF	   145#	   869	   924	   932
CMDCH	   394	   512	   961#	  1028	  1213	  1431
CMDEFC	   239#
CMDEFF	   221#	   333	   399	   699	   736	   773	   796	  1172
CMDEV1	  1650#
CMDEVH	  1642	  1664#
CMDIB	   414	   519	   983#	  1216	  1233	  1413	  1415	  1418	  1661
CMDIBQ	   409	   637	   642	   984#
CMDIP	   369	   386	   432	   727	   761	   806	   812	   941	   970#	  1187	  1221	  1247	  1426	  1695
CMDIRH	  2030	  2044#
CMFH1	  1976	  1988#
CMFHLP	  1788	  1973#
CMFLD1	  1701#	  1709
CMFREC	   240#	   324	   382	   427	   702	   739	   780	   859	   913	   971	  1175	  1429	  1457	  2001
	  2089
CMGT.1	  1384#	  1386
CMGTLN	  1280	  1324	  1383#                                                                                            SEQ 0412
CMHLPC	   236#	   715	   749	   776	   799	   912	  1179	  1451	  2005	  2093
CMIND	   366	   599#
CMIND1	   627#	   632	   638
CMIND2	   629	   639#
CMINDC	   241#	   364
CMINDE	   603	   624	   645#
CMINDF	   226#	   333	  1779	  1797	  1974	  1975
CMINI1	  1131#
CMINI2	  1132#	  1136
CMINI3	  1133	  1137#
CMINI4	  1128	  1138	  1141	  1153#
CMINI5	  1144	  1161#
CMKEY0	  1173	  1189	  1193#
CMNH	  1577	  1580#
CMNH10	  1563	  1579#
CMNH8	  1565	  1576#
CMNOD	   230#	   349	   443	   453	   459
CMNOI1	  1411#
CMNOI2	  1414#	  1416	  1432
CMNOI3	  1410	  1423#
CMNOI4	  1428#	  1435
CMNUM1	  1501	  1508#
CMNUMH	  1497	  1554#
CMNUMR	  1502#
CMNXT1	  1309	  1314#
CMNXTE	  1278	  1290	  1299#	  1306
CMQ1	  1199	  1256#
CMQ2	  1185	  1263#
CMQ3	  1290#	  1294
CMQTCH	   243#	   802	   807	   810
CMQUE2	   223#	   554	   560	   599	   600	  1013	  1262
CMQUES	   218#	   538	   554	   560	   716	   750	   777	   800	  1198	  1399	  1496	  1640	  1681	  1701
	  1786	  2029
CMRAT1	   701#	   707	   712	   725
CMRAT2	   702#
CMRAT3	   724#
CMRATM	   660#	  1194	  1639	  1700
CMRATR	   714	   723	   727#	   790
CMRATT	   700	   705	   711	   717	   728#	   788
CMRBRK	   144#	   698	   721	   735	   755
CMRDOC	   242#	   325	   630	  1143
CMRFIL	   671#	  1785
CMRFLD	   661	   698#	  1495	  1708	  2028
CMRQS1	   804#	   817
CMRQS2	   808	   811	   816#
CMRQST	   796#	  1675
CMRSET	   357	   377	   410	   469	   476#	   541	   551	   626
CMRSP1	   775#	   782	   787	   792
CMRSPC	   772#
CMRSTR	   767#	  1394
CMRTY1	   379	   493	   561	   571#	  1166
CMRTY2	   577#
CMRTY3	   578#	   582                                                                                                     SEQ 0413
CMRTY4	   579	   583#
CMRTY5	   584#	   588
CMRTY6	   585	   590#
CMRTY7	   591#	   596
CMRTYP	   540	   551#	  1262	  1266	  1291	  1401	  1456	  1557	  1574	  1581	  1635	  1668	  1683	  1703
	  1980	  1989	  2007	  2014	  2047	  2050	  2095	  2102
CMSKSP	   825	   937#	   940	  1242	  1423
CMSO.1	  1052#	  1055
CMSO.2	  1050	  1057#
CMSOUT	   576	   608	  1014	  1046#	  1130	  1165	  1262	  1272	  1401	  1455	  1567	  1580	  1667	  1683
	  1988	  2049
CMSWCH	   234#	  1186	  1353
CMSWF	   219#	  1171	  1192	  1220	  1225	  1239	  1354	  1387
CMSWTM	   235#	  1217	  1232	  1244
CMTAB	  1340#	  1343	  1362
CMTAB1	  1278#	  1283
CMTAB2	  1279	  1284#
CMTF1	   225#	   767	   772	   785
CMTOK1	  1994#	  2000
CMTOK2	  1997#	  2004
CMUQS1	  1689#	  1694
CMUSOU	  1021	  1045#	  2011
CMUSRF	   220#
COBP.1	  2831	  2834#
COCTAB	  2375#	  2448	  2472	  2886
COM%L	  3501#
COMN1	   300	   303#
CONVBP	  2643	  2821#
CONVRT	  2720	  2743	  2804#
CR.FLG	   277	   529	   530
CR.FNB	   279	   526
CR.RES	   278	  1208	  1502	  1506	  1656	  1806	  2037
CR.SIZ	   153	   531
CRBLK	   153#	   277	   278	   279	   526	   529	   530	   532	   565	  1208	  1502	  1506	  1656	  1806
	  2037
CRLF	  3434	  3454#
CURESC	  2381#	  2425	  2497	  2696	  2702	  2705	  2707	  2747	  2749
CURPOS	   160#	  1087	  1091	  1093	  1273	  1339	  1350	  1361	  1364	  1372
DBP	   962	   975	   992#	  1118	  1824	  1850
DEVSP1	  1833	  1906#
DEVSUP	  1802#	  1802	  1816	  1832
DOHLP	  1011#	  1264	  1401	  1452	  1554	  1664	  1683	  1702	  1977	  2006	  2044	  2094
ECHO	  2728	  2742	  2869	  2893#	  3065
ECHO.1	  2899	  2903#
ECHO.2	  2897	  2899	  2910#	  2916
ECHO.3	  2899	  2915#
EOLBRK	   688#
EREOF$	   900	  2735
EXTSP1	  1843	  1887	  1890#
EXTSUP	  1840	  1883#
F	    90#	   297	   301	   318	   319	   320	   321	   333	   335	   337	   339	   340	   341	   365
	   373	   375	   392	   399	   405	   407	   413	   486	   499	   511	   513	   515	   517	   527
	   528	   530	   538	   546	   554	   560	   564	   599	   600	   609	   650	   699	   716	   736     SEQ 0414
	   750	   767	   772	   773	   777	   785	   796	   800	   860	   863	   866	   869	   874	   876
	   902	   903	   905	   917	   924	   932	   973	  1013	  1015	  1026	  1171	  1172	  1192	  1198
	  1209	  1218	  1219	  1220	  1225	  1234	  1239	  1245	  1262	  1265	  1354	  1387	  1399	  1401
	  1409	  1411	  1454	  1496	  1555	  1640	  1644	  1657	  1666	  1681	  1683	  1701	  1779	  1786
	  1797	  1868	  1885	  1891	  1913	  1933	  1974	  1975	  1978	  2007	  2029	  2031	  2045	  2095
F%IBYT	   282#	   628	  2734
F%IOPN	   285#	   623
F%REL	   286#	   640
FB.BSZ	   619
FB.LSN	   619
FD.LEN	  1809	  1810
FDXSIZ	  1808
FILBRK	   671	   674#
FILI.1	  1814	  1818#
FILI.2	  1818	  1822	  1832#
FILI.3	  1845#	  1884	  1888
FILI.4	  1848	  1857#
FILIN	  1791	  1802#
FINT.1	  2658	  2662#
FINTXT	  2654#	  2685	  2691	  2732	  3027	  3110
FLDBRK	   660	   663#
FNARG	   142#	   343	  1183	  1195	  1228	  1248	  1267	  1406	  1499	  1558	  1569	  1692	  1993	  2010
	  2081	  2086	  2098
FOB.CW	   620
FOB.FD	   618
FTJSYS	   177	   193	   263	  2401	  2453	  2476	  2512	  2526	  2623
FTOK.1	  1952#	  1963
FTOKEN	  1652	  1812	  1817	  1831	  1841	  1877	  1900	  1919	  1949#
FTUUOS	   169	   182	   288	  2407	  2447	  2471	  2495	  2534	  2629
GETCOC	  2813	  2884#	  2898	  3073
GJ%OLD	    21#	  1985
GLXVRS	  3228
HB.RTC	  2768
I%IOFF	   645	  2388#	  2773
I%ION	   649	  2387#	  2667	  2682	  2725
IB.PID	  3231
IB.PRG	  3222
IB.VER	  3224
IFOB	   162#	   618	   620	   622
IIFN	   163#	   625	   627	   639
IMGS.1	  2867#	  2870
IMGSTR	  2863#	  3045
INILCH	   352	   821#
IO.LEM	  2413
IO.SUP	  2413
IO.TEC	  2413
K%INIT	  2350	  2400#
K%RCOC	   322	  2352	  2448#
K%STYP	  2354	  2428	  2535#
K%SUET	  2355	  2496#
K%TXTI	   899	  2351	  2630#
K%WCOC	   328	   525	  2353	  2419	  2472#
KBD%L	  3136#                                                                                                            SEQ 0415
KEY1	  1337#
KEY2	  1328	  1339#
KEY3	  1348	  1352#
KEY4	  1338	  1353#
KEYSIZ	   158#	  1325
KEYTAB	  1292	  1323#
KEYW1	  1194#	  1206
KEYW2	  1214#	  1223
KEYW3	  1215	  1225#
KEYW4	  1211	  1237#
LSTERR	   156#	   183	   537
MAKBP	  2798	  2823	  2827	  2832	  2836	  2843	  2848#	  2865
MAXCFN	   346	   465#
NAMSP1	  1837	  1865#
NODSIX	   166#
NOIBCH	   232#	  1412	  1425
NOIECH	   233#	  1417	  1436
NPXAMB	   255#	  1027
NPXCMA	   257#	  2103
NPXICN	   252#	  1508
NPXIDT	   253#	  1649
NPXINW	   250#	  1438
NPXNC	   251#	  1444
NPXNMT	   256#	  2015
NPXNNC	   258#
NPXNNI	   259#
NPXNOM	   248#	  1202
NPXNQS	   254#	  1676
NPXNSN	   260#
NPXNSW	   247#	  1188
NPXNUL	   249#	  1238
NUMBRK	  1494	  1513#
NUMI.1	  1544#	  1552
NUMIN	  1500	  1530#	  1533	  2063	  2069
NUXBRK	  1493	  1518#
P	    23	    24	    25	    26	   184	   190	   276	   280	   285	   286	   291	   292	   293	   294
	   295	   296	   297	   298	   303	   308	   314	   322	   328	   332	   347	   352	   353	   355
	   357	   358	   369	   377	   379	   386	   394	   397	   401	   403	   404	   409	   410	   412
	   414	   421	   423	   429	   432	   469	   470	   480	   490	   493	   503	   512	   519	   523
	   525	   541	   551	   557	   561	   566	   576	   581	   587	   593	   595	   602	   604	   608
	   623	   626	   628	   637	   640	   642	   645	   649	   701	   704	   706	   710	   724	   727
	   738	   744	   758	   761	   774	   775	   778	   781	   786	   791	   797	   798	   801	   803
	   804	   809	   812	   813	   814	   816	   830	   832	   838	   843	   847	   855	   861	   864
	   867	   897	   899	   925	   937	   957	   962	   966	   975	   979	   983	   986	   988	  1007
	  1014	  1016	  1018	  1021	  1022	  1028	  1030	  1038	  1058	  1080	  1082	  1094	  1099	  1100
	  1106	  1130	  1135	  1152	  1156	  1165	  1166	  1174	  1177	  1187	  1194	  1197	  1206	  1213
	  1216	  1221	  1233	  1237	  1242	  1243	  1247	  1262	  1264	  1272	  1278	  1280	  1290	  1292
	  1293	  1301	  1303	  1308	  1315	  1317	  1323	  1324	  1340	  1343	  1349	  1352	  1355	  1356
	  1362	  1370	  1374	  1376	  1390	  1394	  1401	  1407	  1413	  1415	  1418	  1423	  1424	  1426
	  1428	  1431	  1443	  1447	  1452	  1455	  1459	  1462	  1463	  1467	  1495	  1500	  1542	  1551
	  1554	  1561	  1567	  1580	  1585	  1639	  1646	  1647	  1652	  1661	  1664	  1667	  1675	  1683
	  1689	  1695	  1700	  1702	  1708	  1712	  1785	  1791	  1798	  1804	  1812	  1817	  1824	  1826
	  1827	  1831	  1841	  1850	  1852	  1853	  1861	  1862	  1867	  1941	  1953	  1956	  1960	  1969     SEQ 0416
	  1977	  1988	  1995	  1997	  1999	  2003	  2006	  2009	  2011	  2013	  2028	  2032	  2035	  2044
	  2049	  2053	  2060	  2063	  2064	  2067	  2069	  2070	  2075	  2076	  2082	  2091	  2094	  2097
	  2099	  2101	  2117	  2130	  2138	  2161	  2165	  2169	  2184	  2186	  2202	  2203	  2217	  2219
	  2222	  2232	  2243	  2245	  2259	  2261	  2262	  2267	  2387	  2388	  2416	  2419	  2535	  2631
	  2633	  2634	  2637	  2643	  2667	  2682	  2698	  2704	  2720	  2721	  2724	  2725	  2728	  2729
	  2734	  2742	  2743	  2744	  2756	  2773	  2798	  2813	  2822	  2823	  2827	  2832	  2836	  2842
	  2843	  2863	  2864	  2865	  2869	  2898	  3008	  3018	  3020	  3022	  3023	  3034	  3038	  3040
	  3045	  3046	  3055	  3065	  3073	  3087	  3232	  3243	  3247	  3248	  3253	  3254	  3260	  3261
	  3270	  3271	  3272	  3275	  3278	  3279	  3280	  3281	  3284	  3287	  3288	  3289	  3290	  3291
	  3294	  3297	  3298	  3299	  3300	  3301	  3302	  3305	  3306	  3307	  3308	  3309	  3310	  3313
	  3314	  3315	  3316	  3317	  3318	  3321	  3322	  3323	  3324	  3325	  3326	  3333	  3334	  3335
	  3338	  3339	  3340	  3342	  3343	  3344	  3347	  3348	  3349	  3351	  3352	  3353	  3356	  3357
	  3358	  3360	  3361	  3362	  3365	  3366	  3367	  3388	  3395	  3396	  3397	  3398	  3401	  3402
	  3403	  3404	  3408	  3409	  3410	  3412	  3413	  3414	  3415	  3423
P1	   306	   307	   336	   338	   342	   344	   370	   387	   395	   471	   526	   543	   544	   552
	   553	   558	   871	   922	   931	  1019	  1807	  1815	  1829	  1838	  1844	  1855	  1857	  1859
	  1860	  1865	  1873	  1883	  1890	  1896	  1906	  1912	  1916	  1920	  1926	  1932	  1936	  1943
	  2068	  2071	  2210	  2213	  2214	  2240	  2246	  2250	  2256	  2279	  2283	  2285	  2286	  2289
	  2536	  2540	  2547	  2550	  2551	  2606	  2607	  2866	  2867	  3270	  3272	  3273	  3278	  3281
	  3282	  3287	  3291	  3292	  3297	  3302	  3303	  3309
P2	   299	   305	   315	   316	   317	   318	   334	   477	   478	   479	   488	   501	   520	   521
	   522	   528	   529	   542	   577	   578	   583	   611	   821	   823	   836	   881	   883	   894
	  1104	  1126	  1131	  1132	  1137	  1154	  1161	  1162	  1196	  1307	  1326	  1498	  1568	  1650
	  1805	  1810	  1983	  2034	  2209	  2210	  2216	  2221	  2231	  2241	  2255	  2266	  2552	  2608
	  3279	  3288	  3298	  3308
P3	   315	   476	   478	   491	   505	   520	   858	   887	   888	   889	   896	   908	   920	   964
	   978	   985	  1157	  1161	  2212	  2277	  2280	  2281	  2283	  2285	  2553	  2609	  3289	  3299
	  3307
P4	    89	   316	   334	   479	   487	   489	   500	   502	   521	   584	   857	   886	   891	   893
	   907	   923	   961	   963	   970	   974	   976	   987	  1004	  1137	  1139	  1153	  1155	  1162
	  2211	  2212	  2213	  2215	  2256	  2286	  3300	  3306
P5	    89#	   293	   317	   378	   476	   477	   492	   504	   522	   542	   559	   590	   854	   888
	   890	   892	   919	   920	   965	   977	   984	  1003	  1006	  1158	  1163	  2203
PAGSIZ	  3250
PCALL	   138#	   291	   302
PPNBRK	  2020#	  2027
PPNIN	  1826	  1852	  1940	  2035	  2053#	  2056
PPNSP1	  1835	  1926#
PPNSUP	  1803#	  1803	  1830	  1834
PUNTAB	  2952	  2958#	  3095
PWIDTH	   159#	  1277	  1327	  1330	  1337	  1347
Q1	    91#	   295	   338	   339	   341	   395	   396	   398	   400	   577	   578	   580	   583	   584
	   586	   592	   594	  1099	  1101	  1102	  1108	  1131	  1132	  1134	  1212	  1214	  1228	  1229
	  1248	  1249	  1268	  1269	  1300	  1993	  1994
Q2	    92#	   296	   420	   434	   590	   591	  1100	  1102	  1103	  1104	  1105	  1107	  1263	  1274
	  1275	  1289	  1299	  1300	  1302	  1314	  1994	  1995	  1998
Q3SAVE	   161#	  1275	  1289
RD	   136#	  2636	  2656	  2657	  2660	  2665	  2684	  2687	  2688	  2692	  2740	  2782	  2784	  2785
	  2790	  2792	  2794	  2799	  2800	  2804	  2821	  2824	  2825	  2826	  2830	  2833	  2834	  2837
	  2839	  2841	  2844	  2894	  2921	  2925	  2933	  2988	  3006	  3021	  3024	  3039	  3041	  3051
	  3056	  3083	  3088	  3108
RD%BBG	   873
RD%BEL	   873	  2953                                                                                                     SEQ 0417
RD%BFE	   903	  3026	  3109
RD%BLR	   917	  2655
RD%BRK	   873	  2950
RD%BTM	  2690	  2731
RD%CRF	   873	  2782
RD%JFN	   873	   875	  2686	  2838
RD%NEC	  2893
RD%PUN	   873	  2952
RD%RAI	   877	  2804
RD%RND	  3024	  3108
RD%SUI	  2988
RD%TOP	  2951
REMSTR	   151#	  2239	  2272
RES1	  3276	  3309#
RES2	  3285	  3308#
RES3	  3295	  3307#
RES4	  3306#
RUBFLG	  2377#	  2644	  2726	  3004	  3031	  3062	  3064	  3082
S%CMND	    70	   276#
S%ERR	    73	   183#
S%INIT	    69	   170#
S%SCMP	    71	  2130#
S%TBLK	    72	  2184#
S..ABS	   830#	   843	   986
S..BDS	   403#	   411
S..BFC	   347#
S..BTF	  2262#	  2262
S..COT	  2416#
S..DPP	  1941#
S..FSE	  2756#
S..FSO	   285#
S..FSR	   286#
S..IBN	  1561#
S..IBP	  2822#
S..IIP	  2842#
S..NNS	  1867#
S..NOD	  1712#
S..SDT	  1585#
S..SFP	  1467#
S..TMT	   897#
S..TNO	  2631#
S..TRI	  1152#
S..WVG	  3232#
S1	   170	   171	   173	   183	   184	   187	   305	   323	   324	   325	   326	   524	   531	   611
	   612	   614	   615	   617	   618	   619	   620	   621	   625	   627	   639	   894	   895	   898
	   900	  1046	  1047	  1048	  1049	  1051	  1052	  1053	  1054	  1075	  1076	  1078	  1079	  1084
	  1085	  1087	  1088	  1089	  1090	  1091	  1150	  1151	  1531	  1532	  1534	  1536	  1539	  1540
	  1541	  1545	  1546	  1547	  1548	  1808	  1809	  1857	  1858	  1859	  2054	  2055	  2057	  2058
	  2065	  2066	  2072	  2073	  2074	  2131	  2139	  2185	  2187	  2417	  2420	  2421	  2423	  2426
	  2448	  2472	  2496	  2498	  2499	  2500	  2505	  2507	  2508	  2536	  2537	  2539	  2541	  2542
	  2544	  2545	  2546	  2550	  2554	  2602	  2604	  2605	  2606	  2610	  2632	  2635	  2639	  2640
	  2641	  2642	  2655	  2656	  2659	  2661	  2662	  2663	  2664	  2665	  2666	  2684	  2686	  2687
	  2690	  2692	  2693	  2700	  2702	  2706	  2707	  2708	  2710	  2722	  2731	  2735	  2740	  2741     SEQ 0418
	  2768	  2769	  2782	  2783	  2790	  2792	  2794	  2796	  2799	  2804	  2806	  2814	  2821	  2824
	  2825	  2826	  2828	  2829	  2830	  2833	  2834	  2837	  2838	  2839	  2841	  2844	  2848	  2849
	  2850	  2851	  2854	  2855	  2866	  2877	  2878	  2884	  2885	  2886	  2888	  2889	  2893	  2894
	  2899	  2903	  2905	  2923	  2924	  2925	  2926	  2927	  2928	  2930	  2932	  2935	  2944	  2980
	  2982	  2984	  2985	  2987	  2989	  3005	  3006	  3011	  3012	  3024	  3025	  3026	  3032	  3033
	  3041	  3043	  3044	  3051	  3052	  3056	  3057	  3059	  3060	  3074	  3075	  3083	  3084	  3088
	  3089	  3091	  3093	  3095	  3097	  3108	  3109	  3120	  3121	  3122	  3123	  3126	  3127	  3128
	  3222	  3223	  3224	  3225	  3228	  3229	  3230	  3231	  3243	  3244	  3247	  3249	  3250	  3253
	  3255	  3259	  3261	  3375	  3376
S2	   306	   327	   532	   565	   612	   613	   614	   615	   616	   617	   622	   630	   631	   633
	   634	   635	   636	  1530	  1535	  1537	  1538	  1549	  1550	  1805	  1806	  1807	  1809	  2539
	  2540	  2544	  2548	  2549	  2553	  2556	  2636	  2638	  2641	  2642	  2660	  2661	  2663	  2664
	  2666	  2738	  2795	  2797	  2851	  2852	  2853	  2854	  2887	  2888	  2889	  2927	  2932	  2933
	  2935	  2936	  2938	  2982	  2983	  2988	  2990	  3042	  3043	  3092	  3094	  3097	  3098	  3099
	  3222	  3224	  3231	  3248	  3249	  3254	  3255	  3256	  3257	  3258	  3259	  3260
SC%GTR	  2168	  2247	  2282	  2290
SC%LSS	  2167	  2278	  2284	  2287
SC%SUB	  1310	  2163	  2236	  2263
SCN%L	  2293#
SCTBL	  2982	  2987	  2994#	  2999
SCTBLL	  2980	  2999#
SETVT5	  2593	  2596	  2597	  2601#
SPCH.1	  2982#	  2984
SPCHK	  2721	  2980#
STKFEN	   141#	   308	   332	   523	   566
STOC	  2724	  2744	  2780#
STOC.1	  2781	  2784#
STOLCH	   412	   724	   758	   791	   816	   829#	  1999
STRC2	  2158	  2163#
STRG	   150#	  2208	  2218	  2244	  2260
STYP.2	  2539#	  2541
SUBBP	   490	   503	   949#	  1156
T1	   309	   336	   337	   342	   343	   344	   345	   346	   348	   349	   354	   356	   360	   362
	   364	   368	   370	   371	   381	   382	   387	   388	   396	   398	   400	   401	   402	   408
	   419	   420	   422	   424	   427	   428	   431	   434	   487	   491	   500	   504	   505	   506
	   518	   537	   543	   544	   545	   552	   553	   555	   556	   575	   580	   581	   586	   591
	   592	   594	   605	   636	   641	   660	   671	   698	   702	   703	   705	   708	   709	   711
	   713	   715	   718	   735	   739	   740	   742	   743	   745	   747	   749	   752	   776	   779
	   780	   783	   784	   787	   789	   799	   802	   805	   807	   810	   821	   822	   823	   824
	   831	   836	   837	   844	   846	   857	   859	   862	   865	   871	   872	   873	   875	   877
	   878	   879	   880	   881	   882	   883	   884	   906	   909	   910	   912	   913	   921	   922
	   923	   938	   939	   949	   952	   954	   955	   956	   961	   963	   970	   971	   972	   974
	   976	   987	   992	   993	   994	   995	   996	  1002	  1011	  1017	  1019	  1020	  1027	  1029
	  1037	  1046	  1051	  1052	  1057	  1065	  1066	  1075	  1077	  1078	  1101	  1105	  1107	  1113
	  1115	  1116	  1117	  1126	  1127	  1129	  1134	  1135	  1139	  1140	  1142	  1143	  1146	  1148
	  1150	  1153	  1157	  1164	  1175	  1176	  1179	  1180	  1182	  1183	  1184	  1186	  1188	  1195
	  1202	  1207	  1208	  1214	  1215	  1217	  1232	  1238	  1244	  1262	  1263	  1267	  1268	  1269
	  1270	  1281	  1282	  1284	  1285	  1286	  1288	  1304	  1307	  1309	  1310	  1316	  1325	  1326
	  1345	  1353	  1364	  1365	  1366	  1367	  1369	  1372	  1373	  1375	  1384	  1389	  1401	  1406
	  1408	  1412	  1414	  1415	  1417	  1425	  1429	  1430	  1434	  1436	  1438	  1444	  1448	  1449
	  1451	  1453	  1457	  1458	  1461	  1493	  1494	  1498	  1505	  1508	  1531	  1539	  1546	  1566
	  1568	  1576	  1579	  1648	  1649	  1650	  1651	  1653	  1656	  1660	  1665	  1676	  1683	  1690
	  1692	  1693	  1707	  1810	  1811	  1815	  1818	  1823	  1825	  1828	  1836	  1838	  1842	  1844     SEQ 0419
	  1849	  1851	  1854	  1920	  1929	  1946	  1949	  1950	  1976	  1986	  1987	  1998	  2001	  2002
	  2005	  2008	  2010	  2012	  2015	  2027	  2038	  2048	  2061	  2065	  2072	  2080	  2081	  2083
	  2084	  2087	  2089	  2090	  2093	  2096	  2098	  2100	  2103	  2113	  2114	  2115	  2131	  2132
	  2134	  2139	  2147	  2160	  2163	  2167	  2168	  2185	  2187	  2209	  2211	  2218	  2220	  2223
	  2231	  2236	  2241	  2242	  2244	  2246	  2247	  2255	  2258	  2260	  2262	  2263	  2268	  2278
	  2282	  2284	  2287	  2290	  2938	  2939	  2940	  3020	  3021	  3023	  3038	  3039	  3046	  3120
	  3126	  3131	  3313	  3318	  3319	  3325	  3423	  3424	  3426	  3428	  3429
T2	   488	   489	   501	   502	   718	   719	   721	   722	   752	   753	   755	   756	   950	   953
	   954	  1003	  1004	  1005	  1113	  1114	  1116	  1145	  1154	  1155	  1181	  1182	  1196	  1200
	  1204	  1207	  1260	  1302	  1314	  1316	  1329	  1330	  1333	  1334	  1336	  1337	  1339	  1340
	  1341	  1342	  1344	  1347	  1361	  1363	  1384	  1385	  1433	  1434	  1437	  1502	  1503	  1504
	  1505	  1506	  1543	  1544	  1545	  1550	  1558	  1559	  1560	  1562	  1564	  1569	  1571	  1572
	  1573	  1654	  1691	  1693	  1793	  1794	  1795	  1813	  1819	  1820	  1825	  1829	  1839	  1845
	  1846	  1851	  1855	  1871	  1880	  1894	  1903	  1909	  1923	  1930	  1938	  1943	  1945	  1952
	  1954	  1955	  1957	  1958	  1962	  1965	  1966	  1967	  1968	  1983	  1984	  1985	  2034	  2037
	  2054	  2061	  2068	  2071	  2086	  2087	  2112	  2113	  2116	  2135	  2137	  2152	  2164	  2204
	  2207	  2208	  2216	  2221	  2226	  2229	  2230	  2239	  2242	  2258	  2266	  2271	  3314	  3324
	  3424	  3425	  3440	  3445
T3	   720	   722	   754	   756	   845	   846	   949	   950	   951	   956	  1149	  1212	  1332	  1333
	  1499	  1540	  1544	  1547	  1570	  1950	  1961	  1962	  2062	  2132	  2133	  2135	  2136	  2147
	  2148	  2149	  2150	  2157	  2159	  2163	  2166	  2204	  2205	  2206	  2272	  3315	  3323	  3426
	  3427
T4	   299	   300	   302	  1002	  1005	  1146	  1147	  1149	  1331	  1383	  1386	  1388	  1389	  2152
	  2153	  2154	  2155	  2157	  2166	  3316	  3322
TABDON	   154#	  1363	  1367	  1373
TABLK0	  2216#	  2289
TABLK1	  2220	  2236#
TABLK2	  2240	  2249	  2255#
TABLK3	  2239#	  2250
TABLKA	  2227	  2231#	  2273
TABLKF	  2221#	  2246
TABLKM	  2225	  2229#	  2265	  2270
TABLKN	  2238	  2277#	  2288	  2291
TABLKX	  2215	  2230#	  2278	  2279
TABSIZ	   155#	  1276	  1281	  1282	  1284	  1288	  1340	  1341	  1342
TBA	   149#
TBLK2A	  2257	  2266#
TBLKN1	  2286#
TEMP%%	   334	   365#	   365	   373#	   373	   375#	   375	   405#	   405	   407#	   407	   609#	   609	   716#
	   716	   750#	   750	   777#	   777	   785#	   785	   800#	   800	   860#	   860	   863#	   863	   974
	  1218#	  1218	  1219#	  1219	  1220#	  1220	  1245#	  1245	  1262#	  1262	  1401#	  1401	  1454#	  1454
	  1683#	  1683	  2007#	  2007	  2095#	  2095	  2278#	  2278
TEST%%	  2163#	  2163	  2287#	  2287	  2690#	  2690	  3109#	  3109	  3229
TF	  3374	  3386	  3387	  3395	  3396	  3397	  3398	  3399	  3401	  3402	  3403	  3404	  3405	  3408
	  3409	  3410	  3411	  3412	  3413	  3414
TI	   164#	   878	   880	   882	   884	   885	   886	   889	   893	   895	   898	   902	   906	   907
	   908
TIELCH	   404	   728	   762	   813	   842#	  1995
TL%ABR	  2271
TL%AMB	  1204	  2229
TL%EXM	  2226
TL%NOM	  1200	  1260	  2230
TRMPTR	  2376#	  2546	  2877	  3011	  3032	  3059                                                                     SEQ 0420
TRMTYP	  2382#	  2498	  2547
TRMUDX	   165#	   173	  1145	  1331	  2423	  2552	  2608
TTSET	  2544	  2588#
TTTAB	  2539	  2545	  2571#	  2581
TTTABL	  2537	  2581#
TTYC.1	  2767	  2773#
TTYCHR	  2698	  2704	  2765#	  2771
TTYFLG	  2373#	  2427	  2630
TXTL	  2646	  2682#	  2709	  2712	  2718	  2730	  3025	  3047	  3066	  3071	  3074	  3078	  3112
TXTL.1	  2704#	  2711
TXTL.2	  2689	  2701	  2718#	  2751
TXTL.3	  2729#	  2745
TXTL.4	  2694	  2734#	  2739
TXTL.5	  2697	  2747#	  2754
TXTL.6	  2736	  2756#
TYPE.1	  3126#	  3129
TYPE.2	  3124	  3131#
TYPEBP	  3022	  3040	  3120#
TYPTAB	  1352	  1361#
TYPTB1	  1364#	  1371
TYPTB2	  1368	  1372#	  1377
UESCTB	  2380#	  2424	  2496	  2506	  2603	  2700
USRBRK	   681#	  1707
USTCMP	  1308	  2138	  2147#	  2159	  2219	  2245	  2261
USTO.1	  2791	  2794#
USTOC	  2790#	  3008	  3055	  3087
XCMACT	   462	  1707#
XCMCFM	   449	  1443#
XCMCMA	   452	  2080#
XCMDEV	   455	  1639#	  1646
XCMDIR	   450	  2025#
XCMFIL	   447	  1785#
XCMFLD	   448	  1700#
XCMFLT	   454	  1467#
XCMIFI	   445	  1780	  1783#
XCMINI	   453	  1126#
XCMKEY	   441	  1192#
XCMNOD	   463	  1712#
XCMNOI	   443	  1406#
XCMNUM	   442	  1494#
XCMNUX	   461	  1493#
XCMOFI	   446	  1782#
XCMQST	   458	  1675#
XCMSWI	   444	  1171#	  1178
XCMTAD	   457	  1585#
XCMTOK	   460	  1993#
XCMTXT	   456	  1394#
XCMUQS	   459	  1688#
XCMUSR	   451	  2026#	  2033
XCOM1	   336#	   433	   435
XCOM2	   386#	   393
XCOM3	   351	   372	   376	   387#	   407
XCOM4	   383	   392#                                                                                                    SEQ 0421
XCOM5	   374	   395#
XCOM6	   400#	   415
XCOMEO	   564#	   901
XCOMN0	   332#	   380	   411	   472	   545	   555	   562
XCOMND	   298	   305#
XCOMNE	   537#	  1027	  1188	  1202	  1238	  1439	  1444	  1509	  1649	  1676	  2016	  2104
XCOMNP	   538#	   601	  1251	  1653	  1655	  1792	  1796	  2036	  2039
XCOMRF	   406	   469#	   516	  1031
XCOMRP	   499#	   643	   933	  1167
XCOMX1	   507	   514	   520#	  1235
XCOMX2	   523#	   547	   610	   651
XCOMXI	   494	   513#	  1159	  1222	  1227	  1231	  1241	  1246	  1252	  1402	  1419	  1427	  1437	  1445
	  1662	  1684	  1696	  1799	  1996	  2040	  2088
XCOMXL	   486#	   506
XCOMXR	   511#	  1507	  1659	  1704
XMCOUT	  1065#	  1355	  1370	  1376
XMCS.1	  1067	  1087#
XMCS.2	  1068	  1086	  1093#
XMCSPC	  1080	  1084#
XMSO.1	  1078#	  1081
XMSOUT	  1075#	  1293	  1349
XTLOK0	  2186	  2204#
XTLOOK	  1197	  2202#
XX	   130#	   132	   132#
XXXPTR	   152#	  1408	  1414	  1433	  1651	  1795	  1811	  1823	  1828	  1849	  1854	  1856	  1872	  1875
	  1879	  1895	  1898	  1902	  1910	  1918	  1922	  1952
ZCHN.1	  3251	  3255#
ZERO.1	  3399	  3405	  3412#
$CCLIN	    28#	   282
%%.GLX	  3230
%%.MOD	   286	   287	   348	   403	   831	   898	  1153	  1468	  1562	  1586	  1713	  1868	  1942	  2262
	  2417	  2632	  2757	  2823	  2843	  3233
..T	   336#	   336	   337#	   337	   344#	   344	   370#	   370	   387#	   387	   543#	   544	   552#	   553
	   611#	   612	  1805#	  1806	  1809#	  1810	  1983#	  1984	  2782#	  2782	  2804#	  2804	  2851#	  2851
	  2854#	  2854	  2988#	  2988	  3024#	  3024	  3108#	  3108
.AOS	  3161	  3395#
.CHBEL	  1029	  2708	  3111
.CHBSL	    96#	  2364#	  2727	  3063
.CHCRT	   575	   631	  1129	  1164	  2780	  2876	  2951
.CHDEL	  2815	  2994
.CHESC	   327	   381	   408	   428	   634	   703	   740	   779	   862	   910	   972	  1176	  1430	  1458
	  2002	  2090	  2504	  2576	  2579	  2580	  2601	  2699	  2915	  2950	  2951
.CHLFD	   326	   356	   368	   424	   431	   556	   575	   633	   641	   688	   713	   747	   789	   805
	   865	   909	  1129	  1140	  1164	  1461	  2951	  2953
.CHTAB	   709	   743	   783	   939	  1369	  1448	  2083
.CMABC	   823	   836
.CMABP	   312	   821	  1196	  1307	  1498	  1650	  1810	  2034
.CMACT	   462#
.CMBFP	   310	   334	   488	   501	   578	   583	   883	  1132	  1137	  1154
.CMCFM	   371	   449#
.CMCMA	   452#
.CMCNT	   315	   477	   478	   520	  1161
.CMDAT	   342                                                                                                             SEQ 0422
.CMDEF	   396
.CMDEV	   455#
.CMDIR	   450#
.CMFIL	   447#
.CMFLD	   448#
.CMFLG	   299	   318	   528
.CMFLT	   454#
.CMFNP	   336	   339	   341	   344	   370	   387	   543	   552
.CMGJB	   611	  1805	  1983
.CMHLP	  1020
.CMIFI	   445#
.CMINC	   317	   522	   542
.CMINI	   453#
.CMIOJ	   894	  1126	  1326	  1568
.CMKEY	   441#
.CMNOD	   463#
.CMNOI	   443#
.CMNUM	   442#
.CMNUX	   461#
.CMOFI	   446#
.CMPTR	   311	   316	   479	   521	  1162
.CMQST	   458#
.CMRTY	   309	   577	   881	  1131
.CMSWI	   444#
.CMTAD	   457#
.CMTOK	   460#
.CMTXT	   456#
.CMUQS	   459#
.CMUSR	   451#
.FDEXT	    19#	   615	   617	  1844	  1883	  1890	  1896
.FDLEN	  1809
.FDNAM	    18#	  1838	  1860	  1865	  1873
.FDPPN	    17#	  1829	  1855	  1926	  1932	  1936	  1943
.FDSTR	    16#	   612	   614	  1815	  1857	  1859	  1906	  1912	  1916	  1920
.INIT	  3142	  3222#
.IOASC	  2413
.LGEPC	  3212#	  3374	  3375
.LGERR	  3211#	  3376
.POPJ	  1053	  1079	  1312	  2868	  3163	  3388#
.PRIIN	    13#	  2693
.PRIOU	    14#	  1127	  2741
.RDBFP	   884	  2825
.RDBKL	   879	   886	  2790	  2830	  2833
.RDBRK	   885	  2921	  2925
.RDCWB	   880	  2640	  2663
.RDDBC	   889	   908	  2657	  2684	  2785	  2800
.RDDBP	   893	   906	   907	  2660	  2784	  2792	  2794	  2799	  2821	  2824	  2826	  3006	  3041	  3051
	  3056	  3083	  3088
.RDFLG	   878	   902	  2656	  2687	  2688	  2782	  2804	  2839	  2894	  2933	  2988	  3024	  3108
.RDIOJ	   895	  2692	  2740	  2841	  2844
.RDRTY	   882	  2834	  2837	  3021	  3039
.RDSIZ	   136	   164	  2635
.RETE	  3159	  3374#                                                                                                    SEQ 0423
.RETF	   567	  2542	  2737	  2945	  2985	  2990	  3158	  3386#
.RETT	   174	   283	   533	   997	  1103	  2140	  2188	  2449	  2473	  2502	  2509	  2588	  2589	  2590
	  2591	  2592	  2594	  2595	  2612	  2668	  2775	  2783	  2786	  2801	  2806	  2812	  2816	  2835
	  2840	  2845	  2855	  2856	  2879	  2890	  2895	  2899	  2906	  2911	  2918	  2928	  2941	  2991
	  3127	  3132	  3157	  3233	  3262	  3387#
.S%CMN	   276	   291#
.SACS	  3205#	  3420	  3421	  3422
.SAVE1	  1804	  2053	  2864	  3147	  3270#
.SAVE2	  3148	  3278#
.SAVE3	  3149	  3287#
.SAVE4	   292	  2202	  2535	  3150	  3297#
.SAVET	   294	  1323	  2130	  2184	  2634	  3151	  3313#
.SCODE	  3203#	  3425
.SERR	  3204#
.SOS	  3161	  3401#
.SPC	  3202#	  3429	  3450
.SPLIB	  3209#	  3229
.SPRGM	  3207#	  3223
.SPTBL	  3206#
.SPVER	  3208#	  3225
.STOP	   285	   286	   347	   403	   830	   897	  1152	  1467	  1561	  1585	  1712	  1867	  1941	  2262
	  2416	  2631	  2756	  2822	  2842	  3165	  3232	  3420#
.SV13	   293	  2203	  3152	  3333#
.SV14	   297	  3153	  3342#
.SV15	   295	  1099	  3154	  3351#
.SV16	   296	  1100	  2633	  2863	  3155	  3360#
.TCEOL	  2569#	  2878
.TOLCT	  2607
.TOSET	  2551	  2607
.TOTYP	  1148
.TOWID	  1332	  2551
.TT33	  2426	  2571
.TT35	  2572
.TT37	  2573
.TTEXE	  2574
.TTL30	  2577
.TTL36	  2578
.TTV05	  2575
.TTV50	  2499	  2576
.TTV52	  2500	  2579	  2580
.ZCHNK	  2637	  3145	  3253#
.ZERO	  3161	  3408#
.ZPAGA	  3143	  3247#
.ZPAGN	  3144	  3243#

CAXE	  1127	  2499	  2693	  2735	  2805	  2811	  2915	  3075
CAXN	  2500	  2814                                                                                                     SEQ 0424
EXIT	  3453
GETIT	    26#	  1879	  1880	  1902	  1903	  1922	  1923	  1945	  1946
GO	    23#	   282	  1833	  1835	  1837	  1843	  1877	  1887	  1900	  1919	  1940
HIBER	  2769
INCHRW	  1142	  2774
INSVL.	   619	  1961
IONDX.	   171	  2421
IORX	  2655
JUMPF	   624	   629	   900	  2730	  2735
JUMPT	  2722
JXE	   115#	   407	   785	  1209	  1225	  1229	  1239	  1310	  1657	  2236
JXN	   110#	   349	   538	  1200	  1203	  1249	  1256	  1262	  1304	  1395	  1555	  1640	  1643	  1677
	  1786	  1978	  2007	  2045	  2095	  2223	  2247	  2263	  2268	  2278
JXO	   120#	   599	  1973
LOAD	   336	   344	   370	   387	   543	   552	   611	  1805	  1983	  2782	  2804	  2851	  2988	  3024
	  3108
MOVX	   619	   873	   879	  1148	  1332	  1353	  1535	  1537	  1808	  2163	  2168	  2226	  2230	  2271
	  2287	  2290	  2426	  2551	  2607	  2686	  2690	  2731	  2768	  2838	  2893	  3026	  3109	  3228
	  3230	  3250
NOPARS	   104#	  1027	  1188	  1202	  1238	  1438	  1444	  1508	  1649	  1676	  2015	  2103
OP%%CA	  1127	  2499	  2500	  2693	  2735	  2805	  2811	  2814	  2915	  3075
OP%%TX	   365	   373	   375	   405	   407	   609	   716	   750	   777	   785	   800	   860	   863	  1218
	  1219	  1220	  1245	  1262	  1401	  1454	  1683	  2007	  2095	  2278
OPEN	  2413
OUTCHR	  1037	  1054	  1065	  1084	  1572	  2504	  2508	  2601	  2605	  2708	  2727	  2753	  2876	  2904
	  2905	  2910	  2917	  3063	  3111	  3128
OUTSTR	   185	   187	   188	  1057	  2878	  3014	  3036	  3070	  3077	  3131
PCRLF	   646	  3434#	  3452
PG2ADR	  3244
PJRST	   661	   672	   728	   762	   806	   825	   941	  1118	  2428	  2549	  2556	  3251
PJUMPN	  2990
PNT6F	  3433#	  3451
PNTALF	   648	  1869	  1892	  1914	  1934	  3431#	  3439	  3444	  3446	  3449
PNTCIF	  1886	  3435#
PNTSXF	  3432#	  3441
POINTR	   336	   337	   344	   370	   387	  2782	  2804	  2851	  2854	  2988	  3024	  3108
POS	   336	   337	   344	   370	   387	   619	  1961	  2782	  2804	  2851	  2854	  2988	  3024	  3108
PUT	    25#	  1871	  1872	  1894	  1895	  1909	  1910	  1929	  1930
RETSKP	   125#	   797	   801	   814	  1317	  1463	  1551	  1798	  1862	  2075
RTN	    24#	  1881	  1904	  1907	  1924	  1927	  1947
SAVE	   293	   295	   296	   297	  1099	  1100	  2203	  2633	  2863
SKPINC	  2765
STORE	   337	   618	   620	  1809	  1829	  1838	  1844	  1855	  1859	  1920	  1943	  2854
TRMOP.	  1151	  1334	  2554	  2610
TXC	   599	  1974
TXCN	   600	  1975
TXNE	   301	   373	   405	   407	   413	   511	   515	   699	   736	   773	   785	   796	   874	   876
	   903	   917	  1013	  1172	  1198	  1209	  1225	  1229	  1239	  1265	  1310	  1354	  1387	  1496
	  1657	  1701	  1961	  2029	  2031	  2114	  2236	  2282	  2284
TXNN	   349	   365	   375	   392	   538	  1015	  1200	  1204	  1220	  1249	  1260	  1262	  1304	  1399
	  1401	  1409	  1454	  1555	  1640	  1644	  1666	  1681	  1683	  1786	  1978	  2007	  2045	  2095
	  2223	  2247	  2263	  2268	  2278
TXO	   321	   326	   335	   399	   486	   499	   517	   546	   554	   564	   609	   650	   716	   750     SEQ 0425
	   772	   777	   800	   860	   863	   866	   877	  1171	  1219	  1234	  1245	  1411	  1779	  2655
TXZ	   319	   324	   325	   327	   333	   340	   527	   560	   875	   973	  1192	  1218
TXZA	   767
TXZE	   320	  1797
TXZN	   513	  1026
WID	   336	   337	   344	   370	   387	  2782	  2804	  2851	  2854	  2988	  3024	  3108
ZERO	  3256
$$DATA	    77#	   136	   138	   139	   140	   141	   142	   143	   144	   145	   146	   147	   148	   149
	   150	   151	   152	   153	   154	   155	   156	   157	   158	   159	   160	   161	   162	   163
	   164	   165	   166	  2373	  2375	  2376	  2377	  2378	  2379	  2380	  2381	  2382	  2384	  2385
$$GDAT	    81#	  3202	  3203	  3204	  3205	  3206	  3207	  3208	  3209	  3211	  3212
$C	   100#	  2368#	  2805	  2811	  2950	  2951	  2966	  2968	  2989	  2995	  2996	  2997
$RETF	   567	  2737	  2945
$RETT	   174	   283	   533	   997	  2140	  2188	  2449	  2473	  2502	  2509	  2612	  2668	  2775	  2786
	  2801	  2812	  2816	  2835	  2840	  2845	  2856	  2879	  2890	  2895	  2906	  2911	  2918	  2941
	  2991	  3132	  3233	  3262
$STOP	   285	   286	   347	   403	   830	   897	  1152	  1467	  1561	  1585	  1712	  1867	  1941	  2262
	  2416	  2631	  2756	  2822	  2842	  3232
.LDST.	   336	   337	   344	   370	   387	   543	   552	   611	   618	   620	  1805	  1809	  1829	  1838
	  1844	  1855	  1859	  1920	  1943	  1983	  2782	  2804	  2851	  2854	  2988	  3024	  3108
.SAVE.	   293	   295	   296	   297	  1099	  1100	  2203	  2633	  2863

