	 13329	 13330	 13351	 13352	 13373	 13374
HRRZ	 15431	 15461	 15500                                                                                             SEQ 0377
HRRZI	  2504	  2516	  2528	  2561	  2575	  2589
IFDEF	   409	   460	   461	   462	   463	 15465	 15535	 15663	 15670
IFE	  1000	  1017	  1034	  1051	  1068	  1085	  1102	  1119	  1136	  1153	  1170	  1187	  1204	  1221
	  1238	  1255	  1272	  1289	  1326	  1344	  1362	  1380	  1398	  1416	  1434	  1452	  1470	  1488
	  1506	  1524	  1542	  1560	  1578	  1596	  1614	  1632	  1679	  1697	  1715	  1733	  1751	  1769
	  1787	  1805	  1823	  1841	  1859	  1877	  1895	  1913	  1931	  1949	  1967	  1985	  2023	  2041
	  2059	  2077	  2095	  2113	  2131	  2149	  2167	  2185	  2203	  2221	  2239	  2257	  2275	  2293
	  2311	  2329	  2660	  2665	  2683	  2688	  2706	  2711	  2729	  2734	  2752	  2757	  2775	  2780
	  2798	  2803	  2821	  2826	  2844	  2849	  2867	  2872	  2890	  2895	  2913	  2918	  2936	  2941
	  2959	  2964	  2982	  2987	  3005	  3010	  3028	  3033	  3051	  3056	  3100	  3105	  3123	  3128
	  3146	  3151	  3169	  3174	  3192	  3197	  3215	  3220	  3238	  3243	  3261	  3266	  3284	  3289
	  3307	  3312	  3330	  3335	  3353	  3358	  3376	  3381	  3399	  3404	  3422	  3427	  3445	  3450
	  3468	  3473	  3491	  3496	  3538	  3543	  3560	  3565	  3582	  3587	  3604	  3609	  3626	  3631
	  3648	  3653	  3670	  3675	  3692	  3697	  3714	  3719	  3736	  3741	  3758	  3763	  3780	  3785
	  3802	  3807	  3824	  3829	  3846	  3851	  3868	  3873	  3890	  3895	  3912	  3917	  3958	  3963
	  3980	  3985	  4002	  4007	  4024	  4029	  4046	  4051	  4068	  4073	  4090	  4095	  4112	  4117
	  4134	  4139	  4156	  4161	  4178	  4183	  4200	  4205	  4222	  4227	  4244	  4249	  4266	  4271
	  4288	  4293	  4310	  4315	  4332	  4337	  4406	  4411	  4428	  4433	  4450	  4455	  4472	  4477
	  4494	  4499	  4516	  4521	  4538	  4543	  4560	  4565	  4582	  4587	  4604	  4609	  4626	  4631
	  4648	  4653	  4670	  4675	  4692	  4697	  4714	  4719	  4736	  4741	  4758	  4763	  4780	  4785
	  4827	  4832	  4849	  4854	  4871	  4876	  4893	  4898	  4915	  4920	  4937	  4942	  4959	  4964
	  4981	  4986	  5003	  5008	  5025	  5030	  5047	  5052	  5069	  5074	  5091	  5096	  5113	  5118
	  5135	  5140	  5157	  5162	  5179	  5184	  5201	  5206	  5246	  5251	  5267	  5272	  5288	  5293
	  5309	  5314	  5330	  5335	  5351	  5356	  5372	  5377	  5393	  5398	  5414	  5419	  5435	  5440
	  5456	  5461	  5477	  5482	  5498	  5503	  5519	  5524	  5540	  5545	  5561	  5566	  5582	  5587
	  5603	  5608	  5650	  5655	  5672	  5677	  5694	  5699	  5716	  5721	  5738	  5743	  5760	  5765
	  5782	  5787	  5804	  5809	  5826	  5831	  5848	  5853	  5870	  5875	  5892	  5897	  5914	  5919
	  5936	  5941	  5958	  5963	  5980	  5985	  6002	  6007	  6024	  6029	  6100	  6105	  6107	  6124
	  6129	  6131	  6148	  6153	  6155	  6172	  6177	  6179	  6196	  6201	  6203	  6220	  6225	  6227
	  6244	  6249	  6251	  6268	  6273	  6275	  6292	  6297	  6299	  6316	  6321	  6323	  6340	  6345
	  6347	  6364	  6369	  6371	  6388	  6393	  6395	  6412	  6417	  6419	  6436	  6441	  6443	  6460
	  6465	  6467	  6484	  6489	  6491	  6508	  6513	  6515	  6559	  6564	  6566	  6583	  6588	  6590
	  6607	  6612	  6614	  6631	  6636	  6638	  6655	  6660	  6662	  6679	  6684	  6686	  6703	  6708
	  6710	  6727	  6732	  6734	  6751	  6756	  6758	  6775	  6780	  6782	  6799	  6804	  6806	  6823
	  6828	  6830	  6847	  6852	  6854	  6871	  6876	  6878	  6895	  6900	  6902	  6919	  6924	  6926
	  6943	  6948	  6950	  6967	  6972	  6974	  7018	  7023	  7025	  7042	  7047	  7049	  7066	  7071
	  7073	  7090	  7095	  7097	  7114	  7119	  7121	  7138	  7143	  7145	  7162	  7167	  7169	  7186
	  7191	  7193	  7210	  7215	  7217	  7234	  7239	  7241	  7258	  7263	  7265	  7282	  7287	  7289
	  7306	  7311	  7313	  7330	  7335	  7337	  7354	  7359	  7361	  7378	  7383	  7385	  7402	  7407
	  7409	  7426	  7431	  7433	  7477	  7482	  7484	  7501	  7506	  7508	  7525	  7530	  7532	  7549
	  7554	  7556	  7573	  7578	  7580	  7597	  7602	  7604	  7621	  7626	  7628	  7645	  7650	  7652
	  7669	  7674	  7676	  7693	  7698	  7700	  7717	  7722	  7724	  7741	  7746	  7748	  7765	  7770
	  7772	  7789	  7794	  7796	  7813	  7818	  7820	  7837	  7842	  7844	  7861	  7866	  7868	  7885
	  7890	  7892	  7973	  7979	  7998	  8004	  8023	  8029	  8048	  8054	  8073	  8079	  8098	  8104
	  8123	  8129	  8148	  8154	  8173	  8179	  8198	  8204	  8223	  8229	  8248	  8254	  8273	  8279
	  8298	  8304	  8323	  8329	  8348	  8354	  8373	  8379	  8398	  8404	  8448	  8470	  8492	  8514
	  8536	  8558	  8580	  8602	  8624	  8646	  8668	  8690	  8712	  8734	  8756	  8778	  8800	  8849
	  8855	  8874	  8880	  8899	  8905	  8924	  8930	  8949	  8955	  8974	  8980	  8999	  9005	  9024
	  9030	  9049	  9055	  9074	  9080	  9099	  9105	  9124	  9130	  9149	  9155	  9174	  9180	  9199
	  9205	  9224	  9230	  9249	  9255	  9274	  9280	  9326	  9349	  9372	  9395	  9418	  9441	  9464
	  9487	  9510	  9533	  9556	  9579	  9602	  9625	  9648	  9671	  9694	  9777	  9783	  9803	  9809
	  9829	  9835	  9855	  9861	  9881	  9887	  9907	  9913	  9933	  9939	  9959	  9965	  9985	  9991
	 10011	 10017	 10037	 10043	 10063	 10069	 10089	 10095	 10115	 10121	 10141	 10147	 10167	 10173     SEQ 0378
	 10193	 10199	 10219	 10225	 10270	 10293	 10316	 10339	 10362	 10385	 10408	 10431	 10454	 10477
	 10500	 10523	 10546	 10569	 10592	 10615	 10638	 10689	 10695	 10714	 10720	 10739	 10745	 10764
	 10770	 10789	 10795	 10814	 10820	 10839	 10845	 10864	 10870	 10889	 10895	 10914	 10920	 10939
	 10945	 10964	 10970	 10989	 10995	 11014	 11020	 11039	 11045	 11064	 11070	 11089	 11095	 11114
	 11120	 11164	 11186	 11208	 11230	 11252	 11274	 11296	 11318	 11340	 11362	 11384	 11406	 11428
	 11450	 11472	 11494	 11516	 11600	 11606	 11608	 11627	 11633	 11635	 11654	 11660	 11662	 11681
	 11687	 11689	 11708	 11714	 11716	 11735	 11741	 11743	 11762	 11768	 11770	 11789	 11795	 11797
	 11816	 11822	 11824	 11843	 11849	 11851	 11870	 11876	 11878	 11897	 11903	 11905	 11924	 11930
	 11932	 11951	 11957	 11959	 11978	 11984	 11986	 12005	 12011	 12013	 12032	 12038	 12040	 12059
	 12065	 12067	 12112	 12135	 12158	 12181	 12204	 12227	 12250	 12273	 12296	 12319	 12342	 12365
	 12388	 12411	 12434	 12457	 12512	 12518	 12520	 12540	 12546	 12548	 12568	 12574	 12576	 12596
	 12602	 12604	 12624	 12630	 12632	 12652	 12658	 12660	 12680	 12686	 12688	 12708	 12714	 12716
	 12736	 12742	 12744	 12764	 12770	 12772	 12792	 12798	 12800	 12820	 12826	 12828	 12848	 12854
	 12856	 12876	 12882	 12884	 12904	 12910	 12912	 12932	 12938	 12940	 12960	 12966	 12968	 12988
	 12994	 12996	 13040	 13062	 13084	 13106	 13128	 13150	 13172	 13194	 13216	 13238	 13260	 13282
	 13304	 13326	 13348	 13370
IFG	  6103	  6127	  6151	  6175	  6199	  6223	  6247	  6271	  6295	  6319	  6343	  6367	  6391	  6415
	  6439	  6463	  6487	  6511	  6562	  6586	  6610	  6634	  6658	  6682	  6706	  6730	  6754	  6778
	  6802	  6826	  6850	  6874	  6898	  6922	  6946	  6970	 11604	 11631	 11658	 11685	 11712	 11739
	 11766	 11793	 11820	 11847	 11874	 11901	 11928	 11955	 11982	 12009	 12036	 12063	 12516	 12544
	 12572	 12600	 12628	 12656	 12684	 12712	 12740	 12768	 12796	 12824	 12852	 12880	 12908	 12936
	 12964	 12992
IFL	  7021	  7045	  7069	  7093	  7117	  7141	  7165	  7189	  7213	  7237	  7261	  7285	  7309	  7333
	  7357	  7381	  7405	  7429	  7480	  7504	  7528	  7552	  7576	  7600	  7624	  7648	  7672	  7696
	  7720	  7744	  7768	  7792	  7816	  7840	  7864	  7888
IFN	  2663	  2686	  2709	  2732	  2755	  2778	  2801	  2824	  2847	  2870	  2893	  2916	  2939	  2962
	  2985	  3008	  3031	  3054	  3103	  3126	  3149	  3172	  3195	  3218	  3241	  3264	  3287	  3310
	  3333	  3356	  3379	  3402	  3425	  3448	  3471	  3494	  3541	  3563	  3585	  3607	  3629	  3651
	  3673	  3695	  3717	  3739	  3761	  3783	  3805	  3827	  3849	  3871	  3893	  3915	  3961	  3983
	  4005	  4027	  4049	  4071	  4093	  4115	  4137	  4159	  4181	  4203	  4225	  4247	  4269	  4291
	  4313	  4335	  4409	  4431	  4453	  4475	  4497	  4519	  4541	  4563	  4585	  4607	  4629	  4651
	  4673	  4695	  4717	  4739	  4761	  4783	  4830	  4852	  4874	  4896	  4918	  4940	  4962	  4984
	  5006	  5028	  5050	  5072	  5094	  5116	  5138	  5160	  5182	  5204	  5249	  5270	  5291	  5312
	  5333	  5354	  5375	  5396	  5417	  5438	  5459	  5480	  5501	  5522	  5543	  5564	  5585	  5606
	  5653	  5675	  5697	  5719	  5741	  5763	  5785	  5807	  5829	  5851	  5873	  5895	  5917	  5939
	  5961	  5983	  6005	  6027	  7977	  8002	  8027	  8052	  8077	  8102	  8127	  8152	  8177	  8202
	  8227	  8252	  8277	  8302	  8327	  8352	  8377	  8402	  8853	  8878	  8903	  8928	  8953	  8978
	  9003	  9028	  9053	  9078	  9103	  9128	  9153	  9178	  9203	  9228	  9253	  9278	  9781	  9807
	  9833	  9859	  9885	  9911	  9937	  9963	  9989	 10015	 10041	 10067	 10093	 10119	 10145	 10171
	 10197	 10223	 10693	 10718	 10743	 10768	 10793	 10818	 10843	 10868	 10893	 10918	 10943	 10968
	 10993	 11018	 11043	 11068	 11093	 11118
IFNDEF	   360	   361	   371	   460	   461	   462	   463	   542	 15583
JFCL	   500	   501	   502	   503	   504	   505	   506	   507	   508	   509	   510	   511
JRST	    70	    71	    72	    73	    74	    75	    76	   210	   211	   212	   213	   422	   423	   425
	   427	   429	   431	   433	   436	   438	   439	   492	   763	 15422	 15439	 15446	 15449	 15454
	 15482	 15488	 15502	 15504	 15506	 15509	 15512	 15514	 15516	 15542	 15545	 15558	 15562	 15565
	 15568	 15572	 15573	 15577
JSP	   219
JUMPL	   788	   794	   809	   818	   840	   846	   861	   870	   892	   898	   913	   922	   943	   962
	  1006	  1023	  1040	  1057	  1074	  1091	  1108	  1125	  1142	  1159	  1176	  1193	  1210	  1227
	  1244	  1261	  1278	  1295	  1333	  1351	  1369	  1387	  1405	  1423	  1441	  1459	  1477	  1495
	  1513	  1531	  1549	  1567	  1585	  1603	  1621	  1639	  1686	  1704	  1722	  1740	  1758	  1776
	  1794	  1812	  1830	  1848	  1866	  1884	  1902	  1920	  1938	  1956	  1974	  1992	  2030	  2048     SEQ 0379
	  2066	  2084	  2102	  2120	  2138	  2156	  2174	  2192	  2210	  2228	  2246	  2264	  2282	  2300
	  2318	  2336	  2363	  2378	  2393	  2408	  2424	  2440	  2456	  2472	  2508	  2520	  2532	  2565
	  2579	  2593	  2612	  2622	  2670	  2693	  2716	  2739	  2762	  2785	  2808	  2831	  2854	  2877
	  2900	  2923	  2946	  2969	  2992	  3015	  3038	  3061	  3110	  3133	  3156	  3179	  3202	  3225
	  3248	  3271	  3294	  3317	  3340	  3363	  3386	  3409	  3432	  3455	  3478	  3501	  3548	  3570
	  3592	  3614	  3636	  3658	  3680	  3702	  3724	  3746	  3768	  3790	  3812	  3834	  3856	  3878
	  3900	  3922	  3968	  3990	  4012	  4034	  4056	  4078	  4100	  4122	  4144	  4166	  4188	  4210
	  4232	  4254	  4276	  4298	  4320	  4342	  4360	  4370	  4416	  4438	  4460	  4482	  4504	  4526
	  4548	  4570	  4592	  4614	  4636	  4658	  4680	  4702	  4724	  4746	  4768	  4790	  4837	  4859
	  4881	  4903	  4925	  4947	  4969	  4991	  5013	  5035	  5057	  5079	  5101	  5123	  5145	  5167
	  5189	  5211	  5256	  5277	  5298	  5319	  5340	  5361	  5382	  5403	  5424	  5445	  5466	  5487
	  5508	  5529	  5550	  5571	  5592	  5613	  5660	  5682	  5704	  5726	  5748	  5770	  5792	  5814
	  5836	  5858	  5880	  5902	  5924	  5946	  5968	  5990	  6012	  6034	  6051	  6061	  6112	  6136
	  6160	  6184	  6208	  6232	  6256	  6280	  6304	  6328	  6352	  6376	  6400	  6424	  6448	  6472
	  6496	  6520	  6571	  6595	  6619	  6643	  6667	  6691	  6715	  6739	  6763	  6787	  6811	  6835
	  6859	  6883	  6907	  6931	  6955	  6979	  7030	  7054	  7078	  7102	  7126	  7150	  7174	  7198
	  7222	  7246	  7270	  7294	  7318	  7342	  7366	  7390	  7414	  7438	  7489	  7513	  7537	  7561
	  7585	  7609	  7633	  7657	  7681	  7705	  7729	  7753	  7777	  7801	  7825	  7849	  7873	  7897
	  7919	  7932	  7984	  8009	  8034	  8059	  8084	  8109	  8134	  8159	  8184	  8209	  8234	  8259
	  8284	  8309	  8334	  8359	  8384	  8409	  8456	  8478	  8500	  8522	  8544	  8566	  8588	  8610
	  8632	  8654	  8676	  8698	  8720	  8742	  8764	  8786	  8808	  8860	  8885	  8910	  8935	  8960
	  8985	  9010	  9035	  9060	  9085	  9110	  9135	  9160	  9185	  9210	  9235	  9260	  9285	  9334
	  9357	  9380	  9403	  9426	  9449	  9472	  9495	  9518	  9541	  9564	  9587	  9610	  9633	  9656
	  9679	  9702	  9722	  9735	  9788	  9814	  9840	  9866	  9892	  9918	  9944	  9970	  9996	 10022
	 10048	 10074	 10100	 10126	 10152	 10178	 10204	 10230	 10279	 10302	 10325	 10348	 10371	 10394
	 10417	 10440	 10463	 10486	 10509	 10532	 10555	 10578	 10601	 10624	 10647	 10700	 10725	 10750
	 10775	 10800	 10825	 10850	 10875	 10900	 10925	 10950	 10975	 11000	 11025	 11050	 11075	 11100
	 11125	 11172	 11194	 11216	 11238	 11260	 11282	 11304	 11326	 11348	 11370	 11392	 11414	 11436
	 11458	 11480	 11502	 11524	 11544	 11557	 11613	 11640	 11667	 11694	 11721	 11748	 11775	 11802
	 11829	 11856	 11883	 11910	 11937	 11964	 11991	 12018	 12045	 12072	 12121	 12144	 12167	 12190
	 12213	 12236	 12259	 12282	 12305	 12328	 12351	 12374	 12397	 12420	 12443	 12466	 12525	 12553
	 12581	 12609	 12637	 12665	 12693	 12721	 12749	 12777	 12805	 12833	 12861	 12889	 12917	 12945
	 12973	 13001	 13048	 13070	 13092	 13114	 13136	 13158	 13180	 13202	 13224	 13246	 13268	 13290
	 13312	 13334	 13356	 13378	 13404	 13421	 13438	 13455	 13472	 13489	 13506	 13523	 13540	 13557
	 13574	 13591	 13608	 13625	 13642	 13659	 13676	 13693	 13710	 13727	 13744	 13761	 13778	 13795
	 13821	 13838	 13855	 13872	 13889	 13906	 13923	 13940	 13957	 13974	 13991	 14008	 14025	 14042
	 14059	 14076	 14093	 14110	 14127	 14144	 14169	 14186	 14203	 14220	 14237	 14254	 14271	 14288
	 14305	 14322	 14339	 14356	 14373	 14390	 14407	 14424	 14441	 14458	 14475	 14492	 14509	 14526
	 14543	 14574	 14592	 14610	 14628	 14646	 14664	 14682	 14700	 14718	 14736	 14754	 14772	 14790
	 14808	 14826	 14844	 14862	 14880	 14898	 14916	 14934	 14952	 14970	 14988	 15006	 15024	 15042
	 15060	 15078	 15096	 15114	 15132	 15150	 15168	 15186	 15204	 15222	 15240	 15258	 15276	 15294
	 15312	 15330	 15348	 15366	 15384	 15402	 15420
LALL	     9
LIST	     8	   371	   409	   542	 15465	 15535	 15583	 15660
LIT	 15584
LOC	    25	   412	   736
LSH	   837	   843	  2358	  2373	  2388	  2403	 13816	 13833	 13850	 13867	 13884	 13901	 13918	 13935
	 13952	 13969	 13986	 14003	 14020	 14037	 14054	 14071	 14088	 14105	 14122	 14139	 15441	 15473
LSHC	   856	   865	  2419	  2435	  2451	  2467
MOVE	   760	   936	   937	   955	   956	  1329	  1347	  1365	  1383	  1401	  1419	  1437	  1455	  1473
	  1491	  1509	  1527	  1545	  1563	  1581	  1599	  1617	  1635	  1682	  1700	  1718	  1736	  1754
	  1772	  1790	  1808	  1826	  1844	  1862	  1880	  1898	  1916	  1934	  1952	  1970	  1988	  2026
	  2044	  2062	  2080	  2098	  2116	  2134	  2152	  2170	  2188	  2206	  2224	  2242	  2260	  2278     SEQ 0380
	  2296	  2314	  2332	  2356	  2357	  2371	  2372	  2386	  2387	  2401	  2402	  2417	  2418	  2433
	  2434	  2449	  2450	  2465	  2466	 13397	 13398	 13414	 13415	 13431	 13432	 13448	 13449	 13465
	 13466	 13482	 13483	 13499	 13500	 13516	 13517	 13533	 13534	 13550	 13551	 13567	 13568	 13584
	 13585	 13601	 13602	 13618	 13619	 13635	 13636	 13652	 13653	 13669	 13670	 13686	 13687	 13703
	 13704	 13720	 13721	 13737	 13738	 13754	 13755	 13771	 13772	 13788	 13789	 13814	 13815	 13831
	 13832	 13848	 13849	 13865	 13866	 13882	 13883	 13899	 13900	 13916	 13917	 13933	 13934	 13950
	 13951	 13967	 13968	 13984	 13985	 14001	 14002	 14018	 14019	 14035	 14036	 14052	 14053	 14069
	 14070	 14086	 14087	 14103	 14104	 14120	 14121	 14137	 14138	 14162	 14163	 14179	 14180	 14196
	 14197	 14213	 14214	 14230	 14231	 14247	 14248	 14264	 14265	 14281	 14282	 14298	 14299	 14315
	 14316	 14332	 14333	 14349	 14350	 14366	 14367	 14383	 14384	 14400	 14401	 14417	 14418	 14434
	 14435	 14451	 14452	 14468	 14469	 14485	 14486	 14502	 14503	 14519	 14520	 14536	 14537	 14567
	 14568	 14585	 14586	 14603	 14604	 14621	 14622	 14639	 14640	 14657	 14658	 14675	 14676	 14693
	 14694	 14711	 14712	 14729	 14730	 14747	 14748	 14765	 14766	 14783	 14784	 14801	 14802	 14819
	 14820	 14837	 14838	 14855	 14856	 14873	 14874	 14891	 14892	 14909	 14910	 14927	 14928	 14945
	 14946	 14963	 14964	 14981	 14982	 14999	 15000	 15017	 15018	 15035	 15036	 15053	 15054	 15071
	 15072	 15089	 15090	 15107	 15108	 15125	 15126	 15143	 15144	 15161	 15162	 15179	 15180	 15197
	 15198	 15215	 15216	 15233	 15234	 15251	 15252	 15269	 15270	 15287	 15288	 15305	 15306	 15323
	 15324	 15341	 15342	 15359	 15360	 15377	 15378	 15395	 15396	 15413	 15414	 15434	 15440	 15443
	 15444	 15457	 15472	 15475	 15477	 15480	 15486	 15490	 15546	 15554	 15555	 15563	 15567	 15570
MOVEI	   779	   781	   798	   800	   831	   833	   850	   852	   883	   885	   902	   904	   967	   969
	  1002	  1019	  1036	  1053	  1070	  1087	  1104	  1121	  1138	  1155	  1172	  1189	  1206	  1223
	  1240	  1257	  1274	  1291	  1643	  1645	  2345	  2347	  2477	  2479	  2603	  2605	  2662	  2664
	  2685	  2687	  2708	  2710	  2731	  2733	  2754	  2756	  2777	  2779	  2800	  2802	  2823	  2825
	  2846	  2848	  2869	  2871	  2892	  2894	  2915	  2917	  2938	  2940	  2961	  2963	  2984	  2986
	  3007	  3009	  3030	  3032	  3053	  3497	  4351	  4353	  4786	  4829	  4831	  4851	  4853	  4873
	  4875	  4895	  4897	  4917	  4919	  4939	  4941	  4961	  4963	  4983	  4985	  5005	  5007	  5027
	  5029	  5049	  5051	  5071	  5073	  5093	  5095	  5115	  5117	  5137	  5139	  5159	  5161	  5181
	  5183	  5203	  6042	  6044	  6490	  6516	  6561	  6563	  6585	  6587	  6609	  6611	  6633	  6635
	  6657	  6659	  6681	  6683	  6705	  6707	  6729	  6731	  6753	  6755	  6777	  6779	  6801	  6803
	  6825	  6827	  6849	  6851	  6873	  6875	  6897	  6899	  6921	  6923	  6945	  6969	  7909	  7911
	  7976	  7978	  8001	  8003	  8026	  8028	  8051	  8053	  8076	  8078	  8101	  8103	  8126	  8128
	  8151	  8153	  8176	  8178	  8201	  8203	  8226	  8228	  8251	  8253	  8276	  8278	  8301	  8303
	  8326	  8328	  8351	  8353	  8376	  8378	  8401	  9712	  9714	 10226	 10274	 10275	 10297	 10298
	 10320	 10321	 10343	 10344	 10366	 10367	 10389	 10390	 10412	 10413	 10435	 10436	 10458	 10459
	 10481	 10482	 10504	 10505	 10527	 10528	 10550	 10551	 10573	 10574	 10596	 10597	 10619	 10620
	 10642	 10643	 11534	 11536	 12039	 12068	 12115	 12117	 12138	 12140	 12161	 12163	 12184	 12186
	 12207	 12209	 12230	 12232	 12253	 12255	 12276	 12278	 12299	 12301	 12322	 12324	 12345	 12347
	 12368	 12370	 12391	 12393	 12414	 12416	 12437	 12439	 12460	 12462	 15497	 15543
MOVEM	   761	   780	   782	   799	   801	   832	   834	   851	   853	   884	   886	   903	   905	   968
	   970	  1644	  1646	  2346	  2348	  2478	  2480	  2604	  2606	  4352	  4354	  6043	  6045	  7910
	  7912	  9713	  9715	 11535	 11537	 15427	 15428	 15429	 15442	 15462	 15544
MOVSI	  1328	  1346	  1364	  1382	  1400	  1418	  1436	  1454	  1472	  1490	  1508	  1526	  1544	  1562
	  1580	  1598	  1616	  1634	  3057	  3102	  3104	  3125	  3127	  3148	  3150	  3171	  3173	  3194
	  3196	  3217	  3219	  3240	  3242	  3263	  3265	  3286	  3288	  3309	  3311	  3332	  3334	  3355
	  3357	  3378	  3380	  3401	  3403	  3424	  3426	  3447	  3449	  3470	  3472	  3493	  4408	  4410
	  4430	  4432	  4452	  4454	  4474	  4476	  4496	  4498	  4518	  4520	  4540	  4542	  4562	  4564
	  4584	  4586	  4606	  4608	  4628	  4630	  4650	  4652	  4672	  4674	  4694	  4696	  4716	  4718
	  4738	  4740	  4760	  4762	  4782	  5207	  6102	  6104	  6126	  6128	  6150	  6152	  6174	  6176
	  6198	  6200	  6222	  6224	  6246	  6248	  6270	  6272	  6294	  6296	  6318	  6320	  6342	  6344
	  6366	  6368	  6390	  6392	  6414	  6416	  6438	  6440	  6462	  6464	  6486	  6510	  6949	  6975
	  8405	  8451	  8452	  8473	  8474	  8495	  8496	  8517	  8518	  8539	  8540	  8561	  8562	  8583
	  8584	  8605	  8606	  8627	  8628	  8649	  8650	  8671	  8672	  8693	  8694	  8715	  8716	  8737
	  8738	  8759	  8760	  8781	  8782	  8803	  8804	  9780	  9782	  9806	  9808	  9832	  9834	  9858     SEQ 0381
	  9860	  9884	  9886	  9910	  9912	  9936	  9938	  9962	  9964	  9988	  9990	 10014	 10016	 10040
	 10042	 10066	 10068	 10092	 10094	 10118	 10120	 10144	 10146	 10170	 10172	 10196	 10198	 10222
	 11603	 11605	 11630	 11632	 11657	 11659	 11684	 11686	 11711	 11713	 11738	 11740	 11765	 11767
	 11792	 11794	 11819	 11821	 11846	 11848	 11873	 11875	 11900	 11902	 11927	 11929	 11954	 11956
	 11981	 11983	 12008	 12010	 12035	 12062	 12064
NOSYM	    28
OPDEF	    33	    34	    35	    36	    37	    38	    39	    40	    41	    42	    43	   206	   207	   208
	   209	   210	   211	   212	   213	   219	   225	   226	   234	   235	   236	   237	   238	   239
	   240	   241	   242	   243	   244	   247	   248	   249	   250	   251	   252	   253	   254	   255
	   256	   257	   258	   259	   260	   261	   262	   263	   264	   265	   266	   267	   268	   269
	   270	   271	   272	   273	   274	   275	   276	   277	   278	   279	   280	   281	   282	   283
	   284	   285	   286	   287	   288	   289	   290	   291	   292	   293	   294	   295	   296	   297
	   298	   299	   300	   301	   303	   320	   325	   326	   330	   331	   332	   338	   339	   345
	   346	   347	   348	   349	   350	   351	   357	   358	   365	   366	   367	   368	   378	   379
	   380	   381	   382	   409
PAGE	  1297	  1994	  2409	  2534	  3063	  3924	  4792	  5615	  6522	  7440	  9287	 10232	 11127	 12074
	 13003	 13439	 13490	 13592	 13728	 13856	 13975	 14094	 14204	 14340	 14476	 14611	 14665	 14773
	 14917	 15061	 15205	 15349
POP	   209
POPJ	   207
PUSH	   208
PUSHJ	   206
REPEAT	   974	  1299	  1652	  1996	  2485	  2538	  2626	  3066	  3506	  3926	  4374	  4795	  5216	  5618
	  6066	  6525	  6984	  7443	  7936	  8414	  8812	  9290	  9738	 10235	 10652	 11130	 11561	 12077
	 12471	 13006
ROT	   785	   791	  2505	  2517	  2529	  2609	  2619	  2667	  2690	  2713	  2736	  2759	  2782	  2805
	  2828	  2851	  2874	  2897	  2920	  2943	  2966	  2989	  3012	  3035	  3058	  3107	  3130	  3153
	  3176	  3199	  3222	  3245	  3268	  3291	  3314	  3337	  3360	  3383	  3406	  3429	  3452	  3475
	  3498	  3545	  3567	  3589	  3611	  3633	  3655	  3677	  3699	  3721	  3743	  3765	  3787	  3809
	  3831	  3853	  3875	  3897	  3919	  3965	  3987	  4009	  4031	  4053	  4075	  4097	  4119	  4141
	  4163	  4185	  4207	  4229	  4251	  4273	  4295	  4317	  4339	  4357	  4367	  4413	  4435	  4457
	  4479	  4501	  4523	  4545	  4567	  4589	  4611	  4633	  4655	  4677	  4699	  4721	  4743	  4765
	  4787	  4834	  4856	  4878	  4900	  4922	  4944	  4966	  4988	  5010	  5032	  5054	  5076	  5098
	  5120	  5142	  5164	  5186	  5208	  5253	  5274	  5295	  5316	  5337	  5358	  5379	  5400	  5421
	  5442	  5463	  5484	  5505	  5526	  5547	  5568	  5589	  5610	  5657	  5679	  5701	  5723	  5745
	  5767	  5789	  5811	  5833	  5855	  5877	  5899	  5921	  5943	  5965	  5987	  6009	  6031	  6048
	  6058	  6109	  6133	  6157	  6181	  6205	  6229	  6253	  6277	  6301	  6325	  6349	  6373	  6397
	  6421	  6445	  6469	  6493	  6517	  6568	  6592	  6616	  6640	  6664	  6688	  6712	  6736	  6760
	  6784	  6808	  6832	  6856	  6880	  6904	  6928	  6952	  6976	  7027	  7051	  7075	  7099	  7123
	  7147	  7171	  7195	  7219	  7243	  7267	  7291	  7315	  7339	  7363	  7387	  7411	  7435	  7486
	  7510	  7534	  7558	  7582	  7606	  7630	  7654	  7678	  7702	  7726	  7750	  7774	  7798	  7822
	  7846	  7870	  7894	 13399	 13416	 13433	 13450	 13467	 13484	 13501	 13518	 13535	 13552	 13569
	 13586	 13603	 13620	 13637	 13654	 13671	 13688	 13705	 13722	 13739	 13756	 13773	 13790
ROTC	   804	   813	  1003	  1020	  1037	  1054	  1071	  1088	  1105	  1122	  1139	  1156	  1173	  1190
	  1207	  1224	  1241	  1258	  1275	  1292	  1330	  1348	  1366	  1384	  1402	  1420	  1438	  1456
	  1474	  1492	  1510	  1528	  1546	  1564	  1582	  1600	  1618	  1636	  1683	  1701	  1719	  1737
	  1755	  1773	  1791	  1809	  1827	  1845	  1863	  1881	  1899	  1917	  1935	  1953	  1971	  1989
	  2027	  2045	  2063	  2081	  2099	  2117	  2135	  2153	  2171	  2189	  2207	  2225	  2243	  2261
	  2279	  2297	  2315	  2333	  2562	  2576	  2590	  7916	  7929	  7981	  8006	  8031	  8056	  8081
	  8106	  8131	  8156	  8181	  8206	  8231	  8256	  8281	  8306	  8331	  8356	  8381	  8406	  8453
	  8475	  8497	  8519	  8541	  8563	  8585	  8607	  8629	  8651	  8673	  8695	  8717	  8739	  8761
	  8783	  8805	  8857	  8882	  8907	  8932	  8957	  8982	  9007	  9032	  9057	  9082	  9107	  9132
	  9157	  9182	  9207	  9232	  9257	  9282	  9331	  9354	  9377	  9400	  9423	  9446	  9469	  9492     SEQ 0382
	  9515	  9538	  9561	  9584	  9607	  9630	  9653	  9676	  9699	  9719	  9732	  9785	  9811	  9837
	  9863	  9889	  9915	  9941	  9967	  9993	 10019	 10045	 10071	 10097	 10123	 10149	 10175	 10201
	 10227	 10276	 10299	 10322	 10345	 10368	 10391	 10414	 10437	 10460	 10483	 10506	 10529	 10552
	 10575	 10598	 10621	 10644	 10697	 10722	 10747	 10772	 10797	 10822	 10847	 10872	 10897	 10922
	 10947	 10972	 10997	 11022	 11047	 11072	 11097	 11122	 11169	 11191	 11213	 11235	 11257	 11279
	 11301	 11323	 11345	 11367	 11389	 11411	 11433	 11455	 11477	 11499	 11521	 11541	 11554	 11610
	 11637	 11664	 11691	 11718	 11745	 11772	 11799	 11826	 11853	 11880	 11907	 11934	 11961	 11988
	 12015	 12042	 12069	 12118	 12141	 12164	 12187	 12210	 12233	 12256	 12279	 12302	 12325	 12348
	 12371	 12394	 12417	 12440	 12463	 12522	 12550	 12578	 12606	 12634	 12662	 12690	 12718	 12746
	 12774	 12802	 12830	 12858	 12886	 12914	 12942	 12970	 12998	 13045	 13067	 13089	 13111	 13133
	 13155	 13177	 13199	 13221	 13243	 13265	 13287	 13309	 13331	 13353	 13375	 14569	 14587	 14605
	 14623	 14641	 14659	 14677	 14695	 14713	 14731	 14749	 14767	 14785	 14803	 14821	 14839	 14857
	 14875	 14893	 14911	 14929	 14947	 14965	 14983	 15001	 15019	 15037	 15055	 15073	 15091	 15109
	 15127	 15145	 15163	 15181	 15199	 15217	 15235	 15253	 15271	 15289	 15307	 15325	 15343	 15361
	 15379	 15397	 15415
SETO	   811	   863	   915
SETOB	   790	   812	   842	   864	   894	   916	  2618	  4366	  6057	  7927	  9730	 11552
SETOM	  1680	  1698	  1716	  1734	  1752	  1770	  1788	  1806	  1824	  1842	  1860	  1878	  1896	  1914
	  1932	  1950	  1968	  1986	  2024	  2042	  2060	  2078	  2096	  2114	  2132	  2150	  2168	  2186
	  2204	  2222	  2240	  2258	  2276	  2294	  2312	  2330	  7928	  8851	  8876	  8901	  8926	  8951
	  8976	  9001	  9026	  9051	  9076	  9101	  9126	  9151	  9176	  9201	  9226	  9251	  9276	  9328
	  9351	  9374	  9397	  9420	  9443	  9466	  9489	  9512	  9535	  9558	  9581	  9604	  9627	  9650
	  9673	  9696	  9731	 10691	 10716	 10741	 10766	 10791	 10816	 10841	 10866	 10891	 10916	 10941
	 10966	 10991	 11016	 11041	 11066	 11091	 11116	 11166	 11188	 11210	 11232	 11254	 11276	 11298
	 11320	 11342	 11364	 11386	 11408	 11430	 11452	 11474	 11496	 11518	 11553	 12514	 12542	 12570
	 12598	 12626	 12654	 12682	 12710	 12738	 12766	 12794	 12822	 12850	 12878	 12906	 12934	 12962
	 12990	 13042	 13064	 13086	 13108	 13130	 13152	 13174	 13196	 13218	 13240	 13262	 13284	 13306
	 13328	 13350	 13372	 15452	 15550	 15556
SETZ	   784	   836	   888	  2560	  2574	  2588	  7975	  8000	  8025	  8050	  8075	  8100	  8125	  8150
	  8175	  8200	  8225	  8250	  8275	  8300	  8325	  8350	  8375	  8400	  8450	  8472	  8494	  8516
	  8538	  8560	  8582	  8604	  8626	  8648	  8670	  8692	  8714	  8736	  8758	  8780	  8802	  9779
	  9805	  9831	  9857	  9883	  9909	  9935	  9961	  9987	 10013	 10039	 10065	 10091	 10117	 10143
	 10169	 10195	 10221	 10273	 10296	 10319	 10342	 10365	 10388	 10411	 10434	 10457	 10480	 10503
	 10526	 10549	 10572	 10595	 10618	 10641	 11602	 11629	 11656	 11683	 11710	 11737	 11764	 11791
	 11818	 11845	 11872	 11899	 11926	 11953	 11980	 12007	 12034	 12061	 12114	 12137	 12160	 12183
	 12206	 12229	 12252	 12275	 12298	 12321	 12344	 12367	 12390	 12413	 12436	 12459
SETZB	   803	   855	   907	  2608	  4356	  6047	  7914	  9717	 11539
SETZM	  1001	  1018	  1035	  1052	  1069	  1086	  1103	  1120	  1137	  1154	  1171	  1188	  1205	  1222
	  1239	  1256	  1273	  1290	  1327	  1345	  1363	  1381	  1399	  1417	  1435	  1453	  1471	  1489
	  1507	  1525	  1543	  1561	  1579	  1597	  1615	  1633	  7915	  9718	 11540	 15436	 15447
SIXBIT	    83	    84	   627	   628	   636	   637	 15456	 15460	 15471	 15496	 15576
SKIPE	   786	   805	   807	   838	   857	   859	   890	   909	   911
SKIPGE	 15445
SKIPL	 15448	 15561
SKIPN	 15450	 15453	 15557
SUBTTL	    29	   135	   170	   372	   409	   410	   764	   923	   963	  2338	  2473	  2595	  7899	 13380
	 13797	 14145	 14545	 15423	 15578
TITLE	    13
TLNE	 15438	 15481	 15547	 15551
TLNN	 15549	 15571
TRNE	 15501	 15503	 15505
VAR	 15668
XCT	 15538                                                                                                             SEQ 0383
XLIST	     7	   370	   408	   541	 15464	 15534	 15582
XWD	   936	   937	   939	   941	   955	   956	   958	   960	  2356	  2357	  2359	  2361	  2371	  2372
	  2374	  2376	  2386	  2387	  2389	  2391	  2401	  2402	  2404	  2406	  2417	  2418	  2420	  2422
	  2433	  2434	  2436	  2438	  2449	  2450	  2452	  2454	  2465	  2466	  2468	  2470	 13397	 13398
	 13400	 13402	 13414	 13415	 13417	 13419	 13431	 13432	 13434	 13436	 13448	 13449	 13451	 13453
	 13465	 13466	 13468	 13470	 13482	 13483	 13485	 13487	 13499	 13500	 13502	 13504	 13516	 13517
	 13519	 13521	 13533	 13534	 13536	 13538	 13550	 13551	 13553	 13555	 13567	 13568	 13570	 13572
	 13584	 13585	 13587	 13589	 13601	 13602	 13604	 13606	 13618	 13619	 13621	 13623	 13635	 13636
	 13638	 13640	 13652	 13653	 13655	 13657	 13669	 13670	 13672	 13674	 13686	 13687	 13689	 13691
	 13703	 13704	 13706	 13708	 13720	 13721	 13723	 13725	 13737	 13738	 13740	 13742	 13754	 13755
	 13757	 13759	 13771	 13772	 13774	 13776	 13788	 13789	 13791	 13793	 13814	 13815	 13817	 13819
	 13831	 13832	 13834	 13836	 13848	 13849	 13851	 13853	 13865	 13866	 13868	 13870	 13882	 13883
	 13885	 13887	 13899	 13900	 13902	 13904	 13916	 13917	 13919	 13921	 13933	 13934	 13936	 13938
	 13950	 13951	 13953	 13955	 13967	 13968	 13970	 13972	 13984	 13985	 13987	 13989	 14001	 14002
	 14004	 14006	 14018	 14019	 14021	 14023	 14035	 14036	 14038	 14040	 14052	 14053	 14055	 14057
	 14069	 14070	 14072	 14074	 14086	 14087	 14089	 14091	 14103	 14104	 14106	 14108	 14120	 14121
	 14123	 14125	 14137	 14138	 14140	 14142	 14162	 14163	 14165	 14167	 14179	 14180	 14182	 14184
	 14196	 14197	 14199	 14201	 14213	 14214	 14216	 14218	 14230	 14231	 14233	 14235	 14247	 14248
	 14250	 14252	 14264	 14265	 14267	 14269	 14281	 14282	 14284	 14286	 14298	 14299	 14301	 14303
	 14315	 14316	 14318	 14320	 14332	 14333	 14335	 14337	 14349	 14350	 14352	 14354	 14366	 14367
	 14369	 14371	 14383	 14384	 14386	 14388	 14400	 14401	 14403	 14405	 14417	 14418	 14420	 14422
	 14434	 14435	 14437	 14439	 14451	 14452	 14454	 14456	 14468	 14469	 14471	 14473	 14485	 14486
	 14488	 14490	 14502	 14503	 14505	 14507	 14519	 14520	 14522	 14524	 14536	 14537	 14539	 14541
	 14567	 14568	 14570	 14572	 14585	 14586	 14588	 14590	 14603	 14604	 14606	 14608	 14621	 14622
	 14624	 14626	 14639	 14640	 14642	 14644	 14657	 14658	 14660	 14662	 14675	 14676	 14678	 14680
	 14693	 14694	 14696	 14698	 14711	 14712	 14714	 14716	 14729	 14730	 14732	 14734	 14747	 14748
	 14750	 14752	 14765	 14766	 14768	 14770	 14783	 14784	 14786	 14788	 14801	 14802	 14804	 14806
	 14819	 14820	 14822	 14824	 14837	 14838	 14840	 14842	 14855	 14856	 14858	 14860	 14873	 14874
	 14876	 14878	 14891	 14892	 14894	 14896	 14909	 14910	 14912	 14914	 14927	 14928	 14930	 14932
	 14945	 14946	 14948	 14950	 14963	 14964	 14966	 14968	 14981	 14982	 14984	 14986	 14999	 15000
	 15002	 15004	 15017	 15018	 15020	 15022	 15035	 15036	 15038	 15040	 15053	 15054	 15056	 15058
	 15071	 15072	 15074	 15076	 15089	 15090	 15092	 15094	 15107	 15108	 15110	 15112	 15125	 15126
	 15128	 15130	 15143	 15144	 15146	 15148	 15161	 15162	 15164	 15166	 15179	 15180	 15182	 15184
	 15197	 15198	 15200	 15202	 15215	 15216	 15218	 15220	 15233	 15234	 15236	 15238	 15251	 15252
	 15254	 15256	 15269	 15270	 15272	 15274	 15287	 15288	 15290	 15292	 15305	 15306	 15308	 15310
	 15323	 15324	 15326	 15328	 15341	 15342	 15344	 15346	 15359	 15360	 15362	 15364	 15377	 15378
	 15380	 15382	 15395	 15396	 15398	 15400	 15413	 15414	 15416	 15418
