DSKFA	DECSYSTEM 2020 INSTRUCTION TIMING TEST, VER 0,1 	MACRO %51(414) 10:09 21-APR-78 PAGE 1
DSKFAT	MAC	21-APR-78 10:05		DIAGNOSTIC PARAMETERS                                                              SEQ 0015

     1					;*MAINDEC-10-DSKFA
     2
     3			000000		MCNVER=0
     4			000001		DECVER=1
     5
     6						XLIST
     7						LIST
     8						LALL
     9
    10					NAME	\MCNVER,\DECVER^
    11
    12					TITLE	DSKFA	DECSYSTEM 2020 INSTRUCTION TIMING TEST, VER 0,1 ^
    13
    14						XALL
    15
    16					;*COPYRIGHT 1978
    17					;*DIGITAL EQUIPMENT CORPORATION
    18					;*MARLBORO, MASS. 01752
    19
    20					;*JOHN R. KIRCHOFF
    21
    22	000137					LOC	137
    23	000137	000000	000001		MCNVER,,DECVER
    24
    25						NOSYM
DSKFA	DECSYSTEM 2020 INSTRUCTION TIMING TEST, VER 0,1 	MACRO %51(414) 10:09 21-APR-78 PAGE 2
DSKFAT	MAC	21-APR-78 10:05		DIAGNOSTIC PARAMETERS                                                              SEQ 0016

    26					;*THIS PROGRAM IS CONTROLLED BY A TABLE HAVING THE FOLLOWING
    27					;*FORMAT.  TABLE STARTS AT LOCATION TABLE. 8 WORDS PER ENTRY.
    28
    29					;*	INSTR ADR		;1,2, OR 3 INSTRUCTIONS TO BE TIMED.  IF
    30					;*	INSTR ADR		;INSTR ADR=0 IT IS IGNORED. IF ADR=1
    31					;*	INSTR ADR		;IT IS CHANGED TO .+1
    32					;*
    33					;*	XWD RESULT,MESSAGE	;RESULT RECEIVES THE TIME IN NS.
    34					;*				;FOR THE ABOVE 3 INSTRUCTIONS.
    35					;*				;MESSAGE IS THE FIRST ADDRESS
    36					;*				;OF AN ID MESSAGE TO BE PRINTED.
    37					;*
    38					;*	XWD 0,ADR		;UP TO 3 TIMING CALCULATION COMMANDS.
    39					;*	XWD -1,ADR		;LEFT HALF + MEANS ADD. LEFT
    40					;*	XWD 0,0			;HALF - MEANS SUBTRACT.  BOTH
    41					;*				;HALVES 0 MEANS IGNORE. DATA
    42					;*				;IS FOUND IN LEFT HALF OF
    43					;*				;C(ADR)
    44					;*
    45					;*	XWD LEFT,NEXT		;ADDRESS OF NEXT TABLE ENTRY.
    46					;*				;NEXT=0 MEANS END OF TABLE.
    47					;*				;LEFT HALF
    48					;*			 	;**N/A**NEG. MEANS USER MODE
    49					;*				;BITS 9-17 GIVE DIVISOR FACTOR
DSKFA	DECSYSTEM 2020 INSTRUCTION TIMING TEST, VER 0,1 	MACRO %51(414) 10:09 21-APR-78 PAGE 3
DSKFAT	MAC	21-APR-78 10:05		DIAGNOSTIC PARAMETERS                                                              SEQ 0017

    50					SUBTTL	DIAGNOSTIC PARAMETERS
    51
    52						LALL
    53					;*AC ASSIGNMENTS
    54
    55			000000			AC=0			;AN AC!
    56			000002			TB=2			;CURRENT TABLE ADDRESS
    57			000004			T=4			;TEMPORARY
    58			000005			TT=T+1			;TEMPORARY
    59			000006			T1=TT+1			;TEMPORARY
    60			000007			C=7			;ITERATIONS PER LOOP
    61			000010			CC=C+1			;LOOPS
    62
    63					;*SUBROUTINE ASSEMBLY DEFINITIONS
    64
    65			000001		EXCASB==1
    66			000100		DEBUG==100
    67			000001		PGMEND==1
    68
    69					;*NEW OP CODE DEFINITIONS
    70
    71		110000	000000		OPDEF	DFAD	[110B8]
    72		111000	000000		OPDEF	DFSB	[111B8]
    73		112000	000000		OPDEF	DFMP	[112B8]
    74		113000	000000		OPDEF	DFDV	[113B8]
    75		120000	000000		OPDEF	DMOVE	[120B8]
    76		121000	000000		OPDEF	DMOVN	[121B8]
    77		122000	000000		OPDEF	FIX	[122B8]
    78		124000	000000		OPDEF	DMOVEM	[124B8]
    79		125000	000000		OPDEF	DMOVNM	[125B8]
    80		126000	000000		OPDEF	FIXR	[126B8]
    81		127000	000000		OPDEF	FLTR	[127B8]
DSKFA	DECSYSTEM 2020 INSTRUCTION TIMING TEST, VER 0,1 	MACRO %51(414) 10:09 21-APR-78 PAGE 4
DSKFAT	MAC	21-APR-78 10:05		DIAGNOSTIC PARAMETERS                                                              SEQ 0018

    82					;*BEGIN ASSEMBLY PARAMETERS
    83
    84			030000		SADR1=	BEGIN			;NO SPECIAL FEATURE START
    85			030076		SADR2=	RESRT1			;POWER FAIL RESTART
    86			030000		SADR3=	BEGIN			;NO REENTER START
    87			030007		SADR4=	srtddt			;DDT
    88			030061		SADR5=	$bend2			;^C - START OVER
    89			030000		SADR6=	BEGIN			;NO ALTMODE
    90		254200	030000		SADR7=	HALT BEGIN
    91		254200	030000		SADR8=	HALT BEGIN
    92		254200	030000		SADR9=	HALT BEGIN
    93		254200	030000		SADR10=	HALT BEGIN
    94		254200	030000		SADR11=	HALT BEGIN
    95
    96			000000		PAREA1=	0			;NO RANDOM
    97			000000		PAREA2=	0			;NO SYS EXR
    98		446353	464100		PAREA3=	SIXBIT/DSKFA/
    99			000000		PAREA4=	0
   100			000000		PAREA5=	0
   101			000000		PAREA6=	0
   102
   103			000000		ITERAT=	0
DSKFA	DECSYSTEM 2020 INSTRUCTION TIMING TEST, VER 0,1 	MACRO %51(414) 10:09 21-APR-78 PAGE 1
PARAM	KSM	28-MAR-78 11:27		CONSOLE DATA SWITCH ASSIGNMENTS, MARCH 1978                                        SEQ 0019

   104					SUBTTL	CONSOLE DATA SWITCH ASSIGNMENTS, MARCH 1978
   105
   106					DEFINE	S,<;*********************************************************************>
   107
   108					S^;*********************************************************************^
   109					;*DATA SWITCHES
   110					;*LEFT HALF SWITCHES ARE PRE-ASSIGNED FOR SUBROUTINE PACKAGE USE
   111					;*AND CONTROL LOOPING, PRINTING (TTY OR OTHER DEVICE) AND MISC. FUNCTIONS
   112					S^;*********************************************************************^
   113
   114			400000		ABORT==	400000			;ABORT PROGRAM ON PASS COMPLETION
   115			200000		RSTART==200000			;RESTART TEST, PRINT TOTALS
   116			100000		TOTALS==100000			;PRINT TOTALS, CONTINUE
   117
   118			040000		NOPNT==	040000			;INHIBIT ALL PRINT/TYPE OUT (EXCEPT FORCED)
   119			020000		PNTLPT==020000			;PRINT ALL DATA ON LPT (LOGICAL DEVICE, USER MODE)
   120			010000		DING==	010000			;RING BELL ON ERROR
   121
   122			004000		LOOPER==004000			;ENTER EXERCISE/CHECK LOOP ON ERROR
   123			002000		ERSTOP==002000			;HALT ON TEST ERROR
   124			001000		PALERS==001000			;PRINT ALL ERRORS
   125
   126			000400		RELIAB==000400			;RELIABILITY MODE
   127			000200		TXTINH==000200			;INHIBIT ERROR TEXT
   128			000100		INHPAG==000100			;INHIBIT PAGING
   129
   130			000040		MODDVC==000040			;MODIFY DEVICE CODE
   131			000020		INHCSH==000020			;INHIBIT CACHE
   132			000010		OPRSEL==000010			;OPERATOR SELECTION
   133
   134			000004		CHAIN==	000004			;CHAIN CONTROL SWITCH
   135
   136									;SWITCH 16 RESERVED
   137
   138									;SWITCH 17 RESERVED !!!
DSKFA	DECSYSTEM 2020 INSTRUCTION TIMING TEST, VER 0,1 	MACRO %51(414) 10:09 21-APR-78 PAGE 2
PARAM	KSM	28-MAR-78 11:27		PROGRAM/SUBROUTINE PARAMETERS                                                      SEQ 0020

   139					SUBTTL	PROGRAM/SUBROUTINE PARAMETERS
   140
   141					S^;*********************************************************************^
   142					;*SPECIAL SUBPROGRAM LINKAGES
   143					S^;*********************************************************************^
   144
   145			027772		FSELNK=	27772	;FILE SELECT LINK
   146			027773		FRDLNK=	27773	;FILE READ LINK
   147			027774		LDLNK=	27774	;LOAD LINKAGE ADDRESS
   148			027775		DDTLNK=	27775	;DDT LINKAGE ADDRESS
   149			027776		MODLNK=	27776	;OPERATIONAL MODE CHECK LINKAGE ADDRESS
   150			027777		SUBLNK=	27777	;SUBROUTINE LINKAGE ADDRESS
   151
   152					S^;*********************************************************************^
   153					;*SPECIAL SUBROUTINE FATAL HALTS
   154					;*USED TO REPORT ERRORS THAT CAUSE THE SUBROUTINES TO BE UNUSABLE
   155					S^;*********************************************************************^
   156
   157					;ADDRESS   TAG	REASON
   158					;---------------------
   159
   160					; 1010 	NOEXEC	;PROGRAM NOT CODED FOR EXEC MODE OPERATION
   161					; 1011  PLERR	;FATAL PUSH LIST POINTER ERROR
   162					; 1012  PLERR1	;INITIAL PUSH LIST POINTER ERROR
   163					; 1013  MUOERR	;MUUO WITH LUUO HANDLER WIPED OUT
   164					; 1014  SMBER	;KS-10 INTERRUPT WITHOUT DOORBELL
   165					; 1015  SMCER	;KS-10 CLOCK INTERRUPT WITHOUT FLAG SET
   166					; 1016  CPIERR	;CPU INITIALIZATION ERROR
   167					; 1017  EOPERR	;END OF PROGRAM ERROR
   168					; 1020  LUOERR	;INTERRUPT WITH LUUO HANDLER WIPED OUT
   169
   170					S^;*********************************************************************^
DSKFA	DECSYSTEM 2020 INSTRUCTION TIMING TEST, VER 0,1 	MACRO %51(414) 10:09 21-APR-78 PAGE 3
PARAM	KSM	28-MAR-78 11:27		PROGRAM/SUBROUTINE PARAMETERS                                                      SEQ 0021

   171					S^;*********************************************************************^
   172					;OPERATOR DEFINITIONS (NON-UUO'S)
   173					S^;*********************************************************************^
   174
   175		260740	000000		OPDEF	GO	[PUSHJ	P,]	;SUBROUTINE CALL
   176		263740	000000		OPDEF	RTN	[POPJ	P,]	;SUBROUTINE RETURN
   177		261740	000000		OPDEF	PUT	[PUSH	P,]	;PUT DATA ON PUSH LIST
   178		262740	000000		OPDEF	GET	[POP	P,]	;GET DATA FROM PUSH LIST
   179		254000	000000		OPDEF	PJRST	[JRST	]	;JRST TO ROUTINE THAT RTN'S
   180		254200	000000		OPDEF	HALT	[JRST	4,]	;DEFINITION FOR DDT
   181		254100	000000		OPDEF	JRSTF	[JRST	2,]	;DEFINITION FOR DDT
   182		254500	000000		OPDEF	JEN	[JRST	12,]	;DEFINITION FOR DDT
   183
   184					S^;*********************************************************************^
   185					;*SUBROUTINE INITIALIZATION CALL
   186					S^;*********************************************************************^
   187
   188		265000	030011		OPDEF	PGMINT	[JSP	0,SBINIT]	;SUBROUTINE INITIALIZATION
   189
   190					S^;*********************************************************************^
   191					;*HALTING UUO'S (A MORE GRACEFUL HALT THAN SIMPLY USING THE HALT INSTRUCTION).
   192					S^;*********************************************************************^
   193
   194		037640	000004		OPDEF	FATAL	[37B8!15B12!4]	;FATAL PROGRAMMING HALT
   195		037600	000004		OPDEF	ERRHLT	[37B8!14B12!4]	;PROGRAM ERROR HALT
   196
   197					S^;*********************************************************************^
   198					;*TERMINAL INPUT UUO'S
   199					;*ALWAYS COME FROM THE CONSOLE TERMINAL IN EXEC MODE OR THE
   200					;*CONTROLLING TERMINAL (REAL TERMINAL OR PTY) IN USER MODE.
   201					S^;*********************************************************************^
   202
   203		037000	000003		OPDEF	TTICHR 	[37B8!0B12!3]	;TTY, INPUT ANY CHARACTER
   204		037040	000003		OPDEF	TTIYES	[37B8!1B12!3]	;TTY, NORMAL RETURN Y
   205		037100	000003		OPDEF	TTINO	[37B8!2B12!3]	;TTY, NORMAL RETURN N
   206		037140	000003		OPDEF	TTIOCT	[37B8!3B12!3]	;TTY, INPUT OCTAL WORD
   207		037200	000003		OPDEF	TTIDEC	[37B8!4B12!3]	;TTY, INPUT DECIMAL WORD
   208		037240	000003		OPDEF	TTICNV	[37B8!5B12!3]	;TTY, INPUT CONVERTABLE WORD
   209		037300	000003		OPDEF	TTLOOK	[37B8!6B12!3]	;TTY, KEYBOARD CHECK
   210		037340	000003		OPDEF	TTALTM	[37B8!7B12!3]	;TTY, ALT-MODE CHECK
   211		037400	000003		OPDEF	TTSIXB	[37B8!10B12!3]	;TTY, INPUT SIXBIT WORD
   212		037440	000003		OPDEF	TTYINP	[37B8!11B12!3]	;TTY, IMAGE MODE INPUT
   213		037500	000003		OPDEF	TTICLR	[37B8!12B12!3]	;TTY, CLEAR INPUT
DSKFA	DECSYSTEM 2020 INSTRUCTION TIMING TEST, VER 0,1 	MACRO %51(414) 10:09 21-APR-78 PAGE 4
PARAM	KSM	28-MAR-78 11:27		PROGRAM/SUBROUTINE PARAMETERS                                                      SEQ 0022

   214					;*TERMINAL OUTPUT UUO'S.
   215
   216		037000	000000		OPDEF	PNTA	[37B8!0B12!0]	;PRINT ASCII WORD
   217		037000	000001		OPDEF	PNTAF	[37B8!0B12!1]	;PRINT ASCII WORD FORCED
   218		037740	000000		OPDEF	PNTAL	[37B8!17B12!0]	;PRINT ASCIZ LINE
   219		037740	000001		OPDEF	PNTALF	[37B8!17B12!1]	;PRINT ASCIZ LINE FORCED
   220		037600	000003		OPDEF	PSIXL	[37B8!14B12!3]	;PRINT SIXBIT'Z LINE
   221		037640	000003		OPDEF	PSIXLF	[37B8!15B12!3]	;PRINT SIXBIT'Z LINE FORCED
   222		037000	000000		OPDEF	PNTMSG	[37B8!0B12!0]	;PRINT MESSAGE IMMEDIATE
   223		037040	000000		OPDEF	PNTMSF	[37B8!1B12!0]	;PRINT MESSAGE IMMEDIATE FORCED
   224		037100	000000		OPDEF	PSIXM	[37B8!2B12!0]	;PRINT SIXBIT'Z MSG IMMEDIATE
   225		037200	000000		OPDEF	PSIXMF	[37B8!4B12!0]	;PRINT SIXBIT'Z MSG IMM FORCED
   226		037000	000000		OPDEF	PNTCI	[37B8!0B12!0]	;PRINT CHARACTER IMMEDIATE
   227		037040	000000		OPDEF	PNTCIF	[37B8!1B12!0]	;PRINT CHARACTER IMMEDIATE FORCED
   228		037500	000000		OPDEF	PNTCHR	[37B8!12B12!0]	;PRINT CHARACTER
   229		037500	000001		OPDEF	PNTCHF	[37B8!12B12!1]	;PRINT CHARACTER FORCED
   230		037040	000000		OPDEF	PNT1	[37B8!1B12!0]	;PRINT ONE OCTAL DIGIT
   231		037040	000001		OPDEF	PNT1F	[37B8!1B12!1]	;PRINT 1 OCTAL DIGIT FORCED
   232		037100	000000		OPDEF	PNT2	[37B8!2B12!0]	;PRINT TWO OCTAL DIGITS
   233		037100	000001		OPDEF	PNT2F	[37B8!2B12!1]	;PRINT 2 OCTAL DIGITS FORCED
   234		037140	000000		OPDEF	PNT3	[37B8!3B12!0]	;PRINT THREE OCTAL DIGITS
   235		037140	000001		OPDEF	PNT3F	[37B8!3B12!1]	;PRINT THREE OCTAL DIGITS FORCED
   236		037200	000000		OPDEF	PNT4	[37B8!4B12!0]	;PRINT FOUR OCTAL DIGITS
   237		037200	000001		OPDEF	PNT4F	[37B8!4B12!1]	;PRINT FOUR OCTAL DIGITS FORCED
   238		037240	000000		OPDEF	PNT5	[37B8!5B12!0]	;PRINT FIVE OCTAL DIGITS
   239		037240	000001		OPDEF	PNT5F	[37B8!5B12!1]	;PRINT FIVE OCTAL DIGITS FORCED
   240		037300	000000		OPDEF	PNT6	[37B8!6B12!0]	;PRINT SIX OCTAL DIGITS
   241		037300	000001		OPDEF	PNT6F	[37B8!6B12!1]	;PRINT SIX OCTAL DIGITS FORCED
   242		037340	000000		OPDEF	PNT7	[37B8!7B12!0]	;PRINT 7 OCTAL DIGITS
   243		037340	000001		OPDEF	PNT7F	[37B8!7B12!1]	;PRINT 7 OCTAL DIGITS FORCED
   244		037440	000000		OPDEF	PNT11	[37B8!11B12!0]	;PRINT 11 OCTAL DIGITS
   245		037440	000001		OPDEF	PNT11F	[37B8!11B12!1]	;PRINT 11 OCTAL DIGITS FORCED.
   246		037400	000000		OPDEF	PNTADR	[37B8!10B12!0]	;PRINT PHYSICAL ADDRESS
   247		037400	000001		OPDEF	PNTADF	[37B8!10B12!1]	;PRINT PHYSICAL ADDRESS FORCED
   248		037600	000000		OPDEF	PNTOCT  [37B8!14B12!0]	;PRINT FULL WORD OCTAL
   249		037600	000001		OPDEF	PNTOTF	[37B8!14B12!1]	;PRINT FULL WORD OCTAL FORCED
   250		037540	000000		OPDEF	PNTHW	[37B8!13B12!0]	;PRINT OCTAL HALF WORDS, 6 SP 6
   251		037540	000001		OPDEF	PNTHWF	[37B8!13B12!1]	;PRINT OCTAL HALF WORDS, 6 SP 6 FORCED
   252		037700	000003		OPDEF	PNTOCS	[37B8!16B12!3]	;PRINT OCTAL, SUPPRESS LEADING 0'S
   253		037740	000003		OPDEF	PNTOCF	[37B8!17B12!3]	;PRINT OCTAL, SUPPRESS LEADING 0'S FORCED
   254		037640	000000		OPDEF	PNTDEC	[37B8!15B12!0]	;PRINT DECIMAL, SUPRESS LEADING 0'S
   255		037640	000001		OPDEF	PNTDCF	[37B8!15B12!1]	;PRINT DECIMAL, SUPRESS LEADING 0'S FORCED
   256		037700	000000		OPDEF	PNTDS	[37B8!16B12!0]	;PRINT DECIMAL, SPACES FOR LD 0'S
   257		037700	000001		OPDEF	PNTDSF	[37B8!16B12!1]	;PRINT DECIMAL, SPACES FOR LD 0'S FORCED
DSKFA	DECSYSTEM 2020 INSTRUCTION TIMING TEST, VER 0,1 	MACRO %51(414) 10:09 21-APR-78 PAGE 5
PARAM	KSM	28-MAR-78 11:27		PROGRAM/SUBROUTINE PARAMETERS                                                      SEQ 0023

   258		037200	000002		OPDEF	PNTNM	[37B8!4B12!2]	;PRINT PROGRAM NAME
   259		037000	000002		OPDEF	PNTSIX	[37B8!0B12!2]	;PRINT SIXBIT WORD
   260		037040	000002		OPDEF	PNTSXF	[37B8!1B12!2]	;PRINT SIXBIT WORD FORCED
   261		037240	000002		OPDEF	DROPDV	[37B8!5B12!2]	;CLOSE LOGICAL FILE, USER MODE
   262		037100	000002		OPDEF	PNTCW	[37B8!2B12!2]	;PRINT DF10 CONTROL WORD
   263		037140	000002		OPDEF	PNTCWF	[37B8!3B12!2]	;PRINT DF10 CONTROL WORD FORCED
   264		037000	030242		OPDEF	PCRL	[37B8!0B12!CRLF] ;PRINT CARRIAGE RETURN/LINE FEED
   265		037040	030242		OPDEF	PCRLF	[37B8!1B12!CRLF] ;PRINT CARRIAGE RETURN/LINE FEED FORCED
   266		037000	000040		OPDEF	PSP	[37B8!0B12!40]	;PRINT SPACE
   267		037040	000040		OPDEF	PSPF	[37B8!1B12!40]	;PRINT SPACE FORCED
   268		037000	030243		OPDEF	PCRL2	[37B8!0B12!CRLF2] ;PRINT CARRIAGE RETURN/LINE FEED (TWICE)
   269		037040	030243		OPDEF	PCRL2F	[37B8!1B12!CRLF2] ;PRINT CARRIAGE RETURN/LINE FEED (TWICE) FORCED
   270		037040	000007		OPDEF	PBELL	[37B8!1B12!7]	;PRINT TTY BELL
   271
   272		037040	000026		OPDEF	PFORCE	[37B8!1B12!26]	;PRINT FORCE, CONTROL O OVERRIDE
   273
   274					DEFINE	PMSG	(ARG),<
   275						PSIXM	[SIXBIT\ARG'_\]>
   276
   277					DEFINE	PMSGF	(ARG),<
   278						PSIXMF	[SIXBIT\ARG'_\]>
   279
   280					;*SIXBTZ -- MACRO TO GENERATE SIXBIT DATA FOR PRINTING
   281					;*	CONSERVES CORE OVER ASCIZ
   282
   283					DEFINE	SIXBTZ	(ARG),<	[SIXBIT\ARG'_\]>
   284
   285					;*CONSOLE SWITCH INPUT UUO.
   286					;*READS CONSOLE SWITCHES IF IN EXEC MODE OR ASKS FOR THEM IF
   287					;* USER MODE.
   288
   289		037400	000002		OPDEF	SWITCH	[37B8!10B12!2]	;INPUT CONSOLE SWITCHES
   290
   291					;*CLOCK INITIALIZATION UUO - TO SET DESIRED CLOCK OPERATION
   292					;*EITHER IGNORE CLOCK, ONLY LET IT TICK OR CAUSE INTERRUPT TO OCCUR.
   293
   294		037540	000004		OPDEF	CLOKOP	[37B8!13B12!4]	;CLOCK OPERATION UUO - CLOCK
   295		037200	000004		OPDEF	MTROP	[37B8!4B12!4]	;CLOCK OPERATION UUO - METER
   296
   297					;*KS-10 CACHE OPERATION UUO'S
   298
   299		037040	000004		OPDEF	CINVAL	[37B8!1B12!4]	;CACHE INVALIDATE
   300		037100	000004		OPDEF	CFLUSH	[37B8!2B12!4]	;CACHE FLUSH
   301		037140	000004		OPDEF	CWRTBI	[37B8!3B12!4]	;CACHE WRITE-BACK & INVALIDATE
DSKFA	DECSYSTEM 2020 INSTRUCTION TIMING TEST, VER 0,1 	MACRO %51(414) 10:09 21-APR-78 PAGE 6
PARAM	KSM	28-MAR-78 11:27		PROGRAM/SUBROUTINE PARAMETERS                                                      SEQ 0024

   302					;*END OF PASS/PROGRAM UUOS
   303
   304					;PERFORMS THE END OF PASS FUNCTIONS. INCREMENT PASS COUNT,
   305					;*DECREMENT ITERATION COUNT, CHECK IF FINISHED WITH THIS PROGRAM ETC.
   306
   307		037500	000004		OPDEF	ENDUUO	[37B8!12B12!4]	;UUO TO DISPLAY LIGHTS
   308		037700	000004		OPDEF	EOPUUO	[37B8!16B12!4]	;END OF PROGRAM UUO
   309
   310					;*MEMORY MANAGEMENT UUO'S
   311					;*UUO'S TO PERFORM VARIOUS MEMORY FUNCTIONS. MAPPING, ZEROING, PAGING,
   312					;*ADDRESS CONVERSION, ETC...
   313
   314		037000	000004		OPDEF	MAPMEM	[37B8!0B12!4]	;MAP MEMORY
   315		037500	000002		OPDEF	MEMZRO	[37B8!12B12!2]	;ZERO MEMORY
   316		037440	000002		OPDEF	MEMSEG	[37B8!11B12!2]	;SETUP MEMORY SEGMENT
   317		037540	000002		OPDEF	MAPADR	[37B8!13B12!2]	;VIRTUAL TO PHYSICAL ADR CONVERT
   318		037640	000002		OPDEF	MAPCNK	[37B8!15B12!2]	;MAP MEMORY CHUNK
   319		037600	000002		OPDEF	MAPSET	[37B8!14B12!2]	;SET KI10 EXEC PAGE MAP
   320		037740	000002		OPDEF	MAPPNT	[37B8!17B12!2]	;PRINT MEMORY MAP
   321
   322					;*DEVICE CODE MODIFICATION UUO
   323					;*ALLOWS THE MODIFICATION OF IOT'S TO ONE DEVICE TO BE CHANGED TO
   324					;*IOT'S TO A DIFFERENT DEVICE CODE.
   325
   326		037340	000002		OPDEF	MODPCU	[37B8!7B12!2]	;MODIFY PERHIPERAL CODE, USER
   327		037300	000002		OPDEF	MODPCP	[37B8!6B12!2]	;MODIFY PERHIPERAL CODE, PROGRAM
   328
   329			030000			IFNDEF	MODDVL,<MODDVL==BEGIN>
   330			030000			IFNDEF	MODDVU,<MODDVU==BEGIN>
   331
   332					;*"DIAMON" FILE SELECTION AND READ UUOS
   333
   334		037240	000004		OPDEF	FSELECT	[37B8!5B12!4]	;FILE SELECTION
   335		037300	000004		OPDEF	FREAD	[37B8!6B12!4]	;FILE READ - ASCII DATA
   336		037340	000004		OPDEF	FRD36	[37B8!7B12!4]	;FILE READ - 36 BIT DATA
   337		037400	000004		OPDEF	FRD8	[37B8!10B12!4]	;FILE READ - 8 BIT DATA
   338
   339						XLIST
   340					IFNDEF	EROLD,<LIST
DSKFA	DECSYSTEM 2020 INSTRUCTION TIMING TEST, VER 0,1 	MACRO %51(414) 10:09 21-APR-78 PAGE 7
PARAM	KSM	28-MAR-78 11:27		ERROR HANDLING UUO DEFINITIONS                                                     SEQ 0025

   341					SUBTTL	ERROR HANDLING UUO DEFINITIONS
   342
   343					S^;*********************************************************************^
   344					;*ERROR HANDLER PARAMETERS
   345					S^;*********************************************************************^
   346
   347		036000	000000		OPDEF	ERUUO	[36B8]		;ERROR CALL UUO
   348		035000	000000		OPDEF	ERLOOP	[35B8]		;ERROR LOOP, CHECKS PC,REPT,REPT1,ERROR
   349		035040	000000		OPDEF	ERLP1	[35B8!1B12]	;ERROR LOOP IF PC'S MATCH
   350		035100	000000		OPDEF	ERLP2	[35B8!2B12]	;ERROR LOOP IF ANY ERROR
   351		034000	000000		OPDEF	REPTUO	[34B8]		;REPEAT LOOP UUO
   352
   353					;*THE ERROR HANDLER MACROS
   354
   355					;*A MACRO TO REPORT AN ERROR AND LOOP
   356
   357						DEFINE	ERROR	(ADR,FORMAT,CORECT,ACTUAL,F,D,ERR)<
   358												SALL
   359						ERUUO	FORMAT,[T,,[SIXBIT\F'_\]
   360							   CORECT,,ACTUAL
   361							   [SIXBIT\D'_\],,ERR]
   362												XALL
   363						ERLOOP	ADR		;IF ERROR, LOOP TO ADR
   364					>
   365
   366					;*A MACRO TO REPORT AN ERROR AND NOT LOOP
   367
   368						DEFINE	ERROR1	(FORMAT,CORECT,ACTUAL,F,D,ERR)<
   369												SALL
   370						ERUUO	FORMAT,[T,,[SIXBIT\F'_\]
   371							   CORECT,,ACTUAL
   372							   [SIXBIT\D'_\],,ERR]
   373												XALL>
   374
   375					>;END OF EROLD CONDITIONAL
   376
   377						XLIST
   378						LIST
DSKFA	DECSYSTEM 2020 INSTRUCTION TIMING TEST, VER 0,1 	MACRO %51(414) 10:09 21-APR-78 PAGE 1
FIXED	KSM	28-MAR-78 11:28		*FIXED* FIXED CONTROL AND DISPATCH STORAGE, MARCH 1978                             SEQ 0026

   379					SUBTTL	*FIXED* FIXED CONTROL AND DISPATCH STORAGE, MARCH 1978
   380
   381	030000					LOC	30000
   382
   383					S^;*********************************************************************^
   384					;*PROGRAM STARTING ADDRESSES
   385					;*THESE ADDRESSES CALL VARIOUS SPECIAL START ROUTINES AND OR OPTIONS
   386					;*NORMAL START ADDRESS IS 30000 ALL OTHERS ARE SPECIAL. INVOKED BECAUSE
   387					;*OF END OF PASS, POWER FAILURE, DDT START, RE-ENTERING(TYPICALLY USER
   388					;*MODE), OR ANY NUMBER OF SPECIAL FEATURE TESTS.
   389					S^;*********************************************************************^
   390
   391	030000	254 00 1 00 027776 	BEGIN:	JRST	@MODLNK		;STAND-ALONE START
   392	030001	254 00 0 00 030613 	$START:	JRST	START		;MODE CHECK STARTING ADDRESS
   393
   394	030002	254 00 1 00 027774 	DIAGMN:	JRST	@LDLNK		;DIAGNOSTIC MONITOR START
   395
   396	030003	254 00 1 00 027774 	SYSEXR:	JRST	@LDLNK		;SYSTEM EXERCISER START
   397
   398	030004	254 00 0 00 030000 	SFSTRT:	JRST	SADR1		;SPECIAL FEATURE START
   399
   400	030005	254 00 0 00 030076 	PFSTRT:	JRST	SADR2		;POWER FAIL RESTART
   401
   402	030006	254 00 0 00 030000 	REENTR:	JRST	SADR3		;REENTER START(USUALLY USER MODE ONLY)
   403
   404	030007				SRTDDT:				;COMMONLY MISTAKEN NAME FOR "DDTSRT"
   405	030007	254 00 1 00 027775 	DDTSRT:	JRST	@DDTLNK		;DDT START
   406
   407	030010	254 00 0 00 030613 	BEGIN1:	JRST	STARTA		;LOOP START(END OF PASS COMES HERE)
   408	030011	254 00 1 00 027777 	SBINIT:	JRST	@SUBLNK		;PMGINT LINKAGE
   409	030012	000000	000000		RETURN:	0			;RETURN ADDRESS STORAGE
   410
   411	030013	254200	030000		START1:	SADR7			;OPTIONAL STARTING ADR/INSTRUCTIONS
   412	030014	254200	030000		START2:	SADR8			; "
   413	030015	254200	030000		START3:	SADR9			; "
   414	030016	254200	030000		START4:	SADR10			; "
   415	030017	254200	030000		START5:	SADR11			; "
DSKFA	DECSYSTEM 2020 INSTRUCTION TIMING TEST, VER 0,1 	MACRO %51(414) 10:09 21-APR-78 PAGE 2
FIXED	KSM	28-MAR-78 11:28		*FIXED* FIXED CONTROL AND DISPATCH STORAGE, MARCH 1978                             SEQ 0027

   416					S^;*********************************************************************^
   417					;*PROGRAM FIXED PARAMETER AREA
   418					S^;*********************************************************************^
   419
   420	030020	446353	464100		PNTNAM:	PAREA3		;SIXBIT PROGRAM NAME
   421	030021	000000	000000		PNTEXT:	PAREA4		;SIXBIT PROGRAM EXTENSION
   422	030022	000000	000000		RANDBS:	PAREA1		;RANDOM BASE NUMBER
   423	030023	000000	000000		SWTEXR:	PAREA2		;SYSTEM EXERCISER SWITCHES
   424	030024	000000	000000		ITRCNT:	ITERAT		;PROGRAM ITERATIONS
   425	030025	000000	030600		$PNAME:	PGMNAM		;POINTER TO PROGRAMS NAME
   426	030026	000000	000001		$PVER:	MCNVER,,DECVER	;MCN & DEC VERSION LEVEL
   427	030027	000000	030000		$MODVL:	MODDVL		;DEVICE CODE CHANGE LOWER LIMIT
   428	030030	000000	030000		$MODVU:	MODDVU		;DEVICE CODE CHANGE UPPER LIMIT
   429	030031	777777	777777		$EMODE:	IFNDEF EXCASB,<0> IFDEF EXCASB,<-1>	;EXEC ALLOWED
   430	030032	000000	000000		$UMODE:	IFNDEF USRASB,<0> IFDEF USRASB,<-1>	;USER ALLOWED
   431	030033	000000	000000		$DSKUP:	IFNDEF DSKUPD,<0> IFDEF DSKUPD,<-1>	;DISK UPDATE MODE
   432	030034	000000	000000		$MMAP:	IFNDEF MEMMAP,<0> IFDEF MEMMAP,<-1>	;ALLOW MEMORY RTNS
   433	030035	000000	000000		PAREA7:	PAREA5		;OPTIONAL PARAMETER
   434	030036	000000	000000		PAREA8:	PAREA6		;OPTIONAL PARAMETER
   435
   436					S^;*********************************************************************^
   437					;*PROGRAM VARIABLE PARAMETER AREA
   438					S^;*********************************************************************^
   439
   440	030037	000000	000000		USER:	0		; 0 = EXEC, -1 = USER MODE FLAG
   441	030040	000000	000000		KAIFLG:	0		;PROCESSOR TYPE, 0 = KA10, -1 = KI10
   442	030041	000000	000000		KLFLG:	0		;PROCESSOR TYPE, 0 = KA/KI, -1 = KL10
   443	030042	777777	777777		MONFLG:	-1		;DIAG MONITOR SPECIAL USER FLAG
   444	030043	000000	000000		MONCTL:	0		;DIAG MON/SYS EXR FLAG
   445	030044	000000	000000		MONTEN:	0		;-1= LOADED BY 10
   446	030045	000000	000000		CLOCKF:	0		;CLOCK TICKED FLAG
   447	030046	000000	000000		CONSW:	0		;CONSOLE SWITCH SETTINGS
   448	030047	000000	000000		PASCNT:	0		;PROGRAM PASS COUNT
   449	030050	000000	000000		RUNFLG:	0		;PROGRAM RUN FLAG
   450	030051	000000	000000		TESTPC:	0		;SUBTEST PC
   451	030052	000000	000000		ERRPC:	0		;ERROR PC
   452	030053	000000	000000		ERRTLS:	0		;ERROR TOTALS
   453	030054	000000	000000		TICKS:	0		;PROGRAM RUNNING TIME
   454	030055	000000	000000		MARGIN:	0		;KI10 MARGIN WORD VALUE
   455	030056	000000	000000		$ONETM:	0		;SUBROUTINE INITIALIZATION FLAG
DSKFA	DECSYSTEM 2020 INSTRUCTION TIMING TEST, VER 0,1 	MACRO %51(414) 10:09 21-APR-78 PAGE 3
FIXED	KSM	28-MAR-78 11:28		*FIXED* FIXED CONTROL AND DISPATCH STORAGE, MARCH 1978                             SEQ 0028

   456					S^;*********************************************************************^
   457					;*SPECIAL PROGRAM DISPATCH ADDRESSES
   458					S^;*********************************************************************^
   459
   460	030057	037 12 0 00 000004 	BEGEND:	ENDUUO		;END OF PASS
   461	030060	254 00 0 00 030010 	$BEND1:	JRST	BEGIN1	;KEEP RUNNING PROGRAM
   462	030061	037 16 0 00 000004 	$BEND2:	EOPUUO		;END OF PROGRAM - NO RETURN
   463	030062	000000	030061		CNTLC:	SADR5		;CONTROL C XFER ADDRESS
   464	030063	000000	030000		ALTMGO:	SADR6		;ALTMODE XFER ADDRESS
   465	030064				CPOPJ1:			;SKIP RETURN
   466	030064	350 00 0 17 000000 	UUOSKP:	AOS	(P)	;SKIP RETURN FROM UUO
   467	030065				CPOPJ:			;NON-SKIP REGULAR RETURN
   468	030065	263 17 0 00 000000 	UUOEXT:	RTN		;UUO RETURN
   469	030066	255 00 0 00 000000 	UUORTN:	JFCL		;ADDITIONAL USERS UUO ROUTINE
   470	030067	255 00 0 00 000000 	$UORTX:	JFCL		;ADDITIONAL UUO LINKAGE
   471	030070	255 00 0 00 000000 	$UUOER:	JFCL		;INITED AS (JRST $UOERX)
   472	030071	255 00 0 00 000000 	$ITRHL:	JFCL		;ADDITIONAL INTERRUPT LINKAGE
   473	030072	255 00 0 00 000000 	$ITRX1:	JFCL		; "
   474	030073	255 00 0 00 000000 	$USRHL:	JFCL		; "
   475	030074	255 00 0 00 000000 	$RSRTX:	JFCL		;ADDITIONAL POWER FAIL LINKAGE
   476	030075	255 00 0 00 000000 	$RSRTY:	JFCL		; "
   477	030076	255 00 0 00 000000 	RESRT1:	JFCL		; INITED AS (JRST RESRTX)
   478	030077	255 00 0 00 000000 	RESRT2:	JFCL		; "
   479	030100	255 00 0 00 000000 	$PARER:	JFCL		;ADDITIONAL PARITY ERROR LINKAGE
   480	030101	255 00 0 00 000000 	ERMORE:	JFCL		;ADDITIONAL ERROR HANDLER LINKAGE
   481	030102	254 04 0 00 030102 		HALT	.	;IMPROPER TRANSFER HALT
   482
   483	030103	000000	000000		$PSHER:	0		;INITED AS (JRST PSHERR)
   484	030104	000000	000000		ITRCH1:	0		;PC & FLAGS OF CURRENT INTERRUPT
   485	030105	000000	000000			0		;INITED AS (JRST $ITRC1)
   486
   487					S^;*********************************************************************^
   488					;*PROCESSOR CONTROL STORAGE
   489					S^;*********************************************************************^
   490
   491	030106	000000	000000		$ACC0:	0		;INTERRUPT SAVED AC0
   492	030107	000000	000000		$SVPI:	0		;INTERRUPT SAVED PI
   493	030110	000000	000000		$SVAPR:	0		;INTERRUPT SAVED APR
   494	030111	000000	000000		$SVPAG:	0		;INTERRUPT SAVED PAG (DATAI)
   495	030112	000000	000000		$SPAG1:	0		;INTERRUPT SAVED PAG (CONI)
   496
   497	030113	000000	000000		$SVUUO:	0		;CURRENT USERS UUO
   498	030114	000000	000000		$SVUPC:	0		;PC OF CURRENT USERS UUO
   499
   500	030115	000000	000000		REPTU:	0		;REPEAT UUO ITERATIONS
   501	030116	000000	000000		SCOPE:	0		;ERROR HANDLER SCOPE LOOP FLAG
   502	030117	000000	000000		%CORFLG:0		; " CORRECT FLAG
   503	030120	000000	000000		%COREC:	0		; " CORRECT DATA
   504	030121	000000	000000		%ACTFL:	0		; " ACTUAL FLAG
   505	030122	000000	000000		%ACTUL:	0		; " ACTUAL DATA
   506	030123	000000	000000		%DISCR:	0		; " DISCREPENCY DATA
DSKFA	DECSYSTEM 2020 INSTRUCTION TIMING TEST, VER 0,1 	MACRO %51(414) 10:09 21-APR-78 PAGE 4
FIXED	KSM	28-MAR-78 11:28		*FIXED* FIXED CONTROL AND DISPATCH STORAGE, MARCH 1978                             SEQ 0029

   507					S^;*********************************************************************^
   508					;*UUO DISPATCH TABLE
   509					S^;*********************************************************************^
   510						XLIST
   511						LIST
   512	030124	030070	030070		UUODIS:	LUUO1,,$UUOER
   513	030125	030070	030070			LUUO3,,LUUO2
   514	030126	030070	030070			LUUO5,,LUUO4
   515	030127	030070	030070			LUUO7,,LUUO6
   516	030130	030070	030070			LUUO11,,LUUO10
   517	030131	030070	030070			LUUO13,,LUUO12
   518	030132	030070	030070			LUUO15,,LUUO14
   519	030133	030070	030070			LUUO17,,LUUO16
   520	030134	030070	030070			LUUO21,,LUUO20
   521	030135	030070	030070			LUUO23,,LUUO22
   522	030136	030070	030070			LUUO25,,LUUO24
   523	030137	030070	030070			LUUO27,,LUUO26
   524	030140	030070	030070			LUUO31,,LUUO30
   525	030141	030070	030070			LUUO33,,LUUO32
   526
   527					S^;*********************************************************************^
   528					;*MEMORY MANAGMENT STORAGE
   529					S^;*********************************************************************^
   530
   531	030142	000000	000000		DF22F:	0		;DF10 CONTROL FLAG, 0 = 18, -1 = 22 BIT
   532	030143	000000	000000		MAPNEW:	0		;MEMORY MAPPING CONTROL FLAG, -1 = 4096K MAPPING
   533	030144	000000	000000		MEMTOT:	0		;TOTAL MEMORY SIZE IN K (1024.)
   534	030145	000000	000000		MEMLOW:	0		;LOWEST USABLE MEMORY
   535	030146				MEMSIZ:	BLOCK ^D41	;MEMORY SEGMENT POINTER TABLE
   536
   537					S^;*********************************************************************^
   538					;*PRINT CONTROL STORAGE
   539					S^;*********************************************************************^
   540
   541	030217	000000	000000		PNTFLG:	0		;PRINT FLAG, -1 WHILE IN PRINT ROUTINE
   542	030220	000000	000000		PNTENB:	0		;PRINT ENABLE
   543	030221	000000	000000		PDISF:	0		;PRINT DISABLED FLAG
   544	030222	000000	000000		PNTINH:	0		;INHIBIT PRINT INPUT CHECKS
   545	030223	000000	000000		PNTSPC:	0		;PRINT SPACE CONTROL
   546	030224	000000	000000		OPTIME:	0		;TYPE-IN WAIT TIME
   547	030225	000000	000000		$TWCNT:	0		;TIME WAITED
   548	030226	000000	000000		$DVOFF:	0		;LOGICAL DEVICE INITED FLAG
   549	030227	000000	000000		TTYFIL:	0		;TTY EXEC FILLERS FLAG
   550	030230	000000	000000		TTYSPD:	0		;TTY EXEC BAUD RATE
   551	030231	000000	000000		$TTCHR:	0		;ACTUAL TYPED IN CHAR
   552	030232	000000	000000		$CHRIN:	0		;UPPER CASED & PARITY STRIPPED CHAR
   553	030233	000000	000000		$TYPNB:	0		;TYPED IN NUMBER
   554	030234	000000	000000		$CRLF:	0		;FREE CR/LF FLAG
   555	030235	000000	000000		$TABF:	0		;TAB CONVERSION FLAG
   556	030236	000000	000000		$FFF:	0		;FORM FEED CONVERSION FLAG
   557	030237	000000	000000		$VTF:	0		;VERTICAL TAB CONVERSION FLAG
   558	030240	000000	000000		USRLFF:	0		;USER LF FILLERS
   559	030241	000000	000000		USRCRF:	0		;USER CR FILLERS
DSKFA	DECSYSTEM 2020 INSTRUCTION TIMING TEST, VER 0,1 	MACRO %51(414) 10:09 21-APR-78 PAGE 5
FIXED	KSM	28-MAR-78 11:28		*FIXED* FIXED CONTROL AND DISPATCH STORAGE, MARCH 1978                             SEQ 0030

   560					S^;*********************************************************************^
   561					;*THE FOLLOWING MISCELLANEOUS PRINT CHARACTERS ARE INCLUDED
   562					;*TO FACILITATE PRINTING AND ARE CALLED AS FOLLOWS:
   563					;*	MOVEI	NAME
   564					;*	PNTA		;OR PNTAF
   565					S^;*********************************************************************^
   566
   567	030242				CRLF:	ASCII/
   568	030242	015 012 000 000 000 	/
   569	030243				CRLF2:	ASCII/
   570
   571	030243	015 012 015 012 000 	/
   572	030244	054 000 000 000 000 	COMMA:	ASCII/,/
   573	030245	056 000 000 000 000 	PERIOD:	ASCII/./
   574	030246	040 000 000 000 000 	SPACE:	ASCII/ /
   575	030247	011 000 000 000 000 	TAB:	ASCII/	/
   576	030250				MINUS:
   577	030250	055 000 000 000 000 	HYPEN:	ASCII/-/
   578	030251	053 000 000 000 000 	PLUS:	ASCII/+/
   579	030252	052 000 000 000 000 	AST:	ASCII/*/
   580	030253	100 000 000 000 000 	ATSIN:	ASCII/@/
   581	030254	050 000 000 000 000 	LFP:	ASCII/(/
   582	030255	051 000 000 000 000 	RTP:	ASCII/)/
   583	030256	007 0000000000 		BELL:	BYTE (7) 007
   584	030257	077 000 000 000 000 	QUEST:	ASCII/?/
   585	030260	057 000 000 000 000 	SLASH:	ASCII!/!
   586	030261	044 000 000 000 000 	DOLLAR:	ASCII/$/
   587	030262	000000	000012		RADIX:	^D10			;DECIMAL PRINT RADIX
   588	030263	000000	000040		RADLSP:	40			;DECIMAL PRINT LEADING CHAR
   589	030264	000000	000012		RADLSC:	^D10			;DECIMAL PRINT LEADING CHAR COUNT
   590
   591					S^;*********************************************************************^
   592					;*USER MODE OUTPUT FILE INFORMATION
   593					S^;*********************************************************************^
   594
   595	030265				$OBUF:	BLOCK	3		;LOGICAL FILE OUTPUT BUFFER HEADER
   596	030270	60 62 51 56 64 00 	$OUTNM:	SIXBIT	/PRINT/		;FILE NAME
   597	030271	60 56 64 00 00 00 	$OUTEX:	SIXBIT	/PNT/		;FILE NAME EXTENSION
   598	030272					BLOCK	2
   599
   600					S^;*********************************************************************^
   601					;*DISK UPDATE MODE FILE INFORMATION
   602					S^;*********************************************************************^
   603
   604	030274				$IBUF:	BLOCK	3
   605	030277	60 62 51 56 64 00 	$INNM:	SIXBIT	/PRINT/
   606	030300	60 56 64 00 00 00 	$INEXT:	SIXBIT	/PNT/
   607	030301					BLOCK	2
DSKFA	DECSYSTEM 2020 INSTRUCTION TIMING TEST, VER 0,1 	MACRO %51(414) 10:09 21-APR-78 PAGE 6
FIXED	KSM	28-MAR-78 11:28		*FIXED* FIXED CONTROL AND DISPATCH STORAGE, MARCH 1978                             SEQ 0031

   608					S^;*********************************************************************^
   609					;*PUSHDOWN LIST CONTROL INFORMATION
   610					S^;*********************************************************************^
   611
   612	030303	777577	030303		PLIST:	PLIST-PLISTE,,PLIST
   613	030304				PLISTS:	BLOCK	200
   614	030504	000000	000000		PLISTE:	0		;END OF PUSHDOWN LIST
   615
   616					S^;*********************************************************************^
   617					;*POWER LINE CLOCK FREQUENCY FLAG
   618					S^;*********************************************************************^
   619
   620	030505	000000	000000		CYCL60:	0	;0 = 60, -1 = 50 CYCLE
   621
   622					S^;*********************************************************************^
   623					;*KL10 CACHE CONTROL FLAGS
   624					S^;*********************************************************************^
   625
   626	030506	000000	000000		CSHFLG:	0	;ALLOW CACHE IF 0
   627	030507	000000	000000		CSHMEM:	0	;CACHE MEMORY SEGMENTS IF 0
   628
   629					S^;*********************************************************************^
   630					;*NUMBER INPUT DIGIT FLAG
   631					S^;*********************************************************************^
   632
   633	030510	000000	000000		TTNBRF:	0	;-1 IF ANY DIGIT TYPED
   634
   635					S^;*********************************************************************^
   636					;*KL10 & KI10 "INHPAG" SWITCH PAGING PREVENTION
   637					S^;*********************************************************************^
   638
   639	030511	000000	000000		PVPAGI:	0	;IF NON-ZERO, OVERRIDE "INHPAG" SWITCH ACTION
   640
   641					S^;*********************************************************************^
   642					;*ERROR REPORTING ROUTINE ADDITIONAL USERS CONTROL INSTRUCTIONS
   643					S^;*********************************************************************^
   644
   645	030512	000000	000000		%ERHI1:	0	;IF NON-ZERO, XCT'D AT START OF %ERUUO
   646	030513	000000	000000		%ERHI2:	0	;IF NON-ZERO, XCT'D AT END OF %ERUUO
   647	030514	000000	000000		%ERHI3:	0	;IF NON-ZERO, XCT'D AFTER "PC" OF %ERUUO
   648
   649					S^;*********************************************************************^
   650					;*SPECIAL USERS UUO INTERCEPT INSTRUCTION
   651					S^;*********************************************************************^
   652
   653	030515	000000	000000		$$UUO:	0	;IF NON-ZERO, XCT'D AT START OF $UORTN
DSKFA	DECSYSTEM 2020 INSTRUCTION TIMING TEST, VER 0,1 	MACRO %51(414) 10:09 21-APR-78 PAGE 7
FIXED	KSM	28-MAR-78 11:28		*FIXED* FIXED CONTROL AND DISPATCH STORAGE, MARCH 1978                             SEQ 0032

   654					S^;*********************************************************************^
   655					;*USER MODE MONITOR TYPE FLAG
   656					S^;*********************************************************************^
   657
   658	030516	000000	000000		MONTYP:	0	;0 = TOPS10, -1 = TOPS20
   659
   660					S^;*********************************************************************^
   661					;*SPECIAL USERS MUUO INTERCEPT INSTRUCTION
   662					S^;*********************************************************************^
   663
   664	030517	000000	000000		$$MUUO:	0	;IF NON-ZERO, XCT'D AT START OF MUUOER
   665
   666					S^;*********************************************************************^
   667					;*SPECIAL USERS USER MODE OUTPUT ERROR INTERCEPT INSTUCTION
   668					S^;*********************************************************************^
   669
   670	030520	000000	000000		$$OUTER:0	;IF NON-ZERO, XCT'D AT END OF USER MODE ERROR
   671
   672					S^;*********************************************************************^
   673					;*"SWITCH" CALL USAGE CONTROL
   674					S^;*********************************************************************^
   675
   676	030521	000000	000000		$$TOGGLE:0	;IF NON-ZERO, USE C(CONSW) FOR SWITCHES
   677
   678					S^;*********************************************************************^
   679					;*SPECIAL USERS ALTMODE SWITCH CALL INTERCEPT INSTRUCTIONS
   680					S^;*********************************************************************^
   681
   682	030522	000000	000000		$$TAX1:	0	;IF NON-ZERO, XCT'D AT START OF ALTMODE SWITCH CALL
   683	030523	000000	000000		$$TAX2:	0	;IF NON-ZERO, XCT'D AT END OF ALTMODE SWITCH CALL
   684
   685					S^;*********************************************************************^
   686					;*SM10 (KS-10) PROCESSOR TYPE FLAG
   687					S^;*********************************************************************^
   688
   689	030524	000000	000000		SM10:	0	;IF -1 THIS IS AN KS-10
   690
   691					S^;*********************************************************************^
   692					;*RIGHT HALF SWITCHES PROMPT TABLE ADDRESS
   693					S^;*********************************************************************^
   694
   695	030525	000000	000000		SWPTAB:	0	;0 = NO PROMPT, ADR = ADR OF SIXBIT PROMPT TABLE
   696
   697					S^;*********************************************************************^
   698					;*SPECIAL FUTURE EXPANSION ROOM
   699					S^;*********************************************************************^
   700
   701					S^;*********************************************************************^
   702					;*END OF FIXED STORAGE
   703					S^;*********************************************************************^
   704
   705	030577					LOC	30577
   706	030577	000000	000000		ENDFIX:	0		;END OF FIXED STORAGE
DSKFA	DECSYSTEM 2020 INSTRUCTION TIMING TEST, VER 0,1 	MACRO %51(414) 10:09 21-APR-78 PAGE 1
DSKFAM	MAC	21-APR-78 10:06		DIAGNOSTIC SECTION                                                                 SEQ 0033

   707					SUBTTL	DIAGNOSTIC SECTION
   708
   709	030600				PGMNAM:	ASCIZ/
   710	030600	015 012 104 105 103 	DECSYSTEM 2020 INSTRUCTION TIMING TEST (DSKFA)
   711	030601	123 131 123 124 105
   712	030602	115 040 062 060 062
   713	030603	060 040 111 116 123
   714	030604	124 122 125 103 124
   715	030605	111 117 116 040 124
   716	030606	111 115 111 116 107
   717	030607	040 124 105 123 124
   718	030610	040 050 104 123 113
   719	030611	106 101 051 015 012 	/
   720	030612	000 000 000 000 000
   721					;*START INITIALIZES THE PROCESSOR AND PI SYSTEM, INITIALIZES
   722					;*SOME ACS AND MEMORY LOCATIONS, AND THEN CYCLES THROUGH THE
   723					;*MAIN TABLE, CALLING VARIOUS SUBROUTINES TO DO ALL THE WORK.
   724
   725	030613				STARTA:
   726	030613	402 00 0 00 030056 	START:	SETZM	$ONETM
   727	030614	402 00 0 00 030046 		SETZM	CONSW
   728	030615	265 00 0 00 030011 		PGMINT
   729	030616	200 00 0 00 000041 		MOVE	41
   730	030617	202 00 0 00 034462 		MOVEM	SAV41#
   731	030620	201 00 0 00 040720 		MOVEI	^D2000+CACHE
   732	030621	336 00 0 00 030506 		SKIPN	CSHFLG		;USING CACHE ?
   733	030622	201 00 0 00 036000 		MOVEI	^D512+CACHE
   734	030623	202 00 0 00 034461 		MOVEM	CODSIZ#
   735	030624	201 00 0 00 035053 		MOVEI	MONUUO		;SETUP MONITOR INSTRUCTION TRAP
   736	030625	202 00 0 00 000430 		MOVEM	430
   737	030626	202 00 0 00 000431 		MOVEM	431
   738	030627	7 004 20 0 00 010000 		CONO	PI,PICLR	;CLEAR PI SYSTEM
   739	030630	200 00 0 00 031026 		MOVE	[JSR	ITRCLK]
   740	030631	202 00 0 00 000042 		MOVEM	42		;SETUP CLOCK INTERRUPT
   741	030632	201 00 0 00 000060 		MOVEI	0,60
   742	030633	202 00 0 00 030263 		MOVEM	0,RADLSP
   743	030634	200 00 0 00 031027 		MOVE	[1.0]		;SETUP MAX CLOCK OPERANDS
   744	030635	202 00 0 00 035060 		MOVEM	MCARG1
   745	030636	402 00 0 00 035064 		SETZM	MCARG2
   746	030637	200 00 0 00 031030 		MOVE	[-1.5]
   747	030640	202 00 0 00 035070 		MOVEM	MCARG3
   748	030641	037 04 0 00 000002 		PNTNM
   749	030642	201 02 0 00 031045 	LOOP:	MOVEI	TB,TABLE	;INITIALIZE TABLE POINTERS
   750	030643	400 03 0 00 000000 		SETZ	3,		;CLEAR 3
   751	030644	260 17 0 00 030654 		GO	SETRUN		;SET UP THE TIMING LOOP
   752	030645	260 17 0 00 030701 		GO	TIMEX		;EXECUTE THE TIMING LOOP
   753	030646	260 17 0 00 030715 		GO	MESSAGE		;PRINT THE ID MESSAGE
   754	030647	260 17 0 00 030763 		GO	CALC		;CALCULATE AND PRINT TIMING DATA
   755	030650	550 02 0 02 000007 		HRRZ	TB,7(TB)	;STEP TO NEXT TABLE ENTRY
   756	030651	326 02 0 00 030643 		JUMPN	TB,LOOP+1	;DONE?
   757						PNTMSG	[ASCIZ/
   758					TEST COMPLETED
   759	030652	037 00 0 00 031031 	/]
   760	030653	037 16 0 00 000004 		EOPUUO
DSKFA	DECSYSTEM 2020 INSTRUCTION TIMING TEST, VER 0,1 	MACRO %51(414) 10:09 21-APR-78 PAGE 2
DSKFAM	MAC	21-APR-78 10:06		DIAGNOSTIC SECTION                                                                 SEQ 0034

   761					;*SETRUN TAKES 1, 2, OR 3 INSTRUCTIONS FROM THE CURRENT TABLE
   762					;*ENTRY AND SPREADS THEM THROUGH AN AREA OF FREE CORE STARTING
   763					;*AT LOCATION CODE.  THE INSTRUCTIONS ARE MADE INTO A LOOP BY
   764					;*APPENDING AN AOJA INSTRUCTION TO THE END OF THE LOOP. SETRUN
   765					;*COUNTS THE NUMBER OF REPETITIONS (ITERATIONS) OF THE 1-,2-,
   766					;*OR 3-INSTRUCTION GROUP AS PLACED IN CORE.  IT ALSO COUNTS THE
   767					;*NUMBER OF INSTRUCTIONS IN THE GROUP.
   768
   769	030654	201 04 0 00 035104 	SETRUN:	MOVEI	T,CODE		;FIRST INSTRUCTION GOES INTO LOCATION CODE
   770	030655	201 06 0 00 000001 		MOVEI	T1,1		;A 1 FOR COMPARING WITH ADDRESSES
   771	030656	201 07 0 00 000001 		MOVEI	C,1		;INITIALIZE COUNT OF ITERATIONS PER LOOP
   772	030657	402 00 0 00 030700 	SET1:	SETZM	WDSPI		;INITIALIZE COUNT OF WORDS PER ITERATION
   773	030660	332 05 0 02 000000 		SKIPE	TT,(TB)		;1ST INSTRUCTION USED?
   774	030661	260 17 0 00 030673 		GO	SET0		;YES, SO PLACE IT IN THE LOOP
   775	030662	332 05 0 02 000001 		SKIPE	TT,1(TB)	;2ND INSTRUCTION USED?
   776	030663	260 17 0 00 030673 		GO	SET0		;YES
   777	030664	332 05 0 02 000002 		SKIPE	TT,2(TB)	;3RD INSTRUCTION USED?
   778	030665	260 17 0 00 030673 		GO	SET0		;YES
   779	030666	315 04 0 00 034461 		CAMGE	T,CODSIZ	;NEAR END OF FREE SPACE?
   780	030667	344 07 0 00 030657 		AOJA	C,SET1		;NO, SO REPEAT
   781	030670	200 05 0 00 031035 		MOVE	TT,[AOJA CC,CODE] ;YES, SO CLOSE THE TIMING LOOP
   782	030671	202 05 0 04 000000 		MOVEM	TT,(T)
   783	030672	263 17 0 00 000000 		RTN			;RETURN
   784
   785					;*SET0 PUTS ONE INSTRUCTION INTO THE FREE CORE.  THE ADDRESS OF
   786					;*EACH INSTRUCTION IS MODIFIED ACCORDING TO THE RULE:
   787					;*IF ADR NOT=1, NO CHANGE
   788					;*IF ADR = 1, CHANGE TO .+1
   789
   790	030673	350 00 0 00 030700 	SET0:	AOS	WDSPI		;ONE MORE WORD PER ITERATION
   791	030674	306 06 0 05 000000 		CAIN	T1,(TT)		;ADDRESS = 1?
   792	030675	541 05 0 04 000001 		HRRI	TT,1(T)		;YES, SO SUBSTITUTE .+1
   793	030676	202 05 0 04 000000 		MOVEM	TT,(T)		;PLACE IN LOOP
   794	030677	344 04 0 00 030065 		AOJA	T,CPOPJ		;INCREMENT FREE SPACE POINTER
   795
   796	030700	000000	000000		WDSPI:	0			;WORDS PER ITERATION
DSKFA	DECSYSTEM 2020 INSTRUCTION TIMING TEST, VER 0,1 	MACRO %51(414) 10:09 21-APR-78 PAGE 3
DSKFAM	MAC	21-APR-78 10:06		DIAGNOSTIC SECTION                                                                 SEQ 0035

   797					;*TIMEX INITIALIZES A COUNTER FOR THE NUMBER OF TIMES AROUND THE
   798					;*CODE LOOP, ANOTHER COUNTER FOR COUNTING CLOCK TICKS, AND
   799					;*INITIALIZES THE PROCESSOR.  THE PI IS TURNED ON AND TIMEX WAITS
   800					;*FOR THE BEGINNING OF A CLOCK CYCLE. IT THEN TURNS OFF THE CLOCK
   801					;*FLAG, ASSIGNS A PI CHANNEL TO THE PROCESSOR, AND ENTERS THE
   802					;*TIMING LOOP
   803
   804	030701	201 10 0 00 000000 	TIMEX:	MOVEI	CC,0		;CLEAR NO. OF LOOPS PER SECOND
   805	030702	402 00 0 00 035051 		SETZM	TEMP
   806	030703	200 00 0 00 031036 		MOVE	[JSP LOCUUO]
   807	030704	202 00 0 00 000041 		MOVEM	41
   808	030705	7 000 20 0 00 060040 		CONO	APR,1B21!1B22!1B30	;CLEAR TIMER
   809	030706	702 15 0 00 031037 		WRINT	[<^D1000>B23]	;SET TIMER TO 1 SEC
   810	030707	7 000 34 0 00 000040 		CONSo	APR,1B30	;WAIT FOR FLAG TO SET
   811	030710	254 00 0 00 030707 		JRST	.-1
   812
   813	030711	7 000 20 0 00 120061 		CONO	APR,1B20!1B22!1B30!1B31!LAPRP1	;ENABLE TIMER
   814	030712	7 004 20 0 00 012300 		CONO	PI,1B23!1B25!1B28!PICHN1
   815	030713	254 00 0 00 035104 		JRST	CODE		;PERFORM TIMING LOOP
   816
   817	030714	000000	000000		TICKX:	0			;CLOCK-TICK COUNTER
   818
   819					;*MESSAGE EXTRACTS THE ADDRESS OF THE ID MESSAGE FROM THE
   820					;*MAIN TABLE AND PRINTS IT.
   821
   822	030715	550 06 0 02 000003 	MESSAG:	HRRZ	T1,3(TB)	;GET MESSAGE ADDRESS
   823	030716	322 06 0 00 030064 		JUMPE	T1,CPOPJ1	;IF MESSAGE NULL, SKIP RETURN
   824	030717	200 00 0 00 000006 		MOVE	0,T1
   825	030720	037 17 0 00 000000 		PNTAL
   826	030721	263 17 0 00 000000 		RTN
   827
   828					;*CALC1 EXTRACTS ONE TIMING DATUM FROM THE TABLE
   829					;*AND ADDS OR SUBTRACTS IT.
   830
   831	030722	554 05 0 06 000000 	CALC1:	HLRZ	TT,(T1)		;GET DATUM TO ADD OR SUBTRACT
   832	030723	331 00 0 00 000006 		SKIPL	T1		;ADD ?
   833	030724	270 04 0 00 000005 		ADD	T,TT		;YES
   834	030725	337 00 0 00 000006 		SKIPG	T1		;SUBTRACT ?
   835	030726	274 04 0 00 000005 		SUB	T,TT		;YES
   836	030727	263 17 0 00 000000 		RTN			;RETURN
DSKFA	DECSYSTEM 2020 INSTRUCTION TIMING TEST, VER 0,1 	MACRO %51(414) 10:09 21-APR-78 PAGE 4
DSKFAM	MAC	21-APR-78 10:06		DIAGNOSTIC SECTION                                                                 SEQ 0036

   837					;*ITRCLK COUNTS OF THE CLOCK TICKS.  AT THE END OF THE SELECTED
   838					;*INTERVAL, IT COMPUTES THE TIME TAKEN (IN N.S.) FOR ONE
   839					;*ITERATION OF THE ORIGINAL 1-, 2-, OR 3-INSTRUCTION GROUP BY:
   840					;*1) MULTIPLYING THE NUMBER OF COMPLETE TIMES AROUND THE LOOP
   841					;*BY THE NUMBER OF ITERATIONS PER ONCE AROUND
   842					;*2) COMPUTING THE NUMBER OF WORDS INTO THE LAST TIME AROUND
   843					;*BY SUBTRACTING THE FIRST ADDRESS OF THE LOOP FROM THE
   844					;*INTERRUPTED PC.
   845					;*3) DIVIDING ITEM 2) BY THE NUMBER OF WORDS PER ITERATION TO GIVE THE
   846					;*NUMBER OF ITERATIONS EXECUTED IN THE LAST (PARTIAL) TRIP AROUND THE LOOP.
   847					;*4) ADDING 1) TO 3) TO GIVE TOTAL ITERATIONS.
   848					;*5) TAKING THE RECIPROCAL OF 4) , APPROPRIATELY SCALED, TO GIVE
   849					;*NANOSECONDS PER ITERATION.
   850
   851					;*NOTE:	TIME SPENT IN CLOCK INTERRUPTS IS IGNORED.
   852
   853	030730	000000	000000		ITRCLK:	0
   854	030731	7 000 24 0 00 000000 		CONI	APR,0
   855	030732	606 00 0 00 000020 		TRNN	0,1B31		;8080 ?
   856	030733	254 00 0 00 030736 		JRST	.+3		;NO, CLOCK
   857	030734	7 000 20 0 00 020021 		CONO	APR,1B22!1B31!LAPRP1
   858	030735	254 12 1 00 030730 		JEN	@ITRCLK
   859	030736	7 000 20 0 00 020041 		CONO	APR,1B22!1B30!LAPRP1	;CLEAR TIMER
   860	030737	7 004 20 0 00 000400 		CONO	PI,PIOFF	;CLEAR PI SYSTEM
   861	030740	200 00 0 00 034462 		MOVE	SAV41
   862	030741	202 00 0 00 000041 		MOVEM	41
   863	030742	265 00 0 00 030743 		JSP	0,.+1
   864	030743	603 00 0 00 010000 		TLNE	USERF		;STILL IN USER MODE ?
   865	030744	254 00 0 00 030752 		JRST	.+6		;YES, NO NEED TO GO BACK TO USER
   866	030745	332 00 0 00 030042 		SKIPE	MONFLG		;NO, SUPPOSED TO BE IN USER ?
   867	030746	254 00 0 00 030752 		JRST	.+4		;NO
   868	030747	254 02 1 00 030750 		JRSTF	@.+1		;YES, RETURN TO USER
   869	030750	010000	030751			USERF,,.+1
   870	030751	254 01 0 00 030752 		JRST	1,.+1
   871	030752	220 10 0 00 000007 		IMUL	CC,C		;CONVERT LOOPS TO ITERATIONS
   872	030753	550 04 0 00 030730 		HRRZ	T,ITRCLK	;GET TRAPPED LOCATION
   873	030754	275 04 0 00 035104 		SUBI	T,CODE		;COMPUTE TOTAL WORDS IN LAST GO-AROUND
   874	030755	230 04 0 00 030700 		IDIV	T,WDSPI		;COMPUTE ITERATIONS IN LAST GO-AROUND
   875	030756	270 04 0 00 000010 		ADD	T,CC		;COMPUTE TOTAL ITERATIONS
   876	030757	200 05 0 00 031040 		MOVE	TT,[^D1000000000] ;10E+9
   877	030760	230 05 0 00 000004 		IDIV	TT,T		;ANSWER IS NS.
   878	030761	506 05 0 02 000003 		HRLM	TT,3(TB)	;SAVE RESULT IN MAIN TABLE
   879	030762	263 17 0 00 000000 		RTN			;RETURN
DSKFA	DECSYSTEM 2020 INSTRUCTION TIMING TEST, VER 0,1 	MACRO %51(414) 10:09 21-APR-78 PAGE 5
DSKFAM	MAC	21-APR-78 10:06		DIAGNOSTIC SECTION                                                                 SEQ 0037

   880					;*CALC TAKES THREE ADDITIVE COMMANDS FROM THE CURRENT TABLE
   881					;*ENTRY.  EACH COMMAND SAYS DO NOTHING, ADD IN THE TIME FOR
   882					;*THE SPECIFIED PREVIOUS TABLE ENTRY (OR FOR THIS ENTRY), OR
   883					;*SUBTRACT THE TIME FOR THE SPECIFIED TABLE ENTRY.  THE RESULT
   884					;*IS TYPED IN DECIMAL FOLLOWED BY "NS". IN OTHER WORDS, THE
   885					;*NUMBER ACTUALLY TYPED OUT IS THE SUM OR DIFFERENCE OF UP TO
   886					;*3 PREVIOUSLY MEASURED TIMING RESULTS.
   887
   888	030763	554 04 0 02 000003 	CALC:	HLRZ	T,3(TB)		;INIT NET TIME
   889	030764	332 06 0 02 000004 		SKIPE	T1,4(TB)	;1ST ARGUMENT ACTIVE?
   890	030765	260 17 0 00 030722 		GO	CALC1		;YES, GO AND OR SUBTRACT TO NET TIME
   891	030766	332 06 0 02 000005 		SKIPE	T1,5(TB)	;2ND ARG?
   892	030767	260 17 0 00 030722 		GO	CALC1		;YES
   893	030770	332 06 0 02 000006 		SKIPE	T1,6(TB)	;3RD ARG?
   894	030771	260 17 0 00 030722 		GO	CALC1		;YES
   895	030772	554 06 0 02 000007 		HLRZ	T1,7(TB)
   896	030773	405 06 0 00 000777 		ANDI	T1,777		;GET DIVISOR
   897	030774	332 00 0 00 000006 		SKIPE	T1
   898	030775	230 04 0 00 000006 		IDIV	T,T1		;DIVIDE IF DIVISOR NOT ZERO
   899	030776	335 00 0 00 000004 		SKIPGE	T
   900	030777	201 04 0 00 000000 		MOVEI	T,0		;REMOVE NEG. TIME INACCURACIES
   901	031000	231 04 0 00 001750 		IDIVI	T,^D1000	;DIVIDE INTO US. AND NS.
   902	031001	322 04 0 00 031022 		JUMPE	T,CALCNS	;IF NO US., PRINT AS NS.
   903	031002	261 17 0 00 000005 		PUT	T+1		;SAVE NS.
   904	031003	200 00 0 00 000004 		MOVE	0,T
   905	031004	037 15 0 00 000000 		PNTDEC
   906	031005	201 00 0 00 030245 		MOVEI	PERIOD
   907	031006	037 00 0 00 000000 		PNTA
   908	031007	262 17 0 00 000004 		GET	T		;GET NS. BACK
   909	031010	271 04 0 00 000005 		ADDI	T,5		;ROUND AND
   910	031011	231 04 0 00 000012 		IDIVI	T,^D10		;CHANGE TO 100THS OF USEC.
   911	031012	201 00 0 00 000002 		MOVEI	0,^D2		;FORCE TWO DIGITS IN PNUM
   912	031013	542 00 0 00 030264 		HRRM	RADLSC
   913	031014	200 00 0 00 000004 		MOVE	0,T
   914	031015	037 16 0 00 000000 		PNTDS
   915	031016	201 00 0 00 000012 		MOVEI	0,^D10
   916	031017	542 00 0 00 030264 		HRRM	RADLSC
   917						PNTMSG	[ASCIZ/ USEC.
   918	031020	037 00 0 00 031041 	/]
   919	031021	263 17 0 00 000000 		RTN
   920
   921	031022	200 00 0 00 000005 	CALCNS:	MOVE	0,T+1		;GET REMAINDER
   922	031023	037 15 0 00 000000 		PNTDEC			;PRINT THE NUMBER OF NSEC.
   923						PNTMSG	[ASCIZ/ NSEC.
   924	031024	037 00 0 00 031043 	/]
   925	031025	263 17 0 00 000000 		RTN
DSKFA	DECSYSTEM 2020 INSTRUCTION TIMING TEST, VER 0,1 	MACRO %51(414) 10:09 21-APR-78 PAGE 6
DSKFAM	MAC	21-APR-78 10:06		DIAGNOSTIC SECTION                                                                 SEQ 0038

   926	031026					LIT			;PUT PRECEEDING LITERALS HERE
   927	031026	264 00 0 00 030730
   928	031027	201400	000000
   929	031030	576200	000000
   930	031031	015 012 124 105 123
   931	031032	124 040 103 117 115
   932	031033	120 114 105 124 105
   933	031034	104 015 012 000 000
   934	031035	344 10 0 00 035104
   935	031036	265 00 0 00 035054
   936	031037	000017	500000
   937	031040	007346	545000
   938	031041	040 125 123 105 103
   939	031042	056 015 012 000 000
   940	031043	040 116 123 105 103
   941	031044	056 015 012 000 000
DSKFA	DECSYSTEM 2020 INSTRUCTION TIMING TEST, VER 0,1 	MACRO %51(414) 10:09 21-APR-78 PAGE 7
DSKFAM	MAC	21-APR-78 10:06		DIAGNOSTIC SECTION                                                                 SEQ 0039

   942						DEFINE	PLUS(X)<EXP TM'X>
   943
   944						DEFINE	LESS(X)<XWD -1,TM'X>
   945
   946						DEFINE	AUX (N,MESS)<ASCIZ !N - MESS !>
   947
   948					DEFINE	ENTR (LABEL,INS,MESS,CALC,FACTOR,USER)<
   949						XX=3
   950						IRP	INS,<IFG XX,<INS	;INSTRUCTION SET TO BE TIMED>
   951						XX=XX-1>
   952						IFG	XX,<REPEAT XX,<
   953						0			;NULL INSTRUCTION ENTRY>>
   954					TM'LABEL:	0+IFNB <MESS>,<EXP .+5>	;XWD TIME,LOCN OF MSG
   955						XX=3
   956						IRP	CALC,<IFG XX,<CALC	;TIME CALCULATION>
   957						XX=XX-1>
   958						IFG	XX,<REPEAT XX,<
   959						0			;NULL CALCULATION ENTRY>>
   960						IF1 <ZZ=.>
   961						ZY=.
   962						XWD <IFNB <USER>,<1B18>+IFNB<FACTOR>,<^D'FACTOR>>,IFN ZY-ZZ,<E'LABEL>	;NEXT ENTRY
   963
   964						RADIX	10
   965						IFNB	<MESS>,<AUX \<XYZ=XYZ+1>,<MESS>>;MESSAGE
   966						RADIX	8
   967					DSKFA	DECSYSTEM 2020 INSTRUCTION TIMING TEST, VER 0,1 	MACRO %51(414) 10:09 21-APR-78 PAGE 8
DSKFAM	MAC	21-APR-78 10:06		DIAGNOSTIC SECTION                                                                 SEQ 0040

   968					E'LABEL:>
   969
   970			000000			XYZ=0			;INIT PRINTOUT STATEMENT COUNTER
   971
   972	031045				TABLE:				;THE MAIN TABLE
   973
   974					ENTR 1,<LSH ^D15>^
   975			000003			XX=3
   976						IRP
   977	031045	242 00 0 00 000017 	IFG XX,<LSH ^D15	;INSTRUCTION SET TO BE TIMED>
   978			000002			XX=XX-1
   979
   980						IFG	XX,<REPEAT XX,
   981
   982	031046	000000	000000			0			;NULL INSTRUCTION ENTRY
   983
   984	031047	000000	000000			0			;NULL INSTRUCTION ENTRY>
   985	031050	000000	000000		TM1:	0+IFNB <>,<EXP .+5>	;XWD TIME,LOCN OF MSG
   986			000003			XX=3
   987						IRP
   988
   989						IFG	XX,<REPEAT XX,
   990
   991	031051	000000	000000			0			;NULL CALCULATION ENTRY
   992
   993	031052	000000	000000			0			;NULL CALCULATION ENTRY
   994
   995	031053	000000	000000			0			;NULL CALCULATION ENTRY>
   996						IF1 <ZZ=.>
   997			031054			ZY=.
   998	031054	000000	031055			XWD <IFNB <>,<1B18>+IFNB<>,<^D>>,IFN ZY-ZZ,<E1>	;NEXT ENTRY
   999						RADIX	10
  1000						IFNB	<>,<AUX \<XYZ=XYZ+1>,<>>;MESSAGE
  1001						RADIX	8
DSKFA	DECSYSTEM 2020 INSTRUCTION TIMING TEST, VER 0,1 	MACRO %51(414) 10:09 21-APR-78 PAGE 9
DSKFAM	MAC	21-APR-78 10:06		DIAGNOSTIC SECTION                                                                 SEQ 0041

  1002	031055				E1:^
  1003
  1004					ENTR 2,<LSH ^D35>,BASIC CLOCK CYCLE IS,LESS(1),20^
  1005			000003			XX=3
  1006						IRP
  1007	031055	242 00 0 00 000043 	IFG XX,<LSH ^D35	;INSTRUCTION SET TO BE TIMED>
  1008			000002			XX=XX-1
  1009
  1010						IFG	XX,<REPEAT XX,
  1011
  1012	031056	000000	000000			0			;NULL INSTRUCTION ENTRY
  1013
  1014	031057	000000	000000			0			;NULL INSTRUCTION ENTRY>
  1015	031060	000000	031065		TM2:	0+IFNB <BASIC CLOCK CYCLE IS>,<EXP .+5>	;XWD TIME,LOCN OF MSG
  1016			000003			XX=3
  1017						IRP
  1018	031061	777777	031050		IFG XX,<LESS(1)^XWD -1,TM1^	;TIME CALCULATION>
  1019			000002			XX=XX-1
  1020
  1021						IFG	XX,<REPEAT XX,
  1022
  1023	031062	000000	000000			0			;NULL CALCULATION ENTRY
  1024
  1025	031063	000000	000000			0			;NULL CALCULATION ENTRY>
  1026						IF1 <ZZ=.>
  1027			031064			ZY=.
  1028	031064	000024	031073			XWD <IFNB <>,<1B18>+IFNB<20>,<^D20>>,IFN ZY-ZZ,<E2>	;NEXT ENTRY
  1029						RADIX	10
  1030						IFNB	<BASIC CLOCK CYCLE IS>,<AUX \<XYZ=XYZ+1>,<BASIC CLOCK CYCLE IS>>^ASCIZ !1 -
  1031	031065	061 040 055 040 102 	 BASIC CLOCK CYCLE IS !^;MESSAGE
  1032	031066	101 123 111 103 040
  1033	031067	103 114 117 103 113
  1034	031070	040 103 131 103 114
  1035	031071	105 040 111 123 040
  1036	031072	000 000 000 000 000
  1037						RADIX	8
DSKFA	DECSYSTEM 2020 INSTRUCTION TIMING TEST, VER 0,1 	MACRO %51(414) 10:09 21-APR-78 PAGE 10
DSKFAM	MAC	21-APR-78 10:06		DIAGNOSTIC SECTION                                                                 SEQ 0042

  1038	031073				E2:^
  1039
  1040					ENTR 5,MOVEI^
  1041			000003			XX=3
  1042						IRP
  1043	031073	201 00 0 00 000000 	IFG XX,<MOVEI	;INSTRUCTION SET TO BE TIMED>
  1044			000002			XX=XX-1
  1045
  1046						IFG	XX,<REPEAT XX,
  1047
  1048	031074	000000	000000			0			;NULL INSTRUCTION ENTRY
  1049
  1050	031075	000000	000000			0			;NULL INSTRUCTION ENTRY>
  1051	031076	000000	000000		TM5:	0+IFNB <>,<EXP .+5>	;XWD TIME,LOCN OF MSG
  1052			000003			XX=3
  1053						IRP
  1054
  1055						IFG	XX,<REPEAT XX,
  1056
  1057	031077	000000	000000			0			;NULL CALCULATION ENTRY
  1058
  1059	031100	000000	000000			0			;NULL CALCULATION ENTRY
  1060
  1061	031101	000000	000000			0			;NULL CALCULATION ENTRY>
  1062						IF1 <ZZ=.>
  1063			031102			ZY=.
  1064	031102	000000	031103			XWD <IFNB <>,<1B18>+IFNB<>,<^D>>,IFN ZY-ZZ,<E5>	;NEXT ENTRY
  1065						RADIX	10
  1066						IFNB	<>,<AUX \<XYZ=XYZ+1>,<>>;MESSAGE
  1067						RADIX	8
DSKFA	DECSYSTEM 2020 INSTRUCTION TIMING TEST, VER 0,1 	MACRO %51(414) 10:09 21-APR-78 PAGE 11
DSKFAM	MAC	21-APR-78 10:06		DIAGNOSTIC SECTION                                                                 SEQ 0043

  1068	031103				E5:^
  1069
  1070					ENTR 11,MOVEI (3),INDEXING TAKES,LESS(5)^
  1071			000003			XX=3
  1072						IRP
  1073	031103	201 00 0 03 000000 	IFG XX,<MOVEI (3)	;INSTRUCTION SET TO BE TIMED>
  1074			000002			XX=XX-1
  1075
  1076						IFG	XX,<REPEAT XX,
  1077
  1078	031104	000000	000000			0			;NULL INSTRUCTION ENTRY
  1079
  1080	031105	000000	000000			0			;NULL INSTRUCTION ENTRY>
  1081	031106	000000	031113		TM11:	0+IFNB <INDEXING TAKES>,<EXP .+5>	;XWD TIME,LOCN OF MSG
  1082			000003			XX=3
  1083						IRP
  1084	031107	777777	031076		IFG XX,<LESS(5)^XWD -1,TM5^	;TIME CALCULATION>
  1085			000002			XX=XX-1
  1086
  1087						IFG	XX,<REPEAT XX,
  1088
  1089	031110	000000	000000			0			;NULL CALCULATION ENTRY
  1090
  1091	031111	000000	000000			0			;NULL CALCULATION ENTRY>
  1092						IF1 <ZZ=.>
  1093			031112			ZY=.
  1094	031112	000000	031117			XWD <IFNB <>,<1B18>+IFNB<>,<^D>>,IFN ZY-ZZ,<E11>	;NEXT ENTRY
  1095						RADIX	10
  1096						IFNB	<INDEXING TAKES>,<AUX \<XYZ=XYZ+1>,<INDEXING TAKES>>^ASCIZ !2 - INDEXING TA
  1097	031113	062 040 055 040 111 	KES !^;MESSAGE
  1098	031114	116 104 105 130 111
  1099	031115	116 107 040 124 101
  1100	031116	113 105 123 040 000
  1101						RADIX	8
DSKFA	DECSYSTEM 2020 INSTRUCTION TIMING TEST, VER 0,1 	MACRO %51(414) 10:09 21-APR-78 PAGE 12
DSKFAM	MAC	21-APR-78 10:06		DIAGNOSTIC SECTION                                                                 SEQ 0044

  1102	031117				E11:^
  1103
  1104					ENTR 12,MOVEI @3,INDIRECT TAKES,LESS(5)^
  1105			000003			XX=3
  1106						IRP
  1107	031117	201 00 1 00 000003 	IFG XX,<MOVEI @3	;INSTRUCTION SET TO BE TIMED>
  1108			000002			XX=XX-1
  1109
  1110						IFG	XX,<REPEAT XX,
  1111
  1112	031120	000000	000000			0			;NULL INSTRUCTION ENTRY
  1113
  1114	031121	000000	000000			0			;NULL INSTRUCTION ENTRY>
  1115	031122	000000	031127		TM12:	0+IFNB <INDIRECT TAKES>,<EXP .+5>	;XWD TIME,LOCN OF MSG
  1116			000003			XX=3
  1117						IRP
  1118	031123	777777	031076		IFG XX,<LESS(5)^XWD -1,TM5^	;TIME CALCULATION>
  1119			000002			XX=XX-1
  1120
  1121						IFG	XX,<REPEAT XX,
  1122
  1123	031124	000000	000000			0			;NULL CALCULATION ENTRY
  1124
  1125	031125	000000	000000			0			;NULL CALCULATION ENTRY>
  1126						IF1 <ZZ=.>
  1127			031126			ZY=.
  1128	031126	000000	031133			XWD <IFNB <>,<1B18>+IFNB<>,<^D>>,IFN ZY-ZZ,<E12>	;NEXT ENTRY
  1129						RADIX	10
  1130						IFNB	<INDIRECT TAKES>,<AUX \<XYZ=XYZ+1>,<INDIRECT TAKES>>^ASCIZ !3 - INDIRECT TA
  1131	031127	063 040 055 040 111 	KES !^;MESSAGE
  1132	031130	116 104 111 122 105
  1133	031131	103 124 040 124 101
  1134	031132	113 105 123 040 000
  1135						RADIX	8
DSKFA	DECSYSTEM 2020 INSTRUCTION TIMING TEST, VER 0,1 	MACRO %51(414) 10:09 21-APR-78 PAGE 13
DSKFAM	MAC	21-APR-78 10:06		DIAGNOSTIC SECTION                                                                 SEQ 0045

  1136	031133				E12:^
  1137
  1138					ENTR 13,MOVEI @3(3),INDEXING AND INDIRECT TAKES,LESS(5)^
  1139			000003			XX=3
  1140						IRP
  1141	031133	201 00 1 03 000003 	IFG XX,<MOVEI @3(3)	;INSTRUCTION SET TO BE TIMED>
  1142			000002			XX=XX-1
  1143
  1144						IFG	XX,<REPEAT XX,
  1145
  1146	031134	000000	000000			0			;NULL INSTRUCTION ENTRY
  1147
  1148	031135	000000	000000			0			;NULL INSTRUCTION ENTRY>
  1149	031136	000000	031143		TM13:	0+IFNB <INDEXING AND INDIRECT TAKES>,<EXP .+5>	;XWD TIME,LOCN OF MSG
  1150			000003			XX=3
  1151						IRP
  1152	031137	777777	031076		IFG XX,<LESS(5)^XWD -1,TM5^	;TIME CALCULATION>
  1153			000002			XX=XX-1
  1154
  1155						IFG	XX,<REPEAT XX,
  1156
  1157	031140	000000	000000			0			;NULL CALCULATION ENTRY
  1158
  1159	031141	000000	000000			0			;NULL CALCULATION ENTRY>
  1160						IF1 <ZZ=.>
  1161			031142			ZY=.
  1162	031142	000000	031152			XWD <IFNB <>,<1B18>+IFNB<>,<^D>>,IFN ZY-ZZ,<E13>	;NEXT ENTRY
  1163						RADIX	10
  1164						IFNB	<INDEXING AND INDIRECT TAKES>,<AUX \<XYZ=XYZ+1>,<INDEXING AND INDIRECT TAKE
  1165	031143	064 040 055 040 111 	S>>^ASCIZ !4 - INDEXING AND INDIRECT TAKES !^;MESSAGE
  1166	031144	116 104 105 130 111
  1167	031145	116 107 040 101 116
  1168	031146	104 040 111 116 104
  1169	031147	111 122 105 103 124
  1170	031150	040 124 101 113 105
  1171	031151	123 040 000 000 000
  1172						RADIX	8
DSKFA	DECSYSTEM 2020 INSTRUCTION TIMING TEST, VER 0,1 	MACRO %51(414) 10:09 21-APR-78 PAGE 14
DSKFAM	MAC	21-APR-78 10:06		DIAGNOSTIC SECTION                                                                 SEQ 0046

  1173	031152				E13:^
  1174
  1175					ENTR 14,MOVEI,MOVEI TAKES^
  1176			000003			XX=3
  1177						IRP
  1178	031152	201 00 0 00 000000 	IFG XX,<MOVEI	;INSTRUCTION SET TO BE TIMED>
  1179			000002			XX=XX-1
  1180
  1181						IFG	XX,<REPEAT XX,
  1182
  1183	031153	000000	000000			0			;NULL INSTRUCTION ENTRY
  1184
  1185	031154	000000	000000			0			;NULL INSTRUCTION ENTRY>
  1186	031155	000000	031162		TM14:	0+IFNB <MOVEI TAKES>,<EXP .+5>	;XWD TIME,LOCN OF MSG
  1187			000003			XX=3
  1188						IRP
  1189
  1190						IFG	XX,<REPEAT XX,
  1191
  1192	031156	000000	000000			0			;NULL CALCULATION ENTRY
  1193
  1194	031157	000000	000000			0			;NULL CALCULATION ENTRY
  1195
  1196	031160	000000	000000			0			;NULL CALCULATION ENTRY>
  1197						IF1 <ZZ=.>
  1198			031161			ZY=.
  1199	031161	000000	031166			XWD <IFNB <>,<1B18>+IFNB<>,<^D>>,IFN ZY-ZZ,<E14>	;NEXT ENTRY
  1200						RADIX	10
  1201						IFNB	<MOVEI TAKES>,<AUX \<XYZ=XYZ+1>,<MOVEI TAKES>>^ASCIZ !5 - MOVEI TAKES !^;ME
  1202	031162	065 040 055 040 115 	SSAGE
  1203	031163	117 126 105 111 040
  1204	031164	124 101 113 105 123
  1205	031165	040 000 000 000 000
  1206						RADIX	8
DSKFA	DECSYSTEM 2020 INSTRUCTION TIMING TEST, VER 0,1 	MACRO %51(414) 10:09 21-APR-78 PAGE 15
DSKFAM	MAC	21-APR-78 10:06		DIAGNOSTIC SECTION                                                                 SEQ 0047

  1207	031166				E14:^
  1208
  1209					ENTR 141,MOVSI,MOVSI TAKES^
  1210			000003			XX=3
  1211						IRP
  1212	031166	205 00 0 00 000000 	IFG XX,<MOVSI	;INSTRUCTION SET TO BE TIMED>
  1213			000002			XX=XX-1
  1214
  1215						IFG	XX,<REPEAT XX,
  1216
  1217	031167	000000	000000			0			;NULL INSTRUCTION ENTRY
  1218
  1219	031170	000000	000000			0			;NULL INSTRUCTION ENTRY>
  1220	031171	000000	031176		TM141:	0+IFNB <MOVSI TAKES>,<EXP .+5>	;XWD TIME,LOCN OF MSG
  1221			000003			XX=3
  1222						IRP
  1223
  1224						IFG	XX,<REPEAT XX,
  1225
  1226	031172	000000	000000			0			;NULL CALCULATION ENTRY
  1227
  1228	031173	000000	000000			0			;NULL CALCULATION ENTRY
  1229
  1230	031174	000000	000000			0			;NULL CALCULATION ENTRY>
  1231						IF1 <ZZ=.>
  1232			031175			ZY=.
  1233	031175	000000	031202			XWD <IFNB <>,<1B18>+IFNB<>,<^D>>,IFN ZY-ZZ,<E141>	;NEXT ENTRY
  1234						RADIX	10
  1235						IFNB	<MOVSI TAKES>,<AUX \<XYZ=XYZ+1>,<MOVSI TAKES>>^ASCIZ !6 - MOVSI TAKES !^;ME
  1236	031176	066 040 055 040 115 	SSAGE
  1237	031177	117 126 123 111 040
  1238	031200	124 101 113 105 123
  1239	031201	040 000 000 000 000
  1240						RADIX	8
DSKFA	DECSYSTEM 2020 INSTRUCTION TIMING TEST, VER 0,1 	MACRO %51(414) 10:09 21-APR-78 PAGE 16
DSKFAM	MAC	21-APR-78 10:06		DIAGNOSTIC SECTION                                                                 SEQ 0048

  1241	031202				E141:^
  1242
  1243					ENTR 15,MOVE 3,MOVE FROM AC TAKES^
  1244			000003			XX=3
  1245						IRP
  1246	031202	200 00 0 00 000003 	IFG XX,<MOVE 3	;INSTRUCTION SET TO BE TIMED>
  1247			000002			XX=XX-1
  1248
  1249						IFG	XX,<REPEAT XX,
  1250
  1251	031203	000000	000000			0			;NULL INSTRUCTION ENTRY
  1252
  1253	031204	000000	000000			0			;NULL INSTRUCTION ENTRY>
  1254	031205	000000	031212		TM15:	0+IFNB <MOVE FROM AC TAKES>,<EXP .+5>	;XWD TIME,LOCN OF MSG
  1255			000003			XX=3
  1256						IRP
  1257
  1258						IFG	XX,<REPEAT XX,
  1259
  1260	031206	000000	000000			0			;NULL CALCULATION ENTRY
  1261
  1262	031207	000000	000000			0			;NULL CALCULATION ENTRY
  1263
  1264	031210	000000	000000			0			;NULL CALCULATION ENTRY>
  1265						IF1 <ZZ=.>
  1266			031211			ZY=.
  1267	031211	000000	031217			XWD <IFNB <>,<1B18>+IFNB<>,<^D>>,IFN ZY-ZZ,<E15>	;NEXT ENTRY
  1268						RADIX	10
  1269						IFNB	<MOVE FROM AC TAKES>,<AUX \<XYZ=XYZ+1>,<MOVE FROM AC TAKES>>^ASCIZ !7 - MOV
  1270	031212	067 040 055 040 115 	E FROM AC TAKES !^;MESSAGE
  1271	031213	117 126 105 040 106
  1272	031214	122 117 115 040 101
  1273	031215	103 040 124 101 113
  1274	031216	105 123 040 000 000
  1275						RADIX	8
DSKFA	DECSYSTEM 2020 INSTRUCTION TIMING TEST, VER 0,1 	MACRO %51(414) 10:09 21-APR-78 PAGE 17
DSKFAM	MAC	21-APR-78 10:06		DIAGNOSTIC SECTION                                                                 SEQ 0049

  1276	031217				E15:^
  1277
  1278					ENTR 16,MOVE MARG,MOVE FROM MEMORY TAKES^
  1279			000003			XX=3
  1280						IRP
  1281	031217	200 00 0 00 035047 	IFG XX,<MOVE MARG	;INSTRUCTION SET TO BE TIMED>
  1282			000002			XX=XX-1
  1283
  1284						IFG	XX,<REPEAT XX,
  1285
  1286	031220	000000	000000			0			;NULL INSTRUCTION ENTRY
  1287
  1288	031221	000000	000000			0			;NULL INSTRUCTION ENTRY>
  1289	031222	000000	031227		TM16:	0+IFNB <MOVE FROM MEMORY TAKES>,<EXP .+5>	;XWD TIME,LOCN OF MSG
  1290			000003			XX=3
  1291						IRP
  1292
  1293						IFG	XX,<REPEAT XX,
  1294
  1295	031223	000000	000000			0			;NULL CALCULATION ENTRY
  1296
  1297	031224	000000	000000			0			;NULL CALCULATION ENTRY
  1298
  1299	031225	000000	000000			0			;NULL CALCULATION ENTRY>
  1300						IF1 <ZZ=.>
  1301			031226			ZY=.
  1302	031226	000000	031235			XWD <IFNB <>,<1B18>+IFNB<>,<^D>>,IFN ZY-ZZ,<E16>	;NEXT ENTRY
  1303						RADIX	10
  1304						IFNB	<MOVE FROM MEMORY TAKES>,<AUX \<XYZ=XYZ+1>,<MOVE FROM MEMORY TAKES>>^ASCIZ
  1305	031227	070 040 055 040 115 	!8 - MOVE FROM MEMORY TAKES !^;MESSAGE
  1306	031230	117 126 105 040 106
  1307	031231	122 117 115 040 115
  1308	031232	105 115 117 122 131
  1309	031233	040 124 101 113 105
  1310	031234	123 040 000 000 000
  1311						RADIX	8
DSKFA	DECSYSTEM 2020 INSTRUCTION TIMING TEST, VER 0,1 	MACRO %51(414) 10:09 21-APR-78 PAGE 18
DSKFAM	MAC	21-APR-78 10:06		DIAGNOSTIC SECTION                                                                 SEQ 0050

  1312	031235				E16:^
  1313
  1314					ENTR 161,MOVEM TEMP,MOVE TO MEMORY TAKES^
  1315			000003			XX=3
  1316						IRP
  1317	031235	202 00 0 00 035051 	IFG XX,<MOVEM TEMP	;INSTRUCTION SET TO BE TIMED>
  1318			000002			XX=XX-1
  1319
  1320						IFG	XX,<REPEAT XX,
  1321
  1322	031236	000000	000000			0			;NULL INSTRUCTION ENTRY
  1323
  1324	031237	000000	000000			0			;NULL INSTRUCTION ENTRY>
  1325	031240	000000	031245		TM161:	0+IFNB <MOVE TO MEMORY TAKES>,<EXP .+5>	;XWD TIME,LOCN OF MSG
  1326			000003			XX=3
  1327						IRP
  1328
  1329						IFG	XX,<REPEAT XX,
  1330
  1331	031241	000000	000000			0			;NULL CALCULATION ENTRY
  1332
  1333	031242	000000	000000			0			;NULL CALCULATION ENTRY
  1334
  1335	031243	000000	000000			0			;NULL CALCULATION ENTRY>
  1336						IF1 <ZZ=.>
  1337			031244			ZY=.
  1338	031244	000000	031253			XWD <IFNB <>,<1B18>+IFNB<>,<^D>>,IFN ZY-ZZ,<E161>	;NEXT ENTRY
  1339						RADIX	10
  1340						IFNB	<MOVE TO MEMORY TAKES>,<AUX \<XYZ=XYZ+1>,<MOVE TO MEMORY TAKES>>^ASCIZ !9 -
  1341	031245	071 040 055 040 115 	 MOVE TO MEMORY TAKES !^;MESSAGE
  1342	031246	117 126 105 040 124
  1343	031247	117 040 115 105 115
  1344	031250	117 122 131 040 124
  1345	031251	101 113 105 123 040
  1346	031252	000 000 000 000 000
  1347						RADIX	8
DSKFA	DECSYSTEM 2020 INSTRUCTION TIMING TEST, VER 0,1 	MACRO %51(414) 10:09 21-APR-78 PAGE 19
DSKFAM	MAC	21-APR-78 10:06		DIAGNOSTIC SECTION                                                                 SEQ 0051

  1348	031253				E161:^
  1349
  1350					ENTR 17,HRR MARG,HRR FROM MEMORY TAKES^
  1351			000003			XX=3
  1352						IRP
  1353	031253	540 00 0 00 035047 	IFG XX,<HRR MARG	;INSTRUCTION SET TO BE TIMED>
  1354			000002			XX=XX-1
  1355
  1356						IFG	XX,<REPEAT XX,
  1357
  1358	031254	000000	000000			0			;NULL INSTRUCTION ENTRY
  1359
  1360	031255	000000	000000			0			;NULL INSTRUCTION ENTRY>
  1361	031256	000000	031263		TM17:	0+IFNB <HRR FROM MEMORY TAKES>,<EXP .+5>	;XWD TIME,LOCN OF MSG
  1362			000003			XX=3
  1363						IRP
  1364
  1365						IFG	XX,<REPEAT XX,
  1366
  1367	031257	000000	000000			0			;NULL CALCULATION ENTRY
  1368
  1369	031260	000000	000000			0			;NULL CALCULATION ENTRY
  1370
  1371	031261	000000	000000			0			;NULL CALCULATION ENTRY>
  1372						IF1 <ZZ=.>
  1373			031262			ZY=.
  1374	031262	000000	031271			XWD <IFNB <>,<1B18>+IFNB<>,<^D>>,IFN ZY-ZZ,<E17>	;NEXT ENTRY
  1375						RADIX	10
  1376						IFNB	<HRR FROM MEMORY TAKES>,<AUX \<XYZ=XYZ+1>,<HRR FROM MEMORY TAKES>>^ASCIZ !1
  1377	031263	061 060 040 055 040 	0 - HRR FROM MEMORY TAKES !^;MESSAGE
  1378	031264	110 122 122 040 106
  1379	031265	122 117 115 040 115
  1380	031266	105 115 117 122 131
  1381	031267	040 124 101 113 105
  1382	031270	123 040 000 000 000
  1383						RADIX	8
DSKFA	DECSYSTEM 2020 INSTRUCTION TIMING TEST, VER 0,1 	MACRO %51(414) 10:09 21-APR-78 PAGE 20
DSKFAM	MAC	21-APR-78 10:06		DIAGNOSTIC SECTION                                                                 SEQ 0052

  1384	031271				E17:^
  1385
  1386					ENTR 171,HRRZ MARG,HRRZ FROM MEMORY TAKES^
  1387			000003			XX=3
  1388						IRP
  1389	031271	550 00 0 00 035047 	IFG XX,<HRRZ MARG	;INSTRUCTION SET TO BE TIMED>
  1390			000002			XX=XX-1
  1391
  1392						IFG	XX,<REPEAT XX,
  1393
  1394	031272	000000	000000			0			;NULL INSTRUCTION ENTRY
  1395
  1396	031273	000000	000000			0			;NULL INSTRUCTION ENTRY>
  1397	031274	000000	031301		TM171:	0+IFNB <HRRZ FROM MEMORY TAKES>,<EXP .+5>	;XWD TIME,LOCN OF MSG
  1398			000003			XX=3
  1399						IRP
  1400
  1401						IFG	XX,<REPEAT XX,
  1402
  1403	031275	000000	000000			0			;NULL CALCULATION ENTRY
  1404
  1405	031276	000000	000000			0			;NULL CALCULATION ENTRY
  1406
  1407	031277	000000	000000			0			;NULL CALCULATION ENTRY>
  1408						IF1 <ZZ=.>
  1409			031300			ZY=.
  1410	031300	000000	031307			XWD <IFNB <>,<1B18>+IFNB<>,<^D>>,IFN ZY-ZZ,<E171>	;NEXT ENTRY
  1411						RADIX	10
  1412						IFNB	<HRRZ FROM MEMORY TAKES>,<AUX \<XYZ=XYZ+1>,<HRRZ FROM MEMORY TAKES>>^ASCIZ
  1413	031301	061 061 040 055 040 	!11 - HRRZ FROM MEMORY TAKES !^;MESSAGE
  1414	031302	110 122 122 132 040
  1415	031303	106 122 117 115 040
  1416	031304	115 105 115 117 122
  1417	031305	131 040 124 101 113
  1418	031306	105 123 040 000 000
  1419						RADIX	8
DSKFA	DECSYSTEM 2020 INSTRUCTION TIMING TEST, VER 0,1 	MACRO %51(414) 10:09 21-APR-78 PAGE 21
DSKFAM	MAC	21-APR-78 10:06		DIAGNOSTIC SECTION                                                                 SEQ 0053

  1420	031307				E171:^
  1421
  1422					ENTR 172,HLRZ MARG,HLRZ FROM MEMORY TAKES^
  1423			000003			XX=3
  1424						IRP
  1425	031307	554 00 0 00 035047 	IFG XX,<HLRZ MARG	;INSTRUCTION SET TO BE TIMED>
  1426			000002			XX=XX-1
  1427
  1428						IFG	XX,<REPEAT XX,
  1429
  1430	031310	000000	000000			0			;NULL INSTRUCTION ENTRY
  1431
  1432	031311	000000	000000			0			;NULL INSTRUCTION ENTRY>
  1433	031312	000000	031317		TM172:	0+IFNB <HLRZ FROM MEMORY TAKES>,<EXP .+5>	;XWD TIME,LOCN OF MSG
  1434			000003			XX=3
  1435						IRP
  1436
  1437						IFG	XX,<REPEAT XX,
  1438
  1439	031313	000000	000000			0			;NULL CALCULATION ENTRY
  1440
  1441	031314	000000	000000			0			;NULL CALCULATION ENTRY
  1442
  1443	031315	000000	000000			0			;NULL CALCULATION ENTRY>
  1444						IF1 <ZZ=.>
  1445			031316			ZY=.
  1446	031316	000000	031325			XWD <IFNB <>,<1B18>+IFNB<>,<^D>>,IFN ZY-ZZ,<E172>	;NEXT ENTRY
  1447						RADIX	10
  1448						IFNB	<HLRZ FROM MEMORY TAKES>,<AUX \<XYZ=XYZ+1>,<HLRZ FROM MEMORY TAKES>>^ASCIZ
  1449	031317	061 062 040 055 040 	!12 - HLRZ FROM MEMORY TAKES !^;MESSAGE
  1450	031320	110 114 122 132 040
  1451	031321	106 122 117 115 040
  1452	031322	115 105 115 117 122
  1453	031323	131 040 124 101 113
  1454	031324	105 123 040 000 000
  1455						RADIX	8
DSKFA	DECSYSTEM 2020 INSTRUCTION TIMING TEST, VER 0,1 	MACRO %51(414) 10:09 21-APR-78 PAGE 22
DSKFAM	MAC	21-APR-78 10:06		DIAGNOSTIC SECTION                                                                 SEQ 0054

  1456	031325				E172:^
  1457
  1458					ENTR 18,SETZ,SETZ TAKES^
  1459			000003			XX=3
  1460						IRP
  1461	031325	400 00 0 00 000000 	IFG XX,<SETZ	;INSTRUCTION SET TO BE TIMED>
  1462			000002			XX=XX-1
  1463
  1464						IFG	XX,<REPEAT XX,
  1465
  1466	031326	000000	000000			0			;NULL INSTRUCTION ENTRY
  1467
  1468	031327	000000	000000			0			;NULL INSTRUCTION ENTRY>
  1469	031330	000000	031335		TM18:	0+IFNB <SETZ TAKES>,<EXP .+5>	;XWD TIME,LOCN OF MSG
  1470			000003			XX=3
  1471						IRP
  1472
  1473						IFG	XX,<REPEAT XX,
  1474
  1475	031331	000000	000000			0			;NULL CALCULATION ENTRY
  1476
  1477	031332	000000	000000			0			;NULL CALCULATION ENTRY
  1478
  1479	031333	000000	000000			0			;NULL CALCULATION ENTRY>
  1480						IF1 <ZZ=.>
  1481			031334			ZY=.
  1482	031334	000000	031341			XWD <IFNB <>,<1B18>+IFNB<>,<^D>>,IFN ZY-ZZ,<E18>	;NEXT ENTRY
  1483						RADIX	10
  1484						IFNB	<SETZ TAKES>,<AUX \<XYZ=XYZ+1>,<SETZ TAKES>>^ASCIZ !13 - SETZ TAKES !^;MESS
  1485	031335	061 063 040 055 040 	AGE
  1486	031336	123 105 124 132 040
  1487	031337	124 101 113 105 123
  1488	031340	040 000 000 000 000
  1489						RADIX	8
DSKFA	DECSYSTEM 2020 INSTRUCTION TIMING TEST, VER 0,1 	MACRO %51(414) 10:09 21-APR-78 PAGE 23
DSKFAM	MAC	21-APR-78 10:06		DIAGNOSTIC SECTION                                                                 SEQ 0055

  1490	031341				E18:^
  1491
  1492					ENTR 181,SETZM TEMP,SETZM TAKES^
  1493			000003			XX=3
  1494						IRP
  1495	031341	402 00 0 00 035051 	IFG XX,<SETZM TEMP	;INSTRUCTION SET TO BE TIMED>
  1496			000002			XX=XX-1
  1497
  1498						IFG	XX,<REPEAT XX,
  1499
  1500	031342	000000	000000			0			;NULL INSTRUCTION ENTRY
  1501
  1502	031343	000000	000000			0			;NULL INSTRUCTION ENTRY>
  1503	031344	000000	031351		TM181:	0+IFNB <SETZM TAKES>,<EXP .+5>	;XWD TIME,LOCN OF MSG
  1504			000003			XX=3
  1505						IRP
  1506
  1507						IFG	XX,<REPEAT XX,
  1508
  1509	031345	000000	000000			0			;NULL CALCULATION ENTRY
  1510
  1511	031346	000000	000000			0			;NULL CALCULATION ENTRY
  1512
  1513	031347	000000	000000			0			;NULL CALCULATION ENTRY>
  1514						IF1 <ZZ=.>
  1515			031350			ZY=.
  1516	031350	000000	031355			XWD <IFNB <>,<1B18>+IFNB<>,<^D>>,IFN ZY-ZZ,<E181>	;NEXT ENTRY
  1517						RADIX	10
  1518						IFNB	<SETZM TAKES>,<AUX \<XYZ=XYZ+1>,<SETZM TAKES>>^ASCIZ !14 - SETZM TAKES !^;M
  1519	031351	061 064 040 055 040 	ESSAGE
  1520	031352	123 105 124 132 115
  1521	031353	040 124 101 113 105
  1522	031354	123 040 000 000 000
  1523						RADIX	8
DSKFA	DECSYSTEM 2020 INSTRUCTION TIMING TEST, VER 0,1 	MACRO %51(414) 10:09 21-APR-78 PAGE 24
DSKFAM	MAC	21-APR-78 10:06		DIAGNOSTIC SECTION                                                                 SEQ 0056

  1524	031355				E181:^
  1525
  1526					ENTR 182,SETZB TEMP,SETZB TAKES^
  1527			000003			XX=3
  1528						IRP
  1529	031355	403 00 0 00 035051 	IFG XX,<SETZB TEMP	;INSTRUCTION SET TO BE TIMED>
  1530			000002			XX=XX-1
  1531
  1532						IFG	XX,<REPEAT XX,
  1533
  1534	031356	000000	000000			0			;NULL INSTRUCTION ENTRY
  1535
  1536	031357	000000	000000			0			;NULL INSTRUCTION ENTRY>
  1537	031360	000000	031365		TM182:	0+IFNB <SETZB TAKES>,<EXP .+5>	;XWD TIME,LOCN OF MSG
  1538			000003			XX=3
  1539						IRP
  1540
  1541						IFG	XX,<REPEAT XX,
  1542
  1543	031361	000000	000000			0			;NULL CALCULATION ENTRY
  1544
  1545	031362	000000	000000			0			;NULL CALCULATION ENTRY
  1546
  1547	031363	000000	000000			0			;NULL CALCULATION ENTRY>
  1548						IF1 <ZZ=.>
  1549			031364			ZY=.
  1550	031364	000000	031371			XWD <IFNB <>,<1B18>+IFNB<>,<^D>>,IFN ZY-ZZ,<E182>	;NEXT ENTRY
  1551						RADIX	10
  1552						IFNB	<SETZB TAKES>,<AUX \<XYZ=XYZ+1>,<SETZB TAKES>>^ASCIZ !15 - SETZB TAKES !^;M
  1553	031365	061 065 040 055 040 	ESSAGE
  1554	031366	123 105 124 132 102
  1555	031367	040 124 101 113 105
  1556	031370	123 040 000 000 000
  1557						RADIX	8
DSKFA	DECSYSTEM 2020 INSTRUCTION TIMING TEST, VER 0,1 	MACRO %51(414) 10:09 21-APR-78 PAGE 25
DSKFAM	MAC	21-APR-78 10:06		DIAGNOSTIC SECTION                                                                 SEQ 0057

  1558	031371				E182:^
  1559
  1560					ENTR 183,SETO,SETO TAKES^
  1561			000003			XX=3
  1562						IRP
  1563	031371	474 00 0 00 000000 	IFG XX,<SETO	;INSTRUCTION SET TO BE TIMED>
  1564			000002			XX=XX-1
  1565
  1566						IFG	XX,<REPEAT XX,
  1567
  1568	031372	000000	000000			0			;NULL INSTRUCTION ENTRY
  1569
  1570	031373	000000	000000			0			;NULL INSTRUCTION ENTRY>
  1571	031374	000000	031401		TM183:	0+IFNB <SETO TAKES>,<EXP .+5>	;XWD TIME,LOCN OF MSG
  1572			000003			XX=3
  1573						IRP
  1574
  1575						IFG	XX,<REPEAT XX,
  1576
  1577	031375	000000	000000			0			;NULL CALCULATION ENTRY
  1578
  1579	031376	000000	000000			0			;NULL CALCULATION ENTRY
  1580
  1581	031377	000000	000000			0			;NULL CALCULATION ENTRY>
  1582						IF1 <ZZ=.>
  1583			031400			ZY=.
  1584	031400	000000	031405			XWD <IFNB <>,<1B18>+IFNB<>,<^D>>,IFN ZY-ZZ,<E183>	;NEXT ENTRY
  1585						RADIX	10
  1586						IFNB	<SETO TAKES>,<AUX \<XYZ=XYZ+1>,<SETO TAKES>>^ASCIZ !16 - SETO TAKES !^;MESS
  1587	031401	061 066 040 055 040 	AGE
  1588	031402	123 105 124 117 040
  1589	031403	124 101 113 105 123
  1590	031404	040 000 000 000 000
  1591						RADIX	8
DSKFA	DECSYSTEM 2020 INSTRUCTION TIMING TEST, VER 0,1 	MACRO %51(414) 10:09 21-APR-78 PAGE 26
DSKFAM	MAC	21-APR-78 10:06		DIAGNOSTIC SECTION                                                                 SEQ 0058

  1592	031405				E183:^
  1593
  1594					ENTR 184,SETOM TEMP,SETOM TAKES^
  1595			000003			XX=3
  1596						IRP
  1597	031405	476 00 0 00 035051 	IFG XX,<SETOM TEMP	;INSTRUCTION SET TO BE TIMED>
  1598			000002			XX=XX-1
  1599
  1600						IFG	XX,<REPEAT XX,
  1601
  1602	031406	000000	000000			0			;NULL INSTRUCTION ENTRY
  1603
  1604	031407	000000	000000			0			;NULL INSTRUCTION ENTRY>
  1605	031410	000000	031415		TM184:	0+IFNB <SETOM TAKES>,<EXP .+5>	;XWD TIME,LOCN OF MSG
  1606			000003			XX=3
  1607						IRP
  1608
  1609						IFG	XX,<REPEAT XX,
  1610
  1611	031411	000000	000000			0			;NULL CALCULATION ENTRY
  1612
  1613	031412	000000	000000			0			;NULL CALCULATION ENTRY
  1614
  1615	031413	000000	000000			0			;NULL CALCULATION ENTRY>
  1616						IF1 <ZZ=.>
  1617			031414			ZY=.
  1618	031414	000000	031421			XWD <IFNB <>,<1B18>+IFNB<>,<^D>>,IFN ZY-ZZ,<E184>	;NEXT ENTRY
  1619						RADIX	10
  1620						IFNB	<SETOM TAKES>,<AUX \<XYZ=XYZ+1>,<SETOM TAKES>>^ASCIZ !17 - SETOM TAKES !^;M
  1621	031415	061 067 040 055 040 	ESSAGE
  1622	031416	123 105 124 117 115
  1623	031417	040 124 101 113 105
  1624	031420	123 040 000 000 000
  1625						RADIX	8
DSKFA	DECSYSTEM 2020 INSTRUCTION TIMING TEST, VER 0,1 	MACRO %51(414) 10:09 21-APR-78 PAGE 27
DSKFAM	MAC	21-APR-78 10:06		DIAGNOSTIC SECTION                                                                 SEQ 0059

  1626	031421				E184:^
  1627
  1628					ENTR 185,SETOB TEMP,SETOB TAKES^
  1629			000003			XX=3
  1630						IRP
  1631	031421	477 00 0 00 035051 	IFG XX,<SETOB TEMP	;INSTRUCTION SET TO BE TIMED>
  1632			000002			XX=XX-1
  1633
  1634						IFG	XX,<REPEAT XX,
  1635
  1636	031422	000000	000000			0			;NULL INSTRUCTION ENTRY
  1637
  1638	031423	000000	000000			0			;NULL INSTRUCTION ENTRY>
  1639	031424	000000	031431		TM185:	0+IFNB <SETOB TAKES>,<EXP .+5>	;XWD TIME,LOCN OF MSG
  1640			000003			XX=3
  1641						IRP
  1642
  1643						IFG	XX,<REPEAT XX,
  1644
  1645	031425	000000	000000			0			;NULL CALCULATION ENTRY
  1646
  1647	031426	000000	000000			0			;NULL CALCULATION ENTRY
  1648
  1649	031427	000000	000000			0			;NULL CALCULATION ENTRY>
  1650						IF1 <ZZ=.>
  1651			031430			ZY=.
  1652	031430	000000	031435			XWD <IFNB <>,<1B18>+IFNB<>,<^D>>,IFN ZY-ZZ,<E185>	;NEXT ENTRY
  1653						RADIX	10
  1654						IFNB	<SETOB TAKES>,<AUX \<XYZ=XYZ+1>,<SETOB TAKES>>^ASCIZ !18 - SETOB TAKES !^;M
  1655	031431	061 070 040 055 040 	ESSAGE
  1656	031432	123 105 124 117 102
  1657	031433	040 124 101 113 105
  1658	031434	123 040 000 000 000
  1659						RADIX	8
DSKFA	DECSYSTEM 2020 INSTRUCTION TIMING TEST, VER 0,1 	MACRO %51(414) 10:09 21-APR-78 PAGE 28
DSKFAM	MAC	21-APR-78 10:06		DIAGNOSTIC SECTION                                                                 SEQ 0060

  1660	031435				E185:^
  1661
  1662					ENTR 19,JRST 1,JRST TAKES^
  1663			000003			XX=3
  1664						IRP
  1665	031435	254 00 0 00 000001 	IFG XX,<JRST 1	;INSTRUCTION SET TO BE TIMED>
  1666			000002			XX=XX-1
  1667
  1668						IFG	XX,<REPEAT XX,
  1669
  1670	031436	000000	000000			0			;NULL INSTRUCTION ENTRY
  1671
  1672	031437	000000	000000			0			;NULL INSTRUCTION ENTRY>
  1673	031440	000000	031445		TM19:	0+IFNB <JRST TAKES>,<EXP .+5>	;XWD TIME,LOCN OF MSG
  1674			000003			XX=3
  1675						IRP
  1676
  1677						IFG	XX,<REPEAT XX,
  1678
  1679	031441	000000	000000			0			;NULL CALCULATION ENTRY
  1680
  1681	031442	000000	000000			0			;NULL CALCULATION ENTRY
  1682
  1683	031443	000000	000000			0			;NULL CALCULATION ENTRY>
  1684						IF1 <ZZ=.>
  1685			031444			ZY=.
  1686	031444	000000	031451			XWD <IFNB <>,<1B18>+IFNB<>,<^D>>,IFN ZY-ZZ,<E19>	;NEXT ENTRY
  1687						RADIX	10
  1688						IFNB	<JRST TAKES>,<AUX \<XYZ=XYZ+1>,<JRST TAKES>>^ASCIZ !19 - JRST TAKES !^;MESS
  1689	031445	061 071 040 055 040 	AGE
  1690	031446	112 122 123 124 040
  1691	031447	124 101 113 105 123
  1692	031450	040 000 000 000 000
  1693						RADIX	8
DSKFA	DECSYSTEM 2020 INSTRUCTION TIMING TEST, VER 0,1 	MACRO %51(414) 10:09 21-APR-78 PAGE 29
DSKFAM	MAC	21-APR-78 10:06		DIAGNOSTIC SECTION                                                                 SEQ 0061

  1694	031451				E19:^
  1695
  1696					ENTR 191,<JRSTF @1,1>,JRSTF @MEM TAKES^
  1697			000003			XX=3
  1698						IRP
  1699	031451	254 02 1 00 000001 	IFG XX,<JRSTF @1	;INSTRUCTION SET TO BE TIMED>
  1700			000002			XX=XX-1
  1701	031452	000000	000001		IFG XX,<1	;INSTRUCTION SET TO BE TIMED>
  1702			000001			XX=XX-1
  1703
  1704						IFG	XX,<REPEAT XX,<
  1705	031453	000000	000000			0			;NULL INSTRUCTION ENTRY>>
  1706	031454	000000	031461		TM191:	0+IFNB <JRSTF @MEM TAKES>,<EXP .+5>	;XWD TIME,LOCN OF MSG
  1707			000003			XX=3
  1708						IRP
  1709
  1710						IFG	XX,<REPEAT XX,
  1711
  1712	031455	000000	000000			0			;NULL CALCULATION ENTRY
  1713
  1714	031456	000000	000000			0			;NULL CALCULATION ENTRY
  1715
  1716	031457	000000	000000			0			;NULL CALCULATION ENTRY>
  1717						IF1 <ZZ=.>
  1718			031460			ZY=.
  1719	031460	000000	031466			XWD <IFNB <>,<1B18>+IFNB<>,<^D>>,IFN ZY-ZZ,<E191>	;NEXT ENTRY
  1720						RADIX	10
  1721						IFNB	<JRSTF @MEM TAKES>,<AUX \<XYZ=XYZ+1>,<JRSTF @MEM TAKES>>^ASCIZ !20 - JRSTF
  1722	031461	062 060 040 055 040 	@MEM TAKES !^;MESSAGE
  1723	031462	112 122 123 124 106
  1724	031463	040 100 115 105 115
  1725	031464	040 124 101 113 105
  1726	031465	123 040 000 000 000
  1727						RADIX	8
DSKFA	DECSYSTEM 2020 INSTRUCTION TIMING TEST, VER 0,1 	MACRO %51(414) 10:09 21-APR-78 PAGE 30
DSKFAM	MAC	21-APR-78 10:06		DIAGNOSTIC SECTION                                                                 SEQ 0062

  1728	031466				E191:^
  1729
  1730					ENTR 192,JUMPA 1,JUMPA TAKES^
  1731			000003			XX=3
  1732						IRP
  1733	031466	324 00 0 00 000001 	IFG XX,<JUMPA 1	;INSTRUCTION SET TO BE TIMED>
  1734			000002			XX=XX-1
  1735
  1736						IFG	XX,<REPEAT XX,
  1737
  1738	031467	000000	000000			0			;NULL INSTRUCTION ENTRY
  1739
  1740	031470	000000	000000			0			;NULL INSTRUCTION ENTRY>
  1741	031471	000000	031476		TM192:	0+IFNB <JUMPA TAKES>,<EXP .+5>	;XWD TIME,LOCN OF MSG
  1742			000003			XX=3
  1743						IRP
  1744
  1745						IFG	XX,<REPEAT XX,
  1746
  1747	031472	000000	000000			0			;NULL CALCULATION ENTRY
  1748
  1749	031473	000000	000000			0			;NULL CALCULATION ENTRY
  1750
  1751	031474	000000	000000			0			;NULL CALCULATION ENTRY>
  1752						IF1 <ZZ=.>
  1753			031475			ZY=.
  1754	031475	000000	031502			XWD <IFNB <>,<1B18>+IFNB<>,<^D>>,IFN ZY-ZZ,<E192>	;NEXT ENTRY
  1755						RADIX	10
  1756						IFNB	<JUMPA TAKES>,<AUX \<XYZ=XYZ+1>,<JUMPA TAKES>>^ASCIZ !21 - JUMPA TAKES !^;M
  1757	031476	062 061 040 055 040 	ESSAGE
  1758	031477	112 125 115 120 101
  1759	031500	040 124 101 113 105
  1760	031501	123 040 000 000 000
  1761						RADIX	8
DSKFA	DECSYSTEM 2020 INSTRUCTION TIMING TEST, VER 0,1 	MACRO %51(414) 10:09 21-APR-78 PAGE 31
DSKFAM	MAC	21-APR-78 10:06		DIAGNOSTIC SECTION                                                                 SEQ 0063

  1762	031502				E192:^
  1763
  1764					ENTR 193,<<JUMPN 3,1>>,JUMP THAT DOESN'T TAKES^
  1765			000003			XX=3
  1766						IRP
  1767	031502	326140	000001		IFG XX,<<JUMPN 3,1>	;INSTRUCTION SET TO BE TIMED>
  1768			000002			XX=XX-1
  1769
  1770						IFG	XX,<REPEAT XX,
  1771
  1772	031503	000000	000000			0			;NULL INSTRUCTION ENTRY
  1773
  1774	031504	000000	000000			0			;NULL INSTRUCTION ENTRY>
  1775	031505	000000	031512		TM193:	0+IFNB <JUMP THAT DOESN'T TAKES>,<EXP .+5>	;XWD TIME,LOCN OF MSG
  1776			000003			XX=3
  1777						IRP
  1778
  1779						IFG	XX,<REPEAT XX,
  1780
  1781	031506	000000	000000			0			;NULL CALCULATION ENTRY
  1782
  1783	031507	000000	000000			0			;NULL CALCULATION ENTRY
  1784
  1785	031510	000000	000000			0			;NULL CALCULATION ENTRY>
  1786						IF1 <ZZ=.>
  1787			031511			ZY=.
  1788	031511	000000	031520			XWD <IFNB <>,<1B18>+IFNB<>,<^D>>,IFN ZY-ZZ,<E193>	;NEXT ENTRY
  1789						RADIX	10
  1790						IFNB	<JUMP THAT DOESN'T TAKES>,<AUX \<XYZ=XYZ+1>,<JUMP THAT DOESN'T TAKES>>^ASCI
  1791	031512	062 062 040 055 040 	Z !22 - JUMP THAT DOESN'T TAKES !^;MESSAGE
  1792	031513	112 125 115 120 040
  1793	031514	124 110 101 124 040
  1794	031515	104 117 105 123 116
  1795	031516	047 124 040 124 101
  1796	031517	113 105 123 040 000
  1797						RADIX	8
DSKFA	DECSYSTEM 2020 INSTRUCTION TIMING TEST, VER 0,1 	MACRO %51(414) 10:09 21-APR-78 PAGE 32
DSKFAM	MAC	21-APR-78 10:06		DIAGNOSTIC SECTION                                                                 SEQ 0064

  1798	031520				E193:^
  1799
  1800					ENTR 194,<<JUMPE 3,1>>,JUMP THAT DOES TAKES^
  1801			000003			XX=3
  1802						IRP
  1803	031520	322140	000001		IFG XX,<<JUMPE 3,1>	;INSTRUCTION SET TO BE TIMED>
  1804			000002			XX=XX-1
  1805
  1806						IFG	XX,<REPEAT XX,
  1807
  1808	031521	000000	000000			0			;NULL INSTRUCTION ENTRY
  1809
  1810	031522	000000	000000			0			;NULL INSTRUCTION ENTRY>
  1811	031523	000000	031530		TM194:	0+IFNB <JUMP THAT DOES TAKES>,<EXP .+5>	;XWD TIME,LOCN OF MSG
  1812			000003			XX=3
  1813						IRP
  1814
  1815						IFG	XX,<REPEAT XX,
  1816
  1817	031524	000000	000000			0			;NULL CALCULATION ENTRY
  1818
  1819	031525	000000	000000			0			;NULL CALCULATION ENTRY
  1820
  1821	031526	000000	000000			0			;NULL CALCULATION ENTRY>
  1822						IF1 <ZZ=.>
  1823			031527			ZY=.
  1824	031527	000000	031536			XWD <IFNB <>,<1B18>+IFNB<>,<^D>>,IFN ZY-ZZ,<E194>	;NEXT ENTRY
  1825						RADIX	10
  1826						IFNB	<JUMP THAT DOES TAKES>,<AUX \<XYZ=XYZ+1>,<JUMP THAT DOES TAKES>>^ASCIZ !23
  1827	031530	062 063 040 055 040 	- JUMP THAT DOES TAKES !^;MESSAGE
  1828	031531	112 125 115 120 040
  1829	031532	124 110 101 124 040
  1830	031533	104 117 105 123 040
  1831	031534	124 101 113 105 123
  1832	031535	040 000 000 000 000
  1833						RADIX	8
DSKFA	DECSYSTEM 2020 INSTRUCTION TIMING TEST, VER 0,1 	MACRO %51(414) 10:09 21-APR-78 PAGE 33
DSKFAM	MAC	21-APR-78 10:06		DIAGNOSTIC SECTION                                                                 SEQ 0065

  1834	031536				E194:^
  1835
  1836					ENTR 20,<JSR 1,1>,JSR TAKES^
  1837			000003			XX=3
  1838						IRP
  1839	031536	264 00 0 00 000001 	IFG XX,<JSR 1	;INSTRUCTION SET TO BE TIMED>
  1840			000002			XX=XX-1
  1841	031537	000000	000001		IFG XX,<1	;INSTRUCTION SET TO BE TIMED>
  1842			000001			XX=XX-1
  1843
  1844						IFG	XX,<REPEAT XX,<
  1845	031540	000000	000000			0			;NULL INSTRUCTION ENTRY>>
  1846	031541	000000	031546		TM20:	0+IFNB <JSR TAKES>,<EXP .+5>	;XWD TIME,LOCN OF MSG
  1847			000003			XX=3
  1848						IRP
  1849
  1850						IFG	XX,<REPEAT XX,
  1851
  1852	031542	000000	000000			0			;NULL CALCULATION ENTRY
  1853
  1854	031543	000000	000000			0			;NULL CALCULATION ENTRY
  1855
  1856	031544	000000	000000			0			;NULL CALCULATION ENTRY>
  1857						IF1 <ZZ=.>
  1858			031545			ZY=.
  1859	031545	000000	031552			XWD <IFNB <>,<1B18>+IFNB<>,<^D>>,IFN ZY-ZZ,<E20>	;NEXT ENTRY
  1860						RADIX	10
  1861						IFNB	<JSR TAKES>,<AUX \<XYZ=XYZ+1>,<JSR TAKES>>^ASCIZ !24 - JSR TAKES !^;MESSAGE
  1862	031546	062 064 040 055 040
  1863	031547	112 123 122 040 124
  1864	031550	101 113 105 123 040
  1865	031551	000 000 000 000 000
  1866						RADIX	8
DSKFA	DECSYSTEM 2020 INSTRUCTION TIMING TEST, VER 0,1 	MACRO %51(414) 10:09 21-APR-78 PAGE 34
DSKFAM	MAC	21-APR-78 10:06		DIAGNOSTIC SECTION                                                                 SEQ 0066

  1867	031552				E20:^
  1868
  1869					ENTR 201,JSP 1,JSP TAKES^
  1870			000003			XX=3
  1871						IRP
  1872	031552	265 00 0 00 000001 	IFG XX,<JSP 1	;INSTRUCTION SET TO BE TIMED>
  1873			000002			XX=XX-1
  1874
  1875						IFG	XX,<REPEAT XX,
  1876
  1877	031553	000000	000000			0			;NULL INSTRUCTION ENTRY
  1878
  1879	031554	000000	000000			0			;NULL INSTRUCTION ENTRY>
  1880	031555	000000	031562		TM201:	0+IFNB <JSP TAKES>,<EXP .+5>	;XWD TIME,LOCN OF MSG
  1881			000003			XX=3
  1882						IRP
  1883
  1884						IFG	XX,<REPEAT XX,
  1885
  1886	031556	000000	000000			0			;NULL CALCULATION ENTRY
  1887
  1888	031557	000000	000000			0			;NULL CALCULATION ENTRY
  1889
  1890	031560	000000	000000			0			;NULL CALCULATION ENTRY>
  1891						IF1 <ZZ=.>
  1892			031561			ZY=.
  1893	031561	000000	031566			XWD <IFNB <>,<1B18>+IFNB<>,<^D>>,IFN ZY-ZZ,<E201>	;NEXT ENTRY
  1894						RADIX	10
  1895						IFNB	<JSP TAKES>,<AUX \<XYZ=XYZ+1>,<JSP TAKES>>^ASCIZ !25 - JSP TAKES !^;MESSAGE
  1896	031562	062 065 040 055 040
  1897	031563	112 123 120 040 124
  1898	031564	101 113 105 123 040
  1899	031565	000 000 000 000 000
  1900						RADIX	8
DSKFA	DECSYSTEM 2020 INSTRUCTION TIMING TEST, VER 0,1 	MACRO %51(414) 10:09 21-APR-78 PAGE 35
DSKFAM	MAC	21-APR-78 10:06		DIAGNOSTIC SECTION                                                                 SEQ 0067

  1901	031566				E201:^
  1902
  1903					ENTR 202,AOBJN 1,AOBJN TAKES^
  1904			000003			XX=3
  1905						IRP
  1906	031566	253 00 0 00 000001 	IFG XX,<AOBJN 1	;INSTRUCTION SET TO BE TIMED>
  1907			000002			XX=XX-1
  1908
  1909						IFG	XX,<REPEAT XX,
  1910
  1911	031567	000000	000000			0			;NULL INSTRUCTION ENTRY
  1912
  1913	031570	000000	000000			0			;NULL INSTRUCTION ENTRY>
  1914	031571	000000	031576		TM202:	0+IFNB <AOBJN TAKES>,<EXP .+5>	;XWD TIME,LOCN OF MSG
  1915			000003			XX=3
  1916						IRP
  1917
  1918						IFG	XX,<REPEAT XX,
  1919
  1920	031572	000000	000000			0			;NULL CALCULATION ENTRY
  1921
  1922	031573	000000	000000			0			;NULL CALCULATION ENTRY
  1923
  1924	031574	000000	000000			0			;NULL CALCULATION ENTRY>
  1925						IF1 <ZZ=.>
  1926			031575			ZY=.
  1927	031575	000000	031602			XWD <IFNB <>,<1B18>+IFNB<>,<^D>>,IFN ZY-ZZ,<E202>	;NEXT ENTRY
  1928						RADIX	10
  1929						IFNB	<AOBJN TAKES>,<AUX \<XYZ=XYZ+1>,<AOBJN TAKES>>^ASCIZ !26 - AOBJN TAKES !^;M
  1930	031576	062 066 040 055 040 	ESSAGE
  1931	031577	101 117 102 112 116
  1932	031600	040 124 101 113 105
  1933	031601	123 040 000 000 000
  1934						RADIX	8
DSKFA	DECSYSTEM 2020 INSTRUCTION TIMING TEST, VER 0,1 	MACRO %51(414) 10:09 21-APR-78 PAGE 36
DSKFAM	MAC	21-APR-78 10:06		DIAGNOSTIC SECTION                                                                 SEQ 0068

  1935	031602				E202:^
  1936
  1937					ENTR 203,SOJ,SOJ TAKES^
  1938			000003			XX=3
  1939						IRP
  1940	031602	360 00 0 00 000000 	IFG XX,<SOJ	;INSTRUCTION SET TO BE TIMED>
  1941			000002			XX=XX-1
  1942
  1943						IFG	XX,<REPEAT XX,
  1944
  1945	031603	000000	000000			0			;NULL INSTRUCTION ENTRY
  1946
  1947	031604	000000	000000			0			;NULL INSTRUCTION ENTRY>
  1948	031605	000000	031612		TM203:	0+IFNB <SOJ TAKES>,<EXP .+5>	;XWD TIME,LOCN OF MSG
  1949			000003			XX=3
  1950						IRP
  1951
  1952						IFG	XX,<REPEAT XX,
  1953
  1954	031606	000000	000000			0			;NULL CALCULATION ENTRY
  1955
  1956	031607	000000	000000			0			;NULL CALCULATION ENTRY
  1957
  1958	031610	000000	000000			0			;NULL CALCULATION ENTRY>
  1959						IF1 <ZZ=.>
  1960			031611			ZY=.
  1961	031611	000000	031616			XWD <IFNB <>,<1B18>+IFNB<>,<^D>>,IFN ZY-ZZ,<E203>	;NEXT ENTRY
  1962						RADIX	10
  1963						IFNB	<SOJ TAKES>,<AUX \<XYZ=XYZ+1>,<SOJ TAKES>>^ASCIZ !27 - SOJ TAKES !^;MESSAGE
  1964	031612	062 067 040 055 040
  1965	031613	123 117 112 040 124
  1966	031614	101 113 105 123 040
  1967	031615	000 000 000 000 000
  1968						RADIX	8
DSKFA	DECSYSTEM 2020 INSTRUCTION TIMING TEST, VER 0,1 	MACRO %51(414) 10:09 21-APR-78 PAGE 37
DSKFAM	MAC	21-APR-78 10:06		DIAGNOSTIC SECTION                                                                 SEQ 0069

  1969	031616				E203:^
  1970
  1971					ENTR 204,SOS TEMP,SOS TAKES^
  1972			000003			XX=3
  1973						IRP
  1974	031616	370 00 0 00 035051 	IFG XX,<SOS TEMP	;INSTRUCTION SET TO BE TIMED>
  1975			000002			XX=XX-1
  1976
  1977						IFG	XX,<REPEAT XX,
  1978
  1979	031617	000000	000000			0			;NULL INSTRUCTION ENTRY
  1980
  1981	031620	000000	000000			0			;NULL INSTRUCTION ENTRY>
  1982	031621	000000	031626		TM204:	0+IFNB <SOS TAKES>,<EXP .+5>	;XWD TIME,LOCN OF MSG
  1983			000003			XX=3
  1984						IRP
  1985
  1986						IFG	XX,<REPEAT XX,
  1987
  1988	031622	000000	000000			0			;NULL CALCULATION ENTRY
  1989
  1990	031623	000000	000000			0			;NULL CALCULATION ENTRY
  1991
  1992	031624	000000	000000			0			;NULL CALCULATION ENTRY>
  1993						IF1 <ZZ=.>
  1994			031625			ZY=.
  1995	031625	000000	031632			XWD <IFNB <>,<1B18>+IFNB<>,<^D>>,IFN ZY-ZZ,<E204>	;NEXT ENTRY
  1996						RADIX	10
  1997						IFNB	<SOS TAKES>,<AUX \<XYZ=XYZ+1>,<SOS TAKES>>^ASCIZ !28 - SOS TAKES !^;MESSAGE
  1998	031626	062 070 040 055 040
  1999	031627	123 117 123 040 124
  2000	031630	101 113 105 123 040
  2001	031631	000 000 000 000 000
  2002						RADIX	8
DSKFA	DECSYSTEM 2020 INSTRUCTION TIMING TEST, VER 0,1 	MACRO %51(414) 10:09 21-APR-78 PAGE 38
DSKFAM	MAC	21-APR-78 10:06		DIAGNOSTIC SECTION                                                                 SEQ 0070

  2003	031632				E204:^
  2004
  2005					ENTR 205,AOJ,AOJ TAKES^
  2006			000003			XX=3
  2007						IRP
  2008	031632	340 00 0 00 000000 	IFG XX,<AOJ	;INSTRUCTION SET TO BE TIMED>
  2009			000002			XX=XX-1
  2010
  2011						IFG	XX,<REPEAT XX,
  2012
  2013	031633	000000	000000			0			;NULL INSTRUCTION ENTRY
  2014
  2015	031634	000000	000000			0			;NULL INSTRUCTION ENTRY>
  2016	031635	000000	031642		TM205:	0+IFNB <AOJ TAKES>,<EXP .+5>	;XWD TIME,LOCN OF MSG
  2017			000003			XX=3
  2018						IRP
  2019
  2020						IFG	XX,<REPEAT XX,
  2021
  2022	031636	000000	000000			0			;NULL CALCULATION ENTRY
  2023
  2024	031637	000000	000000			0			;NULL CALCULATION ENTRY
  2025
  2026	031640	000000	000000			0			;NULL CALCULATION ENTRY>
  2027						IF1 <ZZ=.>
  2028			031641			ZY=.
  2029	031641	000000	031646			XWD <IFNB <>,<1B18>+IFNB<>,<^D>>,IFN ZY-ZZ,<E205>	;NEXT ENTRY
  2030						RADIX	10
  2031						IFNB	<AOJ TAKES>,<AUX \<XYZ=XYZ+1>,<AOJ TAKES>>^ASCIZ !29 - AOJ TAKES !^;MESSAGE
  2032	031642	062 071 040 055 040
  2033	031643	101 117 112 040 124
  2034	031644	101 113 105 123 040
  2035	031645	000 000 000 000 000
  2036						RADIX	8
DSKFA	DECSYSTEM 2020 INSTRUCTION TIMING TEST, VER 0,1 	MACRO %51(414) 10:09 21-APR-78 PAGE 39
DSKFAM	MAC	21-APR-78 10:06		DIAGNOSTIC SECTION                                                                 SEQ 0071

  2037	031646				E205:^
  2038
  2039					ENTR 206,AOS TEMP,AOS TAKES^
  2040			000003			XX=3
  2041						IRP
  2042	031646	350 00 0 00 035051 	IFG XX,<AOS TEMP	;INSTRUCTION SET TO BE TIMED>
  2043			000002			XX=XX-1
  2044
  2045						IFG	XX,<REPEAT XX,
  2046
  2047	031647	000000	000000			0			;NULL INSTRUCTION ENTRY
  2048
  2049	031650	000000	000000			0			;NULL INSTRUCTION ENTRY>
  2050	031651	000000	031656		TM206:	0+IFNB <AOS TAKES>,<EXP .+5>	;XWD TIME,LOCN OF MSG
  2051			000003			XX=3
  2052						IRP
  2053
  2054						IFG	XX,<REPEAT XX,
  2055
  2056	031652	000000	000000			0			;NULL CALCULATION ENTRY
  2057
  2058	031653	000000	000000			0			;NULL CALCULATION ENTRY
  2059
  2060	031654	000000	000000			0			;NULL CALCULATION ENTRY>
  2061						IF1 <ZZ=.>
  2062			031655			ZY=.
  2063	031655	000000	031662			XWD <IFNB <>,<1B18>+IFNB<>,<^D>>,IFN ZY-ZZ,<E206>	;NEXT ENTRY
  2064						RADIX	10
  2065						IFNB	<AOS TAKES>,<AUX \<XYZ=XYZ+1>,<AOS TAKES>>^ASCIZ !30 - AOS TAKES !^;MESSAGE
  2066	031656	063 060 040 055 040
  2067	031657	101 117 123 040 124
  2068	031660	101 113 105 123 040
  2069	031661	000 000 000 000 000
  2070						RADIX	8
DSKFA	DECSYSTEM 2020 INSTRUCTION TIMING TEST, VER 0,1 	MACRO %51(414) 10:09 21-APR-78 PAGE 40
DSKFAM	MAC	21-APR-78 10:06		DIAGNOSTIC SECTION                                                                 SEQ 0072

  2071	031662				E206:^
  2072
  2073					ENTR 207,<MOVE [400000000000],JFFO 1>,JFFO (1B0) TAKES,LESS(16)^
  2074			000003			XX=3
  2075						IRP
  2076	031662	200 00 0 00 035000 	IFG XX,<MOVE [400000000000]	;INSTRUCTION SET TO BE TIMED>
  2077			000002			XX=XX-1
  2078	031663	243 00 0 00 000001 	IFG XX,<JFFO 1	;INSTRUCTION SET TO BE TIMED>
  2079			000001			XX=XX-1
  2080
  2081						IFG	XX,<REPEAT XX,<
  2082	031664	000000	000000			0			;NULL INSTRUCTION ENTRY>>
  2083	031665	000000	031672		TM207:	0+IFNB <JFFO (1B0) TAKES>,<EXP .+5>	;XWD TIME,LOCN OF MSG
  2084			000003			XX=3
  2085						IRP
  2086	031666	777777	031222		IFG XX,<LESS(16)^XWD -1,TM16^	;TIME CALCULATION>
  2087			000002			XX=XX-1
  2088
  2089						IFG	XX,<REPEAT XX,
  2090
  2091	031667	000000	000000			0			;NULL CALCULATION ENTRY
  2092
  2093	031670	000000	000000			0			;NULL CALCULATION ENTRY>
  2094						IF1 <ZZ=.>
  2095			031671			ZY=.
  2096	031671	000000	031677			XWD <IFNB <>,<1B18>+IFNB<>,<^D>>,IFN ZY-ZZ,<E207>	;NEXT ENTRY
  2097						RADIX	10
  2098						IFNB	<JFFO (1B0) TAKES>,<AUX \<XYZ=XYZ+1>,<JFFO (1B0) TAKES>>^ASCIZ !31 - JFFO (
  2099	031672	063 061 040 055 040 	1B0) TAKES !^;MESSAGE
  2100	031673	112 106 106 117 040
  2101	031674	050 061 102 060 051
  2102	031675	040 124 101 113 105
  2103	031676	123 040 000 000 000
  2104						RADIX	8
DSKFA	DECSYSTEM 2020 INSTRUCTION TIMING TEST, VER 0,1 	MACRO %51(414) 10:09 21-APR-78 PAGE 41
DSKFAM	MAC	21-APR-78 10:06		DIAGNOSTIC SECTION                                                                 SEQ 0073

  2105	031677				E207:^
  2106
  2107					ENTR 208,<MOVE [1],JFFO 1>,JFFO (1B35) TAKES,LESS(16)^
  2108			000003			XX=3
  2109						IRP
  2110	031677	200 00 0 00 035001 	IFG XX,<MOVE [1]	;INSTRUCTION SET TO BE TIMED>
  2111			000002			XX=XX-1
  2112	031700	243 00 0 00 000001 	IFG XX,<JFFO 1	;INSTRUCTION SET TO BE TIMED>
  2113			000001			XX=XX-1
  2114
  2115						IFG	XX,<REPEAT XX,<
  2116	031701	000000	000000			0			;NULL INSTRUCTION ENTRY>>
  2117	031702	000000	031707		TM208:	0+IFNB <JFFO (1B35) TAKES>,<EXP .+5>	;XWD TIME,LOCN OF MSG
  2118			000003			XX=3
  2119						IRP
  2120	031703	777777	031222		IFG XX,<LESS(16)^XWD -1,TM16^	;TIME CALCULATION>
  2121			000002			XX=XX-1
  2122
  2123						IFG	XX,<REPEAT XX,
  2124
  2125	031704	000000	000000			0			;NULL CALCULATION ENTRY
  2126
  2127	031705	000000	000000			0			;NULL CALCULATION ENTRY>
  2128						IF1 <ZZ=.>
  2129			031706			ZY=.
  2130	031706	000000	031714			XWD <IFNB <>,<1B18>+IFNB<>,<^D>>,IFN ZY-ZZ,<E208>	;NEXT ENTRY
  2131						RADIX	10
  2132						IFNB	<JFFO (1B35) TAKES>,<AUX \<XYZ=XYZ+1>,<JFFO (1B35) TAKES>>^ASCIZ !32 - JFFO
  2133	031707	063 062 040 055 040 	 (1B35) TAKES !^;MESSAGE
  2134	031710	112 106 106 117 040
  2135	031711	050 061 102 063 065
  2136	031712	051 040 124 101 113
  2137	031713	105 123 040 000 000
  2138						RADIX	8
DSKFA	DECSYSTEM 2020 INSTRUCTION TIMING TEST, VER 0,1 	MACRO %51(414) 10:09 21-APR-78 PAGE 42
DSKFAM	MAC	21-APR-78 10:06		DIAGNOSTIC SECTION                                                                 SEQ 0074

  2139	031714				E208:^
  2140
  2141					ENTR 209,<MOVEI PTEMP-1,PUSH>,PUSH TAKES,LESS(5)^
  2142			000003			XX=3
  2143						IRP
  2144	031714	201 00 0 00 035051 	IFG XX,<MOVEI PTEMP-1	;INSTRUCTION SET TO BE TIMED>
  2145			000002			XX=XX-1
  2146	031715	261 00 0 00 000000 	IFG XX,<PUSH	;INSTRUCTION SET TO BE TIMED>
  2147			000001			XX=XX-1
  2148
  2149						IFG	XX,<REPEAT XX,<
  2150	031716	000000	000000			0			;NULL INSTRUCTION ENTRY>>
  2151	031717	000000	031724		TM209:	0+IFNB <PUSH TAKES>,<EXP .+5>	;XWD TIME,LOCN OF MSG
  2152			000003			XX=3
  2153						IRP
  2154	031720	777777	031076		IFG XX,<LESS(5)^XWD -1,TM5^	;TIME CALCULATION>
  2155			000002			XX=XX-1
  2156
  2157						IFG	XX,<REPEAT XX,
  2158
  2159	031721	000000	000000			0			;NULL CALCULATION ENTRY
  2160
  2161	031722	000000	000000			0			;NULL CALCULATION ENTRY>
  2162						IF1 <ZZ=.>
  2163			031723			ZY=.
  2164	031723	000000	031730			XWD <IFNB <>,<1B18>+IFNB<>,<^D>>,IFN ZY-ZZ,<E209>	;NEXT ENTRY
  2165						RADIX	10
  2166						IFNB	<PUSH TAKES>,<AUX \<XYZ=XYZ+1>,<PUSH TAKES>>^ASCIZ !33 - PUSH TAKES !^;MESS
  2167	031724	063 063 040 055 040 	AGE
  2168	031725	120 125 123 110 040
  2169	031726	124 101 113 105 123
  2170	031727	040 000 000 000 000
  2171						RADIX	8
DSKFA	DECSYSTEM 2020 INSTRUCTION TIMING TEST, VER 0,1 	MACRO %51(414) 10:09 21-APR-78 PAGE 43
DSKFAM	MAC	21-APR-78 10:06		DIAGNOSTIC SECTION                                                                 SEQ 0075

  2172	031730				E209:^
  2173
  2174					ENTR 210,<HRROI PTEMP,POP>,POP TAKES,LESS(5)^
  2175			000003			XX=3
  2176						IRP
  2177	031730	561 00 0 00 035052 	IFG XX,<HRROI PTEMP	;INSTRUCTION SET TO BE TIMED>
  2178			000002			XX=XX-1
  2179	031731	262 00 0 00 000000 	IFG XX,<POP	;INSTRUCTION SET TO BE TIMED>
  2180			000001			XX=XX-1
  2181
  2182						IFG	XX,<REPEAT XX,<
  2183	031732	000000	000000			0			;NULL INSTRUCTION ENTRY>>
  2184	031733	000000	031740		TM210:	0+IFNB <POP TAKES>,<EXP .+5>	;XWD TIME,LOCN OF MSG
  2185			000003			XX=3
  2186						IRP
  2187	031734	777777	031076		IFG XX,<LESS(5)^XWD -1,TM5^	;TIME CALCULATION>
  2188			000002			XX=XX-1
  2189
  2190						IFG	XX,<REPEAT XX,
  2191
  2192	031735	000000	000000			0			;NULL CALCULATION ENTRY
  2193
  2194	031736	000000	000000			0			;NULL CALCULATION ENTRY>
  2195						IF1 <ZZ=.>
  2196			031737			ZY=.
  2197	031737	000000	031744			XWD <IFNB <>,<1B18>+IFNB<>,<^D>>,IFN ZY-ZZ,<E210>	;NEXT ENTRY
  2198						RADIX	10
  2199						IFNB	<POP TAKES>,<AUX \<XYZ=XYZ+1>,<POP TAKES>>^ASCIZ !34 - POP TAKES !^;MESSAGE
  2200	031740	063 064 040 055 040
  2201	031741	120 117 120 040 124
  2202	031742	101 113 105 123 040
  2203	031743	000 000 000 000 000
  2204						RADIX	8
DSKFA	DECSYSTEM 2020 INSTRUCTION TIMING TEST, VER 0,1 	MACRO %51(414) 10:09 21-APR-78 PAGE 44
DSKFAM	MAC	21-APR-78 10:06		DIAGNOSTIC SECTION                                                                 SEQ 0076

  2205	031744				E210:^
  2206
  2207					ENTR 211,1B3,MUUO TAKES,LESS(191)^
  2208			000003			XX=3
  2209						IRP
  2210	031744	040000	000000		IFG XX,<1B3	;INSTRUCTION SET TO BE TIMED>
  2211			000002			XX=XX-1
  2212
  2213						IFG	XX,<REPEAT XX,
  2214
  2215	031745	000000	000000			0			;NULL INSTRUCTION ENTRY
  2216
  2217	031746	000000	000000			0			;NULL INSTRUCTION ENTRY>
  2218	031747	000000	031754		TM211:	0+IFNB <MUUO TAKES>,<EXP .+5>	;XWD TIME,LOCN OF MSG
  2219			000003			XX=3
  2220						IRP
  2221	031750	777777	031454		IFG XX,<LESS(191)^XWD -1,TM191^	;TIME CALCULATION>
  2222			000002			XX=XX-1
  2223
  2224						IFG	XX,<REPEAT XX,
  2225
  2226	031751	000000	000000			0			;NULL CALCULATION ENTRY
  2227
  2228	031752	000000	000000			0			;NULL CALCULATION ENTRY>
  2229						IF1 <ZZ=.>
  2230			031753			ZY=.
  2231	031753	000000	031760			XWD <IFNB <>,<1B18>+IFNB<>,<^D>>,IFN ZY-ZZ,<E211>	;NEXT ENTRY
  2232						RADIX	10
  2233						IFNB	<MUUO TAKES>,<AUX \<XYZ=XYZ+1>,<MUUO TAKES>>^ASCIZ !35 - MUUO TAKES !^;MESS
  2234	031754	063 065 040 055 040 	AGE
  2235	031755	115 125 125 117 040
  2236	031756	124 101 113 105 123
  2237	031757	040 000 000 000 000
  2238						RADIX	8
DSKFA	DECSYSTEM 2020 INSTRUCTION TIMING TEST, VER 0,1 	MACRO %51(414) 10:09 21-APR-78 PAGE 45
DSKFAM	MAC	21-APR-78 10:06		DIAGNOSTIC SECTION                                                                 SEQ 0077

  2239	031760				E211:^
  2240
  2241					ENTR 212,1B8,LUUO TAKES,<LESS(191),LESS(201)>^
  2242			000003			XX=3
  2243						IRP
  2244	031760	001000	000000		IFG XX,<1B8	;INSTRUCTION SET TO BE TIMED>
  2245			000002			XX=XX-1
  2246
  2247						IFG	XX,<REPEAT XX,
  2248
  2249	031761	000000	000000			0			;NULL INSTRUCTION ENTRY
  2250
  2251	031762	000000	000000			0			;NULL INSTRUCTION ENTRY>
  2252	031763	000000	031770		TM212:	0+IFNB <LUUO TAKES>,<EXP .+5>	;XWD TIME,LOCN OF MSG
  2253			000003			XX=3
  2254						IRP
  2255	031764	777777	031454		IFG XX,<LESS(191)^XWD -1,TM191^	;TIME CALCULATION>
  2256			000002			XX=XX-1
  2257	031765	777777	031555		IFG XX,<LESS(201)^XWD -1,TM201^	;TIME CALCULATION>
  2258			000001			XX=XX-1
  2259
  2260						IFG	XX,<REPEAT XX,<
  2261	031766	000000	000000			0			;NULL CALCULATION ENTRY>>
  2262						IF1 <ZZ=.>
  2263			031767			ZY=.
  2264	031767	000000	031774			XWD <IFNB <>,<1B18>+IFNB<>,<^D>>,IFN ZY-ZZ,<E212>	;NEXT ENTRY
  2265						RADIX	10
  2266						IFNB	<LUUO TAKES>,<AUX \<XYZ=XYZ+1>,<LUUO TAKES>>^ASCIZ !36 - LUUO TAKES !^;MESS
  2267	031770	063 066 040 055 040 	AGE
  2268	031771	114 125 125 117 040
  2269	031772	124 101 113 105 123
  2270	031773	040 000 000 000 000
  2271						RADIX	8
DSKFA	DECSYSTEM 2020 INSTRUCTION TIMING TEST, VER 0,1 	MACRO %51(414) 10:09 21-APR-78 PAGE 46
DSKFAM	MAC	21-APR-78 10:06		DIAGNOSTIC SECTION                                                                 SEQ 0078

  2272	031774				E212:^
  2273
  2274					ENTR 21,<MOVEI PTEMP-1,PUSHJ 1>,PUSHJ TAKES,LESS(5)^
  2275			000003			XX=3
  2276						IRP
  2277	031774	201 00 0 00 035051 	IFG XX,<MOVEI PTEMP-1	;INSTRUCTION SET TO BE TIMED>
  2278			000002			XX=XX-1
  2279	031775	260 00 0 00 000001 	IFG XX,<PUSHJ 1	;INSTRUCTION SET TO BE TIMED>
  2280			000001			XX=XX-1
  2281
  2282						IFG	XX,<REPEAT XX,<
  2283	031776	000000	000000			0			;NULL INSTRUCTION ENTRY>>
  2284	031777	000000	032004		TM21:	0+IFNB <PUSHJ TAKES>,<EXP .+5>	;XWD TIME,LOCN OF MSG
  2285			000003			XX=3
  2286						IRP
  2287	032000	777777	031076		IFG XX,<LESS(5)^XWD -1,TM5^	;TIME CALCULATION>
  2288			000002			XX=XX-1
  2289
  2290						IFG	XX,<REPEAT XX,
  2291
  2292	032001	000000	000000			0			;NULL CALCULATION ENTRY
  2293
  2294	032002	000000	000000			0			;NULL CALCULATION ENTRY>
  2295						IF1 <ZZ=.>
  2296			032003			ZY=.
  2297	032003	000000	032010			XWD <IFNB <>,<1B18>+IFNB<>,<^D>>,IFN ZY-ZZ,<E21>	;NEXT ENTRY
  2298						RADIX	10
  2299						IFNB	<PUSHJ TAKES>,<AUX \<XYZ=XYZ+1>,<PUSHJ TAKES>>^ASCIZ !37 - PUSHJ TAKES !^;M
  2300	032004	063 067 040 055 040 	ESSAGE
  2301	032005	120 125 123 110 112
  2302	032006	040 124 101 113 105
  2303	032007	123 040 000 000 000
  2304						RADIX	8
DSKFA	DECSYSTEM 2020 INSTRUCTION TIMING TEST, VER 0,1 	MACRO %51(414) 10:09 21-APR-78 PAGE 47
DSKFAM	MAC	21-APR-78 10:06		DIAGNOSTIC SECTION                                                                 SEQ 0079

  2305	032010				E21:^
  2306
  2307					ENTR 22,ADDI,ADD IMMEDIATE TAKES^
  2308			000003			XX=3
  2309						IRP
  2310	032010	271 00 0 00 000000 	IFG XX,<ADDI	;INSTRUCTION SET TO BE TIMED>
  2311			000002			XX=XX-1
  2312
  2313						IFG	XX,<REPEAT XX,
  2314
  2315	032011	000000	000000			0			;NULL INSTRUCTION ENTRY
  2316
  2317	032012	000000	000000			0			;NULL INSTRUCTION ENTRY>
  2318	032013	000000	032020		TM22:	0+IFNB <ADD IMMEDIATE TAKES>,<EXP .+5>	;XWD TIME,LOCN OF MSG
  2319			000003			XX=3
  2320						IRP
  2321
  2322						IFG	XX,<REPEAT XX,
  2323
  2324	032014	000000	000000			0			;NULL CALCULATION ENTRY
  2325
  2326	032015	000000	000000			0			;NULL CALCULATION ENTRY
  2327
  2328	032016	000000	000000			0			;NULL CALCULATION ENTRY>
  2329						IF1 <ZZ=.>
  2330			032017			ZY=.
  2331	032017	000000	032026			XWD <IFNB <>,<1B18>+IFNB<>,<^D>>,IFN ZY-ZZ,<E22>	;NEXT ENTRY
  2332						RADIX	10
  2333						IFNB	<ADD IMMEDIATE TAKES>,<AUX \<XYZ=XYZ+1>,<ADD IMMEDIATE TAKES>>^ASCIZ !38 -
  2334	032020	063 070 040 055 040 	ADD IMMEDIATE TAKES !^;MESSAGE
  2335	032021	101 104 104 040 111
  2336	032022	115 115 105 104 111
  2337	032023	101 124 105 040 124
  2338	032024	101 113 105 123 040
  2339	032025	000 000 000 000 000
  2340						RADIX	8
DSKFA	DECSYSTEM 2020 INSTRUCTION TIMING TEST, VER 0,1 	MACRO %51(414) 10:09 21-APR-78 PAGE 48
DSKFAM	MAC	21-APR-78 10:06		DIAGNOSTIC SECTION                                                                 SEQ 0080

  2341	032026				E22:^
  2342
  2343					ENTR 221,ADD [6],ADD FROM MEMORY TAKES^
  2344			000003			XX=3
  2345						IRP
  2346	032026	270 00 0 00 035002 	IFG XX,<ADD [6]	;INSTRUCTION SET TO BE TIMED>
  2347			000002			XX=XX-1
  2348
  2349						IFG	XX,<REPEAT XX,
  2350
  2351	032027	000000	000000			0			;NULL INSTRUCTION ENTRY
  2352
  2353	032030	000000	000000			0			;NULL INSTRUCTION ENTRY>
  2354	032031	000000	032036		TM221:	0+IFNB <ADD FROM MEMORY TAKES>,<EXP .+5>	;XWD TIME,LOCN OF MSG
  2355			000003			XX=3
  2356						IRP
  2357
  2358						IFG	XX,<REPEAT XX,
  2359
  2360	032032	000000	000000			0			;NULL CALCULATION ENTRY
  2361
  2362	032033	000000	000000			0			;NULL CALCULATION ENTRY
  2363
  2364	032034	000000	000000			0			;NULL CALCULATION ENTRY>
  2365						IF1 <ZZ=.>
  2366			032035			ZY=.
  2367	032035	000000	032044			XWD <IFNB <>,<1B18>+IFNB<>,<^D>>,IFN ZY-ZZ,<E221>	;NEXT ENTRY
  2368						RADIX	10
  2369						IFNB	<ADD FROM MEMORY TAKES>,<AUX \<XYZ=XYZ+1>,<ADD FROM MEMORY TAKES>>^ASCIZ !3
  2370	032036	063 071 040 055 040 	9 - ADD FROM MEMORY TAKES !^;MESSAGE
  2371	032037	101 104 104 040 106
  2372	032040	122 117 115 040 115
  2373	032041	105 115 117 122 131
  2374	032042	040 124 101 113 105
  2375	032043	123 040 000 000 000
  2376						RADIX	8
DSKFA	DECSYSTEM 2020 INSTRUCTION TIMING TEST, VER 0,1 	MACRO %51(414) 10:09 21-APR-78 PAGE 49
DSKFAM	MAC	21-APR-78 10:06		DIAGNOSTIC SECTION                                                                 SEQ 0081

  2377	032044				E221:^
  2378
  2379					ENTR 222,ADDM TEMP,ADD TO MEMORY TAKES^
  2380			000003			XX=3
  2381						IRP
  2382	032044	272 00 0 00 035051 	IFG XX,<ADDM TEMP	;INSTRUCTION SET TO BE TIMED>
  2383			000002			XX=XX-1
  2384
  2385						IFG	XX,<REPEAT XX,
  2386
  2387	032045	000000	000000			0			;NULL INSTRUCTION ENTRY
  2388
  2389	032046	000000	000000			0			;NULL INSTRUCTION ENTRY>
  2390	032047	000000	032054		TM222:	0+IFNB <ADD TO MEMORY TAKES>,<EXP .+5>	;XWD TIME,LOCN OF MSG
  2391			000003			XX=3
  2392						IRP
  2393
  2394						IFG	XX,<REPEAT XX,
  2395
  2396	032050	000000	000000			0			;NULL CALCULATION ENTRY
  2397
  2398	032051	000000	000000			0			;NULL CALCULATION ENTRY
  2399
  2400	032052	000000	000000			0			;NULL CALCULATION ENTRY>
  2401						IF1 <ZZ=.>
  2402			032053			ZY=.
  2403	032053	000000	032062			XWD <IFNB <>,<1B18>+IFNB<>,<^D>>,IFN ZY-ZZ,<E222>	;NEXT ENTRY
  2404						RADIX	10
  2405						IFNB	<ADD TO MEMORY TAKES>,<AUX \<XYZ=XYZ+1>,<ADD TO MEMORY TAKES>>^ASCIZ !40 -
  2406	032054	064 060 040 055 040 	ADD TO MEMORY TAKES !^;MESSAGE
  2407	032055	101 104 104 040 124
  2408	032056	117 040 115 105 115
  2409	032057	117 122 131 040 124
  2410	032060	101 113 105 123 040
  2411	032061	000 000 000 000 000
  2412						RADIX	8
DSKFA	DECSYSTEM 2020 INSTRUCTION TIMING TEST, VER 0,1 	MACRO %51(414) 10:09 21-APR-78 PAGE 50
DSKFAM	MAC	21-APR-78 10:06		DIAGNOSTIC SECTION                                                                 SEQ 0082

  2413	032062				E222:^
  2414
  2415					ENTR 23,<MOVEI 525252,MUL [1]>,MUL (9 ADD/SUB - 18 SHIFTS) TAKES,LESS(5)^
  2416			000003			XX=3
  2417						IRP
  2418	032062	201 00 0 00 525252 	IFG XX,<MOVEI 525252	;INSTRUCTION SET TO BE TIMED>
  2419			000002			XX=XX-1
  2420	032063	224 00 0 00 035001 	IFG XX,<MUL [1]	;INSTRUCTION SET TO BE TIMED>
  2421			000001			XX=XX-1
  2422
  2423						IFG	XX,<REPEAT XX,<
  2424	032064	000000	000000			0			;NULL INSTRUCTION ENTRY>>
  2425	032065	000000	032072		TM23:	0+IFNB <MUL (9 ADD/SUB - 18 SHIFTS) TAKES>,<EXP .+5>	;XWD TIME,LOCN OF MSG
  2426			000003			XX=3
  2427						IRP
  2428	032066	777777	031076		IFG XX,<LESS(5)^XWD -1,TM5^	;TIME CALCULATION>
  2429			000002			XX=XX-1
  2430
  2431						IFG	XX,<REPEAT XX,
  2432
  2433	032067	000000	000000			0			;NULL CALCULATION ENTRY
  2434
  2435	032070	000000	000000			0			;NULL CALCULATION ENTRY>
  2436						IF1 <ZZ=.>
  2437			032071			ZY=.
  2438	032071	000000	032102			XWD <IFNB <>,<1B18>+IFNB<>,<^D>>,IFN ZY-ZZ,<E23>	;NEXT ENTRY
  2439						RADIX	10
  2440						IFNB	<MUL (9 ADD/SUB - 18 SHIFTS) TAKES>,<AUX \<XYZ=XYZ+1>,<MUL (9 ADD/SUB - 18
  2441	032072	064 061 040 055 040 	SHIFTS) TAKES>>^ASCIZ !41 - MUL (9 ADD/SUB - 18 SHIFTS) TAKES !^;MESSAGE
  2442	032073	115 125 114 040 050
  2443	032074	071 040 101 104 104
  2444	032075	057 123 125 102 040
  2445	032076	055 040 061 070 040
  2446	032077	123 110 111 106 124
  2447	032100	123 051 040 124 101
  2448	032101	113 105 123 040 000
  2449						RADIX	8
DSKFA	DECSYSTEM 2020 INSTRUCTION TIMING TEST, VER 0,1 	MACRO %51(414) 10:09 21-APR-78 PAGE 51
DSKFAM	MAC	21-APR-78 10:06		DIAGNOSTIC SECTION                                                                 SEQ 0083

  2450	032102				E23:^
  2451
  2452					ENTR 231,<MOVEI 525252,IMULI 2>,IMULI TAKES,LESS(5)^
  2453			000003			XX=3
  2454						IRP
  2455	032102	201 00 0 00 525252 	IFG XX,<MOVEI 525252	;INSTRUCTION SET TO BE TIMED>
  2456			000002			XX=XX-1
  2457	032103	221 00 0 00 000002 	IFG XX,<IMULI 2	;INSTRUCTION SET TO BE TIMED>
  2458			000001			XX=XX-1
  2459
  2460						IFG	XX,<REPEAT XX,<
  2461	032104	000000	000000			0			;NULL INSTRUCTION ENTRY>>
  2462	032105	000000	032112		TM231:	0+IFNB <IMULI TAKES>,<EXP .+5>	;XWD TIME,LOCN OF MSG
  2463			000003			XX=3
  2464						IRP
  2465	032106	777777	031076		IFG XX,<LESS(5)^XWD -1,TM5^	;TIME CALCULATION>
  2466			000002			XX=XX-1
  2467
  2468						IFG	XX,<REPEAT XX,
  2469
  2470	032107	000000	000000			0			;NULL CALCULATION ENTRY
  2471
  2472	032110	000000	000000			0			;NULL CALCULATION ENTRY>
  2473						IF1 <ZZ=.>
  2474			032111			ZY=.
  2475	032111	000000	032116			XWD <IFNB <>,<1B18>+IFNB<>,<^D>>,IFN ZY-ZZ,<E231>	;NEXT ENTRY
  2476						RADIX	10
  2477						IFNB	<IMULI TAKES>,<AUX \<XYZ=XYZ+1>,<IMULI TAKES>>^ASCIZ !42 - IMULI TAKES !^;M
  2478	032112	064 062 040 055 040 	ESSAGE
  2479	032113	111 115 125 114 111
  2480	032114	040 124 101 113 105
  2481	032115	123 040 000 000 000
  2482						RADIX	8
DSKFA	DECSYSTEM 2020 INSTRUCTION TIMING TEST, VER 0,1 	MACRO %51(414) 10:09 21-APR-78 PAGE 52
DSKFAM	MAC	21-APR-78 10:06		DIAGNOSTIC SECTION                                                                 SEQ 0084

  2483	032116				E231:^
  2484
  2485					ENTR 24,<MOVE [1],DIV [525252]>,DIV TAKES,LESS(16)^
  2486			000003			XX=3
  2487						IRP
  2488	032116	200 00 0 00 035001 	IFG XX,<MOVE [1]	;INSTRUCTION SET TO BE TIMED>
  2489			000002			XX=XX-1
  2490	032117	234 00 0 00 035003 	IFG XX,<DIV [525252]	;INSTRUCTION SET TO BE TIMED>
  2491			000001			XX=XX-1
  2492
  2493						IFG	XX,<REPEAT XX,<
  2494	032120	000000	000000			0			;NULL INSTRUCTION ENTRY>>
  2495	032121	000000	032126		TM24:	0+IFNB <DIV TAKES>,<EXP .+5>	;XWD TIME,LOCN OF MSG
  2496			000003			XX=3
  2497						IRP
  2498	032122	777777	031222		IFG XX,<LESS(16)^XWD -1,TM16^	;TIME CALCULATION>
  2499			000002			XX=XX-1
  2500
  2501						IFG	XX,<REPEAT XX,
  2502
  2503	032123	000000	000000			0			;NULL CALCULATION ENTRY
  2504
  2505	032124	000000	000000			0			;NULL CALCULATION ENTRY>
  2506						IF1 <ZZ=.>
  2507			032125			ZY=.
  2508	032125	000000	032132			XWD <IFNB <>,<1B18>+IFNB<>,<^D>>,IFN ZY-ZZ,<E24>	;NEXT ENTRY
  2509						RADIX	10
  2510						IFNB	<DIV TAKES>,<AUX \<XYZ=XYZ+1>,<DIV TAKES>>^ASCIZ !43 - DIV TAKES !^;MESSAGE
  2511	032126	064 063 040 055 040
  2512	032127	104 111 126 040 124
  2513	032130	101 113 105 123 040
  2514	032131	000 000 000 000 000
  2515						RADIX	8
DSKFA	DECSYSTEM 2020 INSTRUCTION TIMING TEST, VER 0,1 	MACRO %51(414) 10:09 21-APR-78 PAGE 53
DSKFAM	MAC	21-APR-78 10:06		DIAGNOSTIC SECTION                                                                 SEQ 0085

  2516	032132				E24:^
  2517
  2518					ENTR 241,<MOVEI 525252,IDIVI 2>,IDIVI TAKES,LESS(5)^
  2519			000003			XX=3
  2520						IRP
  2521	032132	201 00 0 00 525252 	IFG XX,<MOVEI 525252	;INSTRUCTION SET TO BE TIMED>
  2522			000002			XX=XX-1
  2523	032133	231 00 0 00 000002 	IFG XX,<IDIVI 2	;INSTRUCTION SET TO BE TIMED>
  2524			000001			XX=XX-1
  2525
  2526						IFG	XX,<REPEAT XX,<
  2527	032134	000000	000000			0			;NULL INSTRUCTION ENTRY>>
  2528	032135	000000	032142		TM241:	0+IFNB <IDIVI TAKES>,<EXP .+5>	;XWD TIME,LOCN OF MSG
  2529			000003			XX=3
  2530						IRP
  2531	032136	777777	031076		IFG XX,<LESS(5)^XWD -1,TM5^	;TIME CALCULATION>
  2532			000002			XX=XX-1
  2533
  2534						IFG	XX,<REPEAT XX,
  2535
  2536	032137	000000	000000			0			;NULL CALCULATION ENTRY
  2537
  2538	032140	000000	000000			0			;NULL CALCULATION ENTRY>
  2539						IF1 <ZZ=.>
  2540			032141			ZY=.
  2541	032141	000000	032146			XWD <IFNB <>,<1B18>+IFNB<>,<^D>>,IFN ZY-ZZ,<E241>	;NEXT ENTRY
  2542						RADIX	10
  2543						IFNB	<IDIVI TAKES>,<AUX \<XYZ=XYZ+1>,<IDIVI TAKES>>^ASCIZ !44 - IDIVI TAKES !^;M
  2544	032142	064 064 040 055 040 	ESSAGE
  2545	032143	111 104 111 126 111
  2546	032144	040 124 101 113 105
  2547	032145	123 040 000 000 000
  2548						RADIX	8
DSKFA	DECSYSTEM 2020 INSTRUCTION TIMING TEST, VER 0,1 	MACRO %51(414) 10:09 21-APR-78 PAGE 54
DSKFAM	MAC	21-APR-78 10:06		DIAGNOSTIC SECTION                                                                 SEQ 0086

  2549	032146				E241:^
  2550
  2551					ENTR 25,<MOVSI 201400,FIX>,FIX A FLOATING POINT ONE TAKES,LESS(5)^
  2552			000003			XX=3
  2553						IRP
  2554	032146	205 00 0 00 201400 	IFG XX,<MOVSI 201400	;INSTRUCTION SET TO BE TIMED>
  2555			000002			XX=XX-1
  2556	032147	122 00 0 00 000000 	IFG XX,<FIX	;INSTRUCTION SET TO BE TIMED>
  2557			000001			XX=XX-1
  2558
  2559						IFG	XX,<REPEAT XX,<
  2560	032150	000000	000000			0			;NULL INSTRUCTION ENTRY>>
  2561	032151	000000	032156		TM25:	0+IFNB <FIX A FLOATING POINT ONE TAKES>,<EXP .+5>	;XWD TIME,LOCN OF MSG
  2562			000003			XX=3
  2563						IRP
  2564	032152	777777	031076		IFG XX,<LESS(5)^XWD -1,TM5^	;TIME CALCULATION>
  2565			000002			XX=XX-1
  2566
  2567						IFG	XX,<REPEAT XX,
  2568
  2569	032153	000000	000000			0			;NULL CALCULATION ENTRY
  2570
  2571	032154	000000	000000			0			;NULL CALCULATION ENTRY>
  2572						IF1 <ZZ=.>
  2573			032155			ZY=.
  2574	032155	000000	032166			XWD <IFNB <>,<1B18>+IFNB<>,<^D>>,IFN ZY-ZZ,<E25>	;NEXT ENTRY
  2575						RADIX	10
  2576						IFNB	<FIX A FLOATING POINT ONE TAKES>,<AUX \<XYZ=XYZ+1>,<FIX A FLOATING POINT ON
  2577	032156	064 065 040 055 040 	E TAKES>>^ASCIZ !45 - FIX A FLOATING POINT ONE TAKES !^;MESSAGE
  2578	032157	106 111 130 040 101
  2579	032160	040 106 114 117 101
  2580	032161	124 111 116 107 040
  2581	032162	120 117 111 116 124
  2582	032163	040 117 116 105 040
  2583	032164	124 101 113 105 123
  2584	032165	040 000 000 000 000
  2585						RADIX	8
DSKFA	DECSYSTEM 2020 INSTRUCTION TIMING TEST, VER 0,1 	MACRO %51(414) 10:09 21-APR-78 PAGE 55
DSKFAM	MAC	21-APR-78 10:06		DIAGNOSTIC SECTION                                                                 SEQ 0087

  2586	032166				E25:^
  2587
  2588					ENTR 26,<MOVE [1],FLTR>,FLTR AN INTERGER ONE TAKES,LESS(16)^
  2589			000003			XX=3
  2590						IRP
  2591	032166	200 00 0 00 035001 	IFG XX,<MOVE [1]	;INSTRUCTION SET TO BE TIMED>
  2592			000002			XX=XX-1
  2593	032167	127 00 0 00 000000 	IFG XX,<FLTR	;INSTRUCTION SET TO BE TIMED>
  2594			000001			XX=XX-1
  2595
  2596						IFG	XX,<REPEAT XX,<
  2597	032170	000000	000000			0			;NULL INSTRUCTION ENTRY>>
  2598	032171	000000	032176		TM26:	0+IFNB <FLTR AN INTERGER ONE TAKES>,<EXP .+5>	;XWD TIME,LOCN OF MSG
  2599			000003			XX=3
  2600						IRP
  2601	032172	777777	031222		IFG XX,<LESS(16)^XWD -1,TM16^	;TIME CALCULATION>
  2602			000002			XX=XX-1
  2603
  2604						IFG	XX,<REPEAT XX,
  2605
  2606	032173	000000	000000			0			;NULL CALCULATION ENTRY
  2607
  2608	032174	000000	000000			0			;NULL CALCULATION ENTRY>
  2609						IF1 <ZZ=.>
  2610			032175			ZY=.
  2611	032175	000000	032205			XWD <IFNB <>,<1B18>+IFNB<>,<^D>>,IFN ZY-ZZ,<E26>	;NEXT ENTRY
  2612						RADIX	10
  2613						IFNB	<FLTR AN INTERGER ONE TAKES>,<AUX \<XYZ=XYZ+1>,<FLTR AN INTERGER ONE TAKES>
  2614	032176	064 066 040 055 040 	>^ASCIZ !46 - FLTR AN INTERGER ONE TAKES !^;MESSAGE
  2615	032177	106 114 124 122 040
  2616	032200	101 116 040 111 116
  2617	032201	124 105 122 107 105
  2618	032202	122 040 117 116 105
  2619	032203	040 124 101 113 105
  2620	032204	123 040 000 000 000
  2621						RADIX	8
DSKFA	DECSYSTEM 2020 INSTRUCTION TIMING TEST, VER 0,1 	MACRO %51(414) 10:09 21-APR-78 PAGE 56
DSKFAM	MAC	21-APR-78 10:06		DIAGNOSTIC SECTION                                                                 SEQ 0088

  2622	032205				E26:^
  2623
  2624					ENTR 27,<MOVSI 200400,FAD [201400000000]>,FAD (1 RIGHT SHIFT) TAKES,LESS(5)^
  2625			000003			XX=3
  2626						IRP
  2627	032205	205 00 0 00 200400 	IFG XX,<MOVSI 200400	;INSTRUCTION SET TO BE TIMED>
  2628			000002			XX=XX-1
  2629	032206	140 00 0 00 035004 	IFG XX,<FAD [201400000000]	;INSTRUCTION SET TO BE TIMED>
  2630			000001			XX=XX-1
  2631
  2632						IFG	XX,<REPEAT XX,<
  2633	032207	000000	000000			0			;NULL INSTRUCTION ENTRY>>
  2634	032210	000000	032215		TM27:	0+IFNB <FAD (1 RIGHT SHIFT) TAKES>,<EXP .+5>	;XWD TIME,LOCN OF MSG
  2635			000003			XX=3
  2636						IRP
  2637	032211	777777	031076		IFG XX,<LESS(5)^XWD -1,TM5^	;TIME CALCULATION>
  2638			000002			XX=XX-1
  2639
  2640						IFG	XX,<REPEAT XX,
  2641
  2642	032212	000000	000000			0			;NULL CALCULATION ENTRY
  2643
  2644	032213	000000	000000			0			;NULL CALCULATION ENTRY>
  2645						IF1 <ZZ=.>
  2646			032214			ZY=.
  2647	032214	000000	032224			XWD <IFNB <>,<1B18>+IFNB<>,<^D>>,IFN ZY-ZZ,<E27>	;NEXT ENTRY
  2648						RADIX	10
  2649						IFNB	<FAD (1 RIGHT SHIFT) TAKES>,<AUX \<XYZ=XYZ+1>,<FAD (1 RIGHT SHIFT) TAKES>>^
  2650	032215	064 067 040 055 040 	ASCIZ !47 - FAD (1 RIGHT SHIFT) TAKES !^;MESSAGE
  2651	032216	106 101 104 040 050
  2652	032217	061 040 122 111 107
  2653	032220	110 124 040 123 110
  2654	032221	111 106 124 051 040
  2655	032222	124 101 113 105 123
  2656	032223	040 000 000 000 000
  2657						RADIX	8
DSKFA	DECSYSTEM 2020 INSTRUCTION TIMING TEST, VER 0,1 	MACRO %51(414) 10:09 21-APR-78 PAGE 57
DSKFAM	MAC	21-APR-78 10:06		DIAGNOSTIC SECTION                                                                 SEQ 0089

  2658	032224				E27:^
  2659
  2660					ENTR 28,<MOVSI 200400,FAD [210040000000]>,FAD (8 SHIFT RIGHT - 3 LEFT) TAKES,LESS(5)^
  2661			000003			XX=3
  2662						IRP
  2663	032224	205 00 0 00 200400 	IFG XX,<MOVSI 200400	;INSTRUCTION SET TO BE TIMED>
  2664			000002			XX=XX-1
  2665	032225	140 00 0 00 035005 	IFG XX,<FAD [210040000000]	;INSTRUCTION SET TO BE TIMED>
  2666			000001			XX=XX-1
  2667
  2668						IFG	XX,<REPEAT XX,<
  2669	032226	000000	000000			0			;NULL INSTRUCTION ENTRY>>
  2670	032227	000000	032234		TM28:	0+IFNB <FAD (8 SHIFT RIGHT - 3 LEFT) TAKES>,<EXP .+5>	;XWD TIME,LOCN OF MSG
  2671			000003			XX=3
  2672						IRP
  2673	032230	777777	031076		IFG XX,<LESS(5)^XWD -1,TM5^	;TIME CALCULATION>
  2674			000002			XX=XX-1
  2675
  2676						IFG	XX,<REPEAT XX,
  2677
  2678	032231	000000	000000			0			;NULL CALCULATION ENTRY
  2679
  2680	032232	000000	000000			0			;NULL CALCULATION ENTRY>
  2681						IF1 <ZZ=.>
  2682			032233			ZY=.
  2683	032233	000000	032245			XWD <IFNB <>,<1B18>+IFNB<>,<^D>>,IFN ZY-ZZ,<E28>	;NEXT ENTRY
  2684						RADIX	10
  2685						IFNB	<FAD (8 SHIFT RIGHT - 3 LEFT) TAKES>,<AUX \<XYZ=XYZ+1>,<FAD (8 SHIFT RIGHT
  2686	032234	064 070 040 055 040 	- 3 LEFT) TAKES>>^ASCIZ !48 - FAD (8 SHIFT RIGHT - 3 LEFT) TAKES !^;MESSAGE
  2687	032235	106 101 104 040 050
  2688	032236	070 040 123 110 111
  2689	032237	106 124 040 122 111
  2690	032240	107 110 124 040 055
  2691	032241	040 063 040 114 105
  2692	032242	106 124 051 040 124
  2693	032243	101 113 105 123 040
  2694	032244	000 000 000 000 000
  2695						RADIX	8
DSKFA	DECSYSTEM 2020 INSTRUCTION TIMING TEST, VER 0,1 	MACRO %51(414) 10:09 21-APR-78 PAGE 58
DSKFAM	MAC	21-APR-78 10:06		DIAGNOSTIC SECTION                                                                 SEQ 0090

  2696	032245				E28:^
  2697
  2698					ENTR 29,<MOVE [200525240000],FMP [1.0]>,FMP (7 ADD/SUB - 14 SHIFTS) TAKES,LESS(16)^
  2699			000003			XX=3
  2700						IRP
  2701	032245	200 00 0 00 035006 	IFG XX,<MOVE [200525240000]	;INSTRUCTION SET TO BE TIMED>
  2702			000002			XX=XX-1
  2703	032246	160 00 0 00 035004 	IFG XX,<FMP [1.0]	;INSTRUCTION SET TO BE TIMED>
  2704			000001			XX=XX-1
  2705
  2706						IFG	XX,<REPEAT XX,<
  2707	032247	000000	000000			0			;NULL INSTRUCTION ENTRY>>
  2708	032250	000000	032255		TM29:	0+IFNB <FMP (7 ADD/SUB - 14 SHIFTS) TAKES>,<EXP .+5>	;XWD TIME,LOCN OF MSG
  2709			000003			XX=3
  2710						IRP
  2711	032251	777777	031222		IFG XX,<LESS(16)^XWD -1,TM16^	;TIME CALCULATION>
  2712			000002			XX=XX-1
  2713
  2714						IFG	XX,<REPEAT XX,
  2715
  2716	032252	000000	000000			0			;NULL CALCULATION ENTRY
  2717
  2718	032253	000000	000000			0			;NULL CALCULATION ENTRY>
  2719						IF1 <ZZ=.>
  2720			032254			ZY=.
  2721	032254	000000	032265			XWD <IFNB <>,<1B18>+IFNB<>,<^D>>,IFN ZY-ZZ,<E29>	;NEXT ENTRY
  2722						RADIX	10
  2723						IFNB	<FMP (7 ADD/SUB - 14 SHIFTS) TAKES>,<AUX \<XYZ=XYZ+1>,<FMP (7 ADD/SUB - 14
  2724	032255	064 071 040 055 040 	SHIFTS) TAKES>>^ASCIZ !49 - FMP (7 ADD/SUB - 14 SHIFTS) TAKES !^;MESSAGE
  2725	032256	106 115 120 040 050
  2726	032257	067 040 101 104 104
  2727	032260	057 123 125 102 040
  2728	032261	055 040 061 064 040
  2729	032262	123 110 111 106 124
  2730	032263	123 051 040 124 101
  2731	032264	113 105 123 040 000
  2732						RADIX	8
DSKFA	DECSYSTEM 2020 INSTRUCTION TIMING TEST, VER 0,1 	MACRO %51(414) 10:09 21-APR-78 PAGE 59
DSKFAM	MAC	21-APR-78 10:06		DIAGNOSTIC SECTION                                                                 SEQ 0091

  2733	032265				E29:^
  2734
  2735					ENTR 30,<MOVE [200525240000],FDV [1.0]>,FDV TAKES,LESS(16)^
  2736			000003			XX=3
  2737						IRP
  2738	032265	200 00 0 00 035006 	IFG XX,<MOVE [200525240000]	;INSTRUCTION SET TO BE TIMED>
  2739			000002			XX=XX-1
  2740	032266	170 00 0 00 035004 	IFG XX,<FDV [1.0]	;INSTRUCTION SET TO BE TIMED>
  2741			000001			XX=XX-1
  2742
  2743						IFG	XX,<REPEAT XX,<
  2744	032267	000000	000000			0			;NULL INSTRUCTION ENTRY>>
  2745	032270	000000	032275		TM30:	0+IFNB <FDV TAKES>,<EXP .+5>	;XWD TIME,LOCN OF MSG
  2746			000003			XX=3
  2747						IRP
  2748	032271	777777	031222		IFG XX,<LESS(16)^XWD -1,TM16^	;TIME CALCULATION>
  2749			000002			XX=XX-1
  2750
  2751						IFG	XX,<REPEAT XX,
  2752
  2753	032272	000000	000000			0			;NULL CALCULATION ENTRY
  2754
  2755	032273	000000	000000			0			;NULL CALCULATION ENTRY>
  2756						IF1 <ZZ=.>
  2757			032274			ZY=.
  2758	032274	000000	032301			XWD <IFNB <>,<1B18>+IFNB<>,<^D>>,IFN ZY-ZZ,<E30>	;NEXT ENTRY
  2759						RADIX	10
  2760						IFNB	<FDV TAKES>,<AUX \<XYZ=XYZ+1>,<FDV TAKES>>^ASCIZ !50 - FDV TAKES !^;MESSAGE
  2761	032275	065 060 040 055 040
  2762	032276	106 104 126 040 124
  2763	032277	101 113 105 123 040
  2764	032300	000 000 000 000 000
  2765						RADIX	8
DSKFA	DECSYSTEM 2020 INSTRUCTION TIMING TEST, VER 0,1 	MACRO %51(414) 10:09 21-APR-78 PAGE 60
DSKFAM	MAC	21-APR-78 10:06		DIAGNOSTIC SECTION                                                                 SEQ 0092

  2766	032301				E30:^
  2767
  2768					ENTR 31,DMOVE MARG,DMOVE FROM MEMORY TAKES^
  2769			000003			XX=3
  2770						IRP
  2771	032301	120 00 0 00 035047 	IFG XX,<DMOVE MARG	;INSTRUCTION SET TO BE TIMED>
  2772			000002			XX=XX-1
  2773
  2774						IFG	XX,<REPEAT XX,
  2775
  2776	032302	000000	000000			0			;NULL INSTRUCTION ENTRY
  2777
  2778	032303	000000	000000			0			;NULL INSTRUCTION ENTRY>
  2779	032304	000000	032311		TM31:	0+IFNB <DMOVE FROM MEMORY TAKES>,<EXP .+5>	;XWD TIME,LOCN OF MSG
  2780			000003			XX=3
  2781						IRP
  2782
  2783						IFG	XX,<REPEAT XX,
  2784
  2785	032305	000000	000000			0			;NULL CALCULATION ENTRY
  2786
  2787	032306	000000	000000			0			;NULL CALCULATION ENTRY
  2788
  2789	032307	000000	000000			0			;NULL CALCULATION ENTRY>
  2790						IF1 <ZZ=.>
  2791			032310			ZY=.
  2792	032310	000000	032317			XWD <IFNB <>,<1B18>+IFNB<>,<^D>>,IFN ZY-ZZ,<E31>	;NEXT ENTRY
  2793						RADIX	10
  2794						IFNB	<DMOVE FROM MEMORY TAKES>,<AUX \<XYZ=XYZ+1>,<DMOVE FROM MEMORY TAKES>>^ASCI
  2795	032311	065 061 040 055 040 	Z !51 - DMOVE FROM MEMORY TAKES !^;MESSAGE
  2796	032312	104 115 117 126 105
  2797	032313	040 106 122 117 115
  2798	032314	040 115 105 115 117
  2799	032315	122 131 040 124 101
  2800	032316	113 105 123 040 000
  2801						RADIX	8
DSKFA	DECSYSTEM 2020 INSTRUCTION TIMING TEST, VER 0,1 	MACRO %51(414) 10:09 21-APR-78 PAGE 61
DSKFAM	MAC	21-APR-78 10:06		DIAGNOSTIC SECTION                                                                 SEQ 0093

  2802	032317				E31:^
  2803
  2804					ENTR 311,DMOVEM MARG,DMOVEM TO MEMORY TAKES^
  2805			000003			XX=3
  2806						IRP
  2807	032317	124 00 0 00 035047 	IFG XX,<DMOVEM MARG	;INSTRUCTION SET TO BE TIMED>
  2808			000002			XX=XX-1
  2809
  2810						IFG	XX,<REPEAT XX,
  2811
  2812	032320	000000	000000			0			;NULL INSTRUCTION ENTRY
  2813
  2814	032321	000000	000000			0			;NULL INSTRUCTION ENTRY>
  2815	032322	000000	032327		TM311:	0+IFNB <DMOVEM TO MEMORY TAKES>,<EXP .+5>	;XWD TIME,LOCN OF MSG
  2816			000003			XX=3
  2817						IRP
  2818
  2819						IFG	XX,<REPEAT XX,
  2820
  2821	032323	000000	000000			0			;NULL CALCULATION ENTRY
  2822
  2823	032324	000000	000000			0			;NULL CALCULATION ENTRY
  2824
  2825	032325	000000	000000			0			;NULL CALCULATION ENTRY>
  2826						IF1 <ZZ=.>
  2827			032326			ZY=.
  2828	032326	000000	032335			XWD <IFNB <>,<1B18>+IFNB<>,<^D>>,IFN ZY-ZZ,<E311>	;NEXT ENTRY
  2829						RADIX	10
  2830						IFNB	<DMOVEM TO MEMORY TAKES>,<AUX \<XYZ=XYZ+1>,<DMOVEM TO MEMORY TAKES>>^ASCIZ
  2831	032327	065 062 040 055 040 	!52 - DMOVEM TO MEMORY TAKES !^;MESSAGE
  2832	032330	104 115 117 126 105
  2833	032331	115 040 124 117 040
  2834	032332	115 105 115 117 122
  2835	032333	131 040 124 101 113
  2836	032334	105 123 040 000 000
  2837						RADIX	8
DSKFA	DECSYSTEM 2020 INSTRUCTION TIMING TEST, VER 0,1 	MACRO %51(414) 10:09 21-APR-78 PAGE 62
DSKFAM	MAC	21-APR-78 10:06		DIAGNOSTIC SECTION                                                                 SEQ 0094

  2838	032335				E311:^
  2839
  2840					ENTR 32,<DMOVE DFARG3,DFAD DFARG4>,DFAD (1 RIGHT SHIFT) TAKES,LESS(31)^
  2841			000003			XX=3
  2842						IRP
  2843	032335	120 00 0 00 035072 	IFG XX,<DMOVE DFARG3	;INSTRUCTION SET TO BE TIMED>
  2844			000002			XX=XX-1
  2845	032336	110 00 0 00 035076 	IFG XX,<DFAD DFARG4	;INSTRUCTION SET TO BE TIMED>
  2846			000001			XX=XX-1
  2847
  2848						IFG	XX,<REPEAT XX,<
  2849	032337	000000	000000			0			;NULL INSTRUCTION ENTRY>>
  2850	032340	000000	032345		TM32:	0+IFNB <DFAD (1 RIGHT SHIFT) TAKES>,<EXP .+5>	;XWD TIME,LOCN OF MSG
  2851			000003			XX=3
  2852						IRP
  2853	032341	777777	032304		IFG XX,<LESS(31)^XWD -1,TM31^	;TIME CALCULATION>
  2854			000002			XX=XX-1
  2855
  2856						IFG	XX,<REPEAT XX,
  2857
  2858	032342	000000	000000			0			;NULL CALCULATION ENTRY
  2859
  2860	032343	000000	000000			0			;NULL CALCULATION ENTRY>
  2861						IF1 <ZZ=.>
  2862			032344			ZY=.
  2863	032344	000000	032354			XWD <IFNB <>,<1B18>+IFNB<>,<^D>>,IFN ZY-ZZ,<E32>	;NEXT ENTRY
  2864						RADIX	10
  2865						IFNB	<DFAD (1 RIGHT SHIFT) TAKES>,<AUX \<XYZ=XYZ+1>,<DFAD (1 RIGHT SHIFT) TAKES>
  2866	032345	065 063 040 055 040 	>^ASCIZ !53 - DFAD (1 RIGHT SHIFT) TAKES !^;MESSAGE
  2867	032346	104 106 101 104 040
  2868	032347	050 061 040 122 111
  2869	032350	107 110 124 040 123
  2870	032351	110 111 106 124 051
  2871	032352	040 124 101 113 105
  2872	032353	123 040 000 000 000
  2873						RADIX	8
DSKFA	DECSYSTEM 2020 INSTRUCTION TIMING TEST, VER 0,1 	MACRO %51(414) 10:09 21-APR-78 PAGE 63
DSKFAM	MAC	21-APR-78 10:06		DIAGNOSTIC SECTION                                                                 SEQ 0095

  2874	032354				E32:^
  2875
  2876					ENTR 33,<DMOVE DFARG5,DFAD DFARG6>,DFAD (8 SHIFT RIGHT - 1 LEFT) TAKES,LESS(31)^
  2877			000003			XX=3
  2878						IRP
  2879	032354	120 00 0 00 035074 	IFG XX,<DMOVE DFARG5	;INSTRUCTION SET TO BE TIMED>
  2880			000002			XX=XX-1
  2881	032355	110 00 0 00 035100 	IFG XX,<DFAD DFARG6	;INSTRUCTION SET TO BE TIMED>
  2882			000001			XX=XX-1
  2883
  2884						IFG	XX,<REPEAT XX,<
  2885	032356	000000	000000			0			;NULL INSTRUCTION ENTRY>>
  2886	032357	000000	032364		TM33:	0+IFNB <DFAD (8 SHIFT RIGHT - 1 LEFT) TAKES>,<EXP .+5>	;XWD TIME,LOCN OF MSG
  2887			000003			XX=3
  2888						IRP
  2889	032360	777777	032304		IFG XX,<LESS(31)^XWD -1,TM31^	;TIME CALCULATION>
  2890			000002			XX=XX-1
  2891
  2892						IFG	XX,<REPEAT XX,
  2893
  2894	032361	000000	000000			0			;NULL CALCULATION ENTRY
  2895
  2896	032362	000000	000000			0			;NULL CALCULATION ENTRY>
  2897						IF1 <ZZ=.>
  2898			032363			ZY=.
  2899	032363	000000	032375			XWD <IFNB <>,<1B18>+IFNB<>,<^D>>,IFN ZY-ZZ,<E33>	;NEXT ENTRY
  2900						RADIX	10
  2901						IFNB	<DFAD (8 SHIFT RIGHT - 1 LEFT) TAKES>,<AUX \<XYZ=XYZ+1>,<DFAD (8 SHIFT RIGH
  2902	032364	065 064 040 055 040 	T - 1 LEFT) TAKES>>^ASCIZ !54 - DFAD (8 SHIFT RIGHT - 1 LEFT) TAKES !^;MESSAGE
  2903	032365	104 106 101 104 040
  2904	032366	050 070 040 123 110
  2905	032367	111 106 124 040 122
  2906	032370	111 107 110 124 040
  2907	032371	055 040 061 040 114
  2908	032372	105 106 124 051 040
  2909	032373	124 101 113 105 123
  2910	032374	040 000 000 000 000
  2911						RADIX	8
DSKFA	DECSYSTEM 2020 INSTRUCTION TIMING TEST, VER 0,1 	MACRO %51(414) 10:09 21-APR-78 PAGE 64
DSKFAM	MAC	21-APR-78 10:06		DIAGNOSTIC SECTION                                                                 SEQ 0096

  2912	032375				E33:^
  2913
  2914					ENTR 34,<DMOVE DFARG4,DFMP DFARG7>,DFMP (7 ADD/SUB - 32 SHIFTS) TAKES,LESS(31)^
  2915			000003			XX=3
  2916						IRP
  2917	032375	120 00 0 00 035076 	IFG XX,<DMOVE DFARG4	;INSTRUCTION SET TO BE TIMED>
  2918			000002			XX=XX-1
  2919	032376	112 00 0 00 035102 	IFG XX,<DFMP DFARG7	;INSTRUCTION SET TO BE TIMED>
  2920			000001			XX=XX-1
  2921
  2922						IFG	XX,<REPEAT XX,<
  2923	032377	000000	000000			0			;NULL INSTRUCTION ENTRY>>
  2924	032400	000000	032405		TM34:	0+IFNB <DFMP (7 ADD/SUB - 32 SHIFTS) TAKES>,<EXP .+5>	;XWD TIME,LOCN OF MSG
  2925			000003			XX=3
  2926						IRP
  2927	032401	777777	032304		IFG XX,<LESS(31)^XWD -1,TM31^	;TIME CALCULATION>
  2928			000002			XX=XX-1
  2929
  2930						IFG	XX,<REPEAT XX,
  2931
  2932	032402	000000	000000			0			;NULL CALCULATION ENTRY
  2933
  2934	032403	000000	000000			0			;NULL CALCULATION ENTRY>
  2935						IF1 <ZZ=.>
  2936			032404			ZY=.
  2937	032404	000000	032416			XWD <IFNB <>,<1B18>+IFNB<>,<^D>>,IFN ZY-ZZ,<E34>	;NEXT ENTRY
  2938						RADIX	10
  2939						IFNB	<DFMP (7 ADD/SUB - 32 SHIFTS) TAKES>,<AUX \<XYZ=XYZ+1>,<DFMP (7 ADD/SUB - 3
  2940	032405	065 065 040 055 040 	2 SHIFTS) TAKES>>^ASCIZ !55 - DFMP (7 ADD/SUB - 32 SHIFTS) TAKES !^;MESSAGE
  2941	032406	104 106 115 120 040
  2942	032407	050 067 040 101 104
  2943	032410	104 057 123 125 102
  2944	032411	040 055 040 063 062
  2945	032412	040 123 110 111 106
  2946	032413	124 123 051 040 124
  2947	032414	101 113 105 123 040
  2948	032415	000 000 000 000 000
  2949						RADIX	8
DSKFA	DECSYSTEM 2020 INSTRUCTION TIMING TEST, VER 0,1 	MACRO %51(414) 10:09 21-APR-78 PAGE 65
DSKFAM	MAC	21-APR-78 10:06		DIAGNOSTIC SECTION                                                                 SEQ 0097

  2950	032416				E34:^
  2951
  2952					ENTR 35,<DMOVE DFARG7,DFDV DFARG4>,DFDV TAKES,LESS(31)^
  2953			000003			XX=3
  2954						IRP
  2955	032416	120 00 0 00 035102 	IFG XX,<DMOVE DFARG7	;INSTRUCTION SET TO BE TIMED>
  2956			000002			XX=XX-1
  2957	032417	113 00 0 00 035076 	IFG XX,<DFDV DFARG4	;INSTRUCTION SET TO BE TIMED>
  2958			000001			XX=XX-1
  2959
  2960						IFG	XX,<REPEAT XX,<
  2961	032420	000000	000000			0			;NULL INSTRUCTION ENTRY>>
  2962	032421	000000	032426		TM35:	0+IFNB <DFDV TAKES>,<EXP .+5>	;XWD TIME,LOCN OF MSG
  2963			000003			XX=3
  2964						IRP
  2965	032422	777777	032304		IFG XX,<LESS(31)^XWD -1,TM31^	;TIME CALCULATION>
  2966			000002			XX=XX-1
  2967
  2968						IFG	XX,<REPEAT XX,
  2969
  2970	032423	000000	000000			0			;NULL CALCULATION ENTRY
  2971
  2972	032424	000000	000000			0			;NULL CALCULATION ENTRY>
  2973						IF1 <ZZ=.>
  2974			032425			ZY=.
  2975	032425	000000	032432			XWD <IFNB <>,<1B18>+IFNB<>,<^D>>,IFN ZY-ZZ,<E35>	;NEXT ENTRY
  2976						RADIX	10
  2977						IFNB	<DFDV TAKES>,<AUX \<XYZ=XYZ+1>,<DFDV TAKES>>^ASCIZ !56 - DFDV TAKES !^;MESS
  2978	032426	065 066 040 055 040 	AGE
  2979	032427	104 106 104 126 040
  2980	032430	124 101 113 105 123
  2981	032431	040 000 000 000 000
  2982						RADIX	8
DSKFA	DECSYSTEM 2020 INSTRUCTION TIMING TEST, VER 0,1 	MACRO %51(414) 10:09 21-APR-78 PAGE 66
DSKFAM	MAC	21-APR-78 10:06		DIAGNOSTIC SECTION                                                                 SEQ 0098

  2983	032432				E35:^
  2984
  2985					ENTR 36,<<CONO PI,>>,CONO PI TAKES^
  2986			000003			XX=3
  2987						IRP
  2988	032432	700600	000000		IFG XX,<<CONO PI,>	;INSTRUCTION SET TO BE TIMED>
  2989			000002			XX=XX-1
  2990
  2991						IFG	XX,<REPEAT XX,
  2992
  2993	032433	000000	000000			0			;NULL INSTRUCTION ENTRY
  2994
  2995	032434	000000	000000			0			;NULL INSTRUCTION ENTRY>
  2996	032435	000000	032442		TM36:	0+IFNB <CONO PI TAKES>,<EXP .+5>	;XWD TIME,LOCN OF MSG
  2997			000003			XX=3
  2998						IRP
  2999
  3000						IFG	XX,<REPEAT XX,
  3001
  3002	032436	000000	000000			0			;NULL CALCULATION ENTRY
  3003
  3004	032437	000000	000000			0			;NULL CALCULATION ENTRY
  3005
  3006	032440	000000	000000			0			;NULL CALCULATION ENTRY>
  3007						IF1 <ZZ=.>
  3008			032441			ZY=.
  3009	032441	000000	032446			XWD <IFNB <>,<1B18>+IFNB<>,<^D>>,IFN ZY-ZZ,<E36>	;NEXT ENTRY
  3010						RADIX	10
  3011						IFNB	<CONO PI TAKES>,<AUX \<XYZ=XYZ+1>,<CONO PI TAKES>>^ASCIZ !57 - CONO PI TAKE
  3012	032442	065 067 040 055 040 	S !^;MESSAGE
  3013	032443	103 117 116 117 040
  3014	032444	120 111 040 124 101
  3015	032445	113 105 123 040 000
  3016						RADIX	8
DSKFA	DECSYSTEM 2020 INSTRUCTION TIMING TEST, VER 0,1 	MACRO %51(414) 10:09 21-APR-78 PAGE 67
DSKFAM	MAC	21-APR-78 10:06		DIAGNOSTIC SECTION                                                                 SEQ 0099

  3017	032446				E36:^
  3018
  3019					ENTR 361,<<CONI PI,>>,CONI PI TAKES^
  3020			000003			XX=3
  3021						IRP
  3022	032446	700640	000000		IFG XX,<<CONI PI,>	;INSTRUCTION SET TO BE TIMED>
  3023			000002			XX=XX-1
  3024
  3025						IFG	XX,<REPEAT XX,
  3026
  3027	032447	000000	000000			0			;NULL INSTRUCTION ENTRY
  3028
  3029	032450	000000	000000			0			;NULL INSTRUCTION ENTRY>
  3030	032451	000000	032456		TM361:	0+IFNB <CONI PI TAKES>,<EXP .+5>	;XWD TIME,LOCN OF MSG
  3031			000003			XX=3
  3032						IRP
  3033
  3034						IFG	XX,<REPEAT XX,
  3035
  3036	032452	000000	000000			0			;NULL CALCULATION ENTRY
  3037
  3038	032453	000000	000000			0			;NULL CALCULATION ENTRY
  3039
  3040	032454	000000	000000			0			;NULL CALCULATION ENTRY>
  3041						IF1 <ZZ=.>
  3042			032455			ZY=.
  3043	032455	000000	032462			XWD <IFNB <>,<1B18>+IFNB<>,<^D>>,IFN ZY-ZZ,<E361>	;NEXT ENTRY
  3044						RADIX	10
  3045						IFNB	<CONI PI TAKES>,<AUX \<XYZ=XYZ+1>,<CONI PI TAKES>>^ASCIZ !58 - CONI PI TAKE
  3046	032456	065 070 040 055 040 	S !^;MESSAGE
  3047	032457	103 117 116 111 040
  3048	032460	120 111 040 124 101
  3049	032461	113 105 123 040 000
  3050						RADIX	8
DSKFA	DECSYSTEM 2020 INSTRUCTION TIMING TEST, VER 0,1 	MACRO %51(414) 10:09 21-APR-78 PAGE 68
DSKFAM	MAC	21-APR-78 10:06		DIAGNOSTIC SECTION                                                                 SEQ 0100

  3051	032462				E361:^
  3052
  3053					ENTR 362,<<CONO PAG,20000>>,CONO PAG TAKES^
  3054			000003			XX=3
  3055						IRP
  3056	032462	701200	020000		IFG XX,<<CONO PAG,20000>	;INSTRUCTION SET TO BE TIMED>
  3057			000002			XX=XX-1
  3058
  3059						IFG	XX,<REPEAT XX,
  3060
  3061	032463	000000	000000			0			;NULL INSTRUCTION ENTRY
  3062
  3063	032464	000000	000000			0			;NULL INSTRUCTION ENTRY>
  3064	032465	000000	032472		TM362:	0+IFNB <CONO PAG TAKES>,<EXP .+5>	;XWD TIME,LOCN OF MSG
  3065			000003			XX=3
  3066						IRP
  3067
  3068						IFG	XX,<REPEAT XX,
  3069
  3070	032466	000000	000000			0			;NULL CALCULATION ENTRY
  3071
  3072	032467	000000	000000			0			;NULL CALCULATION ENTRY
  3073
  3074	032470	000000	000000			0			;NULL CALCULATION ENTRY>
  3075						IF1 <ZZ=.>
  3076			032471			ZY=.
  3077	032471	000000	032477			XWD <IFNB <>,<1B18>+IFNB<>,<^D>>,IFN ZY-ZZ,<E362>	;NEXT ENTRY
  3078						RADIX	10
  3079						IFNB	<CONO PAG TAKES>,<AUX \<XYZ=XYZ+1>,<CONO PAG TAKES>>^ASCIZ !59 - CONO PAG T
  3080	032472	065 071 040 055 040 	AKES !^;MESSAGE
  3081	032473	103 117 116 117 040
  3082	032474	120 101 107 040 124
  3083	032475	101 113 105 123 040
  3084	032476	000 000 000 000 000
  3085						RADIX	8
DSKFA	DECSYSTEM 2020 INSTRUCTION TIMING TEST, VER 0,1 	MACRO %51(414) 10:09 21-APR-78 PAGE 69
DSKFAM	MAC	21-APR-78 10:06		DIAGNOSTIC SECTION                                                                 SEQ 0101

  3086	032477				E362:^
  3087
  3088					ENTR 363,<<DATAO PAG,[LLDUSB,,0]>>,DATAO PAG LOAD UBR TAKES^
  3089			000003			XX=3
  3090						IRP
  3091	032477	701140	035007		IFG XX,<<DATAO PAG,[LLDUSB,,0]>	;INSTRUCTION SET TO BE TIMED>
  3092			000002			XX=XX-1
  3093
  3094						IFG	XX,<REPEAT XX,
  3095
  3096	032500	000000	000000			0			;NULL INSTRUCTION ENTRY
  3097
  3098	032501	000000	000000			0			;NULL INSTRUCTION ENTRY>
  3099	032502	000000	032507		TM363:	0+IFNB <DATAO PAG LOAD UBR TAKES>,<EXP .+5>	;XWD TIME,LOCN OF MSG
  3100			000003			XX=3
  3101						IRP
  3102
  3103						IFG	XX,<REPEAT XX,
  3104
  3105	032503	000000	000000			0			;NULL CALCULATION ENTRY
  3106
  3107	032504	000000	000000			0			;NULL CALCULATION ENTRY
  3108
  3109	032505	000000	000000			0			;NULL CALCULATION ENTRY>
  3110						IF1 <ZZ=.>
  3111			032506			ZY=.
  3112	032506	000000	032516			XWD <IFNB <>,<1B18>+IFNB<>,<^D>>,IFN ZY-ZZ,<E363>	;NEXT ENTRY
  3113						RADIX	10
  3114						IFNB	<DATAO PAG LOAD UBR TAKES>,<AUX \<XYZ=XYZ+1>,<DATAO PAG LOAD UBR TAKES>>^AS
  3115	032507	066 060 040 055 040 	CIZ !60 - DATAO PAG LOAD UBR TAKES !^;MESSAGE
  3116	032510	104 101 124 101 117
  3117	032511	040 120 101 107 040
  3118	032512	114 117 101 104 040
  3119	032513	125 102 122 040 124
  3120	032514	101 113 105 123 040
  3121	032515	000 000 000 000 000
  3122						RADIX	8
DSKFA	DECSYSTEM 2020 INSTRUCTION TIMING TEST, VER 0,1 	MACRO %51(414) 10:09 21-APR-78 PAGE 70
DSKFAM	MAC	21-APR-78 10:06		DIAGNOSTIC SECTION                                                                 SEQ 0102

  3123	032516				E363:^
  3124
  3125					ENTR 364,<<DATAO PAG,[LLACBL,,0]>>,DATAO PAG LOAD AC BLK TAKES^
  3126			000003			XX=3
  3127						IRP
  3128	032516	701140	035000		IFG XX,<<DATAO PAG,[LLACBL,,0]>	;INSTRUCTION SET TO BE TIMED>
  3129			000002			XX=XX-1
  3130
  3131						IFG	XX,<REPEAT XX,
  3132
  3133	032517	000000	000000			0			;NULL INSTRUCTION ENTRY
  3134
  3135	032520	000000	000000			0			;NULL INSTRUCTION ENTRY>
  3136	032521	000000	032526		TM364:	0+IFNB <DATAO PAG LOAD AC BLK TAKES>,<EXP .+5>	;XWD TIME,LOCN OF MSG
  3137			000003			XX=3
  3138						IRP
  3139
  3140						IFG	XX,<REPEAT XX,
  3141
  3142	032522	000000	000000			0			;NULL CALCULATION ENTRY
  3143
  3144	032523	000000	000000			0			;NULL CALCULATION ENTRY
  3145
  3146	032524	000000	000000			0			;NULL CALCULATION ENTRY>
  3147						IF1 <ZZ=.>
  3148			032525			ZY=.
  3149	032525	000000	032535			XWD <IFNB <>,<1B18>+IFNB<>,<^D>>,IFN ZY-ZZ,<E364>	;NEXT ENTRY
  3150						RADIX	10
  3151						IFNB	<DATAO PAG LOAD AC BLK TAKES>,<AUX \<XYZ=XYZ+1>,<DATAO PAG LOAD AC BLK TAKE
  3152	032526	066 061 040 055 040 	S>>^ASCIZ !61 - DATAO PAG LOAD AC BLK TAKES !^;MESSAGE
  3153	032527	104 101 124 101 117
  3154	032530	040 120 101 107 040
  3155	032531	114 117 101 104 040
  3156	032532	101 103 040 102 114
  3157	032533	113 040 124 101 113
  3158	032534	105 123 040 000 000
  3159						RADIX	8
DSKFA	DECSYSTEM 2020 INSTRUCTION TIMING TEST, VER 0,1 	MACRO %51(414) 10:09 21-APR-78 PAGE 71
DSKFAM	MAC	21-APR-78 10:06		DIAGNOSTIC SECTION                                                                 SEQ 0103

  3160	032535				E364:^
  3161
  3162					ENTR 365,<<WRIO 3,@$WRIO>>,WRIO TAKES^
  3163			000003			XX=3
  3164						IRP
  3165	032535	713160	035055		IFG XX,<<WRIO 3,@$WRIO>	;INSTRUCTION SET TO BE TIMED>
  3166			000002			XX=XX-1
  3167
  3168						IFG	XX,<REPEAT XX,
  3169
  3170	032536	000000	000000			0			;NULL INSTRUCTION ENTRY
  3171
  3172	032537	000000	000000			0			;NULL INSTRUCTION ENTRY>
  3173	032540	000000	032545		TM365:	0+IFNB <WRIO TAKES>,<EXP .+5>	;XWD TIME,LOCN OF MSG
  3174			000003			XX=3
  3175						IRP
  3176
  3177						IFG	XX,<REPEAT XX,
  3178
  3179	032541	000000	000000			0			;NULL CALCULATION ENTRY
  3180
  3181	032542	000000	000000			0			;NULL CALCULATION ENTRY
  3182
  3183	032543	000000	000000			0			;NULL CALCULATION ENTRY>
  3184						IF1 <ZZ=.>
  3185			032544			ZY=.
  3186	032544	000000	032551			XWD <IFNB <>,<1B18>+IFNB<>,<^D>>,IFN ZY-ZZ,<E365>	;NEXT ENTRY
  3187						RADIX	10
  3188						IFNB	<WRIO TAKES>,<AUX \<XYZ=XYZ+1>,<WRIO TAKES>>^ASCIZ !62 - WRIO TAKES !^;MESS
  3189	032545	066 062 040 055 040 	AGE
  3190	032546	127 122 111 117 040
  3191	032547	124 101 113 105 123
  3192	032550	040 000 000 000 000
  3193						RADIX	8
DSKFA	DECSYSTEM 2020 INSTRUCTION TIMING TEST, VER 0,1 	MACRO %51(414) 10:09 21-APR-78 PAGE 72
DSKFAM	MAC	21-APR-78 10:06		DIAGNOSTIC SECTION                                                                 SEQ 0104

  3194	032551				E365:^
  3195
  3196					ENTR 366,<<RDIO 0,@$RDIO>>,RDIO TAKES^
  3197			000003			XX=3
  3198						IRP
  3199	032551	712020	035055		IFG XX,<<RDIO 0,@$RDIO>	;INSTRUCTION SET TO BE TIMED>
  3200			000002			XX=XX-1
  3201
  3202						IFG	XX,<REPEAT XX,
  3203
  3204	032552	000000	000000			0			;NULL INSTRUCTION ENTRY
  3205
  3206	032553	000000	000000			0			;NULL INSTRUCTION ENTRY>
  3207	032554	000000	032561		TM366:	0+IFNB <RDIO TAKES>,<EXP .+5>	;XWD TIME,LOCN OF MSG
  3208			000003			XX=3
  3209						IRP
  3210
  3211						IFG	XX,<REPEAT XX,
  3212
  3213	032555	000000	000000			0			;NULL CALCULATION ENTRY
  3214
  3215	032556	000000	000000			0			;NULL CALCULATION ENTRY
  3216
  3217	032557	000000	000000			0			;NULL CALCULATION ENTRY>
  3218						IF1 <ZZ=.>
  3219			032560			ZY=.
  3220	032560	000000	032565			XWD <IFNB <>,<1B18>+IFNB<>,<^D>>,IFN ZY-ZZ,<E366>	;NEXT ENTRY
  3221						RADIX	10
  3222						IFNB	<RDIO TAKES>,<AUX \<XYZ=XYZ+1>,<RDIO TAKES>>^ASCIZ !63 - RDIO TAKES !^;MESS
  3223	032561	066 063 040 055 040 	AGE
  3224	032562	122 104 111 117 040
  3225	032563	124 101 113 105 123
  3226	032564	040 000 000 000 000
  3227						RADIX	8
DSKFA	DECSYSTEM 2020 INSTRUCTION TIMING TEST, VER 0,1 	MACRO %51(414) 10:09 21-APR-78 PAGE 73
DSKFAM	MAC	21-APR-78 10:06		DIAGNOSTIC SECTION                                                                 SEQ 0105

  3228	032565				E366:^
  3229
  3230					ENTR 38,<LSH ^D35>,LOGICAL SHIFT (35 PLACES LEFT) TAKES^
  3231			000003			XX=3
  3232						IRP
  3233	032565	242 00 0 00 000043 	IFG XX,<LSH ^D35	;INSTRUCTION SET TO BE TIMED>
  3234			000002			XX=XX-1
  3235
  3236						IFG	XX,<REPEAT XX,
  3237
  3238	032566	000000	000000			0			;NULL INSTRUCTION ENTRY
  3239
  3240	032567	000000	000000			0			;NULL INSTRUCTION ENTRY>
  3241	032570	000000	032575		TM38:	0+IFNB <LOGICAL SHIFT (35 PLACES LEFT) TAKES>,<EXP .+5>	;XWD TIME,LOCN OF MSG
  3242			000003			XX=3
  3243						IRP
  3244
  3245						IFG	XX,<REPEAT XX,
  3246
  3247	032571	000000	000000			0			;NULL CALCULATION ENTRY
  3248
  3249	032572	000000	000000			0			;NULL CALCULATION ENTRY
  3250
  3251	032573	000000	000000			0			;NULL CALCULATION ENTRY>
  3252						IF1 <ZZ=.>
  3253			032574			ZY=.
  3254	032574	000000	032606			XWD <IFNB <>,<1B18>+IFNB<>,<^D>>,IFN ZY-ZZ,<E38>	;NEXT ENTRY
  3255						RADIX	10
  3256						IFNB	<LOGICAL SHIFT (35 PLACES LEFT) TAKES>,<AUX \<XYZ=XYZ+1>,<LOGICAL SHIFT (35
  3257	032575	066 064 040 055 040 	 PLACES LEFT) TAKES>>^ASCIZ !64 - LOGICAL SHIFT (35 PLACES LEFT) TAKES !^;MESSAGE
  3258	032576	114 117 107 111 103
  3259	032577	101 114 040 123 110
  3260	032600	111 106 124 040 050
  3261	032601	063 065 040 120 114
  3262	032602	101 103 105 123 040
  3263	032603	114 105 106 124 051
  3264	032604	040 124 101 113 105
  3265	032605	123 040 000 000 000
  3266						RADIX	8
DSKFA	DECSYSTEM 2020 INSTRUCTION TIMING TEST, VER 0,1 	MACRO %51(414) 10:09 21-APR-78 PAGE 74
DSKFAM	MAC	21-APR-78 10:06		DIAGNOSTIC SECTION                                                                 SEQ 0106

  3267	032606				E38:^
  3268
  3269					ENTR 39,<LSH -^D35>,LOGICAL SHIFT (35 PLACES RIGHT) TAKES^
  3270			000003			XX=3
  3271						IRP
  3272	032606	242 00 0 00 777735 	IFG XX,<LSH -^D35	;INSTRUCTION SET TO BE TIMED>
  3273			000002			XX=XX-1
  3274
  3275						IFG	XX,<REPEAT XX,
  3276
  3277	032607	000000	000000			0			;NULL INSTRUCTION ENTRY
  3278
  3279	032610	000000	000000			0			;NULL INSTRUCTION ENTRY>
  3280					TM39:	0+IFNB <LOGICAL SHIFT (35 PLACES RIGHT) TAKES>,<EXP .+5>	;XWD TIME,LOCN OF M
  3281	032611	000000	032616		SG
  3282			000003			XX=3
  3283						IRP
  3284
  3285						IFG	XX,<REPEAT XX,
  3286
  3287	032612	000000	000000			0			;NULL CALCULATION ENTRY
  3288
  3289	032613	000000	000000			0			;NULL CALCULATION ENTRY
  3290
  3291	032614	000000	000000			0			;NULL CALCULATION ENTRY>
  3292						IF1 <ZZ=.>
  3293			032615			ZY=.
  3294	032615	000000	032627			XWD <IFNB <>,<1B18>+IFNB<>,<^D>>,IFN ZY-ZZ,<E39>	;NEXT ENTRY
  3295						RADIX	10
  3296						IFNB	<LOGICAL SHIFT (35 PLACES RIGHT) TAKES>,<AUX \<XYZ=XYZ+1>,<LOGICAL SHIFT (3
  3297	032616	066 065 040 055 040 	5 PLACES RIGHT) TAKES>>^ASCIZ !65 - LOGICAL SHIFT (35 PLACES RIGHT) TAKES !^;MESSAGE
  3298	032617	114 117 107 111 103
  3299	032620	101 114 040 123 110
  3300	032621	111 106 124 040 050
  3301	032622	063 065 040 120 114
  3302	032623	101 103 105 123 040
  3303	032624	122 111 107 110 124
  3304	032625	051 040 124 101 113
  3305	032626	105 123 040 000 000
  3306						RADIX	8
DSKFA	DECSYSTEM 2020 INSTRUCTION TIMING TEST, VER 0,1 	MACRO %51(414) 10:09 21-APR-78 PAGE 75
DSKFAM	MAC	21-APR-78 10:06		DIAGNOSTIC SECTION                                                                 SEQ 0107

  3307	032627				E39:^
  3308
  3309					ENTR 40,<LSHC ^D71>,LOGICAL SHIFT COMBINED (71 PLACES LEFT) TAKES^
  3310			000003			XX=3
  3311						IRP
  3312	032627	246 00 0 00 000107 	IFG XX,<LSHC ^D71	;INSTRUCTION SET TO BE TIMED>
  3313			000002			XX=XX-1
  3314
  3315						IFG	XX,<REPEAT XX,
  3316
  3317	032630	000000	000000			0			;NULL INSTRUCTION ENTRY
  3318
  3319	032631	000000	000000			0			;NULL INSTRUCTION ENTRY>
  3320					TM40:	0+IFNB <LOGICAL SHIFT COMBINED (71 PLACES LEFT) TAKES>,<EXP .+5>	;XWD TIME,L
  3321	032632	000000	032637		OCN OF MSG
  3322			000003			XX=3
  3323						IRP
  3324
  3325						IFG	XX,<REPEAT XX,
  3326
  3327	032633	000000	000000			0			;NULL CALCULATION ENTRY
  3328
  3329	032634	000000	000000			0			;NULL CALCULATION ENTRY
  3330
  3331	032635	000000	000000			0			;NULL CALCULATION ENTRY>
  3332						IF1 <ZZ=.>
  3333			032636			ZY=.
  3334	032636	000000	032652			XWD <IFNB <>,<1B18>+IFNB<>,<^D>>,IFN ZY-ZZ,<E40>	;NEXT ENTRY
  3335						RADIX	10
  3336						IFNB	<LOGICAL SHIFT COMBINED (71 PLACES LEFT) TAKES>,<AUX \<XYZ=XYZ+1>,<LOGICAL
  3337					SHIFT COMBINED (71 PLACES LEFT) TAKES>>^ASCIZ !66 - LOGICAL SHIFT COMBINED (71 PLACES LEFT)
  3338	032637	066 066 040 055 040 	TAKES !^;MESSAGE
  3339	032640	114 117 107 111 103
  3340	032641	101 114 040 123 110
  3341	032642	111 106 124 040 103
  3342	032643	117 115 102 111 116
  3343	032644	105 104 040 050 067
  3344	032645	061 040 120 114 101
  3345	032646	103 105 123 040 114
  3346	032647	105 106 124 051 040
  3347	032650	124 101 113 105 123
  3348	032651	040 000 000 000 000
  3349						RADIX	8
DSKFA	DECSYSTEM 2020 INSTRUCTION TIMING TEST, VER 0,1 	MACRO %51(414) 10:09 21-APR-78 PAGE 76
DSKFAM	MAC	21-APR-78 10:06		DIAGNOSTIC SECTION                                                                 SEQ 0108

  3350	032652				E40:^
  3351
  3352					ENTR 41,<LSHC -^D71>,LOGICAL SHIFT COMBINED (71 PLACES RIGHT) TAKES^
  3353			000003			XX=3
  3354						IRP
  3355	032652	246 00 0 00 777671 	IFG XX,<LSHC -^D71	;INSTRUCTION SET TO BE TIMED>
  3356			000002			XX=XX-1
  3357
  3358						IFG	XX,<REPEAT XX,
  3359
  3360	032653	000000	000000			0			;NULL INSTRUCTION ENTRY
  3361
  3362	032654	000000	000000			0			;NULL INSTRUCTION ENTRY>
  3363					TM41:	0+IFNB <LOGICAL SHIFT COMBINED (71 PLACES RIGHT) TAKES>,<EXP .+5>	;XWD TIME,L
  3364	032655	000000	032662		OCN OF MSG
  3365			000003			XX=3
  3366						IRP
  3367
  3368						IFG	XX,<REPEAT XX,
  3369
  3370	032656	000000	000000			0			;NULL CALCULATION ENTRY
  3371
  3372	032657	000000	000000			0			;NULL CALCULATION ENTRY
  3373
  3374	032660	000000	000000			0			;NULL CALCULATION ENTRY>
  3375						IF1 <ZZ=.>
  3376			032661			ZY=.
  3377	032661	000000	032675			XWD <IFNB <>,<1B18>+IFNB<>,<^D>>,IFN ZY-ZZ,<E41>	;NEXT ENTRY
  3378						RADIX	10
  3379						IFNB	<LOGICAL SHIFT COMBINED (71 PLACES RIGHT) TAKES>,<AUX \<XYZ=XYZ+1>,<LOGICAL
  3380					 SHIFT COMBINED (71 PLACES RIGHT) TAKES>>^ASCIZ !67 - LOGICAL SHIFT COMBINED (71 PLACES RIGH
  3381	032662	066 067 040 055 040 	T) TAKES !^;MESSAGE
  3382	032663	114 117 107 111 103
  3383	032664	101 114 040 123 110
  3384	032665	111 106 124 040 103
  3385	032666	117 115 102 111 116
  3386	032667	105 104 040 050 067
  3387	032670	061 040 120 114 101
  3388	032671	103 105 123 040 122
  3389	032672	111 107 110 124 051
  3390	032673	040 124 101 113 105
  3391	032674	123 040 000 000 000
  3392						RADIX	8
DSKFA	DECSYSTEM 2020 INSTRUCTION TIMING TEST, VER 0,1 	MACRO %51(414) 10:09 21-APR-78 PAGE 77
DSKFAM	MAC	21-APR-78 10:06		DIAGNOSTIC SECTION                                                                 SEQ 0109

  3393	032675				E41:^
  3394
  3395					ENTR 42,<<MOVE [350700,,[0]]>,<MOVEM TEMP>,<IBP TEMP>>,INCREMENT BYTE POINTER TAKES,<LESS (
  3396					16),LESS (161)>^
  3397			000003			XX=3
  3398						IRP
  3399	032675	200000	035011		IFG XX,<<MOVE [350700,,[0]]>	;INSTRUCTION SET TO BE TIMED>
  3400			000002			XX=XX-1
  3401	032676	202000	035051		IFG XX,<<MOVEM TEMP>	;INSTRUCTION SET TO BE TIMED>
  3402			000001			XX=XX-1
  3403	032677	133000	035051		IFG XX,<<IBP TEMP>	;INSTRUCTION SET TO BE TIMED>
  3404			000000			XX=XX-1
  3405
  3406						IFG	XX,<REPEAT XX,<
  3407						0			;NULL INSTRUCTION ENTRY>>
  3408	032700	000000	032705		TM42:	0+IFNB <INCREMENT BYTE POINTER TAKES>,<EXP .+5>	;XWD TIME,LOCN OF MSG
  3409			000003			XX=3
  3410						IRP
  3411	032701	777777	031222		IFG XX,<LESS (16)^XWD -1,TM16^	;TIME CALCULATION>
  3412			000002			XX=XX-1
  3413	032702	777777	031240		IFG XX,<LESS (161)^XWD -1,TM161^	;TIME CALCULATION>
  3414			000001			XX=XX-1
  3415
  3416						IFG	XX,<REPEAT XX,<
  3417	032703	000000	000000			0			;NULL CALCULATION ENTRY>>
  3418						IF1 <ZZ=.>
  3419			032704			ZY=.
  3420	032704	000000	032714			XWD <IFNB <>,<1B18>+IFNB<>,<^D>>,IFN ZY-ZZ,<E42>	;NEXT ENTRY
  3421						RADIX	10
  3422						IFNB	<INCREMENT BYTE POINTER TAKES>,<AUX \<XYZ=XYZ+1>,<INCREMENT BYTE POINTER TA
  3423	032705	066 070 040 055 040 	KES>>^ASCIZ !68 - INCREMENT BYTE POINTER TAKES !^;MESSAGE
  3424	032706	111 116 103 122 105
  3425	032707	115 105 116 124 040
  3426	032710	102 131 124 105 040
  3427	032711	120 117 111 116 124
  3428	032712	105 122 040 124 101
  3429	032713	113 105 123 040 000
  3430						RADIX	8
DSKFA	DECSYSTEM 2020 INSTRUCTION TIMING TEST, VER 0,1 	MACRO %51(414) 10:09 21-APR-78 PAGE 78
DSKFAM	MAC	21-APR-78 10:06		DIAGNOSTIC SECTION                                                                 SEQ 0110

  3431	032714				E42:^
  3432
  3433					ENTR 43,<<MOVE [350700,,[0]]>,<MOVEM TEMP>,<ILDB TEMP>>,ILDB (7 BITS) TAKES,<LESS (16),LESS
  3434					 (161)>^
  3435			000003			XX=3
  3436						IRP
  3437	032714	200000	035011		IFG XX,<<MOVE [350700,,[0]]>	;INSTRUCTION SET TO BE TIMED>
  3438			000002			XX=XX-1
  3439	032715	202000	035051		IFG XX,<<MOVEM TEMP>	;INSTRUCTION SET TO BE TIMED>
  3440			000001			XX=XX-1
  3441	032716	134000	035051		IFG XX,<<ILDB TEMP>	;INSTRUCTION SET TO BE TIMED>
  3442			000000			XX=XX-1
  3443
  3444						IFG	XX,<REPEAT XX,<
  3445						0			;NULL INSTRUCTION ENTRY>>
  3446	032717	000000	032724		TM43:	0+IFNB <ILDB (7 BITS) TAKES>,<EXP .+5>	;XWD TIME,LOCN OF MSG
  3447			000003			XX=3
  3448						IRP
  3449	032720	777777	031222		IFG XX,<LESS (16)^XWD -1,TM16^	;TIME CALCULATION>
  3450			000002			XX=XX-1
  3451	032721	777777	031240		IFG XX,<LESS (161)^XWD -1,TM161^	;TIME CALCULATION>
  3452			000001			XX=XX-1
  3453
  3454						IFG	XX,<REPEAT XX,<
  3455	032722	000000	000000			0			;NULL CALCULATION ENTRY>>
  3456						IF1 <ZZ=.>
  3457			032723			ZY=.
  3458	032723	000000	032732			XWD <IFNB <>,<1B18>+IFNB<>,<^D>>,IFN ZY-ZZ,<E43>	;NEXT ENTRY
  3459						RADIX	10
  3460						IFNB	<ILDB (7 BITS) TAKES>,<AUX \<XYZ=XYZ+1>,<ILDB (7 BITS) TAKES>>^ASCIZ !69 -
  3461	032724	066 071 040 055 040 	ILDB (7 BITS) TAKES !^;MESSAGE
  3462	032725	111 114 104 102 040
  3463	032726	050 067 040 102 111
  3464	032727	124 123 051 040 124
  3465	032730	101 113 105 123 040
  3466	032731	000 000 000 000 000
  3467						RADIX	8
DSKFA	DECSYSTEM 2020 INSTRUCTION TIMING TEST, VER 0,1 	MACRO %51(414) 10:09 21-APR-78 PAGE 79
DSKFAM	MAC	21-APR-78 10:06		DIAGNOSTIC SECTION                                                                 SEQ 0111

  3468	032732				E43:^
  3469
  3470					ENTR 44,<<MOVE [350700,,TEMP]>,<MOVEM TEMP>,<IDPB TEMP>>,IDPB (7 BITS) TAKES,<LESS (16),LES
  3471					S (161)>^
  3472			000003			XX=3
  3473						IRP
  3474	032732	200000	035012		IFG XX,<<MOVE [350700,,TEMP]>	;INSTRUCTION SET TO BE TIMED>
  3475			000002			XX=XX-1
  3476	032733	202000	035051		IFG XX,<<MOVEM TEMP>	;INSTRUCTION SET TO BE TIMED>
  3477			000001			XX=XX-1
  3478	032734	136000	035051		IFG XX,<<IDPB TEMP>	;INSTRUCTION SET TO BE TIMED>
  3479			000000			XX=XX-1
  3480
  3481						IFG	XX,<REPEAT XX,<
  3482						0			;NULL INSTRUCTION ENTRY>>
  3483	032735	000000	032742		TM44:	0+IFNB <IDPB (7 BITS) TAKES>,<EXP .+5>	;XWD TIME,LOCN OF MSG
  3484			000003			XX=3
  3485						IRP
  3486	032736	777777	031222		IFG XX,<LESS (16)^XWD -1,TM16^	;TIME CALCULATION>
  3487			000002			XX=XX-1
  3488	032737	777777	031240		IFG XX,<LESS (161)^XWD -1,TM161^	;TIME CALCULATION>
  3489			000001			XX=XX-1
  3490
  3491						IFG	XX,<REPEAT XX,<
  3492	032740	000000	000000			0			;NULL CALCULATION ENTRY>>
  3493						IF1 <ZZ=.>
  3494			032741			ZY=.
  3495	032741	000000	032750			XWD <IFNB <>,<1B18>+IFNB<>,<^D>>,IFN ZY-ZZ,<E44>	;NEXT ENTRY
  3496						RADIX	10
  3497						IFNB	<IDPB (7 BITS) TAKES>,<AUX \<XYZ=XYZ+1>,<IDPB (7 BITS) TAKES>>^ASCIZ !70 -
  3498	032742	067 060 040 055 040 	IDPB (7 BITS) TAKES !^;MESSAGE
  3499	032743	111 104 120 102 040
  3500	032744	050 067 040 102 111
  3501	032745	124 123 051 040 124
  3502	032746	101 113 105 123 040
  3503	032747	000 000 000 000 000
  3504						RADIX	8
DSKFA	DECSYSTEM 2020 INSTRUCTION TIMING TEST, VER 0,1 	MACRO %51(414) 10:09 21-APR-78 PAGE 80
DSKFAM	MAC	21-APR-78 10:06		DIAGNOSTIC SECTION                                                                 SEQ 0112

  3505	032750				E44:^
  3506
  3507					ENTR 441,<<MOVE [350600,,[0]]>,<MOVEM TEMP>,<ILDB TEMP>>,ILDB (6 BITS) TAKES,<LESS (16),LES
  3508					S (161)>^
  3509			000003			XX=3
  3510						IRP
  3511	032750	200000	035013		IFG XX,<<MOVE [350600,,[0]]>	;INSTRUCTION SET TO BE TIMED>
  3512			000002			XX=XX-1
  3513	032751	202000	035051		IFG XX,<<MOVEM TEMP>	;INSTRUCTION SET TO BE TIMED>
  3514			000001			XX=XX-1
  3515	032752	134000	035051		IFG XX,<<ILDB TEMP>	;INSTRUCTION SET TO BE TIMED>
  3516			000000			XX=XX-1
  3517
  3518						IFG	XX,<REPEAT XX,<
  3519						0			;NULL INSTRUCTION ENTRY>>
  3520	032753	000000	032760		TM441:	0+IFNB <ILDB (6 BITS) TAKES>,<EXP .+5>	;XWD TIME,LOCN OF MSG
  3521			000003			XX=3
  3522						IRP
  3523	032754	777777	031222		IFG XX,<LESS (16)^XWD -1,TM16^	;TIME CALCULATION>
  3524			000002			XX=XX-1
  3525	032755	777777	031240		IFG XX,<LESS (161)^XWD -1,TM161^	;TIME CALCULATION>
  3526			000001			XX=XX-1
  3527
  3528						IFG	XX,<REPEAT XX,<
  3529	032756	000000	000000			0			;NULL CALCULATION ENTRY>>
  3530						IF1 <ZZ=.>
  3531			032757			ZY=.
  3532	032757	000000	032766			XWD <IFNB <>,<1B18>+IFNB<>,<^D>>,IFN ZY-ZZ,<E441>	;NEXT ENTRY
  3533						RADIX	10
  3534						IFNB	<ILDB (6 BITS) TAKES>,<AUX \<XYZ=XYZ+1>,<ILDB (6 BITS) TAKES>>^ASCIZ !71 -
  3535	032760	067 061 040 055 040 	ILDB (6 BITS) TAKES !^;MESSAGE
  3536	032761	111 114 104 102 040
  3537	032762	050 066 040 102 111
  3538	032763	124 123 051 040 124
  3539	032764	101 113 105 123 040
  3540	032765	000 000 000 000 000
  3541						RADIX	8
DSKFA	DECSYSTEM 2020 INSTRUCTION TIMING TEST, VER 0,1 	MACRO %51(414) 10:09 21-APR-78 PAGE 81
DSKFAM	MAC	21-APR-78 10:06		DIAGNOSTIC SECTION                                                                 SEQ 0113

  3542	032766				E441:^
  3543
  3544					ENTR 442,<<MOVE [350600,,[0]]>,<MOVEM TEMP>,<IDPB TEMP>>,IDPB (6 BITS) TAKES,<LESS (16),LES
  3545					S (161)>^
  3546			000003			XX=3
  3547						IRP
  3548	032766	200000	035013		IFG XX,<<MOVE [350600,,[0]]>	;INSTRUCTION SET TO BE TIMED>
  3549			000002			XX=XX-1
  3550	032767	202000	035051		IFG XX,<<MOVEM TEMP>	;INSTRUCTION SET TO BE TIMED>
  3551			000001			XX=XX-1
  3552	032770	136000	035051		IFG XX,<<IDPB TEMP>	;INSTRUCTION SET TO BE TIMED>
  3553			000000			XX=XX-1
  3554
  3555						IFG	XX,<REPEAT XX,<
  3556						0			;NULL INSTRUCTION ENTRY>>
  3557	032771	000000	032776		TM442:	0+IFNB <IDPB (6 BITS) TAKES>,<EXP .+5>	;XWD TIME,LOCN OF MSG
  3558			000003			XX=3
  3559						IRP
  3560	032772	777777	031222		IFG XX,<LESS (16)^XWD -1,TM16^	;TIME CALCULATION>
  3561			000002			XX=XX-1
  3562	032773	777777	031240		IFG XX,<LESS (161)^XWD -1,TM161^	;TIME CALCULATION>
  3563			000001			XX=XX-1
  3564
  3565						IFG	XX,<REPEAT XX,<
  3566	032774	000000	000000			0			;NULL CALCULATION ENTRY>>
  3567						IF1 <ZZ=.>
  3568			032775			ZY=.
  3569	032775	000000	033004			XWD <IFNB <>,<1B18>+IFNB<>,<^D>>,IFN ZY-ZZ,<E442>	;NEXT ENTRY
  3570						RADIX	10
  3571						IFNB	<IDPB (6 BITS) TAKES>,<AUX \<XYZ=XYZ+1>,<IDPB (6 BITS) TAKES>>^ASCIZ !72 -
  3572	032776	067 062 040 055 040 	IDPB (6 BITS) TAKES !^;MESSAGE
  3573	032777	111 104 120 102 040
  3574	033000	050 066 040 102 111
  3575	033001	124 123 051 040 124
  3576	033002	101 113 105 123 040
  3577	033003	000 000 000 000 000
  3578						RADIX	8
DSKFA	DECSYSTEM 2020 INSTRUCTION TIMING TEST, VER 0,1 	MACRO %51(414) 10:09 21-APR-78 PAGE 82
DSKFAM	MAC	21-APR-78 10:06		DIAGNOSTIC SECTION                                                                 SEQ 0114

  3579	033004				E442:^
  3580
  3581					ENTR 443,<<LDB [POINT 7,TEMP,6]>>,LDB (7 BITS - POS 6) TAKES^
  3582			000003			XX=3
  3583						IRP
  3584	033004	135000	035012		IFG XX,<<LDB [POINT 7,TEMP,6]>	;INSTRUCTION SET TO BE TIMED>
  3585			000002			XX=XX-1
  3586
  3587						IFG	XX,<REPEAT XX,
  3588
  3589	033005	000000	000000			0			;NULL INSTRUCTION ENTRY
  3590
  3591	033006	000000	000000			0			;NULL INSTRUCTION ENTRY>
  3592	033007	000000	033014		TM443:	0+IFNB <LDB (7 BITS - POS 6) TAKES>,<EXP .+5>	;XWD TIME,LOCN OF MSG
  3593			000003			XX=3
  3594						IRP
  3595
  3596						IFG	XX,<REPEAT XX,
  3597
  3598	033010	000000	000000			0			;NULL CALCULATION ENTRY
  3599
  3600	033011	000000	000000			0			;NULL CALCULATION ENTRY
  3601
  3602	033012	000000	000000			0			;NULL CALCULATION ENTRY>
  3603						IF1 <ZZ=.>
  3604			033013			ZY=.
  3605	033013	000000	033023			XWD <IFNB <>,<1B18>+IFNB<>,<^D>>,IFN ZY-ZZ,<E443>	;NEXT ENTRY
  3606						RADIX	10
  3607						IFNB	<LDB (7 BITS - POS 6) TAKES>,<AUX \<XYZ=XYZ+1>,<LDB (7 BITS - POS 6) TAKES>
  3608	033014	067 063 040 055 040 	>^ASCIZ !73 - LDB (7 BITS - POS 6) TAKES !^;MESSAGE
  3609	033015	114 104 102 040 050
  3610	033016	067 040 102 111 124
  3611	033017	123 040 055 040 120
  3612	033020	117 123 040 066 051
  3613	033021	040 124 101 113 105
  3614	033022	123 040 000 000 000
  3615						RADIX	8
DSKFA	DECSYSTEM 2020 INSTRUCTION TIMING TEST, VER 0,1 	MACRO %51(414) 10:09 21-APR-78 PAGE 83
DSKFAM	MAC	21-APR-78 10:06		DIAGNOSTIC SECTION                                                                 SEQ 0115

  3616	033023				E443:^
  3617
  3618					ENTR 444,<<LDB [POINT 7,TEMP,13]>>,LDB (7 BITS - POS 13) TAKES^
  3619			000003			XX=3
  3620						IRP
  3621	033023	135000	035014		IFG XX,<<LDB [POINT 7,TEMP,13]>	;INSTRUCTION SET TO BE TIMED>
  3622			000002			XX=XX-1
  3623
  3624						IFG	XX,<REPEAT XX,
  3625
  3626	033024	000000	000000			0			;NULL INSTRUCTION ENTRY
  3627
  3628	033025	000000	000000			0			;NULL INSTRUCTION ENTRY>
  3629	033026	000000	033033		TM444:	0+IFNB <LDB (7 BITS - POS 13) TAKES>,<EXP .+5>	;XWD TIME,LOCN OF MSG
  3630			000003			XX=3
  3631						IRP
  3632
  3633						IFG	XX,<REPEAT XX,
  3634
  3635	033027	000000	000000			0			;NULL CALCULATION ENTRY
  3636
  3637	033030	000000	000000			0			;NULL CALCULATION ENTRY
  3638
  3639	033031	000000	000000			0			;NULL CALCULATION ENTRY>
  3640						IF1 <ZZ=.>
  3641			033032			ZY=.
  3642	033032	000000	033042			XWD <IFNB <>,<1B18>+IFNB<>,<^D>>,IFN ZY-ZZ,<E444>	;NEXT ENTRY
  3643						RADIX	10
  3644						IFNB	<LDB (7 BITS - POS 13) TAKES>,<AUX \<XYZ=XYZ+1>,<LDB (7 BITS - POS 13) TAKE
  3645	033033	067 064 040 055 040 	S>>^ASCIZ !74 - LDB (7 BITS - POS 13) TAKES !^;MESSAGE
  3646	033034	114 104 102 040 050
  3647	033035	067 040 102 111 124
  3648	033036	123 040 055 040 120
  3649	033037	117 123 040 061 063
  3650	033040	051 040 124 101 113
  3651	033041	105 123 040 000 000
  3652						RADIX	8
DSKFA	DECSYSTEM 2020 INSTRUCTION TIMING TEST, VER 0,1 	MACRO %51(414) 10:09 21-APR-78 PAGE 84
DSKFAM	MAC	21-APR-78 10:06		DIAGNOSTIC SECTION                                                                 SEQ 0116

  3653	033042				E444:^
  3654
  3655					ENTR 445,<<LDB [POINT 7,TEMP,20]>>,LDB (7 BITS - POS 20) TAKES^
  3656			000003			XX=3
  3657						IRP
  3658	033042	135000	035015		IFG XX,<<LDB [POINT 7,TEMP,20]>	;INSTRUCTION SET TO BE TIMED>
  3659			000002			XX=XX-1
  3660
  3661						IFG	XX,<REPEAT XX,
  3662
  3663	033043	000000	000000			0			;NULL INSTRUCTION ENTRY
  3664
  3665	033044	000000	000000			0			;NULL INSTRUCTION ENTRY>
  3666	033045	000000	033052		TM445:	0+IFNB <LDB (7 BITS - POS 20) TAKES>,<EXP .+5>	;XWD TIME,LOCN OF MSG
  3667			000003			XX=3
  3668						IRP
  3669
  3670						IFG	XX,<REPEAT XX,
  3671
  3672	033046	000000	000000			0			;NULL CALCULATION ENTRY
  3673
  3674	033047	000000	000000			0			;NULL CALCULATION ENTRY
  3675
  3676	033050	000000	000000			0			;NULL CALCULATION ENTRY>
  3677						IF1 <ZZ=.>
  3678			033051			ZY=.
  3679	033051	000000	033061			XWD <IFNB <>,<1B18>+IFNB<>,<^D>>,IFN ZY-ZZ,<E445>	;NEXT ENTRY
  3680						RADIX	10
  3681						IFNB	<LDB (7 BITS - POS 20) TAKES>,<AUX \<XYZ=XYZ+1>,<LDB (7 BITS - POS 20) TAKE
  3682	033052	067 065 040 055 040 	S>>^ASCIZ !75 - LDB (7 BITS - POS 20) TAKES !^;MESSAGE
  3683	033053	114 104 102 040 050
  3684	033054	067 040 102 111 124
  3685	033055	123 040 055 040 120
  3686	033056	117 123 040 062 060
  3687	033057	051 040 124 101 113
  3688	033060	105 123 040 000 000
  3689						RADIX	8
DSKFA	DECSYSTEM 2020 INSTRUCTION TIMING TEST, VER 0,1 	MACRO %51(414) 10:09 21-APR-78 PAGE 85
DSKFAM	MAC	21-APR-78 10:06		DIAGNOSTIC SECTION                                                                 SEQ 0117

  3690	033061				E445:^
  3691
  3692					ENTR 446,<<LDB [POINT 7,TEMP,27]>>,LDB (7 BITS - POS 27) TAKES^
  3693			000003			XX=3
  3694						IRP
  3695	033061	135000	035016		IFG XX,<<LDB [POINT 7,TEMP,27]>	;INSTRUCTION SET TO BE TIMED>
  3696			000002			XX=XX-1
  3697
  3698						IFG	XX,<REPEAT XX,
  3699
  3700	033062	000000	000000			0			;NULL INSTRUCTION ENTRY
  3701
  3702	033063	000000	000000			0			;NULL INSTRUCTION ENTRY>
  3703	033064	000000	033071		TM446:	0+IFNB <LDB (7 BITS - POS 27) TAKES>,<EXP .+5>	;XWD TIME,LOCN OF MSG
  3704			000003			XX=3
  3705						IRP
  3706
  3707						IFG	XX,<REPEAT XX,
  3708
  3709	033065	000000	000000			0			;NULL CALCULATION ENTRY
  3710
  3711	033066	000000	000000			0			;NULL CALCULATION ENTRY
  3712
  3713	033067	000000	000000			0			;NULL CALCULATION ENTRY>
  3714						IF1 <ZZ=.>
  3715			033070			ZY=.
  3716	033070	000000	033100			XWD <IFNB <>,<1B18>+IFNB<>,<^D>>,IFN ZY-ZZ,<E446>	;NEXT ENTRY
  3717						RADIX	10
  3718						IFNB	<LDB (7 BITS - POS 27) TAKES>,<AUX \<XYZ=XYZ+1>,<LDB (7 BITS - POS 27) TAKE
  3719	033071	067 066 040 055 040 	S>>^ASCIZ !76 - LDB (7 BITS - POS 27) TAKES !^;MESSAGE
  3720	033072	114 104 102 040 050
  3721	033073	067 040 102 111 124
  3722	033074	123 040 055 040 120
  3723	033075	117 123 040 062 067
  3724	033076	051 040 124 101 113
  3725	033077	105 123 040 000 000
  3726						RADIX	8
DSKFA	DECSYSTEM 2020 INSTRUCTION TIMING TEST, VER 0,1 	MACRO %51(414) 10:09 21-APR-78 PAGE 86
DSKFAM	MAC	21-APR-78 10:06		DIAGNOSTIC SECTION                                                                 SEQ 0118

  3727	033100				E446:^
  3728
  3729					ENTR 447,<<LDB [POINT 7,TEMP,34]>>,LDB (7 BITS - POS 34) TAKES^
  3730			000003			XX=3
  3731						IRP
  3732	033100	135000	035017		IFG XX,<<LDB [POINT 7,TEMP,34]>	;INSTRUCTION SET TO BE TIMED>
  3733			000002			XX=XX-1
  3734
  3735						IFG	XX,<REPEAT XX,
  3736
  3737	033101	000000	000000			0			;NULL INSTRUCTION ENTRY
  3738
  3739	033102	000000	000000			0			;NULL INSTRUCTION ENTRY>
  3740	033103	000000	033110		TM447:	0+IFNB <LDB (7 BITS - POS 34) TAKES>,<EXP .+5>	;XWD TIME,LOCN OF MSG
  3741			000003			XX=3
  3742						IRP
  3743
  3744						IFG	XX,<REPEAT XX,
  3745
  3746	033104	000000	000000			0			;NULL CALCULATION ENTRY
  3747
  3748	033105	000000	000000			0			;NULL CALCULATION ENTRY
  3749
  3750	033106	000000	000000			0			;NULL CALCULATION ENTRY>
  3751						IF1 <ZZ=.>
  3752			033107			ZY=.
  3753	033107	000000	033117			XWD <IFNB <>,<1B18>+IFNB<>,<^D>>,IFN ZY-ZZ,<E447>	;NEXT ENTRY
  3754						RADIX	10
  3755						IFNB	<LDB (7 BITS - POS 34) TAKES>,<AUX \<XYZ=XYZ+1>,<LDB (7 BITS - POS 34) TAKE
  3756	033110	067 067 040 055 040 	S>>^ASCIZ !77 - LDB (7 BITS - POS 34) TAKES !^;MESSAGE
  3757	033111	114 104 102 040 050
  3758	033112	067 040 102 111 124
  3759	033113	123 040 055 040 120
  3760	033114	117 123 040 063 064
  3761	033115	051 040 124 101 113
  3762	033116	105 123 040 000 000
  3763						RADIX	8
DSKFA	DECSYSTEM 2020 INSTRUCTION TIMING TEST, VER 0,1 	MACRO %51(414) 10:09 21-APR-78 PAGE 87
DSKFAM	MAC	21-APR-78 10:06		DIAGNOSTIC SECTION                                                                 SEQ 0119

  3764	033117				E447:^
  3765
  3766					ENTR 448,<<DPB [POINT 7,TEMP,6]>>,DPB (7 BITS - POS 6) TAKES^
  3767			000003			XX=3
  3768						IRP
  3769	033117	137000	035012		IFG XX,<<DPB [POINT 7,TEMP,6]>	;INSTRUCTION SET TO BE TIMED>
  3770			000002			XX=XX-1
  3771
  3772						IFG	XX,<REPEAT XX,
  3773
  3774	033120	000000	000000			0			;NULL INSTRUCTION ENTRY
  3775
  3776	033121	000000	000000			0			;NULL INSTRUCTION ENTRY>
  3777	033122	000000	033127		TM448:	0+IFNB <DPB (7 BITS - POS 6) TAKES>,<EXP .+5>	;XWD TIME,LOCN OF MSG
  3778			000003			XX=3
  3779						IRP
  3780
  3781						IFG	XX,<REPEAT XX,
  3782
  3783	033123	000000	000000			0			;NULL CALCULATION ENTRY
  3784
  3785	033124	000000	000000			0			;NULL CALCULATION ENTRY
  3786
  3787	033125	000000	000000			0			;NULL CALCULATION ENTRY>
  3788						IF1 <ZZ=.>
  3789			033126			ZY=.
  3790	033126	000000	033136			XWD <IFNB <>,<1B18>+IFNB<>,<^D>>,IFN ZY-ZZ,<E448>	;NEXT ENTRY
  3791						RADIX	10
  3792						IFNB	<DPB (7 BITS - POS 6) TAKES>,<AUX \<XYZ=XYZ+1>,<DPB (7 BITS - POS 6) TAKES>
  3793	033127	067 070 040 055 040 	>^ASCIZ !78 - DPB (7 BITS - POS 6) TAKES !^;MESSAGE
  3794	033130	104 120 102 040 050
  3795	033131	067 040 102 111 124
  3796	033132	123 040 055 040 120
  3797	033133	117 123 040 066 051
  3798	033134	040 124 101 113 105
  3799	033135	123 040 000 000 000
  3800						RADIX	8
DSKFA	DECSYSTEM 2020 INSTRUCTION TIMING TEST, VER 0,1 	MACRO %51(414) 10:09 21-APR-78 PAGE 88
DSKFAM	MAC	21-APR-78 10:06		DIAGNOSTIC SECTION                                                                 SEQ 0120

  3801	033136				E448:^
  3802
  3803					ENTR 449,<<DPB [POINT 7,TEMP,13]>>,DPB (7 BITS - POS 13) TAKES^
  3804			000003			XX=3
  3805						IRP
  3806	033136	137000	035014		IFG XX,<<DPB [POINT 7,TEMP,13]>	;INSTRUCTION SET TO BE TIMED>
  3807			000002			XX=XX-1
  3808
  3809						IFG	XX,<REPEAT XX,
  3810
  3811	033137	000000	000000			0			;NULL INSTRUCTION ENTRY
  3812
  3813	033140	000000	000000			0			;NULL INSTRUCTION ENTRY>
  3814	033141	000000	033146		TM449:	0+IFNB <DPB (7 BITS - POS 13) TAKES>,<EXP .+5>	;XWD TIME,LOCN OF MSG
  3815			000003			XX=3
  3816						IRP
  3817
  3818						IFG	XX,<REPEAT XX,
  3819
  3820	033142	000000	000000			0			;NULL CALCULATION ENTRY
  3821
  3822	033143	000000	000000			0			;NULL CALCULATION ENTRY
  3823
  3824	033144	000000	000000			0			;NULL CALCULATION ENTRY>
  3825						IF1 <ZZ=.>
  3826			033145			ZY=.
  3827	033145	000000	033155			XWD <IFNB <>,<1B18>+IFNB<>,<^D>>,IFN ZY-ZZ,<E449>	;NEXT ENTRY
  3828						RADIX	10
  3829						IFNB	<DPB (7 BITS - POS 13) TAKES>,<AUX \<XYZ=XYZ+1>,<DPB (7 BITS - POS 13) TAKE
  3830	033146	067 071 040 055 040 	S>>^ASCIZ !79 - DPB (7 BITS - POS 13) TAKES !^;MESSAGE
  3831	033147	104 120 102 040 050
  3832	033150	067 040 102 111 124
  3833	033151	123 040 055 040 120
  3834	033152	117 123 040 061 063
  3835	033153	051 040 124 101 113
  3836	033154	105 123 040 000 000
  3837						RADIX	8
DSKFA	DECSYSTEM 2020 INSTRUCTION TIMING TEST, VER 0,1 	MACRO %51(414) 10:09 21-APR-78 PAGE 89
DSKFAM	MAC	21-APR-78 10:06		DIAGNOSTIC SECTION                                                                 SEQ 0121

  3838	033155				E449:^
  3839
  3840					ENTR 450,<<DPB [POINT 7,TEMP,20]>>,DPB (7 BITS - POS 20) TAKES^
  3841			000003			XX=3
  3842						IRP
  3843	033155	137000	035015		IFG XX,<<DPB [POINT 7,TEMP,20]>	;INSTRUCTION SET TO BE TIMED>
  3844			000002			XX=XX-1
  3845
  3846						IFG	XX,<REPEAT XX,
  3847
  3848	033156	000000	000000			0			;NULL INSTRUCTION ENTRY
  3849
  3850	033157	000000	000000			0			;NULL INSTRUCTION ENTRY>
  3851	033160	000000	033165		TM450:	0+IFNB <DPB (7 BITS - POS 20) TAKES>,<EXP .+5>	;XWD TIME,LOCN OF MSG
  3852			000003			XX=3
  3853						IRP
  3854
  3855						IFG	XX,<REPEAT XX,
  3856
  3857	033161	000000	000000			0			;NULL CALCULATION ENTRY
  3858
  3859	033162	000000	000000			0			;NULL CALCULATION ENTRY
  3860
  3861	033163	000000	000000			0			;NULL CALCULATION ENTRY>
  3862						IF1 <ZZ=.>
  3863			033164			ZY=.
  3864	033164	000000	033174			XWD <IFNB <>,<1B18>+IFNB<>,<^D>>,IFN ZY-ZZ,<E450>	;NEXT ENTRY
  3865						RADIX	10
  3866						IFNB	<DPB (7 BITS - POS 20) TAKES>,<AUX \<XYZ=XYZ+1>,<DPB (7 BITS - POS 20) TAKE
  3867	033165	070 060 040 055 040 	S>>^ASCIZ !80 - DPB (7 BITS - POS 20) TAKES !^;MESSAGE
  3868	033166	104 120 102 040 050
  3869	033167	067 040 102 111 124
  3870	033170	123 040 055 040 120
  3871	033171	117 123 040 062 060
  3872	033172	051 040 124 101 113
  3873	033173	105 123 040 000 000
  3874						RADIX	8
DSKFA	DECSYSTEM 2020 INSTRUCTION TIMING TEST, VER 0,1 	MACRO %51(414) 10:09 21-APR-78 PAGE 90
DSKFAM	MAC	21-APR-78 10:06		DIAGNOSTIC SECTION                                                                 SEQ 0122

  3875	033174				E450:^
  3876
  3877					ENTR 451,<<DPB [POINT 7,TEMP,27]>>,DPB (7 BITS - POS 27) TAKES^
  3878			000003			XX=3
  3879						IRP
  3880	033174	137000	035016		IFG XX,<<DPB [POINT 7,TEMP,27]>	;INSTRUCTION SET TO BE TIMED>
  3881			000002			XX=XX-1
  3882
  3883						IFG	XX,<REPEAT XX,
  3884
  3885	033175	000000	000000			0			;NULL INSTRUCTION ENTRY
  3886
  3887	033176	000000	000000			0			;NULL INSTRUCTION ENTRY>
  3888	033177	000000	033204		TM451:	0+IFNB <DPB (7 BITS - POS 27) TAKES>,<EXP .+5>	;XWD TIME,LOCN OF MSG
  3889			000003			XX=3
  3890						IRP
  3891
  3892						IFG	XX,<REPEAT XX,
  3893
  3894	033200	000000	000000			0			;NULL CALCULATION ENTRY
  3895
  3896	033201	000000	000000			0			;NULL CALCULATION ENTRY
  3897
  3898	033202	000000	000000			0			;NULL CALCULATION ENTRY>
  3899						IF1 <ZZ=.>
  3900			033203			ZY=.
  3901	033203	000000	033213			XWD <IFNB <>,<1B18>+IFNB<>,<^D>>,IFN ZY-ZZ,<E451>	;NEXT ENTRY
  3902						RADIX	10
  3903						IFNB	<DPB (7 BITS - POS 27) TAKES>,<AUX \<XYZ=XYZ+1>,<DPB (7 BITS - POS 27) TAKE
  3904	033204	070 061 040 055 040 	S>>^ASCIZ !81 - DPB (7 BITS - POS 27) TAKES !^;MESSAGE
  3905	033205	104 120 102 040 050
  3906	033206	067 040 102 111 124
  3907	033207	123 040 055 040 120
  3908	033210	117 123 040 062 067
  3909	033211	051 040 124 101 113
  3910	033212	105 123 040 000 000
  3911						RADIX	8
DSKFA	DECSYSTEM 2020 INSTRUCTION TIMING TEST, VER 0,1 	MACRO %51(414) 10:09 21-APR-78 PAGE 91
DSKFAM	MAC	21-APR-78 10:06		DIAGNOSTIC SECTION                                                                 SEQ 0123

  3912	033213				E451:^
  3913
  3914					ENTR 452,<<DPB [POINT 7,TEMP,34]>>,DPB (7 BITS - POS 34) TAKES^
  3915			000003			XX=3
  3916						IRP
  3917	033213	137000	035017		IFG XX,<<DPB [POINT 7,TEMP,34]>	;INSTRUCTION SET TO BE TIMED>
  3918			000002			XX=XX-1
  3919
  3920						IFG	XX,<REPEAT XX,
  3921
  3922	033214	000000	000000			0			;NULL INSTRUCTION ENTRY
  3923
  3924	033215	000000	000000			0			;NULL INSTRUCTION ENTRY>
  3925	033216	000000	033223		TM452:	0+IFNB <DPB (7 BITS - POS 34) TAKES>,<EXP .+5>	;XWD TIME,LOCN OF MSG
  3926			000003			XX=3
  3927						IRP
  3928
  3929						IFG	XX,<REPEAT XX,
  3930
  3931	033217	000000	000000			0			;NULL CALCULATION ENTRY
  3932
  3933	033220	000000	000000			0			;NULL CALCULATION ENTRY
  3934
  3935	033221	000000	000000			0			;NULL CALCULATION ENTRY>
  3936						IF1 <ZZ=.>
  3937			033222			ZY=.
  3938	033222	000000	033232			XWD <IFNB <>,<1B18>+IFNB<>,<^D>>,IFN ZY-ZZ,<E452>	;NEXT ENTRY
  3939						RADIX	10
  3940						IFNB	<DPB (7 BITS - POS 34) TAKES>,<AUX \<XYZ=XYZ+1>,<DPB (7 BITS - POS 34) TAKE
  3941	033223	070 062 040 055 040 	S>>^ASCIZ !82 - DPB (7 BITS - POS 34) TAKES !^;MESSAGE
  3942	033224	104 120 102 040 050
  3943	033225	067 040 102 111 124
  3944	033226	123 040 055 040 120
  3945	033227	117 123 040 063 064
  3946	033230	051 040 124 101 113
  3947	033231	105 123 040 000 000
  3948						RADIX	8
DSKFA	DECSYSTEM 2020 INSTRUCTION TIMING TEST, VER 0,1 	MACRO %51(414) 10:09 21-APR-78 PAGE 92
DSKFAM	MAC	21-APR-78 10:06		DIAGNOSTIC SECTION                                                                 SEQ 0124

  3949	033232				E452:^
  3950
  3951					ENTR 453,<<LDB [POINT 6,TEMP,5]>>,LDB (6 BITS - POS 5) TAKES^
  3952			000003			XX=3
  3953						IRP
  3954	033232	135000	035020		IFG XX,<<LDB [POINT 6,TEMP,5]>	;INSTRUCTION SET TO BE TIMED>
  3955			000002			XX=XX-1
  3956
  3957						IFG	XX,<REPEAT XX,
  3958
  3959	033233	000000	000000			0			;NULL INSTRUCTION ENTRY
  3960
  3961	033234	000000	000000			0			;NULL INSTRUCTION ENTRY>
  3962	033235	000000	033242		TM453:	0+IFNB <LDB (6 BITS - POS 5) TAKES>,<EXP .+5>	;XWD TIME,LOCN OF MSG
  3963			000003			XX=3
  3964						IRP
  3965
  3966						IFG	XX,<REPEAT XX,
  3967
  3968	033236	000000	000000			0			;NULL CALCULATION ENTRY
  3969
  3970	033237	000000	000000			0			;NULL CALCULATION ENTRY
  3971
  3972	033240	000000	000000			0			;NULL CALCULATION ENTRY>
  3973						IF1 <ZZ=.>
  3974			033241			ZY=.
  3975	033241	000000	033251			XWD <IFNB <>,<1B18>+IFNB<>,<^D>>,IFN ZY-ZZ,<E453>	;NEXT ENTRY
  3976						RADIX	10
  3977						IFNB	<LDB (6 BITS - POS 5) TAKES>,<AUX \<XYZ=XYZ+1>,<LDB (6 BITS - POS 5) TAKES>
  3978	033242	070 063 040 055 040 	>^ASCIZ !83 - LDB (6 BITS - POS 5) TAKES !^;MESSAGE
  3979	033243	114 104 102 040 050
  3980	033244	066 040 102 111 124
  3981	033245	123 040 055 040 120
  3982	033246	117 123 040 065 051
  3983	033247	040 124 101 113 105
  3984	033250	123 040 000 000 000
  3985						RADIX	8
DSKFA	DECSYSTEM 2020 INSTRUCTION TIMING TEST, VER 0,1 	MACRO %51(414) 10:09 21-APR-78 PAGE 93
DSKFAM	MAC	21-APR-78 10:06		DIAGNOSTIC SECTION                                                                 SEQ 0125

  3986	033251				E453:^
  3987
  3988					ENTR 454,<<LDB [POINT 6,TEMP,11]>>,LDB (6 BITS - POS 11) TAKES^
  3989			000003			XX=3
  3990						IRP
  3991	033251	135000	035021		IFG XX,<<LDB [POINT 6,TEMP,11]>	;INSTRUCTION SET TO BE TIMED>
  3992			000002			XX=XX-1
  3993
  3994						IFG	XX,<REPEAT XX,
  3995
  3996	033252	000000	000000			0			;NULL INSTRUCTION ENTRY
  3997
  3998	033253	000000	000000			0			;NULL INSTRUCTION ENTRY>
  3999	033254	000000	033261		TM454:	0+IFNB <LDB (6 BITS - POS 11) TAKES>,<EXP .+5>	;XWD TIME,LOCN OF MSG
  4000			000003			XX=3
  4001						IRP
  4002
  4003						IFG	XX,<REPEAT XX,
  4004
  4005	033255	000000	000000			0			;NULL CALCULATION ENTRY
  4006
  4007	033256	000000	000000			0			;NULL CALCULATION ENTRY
  4008
  4009	033257	000000	000000			0			;NULL CALCULATION ENTRY>
  4010						IF1 <ZZ=.>
  4011			033260			ZY=.
  4012	033260	000000	033270			XWD <IFNB <>,<1B18>+IFNB<>,<^D>>,IFN ZY-ZZ,<E454>	;NEXT ENTRY
  4013						RADIX	10
  4014						IFNB	<LDB (6 BITS - POS 11) TAKES>,<AUX \<XYZ=XYZ+1>,<LDB (6 BITS - POS 11) TAKE
  4015	033261	070 064 040 055 040 	S>>^ASCIZ !84 - LDB (6 BITS - POS 11) TAKES !^;MESSAGE
  4016	033262	114 104 102 040 050
  4017	033263	066 040 102 111 124
  4018	033264	123 040 055 040 120
  4019	033265	117 123 040 061 061
  4020	033266	051 040 124 101 113
  4021	033267	105 123 040 000 000
  4022						RADIX	8
DSKFA	DECSYSTEM 2020 INSTRUCTION TIMING TEST, VER 0,1 	MACRO %51(414) 10:09 21-APR-78 PAGE 94
DSKFAM	MAC	21-APR-78 10:06		DIAGNOSTIC SECTION                                                                 SEQ 0126

  4023	033270				E454:^
  4024
  4025					ENTR 455,<<LDB [POINT 6,TEMP,17]>>,LDB (6 BITS - POS 17) TAKES^
  4026			000003			XX=3
  4027						IRP
  4028	033270	135000	035022		IFG XX,<<LDB [POINT 6,TEMP,17]>	;INSTRUCTION SET TO BE TIMED>
  4029			000002			XX=XX-1
  4030
  4031						IFG	XX,<REPEAT XX,
  4032
  4033	033271	000000	000000			0			;NULL INSTRUCTION ENTRY
  4034
  4035	033272	000000	000000			0			;NULL INSTRUCTION ENTRY>
  4036	033273	000000	033300		TM455:	0+IFNB <LDB (6 BITS - POS 17) TAKES>,<EXP .+5>	;XWD TIME,LOCN OF MSG
  4037			000003			XX=3
  4038						IRP
  4039
  4040						IFG	XX,<REPEAT XX,
  4041
  4042	033274	000000	000000			0			;NULL CALCULATION ENTRY
  4043
  4044	033275	000000	000000			0			;NULL CALCULATION ENTRY
  4045
  4046	033276	000000	000000			0			;NULL CALCULATION ENTRY>
  4047						IF1 <ZZ=.>
  4048			033277			ZY=.
  4049	033277	000000	033307			XWD <IFNB <>,<1B18>+IFNB<>,<^D>>,IFN ZY-ZZ,<E455>	;NEXT ENTRY
  4050						RADIX	10
  4051						IFNB	<LDB (6 BITS - POS 17) TAKES>,<AUX \<XYZ=XYZ+1>,<LDB (6 BITS - POS 17) TAKE
  4052	033300	070 065 040 055 040 	S>>^ASCIZ !85 - LDB (6 BITS - POS 17) TAKES !^;MESSAGE
  4053	033301	114 104 102 040 050
  4054	033302	066 040 102 111 124
  4055	033303	123 040 055 040 120
  4056	033304	117 123 040 061 067
  4057	033305	051 040 124 101 113
  4058	033306	105 123 040 000 000
  4059						RADIX	8
DSKFA	DECSYSTEM 2020 INSTRUCTION TIMING TEST, VER 0,1 	MACRO %51(414) 10:09 21-APR-78 PAGE 95
DSKFAM	MAC	21-APR-78 10:06		DIAGNOSTIC SECTION                                                                 SEQ 0127

  4060	033307				E455:^
  4061
  4062					ENTR 456,<<LDB [POINT 6,TEMP,23]>>,LDB (6 BITS - POS 23) TAKES^
  4063			000003			XX=3
  4064						IRP
  4065	033307	135000	035023		IFG XX,<<LDB [POINT 6,TEMP,23]>	;INSTRUCTION SET TO BE TIMED>
  4066			000002			XX=XX-1
  4067
  4068						IFG	XX,<REPEAT XX,
  4069
  4070	033310	000000	000000			0			;NULL INSTRUCTION ENTRY
  4071
  4072	033311	000000	000000			0			;NULL INSTRUCTION ENTRY>
  4073	033312	000000	033317		TM456:	0+IFNB <LDB (6 BITS - POS 23) TAKES>,<EXP .+5>	;XWD TIME,LOCN OF MSG
  4074			000003			XX=3
  4075						IRP
  4076
  4077						IFG	XX,<REPEAT XX,
  4078
  4079	033313	000000	000000			0			;NULL CALCULATION ENTRY
  4080
  4081	033314	000000	000000			0			;NULL CALCULATION ENTRY
  4082
  4083	033315	000000	000000			0			;NULL CALCULATION ENTRY>
  4084						IF1 <ZZ=.>
  4085			033316			ZY=.
  4086	033316	000000	033326			XWD <IFNB <>,<1B18>+IFNB<>,<^D>>,IFN ZY-ZZ,<E456>	;NEXT ENTRY
  4087						RADIX	10
  4088						IFNB	<LDB (6 BITS - POS 23) TAKES>,<AUX \<XYZ=XYZ+1>,<LDB (6 BITS - POS 23) TAKE
  4089	033317	070 066 040 055 040 	S>>^ASCIZ !86 - LDB (6 BITS - POS 23) TAKES !^;MESSAGE
  4090	033320	114 104 102 040 050
  4091	033321	066 040 102 111 124
  4092	033322	123 040 055 040 120
  4093	033323	117 123 040 062 063
  4094	033324	051 040 124 101 113
  4095	033325	105 123 040 000 000
  4096						RADIX	8
DSKFA	DECSYSTEM 2020 INSTRUCTION TIMING TEST, VER 0,1 	MACRO %51(414) 10:09 21-APR-78 PAGE 96
DSKFAM	MAC	21-APR-78 10:06		DIAGNOSTIC SECTION                                                                 SEQ 0128

  4097	033326				E456:^
  4098
  4099					ENTR 457,<<LDB [POINT 6,TEMP,29]>>,LDB (6 BITS - POS 29) TAKES^
  4100			000003			XX=3
  4101						IRP
  4102	033326	135000	035024		IFG XX,<<LDB [POINT 6,TEMP,29]>	;INSTRUCTION SET TO BE TIMED>
  4103			000002			XX=XX-1
  4104
  4105						IFG	XX,<REPEAT XX,
  4106
  4107	033327	000000	000000			0			;NULL INSTRUCTION ENTRY
  4108
  4109	033330	000000	000000			0			;NULL INSTRUCTION ENTRY>
  4110	033331	000000	033336		TM457:	0+IFNB <LDB (6 BITS - POS 29) TAKES>,<EXP .+5>	;XWD TIME,LOCN OF MSG
  4111			000003			XX=3
  4112						IRP
  4113
  4114						IFG	XX,<REPEAT XX,
  4115
  4116	033332	000000	000000			0			;NULL CALCULATION ENTRY
  4117
  4118	033333	000000	000000			0			;NULL CALCULATION ENTRY
  4119
  4120	033334	000000	000000			0			;NULL CALCULATION ENTRY>
  4121						IF1 <ZZ=.>
  4122			033335			ZY=.
  4123	033335	000000	033345			XWD <IFNB <>,<1B18>+IFNB<>,<^D>>,IFN ZY-ZZ,<E457>	;NEXT ENTRY
  4124						RADIX	10
  4125						IFNB	<LDB (6 BITS - POS 29) TAKES>,<AUX \<XYZ=XYZ+1>,<LDB (6 BITS - POS 29) TAKE
  4126	033336	070 067 040 055 040 	S>>^ASCIZ !87 - LDB (6 BITS - POS 29) TAKES !^;MESSAGE
  4127	033337	114 104 102 040 050
  4128	033340	066 040 102 111 124
  4129	033341	123 040 055 040 120
  4130	033342	117 123 040 062 071
  4131	033343	051 040 124 101 113
  4132	033344	105 123 040 000 000
  4133						RADIX	8
DSKFA	DECSYSTEM 2020 INSTRUCTION TIMING TEST, VER 0,1 	MACRO %51(414) 10:09 21-APR-78 PAGE 97
DSKFAM	MAC	21-APR-78 10:06		DIAGNOSTIC SECTION                                                                 SEQ 0129

  4134	033345				E457:^
  4135
  4136					ENTR 458,<<LDB [POINT 6,TEMP,35]>>,LDB (6 BITS - POS 35) TAKES^
  4137			000003			XX=3
  4138						IRP
  4139	033345	135000	035025		IFG XX,<<LDB [POINT 6,TEMP,35]>	;INSTRUCTION SET TO BE TIMED>
  4140			000002			XX=XX-1
  4141
  4142						IFG	XX,<REPEAT XX,
  4143
  4144	033346	000000	000000			0			;NULL INSTRUCTION ENTRY
  4145
  4146	033347	000000	000000			0			;NULL INSTRUCTION ENTRY>
  4147	033350	000000	033355		TM458:	0+IFNB <LDB (6 BITS - POS 35) TAKES>,<EXP .+5>	;XWD TIME,LOCN OF MSG
  4148			000003			XX=3
  4149						IRP
  4150
  4151						IFG	XX,<REPEAT XX,
  4152
  4153	033351	000000	000000			0			;NULL CALCULATION ENTRY
  4154
  4155	033352	000000	000000			0			;NULL CALCULATION ENTRY
  4156
  4157	033353	000000	000000			0			;NULL CALCULATION ENTRY>
  4158						IF1 <ZZ=.>
  4159			033354			ZY=.
  4160	033354	000000	033364			XWD <IFNB <>,<1B18>+IFNB<>,<^D>>,IFN ZY-ZZ,<E458>	;NEXT ENTRY
  4161						RADIX	10
  4162						IFNB	<LDB (6 BITS - POS 35) TAKES>,<AUX \<XYZ=XYZ+1>,<LDB (6 BITS - POS 35) TAKE
  4163	033355	070 070 040 055 040 	S>>^ASCIZ !88 - LDB (6 BITS - POS 35) TAKES !^;MESSAGE
  4164	033356	114 104 102 040 050
  4165	033357	066 040 102 111 124
  4166	033360	123 040 055 040 120
  4167	033361	117 123 040 063 065
  4168	033362	051 040 124 101 113
  4169	033363	105 123 040 000 000
  4170						RADIX	8
DSKFA	DECSYSTEM 2020 INSTRUCTION TIMING TEST, VER 0,1 	MACRO %51(414) 10:09 21-APR-78 PAGE 98
DSKFAM	MAC	21-APR-78 10:06		DIAGNOSTIC SECTION                                                                 SEQ 0130

  4171	033364				E458:^
  4172
  4173					ENTR 459,<<DPB [POINT 6,TEMP,5]>>,DPB (6 BITS - POS 5) TAKES^
  4174			000003			XX=3
  4175						IRP
  4176	033364	137000	035020		IFG XX,<<DPB [POINT 6,TEMP,5]>	;INSTRUCTION SET TO BE TIMED>
  4177			000002			XX=XX-1
  4178
  4179						IFG	XX,<REPEAT XX,
  4180
  4181	033365	000000	000000			0			;NULL INSTRUCTION ENTRY
  4182
  4183	033366	000000	000000			0			;NULL INSTRUCTION ENTRY>
  4184	033367	000000	033374		TM459:	0+IFNB <DPB (6 BITS - POS 5) TAKES>,<EXP .+5>	;XWD TIME,LOCN OF MSG
  4185			000003			XX=3
  4186						IRP
  4187
  4188						IFG	XX,<REPEAT XX,
  4189
  4190	033370	000000	000000			0			;NULL CALCULATION ENTRY
  4191
  4192	033371	000000	000000			0			;NULL CALCULATION ENTRY
  4193
  4194	033372	000000	000000			0			;NULL CALCULATION ENTRY>
  4195						IF1 <ZZ=.>
  4196			033373			ZY=.
  4197	033373	000000	033403			XWD <IFNB <>,<1B18>+IFNB<>,<^D>>,IFN ZY-ZZ,<E459>	;NEXT ENTRY
  4198						RADIX	10
  4199						IFNB	<DPB (6 BITS - POS 5) TAKES>,<AUX \<XYZ=XYZ+1>,<DPB (6 BITS - POS 5) TAKES>
  4200	033374	070 071 040 055 040 	>^ASCIZ !89 - DPB (6 BITS - POS 5) TAKES !^;MESSAGE
  4201	033375	104 120 102 040 050
  4202	033376	066 040 102 111 124
  4203	033377	123 040 055 040 120
  4204	033400	117 123 040 065 051
  4205	033401	040 124 101 113 105
  4206	033402	123 040 000 000 000
  4207						RADIX	8
DSKFA	DECSYSTEM 2020 INSTRUCTION TIMING TEST, VER 0,1 	MACRO %51(414) 10:09 21-APR-78 PAGE 99
DSKFAM	MAC	21-APR-78 10:06		DIAGNOSTIC SECTION                                                                 SEQ 0131

  4208	033403				E459:^
  4209
  4210					ENTR 460,<<DPB [POINT 6,TEMP,11]>>,DPB (6 BITS - POS 11) TAKES^
  4211			000003			XX=3
  4212						IRP
  4213	033403	137000	035021		IFG XX,<<DPB [POINT 6,TEMP,11]>	;INSTRUCTION SET TO BE TIMED>
  4214			000002			XX=XX-1
  4215
  4216						IFG	XX,<REPEAT XX,
  4217
  4218	033404	000000	000000			0			;NULL INSTRUCTION ENTRY
  4219
  4220	033405	000000	000000			0			;NULL INSTRUCTION ENTRY>
  4221	033406	000000	033413		TM460:	0+IFNB <DPB (6 BITS - POS 11) TAKES>,<EXP .+5>	;XWD TIME,LOCN OF MSG
  4222			000003			XX=3
  4223						IRP
  4224
  4225						IFG	XX,<REPEAT XX,
  4226
  4227	033407	000000	000000			0			;NULL CALCULATION ENTRY
  4228
  4229	033410	000000	000000			0			;NULL CALCULATION ENTRY
  4230
  4231	033411	000000	000000			0			;NULL CALCULATION ENTRY>
  4232						IF1 <ZZ=.>
  4233			033412			ZY=.
  4234	033412	000000	033422			XWD <IFNB <>,<1B18>+IFNB<>,<^D>>,IFN ZY-ZZ,<E460>	;NEXT ENTRY
  4235						RADIX	10
  4236						IFNB	<DPB (6 BITS - POS 11) TAKES>,<AUX \<XYZ=XYZ+1>,<DPB (6 BITS - POS 11) TAKE
  4237	033413	071 060 040 055 040 	S>>^ASCIZ !90 - DPB (6 BITS - POS 11) TAKES !^;MESSAGE
  4238	033414	104 120 102 040 050
  4239	033415	066 040 102 111 124
  4240	033416	123 040 055 040 120
  4241	033417	117 123 040 061 061
  4242	033420	051 040 124 101 113
  4243	033421	105 123 040 000 000
  4244						RADIX	8
DSKFA	DECSYSTEM 2020 INSTRUCTION TIMING TEST, VER 0,1 	MACRO %51(414) 10:09 21-APR-78 PAGE 100
DSKFAM	MAC	21-APR-78 10:06		DIAGNOSTIC SECTION                                                                 SEQ 0132

  4245	033422				E460:^
  4246
  4247					ENTR 461,<<DPB [POINT 6,TEMP,17]>>,DPB (6 BITS - POS 17) TAKES^
  4248			000003			XX=3
  4249						IRP
  4250	033422	137000	035022		IFG XX,<<DPB [POINT 6,TEMP,17]>	;INSTRUCTION SET TO BE TIMED>
  4251			000002			XX=XX-1
  4252
  4253						IFG	XX,<REPEAT XX,
  4254
  4255	033423	000000	000000			0			;NULL INSTRUCTION ENTRY
  4256
  4257	033424	000000	000000			0			;NULL INSTRUCTION ENTRY>
  4258	033425	000000	033432		TM461:	0+IFNB <DPB (6 BITS - POS 17) TAKES>,<EXP .+5>	;XWD TIME,LOCN OF MSG
  4259			000003			XX=3
  4260						IRP
  4261
  4262						IFG	XX,<REPEAT XX,
  4263
  4264	033426	000000	000000			0			;NULL CALCULATION ENTRY
  4265
  4266	033427	000000	000000			0			;NULL CALCULATION ENTRY
  4267
  4268	033430	000000	000000			0			;NULL CALCULATION ENTRY>
  4269						IF1 <ZZ=.>
  4270			033431			ZY=.
  4271	033431	000000	033441			XWD <IFNB <>,<1B18>+IFNB<>,<^D>>,IFN ZY-ZZ,<E461>	;NEXT ENTRY
  4272						RADIX	10
  4273						IFNB	<DPB (6 BITS - POS 17) TAKES>,<AUX \<XYZ=XYZ+1>,<DPB (6 BITS - POS 17) TAKE
  4274	033432	071 061 040 055 040 	S>>^ASCIZ !91 - DPB (6 BITS - POS 17) TAKES !^;MESSAGE
  4275	033433	104 120 102 040 050
  4276	033434	066 040 102 111 124
  4277	033435	123 040 055 040 120
  4278	033436	117 123 040 061 067
  4279	033437	051 040 124 101 113
  4280	033440	105 123 040 000 000
  4281						RADIX	8
DSKFA	DECSYSTEM 2020 INSTRUCTION TIMING TEST, VER 0,1 	MACRO %51(414) 10:09 21-APR-78 PAGE 101
DSKFAM	MAC	21-APR-78 10:06		DIAGNOSTIC SECTION                                                                 SEQ 0133

  4282	033441				E461:^
  4283
  4284					ENTR 462,<<DPB [POINT 6,TEMP,23]>>,DPB (6 BITS - POS 23) TAKES^
  4285			000003			XX=3
  4286						IRP
  4287	033441	137000	035023		IFG XX,<<DPB [POINT 6,TEMP,23]>	;INSTRUCTION SET TO BE TIMED>
  4288			000002			XX=XX-1
  4289
  4290						IFG	XX,<REPEAT XX,
  4291
  4292	033442	000000	000000			0			;NULL INSTRUCTION ENTRY
  4293
  4294	033443	000000	000000			0			;NULL INSTRUCTION ENTRY>
  4295	033444	000000	033451		TM462:	0+IFNB <DPB (6 BITS - POS 23) TAKES>,<EXP .+5>	;XWD TIME,LOCN OF MSG
  4296			000003			XX=3
  4297						IRP
  4298
  4299						IFG	XX,<REPEAT XX,
  4300
  4301	033445	000000	000000			0			;NULL CALCULATION ENTRY
  4302
  4303	033446	000000	000000			0			;NULL CALCULATION ENTRY
  4304
  4305	033447	000000	000000			0			;NULL CALCULATION ENTRY>
  4306						IF1 <ZZ=.>
  4307			033450			ZY=.
  4308	033450	000000	033460			XWD <IFNB <>,<1B18>+IFNB<>,<^D>>,IFN ZY-ZZ,<E462>	;NEXT ENTRY
  4309						RADIX	10
  4310						IFNB	<DPB (6 BITS - POS 23) TAKES>,<AUX \<XYZ=XYZ+1>,<DPB (6 BITS - POS 23) TAKE
  4311	033451	071 062 040 055 040 	S>>^ASCIZ !92 - DPB (6 BITS - POS 23) TAKES !^;MESSAGE
  4312	033452	104 120 102 040 050
  4313	033453	066 040 102 111 124
  4314	033454	123 040 055 040 120
  4315	033455	117 123 040 062 063
  4316	033456	051 040 124 101 113
  4317	033457	105 123 040 000 000
  4318						RADIX	8
DSKFA	DECSYSTEM 2020 INSTRUCTION TIMING TEST, VER 0,1 	MACRO %51(414) 10:09 21-APR-78 PAGE 102
DSKFAM	MAC	21-APR-78 10:06		DIAGNOSTIC SECTION                                                                 SEQ 0134

  4319	033460				E462:^
  4320
  4321					ENTR 463,<<DPB [POINT 6,TEMP,29]>>,DPB (6 BITS - POS 29) TAKES^
  4322			000003			XX=3
  4323						IRP
  4324	033460	137000	035024		IFG XX,<<DPB [POINT 6,TEMP,29]>	;INSTRUCTION SET TO BE TIMED>
  4325			000002			XX=XX-1
  4326
  4327						IFG	XX,<REPEAT XX,
  4328
  4329	033461	000000	000000			0			;NULL INSTRUCTION ENTRY
  4330
  4331	033462	000000	000000			0			;NULL INSTRUCTION ENTRY>
  4332	033463	000000	033470		TM463:	0+IFNB <DPB (6 BITS - POS 29) TAKES>,<EXP .+5>	;XWD TIME,LOCN OF MSG
  4333			000003			XX=3
  4334						IRP
  4335
  4336						IFG	XX,<REPEAT XX,
  4337
  4338	033464	000000	000000			0			;NULL CALCULATION ENTRY
  4339
  4340	033465	000000	000000			0			;NULL CALCULATION ENTRY
  4341
  4342	033466	000000	000000			0			;NULL CALCULATION ENTRY>
  4343						IF1 <ZZ=.>
  4344			033467			ZY=.
  4345	033467	000000	033477			XWD <IFNB <>,<1B18>+IFNB<>,<^D>>,IFN ZY-ZZ,<E463>	;NEXT ENTRY
  4346						RADIX	10
  4347						IFNB	<DPB (6 BITS - POS 29) TAKES>,<AUX \<XYZ=XYZ+1>,<DPB (6 BITS - POS 29) TAKE
  4348	033470	071 063 040 055 040 	S>>^ASCIZ !93 - DPB (6 BITS - POS 29) TAKES !^;MESSAGE
  4349	033471	104 120 102 040 050
  4350	033472	066 040 102 111 124
  4351	033473	123 040 055 040 120
  4352	033474	117 123 040 062 071
  4353	033475	051 040 124 101 113
  4354	033476	105 123 040 000 000
  4355						RADIX	8
DSKFA	DECSYSTEM 2020 INSTRUCTION TIMING TEST, VER 0,1 	MACRO %51(414) 10:09 21-APR-78 PAGE 103
DSKFAM	MAC	21-APR-78 10:06		DIAGNOSTIC SECTION                                                                 SEQ 0135

  4356	033477				E463:^
  4357
  4358					ENTR 464,<<DPB [POINT 6,TEMP,35]>>,DPB (6 BITS - POS 35) TAKES^
  4359			000003			XX=3
  4360						IRP
  4361	033477	137000	035025		IFG XX,<<DPB [POINT 6,TEMP,35]>	;INSTRUCTION SET TO BE TIMED>
  4362			000002			XX=XX-1
  4363
  4364						IFG	XX,<REPEAT XX,
  4365
  4366	033500	000000	000000			0			;NULL INSTRUCTION ENTRY
  4367
  4368	033501	000000	000000			0			;NULL INSTRUCTION ENTRY>
  4369	033502	000000	033507		TM464:	0+IFNB <DPB (6 BITS - POS 35) TAKES>,<EXP .+5>	;XWD TIME,LOCN OF MSG
  4370			000003			XX=3
  4371						IRP
  4372
  4373						IFG	XX,<REPEAT XX,
  4374
  4375	033503	000000	000000			0			;NULL CALCULATION ENTRY
  4376
  4377	033504	000000	000000			0			;NULL CALCULATION ENTRY
  4378
  4379	033505	000000	000000			0			;NULL CALCULATION ENTRY>
  4380						IF1 <ZZ=.>
  4381			033506			ZY=.
  4382	033506	000000	033516			XWD <IFNB <>,<1B18>+IFNB<>,<^D>>,IFN ZY-ZZ,<E464>	;NEXT ENTRY
  4383						RADIX	10
  4384						IFNB	<DPB (6 BITS - POS 35) TAKES>,<AUX \<XYZ=XYZ+1>,<DPB (6 BITS - POS 35) TAKE
  4385	033507	071 064 040 055 040 	S>>^ASCIZ !94 - DPB (6 BITS - POS 35) TAKES !^;MESSAGE
  4386	033510	104 120 102 040 050
  4387	033511	066 040 102 111 124
  4388	033512	123 040 055 040 120
  4389	033513	117 123 040 063 065
  4390	033514	051 040 124 101 113
  4391	033515	105 123 040 000 000
  4392						RADIX	8
DSKFA	DECSYSTEM 2020 INSTRUCTION TIMING TEST, VER 0,1 	MACRO %51(414) 10:09 21-APR-78 PAGE 104
DSKFAM	MAC	21-APR-78 10:06		DIAGNOSTIC SECTION                                                                 SEQ 0136

  4393	033516				E464:^
  4394
  4395					ENTR 46,JFCL,JFCL TAKES^
  4396			000003			XX=3
  4397						IRP
  4398	033516	255 00 0 00 000000 	IFG XX,<JFCL	;INSTRUCTION SET TO BE TIMED>
  4399			000002			XX=XX-1
  4400
  4401						IFG	XX,<REPEAT XX,
  4402
  4403	033517	000000	000000			0			;NULL INSTRUCTION ENTRY
  4404
  4405	033520	000000	000000			0			;NULL INSTRUCTION ENTRY>
  4406	033521	000000	033526		TM46:	0+IFNB <JFCL TAKES>,<EXP .+5>	;XWD TIME,LOCN OF MSG
  4407			000003			XX=3
  4408						IRP
  4409
  4410						IFG	XX,<REPEAT XX,
  4411
  4412	033522	000000	000000			0			;NULL CALCULATION ENTRY
  4413
  4414	033523	000000	000000			0			;NULL CALCULATION ENTRY
  4415
  4416	033524	000000	000000			0			;NULL CALCULATION ENTRY>
  4417						IF1 <ZZ=.>
  4418			033525			ZY=.
  4419	033525	000000	033532			XWD <IFNB <>,<1B18>+IFNB<>,<^D>>,IFN ZY-ZZ,<E46>	;NEXT ENTRY
  4420						RADIX	10
  4421						IFNB	<JFCL TAKES>,<AUX \<XYZ=XYZ+1>,<JFCL TAKES>>^ASCIZ !95 - JFCL TAKES !^;MESS
  4422	033526	071 065 040 055 040 	AGE
  4423	033527	112 106 103 114 040
  4424	033530	124 101 113 105 123
  4425	033531	040 000 000 000 000
  4426						RADIX	8
DSKFA	DECSYSTEM 2020 INSTRUCTION TIMING TEST, VER 0,1 	MACRO %51(414) 10:09 21-APR-78 PAGE 105
DSKFAM	MAC	21-APR-78 10:06		DIAGNOSTIC SECTION                                                                 SEQ 0137

  4427	033532				E46:^
  4428
  4429					ENTR 47,CAI,CAI NO-OP TAKES^
  4430			000003			XX=3
  4431						IRP
  4432	033532	300 00 0 00 000000 	IFG XX,<CAI	;INSTRUCTION SET TO BE TIMED>
  4433			000002			XX=XX-1
  4434
  4435						IFG	XX,<REPEAT XX,
  4436
  4437	033533	000000	000000			0			;NULL INSTRUCTION ENTRY
  4438
  4439	033534	000000	000000			0			;NULL INSTRUCTION ENTRY>
  4440	033535	000000	033542		TM47:	0+IFNB <CAI NO-OP TAKES>,<EXP .+5>	;XWD TIME,LOCN OF MSG
  4441			000003			XX=3
  4442						IRP
  4443
  4444						IFG	XX,<REPEAT XX,
  4445
  4446	033536	000000	000000			0			;NULL CALCULATION ENTRY
  4447
  4448	033537	000000	000000			0			;NULL CALCULATION ENTRY
  4449
  4450	033540	000000	000000			0			;NULL CALCULATION ENTRY>
  4451						IF1 <ZZ=.>
  4452			033541			ZY=.
  4453	033541	000000	033547			XWD <IFNB <>,<1B18>+IFNB<>,<^D>>,IFN ZY-ZZ,<E47>	;NEXT ENTRY
  4454						RADIX	10
  4455						IFNB	<CAI NO-OP TAKES>,<AUX \<XYZ=XYZ+1>,<CAI NO-OP TAKES>>^ASCIZ !96 - CAI NO-O
  4456	033542	071 066 040 055 040 	P TAKES !^;MESSAGE
  4457	033543	103 101 111 040 116
  4458	033544	117 055 117 120 040
  4459	033545	124 101 113 105 123
  4460	033546	040 000 000 000 000
  4461						RADIX	8
DSKFA	DECSYSTEM 2020 INSTRUCTION TIMING TEST, VER 0,1 	MACRO %51(414) 10:09 21-APR-78 PAGE 106
DSKFAM	MAC	21-APR-78 10:06		DIAGNOSTIC SECTION                                                                 SEQ 0138

  4462	033547				E47:^
  4463
  4464					ENTR 471,<<CAIN 3,0>>,CAI THAT DOESN'T SKIP TAKES^
  4465			000003			XX=3
  4466						IRP
  4467	033547	306140	000000		IFG XX,<<CAIN 3,0>	;INSTRUCTION SET TO BE TIMED>
  4468			000002			XX=XX-1
  4469
  4470						IFG	XX,<REPEAT XX,
  4471
  4472	033550	000000	000000			0			;NULL INSTRUCTION ENTRY
  4473
  4474	033551	000000	000000			0			;NULL INSTRUCTION ENTRY>
  4475	033552	000000	033557		TM471:	0+IFNB <CAI THAT DOESN'T SKIP TAKES>,<EXP .+5>	;XWD TIME,LOCN OF MSG
  4476			000003			XX=3
  4477						IRP
  4478
  4479						IFG	XX,<REPEAT XX,
  4480
  4481	033553	000000	000000			0			;NULL CALCULATION ENTRY
  4482
  4483	033554	000000	000000			0			;NULL CALCULATION ENTRY
  4484
  4485	033555	000000	000000			0			;NULL CALCULATION ENTRY>
  4486						IF1 <ZZ=.>
  4487			033556			ZY=.
  4488	033556	000000	033566			XWD <IFNB <>,<1B18>+IFNB<>,<^D>>,IFN ZY-ZZ,<E471>	;NEXT ENTRY
  4489						RADIX	10
  4490						IFNB	<CAI THAT DOESN'T SKIP TAKES>,<AUX \<XYZ=XYZ+1>,<CAI THAT DOESN'T SKIP TAKE
  4491	033557	071 067 040 055 040 	S>>^ASCIZ !97 - CAI THAT DOESN'T SKIP TAKES !^;MESSAGE
  4492	033560	103 101 111 040 124
  4493	033561	110 101 124 040 104
  4494	033562	117 105 123 116 047
  4495	033563	124 040 123 113 111
  4496	033564	120 040 124 101 113
  4497	033565	105 123 040 000 000
  4498						RADIX	8
DSKFA	DECSYSTEM 2020 INSTRUCTION TIMING TEST, VER 0,1 	MACRO %51(414) 10:09 21-APR-78 PAGE 107
DSKFAM	MAC	21-APR-78 10:06		DIAGNOSTIC SECTION                                                                 SEQ 0139

  4499	033566				E471:^
  4500
  4501					ENTR 472,<<CAIE 3,0>,1>,CAI THAT SKIPS TAKES^
  4502			000003			XX=3
  4503						IRP
  4504	033566	302140	000000		IFG XX,<<CAIE 3,0>	;INSTRUCTION SET TO BE TIMED>
  4505			000002			XX=XX-1
  4506	033567	000000	000001		IFG XX,<1	;INSTRUCTION SET TO BE TIMED>
  4507			000001			XX=XX-1
  4508
  4509						IFG	XX,<REPEAT XX,<
  4510	033570	000000	000000			0			;NULL INSTRUCTION ENTRY>>
  4511	033571	000000	033576		TM472:	0+IFNB <CAI THAT SKIPS TAKES>,<EXP .+5>	;XWD TIME,LOCN OF MSG
  4512			000003			XX=3
  4513						IRP
  4514
  4515						IFG	XX,<REPEAT XX,
  4516
  4517	033572	000000	000000			0			;NULL CALCULATION ENTRY
  4518
  4519	033573	000000	000000			0			;NULL CALCULATION ENTRY
  4520
  4521	033574	000000	000000			0			;NULL CALCULATION ENTRY>
  4522						IF1 <ZZ=.>
  4523			033575			ZY=.
  4524	033575	000000	033604			XWD <IFNB <>,<1B18>+IFNB<>,<^D>>,IFN ZY-ZZ,<E472>	;NEXT ENTRY
  4525						RADIX	10
  4526						IFNB	<CAI THAT SKIPS TAKES>,<AUX \<XYZ=XYZ+1>,<CAI THAT SKIPS TAKES>>^ASCIZ !98
  4527	033576	071 070 040 055 040 	- CAI THAT SKIPS TAKES !^;MESSAGE
  4528	033577	103 101 111 040 124
  4529	033600	110 101 124 040 123
  4530	033601	113 111 120 123 040
  4531	033602	124 101 113 105 123
  4532	033603	040 000 000 000 000
  4533						RADIX	8
DSKFA	DECSYSTEM 2020 INSTRUCTION TIMING TEST, VER 0,1 	MACRO %51(414) 10:09 21-APR-78 PAGE 108
DSKFAM	MAC	21-APR-78 10:06		DIAGNOSTIC SECTION                                                                 SEQ 0140

  4534	033604				E472:^
  4535
  4536					ENTR 473,CAM,CAM NO-OP TO AC TAKES^
  4537			000003			XX=3
  4538						IRP
  4539	033604	310 00 0 00 000000 	IFG XX,<CAM	;INSTRUCTION SET TO BE TIMED>
  4540			000002			XX=XX-1
  4541
  4542						IFG	XX,<REPEAT XX,
  4543
  4544	033605	000000	000000			0			;NULL INSTRUCTION ENTRY
  4545
  4546	033606	000000	000000			0			;NULL INSTRUCTION ENTRY>
  4547	033607	000000	033614		TM473:	0+IFNB <CAM NO-OP TO AC TAKES>,<EXP .+5>	;XWD TIME,LOCN OF MSG
  4548			000003			XX=3
  4549						IRP
  4550
  4551						IFG	XX,<REPEAT XX,
  4552
  4553	033610	000000	000000			0			;NULL CALCULATION ENTRY
  4554
  4555	033611	000000	000000			0			;NULL CALCULATION ENTRY
  4556
  4557	033612	000000	000000			0			;NULL CALCULATION ENTRY>
  4558						IF1 <ZZ=.>
  4559			033613			ZY=.
  4560	033613	000000	033622			XWD <IFNB <>,<1B18>+IFNB<>,<^D>>,IFN ZY-ZZ,<E473>	;NEXT ENTRY
  4561						RADIX	10
  4562						IFNB	<CAM NO-OP TO AC TAKES>,<AUX \<XYZ=XYZ+1>,<CAM NO-OP TO AC TAKES>>^ASCIZ !9
  4563	033614	071 071 040 055 040 	9 - CAM NO-OP TO AC TAKES !^;MESSAGE
  4564	033615	103 101 115 040 116
  4565	033616	117 055 117 120 040
  4566	033617	124 117 040 101 103
  4567	033620	040 124 101 113 105
  4568	033621	123 040 000 000 000
  4569						RADIX	8
DSKFA	DECSYSTEM 2020 INSTRUCTION TIMING TEST, VER 0,1 	MACRO %51(414) 10:09 21-APR-78 PAGE 109
DSKFAM	MAC	21-APR-78 10:06		DIAGNOSTIC SECTION                                                                 SEQ 0141

  4570	033622				E473:^
  4571
  4572					ENTR 474,<<CAMN 3,3>>,CAM TO AC THAT DOESN'T SKIP TAKES^
  4573			000003			XX=3
  4574						IRP
  4575	033622	316140	000003		IFG XX,<<CAMN 3,3>	;INSTRUCTION SET TO BE TIMED>
  4576			000002			XX=XX-1
  4577
  4578						IFG	XX,<REPEAT XX,
  4579
  4580	033623	000000	000000			0			;NULL INSTRUCTION ENTRY
  4581
  4582	033624	000000	000000			0			;NULL INSTRUCTION ENTRY>
  4583	033625	000000	033632		TM474:	0+IFNB <CAM TO AC THAT DOESN'T SKIP TAKES>,<EXP .+5>	;XWD TIME,LOCN OF MSG
  4584			000003			XX=3
  4585						IRP
  4586
  4587						IFG	XX,<REPEAT XX,
  4588
  4589	033626	000000	000000			0			;NULL CALCULATION ENTRY
  4590
  4591	033627	000000	000000			0			;NULL CALCULATION ENTRY
  4592
  4593	033630	000000	000000			0			;NULL CALCULATION ENTRY>
  4594						IF1 <ZZ=.>
  4595			033631			ZY=.
  4596	033631	000000	033643			XWD <IFNB <>,<1B18>+IFNB<>,<^D>>,IFN ZY-ZZ,<E474>	;NEXT ENTRY
  4597						RADIX	10
  4598						IFNB	<CAM TO AC THAT DOESN'T SKIP TAKES>,<AUX \<XYZ=XYZ+1>,<CAM TO AC THAT DOESN
  4599	033632	061 060 060 040 055 	'T SKIP TAKES>>^ASCIZ !100 - CAM TO AC THAT DOESN'T SKIP TAKES !^;MESSAGE
  4600	033633	040 103 101 115 040
  4601	033634	124 117 040 101 103
  4602	033635	040 124 110 101 124
  4603	033636	040 104 117 105 123
  4604	033637	116 047 124 040 123
  4605	033640	113 111 120 040 124
  4606	033641	101 113 105 123 040
  4607	033642	000 000 000 000 000
  4608						RADIX	8
DSKFA	DECSYSTEM 2020 INSTRUCTION TIMING TEST, VER 0,1 	MACRO %51(414) 10:09 21-APR-78 PAGE 110
DSKFAM	MAC	21-APR-78 10:06		DIAGNOSTIC SECTION                                                                 SEQ 0142

  4609	033643				E474:^
  4610
  4611					ENTR 475,<<CAME 3,3>,1>,CAM TO AC THAT SKIPS TAKES^
  4612			000003			XX=3
  4613						IRP
  4614	033643	312140	000003		IFG XX,<<CAME 3,3>	;INSTRUCTION SET TO BE TIMED>
  4615			000002			XX=XX-1
  4616	033644	000000	000001		IFG XX,<1	;INSTRUCTION SET TO BE TIMED>
  4617			000001			XX=XX-1
  4618
  4619						IFG	XX,<REPEAT XX,<
  4620	033645	000000	000000			0			;NULL INSTRUCTION ENTRY>>
  4621	033646	000000	033653		TM475:	0+IFNB <CAM TO AC THAT SKIPS TAKES>,<EXP .+5>	;XWD TIME,LOCN OF MSG
  4622			000003			XX=3
  4623						IRP
  4624
  4625						IFG	XX,<REPEAT XX,
  4626
  4627	033647	000000	000000			0			;NULL CALCULATION ENTRY
  4628
  4629	033650	000000	000000			0			;NULL CALCULATION ENTRY
  4630
  4631	033651	000000	000000			0			;NULL CALCULATION ENTRY>
  4632						IF1 <ZZ=.>
  4633			033652			ZY=.
  4634	033652	000000	033662			XWD <IFNB <>,<1B18>+IFNB<>,<^D>>,IFN ZY-ZZ,<E475>	;NEXT ENTRY
  4635						RADIX	10
  4636						IFNB	<CAM TO AC THAT SKIPS TAKES>,<AUX \<XYZ=XYZ+1>,<CAM TO AC THAT SKIPS TAKES>
  4637	033653	061 060 061 040 055 	>^ASCIZ !101 - CAM TO AC THAT SKIPS TAKES !^;MESSAGE
  4638	033654	040 103 101 115 040
  4639	033655	124 117 040 101 103
  4640	033656	040 124 110 101 124
  4641	033657	040 123 113 111 120
  4642	033660	123 040 124 101 113
  4643	033661	105 123 040 000 000
  4644						RADIX	8
DSKFA	DECSYSTEM 2020 INSTRUCTION TIMING TEST, VER 0,1 	MACRO %51(414) 10:09 21-APR-78 PAGE 111
DSKFAM	MAC	21-APR-78 10:06		DIAGNOSTIC SECTION                                                                 SEQ 0143

  4645	033662				E475:^
  4646
  4647					ENTR 476,CAM TEMP,CAM NO-OP TO MEMORY TAKES^
  4648			000003			XX=3
  4649						IRP
  4650	033662	310 00 0 00 035051 	IFG XX,<CAM TEMP	;INSTRUCTION SET TO BE TIMED>
  4651			000002			XX=XX-1
  4652
  4653						IFG	XX,<REPEAT XX,
  4654
  4655	033663	000000	000000			0			;NULL INSTRUCTION ENTRY
  4656
  4657	033664	000000	000000			0			;NULL INSTRUCTION ENTRY>
  4658	033665	000000	033672		TM476:	0+IFNB <CAM NO-OP TO MEMORY TAKES>,<EXP .+5>	;XWD TIME,LOCN OF MSG
  4659			000003			XX=3
  4660						IRP
  4661
  4662						IFG	XX,<REPEAT XX,
  4663
  4664	033666	000000	000000			0			;NULL CALCULATION ENTRY
  4665
  4666	033667	000000	000000			0			;NULL CALCULATION ENTRY
  4667
  4668	033670	000000	000000			0			;NULL CALCULATION ENTRY>
  4669						IF1 <ZZ=.>
  4670			033671			ZY=.
  4671	033671	000000	033701			XWD <IFNB <>,<1B18>+IFNB<>,<^D>>,IFN ZY-ZZ,<E476>	;NEXT ENTRY
  4672						RADIX	10
  4673						IFNB	<CAM NO-OP TO MEMORY TAKES>,<AUX \<XYZ=XYZ+1>,<CAM NO-OP TO MEMORY TAKES>>^
  4674	033672	061 060 062 040 055 	ASCIZ !102 - CAM NO-OP TO MEMORY TAKES !^;MESSAGE
  4675	033673	040 103 101 115 040
  4676	033674	116 117 055 117 120
  4677	033675	040 124 117 040 115
  4678	033676	105 115 117 122 131
  4679	033677	040 124 101 113 105
  4680	033700	123 040 000 000 000
  4681						RADIX	8
DSKFA	DECSYSTEM 2020 INSTRUCTION TIMING TEST, VER 0,1 	MACRO %51(414) 10:09 21-APR-78 PAGE 112
DSKFAM	MAC	21-APR-78 10:06		DIAGNOSTIC SECTION                                                                 SEQ 0144

  4682	033701				E476:^
  4683
  4684					ENTR 477,<<CAMN 3,TEMP>>,CAM TO MEMORY THAT DOESN'T SKIP TAKES^
  4685			000003			XX=3
  4686						IRP
  4687	033701	316140	035051		IFG XX,<<CAMN 3,TEMP>	;INSTRUCTION SET TO BE TIMED>
  4688			000002			XX=XX-1
  4689
  4690						IFG	XX,<REPEAT XX,
  4691
  4692	033702	000000	000000			0			;NULL INSTRUCTION ENTRY
  4693
  4694	033703	000000	000000			0			;NULL INSTRUCTION ENTRY>
  4695					TM477:	0+IFNB <CAM TO MEMORY THAT DOESN'T SKIP TAKES>,<EXP .+5>	;XWD TIME,LOCN OF M
  4696	033704	000000	033711		SG
  4697			000003			XX=3
  4698						IRP
  4699
  4700						IFG	XX,<REPEAT XX,
  4701
  4702	033705	000000	000000			0			;NULL CALCULATION ENTRY
  4703
  4704	033706	000000	000000			0			;NULL CALCULATION ENTRY
  4705
  4706	033707	000000	000000			0			;NULL CALCULATION ENTRY>
  4707						IF1 <ZZ=.>
  4708			033710			ZY=.
  4709	033710	000000	033722			XWD <IFNB <>,<1B18>+IFNB<>,<^D>>,IFN ZY-ZZ,<E477>	;NEXT ENTRY
  4710						RADIX	10
  4711						IFNB	<CAM TO MEMORY THAT DOESN'T SKIP TAKES>,<AUX \<XYZ=XYZ+1>,<CAM TO MEMORY TH
  4712	033711	061 060 063 040 055 	AT DOESN'T SKIP TAKES>>^ASCIZ !103 - CAM TO MEMORY THAT DOESN'T SKIP TAKES !^;MESSAGE
  4713	033712	040 103 101 115 040
  4714	033713	124 117 040 115 105
  4715	033714	115 117 122 131 040
  4716	033715	124 110 101 124 040
  4717	033716	104 117 105 123 116
  4718	033717	047 124 040 123 113
  4719	033720	111 120 040 124 101
  4720	033721	113 105 123 040 000
  4721						RADIX	8
DSKFA	DECSYSTEM 2020 INSTRUCTION TIMING TEST, VER 0,1 	MACRO %51(414) 10:09 21-APR-78 PAGE 113
DSKFAM	MAC	21-APR-78 10:06		DIAGNOSTIC SECTION                                                                 SEQ 0145

  4722	033722				E477:^
  4723
  4724					ENTR 478,<<CAME 3,TEMP>,1>,CAM TO MEMORY THAT SKIPS TAKES^
  4725			000003			XX=3
  4726						IRP
  4727	033722	312140	035051		IFG XX,<<CAME 3,TEMP>	;INSTRUCTION SET TO BE TIMED>
  4728			000002			XX=XX-1
  4729	033723	000000	000001		IFG XX,<1	;INSTRUCTION SET TO BE TIMED>
  4730			000001			XX=XX-1
  4731
  4732						IFG	XX,<REPEAT XX,<
  4733	033724	000000	000000			0			;NULL INSTRUCTION ENTRY>>
  4734	033725	000000	033732		TM478:	0+IFNB <CAM TO MEMORY THAT SKIPS TAKES>,<EXP .+5>	;XWD TIME,LOCN OF MSG
  4735			000003			XX=3
  4736						IRP
  4737
  4738						IFG	XX,<REPEAT XX,
  4739
  4740	033726	000000	000000			0			;NULL CALCULATION ENTRY
  4741
  4742	033727	000000	000000			0			;NULL CALCULATION ENTRY
  4743
  4744	033730	000000	000000			0			;NULL CALCULATION ENTRY>
  4745						IF1 <ZZ=.>
  4746			033731			ZY=.
  4747	033731	000000	033742			XWD <IFNB <>,<1B18>+IFNB<>,<^D>>,IFN ZY-ZZ,<E478>	;NEXT ENTRY
  4748						RADIX	10
  4749						IFNB	<CAM TO MEMORY THAT SKIPS TAKES>,<AUX \<XYZ=XYZ+1>,<CAM TO MEMORY THAT SKIP
  4750	033732	061 060 064 040 055 	S TAKES>>^ASCIZ !104 - CAM TO MEMORY THAT SKIPS TAKES !^;MESSAGE
  4751	033733	040 103 101 115 040
  4752	033734	124 117 040 115 105
  4753	033735	115 117 122 131 040
  4754	033736	124 110 101 124 040
  4755	033737	123 113 111 120 123
  4756	033740	040 124 101 113 105
  4757	033741	123 040 000 000 000
  4758						RADIX	8
DSKFA	DECSYSTEM 2020 INSTRUCTION TIMING TEST, VER 0,1 	MACRO %51(414) 10:09 21-APR-78 PAGE 114
DSKFAM	MAC	21-APR-78 10:06		DIAGNOSTIC SECTION                                                                 SEQ 0146

  4759	033742				E478:^
  4760
  4761					ENTR 482,<<TLNN 3,2>>,TLN NO SKIP TAKES^
  4762			000003			XX=3
  4763						IRP
  4764	033742	607140	000002		IFG XX,<<TLNN 3,2>	;INSTRUCTION SET TO BE TIMED>
  4765			000002			XX=XX-1
  4766
  4767						IFG	XX,<REPEAT XX,
  4768
  4769	033743	000000	000000			0			;NULL INSTRUCTION ENTRY
  4770
  4771	033744	000000	000000			0			;NULL INSTRUCTION ENTRY>
  4772	033745	000000	033752		TM482:	0+IFNB <TLN NO SKIP TAKES>,<EXP .+5>	;XWD TIME,LOCN OF MSG
  4773			000003			XX=3
  4774						IRP
  4775
  4776						IFG	XX,<REPEAT XX,
  4777
  4778	033746	000000	000000			0			;NULL CALCULATION ENTRY
  4779
  4780	033747	000000	000000			0			;NULL CALCULATION ENTRY
  4781
  4782	033750	000000	000000			0			;NULL CALCULATION ENTRY>
  4783						IF1 <ZZ=.>
  4784			033751			ZY=.
  4785	033751	000000	033757			XWD <IFNB <>,<1B18>+IFNB<>,<^D>>,IFN ZY-ZZ,<E482>	;NEXT ENTRY
  4786						RADIX	10
  4787						IFNB	<TLN NO SKIP TAKES>,<AUX \<XYZ=XYZ+1>,<TLN NO SKIP TAKES>>^ASCIZ !105 - TLN
  4788	033752	061 060 065 040 055 	 NO SKIP TAKES !^;MESSAGE
  4789	033753	040 124 114 116 040
  4790	033754	116 117 040 123 113
  4791	033755	111 120 040 124 101
  4792	033756	113 105 123 040 000
  4793						RADIX	8
DSKFA	DECSYSTEM 2020 INSTRUCTION TIMING TEST, VER 0,1 	MACRO %51(414) 10:09 21-APR-78 PAGE 115
DSKFAM	MAC	21-APR-78 10:06		DIAGNOSTIC SECTION                                                                 SEQ 0147

  4794	033757				E482:^
  4795
  4796					ENTR 483,<<TLNE 3,2>,1>,TLN SKIP TAKES^
  4797			000003			XX=3
  4798						IRP
  4799	033757	603140	000002		IFG XX,<<TLNE 3,2>	;INSTRUCTION SET TO BE TIMED>
  4800			000002			XX=XX-1
  4801	033760	000000	000001		IFG XX,<1	;INSTRUCTION SET TO BE TIMED>
  4802			000001			XX=XX-1
  4803
  4804						IFG	XX,<REPEAT XX,<
  4805	033761	000000	000000			0			;NULL INSTRUCTION ENTRY>>
  4806	033762	000000	033767		TM483:	0+IFNB <TLN SKIP TAKES>,<EXP .+5>	;XWD TIME,LOCN OF MSG
  4807			000003			XX=3
  4808						IRP
  4809
  4810						IFG	XX,<REPEAT XX,
  4811
  4812	033763	000000	000000			0			;NULL CALCULATION ENTRY
  4813
  4814	033764	000000	000000			0			;NULL CALCULATION ENTRY
  4815
  4816	033765	000000	000000			0			;NULL CALCULATION ENTRY>
  4817						IF1 <ZZ=.>
  4818			033766			ZY=.
  4819	033766	000000	033774			XWD <IFNB <>,<1B18>+IFNB<>,<^D>>,IFN ZY-ZZ,<E483>	;NEXT ENTRY
  4820						RADIX	10
  4821						IFNB	<TLN SKIP TAKES>,<AUX \<XYZ=XYZ+1>,<TLN SKIP TAKES>>^ASCIZ !106 - TLN SKIP
  4822	033767	061 060 066 040 055 	TAKES !^;MESSAGE
  4823	033770	040 124 114 116 040
  4824	033771	123 113 111 120 040
  4825	033772	124 101 113 105 123
  4826	033773	040 000 000 000 000
  4827						RADIX	8
DSKFA	DECSYSTEM 2020 INSTRUCTION TIMING TEST, VER 0,1 	MACRO %51(414) 10:09 21-APR-78 PAGE 116
DSKFAM	MAC	21-APR-78 10:06		DIAGNOSTIC SECTION                                                                 SEQ 0148

  4828	033774				E483:^
  4829
  4830					ENTR 484,<<TRNN 3,2>>,TRN NO SKIP TAKES^
  4831			000003			XX=3
  4832						IRP
  4833	033774	606140	000002		IFG XX,<<TRNN 3,2>	;INSTRUCTION SET TO BE TIMED>
  4834			000002			XX=XX-1
  4835
  4836						IFG	XX,<REPEAT XX,
  4837
  4838	033775	000000	000000			0			;NULL INSTRUCTION ENTRY
  4839
  4840	033776	000000	000000			0			;NULL INSTRUCTION ENTRY>
  4841	033777	000000	034004		TM484:	0+IFNB <TRN NO SKIP TAKES>,<EXP .+5>	;XWD TIME,LOCN OF MSG
  4842			000003			XX=3
  4843						IRP
  4844
  4845						IFG	XX,<REPEAT XX,
  4846
  4847	034000	000000	000000			0			;NULL CALCULATION ENTRY
  4848
  4849	034001	000000	000000			0			;NULL CALCULATION ENTRY
  4850
  4851	034002	000000	000000			0			;NULL CALCULATION ENTRY>
  4852						IF1 <ZZ=.>
  4853			034003			ZY=.
  4854	034003	000000	034011			XWD <IFNB <>,<1B18>+IFNB<>,<^D>>,IFN ZY-ZZ,<E484>	;NEXT ENTRY
  4855						RADIX	10
  4856						IFNB	<TRN NO SKIP TAKES>,<AUX \<XYZ=XYZ+1>,<TRN NO SKIP TAKES>>^ASCIZ !107 - TRN
  4857	034004	061 060 067 040 055 	 NO SKIP TAKES !^;MESSAGE
  4858	034005	040 124 122 116 040
  4859	034006	116 117 040 123 113
  4860	034007	111 120 040 124 101
  4861	034010	113 105 123 040 000
  4862						RADIX	8
DSKFA	DECSYSTEM 2020 INSTRUCTION TIMING TEST, VER 0,1 	MACRO %51(414) 10:09 21-APR-78 PAGE 117
DSKFAM	MAC	21-APR-78 10:06		DIAGNOSTIC SECTION                                                                 SEQ 0149

  4863	034011				E484:^
  4864
  4865					ENTR 485,<<TRNE 3,2>,1>,TRN SKIP TAKES^
  4866			000003			XX=3
  4867						IRP
  4868	034011	602140	000002		IFG XX,<<TRNE 3,2>	;INSTRUCTION SET TO BE TIMED>
  4869			000002			XX=XX-1
  4870	034012	000000	000001		IFG XX,<1	;INSTRUCTION SET TO BE TIMED>
  4871			000001			XX=XX-1
  4872
  4873						IFG	XX,<REPEAT XX,<
  4874	034013	000000	000000			0			;NULL INSTRUCTION ENTRY>>
  4875	034014	000000	034021		TM485:	0+IFNB <TRN SKIP TAKES>,<EXP .+5>	;XWD TIME,LOCN OF MSG
  4876			000003			XX=3
  4877						IRP
  4878
  4879						IFG	XX,<REPEAT XX,
  4880
  4881	034015	000000	000000			0			;NULL CALCULATION ENTRY
  4882
  4883	034016	000000	000000			0			;NULL CALCULATION ENTRY
  4884
  4885	034017	000000	000000			0			;NULL CALCULATION ENTRY>
  4886						IF1 <ZZ=.>
  4887			034020			ZY=.
  4888	034020	000000	034026			XWD <IFNB <>,<1B18>+IFNB<>,<^D>>,IFN ZY-ZZ,<E485>	;NEXT ENTRY
  4889						RADIX	10
  4890						IFNB	<TRN SKIP TAKES>,<AUX \<XYZ=XYZ+1>,<TRN SKIP TAKES>>^ASCIZ !108 - TRN SKIP
  4891	034021	061 060 070 040 055 	TAKES !^;MESSAGE
  4892	034022	040 124 122 116 040
  4893	034023	123 113 111 120 040
  4894	034024	124 101 113 105 123
  4895	034025	040 000 000 000 000
  4896						RADIX	8
DSKFA	DECSYSTEM 2020 INSTRUCTION TIMING TEST, VER 0,1 	MACRO %51(414) 10:09 21-APR-78 PAGE 118
DSKFAM	MAC	21-APR-78 10:06		DIAGNOSTIC SECTION                                                                 SEQ 0150

  4897	034026				E485:^
  4898
  4899					ENTR 486,<<TDNN 3,TEMP>>,TDN NO SKIP TAKES^
  4900			000003			XX=3
  4901						IRP
  4902	034026	616140	035051		IFG XX,<<TDNN 3,TEMP>	;INSTRUCTION SET TO BE TIMED>
  4903			000002			XX=XX-1
  4904
  4905						IFG	XX,<REPEAT XX,
  4906
  4907	034027	000000	000000			0			;NULL INSTRUCTION ENTRY
  4908
  4909	034030	000000	000000			0			;NULL INSTRUCTION ENTRY>
  4910	034031	000000	034036		TM486:	0+IFNB <TDN NO SKIP TAKES>,<EXP .+5>	;XWD TIME,LOCN OF MSG
  4911			000003			XX=3
  4912						IRP
  4913
  4914						IFG	XX,<REPEAT XX,
  4915
  4916	034032	000000	000000			0			;NULL CALCULATION ENTRY
  4917
  4918	034033	000000	000000			0			;NULL CALCULATION ENTRY
  4919
  4920	034034	000000	000000			0			;NULL CALCULATION ENTRY>
  4921						IF1 <ZZ=.>
  4922			034035			ZY=.
  4923	034035	000000	034043			XWD <IFNB <>,<1B18>+IFNB<>,<^D>>,IFN ZY-ZZ,<E486>	;NEXT ENTRY
  4924						RADIX	10
  4925						IFNB	<TDN NO SKIP TAKES>,<AUX \<XYZ=XYZ+1>,<TDN NO SKIP TAKES>>^ASCIZ !109 - TDN
  4926	034036	061 060 071 040 055 	 NO SKIP TAKES !^;MESSAGE
  4927	034037	040 124 104 116 040
  4928	034040	116 117 040 123 113
  4929	034041	111 120 040 124 101
  4930	034042	113 105 123 040 000
  4931						RADIX	8
DSKFA	DECSYSTEM 2020 INSTRUCTION TIMING TEST, VER 0,1 	MACRO %51(414) 10:09 21-APR-78 PAGE 119
DSKFAM	MAC	21-APR-78 10:06		DIAGNOSTIC SECTION                                                                 SEQ 0151

  4932	034043				E486:^
  4933
  4934					ENTR 487,<<TDNE 3,TEMP>,1>,TDN SKIP TAKES^
  4935			000003			XX=3
  4936						IRP
  4937	034043	612140	035051		IFG XX,<<TDNE 3,TEMP>	;INSTRUCTION SET TO BE TIMED>
  4938			000002			XX=XX-1
  4939	034044	000000	000001		IFG XX,<1	;INSTRUCTION SET TO BE TIMED>
  4940			000001			XX=XX-1
  4941
  4942						IFG	XX,<REPEAT XX,<
  4943	034045	000000	000000			0			;NULL INSTRUCTION ENTRY>>
  4944	034046	000000	034053		TM487:	0+IFNB <TDN SKIP TAKES>,<EXP .+5>	;XWD TIME,LOCN OF MSG
  4945			000003			XX=3
  4946						IRP
  4947
  4948						IFG	XX,<REPEAT XX,
  4949
  4950	034047	000000	000000			0			;NULL CALCULATION ENTRY
  4951
  4952	034050	000000	000000			0			;NULL CALCULATION ENTRY
  4953
  4954	034051	000000	000000			0			;NULL CALCULATION ENTRY>
  4955						IF1 <ZZ=.>
  4956			034052			ZY=.
  4957	034052	000000	034060			XWD <IFNB <>,<1B18>+IFNB<>,<^D>>,IFN ZY-ZZ,<E487>	;NEXT ENTRY
  4958						RADIX	10
  4959						IFNB	<TDN SKIP TAKES>,<AUX \<XYZ=XYZ+1>,<TDN SKIP TAKES>>^ASCIZ !110 - TDN SKIP
  4960	034053	061 061 060 040 055 	TAKES !^;MESSAGE
  4961	034054	040 124 104 116 040
  4962	034055	123 113 111 120 040
  4963	034056	124 101 113 105 123
  4964	034057	040 000 000 000 000
  4965						RADIX	8
DSKFA	DECSYSTEM 2020 INSTRUCTION TIMING TEST, VER 0,1 	MACRO %51(414) 10:09 21-APR-78 PAGE 120
DSKFAM	MAC	21-APR-78 10:06		DIAGNOSTIC SECTION                                                                 SEQ 0152

  4966	034060				E487:^
  4967
  4968					ENTR 488,<<TSNN 3,TEMP>>,TSN NO SKIP TAKES^
  4969			000003			XX=3
  4970						IRP
  4971	034060	617140	035051		IFG XX,<<TSNN 3,TEMP>	;INSTRUCTION SET TO BE TIMED>
  4972			000002			XX=XX-1
  4973
  4974						IFG	XX,<REPEAT XX,
  4975
  4976	034061	000000	000000			0			;NULL INSTRUCTION ENTRY
  4977
  4978	034062	000000	000000			0			;NULL INSTRUCTION ENTRY>
  4979	034063	000000	034070		TM488:	0+IFNB <TSN NO SKIP TAKES>,<EXP .+5>	;XWD TIME,LOCN OF MSG
  4980			000003			XX=3
  4981						IRP
  4982
  4983						IFG	XX,<REPEAT XX,
  4984
  4985	034064	000000	000000			0			;NULL CALCULATION ENTRY
  4986
  4987	034065	000000	000000			0			;NULL CALCULATION ENTRY
  4988
  4989	034066	000000	000000			0			;NULL CALCULATION ENTRY>
  4990						IF1 <ZZ=.>
  4991			034067			ZY=.
  4992	034067	000000	034075			XWD <IFNB <>,<1B18>+IFNB<>,<^D>>,IFN ZY-ZZ,<E488>	;NEXT ENTRY
  4993						RADIX	10
  4994						IFNB	<TSN NO SKIP TAKES>,<AUX \<XYZ=XYZ+1>,<TSN NO SKIP TAKES>>^ASCIZ !111 - TSN
  4995	034070	061 061 061 040 055 	 NO SKIP TAKES !^;MESSAGE
  4996	034071	040 124 123 116 040
  4997	034072	116 117 040 123 113
  4998	034073	111 120 040 124 101
  4999	034074	113 105 123 040 000
  5000						RADIX	8
DSKFA	DECSYSTEM 2020 INSTRUCTION TIMING TEST, VER 0,1 	MACRO %51(414) 10:09 21-APR-78 PAGE 121
DSKFAM	MAC	21-APR-78 10:06		DIAGNOSTIC SECTION                                                                 SEQ 0153

  5001	034075				E488:^
  5002
  5003					ENTR 489,<<TSNE 3,TEMP>,1>,TSN SKIP TAKES^
  5004			000003			XX=3
  5005						IRP
  5006	034075	613140	035051		IFG XX,<<TSNE 3,TEMP>	;INSTRUCTION SET TO BE TIMED>
  5007			000002			XX=XX-1
  5008	034076	000000	000001		IFG XX,<1	;INSTRUCTION SET TO BE TIMED>
  5009			000001			XX=XX-1
  5010
  5011						IFG	XX,<REPEAT XX,<
  5012	034077	000000	000000			0			;NULL INSTRUCTION ENTRY>>
  5013	034100	000000	034105		TM489:	0+IFNB <TSN SKIP TAKES>,<EXP .+5>	;XWD TIME,LOCN OF MSG
  5014			000003			XX=3
  5015						IRP
  5016
  5017						IFG	XX,<REPEAT XX,
  5018
  5019	034101	000000	000000			0			;NULL CALCULATION ENTRY
  5020
  5021	034102	000000	000000			0			;NULL CALCULATION ENTRY
  5022
  5023	034103	000000	000000			0			;NULL CALCULATION ENTRY>
  5024						IF1 <ZZ=.>
  5025			034104			ZY=.
  5026	034104	000000	034112			XWD <IFNB <>,<1B18>+IFNB<>,<^D>>,IFN ZY-ZZ,<E489>	;NEXT ENTRY
  5027						RADIX	10
  5028						IFNB	<TSN SKIP TAKES>,<AUX \<XYZ=XYZ+1>,<TSN SKIP TAKES>>^ASCIZ !112 - TSN SKIP
  5029	034105	061 061 062 040 055 	TAKES !^;MESSAGE
  5030	034106	040 124 123 116 040
  5031	034107	123 113 111 120 040
  5032	034110	124 101 113 105 123
  5033	034111	040 000 000 000 000
  5034						RADIX	8
DSKFA	DECSYSTEM 2020 INSTRUCTION TIMING TEST, VER 0,1 	MACRO %51(414) 10:09 21-APR-78 PAGE 122
DSKFAM	MAC	21-APR-78 10:06		DIAGNOSTIC SECTION                                                                 SEQ 0154

  5035	034112				E489:^
  5036
  5037					ENTR 490,<<SKIPN 3>>,SKIP TO AC THAT DOESN'T TAKES^
  5038			000003			XX=3
  5039						IRP
  5040	034112	336000	000003		IFG XX,<<SKIPN 3>	;INSTRUCTION SET TO BE TIMED>
  5041			000002			XX=XX-1
  5042
  5043						IFG	XX,<REPEAT XX,
  5044
  5045	034113	000000	000000			0			;NULL INSTRUCTION ENTRY
  5046
  5047	034114	000000	000000			0			;NULL INSTRUCTION ENTRY>
  5048	034115	000000	034122		TM490:	0+IFNB <SKIP TO AC THAT DOESN'T TAKES>,<EXP .+5>	;XWD TIME,LOCN OF MSG
  5049			000003			XX=3
  5050						IRP
  5051
  5052						IFG	XX,<REPEAT XX,
  5053
  5054	034116	000000	000000			0			;NULL CALCULATION ENTRY
  5055
  5056	034117	000000	000000			0			;NULL CALCULATION ENTRY
  5057
  5058	034120	000000	000000			0			;NULL CALCULATION ENTRY>
  5059						IF1 <ZZ=.>
  5060			034121			ZY=.
  5061	034121	000000	034132			XWD <IFNB <>,<1B18>+IFNB<>,<^D>>,IFN ZY-ZZ,<E490>	;NEXT ENTRY
  5062						RADIX	10
  5063						IFNB	<SKIP TO AC THAT DOESN'T TAKES>,<AUX \<XYZ=XYZ+1>,<SKIP TO AC THAT DOESN'T
  5064	034122	061 061 063 040 055 	TAKES>>^ASCIZ !113 - SKIP TO AC THAT DOESN'T TAKES !^;MESSAGE
  5065	034123	040 123 113 111 120
  5066	034124	040 124 117 040 101
  5067	034125	103 040 124 110 101
  5068	034126	124 040 104 117 105
  5069	034127	123 116 047 124 040
  5070	034130	124 101 113 105 123
  5071	034131	040 000 000 000 000
  5072						RADIX	8
DSKFA	DECSYSTEM 2020 INSTRUCTION TIMING TEST, VER 0,1 	MACRO %51(414) 10:09 21-APR-78 PAGE 123
DSKFAM	MAC	21-APR-78 10:06		DIAGNOSTIC SECTION                                                                 SEQ 0155

  5073	034132				E490:^
  5074
  5075					ENTR 491,<<SKIPE 3>,1>,SKIP TO AC THAT DOES TAKES^
  5076			000003			XX=3
  5077						IRP
  5078	034132	332000	000003		IFG XX,<<SKIPE 3>	;INSTRUCTION SET TO BE TIMED>
  5079			000002			XX=XX-1
  5080	034133	000000	000001		IFG XX,<1	;INSTRUCTION SET TO BE TIMED>
  5081			000001			XX=XX-1
  5082
  5083						IFG	XX,<REPEAT XX,<
  5084	034134	000000	000000			0			;NULL INSTRUCTION ENTRY>>
  5085	034135	000000	034142		TM491:	0+IFNB <SKIP TO AC THAT DOES TAKES>,<EXP .+5>	;XWD TIME,LOCN OF MSG
  5086			000003			XX=3
  5087						IRP
  5088
  5089						IFG	XX,<REPEAT XX,
  5090
  5091	034136	000000	000000			0			;NULL CALCULATION ENTRY
  5092
  5093	034137	000000	000000			0			;NULL CALCULATION ENTRY
  5094
  5095	034140	000000	000000			0			;NULL CALCULATION ENTRY>
  5096						IF1 <ZZ=.>
  5097			034141			ZY=.
  5098	034141	000000	034151			XWD <IFNB <>,<1B18>+IFNB<>,<^D>>,IFN ZY-ZZ,<E491>	;NEXT ENTRY
  5099						RADIX	10
  5100						IFNB	<SKIP TO AC THAT DOES TAKES>,<AUX \<XYZ=XYZ+1>,<SKIP TO AC THAT DOES TAKES>
  5101	034142	061 061 064 040 055 	>^ASCIZ !114 - SKIP TO AC THAT DOES TAKES !^;MESSAGE
  5102	034143	040 123 113 111 120
  5103	034144	040 124 117 040 101
  5104	034145	103 040 124 110 101
  5105	034146	124 040 104 117 105
  5106	034147	123 040 124 101 113
  5107	034150	105 123 040 000 000
  5108						RADIX	8
DSKFA	DECSYSTEM 2020 INSTRUCTION TIMING TEST, VER 0,1 	MACRO %51(414) 10:09 21-APR-78 PAGE 124
DSKFAM	MAC	21-APR-78 10:06		DIAGNOSTIC SECTION                                                                 SEQ 0156

  5109	034151				E491:^
  5110
  5111					ENTR 492,<<SKIPN TEMP>>,SKIP TO MEMORY THAT DOESN'T TAKES^
  5112			000003			XX=3
  5113						IRP
  5114	034151	336000	035051		IFG XX,<<SKIPN TEMP>	;INSTRUCTION SET TO BE TIMED>
  5115			000002			XX=XX-1
  5116
  5117						IFG	XX,<REPEAT XX,
  5118
  5119	034152	000000	000000			0			;NULL INSTRUCTION ENTRY
  5120
  5121	034153	000000	000000			0			;NULL INSTRUCTION ENTRY>
  5122	034154	000000	034161		TM492:	0+IFNB <SKIP TO MEMORY THAT DOESN'T TAKES>,<EXP .+5>	;XWD TIME,LOCN OF MSG
  5123			000003			XX=3
  5124						IRP
  5125
  5126						IFG	XX,<REPEAT XX,
  5127
  5128	034155	000000	000000			0			;NULL CALCULATION ENTRY
  5129
  5130	034156	000000	000000			0			;NULL CALCULATION ENTRY
  5131
  5132	034157	000000	000000			0			;NULL CALCULATION ENTRY>
  5133						IF1 <ZZ=.>
  5134			034160			ZY=.
  5135	034160	000000	034172			XWD <IFNB <>,<1B18>+IFNB<>,<^D>>,IFN ZY-ZZ,<E492>	;NEXT ENTRY
  5136						RADIX	10
  5137						IFNB	<SKIP TO MEMORY THAT DOESN'T TAKES>,<AUX \<XYZ=XYZ+1>,<SKIP TO MEMORY THAT
  5138	034161	061 061 065 040 055 	DOESN'T TAKES>>^ASCIZ !115 - SKIP TO MEMORY THAT DOESN'T TAKES !^;MESSAGE
  5139	034162	040 123 113 111 120
  5140	034163	040 124 117 040 115
  5141	034164	105 115 117 122 131
  5142	034165	040 124 110 101 124
  5143	034166	040 104 117 105 123
  5144	034167	116 047 124 040 124
  5145	034170	101 113 105 123 040
  5146	034171	000 000 000 000 000
  5147						RADIX	8
DSKFA	DECSYSTEM 2020 INSTRUCTION TIMING TEST, VER 0,1 	MACRO %51(414) 10:09 21-APR-78 PAGE 125
DSKFAM	MAC	21-APR-78 10:06		DIAGNOSTIC SECTION                                                                 SEQ 0157

  5148	034172				E492:^
  5149
  5150					ENTR 493,<<SKIPE TEMP>,1>,SKIP TO MEMORY THAT DOES TAKES^
  5151			000003			XX=3
  5152						IRP
  5153	034172	332000	035051		IFG XX,<<SKIPE TEMP>	;INSTRUCTION SET TO BE TIMED>
  5154			000002			XX=XX-1
  5155	034173	000000	000001		IFG XX,<1	;INSTRUCTION SET TO BE TIMED>
  5156			000001			XX=XX-1
  5157
  5158						IFG	XX,<REPEAT XX,<
  5159	034174	000000	000000			0			;NULL INSTRUCTION ENTRY>>
  5160	034175	000000	034202		TM493:	0+IFNB <SKIP TO MEMORY THAT DOES TAKES>,<EXP .+5>	;XWD TIME,LOCN OF MSG
  5161			000003			XX=3
  5162						IRP
  5163
  5164						IFG	XX,<REPEAT XX,
  5165
  5166	034176	000000	000000			0			;NULL CALCULATION ENTRY
  5167
  5168	034177	000000	000000			0			;NULL CALCULATION ENTRY
  5169
  5170	034200	000000	000000			0			;NULL CALCULATION ENTRY>
  5171						IF1 <ZZ=.>
  5172			034201			ZY=.
  5173	034201	000000	034212			XWD <IFNB <>,<1B18>+IFNB<>,<^D>>,IFN ZY-ZZ,<E493>	;NEXT ENTRY
  5174						RADIX	10
  5175						IFNB	<SKIP TO MEMORY THAT DOES TAKES>,<AUX \<XYZ=XYZ+1>,<SKIP TO MEMORY THAT DOE
  5176	034202	061 061 066 040 055 	S TAKES>>^ASCIZ !116 - SKIP TO MEMORY THAT DOES TAKES !^;MESSAGE
  5177	034203	040 123 113 111 120
  5178	034204	040 124 117 040 115
  5179	034205	105 115 117 122 131
  5180	034206	040 124 110 101 124
  5181	034207	040 104 117 105 123
  5182	034210	040 124 101 113 105
  5183	034211	123 040 000 000 000
  5184						RADIX	8
DSKFA	DECSYSTEM 2020 INSTRUCTION TIMING TEST, VER 0,1 	MACRO %51(414) 10:09 21-APR-78 PAGE 126
DSKFAM	MAC	21-APR-78 10:06		DIAGNOSTIC SECTION                                                                 SEQ 0158

  5185	034212				E493:^
  5186
  5187					ENTR 49,EQV,EQV AC TO AC TAKES^
  5188			000003			XX=3
  5189						IRP
  5190	034212	444 00 0 00 000000 	IFG XX,<EQV	;INSTRUCTION SET TO BE TIMED>
  5191			000002			XX=XX-1
  5192
  5193						IFG	XX,<REPEAT XX,
  5194
  5195	034213	000000	000000			0			;NULL INSTRUCTION ENTRY
  5196
  5197	034214	000000	000000			0			;NULL INSTRUCTION ENTRY>
  5198	034215	000000	034222		TM49:	0+IFNB <EQV AC TO AC TAKES>,<EXP .+5>	;XWD TIME,LOCN OF MSG
  5199			000003			XX=3
  5200						IRP
  5201
  5202						IFG	XX,<REPEAT XX,
  5203
  5204	034216	000000	000000			0			;NULL CALCULATION ENTRY
  5205
  5206	034217	000000	000000			0			;NULL CALCULATION ENTRY
  5207
  5208	034220	000000	000000			0			;NULL CALCULATION ENTRY>
  5209						IF1 <ZZ=.>
  5210			034221			ZY=.
  5211	034221	000000	034230			XWD <IFNB <>,<1B18>+IFNB<>,<^D>>,IFN ZY-ZZ,<E49>	;NEXT ENTRY
  5212						RADIX	10
  5213						IFNB	<EQV AC TO AC TAKES>,<AUX \<XYZ=XYZ+1>,<EQV AC TO AC TAKES>>^ASCIZ !117 - E
  5214	034222	061 061 067 040 055 	QV AC TO AC TAKES !^;MESSAGE
  5215	034223	040 105 121 126 040
  5216	034224	101 103 040 124 117
  5217	034225	040 101 103 040 124
  5218	034226	101 113 105 123 040
  5219	034227	000 000 000 000 000
  5220						RADIX	8
DSKFA	DECSYSTEM 2020 INSTRUCTION TIMING TEST, VER 0,1 	MACRO %51(414) 10:09 21-APR-78 PAGE 127
DSKFAM	MAC	21-APR-78 10:06		DIAGNOSTIC SECTION                                                                 SEQ 0159

  5221	034230				E49:^
  5222
  5223					ENTR 50,EQV TEMP,EQV MEMORY TO AC TAKES^
  5224			000003			XX=3
  5225						IRP
  5226	034230	444 00 0 00 035051 	IFG XX,<EQV TEMP	;INSTRUCTION SET TO BE TIMED>
  5227			000002			XX=XX-1
  5228
  5229						IFG	XX,<REPEAT XX,
  5230
  5231	034231	000000	000000			0			;NULL INSTRUCTION ENTRY
  5232
  5233	034232	000000	000000			0			;NULL INSTRUCTION ENTRY>
  5234	034233	000000	034240		TM50:	0+IFNB <EQV MEMORY TO AC TAKES>,<EXP .+5>	;XWD TIME,LOCN OF MSG
  5235			000003			XX=3
  5236						IRP
  5237
  5238						IFG	XX,<REPEAT XX,
  5239
  5240	034234	000000	000000			0			;NULL CALCULATION ENTRY
  5241
  5242	034235	000000	000000			0			;NULL CALCULATION ENTRY
  5243
  5244	034236	000000	000000			0			;NULL CALCULATION ENTRY>
  5245						IF1 <ZZ=.>
  5246			034237			ZY=.
  5247	034237	000000	034246			XWD <IFNB <>,<1B18>+IFNB<>,<^D>>,IFN ZY-ZZ,<E50>	;NEXT ENTRY
  5248						RADIX	10
  5249						IFNB	<EQV MEMORY TO AC TAKES>,<AUX \<XYZ=XYZ+1>,<EQV MEMORY TO AC TAKES>>^ASCIZ
  5250	034240	061 061 070 040 055 	!118 - EQV MEMORY TO AC TAKES !^;MESSAGE
  5251	034241	040 105 121 126 040
  5252	034242	115 105 115 117 122
  5253	034243	131 040 124 117 040
  5254	034244	101 103 040 124 101
  5255	034245	113 105 123 040 000
  5256						RADIX	8
DSKFA	DECSYSTEM 2020 INSTRUCTION TIMING TEST, VER 0,1 	MACRO %51(414) 10:09 21-APR-78 PAGE 128
DSKFAM	MAC	21-APR-78 10:06		DIAGNOSTIC SECTION                                                                 SEQ 0160

  5257	034246				E50:^
  5258
  5259					ENTR 53,EXCH,EXCHANGE AN AC WITH AN AC TAKES^
  5260			000003			XX=3
  5261						IRP
  5262	034246	250 00 0 00 000000 	IFG XX,<EXCH	;INSTRUCTION SET TO BE TIMED>
  5263			000002			XX=XX-1
  5264
  5265						IFG	XX,<REPEAT XX,
  5266
  5267	034247	000000	000000			0			;NULL INSTRUCTION ENTRY
  5268
  5269	034250	000000	000000			0			;NULL INSTRUCTION ENTRY>
  5270	034251	000000	034256		TM53:	0+IFNB <EXCHANGE AN AC WITH AN AC TAKES>,<EXP .+5>	;XWD TIME,LOCN OF MSG
  5271			000003			XX=3
  5272						IRP
  5273
  5274						IFG	XX,<REPEAT XX,
  5275
  5276	034252	000000	000000			0			;NULL CALCULATION ENTRY
  5277
  5278	034253	000000	000000			0			;NULL CALCULATION ENTRY
  5279
  5280	034254	000000	000000			0			;NULL CALCULATION ENTRY>
  5281						IF1 <ZZ=.>
  5282			034255			ZY=.
  5283	034255	000000	034266			XWD <IFNB <>,<1B18>+IFNB<>,<^D>>,IFN ZY-ZZ,<E53>	;NEXT ENTRY
  5284						RADIX	10
  5285						IFNB	<EXCHANGE AN AC WITH AN AC TAKES>,<AUX \<XYZ=XYZ+1>,<EXCHANGE AN AC WITH AN
  5286	034256	061 061 071 040 055 	 AC TAKES>>^ASCIZ !119 - EXCHANGE AN AC WITH AN AC TAKES !^;MESSAGE
  5287	034257	040 105 130 103 110
  5288	034260	101 116 107 105 040
  5289	034261	101 116 040 101 103
  5290	034262	040 127 111 124 110
  5291	034263	040 101 116 040 101
  5292	034264	103 040 124 101 113
  5293	034265	105 123 040 000 000
  5294						RADIX	8
DSKFA	DECSYSTEM 2020 INSTRUCTION TIMING TEST, VER 0,1 	MACRO %51(414) 10:09 21-APR-78 PAGE 129
DSKFAM	MAC	21-APR-78 10:06		DIAGNOSTIC SECTION                                                                 SEQ 0161

  5295	034266				E53:^
  5296
  5297					ENTR 54,EXCH TEMP,EXCHANGE AN AC WITH MEMORY TAKES^
  5298			000003			XX=3
  5299						IRP
  5300	034266	250 00 0 00 035051 	IFG XX,<EXCH TEMP	;INSTRUCTION SET TO BE TIMED>
  5301			000002			XX=XX-1
  5302
  5303						IFG	XX,<REPEAT XX,
  5304
  5305	034267	000000	000000			0			;NULL INSTRUCTION ENTRY
  5306
  5307	034270	000000	000000			0			;NULL INSTRUCTION ENTRY>
  5308	034271	000000	034276		TM54:	0+IFNB <EXCHANGE AN AC WITH MEMORY TAKES>,<EXP .+5>	;XWD TIME,LOCN OF MSG
  5309			000003			XX=3
  5310						IRP
  5311
  5312						IFG	XX,<REPEAT XX,
  5313
  5314	034272	000000	000000			0			;NULL CALCULATION ENTRY
  5315
  5316	034273	000000	000000			0			;NULL CALCULATION ENTRY
  5317
  5318	034274	000000	000000			0			;NULL CALCULATION ENTRY>
  5319						IF1 <ZZ=.>
  5320			034275			ZY=.
  5321	034275	000000	034306			XWD <IFNB <>,<1B18>+IFNB<>,<^D>>,IFN ZY-ZZ,<E54>	;NEXT ENTRY
  5322						RADIX	10
  5323						IFNB	<EXCHANGE AN AC WITH MEMORY TAKES>,<AUX \<XYZ=XYZ+1>,<EXCHANGE AN AC WITH M
  5324	034276	061 062 060 040 055 	EMORY TAKES>>^ASCIZ !120 - EXCHANGE AN AC WITH MEMORY TAKES !^;MESSAGE
  5325	034277	040 105 130 103 110
  5326	034300	101 116 107 105 040
  5327	034301	101 116 040 101 103
  5328	034302	040 127 111 124 110
  5329	034303	040 115 105 115 117
  5330	034304	122 131 040 124 101
  5331	034305	113 105 123 040 000
  5332						RADIX	8
DSKFA	DECSYSTEM 2020 INSTRUCTION TIMING TEST, VER 0,1 	MACRO %51(414) 10:09 21-APR-78 PAGE 130
DSKFAM	MAC	21-APR-78 10:06		DIAGNOSTIC SECTION                                                                 SEQ 0162

  5333	034306				E54:^
  5334
  5335					ENTR 55,XCT[JFCL],EXECUTE TAKES,LESS(46)^
  5336			000003			XX=3
  5337						IRP
  5338	034306	256 00 0 00 035026 	IFG XX,<XCT[JFCL]	;INSTRUCTION SET TO BE TIMED>
  5339			000002			XX=XX-1
  5340
  5341						IFG	XX,<REPEAT XX,
  5342
  5343	034307	000000	000000			0			;NULL INSTRUCTION ENTRY
  5344
  5345	034310	000000	000000			0			;NULL INSTRUCTION ENTRY>
  5346	034311	000000	034316		TM55:	0+IFNB <EXECUTE TAKES>,<EXP .+5>	;XWD TIME,LOCN OF MSG
  5347			000003			XX=3
  5348						IRP
  5349	034312	777777	033521		IFG XX,<LESS(46)^XWD -1,TM46^	;TIME CALCULATION>
  5350			000002			XX=XX-1
  5351
  5352						IFG	XX,<REPEAT XX,
  5353
  5354	034313	000000	000000			0			;NULL CALCULATION ENTRY
  5355
  5356	034314	000000	000000			0			;NULL CALCULATION ENTRY>
  5357						IF1 <ZZ=.>
  5358			034315			ZY=.
  5359	034315	000000	034323			XWD <IFNB <>,<1B18>+IFNB<>,<^D>>,IFN ZY-ZZ,<E55>	;NEXT ENTRY
  5360						RADIX	10
  5361						IFNB	<EXECUTE TAKES>,<AUX \<XYZ=XYZ+1>,<EXECUTE TAKES>>^ASCIZ !121 - EXECUTE TAK
  5362	034316	061 062 061 040 055 	ES !^;MESSAGE
  5363	034317	040 105 130 105 103
  5364	034320	125 124 105 040 124
  5365	034321	101 113 105 123 040
  5366	034322	000 000 000 000 000
  5367						RADIX	8
DSKFA	DECSYSTEM 2020 INSTRUCTION TIMING TEST, VER 0,1 	MACRO %51(414) 10:09 21-APR-78 PAGE 131
DSKFAM	MAC	21-APR-78 10:06		DIAGNOSTIC SECTION                                                                 SEQ 0163

  5368	034323				E55:^
  5369
  5370					ENTR 56,<<MOVE [TEMP,,TEMP]>,BLT TEMP>,BLT MEMORY TO MEMORY TAKES,LESS(16)^
  5371			000003			XX=3
  5372						IRP
  5373	034323	200000	035027		IFG XX,<<MOVE [TEMP,,TEMP]>	;INSTRUCTION SET TO BE TIMED>
  5374			000002			XX=XX-1
  5375	034324	251 00 0 00 035051 	IFG XX,<BLT TEMP	;INSTRUCTION SET TO BE TIMED>
  5376			000001			XX=XX-1
  5377
  5378						IFG	XX,<REPEAT XX,<
  5379	034325	000000	000000			0			;NULL INSTRUCTION ENTRY>>
  5380	034326	000000	034333		TM56:	0+IFNB <BLT MEMORY TO MEMORY TAKES>,<EXP .+5>	;XWD TIME,LOCN OF MSG
  5381			000003			XX=3
  5382						IRP
  5383	034327	777777	031222		IFG XX,<LESS(16)^XWD -1,TM16^	;TIME CALCULATION>
  5384			000002			XX=XX-1
  5385
  5386						IFG	XX,<REPEAT XX,
  5387
  5388	034330	000000	000000			0			;NULL CALCULATION ENTRY
  5389
  5390	034331	000000	000000			0			;NULL CALCULATION ENTRY>
  5391						IF1 <ZZ=.>
  5392			034332			ZY=.
  5393	034332	000000	034342			XWD <IFNB <>,<1B18>+IFNB<>,<^D>>,IFN ZY-ZZ,<E56>	;NEXT ENTRY
  5394						RADIX	10
  5395						IFNB	<BLT MEMORY TO MEMORY TAKES>,<AUX \<XYZ=XYZ+1>,<BLT MEMORY TO MEMORY TAKES>
  5396	034333	061 062 062 040 055 	>^ASCIZ !122 - BLT MEMORY TO MEMORY TAKES !^;MESSAGE
  5397	034334	040 102 114 124 040
  5398	034335	115 105 115 117 122
  5399	034336	131 040 124 117 040
  5400	034337	115 105 115 117 122
  5401	034340	131 040 124 101 113
  5402	034341	105 123 040 000 000
  5403						RADIX	8
DSKFA	DECSYSTEM 2020 INSTRUCTION TIMING TEST, VER 0,1 	MACRO %51(414) 10:09 21-APR-78 PAGE 132
DSKFAM	MAC	21-APR-78 10:06		DIAGNOSTIC SECTION                                                                 SEQ 0164

  5404	034342				E56:^
  5405
  5406					ENTR 57,<<MOVE [0,,TEMP]>,BLT TEMP>,BLT AC TO MEMORY TAKES,LESS(16)^
  5407			000003			XX=3
  5408						IRP
  5409	034342	200000	035030		IFG XX,<<MOVE [0,,TEMP]>	;INSTRUCTION SET TO BE TIMED>
  5410			000002			XX=XX-1
  5411	034343	251 00 0 00 035051 	IFG XX,<BLT TEMP	;INSTRUCTION SET TO BE TIMED>
  5412			000001			XX=XX-1
  5413
  5414						IFG	XX,<REPEAT XX,<
  5415	034344	000000	000000			0			;NULL INSTRUCTION ENTRY>>
  5416	034345	000000	034352		TM57:	0+IFNB <BLT AC TO MEMORY TAKES>,<EXP .+5>	;XWD TIME,LOCN OF MSG
  5417			000003			XX=3
  5418						IRP
  5419	034346	777777	031222		IFG XX,<LESS(16)^XWD -1,TM16^	;TIME CALCULATION>
  5420			000002			XX=XX-1
  5421
  5422						IFG	XX,<REPEAT XX,
  5423
  5424	034347	000000	000000			0			;NULL CALCULATION ENTRY
  5425
  5426	034350	000000	000000			0			;NULL CALCULATION ENTRY>
  5427						IF1 <ZZ=.>
  5428			034351			ZY=.
  5429	034351	000000	000000			XWD <IFNB <>,<1B18>+IFNB<>,<^D>>,IFN ZY-ZZ,<E57>	;NEXT ENTRY
  5430						RADIX	10
  5431						IFNB	<BLT AC TO MEMORY TAKES>,<AUX \<XYZ=XYZ+1>,<BLT AC TO MEMORY TAKES>>^ASCIZ
  5432	034352	061 062 063 040 055 	!123 - BLT AC TO MEMORY TAKES !^;MESSAGE
  5433	034353	040 102 114 124 040
  5434	034354	101 103 040 124 117
  5435	034355	040 115 105 115 117
  5436	034356	122 131 040 124 101
  5437	034357	113 105 123 040 000
  5438						RADIX	8
DSKFA	DECSYSTEM 2020 INSTRUCTION TIMING TEST, VER 0,1 	MACRO %51(414) 10:09 21-APR-78 PAGE 133
DSKFAM	MAC	21-APR-78 10:06		DIAGNOSTIC SECTION                                                                 SEQ 0165

  5439	034360				E57:^
DSKFA	DECSYSTEM 2020 INSTRUCTION TIMING TEST, VER 0,1 	MACRO %51(414) 10:09 21-APR-78 PAGE 1
DSKFAS	MAC	21-APR-78 10:07		STORAGE FOR TIMING TEST                                                            SEQ 0166

  5440					SUBTTL	STORAGE FOR TIMING TEST
  5441
  5442	034360	000000	000000		ENDSLD:	0
  5443
  5444					IFDEF	DEBUG,<
  5445	034361				PATCH:	BLOCK DEBUG		;PATCHING AREA
  5446					>
  5447
  5448					;*PROGRAM VARIABLES
  5449
  5450	034461					VAR
  5451
  5452	035000					LOC	<.!777>+1	;LOCATE ON EVEN PAGE BOUNDRY
  5453
  5454					;*SHARE THE CODE ARE WITH THE TIMED INSTRUCTIONS OPERANDS
  5455					;*SO THAT ALL OPERANDS AND INSTRUCTIONS ARE FETCHED FROM THE CACHE
  5456
  5457	035000				CACHE:	LIT
  5458	035000	400000	000000
  5459	035001	000000	000001
  5460	035002	000000	000006
  5461	035003	000000	525252
  5462	035004	201400	000000
  5463	035005	210040	000000
  5464	035006	200525	240000
  5465	035007	100000	000000
  5466	035010	000000	000000
  5467	035011	350700	035010
  5468	035012	350700	035051
  5469	035013	350600	035010
  5470	035014	26 07 0 00 035051
  5471	035015	17 07 0 00 035051
  5472	035016	10 07 0 00 035051
  5473	035017	01 07 0 00 035051
  5474	035020	36 06 0 00 035051
  5475	035021	30 06 0 00 035051
  5476	035022	22 06 0 00 035051
  5477	035023	14 06 0 00 035051
  5478	035024	06 06 0 00 035051
  5479	035025	00 06 0 00 035051
  5480	035026	255 00 0 00 000000
  5481	035027	035051	035051
  5482	035030	000000	035051
  5483	035047	000000	000000		MARG:	0
  5484	035050	000000	000000			0
  5485
  5486	035051	000000	000000		TEMP:	0
  5487	035052	000000	000000		PTEMP:	0			;STORAGE FOR PUSHJ TIMING
  5488	035053	254 02 1 00 000425 	MONUUO:	JRSTF	@425
  5489	035054	254 02 1 00 000000 	LOCUUO:	JRSTF	@0
  5490	035055				$WRIO:
  5491	035055	000001	776700		$RDIO:	1,,776700		;UNIBUS 1 RH-11 ADDRESS
DSKFA	DECSYSTEM 2020 INSTRUCTION TIMING TEST, VER 0,1 	MACRO %51(414) 10:09 21-APR-78 PAGE 2
DSKFAS	MAC	21-APR-78 10:07		STORAGE FOR TIMING TEST                                                            SEQ 0167

  5492					;*TIMED INSTRUCTIONS ARGUMENT TABLE
  5493	035056	200525	252500		DFARG1:	200525,,252500
  5494	035057	000000	000000			0
  5495	035060	201400	000000		MCARG1:	1.0
  5496	035061	000000	000000			0
  5497	035062	200525	252520		DFARG2:	200525,,252520
  5498	035063	000000	000000			0
  5499	035064	000000	000000		MCARG2:	0
  5500	035065	000000	000000			0
  5501	035066	000000	000000			0
  5502	035067	000000	000000			0
  5503	035070	576200	000000		MCARG3:	-1.5
  5504	035071	000000	000000			0
  5505	035072	200400	000000		DFARG3:	200400,,0
  5506	035073	000000	000000			0
  5507	035074	200400	000000		DFARG5:	200400,,0
  5508	035075	000000	000000			0
  5509	035076	201400	000000		DFARG4:	201400,,0
  5510	035077	000000	000000			0
  5511	035100	210400	000000		DFARG6:	210400,,0
  5512	035101	000000	000000			0
  5513	035102	200525	240000		DFARG7:	200525,,240000
  5514	035103	000000	000000			0			;SECOND OPERAND
  5515
  5516			003614		CODE:	LENGTH=^D2000-<CODE-CACHE>
  5517						IFLE	<LENGTH-^D500>,<PRINTX ? INSTRUCTION SEQUENCE TABLE OVERFLOW!>
  5518	035104					BLOCK	LENGTH
  5519
  5520	040720	000000	000000		END:	0
  5521			030000			END	BEGIN

NO ERRORS DETECTED

PROGRAM BREAK IS 000000
ABSLUTE BREAK IS 040721
CPU TIME USED 00:16.545

10K CORE USED

ABORT	   114#
AC	    55#                                                                                                            SEQ 0168
ALTMGO	   464#
APR	   808	   810	   813	   854	   857	   859
AROV	   378#
AROVTP	   378#
AROVU	   378#
AST	   579#
ATSIN	   580#
BEGEND	   460#
BEGIN	    84	    86	    89	    90	    91	    92	    93	    94	   329	   330	   391#	  5521
BEGIN1	   407#	   461
BELL	   583#
BIS	   378#
C	    60#	    61	   771	   780	   871
CACHE	   731	   733	  5457#	  5516
CALC	   754	   888#
CALC1	   831#	   890	   892	   894
CALCNS	   902	   921#
CC	    61#	   781	   804	   871	   875
CCA	   378#
CHAIN	   134#
CHNOFF	   378#
CHNON	   378#
CLKU	   378#
CLOCKF	   446#
CNTLC	   463#
CNTRP	   378#
CODE	   769	   781	   815	   873	  5516#	  5516
CODSIZ	   734#	   734	   779
COMMA	   572#
CONSW	   447#	   727
CPOPJ	   467#	   794
CPOPJ1	   465#	   823
CRLF	   264	   265	   567#
CRLF2	   268	   269	   569#
CRY0	   378#
CRY1	   378#
CSHFLG	   626#	   732
CSHMEM	   627#
CTRP	   378#
CYCL60	   620#
DCK	   378#
DDTLNK	   148#	   405
DDTSRT	   405#
DEBUG	    66#	  5444	  5445
DECVER	     4#	    10	    23	   426
DF22F	   531#
DFARG1	  5493#
DFARG2	  5497#
DFARG3	  2843	  5505#
DFARG4	  2845	  2917	  2957	  5509#
DFARG5	  2879	  5507#
DFARG6	  2881	  5511#
DFARG7	  2919	  2955	  5513#                                                                                            SEQ 0169
DIAGMN	   394#
DING	   120#
DOLLAR	   586#
DSKUPD	   431
E1	   998	  1002#
E11	  1094	  1102#
E12	  1128	  1136#
E13	  1162	  1173#
E14	  1199	  1207#
E141	  1233	  1241#
E15	  1267	  1276#
E16	  1302	  1312#
E161	  1338	  1348#
E17	  1374	  1384#
E171	  1410	  1420#
E172	  1446	  1456#
E18	  1482	  1490#
E181	  1516	  1524#
E182	  1550	  1558#
E183	  1584	  1592#
E184	  1618	  1626#
E185	  1652	  1660#
E19	  1686	  1694#
E191	  1719	  1728#
E192	  1754	  1762#
E193	  1788	  1798#
E194	  1824	  1834#
E2	  1028	  1038#
E20	  1859	  1867#
E201	  1893	  1901#
E202	  1927	  1935#
E203	  1961	  1969#
E204	  1995	  2003#
E205	  2029	  2037#
E206	  2063	  2071#
E207	  2096	  2105#
E208	  2130	  2139#
E209	  2164	  2172#
E21	  2297	  2305#
E210	  2197	  2205#
E211	  2231	  2239#
E212	  2264	  2272#
E22	  2331	  2341#
E221	  2367	  2377#
E222	  2403	  2413#
E23	  2438	  2450#
E231	  2475	  2483#
E24	  2508	  2516#
E241	  2541	  2549#
E25	  2574	  2586#
E26	  2611	  2622#
E27	  2647	  2658#
E28	  2683	  2696#                                                                                                    SEQ 0170
E29	  2721	  2733#
E30	  2758	  2766#
E31	  2792	  2802#
E311	  2828	  2838#
E32	  2863	  2874#
E33	  2899	  2912#
E34	  2937	  2950#
E35	  2975	  2983#
E36	  3009	  3017#
E361	  3043	  3051#
E362	  3077	  3086#
E363	  3112	  3123#
E364	  3149	  3160#
E365	  3186	  3194#
E366	  3220	  3228#
E38	  3254	  3267#
E39	  3294	  3307#
E40	  3334	  3350#
E41	  3377	  3393#
E42	  3420	  3431#
E43	  3458	  3468#
E44	  3495	  3505#
E441	  3532	  3542#
E442	  3569	  3579#
E443	  3605	  3616#
E444	  3642	  3653#
E445	  3679	  3690#
E446	  3716	  3727#
E447	  3753	  3764#
E448	  3790	  3801#
E449	  3827	  3838#
E450	  3864	  3875#
E451	  3901	  3912#
E452	  3938	  3949#
E453	  3975	  3986#
E454	  4012	  4023#
E455	  4049	  4060#
E456	  4086	  4097#
E457	  4123	  4134#
E458	  4160	  4171#
E459	  4197	  4208#
E46	  4419	  4427#
E460	  4234	  4245#
E461	  4271	  4282#
E462	  4308	  4319#
E463	  4345	  4356#
E464	  4382	  4393#
E47	  4453	  4462#
E471	  4488	  4499#
E472	  4524	  4534#
E473	  4560	  4570#
E474	  4596	  4609#
E475	  4634	  4645#                                                                                                    SEQ 0171
E476	  4671	  4682#
E477	  4709	  4722#
E478	  4747	  4759#
E482	  4785	  4794#
E483	  4819	  4828#
E484	  4854	  4863#
E485	  4888	  4897#
E486	  4923	  4932#
E487	  4957	  4966#
E488	  4992	  5001#
E489	  5026	  5035#
E49	  5211	  5221#
E490	  5061	  5073#
E491	  5098	  5109#
E492	  5135	  5148#
E493	  5173	  5185#
E5	  1064	  1068#
E50	  5247	  5257#
E53	  5283	  5295#
E54	  5321	  5333#
E55	  5359	  5368#
E56	  5393	  5404#
E57	  5439#
EBIT0	   378#
EBIT1	   378#
EBIT10	   378#
EBIT11	   378#
EBIT12	   378#
EBIT13	   378#
EBIT14	   378#
EBIT15	   378#
EBIT2	   378#
EBIT3	   378#
EBIT4	   378#
EBIT5	   378#
EBIT6	   378#
EBIT7	   378#
EBIT8	   378#
EBIT9	   378#
END	  5520#
ENDFIX	   706#
ENDSLD	  5442#
ERMORE	   480#
EROLD	   340
ERRPC	   451#
ERRTLS	   452#
ERSTOP	   123#
EXCASB	    65#	   429
EXIOT	   378#
FOV	   378#
FOVU	   378#
FRDLNK	   146#
FSELNK	   145#                                                                                                            SEQ 0172
FXU	   378#
HYPEN	   577#
INHCSH	   131#
INHPAG	   128#
IOCLR	   378#
ITERAT	   103#	   424
ITRCH1	   484#
ITRCLK	   739	   853#	   858	   872
ITRCNT	   424#
JOB41	   378#
JOBAPR	   378#
JOBCNI	   378#
JOBDDT	   378#
JOBFF	   378#
JOBOPC	   378#
JOBREL	   378#
JOBREN	   378#
JOBSA	   378#
JOBSYM	   378#
JOBTPC	   378#
JOBUSY	   378#
JOBUUO	   378#
JOBVER	   378#
KAIFLG	   441#
KLFLG	   442#
KNTRP	   378#
KTRP	   378#
LACLK	   378#
LACLKE	   378#
LAPRAL	   378#
LAPRP1	   378#	   813	   857	   859
LAPRP2	   378#
LAPRP3	   378#
LAPRP4	   378#
LAPRP5	   378#
LAPRP6	   378#
LAPRP7	   378#
LCHNOF	   378#
LCHNON	   378#
LCNTXT	   378#
LCNXER	   378#
LCPAER	   378#
LCPSFT	   378#
LCPWRF	   378#
LDATAF	   378#
LDLNK	   147#	   394	   396
LDNXER	   378#
LDPAER	   378#
LDPSFT	   378#
LDPWRF	   378#
LEBXMH	   378#
LEBXML	   378#
LENGTH	  5516#	  5517	  5518                                                                                             SEQ 0173
LENXER	   378#
LEPAER	   378#
LEPSFT	   378#
LEPWRF	   378#
LEUPFW	   378#
LEXCMP	   378#
LFLGCL	   378#
LFLGDS	   378#
LFLGEN	   378#
LFLGST	   378#
LFP	   581#
LINSTF	   378#
LINT	   378#
LIOCLR	   378#
LLACBL	   378#	  3128
LLDUSB	   378#	  3091
LMBXMH	   378#
LMBXML	   378#
LNXMEN	   378#
LNXMER	   378#
LOCUUO	   806	  5489#
LOOP	   749#	   756
LOOPER	   122#
LPAREN	   378#
LPARER	   378#
LPFWPC	   378#
LPGFTR	   378#
LPICH1	   378#
LPICH2	   378#
LPICH3	   378#
LPICH4	   378#
LPICH5	   378#
LPICH6	   378#
LPICH7	   378#
LPICHA	   378#
LPICLR	   378#
LPIIP1	   378#
LPIIP2	   378#
LPIIP3	   378#
LPIIP4	   378#
LPIIP5	   378#
LPIIP6	   378#
LPIIP7	   378#
LPIOFF	   378#
LPION	   378#
LPRCH1	   378#
LPRCH2	   378#
LPRCH3	   378#
LPRCH4	   378#
LPRCH5	   378#
LPRCH6	   378#
LPRCH7	   378#
LPRFMH	   378#                                                                                                            SEQ 0174
LPRFML	   378#
LPSFT	   378#
LPSFTE	   378#
LPWRFE	   378#
LPWRFL	   378#
LREQSE	   378#
LRQCLR	   378#
LSECMO	   378#
LSMODE	   378#
LSNXER	   378#
LSPAER	   378#
LSPSFT	   378#
LSPWRF	   378#
LTBASH	   378#
LTBASL	   378#
LTRPAE	   378#
LTRPEN	   378#
LUSCMP	   378#
LUUO	   378#
LUUO1	   511	   512
LUUO10	   511	   516
LUUO11	   511	   516
LUUO12	   511	   517
LUUO13	   511	   517
LUUO14	   511	   518
LUUO15	   511	   518
LUUO16	   511	   519
LUUO17	   511	   519
LUUO2	   511	   513
LUUO20	   511	   520
LUUO21	   511	   520
LUUO22	   511	   521
LUUO23	   511	   521
LUUO24	   511	   522
LUUO25	   511	   522
LUUO26	   511	   523
LUUO27	   511	   523
LUUO3	   511	   513
LUUO30	   511	   524
LUUO31	   511	   524
LUUO32	   511	   525
LUUO33	   511	   525
LUUO4	   511	   514
LUUO5	   511	   514
LUUO6	   511	   515
LUUO7	   511	   515
LUUOI	   378#
LWRITE	   378#
MAPNEW	   532#
MARG	  1281	  1353	  1389	  1425	  2771	  2807	  5483#
MARGIN	   454#
MCARG1	   744	  5495#
MCARG2	   745	  5499#                                                                                                    SEQ 0175
MCARG3	   747	  5503#
MCNVER	     3#	    10	    23	   426
MEMLOW	   534#
MEMMAP	   432
MEMSIZ	   535#
MEMTOT	   533#
MESSAG	   753	   822#
MINUS	   576#
MODDVC	   130#
MODDVL	   329	   329#	   427
MODDVU	   330	   330#	   428
MODLNK	   149#	   391
MONCTL	   444#
MONFLG	   443#	   866
MONTEN	   445#
MONTYP	   658#
MONUUO	   735	  5488#
MPVU	   378#
MUUO	   378#
MUUOPC	   378#
NOPNT	   118#
NXMU	   378#
OPRSEL	   132#
OPTIME	   546#
P	   175	   176	   177	   178	   378#	   466
PAG	   378#	  3056	  3091	  3128
PALERS	   124#
PAREA1	    96#	   422
PAREA2	    97#	   423
PAREA3	    98#	   420
PAREA4	    99#	   421
PAREA5	   100#	   433
PAREA6	   101#	   434
PAREA7	   433#
PAREA8	   434#
PARU	   378#
PASCNT	   448#
PATCH	  5445#
PDISF	   543#
PDLOVU	   378#
PDOVTP	   378#
PERIOD	   573#	   906
PFSTRT	   400#
PGMEND	    67#
PGMNAM	   425	   709#
PI	   738	   814	   860	  2988	  3022
PICHN1	   378#	   814
PICHN2	   378#
PICHN3	   378#
PICHN4	   378#
PICHN5	   378#
PICHN6	   378#
PICHN7	   378#                                                                                                            SEQ 0176
PICHNA	   378#
PICLR	   378#	   738
PIOFF	   378#	   860
PION	   378#
PLIST	   612#	   612
PLISTE	   612	   614#
PLISTS	   613#
PLUS	   578#
PNTENB	   542#
PNTEXT	   421#
PNTFLG	   541#
PNTINH	   544#
PNTLPT	   119#
PNTNAM	   420#
PNTRP	   378#
PNTSPC	   545#
PTEMP	  2144	  2177	  2277	  5487#
PTRP	   378#
PVPAGI	   639#
QUEST	   584#
RADIX	   587#
RADLSC	   589#	   912	   916
RADLSP	   588#	   742
RANDBS	   422#
REENTR	   402#
RELIAB	   126#
REPT	   378#
REPT1	   378#
REPTU	   500#
REQSET	   378#
RESRT1	    85	   477#
RESRT2	   478#
RETURN	   409#
RSTART	   115#
RTP	   582#
RUNFLG	   449#
SADR1	    84#	   398
SADR10	    93#	   414
SADR11	    94#	   415
SADR2	    85#	   400
SADR3	    86#	   402
SADR4	    87#
SADR5	    88#	   463
SADR6	    89#	   464
SADR7	    90#	   411
SADR8	    91#	   412
SADR9	    92#	   413
SAV41	   730#	   730	   861
SBINIT	   188	   408#
SCOPE	   501#
SET0	   774	   776	   778	   790#
SET1	   772#	   780
SETRUN	   751	   769#                                                                                                    SEQ 0177
SFSTRT	   398#
SLASH	   585#
SM10	   689#
SNTRP	   378#
SPACE	   574#
SRTDDT	    87	   404#
START	   392	   726#
START1	   411#
START2	   412#
START3	   413#
START4	   414#
START5	   415#
STARTA	   407	   725#
STRP	   378#
SUBLNK	   150#	   408
SWPTAB	   695#
SWTEXR	   423#
SYSEXR	   396#
T	    57#	    58	   769	   779	   782	   792	   793	   794	   833	   835	   872	   873	   874	   875
	   877	   888	   898	   899	   900	   901	   902	   903	   904	   908	   909	   910	   913	   921
T1	    59#	   770	   791	   822	   823	   824	   831	   832	   834	   889	   891	   893	   895	   896
	   897	   898
TAB	   575#
TABLE	   749	   972#
TB	    56#	   749	   755	   756	   773	   775	   777	   822	   878	   888	   889	   891	   893	   895
TEMP	   805	  1317	  1495	  1529	  1597	  1631	  1974	  2042	  2382	  3401	  3403	  3439	  3441	  3474
	  3476	  3478	  3513	  3515	  3550	  3552	  3584	  3621	  3658	  3695	  3732	  3769	  3806	  3843
	  3880	  3917	  3954	  3991	  4028	  4065	  4102	  4139	  4176	  4213	  4250	  4287	  4324	  4361
	  4650	  4687	  4727	  4902	  4937	  4971	  5006	  5114	  5153	  5226	  5300	  5373	  5375	  5409
	  5411	  5486#
TESTPC	   450#
TICKS	   453#
TICKX	   817#
TIMEX	   752	   804#
TM1	   985#	  1018
TM11	  1081#
TM12	  1115#
TM13	  1149#
TM14	  1186#
TM141	  1220#
TM15	  1254#
TM16	  1289#	  2086	  2120	  2498	  2601	  2711	  2748	  3411	  3449	  3486	  3523	  3560	  5383	  5419
TM161	  1325#	  3413	  3451	  3488	  3525	  3562
TM17	  1361#
TM171	  1397#
TM172	  1433#
TM18	  1469#
TM181	  1503#
TM182	  1537#
TM183	  1571#
TM184	  1605#
TM185	  1639#
TM19	  1673#                                                                                                            SEQ 0178
TM191	  1706#	  2221	  2255
TM192	  1741#
TM193	  1775#
TM194	  1811#
TM2	  1015#
TM20	  1846#
TM201	  1880#	  2257
TM202	  1914#
TM203	  1948#
TM204	  1982#
TM205	  2016#
TM206	  2050#
TM207	  2083#
TM208	  2117#
TM209	  2151#
TM21	  2284#
TM210	  2184#
TM211	  2218#
TM212	  2252#
TM22	  2318#
TM221	  2354#
TM222	  2390#
TM23	  2425#
TM231	  2462#
TM24	  2495#
TM241	  2528#
TM25	  2561#
TM26	  2598#
TM27	  2634#
TM28	  2670#
TM29	  2708#
TM30	  2745#
TM31	  2779#	  2853	  2889	  2927	  2965
TM311	  2815#
TM32	  2850#
TM33	  2886#
TM34	  2924#
TM35	  2962#
TM36	  2996#
TM361	  3030#
TM362	  3064#
TM363	  3099#
TM364	  3136#
TM365	  3173#
TM366	  3207#
TM38	  3241#
TM39	  3280#
TM40	  3320#
TM41	  3363#
TM42	  3408#
TM43	  3446#
TM44	  3483#
TM441	  3520#                                                                                                            SEQ 0179
TM442	  3557#
TM443	  3592#
TM444	  3629#
TM445	  3666#
TM446	  3703#
TM447	  3740#
TM448	  3777#
TM449	  3814#
TM450	  3851#
TM451	  3888#
TM452	  3925#
TM453	  3962#
TM454	  3999#
TM455	  4036#
TM456	  4073#
TM457	  4110#
TM458	  4147#
TM459	  4184#
TM46	  4406#	  5349
TM460	  4221#
TM461	  4258#
TM462	  4295#
TM463	  4332#
TM464	  4369#
TM47	  4440#
TM471	  4475#
TM472	  4511#
TM473	  4547#
TM474	  4583#
TM475	  4621#
TM476	  4658#
TM477	  4695#
TM478	  4734#
TM482	  4772#
TM483	  4806#
TM484	  4841#
TM485	  4875#
TM486	  4910#
TM487	  4944#
TM488	  4979#
TM489	  5013#
TM49	  5198#
TM490	  5048#
TM491	  5085#
TM492	  5122#
TM493	  5160#
TM5	  1051#	  1084	  1118	  1152	  2154	  2187	  2287	  2428	  2465	  2531	  2564	  2637	  2673
TM50	  5234#
TM53	  5270#
TM54	  5308#
TM55	  5346#
TM56	  5380#
TM57	  5416#                                                                                                            SEQ 0180
TN0	   378#
TN1	   378#
TOTALS	   116#
TRP3TP	   378#
TT	    58#	    59	   773	   775	   777	   781	   782	   791	   792	   793	   831	   833	   835	   876
	   877	   878
TTNBRF	   633#
TTYFIL	   549#
TTYSPD	   550#
TXTINH	   127#
UBAVEC	   378#
USER	   440#
USERF	   378#	   864	   869
USRASB	   430
USRCRF	   559#
USRLFF	   558#
UUODIS	   512#
UUOEXT	   468#
UUORTN	   469#
UUOSKP	   466#
WDSPI	   772	   790	   796#	   874
XX	   975#	   977	   978	   978#	   980	   986#	   989	  1005#	  1007	  1008	  1008#	  1010	  1016#	  1018
	  1019	  1019#	  1021	  1041#	  1043	  1044	  1044#	  1046	  1052#	  1055	  1071#	  1073	  1074	  1074#
	  1076	  1082#	  1084	  1085	  1085#	  1087	  1105#	  1107	  1108	  1108#	  1110	  1116#	  1118	  1119
	  1119#	  1121	  1139#	  1141	  1142	  1142#	  1144	  1150#	  1152	  1153	  1153#	  1155	  1176#	  1178
	  1179	  1179#	  1181	  1187#	  1190	  1210#	  1212	  1213	  1213#	  1215	  1221#	  1224	  1244#	  1246
	  1247	  1247#	  1249	  1255#	  1258	  1279#	  1281	  1282	  1282#	  1284	  1290#	  1293	  1315#	  1317
	  1318	  1318#	  1320	  1326#	  1329	  1351#	  1353	  1354	  1354#	  1356	  1362#	  1365	  1387#	  1389
	  1390	  1390#	  1392	  1398#	  1401	  1423#	  1425	  1426	  1426#	  1428	  1434#	  1437	  1459#	  1461
	  1462	  1462#	  1464	  1470#	  1473	  1493#	  1495	  1496	  1496#	  1498	  1504#	  1507	  1527#	  1529
	  1530	  1530#	  1532	  1538#	  1541	  1561#	  1563	  1564	  1564#	  1566	  1572#	  1575	  1595#	  1597
	  1598	  1598#	  1600	  1606#	  1609	  1629#	  1631	  1632	  1632#	  1634	  1640#	  1643	  1663#	  1665
	  1666	  1666#	  1668	  1674#	  1677	  1697#	  1699	  1700	  1700#	  1701	  1702	  1702#	  1704	  1707#
	  1710	  1731#	  1733	  1734	  1734#	  1736	  1742#	  1745	  1765#	  1767	  1768	  1768#	  1770	  1776#
	  1779	  1801#	  1803	  1804	  1804#	  1806	  1812#	  1815	  1837#	  1839	  1840	  1840#	  1841	  1842
	  1842#	  1844	  1847#	  1850	  1870#	  1872	  1873	  1873#	  1875	  1881#	  1884	  1904#	  1906	  1907
	  1907#	  1909	  1915#	  1918	  1938#	  1940	  1941	  1941#	  1943	  1949#	  1952	  1972#	  1974	  1975
	  1975#	  1977	  1983#	  1986	  2006#	  2008	  2009	  2009#	  2011	  2017#	  2020	  2040#	  2042	  2043
	  2043#	  2045	  2051#	  2054	  2074#	  2076	  2077	  2077#	  2078	  2079	  2079#	  2081	  2084#	  2086
	  2087	  2087#	  2089	  2108#	  2110	  2111	  2111#	  2112	  2113	  2113#	  2115	  2118#	  2120	  2121
	  2121#	  2123	  2142#	  2144	  2145	  2145#	  2146	  2147	  2147#	  2149	  2152#	  2154	  2155	  2155#
	  2157	  2175#	  2177	  2178	  2178#	  2179	  2180	  2180#	  2182	  2185#	  2187	  2188	  2188#	  2190
	  2208#	  2210	  2211	  2211#	  2213	  2219#	  2221	  2222	  2222#	  2224	  2242#	  2244	  2245	  2245#
	  2247	  2253#	  2255	  2256	  2256#	  2257	  2258	  2258#	  2260	  2275#	  2277	  2278	  2278#	  2279
	  2280	  2280#	  2282	  2285#	  2287	  2288	  2288#	  2290	  2308#	  2310	  2311	  2311#	  2313	  2319#
	  2322	  2344#	  2346	  2347	  2347#	  2349	  2355#	  2358	  2380#	  2382	  2383	  2383#	  2385	  2391#
	  2394	  2416#	  2418	  2419	  2419#	  2420	  2421	  2421#	  2423	  2426#	  2428	  2429	  2429#	  2431
	  2453#	  2455	  2456	  2456#	  2457	  2458	  2458#	  2460	  2463#	  2465	  2466	  2466#	  2468	  2486#
	  2488	  2489	  2489#	  2490	  2491	  2491#	  2493	  2496#	  2498	  2499	  2499#	  2501	  2519#	  2521
	  2522	  2522#	  2523	  2524	  2524#	  2526	  2529#	  2531	  2532	  2532#	  2534	  2552#	  2554	  2555
	  2555#	  2556	  2557	  2557#	  2559	  2562#	  2564	  2565	  2565#	  2567	  2589#	  2591	  2592	  2592#
	  2593	  2594	  2594#	  2596	  2599#	  2601	  2602	  2602#	  2604	  2625#	  2627	  2628	  2628#	  2629
	  2630	  2630#	  2632	  2635#	  2637	  2638	  2638#	  2640	  2661#	  2663	  2664	  2664#	  2665	  2666     SEQ 0181
	  2666#	  2668	  2671#	  2673	  2674	  2674#	  2676	  2699#	  2701	  2702	  2702#	  2703	  2704	  2704#
	  2706	  2709#	  2711	  2712	  2712#	  2714	  2736#	  2738	  2739	  2739#	  2740	  2741	  2741#	  2743
	  2746#	  2748	  2749	  2749#	  2751	  2769#	  2771	  2772	  2772#	  2774	  2780#	  2783	  2805#	  2807
	  2808	  2808#	  2810	  2816#	  2819	  2841#	  2843	  2844	  2844#	  2845	  2846	  2846#	  2848	  2851#
	  2853	  2854	  2854#	  2856	  2877#	  2879	  2880	  2880#	  2881	  2882	  2882#	  2884	  2887#	  2889
	  2890	  2890#	  2892	  2915#	  2917	  2918	  2918#	  2919	  2920	  2920#	  2922	  2925#	  2927	  2928
	  2928#	  2930	  2953#	  2955	  2956	  2956#	  2957	  2958	  2958#	  2960	  2963#	  2965	  2966	  2966#
	  2968	  2986#	  2988	  2989	  2989#	  2991	  2997#	  3000	  3020#	  3022	  3023	  3023#	  3025	  3031#
	  3034	  3054#	  3056	  3057	  3057#	  3059	  3065#	  3068	  3089#	  3091	  3092	  3092#	  3094	  3100#
	  3103	  3126#	  3128	  3129	  3129#	  3131	  3137#	  3140	  3163#	  3165	  3166	  3166#	  3168	  3174#
	  3177	  3197#	  3199	  3200	  3200#	  3202	  3208#	  3211	  3231#	  3233	  3234	  3234#	  3236	  3242#
	  3245	  3270#	  3272	  3273	  3273#	  3275	  3282#	  3285	  3310#	  3312	  3313	  3313#	  3315	  3322#
	  3325	  3353#	  3355	  3356	  3356#	  3358	  3365#	  3368	  3397#	  3399	  3400	  3400#	  3401	  3402
	  3402#	  3403	  3404	  3404#	  3406	  3409#	  3411	  3412	  3412#	  3413	  3414	  3414#	  3416	  3435#
	  3437	  3438	  3438#	  3439	  3440	  3440#	  3441	  3442	  3442#	  3444	  3447#	  3449	  3450	  3450#
	  3451	  3452	  3452#	  3454	  3472#	  3474	  3475	  3475#	  3476	  3477	  3477#	  3478	  3479	  3479#
	  3481	  3484#	  3486	  3487	  3487#	  3488	  3489	  3489#	  3491	  3509#	  3511	  3512	  3512#	  3513
	  3514	  3514#	  3515	  3516	  3516#	  3518	  3521#	  3523	  3524	  3524#	  3525	  3526	  3526#	  3528
	  3546#	  3548	  3549	  3549#	  3550	  3551	  3551#	  3552	  3553	  3553#	  3555	  3558#	  3560	  3561
	  3561#	  3562	  3563	  3563#	  3565	  3582#	  3584	  3585	  3585#	  3587	  3593#	  3596	  3619#	  3621
	  3622	  3622#	  3624	  3630#	  3633	  3656#	  3658	  3659	  3659#	  3661	  3667#	  3670	  3693#	  3695
	  3696	  3696#	  3698	  3704#	  3707	  3730#	  3732	  3733	  3733#	  3735	  3741#	  3744	  3767#	  3769
	  3770	  3770#	  3772	  3778#	  3781	  3804#	  3806	  3807	  3807#	  3809	  3815#	  3818	  3841#	  3843
	  3844	  3844#	  3846	  3852#	  3855	  3878#	  3880	  3881	  3881#	  3883	  3889#	  3892	  3915#	  3917
	  3918	  3918#	  3920	  3926#	  3929	  3952#	  3954	  3955	  3955#	  3957	  3963#	  3966	  3989#	  3991
	  3992	  3992#	  3994	  4000#	  4003	  4026#	  4028	  4029	  4029#	  4031	  4037#	  4040	  4063#	  4065
	  4066	  4066#	  4068	  4074#	  4077	  4100#	  4102	  4103	  4103#	  4105	  4111#	  4114	  4137#	  4139
	  4140	  4140#	  4142	  4148#	  4151	  4174#	  4176	  4177	  4177#	  4179	  4185#	  4188	  4211#	  4213
	  4214	  4214#	  4216	  4222#	  4225	  4248#	  4250	  4251	  4251#	  4253	  4259#	  4262	  4285#	  4287
	  4288	  4288#	  4290	  4296#	  4299	  4322#	  4324	  4325	  4325#	  4327	  4333#	  4336	  4359#	  4361
	  4362	  4362#	  4364	  4370#	  4373	  4396#	  4398	  4399	  4399#	  4401	  4407#	  4410	  4430#	  4432
	  4433	  4433#	  4435	  4441#	  4444	  4465#	  4467	  4468	  4468#	  4470	  4476#	  4479	  4502#	  4504
	  4505	  4505#	  4506	  4507	  4507#	  4509	  4512#	  4515	  4537#	  4539	  4540	  4540#	  4542	  4548#
	  4551	  4573#	  4575	  4576	  4576#	  4578	  4584#	  4587	  4612#	  4614	  4615	  4615#	  4616	  4617
	  4617#	  4619	  4622#	  4625	  4648#	  4650	  4651	  4651#	  4653	  4659#	  4662	  4685#	  4687	  4688
	  4688#	  4690	  4697#	  4700	  4725#	  4727	  4728	  4728#	  4729	  4730	  4730#	  4732	  4735#	  4738
	  4762#	  4764	  4765	  4765#	  4767	  4773#	  4776	  4797#	  4799	  4800	  4800#	  4801	  4802	  4802#
	  4804	  4807#	  4810	  4831#	  4833	  4834	  4834#	  4836	  4842#	  4845	  4866#	  4868	  4869	  4869#
	  4870	  4871	  4871#	  4873	  4876#	  4879	  4900#	  4902	  4903	  4903#	  4905	  4911#	  4914	  4935#
	  4937	  4938	  4938#	  4939	  4940	  4940#	  4942	  4945#	  4948	  4969#	  4971	  4972	  4972#	  4974
	  4980#	  4983	  5004#	  5006	  5007	  5007#	  5008	  5009	  5009#	  5011	  5014#	  5017	  5038#	  5040
	  5041	  5041#	  5043	  5049#	  5052	  5076#	  5078	  5079	  5079#	  5080	  5081	  5081#	  5083	  5086#
	  5089	  5112#	  5114	  5115	  5115#	  5117	  5123#	  5126	  5151#	  5153	  5154	  5154#	  5155	  5156
	  5156#	  5158	  5161#	  5164	  5188#	  5190	  5191	  5191#	  5193	  5199#	  5202	  5224#	  5226	  5227
	  5227#	  5229	  5235#	  5238	  5260#	  5262	  5263	  5263#	  5265	  5271#	  5274	  5298#	  5300	  5301
	  5301#	  5303	  5309#	  5312	  5336#	  5338	  5339	  5339#	  5341	  5347#	  5349	  5350	  5350#	  5352
	  5371#	  5373	  5374	  5374#	  5375	  5376	  5376#	  5378	  5381#	  5383	  5384	  5384#	  5386	  5407#
	  5409	  5410	  5410#	  5411	  5412	  5412#	  5414	  5417#	  5419	  5420	  5420#	  5422
XYZ	   970#	  1030	  1030#	  1096	  1096#	  1130	  1130#	  1164	  1164#	  1201	  1201#	  1235	  1235#	  1269
	  1269#	  1304	  1304#	  1340	  1340#	  1376	  1376#	  1412	  1412#	  1448	  1448#	  1484	  1484#	  1518
	  1518#	  1552	  1552#	  1586	  1586#	  1620	  1620#	  1654	  1654#	  1688	  1688#	  1721	  1721#	  1756
	  1756#	  1790	  1790#	  1826	  1826#	  1861	  1861#	  1895	  1895#	  1929	  1929#	  1963	  1963#	  1997
	  1997#	  2031	  2031#	  2065	  2065#	  2098	  2098#	  2132	  2132#	  2166	  2166#	  2199	  2199#	  2233     SEQ 0182
	  2233#	  2266	  2266#	  2299	  2299#	  2333	  2333#	  2369	  2369#	  2405	  2405#	  2440	  2440#	  2477
	  2477#	  2510	  2510#	  2543	  2543#	  2576	  2576#	  2613	  2613#	  2649	  2649#	  2685	  2685#	  2723
	  2723#	  2760	  2760#	  2794	  2794#	  2830	  2830#	  2865	  2865#	  2901	  2901#	  2939	  2939#	  2977
	  2977#	  3011	  3011#	  3045	  3045#	  3079	  3079#	  3114	  3114#	  3151	  3151#	  3188	  3188#	  3222
	  3222#	  3256	  3256#	  3296	  3296#	  3336	  3336#	  3379	  3379#	  3422	  3422#	  3460	  3460#	  3497
	  3497#	  3534	  3534#	  3571	  3571#	  3607	  3607#	  3644	  3644#	  3681	  3681#	  3718	  3718#	  3755
	  3755#	  3792	  3792#	  3829	  3829#	  3866	  3866#	  3903	  3903#	  3940	  3940#	  3977	  3977#	  4014
	  4014#	  4051	  4051#	  4088	  4088#	  4125	  4125#	  4162	  4162#	  4199	  4199#	  4236	  4236#	  4273
	  4273#	  4310	  4310#	  4347	  4347#	  4384	  4384#	  4421	  4421#	  4455	  4455#	  4490	  4490#	  4526
	  4526#	  4562	  4562#	  4598	  4598#	  4636	  4636#	  4673	  4673#	  4711	  4711#	  4749	  4749#	  4787
	  4787#	  4821	  4821#	  4856	  4856#	  4890	  4890#	  4925	  4925#	  4959	  4959#	  4994	  4994#	  5028
	  5028#	  5063	  5063#	  5100	  5100#	  5137	  5137#	  5175	  5175#	  5213	  5213#	  5249	  5249#	  5285
	  5285#	  5323	  5323#	  5361	  5361#	  5395	  5395#	  5431	  5431#
ZY	   997#	   998	  1027#	  1028	  1063#	  1064	  1093#	  1094	  1127#	  1128	  1161#	  1162	  1198#	  1199
	  1232#	  1233	  1266#	  1267	  1301#	  1302	  1337#	  1338	  1373#	  1374	  1409#	  1410	  1445#	  1446
	  1481#	  1482	  1515#	  1516	  1549#	  1550	  1583#	  1584	  1617#	  1618	  1651#	  1652	  1685#	  1686
	  1718#	  1719	  1753#	  1754	  1787#	  1788	  1823#	  1824	  1858#	  1859	  1892#	  1893	  1926#	  1927
	  1960#	  1961	  1994#	  1995	  2028#	  2029	  2062#	  2063	  2095#	  2096	  2129#	  2130	  2163#	  2164
	  2196#	  2197	  2230#	  2231	  2263#	  2264	  2296#	  2297	  2330#	  2331	  2366#	  2367	  2402#	  2403
	  2437#	  2438	  2474#	  2475	  2507#	  2508	  2540#	  2541	  2573#	  2574	  2610#	  2611	  2646#	  2647
	  2682#	  2683	  2720#	  2721	  2757#	  2758	  2791#	  2792	  2827#	  2828	  2862#	  2863	  2898#	  2899
	  2936#	  2937	  2974#	  2975	  3008#	  3009	  3042#	  3043	  3076#	  3077	  3111#	  3112	  3148#	  3149
	  3185#	  3186	  3219#	  3220	  3253#	  3254	  3293#	  3294	  3333#	  3334	  3376#	  3377	  3419#	  3420
	  3457#	  3458	  3494#	  3495	  3531#	  3532	  3568#	  3569	  3604#	  3605	  3641#	  3642	  3678#	  3679
	  3715#	  3716	  3752#	  3753	  3789#	  3790	  3826#	  3827	  3863#	  3864	  3900#	  3901	  3937#	  3938
	  3974#	  3975	  4011#	  4012	  4048#	  4049	  4085#	  4086	  4122#	  4123	  4159#	  4160	  4196#	  4197
	  4233#	  4234	  4270#	  4271	  4307#	  4308	  4344#	  4345	  4381#	  4382	  4418#	  4419	  4452#	  4453
	  4487#	  4488	  4523#	  4524	  4559#	  4560	  4595#	  4596	  4633#	  4634	  4670#	  4671	  4708#	  4709
	  4746#	  4747	  4784#	  4785	  4818#	  4819	  4853#	  4854	  4887#	  4888	  4922#	  4923	  4956#	  4957
	  4991#	  4992	  5025#	  5026	  5060#	  5061	  5097#	  5098	  5134#	  5135	  5172#	  5173	  5210#	  5211
	  5246#	  5247	  5282#	  5283	  5320#	  5321	  5358#	  5359	  5392#	  5393	  5428#	  5429
ZZ	   998	  1028	  1064	  1094	  1128	  1162	  1199	  1233	  1267	  1302	  1338	  1374	  1410	  1446
	  1482	  1516	  1550	  1584	  1618	  1652	  1686	  1719	  1754	  1788	  1824	  1859	  1893	  1927
	  1961	  1995	  2029	  2063	  2096	  2130	  2164	  2197	  2231	  2264	  2297	  2331	  2367	  2403
	  2438	  2475	  2508	  2541	  2574	  2611	  2647	  2683	  2721	  2758	  2792	  2828	  2863	  2899
	  2937	  2975	  3009	  3043	  3077	  3112	  3149	  3186	  3220	  3254	  3294	  3334	  3377	  3420
	  3458	  3495	  3532	  3569	  3605	  3642	  3679	  3716	  3753	  3790	  3827	  3864	  3901	  3938
	  3975	  4012	  4049	  4086	  4123	  4160	  4197	  4234	  4271	  4308	  4345	  4382	  4419	  4453
	  4488	  4524	  4560	  4596	  4634	  4671	  4709	  4747	  4785	  4819	  4854	  4888	  4923	  4957
	  4992	  5026	  5061	  5098	  5135	  5173	  5211	  5247	  5283	  5321	  5359	  5393	  5429
$$MUUO	   664#
$$OUTE	   670#
$$TAX1	   682#
$$TAX2	   683#
$$TOGG	   676#
$$UUO	   653#
$ACC0	   491#
$BEND1	   461#
$BEND2	    88	   462#
$CHRIN	   552#
$CRLF	   554#
$DEVCH	   378#
$DSKUP	   431#                                                                                                            SEQ 0183
$DVOFF	   548#
$EMODE	   429#
$FFF	   556#
$IBUF	   604#
$INEXT	   606#
$INNM	   605#
$ITRHL	   472#
$ITRX1	   473#
$MMAP	   432#
$MODVL	   427#
$MODVU	   428#
$OBUF	   595#
$ONETM	   455#	   726
$OUTEX	   597#
$OUTNM	   596#
$PAPER	   378
$PARER	   479#
$PNAME	   425#
$PSHER	   483#
$PVER	   426#
$RDIO	  3199	  5491#
$RSRTX	   475#
$RSRTY	   476#
$SPAG1	   495#
$START	   392#
$SVAPR	   493#
$SVPAG	   494#
$SVPI	   492#
$SVUPC	   498#
$SVUUO	   497#
$TABF	   555#
$TTCHR	   551#
$TWCNT	   547#
$TYPNB	   553#
$UMODE	   430#
$UORTX	   470#
$USRHL	   474#
$UUOER	   471#	   512
$VTF	   557#
$WRIO	  3165	  5490#
%ACTFL	   504#
%ACTUL	   505#
%COREC	   503#
%CORFL	   502#
%DISCR	   506#
%ERHI1	   645#
%ERHI2	   646#
%ERHI3	   647#
.JB41	   378#
.JBAPR	   378#
.JBCNI	   378#
.JBDDT	   378#
.JBFF	   378#                                                                                                            SEQ 0184
.JBOPC	   378#
.JBREL	   378#
.JBREN	   378#
.JBSA	   378#
.JBSYM	   378#
.JBTPC	   378#
.JBUSY	   378#
.JBUUO	   378#
.JBVER	   378#

APRID	   378#
AUX	   946#	  1030	  1096	  1130	  1164	  1201	  1235	  1269	  1304	  1340	  1376	  1412	  1448	  1484     SEQ 0185
	  1518	  1552	  1586	  1620	  1654	  1688	  1721	  1756	  1790	  1826	  1861	  1895	  1929	  1963
	  1997	  2031	  2065	  2098	  2132	  2166	  2199	  2233	  2266	  2299	  2333	  2369	  2405	  2440
	  2477	  2510	  2543	  2576	  2613	  2649	  2685	  2723	  2760	  2794	  2830	  2865	  2901	  2939
	  2977	  3011	  3045	  3079	  3114	  3151	  3188	  3222	  3256	  3296	  3336	  3379	  3422	  3460
	  3497	  3534	  3571	  3607	  3644	  3681	  3718	  3755	  3792	  3829	  3866	  3903	  3940	  3977
	  4014	  4051	  4088	  4125	  4162	  4199	  4236	  4273	  4310	  4347	  4384	  4421	  4455	  4490
	  4526	  4562	  4598	  4636	  4673	  4711	  4749	  4787	  4821	  4856	  4890	  4925	  4959	  4994
	  5028	  5063	  5100	  5137	  5175	  5213	  5249	  5285	  5323	  5361	  5395	  5431
BCIO	   378#
BCIOB	   378#
BSIO	   378#
BSIOB	   378#
CFLUSH	   300#
CINVAL	   299#
CLOKOP	   294#
CLRPT	   378#
CWRTBI	   301#
DFAD	    71#	  2845	  2881
DFDV	    74#	  2957
DFMP	    73#	  2919
DFSB	    72#
DMOVE	    75#	  2771	  2843	  2879	  2917	  2955
DMOVEM	    78#	  2807
DMOVN	    76#
DMOVNM	    79#
DROPDV	   261#
ENDUUO	   307#	   460
ENTR	   948#	   974	  1004	  1040	  1070	  1104	  1138	  1175	  1209	  1243	  1278	  1314	  1350	  1386
	  1422	  1458	  1492	  1526	  1560	  1594	  1628	  1662	  1696	  1730	  1764	  1800	  1836	  1869
	  1903	  1937	  1971	  2005	  2039	  2073	  2107	  2141	  2174	  2207	  2241	  2274	  2307	  2343
	  2379	  2415	  2452	  2485	  2518	  2551	  2588	  2624	  2660	  2698	  2735	  2768	  2804	  2840
	  2876	  2914	  2952	  2985	  3019	  3053	  3088	  3125	  3162	  3196	  3230	  3269	  3309	  3352
	  3395	  3433	  3470	  3507	  3544	  3581	  3618	  3655	  3692	  3729	  3766	  3803	  3840	  3877
	  3914	  3951	  3988	  4025	  4062	  4099	  4136	  4173	  4210	  4247	  4284	  4321	  4358	  4395
	  4429	  4464	  4501	  4536	  4572	  4611	  4647	  4684	  4724	  4761	  4796	  4830	  4865	  4899
	  4934	  4968	  5003	  5037	  5075	  5111	  5150	  5187	  5223	  5259	  5297	  5335	  5370	  5406
EOPUUO	   308#	   462	   760
ERLOOP	   348#
ERLP1	   349#
ERLP2	   350#
ERRHLT	   195#
ERROR	   357#
ERROR1	   368#
ERUUO	   347#
FATAL	   194#
FIX	    77#	  2556
FIXR	    80#
FLTR	    81#	  2593
FRD36	   336#
FRD8	   337#
FREAD	   335#
FSELEC	   334#
GET	   178#	   908                                                                                                     SEQ 0186
GO	   175#	   751	   752	   753	   754	   774	   776	   778	   890	   892	   894
HALT	    90	    91	    92	    93	    94	   180#	   481
JEN	   182#	   858
JRSTF	   181#	   868	  1699	  5488	  5489
LESS	   944#	  1018	  1084	  1118	  1152	  2086	  2120	  2154	  2187	  2221	  2255	  2257	  2287	  2428
	  2465	  2498	  2531	  2564	  2601	  2637	  2673	  2711	  2748	  2853	  2889	  2927	  2965	  3411
	  3413	  3449	  3451	  3486	  3488	  3523	  3525	  3560	  3562	  5349	  5383	  5419
MAPADR	   317#
MAPCNK	   318#
MAPMEM	   314#
MAPPNT	   320#
MAPSET	   319#
MEMSEG	   316#
MEMZRO	   315#
MODPCP	   327#
MODPCU	   326#
MTROP	   295#
NAME	     7#	    10
PBELL	   270#
PCRL	   264#
PCRL2	   268#
PCRL2F	   269#
PCRLF	   265#
PFORCE	   272#
PGMINT	   188#	   728
PJRST	   179#
PLUS	   942#
PMSG	   274#
PMSGF	   277#
PNT1	   230#
PNT11	   244#
PNT11F	   245#
PNT1F	   231#
PNT2	   232#
PNT2F	   233#
PNT3	   234#
PNT3F	   235#
PNT4	   236#
PNT4F	   237#
PNT5	   238#
PNT5F	   239#
PNT6	   240#
PNT6F	   241#
PNT7	   242#
PNT7F	   243#
PNTA	   216#	   907
PNTADF	   247#
PNTADR	   246#
PNTAF	   217#
PNTAL	   218#	   825
PNTALF	   219#
PNTCHF	   229#
PNTCHR	   228#                                                                                                            SEQ 0187
PNTCI	   226#
PNTCIF	   227#
PNTCW	   262#
PNTCWF	   263#
PNTDCF	   255#
PNTDEC	   254#	   905	   922
PNTDS	   256#	   914
PNTDSF	   257#
PNTHW	   250#
PNTHWF	   251#
PNTMSF	   223#
PNTMSG	   222#	   757	   917	   923
PNTNM	   258#	   748
PNTOCF	   253#
PNTOCS	   252#
PNTOCT	   248#
PNTOTF	   249#
PNTSIX	   259#
PNTSXF	   260#
PSIXL	   220#
PSIXLF	   221#
PSIXM	   224#
PSIXMF	   225#
PSP	   266#
PSPF	   267#
PUT	   177#	   903
RDAPR	   378#
RDCSB	   378#
RDCSTM	   378#
RDEBR	   378#
RDHSB	   378#
RDINT	   378#
RDIO	   378#	  3199
RDIOB	   378#
RDPI	   378#
RDPUR	   378#
RDSPB	   378#
RDTIM	   378#
RDUBR	   378#
REPTUO	   351#
RTN	   176#	   468	   783	   826	   836	   879	   919	   925
S	   106#	   108	   112	   141	   143	   152	   155	   170	   171	   173	   184	   186	   190	   192
	   197	   201	   343	   345	   378	   383	   389	   416	   418	   436	   438	   456	   458	   487
	   489	   507	   509	   527	   529	   537	   539	   560	   565	   591	   593	   600	   602	   608
	   610	   616	   618	   622	   624	   629	   631	   635	   637	   641	   643	   649	   651	   654
	   656	   660	   662	   666	   668	   672	   674	   678	   680	   685	   687	   691	   693	   697
	   699	   701	   703
SIXBTZ	   283#
SWITCH	   289#
TIOE	   378#
TIOEB	   378#
TION	   378#
TIONB	   378#                                                                                                            SEQ 0188
TTALTM	   210#
TTICHR	   203#
TTICLR	   213#
TTICNV	   208#
TTIDEC	   207#
TTINO	   205#
TTIOCT	   206#
TTIYES	   204#
TTLOOK	   209#
TTSIXB	   211#
TTYINP	   212#
WRAPR	   378#
WRCSB	   378#
WRCSTM	   378#
WREBR	   378#
WRHSB	   378#
WRINT	   378#	   809
WRIO	   378#	  3165
WRIOB	   378#
WRPI	   378#
WRPUR	   378#
WRSPB	   378#
WRTIM	   378#
WRUBR	   378#

ADD	   833	   875	  2346
ADDI	   909	  2310                                                                                                     SEQ 0189
ADDM	  2382
ANDI	   896
AOBJN	  1906
AOJ	  2008
AOJA	   780	   781	   794
AOS	   466	   790	  2042
ASCII	   567	   569	   572	   573	   574	   575	   577	   578	   579	   580	   581	   582	   584	   585
	   586
ASCIZ	   709	   757	   917	   923	  1030	  1096	  1130	  1165	  1201	  1235	  1269	  1304	  1340	  1376
	  1412	  1448	  1484	  1518	  1552	  1586	  1620	  1654	  1688	  1721	  1756	  1791	  1826	  1861
	  1895	  1929	  1963	  1997	  2031	  2065	  2098	  2132	  2166	  2199	  2233	  2266	  2299	  2333
	  2369	  2405	  2441	  2477	  2510	  2543	  2577	  2614	  2650	  2686	  2724	  2760	  2795	  2830
	  2866	  2902	  2940	  2977	  3011	  3045	  3079	  3115	  3152	  3188	  3222	  3257	  3297	  3337
	  3380	  3423	  3460	  3497	  3534	  3571	  3608	  3645	  3682	  3719	  3756	  3793	  3830	  3867
	  3904	  3941	  3978	  4015	  4052	  4089	  4126	  4163	  4200	  4237	  4274	  4311	  4348	  4385
	  4421	  4455	  4491	  4526	  4562	  4599	  4637	  4674	  4712	  4750	  4787	  4821	  4856	  4890
	  4925	  4959	  4994	  5028	  5064	  5101	  5138	  5176	  5213	  5249	  5286	  5324	  5361	  5396
	  5431
BLOCK	   535	   595	   598	   604	   607	   613	  5445	  5518
BLT	  5375	  5411
BYTE	   583
CAI	  4432
CAIE	  4504
CAIN	   791	  4467
CAM	  4539	  4650
CAME	  4614	  4727
CAMGE	   779
CAMN	  4575	  4687
CONI	   854	  3022
CONO	   738	   808	   813	   814	   857	   859	   860	  2988	  3056
CONSO	   810
DATAO	  3091	  3128
DEFINE	     7	   106	   274	   277	   283	   357	   368	   942	   944	   946	   948
DIV	  2490
DPB	  3769	  3806	  3843	  3880	  3917	  4176	  4213	  4250	  4287	  4324	  4361
END	  5521
EQV	  5190	  5226
EXCH	  5262	  5300
EXP	  1015	  1081	  1115	  1149	  1186	  1220	  1254	  1289	  1325	  1361	  1397	  1433	  1469	  1503
	  1537	  1571	  1605	  1639	  1673	  1706	  1741	  1775	  1811	  1846	  1880	  1914	  1948	  1982
	  2016	  2050	  2083	  2117	  2151	  2184	  2218	  2252	  2284	  2318	  2354	  2390	  2425	  2462
	  2495	  2528	  2561	  2598	  2634	  2670	  2708	  2745	  2779	  2815	  2850	  2886	  2924	  2962
	  2996	  3030	  3064	  3099	  3136	  3173	  3207	  3241	  3280	  3320	  3363	  3408	  3446	  3483
	  3520	  3557	  3592	  3629	  3666	  3703	  3740	  3777	  3814	  3851	  3888	  3925	  3962	  3999
	  4036	  4073	  4110	  4147	  4184	  4221	  4258	  4295	  4332	  4369	  4406	  4440	  4475	  4511
	  4547	  4583	  4621	  4658	  4695	  4734	  4772	  4806	  4841	  4875	  4910	  4944	  4979	  5013
	  5048	  5085	  5122	  5160	  5198	  5234	  5270	  5308	  5346	  5380	  5416
FAD	  2629	  2665
FDV	  2740
FMP	  2703
HLRZ	   831	   888	   895	  1425
HRLM	   878
HRR	  1353                                                                                                             SEQ 0190
HRRI	   792
HRRM	   912	   916
HRROI	  2177
HRRZ	   755	   822	   872	  1389
IBP	  3403
IDIV	   874	   877	   898
IDIVI	   901	   910	  2523
IDPB	  3478	  3552
IF1	   996	  1026	  1062	  1092	  1126	  1160	  1197	  1231	  1265	  1300	  1336	  1372	  1408	  1444
	  1480	  1514	  1548	  1582	  1616	  1650	  1684	  1717	  1752	  1786	  1822	  1857	  1891	  1925
	  1959	  1993	  2027	  2061	  2094	  2128	  2162	  2195	  2229	  2262	  2295	  2329	  2365	  2401
	  2436	  2473	  2506	  2539	  2572	  2609	  2645	  2681	  2719	  2756	  2790	  2826	  2861	  2897
	  2935	  2973	  3007	  3041	  3075	  3110	  3147	  3184	  3218	  3252	  3292	  3332	  3375	  3418
	  3456	  3493	  3530	  3567	  3603	  3640	  3677	  3714	  3751	  3788	  3825	  3862	  3899	  3936
	  3973	  4010	  4047	  4084	  4121	  4158	  4195	  4232	  4269	  4306	  4343	  4380	  4417	  4451
	  4486	  4522	  4558	  4594	  4632	  4669	  4707	  4745	  4783	  4817	  4852	  4886	  4921	  4955
	  4990	  5024	  5059	  5096	  5133	  5171	  5209	  5245	  5281	  5319	  5357	  5391	  5427
IFDEF	   378	   429	   430	   431	   432	  5444
IFG	   977	   980	   989	  1007	  1010	  1018	  1021	  1043	  1046	  1055	  1073	  1076	  1084	  1087
	  1107	  1110	  1118	  1121	  1141	  1144	  1152	  1155	  1178	  1181	  1190	  1212	  1215	  1224
	  1246	  1249	  1258	  1281	  1284	  1293	  1317	  1320	  1329	  1353	  1356	  1365	  1389	  1392
	  1401	  1425	  1428	  1437	  1461	  1464	  1473	  1495	  1498	  1507	  1529	  1532	  1541	  1563
	  1566	  1575	  1597	  1600	  1609	  1631	  1634	  1643	  1665	  1668	  1677	  1699	  1701	  1704
	  1710	  1733	  1736	  1745	  1767	  1770	  1779	  1803	  1806	  1815	  1839	  1841	  1844	  1850
	  1872	  1875	  1884	  1906	  1909	  1918	  1940	  1943	  1952	  1974	  1977	  1986	  2008	  2011
	  2020	  2042	  2045	  2054	  2076	  2078	  2081	  2086	  2089	  2110	  2112	  2115	  2120	  2123
	  2144	  2146	  2149	  2154	  2157	  2177	  2179	  2182	  2187	  2190	  2210	  2213	  2221	  2224
	  2244	  2247	  2255	  2257	  2260	  2277	  2279	  2282	  2287	  2290	  2310	  2313	  2322	  2346
	  2349	  2358	  2382	  2385	  2394	  2418	  2420	  2423	  2428	  2431	  2455	  2457	  2460	  2465
	  2468	  2488	  2490	  2493	  2498	  2501	  2521	  2523	  2526	  2531	  2534	  2554	  2556	  2559
	  2564	  2567	  2591	  2593	  2596	  2601	  2604	  2627	  2629	  2632	  2637	  2640	  2663	  2665
	  2668	  2673	  2676	  2701	  2703	  2706	  2711	  2714	  2738	  2740	  2743	  2748	  2751	  2771
	  2774	  2783	  2807	  2810	  2819	  2843	  2845	  2848	  2853	  2856	  2879	  2881	  2884	  2889
	  2892	  2917	  2919	  2922	  2927	  2930	  2955	  2957	  2960	  2965	  2968	  2988	  2991	  3000
	  3022	  3025	  3034	  3056	  3059	  3068	  3091	  3094	  3103	  3128	  3131	  3140	  3165	  3168
	  3177	  3199	  3202	  3211	  3233	  3236	  3245	  3272	  3275	  3285	  3312	  3315	  3325	  3355
	  3358	  3368	  3399	  3401	  3403	  3406	  3411	  3413	  3416	  3437	  3439	  3441	  3444	  3449
	  3451	  3454	  3474	  3476	  3478	  3481	  3486	  3488	  3491	  3511	  3513	  3515	  3518	  3523
	  3525	  3528	  3548	  3550	  3552	  3555	  3560	  3562	  3565	  3584	  3587	  3596	  3621	  3624
	  3633	  3658	  3661	  3670	  3695	  3698	  3707	  3732	  3735	  3744	  3769	  3772	  3781	  3806
	  3809	  3818	  3843	  3846	  3855	  3880	  3883	  3892	  3917	  3920	  3929	  3954	  3957	  3966
	  3991	  3994	  4003	  4028	  4031	  4040	  4065	  4068	  4077	  4102	  4105	  4114	  4139	  4142
	  4151	  4176	  4179	  4188	  4213	  4216	  4225	  4250	  4253	  4262	  4287	  4290	  4299	  4324
	  4327	  4336	  4361	  4364	  4373	  4398	  4401	  4410	  4432	  4435	  4444	  4467	  4470	  4479
	  4504	  4506	  4509	  4515	  4539	  4542	  4551	  4575	  4578	  4587	  4614	  4616	  4619	  4625
	  4650	  4653	  4662	  4687	  4690	  4700	  4727	  4729	  4732	  4738	  4764	  4767	  4776	  4799
	  4801	  4804	  4810	  4833	  4836	  4845	  4868	  4870	  4873	  4879	  4902	  4905	  4914	  4937
	  4939	  4942	  4948	  4971	  4974	  4983	  5006	  5008	  5011	  5017	  5040	  5043	  5052	  5078
	  5080	  5083	  5089	  5114	  5117	  5126	  5153	  5155	  5158	  5164	  5190	  5193	  5202	  5226
	  5229	  5238	  5262	  5265	  5274	  5300	  5303	  5312	  5338	  5341	  5349	  5352	  5373	  5375
	  5378	  5383	  5386	  5409	  5411	  5414	  5419	  5422
IFLE	  5517
IFN	   998	  1028	  1064	  1094	  1128	  1162	  1199	  1233	  1267	  1302	  1338	  1374	  1410	  1446     SEQ 0191
	  1482	  1516	  1550	  1584	  1618	  1652	  1686	  1719	  1754	  1788	  1824	  1859	  1893	  1927
	  1961	  1995	  2029	  2063	  2096	  2130	  2164	  2197	  2231	  2264	  2297	  2331	  2367	  2403
	  2438	  2475	  2508	  2541	  2574	  2611	  2647	  2683	  2721	  2758	  2792	  2828	  2863	  2899
	  2937	  2975	  3009	  3043	  3077	  3112	  3149	  3186	  3220	  3254	  3294	  3334	  3377	  3420
	  3458	  3495	  3532	  3569	  3605	  3642	  3679	  3716	  3753	  3790	  3827	  3864	  3901	  3938
	  3975	  4012	  4049	  4086	  4123	  4160	  4197	  4234	  4271	  4308	  4345	  4382	  4419	  4453
	  4488	  4524	  4560	  4596	  4634	  4671	  4709	  4747	  4785	  4819	  4854	  4888	  4923	  4957
	  4992	  5026	  5061	  5098	  5135	  5173	  5211	  5247	  5283	  5321	  5359	  5393	  5429
IFNB	   985	   998	  1000	  1015	  1028	  1030	  1051	  1064	  1066	  1081	  1094	  1096	  1115	  1128
	  1130	  1149	  1162	  1164	  1186	  1199	  1201	  1220	  1233	  1235	  1254	  1267	  1269	  1289
	  1302	  1304	  1325	  1338	  1340	  1361	  1374	  1376	  1397	  1410	  1412	  1433	  1446	  1448
	  1469	  1482	  1484	  1503	  1516	  1518	  1537	  1550	  1552	  1571	  1584	  1586	  1605	  1618
	  1620	  1639	  1652	  1654	  1673	  1686	  1688	  1706	  1719	  1721	  1741	  1754	  1756	  1775
	  1788	  1790	  1811	  1824	  1826	  1846	  1859	  1861	  1880	  1893	  1895	  1914	  1927	  1929
	  1948	  1961	  1963	  1982	  1995	  1997	  2016	  2029	  2031	  2050	  2063	  2065	  2083	  2096
	  2098	  2117	  2130	  2132	  2151	  2164	  2166	  2184	  2197	  2199	  2218	  2231	  2233	  2252
	  2264	  2266	  2284	  2297	  2299	  2318	  2331	  2333	  2354	  2367	  2369	  2390	  2403	  2405
	  2425	  2438	  2440	  2462	  2475	  2477	  2495	  2508	  2510	  2528	  2541	  2543	  2561	  2574
	  2576	  2598	  2611	  2613	  2634	  2647	  2649	  2670	  2683	  2685	  2708	  2721	  2723	  2745
	  2758	  2760	  2779	  2792	  2794	  2815	  2828	  2830	  2850	  2863	  2865	  2886	  2899	  2901
	  2924	  2937	  2939	  2962	  2975	  2977	  2996	  3009	  3011	  3030	  3043	  3045	  3064	  3077
	  3079	  3099	  3112	  3114	  3136	  3149	  3151	  3173	  3186	  3188	  3207	  3220	  3222	  3241
	  3254	  3256	  3280	  3294	  3296	  3320	  3334	  3336	  3363	  3377	  3379	  3408	  3420	  3422
	  3446	  3458	  3460	  3483	  3495	  3497	  3520	  3532	  3534	  3557	  3569	  3571	  3592	  3605
	  3607	  3629	  3642	  3644	  3666	  3679	  3681	  3703	  3716	  3718	  3740	  3753	  3755	  3777
	  3790	  3792	  3814	  3827	  3829	  3851	  3864	  3866	  3888	  3901	  3903	  3925	  3938	  3940
	  3962	  3975	  3977	  3999	  4012	  4014	  4036	  4049	  4051	  4073	  4086	  4088	  4110	  4123
	  4125	  4147	  4160	  4162	  4184	  4197	  4199	  4221	  4234	  4236	  4258	  4271	  4273	  4295
	  4308	  4310	  4332	  4345	  4347	  4369	  4382	  4384	  4406	  4419	  4421	  4440	  4453	  4455
	  4475	  4488	  4490	  4511	  4524	  4526	  4547	  4560	  4562	  4583	  4596	  4598	  4621	  4634
	  4636	  4658	  4671	  4673	  4695	  4709	  4711	  4734	  4747	  4749	  4772	  4785	  4787	  4806
	  4819	  4821	  4841	  4854	  4856	  4875	  4888	  4890	  4910	  4923	  4925	  4944	  4957	  4959
	  4979	  4992	  4994	  5013	  5026	  5028	  5048	  5061	  5063	  5085	  5098	  5100	  5122	  5135
	  5137	  5160	  5173	  5175	  5198	  5211	  5213	  5234	  5247	  5249	  5270	  5283	  5285	  5308
	  5321	  5323	  5346	  5359	  5361	  5380	  5393	  5395	  5416	  5429	  5431
IFNDEF	   329	   330	   340	   429	   430	   431	   432	   511
ILDB	  3441	  3515
IMUL	   871
IMULI	  2457
IRP	   976	   987	  1006	  1017	  1042	  1053	  1072	  1083	  1106	  1117	  1140	  1151	  1177	  1188
	  1211	  1222	  1245	  1256	  1280	  1291	  1316	  1327	  1352	  1363	  1388	  1399	  1424	  1435
	  1460	  1471	  1494	  1505	  1528	  1539	  1562	  1573	  1596	  1607	  1630	  1641	  1664	  1675
	  1698	  1708	  1732	  1743	  1766	  1777	  1802	  1813	  1838	  1848	  1871	  1882	  1905	  1916
	  1939	  1950	  1973	  1984	  2007	  2018	  2041	  2052	  2075	  2085	  2109	  2119	  2143	  2153
	  2176	  2186	  2209	  2220	  2243	  2254	  2276	  2286	  2309	  2320	  2345	  2356	  2381	  2392
	  2417	  2427	  2454	  2464	  2487	  2497	  2520	  2530	  2553	  2563	  2590	  2600	  2626	  2636
	  2662	  2672	  2700	  2710	  2737	  2747	  2770	  2781	  2806	  2817	  2842	  2852	  2878	  2888
	  2916	  2926	  2954	  2964	  2987	  2998	  3021	  3032	  3055	  3066	  3090	  3101	  3127	  3138
	  3164	  3175	  3198	  3209	  3232	  3243	  3271	  3283	  3311	  3323	  3354	  3366	  3398	  3410
	  3436	  3448	  3473	  3485	  3510	  3522	  3547	  3559	  3583	  3594	  3620	  3631	  3657	  3668
	  3694	  3705	  3731	  3742	  3768	  3779	  3805	  3816	  3842	  3853	  3879	  3890	  3916	  3927
	  3953	  3964	  3990	  4001	  4027	  4038	  4064	  4075	  4101	  4112	  4138	  4149	  4175	  4186
	  4212	  4223	  4249	  4260	  4286	  4297	  4323	  4334	  4360	  4371	  4397	  4408	  4431	  4442     SEQ 0192
	  4466	  4477	  4503	  4513	  4538	  4549	  4574	  4585	  4613	  4623	  4649	  4660	  4686	  4698
	  4726	  4736	  4763	  4774	  4798	  4808	  4832	  4843	  4867	  4877	  4901	  4912	  4936	  4946
	  4970	  4981	  5005	  5015	  5039	  5050	  5077	  5087	  5113	  5124	  5152	  5162	  5189	  5200
	  5225	  5236	  5261	  5272	  5299	  5310	  5337	  5348	  5372	  5382	  5408	  5418
JFCL	   469	   470	   471	   472	   473	   474	   475	   476	   477	   478	   479	   480	  4398	  5338
JFFO	  2078	  2112
JRST	   179	   180	   181	   182	   391	   392	   394	   396	   398	   400	   402	   405	   407	   408
	   461	   811	   815	   856	   865	   867	   870	  1665
JSP	   188	   806	   863	  1872
JSR	   739	  1839
JUMPA	  1733
JUMPE	   823	   902	  1803
JUMPN	   756	  1767
LALL	     8	    52
LDB	  3584	  3621	  3658	  3695	  3732	  3954	  3991	  4028	  4065	  4102	  4139
LIST	     7	   340	   378	   511
LIT	   926	  5457
LOC	    22	   381	   705	  5452
LSH	   977	  1007	  3233	  3272
LSHC	  3312	  3355
MOVE	   729	   739	   743	   746	   781	   806	   824	   861	   876	   904	   913	   921	  1246	  1281
	  2076	  2110	  2488	  2591	  2701	  2738	  3399	  3437	  3474	  3511	  3548	  5373	  5409
MOVEI	   731	   733	   735	   741	   749	   769	   770	   771	   804	   900	   906	   911	   915	  1043
	  1073	  1107	  1141	  1178	  2144	  2277	  2418	  2455	  2521
MOVEM	   730	   734	   736	   737	   740	   742	   744	   747	   782	   793	   807	   862	  1317	  3401
	  3439	  3476	  3513	  3550
MOVSI	  1212	  2554	  2627	  2663
MUL	  2420
NOSYM	    25
OPDEF	    71	    72	    73	    74	    75	    76	    77	    78	    79	    80	    81	   175	   176	   177
	   178	   179	   180	   181	   182	   188	   194	   195	   203	   204	   205	   206	   207	   208
	   209	   210	   211	   212	   213	   216	   217	   218	   219	   220	   221	   222	   223	   224
	   225	   226	   227	   228	   229	   230	   231	   232	   233	   234	   235	   236	   237	   238
	   239	   240	   241	   242	   243	   244	   245	   246	   247	   248	   249	   250	   251	   252
	   253	   254	   255	   256	   257	   258	   259	   260	   261	   262	   263	   264	   265	   266
	   267	   268	   269	   270	   272	   289	   294	   295	   299	   300	   301	   307	   308	   314
	   315	   316	   317	   318	   319	   320	   326	   327	   334	   335	   336	   337	   347	   348
	   349	   350	   351	   378
POINT	  3584	  3621	  3658	  3695	  3732	  3769	  3806	  3843	  3880	  3917	  3954	  3991	  4028	  4065
	  4102	  4139	  4176	  4213	  4250	  4287	  4324	  4361
POP	   178	  2179
POPJ	   176
PUSH	   177	  2146
PUSHJ	   175	  2279
RADIX	   999	  1001	  1029	  1037	  1065	  1067	  1095	  1101	  1129	  1135	  1163	  1172	  1200	  1206
	  1234	  1240	  1268	  1275	  1303	  1311	  1339	  1347	  1375	  1383	  1411	  1419	  1447	  1455
	  1483	  1489	  1517	  1523	  1551	  1557	  1585	  1591	  1619	  1625	  1653	  1659	  1687	  1693
	  1720	  1727	  1755	  1761	  1789	  1797	  1825	  1833	  1860	  1866	  1894	  1900	  1928	  1934
	  1962	  1968	  1996	  2002	  2030	  2036	  2064	  2070	  2097	  2104	  2131	  2138	  2165	  2171
	  2198	  2204	  2232	  2238	  2265	  2271	  2298	  2304	  2332	  2340	  2368	  2376	  2404	  2412
	  2439	  2449	  2476	  2482	  2509	  2515	  2542	  2548	  2575	  2585	  2612	  2621	  2648	  2657
	  2684	  2695	  2722	  2732	  2759	  2765	  2793	  2801	  2829	  2837	  2864	  2873	  2900	  2911
	  2938	  2949	  2976	  2982	  3010	  3016	  3044	  3050	  3078	  3085	  3113	  3122	  3150	  3159     SEQ 0193
	  3187	  3193	  3221	  3227	  3255	  3266	  3295	  3306	  3335	  3349	  3378	  3392	  3421	  3430
	  3459	  3467	  3496	  3504	  3533	  3541	  3570	  3578	  3606	  3615	  3643	  3652	  3680	  3689
	  3717	  3726	  3754	  3763	  3791	  3800	  3828	  3837	  3865	  3874	  3902	  3911	  3939	  3948
	  3976	  3985	  4013	  4022	  4050	  4059	  4087	  4096	  4124	  4133	  4161	  4170	  4198	  4207
	  4235	  4244	  4272	  4281	  4309	  4318	  4346	  4355	  4383	  4392	  4420	  4426	  4454	  4461
	  4489	  4498	  4525	  4533	  4561	  4569	  4597	  4608	  4635	  4644	  4672	  4681	  4710	  4721
	  4748	  4758	  4786	  4793	  4820	  4827	  4855	  4862	  4889	  4896	  4924	  4931	  4958	  4965
	  4993	  5000	  5027	  5034	  5062	  5072	  5099	  5108	  5136	  5147	  5174	  5184	  5212	  5220
	  5248	  5256	  5284	  5294	  5322	  5332	  5360	  5367	  5394	  5403	  5430	  5438
REPEAT	   980	   989	  1010	  1021	  1046	  1055	  1076	  1087	  1110	  1121	  1144	  1155	  1181	  1190
	  1215	  1224	  1249	  1258	  1284	  1293	  1320	  1329	  1356	  1365	  1392	  1401	  1428	  1437
	  1464	  1473	  1498	  1507	  1532	  1541	  1566	  1575	  1600	  1609	  1634	  1643	  1668	  1677
	  1704	  1710	  1736	  1745	  1770	  1779	  1806	  1815	  1844	  1850	  1875	  1884	  1909	  1918
	  1943	  1952	  1977	  1986	  2011	  2020	  2045	  2054	  2081	  2089	  2115	  2123	  2149	  2157
	  2182	  2190	  2213	  2224	  2247	  2260	  2282	  2290	  2313	  2322	  2349	  2358	  2385	  2394
	  2423	  2431	  2460	  2468	  2493	  2501	  2526	  2534	  2559	  2567	  2596	  2604	  2632	  2640
	  2668	  2676	  2706	  2714	  2743	  2751	  2774	  2783	  2810	  2819	  2848	  2856	  2884	  2892
	  2922	  2930	  2960	  2968	  2991	  3000	  3025	  3034	  3059	  3068	  3094	  3103	  3131	  3140
	  3168	  3177	  3202	  3211	  3236	  3245	  3275	  3285	  3315	  3325	  3358	  3368	  3416	  3454
	  3491	  3528	  3565	  3587	  3596	  3624	  3633	  3661	  3670	  3698	  3707	  3735	  3744	  3772
	  3781	  3809	  3818	  3846	  3855	  3883	  3892	  3920	  3929	  3957	  3966	  3994	  4003	  4031
	  4040	  4068	  4077	  4105	  4114	  4142	  4151	  4179	  4188	  4216	  4225	  4253	  4262	  4290
	  4299	  4327	  4336	  4364	  4373	  4401	  4410	  4435	  4444	  4470	  4479	  4509	  4515	  4542
	  4551	  4578	  4587	  4619	  4625	  4653	  4662	  4690	  4700	  4732	  4738	  4767	  4776	  4804
	  4810	  4836	  4845	  4873	  4879	  4905	  4914	  4942	  4948	  4974	  4983	  5011	  5017	  5043
	  5052	  5083	  5089	  5117	  5126	  5158	  5164	  5193	  5202	  5229	  5238	  5265	  5274	  5303
	  5312	  5341	  5352	  5378	  5386	  5414	  5422
SETO	  1563
SETOB	  1631
SETOM	  1597
SETZ	   750	  1461
SETZB	  1529
SETZM	   726	   727	   745	   772	   805	  1495
SIXBIT	    98	   596	   597	   605	   606
SKIPE	   773	   775	   777	   866	   889	   891	   893	   897	  5078	  5153
SKIPG	   834
SKIPGE	   899
SKIPL	   832
SKIPN	   732	  5040	  5114
SOJ	  1940
SOS	  1974
SUB	   835
SUBI	   873
SUBTTL	    50	   104	   139	   341	   378	   379	   707	  5440
TDNE	  4937
TDNN	  4902
TITLE	    12
TLNE	   864	  4799
TLNN	  4764
TRNE	  4868
TRNN	   855	  4833
TSNE	  5006
TSNN	  4971                                                                                                             SEQ 0194
VAR	  5450
XALL	    14
XCT	  5338
XLIST	     6	   339	   377	   510
XWD	   998	  1018	  1028	  1064	  1084	  1094	  1118	  1128	  1152	  1162	  1199	  1233	  1267	  1302
	  1338	  1374	  1410	  1446	  1482	  1516	  1550	  1584	  1618	  1652	  1686	  1719	  1754	  1788
	  1824	  1859	  1893	  1927	  1961	  1995	  2029	  2063	  2086	  2096	  2120	  2130	  2154	  2164
	  2187	  2197	  2221	  2231	  2255	  2257	  2264	  2287	  2297	  2331	  2367	  2403	  2428	  2438
	  2465	  2475	  2498	  2508	  2531	  2541	  2564	  2574	  2601	  2611	  2637	  2647	  2673	  2683
	  2711	  2721	  2748	  2758	  2792	  2828	  2853	  2863	  2889	  2899	  2927	  2937	  2965	  2975
	  3009	  3043	  3077	  3112	  3149	  3186	  3220	  3254	  3294	  3334	  3377	  3411	  3413	  3420
	  3449	  3451	  3458	  3486	  3488	  3495	  3523	  3525	  3532	  3560	  3562	  3569	  3605	  3642
	  3679	  3716	  3753	  3790	  3827	  3864	  3901	  3938	  3975	  4012	  4049	  4086	  4123	  4160
	  4197	  4234	  4271	  4308	  4345	  4382	  4419	  4453	  4488	  4524	  4560	  4596	  4634	  4671
	  4709	  4747	  4785	  4819	  4854	  4888	  4923	  4957	  4992	  5026	  5061	  5098	  5135	  5173
	  5211	  5247	  5283	  5321	  5349	  5359	  5383	  5393	  5419	  5429
