DECSYSTEM 2020 UNIBUS ADAPTER EXERCISER, VERSION=0,4 	MACRO %53(1020) 09:46 12-Jul-79 Page 1
DSUBAT	MAC	28-Jun-79 09:31		CONSOLE DATA SWITCH ASSIGNMENTS, MARCH 1978                                        SEQ 0023

     1			000000			MCNVER==0
     2			000004			DECVER==4
     3
     4						XLIST
     5						LIST
     6						LALL
     7						NAME	\MCNVER,\DECVER^
     8					TITLE	DECSYSTEM 2020 UNIBUS ADAPTER EXERCISER, VERSION=0,4 ^
     9
    10						XALL
    11					;ASSEMBLE AS
    12					;DSUBAT,PARAM.KSM,FIXED.KSM,DSUBAM,STOR.KSM
    13	000137					LOC	137
    14	000137	000000	000004			MCNVER,,DECVER
    15						NOSYM


DECSYSTEM 2020 UNIBUS ADAPTER EXERCISER, VERSION=0,4 	MACRO %53(1020) 09:46 12-Jul-79 Page 2
DSUBAT	MAC	28-Jun-79 09:31		ASSEMBLY PARAMETERS:                                                               SEQ 0024

    16					SUBTTL	ASSEMBLY PARAMETERS:
    17
    18					;ASSEMBLY PARAMETERS:
    19
    20			000001			EXCASB==1		;EXECUTIVE MODE
    21			000001			MEMMAP==1		;MEMORY MAPPING
    22			000200			DEBUG==200		;PROGRAM DEBUG AREA
    23			000001			PGMEND==1		;ASSEMBLE PROGRAM END ROUTINE
    24			000001			ITERAT==1		;PROGRAM ITERATIONS
    25
    26					;OPTIONAL STARTING ADDRESSES:
    27
    28			030000			SADR1==BEGIN
    29			030000			SADR2==BEGIN
    30			030000			SADR3==BEGIN
    31			030007			SADR4==SRTDDT
    32			030061			SADR5==$BEND2
    33		254200	030000			SADR6==HALT BEGIN
    34		254200	030000			SADR7==HALT BEGIN
    35		254200	030000			SADR8==HALT BEGIN
    36		254200	030000			SADR9==HALT BEGIN
    37		254200	030000			SADR10==HALT BEGIN
    38		254200	030000			SADR11==HALT BEGIN
    39
    40			123457			PAREA1==123457		;RANDOM NUMBER BASE
    41			000000			PAREA2==0
    42		446365	424100			PAREA3==SIXBIT/DSUBA/
    43		605664	000000			PAREA4==SIXBIT/PNT/
    44			000000			PAREA5==0
    45			000000			PAREA6==0


DECSYSTEM 2020 UNIBUS ADAPTER EXERCISER, VERSION=0,4 	MACRO %53(1020) 09:46 12-Jul-79 Page 3
DSUBAT	MAC	28-Jun-79 09:31		ASSEMBLY PARAMETERS:                                                               SEQ 0025

    46
    47
    48					;ACCUMULATOR DEFINITIONS:
    49
    50			000000			T0=0
    51			000001			T1=1
    52			000002			T2=2
    53			000003			T3=3
    54			000004			T4=4
    55			000005			T5=5
    56			000006			T6=6
    57			000007			T7=7
    58			000010			T8=10
    59			000011			T9=11
    60			000012			T10=12
    61			000013			T11=13
    62			000014			T12=14
    63			000015			T13=15
    64			000016			T14=16
    65			000017			T15=17
    66			000007			IND=7
    67			000010			ACTFLG=10
    68			000011			RUN=11
    69			000012			ACT=12
    70			000011			TMASK=T9
    71
    72
    73					;UNIBUS ADAPTER STATUS REGISTER BIT ASSIGNMENTS:
    74
    75			400000			TIMOUT=400000		;R	UBA TIME-OUT
    76			200000			BMD=200000		;R	BAD MEMORY DATA
    77			100000			SMPE=100000		;R	KS BUS PARITY ERROR
    78			040000			NED=40000		;R	NON-EXISTENT DEVICE
    79			004000			HIREQ=4000		;R/W	HI INTERRUPT PENDING
    80			002000			LOREQ=2000		;R/W	LO INTERRUPT PENDING
    81			001000			ACDCL=1000		;R	AC-DC LOW
    82			000200			DISXFR=200		;R/W	DISABLE XFER IF BMD
    83			000100			UBINIT=100		;W	DEVICE INITIALIZE
    84			000040			PIA30=40		;R/W	HIGH BR TO PI TRANSLATION
    85			000020			PIA31=20		;R/W		"	"
    86			000010			PIA32=10		;R/W		"	"
    87			000004			PIA33=4			;R/W	LOW BR TO PI TRANSLATION
    88			000002			PIA34=2			;R/W		"	"
    89			000001			PIA35=1			;R/W		"	"

DECSYSTEM 2020 UNIBUS ADAPTER EXERCISER, VERSION=0,4 	MACRO %53(1020) 09:46 12-Jul-79 Page 4
DSUBAT	MAC	28-Jun-79 09:31		ASSEMBLY PARAMETERS:                                                               SEQ 0026

    90
    91					;UNIBUS BIT DEFINITIONS:
    92
    93			400000			BIT17=400000
    94			200000			BIT16=200000
    95			100000			BIT15=100000
    96			040000			BIT14=40000
    97			020000			BIT13=20000
    98			010000			BIT12=10000
    99			004000			BIT11=4000
   100			002000			BIT10=2000
   101			001000			BIT9=1000
   102			000400			BIT8=400
   103			000200			BIT7=200
   104			000100			BIT6=100
   105			000040			BIT5=40
   106			000020			BIT4=20
   107			000010			BIT3=10
   108			000004			BIT2=4
   109			000002			BIT1=2
   110			000001			BIT0=1
   111
   112
   113					;RIGHT HALF SWITCHES:
   114
   115			400000			RSTRT==400000		;START AT SELECTED TEST
   116			200000			TSTLP==200000		;LOOP ON TEST
   117			100000			STANDA==100000		;USE WRAP-AROUND MODE ONLY
   118			040000			FORCEP==40000		;FORCE PARITY BIT CHECKING
   119
   120					;MACRO DEFITIONS:
   121
   122					DEFINE	LPTST	<
   123						XLIST
   124						MOVE	0,CONSW		;GET SWITCHES
   125						TRNE	TSTLP		;LOOP ON TEST?
   126						JRST	@TESTPC		;YES!
   127						TRNE	RSTRT		;OPERATOR SELECTED TESTS??
   128						JRST	TSTSEL		;YES!!
   129						LIST
   130					>
   131
   132					DEFINE	XINDEX (Y,X,WORKAD) <
   133						MOVE	0,X
   134						ADD	0,Y
   135						MOVEM	0,WORKAD
   136						>


DECSYSTEM 2020 UNIBUS ADAPTER EXERCISER, VERSION=0,4 	MACRO %53(1020) 09:46 12-Jul-79 Page 5
DSUBAT	MAC	28-Jun-79 09:31		ASSEMBLY PARAMETERS:                                                               SEQ 0027

   137
   138					SUBTTL	CONSOLE DATA SWITCH ASSIGNMENTS, MARCH 1978
   139
   140					DEFINE	S,<;*********************************************************************>
   141
   142					S^;*********************************************************************^
   143					;*DATA SWITCHES
   144					;*LEFT HALF SWITCHES ARE PRE-ASSIGNED FOR SUBROUTINE PACKAGE USE
   145					;*AND CONTROL LOOPING, PRINTING (TTY OR OTHER DEVICE) AND MISC. FUNCTIONS
   146					S^;*********************************************************************^
   147
   148			400000		ABORT==	400000			;ABORT PROGRAM ON PASS COMPLETION
   149			200000		RSTART==200000			;RESTART TEST, PRINT TOTALS
   150			100000		TOTALS==100000			;PRINT TOTALS, CONTINUE
   151
   152			040000		NOPNT==	040000			;INHIBIT ALL PRINT/TYPE OUT (EXCEPT FORCED)
   153			020000		PNTLPT==020000			;PRINT ALL DATA ON LPT (LOGICAL DEVICE, USER MODE)
   154			010000		DING==	010000			;RING BELL ON ERROR
   155
   156			004000		LOOPER==004000			;ENTER EXERCISE/CHECK LOOP ON ERROR
   157			002000		ERSTOP==002000			;HALT ON TEST ERROR
   158			001000		PALERS==001000			;PRINT ALL ERRORS
   159
   160			000400		RELIAB==000400			;RELIABILITY MODE
   161			000200		TXTINH==000200			;INHIBIT ERROR TEXT
   162			000100		INHPAG==000100			;INHIBIT PAGING
   163
   164			000040		MODDVC==000040			;MODIFY DEVICE CODE
   165			000020		INHCSH==000020			;INHIBIT CACHE
   166			000010		OPRSEL==000010			;OPERATOR SELECTION
   167
   168			000004		CHAIN==	000004			;CHAIN CONTROL SWITCH
   169
   170									;SWITCH 16 RESERVED
   171
   172									;SWITCH 17 RESERVED !!!


DECSYSTEM 2020 UNIBUS ADAPTER EXERCISER, VERSION=0,4 	MACRO %53(1020) 09:46 12-Jul-79 Page 2
PARAM	KSM	28-Mar-78 11:27		PROGRAM/SUBROUTINE PARAMETERS                                                      SEQ 0028

   173					SUBTTL	PROGRAM/SUBROUTINE PARAMETERS
   174
   175					S^;*********************************************************************^
   176					;*SPECIAL SUBPROGRAM LINKAGES
   177					S^;*********************************************************************^
   178
   179			027772		FSELNK=	27772	;FILE SELECT LINK
   180			027773		FRDLNK=	27773	;FILE READ LINK
   181			027774		LDLNK=	27774	;LOAD LINKAGE ADDRESS
   182			027775		DDTLNK=	27775	;DDT LINKAGE ADDRESS
   183			027776		MODLNK=	27776	;OPERATIONAL MODE CHECK LINKAGE ADDRESS
   184			027777		SUBLNK=	27777	;SUBROUTINE LINKAGE ADDRESS
   185
   186					S^;*********************************************************************^
   187					;*SPECIAL SUBROUTINE FATAL HALTS
   188					;*USED TO REPORT ERRORS THAT CAUSE THE SUBROUTINES TO BE UNUSABLE
   189					S^;*********************************************************************^
   190
   191					;ADDRESS   TAG	REASON
   192					;---------------------
   193
   194					; 1010 	NOEXEC	;PROGRAM NOT CODED FOR EXEC MODE OPERATION
   195					; 1011  PLERR	;FATAL PUSH LIST POINTER ERROR
   196					; 1012  PLERR1	;INITIAL PUSH LIST POINTER ERROR
   197					; 1013  MUOERR	;MUUO WITH LUUO HANDLER WIPED OUT
   198					; 1014  SMBER	;KS-10 INTERRUPT WITHOUT DOORBELL
   199					; 1015  SMCER	;KS-10 CLOCK INTERRUPT WITHOUT FLAG SET
   200					; 1016  CPIERR	;CPU INITIALIZATION ERROR
   201					; 1017  EOPERR	;END OF PROGRAM ERROR
   202					; 1020  LUOERR	;INTERRUPT WITH LUUO HANDLER WIPED OUT
   203
   204					S^;*********************************************************************^


DECSYSTEM 2020 UNIBUS ADAPTER EXERCISER, VERSION=0,4 	MACRO %53(1020) 09:46 12-Jul-79 Page 3
PARAM	KSM	28-Mar-78 11:27		PROGRAM/SUBROUTINE PARAMETERS                                                      SEQ 0029

   205					S^;*********************************************************************^
   206					;OPERATOR DEFINITIONS (NON-UUO'S)
   207					S^;*********************************************************************^
   208
   209		260740	000000		OPDEF	GO	[PUSHJ	P,]	;SUBROUTINE CALL
   210		263740	000000		OPDEF	RTN	[POPJ	P,]	;SUBROUTINE RETURN
   211		261740	000000		OPDEF	PUT	[PUSH	P,]	;PUT DATA ON PUSH LIST
   212		262740	000000		OPDEF	GET	[POP	P,]	;GET DATA FROM PUSH LIST
   213		254000	000000		OPDEF	PJRST	[JRST	]	;JRST TO ROUTINE THAT RTN'S
   214		254200	000000		OPDEF	HALT	[JRST	4,]	;DEFINITION FOR DDT
   215		254100	000000		OPDEF	JRSTF	[JRST	2,]	;DEFINITION FOR DDT
   216		254500	000000		OPDEF	JEN	[JRST	12,]	;DEFINITION FOR DDT
   217
   218					S^;*********************************************************************^
   219					;*SUBROUTINE INITIALIZATION CALL
   220					S^;*********************************************************************^
   221
   222		265000	030011		OPDEF	PGMINT	[JSP	0,SBINIT]	;SUBROUTINE INITIALIZATION
   223
   224					S^;*********************************************************************^
   225					;*HALTING UUO'S (A MORE GRACEFUL HALT THAN SIMPLY USING THE HALT INSTRUCTION).
   226					S^;*********************************************************************^
   227
   228		037640	000004		OPDEF	FATAL	[37B8!15B12!4]	;FATAL PROGRAMMING HALT
   229		037600	000004		OPDEF	ERRHLT	[37B8!14B12!4]	;PROGRAM ERROR HALT
   230
   231					S^;*********************************************************************^
   232					;*TERMINAL INPUT UUO'S
   233					;*ALWAYS COME FROM THE CONSOLE TERMINAL IN EXEC MODE OR THE
   234					;*CONTROLLING TERMINAL (REAL TERMINAL OR PTY) IN USER MODE.
   235					S^;*********************************************************************^
   236
   237		037000	000003		OPDEF	TTICHR 	[37B8!0B12!3]	;TTY, INPUT ANY CHARACTER
   238		037040	000003		OPDEF	TTIYES	[37B8!1B12!3]	;TTY, NORMAL RETURN Y
   239		037100	000003		OPDEF	TTINO	[37B8!2B12!3]	;TTY, NORMAL RETURN N
   240		037140	000003		OPDEF	TTIOCT	[37B8!3B12!3]	;TTY, INPUT OCTAL WORD
   241		037200	000003		OPDEF	TTIDEC	[37B8!4B12!3]	;TTY, INPUT DECIMAL WORD
   242		037240	000003		OPDEF	TTICNV	[37B8!5B12!3]	;TTY, INPUT CONVERTABLE WORD
   243		037300	000003		OPDEF	TTLOOK	[37B8!6B12!3]	;TTY, KEYBOARD CHECK
   244		037340	000003		OPDEF	TTALTM	[37B8!7B12!3]	;TTY, ALT-MODE CHECK
   245		037400	000003		OPDEF	TTSIXB	[37B8!10B12!3]	;TTY, INPUT SIXBIT WORD
   246		037440	000003		OPDEF	TTYINP	[37B8!11B12!3]	;TTY, IMAGE MODE INPUT
   247		037500	000003		OPDEF	TTICLR	[37B8!12B12!3]	;TTY, CLEAR INPUT


DECSYSTEM 2020 UNIBUS ADAPTER EXERCISER, VERSION=0,4 	MACRO %53(1020) 09:46 12-Jul-79 Page 4
PARAM	KSM	28-Mar-78 11:27		PROGRAM/SUBROUTINE PARAMETERS                                                      SEQ 0030

   248					;*TERMINAL OUTPUT UUO'S.
   249
   250		037000	000000		OPDEF	PNTA	[37B8!0B12!0]	;PRINT ASCII WORD
   251		037000	000001		OPDEF	PNTAF	[37B8!0B12!1]	;PRINT ASCII WORD FORCED
   252		037740	000000		OPDEF	PNTAL	[37B8!17B12!0]	;PRINT ASCIZ LINE
   253		037740	000001		OPDEF	PNTALF	[37B8!17B12!1]	;PRINT ASCIZ LINE FORCED
   254		037600	000003		OPDEF	PSIXL	[37B8!14B12!3]	;PRINT SIXBIT'Z LINE
   255		037640	000003		OPDEF	PSIXLF	[37B8!15B12!3]	;PRINT SIXBIT'Z LINE FORCED
   256		037000	000000		OPDEF	PNTMSG	[37B8!0B12!0]	;PRINT MESSAGE IMMEDIATE
   257		037040	000000		OPDEF	PNTMSF	[37B8!1B12!0]	;PRINT MESSAGE IMMEDIATE FORCED
   258		037100	000000		OPDEF	PSIXM	[37B8!2B12!0]	;PRINT SIXBIT'Z MSG IMMEDIATE
   259		037200	000000		OPDEF	PSIXMF	[37B8!4B12!0]	;PRINT SIXBIT'Z MSG IMM FORCED
   260		037000	000000		OPDEF	PNTCI	[37B8!0B12!0]	;PRINT CHARACTER IMMEDIATE
   261		037040	000000		OPDEF	PNTCIF	[37B8!1B12!0]	;PRINT CHARACTER IMMEDIATE FORCED
   262		037500	000000		OPDEF	PNTCHR	[37B8!12B12!0]	;PRINT CHARACTER
   263		037500	000001		OPDEF	PNTCHF	[37B8!12B12!1]	;PRINT CHARACTER FORCED
   264		037040	000000		OPDEF	PNT1	[37B8!1B12!0]	;PRINT ONE OCTAL DIGIT
   265		037040	000001		OPDEF	PNT1F	[37B8!1B12!1]	;PRINT 1 OCTAL DIGIT FORCED
   266		037100	000000		OPDEF	PNT2	[37B8!2B12!0]	;PRINT TWO OCTAL DIGITS
   267		037100	000001		OPDEF	PNT2F	[37B8!2B12!1]	;PRINT 2 OCTAL DIGITS FORCED
   268		037140	000000		OPDEF	PNT3	[37B8!3B12!0]	;PRINT THREE OCTAL DIGITS
   269		037140	000001		OPDEF	PNT3F	[37B8!3B12!1]	;PRINT THREE OCTAL DIGITS FORCED
   270		037200	000000		OPDEF	PNT4	[37B8!4B12!0]	;PRINT FOUR OCTAL DIGITS
   271		037200	000001		OPDEF	PNT4F	[37B8!4B12!1]	;PRINT FOUR OCTAL DIGITS FORCED
   272		037240	000000		OPDEF	PNT5	[37B8!5B12!0]	;PRINT FIVE OCTAL DIGITS
   273		037240	000001		OPDEF	PNT5F	[37B8!5B12!1]	;PRINT FIVE OCTAL DIGITS FORCED
   274		037300	000000		OPDEF	PNT6	[37B8!6B12!0]	;PRINT SIX OCTAL DIGITS
   275		037300	000001		OPDEF	PNT6F	[37B8!6B12!1]	;PRINT SIX OCTAL DIGITS FORCED
   276		037340	000000		OPDEF	PNT7	[37B8!7B12!0]	;PRINT 7 OCTAL DIGITS
   277		037340	000001		OPDEF	PNT7F	[37B8!7B12!1]	;PRINT 7 OCTAL DIGITS FORCED
   278		037440	000000		OPDEF	PNT11	[37B8!11B12!0]	;PRINT 11 OCTAL DIGITS
   279		037440	000001		OPDEF	PNT11F	[37B8!11B12!1]	;PRINT 11 OCTAL DIGITS FORCED.
   280		037400	000000		OPDEF	PNTADR	[37B8!10B12!0]	;PRINT PHYSICAL ADDRESS
   281		037400	000001		OPDEF	PNTADF	[37B8!10B12!1]	;PRINT PHYSICAL ADDRESS FORCED
   282		037600	000000		OPDEF	PNTOCT  [37B8!14B12!0]	;PRINT FULL WORD OCTAL
   283		037600	000001		OPDEF	PNTOTF	[37B8!14B12!1]	;PRINT FULL WORD OCTAL FORCED
   284		037540	000000		OPDEF	PNTHW	[37B8!13B12!0]	;PRINT OCTAL HALF WORDS, 6 SP 6
   285		037540	000001		OPDEF	PNTHWF	[37B8!13B12!1]	;PRINT OCTAL HALF WORDS, 6 SP 6 FORCED
   286		037700	000003		OPDEF	PNTOCS	[37B8!16B12!3]	;PRINT OCTAL, SUPPRESS LEADING 0'S
   287		037740	000003		OPDEF	PNTOCF	[37B8!17B12!3]	;PRINT OCTAL, SUPPRESS LEADING 0'S FORCED
   288		037640	000000		OPDEF	PNTDEC	[37B8!15B12!0]	;PRINT DECIMAL, SUPRESS LEADING 0'S
   289		037640	000001		OPDEF	PNTDCF	[37B8!15B12!1]	;PRINT DECIMAL, SUPRESS LEADING 0'S FORCED
   290		037700	000000		OPDEF	PNTDS	[37B8!16B12!0]	;PRINT DECIMAL, SPACES FOR LD 0'S
   291		037700	000001		OPDEF	PNTDSF	[37B8!16B12!1]	;PRINT DECIMAL, SPACES FOR LD 0'S FORCED

DECSYSTEM 2020 UNIBUS ADAPTER EXERCISER, VERSION=0,4 	MACRO %53(1020) 09:46 12-Jul-79 Page 5
PARAM	KSM	28-Mar-78 11:27		PROGRAM/SUBROUTINE PARAMETERS                                                      SEQ 0031

   292		037200	000002		OPDEF	PNTNM	[37B8!4B12!2]	;PRINT PROGRAM NAME
   293		037000	000002		OPDEF	PNTSIX	[37B8!0B12!2]	;PRINT SIXBIT WORD
   294		037040	000002		OPDEF	PNTSXF	[37B8!1B12!2]	;PRINT SIXBIT WORD FORCED
   295		037240	000002		OPDEF	DROPDV	[37B8!5B12!2]	;CLOSE LOGICAL FILE, USER MODE
   296		037100	000002		OPDEF	PNTCW	[37B8!2B12!2]	;PRINT DF10 CONTROL WORD
   297		037140	000002		OPDEF	PNTCWF	[37B8!3B12!2]	;PRINT DF10 CONTROL WORD FORCED
   298		037000	030242		OPDEF	PCRL	[37B8!0B12!CRLF] ;PRINT CARRIAGE RETURN/LINE FEED
   299		037040	030242		OPDEF	PCRLF	[37B8!1B12!CRLF] ;PRINT CARRIAGE RETURN/LINE FEED FORCED
   300		037000	000040		OPDEF	PSP	[37B8!0B12!40]	;PRINT SPACE
   301		037040	000040		OPDEF	PSPF	[37B8!1B12!40]	;PRINT SPACE FORCED
   302		037000	030243		OPDEF	PCRL2	[37B8!0B12!CRLF2] ;PRINT CARRIAGE RETURN/LINE FEED (TWICE)
   303		037040	030243		OPDEF	PCRL2F	[37B8!1B12!CRLF2] ;PRINT CARRIAGE RETURN/LINE FEED (TWICE) FORCED
   304		037040	000007		OPDEF	PBELL	[37B8!1B12!7]	;PRINT TTY BELL
   305
   306		037040	000026		OPDEF	PFORCE	[37B8!1B12!26]	;PRINT FORCE, CONTROL O OVERRIDE
   307
   308					DEFINE	PMSG	(ARG),<
   309						PSIXM	[SIXBIT\ARG'_\]>
   310
   311					DEFINE	PMSGF	(ARG),<
   312						PSIXMF	[SIXBIT\ARG'_\]>
   313
   314					;*SIXBTZ -- MACRO TO GENERATE SIXBIT DATA FOR PRINTING
   315					;*	CONSERVES CORE OVER ASCIZ
   316
   317					DEFINE	SIXBTZ	(ARG),<	[SIXBIT\ARG'_\]>
   318
   319					;*CONSOLE SWITCH INPUT UUO.
   320					;*READS CONSOLE SWITCHES IF IN EXEC MODE OR ASKS FOR THEM IF
   321					;* USER MODE.
   322
   323		037400	000002		OPDEF	SWITCH	[37B8!10B12!2]	;INPUT CONSOLE SWITCHES
   324
   325					;*CLOCK INITIALIZATION UUO - TO SET DESIRED CLOCK OPERATION
   326					;*EITHER IGNORE CLOCK, ONLY LET IT TICK OR CAUSE INTERRUPT TO OCCUR.
   327
   328		037540	000004		OPDEF	CLOKOP	[37B8!13B12!4]	;CLOCK OPERATION UUO - CLOCK
   329		037200	000004		OPDEF	MTROP	[37B8!4B12!4]	;CLOCK OPERATION UUO - METER
   330
   331					;*KS-10 CACHE OPERATION UUO'S
   332
   333		037040	000004		OPDEF	CINVAL	[37B8!1B12!4]	;CACHE INVALIDATE
   334		037100	000004		OPDEF	CFLUSH	[37B8!2B12!4]	;CACHE FLUSH
   335		037140	000004		OPDEF	CWRTBI	[37B8!3B12!4]	;CACHE WRITE-BACK & INVALIDATE

DECSYSTEM 2020 UNIBUS ADAPTER EXERCISER, VERSION=0,4 	MACRO %53(1020) 09:46 12-Jul-79 Page 6
PARAM	KSM	28-Mar-78 11:27		PROGRAM/SUBROUTINE PARAMETERS                                                      SEQ 0032

   336					;*END OF PASS/PROGRAM UUOS
   337
   338					;PERFORMS THE END OF PASS FUNCTIONS. INCREMENT PASS COUNT,
   339					;*DECREMENT ITERATION COUNT, CHECK IF FINISHED WITH THIS PROGRAM ETC.
   340
   341		037500	000004		OPDEF	ENDUUO	[37B8!12B12!4]	;UUO TO DISPLAY LIGHTS
   342		037700	000004		OPDEF	EOPUUO	[37B8!16B12!4]	;END OF PROGRAM UUO
   343
   344					;*MEMORY MANAGEMENT UUO'S
   345					;*UUO'S TO PERFORM VARIOUS MEMORY FUNCTIONS. MAPPING, ZEROING, PAGING,
   346					;*ADDRESS CONVERSION, ETC...
   347
   348		037000	000004		OPDEF	MAPMEM	[37B8!0B12!4]	;MAP MEMORY
   349		037500	000002		OPDEF	MEMZRO	[37B8!12B12!2]	;ZERO MEMORY
   350		037440	000002		OPDEF	MEMSEG	[37B8!11B12!2]	;SETUP MEMORY SEGMENT
   351		037540	000002		OPDEF	MAPADR	[37B8!13B12!2]	;VIRTUAL TO PHYSICAL ADR CONVERT
   352		037640	000002		OPDEF	MAPCNK	[37B8!15B12!2]	;MAP MEMORY CHUNK
   353		037600	000002		OPDEF	MAPSET	[37B8!14B12!2]	;SET KI10 EXEC PAGE MAP
   354		037740	000002		OPDEF	MAPPNT	[37B8!17B12!2]	;PRINT MEMORY MAP
   355
   356					;*DEVICE CODE MODIFICATION UUO
   357					;*ALLOWS THE MODIFICATION OF IOT'S TO ONE DEVICE TO BE CHANGED TO
   358					;*IOT'S TO A DIFFERENT DEVICE CODE.
   359
   360		037340	000002		OPDEF	MODPCU	[37B8!7B12!2]	;MODIFY PERHIPERAL CODE, USER
   361		037300	000002		OPDEF	MODPCP	[37B8!6B12!2]	;MODIFY PERHIPERAL CODE, PROGRAM
   362
   363			030000			IFNDEF	MODDVL,<MODDVL==BEGIN>
   364			030000			IFNDEF	MODDVU,<MODDVU==BEGIN>
   365
   366					;*"DIAMON" FILE SELECTION AND READ UUOS
   367
   368		037240	000004		OPDEF	FSELECT	[37B8!5B12!4]	;FILE SELECTION
   369		037300	000004		OPDEF	FREAD	[37B8!6B12!4]	;FILE READ - ASCII DATA
   370		037340	000004		OPDEF	FRD36	[37B8!7B12!4]	;FILE READ - 36 BIT DATA
   371		037400	000004		OPDEF	FRD8	[37B8!10B12!4]	;FILE READ - 8 BIT DATA
   372
   373						XLIST
   374					IFNDEF	EROLD,<LIST


DECSYSTEM 2020 UNIBUS ADAPTER EXERCISER, VERSION=0,4 	MACRO %53(1020) 09:46 12-Jul-79 Page 7
PARAM	KSM	28-Mar-78 11:27		ERROR HANDLING UUO DEFINITIONS                                                     SEQ 0033

   375					SUBTTL	ERROR HANDLING UUO DEFINITIONS
   376
   377					S^;*********************************************************************^
   378					;*ERROR HANDLER PARAMETERS
   379					S^;*********************************************************************^
   380
   381		036000	000000		OPDEF	ERUUO	[36B8]		;ERROR CALL UUO
   382		035000	000000		OPDEF	ERLOOP	[35B8]		;ERROR LOOP, CHECKS PC,REPT,REPT1,ERROR
   383		035040	000000		OPDEF	ERLP1	[35B8!1B12]	;ERROR LOOP IF PC'S MATCH
   384		035100	000000		OPDEF	ERLP2	[35B8!2B12]	;ERROR LOOP IF ANY ERROR
   385		034000	000000		OPDEF	REPTUO	[34B8]		;REPEAT LOOP UUO
   386
   387					;*THE ERROR HANDLER MACROS
   388
   389					;*A MACRO TO REPORT AN ERROR AND LOOP
   390
   391						DEFINE	ERROR	(ADR,FORMAT,CORECT,ACTUAL,F,D,ERR)<
   392												SALL
   393						ERUUO	FORMAT,[T,,[SIXBIT\F'_\]
   394							   CORECT,,ACTUAL
   395							   [SIXBIT\D'_\],,ERR]
   396												XALL
   397						ERLOOP	ADR		;IF ERROR, LOOP TO ADR
   398					>
   399
   400					;*A MACRO TO REPORT AN ERROR AND NOT LOOP
   401
   402						DEFINE	ERROR1	(FORMAT,CORECT,ACTUAL,F,D,ERR)<
   403												SALL
   404						ERUUO	FORMAT,[T,,[SIXBIT\F'_\]
   405							   CORECT,,ACTUAL
   406							   [SIXBIT\D'_\],,ERR]
   407												XALL>
   408
   409					>;END OF EROLD CONDITIONAL
   410
   411						XLIST
   412						LIST


DECSYSTEM 2020 UNIBUS ADAPTER EXERCISER, VERSION=0,4 	MACRO %53(1020) 09:46 12-Jul-79 Page 1
FIXED	KSM	28-Mar-78 11:28		*FIXED* FIXED CONTROL AND DISPATCH STORAGE, MARCH 1978                             SEQ 0034

   413					SUBTTL	*FIXED* FIXED CONTROL AND DISPATCH STORAGE, MARCH 1978
   414
   415	030000					LOC	30000
   416
   417					S^;*********************************************************************^
   418					;*PROGRAM STARTING ADDRESSES
   419					;*THESE ADDRESSES CALL VARIOUS SPECIAL START ROUTINES AND OR OPTIONS
   420					;*NORMAL START ADDRESS IS 30000 ALL OTHERS ARE SPECIAL. INVOKED BECAUSE
   421					;*OF END OF PASS, POWER FAILURE, DDT START, RE-ENTERING(TYPICALLY USER
   422					;*MODE), OR ANY NUMBER OF SPECIAL FEATURE TESTS.
   423					S^;*********************************************************************^
   424
   425	030000	254 00 1 00 027776 	BEGIN:	JRST	@MODLNK		;STAND-ALONE START
   426	030001	254 00 0 00 030600 	$START:	JRST	START		;MODE CHECK STARTING ADDRESS
   427
   428	030002	254 00 1 00 027774 	DIAGMN:	JRST	@LDLNK		;DIAGNOSTIC MONITOR START
   429
   430	030003	254 00 1 00 027774 	SYSEXR:	JRST	@LDLNK		;SYSTEM EXERCISER START
   431
   432	030004	254 00 0 00 030000 	SFSTRT:	JRST	SADR1		;SPECIAL FEATURE START
   433
   434	030005	254 00 0 00 030000 	PFSTRT:	JRST	SADR2		;POWER FAIL RESTART
   435
   436	030006	254 00 0 00 030000 	REENTR:	JRST	SADR3		;REENTER START(USUALLY USER MODE ONLY)
   437
   438	030007				SRTDDT:				;COMMONLY MISTAKEN NAME FOR "DDTSRT"
   439	030007	254 00 1 00 027775 	DDTSRT:	JRST	@DDTLNK		;DDT START
   440
   441	030010	254 00 0 00 030657 	BEGIN1:	JRST	STARTA		;LOOP START(END OF PASS COMES HERE)
   442	030011	254 00 1 00 027777 	SBINIT:	JRST	@SUBLNK		;PMGINT LINKAGE
   443	030012	000000	000000		RETURN:	0			;RETURN ADDRESS STORAGE
   444
   445	030013	254200	030000		START1:	SADR7			;OPTIONAL STARTING ADR/INSTRUCTIONS
   446	030014	254200	030000		START2:	SADR8			; "
   447	030015	254200	030000		START3:	SADR9			; "
   448	030016	254200	030000		START4:	SADR10			; "
   449	030017	254200	030000		START5:	SADR11			; "


DECSYSTEM 2020 UNIBUS ADAPTER EXERCISER, VERSION=0,4 	MACRO %53(1020) 09:46 12-Jul-79 Page 2
FIXED	KSM	28-Mar-78 11:28		*FIXED* FIXED CONTROL AND DISPATCH STORAGE, MARCH 1978                             SEQ 0035

   450					S^;*********************************************************************^
   451					;*PROGRAM FIXED PARAMETER AREA
   452					S^;*********************************************************************^
   453
   454	030020	446365	424100		PNTNAM:	PAREA3		;SIXBIT PROGRAM NAME
   455	030021	605664	000000		PNTEXT:	PAREA4		;SIXBIT PROGRAM EXTENSION
   456	030022	000000	123457		RANDBS:	PAREA1		;RANDOM BASE NUMBER
   457	030023	000000	000000		SWTEXR:	PAREA2		;SYSTEM EXERCISER SWITCHES
   458	030024	000000	000001		ITRCNT:	ITERAT		;PROGRAM ITERATIONS
   459	030025	000000	036755		$PNAME:	PGMNAM		;POINTER TO PROGRAMS NAME
   460	030026	000000	000004		$PVER:	MCNVER,,DECVER	;MCN & DEC VERSION LEVEL
   461	030027	000000	030000		$MODVL:	MODDVL		;DEVICE CODE CHANGE LOWER LIMIT
   462	030030	000000	030000		$MODVU:	MODDVU		;DEVICE CODE CHANGE UPPER LIMIT
   463	030031	777777	777777		$EMODE:	IFNDEF EXCASB,<0> IFDEF EXCASB,<-1>	;EXEC ALLOWED
   464	030032	000000	000000		$UMODE:	IFNDEF USRASB,<0> IFDEF USRASB,<-1>	;USER ALLOWED
   465	030033	000000	000000		$DSKUP:	IFNDEF DSKUPD,<0> IFDEF DSKUPD,<-1>	;DISK UPDATE MODE
   466	030034	777777	777777		$MMAP:	IFNDEF MEMMAP,<0> IFDEF MEMMAP,<-1>	;ALLOW MEMORY RTNS
   467	030035	000000	000000		PAREA7:	PAREA5		;OPTIONAL PARAMETER
   468	030036	000000	000000		PAREA8:	PAREA6		;OPTIONAL PARAMETER
   469
   470					S^;*********************************************************************^
   471					;*PROGRAM VARIABLE PARAMETER AREA
   472					S^;*********************************************************************^
   473
   474	030037	000000	000000		USER:	0		; 0 = EXEC, -1 = USER MODE FLAG
   475	030040	000000	000000		KAIFLG:	0		;PROCESSOR TYPE, 0 = KA10, -1 = KI10
   476	030041	000000	000000		KLFLG:	0		;PROCESSOR TYPE, 0 = KA/KI, -1 = KL10
   477	030042	777777	777777		MONFLG:	-1		;DIAG MONITOR SPECIAL USER FLAG
   478	030043	000000	000000		MONCTL:	0		;DIAG MON/SYS EXR FLAG
   479	030044	000000	000000		MONTEN:	0		;-1= LOADED BY 10
   480	030045	000000	000000		CLOCKF:	0		;CLOCK TICKED FLAG
   481	030046	000000	000000		CONSW:	0		;CONSOLE SWITCH SETTINGS
   482	030047	000000	000000		PASCNT:	0		;PROGRAM PASS COUNT
   483	030050	000000	000000		RUNFLG:	0		;PROGRAM RUN FLAG
   484	030051	000000	000000		TESTPC:	0		;SUBTEST PC
   485	030052	000000	000000		ERRPC:	0		;ERROR PC
   486	030053	000000	000000		ERRTLS:	0		;ERROR TOTALS
   487	030054	000000	000000		TICKS:	0		;PROGRAM RUNNING TIME
   488	030055	000000	000000		MARGIN:	0		;KI10 MARGIN WORD VALUE
   489	030056	000000	000000		$ONETM:	0		;SUBROUTINE INITIALIZATION FLAG


DECSYSTEM 2020 UNIBUS ADAPTER EXERCISER, VERSION=0,4 	MACRO %53(1020) 09:46 12-Jul-79 Page 3
FIXED	KSM	28-Mar-78 11:28		*FIXED* FIXED CONTROL AND DISPATCH STORAGE, MARCH 1978                             SEQ 0036

   490					S^;*********************************************************************^
   491					;*SPECIAL PROGRAM DISPATCH ADDRESSES
   492					S^;*********************************************************************^
   493
   494	030057	037 12 0 00 000004 	BEGEND:	ENDUUO		;END OF PASS
   495	030060	254 00 0 00 030010 	$BEND1:	JRST	BEGIN1	;KEEP RUNNING PROGRAM
   496	030061	037 16 0 00 000004 	$BEND2:	EOPUUO		;END OF PROGRAM - NO RETURN
   497	030062	000000	030061		CNTLC:	SADR5		;CONTROL C XFER ADDRESS
   498	030063	254200	030000		ALTMGO:	SADR6		;ALTMODE XFER ADDRESS
   499	030064				CPOPJ1:			;SKIP RETURN
   500	030064	350 00 0 17 000000 	UUOSKP:	AOS	(P)	;SKIP RETURN FROM UUO
   501	030065				CPOPJ:			;NON-SKIP REGULAR RETURN
   502	030065	263 17 0 00 000000 	UUOEXT:	RTN		;UUO RETURN
   503	030066	255 00 0 00 000000 	UUORTN:	JFCL		;ADDITIONAL USERS UUO ROUTINE
   504	030067	255 00 0 00 000000 	$UORTX:	JFCL		;ADDITIONAL UUO LINKAGE
   505	030070	255 00 0 00 000000 	$UUOER:	JFCL		;INITED AS (JRST $UOERX)
   506	030071	255 00 0 00 000000 	$ITRHL:	JFCL		;ADDITIONAL INTERRUPT LINKAGE
   507	030072	255 00 0 00 000000 	$ITRX1:	JFCL		; "
   508	030073	255 00 0 00 000000 	$USRHL:	JFCL		; "
   509	030074	255 00 0 00 000000 	$RSRTX:	JFCL		;ADDITIONAL POWER FAIL LINKAGE
   510	030075	255 00 0 00 000000 	$RSRTY:	JFCL		; "
   511	030076	255 00 0 00 000000 	RESRT1:	JFCL		; INITED AS (JRST RESRTX)
   512	030077	255 00 0 00 000000 	RESRT2:	JFCL		; "
   513	030100	255 00 0 00 000000 	$PARER:	JFCL		;ADDITIONAL PARITY ERROR LINKAGE
   514	030101	255 00 0 00 000000 	ERMORE:	JFCL		;ADDITIONAL ERROR HANDLER LINKAGE
   515	030102	254 04 0 00 030102 		HALT	.	;IMPROPER TRANSFER HALT
   516
   517	030103	000000	000000		$PSHER:	0		;INITED AS (JRST PSHERR)
   518	030104	000000	000000		ITRCH1:	0		;PC & FLAGS OF CURRENT INTERRUPT
   519	030105	000000	000000			0		;INITED AS (JRST $ITRC1)
   520
   521					S^;*********************************************************************^
   522					;*PROCESSOR CONTROL STORAGE
   523					S^;*********************************************************************^
   524
   525	030106	000000	000000		$ACC0:	0		;INTERRUPT SAVED AC0
   526	030107	000000	000000		$SVPI:	0		;INTERRUPT SAVED PI
   527	030110	000000	000000		$SVAPR:	0		;INTERRUPT SAVED APR
   528	030111	000000	000000		$SVPAG:	0		;INTERRUPT SAVED PAG (DATAI)
   529	030112	000000	000000		$SPAG1:	0		;INTERRUPT SAVED PAG (CONI)
   530
   531	030113	000000	000000		$SVUUO:	0		;CURRENT USERS UUO
   532	030114	000000	000000		$SVUPC:	0		;PC OF CURRENT USERS UUO
   533
   534	030115	000000	000000		REPTU:	0		;REPEAT UUO ITERATIONS
   535	030116	000000	000000		SCOPE:	0		;ERROR HANDLER SCOPE LOOP FLAG
   536	030117	000000	000000		%CORFLG:0		; " CORRECT FLAG
   537	030120	000000	000000		%COREC:	0		; " CORRECT DATA
   538	030121	000000	000000		%ACTFL:	0		; " ACTUAL FLAG
   539	030122	000000	000000		%ACTUL:	0		; " ACTUAL DATA
   540	030123	000000	000000		%DISCR:	0		; " DISCREPENCY DATA


DECSYSTEM 2020 UNIBUS ADAPTER EXERCISER, VERSION=0,4 	MACRO %53(1020) 09:46 12-Jul-79 Page 4
FIXED	KSM	28-Mar-78 11:28		*FIXED* FIXED CONTROL AND DISPATCH STORAGE, MARCH 1978                             SEQ 0037

   541					S^;*********************************************************************^
   542					;*UUO DISPATCH TABLE
   543					S^;*********************************************************************^
   544						XLIST
   545						LIST
   546	030124	030070	030070		UUODIS:	LUUO1,,$UUOER
   547	030125	030070	030070			LUUO3,,LUUO2
   548	030126	030070	030070			LUUO5,,LUUO4
   549	030127	030070	030070			LUUO7,,LUUO6
   550	030130	030070	030070			LUUO11,,LUUO10
   551	030131	030070	030070			LUUO13,,LUUO12
   552	030132	030070	030070			LUUO15,,LUUO14
   553	030133	030070	030070			LUUO17,,LUUO16
   554	030134	030070	030070			LUUO21,,LUUO20
   555	030135	030070	030070			LUUO23,,LUUO22
   556	030136	030070	030070			LUUO25,,LUUO24
   557	030137	030070	030070			LUUO27,,LUUO26
   558	030140	030070	030070			LUUO31,,LUUO30
   559	030141	030070	030070			LUUO33,,LUUO32
   560
   561					S^;*********************************************************************^
   562					;*MEMORY MANAGMENT STORAGE
   563					S^;*********************************************************************^
   564
   565	030142	000000	000000		DF22F:	0		;DF10 CONTROL FLAG, 0 = 18, -1 = 22 BIT
   566	030143	000000	000000		MAPNEW:	0		;MEMORY MAPPING CONTROL FLAG, -1 = 4096K MAPPING
   567	030144	000000	000000		MEMTOT:	0		;TOTAL MEMORY SIZE IN K (1024.)
   568	030145	000000	000000		MEMLOW:	0		;LOWEST USABLE MEMORY
   569	030146				MEMSIZ:	BLOCK ^D41	;MEMORY SEGMENT POINTER TABLE
   570
   571					S^;*********************************************************************^
   572					;*PRINT CONTROL STORAGE
   573					S^;*********************************************************************^
   574
   575	030217	000000	000000		PNTFLG:	0		;PRINT FLAG, -1 WHILE IN PRINT ROUTINE
   576	030220	000000	000000		PNTENB:	0		;PRINT ENABLE
   577	030221	000000	000000		PDISF:	0		;PRINT DISABLED FLAG
   578	030222	000000	000000		PNTINH:	0		;INHIBIT PRINT INPUT CHECKS
   579	030223	000000	000000		PNTSPC:	0		;PRINT SPACE CONTROL
   580	030224	000000	000000		OPTIME:	0		;TYPE-IN WAIT TIME
   581	030225	000000	000000		$TWCNT:	0		;TIME WAITED
   582	030226	000000	000000		$DVOFF:	0		;LOGICAL DEVICE INITED FLAG
   583	030227	000000	000000		TTYFIL:	0		;TTY EXEC FILLERS FLAG
   584	030230	000000	000000		TTYSPD:	0		;TTY EXEC BAUD RATE
   585	030231	000000	000000		$TTCHR:	0		;ACTUAL TYPED IN CHAR
   586	030232	000000	000000		$CHRIN:	0		;UPPER CASED & PARITY STRIPPED CHAR
   587	030233	000000	000000		$TYPNB:	0		;TYPED IN NUMBER
   588	030234	000000	000000		$CRLF:	0		;FREE CR/LF FLAG
   589	030235	000000	000000		$TABF:	0		;TAB CONVERSION FLAG
   590	030236	000000	000000		$FFF:	0		;FORM FEED CONVERSION FLAG
   591	030237	000000	000000		$VTF:	0		;VERTICAL TAB CONVERSION FLAG
   592	030240	000000	000000		USRLFF:	0		;USER LF FILLERS
   593	030241	000000	000000		USRCRF:	0		;USER CR FILLERS


DECSYSTEM 2020 UNIBUS ADAPTER EXERCISER, VERSION=0,4 	MACRO %53(1020) 09:46 12-Jul-79 Page 5
FIXED	KSM	28-Mar-78 11:28		*FIXED* FIXED CONTROL AND DISPATCH STORAGE, MARCH 1978                             SEQ 0038

   594					S^;*********************************************************************^
   595					;*THE FOLLOWING MISCELLANEOUS PRINT CHARACTERS ARE INCLUDED
   596					;*TO FACILITATE PRINTING AND ARE CALLED AS FOLLOWS:
   597					;*	MOVEI	NAME
   598					;*	PNTA		;OR PNTAF
   599					S^;*********************************************************************^
   600
   601	030242				CRLF:	ASCII/
   602	030242	015 012 000 000 000 	/
   603	030243				CRLF2:	ASCII/
   604
   605	030243	015 012 015 012 000 	/
   606	030244	054 000 000 000 000 	COMMA:	ASCII/,/
   607	030245	056 000 000 000 000 	PERIOD:	ASCII/./
   608	030246	040 000 000 000 000 	SPACE:	ASCII/ /
   609	030247	011 000 000 000 000 	TAB:	ASCII/	/
   610	030250				MINUS:
   611	030250	055 000 000 000 000 	HYPEN:	ASCII/-/
   612	030251	053 000 000 000 000 	PLUS:	ASCII/+/
   613	030252	052 000 000 000 000 	AST:	ASCII/*/
   614	030253	100 000 000 000 000 	ATSIN:	ASCII/@/
   615	030254	050 000 000 000 000 	LFP:	ASCII/(/
   616	030255	051 000 000 000 000 	RTP:	ASCII/)/
   617	030256	007 0000000000 		BELL:	BYTE (7) 007
   618	030257	077 000 000 000 000 	QUEST:	ASCII/?/
   619	030260	057 000 000 000 000 	SLASH:	ASCII!/!
   620	030261	044 000 000 000 000 	DOLLAR:	ASCII/$/
   621	030262	000000	000012		RADIX:	^D10			;DECIMAL PRINT RADIX
   622	030263	000000	000040		RADLSP:	40			;DECIMAL PRINT LEADING CHAR
   623	030264	000000	000012		RADLSC:	^D10			;DECIMAL PRINT LEADING CHAR COUNT
   624
   625					S^;*********************************************************************^
   626					;*USER MODE OUTPUT FILE INFORMATION
   627					S^;*********************************************************************^
   628
   629	030265				$OBUF:	BLOCK	3		;LOGICAL FILE OUTPUT BUFFER HEADER
   630	030270	60 62 51 56 64 00 	$OUTNM:	SIXBIT	/PRINT/		;FILE NAME
   631	030271	60 56 64 00 00 00 	$OUTEX:	SIXBIT	/PNT/		;FILE NAME EXTENSION
   632	030272					BLOCK	2
   633
   634					S^;*********************************************************************^
   635					;*DISK UPDATE MODE FILE INFORMATION
   636					S^;*********************************************************************^
   637
   638	030274				$IBUF:	BLOCK	3
   639	030277	60 62 51 56 64 00 	$INNM:	SIXBIT	/PRINT/
   640	030300	60 56 64 00 00 00 	$INEXT:	SIXBIT	/PNT/
   641	030301					BLOCK	2


DECSYSTEM 2020 UNIBUS ADAPTER EXERCISER, VERSION=0,4 	MACRO %53(1020) 09:46 12-Jul-79 Page 6
FIXED	KSM	28-Mar-78 11:28		*FIXED* FIXED CONTROL AND DISPATCH STORAGE, MARCH 1978                             SEQ 0039

   642					S^;*********************************************************************^
   643					;*PUSHDOWN LIST CONTROL INFORMATION
   644					S^;*********************************************************************^
   645
   646	030303	777577	030303		PLIST:	PLIST-PLISTE,,PLIST
   647	030304				PLISTS:	BLOCK	200
   648	030504	000000	000000		PLISTE:	0		;END OF PUSHDOWN LIST
   649
   650					S^;*********************************************************************^
   651					;*POWER LINE CLOCK FREQUENCY FLAG
   652					S^;*********************************************************************^
   653
   654	030505	000000	000000		CYCL60:	0	;0 = 60, -1 = 50 CYCLE
   655
   656					S^;*********************************************************************^
   657					;*KL10 CACHE CONTROL FLAGS
   658					S^;*********************************************************************^
   659
   660	030506	000000	000000		CSHFLG:	0	;ALLOW CACHE IF 0
   661	030507	000000	000000		CSHMEM:	0	;CACHE MEMORY SEGMENTS IF 0
   662
   663					S^;*********************************************************************^
   664					;*NUMBER INPUT DIGIT FLAG
   665					S^;*********************************************************************^
   666
   667	030510	000000	000000		TTNBRF:	0	;-1 IF ANY DIGIT TYPED
   668
   669					S^;*********************************************************************^
   670					;*KL10 & KI10 "INHPAG" SWITCH PAGING PREVENTION
   671					S^;*********************************************************************^
   672
   673	030511	000000	000000		PVPAGI:	0	;IF NON-ZERO, OVERRIDE "INHPAG" SWITCH ACTION
   674
   675					S^;*********************************************************************^
   676					;*ERROR REPORTING ROUTINE ADDITIONAL USERS CONTROL INSTRUCTIONS
   677					S^;*********************************************************************^
   678
   679	030512	000000	000000		%ERHI1:	0	;IF NON-ZERO, XCT'D AT START OF %ERUUO
   680	030513	000000	000000		%ERHI2:	0	;IF NON-ZERO, XCT'D AT END OF %ERUUO
   681	030514	000000	000000		%ERHI3:	0	;IF NON-ZERO, XCT'D AFTER "PC" OF %ERUUO
   682
   683					S^;*********************************************************************^
   684					;*SPECIAL USERS UUO INTERCEPT INSTRUCTION
   685					S^;*********************************************************************^
   686
   687	030515	000000	000000		$$UUO:	0	;IF NON-ZERO, XCT'D AT START OF $UORTN


DECSYSTEM 2020 UNIBUS ADAPTER EXERCISER, VERSION=0,4 	MACRO %53(1020) 09:46 12-Jul-79 Page 7
FIXED	KSM	28-Mar-78 11:28		*FIXED* FIXED CONTROL AND DISPATCH STORAGE, MARCH 1978                             SEQ 0040

   688					S^;*********************************************************************^
   689					;*USER MODE MONITOR TYPE FLAG
   690					S^;*********************************************************************^
   691
   692	030516	000000	000000		MONTYP:	0	;0 = TOPS10, -1 = TOPS20
   693
   694					S^;*********************************************************************^
   695					;*SPECIAL USERS MUUO INTERCEPT INSTRUCTION
   696					S^;*********************************************************************^
   697
   698	030517	000000	000000		$$MUUO:	0	;IF NON-ZERO, XCT'D AT START OF MUUOER
   699
   700					S^;*********************************************************************^
   701					;*SPECIAL USERS USER MODE OUTPUT ERROR INTERCEPT INSTUCTION
   702					S^;*********************************************************************^
   703
   704	030520	000000	000000		$$OUTER:0	;IF NON-ZERO, XCT'D AT END OF USER MODE ERROR
   705
   706					S^;*********************************************************************^
   707					;*"SWITCH" CALL USAGE CONTROL
   708					S^;*********************************************************************^
   709
   710	030521	000000	000000		$$TOGGLE:0	;IF NON-ZERO, USE C(CONSW) FOR SWITCHES
   711
   712					S^;*********************************************************************^
   713					;*SPECIAL USERS ALTMODE SWITCH CALL INTERCEPT INSTRUCTIONS
   714					S^;*********************************************************************^
   715
   716	030522	000000	000000		$$TAX1:	0	;IF NON-ZERO, XCT'D AT START OF ALTMODE SWITCH CALL
   717	030523	000000	000000		$$TAX2:	0	;IF NON-ZERO, XCT'D AT END OF ALTMODE SWITCH CALL
   718
   719					S^;*********************************************************************^
   720					;*SM10 (KS-10) PROCESSOR TYPE FLAG
   721					S^;*********************************************************************^
   722
   723	030524	000000	000000		SM10:	0	;IF -1 THIS IS AN KS-10
   724
   725					S^;*********************************************************************^
   726					;*RIGHT HALF SWITCHES PROMPT TABLE ADDRESS
   727					S^;*********************************************************************^
   728
   729	030525	000000	000000		SWPTAB:	0	;0 = NO PROMPT, ADR = ADR OF SIXBIT PROMPT TABLE
   730
   731					S^;*********************************************************************^
   732					;*SPECIAL FUTURE EXPANSION ROOM
   733					S^;*********************************************************************^
   734
   735					S^;*********************************************************************^
   736					;*END OF FIXED STORAGE
   737					S^;*********************************************************************^
   738
   739	030577					LOC	30577
   740	030577	000000	000000		ENDFIX:	0		;END OF FIXED STORAGE


DECSYSTEM 2020 UNIBUS ADAPTER EXERCISER, VERSION=0,4 	MACRO %53(1020) 09:46 12-Jul-79 Page 1
DSUBAM	MAC	28-Jun-79 10:11		PROGRAM INITIALIZATION					SALL                       SEQ 0041

   741					SUBTTL	PROGRAM INITIALIZATION					SALL
   742
   743					;LOCATION "TESTPC" CONTAINS THE TEST RESTART ADDRESS FOR TEST LOOPING:
   744
   745	030600	402 00 0 00 030051 	START:	SETZM	TESTPC		;INITIALIZE TEST #
   746
   747					;TABLE "TSTBL" CONTAINS A TABLE OF ALL TEST STARTING ADDRESSES:
   748
   749	030601	201 00 0 00 000001 		MOVEI	1
   750	030602	202 00 0 00 034344 		MOVEM	TSTBL		;INIT. TABLE INDEX TO TEST #1
   751
   752					;ADDRESS OF SWITCH PROMPTING TABLE:
   753
   754	030603	201 00 0 00 034623 		MOVEI	0,HELP		;GET PROMPT TABLE ADDRESS
   755	030604	202 00 0 00 030525 		MOVEM	0,SWPTAB	;STORE IT FOR SMSUB
   756
   757					;PRE-PROGRAM INIT HOUSE-CLEANING:
   758
   759	030605	402 00 0 00 035607 		SETZM	ABORTP		;CLEAR ABORT PARITY CHECKING FLAG
   760	030606	402 00 0 00 030047 		SETZM	PASCNT		;CLEAR PASS COUNT #
   761	030607	402 00 0 00 035630 		SETZM	SLINE		;CLEAR SINGLE LINE FLAG FOR ECHO TEST
   762	030610	402 00 0 00 030053 		SETZM	ERRTLS		;CLEAR ERROR TOTALS
   763	030611	476 00 0 00 030143 		SETOM	MAPNEW		;PHYSICAL MEMORY MAPPING (NOT VIRTUAL)
   764
   765					;THIS RESETS VIRTUALLY EVERYTHING:
   766
   767	030612	265 00 0 00 030011 		PGMINT			;INIT P.REG,MEMSIZE,TRAPS,I/O,SWITCHES
   768
   769					;START OUT WITH HIGH SEGMENT OF VIRTUAL MEMORY = 128K TO 256K PHYSICAL:
   770
   771	030613	201 00 0 00 000001 		MOVEI	T0,1
   772	030614	037 11 0 00 000002 		MEMSEG			;MAKE THE SUBRTN PACKAGE DO IT
   773	030615	320 00 0 00 000000 		JUMP
   774
   775					;RESET ALL IO STUFF:
   776
   777	030616	700 04 0 00 200000 		WRAPR	LIOCLR		;I/O RESET (INIT UNIBUS)
   778	030617	700 04 0 00 200000 		WRAPR	LIOCLR		;  "      "      "
   779
   780					;THIS IS FOR THE "SUBRTN" PACKAGE:
   781
   782	030620	200 00 0 00 000502 		MOVE	LPGFTR		;GET SUBRTN PACKAGE TRAP ADDRESS
   783	030621	202 00 0 00 042434 		MOVEM	SVPGFT		;SAVE IT
   784
   785					;MAKE SURE THE MICROCODE KNOWS WHERE TO GO FOR A PAGE FAIL:
   786
   787	030622	201 00 0 00 035237 		MOVEI	IOPGFT		;GET ADDRESS OF I/O PAGE TRAP
   788	030623	202 00 0 00 000502 		MOVEM	LPGFTR		;SETUP FOR PAGE FAIL TRAPS


DECSYSTEM 2020 UNIBUS ADAPTER EXERCISER, VERSION=0,4 	MACRO %53(1020) 09:46 12-Jul-79 Page 2
DSUBAM	MAC	28-Jun-79 10:11		PROGRAM INITIALIZATION					SALL                       SEQ 0042

   789					;THIS INTERNAL I/O INSTRUCTION TURNS OFF THE PI SYSTEM:
   790
   791	030624	700 14 0 00 010000 		WRPI	10000		;MAKE SURE PI SYSTEM IS OFF!!!
   792
   793					;LOCATION "UEXORN" CONTAINS THE NUMBER OF EXERCISERS ON THE UNIBUS:
   794
   795	030625	402 00 0 00 035616 		SETZM	UEXORN		;DEFAULT IS NO EXERCISERS ON BUS
   796
   797					;THIS LETS THE OPERATOR TELL US WHICH UBA HE WANTS TO TEST
   798
   799	030626	201 00 0 00 030630 		MOVEI	NUMUB
   800	030627	202 00 0 00 035620 		MOVEM	TEMP1		;RETURN ADDRESS FOR GOOF
   801
   802	030630				NUMUB:	PNTMSF	[ASCIZ/
   803	030630	037 01 0 00 036770 	WHICH UNIBUS ADAPTER? (1,3,4):/]
   804	030631	037 03 0 00 000003 		TTIOCT			;GET NUMBER OF UBA
   805	030632	254 00 0 00 034617 		JRST	MERR3
   806	030633	321 00 0 00 034617 		JUMPL	MERR3		;UBA NUMBER LESS THAN ZERO, ABORT
   807	030634	303 00 0 00 000004 		CAILE	4		;SKIP IF UBA 4 OR LESS
   808	030635	254 00 0 00 034617 		JRST	MERR3		;GOOF, GO COMPLAIN
   809	030636	306 00 0 00 000002 		CAIN	2		;SKIP IF NOT UBA 2
   810	030637	254 00 0 00 034617 		JRST	MERR3		;GOOF, GO COMPLAIN
   811	030640	202 00 0 00 000007 	STORE:	MOVEM	T0,T7
   812	030641	260 17 0 00 035131 		GO	SELECT		;GO SELECT THE UBA
   813	030642	037 01 0 00 030242 		PCRLF
   814
   815					;MAKE SURE THE MICROCODE KNOWS WHERE TO GO ON A UBA INTERRUPT:
   816
   817	030643	201 00 0 00 035754 		MOVEI	ITRTBL		;GET ADDRESS OF INTERRUPT TABLE
   818	030644	554 01 0 00 035636 		HLRZ	T1,UBASR	;GET THE NUMBER OF THE UBA BEING TESTED
   819	030645	202 00 0 01 000100 		MOVEM	100(T1)		;STORE INTR.TABLE ADDRESS FOR MICROCODE
   820
   821					;THIS CODE DECIDES WHETHER OR NOT TO INPUT PARAMETERS FROM CONSOLE:
   822
   823	030646	037 10 0 00 000002 		SWITCH			;GET SWITCHES
   824	030647	603 00 0 00 000040 		TLNE	MODDVC		;INPUT PARAMETERS FROM CONSOLE?
   825	030650	260 17 0 00 034251 		GO	QUES		;YES!
   826
   827					;IF NOT MANUAL, AUTOSIZE FOR ALL UBA ADDRESSES AND INTERRUPT VECTORS:
   828
   829	030651	037 10 0 00 000002 		SWITCH			;GET SWITCHES
   830	030652	607 00 0 00 000040 		TLNN	MODDVC		;NO!!
   831	030653	260 17 0 00 034207 		GO	AUTOSA		;GO TO AUTO-SIZING ROUTINE
   832
   833					;THIS CODE DECIDES WHETHER TO START AT TEST #1 OR OPERATOR SELECTED ONE:
   834
   835	030654	037 10 0 00 000002 		SWITCH			;GET SWITCHES
   836	030655	602 00 0 00 400000 		TRNE	RSTRT		;START AT OPERATOR SELECTED TEST?
   837	030656	254 00 0 00 034330 		JRST	TSTSEL		;YES! GO TO TEST SELECT ROUTINE
   838	030657				STARTA:
   839
   840	030657	200 07 0 00 034344 	STST:	MOVE	IND,TSTBL	;GET INDEX TO TEST TABLE
   841	030660	254 00 1 07 034344 		JRST	@TSTBL(IND)	;GO START TESTING


DECSYSTEM 2020 UNIBUS ADAPTER EXERCISER, VERSION=0,4 	MACRO %53(1020) 09:46 12-Jul-79 Page 3
DSUBAM	MAC	28-Jun-79 10:11		DEVICE TESTS                                                                       SEQ 0043

   842					SUBTTL	DEVICE TESTS
   843													SALL
   844			036777			T=SIXBTZ<UBA STATUS REGISTER ACCESSING TEST>
   845
   846					; **********************************************************************
   847
   848					;* TEST 1 CHECKS THAT THE STATUS REGISTER OF THE UNIBUS ADAPTER CURRENTLY
   849					;* BEING TESTED CAN BE SUCCESSFULLY ACCESSED WITHOUT CAUSING A PAGE FAILURE
   850					;* OR PARITY ERROR.  IF THE STATUS REGISTER CANNOT BE ACCESSED, THE
   851					;* DIAGNOSTIC IS ABORTED, AND UNLESS THE FORCE PARITY TESTING SWITCH WAS
   852					;* SET, A STUCK HIGH CONDITION ON THE PARITY BIT INHIBITS FURTHER PARITY
   853					;* TESTING.
   854					;**********************************************************************
   855
   856	030661	201 00 0 00 030663 	TEST1:	MOVEI	WIND		;GET LOOP ADDRESS
   857	030662	202 00 0 00 030051 		MOVEM	TESTPC		;AND STORE IN TESTPC
   858
   859	030663	402 00 0 00 035606 	WIND:	SETZM	ABORTE		;ZERO OUT ABORT FLAG
   860	030664	402 00 0 00 035607 		SETZM	ABORTP		;ZERO OUT ABORT PARITY CHECKING FLAG
   861	030665	201 00 0 00 030675 		MOVEI	RAIN		;GET IO PAGE FAIL ADDRESS
   862	030666	202 00 0 00 035253 		MOVEM	IOPGFA		;AND STORE FOR "IOPGFT" ROUTINE
   863	030667	201 00 0 00 000100 		MOVEI	UBINIT		;GET UNIBUS ADAPTER INIT. BIT
   864	030670	713 00 1 00 035636 		WRIO	@UBASR		;AND TRY TO WRITE IT TO THE UBA
   865	030671	713 00 1 00 035636 		WRIO	@UBASR		;AND TRY TO WRITE IT TO THE UBA
   866	030672	713 00 1 00 035636 		WRIO	@UBASR		;AND TRY TO WRITE IT TO THE UBA
   867	030673	713 00 1 00 035636 		WRIO	@UBASR		;AND TRY TO WRITE IT TO THE UBA
   868	030674	314 00 0 00 000000 		CAMA			;SKIP ALWAYS,- NO PAGE FAILURE !!
   869	030675	036 00 0 00 037017 	RAIN:	ERROR(WIND,0,0,0,TEST 1,PAGE FAILURE WHILE WRITING TO STATUS REGISTER,ERR1)
   870	030676	035 00 0 00 030663 		ERLOOP	WIND		;IF ERROR, LOOP TO WIND
   871
   872
   873	030677	201 00 0 00 030720 	HAIL:	MOVEI	SNOW		;GET ANOTHER IO PAGE FAIL ADDRESS
   874	030700	202 00 0 00 035253 		MOVEM	IOPGFA		;AND PUT IT IN IOPGFA
   875	030701	712 01 1 00 035636 		RDIO	T1,@UBASR	;SEE IF WE CAN READ FROM THE STAT.REG.
   876	030702	712 01 1 00 035636 		RDIO	T1,@UBASR	;SEE IF WE CAN READ FROM THE STAT.REG.
   877	030703	712 01 1 00 035636 		RDIO	T1,@UBASR	;SEE IF WE CAN READ FROM THE STAT.REG.
   878	030704	712 01 1 00 035636 		RDIO	T1,@UBASR	;SEE IF WE CAN READ FROM THE STAT.REG.
   879	030705	602 01 0 00 100000 		TRNE	T1,SMPE		;READ OK, SEE IF PARITY SET
   880	030706	036 00 0 00 037031 		ERROR(HAIL,0,0,0,TEST 1,KS10 PARITY BIT SET AFTER INITIALIZATION)
   881	030707	035 00 0 00 030677 		ERLOOP	HAIL		;IF ERROR, LOOP TO HAIL
   882	030710	037 10 0 00 000002 		SWITCH			;GET SWITCHES
   883	030711	602 00 0 00 040000 		TRNE	FORCEP		;FORCE PARITY CHECKING IN THE FUTURE?
   884	030712	254 00 0 00 030722 		JRST	HAZE		;YES! SKIP FOLLOWING
   885	030713	606 01 0 00 100000 		TRNN	T1,SMPE		;SKIP IF PARITY SET
   886	030714	254 00 0 00 030722 		JRST	HAZE		;ELSE SKIP FOLLOWING
   887						PNTMSF	[ASCIZ/
   888					***** PARITY BIT STUCK HIGH - FURTHER PARITY CHECKING INHIBITED *****
   889	030715	037 01 0 00 037034 	/]
   890	030716	476 00 0 00 035607 		SETOM	ABORTP		;ABORT FUTURE PARITY TESTING


DECSYSTEM 2020 UNIBUS ADAPTER EXERCISER, VERSION=0,4 	MACRO %53(1020) 09:46 12-Jul-79 Page 4
DSUBAM	MAC	28-Jun-79 10:11		DEVICE TESTS                                                                       SEQ 0044

   891	030717	314 00 0 00 000000 		CAMA			;READ SUCCESSFULL, SKIP ALWAYS
   892	030720	036 00 0 00 037063 	SNOW:	ERROR(HAIL,0,0,0,TEST 1,PAGE FAILURE WHILE READING FROM STATUS REGISTER,ERR1)
   893	030721	035 00 0 00 030677 		ERLOOP	HAIL		;IF ERROR, LOOP TO HAIL
   894
   895	030722	402 00 0 00 035253 	HAZE:	SETZM	IOPGFA		;RESET PAGE FAIL ADDRESS
   896						LPTST
   897
   898
   899
   900					;------------------------------------------------------------
   901	030730	200 00 0 00 035606 		MOVE	ABORTE		;GET ABORT TEST FLAG
   902	030731	322 00 0 00 030734 		JUMPE	TEST2		;IT'S NOT SET,- GO TO NEXT SECTION
   903						PNTMSF	[ASCIZ/
   904					***** FATAL ERROR - REMAINING TESTS ABORTED *****
   905	030732	037 01 0 00 037066 	/]
   906	030733	254 00 0 00 034205 		JRST	FINISH		;ABORT DIAGNOSTIC
   907					;------------------------------------------------------------


DECSYSTEM 2020 UNIBUS ADAPTER EXERCISER, VERSION=0,4 	MACRO %53(1020) 09:46 12-Jul-79 Page 5
DSUBAM	MAC	28-Jun-79 10:11		DEVICE TESTS                                                                       SEQ 0045

   908
   909			037101			T=SIXBTZ<UBA MAINTENANCE REGISTER ACCESSING TEST>
   910
   911					; **********************************************************************
   912					;* TEST 2 CHECKS THE ABILITY OF THE CPU TO ACCESS THE UBA MAINTENANCE
   913					;* REGISTER. AS THIS IS A WRITE ONLY REGISTER, WE ONLY CHECK THAT WE CAN
   914					;* WRITE TO IT WITHOUT CAUSING A PAGE FAILURE OR SETTING PARITY HIGH.
   915					; **********************************************************************
   916
   917	030734	201 00 0 00 030737 	TEST2:	MOVEI	APPLE		;GET LOOP ADDRESS
   918	030735	202 00 0 00 030051 		MOVEM	TESTPC		;AND STORE IN TESTPC
   919	030736	402 00 0 00 035606 		SETZM	ABORTE		;RESET ABORT FLAG!
   920
   921	030737	201 00 0 00 030747 	APPLE:	MOVEI	BANANA		;GET IO PAGE FAIL ADDRESS
   922	030740	202 00 0 00 035253 		MOVEM	IOPGFA		;AND STORE IN LOCATION IOPGFA
   923	030741	400 00 0 00 000000 		SETZ
   924	030742	713 00 1 00 035637 		WRIO	@UBAMT		;SEE IF WE CAN WRITE TO MAINT. REGISTER
   925	030743	713 00 1 00 035637 		WRIO	@UBAMT		;SEE IF WE CAN WRITE TO MAINT. REGISTER
   926	030744	713 00 1 00 035637 		WRIO	@UBAMT		;SEE IF WE CAN WRITE TO MAINT. REGISTER
   927	030745	713 00 1 00 035637 		WRIO	@UBAMT		;SEE IF WE CAN WRITE TO MAINT. REGISTER
   928	030746	314 00 0 00 000000 		CAMA			;YES WE CAN,- SKIP ALWAYS
   929	030747	036 00 0 00 037123 	BANANA:	ERROR(APPLE,0,0,0,TEST 2,PAGE FAILURE WHILE WRITING TO MAINTENANCE REGISTER,ERR1)
   930	030750	035 00 0 00 030737 		ERLOOP	APPLE		;IF ERROR, LOOP TO APPLE
   931	030751	712 00 1 00 035636 		RDIO	@UBASR		;CHECK THE UBA STATUS REGISTER
   932	030752	602 00 0 00 100000 		TRNE	SMPE		;SKIP IF KS10 PARITY DID NOT SET
   933	030753	036 00 0 00 037137 		ERROR(APPLE,0,0,0,TEST 2,PARITY BIT SET WHILE WRITING TO MAINTENANCE REGISTER)
   934	030754	035 00 0 00 030737 		ERLOOP	APPLE		;IF ERROR, LOOP TO APPLE
   935
   936	030755	402 00 0 00 035253 	CHERRY:	SETZM	IOPGFA		;RESET PAGE FAIL RETURN ADDRESS
   937						LPTST
   938
   939
   940
   941					;------------------------------------------------------------
   942	030763	200 00 0 00 035606 		MOVE	ABORTE		;GET ABORT FLAG
   943	030764	322 00 0 00 030767 		JUMPE	TEST3		;IF OK, GO TO NEXT TEST
   944						PNTMSF	[ASCIZ/
   945					***** FATAL ERROR - REMAINING TESTS ABORTED *****
   946	030765	037 01 0 00 037066 	/]
   947	030766	254 00 0 00 034205 		JRST	FINISH		;ABORT REMAINING TESTS
   948					;------------------------------------------------------------


DECSYSTEM 2020 UNIBUS ADAPTER EXERCISER, VERSION=0,4 	MACRO %53(1020) 09:46 12-Jul-79 Page 6
DSUBAM	MAC	28-Jun-79 10:11		DEVICE TESTS                                                                       SEQ 0046

   949
   950			037142			T=SIXBTZ<UBA PAGING REGISTER ACCESSING TEST>
   951
   952					; **********************************************************************
   953					;* TEST 3 CHECKS THAT WE CAN SUCCESSFULLY WRITE TO AND READ FROM THE
   954					;* UBA PAGING REGISTERS, AND THAT PARITY DOES NOT GET SET AS WE DO SO.
   955					; **********************************************************************
   956
   957	030767	201 00 0 00 030772 	TEST3:	MOVEI	APRICT		;GET LOOP ADDRESS
   958	030770	202 00 0 00 030051 		MOVEM	TESTPC		;AND STORE IN TESTPC
   959	030771	402 00 0 00 035606 		SETZM	ABORTE		;ZERO OUT ABORT FLAG!!
   960
   961	030772	260 17 0 00 035202 	APRICT:	GO	UBACLR		;RESET THE UBA
   962
   963	030773	201 04 0 00 000077 		MOVEI	T4,^D63		;INITIALIZE UBA PAGING RAM COUNT
   964	030774	201 00 0 00 031007 		MOVEI	DFRUIT		;GET PAGE FAIL ADDRESS
   965	030775	202 00 0 00 035253 		MOVEM	IOPGFA		;AND STORE IN IOPGFA
   966	030776	200 00 0 00 035635 	CANE:	MOVE	UBAPR		;GET UBA PAGING RAM BASE ADDRESS
   967	030777	270 00 0 00 000004 		ADD	T0,T4		;INCREMENT ADDRESS TO PAGE # "T4"
   968	031000	202 00 0 00 035613 		MOVEM	WRKADR		;AND STORE IN LOCATION WRKADR
   969	031001	400 00 0 00 000000 		SETZ
   970	031002	713 00 1 00 035613 		WRIO	@WRKADR		;TRY WRITING A ZERO TO THE PAGING RAM
   971	031003	713 00 1 00 035613 		WRIO	@WRKADR		;TRY WRITING A ZERO TO THE PAGING RAM
   972	031004	713 00 1 00 035613 		WRIO	@WRKADR		;TRY WRITING A ZERO TO THE PAGING RAM
   973	031005	713 00 1 00 035613 		WRIO	@WRKADR		;TRY WRITING A ZERO TO THE PAGING RAM
   974	031006	314 00 0 00 000000 		CAMA			;NO PAGE FAILURE,- SKIP ALWAYS
   975	031007	036 00 0 00 037161 	DFRUIT:	ERROR(CANE,0,0,0,TEST 3,PAGE FAILURE WHILE WRITING TO PAGING RAM,ERR1A)
   976	031010	035 00 0 00 030776 		ERLOOP	CANE		;IF ERROR, LOOP TO CANE
   977
   978	031011	365 04 0 00 030776 		SOJGE	T4,CANE		;LOOP IF MORE LOCATIONS TO CHECK
   979
   980
   981
   982	031012	201 00 0 00 031025 		MOVEI	GUAVA		;GET IO PAGE FAIL ADDRESS
   983	031013	202 00 0 00 035253 		MOVEM	IOPGFA		;AND STORE IN IOPGFA
   984	031014	201 04 0 00 000077 		MOVEI	T4,^D63		;RE-INITIALIZE PAGING RAM COUNT
   985	031015	200 00 0 00 035635 	EGPLNT:	MOVE	UBAPR		;GET UBA PAGING RAM BASE ADDRESS
   986	031016	270 00 0 00 000004 		ADD	T0,T4		;INCREMENT ADDRESS TO PAGE # "T4"
   987	031017	202 00 0 00 035613 		MOVEM	WRKADR		;AND STORE IN LOCATION WRKADR
   988	031020	712 00 1 00 035613 		RDIO	@WRKADR		;TRY AND DO A READ FROM THE PAGING RAM
   989	031021	712 00 1 00 035613 		RDIO	@WRKADR		;TRY AND DO A READ FROM THE PAGING RAM
   990	031022	712 00 1 00 035613 		RDIO	@WRKADR		;TRY AND DO A READ FROM THE PAGING RAM
   991	031023	712 00 1 00 035613 		RDIO	@WRKADR		;TRY AND DO A READ FROM THE PAGING RAM
   992	031024	314 00 0 00 000000 		CAMA			;NO PAGE FAIL,- SKIP ALWAYS
   993	031025	036 00 0 00 037174 	GUAVA:	ERROR(EGPLNT,0,0,0,TEST 3,PAGE FAILURE WHILE READING FROM PAGING RAM,ERR1A)
   994	031026	035 00 0 00 031015 		ERLOOP	EGPLNT		;IF ERROR, LOOP TO EGPLNT
   995
   996	031027	365 04 0 00 031015 		SOJGE	T4,EGPLNT	;LOOP IF MORE PAGING RAM LOCATIONS TO GO


DECSYSTEM 2020 UNIBUS ADAPTER EXERCISER, VERSION=0,4 	MACRO %53(1020) 09:46 12-Jul-79 Page 7
DSUBAM	MAC	28-Jun-79 10:11		DEVICE TESTS                                                                       SEQ 0047

   997					;NOW WE CHECK ON THE PARITY BIT WHILE ACCESSING PAGING RAM LOCATIONS
   998
   999
  1000	031030	200 00 0 00 035607 		MOVE	ABORTP		;ABORT PARITY TESTING??
  1001	031031	326 00 0 00 031071 		JUMPN	RSBERY		;YES!! END TEST ...
  1002
  1003	031032	201 04 0 00 000077 		MOVEI	T4,^D63		;INITIALIZE UBA PAGING RAM COUNT
  1004	031033	201 00 0 00 031051 		MOVEI	MANGO		;GET PAGE FAIL ADDRESS
  1005	031034	202 00 0 00 035253 		MOVEM	IOPGFA		;AND STORE IN IOPGFA
  1006	031035	201 00 0 00 000100 	LEMON:	MOVEI	UBINIT		;GET UBA INIT BIT
  1007	031036	713 00 1 00 035636 		WRIO	@UBASR		;AND RESET IT
  1008	031037	713 00 1 00 035636 		WRIO	@UBASR		;MAKE SURE...
  1009	031040	200 00 0 00 035635 		MOVE	UBAPR		;GET UBA PAGING RAM BASE ADDRESS
  1010	031041	270 00 0 00 000004 		ADD	T0,T4		;INCREMENT ADDRESS TO PAGE # "T4"
  1011	031042	202 00 0 00 035613 		MOVEM	WRKADR		;AND STORE IN LOCATION WRKADR
  1012	031043	400 00 0 00 000000 		SETZ
  1013	031044	713 00 1 00 035613 		WRIO	@WRKADR		;TRY WRITING A ZERO TO THE PAGING RAM
  1014	031045	712 00 1 00 035636 		RDIO	@UBASR		;GET PARITY BIT
  1015	031046	602 00 0 00 100000 		TRNE	SMPE		;SKIP IF PARITY NOT SET
  1016	031047	036 00 0 00 037207 		ERROR(LEMON,0,0,0,TEST 3,PARITY BIT SET WHILE WRITING TO PAGING RAM,ERR1A)
  1017	031050	035 00 0 00 031035 		ERLOOP	LEMON		;IF ERROR, LOOP TO LEMON
  1018
  1019	031051	365 04 0 00 031035 	MANGO:	SOJGE	T4,LEMON	;LOOP IF MORE LOCATIONS TO CHECK
  1020
  1021
  1022
  1023	031052	201 00 0 00 031070 		MOVEI	PRUNE		;GET IO PAGE FAIL ADDRESS
  1024	031053	202 00 0 00 035253 		MOVEM	IOPGFA		;AND STORE IN IOPGFA
  1025	031054	201 04 0 00 000077 		MOVEI	T4,^D63		;RE-INITIALIZE PAGING RAM COUNT
  1026	031055	201 00 0 00 000100 	ORANGE:	MOVEI	UBINIT		;GET UBA INIT BIT
  1027	031056	713 00 1 00 035636 		WRIO	@UBASR		;AND RESET IT
  1028	031057	713 00 1 00 035636 		WRIO	@UBASR		;MAKE SURE...
  1029	031060	200 00 0 00 035635 		MOVE	UBAPR		;GET UBA PAGING RAM BASE ADDRESS
  1030	031061	270 00 0 00 000004 		ADD	T0,T4		;INCREMENT ADDRESS TO PAGE # "T4"
  1031	031062	202 00 0 00 035613 		MOVEM	WRKADR		;AND STORE IN LOCATION WRKADR
  1032	031063	712 00 1 00 035613 		RDIO	@WRKADR		;TRY AND DO A READ FROM THE PAGING RAM
  1033	031064	712 00 1 00 035636 		RDIO	@UBASR		;CHECK ON STATUS
  1034	031065	602 00 0 00 100000 		TRNE	SMPE		;SKIP IF PARITY BIT ON
  1035	031066	036 00 0 00 037222 		ERROR(ORANGE,0,0,0,TEST 3,PARITY BIT SET WHILE READING FROM PAGING RAM,ERR1A)
  1036	031067	035 00 0 00 031055 		ERLOOP	ORANGE		;IF ERROR, LOOP TO ORANGE
  1037
  1038	031070	365 04 0 00 031055 	PRUNE:	SOJGE	T4,ORANGE	;LOOP IF MORE PAGING RAM LOCATIONS TO GO
  1039
  1040
  1041	031071	402 00 0 00 035253 	RSBERY:	SETZM	IOPGFA		;ZERO OUT PAGE FAIL ADDRESS
  1042						LPTST
  1043


DECSYSTEM 2020 UNIBUS ADAPTER EXERCISER, VERSION=0,4 	MACRO %53(1020) 09:46 12-Jul-79 Page 8
DSUBAM	MAC	28-Jun-79 10:11		DEVICE TESTS                                                                       SEQ 0048

  1044					;------------------------------------------------------------
  1045	031077	200 00 0 00 035606 		MOVE	ABORTE		;GET ABORT FLAG
  1046	031100	322 00 0 00 031103 		JUMPE	TEST4		;IF OK, GO TO NEXT TEST
  1047						PNTMSF	[ASCIZ/
  1048					***** FATAL ERROR - REMAINING TESTS ABORTED *****
  1049	031101	037 01 0 00 037066 	/]
  1050	031102	254 00 0 00 034205 		JRST	FINISH		;ABORT REMAINING TESTS
  1051					;------------------------------------------------------------


DECSYSTEM 2020 UNIBUS ADAPTER EXERCISER, VERSION=0,4 	MACRO %53(1020) 09:46 12-Jul-79 Page 9
DSUBAM	MAC	28-Jun-79 10:11		DEVICE TESTS                                                                       SEQ 0049

  1052
  1053			037225			T=SIXBTZ<UBA STATUS REGISTER DATA LINE CHECK>
  1054
  1055					; **********************************************************************
  1056					;* TEST 4 WRITES AND READS SEVERAL TEST PATTERNS INTO AND OUT OF THE UBA
  1057					;* STATUS REGISTER. ONLY THE R/W BITS ARE TESTED,WHICH INCLUDES THE
  1058					;* HIGH AND LOW PIA BITS ( BITS 30-32 AND 33-35 RESPECTIVELY ), AND THE
  1059					;* DISABLE TRANSFER IF BAD MEMORY DATA BIT ( #28 ). IF AN ERROR IS
  1060					;* DETECTED, THE TEST IS REPEATED WITH THE MAINTENANCE BIT SET, THUS
  1061					;* PROVIDING A QUICK CHECK OF THE 4X4 MEMORY LOCATIONS.
  1062					; **********************************************************************
  1063
  1064	031103	201 00 0 00 031105 	TEST4:	MOVEI	ASTAT		;GET LOOP ADDRESS
  1065	031104	202 00 0 00 030051 		MOVEM	TESTPC		;AND STORE IN TESTPC
  1066
  1067	031105	260 17 0 00 035202 	ASTAT:	GO	UBACLR		;INITIALIZE UBA
  1068	031106	201 11 0 00 000277 		MOVEI	TMASK,000277	;SET UP MASK AC FOR R/W BITS ONLY
  1069
  1070
  1071					;ROUTINE TO WRITE AND READ SEVERAL TEST PATTERNS INTO STATUS REGISTER:
  1072
  1073	031107	201 05 0 00 000074 		MOVEI	T5,^D60		;INITIALIZE PATTERN TABLE INDEX
  1074	031110	200 02 0 05 035426 	BSTAT:	MOVE	T2,PATTY(T5)	;GET TEST PATTERN FROM TEST TABLE
  1075	031111	404 02 0 00 000011 		AND	T2,TMASK	;KILL NON R/W BITS IN TEST PATTERN
  1076	031112	713 02 1 00 035636 		WRIO	T2,@UBASR	;WRITE TEST PATTERN TO STATUS REGISTER
  1077	031113	712 03 1 00 035636 		RDIO	T3,@UBASR	;AND READ IT BACK ( UNCHANGED?? )
  1078	031114	404 03 0 00 000011 		AND	T3,TMASK	;IGNORE NON R/W BITS IN RESULT
  1079	031115	312 02 0 00 000003 		CAME	T2,T3		;SKIP IF OK
  1080	031116	036 06 0 00 037242 		ERROR(BSTAT,6,T2,T3,TEST 4,STATUS REGISTER R/W BIT ERROR,DSTAT)
  1081	031117	035 00 0 00 031110 		ERLOOP	BSTAT		;IF ERROR, LOOP TO BSTAT
  1082
  1083	031120	365 05 0 00 031110 		SOJGE	T5,BSTAT	;REPEAT TEST WITH NEW PATTERN
  1084
  1085
  1086					;ROUTINE TO CHECK THAT DEVICE INIT CLEARS R/W BITS:
  1087
  1088	031121	201 00 0 00 000277 	CSTAT:	MOVEI	000277		;GET R/W BITS
  1089	031122	713 00 1 00 035636 		WRIO	@UBASR		;AND SET THEM ALL HIGH IN STATUS REG.
  1090	031123	201 00 0 00 000100 		MOVEI	UBINIT		;GET UNIBUS INIT BIT
  1091	031124	713 00 1 00 035636 		WRIO	@UBASR		;TRY TO INITIALIZE UBA
  1092	031125	712 03 1 00 035636 		RDIO	T3,@UBASR	;READ STATUS REGISTER
  1093	031126	405 03 0 00 000277 		ANDI	T3,000277	;LOOK AT R/W BITS ONLY
  1094	031127	302 03 0 00 000000 		CAIE	T3,0		;SKIP IF ALL BITS CLEARED
  1095	031130	036 06 0 00 037256 		ERROR(CSTAT,6,0,T3,TEST 4,STATUS REGISTER R/W BITS NOT CLEARED BY DEVICE INIT)
  1096	031131	035 00 0 00 031121 		ERLOOP	CSTAT		;IF ERROR, LOOP TO CSTAT
  1097


DECSYSTEM 2020 UNIBUS ADAPTER EXERCISER, VERSION=0,4 	MACRO %53(1020) 09:46 12-Jul-79 Page 10
DSUBAM	MAC	28-Jun-79 10:11		DEVICE TESTS                                                                       SEQ 0050

  1098	031132	254 00 0 00 031154 		JRST	ESTAT		;SKIP ERROR MAINTENANCE ROUTINE
  1099
  1100
  1101					;ROUTINE TO REPEAT TEST WITH NEW 4X4 MEMORY LOCATION:
  1102
  1103	031133	037 01 0 00 037261 	DSTAT:	PNTMSF	[ASCIZ/TEST PATTERN = /]
  1104	031134	200 00 0 00 000002 		MOVE	T2		;GET THE TEST PATTERN
  1105	031135	037 06 0 00 000000 		PNT6			;PRINT SIX OCTAL DIGITS
  1106	031136	037 00 0 00 030242 		PCRL
  1107	031137	263 17 0 00 000000 		RTN
  1108
  1109	031140	201 00 0 00 000001 		MOVEI	1		;SET UP A BIT FOR MAINTENANCE REGISTER
  1110	031141	713 00 1 00 035637 		WRIO	@UBAMT		;SET MAINT.REG TO ACCESS NEW 4X4 MEM.LOC
  1111	031142	713 02 1 00 035636 		WRIO	T2,@UBASR	;RE-DO WRITE TO STATUS REGISTER
  1112	031143	712 03 1 00 035636 		RDIO	T3,@UBASR	;AND READ IT BACK
  1113	031144	404 03 0 00 000011 		AND	T3,TMASK	;MASK OUT NON R/W BITS IN RESULT
  1114	031145	316 02 0 00 000003 		CAMN	T2,T3		;SKIP IF ERROR STILL THERE
  1115						PNTMSG	[ASCIZ/CHANGING 4X4 LOCATION ELIMINATED ERROR
  1116	031146	037 00 0 00 037265 	/]
  1117	031147	312 02 0 00 000003 		CAME	T2,T3		;SKIP IF ERROR STILL THERE
  1118						PNTMSG	[ASCIZ/CHANGING 4X4 LOCATION DID NOT ELIMINATE ERROR
  1119	031150	037 00 0 00 037276 	/]
  1120	031151	400 00 0 00 000000 		SETZ
  1121	031152	713 00 1 00 035637 		WRIO	@UBAMT		;RESET MAINTENANCE REGISTER TO ZERO
  1122	031153	263 17 0 00 000000 		RTN
  1123
  1124	031154				ESTAT:	LPTST
  1125


DECSYSTEM 2020 UNIBUS ADAPTER EXERCISER, VERSION=0,4 	MACRO %53(1020) 09:46 12-Jul-79 Page 11
DSUBAM	MAC	28-Jun-79 10:11		DEVICE TESTS                                                                       SEQ 0051

  1126
  1127			037310			T=SIXBTZ<UBA STATUS REGISTER PARITY CHECK>
  1128
  1129					; **********************************************************************
  1130					;* TEST 5 CHECKS THAT WE CAN WRITE SEVERAL TEST PATTERNS INTO
  1131					;* AND OUT OF THE UBA STATUS REGISTER WITHOUT CAUSING A PARITY ERROR.
  1132					; **********************************************************************
  1133
  1134	031161	201 00 0 00 031164 	TEST5:	MOVEI	ASPAR		;GET LOOP ADDRESS
  1135	031162	202 00 0 00 030051 		MOVEM	TESTPC		;AND STORE IN TESTPC
  1136	031163	201 11 0 00 000277 		MOVEI	TMASK,000277	;SET UP MASK AC
  1137
  1138	031164	201 05 0 00 000074 	ASPAR:	MOVEI	T5,^D60		;INITIALIZE PATTERN TABLE INDEX
  1139
  1140	031165	260 17 0 00 035202 	BSPAR:	GO	UBACLR		;RESET PARITY IF IT WENT ON
  1141	031166	200 02 0 05 035426 		MOVE	T2,PATTY(T5)	;GET TEST PATTERN FROM TEST TABLE
  1142	031167	404 02 0 00 000011 		AND	T2,TMASK	;KILL NON R/W BITS IN TEST PATTERN
  1143	031170	713 02 1 00 035636 		WRIO	T2,@UBASR	;WRITE TEST PATTERN TO STATUS REGISTER
  1144	031171	264 00 0 00 034705 		JSR	CHECKP		;GO AND CHECK PARITY BIT
  1145	031172	036 00 0 00 037330 		ERROR(BSPAR,0,0,0,TEST 5,PARITY BIT SET AFTER WRITING TO STATUS REGISTER,CSPAR)
  1146	031173	035 00 0 00 031165 		ERLOOP	BSPAR		;IF ERROR, LOOP TO BSPAR
  1147
  1148	031174	365 05 0 00 031165 		SOJGE	T5,BSPAR	;REPEAT TEST WITH NEW PATTERN
  1149
  1150	031175	254 00 0 00 031203 		JRST	DSPAR		;SKIP THE FOLLOWING UTILITY ROUTINE
  1151	031176	037 01 0 00 037261 	CSPAR:	PNTMSF	[ASCIZ/TEST PATTERN = /]
  1152	031177	200 00 0 00 000002 		MOVE	T2		;GET THE TEST PATTERN
  1153	031200	037 06 0 00 000000 		PNT6			;PRINT SIX OCTAL DIGITS
  1154	031201	037 00 0 00 030242 		PCRL
  1155	031202	263 17 0 00 000000 		RTN
  1156
  1157	031203				DSPAR:	LPTST
  1158


DECSYSTEM 2020 UNIBUS ADAPTER EXERCISER, VERSION=0,4 	MACRO %53(1020) 09:46 12-Jul-79 Page 12
DSUBAM	MAC	28-Jun-79 10:11		DEVICE TESTS                                                                       SEQ 0052

  1159
  1160			037333			T=SIXBTZ<UBA PAGING RAM ADDRESSING LINE CHECK>
  1161
  1162					; **********************************************************************
  1163					;* TEST 6 CHECKS THE ADDRESSING LINES FOR THE 64 WORD UBA PAGING RAM BY
  1164					;* WRITING THE NUMBER OF A PAGE INTO THAT SPECIFIC PAGE, DOING THE SAME
  1165					;* FOR ALL PAGES, AND THEN CHECKING THAT NOTHING WAS OVER-WRITTEN.
  1166					;* THIS PROCEDURE IS DONE BOTH TOP-DOWN AND BOTTOM UP.
  1167					; **********************************************************************
  1168
  1169	031210	201 00 0 00 031212 	TEST6:	MOVEI	ANIMAL		;GET LOOP ADDRESS
  1170	031211	202 00 0 00 030051 		MOVEM	TESTPC		;AND STORE IN TESTPC
  1171
  1172	031212	260 17 0 00 035202 	ANIMAL:	GO	UBACLR		;CLEAR OUT UNIBUS ADAPTER
  1173	031213	201 11 0 00 003777 		MOVEI	TMASK,003777	;SET UP MASK FOR ADDRESS BITS
  1174
  1175
  1176					;BOTTOM-UP ADDRESSING CHECK:
  1177
  1178						;WRITE INTO ALL LOCATIONS:
  1179
  1180	031214	400 04 0 00 000000 		SETZ	T4,		;INITIALIZE PAGE NUMBER
  1181	031215	200 00 0 00 035635 	BEAVER:	XINDEX(4,UBAPR,WRKADR)	;INDEX UBAPR BY T4 AND STORE IN WRKADR
  1182	031216	270 00 0 00 000004
  1183	031217	202 00 0 00 035613
  1184	031220	713 04 1 00 035613 		WRIO	T4,@WRKADR	;WRITE # OF PAGE INTO PAGE
  1185	031221	340 04 0 00 000000 		AOJ	T4,		;INCREMENT PAGE #
  1186	031222	302 04 0 00 000100 		CAIE	T4,^D64		;SKIP IF ALL LOCATIONS WRITTEN INTO
  1187	031223	254 00 0 00 031215 		JRST	BEAVER		;ELSE CONTINUE
  1188
  1189
  1190						;READ FROM ALL LOCATIONS:
  1191
  1192	031224	400 04 0 00 000000 		SETZ	T4,		;RE-INITIALIZE PAGE #
  1193	031225	200 00 0 00 035635 	COBRA:	XINDEX(4,UBAPR,WRKADR)	;INDEX UBAPR BY T4 AND STORE IN WRKADR
  1194	031226	270 00 0 00 000004
  1195	031227	202 00 0 00 035613
  1196	031230	712 02 1 00 035613 		RDIO	T2,@WRKADR	;READ FROM PAGE
  1197	031231	242 02 0 00 777767 		LSH	T2,^D-9		;FORMAT DATA PROPERLY
  1198	031232	404 02 0 00 000011 		AND	T2,TMASK	;KILL NON ADDRESS BITS
  1199	031233	312 04 0 00 000002 		CAME	T4,T2		;SKIP IF OK
  1200	031234	036 06 0 00 037352 		ERROR(COBRA,6,4,2,TEST 6,BOTTOM UP ADDRESSING CHECK ERROR,ERR7)
  1201	031235	035 00 0 00 031225 		ERLOOP	COBRA		;IF ERROR, LOOP TO COBRA
  1202	031236	340 04 0 00 000000 		AOJ	T4,		;INCREMENT PAGE #
  1203	031237	302 04 0 00 000100 		CAIE	T4,^D64		;SEE IF ALL LOCATIONS CHECKED
  1204	031240	254 00 0 00 031225 		JRST	COBRA		;ELSE LOOP
  1205


DECSYSTEM 2020 UNIBUS ADAPTER EXERCISER, VERSION=0,4 	MACRO %53(1020) 09:46 12-Jul-79 Page 13
DSUBAM	MAC	28-Jun-79 10:11		DEVICE TESTS                                                                       SEQ 0053

  1206					;TOP-DOWN ADDRESSING LINE CHECK:
  1207
  1208
  1209						;WRITE INTO ALL LOCATIONS:
  1210
  1211	031241	201 04 0 00 000077 		MOVEI	T4,^D63		;SET UP PAGE # FOR TOP-DOWN TEST
  1212	031242	200 00 0 00 035635 	DOG:	XINDEX(4,UBAPR,WRKADR)	;INDEX UBAPR BY T4 AND STORE IN WKADR
  1213	031243	270 00 0 00 000004
  1214	031244	202 00 0 00 035613
  1215	031245	713 04 1 00 035613 		WRIO	T4,@WRKADR	;WRITE PAGE # INTO PAGE
  1216	031246	365 04 0 00 031242 		SOJGE	T4,DOG	;LOOP IF MORE LOCATIONS TO WRITE INTO
  1217
  1218
  1219						;READ FROM ALL LOCATIONS:
  1220
  1221	031247	201 04 0 00 000077 		MOVEI	T4,^D63		;RE-INITIALIZE PAGE #
  1222	031250	200 00 0 00 035635 	EAGLE:	XINDEX(4,UBAPR,WRKADR)	;INDEX UBAPR BY T4 AND STORE IN WRKADR
  1223	031251	270 00 0 00 000004
  1224	031252	202 00 0 00 035613
  1225	031253	712 02 1 00 035613 		RDIO	T2,@WRKADR	;READ FROM PAGE
  1226	031254	242 02 0 00 777767 		LSH	T2,^D-9		;RIGHT JUSTIFY ADDRESS DATA
  1227	031255	404 02 0 00 000011 		AND	T2,TMASK	;KILL NON ADDRESS BITS
  1228	031256	312 04 0 00 000002 		CAME	T4,T2		;SKIP IF OK
  1229	031257	036 06 0 00 037363 		ERROR(EAGLE,6,4,2,TEST 6,TOP-DOWN ADDRESSING CHECK ERROR,ERR7)
  1230	031260	035 00 0 00 031250 		ERLOOP	EAGLE		;IF ERROR, LOOP TO EAGLE
  1231	031261	365 04 0 00 031250 		SOJGE	T4,EAGLE	;LOOP IF MORE LOCATIONS TO CHECK
  1232
  1233	031262				FOX:	LPTST
  1234


DECSYSTEM 2020 UNIBUS ADAPTER EXERCISER, VERSION=0,4 	MACRO %53(1020) 09:46 12-Jul-79 Page 14
DSUBAM	MAC	28-Jun-79 10:11		DEVICE TESTS                                                                       SEQ 0054

  1235
  1236			037366			T=SIXBTZ<UBA PAGING RAM DATA LINE CHECK>
  1237
  1238					; **********************************************************************
  1239					;* TEST 7 CHECKS OUT THE R/W BITS FOR EACH LOCATION IN THE UBA
  1240					;* PAGING RAM. NOTE WELL THAT THERE IS NO LONGER A RAM PARITY BIT TO
  1241					;* WORRY ABOUT. ALSO, THE ERROR ROUTINE TYPES OUT THE BITS IN THE
  1242					;* FORMAT IN WHICH THEY WERE WRITTEN, NOT THE READ FORMAT.(DIFFERENT)
  1243					; **********************************************************************
  1244
  1245	031267	201 01 0 00 031271 	TEST7:	MOVEI	T1,ANCHOV		;GET LOOP ADDRESS
  1246	031270	202 01 0 00 030051 		MOVEM	T1,TESTPC	;AND STORE IN TESTPC
  1247
  1248	031271	201 04 0 00 000077 	ANCHOV:	MOVEI	T4,^D63		;INITIALIZE PAGE #
  1249	031272	260 17 0 00 035202 		GO	UBACLR		;RESET UBA
  1250	031273	201 11 0 00 743777 		MOVEI	TMASK,743777	;SET UP MASK FOR R/W BITS
  1251
  1252	031274	201 05 0 00 000074 	BASS:	MOVEI	T5,^D60		;INITIALIZE THE PATTERN TABLE INDEX
  1253
  1254	031275	200 02 0 05 035426 	COD:	MOVE	T2,PATTY(T5)	;MOVE TEST PATTERN INTO T2
  1255	031276	404 02 0 00 000011 		AND	T2,TMASK	;KILL NON R/W BITS IN T2
  1256	031277	200 00 0 00 035635 		MOVE	UBAPR		;GET UBA PAGING RAM BASE ADDRESS
  1257	031300	270 00 0 00 000004 		ADD	T0,T4		;INDEX TO PROPER PAGE NUMBER
  1258	031301	202 00 0 00 035613 		MOVEM	WRKADR		;AND STORE IN WRKADR
  1259	031302	713 02 1 00 035613 		WRIO	T2,@WRKADR	;WRITE TEST PATTERN INTO REG.
  1260	031303	712 03 1 00 035613 		RDIO	T3,@WRKADR	;READ IT BACK INTO T3
  1261	031304	242 03 0 00 777767 		LSH	T3,^D-9		;FORMAT RAW BITS BY RIGHT SHIFTING
  1262	031305	554 10 0 00 000003 		HLRZ	T8,T3		;SAVE STATUS BITS IN T8
  1263	031306	405 10 0 00 000017 		ANDI	T8,17		;KILL NON-STATUS BITS IN T8
  1264	031307	405 03 0 00 003777 		ANDI	T3,3777		;KILL NON-ADDRESS DATA IN T3
  1265	031310	242 10 0 00 000016 		LSH	T8,^D14		;FORMAT STATUS BITS IN T8
  1266	031311	434 03 0 00 000010 		OR	T3,T8		;PUT STATUS AND DATA TOGETHER
  1267	031312	312 02 0 00 000003 		CAME	T2,T3		;SKIP IF O.K.
  1268	031313	036 06 0 00 037404 		ERROR(COD,6,T2,T3,TEST 7,PAGING RAM R/W BITS DATA ERROR,ERR7)
  1269	031314	035 00 0 00 031275 		ERLOOP	COD		;IF ERROR, LOOP TO COD
  1270
  1271	031315	365 05 0 00 031275 		SOJGE	T5,COD		;SUB.ONE FROM PATTERN# AND SEE IF DONE
  1272
  1273	031316	365 04 0 00 031274 		SOJGE	T4,BASS		;SUB.ONE FROM PAGE# AND SEE IF DONE
  1274
  1275	031317				DOLFIN:	LPTST
  1276


DECSYSTEM 2020 UNIBUS ADAPTER EXERCISER, VERSION=0,4 	MACRO %53(1020) 09:46 12-Jul-79 Page 15
DSUBAM	MAC	28-Jun-79 10:11		DEVICE TESTS                                                                       SEQ 0055

  1277
  1278			037407			T=SIXBTZ<UBA NED AND BMD BIT CHECK>
  1279
  1280					; **********************************************************************
  1281					;* TEST 10 CHECKS THAT BOTH THE NON-EXISTENT-DEVICE AND THE TIME-OUT
  1282					;* BITS ARE SET HIGH ON A WRITE TO A NON-EXISTENT I/O DEVICE. IF BOTH
  1283					;* BITS ARE IN FACT SET, THEN THE ABILITY OF UBA INIT.TO CLEAR THESE
  1284					;* BITS IS TESTED.
  1285					; **********************************************************************
  1286
  1287	031324	201 00 0 00 031326 	TEST10:MOVEI	APHID		;GET LOOP ADDRESS
  1288	031325	202 00 0 00 030051 		MOVEM	TESTPC		;AND STORE IN TESTPC
  1289
  1290					;ROUTINE TO CHECK THAT NED AND TIMOUT BITS CAN BE SET:
  1291
  1292	031326	260 17 0 00 035202 	APHID:	GO	UBACLR		;INITIALIZE UBA
  1293	031327	201 00 0 00 031337 		MOVEI	BEATLE		;GET RETURN ADDRESS FOR I/O PAGE FAIL
  1294	031330	202 00 0 00 035253 		MOVEM	IOPGFA		;AND STORE IN IOPGFA
  1295	031331	200 00 0 00 035636 		MOVE	UBASR		;GET UBA BASE ADDRESS
  1296	031332	541 00 0 00 101010 		HRRI	101010		;THIS GIVES US X,,101010
  1297	031333	713 01 1 00 000000 		WRIO	T1,@T0		;SHOULD CAUSE A PAGE FAIL
  1298	031334	201 04 0 00 000031 		MOVEI	4,^D25		;GET DELAY COUNT
  1299	031335	365 04 0 00 031335 		SOJGE	4,.		;LOOP A BIT
  1300	031336	254 00 0 00 031362 		JRST	HORNET		;NO PAGE FAIL,-GO TO ERROR CALL
  1301
  1302	031337	712 02 1 00 035636 	BEATLE:	RDIO	T2,@UBASR	;READ THE STATUS REGISTER
  1303	031340	405 02 0 00 440000 		ANDI	T2,TIMOUT!NED	;MASK FOR THESE TWO BITS ONLY
  1304	031341	302 02 0 00 440000 		CAIE	T2,TIMOUT!NED	;SKIP IF TIME-OUT OR NED NOT SET
  1305						ERROR(APHID,0,0,0,TEST 10,TIMOUT AND NED DID NOT BOTH SET ON WRITING TO A NON-EXIST
  1306	031342	036 00 0 00 037432 	ENT DEVICE,NEDIO)
  1307	031343	035 00 0 00 031326 		ERLOOP	APHID		;IF ERROR, LOOP TO APHID
  1308	031344	402 00 0 00 035253 		SETZM	IOPGFA		;RESET PAGE FAIL ROUTINE
  1309


DECSYSTEM 2020 UNIBUS ADAPTER EXERCISER, VERSION=0,4 	MACRO %53(1020) 09:46 12-Jul-79 Page 16
DSUBAM	MAC	28-Jun-79 10:11		DEVICE TESTS                                                                       SEQ 0056

  1310					;ROUTINE TO CHECK THAT NED AND TIMOUT BITS GET CLEARED BY UBA INIT:
  1311					; ( SKIP IF EITHER NED OR TIMOUT NOT SET )
  1312
  1313	031345	606 02 0 00 040000 	CRIKET:	TRNN	T2,NED		;SKIP IF NED BIT SET
  1314	031346	254 00 0 00 031364 		JRST	WASP		;SKIP BIT CLEAR CHECK
  1315	031347	606 02 0 00 400000 		TRNN	T2,TIMOUT	;SKIP IF TIMOUT BIT SET
  1316	031350	254 00 0 00 031364 		JRST	WASP		;SKIP BIT CLEAR CHECK
  1317
  1318	031351	260 17 0 00 035202 		GO	UBACLR		;INITIALIZE UBA
  1319
  1320	031352	712 03 1 00 035636 		RDIO	T3,@UBASR	;READ UBA STATUS REGISTER
  1321	031353	602 03 0 00 400000 		TRNE	T3,TIMOUT	;SKIP IF TIMOUT BIT CLEARED
  1322	031354	036 00 0 00 037443 		ERROR(CRIKET,0,0,0,TEST 10,TIMOUT BIT NOT CLEARED BY UBA CLEAR)
  1323	031355	035 00 0 00 031345 		ERLOOP	CRIKET		;IF ERROR, LOOP TO CRIKET
  1324	031356	602 03 0 00 040000 		TRNE	T3,NED		;SKIP IF NED BIT CLEARED
  1325	031357	036 00 0 00 037454 		ERROR(CRIKET,0,0,0,TEST 10,NED BIT NOT CLEARED BY UBA CLEAR)
  1326	031360	035 00 0 00 031345 		ERLOOP	CRIKET		;IF ERROR, LOOP TO CRIKET
  1327
  1328	031361	254 00 0 00 031364 		JRST	WASP		;SKIP FOLLOWING ROUTINE ALWAYS
  1329	031362	036 00 0 00 037470 	HORNET:	ERROR(APHID,0,0,0,TEST 10,NO PAGE FAIL DURING A WRIO TO A NON-EXISTENT DEVICE)
  1330	031363	035 00 0 00 031326 		ERLOOP	APHID		;IF ERROR, LOOP TO APHID
  1331
  1332	031364	402 00 0 00 035253 	WASP:	SETZM	IOPGFA		;RESET I/O PAGE FAIL ROUTINE
  1333						LPTST
  1334


DECSYSTEM 2020 UNIBUS ADAPTER EXERCISER, VERSION=0,4 	MACRO %53(1020) 09:46 12-Jul-79 Page 17
DSUBAM	MAC	28-Jun-79 10:11		DEVICE TESTS                                                                       SEQ 0057

  1335
  1336			037473			T=SIXBTZ<UBA WORD WRIO-NPR WRAP-AROUND>
  1337
  1338					; **********************************************************************
  1339					;* TEST 11 CHECKS OUT THE WRIO -> NPR WORD TRANSFER TO KS10 MEMORY WRAP-
  1340					;* AROUND TEST. ODD WORD TRANSFERS ARE DONE BOTH TO A FIELD OF 1'S AND
  1341					;* A FIELD OF 0'S TO CHECK THE READ-PAUSE-WRITE OPERATION.
  1342					; **********************************************************************
  1343
  1344	031372	201 00 0 00 031374 	TEST11:	MOVEI	AURIGA		;GET LOOP ADDRESS
  1345	031373	202 00 0 00 030051 		MOVEM	TESTPC		;AND STORE IN TESTPC
  1346
  1347	031374	260 17 0 00 035202 	AURIGA:	GO	UBACLR		;CLEAR OUT UBA
  1348	031375	400 07 0 00 000000 		SETZ	T7,		;ZERO OUT PARAMETER FOR WAPSET ROUTINE
  1349	031376	260 17 0 00 035407 		GO	WAPSET		;SET UP UBAPR AND WRKADR
  1350	031377	201 11 0 00 777777 		MOVEI	TMASK,777777	;SET UP MASK AC FOR 18 BIT XFERS
  1351	031400	201 00 0 00 000001 		MOVEI	1
  1352	031401	713 00 1 00 035637 		WRIO	@UBAMT		;SET UBA TO MAINTENANCE MODE
  1353
  1354
  1355					;CHECK OF EVEN WORD TRANSFER: ( NON READ-PAUSE-WRITE )
  1356
  1357	031402	201 00 0 00 031422 		MOVEI	EFAL11		;RETURN ADDRESS FOR PAGE FAIL
  1358	031403	202 00 0 00 035253 		MOVEM	IOPGFA
  1359	031404	201 05 0 00 000074 		MOVEI	T5,^D60		;INITIALIZE PATTERN TABLE INDEX
  1360	031405	200 02 0 05 035426 	BOOTES:	MOVE	T2,PATTY(T5)	;GET TEST PATTERN
  1361	031406	404 02 0 00 000011 		AND	T2,TMASK	;FORMAT TO 16 BITS
  1362	031407	713 02 1 00 035613 		WRIO	T2,@WRKADR	;SHOULD WRAP-AROUND INTO @MEMLOW
  1363	031410	7 010 24 0 00 000006 		CONI	PAG,6
  1364	031411	7 010 20 1 00 000006 		CONO	PAG,@6		;FLUSH CACHE FOR NPR XFER RESET
  1365	031412	242 02 0 00 000022 		LSH	T2,^D18		;FORMAT TEST PATTERN TO EVEN WORD
  1366	031413	200 00 0 00 030145 		MOVE	T0,MEMLOW	;GET ADDRESS OF @MEMLOW
  1367	031414	270 02 0 00 000000 		ADD	T2,T0		;THE UBA THROWS BACK ADDRESS BITS FREE!!
  1368	031415	200 03 1 00 030145 		MOVE	T3,@MEMLOW	;SEE WHAT THE UBA THREW BACK AT US
  1369	031416	312 02 0 00 000003 		CAME	T2,T3		;SKIP IF OK
  1370	031417	036 13 0 00 037510 		ERROR(BOOTES,13,2,3,TEST 11,EVEN WORD NPR XFER TO KS10 MEMORY)
  1371	031420	035 00 0 00 031405 		ERLOOP	BOOTES		;IF ERROR, LOOP TO BOOTES
  1372	031421	314 00 0 00 000000 		CAMA
  1373	031422				EFAL11:	ERROR(BOOTES,0,0,0,TEST 11,IO PAGE FAIL WHILE INITIATING EVEN WORD WRAP-AROUND,FALI
  1374	031422	036 00 0 00 037524 	O)
  1375	031423	035 00 0 00 031405 		ERLOOP	BOOTES		;IF ERROR, LOOP TO BOOTES
  1376
  1377	031424	365 05 0 00 031405 		SOJGE	T5,BOOTES	;LOOP IF MORE TEST PATTERNS TO GO


DECSYSTEM 2020 UNIBUS ADAPTER EXERCISER, VERSION=0,4 	MACRO %53(1020) 09:46 12-Jul-79 Page 18
DSUBAM	MAC	28-Jun-79 10:11		DEVICE TESTS                                                                       SEQ 0058

  1378					;ODD WORD R-P-W TRANSFER CHECK ON A FIELD OF 1'S AND 0'S :
  1379
  1380	031425	201 04 0 00 000001 		MOVEI	T4,1		;CONTROL FOR BACKGROUND FIELD
  1381
  1382	031426	201 00 0 00 031453 	CYGNUS:	MOVEI	OFAL11		;ODD WORD PAGE FAIL RETURN ADDRESS
  1383	031427	202 00 0 00 035253 		MOVEM	IOPGFA
  1384	031430	201 05 0 00 000074 		MOVEI	T5,^D60		;INITIALIZE PATTERN TABLE INDEX
  1385	031431	402 00 1 00 030145 	DRACO:	SETZM	@MEMLOW		;ZERO OUT LOCATION @MEMLOW
  1386	031432	302 04 0 00 000000 		CAIE	T4,0		;SKIP IF WE WANT TO WRITE ON 0'S
  1387	031433	476 00 1 00 030145 		SETOM	@MEMLOW		;SET MEMLOW TO ALL 1'S
  1388	031434	200 02 0 05 035426 		MOVE	T2,PATTY(T5)	;GET TEST PATTERN
  1389	031435	404 02 0 00 000011 		AND	T2,TMASK	;FORMAT TO 16 BITS
  1390	031436	200 00 0 00 035613 		MOVE	WRKADR		;GET WORKING ADDRESS
  1391	031437	271 00 0 00 000002 		ADDI	2		;INCREMENT TO ODD WORD ADDRESS
  1392	031440	202 00 0 00 035614 		MOVEM	WAPADR		;AND STORE IN WAPADR
  1393	031441	713 02 1 00 035614 		WRIO	T2,@WAPADR	;SHOULD GO TO @MEMLOW
  1394	031442	7 010 24 0 00 000006 		CONI	PAG,6
  1395	031443	7 010 20 1 00 000006 		CONO	PAG,@6		;FLUSH CACHE FOR NPR XFER RESET
  1396	031444	302 04 0 00 000000 		CAIE	T4,0		;SKIP IF WE ARE USING A FIELD OF 0'S
  1397	031445	505 02 0 00 777777 		HRLI	T2,777777	;PUT TEST PATTERN IN A FIELD OF 1'S
  1398	031446	200 03 1 00 030145 		MOVE	T3,@MEMLOW	;SEE WHAT GLAD TIDINGS THE UBA GIVETH..
  1399	031447	312 02 0 00 000003 		CAME	T2,T3		;SKIP IF OK
  1400	031450	036 13 0 00 037535 		ERROR(DRACO,13,2,3,TEST 11,ODD WORD NPR XFER TO KS10 MEMORY)
  1401	031451	035 00 0 00 031431 		ERLOOP	DRACO		;IF ERROR, LOOP TO DRACO
  1402	031452	314 00 0 00 000000 		CAMA
  1403	031453				OFAL11:	ERROR(DRACO,0,0,0,TEST 11,IO PAGE FAIL WHILE INITIATING ODD WORD WRAP-AROUND,FALIO)
  1404	031453	036 00 0 00 037551
  1405	031454	035 00 0 00 031431 		ERLOOP	DRACO		;IF ERROR, LOOP TO DRACO
  1406
  1407	031455	365 05 0 00 031431 		SOJGE	T5,DRACO	;LOOP IF MORE TEST PATTERNS TO DO
  1408
  1409	031456	365 04 0 00 031426 		SOJGE	T4,CYGNUS	;LOOP IF WE WANT TO WRITE ON 0'S
  1410
  1411	031457	402 00 0 00 035253 	ERIDAN:	SETZM	IOPGFA		;RESET IO PAGE FAIL STUFF
  1412	031460	400 00 0 00 000000 		SETZ	T0,
  1413	031461	713 00 1 00 035637 		WRIO	@UBAMT		;RE-SET UBA TO NORMAL MODE
  1414						LPTST
  1415


DECSYSTEM 2020 UNIBUS ADAPTER EXERCISER, VERSION=0,4 	MACRO %53(1020) 09:46 12-Jul-79 Page 19
DSUBAM	MAC	28-Jun-79 10:11		DEVICE TESTS                                                                       SEQ 0059

  1416
  1417			037554			T=SIXBTZ<LOW BYTE EVEN WORD WRIOB WRAP-AROUND>
  1418
  1419					; **********************************************************************
  1420					;* TEST 12 USES THE MAINTENANCE WRAP-AROUND MODE OF THE UBA TO INITIATE
  1421					;* NPR TRANSFERS TO THE LOW BYTE OF THE EVEN WORD OF KS10 MEMORY.
  1422					; **********************************************************************
  1423
  1424	031467	201 00 0 00 031471 	TEST12:	MOVEI	AMBER		;GET LOOP ADDRESS
  1425	031470	202 00 0 00 030051 		MOVEM	TESTPC		;AND STORE IN TESTPC
  1426
  1427	031471	260 17 0 00 035202 	AMBER:	GO	UBACLR		;RESET UBA
  1428	031472	400 07 0 00 000000 		SETZ	T7,		;ZERO OUT PARAMETER FOR WAPSET ROUTINE
  1429	031473	260 17 0 00 035407 		GO	WAPSET		;SET UP PAGING RAM AND WORKING ADDRESS
  1430	031474	201 00 0 00 000001 		MOVEI	1
  1431	031475	713 00 1 00 035637 		WRIO	@UBAMT		;SET UBA TO MAINTENANCE MODE
  1432	031476	201 11 0 00 000377 		MOVEI	TMASK,377	;SET UP MASK AC FOR 8 BIT XFERS
  1433
  1434	031477	201 05 0 00 000074 		MOVEI	T5,^D60		;INITIALIZE PATTERN TABLE INDEX
  1435	031500	201 00 0 00 031516 		MOVEI	IFAL12		;IO PAGE FAIL RETURN
  1436	031501	202 00 0 00 035253 		MOVEM	IOPGFA
  1437
  1438	031502	200 02 0 05 035426 	GREEN:	MOVE	T2,PATTY(T5)	;GET TEST PATTERN
  1439	031503	404 02 0 00 000011 		AND	T2,TMASK	;FORMAT TO 8 BITS
  1440	031504	723 02 1 00 035613 		WRIOB	T2,@WRKADR	;SHOULD INITIATE WRAP-AROUND
  1441	031505	7 010 24 0 00 000006 		CONI	PAG,6
  1442	031506	7 010 20 1 00 000006 		CONO	PAG,@6		;FLUSH CACHE FOR NPR XFER RESET
  1443	031507	242 02 0 00 000022 		LSH	T2,^D18		;FORMAT TEST PATTERN TO EVEN WORD
  1444	031510	270 02 0 00 030145 		ADD	T2,MEMLOW	;CAREFULL!! UBA SPITS BACK ADDRESS..
  1445	031511	200 03 1 00 030145 		MOVE	T3,@MEMLOW	;GET RESULTS
  1446	031512	312 02 0 00 000003 		CAME	T2,T3		;SKIP IF OK
  1447	031513	036 13 0 00 037575 		ERROR(GREEN,13,2,3,TEST 12,LOW BYTE EVEN WORD NPR XFER TO KS10 MEMORY)
  1448	031514	035 00 0 00 031502 		ERLOOP	GREEN		;IF ERROR, LOOP TO GREEN
  1449	031515	314 00 0 00 000000 		CAMA
  1450	031516				IFAL12:	ERROR(GREEN,0,0,0,TEST 12,IO PAGE FAIL WHILE INITIATING LOW BYTE EVEN WORD WRAP-ARO
  1451	031516	036 00 0 00 037613 	UND,FALIO)
  1452	031517	035 00 0 00 031502 		ERLOOP	GREEN		;IF ERROR, LOOP TO GREEN
  1453
  1454	031520	365 05 0 00 031502 		SOJGE	T5,GREEN	;LOOP IF MORE TEST PATTERNS TO GO
  1455
  1456	031521	402 00 0 00 035253 	CYAN:	SETZM	IOPGFA		;RESET PAGE FAIL HANDLER
  1457	031522	400 00 0 00 000000 		SETZ	T0,
  1458	031523	713 00 1 00 035637 		WRIO	@UBAMT		;RESET TO NORMAL MODE
  1459						LPTST
  1460


DECSYSTEM 2020 UNIBUS ADAPTER EXERCISER, VERSION=0,4 	MACRO %53(1020) 09:46 12-Jul-79 Page 20
DSUBAM	MAC	28-Jun-79 10:11		DEVICE TESTS                                                                       SEQ 0060

  1461
  1462			037616			T=SIXBTZ<UBA READ-REVERSE WRIO-NPR WRAP-AROUND>
  1463
  1464					; **********************************************************************
  1465					;* TEST 13 USES THE UBA MAINTENANCE WRAP-AROUND MODE TO INITIATE READ-
  1466					;* REVERSE TRANSFERS TO KS10 MEMORY. BOTH EVEN AND ODD WORD TRANSFERS
  1467					;* ARE READ-PAUSE-WRITE OPERATIONS, AND ARE DONE ALTERNATELY TO A FIELD
  1468					;* OF 1'S AND A FIELD OF 0'S.
  1469					; **********************************************************************
  1470
  1471	031531	201 00 0 00 031533 	TEST13:	MOVEI	AXLE		;GET LOOP ADDRESS
  1472	031532	202 00 0 00 030051 		MOVEM	TESTPC		;AND STORE IN TESTPC
  1473
  1474	031533	260 17 0 00 035202 	AXLE:	GO	UBACLR		;CLEAR OUT UBA
  1475	031534	201 07 0 00 400000 		MOVEI	T7,400000	;SET UP READ-REVERSE BIT FOR UBASR
  1476	031535	260 17 0 00 035407 		GO	WAPSET		;SET UP UBAPR AND WRKADR
  1477	031536	201 11 0 00 777777 		MOVEI	TMASK,777777	;SET UP MASK AC FOR 18 BIT XFERS
  1478	031537	201 00 0 00 000001 		MOVEI	1
  1479	031540	713 00 1 00 035637 		WRIO	@UBAMT		;SET UBA TO MAINTENANCE MODE
  1480	031541	201 00 0 00 031565 		MOVEI	EFAL13		;IO PAGE FAIL ADDRESS
  1481	031542	202 00 0 00 035253 		MOVEM	IOPGFA		;RETURN TO EFAL13 IF ERROR
  1482
  1483					;EVEN WORD R-P-W TRANSFER CHECK ON A FIELD OF 1'S AND 0'S :
  1484
  1485	031543	201 04 0 00 000001 		MOVEI	T4,1		;CONTROL FOR BACKGROUND FIELD
  1486	031544	201 05 0 00 000074 	BERING:	MOVEI	T5,^D60		;INITIALIZE PATTERN TABLE INDEX
  1487
  1488	031545	402 00 1 00 030145 	CAM:	SETZM	@MEMLOW		;ZERO OUT LOCATION @MEMLOW
  1489	031546	302 04 0 00 000000 		CAIE	T4,0		;SKIP IF WE WANT TO WRITE ON 0'S
  1490	031547	476 00 1 00 030145 		SETOM	@MEMLOW		;SET MEMLOW TO ALL 1'S
  1491	031550	200 02 0 05 035426 		MOVE	T2,PATTY(T5)	;GET TEST PATTERN
  1492	031551	404 02 0 00 000011 		AND	T2,TMASK	;FORMAT TO 16 BITS
  1493	031552	713 02 1 00 035613 		WRIO	T2,@WRKADR	;SHOULD GO TO @MEMLOW
  1494	031553	7 010 24 0 00 000006 		CONI	PAG,6
  1495	031554	7 010 20 1 00 000006 		CONO	PAG,@6		;FLUSH CACHE FOR NPR XFER RESET
  1496	031555	242 02 0 00 000022 		LSH	T2,^D18		;FORMAT TEST PATTERN TO L.H. WORD
  1497	031556	302 04 0 00 000000 		CAIE	T4,0		;SKIP IF WE ARE USING A FIELD OF 0'S
  1498	031557	541 02 0 00 777777 		HRRI	T2,777777	;PUT TEST PATTERN IN A FIELD OF 1'S
  1499	031560	200 03 1 00 030145 		MOVE	T3,@MEMLOW	;SEE WHAT GLAD TIDINGS THE UBA GIVETH..
  1500	031561	312 02 0 00 000003 		CAME	T2,T3		;SKIP IF OK
  1501	031562	036 13 0 00 037637 		ERROR(CAM,13,2,3,TEST 13,EVEN WORD READ-REVERSE NPR XFER TO KS10 MEMORY)
  1502	031563	035 00 0 00 031545 		ERLOOP	CAM		;IF ERROR, LOOP TO CAM
  1503	031564	314 00 0 00 000000 		CAMA
  1504	031565				EFAL13:	ERROR(CAM,0,0,0,TEST 13,IO PAGE FAIL WHILE INITIATING READ-REVERSE EVEN WORD WRAP-A
  1505	031565	036 00 0 00 037655 	ROUND,FALIO)
  1506	031566	035 00 0 00 031545 		ERLOOP	CAM		;IF ERROR, LOOP TO CAM
  1507
  1508	031567	365 05 0 00 031545 		SOJGE	T5,CAM	;LOOP IF MORE TEST PATTERNS TO DO
  1509
  1510	031570	365 04 0 00 031544 		SOJGE	T4,BERING	;LOOP IF WE WANT TO WRITE ON 0'S


DECSYSTEM 2020 UNIBUS ADAPTER EXERCISER, VERSION=0,4 	MACRO %53(1020) 09:46 12-Jul-79 Page 21
DSUBAM	MAC	28-Jun-79 10:11		DEVICE TESTS                                                                       SEQ 0061

  1511					;ODD WORD R-P-W TRANSFER CHECK ON A FIELD OF 1'S AND 0'S :
  1512
  1513	031571	201 00 0 00 031617 		MOVEI	OFAL13
  1514	031572	202 00 0 00 035253 		MOVEM	IOPGFA
  1515	031573	201 04 0 00 000001 		MOVEI	T4,1		;CONTROL FOR BACKGROUND FIELD
  1516	031574	201 05 0 00 000074 	DENT:	MOVEI	T5,^D60		;INITIALIZE PATTERN TABLE INDEX
  1517
  1518	031575	402 00 1 00 030145 	ENGINE:	SETZM	@MEMLOW		;ZERO OUT LOCATION @MEMLOW
  1519	031576	302 04 0 00 000000 		CAIE	T4,0		;SKIP IF WE WANT TO WRITE ON 0'S
  1520	031577	476 00 1 00 030145 		SETOM	@MEMLOW		;SET MEMLOW TO ALL 1'S
  1521	031600	200 02 0 05 035426 		MOVE	T2,PATTY(T5)	;GET TEST PATTERN
  1522	031601	404 02 0 00 000011 		AND	T2,TMASK	;FORMAT TO 16 BITS
  1523	031602	200 00 0 00 035613 		MOVE	WRKADR		;GET WORKING ADDRESS
  1524	031603	271 00 0 00 000002 		ADDI	2		;INCREMENT TO ODD WORD ADDRESS
  1525	031604	202 00 0 00 035614 		MOVEM	WAPADR		;AND STORE IN WAPADR
  1526	031605	713 02 1 00 035614 		WRIO	T2,@WAPADR	;SHOULD GO TO @MEMLOW
  1527	031606	7 010 24 0 00 000006 		CONI	PAG,6
  1528	031607	7 010 20 1 00 000006 		CONO	PAG,@6		;FLUSH CACHE FOR NPR XFER RESET
  1529	031610	302 04 0 00 000000 		CAIE	T4,0		;SKIP IF WE ARE USING A FIELD OF 0'S
  1530	031611	505 02 0 00 777777 		HRLI	T2,777777	;PUT TEST PATTERN IN A FIELD OF 1'S
  1531	031612	200 03 1 00 030145 		MOVE	T3,@MEMLOW	;SEE WHAT GLAD TIDINGS THE UBA GIVETH..
  1532	031613	312 02 0 00 000003 		CAME	T2,T3		;SKIP IF OK
  1533	031614	036 13 0 00 037670 		ERROR(ENGINE,13,2,3,TEST 13,ODD WORD READ-REVERSE NPR XFER TO KS10 MEMORY)
  1534	031615	035 00 0 00 031575 		ERLOOP	ENGINE		;IF ERROR, LOOP TO ENGINE
  1535	031616	314 00 0 00 000000 		CAMA
  1536	031617				OFAL13:	ERROR(ENGINE,0,0,0,TEST 13,IO PAGE FAIL WHILE INITIATING READ REVERSE ODD WORD WRAP
  1537	031617	036 00 0 00 037706 	-AROUND,FALIO)
  1538	031620	035 00 0 00 031575 		ERLOOP	ENGINE		;IF ERROR, LOOP TO ENGINE
  1539
  1540	031621	365 05 0 00 031575 		SOJGE	T5,ENGINE	;LOOP IF MORE TEST PATTERNS TO DO
  1541
  1542	031622	365 04 0 00 031574 		SOJGE	T4,DENT		;LOOP IF WE WANT TO WRITE ON 0'S
  1543
  1544	031623	402 00 0 00 035253 	FENDER:	SETZM	IOPGFA		;RESET IO PAGE FAIL HANDLER
  1545	031624	400 00 0 00 000000 		SETZ	T0,
  1546	031625	713 00 1 00 035637 		WRIO	@UBAMT		;RE-SET UBA TO NORMAL MODE
  1547						LPTST
  1548


DECSYSTEM 2020 UNIBUS ADAPTER EXERCISER, VERSION=0,4 	MACRO %53(1020) 09:46 12-Jul-79 Page 22
DSUBAM	MAC	28-Jun-79 10:11		DEVICE TESTS                                                                       SEQ 0062

  1549
  1550			037711			T=SIXBTZ<UBA FAST XFER WRIO TO NPR WRAP-AROUND>
  1551
  1552					; **********************************************************************
  1553					;* TEST 14 USES THE UBA MAINTENANCE WRAP-AROUND MODE TO INITIATE FULL
  1554					;* 36 BIT FAST TRANSFERS TO KS10 MEMORY. THE EVEN WORD TRANSFER IS
  1555					;* STORED IN THE UBA AND SHOULD NOT DISTURB MEMORY, AND THE ODD WORD
  1556					;* TRANSFER SHOULD CAUSE BOTH WORDS TO BE WRITTEN INTO MEMORY AT ONCE.
  1557					; **********************************************************************
  1558
  1559	031633	201 00 0 00 031635 	TEST14:	MOVEI	ALDRMN		;GET LOOP ADDRESS
  1560	031634	202 00 0 00 030051 		MOVEM	TESTPC		;AND STORE IN TESTPC
  1561
  1562	031635	260 17 0 00 035202 	ALDRMN:	GO	UBACLR		;RE-SET UNIBUS ADAPTER
  1563	031636	201 00 0 00 000001 		MOVEI	T0,1
  1564	031637	713 00 1 00 035637 		WRIO	T0,@UBAMT	;SET UP MAINT.BIT FOR WRAP-AROUND MODE
  1565	031640	201 11 0 00 777777 		MOVEI	TMASK,777777	;SET UP MASK AC FOR 18 BIT XFERS
  1566	031641	201 07 0 00 100000 		MOVEI	T7,100000	;GET FAST TRANSFER-BIT
  1567	031642	260 17 0 00 035407 		GO	WAPSET		;AND SET UP WRAP-AROUND ADDRESSES
  1568	031643	201 00 0 00 031665 		MOVEI	EFAL14
  1569	031644	202 00 0 00 035253 		MOVEM	IOPGFA
  1570
  1571					;EVEN WORD TRANSFER ( SHOULD BE STORED INTERNALLY IN UBA ):
  1572
  1573	031645	201 05 0 00 000074 		MOVEI	T5,^D60		;INITIALIZE PATTERN TABLE INDEX
  1574	031646	402 00 1 00 030145 	BARON:	SETZM	@MEMLOW		;ZERO OUT LOCATION TO BE WRITTEN TO
  1575	031647	200 02 0 05 035426 		MOVE	T2,PATTY(T5)	;MOVE TEST PATTERN INTO T2
  1576	031650	242 02 0 00 777756 		LSH	T2,^D-18	;WE WANT EVEN WORD OF PATTERN TO START
  1577	031651	404 02 0 00 000011 		AND	T2,TMASK	;AND FORMAT TO 16 BITS RIGHT JUSTIFIED
  1578	031652	713 02 1 00 035613 		WRIO	T2,@WRKADR	;DATA SHOULD BE IN A UBA REGISTER
  1579	031653	242 02 0 00 000022 		LSH	T2,^D18		;FORMAT OLD PATTERN BACK TO EVEN WORD
  1580	031654	200 04 0 00 000002 		MOVE	T4,T2		;AND STORE OLD TEST PATTERN IN T4
  1581	031655	7 010 24 0 00 000006 		CONI	PAG,6
  1582	031656	7 010 20 1 00 000006 		CONO	PAG,@6		;FLUSH CACHE FOR NPR XFER RESET
  1583	031657	200 03 1 00 030145 		MOVE	T3,@MEMLOW
  1584	031660	400 01 0 00 000000 		SETZ	T1,		;ZERO OUT AC#1
  1585	031661	312 01 0 00 000003 		CAME	T1,T3		;SKIP IF WORD XFER TO MEM NOT EXECUTED
  1586	031662	036 13 0 00 037732 		ERROR(BARON,13,1,T3,TEST 14,WORD XFER DONE ON FAST MODE EVEN WORD XFER)
  1587	031663	035 00 0 00 031646 		ERLOOP	BARON		;IF ERROR, LOOP TO BARON
  1588	031664	314 00 0 00 000000 		CAMA
  1589	031665				EFAL14:	ERROR(BARON,0,0,0,TEST 14,IO PAGE FAIL WHILE INITIATING EVEN WORD FAST XFER WRAP-AR
  1590	031665	036 00 0 00 037750 	OUND,FALIO)
  1591	031666	035 00 0 00 031646 		ERLOOP	BARON		;IF ERROR, LOOP TO BARON
  1592

DECSYSTEM 2020 UNIBUS ADAPTER EXERCISER, VERSION=0,4 	MACRO %53(1020) 09:46 12-Jul-79 Page 23
DSUBAM	MAC	28-Jun-79 10:11		DEVICE TESTS                                                                       SEQ 0063

  1593					;ODD WORD TRANSFER ( SHOULD TRANSFER BOTH ODD AND EVEN WORDS TO KS ):
  1594
  1595	031667	201 00 0 00 031707 		MOVEI	OFAL14
  1596	031670	202 00 0 00 035253 		MOVEM	IOPGFA
  1597	031671	200 02 0 05 035426 	COUNT:	MOVE	T2,PATTY(T5)	;GET TEST PATTERN
  1598	031672	404 02 0 00 000011 		AND	T2,TMASK	;FORMAT R.H.WORD TO 16 BITS
  1599	031673	200 00 0 00 035613 		MOVE	WRKADR		;GET WORKING ADDRESS
  1600	031674	271 00 0 00 000002 		ADDI	2		;INCREMENT TO ODD WORD
  1601	031675	202 00 0 00 035614 		MOVEM	WAPADR		;STORE BACK IN WAPADR
  1602	031676	713 02 1 00 035614 		WRIO	T2,@WAPADR	;ODD WORD XFER,-SHOULD MOVE FULL WORD
  1603	031677	270 02 0 00 000004 		ADD	T2,T4		;ADD BOTH L.H. AND R.H. TEST PATTERNS
  1604	031700	7 010 24 0 00 000006 		CONI	PAG,6
  1605	031701	7 010 20 1 00 000006 		CONO	PAG,@6		;FLUSH CACHE FOR NPR XFER RESET
  1606	031702	200 03 1 00 030145 		MOVE	T3,@MEMLOW
  1607	031703	312 02 0 00 000003 		CAME	T2,T3		;SKIP IF OK
  1608	031704	036 13 0 00 037760 		ERROR(COUNT,13,2,T3,TEST 14,FAST WORD XFER DATA ERROR)
  1609	031705	035 00 0 00 031671 		ERLOOP	COUNT		;IF ERROR, LOOP TO COUNT
  1610	031706	314 00 0 00 000000 		CAMA
  1611	031707				OFAL14:	ERROR(COUNT,0,0,0,TEST 14,IO PAGE FAIL WHILE INITIATING ODD WORD FAST XFER WRAP-ARO
  1612	031707	036 00 0 00 037776 	UND,FALIO)
  1613	031710	035 00 0 00 031671 		ERLOOP	COUNT		;IF ERROR, LOOP TO COUNT
  1614
  1615	031711	365 05 0 00 031646 		SOJGE	T5,BARON	;LOOP IF NOT FINISHED
  1616
  1617	031712	402 00 0 00 035253 	DUKE:	SETZM	IOPGFA		;RESET IO PAGE FAIL ROUTINE
  1618	031713	713 00 1 00 035637 		WRIO	T0,@UBAMT	;RESET MAINTENANCE REGISTER
  1619						LPTST
  1620


DECSYSTEM 2020 UNIBUS ADAPTER EXERCISER, VERSION=0,4 	MACRO %53(1020) 09:46 12-Jul-79 Page 24
DSUBAM	MAC	28-Jun-79 10:11		DEVICE TESTS                                                                       SEQ 0064

  1621
  1622			040001			T=SIXBTZ<UBA WORD RDIO-NPR WRAP-AROUND>
  1623
  1624					; **********************************************************************
  1625					;* TEST 15 USES THE UBA MAINTENANCE WRAP-AROUND MODE TO INITIATE A
  1626					;* WORD NPR TRANSFER FROM KS10 MEMORY. BOTH EVEN AND ODD WORDS ARE
  1627					;* TESTED.
  1628					; **********************************************************************
  1629
  1630	031721	201 01 0 00 031723 	TEST15:	MOVEI	T1,ARGON	;GET LOOP ADDRESS
  1631	031722	202 01 0 00 030051 		MOVEM	T1,TESTPC	;AND STORE IN TESTPC
  1632
  1633	031723	260 17 0 00 035202 	ARGON:	GO	UBACLR		;INITIALIZE UBA
  1634	031724	201 00 0 00 000001 		MOVEI	T0,1		;PUT MASK BIT INTO T0
  1635	031725	713 00 1 00 035637 		WRIO	T0,@UBAMT	;THE MAINTENANCE BIT MUST BE SET
  1636	031726	201 11 0 00 777777 		MOVEI	TMASK,777777	;SET UP MASK AC FOR 18 BIT XFERS
  1637	031727	400 07 0 00 000000 		SETZ	T7,		;ZERO OUT PARAMETER FOR WAPSET ROUTINE
  1638	031730	260 17 0 00 035407 		GO	WAPSET		;SET UP PAGING RAM AND WORKING ADDRESS
  1639	031731	201 00 0 00 031746 		MOVEI	EFAL15
  1640	031732	202 00 0 00 035253 		MOVEM	IOPGFA
  1641
  1642	031733	201 05 0 00 000074 		MOVEI	T5,^D60		;INITIALIZE TEST PATTERN NUMBER
  1643	031734	200 02 0 05 035426 	BORON:	MOVE	T2,PATTY(T5)	;MOVE TEST PATTERN INTO T2
  1644	031735	404 02 0 00 000011 		AND	T2,TMASK	;FORMAT DATA FOR 16 BIT RDIO INSTRUCTION
  1645	031736	242 02 0 00 000022 		LSH	T2,^D18		;SHIFT DATA INTO L.H.WORD
  1646	031737	202 02 1 00 030145 		MOVEM	T2,@MEMLOW	;PUT TEST PATTERN INTO @MEMLOW
  1647	031740	712 03 1 00 035613 		RDIO	T3,@WRKADR	;DATA SHOULD COME FROM @MEMLOW
  1648	031741	242 03 0 00 000022 		LSH	T3,^D18		;FORMAT RESULTS INTO L.H.WORD
  1649	031742	312 02 0 00 000003 		CAME	T2,T3		;SKIP IF O.K.
  1650	031743	036 13 0 00 040016 		ERROR(BORON,13,T2,T3,TEST 15,EVEN WORD WORD RDIO-NPR WRAP-AROUND)
  1651	031744	035 00 0 00 031734 		ERLOOP	BORON		;IF ERROR, LOOP TO BORON
  1652	031745	314 00 0 00 000000 		CAMA
  1653	031746				EFAL15:	ERROR(BORON,0,0,0,TEST 15,IO PAGE FAIL WHILE INITIATING EVEN WORD RDIO WRAP-AROUND,
  1654	031746	036 00 0 00 040033 	FALIO)
  1655	031747	035 00 0 00 031734 		ERLOOP	BORON		;IF ERROR, LOOP TO BORON
  1656
  1657	031750	365 05 0 00 031734 		SOJGE	T5,BORON	;LOOP IF MORE TO DO
  1658
  1659	031751	201 00 0 00 031767 		MOVEI	OFAL15
  1660	031752	202 00 0 00 035253 		MOVEM	IOPGFA
  1661	031753	200 00 0 00 035613 		MOVE	WRKADR		;GET WRAP-AROUND WORKING ADDRESS
  1662	031754	271 00 0 00 000002 		ADDI	2		;INCREMENT TO ODD WORD ADDRESS
  1663	031755	202 00 0 00 035614 		MOVEM	WAPADR		;AND STORE IT IN WAPADR
  1664	031756	201 05 0 00 000074 		MOVEI	T5,^D60		;INITIALIZE PATTERN ABLE INDEX
  1665	031757	200 02 0 05 035426 	COBOLT:	MOVE	T2,PATTY(T5)	;MOVE TEST PATTERN INTO T2
  1666	031760	404 02 0 00 000011 		AND	T2,TMASK	;FORMAT DATA FOR 16 BIT RDIO INSTRUCTION
  1667	031761	202 02 1 00 030145 		MOVEM	T2,@MEMLOW	;MOVE TEST PATTERN INTO @MEMLOW
  1668	031762	712 03 1 00 035614 		RDIO	T3,@WAPADR	;SHOULD SET OFF THE WHOLE PROCESS
  1669	031763	312 03 0 00 000002 		CAME	T3,T2		;SKIP IF O.K.
  1670	031764	036 13 0 00 040044 		ERROR(COBOLT,13,T2,T3,TEST 15,ODD WORD WORD RDIO-NPR WRAP-AROUND)
  1671	031765	035 00 0 00 031757 		ERLOOP	COBOLT		;IF ERROR, LOOP TO COBOLT
  1672	031766	314 00 0 00 000000 		CAMA
  1673	031767				OFAL15:	ERROR(COBOLT,0,0,0,TEST 15,IO PAGE FAIL WHILE INITIATING ODD WORD RDIO WRAP-AROUND,
  1674	031767	036 00 0 00 040061 	FALIO)
  1675	031770	035 00 0 00 031757 		ERLOOP	COBOLT		;IF ERROR, LOOP TO COBOLT


DECSYSTEM 2020 UNIBUS ADAPTER EXERCISER, VERSION=0,4 	MACRO %53(1020) 09:46 12-Jul-79 Page 24-1
DSUBAM	MAC	28-Jun-79 10:11		DEVICE TESTS                                                                       SEQ 0065

  1676	031771	365 05 0 00 031757 		SOJGE	T5,COBOLT	;LOOP IF NOT FINISHED YET
  1677
  1678	031772	402 00 0 00 035253 	IODINE:	SETZM	IOPGFA
  1679	031773	400 00 0 00 000000 		SETZ	T0,		;ZERO OUT MASK AC
  1680	031774	713 00 1 00 035637 		WRIO	T0,@UBAMT	;RESET MAINTENANCE REGISTER
  1681						LPTST
  1682


DECSYSTEM 2020 UNIBUS ADAPTER EXERCISER, VERSION=0,4 	MACRO %53(1020) 09:46 12-Jul-79 Page 25
DSUBAM	MAC	28-Jun-79 10:11		DEVICE TESTS                                                                       SEQ 0066

  1683
  1684			040064			T=SIXBTZ<HIGH BYTE EVEN WORD WRIOB WRAP-AROUND>
  1685
  1686					; **********************************************************************
  1687					;* TEST 16 USES THE MAINTENANCE WRAP-AROUND MODE OF THE UBA TO INITIATE
  1688					;* NPR TRANSFERS TO THE HIGH BYTE OF THE EVEN WORD OF KS10 MEMORY. THIS
  1689					;* IS A READ-PAUSE-WRITE OPERATION, AND THE TRANSFERS ARE MADE BOTH TO
  1690					;* A FIELD OF 1'S AND A FIELD OF 0'S.
  1691					; **********************************************************************
  1692
  1693	032002	201 00 0 00 032004 	TEST16:	MOVEI	ARM		;GET LOOP ADDRESS
  1694	032003	202 00 0 00 030051 		MOVEM	TESTPC		;AND STORE IN TESTPC
  1695
  1696	032004	260 17 0 00 035202 	ARM:	GO	UBACLR		;RESET UBA
  1697	032005	400 07 0 00 000000 		SETZ	T7,		;ZERO OUT PARAMETER FOR WAPSET ROUTINE
  1698	032006	260 17 0 00 035407 		GO	WAPSET		;SET UP PAGING RAM AND WORKING ADDRESS
  1699	032007	201 00 0 00 000001 		MOVEI	1
  1700	032010	713 00 1 00 035637 		WRIO	@UBAMT		;SET UBA TO MAINTENANCE MODE
  1701	032011	201 11 0 00 000377 		MOVEI	TMASK,377	;SET UP MASK AC FOR 8 BIT XFERS
  1702	032012	201 00 0 00 032042 		MOVEI	IFAL16
  1703	032013	202 00 0 00 035253 		MOVEM	IOPGFA
  1704
  1705	032014	200 00 0 00 035613 		MOVE	WRKADR		;GET WORKING ADDRESS
  1706	032015	340 00 0 00 000000 		AOJ			;INCREMENT ADDRESS BY ONE
  1707	032016	202 00 0 00 035614 		MOVEM	WAPADR		;AND STORE IN WAPADR
  1708
  1709	032017	201 04 0 00 000001 		MOVEI	T4,1		;CONTROL FOR BACKGROUND FIELD
  1710	032020	201 05 0 00 000074 	BUNION:	MOVEI	T5,^D60		;INITIALIZE PATTERN TABLE INDEX
  1711	032021	402 00 1 00 030145 	CORN:	SETZM	@MEMLOW		;ZERO OUT LOCATION @MEMLOW
  1712	032022	302 04 0 00 000000 		CAIE	T4,0		;SKIP IF WE WANT TO WRITE ON 0'S
  1713	032023	476 00 1 00 030145 		SETOM	@MEMLOW		;SET MEMLOW TO ALL 1'S
  1714	032024	200 02 0 05 035426 		MOVE	T2,PATTY(T5)	;GET TEST PATTERN
  1715	032025	404 02 0 00 000011 		AND	T2,TMASK	;FORMAT TO 8 BITS
  1716	032026	723 02 1 00 035614 		WRIOB	T2,@WAPADR	;SHOULD GO TO @MEMLOW


DECSYSTEM 2020 UNIBUS ADAPTER EXERCISER, VERSION=0,4 	MACRO %53(1020) 09:46 12-Jul-79 Page 26
DSUBAM	MAC	28-Jun-79 10:11		DEVICE TESTS                                                                       SEQ 0067

  1717	032027	242 02 0 00 000032 		LSH	T2,^D26		;FORMAT TO HIGH BYTE EVEN WORD
  1718	032030	7 010 24 0 00 000006 		CONI	PAG,6
  1719	032031	7 010 20 1 00 000006 		CONO	PAG,@6		;FLUSH CACHE FOR NPR XFER RESET
  1720	032032	302 04 0 00 000000 		CAIE	T4,0		;SKIP IF WE ARE USING A FIELD OF 0'S
  1721	032033	434 02 0 00 040073 		IOR	T2,[XWD 000377,000000] ;SET UP FIELD OF 1'S
  1722	032034	540 02 0 00 030145 		HRR	T2,MEMLOW	;WARNING! UBA SPITS BACK ADDRESS
  1723	032035	200 03 1 00 030145 		MOVE	T3,@MEMLOW	;SEE WHAT GLAD TIDINGS THE UBA GIVETH..
  1724	032036	312 02 0 00 000003 		CAME	T2,T3		;SKIP IF OK
  1725	032037	036 13 0 00 040107 		ERROR(CORN,13,2,3,TEST 16,HIGH BYTE EVEN WORD R-P-W NPR XFER TO KS10 MEMORY)
  1726	032040	035 00 0 00 032021 		ERLOOP	CORN		;IF ERROR, LOOP TO CORN
  1727	032041	314 00 0 00 000000 		CAMA
  1728	032042				IFAL16:	ERROR(CORN,0,0,0,TEST 16,IO PAGE FAIL WHILE INITIATING HIGH BYTE EVEN WORD WRAP-ARO
  1729	032042	036 00 0 00 040125 	UND,FALIO)
  1730	032043	035 00 0 00 032021 		ERLOOP	CORN		;IF ERROR, LOOP TO CORN
  1731
  1732	032044	365 05 0 00 032021 		SOJGE	T5,CORN	;LOOP IF MORE TEST PATTERNS TO DO
  1733
  1734	032045	365 04 0 00 032020 		SOJGE	T4,BUNION	;LOOP IF WE WANT TO WRITE ON 0'S
  1735
  1736	032046	402 00 0 00 035253 	EYEBAL:	SETZM	IOPGFA		;RESET IO PAGE FAIL ROUTINE
  1737	032047	400 00 0 00 000000 		SETZ	T0,
  1738	032050	713 00 1 00 035637 		WRIO	@UBAMT		;RESET UBA TO NORMAL MODE
  1739						LPTST
  1740


DECSYSTEM 2020 UNIBUS ADAPTER EXERCISER, VERSION=0,4 	MACRO %53(1020) 09:46 12-Jul-79 Page 27
DSUBAM	MAC	28-Jun-79 10:11		DEVICE TESTS                                                                       SEQ 0068

  1741
  1742			040130			T=SIXBTZ<LOW BYTE ODD WORD WRIOB WRAP-AROUND>
  1743
  1744					; **********************************************************************
  1745					;* TEST 17 USES THE MAINTENANCE WRAP-AROUND MODE OF THE UBA TO INITIATE
  1746					;* NPR TRANSFERS TO THE LOW BYTE OF THE ODD WORD OF KS10 MEMORY. THIS
  1747					;* IS A READ-PAUSE-WRITE OPERATION, AND THE TRANSFERS ARE MADE BOTH TO
  1748					;* A FIELD OF 1'S AND A FIELD OF 0'S.
  1749					; **********************************************************************
  1750
  1751	032056	201 00 0 00 032060 	TEST17:	MOVEI	WRAPA		;GET LOOP ADDRESS
  1752	032057	202 00 0 00 030051 		MOVEM	TESTPC		;AND STORE IN TESTPC
  1753
  1754	032060	260 17 0 00 035202 	WRAPA:	GO	UBACLR		;RESET UBA
  1755	032061	400 07 0 00 000000 		SETZ	T7,		;ZERO OUT PARAMETER FOR WAPSET ROUTINE
  1756	032062	260 17 0 00 035407 		GO	WAPSET		;SET UP PAGING RAM AND WORKING ADDRESS
  1757	032063	201 00 0 00 000001 		MOVEI	1
  1758	032064	713 00 1 00 035637 		WRIO	@UBAMT		;SET UBA TO MAINTENANCE MODE
  1759	032065	201 11 0 00 000377 		MOVEI	TMASK,377	;SET UP MASK AC FOR 8 BIT XFERS
  1760	032066	201 00 0 00 032114 		MOVEI	IFAL17
  1761	032067	202 00 0 00 035253 		MOVEM	IOPGFA
  1762	032070	200 00 0 00 035613 		MOVE	WRKADR		;GET WORKING ADDRESS
  1763	032071	271 00 0 00 000002 		ADDI	2		;INCREMENT ADDRESS
  1764	032072	202 00 0 00 035614 		MOVEM	WAPADR		;AND STORE IN WAPADR
  1765
  1766	032073	201 04 0 00 000001 		MOVEI	T4,1		;CONTROL FOR BACKGROUND FIELD
  1767	032074	201 05 0 00 000074 	WRAPB:	MOVEI	T5,^D60		;INITIALIZE PATTERN TABLE INDEX
  1768	032075	402 00 1 00 030145 	WRAPC:	SETZM	@MEMLOW		;ZERO OUT LOCATION @MEMLOW
  1769	032076	302 04 0 00 000000 		CAIE	T4,0		;SKIP IF WE WANT TO WRITE ON 0'S
  1770	032077	476 00 1 00 030145 		SETOM	@MEMLOW		;SET MEMLOW TO ALL 1'S
  1771	032100	200 02 0 05 035426 		MOVE	T2,PATTY(T5)	;GET TEST PATTERN
  1772	032101	404 02 0 00 000011 		AND	T2,TMASK	;FORMAT TO 8 BITS
  1773	032102	723 02 1 00 035614 		WRIOB	T2,@WAPADR	;SHOULD GO TO @MEMLOW
  1774	032103	7 010 24 0 00 000006 		CONI	PAG,6
  1775	032104	7 010 20 1 00 000006 		CONO	PAG,@6		;FLUSH CACHE FOR NPR XFER RESET
  1776	032105	302 04 0 00 000000 		CAIE	T4,0		;SKIP IF WE ARE USING A FIELD OF 0'S
  1777	032106	434 02 0 00 040136 		IOR	T2,[XWD 777777,000000] ;SET UP FIELD OF 1'S
  1778	032107	200 03 1 00 030145 		MOVE	T3,@MEMLOW	;SEE WHAT GLAD TIDINGS THE UBA GIVETH..
  1779	032110	312 02 0 00 000003 		CAME	T2,T3		;SKIP IF OK
  1780	032111	036 13 0 00 040151 		ERROR(WRAPC,13,2,3,TEST 17,LOW BYTE ODD WORD R-P-W NPR XFER TO KS10 MEMORY)
  1781	032112	035 00 0 00 032075 		ERLOOP	WRAPC		;IF ERROR, LOOP TO WRAPC
  1782	032113	314 00 0 00 000000 		CAMA
  1783	032114				IFAL17:	ERROR(WRAPC,0,0,0,TEST 17,IO PAGE FAIL WHILE INITIATING LOW BYTE ODD WORD WRAP-AROU
  1784	032114	036 00 0 00 040166 	ND,FALIO)
  1785	032115	035 00 0 00 032075 		ERLOOP	WRAPC		;IF ERROR, LOOP TO WRAPC
  1786
  1787	032116	365 05 0 00 032075 		SOJGE	T5,WRAPC	;LOOP IF MORE TEST PATTERNS TO DO
  1788
  1789	032117	365 04 0 00 032074 		SOJGE	T4,WRAPB	;LOOP IF WE WANT TO WRITE ON 0'S
  1790
  1791	032120	402 00 0 00 035253 	WRAPD:	SETZM	IOPGFA
  1792	032121	400 00 0 00 000000 		SETZ	T0,
  1793	032122	713 00 1 00 035637 		WRIO	@UBAMT		;RESET UBA TO NORMAL MODE
  1794						LPTST
  1795


DECSYSTEM 2020 UNIBUS ADAPTER EXERCISER, VERSION=0,4 	MACRO %53(1020) 09:46 12-Jul-79 Page 28
DSUBAM	MAC	28-Jun-79 10:11		DEVICE TESTS                                                                       SEQ 0069

  1796
  1797			040171			T=SIXBTZ<HIGH BYTE ODD WORD WRIOB WRAP-AROUND>
  1798
  1799					; **********************************************************************
  1800					;* TEST 20 USES THE MAINTENANCE WRAP-AROUND MODE OF THE UBA TO INITIATE
  1801					;* NPR TRANSFERS TO THE HIGH BYTE OF THE ODD WORD OF KS10 MEMORY. THIS
  1802					;* IS A READ-PAUSE-WRITE OPERATION, AND THE TRANSFERS ARE MADE BOTH TO
  1803					;* A FIELD OF 1'S AND A FIELD OF 0'S.
  1804					; **********************************************************************
  1805
  1806	032130	201 00 0 00 032132 	TEST20:	MOVEI	NPRA		;GET LOOP ADDRESS
  1807	032131	202 00 0 00 030051 		MOVEM	TESTPC		;AND STORE IN TESTPC
  1808
  1809	032132	260 17 0 00 035202 	NPRA:	GO	UBACLR		;RESET UBA
  1810	032133	400 07 0 00 000000 		SETZ	T7,		;ZERO OUT PARAMETER FOR WAPSET ROUTINE
  1811	032134	260 17 0 00 035407 		GO	WAPSET		;SET UP PAGING RAM AND WORKING ADDRESS
  1812	032135	201 00 0 00 000001 		MOVEI	1
  1813	032136	713 00 1 00 035637 		WRIO	@UBAMT		;SET UBA TO MAINTENANCE MODE
  1814	032137	201 11 0 00 000377 		MOVEI	TMASK,377	;SET UP MASK AC FOR 8 BIT XFERS
  1815	032140	201 00 0 00 032167 		MOVEI	IFAL20
  1816	032141	202 00 0 00 035253 		MOVEM	IOPGFA
  1817	032142	200 00 0 00 035613 		MOVE	WRKADR		;GET WORKING ADDRESS
  1818	032143	271 00 0 00 000003 		ADDI	3		;INCREMENT ADDRESS
  1819	032144	202 00 0 00 035614 		MOVEM	WAPADR		;AND STORE IN WAPADR
  1820
  1821	032145	201 04 0 00 000001 		MOVEI	T4,1		;CONTROL FOR BACKGROUND FIELD
  1822	032146	201 05 0 00 000074 	NPRB:	MOVEI	T5,^D60		;INITIALIZE PATTERN TABLE INDEX
  1823	032147	402 00 1 00 030145 	NPRC:	SETZM	@MEMLOW		;ZERO OUT LOCATION @MEMLOW
  1824	032150	302 04 0 00 000000 		CAIE	T4,0		;SKIP IF WE WANT TO WRITE ON 0'S
  1825	032151	476 00 1 00 030145 		SETOM	@MEMLOW		;SET MEMLOW TO ALL 1'S
  1826	032152	200 02 0 05 035426 		MOVE	T2,PATTY(T5)	;GET TEST PATTERN
  1827	032153	404 02 0 00 000011 		AND	T2,TMASK	;FORMAT TO 8 BITS
  1828	032154	723 02 1 00 035614 		WRIOB	T2,@WAPADR	;SHOULD GO TO @MEMLOW
  1829	032155	242 02 0 00 000010 		LSH	T2,^D8		;FORMAT TO HIGH BYTE ODD WORD
  1830	032156	7 010 24 0 00 000006 		CONI	PAG,6
  1831	032157	7 010 20 1 00 000006 		CONO	PAG,@6		;FLUSH CACHE FOR NPR XFER RESET
  1832	032160	302 04 0 00 000000 		CAIE	T4,0		;SKIP IF WE ARE USING A FIELD OF 0'S
  1833	032161	434 02 0 00 040200 		IOR	T2,[XWD 777777,000377] ;SET UP FIELD OF 1'S
  1834	032162	200 03 1 00 030145 		MOVE	T3,@MEMLOW	;SEE WHAT GLAD TIDINGS THE UBA GIVETH..
  1835	032163	312 02 0 00 000003 		CAME	T2,T3		;SKIP IF OK
  1836	032164	036 13 0 00 040203 		ERROR(NPRC,13,2,3,TEST 20,HIGH BYTE EVEN WORD R-P-W NPR XFER TO KS10 MEMORY)
  1837	032165	035 00 0 00 032147 		ERLOOP	NPRC		;IF ERROR, LOOP TO NPRC
  1838	032166	314 00 0 00 000000 		CAMA
  1839	032167				IFAL20:	ERROR(NPRC,0,0,0,TEST 20,IO PAGE FAIL WHILE INITIATING HIGH BYTE EVEN WORD WRAP-ARO
  1840	032167	036 00 0 00 040206 	UND,FALIO)
  1841	032170	035 00 0 00 032147 		ERLOOP	NPRC		;IF ERROR, LOOP TO NPRC
  1842	032171	365 05 0 00 032147 		SOJGE	T5,NPRC	;LOOP IF MORE TEST PATTERNS TO DO
  1843
  1844	032172	365 04 0 00 032146 		SOJGE	T4,NPRB	;LOOP IF WE WANT TO WRITE ON 0'S
  1845
  1846	032173	402 00 0 00 035253 	NPRD:	SETZM	IOPGFA		;RESET IO PAGE FAIL ADDRESS
  1847	032174	400 00 0 00 000000 		SETZ	T0,
  1848	032175	713 00 1 00 035637 		WRIO	@UBAMT		;RESET UBA TO NORMAL MODE
  1849						LPTST
  1850


DECSYSTEM 2020 UNIBUS ADAPTER EXERCISER, VERSION=0,4 	MACRO %53(1020) 09:46 12-Jul-79 Page 29
DSUBAM	MAC	28-Jun-79 10:11		DEVICE TESTS                                                                       SEQ 0070

  1851
  1852			040211			T=SIXBTZ<UBA WRAP-AROUND VIA ALL PAGES OF RAM>
  1853
  1854					; **********************************************************************
  1855					;* TEST 21 USES THE WRAP-AROUND MODE OF NPR TRANSFERS TO DO WRIO-NPR
  1856					;* TRANSFERS TO @MEMLOW FOR ALL PAGES OF THE UBA PAGING RAM. IF THE DATA
  1857					;* DOES NOT SHOW UP IN @MEMLOW, THEN AN EFFORT IS MADE TO SEE IF SOME OTHER
  1858					;* LOCATION WAS PERTURBED IN SOME FASHION. NOTE THAT THE NUMBER OF
  1859					;* THE PAGING RAM IS WRITTEN INTO THE LOCATION. AND SHOULD END UP IN
  1860					;* THE LH WORD, WITH THE ADDRESS IN THE RH.
  1861					; **********************************************************************
  1862
  1863	032203	201 00 0 00 032207 	TEST21:	MOVEI	PAGRA		;GET LOOP ADDRESS
  1864	032204	202 00 0 00 030051 		MOVEM	TESTPC		;AND STORE IN TESTPC
  1865	032205	201 00 0 00 032261 		MOVEI	PAGRQ		;GET PAGE FAIL ADDRESS
  1866	032206	202 00 0 00 035253 		MOVEM	IOPGFA		;AND STORE FOR I/O PAGE FAIL ROUTINE
  1867
  1868	032207	260 17 0 00 035202 	PAGRA:	GO	UBACLR		;RESET UNIBUS ADAPTER
  1869	032210	201 00 0 00 000001 		MOVEI	1
  1870	032211	713 00 1 00 035637 		WRIO	@UBAMT		;SET UBA TO MAINTENANCE MODE
  1871
  1872	032212	200 00 0 00 030144 		MOVE	MEMTOT		;GET MEMORY SIZE IN K.WORDS
  1873	032213	221 00 0 00 002000 		IMULI	^D1024		;CHANGE TO #WORDS
  1874	032214	360 00 0 00 000000 		SOJ
  1875	032215	202 00 0 00 035617 		MOVEM	MEMMAX		;AND STORE MEMORY SIZE IN "MEMMAX"
  1876
  1877	032216	201 05 0 00 000077 		MOVEI	T5,^D63		;INITIALIZE UBA PAGE NUMBER
  1878
  1879	032217	201 01 0 00 000077 	PAGRB:	MOVEI	T1,^D63		;INITIALIZE PAGE NUMBER FOR INVALIDATION
  1880	032220	200 02 0 00 035635 	PAGRC:	MOVE	T2,UBAPR	;GET THE BASE ADDRESS OF THE PAGING RAM
  1881	032221	270 02 0 00 000001 		ADD	T2,T1		;INCREMENT TO PAGE AT HAND
  1882	032222	400 00 0 00 000000 		SETZ
  1883	032223	713 00 1 00 000002 		WRIO	@T2		;INVALIDATE THE PAGE
  1884	032224	365 01 0 00 032220 		SOJGE	T1,PAGRC	;LOOP IF MORE PAGES TO KILL
  1885
  1886	032225	200 04 0 00 030145 		MOVE	T4,MEMLOW	;GET LOWEST USABLE MEMORY ADDRESS
  1887	032226	200 01 0 00 035635 	PAGRD:	MOVE	T1,UBAPR	;GET PAGING RAM BASE ADDRESS
  1888	032227	270 01 0 00 000005 		ADD	T1,T5		;INCREMENT TO PROPER PAGE NUMBER
  1889	032230	202 01 0 00 035613 		MOVEM	T1,WRKADR	;WRKADR	HAS THE PAGE IO ADDRESS


DECSYSTEM 2020 UNIBUS ADAPTER EXERCISER, VERSION=0,4 	MACRO %53(1020) 09:46 12-Jul-79 Page 30
DSUBAM	MAC	28-Jun-79 10:11		DEVICE TESTS                                                                       SEQ 0071

  1890	032231	260 17 0 00 034671 	PAGRE:	GO	ZERMEM		;ZERO OUT MEMORY
  1891	032232	7 010 24 0 00 000006 		CONI	PAG,6
  1892	032233	7 010 20 1 00 000006 		CONO	PAG,@6		;FLUSH CACHE FOR NPR XFER RESET
  1893	032234	200 01 0 00 000004 		MOVE	T1,T4		;GET MEMORY ADDRESS
  1894	032235	405 01 0 00 777000 		ANDI	T1,777000	;GET HIGH ORDER BITS
  1895	032236	242 01 0 00 777767 		LSH	T1,^D-9		;SHIFT TO RIGHT JUSTIFY IT
  1896	032237	271 01 0 00 040000 		ADDI	T1,040000	;ADD IN THE PAGE VALID BIT
  1897	032240	713 01 1 00 035613 		WRIO	T1,@WRKADR	;SET UP PAGE
  1898	032241	200 01 0 00 000004 		MOVE	T1,T4		;GET MEMORY ADDRESS AGAIN
  1899	032242	405 01 0 00 000777 		ANDI	T1,000777	;GET LOW ORDER BITS
  1900	032243	200 00 0 00 000005 		MOVE	T0,T5		;GET PAGE NUMBER
  1901	032244	242 00 0 00 000011 		LSH	T0,^D9		;AND SHIFT LEFT NINE PLACES
  1902	032245	270 01 0 00 000000 		ADD	T1,T0		;MAKE SURE PSUEDO I/O GOES TO PAGE #'T5'
  1903	032246	242 01 0 00 000002 		LSH	T1,^D2		;SHIFT TWO BITS FOR UNIBUS FORMAT
  1904	032247	500 01 0 00 035635 		HLL	T1,UBAPR	;PUT PROPER CONTROLLER NUMBER ON
  1905	032250	713 05 1 00 000001 		WRIO	T5,@T1		;SHOULD SET IT ALL OFF
  1906
  1907	032251	200 02 0 00 000004 		MOVE	T2,T4		;GET MEMORY ADDRESS
  1908	032252	504 02 0 00 000005 		HRL	T2,T5		;PUT IT INTO BOTH HALVES
  1909	032253	200 03 1 00 000004 		MOVE	T3,@T4		;SEE WHAT'S AT LOCATION 'T4'
  1910	032254	312 02 0 00 000003 		CAME	T2,T3		;SKIP IF OK
  1911	032255	036 13 0 00 040227 		ERROR(PAGRE,13,2,3,TEST 21,DATA INCORRECT ON WRAP AROUND,ERRMAX)
  1912	032256	035 00 0 00 032231 		ERLOOP	PAGRE		;IF ERROR, LOOP TO PAGRE
  1913
  1914	032257	365 05 0 00 032217 		SOJGE	T5,PAGRB	;LOOP IF MORE PAGES TO GO
  1915
  1916	032260	254 00 0 00 032263 		JRST	PAGRZ		;SKIP THE FOLLOWING ROUTINE
  1917	032261	036 00 0 00 040242 	PAGRQ:	ERROR(PAGRE,0,0,0,TEST 21,PAGE FAILURE WHILE DOING A WRAP AROUND XFER,PAGERR)
  1918	032262	035 00 0 00 032231 		ERLOOP	PAGRE		;IF ERROR, LOOP TO PAGRE
  1919
  1920	032263	402 00 0 00 035253 	PAGRZ:	SETZM	IOPGFA		;RESET IO PAGE FAIL ADDRESS
  1921	032264	400 00 0 00 000000 		SETZ	T0,
  1922	032265	713 00 1 00 035637 		WRIO	@UBAMT		;RE-SET UBA TO NORMAL MODE
  1923						LPTST
  1924


DECSYSTEM 2020 UNIBUS ADAPTER EXERCISER, VERSION=0,4 	MACRO %53(1020) 09:46 12-Jul-79 Page 31
DSUBAM	MAC	28-Jun-79 10:11		DEVICE TESTS                                                                       SEQ 0072

  1925
  1926			040245			T=SIXBTZ<UBA WRAP-AROUND FROM MEMLOW TO MEMMAX>
  1927
  1928					; **********************************************************************
  1929					;* TEST 22 USES THE WRAP-AROUND MODE TO WRITE INTO ALL KS10 MEMORY
  1930					;* LOCATIONS FROM MEMLOW TO MEMMAX. THIS TEST USES PAGING RAM LOCATION
  1931					;* ZERO EXCLUSIVELY, AND WRITES THE ADDRESS OF A LOCATION INTO EACH
  1932					;* LOCATION OF MEMORY. NOTE THAT THIS TEST ONLY DOES TRANSFERS TO A FEW
  1933					;* SELECT LOCATIONS, AND IF AN ERROR OCCURS THE PROGRAM WILL DETERMINE
  1934					;* IF ANOTHER MEMORY LOCATION WAS PERTURBED OR NOT.
  1935					; **********************************************************************
  1936
  1937	032273	201 00 0 00 032275 	TEST22:	MOVEI	AMAX		;GET LOOP ADDRESS
  1938	032274	202 00 0 00 030051 		MOVEM	TESTPC		;AND STORE IN TESTPC
  1939
  1940	032275	260 17 0 00 035202 	AMAX:	GO	UBACLR		;CLEAR UNIBUS ADAPTER
  1941	032276	201 05 0 00 000062 		MOVEI	T5,^D50		;INITIALIZE MEMORY ADDRESS TABLE INDEX
  1942	032277	201 00 0 00 000001 		MOVEI	1
  1943	032300	713 00 1 00 035637 		WRIO	@UBAMT		;SET UBA TO MAINTENANCE MODE
  1944	032301	200 00 0 00 030144 		MOVE	MEMTOT		;GET MEMORY SIZE IN K.WORDS
  1945	032302	221 00 0 00 002000 		IMULI	^D1024		;CHANGE TO #WORDS
  1946	032303	360 00 0 00 000000 		SOJ
  1947	032304	202 00 0 00 035617 		MOVEM	MEMMAX		;AND STORE MEMORY SIZE IN "MEMMAX"
  1948	032305	201 00 0 00 032365 		MOVEI	QMAX
  1949	032306	202 00 0 00 035253 		MOVEM	IOPGFA		;ADDRESS OF IO PAGE FAIL HANDLER
  1950
  1951	032307	260 17 0 00 034671 	BMAX:	GO	ZERMEM		;ZERO OUT ALL UNUSED MEMORY LOCATIONS
  1952
  1953	032310	200 04 0 05 035523 		MOVE	T4,MEMPAT(T5)	;GET TEST PATTERN
  1954	032311	404 04 0 00 035617 		AND	T4,MEMMAX	;KILL BITS IF TOO BIG
  1955	032312	315 04 0 00 030145 		CAMGE	T4,MEMLOW	;SKIP IF MEMORY ADDRESS IS NOT TOO SMALL
  1956	032313	254 00 0 00 032363 		JRST	DMAX		;OR TRY AGAIN
  1957	032314	307 04 0 00 377777 		CAIG	T4,377777	;SKIP IF SEGMENTATION NEEDED
  1958	032315	254 00 0 00 032321 		JRST	.+4
  1959	032316	200 00 0 00 000004 		MOVE	T0,T4		;GET MEMORY ADDRESS
  1960	032317	242 00 0 00 777757 		LSH	T0,^D-17	;SHIFT 17 PLACES TO THE RIGHT
  1961	032320	260 17 0 00 034654 		GO	SEGMEM		;SET UP MEMORY MAPPING
  1962
  1963	032321	200 00 0 00 000004 		MOVE	T0,T4		;GET THE ADDRESS OF INTEREST
  1964	032322	242 00 0 00 777767 		LSH	T0,^D-9		;SHIFT RIGHT 9 PLACES FOR UBA PAGING
  1965	032323	405 00 0 00 003777 		ANDI	T0,3777		;ONLY 11 BITS OF ADDRESS HERE!!
  1966	032324	271 00 0 00 040000 		ADDI	T0,040000	;ADD IN THE VALID BIT!
  1967	032325	713 00 1 00 035635 		WRIO	T0,@UBAPR	;AND SET IT UP IN THE PAGING RAM...
  1968
  1969	032326	200 00 0 00 000004 		MOVE	T0,T4		;GET MEMORY ADDRESS AGAIN
  1970	032327	405 00 0 00 000777 		ANDI	T0,000777	;WE ONLY WANT THE 9 LOW ORDER BITS
  1971	032330	242 00 0 00 000002 		LSH	T0,^D2		;SHIFT TWO PLACES LEFT FOR UNIBUS FORMAT
  1972	032331	500 00 0 00 035635 		HLL	T0,UBAPR	;SET UP CORRECT UBA NUMBER
  1973	032332	202 00 0 00 035613 		MOVEM	T0,WRKADR	;AND STORE IN WRKADR
  1974	032333	713 04 1 00 035613 		WRIO	T4,@WRKADR	;SET OFF THE ENTIRE WRAP-AROUND PROCESS
  1975
  1976	032334	201 00 0 00 000010 		MOVEI	10
  1977	032335	365 00 0 00 032335 		SOJGE	.
  1978	032336	303 04 0 00 377777 		CAILE	T4,377777	;SKIP IF LOWEST ORDER SEGMENT
  1979	032337	254 00 0 00 032342 		JRST	.+3		;ELSE SKIP FOLLOWING


DECSYSTEM 2020 UNIBUS ADAPTER EXERCISER, VERSION=0,4 	MACRO %53(1020) 09:46 12-Jul-79 Page 31-1
DSUBAM	MAC	28-Jun-79 10:11		DEVICE TESTS                                                                       SEQ 0073

  1980	032340	200 03 1 00 000004 		MOVE	T3,@T4		;GET DATA FROM MEMORY
  1981	032341	254 00 0 00 032356 		JRST	CMAX
  1982
  1983	032342	200 06 0 00 000004 		MOVE	T6,T4
  1984	032343	242 06 0 00 777757 		LSH	T6,^D-17
  1985	032344	405 06 0 00 000001 		ANDI	T6,1
  1986	032345	326 06 0 00 032353 		JUMPN	T6,CLUGE
  1987
  1988	032346	550 06 0 00 000004 		HRRZ	T6,T4
  1989	032347	271 06 0 00 400000 		ADDI	T6,400000
  1990	032350	405 06 0 00 777777 		ANDI	T6,777777
  1991	032351	200 03 1 00 000006 		MOVE	T3,@T6
  1992	032352	254 00 0 00 032356 		JRST	CMAX
  1993
  1994	032353	200 06 0 00 000004 	CLUGE:	MOVE	T6,T4		;GET MEMORY ADDRESS
  1995	032354	405 06 0 00 777777 		ANDI	T6,777777	;AND MASK IT OUT
  1996	032355	200 03 1 00 000006 		MOVE	T3,@T6		;HOPEFULLY MEMORY MAPPING IS OK
  1997
  1998	032356	540 02 0 00 000004 	CMAX:	HRR	T2,T4		;SETUP EXPECTED DATA
  1999	032357	504 02 0 00 000002 		HRL	T2,T2
  2000	032360	312 02 0 00 000003 		CAME	T2,T3		;SKIP IF OK
  2001	032361	036 13 0 00 040264 		ERROR(BMAX,13,2,3,TEST 22,DATA DID NOT WRAPAROUND CORRECTLY,ERRMAX)
  2002	032362	035 00 0 00 032307 		ERLOOP	BMAX		;IF ERROR, LOOP TO BMAX
  2003
  2004	032363	365 05 0 00 032307 	DMAX:	SOJGE	T5,BMAX		;LOOP IF MORE MEMORY LOCATIONS TO GO
  2005
  2006	032364	254 00 0 00 032367 		JRST	EMAX
  2007	032365				QMAX:	ERROR(BMAX,0,0,0,TEST 22,IO PAGE FAILURE OCCURRED WHILE DOING A WRIO-NPR WRAP-AROUN
  2008	032365	036 00 0 00 040301 	D,ERR21)
  2009	032366	035 00 0 00 032307 		ERLOOP	BMAX		;IF ERROR, LOOP TO BMAX
  2010
  2011	032367	402 00 0 00 035253 	EMAX:	SETZM	IOPGFA
  2012	032370	400 00 0 00 000000 		SETZ	T0,
  2013	032371	713 00 1 00 035637 		WRIO	@UBAMT		;RE-SET UBA TO NORMAL MODE
  2014	032372	201 00 0 00 000001 		MOVEI	1
  2015	032373	260 17 0 00 034654 		GO	SEGMEM		;SET UP MEMORY MAPPING
  2016						LPTST
  2017


DECSYSTEM 2020 UNIBUS ADAPTER EXERCISER, VERSION=0,4 	MACRO %53(1020) 09:46 12-Jul-79 Page 32
DSUBAM	MAC	28-Jun-79 10:11		DEVICE TESTS                                                                       SEQ 0074

  2018
  2019			040304			T=SIXBTZ<UBA BRUTE FORCE WRAP-AROUND FROM MEMLOW TO MEMMAX>
  2020
  2021					; **********************************************************************
  2022					;* TEST 23 USES THE WRAP-AROUND MODE TO WRITE INTO ALL KS10 MEMORY
  2023					;* LOCATIONS FROM MEMLOW TO MEMMAX. THIS TEST USES PAGING RAM LOCATION
  2024					;* ZERO EXCLUSIVELY, AND WRITES THE ADDRESS OF A LOCATION INTO EACH
  2025					;* LOCATION OF MEMORY. THERE IS NO ATTEMPT TO REZERO MEMORY OR
  2026					;* REFLUSH CACHE AFTER EACH WRITE.  NOTE: TEST XFERS TO 256 K. MAX.
  2027					; **********************************************************************
  2028
  2029	032401	201 00 0 00 032403 	TEST23:	MOVEI	AMAXBT		;GET LOOP ADDRESS
  2030	032402	202 00 0 00 030051 		MOVEM	TESTPC		;AND STORE IN TESTPC
  2031
  2032	032403	260 17 0 00 035202 	AMAXBT:	GO	UBACLR		;CLEAR UNIBUS ADAPTER
  2033	032404	200 04 0 00 030145 		MOVE	T4,MEMLOW	;SET T4 TO LOWEST USABLE MEMORY
  2034	032405	201 00 0 00 000001 		MOVEI	1
  2035	032406	713 00 1 00 035637 		WRIO	@UBAMT		;SET UBA TO MAINTENANCE MODE
  2036	032407	200 00 0 00 030144 		MOVE	MEMTOT		;GET MEMORY SIZE IN K.WORDS
  2037	032410	221 00 0 00 002000 		IMULI	^D1024		;CHANGE TO #WORDS
  2038	032411	360 00 0 00 000000 		SOJ
  2039	032412	202 00 0 00 035617 		MOVEM	MEMMAX		;AND STORE MEMORY SIZE IN "MEMMAX"
  2040	032413	260 17 0 00 034671 		GO	ZERMEM		;ZERO OUT MEMORY
  2041	032414	201 00 0 00 000001 		MOVEI	1
  2042	032415	260 17 0 00 034654 		GO	SEGMEM		;SET UP MEMORY MAPPING
  2043	032416	201 00 0 00 032451 		MOVEI	QMAXBT
  2044	032417	202 00 0 00 035253 		MOVEM	IOPGFA
  2045
  2046	032420	200 00 0 00 000004 	BMAXBT:	MOVE	T0,T4		;GET ADDRESS OF CURRENT MEMORY LOCATION
  2047	032421	405 00 0 00 777000 		ANDI	777000		;GET HIGH ORDER BITS
  2048	032422	242 00 0 00 777767 		LSH	^D-9		;FORMAT TO UNIBUS CONVENTION
  2049	032423	271 00 0 00 040000 		ADDI	040000		;ADD IN DATA VALID BIT
  2050	032424	713 00 1 00 035635 		WRIO	@UBAPR		;AND WRITE IT ALL INTO PAGING RAM
  2051	032425	200 00 0 00 000004 		MOVE	T0,T4		;GET MEMORY ADDRESS AGAIN
  2052	032426	405 00 0 00 000777 		ANDI	000777		;GET LOW ORDER ADDRESS BITS
  2053	032427	242 00 0 00 000002 		LSH	^D2		;SHIFT FOR UNIBUS CONVENTION AGAIN
  2054	032430	500 00 0 00 035635 		HLL	UBAPR		;PUT PROPER CONTROLLER NUMBER ON
  2055	032431	202 00 0 00 035613 		MOVEM	WRKADR		;AND STORE I/O ADDRESS IN WRKADR
  2056	032432	713 04 1 00 035613 		WRIO	T4,@WRKADR	;WRITE ADDRESS INTO LOCATION
  2057	032433	201 00 0 00 000010 		MOVEI	10
  2058	032434	365 00 0 00 032434 		SOJGE	.		;WAIT A BIT
  2059	032435	200 03 1 00 000004 		MOVE	T3,@T4		;GET RESULTS
  2060	032436	200 02 0 00 000004 		MOVE	T2,T4
  2061	032437	504 02 0 00 000002 		HRL	T2,T2		;SET UP EXPECTED VALUES
  2062	032440	312 02 0 00 000003 		CAME	T2,T3		;SKIP IF ACTUAL = EXPECTED
  2063	032441	036 13 0 00 040317 		ERROR(BMAXBT,13,2,3,TEST 23,DATA DID NOT WRAPAROUND CORRECTLY)
  2064	032442	035 00 0 00 032420 		ERLOOP	BMAXBT		;IF ERROR, LOOP TO BMAXBT
  2065	032443	340 04 0 00 000000 		AOJ	T4,		;INCREMENT MEMORY ADDRESS
  2066	032444	303 04 0 00 777777 		CAILE	T4,777777	;THIS TEST ONLY GOES UP TO 256 K. WORDS
  2067	032445	254 00 0 00 032453 		JRST	CMAXBT
  2068	032446	317 04 0 00 035617 		CAMG	T4,MEMMAX	;SKIP IF ALL DONE
  2069	032447	254 00 0 00 032420 		JRST	BMAXBT		;ELSE CONTINUE
  2070
  2071	032450	254 00 0 00 032453 		JRST	CMAXBT
  2072


DECSYSTEM 2020 UNIBUS ADAPTER EXERCISER, VERSION=0,4 	MACRO %53(1020) 09:46 12-Jul-79 Page 32-1
DSUBAM	MAC	28-Jun-79 10:11		DEVICE TESTS                                                                       SEQ 0075

  2073	032451	036 00 0 00 040332 	QMAXBT:	ERROR(BMAXBT,0,0,0,TEST 23,IO PAGE FAILURE ON A WRIO-NPR WRAP-AROUND XFER,ERR21)
  2074	032452	035 00 0 00 032420 		ERLOOP	BMAXBT		;IF ERROR, LOOP TO BMAXBT
  2075
  2076	032453	402 00 0 00 035253 	CMAXBT:	SETZM	IOPGFA
  2077	032454	400 00 0 00 000000 		SETZ	T0,
  2078	032455	713 00 1 00 035637 		WRIO	@UBAMT		;RE-SET UBA TO NORMAL MODE
  2079						LPTST
  2080


DECSYSTEM 2020 UNIBUS ADAPTER EXERCISER, VERSION=0,4 	MACRO %53(1020) 09:46 12-Jul-79 Page 33
DSUBAM	MAC	28-Jun-79 10:11		DEVICE TESTS                                                                       SEQ 0076

  2081
  2082			040335			T=SIXBTZ<UBA UPPER TWO BIT XFER DISABLE CHECK>
  2083
  2084					; **********************************************************************
  2085					;* TEST24 CHECKS THAT THE UPPER TWO BITS OF UNIBUS DATA CAN BE DISABLED
  2086					;* WHEN THE DISABLE BIT IS SET IN THE PAGING RAM. AS A UNIBUS EXERCISER
  2087					;* CAN ONLY TRANSFER THE LOWER 16 BITS, THIS TEST MUST BE DONE IN
  2088					;* WRAP-AROUND MODE.
  2089					; **********************************************************************
  2090
  2091	032463	201 00 0 00 032465 	TEST24:	MOVEI	AUPPER		;GET LOOP ADDRESS
  2092	032464	202 00 0 00 030051 		MOVEM	TESTPC		;AND STORE IN TESTPC
  2093
  2094	032465	260 17 0 00 035202 	AUPPER:	GO	UBACLR		;CLEAR OUT UBA
  2095	032466	201 07 0 00 200000 		MOVEI	T7,200000	;GET DISABLE BIT
  2096	032467	260 17 0 00 035407 		GO	WAPSET		;SET UP UBAPR AND WRKADR
  2097	032470	201 00 0 00 000001 		MOVEI	1
  2098	032471	713 00 1 00 035637 		WRIO	@UBAMT		;SET UBA TO MAINTENANCE MODE
  2099	032472	201 00 0 00 032510 		MOVEI	QUPPER
  2100	032473	202 00 0 00 035253 		MOVEM	IOPGFA
  2101	032474	402 00 1 00 030145 		SETZM	@MEMLOW		;ZERO OUT LOCATION TO BE WRITTEN TO
  2102
  2103	032475	201 02 0 00 777777 		MOVEI	T2,777777	;GET A FULL 18 BITS OF DATA
  2104	032476	713 02 1 00 035613 		WRIO	T2,@WRKADR	;SHOULD WRAP-AROUND INTO @MEMLOW
  2105	032477	7 010 24 0 00 000006 		CONI	PAG,6
  2106	032500	7 010 20 1 00 000006 		CONO	PAG,@6		;FLUSH CACHE FOR NPR XFER RESET
  2107	032501	515 02 0 00 177777 		HRLZI	T2,177777	;PATTERN MINUS TWO BITS
  2108	032502	270 02 0 00 030145 		ADD	T2,MEMLOW	;THE UBA THROWS BACK ADDRESS BITS FREE!!
  2109	032503	200 03 1 00 030145 		MOVE	T3,@MEMLOW	;SEE WHAT THE UBA THREW BACK AT US
  2110	032504	312 02 0 00 000003 		CAME	T2,T3		;SKIP IF OK
  2111	032505	036 13 0 00 040347 		ERROR(AUPPER,13,2,3,TEST24, )
  2112	032506	035 00 0 00 032465 		ERLOOP	AUPPER		;IF ERROR, LOOP TO AUPPER
  2113
  2114	032507	254 00 0 00 032512 		JRST	BUPPER
  2115
  2116	032510	036 00 0 00 040365 	QUPPER:	ERROR(AUPPER,0,0,0,IO PAGE FAILURE OCCURRED ON A WRIO-NPR WRAP-AROUND XFER,FALIO)
  2117	032511	035 00 0 00 032465 		ERLOOP	AUPPER		;IF ERROR, LOOP TO AUPPER
  2118
  2119	032512	402 00 0 00 035253 	BUPPER:	SETZM	IOPGFA
  2120	032513	400 00 0 00 000000 		SETZ	T0,
  2121	032514	713 00 1 00 035637 		WRIO	@UBAMT		;RE-SET UBA TO NORMAL MODE
  2122						LPTST
  2123
  2124
  2125
  2126					;------------------------------------------------------------
  2127					;SKIP EXERCISER MEDIATED TESTS IF STAND-ALONE MODE IS INDICATED:
  2128	032522	037 10 0 00 000002 		SWITCH			;GET CONSOLE SWITCHES
  2129	032523	602 00 0 00 100000 		TRNE	STANDA		;UBA STAND-ALONE MODE??
  2130	032524	254 00 0 00 034205 		JRST	FINISH		;YES! SKIP EXERCISER MEDIATED TESTS.
  2131
  2132	032525	200 00 0 00 035616 		MOVE	T0,UEXORN	;JUST HOW MANY EXERCISERS DO WE HAVE??
  2133	032526	327 00 0 00 032531 		JUMPG	T0,TEST25	;GO TO NEXT TEST IF WE HAVE SOME
  2134						PNTMSF	[ASCIZ/
  2135					***** WARNING: NO EXERCISERS ON BUS,-UBE MEDIATED TESTS ABORTED *****


DECSYSTEM 2020 UNIBUS ADAPTER EXERCISER, VERSION=0,4 	MACRO %53(1020) 09:46 12-Jul-79 Page 33-1
DSUBAM	MAC	28-Jun-79 10:11		DEVICE TESTS                                                                       SEQ 0077

  2136	032527	037 01 0 00 040370 	/]
  2137	032530	254 00 0 00 034205 		JRST	FINISH		;AND SKIP TO END OF PASS
  2138					;------------------------------------------------------------


DECSYSTEM 2020 UNIBUS ADAPTER EXERCISER, VERSION=0,4 	MACRO %53(1020) 09:46 12-Jul-79 Page 34
DSUBAM	MAC	28-Jun-79 10:11		DEVICE TESTS                                                                       SEQ 0078

  2139
  2140			040407			T=SIXBTZ<UBE REGISTER ACCESSING>
  2141
  2142					; **********************************************************************
  2143					;* TEST 25 CHECKS THAT THE I/O REGISTERS OF THE UNIBUS EXERCISERS CAN
  2144					;* BE SUCCESSFULLY ACCESSED WITHOUT CAUSING I/O PAGE FAILS.
  2145					;* NOTE: IF THIS TEST FAILS, ALL OTHER UBE TESTS ARE ABORTED.
  2146					; **********************************************************************
  2147
  2148	032531	201 00 0 00 032534 	TEST25:	MOVEI	AIOREG		;GET LOOP ADDRESS
  2149	032532	202 00 0 00 030051 		MOVEM	TESTPC		;AND STORE IN TESTPC
  2150	032533	402 00 0 00 035606 		SETZM	ABORTE		;ZERO OUT UBE TEST ABORT FLAG
  2151
  2152	032534	200 01 0 00 035616 	AIOREG:	MOVE	T1,UEXORN	;GET NUMBER OF EXERCISERS ON BUS
  2153	032535	221 01 0 00 000005 		IMULI	T1,5		;EACH UBE HAS 5 I/O REGISTERS
  2154	032536	360 01 0 00 000000 		SOJ	T1,		;SUBTRACT ONE FOR INDEXING
  2155	032537	201 00 0 00 032547 		MOVEI	CIOREG		;GET I/O PAGE FAIL RETURN ADDRESS
  2156	032540	202 00 0 00 035253 		MOVEM	IOPGFA		;AND STORE IN LOCATION IOPGFA
  2157
  2158	032541	200 00 0 01 035643 	BIOREG:	MOVE	UBEDB1(T1)	;GET I/O REGISTER ADDRESS
  2159	032542	202 00 0 00 035613 		MOVEM	WRKADR		;AND STORE IN WRKADR
  2160	032543	712 00 1 00 035613 		RDIO	@WRKADR		;SHOULDN'T CAUSE A PAGE FAIL
  2161	032544	400 00 0 00 000000 		SETZ
  2162	032545	713 00 1 00 035613 		WRIO	@WRKADR		;THIS SHOULDN'T CAUSE A PAGE FAIL
  2163	032546	314 00 0 00 000000 		CAMA			;SKIP ALWAYS,-NO PAGE FAIL
  2164	032547	036 00 0 00 040422 	CIOREG:	ERROR(BIOREG,0,0,0,TEST 25,UBE REGISTER I-O PAGE FAIL,ERR21)
  2165	032550	035 00 0 00 032541 		ERLOOP	BIOREG		;IF ERROR, LOOP TO BIOREG
  2166
  2167	032551	365 01 0 00 032541 		SOJGE	T1,BIOREG	;LOOP IF MORE REGISTERS TO ACCESS
  2168
  2169
  2170	032552	402 00 0 00 035253 	DIOREG:	SETZM	IOPGFA		;RESET I/O PAGE FAIL HANDLER
  2171						LPTST
  2172
  2173
  2174
  2175					;------------------------------------------------------------
  2176	032560	200 00 0 00 035606 		MOVE	ABORTE		;SKIP REMAINING TESTS?
  2177	032561	322 00 0 00 032564 		JUMPE	TEST26		;NO!!
  2178						PNTMSF	[ASCIZ/
  2179					***** FATAL ERROR- REMAINING UBE MEDIATED TESTS ABORTED *****
  2180	032562	037 01 0 00 040425 	/]
  2181	032563	254 00 0 00 034205 		JRST	FINISH		;SKIP TO END OF PASS
  2182					;------------------------------------------------------------

DECSYSTEM 2020 UNIBUS ADAPTER EXERCISER, VERSION=0,4 	MACRO %53(1020) 09:46 12-Jul-79 Page 35
DSUBAM	MAC	28-Jun-79 10:11		DEVICE TESTS                                                                       SEQ 0079

  2183
  2184			040443			T=SIXBTZ<UBE DATA REGISTER RDIO-WRIO CHECK>
  2185
  2186					; **********************************************************************
  2187					;* TEST 26 CHECKS THAT THE DATA REGISTER OF ALL THE UBE'S ON THE UNIBUS CAN
  2188					;* BE WRITTEN INTO AND READ FROM WITHOUT LOSING ANY DATA.
  2189					; **********************************************************************
  2190
  2191	032564	201 00 0 00 032566 	TEST26:	MOVEI	ALPHA		;GET LOOP ADDRESS
  2192	032565	202 00 0 00 030051 		MOVEM	TESTPC		;AND STORE IN TESTPC
  2193
  2194	032566	402 00 0 00 035606 	ALPHA:	SETZM	ABORTE		;RESET UBE TEST ABORT FLAG
  2195	032567	260 17 0 00 035202 		GO	UBACLR		;INITIALIZE UBA
  2196
  2197
  2198	032570	200 01 0 00 035616 		MOVE	T1,UEXORN	;GET NUMBER OF EXERCISERS ON BUS
  2199	032571	200 04 0 00 000001 	BETA:	MOVE	T4,T1		;MOVE #UBE'S INTO T4
  2200	032572	360 04 0 00 000000 		SOJ	T4,
  2201	032573	221 04 0 00 000005 		IMULI	T4,5		;T4 NOW HAS INDEX FOR UBE TABLE
  2202	032574	201 11 0 00 177777 		MOVEI	TMASK,177777	;SET UP MASK AC FOR 16 BIT XFERS
  2203	032575	201 05 0 00 000074 		MOVEI	T5,^D60		;INITIALIZE PATTERN TABLE INDEX
  2204	032576	200 00 0 04 035643 		MOVE	UBEDB1(T4)	;GET UBE DATA REGISTER ADDRESS
  2205	032577	202 00 0 00 035613 		MOVEM	WRKADR		;AND STORE IN WRKADR
  2206
  2207	032600	200 02 0 05 035426 	GAMMA:	MOVE	T2,PATTY(T5)	;GET TEST PATTERN
  2208	032601	404 02 0 00 000011 		AND	T2,TMASK	;FORMAT TO 16 BITS
  2209	032602	713 02 1 00 035613 		WRIO	T2,@WRKADR	;WRITE TO UBE REG.
  2210	032603	712 03 1 00 035613 		RDIO	T3,@WRKADR	;AND READ IT BACK
  2211	032604	312 02 0 00 000003 		CAME	T2,T3		;SKIP IF OK
  2212	032605	036 13 0 00 040461 		ERROR(GAMMA,13,2,3,TEST 26,ERROR IN UBE DATA REGISTER CHECK,ERR22)
  2213	032606	035 00 0 00 032600 		ERLOOP	GAMMA		;IF ERROR, LOOP TO GAMMA
  2214
  2215	032607	365 05 0 00 032600 		SOJGE	T5,GAMMA	;LOOP IF MORE TEST PATTERNS TO GO
  2216
  2217	032610	367 01 0 00 032571 		SOJG	T1,BETA		;LOOP IF MORE UBE'S TO DO
  2218
  2219	032611				DELTA:	LPTST
  2220


DECSYSTEM 2020 UNIBUS ADAPTER EXERCISER, VERSION=0,4 	MACRO %53(1020) 09:46 12-Jul-79 Page 36
DSUBAM	MAC	28-Jun-79 10:11		DEVICE TESTS                                                                       SEQ 0080

  2221
  2222			040464			T=SIXBTZ<UBE CYCLE COUNT REGISTER RDIO-WRIO CHECK>
  2223
  2224					; **********************************************************************
  2225					;* TEST 27 IS SIMILAR TO TEST #25, EXCEPT THAT IT CHECKS THE DATA PATHS TO THE
  2226					;* UBE CYCLE COUNT REGISTERS.
  2227					; **********************************************************************
  2228
  2229	032616	201 00 0 00 032620 	TEST27:	MOVEI	ACYCLE		;GET LOOP ADDRESS
  2230	032617	202 00 0 00 030051 		MOVEM	TESTPC		;AND STORE IN TESTPC
  2231
  2232	032620	260 17 0 00 035202 	ACYCLE:	GO	UBACLR		;RESET UBA
  2233
  2234	032621	200 01 0 00 035616 		MOVE	T1,UEXORN	;GET NUMBER OF EXERCISERS ON BUS
  2235	032622	200 04 0 00 000001 	BCYCLE:	MOVE	T4,T1		;MOVE #UBE'S INTO T4
  2236	032623	360 04 0 00 000000 		SOJ	T4,
  2237	032624	221 04 0 00 000005 		IMULI	T4,5		;T4 NOW HAS INDEX FOR UBE TABLE
  2238	032625	201 05 0 00 000074 		MOVEI	T5,^D60		;INITIALIZE PATTERN TABLE INDEX
  2239	032626	200 00 0 04 035644 		MOVE	UBECC1(T4)	;GET UBE CYCLE COUNT REG.ADDRESS
  2240	032627	202 00 0 00 035613 		MOVEM	WRKADR		;AND STORE IN WRKADR
  2241	032630	201 11 0 00 177777 		MOVEI	TMASK,177777	;SET UP MASK AC FOR 16 BIT XFERS
  2242
  2243	032631	200 02 0 05 035426 	CCYCLE:	MOVE	T2,PATTY(T5)	;GET TEST PATTERN
  2244	032632	404 02 0 00 000011 		AND	T2,TMASK	;FORMAT TO 16 BITS
  2245	032633	713 02 1 00 035613 		WRIO	T2,@WRKADR	;WRITE TO UBE REG.
  2246	032634	712 03 1 00 035613 		RDIO	T3,@WRKADR	;AND READ IT BACK
  2247	032635	312 02 0 00 000003 		CAME	T2,T3		;SKIP IF OK
  2248	032636	036 13 0 00 040504 		ERROR(CCYCLE,13,2,3,TEST 27,ERROR IN UBE CYCLE COUNT REGISTER CHECK,ERR22)
  2249	032637	035 00 0 00 032631 		ERLOOP	CCYCLE		;IF ERROR, LOOP TO CCYCLE
  2250
  2251	032640	365 05 0 00 032631 		SOJGE	T5,CCYCLE	;LOOP IF MORE TEST PATTERNS TO GO
  2252
  2253	032641	367 01 0 00 032622 		SOJG	T1,BCYCLE	;LOOP IF MORE UBE'S TO DO
  2254
  2255	032642				DCYCLE:	LPTST
  2256


DECSYSTEM 2020 UNIBUS ADAPTER EXERCISER, VERSION=0,4 	MACRO %53(1020) 09:46 12-Jul-79 Page 37
DSUBAM	MAC	28-Jun-79 10:11		DEVICE TESTS                                                                       SEQ 0081

  2257
  2258			040507			T=SIXBTZ<UBE ADDRESS REGISTER RDIO-WRIO CHECK>
  2259
  2260					; **********************************************************************
  2261					;* TEST 30 IS SIMILAR TO TEST #25, EXCEPT THAT IT CHECKS OUT THE UBA ADDRESS
  2262					;* REGISTER DATA PATHS.
  2263					; **********************************************************************
  2264
  2265	032647	201 00 0 00 032651 	TEST30:	MOVEI	ADRESS		;GET LOOP ADDRESS
  2266	032650	202 00 0 00 030051 		MOVEM	TESTPC		;AND STORE IN TESTPC
  2267
  2268	032651	260 17 0 00 035202 	ADRESS:	GO	UBACLR		;RESET UBA
  2269
  2270	032652	200 01 0 00 035616 		MOVE	T1,UEXORN	;GET NUMBER OF EXERCISERS ON BUS
  2271	032653	200 04 0 00 000001 	BDRESS:	MOVE	T4,T1		;MOVE #UBE'S INTO T4
  2272	032654	360 04 0 00 000000 		SOJ	T4,
  2273	032655	221 04 0 00 000005 		IMULI	T4,5		;T4 NOW HAS INDEX FOR UBE TABLE
  2274	032656	201 05 0 00 000074 		MOVEI	T5,^D60		;INITIALIZE PATTERN TABLE INDEX
  2275	032657	200 00 0 04 035645 		MOVE	UBEBA1(T4)	;GET UBE ADDRESS REGISTER ADDRESS
  2276	032660	202 00 0 00 035613 		MOVEM	WRKADR		;AND STORE IN WRKADR
  2277	032661	201 11 0 00 177777 		MOVEI	TMASK,177777	;SET UP MASK AC FOR 16 BIT XFERS
  2278
  2279	032662	200 02 0 05 035426 	CDRESS:	MOVE	T2,PATTY(T5)	;GET TEST PATTERN
  2280	032663	404 02 0 00 000011 		AND	T2,TMASK	;FORMAT TO 16 BITS
  2281	032664	713 02 1 00 035613 		WRIO	T2,@WRKADR	;WRITE TO UBE REG.
  2282	032665	712 03 1 00 035613 		RDIO	T3,@WRKADR	;AND READ IT BACK
  2283	032666	312 02 0 00 000003 		CAME	T2,T3		;SKIP IF OK
  2284	032667	036 13 0 00 040526 		ERROR(CDRESS,13,2,3,TEST 30,ERROR IN UBE ADDRESS REGISTER CHECK,ERR22)
  2285	032670	035 00 0 00 032662 		ERLOOP	CDRESS		;IF ERROR, LOOP TO CDRESS
  2286
  2287	032671	365 05 0 00 032662 		SOJGE	T5,CDRESS	;LOOP IF MORE TEST PATTERNS TO GO
  2288
  2289	032672	367 01 0 00 032653 		SOJG	T1,BDRESS	;LOOP IF MORE UBE'S TO DO
  2290
  2291	032673				DDRESS:	LPTST
  2292


DECSYSTEM 2020 UNIBUS ADAPTER EXERCISER, VERSION=0,4 	MACRO %53(1020) 09:46 12-Jul-79 Page 38
DSUBAM	MAC	28-Jun-79 10:11		DEVICE TESTS                                                                       SEQ 0082

  2293
  2294			040531			T=SIXBTZ<UBE CONTROL REGISTER 1 RDIO-WRIO CHECK>
  2295
  2296					; **********************************************************************
  2297					;* TEST 31 IS SIMILAR TO TEST #25, EXCEPT THAT IT CHECKS OUT THE DATA PATH TO
  2298					;* THE UBE CONTROL REGISTER #1.
  2299					; **********************************************************************
  2300
  2301	032700	201 00 0 00 032702 	TEST31:	MOVEI	ACONT1		;GET LOOP ADDRESS
  2302	032701	202 00 0 00 030051 		MOVEM	TESTPC		;AND STORE IN TESTPC
  2303
  2304	032702	260 17 0 00 035202 	ACONT1:	GO	UBACLR		;RESET UBA
  2305
  2306	032703	200 01 0 00 035616 		MOVE	T1,UEXORN	;GET NUMBER OF EXERCISERS ON BUS
  2307	032704	200 04 0 00 000001 	BCONT1:	MOVE	T4,T1		;MOVE #UBE'S INTO T4
  2308	032705	360 04 0 00 000000 		SOJ	T4,
  2309	032706	221 04 0 00 000005 		IMULI	T4,5		;T4 NOW HAS INDEX FOR UBE TABLE
  2310	032707	201 05 0 00 000074 		MOVEI	T5,^D60		;INITIALIZE PATTERN TABLE INDEX
  2311	032710	200 00 0 04 035646 		MOVE	UBEC1A(T4)	;GET UBE CONTROL REGISTER#1 ADDRESS
  2312	032711	202 00 0 00 035613 		MOVEM	WRKADR		;AND STORE IN WRKADR
  2313	032712	201 11 0 00 077576 		MOVEI	TMASK,077576	;SET UP MASK AC
  2314
  2315	032713	200 02 0 05 035426 	CCONT1:	MOVE	T2,PATTY(T5)	;GET TEST PATTERN
  2316	032714	404 02 0 00 000011 		AND	T2,TMASK	;FORMAT TO 16 BITS
  2317	032715	713 02 1 00 035613 		WRIO	T2,@WRKADR	;WRITE TO UBE REG.
  2318	032716	712 03 1 00 035613 		RDIO	T3,@WRKADR	;AND READ IT BACK
  2319	032717	404 03 0 00 000011 		AND	T3,TMASK	;AVOID KILLER BITS
  2320	032720	312 02 0 00 000003 		CAME	T2,T3		;SKIP IF OK
  2321	032721	036 13 0 00 040551 		ERROR(CCONT1,13,2,3,TEST 31,ERROR IN UBE CONTROL REGISTER #1 CHECK,ERR22)
  2322	032722	035 00 0 00 032713 		ERLOOP	CCONT1		;IF ERROR, LOOP TO CCONT1
  2323
  2324	032723	365 05 0 00 032713 		SOJGE	T5,CCONT1	;LOOP IF MORE TEST PATTERNS TO GO
  2325
  2326	032724	367 01 0 00 032704 		SOJG	T1,BCONT1	;LOOP IF MORE UBE'S TO DO
  2327
  2328	032725				DCONT1:	LPTST
  2329


DECSYSTEM 2020 UNIBUS ADAPTER EXERCISER, VERSION=0,4 	MACRO %53(1020) 09:46 12-Jul-79 Page 39
DSUBAM	MAC	28-Jun-79 10:11		DEVICE TESTS                                                                       SEQ 0083

  2330
  2331			040554			T=SIXBTZ<UBE CONTROL REGISTER 2 RDIO-WRIO CHECK>
  2332
  2333					; **********************************************************************
  2334					;* TEST 32 IS SIMILAR TO TEST #25, EXCEPT THAT IT CHECKS OUT THE DATA PATH TO
  2335					;* THE R/W BITS OF THE UBE CONTROL REGISTER #2.
  2336					; **********************************************************************
  2337
  2338	032732	201 00 0 00 032734 	TEST32:	MOVEI	ACONT2		;GET LOOP ADDRESS
  2339	032733	202 00 0 00 030051 		MOVEM	TESTPC		;AND STORE IN TESTPC
  2340
  2341	032734	260 17 0 00 035202 	ACONT2:	GO	UBACLR		;RESET UBA
  2342
  2343	032735	200 01 0 00 035616 		MOVE	T1,UEXORN	;GET NUMBER OF EXERCISERS ON BUS
  2344	032736	200 04 0 00 000001 	BCONT2:	MOVE	T4,T1		;MOVE #UBE'S INTO T4
  2345	032737	360 04 0 00 000000 		SOJ	T4,
  2346	032740	221 04 0 00 000005 		IMULI	T4,5		;T4 NOW HAS INDEX FOR UBE TABLE
  2347	032741	201 05 0 00 000074 		MOVEI	T5,^D60		;INITIALIZE PATTERN TABLE INDEX
  2348	032742	200 00 0 04 035647 		MOVE	UBEC1B(T4)	;GET UBE CONTROL REGISTER #2 ADDRESS
  2349	032743	202 00 0 00 035613 		MOVEM	WRKADR		;AND STORE IN WRKADR
  2350	032744	201 11 0 00 000017 		MOVEI	TMASK,000017	;SET UP MASK AC
  2351
  2352	032745	200 02 0 05 035426 	CCONT2:	MOVE	T2,PATTY(T5)	;GET TEST PATTERN
  2353	032746	404 02 0 00 000011 		AND	T2,TMASK	;FORMAT TO 16 BITS
  2354	032747	713 02 1 00 035613 		WRIO	T2,@WRKADR	;WRITE TO UBE REG.
  2355	032750	712 03 1 00 035613 		RDIO	T3,@WRKADR	;AND READ IT BACK
  2356	032751	404 03 0 00 000011 		AND	T3,TMASK	;AVOID LOOKING AT NASTY BITS
  2357	032752	312 02 0 00 000003 		CAME	T2,T3		;SKIP IF OK
  2358	032753	036 13 0 00 040574 		ERROR(CCONT2,13,2,3,TEST 32,ERROR IN UBE CONTROL REGISTER #2 CHECK,ERR22)
  2359	032754	035 00 0 00 032745 		ERLOOP	CCONT2		;IF ERROR, LOOP TO CCONT2
  2360
  2361	032755	365 05 0 00 032745 		SOJGE	T5,CCONT2	;LOOP IF MORE TEST PATTERNS TO GO
  2362
  2363	032756	367 01 0 00 032736 		SOJG	T1,BCONT2	;LOOP IF MORE UBE'S TO DO
  2364
  2365	032757				DCONT2:	LPTST
  2366


DECSYSTEM 2020 UNIBUS ADAPTER EXERCISER, VERSION=0,4 	MACRO %53(1020) 09:46 12-Jul-79 Page 40
DSUBAM	MAC	28-Jun-79 10:11		DEVICE TESTS                                                                       SEQ 0084

  2367
  2368					;------------------------------------------------------------
  2369	032764	200 00 0 00 035606 		MOVE	T0,ABORTE	;ABORT REMAINING TESTS??
  2370	032765	322 00 0 00 032770 		JUMPE	T0,TEST33	;NO!!
  2371						PNTMSF	[ASCIZ/
  2372					***** FATAL ERROR - REMAINING TESTS ABORTED *****
  2373	032766	037 01 0 00 037066 	/]
  2374	032767	254 00 0 00 034205 		JRST	FINISH		;SKIP TO END OF PASS
  2375					;------------------------------------------------------------


DECSYSTEM 2020 UNIBUS ADAPTER EXERCISER, VERSION=0,4 	MACRO %53(1020) 09:46 12-Jul-79 Page 41
DSUBAM	MAC	28-Jun-79 10:11		DEVICE TESTS                                                                       SEQ 0085

  2376
  2377			040577			T=SIXBTZ<UBE NPR WORD XFER TO KS10 MEMORY>
  2378
  2379					; **********************************************************************
  2380					;* TEST 33 SETS UP THE UBE'S TO DO TWO HALF-WORD TRANSFERS TO ONE WORD
  2381					;* OF KS10 MEMORY. ONLY ONE TRANSFER AND ONE PATTERN IS USED FOR EACH
  2382					;* UBE ON THE BUS,-THE PURPOSE OF THIS TEST IS TO VERIFY THAT THE BASIC
  2383					;* CONTROL SIGNALS WORK, AND IS NOT INTENDED TO CHECK EITHER THE DATA OR
  2384					;* ADDRESSING LINES.
  2385					; **********************************************************************
  2386
  2387	032770	201 00 0 00 032772 	TEST33:	MOVEI	AXFER		;GET LOOP ADDRESS
  2388	032771	202 00 0 00 030051 		MOVEM	TESTPC		;AND STORE IN TESTPC
  2389
  2390	032772	200 01 0 00 035616 	AXFER:	MOVE	T1,UEXORN	;GET THE NUMBER OF EXERCISERS ON THE BUS
  2391	032773	201 11 0 00 177777 		MOVEI	TMASK,177777	;SET UP MASK AC FOR 16 BIT XFERS
  2392
  2393	032774	260 17 0 00 035202 	BXFER:	GO	UBACLR		;RESET UBA
  2394	032775	260 17 0 00 035212 		GO	EXOCLR		;RESET UBE'S
  2395	032776	260 17 0 00 035044 		GO	IDEFAL		;SET UP DEFAULT INTERRUPT HANDLER
  2396	032777	201 07 0 00 200000 		MOVEI	T7,200000	;SET DISABLE BIT FOR WAPSET ROUTINE
  2397	033000	260 17 0 00 035407 		GO	WAPSET		;SET UP PAGING RAM AND WRKADR
  2398	033001	402 00 1 00 030145 		SETZM	@MEMLOW		;ZERO OUT LOCATION TO BE WRITTEN TO
  2399
  2400	033002	201 12 0 00 052525 		MOVEI	T10,52525	;SET UP DATA FOR "UBELOD" ROUTINE
  2401	033003	201 13 0 00 777776 		MOVEI	T11,777776	;WE WANT TO DO TWO CYCLES
  2402	033004	400 14 0 00 000000 		SETZ	T12,		;LOWER ORDER ADDRESS BITS ARE ZERO
  2403	033005	201 15 0 00 003041 		MOVEI	T13,003041	;SET UP CONTROL BITS
  2404	033006	400 16 0 00 000000 		SETZ	T14,		;ZERO OUT CONTROL REGISTER #2
  2405	033007	260 17 0 00 034722 		GO	UBELOD		;LOAD UP UBE'S
  2406
  2407	033010	7 010 24 0 00 000006 		CONI	PAG,6
  2408	033011	7 010 20 1 00 000006 		CONO	PAG,@6		;FLUSH CACHE FOR NPR XFER RESET
  2409
  2410	033012	200 02 0 00 040605 		MOVE	T2,[XWD 52525,52525]	;EXPECTED RESULT
  2411	033013	200 03 1 00 030145 		MOVE	T3,@MEMLOW
  2412	033014	312 02 0 00 000003 		CAME	T2,T3		;SKIP IF OK
  2413	033015	036 13 0 00 040620 		ERROR(BXFER,13,2,3,TEST 33,UBE WORD NPR XFER TO KS10 SEMICONDUCTOR MEMORY,ERR23)
  2414	033016	035 00 0 00 032774 		ERLOOP	BXFER		;IF ERROR, LOOP TO BXFER
  2415
  2416	033017	367 01 0 00 032774 		SOJG	T1,BXFER	;LOOP IF MORE UBE'S TO GO
  2417
  2418	033020				CXFER:	LPTST
  2419

DECSYSTEM 2020 UNIBUS ADAPTER EXERCISER, VERSION=0,4 	MACRO %53(1020) 09:46 12-Jul-79 Page 42
DSUBAM	MAC	28-Jun-79 10:11		DEVICE TESTS                                                                       SEQ 0086

  2420
  2421			040623			T=SIXBTZ<UBE NPR BYTE XFER TO KS10 MEMORY>
  2422
  2423					; **********************************************************************
  2424					;* TEST 34 SETS UP THE UBE'S TO DO FOUR BYTE TRANSFERS TO ONE WORD
  2425					;* OF KS10 MEMORY. ONLY ONE TRANSFER AND ONE PATTERN IS USED FOR EACH
  2426					;* UBE ON THE BUS,-THE PURPOSE OF THIS TEST IS TO VERIFY THAT THE BASIC
  2427					;* CONTROL SIGNALS WORK, AND IS NOT INTENDED TO CHECK EITHER THE DATA OR
  2428					;* ADDRESSING LINES.
  2429					; **********************************************************************
  2430
  2431	033025	201 00 0 00 033027 	TEST34:	MOVEI	ABYTE		;GET LOOP ADDRESS
  2432	033026	202 00 0 00 030051 		MOVEM	TESTPC		;AND STORE IN TESTPC
  2433
  2434	033027	200 01 0 00 035616 	ABYTE:	MOVE	T1,UEXORN	;GET NUMBER OF EXERCISERS ON BUS
  2435	033030	201 11 0 00 177777 		MOVEI	TMASK,177777	;SET UP MASK AC FOR 16 BIT XFERS
  2436
  2437	033031	260 17 0 00 035202 	BBYTE:	GO	UBACLR		;RESET UBA
  2438	033032	260 17 0 00 035212 		GO	EXOCLR		;RESET UBE'S
  2439	033033	260 17 0 00 035044 		GO	IDEFAL		;SET UP DEFAULT INTERRUPT HANDLER
  2440	033034	201 07 0 00 200000 		MOVEI	T7,200000	;SET DISABLE BIT FOR WAPSET ROUTINE
  2441	033035	260 17 0 00 035407 		GO	WAPSET		;AND SET UP WRKADR AND UBAPR
  2442	033036	402 00 1 00 030145 		SETZM	@MEMLOW		;ZERO OUT LOCATION TO BE WRITTEN TO
  2443
  2444	033037	201 12 0 00 010101 		MOVEI	T10,010101	;SET UP DATA FOR "UBELOD" ROUTINE
  2445	033040	201 13 0 00 777774 		MOVEI	T11,777774	;WE WANT TO DO FOUR CYCLES
  2446	033041	400 14 0 00 000000 		SETZ	T12,		;LOWER ORDER ADDRESS BITS ARE ZERO
  2447	033042	201 15 0 00 003441 		MOVEI	T13,003441	;SET UP CONTROL BITS
  2448	033043	400 16 0 00 000000 		SETZ	T14,		;ZERO OUT CONTROL REGISTER #2
  2449	033044	260 17 0 00 034722 		GO	UBELOD		;LOAD UP UBE'S
  2450
  2451	033045	7 010 24 0 00 000006 		CONI	PAG,6
  2452	033046	7 010 20 1 00 000006 		CONO	PAG,@6		;FLUSH CACHE FOR NPR XFER RESET
  2453
  2454	033047	200 02 0 00 040631 		MOVE	T2,[XWD 010101,010101]	;EXPECTED RESULT
  2455	033050	200 03 1 00 030145 		MOVE	T3,@MEMLOW
  2456	033051	312 02 0 00 000003 		CAME	T2,T3		;SKIP IF OK
  2457	033052	036 13 0 00 040642 		ERROR(BBYTE,13,2,3,TEST 34,UBE BYTE NPR XFER TO KS10 MEMORY,ERR23)
  2458	033053	035 00 0 00 033031 		ERLOOP	BBYTE		;IF ERROR, LOOP TO BBYTE
  2459
  2460	033054	367 01 0 00 033031 		SOJG	T1,BBYTE	;LOOP IF MORE UBE'S TO GO
  2461
  2462	033055				CBYTE:	LPTST
  2463

DECSYSTEM 2020 UNIBUS ADAPTER EXERCISER, VERSION=0,4 	MACRO %53(1020) 09:46 12-Jul-79 Page 43
DSUBAM	MAC	28-Jun-79 10:11		DEVICE TESTS                                                                       SEQ 0087

  2464
  2465			040645			T=SIXBTZ<UBE NPR READ-REVERSE XFER TO KS10>
  2466
  2467					; **********************************************************************
  2468					;* TEST 35 SETS UP THE UBE'S TO DO TWO READ-REVERSE XFERS TO ONE WORD
  2469					;* OF KS10 MEMORY. ONLY ONE LOCATION AND ONE PATTERN IS USED FOR EACH
  2470					;* UBE ON THE BUS,-THE PURPOSE OF THIS TEST IS TO VERIFY THAT THE BASIC
  2471					;* CONTROL SIGNALS WORK, AND IS NOT INTENDED TO CHECK EITHER THE DATA OR
  2472					;* ADDRESSING LINES.
  2473					; **********************************************************************
  2474
  2475	033062	201 00 0 00 033064 	TEST35:	MOVEI	AREVER		;GET LOOP ADDRESS
  2476	033063	202 00 0 00 030051 		MOVEM	TESTPC		;AND STORE IN TESTPC
  2477
  2478	033064	200 01 0 00 035616 	AREVER:	MOVE	T1,UEXORN	;GET THE NUMBER OF EXERCISERS ON THE BUS
  2479	033065	201 11 0 00 177777 		MOVEI	TMASK,177777	;SET UP MASK AC FOR 16 BIT XFERS
  2480
  2481	033066	260 17 0 00 035202 	BREVER:	GO	UBACLR		;RESET UNIBUS ADAPTER
  2482	033067	260 17 0 00 035212 		GO	EXOCLR		;RESET ALL UBE REGISTERS
  2483	033070	260 17 0 00 035044 		GO	IDEFAL		;SET UP DEFAULT INTERRUPT HANDLER
  2484	033071	201 07 0 00 600000 		MOVEI	T7,600000	;DISABLE XFER AND READ-REVERSE
  2485	033072	260 17 0 00 035407 		GO	WAPSET		;SET UP UBAPR AND WRKADR
  2486	033073	402 00 1 00 030145 		SETZM	@MEMLOW		;ZERO OUT LOCATION TO BE WRITTEN TO
  2487
  2488	033074	201 12 0 00 070707 		MOVEI	T10,070707	;SET UP DATA FOR "UBELOD" ROUTINE
  2489	033075	201 13 0 00 777776 		MOVEI	T11,777776	;WE WANT TO DO TWO CYCLES
  2490	033076	400 14 0 00 000000 		SETZ	T12,		;LOWER ORDER ADDRESS BITS ARE ZERO
  2491	033077	201 15 0 00 003041 		MOVEI	T13,003041	;SET UP CONTROL BITS
  2492	033100	400 16 0 00 000000 		SETZ	T14,		;ZERO OUT CONTROL REGISTER #2
  2493	033101	260 17 0 00 034722 		GO	UBELOD		;LOAD UP UBE'S
  2494
  2495	033102	7 010 24 0 00 000006 		CONI	PAG,6
  2496	033103	7 010 20 1 00 000006 		CONO	PAG,@6		;FLUSH CACHE FOR NPR XFER RESET
  2497
  2498	033104	200 02 0 00 040653 		MOVE	T2,[XWD 070707,070707]	;EXPECTED RESULT
  2499	033105	200 03 1 00 030145 		MOVE	T3,@MEMLOW
  2500	033106	312 02 0 00 000003 		CAME	T2,T3		;SKIP IF OK
  2501	033107	036 13 0 00 040665 		ERROR(BREVER,13,2,3,TEST 35,UBE READ-REVERSE NPR XFER TO KS10 MEMORY,ERR23)
  2502	033110	035 00 0 00 033066 		ERLOOP	BREVER		;IF ERROR, LOOP TO BREVER
  2503
  2504	033111	367 01 0 00 033066 		SOJG	T1,BREVER	;LOOP IF MORE UBE'S TO GO
  2505
  2506	033112				CREVER:	LPTST
  2507

DECSYSTEM 2020 UNIBUS ADAPTER EXERCISER, VERSION=0,4 	MACRO %53(1020) 09:46 12-Jul-79 Page 44
DSUBAM	MAC	28-Jun-79 10:11		DEVICE TESTS                                                                       SEQ 0088

  2508
  2509			040670			T=SIXBTZ<UBE NPR FAST XFER TO KS10 MEMORY>
  2510
  2511					; **********************************************************************
  2512					;* TEST 36 SETS UP THE UBE'S TO DO ONE FAST TRANSFER TO ONE FULL WORD
  2513					;* OF KS10 MEMORY. ONLY ONE TRANSFER AND ONE PATTERN IS USED FOR EACH
  2514					;* UBE ON THE BUS,-THE PURPOSE OF THIS TEST IS TO VERIFY THAT THE BASIC
  2515					;* CONTROL SIGNALS WORK, AND IS NOT INTENDED TO CHECK EITHER THE DATA OR
  2516					;* ADDRESSING LINES.
  2517					; **********************************************************************
  2518
  2519	033117	201 00 0 00 033121 	TEST36:	MOVEI	AFAST		;GET LOOP ADDRESS
  2520	033120	202 00 0 00 030051 		MOVEM	TESTPC		;AND STORE IN TESTPC
  2521
  2522	033121	200 01 0 00 035616 	AFAST:	MOVE	T1,UEXORN	;GET THE NUMBER OF EXERCISERS ON THE BUS
  2523	033122	201 11 0 00 177777 		MOVEI	TMASK,177777	;SET UP MASK AC FOR 16 BIT XFERS
  2524
  2525	033123	260 17 0 00 035202 	BFAST:	GO	UBACLR		;RESET UNIBUS ADAPTER
  2526	033124	260 17 0 00 035212 		GO	EXOCLR		;ZERO OUT ALL UBE REGISTERS
  2527	033125	260 17 0 00 035044 		GO	IDEFAL		;SET UP DEFAULT INTERRUPT HANDLER
  2528	033126	201 07 0 00 300000 		MOVEI	T7,300000	;SET UP FAST XFER AND DISABLE BITS
  2529	033127	260 17 0 00 035407 		GO	WAPSET		;AND SET UP PAGING RAM AND WRKADR
  2530	033130	402 00 1 00 030145 		SETZM	@MEMLOW		;ZERO OUT LOCATION TO BE WRITTEN TO
  2531
  2532	033131	201 12 0 00 055555 		MOVEI	T10,55555	;SET UP DATA FOR "UBELOD" ROUTINE
  2533	033132	201 13 0 00 777776 		MOVEI	T11,777776	;WE WANT TO DO TWO CYCLES
  2534	033133	400 14 0 00 000000 		SETZ	T12,		;LOWER ORDER ADDRESS BITS ARE ZERO
  2535	033134	201 15 0 00 003041 		MOVEI	T13,003041	;SET UP CONTROL BITS
  2536	033135	400 16 0 00 000000 		SETZ	T14,		;ZERO OUT CONTROL REGISTER #2
  2537	033136	260 17 0 00 034722 		GO	UBELOD		;LOAD UP UBE'S
  2538
  2539	033137	7 010 24 0 00 000006 		CONI	PAG,6
  2540	033140	7 010 20 1 00 000006 		CONO	PAG,@6		;FLUSH CACHE FOR NPR XFER RESET
  2541
  2542	033141	200 02 0 00 040676 		MOVE	T2,[XWD 55555,55555]	;EXPECTED RESULT
  2543	033142	200 03 1 00 030145 		MOVE	T3,@MEMLOW
  2544	033143	312 02 0 00 000003 		CAME	T2,T3		;SKIP IF OK
  2545	033144	036 13 0 00 040710 		ERROR(BFAST,13,2,3,TEST 36,UBE FAST-MODE NPR XFER TO KS10 MEMORY,ERR23)
  2546	033145	035 00 0 00 033123 		ERLOOP	BFAST		;IF ERROR, LOOP TO BFAST
  2547
  2548	033146	367 01 0 00 033123 		SOJG	T1,BFAST	;LOOP IF MORE UBE'S TO GO
  2549
  2550	033147				CFAST:	LPTST
  2551

DECSYSTEM 2020 UNIBUS ADAPTER EXERCISER, VERSION=0,4 	MACRO %53(1020) 09:46 12-Jul-79 Page 45
DSUBAM	MAC	28-Jun-79 10:11		DEVICE TESTS                                                                       SEQ 0089

  2552
  2553			040713			T=SIXBTZ<UBE NPR WORD XFER FROM KS10 MEMORY>
  2554
  2555					; **********************************************************************
  2556					;* TEST 37 SETS UP THE UBE'S TO DO ONE HALF-WORD TRANSFER FROM ONE WORD
  2557					;* OF KS10 MEMORY. ONLY ONE LOCATION AND ONE PATTERN IS USED FOR EACH
  2558					;* UBE ON THE BUS,-THE PURPOSE OF THIS TEST IS TO VERIFY THAT THE BASIC
  2559					;* CONTROL SIGNALS WORK, AND IS NOT INTENDED TO CHECK EITHER THE DATA OR
  2560					;* ADDRESSING LINES.
  2561					; **********************************************************************
  2562
  2563	033154	201 00 0 00 033156 	TEST37:	MOVEI	AHALF		;GET LOOP ADDRESS
  2564	033155	202 00 0 00 030051 		MOVEM	TESTPC		;AND STORE IN TESTPC
  2565	033156	200 01 0 00 035616 	AHALF:	MOVE	T1,UEXORN	;GET THE NUMBER OF EXERCISERS ON THE BUS
  2566	033157	201 11 0 00 177777 		MOVEI	TMASK,177777	;SET UP MASK AC FOR 16 BIT XFERS
  2567
  2568	033160	260 17 0 00 035202 	BHALF:	GO	UBACLR		;RESET UNIBUS ADAPTER
  2569	033161	260 17 0 00 035212 		GO	EXOCLR		;RESET ALL UBE REGISTERS
  2570	033162	260 17 0 00 035044 		GO	IDEFAL		;SET UP DEFAULT INTERRUPT HANDLER
  2571	033163	201 07 0 00 200000 		MOVEI	T7,200000	;SET DISABLE BIT FOR WAPSET ROUTINE
  2572	033164	260 17 0 00 035407 		GO	WAPSET		;SET UP PAGING RAM AND WRKADR
  2573	033165	515 00 0 00 123456 		HRLZI	123456		;PUT TEST PATTERN IN EVEN WORD
  2574	033166	202 00 1 00 030145 		MOVEM	@MEMLOW		;PUT TEST PATTERN IN @MEMLOW
  2575
  2576	033167	400 12 0 00 000000 		SETZ	T10,
  2577	033170	201 13 0 00 777777 		MOVEI	T11,777777	;WE WANT TO DO ONE CYCLE
  2578	033171	400 14 0 00 000000 		SETZ	T12,		;LOWER ORDER ADDRESS BITS ARE ZERO
  2579	033172	201 15 0 00 002041 		MOVEI	T13,002041	;SET UP CONTROL BITS
  2580	033173	400 16 0 00 000000 		SETZ	T14,		;ZERO OUT CONTROL REGISTER #2
  2581	033174	260 17 0 00 034722 		GO	UBELOD		;LOAD UP UBE'S
  2582
  2583	033175	7 010 24 0 00 000006 		CONI	PAG,6
  2584	033176	7 010 20 1 00 000006 		CONO	PAG,@6		;FLUSH CACHE FOR NPR XFER RESET
  2585
  2586	033177	200 03 0 00 000001 		MOVE	T3,T1		;GET NUMBER OF UBE
  2587	033200	360 03 0 00 000000 		SOJ	T3,		;SUBTRACT ONE FOR INDEXNG
  2588	033201	221 03 0 00 000005 		IMULI	T3,5		;EACH UBE IN TABLE HAS 5 REGISTERS
  2589	033202	200 05 0 03 035643 		MOVE	T5,UBEDB1(T3)	;GET ADDRESS OF UBE DATA REGISTER
  2590	033203	712 02 1 00 000005 		RDIO	T2,@T5		;GET DATA FROM UBE
  2591	033204	514 02 0 00 000002 		HRLZ	T2,T2		;MOVE RESULT TO L.H. OF T2
  2592	033205	200 03 1 00 030145 		MOVE	T3,@MEMLOW
  2593	033206	312 02 0 00 000003 		CAME	T2,T3		;SKIP IF NPR WAS SUCCESSFULL
  2594						ERROR(BHALF,13,3,2,TEST 37,UBE WORD NPR XFER FROM KS10 SEMICONDUCTOR MEMORY,ERR23)
  2595	033207	036 13 0 00 040734
  2596	033210	035 00 0 00 033160 		ERLOOP	BHALF		;IF ERROR, LOOP TO BHALF
  2597
  2598	033211	367 01 0 00 033160 		SOJG	T1,BHALF	;LOOP IF MORE UBE'S TO GO
  2599
  2600	033212				CHALF:	LPTST
  2601


DECSYSTEM 2020 UNIBUS ADAPTER EXERCISER, VERSION=0,4 	MACRO %53(1020) 09:46 12-Jul-79 Page 46
DSUBAM	MAC	28-Jun-79 10:11		DEVICE TESTS                                                                       SEQ 0090

  2602
  2603			040737			T=SIXBTZ<UBE LOW BYTE I-O TRANSFER>
  2604
  2605					; **********************************************************************
  2606					;* TEST 40 DOES A WRIOB TO THE LOW BYTE OF THE DATA REGISTER OF EACH
  2607					;* UBE ON THE BUS, AND THEN DOES A RDIOB FROM THE SAME REGISTER. ONLY
  2608					;* A TEST PATTERN OF ALL 1'S IS TRANSFERED,-THIS TEST IS ONLY INTENDED
  2609					;* TO VERIFY THE OPERATION OF THE BASIC CONTROL SIGNALS.
  2610					; **********************************************************************
  2611
  2612	033217	201 00 0 00 033221 	TEST40:	MOVEI	ALOBYT		;GET LOOP ADDRESS
  2613	033220	202 00 0 00 030051 		MOVEM	TESTPC		;AND STORE IN TESTPC
  2614
  2615	033221	200 01 0 00 035616 	ALOBYT:	MOVE	T1,UEXORN	;GET NUMBER OF UBE'S ON BUS
  2616
  2617	033222	260 17 0 00 035202 	BLOBYT:	GO	UBACLR		;RESET UBA
  2618	033223	260 17 0 00 035212 		GO	EXOCLR		;RESET UBE
  2619	033224	260 17 0 00 035044 		GO	IDEFAL		;SET UP DEFAULT INTERRUPT HANDLER
  2620	033225	200 03 0 00 000001 		MOVE	T3,T1		;GET NUMBER OF EXERCISERS ON BUS
  2621	033226	360 03 0 00 000000 		SOJ	T3,		;SUBTRACT ONE FROM THIS NUMBER AND
  2622	033227	221 03 0 00 000005 		IMULI	T3,5		;MULTIPLY BY FIVE FOR UBE TABLE INDEX
  2623
  2624	033230	200 00 0 03 035643 		MOVE	UBEDB1(T3)	;GET UBE DATA REGISTER ADDRESS
  2625	033231	202 00 0 00 035613 		MOVEM	WRKADR		;AND STORE IN WRKADR
  2626	033232	201 02 0 00 000377 		MOVEI	T2,377		;GET EIGHT BITS
  2627	033233	723 02 1 00 035613 		WRIOB	T2,@WRKADR	;WRITE IT TO LOW BYTE
  2628	033234	722 04 1 00 035613 		RDIOB	T4,@WRKADR	;READ IT BACK
  2629	033235	312 02 0 00 000004 		CAME	T2,T4		;SKIP IF OK
  2630	033236	036 06 0 00 040753 		ERROR(BLOBYT,6,2,4,TEST 40,LOW BYTE WRIOB-RDIOB ERROR,ERR23)
  2631	033237	035 00 0 00 033222 		ERLOOP	BLOBYT		;IF ERROR, LOOP TO BLOBYT
  2632
  2633	033240	367 01 0 00 033222 		SOJG	T1,BLOBYT	;LOOP IF MORE UBE'S LEFT
  2634
  2635	033241				CLOBYT:	LPTST
  2636


DECSYSTEM 2020 UNIBUS ADAPTER EXERCISER, VERSION=0,4 	MACRO %53(1020) 09:46 12-Jul-79 Page 47
DSUBAM	MAC	28-Jun-79 10:11		DEVICE TESTS                                                                       SEQ 0091

  2637
  2638			040756			T=SIXBTZ<UBE HI BYTE I-O TRANSFER>
  2639
  2640					; **********************************************************************
  2641					;* TEST 41 DOES A WRIOB TO THE HIGH BYTE OF THE DATA REGISTER OF EACH
  2642					;* UBE ON THE BUS, AND THEN DOES A RDIOB FROM THE SAME REGISTER. ONLY
  2643					;* A TEST PATTERN OF ALL 1'S IS TRANSFERED,-THIS TEST IS ONLY INTENDED
  2644					;* TO VERIFY THE OPERATION OF THE BASIC CONTROL SIGNALS.
  2645					; **********************************************************************
  2646
  2647	033246	201 00 0 00 033250 	TEST41:	MOVEI	AHIBYT		;GET LOOP ADDRESS
  2648	033247	202 00 0 00 030051 		MOVEM	TESTPC		;AND STORE IN TESTPC
  2649
  2650	033250	200 01 0 00 035616 	AHIBYT:	MOVE	T1,UEXORN	;GET NUMBER OF UBE'S ON BUS
  2651
  2652	033251	260 17 0 00 035202 	BHIBYT:	GO	UBACLR		;RESET UBA
  2653	033252	260 17 0 00 035212 		GO	EXOCLR		;RESET UBE
  2654	033253	260 17 0 00 035044 		GO	IDEFAL		;SET UP DEFAULT INTERRUPT HANDLER
  2655	033254	200 03 0 00 000001 		MOVE	T3,T1		;GET NUMBER OF EXERCISERS ON BUS
  2656	033255	360 03 0 00 000000 		SOJ	T3,		;SUBTRACT ONE FROM THIS NUMBER AND
  2657	033256	221 03 0 00 000005 		IMULI	T3,5		;MULTIPLY BY FIVE FOR UBE TABLE INDEX
  2658
  2659	033257	200 00 0 03 035643 		MOVE	UBEDB1(T3)	;GET UBE DATA REGISTER ADDRESS
  2660	033260	340 00 0 00 000000 		AOJ			;INCREMENT TO HIGH BYTE ADDRESS
  2661	033261	202 00 0 00 035613 		MOVEM	WRKADR		;AND STORE IN WRKADR
  2662	033262	201 02 0 00 000377 		MOVEI	T2,377		;GET EIGHT BITS
  2663	033263	723 02 1 00 035613 		WRIOB	T2,@WRKADR	;WRITE IT TO HIGH BYTE
  2664	033264	722 04 1 00 035613 		RDIOB	T4,@WRKADR	;READ IT BACK
  2665	033265	312 02 0 00 000004 		CAME	T2,T4		;SKIP IF OK
  2666	033266	036 06 0 00 040772 		ERROR(BHIBYT,6,2,4,TEST 41,HIGH BYTE WRIOB-RDIOB ERROR,ERR23)
  2667	033267	035 00 0 00 033251 		ERLOOP	BHIBYT		;IF ERROR, LOOP TO BHIBYT
  2668
  2669	033270	367 01 0 00 033251 		SOJG	T1,BHIBYT	;LOOP IF MORE UBE'S LEFT
  2670
  2671	033271				CHIBYT:	LPTST
  2672


DECSYSTEM 2020 UNIBUS ADAPTER EXERCISER, VERSION=0,4 	MACRO %53(1020) 09:46 12-Jul-79 Page 48
DSUBAM	MAC	28-Jun-79 10:11		DEVICE TESTS                                                                       SEQ 0092

  2673
  2674			040775			T=SIXBTZ<UBE NPR FAST XFER FROM KS10 MEMORY>
  2675
  2676					; **********************************************************************
  2677					;* TEST 42 CAUSES A UBE TO DO AN NPR REQUEST THAT RESULTS IN A FULL 36
  2678					;* BITS WORTH OF DATA BEING READ FROM KS10 MEMORY AT ONCE, AND THEN
  2679					;* BEING TRANSFERED TO THE UBE ONE HALF-WORD AT A TIME. ONLY ONE TEST
  2680					;* TEST PATTERN AND ONE MEMORY LOCATION IS USED FOR EACH UBE,-THIS TEST
  2681					;* IS INTENDED SOLELY TO CHECK THE BASIC CONTROL SIGNALS.
  2682					; **********************************************************************
  2683
  2684	033276	201 00 0 00 033300 	TEST42:	MOVEI	AFULL		;GET LOOP ADDRESS
  2685	033277	202 00 0 00 030051 		MOVEM	TESTPC		;AND STORE IN TESTPC
  2686
  2687	033300	200 01 0 00 035616 	AFULL:	MOVE	T1,UEXORN	;GET THE NUMBER OF EXERCISERS ON THE BUS
  2688	033301	201 11 0 00 177777 		MOVEI	TMASK,177777	;SET UP MASK AC FOR 16 BIT XFERS
  2689
  2690	033302	260 17 0 00 035202 	BFULL:	GO	UBACLR		;RESET UNIBUS ADAPTER
  2691	033303	260 17 0 00 035212 		GO	EXOCLR		;ZERO OUT ALL UBE REGISTERS
  2692	033304	260 17 0 00 035044 		GO	IDEFAL		;SET UP DEFAULT INTERRUPT HANDLER
  2693	033305	201 07 0 00 300000 		MOVEI	T7,300000	;FAST XFER AND DISABLE XFER BITS
  2694	033306	260 17 0 00 035407 		GO	WAPSET		;SET UP WRKADR AND UBA PAGING RAM
  2695	033307	200 00 0 00 041003 		MOVE	[XWD 022222,133333]	;PUT TEST PATTERN IN EVEN WORD
  2696	033310	202 00 1 00 030145 		MOVEM	@MEMLOW		;PUT TEST PATTERN IN @MEMLOW
  2697
  2698	033311	400 12 0 00 000000 		SETZ	T10,
  2699	033312	201 13 0 00 777777 		MOVEI	T11,777777	;WE WANT TO DO ONE CYCLE
  2700	033313	400 14 0 00 000000 		SETZ	T12,		;LOWER ORDER ADDRESS BITS ARE ZERO
  2701	033314	201 15 0 00 002041 		MOVEI	T13,002041	;SET UP CONTROL BITS
  2702	033315	400 16 0 00 000000 		SETZ	T14,		;ZERO OUT CONTROL REGISTER #2
  2703	033316	260 17 0 00 034722 		GO	UBELOD		;LOAD UP UBE'S
  2704	033317	201 04 0 00 000144 		MOVEI	4,^D100		;GET DELAY COUNT
  2705	033320	365 04 0 00 033320 		SOJGE	4,.		;LOOP A BIT
  2706
  2707	033321	200 03 0 00 000001 		MOVE	T3,T1		;GET NUMBER OF UBE
  2708	033322	360 03 0 00 000000 		SOJ	T3,		;SUBTRACT ONE FOR INDEXNG
  2709	033323	221 03 0 00 000005 		IMULI	T3,5		;EACH UBE IN TABLE HAS 5 REGISTERS
  2710	033324	200 05 0 03 035643 		MOVE	T5,UBEDB1(T3)	;GET ADDRESS OF UBE DATA REGISTER
  2711	033325	712 04 1 00 000005 		RDIO	T4,@T5		;GET DATA FROM UBE
  2712	033326	554 03 1 00 030145 		HLRZ	T3,@MEMLOW	;GET ODD WORD OF TEST PATTERN
  2713	033327	312 04 0 00 000003 		CAME	T4,T3		;SKIP IF NPR WAS SUCCESSFULL
  2714						ERROR(BFULL,13,3,4,TEST 42,UBE FAST NPR XFER FROM KS10 SEMICONDUCTOR MEMORY,ERR23)
  2715	033330	036 13 0 00 041017
  2716	033331	035 00 0 00 033302 		ERLOOP	BFULL		;IF ERROR, LOOP TO BFULL
  2717
  2718	033332	367 01 0 00 033302 		SOJG	T1,BFULL	;LOOP IF MORE UBE'S TO GO
  2719
  2720	033333				CFULL:	LPTST
  2721


DECSYSTEM 2020 UNIBUS ADAPTER EXERCISER, VERSION=0,4 	MACRO %53(1020) 09:46 12-Jul-79 Page 49
DSUBAM	MAC	28-Jun-79 10:11		DEVICE TESTS                                                                       SEQ 0093

  2722
  2723			041022			T=SIXBTZ<UBE INTERRUPT VECTOR VERIFICATION>
  2724
  2725					; **********************************************************************
  2726					;* TEST 43 CHECKS THAT THE INTERRUPT VECTORS IN THE "VECNUM" TABLE
  2727					;* ARE IN FACT CORRECT,-EACH UBE IS MADE TO INTERRUPT THE KS10 CPU, AND
  2728					;* AN ERROR IS GENERATED ONLY IF THE RESULTANT VECTOR IS NOT THE SAME AS
  2729					;* THE ONE GIVEN, OR IF NO INTERRUPT IS GENERATED AT ALL. IF THE ACTUAL
  2730					;* VECTOR IS INCORRECT, IT IS AUTOMATICALLY AUTOSIZED AND PRINTED OUT
  2731					;* DURING THE ERROR CALL.
  2732					; **********************************************************************
  2733
  2734	033340	201 00 0 00 033342 	TEST43:	MOVEI	AVEK		;GET LOOP ADDRESS
  2735	033341	202 00 0 00 030051 		MOVEM	TESTPC		;AND STORE IN TESTPC
  2736
  2737	033342	260 17 0 00 035202 	AVEK:	GO	UBACLR		;CLEAR OUT UBA
  2738	033343	260 17 0 00 035212 		GO	EXOCLR		;CLEAR OUT UBE'S
  2739	033344	201 00 0 00 000011 		MOVEI	11
  2740	033345	713 00 1 00 035636 		WRIO	@UBASR		;SET UP ALL UBA INTERRUPTS TO PI #1
  2741	033346	200 01 0 00 035616 		MOVE	T1,UEXORN	;GET # OF EXERCISERS ON BUS
  2742
  2743	033347	200 03 0 00 000001 	BVEK:	MOVE	T3,T1		;GET # OF EXERCISER CURRENTLY TESTED
  2744	033350	360 03 0 00 000000 		SOJ	T3,		;SUBTRACT ONE FOR INDEXING
  2745	033351	221 03 0 00 000005 		IMULI	T3,5		;UBE REG.S STORED IN BLOCKS OF FIVE
  2746	033352	200 00 0 03 035643 		MOVE	UBEDB1(T3)	;GET BASE ADDRESS OF UBE
  2747	033353	202 00 0 00 035620 		MOVEM	TEMP1		;SET UP PARAMETER FOR GETVEC ROUTINE
  2748	033354	260 17 0 00 035267 		GO	GETVEC		;GET INTERRUPT VECTOR
  2749	033355	200 03 0 00 035620 		MOVE	T3,TEMP1	;GET RESULT OF GETVEC
  2750	033356	303 03 0 00 000400 		CAILE	T3,^D256	;SKIP IF UBE ACTUALLY INTERRUPTED
  2751	033357	036 00 0 00 041036 		ERROR(BVEK,0,0,0,TEST 43,UBE DID NOT INTERRUPT)
  2752	033360	035 00 0 00 033347 		ERLOOP	BVEK		;IF ERROR, LOOP TO BVEK
  2753	033361	200 02 0 01 035737 		MOVE	T2,VECNUM(T1)	;GET EXPECTED VECTOR
  2754	033362	242 02 0 00 000002 		LSH	T2,2		;MAKE SURE THE VECTORS ARE BOTH PRINTED
  2755	033363	242 03 0 00 000002 		LSH	T3,2		;IN UNIBUS FORMAT..
  2756	033364	312 02 0 00 000003 		CAME	T2,T3		;SKIP IF OK
  2757	033365	036 04 0 00 041046 		ERROR(BVEK,4,2,3,TEST 43,INCORRECT INTERRUPT VECTOR)
  2758	033366	035 00 0 00 033347 		ERLOOP	BVEK		;IF ERROR, LOOP TO BVEK
  2759
  2760	033367	367 01 0 00 033347 		SOJG	T1,BVEK
  2761
  2762	033370				CVEK:	LPTST
  2763


DECSYSTEM 2020 UNIBUS ADAPTER EXERCISER, VERSION=0,4 	MACRO %53(1020) 09:46 12-Jul-79 Page 50
DSUBAM	MAC	28-Jun-79 10:11		DEVICE TESTS                                                                       SEQ 0094

  2764
  2765			041051			T=SIXBTZ<UBE NPR WORD XFER FROM MEMLOW TO MEMMAX>
  2766
  2767					; **********************************************************************
  2768					;* TEST 44 CAUSES A UNIBUS EXERCISER TO PERFORM MULTIPLE NPR TRANSFERS
  2769					;* FROM MEMLOW TO MEMMAX. ONLY ONE EXERCISER IS USED IN THIS PARTICULAR
  2770					;* TEST, AND ROUTINE "BLOCKT" IS USED TO WORK THE UBE.  NOTE THAT 256K.=MAX.
  2771					; **********************************************************************
  2772
  2773	033375	201 00 0 00 033377 	TEST44:	MOVEI	ALARGE		;GET LOOP ADDRESS
  2774	033376	202 00 0 00 030051 		MOVEM	TESTPC		;AND STORE IN TESTPC
  2775
  2776	033377	260 17 0 00 035202 	ALARGE:	GO	UBACLR		;RESET UBA
  2777	033400	260 17 0 00 035212 		GO	EXOCLR		;RESET UBE'S
  2778	033401	201 00 0 00 035265 		MOVEI	ABRT34		;GET FATAL ERROR ABORT ADDRESS
  2779	033402	202 00 0 00 035253 		MOVEM	IOPGFA		;AND STORE FOR I/O PAGE FAIL ROUTINE
  2780	033403	260 17 0 00 035044 		GO	IDEFAL		;SET UP DEFAULT INTERRUPT HANDLER
  2781	033404	200 04 0 00 030144 		MOVE	T4,MEMTOT	;NUMBER OF FULL WORDS TO CHECK
  2782	033405	221 04 0 00 002000 		IMULI	T4,^D1024	;T4 NOW CONTAINS ACTUAL # OF WORDS
  2783	033406	360 04 0 00 000000 		SOJ	T4,		;T4 SHOULD CONTAIN LAST LOC.FILLED
  2784	033407	303 04 0 00 777777 		CAILE	T4,777777	;SKIP IF NOT MORE THAN 256 K.
  2785	033410	201 04 0 00 777777 		MOVEI	T4,777777	;ELSE FORCE IT AT 256 K.WORDS
  2786	033411	202 04 0 00 035617 		MOVEM	T4,MEMMAX	;MEMMAX IS THE SIZE OF MEMORY
  2787	033412	200 01 0 00 030145 		MOVE	T1,MEMLOW	;STARTING MEMORY ADDRESS
  2788
  2789	033413	202 01 0 00 035620 	BLARGE:	MOVEM	T1,TEMP1	;PUT STARTING ADDRESS INTO TEMP1
  2790	033414	201 00 0 00 142357 		MOVEI	142357		;GET TEST PATTERN
  2791	033415	202 00 0 00 035621 		MOVEM	TEMP2		;AND STORE IN TEMP2
  2792	033416	260 17 0 00 035076 		GO	BLOCKT		;TRANSFER 1K.WORDS
  2793	033417	271 01 0 00 001000 		ADDI	T1,1000		;INCREMENT ADDRESS BY 1000
  2794	033420	313 04 0 00 000001 		CAMLE	T4,T1		;SKIP IF DONE
  2795	033421	254 00 0 00 033413 		JRST	BLARGE		;ELSE TRANSFER ANOTHER BLOCK
  2796
  2797	033422	7 010 24 0 00 000006 	CLARGE:	CONI	PAG,6
  2798	033423	7 010 20 1 00 000006 		CONO	PAG,@6		;FLUSH CACHE FOR NPR XFER RESET
  2799	033424	200 02 0 00 041060 		MOVE	T2,[XWD 142357,142357]	;CORRECT TEST PATTERN
  2800	033425	200 01 0 00 030145 		MOVE	T1,MEMLOW	;GET STARTING ADDRESS AGAIN
  2801
  2802	033426	200 03 1 00 000001 	DLARGE:	MOVE	T3,@T1		;READ FROM MEMORY LOCATION
  2803	033427	312 03 0 00 000002 		CAME	T3,T2		;SKIP IF OK
  2804	033430	036 13 0 00 041071 		ERROR(DLARGE,13,2,3,TEST 44,DATA NOT DEPOSITED CORRCTLY BY UBE,ERR34)
  2805	033431	035 00 0 00 033426 		ERLOOP	DLARGE		;IF ERROR, LOOP TO DLARGE
  2806	033432	315 01 0 00 035617 		CAMGE	T1,MEMMAX	;SKIP IF DONE
  2807	033433	344 01 0 00 033426 		AOJA	T1,DLARGE	;ELSE CONTINUE CHECKING MEMORY
  2808
  2809	033434	402 00 0 00 035253 	ELARGE:	SETZM	IOPGFA		;RESET I/O PAGE FAIL ROUTINE
  2810						LPTST
  2811


DECSYSTEM 2020 UNIBUS ADAPTER EXERCISER, VERSION=0,4 	MACRO %53(1020) 09:46 12-Jul-79 Page 51
DSUBAM	MAC	28-Jun-79 10:11		DEVICE TESTS                                                                       SEQ 0095

  2812
  2813			041074			T=SIXBTZ<POWER DOWN SEQUENCE CHECK>
  2814
  2815					; **********************************************************************
  2816					;* TEST 45 SIMPLY CHECKS THAT HAVING THE AC LOW LINE ASSERTED ON THE
  2817					;* UNIBUS ( BY A UBE ) WILL SET THE AC/DC LOW BIT IN THE UBA, AND THAT
  2818					;* IF THIS BIT DOES GET SET, THAT IT CAN BE CLEARED SATISFACTORILY.
  2819					;*	( NOTA BENE - ONLY ONE UBE IS USED IN THIS TEST )
  2820					; **********************************************************************
  2821
  2822	033442	201 00 0 00 033444 	TEST45:	MOVEI	APOWER		;GET LOOP ADDRESS
  2823	033443	202 00 0 00 030051 		MOVEM	TESTPC		;AND STORE IN TESTPC
  2824
  2825	033444	260 17 0 00 035202 	APOWER:	GO	UBACLR		;INITIALIZE UBA
  2826	033445	260 17 0 00 035212 		GO	EXOCLR		;RESET UBE'S
  2827
  2828
  2829					;CAUSE UBE#1 TO ASSERT ACLO FOR 150 MILLISECONDS,THEN NEGATE IT:
  2830
  2831	033446	201 00 0 00 000020 	BPOWER:	MOVEI	000020		;GET POWER DOWN SEQUENCE BIT
  2832	033447	713 00 1 00 035647 		WRIO	@UBEC1B		;TURN IT ON
  2833
  2834	033450	201 04 0 00 000144 		MOVEI	4,^D100
  2835	033451	365 04 0 00 033451 		SOJGE	4,.		;WAIT FOR AC-DC LOW BIT TO SET
  2836
  2837	033452	712 03 1 00 035636 		RDIO	T3,@UBASR	;READ OUT STATUS REGISTER
  2838	033453	606 03 0 00 001000 		TRNN	T3,ACDCL	;SKIP IF ACDCL IS SET HIGH
  2839	033454	036 00 0 00 041112 		ERROR(BPOWER,0,0,0,TEST 45,UBA ACDCL BIT NOT SET ON UNIBUS ACLO)
  2840	033455	035 00 0 00 033446 		ERLOOP	BPOWER		;IF ERROR, LOOP TO BPOWER
  2841
  2842	033456	201 04 0 00 606500 		MOVEI	4,^D200000	;GET DELAY COUNT
  2843	033457	712 03 1 00 035647 		RDIO	T3,@UBEC1B	;SEE IF PWR DWN SEQ BIT TURNED OFF YET
  2844	033460	602 03 0 00 000020 		TRNE	T3,20		;SKIP IF IT WENT LOW
  2845	033461	365 04 0 00 033461 		SOJGE	4,.		;LOOP A BIT...
  2846
  2847	033462	400 00 0 00 000000 		SETZ	T0,		;( CAN'T BE CLEARED 'TILL IT'S LOW )
  2848	033463	713 00 1 00 035647 		WRIO	@UBEC1B		;CLEAR OUT PWR DWN SEQ BIT..
  2849	033464	713 00 1 00 035646 		WRIO	@UBEC1A		;CLEAR OUT CONTROL REGISTER #1 TOO...
  2850
  2851	033465				CPOWER:	LPTST
  2852


DECSYSTEM 2020 UNIBUS ADAPTER EXERCISER, VERSION=0,4 	MACRO %53(1020) 09:46 12-Jul-79 Page 52
DSUBAM	MAC	28-Jun-79 10:11		DEVICE TESTS                                                                       SEQ 0096

  2853
  2854			041115			T=SIXBTZ<UBE NPR BACK TO BACK TRANSFER>
  2855
  2856					; **********************************************************************
  2857					;* TEST 46 CAUSES A UNIBUS EXERCISER TO DO TWO NPR WORD TRANSFERS TO
  2858					;* KS10 MEMORY WITHOUT RELINQUISHING CONTROL OF THE BUS.
  2859					; **********************************************************************
  2860
  2861	033472	201 00 0 00 033474 	TEST46:	MOVEI	ABACK		;GET LOOP ADDRESS
  2862	033473	202 00 0 00 030051 		MOVEM	TESTPC		;AND STORE IN TESTPC
  2863
  2864	033474	260 17 0 00 035202 	ABACK:	GO	UBACLR		;RESET UBA
  2865	033475	260 17 0 00 035212 		GO	EXOCLR		;RESET UBE'S
  2866	033476	260 17 0 00 035044 		GO	IDEFAL		;SET UP DEFAULT INTERRUPT HANDLER
  2867	033477	201 07 0 00 200000 		MOVEI	T7,200000	;SET DISABLE BIT FOR WAPSET ROUTINE
  2868	033500	260 17 0 00 035407 		GO	WAPSET		;SET UP PAGING RAM AND WRKADR
  2869	033501	402 00 1 00 030145 		SETZM	@MEMLOW		;ZERO OUT LOCATION TO BE WRITTEN TO
  2870	033502	200 01 0 00 035616 		MOVE	T1,UEXORN	;GET NUMBER OF EXERCISERS ON BUS
  2871
  2872	033503	201 12 0 00 123321 	BBACK:	MOVEI	T10,123321	;SET UP DATA FOR UBE DATA REGISTER
  2873	033504	201 13 0 00 777776 		MOVEI	T11,777776	;WE WANT TO DO TWO TRANSFERS TOTAL
  2874	033505	400 14 0 00 000000 		SETZ	T12,		;LOW ORDER UNIBUS ADDRESS IS ZERO
  2875	033506	201 15 0 00 005041 		MOVEI	T13,5041	;2 XFERS,DATO,NPR,GO
  2876	033507	400 16 0 00 000000 		SETZ	T14,		;ZERO OUT CONTROL REGISTER #2
  2877	033510	260 17 0 00 034722 		GO	UBELOD		;LOAD UBE'S
  2878
  2879	033511	7 010 24 0 00 000006 		CONI	PAG,6
  2880	033512	7 010 20 1 00 000006 		CONO	PAG,@6		;FLUSH CACHE FOR NPR XFER RESET
  2881
  2882	033513	200 03 1 00 030145 		MOVE	T3,@MEMLOW	;GET RESULTS
  2883	033514	200 02 0 00 041122 		MOVE	T2,[XWD 123321,123321]	;CORRECT
  2884	033515	312 02 0 00 000003 		CAME	T2,T3		;SKIP IF OK
  2885	033516	036 13 0 00 041125 		ERROR(BBACK,13,2,3,TEST 46, ,ERR23)
  2886	033517	035 00 0 00 033503 		ERLOOP	BBACK		;IF ERROR, LOOP TO BBACK
  2887
  2888	033520	367 01 0 00 033503 		SOJG	T1,BBACK	;LOOP IF MORE UBE'S
  2889
  2890	033521				CBACK:	LPTST
  2891


DECSYSTEM 2020 UNIBUS ADAPTER EXERCISER, VERSION=0,4 	MACRO %53(1020) 09:46 12-Jul-79 Page 53
DSUBAM	MAC	28-Jun-79 10:11		DEVICE TESTS                                                                       SEQ 0097

  2892
  2893			041130			T=SIXBTZ<UBE BR4 LEVEL TO KS10 PI LEVEL CHECK>
  2894
  2895					; **********************************************************************
  2896					;* TEST 47 CHECKS THE ABILITY OF THE UBA TO TRANSLATE FROM UNIBUS
  2897					;* BR4 LEVEL TO ANY KS10 PI LEVEL. A UNIBUS EXERCISER IS SET UP TO
  2898					;* INTERRUPT AT BR4, AND THE UBA STATUS REGISTER IS SEQUENTIALLY SET UP
  2899					;* FOR PI LEVELS 1 TO 7.
  2900					; **********************************************************************
  2901
  2902	033526	201 00 0 00 033530 	TEST47:	MOVEI	ABR4		;GET LOOP ADDRESS
  2903	033527	202 00 0 00 030051 		MOVEM	TESTPC		;AND STORE IN TESTPC
  2904
  2905	033530	260 17 0 00 035202 	ABR4:	GO	UBACLR		;RESET UNIBUS ADAPTER
  2906	033531	260 17 0 00 035212 		GO	EXOCLR		;RESET EXERCISERS
  2907
  2908	033532	200 00 0 00 041137 		MOVE	[JSR CBR4]
  2909	033533	202 00 0 00 035620 		MOVEM	TEMP1		;STORE IN TEMP1 FOR ITRSET ROUTINE
  2910	033534	260 17 0 00 035144 		GO	ITRSET		;FILL UP ITRTBL WITH JSR'S
  2911
  2912	033535	201 05 0 00 000004 		MOVEI	T5,^D4		;STORE BR LEVEL IN T5
  2913	033536	201 04 0 00 000007 		MOVEI	T4,^D7		;INITIALIZE PI #
  2914	033537	202 04 0 00 035620 	BBR4:	MOVEM	T4,TEMP1	;STORE PI LEVEL FOR SETPI ROUTINE
  2915	033540	260 17 0 00 035157 		GO	SETPI		;SET UP PROPER PI LEVEL
  2916	033541	713 04 1 00 035636 		WRIO	T4,@UBASR	;SET UP UBA FOR PROPER BR4 TO PI LEVEL
  2917
  2918	033542	400 00 0 00 000000 		SETZ
  2919	033543	713 00 1 00 035647 		WRIO	@UBEC1B		;ZERO OUT CONTROL REGISTER #2
  2920	033544	201 00 0 00 000003 		MOVEI	3		;GET CONTROL REGISTER#1 BITS (GO&BR4)
  2921	033545	713 00 1 00 035646 		WRIO	@UBEC1A		;THIS SHOULD CAUSE AN INTERRUPT
  2922
  2923	033546	201 00 0 00 000144 		MOVEI	0,^D100		;GET DELAY COUNT
  2924	033547	365 00 0 00 033547 		SOJGE	0,.		;LOOP A BIT
  2925
  2926	033550	036 00 0 00 041152 		ERROR(BBR4,0,0,0,TEST 47,NO INTR.ON BR4 TO KS10 PI LEVEL TRANSLATION,ERR40)
  2927	033551	035 00 0 00 033537 		ERLOOP	BBR4		;IF ERROR, LOOP TO BBR4
  2928
  2929	033552	314 00 0 00 000000 		CAMA
  2930	033553	000000	000000		CBR4:	0			;PC STORAGE FOR ITRTBL JSR INSTRUCTION
  2931	033554	260 17 0 00 035212 		GO	EXOCLR		;CLEAR OUT EXERCISERS
  2932	033555	254 10 0 00 033556 		JRST	10,.+1		;DISMISS INTERRUPT
  2933	033556	367 04 0 00 033537 		SOJG	T4,BBR4		;LOOP IF MORE PI LEVELS TO CHECK
  2934
  2935	033557	700 14 0 00 010000 	DBR4:	WRPI	10000		;RESET PI SYSTEM
  2936						LPTST
  2937


DECSYSTEM 2020 UNIBUS ADAPTER EXERCISER, VERSION=0,4 	MACRO %53(1020) 09:46 12-Jul-79 Page 54
DSUBAM	MAC	28-Jun-79 10:11		DEVICE TESTS                                                                       SEQ 0098

  2938
  2939			041155			T=SIXBTZ<UBE BR5 LEVEL TO KS10 PI LEVEL CHECK>
  2940
  2941					; **********************************************************************
  2942					;* TEST 50 CHECKS THE ABILITY OF THE UBA TO TRANSLATE FROM UNIBUS
  2943					;* BR5 LEVEL TO ANY KS10 PI LEVEL. A UNIBUS EXERCISER IS SET UP TO
  2944					;* INTERRUPT AT BR4, AND THE UBA STATUS REGISTER IS SEQUENTIALLY SET UP
  2945					;* FOR PI LEVELS 1 TO 7.
  2946					; **********************************************************************
  2947
  2948	033565	201 00 0 00 033567 	TEST50:	MOVEI	ABR5		;GET LOOP ADDRESS
  2949	033566	202 00 0 00 030051 		MOVEM	TESTPC		;AND STORE IN TESTPC
  2950
  2951	033567	260 17 0 00 035202 	ABR5:	GO	UBACLR		;RESET UNIBUS ADAPTER
  2952	033570	260 17 0 00 035212 		GO	EXOCLR		;RESET EXERCISERS
  2953
  2954	033571	200 00 0 00 041164 		MOVE	[JSR CBR5]
  2955	033572	202 00 0 00 035620 		MOVEM	TEMP1		;STORE IN TEMP1 FOR ITRSET ROUTINE
  2956	033573	260 17 0 00 035144 		GO	ITRSET		;FILL UP ITRTBL WITH JSR'S
  2957
  2958	033574	201 05 0 00 000005 		MOVEI	T5,^D5		;STORE BR LEVEL IN T5
  2959	033575	201 04 0 00 000007 		MOVEI	T4,^D7		;INITIALIZE PI #
  2960	033576	202 04 0 00 035620 	BBR5:	MOVEM	T4,TEMP1	;STORE PI NUMBER IN TEMP1 FOR SETPI
  2961	033577	260 17 0 00 035157 		GO	SETPI		;AND TURN ON THE PROPER CHANNEL
  2962	033600	713 04 1 00 035636 		WRIO	T4,@UBASR	;SET UP UBA FOR PROPER PI LEVEL
  2963
  2964	033601	201 00 0 00 177777 		MOVEI	177777
  2965	033602	713 00 1 00 035644 		WRIO	@UBECC1		;SET UP CYCLE COUNT REGISTER FOR 1 CYCLE
  2966	033603	201 00 0 00 000005 		MOVEI	5		;GET CONTROL REGISTER#1 BITS (GO&BR5)
  2967	033604	713 00 1 00 035646 		WRIO	@UBEC1A		;THIS SHOULD CAUSE AN INTERRUPT
  2968
  2969	033605	201 00 0 00 000144 		MOVEI	0,^D100		;GET DELAY COUNT
  2970	033606	365 00 0 00 033606 		SOJGE	0,.		;LOOP A BIT
  2971
  2972	033607	036 00 0 00 041177 		ERROR(BBR5,0,0,0,TEST 50,NO INTR.ON BR5 TO KS10 PI LEVEL TRANSLATION,ERR40)
  2973	033610	035 00 0 00 033576 		ERLOOP	BBR5		;IF ERROR, LOOP TO BBR5
  2974	033611	314 00 0 00 000000 		CAMA
  2975	033612	000000	000000		CBR5:	0
  2976	033613	260 17 0 00 035212 		GO	EXOCLR		;CLEAR OUT EXERCISERS
  2977	033614	254 10 0 00 033615 		JRST	10,.+1		;DISMISS INTERRUPT
  2978	033615	367 04 0 00 033576 		SOJG	T4,BBR5	;LOOP IF MORE PI LEVELS TO CHECK
  2979
  2980	033616	700 14 0 00 010000 	DBR5:	WRPI	10000		;RESET PI SYSTEM
  2981						LPTST
  2982


DECSYSTEM 2020 UNIBUS ADAPTER EXERCISER, VERSION=0,4 	MACRO %53(1020) 09:46 12-Jul-79 Page 55
DSUBAM	MAC	28-Jun-79 10:11		DEVICE TESTS                                                                       SEQ 0099

  2983
  2984			041202			T=SIXBTZ<UBE BR6 LEVEL TO KS10 PI LEVEL CHECK>
  2985
  2986					; **********************************************************************
  2987					;* TEST 51 CHECKS THE ABILITY OF THE UBA TO TRANSLATE FROM UNIBUS
  2988					;* BR6 LEVEL TO ANY KS10 PI LEVEL. A UNIBUS EXERCISER IS SET UP TO
  2989					;* INTERRUPT AT BR6, AND THE UBA STATUS REGISTER IS SEQUENTIALLY SET UP
  2990					;* FOR PI LEVELS 1 TO 7.
  2991					; **********************************************************************
  2992
  2993	033624	201 00 0 00 033626 	TEST51:	MOVEI	ABR6		;GET LOOP ADDRESS
  2994	033625	202 00 0 00 030051 		MOVEM	TESTPC		;AND STORE IN TESTPC
  2995
  2996	033626	260 17 0 00 035202 	ABR6:	GO	UBACLR		;RESET UNIBUS ADAPTER
  2997	033627	260 17 0 00 035212 		GO	EXOCLR		;RESET EXERCISERS
  2998
  2999	033630	200 00 0 00 041211 		MOVE	[JSR CBR6]
  3000	033631	202 00 0 00 035620 		MOVEM	TEMP1		;STORE IN TEMP1 FOR ITRSET ROUTINE
  3001	033632	260 17 0 00 035144 		GO	ITRSET		;FILL UP ITRTBL WITH JSR'S
  3002
  3003	033633	201 05 0 00 000006 		MOVEI	T5,^D6		;STORE BR LEVEL IN T5
  3004	033634	201 04 0 00 000007 		MOVEI	T4,^D7		;INITIALIZE PI #
  3005	033635	202 04 0 00 035620 	BBR6:	MOVEM	T4,TEMP1	;STORE PI LEVEL IN TEMP1 FOR SETPI
  3006	033636	260 17 0 00 035157 		GO	SETPI		;AND TURN ON PROPER PI CHANNEL
  3007	033637	200 00 0 00 000004 		MOVE	T4		;GET PI NUMBER
  3008	033640	242 00 0 00 000003 		LSH	3		;SHIFT IT TO FIT IN STATUS REGISTER
  3009	033641	713 00 1 00 035636 		WRIO	@UBASR		;SET IT UP FOR BR6 LEVEL
  3010
  3011	033642	400 00 0 00 000000 		SETZ
  3012	033643	713 00 1 00 035647 		WRIO	@UBEC1B		;ZERO OUT CONTROL REGISTER #2
  3013	033644	201 00 0 00 000011 		MOVEI	11		;GET CONTROL REGISTER#1 BITS (GO&BR6)
  3014	033645	713 00 1 00 035646 		WRIO	@UBEC1A		;THIS SHOULD CAUSE AN INTERRUPT
  3015
  3016	033646	201 00 0 00 000144 		MOVEI	0,^D100		;GET DELAY COUNT
  3017	033647	365 00 0 00 033647 		SOJGE	0,.		;LOOP A BIT
  3018
  3019	033650	036 00 0 00 041224 		ERROR(BBR6,0,0,0,TEST 51,NO INTR.ON BR6 TO KS10 PI LEVEL TRANSLATION,ERR40)
  3020	033651	035 00 0 00 033635 		ERLOOP	BBR6		;IF ERROR, LOOP TO BBR6
  3021	033652	314 00 0 00 000000 		CAMA
  3022	033653	000000	000000		CBR6:	0
  3023	033654	260 17 0 00 035212 		GO	EXOCLR		;CLEAR OUT EXERCISERS
  3024	033655	254 10 0 00 033656 		JRST	10,.+1		;DISMISS INTERRUPT
  3025	033656	367 04 0 00 033635 		SOJG	T4,BBR6	;LOOP IF MORE PI LEVELS TO CHECK
  3026
  3027	033657	700 14 0 00 010000 	DBR6:	WRPI	10000		;RESET PI SYSTEM
  3028						LPTST
  3029


DECSYSTEM 2020 UNIBUS ADAPTER EXERCISER, VERSION=0,4 	MACRO %53(1020) 09:46 12-Jul-79 Page 56
DSUBAM	MAC	28-Jun-79 10:11		DEVICE TESTS                                                                       SEQ 0100

  3030
  3031			041227			T=SIXBTZ<UBE BR7 LEVEL TO KS10 PI LEVEL CHECK>
  3032
  3033					; **********************************************************************
  3034					;* TEST 52 CHECKS THE ABILITY OF THE UBA TO TRANSLATE FROM UNIBUS
  3035					;* BR7 LEVEL TO ANY KS10 PI LEVEL. A UNIBUS EXERCISER IS SET UP TO
  3036					;* INTERRUPT AT BR7, AND THE UBA STATUS REGISTER IS SEQUENTIALLY SET UP
  3037					;* FOR PI LEVELS 1 TO 7.
  3038					; **********************************************************************
  3039
  3040	033665	201 00 0 00 033667 	TEST52:	MOVEI	ABR7		;GET LOOP ADDRESS
  3041	033666	202 00 0 00 030051 		MOVEM	TESTPC		;AND STORE IN TESTPC
  3042
  3043	033667	260 17 0 00 035202 	ABR7:	GO	UBACLR		;RESET UNIBUS ADAPTER
  3044	033670	260 17 0 00 035212 		GO	EXOCLR		;RESET EXERCISERS
  3045
  3046	033671	200 00 0 00 041236 		MOVE	[JSR CBR7]
  3047	033672	202 00 0 00 035620 		MOVEM	TEMP1		;STORE IN TEMP1 FOR ITRSET ROUTINE
  3048	033673	260 17 0 00 035144 		GO	ITRSET		;FILL UP ITRTBL WITH JSR'S
  3049
  3050	033674	201 05 0 00 000007 		MOVEI	T5,^D7		;STORE BR LEVEL IN T5
  3051	033675	201 04 0 00 000007 		MOVEI	T4,^D7		;INITIALIZE PI #
  3052	033676	202 04 0 00 035620 	BBR7:	MOVEM	T4,TEMP1	;STORE PI # IN TEMP1 FOR SETPI ROUTINE
  3053	033677	260 17 0 00 035157 		GO	SETPI		;AND TURN ON PROPER PI CHANNEL
  3054	033700	200 00 0 00 000004 		MOVE	T4		;GET PI NUMBER
  3055	033701	242 00 0 00 000003 		LSH	3		;SHIFT PI LEVEL FOR STATUS REGISTER
  3056	033702	713 00 1 00 035636 		WRIO	@UBASR		;SET IT UP FOR BR4 LEVEL
  3057
  3058	033703	400 00 0 00 000000 		SETZ
  3059	033704	713 00 1 00 035647 		WRIO	@UBEC1B		;ZERO OUT CONTROL REGISTER #2
  3060	033705	201 00 0 00 000021 		MOVEI	21		;GET CONTROL REGISTER#1 BITS (GO&BR7)
  3061	033706	713 00 1 00 035646 		WRIO	@UBEC1A		;THIS SHOULD CAUSE AN INTERRUPT
  3062
  3063	033707	201 00 0 00 000144 		MOVEI	0,^D100		;GET DELAY COUNT
  3064	033710	365 00 0 00 033710 		SOJGE	0,.		;LOOP A BIT
  3065
  3066	033711	036 00 0 00 041251 		ERROR(BBR7,0,0,0,TEST 52,NO INTR.ON BR7 TO KS10 PI LEVEL TRANSLATION,ERR40)
  3067	033712	035 00 0 00 033676 		ERLOOP	BBR7		;IF ERROR, LOOP TO BBR7
  3068	033713	314 00 0 00 000000 		CAMA
  3069	033714	000000	000000		CBR7:	0
  3070	033715	260 17 0 00 035212 		GO	EXOCLR		;CLEAR OUT EXERCISERS
  3071	033716	254 10 0 00 033717 		JRST	10,.+1		;DISMISS INTERRUPT
  3072	033717	367 04 0 00 033714 		SOJG	T4,CBR7	;LOOP IF MORE PI LEVELS TO CHECK
  3073
  3074	033720	700 14 0 00 010000 	DBR7:	WRPI	10000		;RESET PI SYSTEM
  3075						LPTST
  3076


DECSYSTEM 2020 UNIBUS ADAPTER EXERCISER, VERSION=0,4 	MACRO %53(1020) 09:46 12-Jul-79 Page 57
DSUBAM	MAC	28-Jun-79 10:11		DEVICE TESTS                                                                       SEQ 0101

  3077
  3078			041254			T=SIXBTZ<UBE HI INTERRUPT PENDING BIT CHECK>
  3079
  3080					; **********************************************************************
  3081					;* TEST 53 CHECKS THAT THE INTERRUPT PENDING BIT OF THE UNIBUS ADAPTER
  3082					;* GETS SET WHEN A UBE IS TRYING TO INTERRUPT. THE KS10 PI SYSTEM IS
  3083					;* TURNED OFF, AND THE BITS ARE READ AT LEISURE. NO INTERRUPTS OCCUR.
  3084					; **********************************************************************
  3085
  3086	033726	201 00 0 00 033730 	TEST53:	MOVEI	AHIPEN		;GET LOOP ADDRESS
  3087	033727	202 00 0 00 030051 		MOVEM	TESTPC		;AND STORE IN TESTPC
  3088
  3089	033730	260 17 0 00 035202 	AHIPEN:	GO	UBACLR		;RESET UNIBUS ADAPTER
  3090	033731	260 17 0 00 035212 		GO	EXOCLR		;RESET EXEORCISERS
  3091	033732	700 14 0 00 010000 		WRPI	10000		;TURN OFF PI SYSTEM
  3092
  3093	033733	201 00 0 00 000021 		MOVEI	21		;GET BR6 AND GO BITS FOR UBE
  3094	033734	713 00 1 00 035646 		WRIO	@UBEC1A		;AND MAKE IT TRY AND INTERRUPT
  3095
  3096	033735	201 00 0 00 000144 		MOVEI	^D100
  3097	033736	365 00 0 00 033736 		SOJGE	.		;ALLOW TIME FOR UBE TO INTERRUPT
  3098
  3099	033737	712 03 1 00 035636 		RDIO	T3,@UBASR	;GET STATUS REGISTER BITS
  3100	033740	606 03 0 00 004000 		TRNN	T3,HIREQ	;SKIP IF HIREQ BIT SET
  3101	033741	036 00 0 00 041274 		ERROR(AHIPEN,0,0,0,TEST 53,HIREQ BIT NOT SET DURING PENDING BR6 INTERRUPT)
  3102	033742	035 00 0 00 033730 		ERLOOP	AHIPEN		;IF ERROR, LOOP TO AHIPEN
  3103	033743	602 03 0 00 002000 		TRNE	T3,LOREQ	;SKIP IF LOREQ BIT NOT SET
  3104	033744	036 00 0 00 041306 		ERROR(AHIPEN,0,0,0,TEST 53,LOREQ BIT SET DURING PENDING HI INTERRUPT)
  3105	033745	035 00 0 00 033730 		ERLOOP	AHIPEN		;IF ERROR, LOOP TO AHIPEN
  3106	033746	254 10 0 00 033747 		JRST	10,.+1		;DISMISS INTERRUPT
  3107	033747	260 17 0 00 035212 		GO	EXOCLR		;SHOULD TURN OFF UBE..
  3108	033750	712 03 1 00 035636 		RDIO	T3,@UBASR	;READ STATUS REGISTER AGAIN
  3109	033751	602 03 0 00 004000 		TRNE	T3,HIREQ	;SKIP IF HIREQ BIT WENT AWAY
  3110	033752	036 00 0 00 041321 		ERROR(AHIPEN,0,0,0,TEST 53,HIREQ BIT SET WITH NO PENDING BR6 INTERRUPT)
  3111	033753	035 00 0 00 033730 		ERLOOP	AHIPEN		;IF ERROR, LOOP TO AHIPEN
  3112
  3113
  3114	033754				BHIPEN:	LPTST
  3115


DECSYSTEM 2020 UNIBUS ADAPTER EXERCISER, VERSION=0,4 	MACRO %53(1020) 09:46 12-Jul-79 Page 58
DSUBAM	MAC	28-Jun-79 10:11		DEVICE TESTS                                                                       SEQ 0102

  3116
  3117			041324			T=SIXBTZ<UBE LO INTERRUPT PENDING BIT CHECK>
  3118
  3119					; **********************************************************************
  3120					;* TEST 54 CHECKS THAT THE INTERRUPT PENDING BITS OF THE UNIBUS ADAPTER
  3121					;* GET SET WHEN A UBE IS TRYING TO INTERRUPT. THE KS10 PI SYSTEM IS
  3122					;* TURNED OFF, AND THE BITS ARE READ AT LEISURE. NO INTERRUPTS OCCUR.
  3123					; **********************************************************************
  3124
  3125	033761	201 00 0 00 033763 	TEST54:	MOVEI	ALOPEN		;GET LOOP ADDRESS
  3126	033762	202 00 0 00 030051 		MOVEM	TESTPC		;AND STORE IN TESTPC
  3127
  3128	033763	260 17 0 00 035202 	ALOPEN:	GO	UBACLR		;RESET UNIBUS ADAPTER
  3129	033764	260 17 0 00 035212 		GO	EXOCLR		;RESET EXEORCISERS
  3130	033765	700 14 0 00 010000 		WRPI	10000		;TURN OFF PI SYSTEM
  3131
  3132	033766	201 00 0 00 000003 		MOVEI	3		;GET BR4 AND GO BITS FOR UBE
  3133	033767	713 00 1 00 035646 		WRIO	@UBEC1A		;AND MAKE IT TRY AND INTERRUPT
  3134
  3135	033770	201 00 0 00 000144 		MOVEI	^D100
  3136	033771	365 00 0 00 033771 		SOJGE	.		;ALLOW TIME FOR UBE TO INTERRUPT
  3137
  3138	033772	712 03 1 00 035636 		RDIO	T3,@UBASR	;GET STATUS REGISTER BITS
  3139	033773	606 03 0 00 002000 		TRNN	T3,LOREQ	;SKIP IF LOREQ BIT SET
  3140	033774	036 00 0 00 041344 		ERROR(ALOPEN,0,0,0,TEST 54,LOREQ BIT NOT SET DURING PENDING BR4 INTERRUPT)
  3141	033775	035 00 0 00 033763 		ERLOOP	ALOPEN		;IF ERROR, LOOP TO ALOPEN
  3142	033776	602 03 0 00 004000 		TRNE	T3,HIREQ	;SKIP IF HIREQ BIT SET
  3143	033777	036 00 0 00 041356 		ERROR(ALOPEN,0,0,0,TEST 54,HIREQ BIT SET DURING PENDING LO INTERRUPT)
  3144	034000	035 00 0 00 033763 		ERLOOP	ALOPEN		;IF ERROR, LOOP TO ALOPEN
  3145	034001	254 10 0 00 034002 		JRST	10,.+1		;DISMISS INTERRUPT
  3146	034002	260 17 0 00 035212 		GO	EXOCLR		;SHOULD TURN OFF UBE..
  3147	034003	712 03 1 00 035636 		RDIO	T3,@UBASR	;READ STATUS REGISTER AGAIN
  3148	034004	602 03 0 00 002000 		TRNE	T3,LOREQ	;SKIP IF LOREQ BIT WENT AWAY
  3149	034005	036 00 0 00 041371 		ERROR(ALOPEN,0,0,0,TEST 54,LOREQ BIT SET WITH NO PENDING BR4 INTERRUPT)
  3150	034006	035 00 0 00 033763 		ERLOOP	ALOPEN		;IF ERROR, LOOP TO ALOPEN
  3151
  3152	034007				BLOPEN:	LPTST
  3153


DECSYSTEM 2020 UNIBUS ADAPTER EXERCISER, VERSION=0,4 	MACRO %53(1020) 09:46 12-Jul-79 Page 59
DSUBAM	MAC	28-Jun-79 10:11		DEVICE TESTS                                                                       SEQ 0103

  3154
  3155			041374			T=SIXBTZ<UBE BR ARBITRATION TEST>
  3156
  3157					; **********************************************************************
  3158					;* TEST 55 GOES THROUGH ALL COMBINATIONS OF TWO DIFFERENT BR LEVELS, AND
  3159					;* CHECKS THAT THE UNIBUS ARBITRATOR LOGIC FUNCTIONS CORRECTLY. THE
  3160					;* FIRST TWO UBE'S LISTED IN UBETBL ARE SET UP TO INTERRUPT THE CPU
  3161					;* AND ARE BOTH SET OFF AT THE SAME TIME BY "SIMUGO".
  3162					; **********************************************************************
  3163
  3164	034014	201 00 0 00 034016 	TEST55:	MOVEI	ABRARB		;GET LOOP ADDRESS
  3165	034015	202 00 0 00 030051 		MOVEM	TESTPC		;AND STORE IN TESTPC
  3166
  3167	034016	260 17 0 00 035202 	ABRARB:	GO	UBACLR
  3168	034017	260 17 0 00 035212 		GO	EXOCLR
  3169	034020	201 00 0 00 000011 		MOVEI	11
  3170	034021	713 00 1 00 035636 		WRIO	@UBASR		;SET UBA TO PI LEVEL #1 ALWAYS
  3171	034022	201 04 0 00 000006 		MOVEI	T4,^D6		;INITIALIZE "ARBTBL" INDEX
  3172
  3173	034023	200 03 0 00 035740 		MOVE	T3,VECNUM+1	;GET INTERRUPT VECTOR FOR UBE #1
  3174	034024	200 00 0 00 041400 		MOVE	[JSR DBRARB]	;GET JSR TO DBRARB HI BR INTERRUPT CODE
  3175	034025	202 00 0 03 035754 		MOVEM	ITRTBL(T3)	;AND PUT IN THE CORRECT AREA OF ITRTBL
  3176	034026	200 03 0 00 035741 		MOVE	T3,VECNUM+2	;GET INTERRUPT VECTOR FOR UBE #2
  3177	034027	200 00 0 00 041401 		MOVE	[JSR EBRARB]	;GET JSR TO EBRARB LO BR INTERRUPT CODE
  3178	034030	202 00 0 03 035754 		MOVEM	ITRTBL(T3)	;AND PUT IN ITRTBL
  3179
  3180	034031	260 17 0 00 035212 	BBRARB:	GO	EXOCLR		;CLEAR OUT EXERCISERS
  3181	034032	700 14 0 00 002300 		WRPI	2300		;TURN ON PI CHANNEL #1
  3182	034033	554 01 0 04 034073 		HLRZ	T1,ARBTBL(T4)	;GET HI BR BIT FROM ARBTBL
  3183	034034	713 01 1 00 035646 		WRIO	T1,@UBEC1A	;AND PUT IN UBE #1 CONTROL REGISTER
  3184	034035	550 02 0 04 034073 		HRRZ	T2,ARBTBL(T4)	;GET LO BR BIT FROM ARBTBL
  3185	034036	713 02 1 00 035653 		WRIO	T2,@UBEC1A+5	;AND PUT INTO UBE #2 CONTROL REGISTER
  3186
  3187	034037	402 00 0 00 035620 		SETZM	TEMP1		;HI INTERRUPT OCCURRED
  3188	034040	402 00 0 00 035621 		SETZM	TEMP2		;LO INTERRUPT OCCURRED
  3189	034041	402 00 0 00 035622 		SETZM	TEMP3		;LO INTERRUPT OCCURRED BEFORE HI
  3190
  3191	034042	201 00 0 00 000001 		MOVEI	1
  3192	034043	713 00 1 00 035641 		WRIO	@SIMUGO		;SHOULD SET IT ALL OFF
  3193


DECSYSTEM 2020 UNIBUS ADAPTER EXERCISER, VERSION=0,4 	MACRO %53(1020) 09:46 12-Jul-79 Page 60
DSUBAM	MAC	28-Jun-79 10:11		DEVICE TESTS                                                                       SEQ 0104

  3194	034044	201 00 0 00 000144 	CBRARB:	MOVEI	^D100
  3195	034045	365 00 0 00 034045 		SOJGE	.
  3196	034046	400 03 0 00 000000 		SETZ	T3,
  3197	034047	316 03 0 00 035620 		CAMN	T3,TEMP1	;SKIP IF HI INTERRUPT OCCURED
  3198	034050	036 00 0 00 041411 		ERROR(BBRARB,0,0,0,TEST 55,HI INTERRUPT DID NOT OCCUR)
  3199	034051	035 00 0 00 034031 		ERLOOP	BBRARB		;IF ERROR, LOOP TO BBRARB
  3200	034052	316 03 0 00 035621 		CAMN	T3,TEMP2	;SKIP IF LO INTERRUPT OCCURED
  3201	034053	036 00 0 00 041421 		ERROR(BBRARB,0,0,0,TEST 55,LO INTERRUPT DID NOT OCCUR)
  3202	034054	035 00 0 00 034031 		ERLOOP	BBRARB		;IF ERROR, LOOP TO BBRARB
  3203	034055	312 03 0 00 035622 		CAME	T3,TEMP3	;SKIP IF HI OCCURRED BEFORE LO
  3204	034056	036 00 0 00 041432 		ERROR(BBRARB,0,0,0,TEST 55,LO INTERRUPT OCCURED BEFORE HI)
  3205	034057	035 00 0 00 034031 		ERLOOP	BBRARB		;IF ERROR, LOOP TO BBRARB
  3206
  3207	034060	367 04 0 00 034031 		SOJG	T4,BBRARB	;GO DO ANOTHER BR ARBITRATION TEST
  3208
  3209	034061	254 00 0 00 034102 		JRST	FBRARB		;ELSE SKIP SUBROUTINES
  3210	034062	000000	000000		DBRARB:	0
  3211	034063	400 03 0 00 000000 		SETZ	T3,
  3212	034064	312 03 0 00 035621 		CAME	T3,TEMP2	;SKIP IF LO BR HAS NOT YET OCCURED
  3213	034065	476 00 0 00 035622 		SETOM	TEMP3		;TELL TEST THAT LO OCCURED FIRST
  3214	034066	476 00 0 00 035620 		SETOM	TEMP1		;TELL TEST THAT HI HAS OCCURRED
  3215	034067	254 10 0 00 034044 		JRST 10,CBRARB		;DISMISS INTR.AND GO TO LOOP
  3216
  3217	034070	000000	000000		EBRARB:	0
  3218	034071	476 00 0 00 035621 		SETOM	TEMP2		;TELL TEST THAT LO BR INTERRUPT OCCURED
  3219	034072	254 10 0 00 034044 		JRST 10,CBRARB		;DISMISS INTERRUPT AND GO TO LOOP
  3220
  3221	034073	000000	000000		ARBTBL:	0
  3222	034074	000020	000010			20,,10
  3223	034075	000020	000004			20,,4
  3224	034076	000020	000002			20,,2
  3225	034077	000010	000004			10,,4
  3226	034100	000010	000002			10,,2
  3227	034101	000004	000002			4,,2
  3228
  3229	034102	700 14 0 00 010000 	FBRARB:	WRPI	10000
  3230						LPTST
  3231


DECSYSTEM 2020 UNIBUS ADAPTER EXERCISER, VERSION=0,4 	MACRO %53(1020) 09:46 12-Jul-79 Page 61
DSUBAM	MAC	28-Jun-79 10:11		DEVICE TESTS                                                                       SEQ 0105

  3232
  3233			041435			T=SIXBTZ<UBE BR AND NPR ARBITRATION TEST>
  3234
  3235					; **********************************************************************
  3236					;* TEST 56 IS SIMILAR TO TEST #45, EXCEPT THAT IT TESTS THE ABILITY OF
  3237					;* THE UBA TO ARBITRATE BETWEEN BR'S AND NPR'S.( OBVIOUSLY THE NPR
  3238					;* SHOULD ALWAYS GET PRIORITY )
  3239					; **********************************************************************
  3240
  3241	034110	201 00 0 00 034112 	TEST56:	MOVEI	ANPARB		;GET LOOP ADDRESS
  3242	034111	202 00 0 00 030051 		MOVEM	TESTPC		;AND STORE IN TESTPC
  3243
  3244	034112	260 17 0 00 035202 	ANPARB:	GO	UBACLR		;RESET UBA
  3245	034113	260 17 0 00 035212 		GO	EXOCLR		;RESET UBE'S
  3246	034114	201 00 0 00 000011 		MOVEI	11
  3247	034115	713 00 1 00 035636 		WRIO	@UBASR		;SET ALL BR LEVELS TO PI LEVEL #1
  3248	034116	700 14 0 00 002300 		WRPI	2300		;ACTIVATE PI CHANNEL #1
  3249	034117	201 04 0 00 000004 		MOVEI	T4,^D4		;INTITIALIZE BRTBL INDEX
  3250
  3251	034120	200 03 0 00 035741 		MOVE	T3,VECNUM+2	;GET INTERRUPT VECTOR
  3252	034121	200 00 0 00 041443 		MOVE	[JSR DNPARB]	;GET JSR TO ANPARB INTERRUPT ROUTINE
  3253	034122	202 00 0 03 035754 		MOVEM	ITRTBL(T3)	;AND PUT IN CORRECT PART OF ITRTBL
  3254
  3255	034123	260 17 0 00 035212 	BNPARB:	GO	EXOCLR
  3256	034124	402 00 1 00 030145 		SETZM	@MEMLOW		;SET IF NPR TRANSFER WAS DONE
  3257	034125	201 07 0 00 200000 		MOVEI	T7,200000	;SET DISABLE BIT FOR WAPSET ROUTINE
  3258	034126	260 17 0 00 035407 		GO	WAPSET		;SET UP WRKADR AND UBA PAGING RAM
  3259	034127	200 01 0 00 035613 		MOVE	T1,WRKADR	;GET WORKING ADDRESS
  3260	034130	713 01 1 00 035645 		WRIO	T1,@UBEBA1	;AND PUT IT IN UBE ADDRESS REGISTER
  3261	034131	201 00 0 00 177777 		MOVEI	177777
  3262	034132	713 00 1 00 035644 		WRIO	@UBECC1		;WE ONLY WANT ONE TRANSFER
  3263	034133	713 00 1 00 035643 		WRIO	@UBEDB1		;MIGHT AS WELL USE IT AS DATA TOO
  3264	034134	201 00 0 00 003040 		MOVEI	3040		;NPR,TRANSFER TILL CCOVF
  3265	034135	713 00 1 00 035646 		WRIO	@UBEC1A		;AND PUT IN CONTROL REGISTER #1
  3266	034136	200 00 0 04 034172 		MOVE	BRTBL(T4)	;GET CURRENT BR BITS
  3267	034137	713 00 1 00 035653 		WRIO	@UBEC1A+5	;AND PUT INTO UBE #2 CONTROL REGISTER
  3268
  3269	034140	402 00 0 00 035620 		SETZM	TEMP1		;BR INTERRUPT OCCURED
  3270	034141	402 00 0 00 035621 		SETZM	TEMP2		;BR OCCURRED BEFORE NPR
  3271	034142	201 00 0 00 000001 		MOVEI	1
  3272	034143	713 00 1 00 035641 		WRIO	@SIMUGO		;SET BOTH OFF AT ONCE
  3273
  3274	034144	7 010 24 0 00 000006 	CNPARB:	CONI	PAG,6
  3275	034145	7 010 20 1 00 000006 		CONO	PAG,@6		;FLUSH CACHE FOR NPR XFER RESET
  3276


DECSYSTEM 2020 UNIBUS ADAPTER EXERCISER, VERSION=0,4 	MACRO %53(1020) 09:46 12-Jul-79 Page 62
DSUBAM	MAC	28-Jun-79 10:11		DEVICE TESTS                                                                       SEQ 0106

  3277					;PRESUMABLY INTERRUPT HAS OCCURRED BY NOW:
  3278
  3279	034146	400 03 0 00 000000 		SETZ	T3,
  3280	034147	316 03 0 00 035620 		CAMN	T3,TEMP1	;SKIP IF BR INTERRUPT OCCURED
  3281	034150	036 00 0 00 041453 		ERROR(BNPARB,0,0,0,TEST 56,BR INTERRUPT DID NOT OCCUR,ERR46)
  3282	034151	035 00 0 00 034123 		ERLOOP	BNPARB		;IF ERROR, LOOP TO BNPARB
  3283	034152	316 03 1 00 030145 		CAMN	T3,@MEMLOW	;SKIP IF NPR OCCURRED
  3284	034153	036 00 0 00 041463 		ERROR(BNPARB,0,0,0,TEST 56,NPR TRANSFER DID NOT OCCUR,ERR46)
  3285	034154	035 00 0 00 034123 		ERLOOP	BNPARB		;IF ERROR, LOOP TO BNPARB
  3286	034155	312 03 0 00 035621 		CAME	T3,TEMP2	;SKIP IF NPR DONE BEFORE BR
  3287	034156	036 00 0 00 041474 		ERROR(BNPARB,0,0,0,TEST 56,BR OCCURRED BEFORE NPR TRANSFER,ERR46)
  3288	034157	035 00 0 00 034123 		ERLOOP	BNPARB		;IF ERROR, LOOP TO BNPARB
  3289
  3290	034160	367 04 0 00 034123 		SOJG	T4,BNPARB	;CONTINUE TO NEXT BR LEVEL
  3291	034161	254 00 0 00 034177 		JRST	ENPARB		;SKIP SUBROUTINES
  3292
  3293	034162	000000	000000		DNPARB:	0
  3294	034163	476 00 0 00 035620 		SETOM	TEMP1		;TELL TEST BR OCCURRED
  3295	034164	7 010 24 0 00 000006 		CONI	PAG,6
  3296	034165	7 010 20 1 00 000006 		CONO	PAG,@6		;FLUSH CACHE FOR NPR XFER RESET
  3297	034166	400 03 0 00 000000 		SETZ	T3,
  3298	034167	316 03 1 00 030145 		CAMN	T3,@MEMLOW	;SKIP IF NPR ALREADY DONE
  3299	034170	476 00 0 00 035621 		SETOM	TEMP2		;!!! TELL TEST NPR NOT ACCOMPLISHED
  3300	034171	254 10 0 00 034144 		JRST 10,CNPARB		;DISMISS INTERRUPT AND GO BACK TO LOOP
  3301
  3302	034172	000000	000000		BRTBL:	0
  3303	034173	000000	000002			2
  3304	034174	000000	000004			4
  3305	034175	000000	000010			10
  3306	034176	000000	000020			20
  3307
  3308	034177	700 14 0 00 010000 	ENPARB:	WRPI	10000
  3309						LPTST
  3310


DECSYSTEM 2020 UNIBUS ADAPTER EXERCISER, VERSION=0,4 	MACRO %53(1020) 09:46 12-Jul-79 Page 63
DSUBAM	MAC	28-Jun-79 10:11		DEVICE TESTS                                                                       SEQ 0107

  3311
  3312	034205	700 14 0 00 010000 	FINISH:	WRPI	10000		;MAKE SURE INTERRUPT SYSTEM IS OFF!!
  3313	034206	254 00 0 00 030057 		JRST	BEGEND		;GO TO END OF PASS ROUTINE
  3314
  3315					;	\\\\\\\\!!!!!!!!////////	\\\\\\\\!!!!!!!!////////
  3316					;	\\\\\\\\!!!!!!!!////////	\\\\\\\\!!!!!!!!////////
  3317					;	\\\\\\\\!!!!!!!!////////	\\\\\\\\!!!!!!!!////////
  3318					;	\\\\\\\\!!!!!!!!////////	\\\\\\\\!!!!!!!!////////
  3319					;	========XXXXXXXX========	========XXXXXXXX========
  3320					;	========XXXXXXXX========	========XXXXXXXX========
  3321					;	========XXXXXXXX========	========XXXXXXXX========
  3322					;	////////!!!!!!!!\\\\\\\\	////////!!!!!!!!\\\\\\\\
  3323					;	////////!!!!!!!!\\\\\\\\	////////!!!!!!!!\\\\\\\\
  3324					;	////////!!!!!!!!\\\\\\\\	////////!!!!!!!!\\\\\\\\
  3325					;	////////!!!!!!!!\\\\\\\\	////////!!!!!!!!\\\\\\\\
  3326
  3327
  3328
  3329					;	\\\\\\\\!!!!!!!!////////	\\\\\\\\!!!!!!!!////////
  3330					;	\\\\\\\\!!!!!!!!////////	\\\\\\\\!!!!!!!!////////
  3331					;	\\\\\\\\!!!!!!!!////////	\\\\\\\\!!!!!!!!////////
  3332					;	\\\\\\\\!!!!!!!!////////	\\\\\\\\!!!!!!!!////////
  3333					;	========XXXXXXXX========	========XXXXXXXX========
  3334					;	========XXXXXXXX========	========XXXXXXXX========
  3335					;	========XXXXXXXX========	========XXXXXXXX========
  3336					;	////////!!!!!!!!\\\\\\\\	////////!!!!!!!!\\\\\\\\
  3337					;	////////!!!!!!!!\\\\\\\\	////////!!!!!!!!\\\\\\\\
  3338					;	////////!!!!!!!!\\\\\\\\	////////!!!!!!!!\\\\\\\\
  3339					;	////////!!!!!!!!\\\\\\\\	////////!!!!!!!!\\\\\\\\
  3340


DECSYSTEM 2020 UNIBUS ADAPTER EXERCISER, VERSION=0,4 	MACRO %53(1020) 09:46 12-Jul-79 Page 64
DSUBAM	MAC	28-Jun-79 10:11		PROGRAM SUBROUTINES                                                                SEQ 0108

  3341					SUBTTL	PROGRAM SUBROUTINES
  3342					; **********************************************************************
  3343					;* ROUTINE "AUTOSA" WILL AUTOMATICALLY CHECK TO SEE HOW MANY UBE'S
  3344					;* ARE HANGING ON THE UNIBUS,-IT IS ASSUMED THAT THERE CAN BE FROM ZERO
  3345					;* TO TWELVE UBE'S, AND THAT THEY NEED NOT BE IN ORDER OF ASCENDING
  3346					;* ADDRESSES.
  3347					; **********************************************************************
  3348
  3349	034207	260 17 0 00 035202 	AUTOSA:	GO	UBACLR		;INITIALIZE UBA
  3350
  3351	034210	201 00 0 00 034243 		MOVEI	T0,AUTOSC	;GET RETURN ADDRESS FOR I/O PAGE FAIL
  3352	034211	202 00 0 00 035253 		MOVEM	T0,IOPGFA	;AND STORE IN LOCATION IOPGFA
  3353
  3354	034212	400 02 0 00 000000 		SETZ	T2,		;INIT. NUMBER OF UBE'S
  3355	034213	400 03 0 00 000000 		SETZ	T3,		;INIT. UBETBL INDEX
  3356	034214	201 01 0 00 770000 		MOVEI	T1,770000	;GET LOWEST POSSIBLE BASE ADDRESS
  3357	034215	500 01 0 00 035636 		HLL	T1,UBASR	;AND TACK ON THE CORRECT UBE #
  3358
  3359	034216	400 00 0 00 000000 	AUTOSB:	SETZ
  3360	034217	713 00 1 00 000001 		WRIO	@T1		;I/O PAGE FAIL??
  3361	034220	202 01 0 03 035643 		MOVEM	T1,UBEDB1(T3)	;STORE ADDRESS OF UBE REGISTERS IN THE
  3362	034221	271 01 0 00 000002 		ADDI	T1,2		;UBE ADDRESS TABLE
  3363	034222	202 01 0 03 035644 		MOVEM	T1,UBECC1(T3)
  3364	034223	271 01 0 00 000002 		ADDI	T1,2
  3365	034224	202 01 0 03 035645 		MOVEM	T1,UBEBA1(T3)
  3366	034225	271 01 0 00 000002 		ADDI	T1,2
  3367	034226	202 01 0 03 035646 		MOVEM	T1,UBEC1A(T3)
  3368	034227	271 01 0 00 000010 		ADDI	T1,10
  3369	034230	202 01 0 03 035647 		MOVEM	T1,UBEC1B(T3)
  3370	034231	271 01 0 00 000002 		ADDI	T1,2		;T1 NOW CONTAINS ADDRESS OF NEXT UBE
  3371	034232	340 02 0 00 000000 		AOJ	T2,		;INCREMENT UBE COUNT
  3372	034233	202 02 0 00 035616 		MOVEM	T2,UEXORN	;STORE # OF UBE'S IN UEXORN
  3373	034234	200 00 0 03 035643 		MOVE	UBEDB1(T3)	;GET BASE ADDRESS OF CURRENT UBE
  3374	034235	202 00 0 00 035620 		MOVEM	TEMP1		;AND STORE IN TEMP1 FOR "GETVEC"
  3375	034236	260 17 0 00 035267 		GO	GETVEC		;GET INTERRUPT VECTOR FOR THIS UBE
  3376	034237	200 00 0 00 035620 		MOVE	TEMP1		;GET RESULTANT VECTOR
  3377	034240	202 00 0 02 035737 		MOVEM	VECNUM(T2)	;AND SAVE IN VECNUM TABLE
  3378	034241	271 03 0 00 000005 		ADDI	T3,5		;INCREMENT UBETBL INDEX
  3379
  3380	034242	314 00 0 00 000000 		CAMA			;SKIP ALWAYS
  3381	034243	271 01 0 00 000020 	AUTOSC:	ADDI	T1,20		;INCREMENT T1 TO NEXT UBE BASE ADDRESS
  3382	034244	317 01 0 00 035640 		CAMG	T1,UBEMAX	;SKIP IF T1 GREATER THAN MAX.ADDRESS
  3383	034245	254 00 0 00 034216 		JRST	AUTOSB		;ELSE REPEAT
  3384	034246	402 00 0 00 035253 		SETZM	IOPGFA		;RESET I/O PAGE FAIL ROUTINE
  3385
  3386	034247	260 17 0 00 035344 		GO	EXOMAP		;PRINT OUT UBE PARAMETERS
  3387
  3388	034250	263 17 0 00 000000 		RTN


DECSYSTEM 2020 UNIBUS ADAPTER EXERCISER, VERSION=0,4 	MACRO %53(1020) 09:46 12-Jul-79 Page 65
DSUBAM	MAC	28-Jun-79 10:11		PROGRAM SUBROUTINES                                                                SEQ 0109

  3389
  3390					; **********************************************************************
  3391					;* ROUTINE TO ALLOW THE OPERATOR TO INPUT PARAMETERS.
  3392					; **********************************************************************
  3393
  3394	034251	261 17 0 00 000000 	QUES:	PUT	T0
  3395	034252	261 17 0 00 000002 		PUT	T2
  3396	034253	261 17 0 00 000005 		PUT	T5
  3397
  3398						PNTMSF	[ASCIZ/
  3399					INPUT PARAMETERS FOR TEST OF UNIBUS ADAPTER
  3400	034254	037 01 0 00 041477 	/]
  3401
  3402	034255	201 02 0 00 034257 	NXTEX:	MOVEI	2,INPUT		;GET RETURN ADDR.MERR3 ROUTINE
  3403	034256	202 02 0 00 035620 		MOVEM	2,TEMP1		;STORE FOR FUTURE USE
  3404
  3405	034257				INPUT:	PNTMSF	[ASCIZ/
  3406	034257	037 01 0 00 041511 	NUMBER OF EXERCISERS ON BUS (0-14, OCTAL):/]
  3407	034260	037 03 0 00 000003 		TTIOCT			;GET NUMBER OF EXERCISERS
  3408	034261	254 00 0 00 034617 		JRST	MERR3		;TELL OPERATOR HE'S WRONG
  3409	034262	305 00 0 00 000000 		CAIGE	0,0		;LOWEST ACCEPTABLE NUMBER
  3410	034263	254 00 0 00 034617 		JRST	MERR3		;NOT WITHIN RANGE
  3411	034264	301 00 0 00 000015 		CAIL	0,^D13		;HIGHEST ACCEPTABLE VALUE +1
  3412	034265	254 00 0 00 034617 		JRST	MERR3		;NOT WITHIN RANGE
  3413	034266	202 00 0 00 035616 		MOVEM	0,UEXORN	;STORE # OF EXERCISERS
  3414
  3415					;* GET REGISTER ADDRESSES AND VECTORS:
  3416
  3417	034267	200 02 0 00 035616 	QUESA:	MOVE	T2,UEXORN	;GET NUMBER OF UBE'S
  3418	034270	323 02 0 00 034323 	QUESB:	JUMPLE	T2,QUESZ	;END TEST IF NO UBE'S (LEFT)
  3419						PNTMSF	[ASCIZ/
  3420	034271	037 01 0 00 041522 	UBE#:  /]
  3421	034272	200 00 0 00 000002 		MOVE	T2		;GET UBE #
  3422	034273	037 02 0 00 000001 		PNT2F
  3423						PNTMSF	[ASCIZ/
  3424	034274	037 01 0 00 041524 	BASE ADDRESS:   /]
  3425	034275	037 03 0 00 000003 		TTIOCT			;GET BASE ADDRESS FOR UBE #T2
  3426	034276	254 00 0 00 034617 		JRST	MERR3
  3427	034277	500 00 0 00 035636 		HLL	UBASR		;SET UP UBA NUMBER IN I/O ADDRESS
  3428	034300	200 05 0 00 000002 		MOVE	T5,T2		;AND THEN STORE I/O ADDRESSES....
  3429	034301	360 05 0 00 000000 		SOJ	T5,
  3430	034302	221 05 0 00 000005 		IMULI	T5,5
  3431	034303	202 00 0 05 035643 		MOVEM	UBEDB1(T5)
  3432	034304	271 00 0 00 000002 		ADDI	2
  3433	034305	202 00 0 05 035644 		MOVEM	UBECC1(T5)
  3434	034306	271 00 0 00 000002 		ADDI	2
  3435	034307	202 00 0 05 035645 		MOVEM	UBEBA1(T5)
  3436	034310	271 00 0 00 000002 		ADDI	2
  3437	034311	202 00 0 05 035646 		MOVEM	UBEC1A(T5)
  3438	034312	271 00 0 00 000010 		ADDI	10
  3439	034313	202 00 0 05 035647 		MOVEM	UBEC1B(T5)
  3440
  3441	034314	037 01 0 00 041530 		PNTMSF	[ASCIZ/VECTOR? /]
  3442	034315	037 03 0 00 000003 		TTIOCT
  3443	034316	254 00 0 00 034617 		JRST	MERR3


DECSYSTEM 2020 UNIBUS ADAPTER EXERCISER, VERSION=0,4 	MACRO %53(1020) 09:46 12-Jul-79 Page 65-1
DSUBAM	MAC	28-Jun-79 10:11		PROGRAM SUBROUTINES                                                                SEQ 0110

  3444	034317	242 00 0 00 777776 		LSH	-2		;UNIBUS CONVENTIONS ARE DIFFERENT
  3445	034320	202 00 0 02 035737 		MOVEM	VECNUM(T2)
  3446	034321	037 01 0 00 030242 		PCRLF
  3447
  3448	034322	364 02 0 00 034270 		SOJA	T2,QUESB	;GO DO SAME FOR NEXT UBE
  3449
  3450	034323	037 01 0 00 030242 	QUESZ:	PCRLF
  3451	034324	262 17 0 00 000005 		GET	T5
  3452	034325	262 17 0 00 000002 		GET	T2
  3453	034326	262 17 0 00 000000 		GET	T0
  3454	034327	263 17 0 00 000000 		RTN
  3455
  3456					; **********************************************************************
  3457					;* ROUTINE TO ALLOW OPERATOR TO START AT ANY TEST.
  3458					; **********************************************************************
  3459
  3460	034330	201 01 0 00 034332 	TSTSEL:	MOVEI	1,TSTS1		;GET RETURN ADDRESS
  3461	034331	202 01 0 00 035620 		MOVEM	1,TEMP1		;STORE IT FOR MERR3
  3462	034332				TSTS1:	MOVEI	[ASCIZ/
  3463	034332	201 00 0 00 041532 	TEST NO. (1-56 OCTAL) = /]
  3464	034333	037 17 0 00 000001 		PNTALF
  3465	034334	037 03 0 00 000003 		TTIOCT			;GET INPUT
  3466	034335	254 00 0 00 034617 		JRST	MERR3		;NOT AN OCTAL NUMBER
  3467	034336	307 00 0 00 000000 		CAIG	0,0		;LOWEST ACCEPTABLE NUMBER =1
  3468	034337	254 00 0 00 034617 		JRST	MERR3		;NOT WITHIN RANGE
  3469	034340	301 00 0 00 000057 		CAIL	0,57		;HIGHEST ACCEPTABLE VALUE =56
  3470	034341	254 00 0 00 034617 		JRST	MERR3		;TOO HIGH! TELL OPERATOR
  3471	034342	202 00 0 00 000007 		MOVEM	0,IND		;STORE IT
  3472	034343	254 00 1 07 034344 		JRST	@TSTBL(IND)	;AND START AT OPERATOR SELECTED TEST


DECSYSTEM 2020 UNIBUS ADAPTER EXERCISER, VERSION=0,4 	MACRO %53(1020) 09:46 12-Jul-79 Page 66
DSUBAM	MAC	28-Jun-79 10:11		PROGRAM SUBROUTINES                                                                SEQ 0111

  3473
  3474	034344	000000	000001		TSTBL:	1			;STORE TABLE INDEX HERE
  3475					;STAND-ALONE MODE TESTS:
  3476	034345	000000	030661			TEST1
  3477	034346	000000	030734			TEST2
  3478	034347	000000	030767			TEST3
  3479	034350	000000	031103			TEST4
  3480	034351	000000	031161			TEST5
  3481	034352	000000	031210			TEST6
  3482	034353	000000	031267			TEST7
  3483	034354	000000	031324			TEST10
  3484	034355	000000	031372			TEST11
  3485	034356	000000	031467			TEST12
  3486	034357	000000	031531			TEST13
  3487	034360	000000	031633			TEST14
  3488	034361	000000	031721			TEST15
  3489	034362	000000	032002			TEST16
  3490	034363	000000	032056			TEST17
  3491	034364	000000	032130			TEST20
  3492	034365	000000	032203			TEST21
  3493	034366	000000	032273			TEST22
  3494	034367	000000	032401			TEST23
  3495	034370	000000	032463			TEST24
  3496
  3497					;UNIBUS EXERCISER MEDIATED TESTS:
  3498	034371	000000	032531			TEST25
  3499	034372	000000	032564			TEST26
  3500	034373	000000	032616			TEST27
  3501	034374	000000	032647			TEST30
  3502	034375	000000	032700			TEST31
  3503	034376	000000	032732			TEST32
  3504	034377	000000	032770			TEST33
  3505	034400	000000	033025			TEST34
  3506
  3507	034401	000000	033062			TEST35
  3508	034402	000000	033117			TEST36
  3509
  3510	034403	000000	033154			TEST37
  3511	034404	000000	033217			TEST40
  3512	034405	000000	033246			TEST41
  3513	034406	000000	033276			TEST42
  3514
  3515	034407	000000	033340			TEST43
  3516	034410	000000	033375			TEST44
  3517	034411	000000	033442			TEST45
  3518	034412	000000	033472			TEST46
  3519	034413	000000	033526			TEST47
  3520	034414	000000	033565			TEST50
  3521	034415	000000	033624			TEST51
  3522	034416	000000	033665			TEST52
  3523	034417	000000	033726			TEST53
  3524	034420	000000	033761			TEST54
  3525	034421	000000	034014			TEST55
  3526	034422	000000	034110			TEST56


DECSYSTEM 2020 UNIBUS ADAPTER EXERCISER, VERSION=0,4 	MACRO %53(1020) 09:46 12-Jul-79 Page 67
DSUBAM	MAC	28-Jun-79 10:11		AUXILIARY TEST ERROR PRINT OUT ROUTINES                                            SEQ 0112

  3527					SUBTTL	AUXILIARY TEST ERROR PRINT OUT ROUTINES
  3528
  3529					; **********************************************************************
  3530					;* SUBROUTINE "ERRMAX" IS USED TO PRINT OUT THE MEMORY ADDRESS WRITTEN
  3531					;* TO ON A WRAP-AROUND, AND ALSO TO CHECK TO SEE WHAT MEMORY LOCATION
  3532					;* WAS IN FACT PERTURBED, IF ANY.  THE MEMORY ADDRESS IS PASSED ON VIA
  3533					;* T4, AND THE DATA IS PASSED ON VIA T3.
  3534					; **********************************************************************
  3535
  3536	034423	261 17 0 00 000000 	ERRMAX:	PUT	T0
  3537	034424	261 17 0 00 000001 		PUT	T1
  3538
  3539	034425	037 00 0 00 041540 		PNTMSG	[ASCIZ/ - MEMORY ADDRESS = /]
  3540	034426	200 00 0 00 000004 		MOVE	T4		;GET MEMORY ADDRESS
  3541	034427	037 07 0 00 000000 		PNT7			;AND PRINT IT OUT
  3542	034430	037 00 0 00 030242 		PCRL
  3543
  3544	034431	326 03 0 00 034464 		JUMPN	T3,ERRMAQ	;END ROUTINE IF CORRECT LOCATION PERTURB
  3545	034432	402 00 0 00 035624 		SETZM	SEGNOW		;RESET FLAG THAT TELLS US THE SEGMENT
  3546	034433	200 01 0 00 030145 		MOVE	T1,MEMLOW	;GET ADDRESS OF LOWEST USABLE MEMORY
  3547	034434	303 01 0 00 377777 	ERRMAA:	CAILE	T1,377777	;SKIP IF IN THE FIRST 128 K SEGMNT
  3548	034435	254 00 0 00 034440 		JRST	.+3
  3549	034436	200 00 1 00 000001 		MOVE	T0,@T1
  3550	034437	254 00 0 00 034451 		JRST	EGGNOG
  3551	034440	200 00 0 00 000001 		MOVE	T0,T1		;GET MEMORY ADDRESS
  3552	034441	242 00 0 00 777757 		LSH	T0,^D-17
  3553	034442	316 00 0 00 035624 		CAMN	T0,SEGNOW	;SKIP IF SEGMENT NUMBER NOT OK
  3554	034443	254 00 0 00 034446 		JRST	.+3		;NO NEED TO DO SEGMENTATION
  3555	034444	202 00 0 00 035624 		MOVEM	T0,SEGNOW	;SAVE SEGMENT FOR FUTURE USE
  3556	034445	260 17 0 00 034654 		GO	SEGMEM		;SET UP MEMORY MAPPING
  3557	034446	200 06 0 00 000001 		MOVE	T6,T1		;GET MEMORY ADDRESS
  3558	034447	405 06 0 00 777777 		ANDI	T6,777777
  3559	034450	200 00 1 00 000006 		MOVE	T0,@T6
  3560	034451	326 00 0 00 034457 	EGGNOG:	JUMPN	ERRMAB		;WE FOUND IT!!
  3561	034452	340 01 0 00 000000 		AOJ	T1,		;DIDN'T FIND IT, KEEP LOOKING
  3562	034453	317 01 0 00 035617 		CAMG	T1,MEMMAX
  3563	034454	254 00 0 00 034434 		JRST	ERRMAA
  3564
  3565						PNTMSG	[ASCIZ/ - NO MEMORY LOCATIONS PERTURBED
  3566	034455	037 00 0 00 041545 	/]
  3567	034456	254 00 0 00 034465 		JRST	ERRMAZ		;END ROUTINE


DECSYSTEM 2020 UNIBUS ADAPTER EXERCISER, VERSION=0,4 	MACRO %53(1020) 09:46 12-Jul-79 Page 68
DSUBAM	MAC	28-Jun-79 10:11		AUXILIARY TEST ERROR PRINT OUT ROUTINES                                            SEQ 0113

  3568	034457	037 00 0 00 041554 	ERRMAB:	PNTMSG	[ASCIZ/ - PERTURBATION AT MEMORY = /]
  3569	034460	200 00 0 00 000001 		MOVE	T1
  3570	034461	037 07 0 00 000000 		PNT7
  3571	034462	037 00 0 00 030242 		PCRL
  3572
  3573	034463	314 00 0 00 000000 		CAMA			;SKIP ALWAYS
  3574					ERRMAQ:	PNTMSG	[ASCIZ/ - MEMORY LOCATION CORRECT
  3575	034464	037 00 0 00 041562 	/]
  3576	034465	712 00 1 00 035636 	ERRMAZ:	RDIO	@UBASR
  3577	034466	202 00 0 00 035610 		MOVEM	INTERS
  3578	034467	260 17 0 00 034746 		GO	ERRBTZ		;SEE IF WE CAN FIND ANY UBA ERROR BITS
  3579	034470	201 00 0 00 000001 		MOVEI	1
  3580	034471	260 17 0 00 034654 		GO	SEGMEM		;SET UP MEMORY MAPPING
  3581	034472	262 17 0 00 000001 		GET	T1
  3582	034473	262 17 0 00 000000 		GET	T0
  3583	034474	263 17 0 00 000000 		RTN


DECSYSTEM 2020 UNIBUS ADAPTER EXERCISER, VERSION=0,4 	MACRO %53(1020) 09:46 12-Jul-79 Page 69
DSUBAM	MAC	28-Jun-79 10:11		AUXILIARY TEST ERROR PRINT OUT ROUTINES                                            SEQ 0114

  3584					; **********************************************************************
  3585					;* SUBROUTINE ERR23 IS USED FOR TESTS 23-32, ALL OF WHICH ARE UBE
  3586					;* MEDIATED NPR AND RDIOB TRANSFERS OF VARIOUS SORTS. THE ROUTINE
  3587					;* PRINTS OUT ANY ERROR BITS WHICH MAY HAVE BEEN STORED IN LOCATION
  3588					;* "INTERO", AS WELL AS THE NUMBER OF THE UBE CURRENTLY BEING USED.
  3589					; **********************************************************************
  3590
  3591	034475	261 17 0 00 000000 	ERR23:	PUT	T0
  3592
  3593	034476	037 00 0 00 041570 		PNTMSG	[ASCIZ/UBE = /]
  3594	034477	200 00 0 00 000001 		MOVE	T1		;GET NUMBER OF UBE THAT FAILED
  3595	034500	037 02 0 00 000000 		PNT2			;PRINT TWO OCTAL DIGITS
  3596	034501	037 00 0 00 030242 		PCRL
  3597	034502	260 17 0 00 034746 		GO	ERRBTZ		;PRINT OUT ERROR BITS IN "INTERO"
  3598	034503	037 00 0 00 030242 		PCRL			;PRINT CARRIAGE RETURN LINE FEED
  3599	034504	402 00 0 00 035611 		SETZM	INTERO		;RESET UBE ERROR BIT BUFFER
  3600
  3601	034505	262 17 0 00 000000 		GET	T0
  3602	034506	263 17 0 00 000000 		RTN
  3603
  3604
  3605					; **********************************************************************
  3606					;* SUBROUTINE ERR34 IS USED TO PRINT THE UBE ERROR BITS.
  3607					; **********************************************************************
  3608
  3609	034507	261 17 0 00 000000 	ERR34:	PUT	T0
  3610
  3611	034510	260 17 0 00 034746 		GO	ERRBTZ		;PRINT OUT UBE ERROR BITS,IF ANY
  3612	034511	402 00 0 00 035611 		SETZM	INTERO		;RESET UBE ERROR BIT BUFFER
  3613
  3614	034512	262 17 0 00 000000 		GET	T0
  3615	034513	263 17 0 00 000000 		RTN
  3616
  3617					; **********************************************************************
  3618					;* SUBROUTINE ERR40 IS USED FOR TESTS 37-42,AND PRINTS OUT THE PI LEVEL.
  3619					; **********************************************************************
  3620
  3621	034514	261 17 0 00 000000 	ERR40:	PUT	T0
  3622	034515	037 00 0 00 041572 		PNTMSG	[ASCIZ/PI LEVEL = /]
  3623	034516	200 00 0 00 000004 		MOVE	T0,T4		;GET PI LEVEL
  3624	034517	037 01 0 00 000000 		PNT1			;AND PRINT IT OUT
  3625	034520	037 00 0 00 030242 		PCRL
  3626	034521	262 17 0 00 000000 		GET	T0
  3627	034522	263 17 0 00 000000 		RTN

DECSYSTEM 2020 UNIBUS ADAPTER EXERCISER, VERSION=0,4 	MACRO %53(1020) 09:46 12-Jul-79 Page 70
DSUBAM	MAC	28-Jun-79 10:11		AUXILIARY TEST ERROR PRINT OUT ROUTINES                                            SEQ 0115

  3628					; **********************************************************************
  3629					;* SUBROTTEN "FALIO" IS USED TO CHECK AND PRINT UBA ERROR BITS OF NOTE
  3630					; **********************************************************************
  3631
  3632	034523	261 17 0 00 000000 	FALIO:	PUT	T0
  3633	034524	712 00 1 00 035636 		RDIO	@UBASR		;CHECK UBA STATUS REGISTER
  3634	034525	202 00 0 00 035610 		MOVEM	INTERS		;AND STORE IN BUFFER
  3635	034526	402 00 0 00 035611 		SETZM	INTERO		;AIN'T NO UBE HERE
  3636	034527	260 17 0 00 034746 		GO	ERRBTZ		;PRINT OUT ERROR BITS IF ANY
  3637	034530	262 17 0 00 000000 		GET	T0
  3638	034531	263 17 0 00 000000 		RTN
  3639
  3640
  3641					; **********************************************************************
  3642					;* SUBROUTINE "NEDIO" IS USED TO CHECK AND PRINT UBA ERROR BITS OF NOTE
  3643					;* IT ALSO TELLS IF BOTH NED AND TIMOUT DID NOT SET.
  3644					; **********************************************************************
  3645
  3646	034532	261 17 0 00 000000 	NEDIO:	PUT	T0
  3647	034533	260 17 0 00 034523 		GO	FALIO		;PRINT OUT UBA ERROR BITS IF ANY
  3648	034534	336 00 0 00 035610 		SKIPN	INTERS		;IT'S PRINTED SOMETHING OUT,
  3649						PNTMSG	[ASCIZ/ - NEITHER NED NOR TIMOUT SET IN UBA STATUS REG.
  3650	034535	037 00 0 00 041575 	/]
  3651	034536	262 17 0 00 000000 		GET	T0
  3652	034537	263 17 0 00 000000 		RTN
  3653


DECSYSTEM 2020 UNIBUS ADAPTER EXERCISER, VERSION=0,4 	MACRO %53(1020) 09:46 12-Jul-79 Page 71
DSUBAM	MAC	28-Jun-79 10:11		AUXILIARY TEST ERROR PRINT OUT ROUTINES                                            SEQ 0116

  3654					; **********************************************************************
  3655					;* ERR1A IS LIKE ERR1, BUT IT PRINTS OUT THE IO ADDRESS ALSO
  3656					; **********************************************************************
  3657
  3658	034540	261 17 0 00 000000 	ERR1A:	PUT	T0
  3659	034541	476 00 0 00 035606 		SETOM	ABORTE		;REMEMBER IF A FATAL ERROR OCCURRED
  3660						PNTMSG	[ASCIZ/
  3661	034542	037 00 0 00 041610 	I-O ADDRESS = /]
  3662	034543	200 00 0 00 035613 		MOVE	WRKADR		;GET IO ADDRESS
  3663	034544	037 07 0 00 000000 		PNT7			;PRINT IT OUT
  3664	034545	037 00 0 00 030242 		PCRL
  3665	034546	262 17 0 00 000000 		GET	T0
  3666	034547	263 17 0 00 000000 		RTN
  3667
  3668
  3669					; **********************************************************************
  3670					;* SUBROUTINE ERR21 IS SIMILAR TO ERR1, BUT IT ALSO SETS THE ABORT FLAG
  3671					; **********************************************************************
  3672
  3673	034550	261 17 0 00 000000 	ERR21:	PUT	T0
  3674	034551	037 00 0 00 041614 		PNTMSG	[ASCIZ/I-O ADDRESS = /]
  3675	034552	200 00 0 00 035613 		MOVE	T0,WRKADR	;GET REGISTER ADDRESS
  3676	034553	037 07 0 00 000000 		PNT7			;AND PRINT IT OUT
  3677	034554	037 00 0 00 030242 		PCRL
  3678	034555	476 00 0 00 035606 		SETOM	ABORTE		;SET ABORT FLAG HIGH
  3679	034556	262 17 0 00 000000 		GET	T0
  3680	034557	263 17 0 00 000000 		RTN
  3681
  3682
  3683					; **********************************************************************
  3684					;* SUBROUTINE ERR22 IS USED FOR UBE IO DATA PATH TESTS.
  3685					; **********************************************************************
  3686
  3687	034560	261 17 0 00 000000 	ERR22:	PUT	T0
  3688	034561	037 00 0 00 041617 		PNTMSG	[ASCIZ/UBE REGISTER ADDRESS = /]
  3689	034562	200 00 0 00 035613 		MOVE	WRKADR		;GET REGISTER ADDRESS
  3690	034563	037 07 0 00 000000 		PNT7			;PRINT IT OUT
  3691	034564	037 00 0 00 030242 		PCRL
  3692	034565	037 00 0 00 037261 		PNTMSG	[ASCIZ/TEST PATTERN = /]
  3693	034566	200 00 0 00 000002 		MOVE	T2		;GET TEST PATTERN
  3694	034567	037 06 0 00 000000 		PNT6			;PRINT OUT SIX OCTAL DIGITS
  3695	034570	037 00 0 00 030242 		PCRL
  3696	034571	264 00 0 00 034705 		JSR	CHECKP		;GO AND CHECK TO SEE IF PARITY BIT SET
  3697						PNTMSG	[ASCIZ/PARITY BIT SET HIGH
  3698	034572	037 00 0 00 041624 	/]
  3699	034573	476 00 0 00 035606 		SETOM	ABORTE		;SET ABORT FLAG HIGH
  3700	034574	262 17 0 00 000000 		GET	T0
  3701	034575	263 17 0 00 000000 		RTN


DECSYSTEM 2020 UNIBUS ADAPTER EXERCISER, VERSION=0,4 	MACRO %53(1020) 09:46 12-Jul-79 Page 72
DSUBAM	MAC	28-Jun-79 10:11		AUXILIARY TEST ERROR PRINT OUT ROUTINES                                            SEQ 0117

  3702					; **********************************************************************
  3703					;* SUBROUTINE ERR1 SIMPLY SETS THE DIAGNOSTIC ABORT FLAG HIGH
  3704					; **********************************************************************
  3705
  3706	034576	476 00 0 00 035606 	ERR1:	SETOM	ABORTE		;SET ABORT FLAG HIGH
  3707	034577	263 17 0 00 000000 		RTN
  3708
  3709					; **********************************************************************
  3710					;* SUBROUTINE ERR46 REPORTS THE BR LEVEL.
  3711					; **********************************************************************
  3712
  3713	034600	261 17 0 00 000000 	ERR46:	PUT	T0
  3714	034601	037 00 0 00 041631 		PNTMSG	[ASCIZ/BR LEVEL = /]
  3715	034602	200 00 0 00 000004 		MOVE	T4		;GET BRTBL INDEX
  3716	034603	271 00 0 00 000003 		ADDI	3		;INCREMENT TO ACTUAL BR LEVEL
  3717	034604	037 01 0 00 000000 		PNT1			;AND PRINT IT OUT
  3718	034605	037 00 0 00 030242 		PCRL
  3719	034606	262 17 0 00 000000 		GET 	T0
  3720	034607	263 17 0 00 000000 		RTN
  3721
  3722
  3723					; **********************************************************************
  3724					;* SUBROUTINE ERR7 IS USED TO PRINT OUT THE PAGING RAM IO ADDRESS
  3725					; **********************************************************************
  3726
  3727	034610	261 17 0 00 000000 	ERR7:	PUT	T0
  3728	034611	037 00 0 00 041634 		PNTMSG	[ASCIZ/PAGING RAM ADDRESS = /]
  3729	034612	200 00 0 00 035613 		MOVE	WRKADR
  3730	034613	037 07 0 00 000000 		PNT7
  3731	034614	037 00 0 00 030242 		PCRL
  3732	034615	262 17 0 00 000000 		GET	T0
  3733	034616	263 17 0 00 000000 		RTN
  3734


DECSYSTEM 2020 UNIBUS ADAPTER EXERCISER, VERSION=0,4 	MACRO %53(1020) 09:46 12-Jul-79 Page 73
DSUBAM	MAC	28-Jun-79 10:11		OPERATOR INFORMATION MESSAGES                                                      SEQ 0118

  3735					SUBTTL	OPERATOR INFORMATION MESSAGES
  3736
  3737	034617	201 00 0 00 041641 	MERR3:	MOVEI	[ASCIZ/? WRONG RESPONSE/]
  3738	034620	037 17 0 00 000001 		PNTALF
  3739	034621	254 00 1 00 035620 		JRST	@TEMP1		;GO BACK AND ASK QUESTION AGAIN
  3740
  3741	034622	000000	000000		BYTPT:	0			;STORAGE LOC. FOR MSG. POINTER
  3742	034623	62 63 64 62 64 00 	HELP:	SIXBIT/RSTRT/
  3743	034624	64 63 64 54 60 00 		SIXBIT/TSTLP/
  3744	034625	63 64 41 56 44 41 		SIXBIT/STANDA/
  3745	034626	46 57 62 43 45 60 		SIXBIT/FORCEP/
  3746	034627	000000	000000			0
  3747	034630	000000	000000			0
  3748	034631	000000	000000			0
  3749	034632	000000	000000			0
  3750	034633	000000	000000			0
  3751	034634	000000	000000			0
  3752	034635	000000	000000			0
  3753	034636	000000	000000			0
  3754	034637	000000	000000			0
  3755	034640	000000	000000			0
  3756	034641	000000	000000			0
  3757	034642	000000	000000			0
  3758	034643	000000	000000			0
  3759	034644	000000	000000			0


DECSYSTEM 2020 UNIBUS ADAPTER EXERCISER, VERSION=0,4 	MACRO %53(1020) 09:46 12-Jul-79 Page 74
DSUBAM	MAC	28-Jun-79 10:11		UTILITY ROUTINES AND INTERRUPT HANDLERS                                            SEQ 0119

  3760					SUBTTL	UTILITY ROUTINES AND INTERRUPT HANDLERS
  3761
  3762					; **********************************************************************
  3763					;* SUBROUTINE "PAGERR" PRINTS OUT THE CONTENTS OF T5 AS THE PAGING RAM
  3764					; **********************************************************************
  3765
  3766	034645	261 17 0 00 000000 	PAGERR:	PUT	T0
  3767	034646	037 00 0 00 041645 		PNTMSG	[ASCIZ/PAGING RAM NUMBER = /]
  3768	034647	200 00 0 00 000005 		MOVE	T0,T5		;GET PAGING RAM ADDRESS
  3769	034650	037 02 0 00 000000 		PNT2			;PRINT TWO OCTAL DIGITS
  3770	034651	037 00 0 00 030242 		PCRL
  3771	034652	262 17 0 00 000000 		GET	T0
  3772	034653	263 17 0 00 000000 		RTN
  3773
  3774
  3775					; **********************************************************************
  3776					;* SUBROUTINE "SEGMEM" GETS THE BUGS OUT OF SUBRTN'S "MEMSEG" ROUTINE.
  3777					;* THE ROUTINE ACCEPTS 'MEMSEG' ARGUEMENTS IN T0.
  3778					; **********************************************************************
  3779
  3780	034654	037 11 0 00 000002 	SEGMEM:	MEMSEG			;WITH LUCK, SET UP MEMORY MAPPING...
  3781	034655	320 00 0 00 000000 		JUMP
  3782	034656	261 17 0 00 000000 		PUT	T0
  3783	034657	261 17 0 00 000001 		PUT	T1
  3784	034660	261 17 0 00 000006 		PUT	T6
  3785	034661	403 01 0 00 000000 		SETZB	T1,T0		;THIS KLUGED UP MOTHER SETS
  3786	034662	124 00 1 00 030145 		DMOVEM	T0,@MEMLOW	;TWO LOCATIONS HIGH!!!!!!!
  3787	034663	7 010 24 0 00 000006 		CONI	PAG,6
  3788	034664	7 010 20 1 00 000006 		CONO	PAG,@6		;FLUSH CACHE FOR NPR XFER RESET
  3789	034665	262 17 0 00 000006 		GET	T6
  3790	034666	262 17 0 00 000001 		GET	T1
  3791	034667	262 17 0 00 000000 		GET	T0
  3792	034670	263 17 0 00 000000 		RTN


DECSYSTEM 2020 UNIBUS ADAPTER EXERCISER, VERSION=0,4 	MACRO %53(1020) 09:46 12-Jul-79 Page 75
DSUBAM	MAC	28-Jun-79 10:11		UTILITY ROUTINES AND INTERRUPT HANDLERS                                            SEQ 0120

  3793					; **********************************************************************
  3794					;* SUBROUTINE "ZERMEM" GETS THE BUGS OUT OF "MEMZRO" AND ZEROES MEMORY
  3795					; **********************************************************************
  3796
  3797	034671	261 17 0 00 000000 	ZERMEM:	PUT	T0
  3798	034672	261 17 0 00 000001 		PUT	T1
  3799	034673	261 17 0 00 000006 		PUT	T6
  3800	034674	037 12 0 00 000002 		MEMZRO			;ZERO OUT MOST OF MEMORY
  3801	034675	403 00 0 00 000001 		SETZB	T0,T1		;WE HAVE TWO MORE LOCATIONS TO ZERO
  3802	034676	124 00 1 00 030145 		DMOVEM	T0,@MEMLOW	;TA-DA!!
  3803	034677	7 010 24 0 00 000006 		CONI	PAG,6
  3804	034700	7 010 20 1 00 000006 		CONO	PAG,@6		;FLUSH CACHE FOR NPR XFER RESET
  3805	034701	262 17 0 00 000006 		GET	T6
  3806	034702	262 17 0 00 000001 		GET	T1
  3807	034703	262 17 0 00 000000 		GET	T0
  3808	034704	263 17 0 00 000000 		RTN
  3809
  3810
  3811					; **********************************************************************
  3812					;* SUBROUTINE "CHECKP" STOPS AND CHECKS FOR THE PARITY BIT. THIS ROUTINE
  3813					;* SKIPS ON RETURN IF PARITY IS GOOD OR IF THE "ABORTP" FLAG IS HIGH.
  3814					; **********************************************************************
  3815
  3816	034705	000000	000000		CHECKP:	0
  3817	034706	261 17 0 00 000000 		PUT	T0
  3818
  3819	034707	200 00 0 00 035607 		MOVE	ABORTP		;GET ABORT PARITY CHECKING FLAG
  3820	034710	326 00 0 00 034715 		JUMPN	CHECKA		;IT'S ASSERTED, DO SKIP RETURN
  3821
  3822	034711	712 00 1 00 035636 		RDIO	@UBASR		;CHECK ON UBA STATUS REGISTER
  3823	034712	606 00 0 00 100000 		TRNN	SMPE		;SKIP IF PARITY IS ASSERTED
  3824	034713	254 00 0 00 034715 		JRST	CHECKA		;DO A SKIP RETURN
  3825
  3826	034714	254 00 0 00 034720 		JRST	CHECKZ		;DO A REGULAR RETURN
  3827
  3828	034715	200 00 0 00 034705 	CHECKA:	MOVE	CHECKP
  3829	034716	340 00 0 00 000000 		AOJ
  3830	034717	202 00 0 00 034705 		MOVEM	CHECKP		;AND DO A SKIP RETURN
  3831
  3832	034720	262 17 0 00 000000 	CHECKZ:	GET	T0
  3833	034721	254 00 1 00 034705 		JRST	@CHECKP


DECSYSTEM 2020 UNIBUS ADAPTER EXERCISER, VERSION=0,4 	MACRO %53(1020) 09:46 12-Jul-79 Page 76
DSUBAM	MAC	28-Jun-79 10:11		UTILITY ROUTINES AND INTERRUPT HANDLERS                                            SEQ 0121

  3834					; **********************************************************************
  3835					;* SUBROUTINE "UBELOD" LOADS ALL THE REGISTERS OF A PARTICULAR EXERCISER
  3836					;* WITH THE CONTENTS OF SOME ACCUMULATORS.T1 IS THE NUMBER OF THE UBE,
  3837					;* T10 THE DATA,T11 CYCLE COUNT,T12 ADDRESS,T13 CONTROL REGISTER #1,
  3838					;* AND T14 CONTROL REGISTER #2.
  3839					; **********************************************************************
  3840
  3841	034722	261 17 0 00 000000 	UBELOD:	PUT	T0
  3842	034723	261 17 0 00 000002 		PUT	T2
  3843	034724	261 17 0 00 000003 		PUT	T3
  3844
  3845	034725	200 03 0 00 000001 		MOVE	T3,T1		;GET NUMBER OF UBE TO BE LOADED
  3846	034726	360 03 0 00 000000 		SOJ	T3,		;SUBTRACT ONE FOR INDEXING
  3847	034727	221 03 0 00 000005 		IMULI	T3,5		;EACH UBE IN THE TABLE HAS 5 REGISTERS
  3848
  3849	034730	200 02 0 03 035643 		MOVE	T2,UBEDB1(T3)	;GET UBE DATA REGISTER ADDRESS
  3850	034731	713 12 1 00 000002 		WRIO	T10,@T2		;LOAD IT WITH CONTENTS OF T10
  3851	034732	200 02 0 03 035644 		MOVE	T2,UBECC1(T3)	;GET UBE CYCLE COUNT ADDRESS
  3852	034733	713 13 1 00 000002 		WRIO	T11,@T2
  3853	034734	200 02 0 03 035645 		MOVE	T2,UBEBA1(T3)	;GET UBE ADDRESS REGISTER ADDRESS
  3854	034735	713 14 1 00 000002 		WRIO	T12,@T2
  3855	034736	200 02 0 03 035647 		MOVE	T2,UBEC1B(T3)	;GET UBE CONTROL REGISTER #2
  3856	034737	713 16 1 00 000002 		WRIO	T14,@T2
  3857	034740	200 02 0 03 035646 		MOVE	T2,UBEC1A(T3)	;GET UBE CONTROL REGISTER #1
  3858	034741	713 15 1 00 000002 		WRIO	T13,@T2		;( MIGHT TURN IT ON )
  3859
  3860	034742	262 17 0 00 000003 		GET	T3
  3861	034743	262 17 0 00 000002 		GET	T2
  3862	034744	262 17 0 00 000000 		GET	T0
  3863	034745	263 17 0 00 000000 		RTN


DECSYSTEM 2020 UNIBUS ADAPTER EXERCISER, VERSION=0,4 	MACRO %53(1020) 09:46 12-Jul-79 Page 77
DSUBAM	MAC	28-Jun-79 10:11		UTILITY ROUTINES AND INTERRUPT HANDLERS                                            SEQ 0122

  3864
  3865					; **********************************************************************
  3866					;* UTILITY ROUTINE "ERRBTZ" PRINTS OUT THE UBE ERROR BITS FROM CONTROL
  3867					;* REGISTER #2,-THE CONTENTS OF THE CONTROL REGISTER ARE STORED IN
  3868					;* INTERO. ALSO, THE CONTENTS OF "INTERS", I.E. THE UBA STATUS REGISTER,
  3869					;* ARE ALSO PRINTED OUT.
  3870					; **********************************************************************
  3871
  3872	034746	261 17 0 00 000000 	ERRBTZ:	PUT	T0
  3873	034747	261 17 0 00 000001 		PUT	T1
  3874
  3875	034750	200 01 0 00 035610 		MOVE	T1,INTERS	;GET UBA STATUS REGISTER BITS
  3876	034751	602 01 0 00 740000 		TRNE	T1,740000	;SKIP IF NO UBA ERROR BITS GOT SET
  3877						PNTMSG	[ASCIZ/UBA ERROR BITS ARE:
  3878	034752	037 00 0 00 041652 	/]
  3879	034753	602 01 0 00 400000 		TRNE	T1,400000
  3880						PNTMSG	[ASCIZ/ - TIME OUT
  3881	034754	037 00 0 00 041657 	/]
  3882	034755	602 01 0 00 200000 		TRNE	T1,200000
  3883						PNTMSG	[ASCIZ/ - BAD MEMORY DATA
  3884	034756	037 00 0 00 041662 	/]
  3885	034757	602 01 0 00 100000 		TRNE	T1,100000
  3886						PNTMSG	[ASCIZ/ - BUS PARITY ERROR
  3887	034760	037 00 0 00 041667 	/]
  3888	034761	602 01 0 00 040000 		TRNE	T1,40000
  3889						PNTMSG	[ASCIZ/ - NON EXISTENT DEVICE
  3890	034762	037 00 0 00 041674 	/]


DECSYSTEM 2020 UNIBUS ADAPTER EXERCISER, VERSION=0,4 	MACRO %53(1020) 09:46 12-Jul-79 Page 78
DSUBAM	MAC	28-Jun-79 10:11		UTILITY ROUTINES AND INTERRUPT HANDLERS                                            SEQ 0123

  3891	034763	200 01 0 00 035611 		MOVE	T1,INTERO	;GET ERROR BITS
  3892	034764	602 01 0 00 007740 		TRNE	T1,7740		;SKIP IF NO ERRORS
  3893						PNTMSG	[ASCIZ/UBE ERROR BITS ARE:
  3894	034765	037 00 0 00 041701 	/]
  3895	034766	602 01 0 00 000040 		TRNE	T1,40		;SKIP IF BIT NOT ASSERTED
  3896						PNTMSG	[ASCIZ/ - WRONG GRANT BACK
  3897	034767	037 00 0 00 041706 	/]
  3898	034770	602 01 0 00 000100 		TRNE	T1,100
  3899						PNTMSG	[ASCIZ/ - MAX LATE ERROR
  3900	034771	037 00 0 00 041713 	/]
  3901	034772	602 01 0 00 000200 		TRNE	T1,200
  3902						PNTMSG	[ASCIZ/ - NO NO SACK TIMOUT
  3903	034773	037 00 0 00 041717 	/]
  3904	034774	602 01 0 00 000400 		TRNE	T1,400
  3905						PNTMSG	[ASCIZ/ - NO SSYN ERROR
  3906	034775	037 00 0 00 041724 	/]
  3907	034776	602 01 0 00 001000 		TRNE	T1,1000
  3908						PNTMSG	[ASCIZ/ - WRONG A LINES
  3909	034777	037 00 0 00 041730 	/]
  3910	035000	602 01 0 00 002000 		TRNE	T1,2000
  3911						PNTMSG	[ASCIZ/ - NO GRANT OR NOT ONE GRANT
  3912	035001	037 00 0 00 041734 	/]
  3913	035002	602 01 0 00 004000 		TRNE	T1,4000
  3914						PNTMSG	[ASCIZ/ - INTERRUPT SLAVE SSYNC ERROR
  3915	035003	037 00 0 00 041743 	/]
  3916
  3917	035004	262 17 0 00 000001 		GET	T1
  3918	035005	262 17 0 00 000000 		GET	T0
  3919	035006	263 17 0 00 000000 		RTN


DECSYSTEM 2020 UNIBUS ADAPTER EXERCISER, VERSION=0,4 	MACRO %53(1020) 09:46 12-Jul-79 Page 79
DSUBAM	MAC	28-Jun-79 10:11		UTILITY ROUTINES AND INTERRUPT HANDLERS                                            SEQ 0124

  3920
  3921					; **********************************************************************
  3922					;* INTERRUPT HANDLER "UNWANT" HANDLES UNWANTED UBE INTERRUPT ON ERROR
  3923					;* STUFF,-IT STORES THE UBE ERROR BITS IN LOCATION "INTERO", RESETS THE
  3924					;* UBE, AND RESETS THE UBA PIA BITS TO PI CHANNEL #1. THIS ROUTINE ALSO
  3925					;* READS THE CONTENTS OF THE UBA STATUS REGISTER INTO "INTERS".
  3926					; **********************************************************************
  3927
  3928	035007	000000	000000		UNWANT:	0
  3929	035010	261 17 0 00 000000 		PUT	T0
  3930	035011	261 17 0 00 000001 		PUT	T1
  3931	035012	261 17 0 00 000002 		PUT	T2
  3932	035013	261 17 0 00 000003 		PUT	T3
  3933	035014	261 17 0 00 000004 		PUT	T4
  3934
  3935	035015	712 00 1 00 035636 		RDIO	@UBASR		;GET UBA STATUS REGISTER CONTENTS
  3936	035016	202 00 0 00 035610 		MOVEM	INTERS		;ANS STORE IN LOCATION "INTERS"
  3937
  3938	035017	200 01 0 00 035616 		MOVE	T1,UEXORN	;GET NUMBER OF UBE'S ON BUS
  3939	035020	200 03 0 00 000001 	UNWAN1:	MOVE	T3,T1		;MOVE TO T3 ALSO
  3940	035021	360 03 0 00 000000 		SOJ	T3,		;SUBTRACT ONE FOR INDEXING
  3941	035022	221 03 0 00 000005 		IMULI	T3,5		;EACH UBE HAS 5 REGISTERS
  3942	035023	200 04 0 03 035646 		MOVE	T4,UBEC1A(T3)	;GET ADDRESS OF UBE #T1 CONTROL REG.#1
  3943	035024	712 02 1 00 000004 		RDIO	T2,@T4		;READ FROM CONTROL REGISTER
  3944	035025	606 02 0 00 100000 		TRNN	T2,100000	;SKIP IF ERROR BIT SET
  3945	035026	367 01 0 00 035020 		SOJG	T1,UNWAN1	;LOOP IF MORE EXERCISERS TO CHECK
  3946
  3947	035027	322 01 0 00 035036 		JUMPE	T1,UNWANZ	;RETURN IF NO UBE'S WITH ERRORS FOUND
  3948	035030	202 02 0 00 035611 		MOVEM	T2,INTERO	;STORE ERROR BITS IN "INTERO"
  3949	035031	271 04 0 00 000002 		ADDI	T4,2		;CHANGE T4 TO UBE CLEAR ADDRESS
  3950	035032	713 00 1 00 000004 		WRIO	@T4		;SHOULD RESET UBE
  3951	035033	260 17 0 00 035202 		GO	UBACLR		;RESET UBA TOO..
  3952	035034	201 00 0 00 000011 		MOVEI	11
  3953	035035	713 00 1 00 035636 		WRIO	@UBASR		;AND SET PIA BITS TO PI CHANNEL #1
  3954
  3955	035036	262 17 0 00 000004 	UNWANZ:	GET	T4
  3956	035037	262 17 0 00 000003 		GET	T3
  3957	035040	262 17 0 00 000002 		GET	T2
  3958	035041	262 17 0 00 000001 		GET	T1
  3959	035042	262 17 0 00 000000 		GET	T0
  3960	035043	254 10 1 00 035007 		JRST	10,@UNWANT


DECSYSTEM 2020 UNIBUS ADAPTER EXERCISER, VERSION=0,4 	MACRO %53(1020) 09:46 12-Jul-79 Page 80
DSUBAM	MAC	28-Jun-79 10:11		UTILITY ROUTINES AND INTERRUPT HANDLERS                                            SEQ 0125

  3961
  3962					; **********************************************************************
  3963					;* SUBROUTINE "IDEFAL" SETS UP THE DEFAULT UNWANTED INTERRUPT HANDLER.
  3964					; **********************************************************************
  3965
  3966	035044	261 17 0 00 000000 	IDEFAL:	PUT	T0
  3967
  3968	035045	402 00 0 00 035611 		SETZM	INTERO		;RESET UBE ERROR BIT BUFFER
  3969	035046	402 00 0 00 035610 		SETZM	INTERS		;RESET UBA ERROR BIT BUFFER
  3970
  3971	035047	200 00 0 00 041752 		MOVE	[JSR UNWANT]	;GET JSR TO UNWANTED INTR.HANDLER
  3972	035050	202 00 0 00 035620 		MOVEM	TEMP1		;AND STORE IN TEMP1
  3973	035051	260 17 0 00 035144 		GO	ITRSET		;AND LOAD "ITRTBL" WITH IT
  3974
  3975	035052	260 17 0 00 035202 		GO	UBACLR		;RESET UNIBUS ADAPTER
  3976
  3977	035053	201 00 0 00 000011 		MOVEI	11
  3978	035054	714 00 1 00 035636 		BSIO	@UBASR		;SET ALL BR LEVELS TO PI CHANNEL #1
  3979
  3980	035055	700 14 0 00 002300 		WRPI	2300		;ACTIVATE PI CHANNEL #1
  3981
  3982	035056	262 17 0 00 000000 		GET	T0
  3983	035057	263 17 0 00 000000 		RTN


DECSYSTEM 2020 UNIBUS ADAPTER EXERCISER, VERSION=0,4 	MACRO %53(1020) 09:46 12-Jul-79 Page 81
DSUBAM	MAC	28-Jun-79 10:11		UTILITY ROUTINES AND INTERRUPT HANDLERS                                            SEQ 0126

  3984
  3985					; **********************************************************************
  3986					;* ROUTINE "PAGLOD" LOADS ALL LOCATIONS OF THE UBA PAGING RAM
  3987					;* WITH THE CONTENTS OF TEMP1, ALSO ADDING IN THE VALID BIT.
  3988					; **********************************************************************
  3989
  3990	035060	261 17 0 00 000000 	PAGLOD:	PUT	T0
  3991	035061	261 17 0 00 000001 		PUT	T1
  3992	035062	261 17 0 00 000002 		PUT	T2
  3993
  3994	035063	200 00 0 00 035620 		MOVE	TEMP1		;GET STARTING ADDRESS AGAIN
  3995	035064	271 00 0 00 040000 		ADDI	040000		;ADD IN THE DATA VALID BIT
  3996	035065	201 01 0 00 000077 		MOVEI	T1,^D63		;INITIALIZE PAGE NUMBER
  3997	035066	200 02 0 00 035635 	PAGLO1:	MOVE	T2,UBAPR	;GET PAGING RAM BASE ADDRESS
  3998	035067	270 02 0 00 000001 		ADD	T2,T1		;INDEX BASE ADDRESS BY PAGE #
  3999	035070	713 00 1 00 000002 		WRIO	T0,@T2		;WRITE INTO PAGING RAM
  4000	035071	365 01 0 00 035066 		SOJGE	T1,PAGLO1
  4001
  4002	035072	262 17 0 00 000002 		GET	T2
  4003	035073	262 17 0 00 000001 		GET	T1
  4004	035074	262 17 0 00 000000 		GET	T0
  4005	035075	263 17 0 00 000000 		RTN


DECSYSTEM 2020 UNIBUS ADAPTER EXERCISER, VERSION=0,4 	MACRO %53(1020) 09:46 12-Jul-79 Page 82
DSUBAM	MAC	28-Jun-79 10:11		UTILITY ROUTINES AND INTERRUPT HANDLERS                                            SEQ 0127

  4006
  4007					; **********************************************************************
  4008					;* ROUTINE "BLOCKT" MAKES A UBE TRANSFER 1000 FULL WORDS STARTING AT THE
  4009					;* ADDRESS SPECIFIED BY PARAMETER "TEMP1". THE TEST PATTERN USED IS
  4010					;* STORED IN LOCATION TEMP2.
  4011					; **********************************************************************
  4012
  4013	035076	261 17 0 00 000000 	BLOCKT:	PUT	T0
  4014	035077	261 17 0 00 000001 		PUT	T1
  4015	035100	700 14 0 00 010000 		WRPI	10000		;TURN OFF PI SYSTEM FOR NOW
  4016
  4017	035101	260 17 0 00 035202 		GO	UBACLR		;RESET UBA
  4018	035102	260 17 0 00 035212 		GO	EXOCLR		;RESET UBE'S
  4019	035103	200 00 0 00 035621 		MOVE	TEMP2		;GET TEST PATTERN
  4020	035104	713 00 1 00 035643 		WRIO	@UBEDB1		;WRITE INTO UBE #1 DATA REGISTER
  4021	035105	201 00 0 00 001777 		MOVEI	1777		;GET NUMBER OF HALF WORD XFERS
  4022	035106	450 00 0 00 000000 		SETCA			;SET IT TO COMPLEMENT
  4023	035107	713 00 1 00 035644 		WRIO	@UBECC1		;AND PUT IT INTO UBE CYCLE COUNT REG.
  4024	035110	200 00 0 00 035620 		MOVE	TEMP1		;GET STARTING ADDRESS AGAIN
  4025	035111	405 00 0 00 777000 		ANDI	777000		;GET HIGH ORDER ADDRESS BITS
  4026	035112	242 00 0 00 777767 		LSH	^D-9		;SHIFT TO FIT IN UBA PAGING RAM
  4027	035113	202 00 0 00 035620 		MOVEM	TEMP1		;STORE PARAMETER FOR PAGLOD ROUTINE
  4028	035114	260 17 0 00 035060 		GO	PAGLOD		;LOAD UP PAGING RAM
  4029	035115	201 00 0 00 003041 		MOVEI	3041		;DATO,XFER TILL CCOVF,NPR,GO
  4030	035116	713 00 1 00 035646 		WRIO	@UBEC1A		;WRITE INTO CONTROL REGISTER #1
  4031
  4032	035117	201 00 0 00 000144 		MOVEI	T0,^D100	;GET BIG LOOP COUNT
  4033	035120	712 01 1 00 035644 	BLOCKA:	RDIO	T1,@UBECC1	;GET CYCLE COUNT
  4034	035121	322 01 0 00 035125 		JUMPE	T1,BLOCKB	;SEE IF UBE FINISHED
  4035	035122	201 01 0 00 000310 		MOVEI	T1,^D200
  4036	035123	365 01 0 00 035123 		SOJGE	T1,.		;SMALL WAIT LOOP
  4037	035124	365 00 0 00 035120 		SOJGE	T0,BLOCKA	;LARGE WAIT LOOP ( INCREASES SPEED )
  4038
  4039	035125	700 14 0 00 002300 	BLOCKB:	WRPI	2300		;TURN PI CHANNEL #1 BACK ON
  4040	035126	262 17 0 00 000001 		GET	T1
  4041	035127	262 17 0 00 000000 		GET	T0
  4042	035130	263 17 0 00 000000 		RTN


DECSYSTEM 2020 UNIBUS ADAPTER EXERCISER, VERSION=0,4 	MACRO %53(1020) 09:46 12-Jul-79 Page 83
DSUBAM	MAC	28-Jun-79 10:11		UTILITY ROUTINES AND INTERRUPT HANDLERS                                            SEQ 0128

  4043
  4044					; **********************************************************************
  4045					;* ROUTINE TO SET UP FOR TESTING THE CORRECT UBA
  4046					; **********************************************************************
  4047
  4048	035131	506 07 0 00 035635 	SELECT:	HRLM	T7,UBAPR	;SET UBA# FOR PAGING RAM BASE ADDRESS
  4049	035132	506 07 0 00 035636 		HRLM	T7,UBASR	;UBA STATUS REGISTER
  4050	035133	506 07 0 00 035637 		HRLM	T7,UBAMT	;UBA MAINTENANCE REGISTER
  4051	035134	506 07 0 00 035640 		HRLM	T7,UBEMAX	;MAXIMUM POSSIBLE UBE ADDRESS
  4052	035135	506 07 0 00 035641 		HRLM	T7,SIMUGO	;UBE SIMULTANEOUS GO ADDRESS
  4053	035136	506 07 0 00 035643 		HRLM	T7,UBEDB1	;UBE DATA REGISTER
  4054	035137	506 07 0 00 035644 		HRLM	T7,UBECC1	;UBE CYCLE COUNT REGISTER
  4055	035140	506 07 0 00 035645 		HRLM	T7,UBEBA1	;UBE ADDRESS REGISTER
  4056	035141	506 07 0 00 035646 		HRLM	T7,UBEC1A	;UBE CONTROL REGISTER #1
  4057	035142	506 07 0 00 035647 		HRLM	T7,UBEC1B	;UBE CONTROL REGISTER #2
  4058
  4059	035143	263 17 0 00 000000 		RTN


DECSYSTEM 2020 UNIBUS ADAPTER EXERCISER, VERSION=0,4 	MACRO %53(1020) 09:46 12-Jul-79 Page 84
DSUBAM	MAC	28-Jun-79 10:11		UTILITY ROUTINES AND INTERRUPT HANDLERS                                            SEQ 0129

  4060
  4061					; **********************************************************************
  4062					;* ROUTINE TO LOAD "ITRTBL" INTERRUPT TABLE WITH TEMP1 ON THE FLY.
  4063					; **********************************************************************
  4064
  4065	035144	261 17 0 00 000000 	ITRSET:	PUT	T0
  4066	035145	261 17 0 00 000001 		PUT	T1
  4067
  4068	035146	200 01 0 00 035620 		MOVE	T1,TEMP1	;GET INSTRUCTION TO PUT IN ITRTBL
  4069	035147	202 01 0 00 035754 		MOVEM	T1,ITRTBL	;AND STORE AT BEGINNING OF ITRTBL
  4070	035150	505 00 0 00 035754 		HRLI	T0,ITRTBL	;PUT ITRTBL ADDRESS IN L.H.T0
  4071	035151	544 00 0 00 000000 		HLR	T0,T0		;THEN PUT IT IN BOTH HALF WORDS
  4072	035152	340 00 0 00 000000 		AOJ	T0,		;AND INCREMENT R.H.WORD
  4073	035153	251 00 0 00 036353 		BLT	T0,ITRTBL+^D255	;BLIT IT ALL IN
  4074
  4075	035154	262 17 0 00 000001 		GET	T1
  4076	035155	262 17 0 00 000000 		GET	T0
  4077	035156	263 17 0 00 000000 		RTN


DECSYSTEM 2020 UNIBUS ADAPTER EXERCISER, VERSION=0,4 	MACRO %53(1020) 09:46 12-Jul-79 Page 85
DSUBAM	MAC	28-Jun-79 10:11		UTILITY ROUTINES AND INTERRUPT HANDLERS                                            SEQ 0130

  4078
  4079					; **********************************************************************
  4080					;* ROUTINE TO ACTIVATE THE PI LEVEL STORED IN TEMP1.
  4081					; **********************************************************************
  4082	035157	261 17 0 00 000004 	SETPI:	PUT	T4
  4083
  4084	035160	200 04 0 00 035620 		MOVE	T4,TEMP1	;GET # PI LEVEL TO ACTIVATE
  4085	035161	700 14 0 00 010000 		WRPI	10000		;RE-SET PI SYSTEM
  4086	035162	306 04 0 00 000007 		CAIN	T4,7		;( TURN ON CHANEL CONTAINED IN T4 )
  4087	035163	700 14 0 00 002201 		WRPI	2201		;TURN ON PI CHANNEL #7
  4088	035164	306 04 0 00 000006 		CAIN	T4,6
  4089	035165	700 14 0 00 002202 		WRPI	2202
  4090	035166	306 04 0 00 000005 		CAIN	T4,5
  4091	035167	700 14 0 00 002204 		WRPI	2204
  4092	035170	306 04 0 00 000004 		CAIN	T4,4
  4093	035171	700 14 0 00 002210 		WRPI	2210
  4094	035172	306 04 0 00 000003 		CAIN	T4,3
  4095	035173	700 14 0 00 002220 		WRPI	2220
  4096	035174	306 04 0 00 000002 		CAIN	T4,2
  4097	035175	700 14 0 00 002240 		WRPI	2240
  4098	035176	306 04 0 00 000001 		CAIN	T4,1
  4099	035177	700 14 0 00 002300 		WRPI	2300
  4100
  4101	035200	262 17 0 00 000004 		GET	T4
  4102	035201	263 17 0 00 000000 		RTN


DECSYSTEM 2020 UNIBUS ADAPTER EXERCISER, VERSION=0,4 	MACRO %53(1020) 09:46 12-Jul-79 Page 86
DSUBAM	MAC	28-Jun-79 10:11		UTILITY ROUTINES AND INTERRUPT HANDLERS                                            SEQ 0131

  4103
  4104					; **********************************************************************
  4105					;* UNIBUS ADAPTER CLEAR ROUTINE.
  4106					; **********************************************************************
  4107
  4108	035202	261 17 0 00 000000 	UBACLR:	PUT	T0
  4109	035203	201 00 0 00 000100 		MOVEI	UBINIT		;GET UNIBUS INIT BIT
  4110	035204	714 00 1 00 035636 		BSIO	@UBASR		;INITIALIZE UNIBUS
  4111	035205	714 00 1 00 035636 		BSIO	@UBASR		;   "      "
  4112	035206	400 00 0 00 000000 		SETZ	T0,
  4113	035207	713 00 1 00 035637 		WRIO	@UBAMT		;MAKE SURE IT'S NOT IN MAINTENANCE MODE!
  4114	035210	262 17 0 00 000000 		GET	T0
  4115	035211	263 17 0 00 000000 		RTN
  4116
  4117					; **********************************************************************
  4118					;* UNIBUS EXERCISER CLEAR ROUTINE.
  4119					; **********************************************************************
  4120
  4121	035212	261 17 0 00 000000 	EXOCLR:	PUT	T0
  4122	035213	261 17 0 00 000001 		PUT	T1
  4123
  4124	035214	200 00 0 00 035616 		MOVE	T0,UEXORN	;GET # EXERCISERS ON BUS
  4125	035215	323 00 0 00 035234 		JUMPLE	T0,UBECLZ	;ABORT ROUTINE IF NO UBE'S ON BUS
  4126	035216	200 01 0 00 000000 	EXOCL1:	MOVE	T1,T0		;MOVE UBE # TO AC#1
  4127	035217	360 01 0 00 000000 		SOJ	T1,		;SUBTRACT ONE FOR INDEXING
  4128	035220	221 01 0 00 000005 		IMULI	T1,5		;EACH UBE HAS FIVE REGISTERS
  4129	035221	200 01 0 01 035646 		MOVE	T1,UBEC1A(T1)	;GET CONTROL REGISTER #1 ADDRESS
  4130	035222	271 01 0 00 000002 		ADDI	T1,2		;INCREMENT TO CLEAR ADDRESS
  4131	035223	713 00 1 00 000001 		WRIO	@T1		;RESET ALL ERROR BITS
  4132	035224	367 00 0 00 035216 		SOJG	T0,EXOCL1
  4133
  4134	035225	200 01 0 00 035616 		MOVE	T1,UEXORN	;GET # EXERCISERS ON BUS
  4135	035226	221 01 0 00 000005 		IMULI	T1,5		;EACH UBE HAS 5 REGISTERS
  4136	035227	200 00 0 01 035642 	UBECLA:	MOVE	UBETBL(T1)	;GET I/O REGISTER ADDRESS
  4137	035230	202 00 0 00 035613 		MOVEM	WRKADR		;AND MOVE INTO WRKADR
  4138	035231	400 00 0 00 000000 		SETZ	T0,
  4139	035232	713 00 1 00 035613 		WRIO	T0,@WRKADR	;CLEAR REGISTER
  4140	035233	367 01 0 00 035227 		SOJG	T1,UBECLA	;LOOP IF MORE REGISTERS TO GO
  4141
  4142	035234	262 17 0 00 000001 	UBECLZ:	GET	T1
  4143	035235	262 17 0 00 000000 		GET	T0
  4144	035236	263 17 0 00 000000 		RTN


DECSYSTEM 2020 UNIBUS ADAPTER EXERCISER, VERSION=0,4 	MACRO %53(1020) 09:46 12-Jul-79 Page 87
DSUBAM	MAC	28-Jun-79 10:11		UTILITY ROUTINES AND INTERRUPT HANDLERS                                            SEQ 0132

  4145
  4146					; **********************************************************************
  4147					;* IOPGFT: -- ROUTINE TO TEST FOR AND REPORT IO PAGE FAIL TRAPS
  4148					; **********************************************************************
  4149
  4150	035237	261 17 0 00 000000 	IOPGFT:	PUT	T0
  4151	035240	200 00 0 00 000500 		MOVE	T0,LEUPFW	;GET PAGE FAIL WORD
  4152	035241	135 00 0 00 041753 		LDB	T0,[POINT 6,T0,5]   ;GET CODE
  4153	035242	306 00 0 00 000020 		CAIN	T0,20		;I/O PAGE FAIL?
  4154	035243	254 00 0 00 035246 		JRST	IOPGF1		;YES
  4155	035244	262 17 0 00 000000 		GET	T0
  4156	035245	254 00 1 00 042434 		JRST	@SVPGFT#	;NO LET SUBROUTINE PACKAGE SERVICE IT
  4157
  4158	035246	400 00 0 00 000000 	IOPGF1:	SETZ	T0,
  4159	035247	316 00 0 00 035253 		CAMN	T0,IOPGFA	;SKIP IF PAGE FAIL WAS INTENTIONAL
  4160	035250	254 00 0 00 035254 		JRST	IOPGFB		;PAGE FAIL NOT INTENDED,-ERROR.
  4161	035251	262 17 0 00 000000 		GET	T0
  4162	035252	254 00 1 00 035253 		JRST	@IOPGFA		;GO TO ROUTINE THAT INITIATED PAGE FAIL
  4163
  4164	035253	000000	000000		IOPGFA:	0			;RETURN ADDRESS FOR TEST THAT CAUSED
  4165									;THE PAGE FAIL.
  4166
  4167	035254	037 04 0 00 041754 	IOPGFB:	PMSGF	(I-O PAGE FAILURE EXECUTING I-O   PC= )
  4168	035255	200 00 0 00 000501 		MOVE	LPFWPC		;GET PC
  4169	035256	037 13 0 00 000001 		PNTHWF
  4170
  4171	035257	037 04 0 00 041763 		PMSGF	(   I-O ADDRESS = )
  4172	035260	200 00 0 00 000500 		MOVE	LEUPFW
  4173	035261	037 13 0 00 000001 		PNTHWF
  4174
  4175	035262	037 00 0 00 030242 		PCRL			;PRINT CARRIAGE RETURN LINE FEED
  4176	035263	262 17 0 00 000000 		GET	T0
  4177	035264	037 16 0 00 000004 		EOPUUO


DECSYSTEM 2020 UNIBUS ADAPTER EXERCISER, VERSION=0,4 	MACRO %53(1020) 09:46 12-Jul-79 Page 88
DSUBAM	MAC	28-Jun-79 10:11		UTILITY ROUTINES AND INTERRUPT HANDLERS                                            SEQ 0133

  4178
  4179					; **********************************************************************
  4180					;* ROUTINE ABRT34 IS USED FOR TEST 35,-IF AN I/O PAGE FAIL OCCURED
  4181					;* DURING THE TEST, WE MAY ASSUME THAT THE UBA IS IN A "HUNG" STATE,
  4182					;* AND ALL WE CAN DO IS TELL OPERATOR AND END PROGRAM.
  4183					; **********************************************************************
  4184
  4185	035265				ABRT34:	PNTMSF	[ASCIZ/
  4186					***** WARNING - FATAL ERROR - PROGRAM ABORTED *****
  4187					A PAGE FAIL OCCURED DURING A BLOCK TRANSFER FROM A
  4188					UBE TO MEMORY. THIS IMPLIES THAT THE UNIBUS ADAPTER
  4189					IS IN A "HUNG" STATE. THE ONLY WAY TO CLEAR THE UBA
  4190					IS TO HAVE THE 8080 CONSOLE ISSUE AN "MR" MASTER
  4191					RESET COMMAND.
  4192	035265	037 01 0 00 041766 	/]
  4193
  4194	035266	037 16 0 00 000004 		EOPUUO			;KILL PROGRAM
  4195


DECSYSTEM 2020 UNIBUS ADAPTER EXERCISER, VERSION=0,4 	MACRO %53(1020) 09:46 12-Jul-79 Page 89
DSUBAM	MAC	28-Jun-79 10:11		UTILITY ROUTINES AND INTERRUPT HANDLERS                                            SEQ 0134

  4196
  4197					; **********************************************************************
  4198					;* SUBROUTINE "GETVEC" WILL DETERMINE WHAT THE INTERRUPT VECTOR OF A
  4199					;* UNIBUS EXERCISER IS. TO USE IT, SET UP LOCATION TEMP1 WITH THE BASE
  4200					;* ADDRESS OF THE UBE IN QUESTION,( I.E. 3770000, 3770020, ETC. )
  4201					;* THE ROUTINE RETURNS THE INTERRUPT VECTOR IN TEMP1, OR ALL ONES IF THE
  4202					;* EXERCISER DID NOT INTERRUPT.
  4203					;*   NOTE THAT THIS ROUTINE LOADS BOTH AOJTBL AND ITRTBL ON THE FLY.
  4204					; **********************************************************************
  4205
  4206	035267	261 17 0 00 000000 	GETVEC:	PUT	T0
  4207	035270	261 17 0 00 000001 		PUT	T1
  4208	035271	261 17 0 00 000002 		PUT	T2
  4209
  4210	035272	260 17 0 00 035202 		GO	UBACLR
  4211	035273	201 00 0 00 000001 		MOVEI	1
  4212	035274	713 00 1 00 035636 		WRIO	@UBASR		;SET UP BR4 TO KS10 PI LEVEL 1
  4213									;(IF BR6-7 WERE SET,ERROR WOULD KILL)
  4214	035275	200 00 0 00 042056 		MOVE	[JSR AOJTBL]
  4215	035276	400 01 0 00 000000 		SETZ	T1,
  4216	035277	202 00 0 01 035754 		MOVEM	ITRTBL(T1)	;SET UP JSR INSTRUCTIONS FOR AUTOSIZING
  4217	035300	340 00 0 00 000000 		AOJ	T0,		;INCREMENT INSTRUCTION E-FIELD
  4218	035301	340 01 0 00 000000 		AOJ	T1,		;INCREMENT ITRTBL INDEX
  4219	035302	305 01 0 00 000400 		CAIGE	T1,^D256	;LOOP IF ITRTBL FILLED UP
  4220	035303	254 00 0 00 035277 		JRST	.-4		;ELSE LOOP
  4221
  4222	035304	200 00 0 00 042057 		MOVE	[AOJ T2,]
  4223	035305	201 01 0 00 000377 		MOVEI	T1,^D255
  4224	035306	202 00 0 01 036354 		MOVEM	AOJTBL(T1)	;SET UP AOJTBL FOR AUTOSIZING
  4225	035307	365 01 0 00 035306 		SOJGE	T1,.-1
  4226	035310	200 00 0 00 042060 		MOVE	[JRST GETVCA]
  4227	035311	202 00 0 00 036754 		MOVEM	AOJTBL+^D256	;SET UP JRST AT END OF AOJTBL
  4228	035312	200 00 0 00 035620 		MOVE	TEMP1		;GET UBE BASE ADDRESS
  4229	035313	271 00 0 00 000006 		ADDI	6
  4230	035314	202 00 0 00 035621 		MOVEM	TEMP2		;TEMP2 CONTAINS CONTROL REGISTER #1
  4231	035315	271 00 0 00 000010 		ADDI	10
  4232	035316	202 00 0 00 035622 		MOVEM	TEMP3		;TEMP3 CONTAINS CONTROL REGISTER #2
  4233
  4234	035317	400 02 0 00 000000 		SETZ	T2,		;ZERO OUT AOJTBL COUNT
  4235	035320	700 14 0 00 010000 		WRPI	10000		;RESET PI SYSTEM
  4236	035321	700 14 0 00 002300 		WRPI	2300		;TURN ON CHANNEL 1 ONLY
  4237	035322	400 00 0 00 000000 		SETZ
  4238	035323	713 00 1 00 035622 		WRIO	@TEMP3		;ZERO OUT CONTROL REGISTER #2
  4239	035324	201 00 0 00 000003 		MOVEI	3		;GO AND BR4 BITS
  4240	035325	713 00 1 00 035621 		WRIO	@TEMP2		;SHOULD CAUSE AN INTERRUPT
  4241
  4242	035326	201 00 0 00 000144 		MOVEI	^D100
  4243	035327	365 00 0 00 035327 		SOJGE	.		;WAIT FOR INTERUPT
  4244	035330	254 00 0 00 035336 		JRST	GETVCZ		;NO INTERRUPT-GO TO END OF ROUTINE
  4245


DECSYSTEM 2020 UNIBUS ADAPTER EXERCISER, VERSION=0,4 	MACRO %53(1020) 09:46 12-Jul-79 Page 90
DSUBAM	MAC	28-Jun-79 10:11		UTILITY ROUTINES AND INTERRUPT HANDLERS                                            SEQ 0135

  4246	035331	340 02 0 00 000000 	GETVCA:	AOJ	T2,
  4247	035332	201 01 0 00 000400 		MOVEI	T1,^D256
  4248	035333	274 01 0 00 000002 		SUB	T1,T2
  4249	035334	202 01 0 00 035620 		MOVEM	T1,TEMP1	;PUT INTERRUPT VECTOR IN TEMP1
  4250	035335	314 00 0 00 000000 		CAMA			;SKIP ALWAYS
  4251	035336	476 00 0 00 035620 	GETVCZ:	SETOM	TEMP1		;NO INTERRUPT,-SET TEMP1 TO ALL ONES
  4252	035337	700 14 0 00 010000 		WRPI	10000		;RESET PI SYSTEM ( MUY IMPORTANTE! )
  4253	035340	262 17 0 00 000002 		GET	T2
  4254	035341	262 17 0 00 000001 		GET	T1
  4255	035342	262 17 0 00 000000 		GET	T0
  4256	035343	263 17 0 00 000000 		RTN


DECSYSTEM 2020 UNIBUS ADAPTER EXERCISER, VERSION=0,4 	MACRO %53(1020) 09:46 12-Jul-79 Page 91
DSUBAM	MAC	28-Jun-79 10:11		UTILITY ROUTINES AND INTERRUPT HANDLERS                                            SEQ 0136

  4257
  4258					; **********************************************************************
  4259					;* ROUTINE "EXOMAP" PRINTS OUT THE BASE ADDRESS AND THE INTERRUPT VECTOR
  4260					;* OF EACH UBE ON THE UNIBUS. THE DATA IS TAKEN DIRECTLY FROM UBETBL,
  4261					;* VECNUM, AND UEXORN.
  4262					; **********************************************************************
  4263
  4264	035344	261 17 0 00 000000 	EXOMAP:	PUT	T0
  4265	035345	261 17 0 00 000001 		PUT	T1
  4266	035346	261 17 0 00 000002 		PUT	T2
  4267
  4268	035347	200 01 0 00 035616 		MOVE	T1,UEXORN	;GET NUMBER OF EXERCISERS ON BUS
  4269	035350	323 01 0 00 035375 		JUMPLE	T1,EXOMPY	;IF NONE ON BUS, ABORT PRINT-OUT ROUTINE
  4270
  4271						PNTMSF	[ASCIZ/UBE	BASE ADDRESS	VECTOR
  4272					______________________________
  4273	035351	037 01 0 00 042061 	/]
  4274
  4275	035352	201 01 0 00 000001 		MOVEI	T1,1		;INTITIALIZE UBE NUMBER
  4276	035353	200 00 0 00 000001 	EXOMPA:	MOVE	T1
  4277	035354	037 02 0 00 000001 		PNT2F
  4278	035355	037 01 0 00 042075 		PNTMSF	[ASCIZ/	/]
  4279	035356	037 17 0 00 000001 		PNTALF
  4280	035357	200 02 0 00 000001 		MOVE	T2,T1		;GET UBE NUMBER
  4281	035360	360 02 0 00 000000 		SOJ	T2,		;SUBTRACT ONE FOR INDEXING
  4282	035361	221 02 0 00 000005 		IMULI	T2,5		;UBE REG.ADDRS.STORED IN BLOCKS OF 5
  4283	035362	200 00 0 02 035643 		MOVE	UBEDB1(T2)	;GET BASE ADDRESS OF UBE IN QUESTION
  4284	035363	037 07 0 00 000001 		PNT7F
  4285	035364	037 01 0 00 042075 		PNTMSF	[ASCIZ/	/]
  4286	035365	200 00 0 01 035737 		MOVE	VECNUM(T1)
  4287	035366	242 00 0 00 000002 		LSH	2
  4288	035367	037 04 0 00 000001 		PNT4F
  4289	035370	037 01 0 00 030242 		PCRLF
  4290	035371	340 01 0 00 000000 		AOJ	T1,
  4291	035372	317 01 0 00 035616 		CAMG	T1,UEXORN	;SKIP IF ALL EXERCISER DATA PRINTED OUT
  4292	035373	254 00 0 00 035353 		JRST	EXOMPA		;ELSE REPEAT FOR ANOTHER UBE
  4293	035374	254 00 0 00 035402 		JRST	EXOMPZ		;SKIP FOLLOWING CODE
  4294	035375				EXOMPY:	PNTMSF	[ASCIZ/
  4295					***** NO EXERCISERS ON UNIBUS *****
  4296
  4297	035375	037 01 0 00 042076 	/]
  4298	035376	037 01 0 00 042107 		PNTMSF	[ASCIZ/ - TESTING UNIBUS ADAPTER /]
  4299	035377	554 00 0 00 035635 		HLRZ	T0,UBAPR	;GET UBA NUMBER
  4300	035400	037 01 0 00 000001 		PNT1F			;PRINT IT OUT
  4301	035401	037 01 0 00 030242 		PCRLF
  4302
  4303	035402	037 01 0 00 030242 	EXOMPZ:	PCRLF
  4304	035403	262 17 0 00 000002 		GET	T2
  4305	035404	262 17 0 00 000001 		GET	T1
  4306	035405	262 17 0 00 000000 		GET	T0
  4307	035406	263 17 0 00 000000 		RTN


DECSYSTEM 2020 UNIBUS ADAPTER EXERCISER, VERSION=0,4 	MACRO %53(1020) 09:46 12-Jul-79 Page 92
DSUBAM	MAC	28-Jun-79 10:11		UTILITY ROUTINES AND INTERRUPT HANDLERS                                            SEQ 0137

  4308
  4309					; **********************************************************************
  4310					;* ROUTINE "WAPSET" SETS UP THE ADDRESSES FOR GOING AROUND INTO
  4311					;* LOCATION @MEMLOW. VARIOUS ODD BITS ARE SET UP IN THE UBA PAGING
  4312					;* RAM, AND THE REST ARE STUFFED INTO LOCATION WRKADR.
  4313					;* NOTE THAT T7 IS USED FOR PASSING PARAMETERS BACK AND FORTH.
  4314					; **********************************************************************
  4315
  4316	035407	261 17 0 00 000000 	WAPSET:	PUT	T0
  4317
  4318					;SET UP PAGING RAM LOCATION ZERO:
  4319	035410	200 00 0 00 030145 		MOVE	MEMLOW		;GET LOWEST USABLE MEMORY ADDRESS
  4320	035411	405 00 0 00 777000 		ANDI	777000		;GET HIGH ORDER ADDRESS BITS
  4321	035412	242 00 0 00 777767 		LSH	^D-9		;AND RIGHT JUSTIFY FOR PAGING RAM
  4322	035413	271 00 0 00 040000 		ADDI	040000		;ADD IN THE VALID BIT
  4323	035414	270 00 0 00 000007 		ADD	T0,T7		;OTHER BITS STORED IN T7...
  4324	035415	200 07 0 00 000000 		MOVE	T7,T0		;STORE RESULT IN T7 FOR FUTURE USE
  4325	035416	713 00 1 00 035635 		WRIO	T0,@UBAPR	;AND SET UP THE PAGING RAM
  4326
  4327					;SET UP WRKADR:
  4328	035417	200 00 0 00 030145 		MOVE	MEMLOW		;GET LOWEST MEMORY ADDRESS AGAIN
  4329	035420	405 00 0 00 000777 		ANDI	000777		;GET LOW ORDER ADDRESS BITS
  4330	035421	242 00 0 00 000002 		LSH	^D2		;SHIFT FOR UNIBUS CONVENTION
  4331	035422	500 00 0 00 035635 		HLL	UBAPR		;STICK PROPER UBA # IN LEFT HALF
  4332	035423	202 00 0 00 035613 		MOVEM	WRKADR		;AND STORE PSUEDO I/O ADDRESS IN WRKADR
  4333
  4334	035424	262 17 0 00 000000 		GET	T0
  4335	035425	263 17 0 00 000000 		RTN


DECSYSTEM 2020 UNIBUS ADAPTER EXERCISER, VERSION=0,4 	MACRO %53(1020) 09:46 12-Jul-79 Page 93
DSUBAM	MAC	28-Jun-79 10:11		TEST PATTERNS                                                                      SEQ 0138

  4336					SUBTTL	TEST PATTERNS
  4337					; **********************************************************************
  4338					;* SIXTY TEST PATTERNS.
  4339					; **********************************************************************
  4340
  4341	035426	042104	210421		PATTY:	042104,,210421
  4342	035427	104210	421042			104210,,421042
  4343	035430	210421	042104			210421,,042104
  4344	035431	421042	104210			421042,,104210
  4345	035432	074170	360741			074170,,360741
  4346	035433	703607	417036			703607,,417036
  4347	035434	043670	317343			043670,,317343
  4348	035435	734107	560436			734107,,560436
  4349	035436	042107	567341			042107,,567341
  4350	035437	735670	210436			735670,,210436
  4351	035440	042104	210421			042104,,210421
  4352	035441	735673	567356			735673,,567356
  4353
  4354	035442	000000	777777			000000,,777777		;USE FOR BYTE/WORD & 16/18 BIT XFERS
  4355	035443	000000	177777			000000,,177777
  4356	035444	777777	000000			777777,,000000
  4357	035445	177777	000000			177777,,000000
  4358	035446	000000	000377			000000,,000377
  4359	035447	000000	177400			000000,,177400
  4360	035450	000377	000000			000377,,000000
  4361	035451	177400	000000			177400,,000000
  4362	035452	600000	000000			600000,,000000
  4363	035453	000000	600000			000000,,600000
  4364	035454	600000	600000			600000,,600000
  4365
  4366	035455	400000	400000			400000,,400000		;DO SOME BIT FLOATING
  4367	035456	200000	200000			200000,,200000
  4368	035457	100000	100000			100000,,100000
  4369	035460	040000	040000			040000,,040000
  4370	035461	020000	020000			020000,,020000
  4371	035462	010000	010000			010000,,010000
  4372	035463	004000	004000			004000,,004000
  4373	035464	002000	002000			002000,,002000
  4374	035465	001000	001000			001000,,001000
  4375	035466	000400	000400			000400,,000400
  4376	035467	000200	000200			000200,,000200
  4377	035470	000100	000100			000100,,000100
  4378	035471	000040	000040			000040,,000040
  4379	035472	000020	000020			000020,,000020
  4380	035473	000010	000010			000010,,000010
  4381	035474	000004	000004			000004,,000004
  4382	035475	000002	000002			000002,,000002
  4383	035476	000001	000001			000001,,000001
  4384
  4385	035477	777776	777776			777776,,777776		;FLOAT A FEW ZEROES...
  4386	035500	777775	777775			777775,,777775
  4387	035501	777773	777773			777773,,777773
  4388	035502	777767	777767			777767,,777767
  4389	035503	777757	777757			777757,,777757
  4390	035504	777737	777737			777737,,777737


DECSYSTEM 2020 UNIBUS ADAPTER EXERCISER, VERSION=0,4 	MACRO %53(1020) 09:46 12-Jul-79 Page 93-1
DSUBAM	MAC	28-Jun-79 10:11		TEST PATTERNS                                                                      SEQ 0139

  4391	035505	777677	777677			777677,,777677
  4392	035506	777577	777577			777577,,777577
  4393	035507	777377	777377			777377,,777377
  4394	035510	776777	776777			776777,,776777
  4395	035511	775777	775777			775777,,775777
  4396	035512	773777	773777			773777,,773777
  4397	035513	767777	767777			767777,,767777
  4398	035514	757777	757777			757777,,757777
  4399	035515	737777	737777			737777,,737777
  4400	035516	677777	677777			677777,,677777
  4401	035517	577777	577777			577777,,577777
  4402	035520	377777	377777			377777,,377777
  4403
  4404	035521	000000	000000			000000,,000000		;SET ALL BITS HIGH AND LOW
  4405	035522	777777	777777			777777,,777777
  4406


DECSYSTEM 2020 UNIBUS ADAPTER EXERCISER, VERSION=0,4 	MACRO %53(1020) 09:46 12-Jul-79 Page 94
DSUBAM	MAC	28-Jun-79 10:11		TEST PATTERNS                                                                      SEQ 0140

  4407					;* MEMPAT CONTAINS 50 TEST PATTERNS FOR MEMORY ADDRESS LINE CHECKING
  4408
  4409	035523	000000	400001		MEMPAT:	0,,400001
  4410	035524	000001	000001			1,,000001
  4411	035525	000002	000001			2,,000001
  4412	035526	000003	070707			3,,070707
  4413	035527	000000	707070			0,,707070
  4414	035530	000001	252525			1,,252525
  4415	035531	000002	525252			2,,525252
  4416	035532	000003	777776			3,,777776
  4417	035533	000003	777775			3,,777775
  4418	035534	000003	777773			3,,777773
  4419	035535	000003	777767			3,,777767
  4420	035536	000003	777757			3,,777757
  4421	035537	000003	777737			3,,777737
  4422	035540	000003	777677			3,,777677
  4423	035541	000003	777577			3,,777577
  4424	035542	000003	777377			3,,777377
  4425	035543	000003	776777			3,,776777
  4426	035544	000003	775777			3,,775777
  4427	035545	000003	773777			3,,773777
  4428	035546	000003	767777			3,,767777
  4429	035547	000003	757777			3,,757777
  4430	035550	000003	737777			3,,737777
  4431	035551	000003	677777			3,,677777
  4432	035552	000003	577777			3,,577777
  4433	035553	000003	377777			3,,377777
  4434	035554	000002	777777			2,,777777
  4435	035555	000001	777777			1,,777777
  4436	035556	000000	400001			0,,400001
  4437	035557	000000	400002			0,,400002
  4438	035560	000000	400004			0,,400004
  4439	035561	000000	400010			0,,400010
  4440	035562	000000	400020			0,,400020
  4441	035563	000000	400040			0,,400040
  4442	035564	000000	400100			0,,400100
  4443	035565	000000	400200			0,,400200
  4444	035566	000000	400400			0,,400400
  4445	035567	000000	401000			0,,401000
  4446	035570	000000	402000			0,,402000
  4447	035571	000000	404000			0,,404000
  4448	035572	000000	410000			0,,410000
  4449	035573	000000	420000			0,,420000
  4450	035574	000000	440000			0,,440000
  4451	035575	000000	100000			0,,100000
  4452	035576	000000	200000			0,,200000
  4453	035577	000000	400000			0,,400000
  4454	035600	000001	000000			1,,000000
  4455	035601	000002	000000			2,,000000
  4456	035602	000003	000000			3,,000000
  4457	035603	000000	777777			0,,777777
  4458	035604	000003	777777			3,,777777
  4459	035605	000003	777777			3,,777777


DECSYSTEM 2020 UNIBUS ADAPTER EXERCISER, VERSION=0,4 	MACRO %53(1020) 09:46 12-Jul-79 Page 95
DSUBAM	MAC	28-Jun-79 10:11		FLAGS AND BUFFERS                                                                  SEQ 0141

  4460					SUBTTL	FLAGS AND BUFFERS
  4461					; **********************************************************************
  4462					;* PROGRAM PARAMETERS, TEMPORARY STORAGE, MISC..
  4463					; **********************************************************************
  4464
  4465	035606	000000	000000			ABORTE:	0		;FATAL ERROR TEST ABORT FLAG
  4466	035607	000000	000000			ABORTP:	0		;ABORT PARITY CHECKING (BIT STUCK HIGH?)
  4467	035610	000000	000000			INTERS:	0		;DEFAULT ERROR INTERRUPT RECORD OF UBASR
  4468	035611	000000	000000			INTERO:	0		;DEFAULT ERROR INTERRUPT RECORD OF UBE'S
  4469	035612	000000	000000			SAVNUM:	0		;WORKABLE NUMBER
  4470	035613	000000	000000			WRKADR:	0		;WORKING ADDRESS
  4471	035614	000000	000000			WAPADR:	0		;WORKING WRAP-AROUND ADDRESS
  4472	035615	000000	000000			MEMORY:	0		;SCRATCH MEMORY ADDRESS
  4473	035616	000000	000000			UEXORN:	0		;NUMBER OF EXERCISERS ON UNIBUS
  4474	035617	000000	000000			MEMMAX:	0		;MAXIMUM MEMORY ADDRESS IN WORDS
  4475
  4476
  4477					;TEMPORARY STORAGE:
  4478
  4479	035620	000000	000000			TEMP1:	0
  4480	035621	000000	000000			TEMP2:	0
  4481	035622	000000	000000			TEMP3:	0
  4482	035623	000000	000000			TEMP4:	0
  4483	035624	000000	000000			SEGNOW:	0
  4484
  4485					;PROGRAM CONTROL FLAGS:
  4486
  4487	035625	000000	000000			INIFLG:	0		;PROGRAM INITIALIZATION FLAG
  4488	035626	000000	000000			HDRFLG:	0		;INIT FLAG FOR HEADER MAP
  4489	035627	000000	000000			MNTFLG:	0		;MAINTENANCE BIT SET FLAG
  4490	035630	000000	000000			SLINE:	0		;SINGLE LINE TESTING FLAG FOR ECHO TEST
  4491	035631	000000	000000			ELINE:	0
  4492	035632	000000	000000			ELNEN:	0
  4493	035633	000000	000000			UBAFLG:	0		;FLAG FOR SECOND UNIBUS ADAPTER
  4494	035634	000000	000000			UBAFG1:	0		;ONCE ONLY FLAG FOR 2ND UBA


DECSYSTEM 2020 UNIBUS ADAPTER EXERCISER, VERSION=0,4 	MACRO %53(1020) 09:46 12-Jul-79 Page 96
DSUBAM	MAC	28-Jun-79 10:11		FLAGS AND BUFFERS                                                                  SEQ 0142

  4495
  4496					; **********************************************************************
  4497					;* UNIBUS I/O REGISTER ADDRESSES.
  4498					; **********************************************************************
  4499
  4500					;UNIBUS ADAPTER I/O ADDRESSES:
  4501
  4502	035635	000003	763000			UBAPR:	3,,763000	;WORK AREA FOR UNIBUS ADAPTER
  4503	035636	000003	763100			UBASR:	3,,763100	;( DEFAULT IS UBA #3 )
  4504	035637	000003	763101			UBAMT:	3,,763101
  4505
  4506
  4507					;UNIBUS EXERCISER I/O ADDRESSES:
  4508
  4509	035640	000003	770260			UBEMAX:	3,,770260	;MAXIMUM VALID ADDRESS FOR A UBE
  4510	035641	000003	770014			SIMUGO:	3,,770014	;UBE SIMULTANEOUS GO ADDRESS
  4511
  4512	035642	000000	000000		UBETBL:	0			;TABLE OF UBE ADDRESSES
  4513	035643	000003	770000			UBEDB1:	3,,770000	;UBE #1 DATA REGISTER
  4514	035644	000003	770002			UBECC1:	3,,770002	;UBE #1 CYCLE COUNT REGISTER
  4515	035645	000003	770004			UBEBA1:	3,,770004	;UBE #1 ADDRESS REGISTER
  4516	035646	000003	770006			UBEC1A:	3,,770006	;UBE #1 CONTROL REGISTER #1
  4517	035647	000003	770016			UBEC1B:	3,,770016	;UBE #1 CONTROL REGISTER #2
  4518	035650					BLOCK	^D55		;RESERVE STORAGE FOR REST OF UBE TABLE


DECSYSTEM 2020 UNIBUS ADAPTER EXERCISER, VERSION=0,4 	MACRO %53(1020) 09:46 12-Jul-79 Page 97
DSUBAM	MAC	28-Jun-79 10:11		FLAGS AND BUFFERS                                                                  SEQ 0143

  4519
  4520					; **********************************************************************
  4521					;* INTERRUPT VECTOR TABLE AND AUTOSIZING BLOCKS.
  4522					; **********************************************************************
  4523
  4524	035737	000000	000000		VECNUM:	0			;THIS TABLE CONTAINS THE VECTORS FOR ALL
  4525	035740					BLOCK	^D12		;UBE'S ON THE UNIBUS.
  4526
  4527	035754				ITRTBL:	BLOCK	^D256		;RESERVE 256 LOCATIONS FOR INTERRUPT
  4528									;VECTOR ENTRANCE. TO BE FILLED WITH
  4529									;JSR AOJTBL(N) INSTRUCTIONS FOR
  4530									;AUTOSIZING ROUTINES ETC..
  4531
  4532	036354				AOJTBL:	BLOCK	^D257		;THIS TABLE TO BE FILLED WITH 256 AOJ
  4533									;INSTRUCTIONS FOR AUTOSIZING THE UBE
  4534									;INTERRUPT VECTORS. (+ ONE JRST AT END)


DECSYSTEM 2020 UNIBUS ADAPTER EXERCISER, VERSION=0,4 	MACRO %53(1020) 09:46 12-Jul-79 Page 98
DSUBAM	MAC	28-Jun-79 10:11		FLAGS AND BUFFERS                                                                  SEQ 0144

  4535
  4536	036755					PGMNAM:	ASCIZ/
  4537	036755	015 012 104 105 103 	DECSYSTEM 2020 UNIBUS ADAPTER EXERCISER  [ DSUBA ]
  4538	036756	123 131 123 124 105
  4539	036757	115 040 062 060 062
  4540	036760	060 040 125 116 111
  4541	036761	102 125 123 040 101
  4542	036762	104 101 120 124 105
  4543	036763	122 040 105 130 105
  4544	036764	122 103 111 123 105
  4545	036765	122 040 040 133 040
  4546	036766	104 123 125 102 101
  4547	036767	040 135 015 012 000 	/


DECSYSTEM 2020 UNIBUS ADAPTER EXERCISER, VERSION=0,4 	MACRO %53(1020) 09:46 12-Jul-79 Page 1
STOR	KSM	28-Mar-78 11:25		*STOR* RESERVED STORAGE, MARCH 1978                                                SEQ 0145

  4548					SUBTTL	*STOR* RESERVED STORAGE, MARCH 1978
  4549
  4550					;PROGRAM LITERALS
  4551
  4552						XLIST
  4553					IFNDEF	$LPAPER,<LIST>
  4554	036770					LIT
  4555	036770	015 012 127 110 111
  4556	036771	103 110 040 125 116
  4557	036772	111 102 125 123 040
  4558	036773	101 104 101 120 124
  4559	036774	105 122 077 040 050
  4560	036775	061 054 063 054 064
  4561	036776	051 072 000 000 000
  4562	036777	65 42 41 00 63 64
  4563	037000	41 64 65 63 00 62
  4564	037001	45 47 51 63 64 45
  4565	037002	62 00 41 43 43 45
  4566	037003	63 63 51 56 47 00
  4567	037004	64 45 63 64 77 00
  4568	037005	64 45 63 64 00 21
  4569	037006	77 00 00 00 00 00
  4570	037007	60 41 47 45 00 46
  4571	037010	41 51 54 65 62 45
  4572	037011	00 67 50 51 54 45
  4573	037012	00 67 62 51 64 51
  4574	037013	56 47 00 64 57 00
  4575	037014	63 64 41 64 65 63
  4576	037015	00 62 45 47 51 63
  4577	037016	64 45 62 77 00 00
  4578	037017	036777	037005
  4579	037020	000000	000000
  4580	037021	037007	034576
  4581	037022	53 63 21 20 00 60
  4582	037023	41 62 51 64 71 00
  4583	037024	42 51 64 00 63 45
  4584	037025	64 00 41 46 64 45
  4585	037026	62 00 51 56 51 64
  4586	037027	51 41 54 51 72 41
  4587	037030	64 51 57 56 77 00
  4588	037031	036777	037005
  4589	037032	000000	000000
  4590	037033	037022	000000
  4591	037034	015 012 052 052 052
  4592	037035	052 052 040 120 101
  4593	037036	122 111 124 131 040
  4594	037037	102 111 124 040 123
  4595	037040	124 125 103 113 040
  4596	037041	110 111 107 110 040
  4597	037042	055 040 106 125 122
  4598	037043	124 110 105 122 040
  4599	037044	120 101 122 111 124
  4600	037045	131 040 103 110 105
  4601	037046	103 113 111 116 107
  4602	037047	040 111 116 110 111


DECSYSTEM 2020 UNIBUS ADAPTER EXERCISER, VERSION=0,4 	MACRO %53(1020) 09:46 12-Jul-79 Page 1-1
STOR	KSM	28-Mar-78 11:25		*STOR* RESERVED STORAGE, MARCH 1978                                                SEQ 0146

  4603	037050	102 111 124 105 104
  4604	037051	040 052 052 052 052
  4605	037052	052 015 012 000 000
  4606	037053	60 41 47 45 00 46
  4607	037054	41 51 54 65 62 45
  4608	037055	00 67 50 51 54 45
  4609	037056	00 62 45 41 44 51
  4610	037057	56 47 00 46 62 57
  4611	037060	55 00 63 64 41 64
  4612	037061	65 63 00 62 45 47
  4613	037062	51 63 64 45 62 77
  4614	037063	036777	037005
  4615	037064	000000	000000
  4616	037065	037053	034576
  4617	037066	015 012 052 052 052
  4618	037067	052 052 040 106 101
  4619	037070	124 101 114 040 105
  4620	037071	122 122 117 122 040
  4621	037072	055 040 122 105 115
  4622	037073	101 111 116 111 116
  4623	037074	107 040 124 105 123
  4624	037075	124 123 040 101 102
  4625	037076	117 122 124 105 104
  4626	037077	040 052 052 052 052
  4627	037100	052 015 012 000 000
  4628	037101	65 42 41 00 55 41
  4629	037102	51 56 64 45 56 41
  4630	037103	56 43 45 00 62 45
  4631	037104	47 51 63 64 45 62
  4632	037105	00 41 43 43 45 63
  4633	037106	63 51 56 47 00 64
  4634	037107	45 63 64 77 00 00
  4635	037110	64 45 63 64 00 22
  4636	037111	77 00 00 00 00 00
  4637	037112	60 41 47 45 00 46
  4638	037113	41 51 54 65 62 45
  4639	037114	00 67 50 51 54 45
  4640	037115	00 67 62 51 64 51
  4641	037116	56 47 00 64 57 00
  4642	037117	55 41 51 56 64 45
  4643	037120	56 41 56 43 45 00
  4644	037121	62 45 47 51 63 64
  4645	037122	45 62 77 00 00 00
  4646	037123	037101	037110
  4647	037124	000000	000000
  4648	037125	037112	034576
  4649	037126	60 41 62 51 64 71
  4650	037127	00 42 51 64 00 63
  4651	037130	45 64 00 67 50 51
  4652	037131	54 45 00 67 62 51
  4653	037132	64 51 56 47 00 64
  4654	037133	57 00 55 41 51 56
  4655	037134	64 45 56 41 56 43
  4656	037135	45 00 62 45 47 51
  4657	037136	63 64 45 62 77 00


DECSYSTEM 2020 UNIBUS ADAPTER EXERCISER, VERSION=0,4 	MACRO %53(1020) 09:46 12-Jul-79 Page 1-2
STOR	KSM	28-Mar-78 11:25		*STOR* RESERVED STORAGE, MARCH 1978                                                SEQ 0147

  4658	037137	037101	037110
  4659	037140	000000	000000
  4660	037141	037126	000000
  4661	037142	65 42 41 00 60 41
  4662	037143	47 51 56 47 00 62
  4663	037144	45 47 51 63 64 45
  4664	037145	62 00 41 43 43 45
  4665	037146	63 63 51 56 47 00
  4666	037147	64 45 63 64 77 00
  4667	037150	64 45 63 64 00 23
  4668	037151	77 00 00 00 00 00
  4669	037152	60 41 47 45 00 46
  4670	037153	41 51 54 65 62 45
  4671	037154	00 67 50 51 54 45
  4672	037155	00 67 62 51 64 51
  4673	037156	56 47 00 64 57 00
  4674	037157	60 41 47 51 56 47
  4675	037160	00 62 41 55 77 00
  4676	037161	037142	037150
  4677	037162	000000	000000
  4678	037163	037152	034540
  4679	037164	60 41 47 45 00 46
  4680	037165	41 51 54 65 62 45
  4681	037166	00 67 50 51 54 45
  4682	037167	00 62 45 41 44 51
  4683	037170	56 47 00 46 62 57
  4684	037171	55 00 60 41 47 51
  4685	037172	56 47 00 62 41 55
  4686	037173	77 00 00 00 00 00
  4687	037174	037142	037150
  4688	037175	000000	000000
  4689	037176	037164	034540
  4690	037177	60 41 62 51 64 71
  4691	037200	00 42 51 64 00 63
  4692	037201	45 64 00 67 50 51
  4693	037202	54 45 00 67 62 51
  4694	037203	64 51 56 47 00 64
  4695	037204	57 00 60 41 47 51
  4696	037205	56 47 00 62 41 55
  4697	037206	77 00 00 00 00 00
  4698	037207	037142	037150
  4699	037210	000000	000000
  4700	037211	037177	034540
  4701	037212	60 41 62 51 64 71
  4702	037213	00 42 51 64 00 63
  4703	037214	45 64 00 67 50 51
  4704	037215	54 45 00 62 45 41
  4705	037216	44 51 56 47 00 46
  4706	037217	62 57 55 00 60 41
  4707	037220	47 51 56 47 00 62
  4708	037221	41 55 77 00 00 00
  4709	037222	037142	037150
  4710	037223	000000	000000
  4711	037224	037212	034540
  4712	037225	65 42 41 00 63 64


DECSYSTEM 2020 UNIBUS ADAPTER EXERCISER, VERSION=0,4 	MACRO %53(1020) 09:46 12-Jul-79 Page 1-3
STOR	KSM	28-Mar-78 11:25		*STOR* RESERVED STORAGE, MARCH 1978                                                SEQ 0148

  4713	037226	41 64 65 63 00 62
  4714	037227	45 47 51 63 64 45
  4715	037230	62 00 44 41 64 41
  4716	037231	00 54 51 56 45 00
  4717	037232	43 50 45 43 53 77
  4718	037233	64 45 63 64 00 24
  4719	037234	77 00 00 00 00 00
  4720	037235	63 64 41 64 65 63
  4721	037236	00 62 45 47 51 63
  4722	037237	64 45 62 00 62 17
  4723	037240	67 00 42 51 64 00
  4724	037241	45 62 62 57 62 77
  4725	037242	037225	037233
  4726	037243	000002	000003
  4727	037244	037235	031133
  4728	037245	63 64 41 64 65 63
  4729	037246	00 62 45 47 51 63
  4730	037247	64 45 62 00 62 17
  4731	037250	67 00 42 51 64 63
  4732	037251	00 56 57 64 00 43
  4733	037252	54 45 41 62 45 44
  4734	037253	00 42 71 00 44 45
  4735	037254	66 51 43 45 00 51
  4736	037255	56 51 64 77 00 00
  4737	037256	037225	037233
  4738	037257	000000	000003
  4739	037260	037245	000000
  4740	037261	124 105 123 124 040
  4741	037262	120 101 124 124 105
  4742	037263	122 116 040 075 040
  4743	037264	000 000 000 000 000
  4744	037265	103 110 101 116 107
  4745	037266	111 116 107 040 064
  4746	037267	130 064 040 114 117
  4747	037270	103 101 124 111 117
  4748	037271	116 040 105 114 111
  4749	037272	115 111 116 101 124
  4750	037273	105 104 040 105 122
  4751	037274	122 117 122 015 012
  4752	037275	000 000 000 000 000
  4753	037276	103 110 101 116 107
  4754	037277	111 116 107 040 064
  4755	037300	130 064 040 114 117
  4756	037301	103 101 124 111 117
  4757	037302	116 040 104 111 104
  4758	037303	040 116 117 124 040
  4759	037304	105 114 111 115 111
  4760	037305	116 101 124 105 040
  4761	037306	105 122 122 117 122
  4762	037307	015 012 000 000 000
  4763	037310	65 42 41 00 63 64
  4764	037311	41 64 65 63 00 62
  4765	037312	45 47 51 63 64 45
  4766	037313	62 00 60 41 62 51
  4767	037314	64 71 00 43 50 45


DECSYSTEM 2020 UNIBUS ADAPTER EXERCISER, VERSION=0,4 	MACRO %53(1020) 09:46 12-Jul-79 Page 1-4
STOR	KSM	28-Mar-78 11:25		*STOR* RESERVED STORAGE, MARCH 1978                                                SEQ 0149

  4768	037315	43 53 77 00 00 00
  4769	037316	64 45 63 64 00 25
  4770	037317	77 00 00 00 00 00
  4771	037320	60 41 62 51 64 71
  4772	037321	00 42 51 64 00 63
  4773	037322	45 64 00 41 46 64
  4774	037323	45 62 00 67 62 51
  4775	037324	64 51 56 47 00 64
  4776	037325	57 00 63 64 41 64
  4777	037326	65 63 00 62 45 47
  4778	037327	51 63 64 45 62 77
  4779	037330	037310	037316
  4780	037331	000000	000000
  4781	037332	037320	031176
  4782	037333	65 42 41 00 60 41
  4783	037334	47 51 56 47 00 62
  4784	037335	41 55 00 41 44 44
  4785	037336	62 45 63 63 51 56
  4786	037337	47 00 54 51 56 45
  4787	037340	00 43 50 45 43 53
  4788	037341	77 00 00 00 00 00
  4789	037342	64 45 63 64 00 26
  4790	037343	77 00 00 00 00 00
  4791	037344	42 57 64 64 57 55
  4792	037345	00 65 60 00 41 44
  4793	037346	44 62 45 63 63 51
  4794	037347	56 47 00 43 50 45
  4795	037350	43 53 00 45 62 62
  4796	037351	57 62 77 00 00 00
  4797	037352	037333	037342
  4798	037353	000004	000002
  4799	037354	037344	034610
  4800	037355	64 57 60 15 44 57
  4801	037356	67 56 00 41 44 44
  4802	037357	62 45 63 63 51 56
  4803	037360	47 00 43 50 45 43
  4804	037361	53 00 45 62 62 57
  4805	037362	62 77 00 00 00 00
  4806	037363	037333	037342
  4807	037364	000004	000002
  4808	037365	037355	034610
  4809	037366	65 42 41 00 60 41
  4810	037367	47 51 56 47 00 62
  4811	037370	41 55 00 44 41 64
  4812	037371	41 00 54 51 56 45
  4813	037372	00 43 50 45 43 53
  4814	037373	77 00 00 00 00 00
  4815	037374	64 45 63 64 00 27
  4816	037375	77 00 00 00 00 00
  4817	037376	60 41 47 51 56 47
  4818	037377	00 62 41 55 00 62
  4819	037400	17 67 00 42 51 64
  4820	037401	63 00 44 41 64 41
  4821	037402	00 45 62 62 57 62
  4822	037403	77 00 00 00 00 00


DECSYSTEM 2020 UNIBUS ADAPTER EXERCISER, VERSION=0,4 	MACRO %53(1020) 09:46 12-Jul-79 Page 1-5
STOR	KSM	28-Mar-78 11:25		*STOR* RESERVED STORAGE, MARCH 1978                                                SEQ 0150

  4823	037404	037366	037374
  4824	037405	000002	000003
  4825	037406	037376	034610
  4826	037407	65 42 41 00 56 45
  4827	037410	44 00 41 56 44 00
  4828	037411	42 55 44 00 42 51
  4829	037412	64 00 43 50 45 43
  4830	037413	53 77 00 00 00 00
  4831	037414	64 45 63 64 00 21
  4832	037415	20 77 00 00 00 00
  4833	037416	64 51 55 57 65 64
  4834	037417	00 41 56 44 00 56
  4835	037420	45 44 00 44 51 44
  4836	037421	00 56 57 64 00 42
  4837	037422	57 64 50 00 63 45
  4838	037423	64 00 57 56 00 67
  4839	037424	62 51 64 51 56 47
  4840	037425	00 64 57 00 41 00
  4841	037426	56 57 56 15 45 70
  4842	037427	51 63 64 45 56 64
  4843	037430	00 44 45 66 51 43
  4844	037431	45 77 00 00 00 00
  4845	037432	037407	037414
  4846	037433	000000	000000
  4847	037434	037416	034532
  4848	037435	64 51 55 57 65 64
  4849	037436	00 42 51 64 00 56
  4850	037437	57 64 00 43 54 45
  4851	037440	41 62 45 44 00 42
  4852	037441	71 00 65 42 41 00
  4853	037442	43 54 45 41 62 77
  4854	037443	037407	037414
  4855	037444	000000	000000
  4856	037445	037435	000000
  4857	037446	56 45 44 00 42 51
  4858	037447	64 00 56 57 64 00
  4859	037450	43 54 45 41 62 45
  4860	037451	44 00 42 71 00 65
  4861	037452	42 41 00 43 54 45
  4862	037453	41 62 77 00 00 00
  4863	037454	037407	037414
  4864	037455	000000	000000
  4865	037456	037446	000000
  4866	037457	56 57 00 60 41 47
  4867	037460	45 00 46 41 51 54
  4868	037461	00 44 65 62 51 56
  4869	037462	47 00 41 00 67 62
  4870	037463	51 57 00 64 57 00
  4871	037464	41 00 56 57 56 15
  4872	037465	45 70 51 63 64 45
  4873	037466	56 64 00 44 45 66
  4874	037467	51 43 45 77 00 00
  4875	037470	037407	037414
  4876	037471	000000	000000
  4877	037472	037457	000000


DECSYSTEM 2020 UNIBUS ADAPTER EXERCISER, VERSION=0,4 	MACRO %53(1020) 09:46 12-Jul-79 Page 1-6
STOR	KSM	28-Mar-78 11:25		*STOR* RESERVED STORAGE, MARCH 1978                                                SEQ 0151

  4878	037473	65 42 41 00 67 57
  4879	037474	62 44 00 67 62 51
  4880	037475	57 15 56 60 62 00
  4881	037476	67 62 41 60 15 41
  4882	037477	62 57 65 56 44 77
  4883	037500	64 45 63 64 00 21
  4884	037501	21 77 00 00 00 00
  4885	037502	45 66 45 56 00 67
  4886	037503	57 62 44 00 56 60
  4887	037504	62 00 70 46 45 62
  4888	037505	00 64 57 00 53 63
  4889	037506	21 20 00 55 45 55
  4890	037507	57 62 71 77 00 00
  4891	037510	037473	037500
  4892	037511	000002	000003
  4893	037512	037502	000000
  4894	037513	51 57 00 60 41 47
  4895	037514	45 00 46 41 51 54
  4896	037515	00 67 50 51 54 45
  4897	037516	00 51 56 51 64 51
  4898	037517	41 64 51 56 47 00
  4899	037520	45 66 45 56 00 67
  4900	037521	57 62 44 00 67 62
  4901	037522	41 60 15 41 62 57
  4902	037523	65 56 44 77 00 00
  4903	037524	037473	037500
  4904	037525	000000	000000
  4905	037526	037513	034523
  4906	037527	57 44 44 00 67 57
  4907	037530	62 44 00 56 60 62
  4908	037531	00 70 46 45 62 00
  4909	037532	64 57 00 53 63 21
  4910	037533	20 00 55 45 55 57
  4911	037534	62 71 77 00 00 00
  4912	037535	037473	037500
  4913	037536	000002	000003
  4914	037537	037527	000000
  4915	037540	51 57 00 60 41 47
  4916	037541	45 00 46 41 51 54
  4917	037542	00 67 50 51 54 45
  4918	037543	00 51 56 51 64 51
  4919	037544	41 64 51 56 47 00
  4920	037545	57 44 44 00 67 57
  4921	037546	62 44 00 67 62 41
  4922	037547	60 15 41 62 57 65
  4923	037550	56 44 77 00 00 00
  4924	037551	037473	037500
  4925	037552	000000	000000
  4926	037553	037540	034523
  4927	037554	54 57 67 00 42 71
  4928	037555	64 45 00 45 66 45
  4929	037556	56 00 67 57 62 44
  4930	037557	00 67 62 51 57 42
  4931	037560	00 67 62 41 60 15
  4932	037561	41 62 57 65 56 44


DECSYSTEM 2020 UNIBUS ADAPTER EXERCISER, VERSION=0,4 	MACRO %53(1020) 09:46 12-Jul-79 Page 1-7
STOR	KSM	28-Mar-78 11:25		*STOR* RESERVED STORAGE, MARCH 1978                                                SEQ 0152

  4933	037562	77 00 00 00 00 00
  4934	037563	64 45 63 64 00 21
  4935	037564	22 77 00 00 00 00
  4936	037565	54 57 67 00 42 71
  4937	037566	64 45 00 45 66 45
  4938	037567	56 00 67 57 62 44
  4939	037570	00 56 60 62 00 70
  4940	037571	46 45 62 00 64 57
  4941	037572	00 53 63 21 20 00
  4942	037573	55 45 55 57 62 71
  4943	037574	77 00 00 00 00 00
  4944	037575	037554	037563
  4945	037576	000002	000003
  4946	037577	037565	000000
  4947	037600	51 57 00 60 41 47
  4948	037601	45 00 46 41 51 54
  4949	037602	00 67 50 51 54 45
  4950	037603	00 51 56 51 64 51
  4951	037604	41 64 51 56 47 00
  4952	037605	54 57 67 00 42 71
  4953	037606	64 45 00 45 66 45
  4954	037607	56 00 67 57 62 44
  4955	037610	00 67 62 41 60 15
  4956	037611	41 62 57 65 56 44
  4957	037612	77 00 00 00 00 00
  4958	037613	037554	037563
  4959	037614	000000	000000
  4960	037615	037600	034523
  4961	037616	65 42 41 00 62 45
  4962	037617	41 44 15 62 45 66
  4963	037620	45 62 63 45 00 67
  4964	037621	62 51 57 15 56 60
  4965	037622	62 00 67 62 41 60
  4966	037623	15 41 62 57 65 56
  4967	037624	44 77 00 00 00 00
  4968	037625	64 45 63 64 00 21
  4969	037626	23 77 00 00 00 00
  4970	037627	45 66 45 56 00 67
  4971	037630	57 62 44 00 62 45
  4972	037631	41 44 15 62 45 66
  4973	037632	45 62 63 45 00 56
  4974	037633	60 62 00 70 46 45
  4975	037634	62 00 64 57 00 53
  4976	037635	63 21 20 00 55 45
  4977	037636	55 57 62 71 77 00
  4978	037637	037616	037625
  4979	037640	000002	000003
  4980	037641	037627	000000
  4981	037642	51 57 00 60 41 47
  4982	037643	45 00 46 41 51 54
  4983	037644	00 67 50 51 54 45
  4984	037645	00 51 56 51 64 51
  4985	037646	41 64 51 56 47 00
  4986	037647	62 45 41 44 15 62
  4987	037650	45 66 45 62 63 45


DECSYSTEM 2020 UNIBUS ADAPTER EXERCISER, VERSION=0,4 	MACRO %53(1020) 09:46 12-Jul-79 Page 1-8
STOR	KSM	28-Mar-78 11:25		*STOR* RESERVED STORAGE, MARCH 1978                                                SEQ 0153

  4988	037651	00 45 66 45 56 00
  4989	037652	67 57 62 44 00 67
  4990	037653	62 41 60 15 41 62
  4991	037654	57 65 56 44 77 00
  4992	037655	037616	037625
  4993	037656	000000	000000
  4994	037657	037642	034523
  4995	037660	57 44 44 00 67 57
  4996	037661	62 44 00 62 45 41
  4997	037662	44 15 62 45 66 45
  4998	037663	62 63 45 00 56 60
  4999	037664	62 00 70 46 45 62
  5000	037665	00 64 57 00 53 63
  5001	037666	21 20 00 55 45 55
  5002	037667	57 62 71 77 00 00
  5003	037670	037616	037625
  5004	037671	000002	000003
  5005	037672	037660	000000
  5006	037673	51 57 00 60 41 47
  5007	037674	45 00 46 41 51 54
  5008	037675	00 67 50 51 54 45
  5009	037676	00 51 56 51 64 51
  5010	037677	41 64 51 56 47 00
  5011	037700	62 45 41 44 00 62
  5012	037701	45 66 45 62 63 45
  5013	037702	00 57 44 44 00 67
  5014	037703	57 62 44 00 67 62
  5015	037704	41 60 15 41 62 57
  5016	037705	65 56 44 77 00 00
  5017	037706	037616	037625
  5018	037707	000000	000000
  5019	037710	037673	034523
  5020	037711	65 42 41 00 46 41
  5021	037712	63 64 00 70 46 45
  5022	037713	62 00 67 62 51 57
  5023	037714	00 64 57 00 56 60
  5024	037715	62 00 67 62 41 60
  5025	037716	15 41 62 57 65 56
  5026	037717	44 77 00 00 00 00
  5027	037720	64 45 63 64 00 21
  5028	037721	24 77 00 00 00 00
  5029	037722	67 57 62 44 00 70
  5030	037723	46 45 62 00 44 57
  5031	037724	56 45 00 57 56 00
  5032	037725	46 41 63 64 00 55
  5033	037726	57 44 45 00 45 66
  5034	037727	45 56 00 67 57 62
  5035	037730	44 00 70 46 45 62
  5036	037731	77 00 00 00 00 00
  5037	037732	037711	037720
  5038	037733	000001	000003
  5039	037734	037722	000000
  5040	037735	51 57 00 60 41 47
  5041	037736	45 00 46 41 51 54
  5042	037737	00 67 50 51 54 45


DECSYSTEM 2020 UNIBUS ADAPTER EXERCISER, VERSION=0,4 	MACRO %53(1020) 09:46 12-Jul-79 Page 1-9
STOR	KSM	28-Mar-78 11:25		*STOR* RESERVED STORAGE, MARCH 1978                                                SEQ 0154

  5043	037740	00 51 56 51 64 51
  5044	037741	41 64 51 56 47 00
  5045	037742	45 66 45 56 00 67
  5046	037743	57 62 44 00 46 41
  5047	037744	63 64 00 70 46 45
  5048	037745	62 00 67 62 41 60
  5049	037746	15 41 62 57 65 56
  5050	037747	44 77 00 00 00 00
  5051	037750	037711	037720
  5052	037751	000000	000000
  5053	037752	037735	034523
  5054	037753	46 41 63 64 00 67
  5055	037754	57 62 44 00 70 46
  5056	037755	45 62 00 44 41 64
  5057	037756	41 00 45 62 62 57
  5058	037757	62 77 00 00 00 00
  5059	037760	037711	037720
  5060	037761	000002	000003
  5061	037762	037753	000000
  5062	037763	51 57 00 60 41 47
  5063	037764	45 00 46 41 51 54
  5064	037765	00 67 50 51 54 45
  5065	037766	00 51 56 51 64 51
  5066	037767	41 64 51 56 47 00
  5067	037770	57 44 44 00 67 57
  5068	037771	62 44 00 46 41 63
  5069	037772	64 00 70 46 45 62
  5070	037773	00 67 62 41 60 15
  5071	037774	41 62 57 65 56 44
  5072	037775	77 00 00 00 00 00
  5073	037776	037711	037720
  5074	037777	000000	000000
  5075	040000	037763	034523
  5076	040001	65 42 41 00 67 57
  5077	040002	62 44 00 62 44 51
  5078	040003	57 15 56 60 62 00
  5079	040004	67 62 41 60 15 41
  5080	040005	62 57 65 56 44 77
  5081	040006	64 45 63 64 00 21
  5082	040007	25 77 00 00 00 00
  5083	040010	45 66 45 56 00 67
  5084	040011	57 62 44 00 67 57
  5085	040012	62 44 00 62 44 51
  5086	040013	57 15 56 60 62 00
  5087	040014	67 62 41 60 15 41
  5088	040015	62 57 65 56 44 77
  5089	040016	040001	040006
  5090	040017	000002	000003
  5091	040020	040010	000000
  5092	040021	51 57 00 60 41 47
  5093	040022	45 00 46 41 51 54
  5094	040023	00 67 50 51 54 45
  5095	040024	00 51 56 51 64 51
  5096	040025	41 64 51 56 47 00
  5097	040026	45 66 45 56 00 67


DECSYSTEM 2020 UNIBUS ADAPTER EXERCISER, VERSION=0,4 	MACRO %53(1020) 09:46 12-Jul-79 Page 1-10
STOR	KSM	28-Mar-78 11:25		*STOR* RESERVED STORAGE, MARCH 1978                                                SEQ 0155

  5098	040027	57 62 44 00 62 44
  5099	040030	51 57 00 67 62 41
  5100	040031	60 15 41 62 57 65
  5101	040032	56 44 77 00 00 00
  5102	040033	040001	040006
  5103	040034	000000	000000
  5104	040035	040021	034523
  5105	040036	57 44 44 00 67 57
  5106	040037	62 44 00 67 57 62
  5107	040040	44 00 62 44 51 57
  5108	040041	15 56 60 62 00 67
  5109	040042	62 41 60 15 41 62
  5110	040043	57 65 56 44 77 00
  5111	040044	040001	040006
  5112	040045	000002	000003
  5113	040046	040036	000000
  5114	040047	51 57 00 60 41 47
  5115	040050	45 00 46 41 51 54
  5116	040051	00 67 50 51 54 45
  5117	040052	00 51 56 51 64 51
  5118	040053	41 64 51 56 47 00
  5119	040054	57 44 44 00 67 57
  5120	040055	62 44 00 62 44 51
  5121	040056	57 00 67 62 41 60
  5122	040057	15 41 62 57 65 56
  5123	040060	44 77 00 00 00 00
  5124	040061	040001	040006
  5125	040062	000000	000000
  5126	040063	040047	034523
  5127	040064	50 51 47 50 00 42
  5128	040065	71 64 45 00 45 66
  5129	040066	45 56 00 67 57 62
  5130	040067	44 00 67 62 51 57
  5131	040070	42 00 67 62 41 60
  5132	040071	15 41 62 57 65 56
  5133	040072	44 77 00 00 00 00
  5134	040073	000377	000000
  5135	040074	64 45 63 64 00 21
  5136	040075	26 77 00 00 00 00
  5137	040076	50 51 47 50 00 42
  5138	040077	71 64 45 00 45 66
  5139	040100	45 56 00 67 57 62
  5140	040101	44 00 62 15 60 15
  5141	040102	67 00 56 60 62 00
  5142	040103	70 46 45 62 00 64
  5143	040104	57 00 53 63 21 20
  5144	040105	00 55 45 55 57 62
  5145	040106	71 77 00 00 00 00
  5146	040107	040064	040074
  5147	040110	000002	000003
  5148	040111	040076	000000
  5149	040112	51 57 00 60 41 47
  5150	040113	45 00 46 41 51 54
  5151	040114	00 67 50 51 54 45
  5152	040115	00 51 56 51 64 51


DECSYSTEM 2020 UNIBUS ADAPTER EXERCISER, VERSION=0,4 	MACRO %53(1020) 09:46 12-Jul-79 Page 1-11
STOR	KSM	28-Mar-78 11:25		*STOR* RESERVED STORAGE, MARCH 1978                                                SEQ 0156

  5153	040116	41 64 51 56 47 00
  5154	040117	50 51 47 50 00 42
  5155	040120	71 64 45 00 45 66
  5156	040121	45 56 00 67 57 62
  5157	040122	44 00 67 62 41 60
  5158	040123	15 41 62 57 65 56
  5159	040124	44 77 00 00 00 00
  5160	040125	040064	040074
  5161	040126	000000	000000
  5162	040127	040112	034523
  5163	040130	54 57 67 00 42 71
  5164	040131	64 45 00 57 44 44
  5165	040132	00 67 57 62 44 00
  5166	040133	67 62 51 57 42 00
  5167	040134	67 62 41 60 15 41
  5168	040135	62 57 65 56 44 77
  5169	040136	777777	000000
  5170	040137	64 45 63 64 00 21
  5171	040140	27 77 00 00 00 00
  5172	040141	54 57 67 00 42 71
  5173	040142	64 45 00 57 44 44
  5174	040143	00 67 57 62 44 00
  5175	040144	62 15 60 15 67 00
  5176	040145	56 60 62 00 70 46
  5177	040146	45 62 00 64 57 00
  5178	040147	53 63 21 20 00 55
  5179	040150	45 55 57 62 71 77
  5180	040151	040130	040137
  5181	040152	000002	000003
  5182	040153	040141	000000
  5183	040154	51 57 00 60 41 47
  5184	040155	45 00 46 41 51 54
  5185	040156	00 67 50 51 54 45
  5186	040157	00 51 56 51 64 51
  5187	040160	41 64 51 56 47 00
  5188	040161	54 57 67 00 42 71
  5189	040162	64 45 00 57 44 44
  5190	040163	00 67 57 62 44 00
  5191	040164	67 62 41 60 15 41
  5192	040165	62 57 65 56 44 77
  5193	040166	040130	040137
  5194	040167	000000	000000
  5195	040170	040154	034523
  5196	040171	50 51 47 50 00 42
  5197	040172	71 64 45 00 57 44
  5198	040173	44 00 67 57 62 44
  5199	040174	00 67 62 51 57 42
  5200	040175	00 67 62 41 60 15
  5201	040176	41 62 57 65 56 44
  5202	040177	77 00 00 00 00 00
  5203	040200	777777	000377
  5204	040201	64 45 63 64 00 22
  5205	040202	20 77 00 00 00 00
  5206	040203	040171	040201
  5207	040204	000002	000003


DECSYSTEM 2020 UNIBUS ADAPTER EXERCISER, VERSION=0,4 	MACRO %53(1020) 09:46 12-Jul-79 Page 1-12
STOR	KSM	28-Mar-78 11:25		*STOR* RESERVED STORAGE, MARCH 1978                                                SEQ 0157

  5208	040205	040076	000000
  5209	040206	040171	040201
  5210	040207	000000	000000
  5211	040210	040112	034523
  5212	040211	65 42 41 00 67 62
  5213	040212	41 60 15 41 62 57
  5214	040213	65 56 44 00 66 51
  5215	040214	41 00 41 54 54 00
  5216	040215	60 41 47 45 63 00
  5217	040216	57 46 00 62 41 55
  5218	040217	77 00 00 00 00 00
  5219	040220	64 45 63 64 00 22
  5220	040221	21 77 00 00 00 00
  5221	040222	44 41 64 41 00 51
  5222	040223	56 43 57 62 62 45
  5223	040224	43 64 00 57 56 00
  5224	040225	67 62 41 60 00 41
  5225	040226	62 57 65 56 44 77
  5226	040227	040211	040220
  5227	040230	000002	000003
  5228	040231	040222	034423
  5229	040232	60 41 47 45 00 46
  5230	040233	41 51 54 65 62 45
  5231	040234	00 67 50 51 54 45
  5232	040235	00 44 57 51 56 47
  5233	040236	00 41 00 67 62 41
  5234	040237	60 00 41 62 57 65
  5235	040240	56 44 00 70 46 45
  5236	040241	62 77 00 00 00 00
  5237	040242	040211	040220
  5238	040243	000000	000000
  5239	040244	040232	034645
  5240	040245	65 42 41 00 67 62
  5241	040246	41 60 15 41 62 57
  5242	040247	65 56 44 00 46 62
  5243	040250	57 55 00 55 45 55
  5244	040251	54 57 67 00 64 57
  5245	040252	00 55 45 55 55 41
  5246	040253	70 77 00 00 00 00
  5247	040254	64 45 63 64 00 22
  5248	040255	22 77 00 00 00 00
  5249	040256	44 41 64 41 00 44
  5250	040257	51 44 00 56 57 64
  5251	040260	00 67 62 41 60 41
  5252	040261	62 57 65 56 44 00
  5253	040262	43 57 62 62 45 43
  5254	040263	64 54 71 77 00 00
  5255	040264	040245	040254
  5256	040265	000002	000003
  5257	040266	040256	034423
  5258	040267	51 57 00 60 41 47
  5259	040270	45 00 46 41 51 54
  5260	040271	65 62 45 00 57 43
  5261	040272	43 65 62 62 45 44
  5262	040273	00 67 50 51 54 45


DECSYSTEM 2020 UNIBUS ADAPTER EXERCISER, VERSION=0,4 	MACRO %53(1020) 09:46 12-Jul-79 Page 1-13
STOR	KSM	28-Mar-78 11:25		*STOR* RESERVED STORAGE, MARCH 1978                                                SEQ 0158

  5263	040274	00 44 57 51 56 47
  5264	040275	00 41 00 67 62 51
  5265	040276	57 15 56 60 62 00
  5266	040277	67 62 41 60 15 41
  5267	040300	62 57 65 56 44 77
  5268	040301	040245	040254
  5269	040302	000000	000000
  5270	040303	040267	034550
  5271	040304	65 42 41 00 42 62
  5272	040305	65 64 45 00 46 57
  5273	040306	62 43 45 00 67 62
  5274	040307	41 60 15 41 62 57
  5275	040310	65 56 44 00 46 62
  5276	040311	57 55 00 55 45 55
  5277	040312	54 57 67 00 64 57
  5278	040313	00 55 45 55 55 41
  5279	040314	70 77 00 00 00 00
  5280	040315	64 45 63 64 00 22
  5281	040316	23 77 00 00 00 00
  5282	040317	040304	040315
  5283	040320	000002	000003
  5284	040321	040256	000000
  5285	040322	51 57 00 60 41 47
  5286	040323	45 00 46 41 51 54
  5287	040324	65 62 45 00 57 56
  5288	040325	00 41 00 67 62 51
  5289	040326	57 15 56 60 62 00
  5290	040327	67 62 41 60 15 41
  5291	040330	62 57 65 56 44 00
  5292	040331	70 46 45 62 77 00
  5293	040332	040304	040315
  5294	040333	000000	000000
  5295	040334	040322	034550
  5296	040335	65 42 41 00 65 60
  5297	040336	60 45 62 00 64 67
  5298	040337	57 00 42 51 64 00
  5299	040340	70 46 45 62 00 44
  5300	040341	51 63 41 42 54 45
  5301	040342	00 43 50 45 43 53
  5302	040343	77 00 00 00 00 00
  5303	040344	64 45 63 64 22 24
  5304	040345	77 00 00 00 00 00
  5305	040346	00 77 00 00 00 00
  5306	040347	040335	040344
  5307	040350	000002	000003
  5308	040351	040346	000000
  5309	040352	51 57 00 60 41 47
  5310	040353	45 00 46 41 51 54
  5311	040354	65 62 45 00 57 43
  5312	040355	43 65 62 62 45 44
  5313	040356	00 57 56 00 41 00
  5314	040357	67 62 51 57 15 56
  5315	040360	60 62 00 67 62 41
  5316	040361	60 15 41 62 57 65
  5317	040362	56 44 00 70 46 45


DECSYSTEM 2020 UNIBUS ADAPTER EXERCISER, VERSION=0,4 	MACRO %53(1020) 09:46 12-Jul-79 Page 1-14
STOR	KSM	28-Mar-78 11:25		*STOR* RESERVED STORAGE, MARCH 1978                                                SEQ 0159

  5318	040363	62 77 00 00 00 00
  5319	040364	46 41 54 51 57 77
  5320	040365	040335	040352
  5321	040366	000000	000000
  5322	040367	040364	000000
  5323	040370	015 012 052 052 052
  5324	040371	052 052 040 127 101
  5325	040372	122 116 111 116 107
  5326	040373	072 040 116 117 040
  5327	040374	105 130 105 122 103
  5328	040375	111 123 105 122 123
  5329	040376	040 117 116 040 102
  5330	040377	125 123 054 055 125
  5331	040400	102 105 040 115 105
  5332	040401	104 111 101 124 105
  5333	040402	104 040 124 105 123
  5334	040403	124 123 040 101 102
  5335	040404	117 122 124 105 104
  5336	040405	040 052 052 052 052
  5337	040406	052 015 012 000 000
  5338	040407	65 42 45 00 62 45
  5339	040410	47 51 63 64 45 62
  5340	040411	00 41 43 43 45 63
  5341	040412	63 51 56 47 77 00
  5342	040413	64 45 63 64 00 22
  5343	040414	25 77 00 00 00 00
  5344	040415	65 42 45 00 62 45
  5345	040416	47 51 63 64 45 62
  5346	040417	00 51 15 57 00 60
  5347	040420	41 47 45 00 46 41
  5348	040421	51 54 77 00 00 00
  5349	040422	040407	040413
  5350	040423	000000	000000
  5351	040424	040415	034550
  5352	040425	015 012 052 052 052
  5353	040426	052 052 040 106 101
  5354	040427	124 101 114 040 105
  5355	040430	122 122 117 122 055
  5356	040431	040 122 105 115 101
  5357	040432	111 116 111 116 107
  5358	040433	040 125 102 105 040
  5359	040434	115 105 104 111 101
  5360	040435	124 105 104 040 124
  5361	040436	105 123 124 123 040
  5362	040437	101 102 117 122 124
  5363	040440	105 104 040 052 052
  5364	040441	052 052 052 015 012
  5365	040442	000 000 000 000 000
  5366	040443	65 42 45 00 44 41
  5367	040444	64 41 00 62 45 47
  5368	040445	51 63 64 45 62 00
  5369	040446	62 44 51 57 15 67
  5370	040447	62 51 57 00 43 50
  5371	040450	45 43 53 77 00 00
  5372	040451	64 45 63 64 00 22


DECSYSTEM 2020 UNIBUS ADAPTER EXERCISER, VERSION=0,4 	MACRO %53(1020) 09:46 12-Jul-79 Page 1-15
STOR	KSM	28-Mar-78 11:25		*STOR* RESERVED STORAGE, MARCH 1978                                                SEQ 0160

  5373	040452	26 77 00 00 00 00
  5374	040453	45 62 62 57 62 00
  5375	040454	51 56 00 65 42 45
  5376	040455	00 44 41 64 41 00
  5377	040456	62 45 47 51 63 64
  5378	040457	45 62 00 43 50 45
  5379	040460	43 53 77 00 00 00
  5380	040461	040443	040451
  5381	040462	000002	000003
  5382	040463	040453	034560
  5383	040464	65 42 45 00 43 71
  5384	040465	43 54 45 00 43 57
  5385	040466	65 56 64 00 62 45
  5386	040467	47 51 63 64 45 62
  5387	040470	00 62 44 51 57 15
  5388	040471	67 62 51 57 00 43
  5389	040472	50 45 43 53 77 00
  5390	040473	64 45 63 64 00 22
  5391	040474	27 77 00 00 00 00
  5392	040475	45 62 62 57 62 00
  5393	040476	51 56 00 65 42 45
  5394	040477	00 43 71 43 54 45
  5395	040500	00 43 57 65 56 64
  5396	040501	00 62 45 47 51 63
  5397	040502	64 45 62 00 43 50
  5398	040503	45 43 53 77 00 00
  5399	040504	040464	040473
  5400	040505	000002	000003
  5401	040506	040475	034560
  5402	040507	65 42 45 00 41 44
  5403	040510	44 62 45 63 63 00
  5404	040511	62 45 47 51 63 64
  5405	040512	45 62 00 62 44 51
  5406	040513	57 15 67 62 51 57
  5407	040514	00 43 50 45 43 53
  5408	040515	77 00 00 00 00 00
  5409	040516	64 45 63 64 00 23
  5410	040517	20 77 00 00 00 00
  5411	040520	45 62 62 57 62 00
  5412	040521	51 56 00 65 42 45
  5413	040522	00 41 44 44 62 45
  5414	040523	63 63 00 62 45 47
  5415	040524	51 63 64 45 62 00
  5416	040525	43 50 45 43 53 77
  5417	040526	040507	040516
  5418	040527	000002	000003
  5419	040530	040520	034560
  5420	040531	65 42 45 00 43 57
  5421	040532	56 64 62 57 54 00
  5422	040533	62 45 47 51 63 64
  5423	040534	45 62 00 21 00 62
  5424	040535	44 51 57 15 67 62
  5425	040536	51 57 00 43 50 45
  5426	040537	43 53 77 00 00 00
  5427	040540	64 45 63 64 00 23


DECSYSTEM 2020 UNIBUS ADAPTER EXERCISER, VERSION=0,4 	MACRO %53(1020) 09:46 12-Jul-79 Page 1-16
STOR	KSM	28-Mar-78 11:25		*STOR* RESERVED STORAGE, MARCH 1978                                                SEQ 0161

  5428	040541	21 77 00 00 00 00
  5429	040542	45 62 62 57 62 00
  5430	040543	51 56 00 65 42 45
  5431	040544	00 43 57 56 64 62
  5432	040545	57 54 00 62 45 47
  5433	040546	51 63 64 45 62 00
  5434	040547	03 21 00 43 50 45
  5435	040550	43 53 77 00 00 00
  5436	040551	040531	040540
  5437	040552	000002	000003
  5438	040553	040542	034560
  5439	040554	65 42 45 00 43 57
  5440	040555	56 64 62 57 54 00
  5441	040556	62 45 47 51 63 64
  5442	040557	45 62 00 22 00 62
  5443	040560	44 51 57 15 67 62
  5444	040561	51 57 00 43 50 45
  5445	040562	43 53 77 00 00 00
  5446	040563	64 45 63 64 00 23
  5447	040564	22 77 00 00 00 00
  5448	040565	45 62 62 57 62 00
  5449	040566	51 56 00 65 42 45
  5450	040567	00 43 57 56 64 62
  5451	040570	57 54 00 62 45 47
  5452	040571	51 63 64 45 62 00
  5453	040572	03 22 00 43 50 45
  5454	040573	43 53 77 00 00 00
  5455	040574	040554	040563
  5456	040575	000002	000003
  5457	040576	040565	034560
  5458	040577	65 42 45 00 56 60
  5459	040600	62 00 67 57 62 44
  5460	040601	00 70 46 45 62 00
  5461	040602	64 57 00 53 63 21
  5462	040603	20 00 55 45 55 57
  5463	040604	62 71 77 00 00 00
  5464	040605	052525	052525
  5465	040606	64 45 63 64 00 23
  5466	040607	23 77 00 00 00 00
  5467	040610	65 42 45 00 67 57
  5468	040611	62 44 00 56 60 62
  5469	040612	00 70 46 45 62 00
  5470	040613	64 57 00 53 63 21
  5471	040614	20 00 63 45 55 51
  5472	040615	43 57 56 44 65 43
  5473	040616	64 57 62 00 55 45
  5474	040617	55 57 62 71 77 00
  5475	040620	040577	040606
  5476	040621	000002	000003
  5477	040622	040610	034475
  5478	040623	65 42 45 00 56 60
  5479	040624	62 00 42 71 64 45
  5480	040625	00 70 46 45 62 00
  5481	040626	64 57 00 53 63 21
  5482	040627	20 00 55 45 55 57


DECSYSTEM 2020 UNIBUS ADAPTER EXERCISER, VERSION=0,4 	MACRO %53(1020) 09:46 12-Jul-79 Page 1-17
STOR	KSM	28-Mar-78 11:25		*STOR* RESERVED STORAGE, MARCH 1978                                                SEQ 0162

  5483	040630	62 71 77 00 00 00
  5484	040631	010101	010101
  5485	040632	64 45 63 64 00 23
  5486	040633	24 77 00 00 00 00
  5487	040634	65 42 45 00 42 71
  5488	040635	64 45 00 56 60 62
  5489	040636	00 70 46 45 62 00
  5490	040637	64 57 00 53 63 21
  5491	040640	20 00 55 45 55 57
  5492	040641	62 71 77 00 00 00
  5493	040642	040623	040632
  5494	040643	000002	000003
  5495	040644	040634	034475
  5496	040645	65 42 45 00 56 60
  5497	040646	62 00 62 45 41 44
  5498	040647	15 62 45 66 45 62
  5499	040650	63 45 00 70 46 45
  5500	040651	62 00 64 57 00 53
  5501	040652	63 21 20 77 00 00
  5502	040653	070707	070707
  5503	040654	64 45 63 64 00 23
  5504	040655	25 77 00 00 00 00
  5505	040656	65 42 45 00 62 45
  5506	040657	41 44 15 62 45 66
  5507	040660	45 62 63 45 00 56
  5508	040661	60 62 00 70 46 45
  5509	040662	62 00 64 57 00 53
  5510	040663	63 21 20 00 55 45
  5511	040664	55 57 62 71 77 00
  5512	040665	040645	040654
  5513	040666	000002	000003
  5514	040667	040656	034475
  5515	040670	65 42 45 00 56 60
  5516	040671	62 00 46 41 63 64
  5517	040672	00 70 46 45 62 00
  5518	040673	64 57 00 53 63 21
  5519	040674	20 00 55 45 55 57
  5520	040675	62 71 77 00 00 00
  5521	040676	055555	055555
  5522	040677	64 45 63 64 00 23
  5523	040700	26 77 00 00 00 00
  5524	040701	65 42 45 00 46 41
  5525	040702	63 64 15 55 57 44
  5526	040703	45 00 56 60 62 00
  5527	040704	70 46 45 62 00 64
  5528	040705	57 00 53 63 21 20
  5529	040706	00 55 45 55 57 62
  5530	040707	71 77 00 00 00 00
  5531	040710	040670	040677
  5532	040711	000002	000003
  5533	040712	040701	034475
  5534	040713	65 42 45 00 56 60
  5535	040714	62 00 67 57 62 44
  5536	040715	00 70 46 45 62 00
  5537	040716	46 62 57 55 00 53


DECSYSTEM 2020 UNIBUS ADAPTER EXERCISER, VERSION=0,4 	MACRO %53(1020) 09:46 12-Jul-79 Page 1-18
STOR	KSM	28-Mar-78 11:25		*STOR* RESERVED STORAGE, MARCH 1978                                                SEQ 0163

  5538	040717	63 21 20 00 55 45
  5539	040720	55 57 62 71 77 00
  5540	040721	64 45 63 64 00 23
  5541	040722	27 77 00 00 00 00
  5542	040723	65 42 45 00 67 57
  5543	040724	62 44 00 56 60 62
  5544	040725	00 70 46 45 62 00
  5545	040726	46 62 57 55 00 53
  5546	040727	63 21 20 00 63 45
  5547	040730	55 51 43 57 56 44
  5548	040731	65 43 64 57 62 00
  5549	040732	55 45 55 57 62 71
  5550	040733	77 00 00 00 00 00
  5551	040734	040713	040721
  5552	040735	000003	000002
  5553	040736	040723	034475
  5554	040737	65 42 45 00 54 57
  5555	040740	67 00 42 71 64 45
  5556	040741	00 51 15 57 00 64
  5557	040742	62 41 56 63 46 45
  5558	040743	62 77 00 00 00 00
  5559	040744	64 45 63 64 00 24
  5560	040745	20 77 00 00 00 00
  5561	040746	54 57 67 00 42 71
  5562	040747	64 45 00 67 62 51
  5563	040750	57 42 15 62 44 51
  5564	040751	57 42 00 45 62 62
  5565	040752	57 62 77 00 00 00
  5566	040753	040737	040744
  5567	040754	000002	000004
  5568	040755	040746	034475
  5569	040756	65 42 45 00 50 51
  5570	040757	00 42 71 64 45 00
  5571	040760	51 15 57 00 64 62
  5572	040761	41 56 63 46 45 62
  5573	040762	77 00 00 00 00 00
  5574	040763	64 45 63 64 00 24
  5575	040764	21 77 00 00 00 00
  5576	040765	50 51 47 50 00 42
  5577	040766	71 64 45 00 67 62
  5578	040767	51 57 42 15 62 44
  5579	040770	51 57 42 00 45 62
  5580	040771	62 57 62 77 00 00
  5581	040772	040756	040763
  5582	040773	000002	000004
  5583	040774	040765	034475
  5584	040775	65 42 45 00 56 60
  5585	040776	62 00 46 41 63 64
  5586	040777	00 70 46 45 62 00
  5587	041000	46 62 57 55 00 53
  5588	041001	63 21 20 00 55 45
  5589	041002	55 57 62 71 77 00
  5590	041003	022222	133333
  5591	041004	64 45 63 64 00 24
  5592	041005	22 77 00 00 00 00


DECSYSTEM 2020 UNIBUS ADAPTER EXERCISER, VERSION=0,4 	MACRO %53(1020) 09:46 12-Jul-79 Page 1-19
STOR	KSM	28-Mar-78 11:25		*STOR* RESERVED STORAGE, MARCH 1978                                                SEQ 0164

  5593	041006	65 42 45 00 46 41
  5594	041007	63 64 00 56 60 62
  5595	041010	00 70 46 45 62 00
  5596	041011	46 62 57 55 00 53
  5597	041012	63 21 20 00 63 45
  5598	041013	55 51 43 57 56 44
  5599	041014	65 43 64 57 62 00
  5600	041015	55 45 55 57 62 71
  5601	041016	77 00 00 00 00 00
  5602	041017	040775	041004
  5603	041020	000003	000004
  5604	041021	041006	034475
  5605	041022	65 42 45 00 51 56
  5606	041023	64 45 62 62 65 60
  5607	041024	64 00 66 45 43 64
  5608	041025	57 62 00 66 45 62
  5609	041026	51 46 51 43 41 64
  5610	041027	51 57 56 77 00 00
  5611	041030	64 45 63 64 00 24
  5612	041031	23 77 00 00 00 00
  5613	041032	65 42 45 00 44 51
  5614	041033	44 00 56 57 64 00
  5615	041034	51 56 64 45 62 62
  5616	041035	65 60 64 77 00 00
  5617	041036	041022	041030
  5618	041037	000000	000000
  5619	041040	041032	000000
  5620	041041	51 56 43 57 62 62
  5621	041042	45 43 64 00 51 56
  5622	041043	64 45 62 62 65 60
  5623	041044	64 00 66 45 43 64
  5624	041045	57 62 77 00 00 00
  5625	041046	041022	041030
  5626	041047	000002	000003
  5627	041050	041041	000000
  5628	041051	65 42 45 00 56 60
  5629	041052	62 00 67 57 62 44
  5630	041053	00 70 46 45 62 00
  5631	041054	46 62 57 55 00 55
  5632	041055	45 55 54 57 67 00
  5633	041056	64 57 00 55 45 55
  5634	041057	55 41 70 77 00 00
  5635	041060	142357	142357
  5636	041061	64 45 63 64 00 24
  5637	041062	24 77 00 00 00 00
  5638	041063	44 41 64 41 00 56
  5639	041064	57 64 00 44 45 60
  5640	041065	57 63 51 64 45 44
  5641	041066	00 43 57 62 62 43
  5642	041067	64 54 71 00 42 71
  5643	041070	00 65 42 45 77 00
  5644	041071	041051	041061
  5645	041072	000002	000003
  5646	041073	041063	034507
  5647	041074	60 57 67 45 62 00


DECSYSTEM 2020 UNIBUS ADAPTER EXERCISER, VERSION=0,4 	MACRO %53(1020) 09:46 12-Jul-79 Page 1-20
STOR	KSM	28-Mar-78 11:25		*STOR* RESERVED STORAGE, MARCH 1978                                                SEQ 0165

  5648	041075	44 57 67 56 00 63
  5649	041076	45 61 65 45 56 43
  5650	041077	45 00 43 50 45 43
  5651	041100	53 77 00 00 00 00
  5652	041101	64 45 63 64 00 24
  5653	041102	25 77 00 00 00 00
  5654	041103	65 42 41 00 41 43
  5655	041104	44 43 54 00 42 51
  5656	041105	64 00 56 57 64 00
  5657	041106	63 45 64 00 57 56
  5658	041107	00 65 56 51 42 65
  5659	041110	63 00 41 43 54 57
  5660	041111	77 00 00 00 00 00
  5661	041112	041074	041101
  5662	041113	000000	000000
  5663	041114	041103	000000
  5664	041115	65 42 45 00 56 60
  5665	041116	62 00 42 41 43 53
  5666	041117	00 64 57 00 42 41
  5667	041120	43 53 00 64 62 41
  5668	041121	56 63 46 45 62 77
  5669	041122	123321	123321
  5670	041123	64 45 63 64 00 24
  5671	041124	26 77 00 00 00 00
  5672	041125	041115	041123
  5673	041126	000002	000003
  5674	041127	040346	034475
  5675	041130	65 42 45 00 42 62
  5676	041131	24 00 54 45 66 45
  5677	041132	54 00 64 57 00 53
  5678	041133	63 21 20 00 60 51
  5679	041134	00 54 45 66 45 54
  5680	041135	00 43 50 45 43 53
  5681	041136	77 00 00 00 00 00
  5682	041137	264 00 0 00 033553
  5683	041140	64 45 63 64 00 24
  5684	041141	27 77 00 00 00 00
  5685	041142	56 57 00 51 56 64
  5686	041143	62 16 57 56 00 42
  5687	041144	62 24 00 64 57 00
  5688	041145	53 63 21 20 00 60
  5689	041146	51 00 54 45 66 45
  5690	041147	54 00 64 62 41 56
  5691	041150	63 54 41 64 51 57
  5692	041151	56 77 00 00 00 00
  5693	041152	041130	041140
  5694	041153	000000	000000
  5695	041154	041142	034514
  5696	041155	65 42 45 00 42 62
  5697	041156	25 00 54 45 66 45
  5698	041157	54 00 64 57 00 53
  5699	041160	63 21 20 00 60 51
  5700	041161	00 54 45 66 45 54
  5701	041162	00 43 50 45 43 53
  5702	041163	77 00 00 00 00 00


DECSYSTEM 2020 UNIBUS ADAPTER EXERCISER, VERSION=0,4 	MACRO %53(1020) 09:46 12-Jul-79 Page 1-21
STOR	KSM	28-Mar-78 11:25		*STOR* RESERVED STORAGE, MARCH 1978                                                SEQ 0166

  5703	041164	264 00 0 00 033612
  5704	041165	64 45 63 64 00 25
  5705	041166	20 77 00 00 00 00
  5706	041167	56 57 00 51 56 64
  5707	041170	62 16 57 56 00 42
  5708	041171	62 25 00 64 57 00
  5709	041172	53 63 21 20 00 60
  5710	041173	51 00 54 45 66 45
  5711	041174	54 00 64 62 41 56
  5712	041175	63 54 41 64 51 57
  5713	041176	56 77 00 00 00 00
  5714	041177	041155	041165
  5715	041200	000000	000000
  5716	041201	041167	034514
  5717	041202	65 42 45 00 42 62
  5718	041203	26 00 54 45 66 45
  5719	041204	54 00 64 57 00 53
  5720	041205	63 21 20 00 60 51
  5721	041206	00 54 45 66 45 54
  5722	041207	00 43 50 45 43 53
  5723	041210	77 00 00 00 00 00
  5724	041211	264 00 0 00 033653
  5725	041212	64 45 63 64 00 25
  5726	041213	21 77 00 00 00 00
  5727	041214	56 57 00 51 56 64
  5728	041215	62 16 57 56 00 42
  5729	041216	62 26 00 64 57 00
  5730	041217	53 63 21 20 00 60
  5731	041220	51 00 54 45 66 45
  5732	041221	54 00 64 62 41 56
  5733	041222	63 54 41 64 51 57
  5734	041223	56 77 00 00 00 00
  5735	041224	041202	041212
  5736	041225	000000	000000
  5737	041226	041214	034514
  5738	041227	65 42 45 00 42 62
  5739	041230	27 00 54 45 66 45
  5740	041231	54 00 64 57 00 53
  5741	041232	63 21 20 00 60 51
  5742	041233	00 54 45 66 45 54
  5743	041234	00 43 50 45 43 53
  5744	041235	77 00 00 00 00 00
  5745	041236	264 00 0 00 033714
  5746	041237	64 45 63 64 00 25
  5747	041240	22 77 00 00 00 00
  5748	041241	56 57 00 51 56 64
  5749	041242	62 16 57 56 00 42
  5750	041243	62 27 00 64 57 00
  5751	041244	53 63 21 20 00 60
  5752	041245	51 00 54 45 66 45
  5753	041246	54 00 64 62 41 56
  5754	041247	63 54 41 64 51 57
  5755	041250	56 77 00 00 00 00
  5756	041251	041227	041237
  5757	041252	000000	000000


DECSYSTEM 2020 UNIBUS ADAPTER EXERCISER, VERSION=0,4 	MACRO %53(1020) 09:46 12-Jul-79 Page 1-22
STOR	KSM	28-Mar-78 11:25		*STOR* RESERVED STORAGE, MARCH 1978                                                SEQ 0167

  5758	041253	041241	034514
  5759	041254	65 42 45 00 50 51
  5760	041255	00 51 56 64 45 62
  5761	041256	62 65 60 64 00 60
  5762	041257	45 56 44 51 56 47
  5763	041260	00 42 51 64 00 43
  5764	041261	50 45 43 53 77 00
  5765	041262	64 45 63 64 00 25
  5766	041263	23 77 00 00 00 00
  5767	041264	50 51 62 45 61 00
  5768	041265	42 51 64 00 56 57
  5769	041266	64 00 63 45 64 00
  5770	041267	44 65 62 51 56 47
  5771	041270	00 60 45 56 44 51
  5772	041271	56 47 00 42 62 26
  5773	041272	00 51 56 64 45 62
  5774	041273	62 65 60 64 77 00
  5775	041274	041254	041262
  5776	041275	000000	000000
  5777	041276	041264	000000
  5778	041277	54 57 62 45 61 00
  5779	041300	42 51 64 00 63 45
  5780	041301	64 00 44 65 62 51
  5781	041302	56 47 00 60 45 56
  5782	041303	44 51 56 47 00 50
  5783	041304	51 00 51 56 64 45
  5784	041305	62 62 65 60 64 77
  5785	041306	041254	041262
  5786	041307	000000	000000
  5787	041310	041277	000000
  5788	041311	50 51 62 45 61 00
  5789	041312	42 51 64 00 63 45
  5790	041313	64 00 67 51 64 50
  5791	041314	00 56 57 00 60 45
  5792	041315	56 44 51 56 47 00
  5793	041316	42 62 26 00 51 56
  5794	041317	64 45 62 62 65 60
  5795	041320	64 77 00 00 00 00
  5796	041321	041254	041262
  5797	041322	000000	000000
  5798	041323	041311	000000
  5799	041324	65 42 45 00 54 57
  5800	041325	00 51 56 64 45 62
  5801	041326	62 65 60 64 00 60
  5802	041327	45 56 44 51 56 47
  5803	041330	00 42 51 64 00 43
  5804	041331	50 45 43 53 77 00
  5805	041332	64 45 63 64 00 25
  5806	041333	24 77 00 00 00 00
  5807	041334	54 57 62 45 61 00
  5808	041335	42 51 64 00 56 57
  5809	041336	64 00 63 45 64 00
  5810	041337	44 65 62 51 56 47
  5811	041340	00 60 45 56 44 51
  5812	041341	56 47 00 42 62 24


DECSYSTEM 2020 UNIBUS ADAPTER EXERCISER, VERSION=0,4 	MACRO %53(1020) 09:46 12-Jul-79 Page 1-23
STOR	KSM	28-Mar-78 11:25		*STOR* RESERVED STORAGE, MARCH 1978                                                SEQ 0168

  5813	041342	00 51 56 64 45 62
  5814	041343	62 65 60 64 77 00
  5815	041344	041324	041332
  5816	041345	000000	000000
  5817	041346	041334	000000
  5818	041347	50 51 62 45 61 00
  5819	041350	42 51 64 00 63 45
  5820	041351	64 00 44 65 62 51
  5821	041352	56 47 00 60 45 56
  5822	041353	44 51 56 47 00 54
  5823	041354	57 00 51 56 64 45
  5824	041355	62 62 65 60 64 77
  5825	041356	041324	041332
  5826	041357	000000	000000
  5827	041360	041347	000000
  5828	041361	54 57 62 45 61 00
  5829	041362	42 51 64 00 63 45
  5830	041363	64 00 67 51 64 50
  5831	041364	00 56 57 00 60 45
  5832	041365	56 44 51 56 47 00
  5833	041366	42 62 24 00 51 56
  5834	041367	64 45 62 62 65 60
  5835	041370	64 77 00 00 00 00
  5836	041371	041324	041332
  5837	041372	000000	000000
  5838	041373	041361	000000
  5839	041374	65 42 45 00 42 62
  5840	041375	00 41 62 42 51 64
  5841	041376	62 41 64 51 57 56
  5842	041377	00 64 45 63 64 77
  5843	041400	264 00 0 00 034062
  5844	041401	264 00 0 00 034070
  5845	041402	64 45 63 64 00 25
  5846	041403	25 77 00 00 00 00
  5847	041404	50 51 00 51 56 64
  5848	041405	45 62 62 65 60 64
  5849	041406	00 44 51 44 00 56
  5850	041407	57 64 00 57 43 43
  5851	041410	65 62 77 00 00 00
  5852	041411	041374	041402
  5853	041412	000000	000000
  5854	041413	041404	000000
  5855	041414	54 57 00 51 56 64
  5856	041415	45 62 62 65 60 64
  5857	041416	00 44 51 44 00 56
  5858	041417	57 64 00 57 43 43
  5859	041420	65 62 77 00 00 00
  5860	041421	041374	041402
  5861	041422	000000	000000
  5862	041423	041414	000000
  5863	041424	54 57 00 51 56 64
  5864	041425	45 62 62 65 60 64
  5865	041426	00 57 43 43 65 62
  5866	041427	45 44 00 42 45 46
  5867	041430	57 62 45 00 50 51


DECSYSTEM 2020 UNIBUS ADAPTER EXERCISER, VERSION=0,4 	MACRO %53(1020) 09:46 12-Jul-79 Page 1-24
STOR	KSM	28-Mar-78 11:25		*STOR* RESERVED STORAGE, MARCH 1978                                                SEQ 0169

  5868	041431	77 00 00 00 00 00
  5869	041432	041374	041402
  5870	041433	000000	000000
  5871	041434	041424	000000
  5872	041435	65 42 45 00 42 62
  5873	041436	00 41 56 44 00 56
  5874	041437	60 62 00 41 62 42
  5875	041440	51 64 62 41 64 51
  5876	041441	57 56 00 64 45 63
  5877	041442	64 77 00 00 00 00
  5878	041443	264 00 0 00 034162
  5879	041444	64 45 63 64 00 25
  5880	041445	26 77 00 00 00 00
  5881	041446	42 62 00 51 56 64
  5882	041447	45 62 62 65 60 64
  5883	041450	00 44 51 44 00 56
  5884	041451	57 64 00 57 43 43
  5885	041452	65 62 77 00 00 00
  5886	041453	041435	041444
  5887	041454	000000	000000
  5888	041455	041446	034600
  5889	041456	56 60 62 00 64 62
  5890	041457	41 56 63 46 45 62
  5891	041460	00 44 51 44 00 56
  5892	041461	57 64 00 57 43 43
  5893	041462	65 62 77 00 00 00
  5894	041463	041435	041444
  5895	041464	000000	000000
  5896	041465	041456	034600
  5897	041466	42 62 00 57 43 43
  5898	041467	65 62 62 45 44 00
  5899	041470	42 45 46 57 62 45
  5900	041471	00 56 60 62 00 64
  5901	041472	62 41 56 63 46 45
  5902	041473	62 77 00 00 00 00
  5903	041474	041435	041444
  5904	041475	000000	000000
  5905	041476	041466	034600
  5906	041477	015 012 111 116 120
  5907	041500	125 124 040 120 101
  5908	041501	122 101 115 105 124
  5909	041502	105 122 123 040 106
  5910	041503	117 122 040 124 105
  5911	041504	123 124 040 117 106
  5912	041505	040 125 116 111 102
  5913	041506	125 123 040 101 104
  5914	041507	101 120 124 105 122
  5915	041510	015 012 000 000 000
  5916	041511	015 012 116 125 115
  5917	041512	102 105 122 040 117
  5918	041513	106 040 105 130 105
  5919	041514	122 103 111 123 105
  5920	041515	122 123 040 117 116
  5921	041516	040 102 125 123 040
  5922	041517	050 060 055 061 064


DECSYSTEM 2020 UNIBUS ADAPTER EXERCISER, VERSION=0,4 	MACRO %53(1020) 09:46 12-Jul-79 Page 1-25
STOR	KSM	28-Mar-78 11:25		*STOR* RESERVED STORAGE, MARCH 1978                                                SEQ 0170

  5923	041520	054 040 117 103 124
  5924	041521	101 114 051 072 000
  5925	041522	015 012 125 102 105
  5926	041523	043 072 040 040 000
  5927	041524	015 012 102 101 123
  5928	041525	105 040 101 104 104
  5929	041526	122 105 123 123 072
  5930	041527	040 040 040 000 000
  5931	041530	126 105 103 124 117
  5932	041531	122 077 040 000 000
  5933	041532	015 012 124 105 123
  5934	041533	124 040 116 117 056
  5935	041534	040 050 061 055 065
  5936	041535	066 040 117 103 124
  5937	041536	101 114 051 040 075
  5938	041537	040 000 000 000 000
  5939	041540	040 055 040 115 105
  5940	041541	115 117 122 131 040
  5941	041542	101 104 104 122 105
  5942	041543	123 123 040 075 040
  5943	041544	000 000 000 000 000
  5944	041545	040 055 040 116 117
  5945	041546	040 115 105 115 117
  5946	041547	122 131 040 114 117
  5947	041550	103 101 124 111 117
  5948	041551	116 123 040 120 105
  5949	041552	122 124 125 122 102
  5950	041553	105 104 015 012 000
  5951	041554	040 055 040 120 105
  5952	041555	122 124 125 122 102
  5953	041556	101 124 111 117 116
  5954	041557	040 101 124 040 115
  5955	041560	105 115 117 122 131
  5956	041561	040 075 040 000 000
  5957	041562	040 055 040 115 105
  5958	041563	115 117 122 131 040
  5959	041564	114 117 103 101 124
  5960	041565	111 117 116 040 103
  5961	041566	117 122 122 105 103
  5962	041567	124 015 012 000 000
  5963	041570	125 102 105 040 075
  5964	041571	040 000 000 000 000
  5965	041572	120 111 040 114 105
  5966	041573	126 105 114 040 075
  5967	041574	040 000 000 000 000
  5968	041575	040 055 040 116 105
  5969	041576	111 124 110 105 122
  5970	041577	040 116 105 104 040
  5971	041600	116 117 122 040 124
  5972	041601	111 115 117 125 124
  5973	041602	040 123 105 124 040
  5974	041603	111 116 040 125 102
  5975	041604	101 040 123 124 101
  5976	041605	124 125 123 040 122
  5977	041606	105 107 056 015 012


DECSYSTEM 2020 UNIBUS ADAPTER EXERCISER, VERSION=0,4 	MACRO %53(1020) 09:46 12-Jul-79 Page 1-26
STOR	KSM	28-Mar-78 11:25		*STOR* RESERVED STORAGE, MARCH 1978                                                SEQ 0171

  5978	041607	000 000 000 000 000
  5979	041610	015 012 111 055 117
  5980	041611	040 101 104 104 122
  5981	041612	105 123 123 040 075
  5982	041613	040 000 000 000 000
  5983	041614	111 055 117 040 101
  5984	041615	104 104 122 105 123
  5985	041616	123 040 075 040 000
  5986	041617	125 102 105 040 122
  5987	041620	105 107 111 123 124
  5988	041621	105 122 040 101 104
  5989	041622	104 122 105 123 123
  5990	041623	040 075 040 000 000
  5991	041624	120 101 122 111 124
  5992	041625	131 040 102 111 124
  5993	041626	040 123 105 124 040
  5994	041627	110 111 107 110 015
  5995	041630	012 000 000 000 000
  5996	041631	102 122 040 114 105
  5997	041632	126 105 114 040 075
  5998	041633	040 000 000 000 000
  5999	041634	120 101 107 111 116
  6000	041635	107 040 122 101 115
  6001	041636	040 101 104 104 122
  6002	041637	105 123 123 040 075
  6003	041640	040 000 000 000 000
  6004	041641	077 040 127 122 117
  6005	041642	116 107 040 122 105
  6006	041643	123 120 117 116 123
  6007	041644	105 000 000 000 000
  6008	041645	120 101 107 111 116
  6009	041646	107 040 122 101 115
  6010	041647	040 116 125 115 102
  6011	041650	105 122 040 075 040
  6012	041651	000 000 000 000 000
  6013	041652	125 102 101 040 105
  6014	041653	122 122 117 122 040
  6015	041654	102 111 124 123 040
  6016	041655	101 122 105 072 015
  6017	041656	012 000 000 000 000
  6018	041657	040 055 040 124 111
  6019	041660	115 105 040 117 125
  6020	041661	124 015 012 000 000
  6021	041662	040 055 040 102 101
  6022	041663	104 040 115 105 115
  6023	041664	117 122 131 040 104
  6024	041665	101 124 101 015 012
  6025	041666	000 000 000 000 000
  6026	041667	040 055 040 102 125
  6027	041670	123 040 120 101 122
  6028	041671	111 124 131 040 105
  6029	041672	122 122 117 122 015
  6030	041673	012 000 000 000 000
  6031	041674	040 055 040 116 117
  6032	041675	116 040 105 130 111


DECSYSTEM 2020 UNIBUS ADAPTER EXERCISER, VERSION=0,4 	MACRO %53(1020) 09:46 12-Jul-79 Page 1-27
STOR	KSM	28-Mar-78 11:25		*STOR* RESERVED STORAGE, MARCH 1978                                                SEQ 0172

  6033	041676	123 124 105 116 124
  6034	041677	040 104 105 126 111
  6035	041700	103 105 015 012 000
  6036	041701	125 102 105 040 105
  6037	041702	122 122 117 122 040
  6038	041703	102 111 124 123 040
  6039	041704	101 122 105 072 015
  6040	041705	012 000 000 000 000
  6041	041706	040 055 040 127 122
  6042	041707	117 116 107 040 107
  6043	041710	122 101 116 124 040
  6044	041711	102 101 103 113 015
  6045	041712	012 000 000 000 000
  6046	041713	040 055 040 115 101
  6047	041714	130 040 114 101 124
  6048	041715	105 040 105 122 122
  6049	041716	117 122 015 012 000
  6050	041717	040 055 040 116 117
  6051	041720	040 116 117 040 123
  6052	041721	101 103 113 040 124
  6053	041722	111 115 117 125 124
  6054	041723	015 012 000 000 000
  6055	041724	040 055 040 116 117
  6056	041725	040 123 123 131 116
  6057	041726	040 105 122 122 117
  6058	041727	122 015 012 000 000
  6059	041730	040 055 040 127 122
  6060	041731	117 116 107 040 101
  6061	041732	040 114 111 116 105
  6062	041733	123 015 012 000 000
  6063	041734	040 055 040 116 117
  6064	041735	040 107 122 101 116
  6065	041736	124 040 117 122 040
  6066	041737	116 117 124 040 117
  6067	041740	116 105 040 107 122
  6068	041741	101 116 124 015 012
  6069	041742	000 000 000 000 000
  6070	041743	040 055 040 111 116
  6071	041744	124 105 122 122 125
  6072	041745	120 124 040 123 114
  6073	041746	101 126 105 040 123
  6074	041747	123 131 116 103 040
  6075	041750	105 122 122 117 122
  6076	041751	015 012 000 000 000
  6077	041752	264 00 0 00 035007
  6078	041753	36 06 0 00 000000
  6079	041754	51 15 57 00 60 41
  6080	041755	47 45 00 46 41 51
  6081	041756	54 65 62 45 00 45
  6082	041757	70 45 43 65 64 51
  6083	041760	56 47 00 51 15 57
  6084	041761	00 00 00 60 43 35
  6085	041762	00 77 00 00 00 00
  6086	041763	00 00 00 51 15 57
  6087	041764	00 41 44 44 62 45


DECSYSTEM 2020 UNIBUS ADAPTER EXERCISER, VERSION=0,4 	MACRO %53(1020) 09:46 12-Jul-79 Page 1-28
STOR	KSM	28-Mar-78 11:25		*STOR* RESERVED STORAGE, MARCH 1978                                                SEQ 0173

  6088	041765	63 63 00 35 00 77
  6089	041766	015 012 052 052 052
  6090	041767	052 052 040 127 101
  6091	041770	122 116 111 116 107
  6092	041771	040 055 040 106 101
  6093	041772	124 101 114 040 105
  6094	041773	122 122 117 122 040
  6095	041774	055 040 120 122 117
  6096	041775	107 122 101 115 040
  6097	041776	101 102 117 122 124
  6098	041777	105 104 040 052 052
  6099	042000	052 052 052 015 012
  6100	042001	101 040 120 101 107
  6101	042002	105 040 106 101 111
  6102	042003	114 040 117 103 103
  6103	042004	125 122 105 104 040
  6104	042005	104 125 122 111 116
  6105	042006	107 040 101 040 102
  6106	042007	114 117 103 113 040
  6107	042010	124 122 101 116 123
  6108	042011	106 105 122 040 106
  6109	042012	122 117 115 040 101
  6110	042013	015 012 125 102 105
  6111	042014	040 124 117 040 115
  6112	042015	105 115 117 122 131
  6113	042016	056 040 124 110 111
  6114	042017	123 040 111 115 120
  6115	042020	114 111 105 123 040
  6116	042021	124 110 101 124 040
  6117	042022	124 110 105 040 125
  6118	042023	116 111 102 125 123
  6119	042024	040 101 104 101 120
  6120	042025	124 105 122 015 012
  6121	042026	111 123 040 111 116
  6122	042027	040 101 040 042 110
  6123	042030	125 116 107 042 040
  6124	042031	123 124 101 124 105
  6125	042032	056 040 124 110 105
  6126	042033	040 117 116 114 131
  6127	042034	040 127 101 131 040
  6128	042035	124 117 040 103 114
  6129	042036	105 101 122 040 124
  6130	042037	110 105 040 125 102
  6131	042040	101 015 012 111 123
  6132	042041	040 124 117 040 110
  6133	042042	101 126 105 040 124
  6134	042043	110 105 040 070 060
  6135	042044	070 060 040 103 117
  6136	042045	116 123 117 114 105
  6137	042046	040 111 123 123 125
  6138	042047	105 040 101 116 040
  6139	042050	042 115 122 042 040
  6140	042051	115 101 123 124 105
  6141	042052	122 015 012 122 105
  6142	042053	123 105 124 040 103


DECSYSTEM 2020 UNIBUS ADAPTER EXERCISER, VERSION=0,4 	MACRO %53(1020) 09:46 12-Jul-79 Page 1-29
STOR	KSM	28-Mar-78 11:25		*STOR* RESERVED STORAGE, MARCH 1978                                                SEQ 0174

  6143	042054	117 115 115 101 116
  6144	042055	104 056 015 012 000
  6145	042056	264 00 0 00 036354
  6146	042057	340 02 0 00 000000
  6147	042060	254 00 0 00 035331
  6148	042061	125 102 105 011 102
  6149	042062	101 123 105 040 101
  6150	042063	104 104 122 105 123
  6151	042064	123 011 126 105 103
  6152	042065	124 117 122 015 012
  6153	042066	137 137 137 137 137
  6154	042067	137 137 137 137 137
  6155	042070	137 137 137 137 137
  6156	042071	137 137 137 137 137
  6157	042072	137 137 137 137 137
  6158	042073	137 137 137 137 137
  6159	042074	015 012 000 000 000
  6160	042075	011 000 000 000 000
  6161	042076	015 012 052 052 052
  6162	042077	052 052 040 116 117
  6163	042100	040 105 130 105 122
  6164	042101	103 111 123 105 122
  6165	042102	123 040 117 116 040
  6166	042103	125 116 111 102 125
  6167	042104	123 040 052 052 052
  6168	042105	052 052 015 012 015
  6169	042106	012 000 000 000 000
  6170	042107	040 055 040 124 105
  6171	042110	123 124 111 116 107
  6172	042111	040 125 116 111 102
  6173	042112	125 123 040 101 104
  6174	042113	101 120 124 105 122
  6175	042114	040 000 000 000 000
  6176						LIST
  6177	042233	000000	000000		ENDSLD:	0
  6178
  6179					IFDEF	DEBUG,<
  6180	042234				PATCH:	BLOCK DEBUG		;PATCHING AREA
  6181					>
  6182
  6183					;PROGRAM VARIABLES
  6184	042434					VAR
  6185
  6186					IFDEF	PGMEND,<
  6187	042435	000000	000000		END:	0
  6188			030000			END	BEGIN	>

NO ERRORS DETECTED

PROGRAM BREAK IS 000000
ABSOLUTE BREAK IS 042436
CPU TIME USED 00:29.319

34P CORE USED


ABACK	  2861	  2864#
ABORT	   148#                                                                                                            SEQ 0175
ABORTE	   859	   901	   919	   942	   959	  1045	  2150	  2176	  2194	  2369	  3659	  3678	  3699	  3706
	  4465#
ABORTP	   759	   860	   890	  1000	  3819	  4466#
ABR4	  2902	  2905#
ABR5	  2948	  2951#
ABR6	  2993	  2996#
ABR7	  3040	  3043#
ABRARB	  3164	  3167#
ABRT34	  2778	  4185#
ABYTE	  2431	  2434#
ACDCL	    81#	  2838
ACONT1	  2301	  2304#
ACONT2	  2338	  2341#
ACT	    69#
ACTFLG	    67#
ACYCLE	  2229	  2232#
ADRESS	  2265	  2268#
AFAST	  2519	  2522#
AFULL	  2684	  2687#
AHALF	  2563	  2565#
AHIBYT	  2647	  2650#
AHIPEN	  3086	  3089#	  3102	  3105	  3111
AIOREG	  2148	  2152#
ALARGE	  2773	  2776#
ALDRMN	  1559	  1562#
ALOBYT	  2612	  2615#
ALOPEN	  3125	  3128#	  3141	  3144	  3150
ALPHA	  2191	  2194#
ALTMGO	   498#
AMAX	  1937	  1940#
AMAXBT	  2029	  2032#
AMBER	  1424	  1427#
ANCHOV	  1245	  1248#
ANIMAL	  1169	  1172#
ANPARB	  3241	  3244#
AOJTBL	  4214	  4224	  4227	  4532#
APHID	  1287	  1292#	  1307	  1330
APOWER	  2822	  2825#
APPLE	   917	   921#	   930	   934
APRICT	   957	   961#
ARBTBL	  3182	  3184	  3221#
AREVER	  2475	  2478#
ARGON	  1630	  1633#
ARM	  1693	  1696#
AROV	   412#
AROVTP	   412#
AROVU	   412#
ASPAR	  1134	  1138#
AST	   613#
ASTAT	  1064	  1067#
ATSIN	   614#


AUPPER	  2091	  2094#	  2112	  2117
AURIGA	  1344	  1347#                                                                                                    SEQ 0176
AUTOSA	   831	  3349#
AUTOSB	  3359#	  3383
AUTOSC	  3351	  3381#
AVEK	  2734	  2737#
AXFER	  2387	  2390#
AXLE	  1471	  1474#
BANANA	   921	   929#
BARON	  1574#	  1587	  1591	  1615
BASS	  1252#	  1273
BBACK	  2872#	  2886	  2888
BBR4	  2914#	  2927	  2933
BBR5	  2960#	  2973	  2978
BBR6	  3005#	  3020	  3025
BBR7	  3052#	  3067
BBRARB	  3180#	  3199	  3202	  3205	  3207
BBYTE	  2437#	  2458	  2460
BCONT1	  2307#	  2326
BCONT2	  2344#	  2363
BCYCLE	  2235#	  2253
BDRESS	  2271#	  2289
BEATLE	  1293	  1302#
BEAVER	  1181#	  1187
BEGEND	   494#	  3313
BEGIN	    28	    29	    30	    33	    34	    35	    36	    37	    38	   363	   364	   425#	  6188
BEGIN1	   441#	   495
BELL	   617#
BERING	  1486#	  1510
BETA	  2199#	  2217
BFAST	  2525#	  2546	  2548
BFULL	  2690#	  2716	  2718
BHALF	  2568#	  2596	  2598
BHIBYT	  2652#	  2667	  2669
BHIPEN	  3114#
BIOREG	  2158#	  2165	  2167
BIS	   412#
BIT0	   110#
BIT1	   109#
BIT10	   100#
BIT11	    99#
BIT12	    98#
BIT13	    97#
BIT14	    96#
BIT15	    95#
BIT16	    94#
BIT17	    93#
BIT2	   108#
BIT3	   107#
BIT4	   106#
BIT5	   105#
BIT6	   104#
BIT7	   103#


BIT8	   102#
BIT9	   101#                                                                                                            SEQ 0177
BLARGE	  2789#	  2795
BLOBYT	  2617#	  2631	  2633
BLOCKA	  4033#	  4037
BLOCKB	  4034	  4039#
BLOCKT	  2792	  4013#
BLOPEN	  3152#
BMAX	  1951#	  2002	  2004	  2009
BMAXBT	  2046#	  2064	  2069	  2074
BMD	    76#
BNPARB	  3255#	  3282	  3285	  3288	  3290
BOOTES	  1360#	  1371	  1375	  1377
BORON	  1643#	  1651	  1655	  1657
BPOWER	  2831#	  2840
BREVER	  2481#	  2502	  2504
BRTBL	  3266	  3302#
BSPAR	  1140#	  1146	  1148
BSTAT	  1074#	  1081	  1083
BUNION	  1710#	  1734
BUPPER	  2114	  2119#
BVEK	  2743#	  2752	  2758	  2760
BXFER	  2393#	  2414	  2416
BYTPT	  3741#
CAM	  1488#	  1502	  1506	  1508
CANE	   966#	   976	   978
CBACK	  2890#
CBR4	  2908	  2930#
CBR5	  2954	  2975#
CBR6	  2999	  3022#
CBR7	  3046	  3069#	  3072
CBRARB	  3194#	  3215	  3219
CBYTE	  2462#
CCA	   412#
CCONT1	  2315#	  2322	  2324
CCONT2	  2352#	  2359	  2361
CCYCLE	  2243#	  2249	  2251
CDRESS	  2279#	  2285	  2287
CFAST	  2550#
CFULL	  2720#
CHAIN	   168#
CHALF	  2600#
CHECKA	  3820	  3824	  3828#
CHECKP	  1144	  3696	  3816#	  3828	  3830	  3833
CHECKZ	  3826	  3832#
CHERRY	   936#
CHIBYT	  2671#
CHNOFF	   412#
CHNON	   412#
CIOREG	  2155	  2164#
CLARGE	  2797#
CLKU	   412#
CLOBYT	  2635#


CLOCKF	   480#
CLUGE	  1986	  1994#                                                                                                    SEQ 0178
CMAX	  1981	  1992	  1998#
CMAXBT	  2067	  2071	  2076#
CNPARB	  3274#	  3300
CNTLC	   497#
CNTRP	   412#
COBOLT	  1665#	  1671	  1675	  1676
COBRA	  1193#	  1201	  1204
COD	  1254#	  1269	  1271
COMMA	   606#
CONSW	   481#	   897	   938	  1043	  1125	  1158	  1234	  1276	  1334	  1415	  1460	  1548	  1620	  1682
	  1740	  1795	  1850	  1924	  2017	  2080	  2123	  2172	  2220	  2256	  2292	  2329	  2366	  2419
	  2463	  2507	  2551	  2601	  2636	  2672	  2721	  2763	  2811	  2852	  2891	  2937	  2982	  3029
	  3076	  3115	  3153	  3231	  3310
CORN	  1711#	  1726	  1730	  1732
COUNT	  1597#	  1609	  1613
CPOPJ	   501#
CPOPJ1	   499#
CPOWER	  2851#
CREVER	  2506#
CRIKET	  1313#	  1323	  1326
CRLF	   298	   299	   601#
CRLF2	   302	   303	   603#
CRY0	   412#
CRY1	   412#
CSHFLG	   660#
CSHMEM	   661#
CSPAR	  1145	  1151#
CSTAT	  1088#	  1096
CTRP	   412#
CVEK	  2762#
CXFER	  2418#
CYAN	  1456#
CYCL60	   654#
CYGNUS	  1382#	  1409
DBR4	  2935#
DBR5	  2980#
DBR6	  3027#
DBR7	  3074#
DBRARB	  3174	  3210#
DCK	   412#
DCONT1	  2328#
DCONT2	  2365#
DCYCLE	  2255#
DDRESS	  2291#
DDTLNK	   182#	   439
DDTSRT	   439#
DEBUG	    22#	  6179	  6180
DECVER	     2#	     7	    14	   460
DELTA	  2219#
DENT	  1516#	  1542
DF22F	   565#


DFRUIT	   964	   975#
DIAGMN	   428#                                                                                                            SEQ 0179
DING	   154#
DIOREG	  2170#
DISXFR	    82#
DLARGE	  2802#	  2805	  2807
DMAX	  1956	  2004#
DNPARB	  3252	  3293#
DOG	  1212#	  1216
DOLFIN	  1275#
DOLLAR	   620#
DRACO	  1385#	  1401	  1405	  1407
DSKUPD	   465
DSPAR	  1150	  1157#
DSTAT	  1080	  1103#
DUKE	  1617#
EAGLE	  1222#	  1230	  1231
EBIT0	   412#
EBIT1	   412#
EBIT10	   412#
EBIT11	   412#
EBIT12	   412#
EBIT13	   412#
EBIT14	   412#
EBIT15	   412#
EBIT2	   412#
EBIT3	   412#
EBIT4	   412#
EBIT5	   412#
EBIT6	   412#
EBIT7	   412#
EBIT8	   412#
EBIT9	   412#
EBRARB	  3177	  3217#
EFAL11	  1357	  1373#
EFAL13	  1480	  1504#
EFAL14	  1568	  1589#
EFAL15	  1639	  1653#
EGGNOG	  3550	  3560#
EGPLNT	   985#	   994	   996
ELARGE	  2809#
ELINE	  4491#
ELNEN	  4492#
EMAX	  2006	  2011#
END	  6187#
ENDFIX	   740#
ENDSLD	  6177#
ENGINE	  1518#	  1534	  1538	  1540
ENPARB	  3291	  3308#
ERIDAN	  1411#
ERMORE	   514#
EROLD	   374
ERR1	   869	   892	   929	  3706#


ERR1A	   975	   993	  1016	  1035	  3658#
ERR21	  2008	  2073	  2164	  3673#                                                                                    SEQ 0180
ERR22	  2212	  2248	  2284	  2321	  2358	  3687#
ERR23	  2413	  2457	  2501	  2545	  2595	  2630	  2666	  2715	  2885	  3591#
ERR34	  2804	  3609#
ERR40	  2926	  2972	  3019	  3066	  3621#
ERR46	  3281	  3284	  3287	  3713#
ERR7	  1200	  1229	  1268	  3727#
ERRBTZ	  3578	  3597	  3611	  3636	  3872#
ERRMAA	  3547#	  3563
ERRMAB	  3560	  3568#
ERRMAQ	  3544	  3574#
ERRMAX	  1911	  2001	  3536#
ERRMAZ	  3567	  3576#
ERRPC	   485#
ERRTLS	   486#	   762
ERSTOP	   157#
ESTAT	  1098	  1124#
EXCASB	    20#	   463
EXIOT	   412#
EXOCL1	  4126#	  4132
EXOCLR	  2394	  2438	  2482	  2526	  2569	  2618	  2653	  2691	  2738	  2777	  2826	  2865	  2906	  2931
	  2952	  2976	  2997	  3023	  3044	  3070	  3090	  3107	  3129	  3146	  3168	  3180	  3245	  3255
	  4018	  4121#
EXOMAP	  3386	  4264#
EXOMPA	  4276#	  4292
EXOMPY	  4269	  4294#
EXOMPZ	  4293	  4303#
EYEBAL	  1736#
FALIO	  1374	  1404	  1451	  1505	  1537	  1590	  1612	  1654	  1674	  1729	  1784	  1840	  3632#	  3647
FBRARB	  3209	  3229#
FENDER	  1544#
FINISH	   906	   947	  1050	  2130	  2137	  2181	  2374	  3312#
FORCEP	   118#	   883
FOV	   412#
FOVU	   412#
FOX	  1233#
FRDLNK	   180#
FSELNK	   179#
FXU	   412#
GAMMA	  2207#	  2213	  2215
GETVCA	  4226	  4246#
GETVCZ	  4244	  4251#
GETVEC	  2748	  3375	  4206#
GREEN	  1438#	  1448	  1452	  1454
GUAVA	   982	   993#
HAIL	   873#	   881	   893
HAZE	   884	   886	   895#
HDRFLG	  4488#
HELP	   754	  3742#
HIREQ	    79#	  3100	  3109	  3142
HORNET	  1300	  1329#
HYPEN	   611#


IDEFAL	  2395	  2439	  2483	  2527	  2570	  2619	  2654	  2692	  2780	  2866	  3966#
IFAL12	  1435	  1450#                                                                                                    SEQ 0181
IFAL16	  1702	  1728#
IFAL17	  1760	  1783#
IFAL20	  1815	  1839#
IND	    66#	   840	   841	  3471	  3472
INHCSH	   165#
INHPAG	   162#
INIFLG	  4487#
INPUT	  3402	  3405#
INTERO	  3599	  3612	  3635	  3891	  3948	  3968	  4468#
INTERS	  3577	  3634	  3648	  3875	  3936	  3969	  4467#
IOCLR	   412#
IODINE	  1678#
IOPGF1	  4154	  4158#
IOPGFA	   862	   874	   895	   922	   936	   965	   983	  1005	  1024	  1041	  1294	  1308	  1332	  1358
	  1383	  1411	  1436	  1456	  1481	  1514	  1544	  1569	  1596	  1617	  1640	  1660	  1678	  1703
	  1736	  1761	  1791	  1816	  1846	  1866	  1920	  1949	  2011	  2044	  2076	  2100	  2119	  2156
	  2170	  2779	  2809	  3352	  3384	  4159	  4162	  4164#
IOPGFB	  4160	  4167#
IOPGFT	   787	  4150#
ITERAT	    24#	   458
ITRCH1	   518#
ITRCNT	   458#
ITRSET	  2910	  2956	  3001	  3048	  3973	  4065#
ITRTBL	   817	  3175	  3178	  3253	  4069	  4070	  4073	  4216	  4527#
JOB41	   412#
JOBAPR	   412#
JOBCNI	   412#
JOBDDT	   412#
JOBFF	   412#
JOBOPC	   412#
JOBREL	   412#
JOBREN	   412#
JOBSA	   412#
JOBSYM	   412#
JOBTPC	   412#
JOBUSY	   412#
JOBUUO	   412#
JOBVER	   412#
KAIFLG	   475#
KLFLG	   476#
KNTRP	   412#
KTRP	   412#
LACLK	   412#
LACLKE	   412#
LAPRAL	   412#
LAPRP1	   412#
LAPRP2	   412#
LAPRP3	   412#
LAPRP4	   412#
LAPRP5	   412#
LAPRP6	   412#


LAPRP7	   412#
LCHNOF	   412#                                                                                                            SEQ 0182
LCHNON	   412#
LCNTXT	   412#
LCNXER	   412#
LCPAER	   412#
LCPSFT	   412#
LCPWRF	   412#
LDATAF	   412#
LDLNK	   181#	   428	   430
LDNXER	   412#
LDPAER	   412#
LDPSFT	   412#
LDPWRF	   412#
LEBXMH	   412#
LEBXML	   412#
LEMON	  1006#	  1017	  1019
LENXER	   412#
LEPAER	   412#
LEPSFT	   412#
LEPWRF	   412#
LEUPFW	   412#	  4151	  4172
LEXCMP	   412#
LFLGCL	   412#
LFLGDS	   412#
LFLGEN	   412#
LFLGST	   412#
LFP	   615#
LINSTF	   412#
LINT	   412#
LIOCLR	   412#	   777	   778
LLACBL	   412#
LLDUSB	   412#
LMBXMH	   412#
LMBXML	   412#
LNXMEN	   412#
LNXMER	   412#
LOOPER	   156#
LOREQ	    80#	  3103	  3139	  3148
LPAREN	   412#
LPARER	   412#
LPFWPC	   412#	  4168
LPGFTR	   412#	   782	   788
LPICH1	   412#
LPICH2	   412#
LPICH3	   412#
LPICH4	   412#
LPICH5	   412#
LPICH6	   412#
LPICH7	   412#
LPICHA	   412#
LPICLR	   412#
LPIIP1	   412#


LPIIP2	   412#
LPIIP3	   412#                                                                                                            SEQ 0183
LPIIP4	   412#
LPIIP5	   412#
LPIIP6	   412#
LPIIP7	   412#
LPIOFF	   412#
LPION	   412#
LPRCH1	   412#
LPRCH2	   412#
LPRCH3	   412#
LPRCH4	   412#
LPRCH5	   412#
LPRCH6	   412#
LPRCH7	   412#
LPRFMH	   412#
LPRFML	   412#
LPSFT	   412#
LPSFTE	   412#
LPWRFE	   412#
LPWRFL	   412#
LREQSE	   412#
LRQCLR	   412#
LSECMO	   412#
LSMODE	   412#
LSNXER	   412#
LSPAER	   412#
LSPSFT	   412#
LSPWRF	   412#
LTBASH	   412#
LTBASL	   412#
LTRPAE	   412#
LTRPEN	   412#
LUSCMP	   412#
LUUO	   412#
LUUO1	   545	   546
LUUO10	   545	   550
LUUO11	   545	   550
LUUO12	   545	   551
LUUO13	   545	   551
LUUO14	   545	   552
LUUO15	   545	   552
LUUO16	   545	   553
LUUO17	   545	   553
LUUO2	   545	   547
LUUO20	   545	   554
LUUO21	   545	   554
LUUO22	   545	   555
LUUO23	   545	   555
LUUO24	   545	   556
LUUO25	   545	   556
LUUO26	   545	   557
LUUO27	   545	   557


LUUO3	   545	   547
LUUO30	   545	   558                                                                                                     SEQ 0184
LUUO31	   545	   558
LUUO32	   545	   559
LUUO33	   545	   559
LUUO4	   545	   548
LUUO5	   545	   548
LUUO6	   545	   549
LUUO7	   545	   549
LUUOI	   412#
LWRITE	   412#
MANGO	  1004	  1019#
MAPNEW	   566#	   763
MARGIN	   488#
MCNVER	     1#	     7	    14	   460
MEMLOW	   568#	  1366	  1368	  1385	  1387	  1398	  1444	  1445	  1488	  1490	  1499	  1518	  1520	  1531
	  1574	  1583	  1606	  1646	  1667	  1711	  1713	  1722	  1723	  1768	  1770	  1778	  1823	  1825
	  1834	  1886	  1955	  2033	  2101	  2108	  2109	  2398	  2411	  2442	  2455	  2486	  2499	  2530
	  2543	  2574	  2592	  2696	  2712	  2787	  2800	  2869	  2882	  3256	  3283	  3298	  3546	  3786
	  3802	  4319	  4328
MEMMAP	    21#	   466
MEMMAX	  1875	  1947	  1954	  2039	  2068	  2786	  2806	  3562	  4474#
MEMORY	  4472#
MEMPAT	  1953	  4409#
MEMSIZ	   569#
MEMTOT	   567#	  1872	  1944	  2036	  2781
MERR3	   805	   806	   808	   810	  3408	  3410	  3412	  3426	  3443	  3466	  3468	  3470	  3737#
MINUS	   610#
MNTFLG	  4489#
MODDVC	   164#	   824	   830
MODDVL	   363	   363#	   461
MODDVU	   364	   364#	   462
MODLNK	   183#	   425
MONCTL	   478#
MONFLG	   477#
MONTEN	   479#
MONTYP	   692#
MPVU	   412#
MUUO	   412#
MUUOPC	   412#
NED	    78#	  1303	  1304	  1313	  1324
NEDIO	  1306	  3646#
NOPNT	   152#
NPRA	  1806	  1809#
NPRB	  1822#	  1844
NPRC	  1823#	  1837	  1841	  1842
NPRD	  1846#
NUMUB	   799	   802#
NXMU	   412#
NXTEX	  3402#
OFAL11	  1382	  1403#
OFAL13	  1513	  1536#
OFAL14	  1595	  1611#


OFAL15	  1659	  1673#
OPRSEL	   166#                                                                                                            SEQ 0185
OPTIME	   580#
ORANGE	  1026#	  1036	  1038
P	   209	   210	   211	   212	   412#	   500
PAG	   412#	  1363	  1364	  1394	  1395	  1441	  1442	  1494	  1495	  1527	  1528	  1581	  1582	  1604
	  1605	  1718	  1719	  1774	  1775	  1830	  1831	  1891	  1892	  2105	  2106	  2407	  2408	  2451
	  2452	  2495	  2496	  2539	  2540	  2583	  2584	  2797	  2798	  2879	  2880	  3274	  3275	  3295
	  3296	  3787	  3788	  3803	  3804
PAGERR	  1917	  3766#
PAGLO1	  3997#	  4000
PAGLOD	  3990#	  4028
PAGRA	  1863	  1868#
PAGRB	  1879#	  1914
PAGRC	  1880#	  1884
PAGRD	  1887#
PAGRE	  1890#	  1912	  1918
PAGRQ	  1865	  1917#
PAGRZ	  1916	  1920#
PALERS	   158#
PAREA1	    40#	   456
PAREA2	    41#	   457
PAREA3	    42#	   454
PAREA4	    43#	   455
PAREA5	    44#	   467
PAREA6	    45#	   468
PAREA7	   467#
PAREA8	   468#
PARU	   412#
PASCNT	   482#	   760
PATCH	  6180#
PATTY	  1074	  1141	  1254	  1360	  1388	  1438	  1491	  1521	  1575	  1597	  1643	  1665	  1714	  1771
	  1826	  2207	  2243	  2279	  2315	  2352	  4341#
PDISF	   577#
PDLOVU	   412#
PDOVTP	   412#
PERIOD	   607#
PFSTRT	   434#
PGMEND	    23#	  6186
PGMNAM	   459	  4536#
PIA30	    84#
PIA31	    85#
PIA32	    86#
PIA33	    87#
PIA34	    88#
PIA35	    89#
PICHN1	   412#
PICHN2	   412#
PICHN3	   412#
PICHN4	   412#
PICHN5	   412#
PICHN6	   412#
PICHN7	   412#


PICHNA	   412#
PICLR	   412#                                                                                                            SEQ 0186
PIOFF	   412#
PION	   412#
PLIST	   646#	   646
PLISTE	   646	   648#
PLISTS	   647#
PLUS	   612#
PNTENB	   576#
PNTEXT	   455#
PNTFLG	   575#
PNTINH	   578#
PNTLPT	   153#
PNTNAM	   454#
PNTRP	   412#
PNTSPC	   579#
PRUNE	  1023	  1038#
PTRP	   412#
PVPAGI	   673#
QMAX	  1948	  2007#
QMAXBT	  2043	  2073#
QUES	   825	  3394#
QUESA	  3417#
QUESB	  3418#	  3448
QUEST	   618#
QUESZ	  3418	  3450#
QUPPER	  2099	  2116#
RADIX	   621#
RADLSC	   623#
RADLSP	   622#
RAIN	   861	   869#
RANDBS	   456#
REENTR	   436#
RELIAB	   160#
REPT	   412#
REPT1	   412#
REPTU	   534#
REQSET	   412#
RESRT1	   511#
RESRT2	   512#
RETURN	   443#
RSBERY	  1001	  1041#
RSTART	   149#
RSTRT	   115#	   836	   897	   938	  1043	  1125	  1158	  1234	  1276	  1334	  1415	  1460	  1548	  1620
	  1682	  1740	  1795	  1850	  1924	  2017	  2080	  2123	  2172	  2220	  2256	  2292	  2329	  2366
	  2419	  2463	  2507	  2551	  2601	  2636	  2672	  2721	  2763	  2811	  2852	  2891	  2937	  2982
	  3029	  3076	  3115	  3153	  3231	  3310
RTP	   616#
RUN	    68#
RUNFLG	   483#
SADR1	    28#	   432
SADR10	    37#	   448
SADR11	    38#	   449


SADR2	    29#	   434
SADR3	    30#	   436                                                                                                     SEQ 0187
SADR4	    31#
SADR5	    32#	   497
SADR6	    33#	   498
SADR7	    34#	   445
SADR8	    35#	   446
SADR9	    36#	   447
SAVNUM	  4469#
SBINIT	   222	   442#
SCOPE	   535#
SEGMEM	  1961	  2015	  2042	  3556	  3580	  3780#
SEGNOW	  3545	  3553	  3555	  4483#
SELECT	   812	  4048#
SETPI	  2915	  2961	  3006	  3053	  4082#
SFSTRT	   432#
SIMUGO	  3192	  3272	  4052	  4510#
SLASH	   619#
SLINE	   761	  4490#
SM10	   723#
SMPE	    77#	   879	   885	   932	  1015	  1034	  3823
SNOW	   873	   892#
SNTRP	   412#
SPACE	   608#
SRTDDT	    31	   438#
STANDA	   117#	  2129
START	   426	   745#
START1	   445#
START2	   446#
START3	   447#
START4	   448#
START5	   449#
STARTA	   441	   838#
STORE	   811#
STRP	   412#
STST	   840#
SUBLNK	   184#	   442
SVPGFT	   783	  4156#	  4156
SWPTAB	   729#	   755
SWTEXR	   457#
SYSEXR	   430#
T	   844#	   869	   880	   892	   909#	   929	   933	   950#	   975	   993	  1016	  1035	  1053#	  1080
	  1095	  1127#	  1145	  1160#	  1200	  1229	  1236#	  1268	  1278#	  1306	  1322	  1325	  1329	  1336#
	  1370	  1374	  1400	  1404	  1417#	  1447	  1451	  1462#	  1501	  1505	  1533	  1537	  1550#	  1586
	  1590	  1608	  1612	  1622#	  1650	  1654	  1670	  1674	  1684#	  1725	  1729	  1742#	  1780	  1784
	  1797#	  1836	  1840	  1852#	  1911	  1917	  1926#	  2001	  2008	  2019#	  2063	  2073	  2082#	  2111
	  2116	  2140#	  2164	  2184#	  2212	  2222#	  2248	  2258#	  2284	  2294#	  2321	  2331#	  2358	  2377#
	  2413	  2421#	  2457	  2465#	  2501	  2509#	  2545	  2553#	  2595	  2603#	  2630	  2638#	  2666	  2674#
	  2715	  2723#	  2751	  2757	  2765#	  2804	  2813#	  2839	  2854#	  2885	  2893#	  2926	  2939#	  2972
	  2984#	  3019	  3031#	  3066	  3078#	  3101	  3104	  3110	  3117#	  3140	  3143	  3149	  3155#	  3198
	  3201	  3204	  3233#	  3281	  3284	  3287
T0	    50#	   771	   811	   967	   986	  1010	  1030	  1257	  1297	  1366	  1367	  1412	  1457	  1545
	  1563	  1564	  1618	  1634	  1635	  1679	  1680	  1737	  1792	  1847	  1900	  1901	  1902	  1921


	  1959	  1960	  1963	  1964	  1965	  1966	  1967	  1969	  1970	  1971	  1972	  1973	  2012	  2046
	  2051	  2077	  2120	  2132	  2133	  2369	  2370	  2847	  3351	  3352	  3394	  3453	  3536	  3549     SEQ 0188
	  3551	  3552	  3553	  3555	  3559	  3582	  3591	  3601	  3609	  3614	  3621	  3623	  3626	  3632
	  3637	  3646	  3651	  3658	  3665	  3673	  3675	  3679	  3687	  3700	  3713	  3719	  3727	  3732
	  3766	  3768	  3771	  3782	  3785	  3786	  3791	  3797	  3801	  3802	  3807	  3817	  3832	  3841
	  3862	  3872	  3918	  3929	  3959	  3966	  3982	  3990	  3999	  4004	  4013	  4032	  4037	  4041
	  4065	  4070	  4071	  4072	  4073	  4076	  4108	  4112	  4114	  4121	  4124	  4125	  4126	  4132
	  4138	  4139	  4143	  4150	  4151	  4152	  4153	  4155	  4158	  4159	  4161	  4176	  4206	  4217
	  4255	  4264	  4299	  4306	  4316	  4323	  4324	  4325	  4334
T1	    51#	   818	   819	   875	   876	   877	   878	   879	   885	  1245	  1246	  1297	  1584	  1585
	  1630	  1631	  1879	  1881	  1884	  1887	  1888	  1889	  1893	  1894	  1895	  1896	  1897	  1898
	  1899	  1902	  1903	  1904	  1905	  2152	  2153	  2154	  2158	  2167	  2198	  2199	  2217	  2234
	  2235	  2253	  2270	  2271	  2289	  2306	  2307	  2326	  2343	  2344	  2363	  2390	  2416	  2434
	  2460	  2478	  2504	  2522	  2548	  2565	  2586	  2598	  2615	  2620	  2633	  2650	  2655	  2669
	  2687	  2707	  2718	  2741	  2743	  2753	  2760	  2787	  2789	  2793	  2794	  2800	  2802	  2806
	  2807	  2870	  2888	  3182	  3183	  3259	  3260	  3356	  3357	  3360	  3361	  3362	  3363	  3364
	  3365	  3366	  3367	  3368	  3369	  3370	  3381	  3382	  3537	  3546	  3547	  3549	  3551	  3557
	  3561	  3562	  3569	  3581	  3594	  3783	  3785	  3790	  3798	  3801	  3806	  3845	  3873	  3875
	  3876	  3879	  3882	  3885	  3888	  3891	  3892	  3895	  3898	  3901	  3904	  3907	  3910	  3913
	  3917	  3930	  3938	  3939	  3945	  3947	  3958	  3991	  3996	  3998	  4000	  4003	  4014	  4033
	  4034	  4035	  4036	  4040	  4066	  4068	  4069	  4075	  4122	  4126	  4127	  4128	  4129	  4130
	  4131	  4134	  4135	  4136	  4140	  4142	  4207	  4215	  4216	  4218	  4219	  4223	  4224	  4225
	  4247	  4248	  4249	  4254	  4265	  4268	  4269	  4275	  4276	  4280	  4286	  4290	  4291	  4305
T10	    60#	  2400	  2444	  2488	  2532	  2576	  2698	  2872	  3850
T11	    61#	  2401	  2445	  2489	  2533	  2577	  2699	  2873	  3852
T12	    62#	  2402	  2446	  2490	  2534	  2578	  2700	  2874	  3854
T13	    63#	  2403	  2447	  2491	  2535	  2579	  2701	  2875	  3858
T14	    64#	  2404	  2448	  2492	  2536	  2580	  2702	  2876	  3856
T15	    65#
T2	    52#	  1074	  1075	  1076	  1079	  1080	  1104	  1111	  1114	  1117	  1141	  1142	  1143	  1152
	  1196	  1197	  1198	  1199	  1225	  1226	  1227	  1228	  1254	  1255	  1259	  1267	  1268	  1302
	  1303	  1304	  1313	  1315	  1360	  1361	  1362	  1365	  1367	  1369	  1388	  1389	  1393	  1397
	  1399	  1438	  1439	  1440	  1443	  1444	  1446	  1491	  1492	  1493	  1496	  1498	  1500	  1521
	  1522	  1526	  1530	  1532	  1575	  1576	  1577	  1578	  1579	  1580	  1597	  1598	  1602	  1603
	  1607	  1643	  1644	  1645	  1646	  1649	  1650	  1665	  1666	  1667	  1669	  1670	  1714	  1715
	  1716	  1717	  1721	  1722	  1724	  1771	  1772	  1773	  1777	  1779	  1826	  1827	  1828	  1829
	  1833	  1835	  1880	  1881	  1883	  1907	  1908	  1910	  1998	  1999	  2000	  2060	  2061	  2062
	  2103	  2104	  2107	  2108	  2110	  2207	  2208	  2209	  2211	  2243	  2244	  2245	  2247	  2279
	  2280	  2281	  2283	  2315	  2316	  2317	  2320	  2352	  2353	  2354	  2357	  2410	  2412	  2454
	  2456	  2498	  2500	  2542	  2544	  2590	  2591	  2593	  2626	  2627	  2629	  2662	  2663	  2665
	  2753	  2754	  2756	  2799	  2803	  2883	  2884	  3184	  3185	  3354	  3371	  3372	  3377	  3395
	  3417	  3418	  3421	  3428	  3445	  3448	  3452	  3693	  3842	  3849	  3850	  3851	  3852	  3853
	  3854	  3855	  3856	  3857	  3858	  3861	  3931	  3943	  3944	  3948	  3957	  3992	  3997	  3998
	  3999	  4002	  4208	  4222	  4234	  4246	  4248	  4253	  4266	  4280	  4281	  4282	  4283	  4304
T3	    53#	  1077	  1078	  1079	  1080	  1092	  1093	  1094	  1095	  1112	  1113	  1114	  1117	  1260
	  1261	  1262	  1264	  1266	  1267	  1268	  1320	  1321	  1324	  1368	  1369	  1398	  1399	  1445
	  1446	  1499	  1500	  1531	  1532	  1583	  1585	  1586	  1606	  1607	  1608	  1647	  1648	  1649
	  1650	  1668	  1669	  1670	  1723	  1724	  1778	  1779	  1834	  1835	  1909	  1910	  1980	  1991
	  1996	  2000	  2059	  2062	  2109	  2110	  2210	  2211	  2246	  2247	  2282	  2283	  2318	  2319
	  2320	  2355	  2356	  2357	  2411	  2412	  2455	  2456	  2499	  2500	  2543	  2544	  2586	  2587
	  2588	  2589	  2592	  2593	  2620	  2621	  2622	  2624	  2655	  2656	  2657	  2659	  2707	  2708
	  2709	  2710	  2712	  2713	  2743	  2744	  2745	  2746	  2749	  2750	  2755	  2756	  2802	  2803
	  2837	  2838	  2843	  2844	  2882	  2884	  3099	  3100	  3103	  3108	  3109	  3138	  3139	  3142


	  3147	  3148	  3173	  3175	  3176	  3178	  3196	  3197	  3200	  3203	  3211	  3212	  3251	  3253
	  3279	  3280	  3283	  3286	  3297	  3298	  3355	  3361	  3363	  3365	  3367	  3369	  3373	  3378     SEQ 0189
	  3544	  3843	  3845	  3846	  3847	  3849	  3851	  3853	  3855	  3857	  3860	  3932	  3939	  3940
	  3941	  3942	  3956
T4	    54#	   963	   967	   978	   984	   986	   996	  1003	  1010	  1019	  1025	  1030	  1038	  1180
	  1184	  1185	  1186	  1192	  1199	  1202	  1203	  1211	  1215	  1216	  1221	  1228	  1231	  1248
	  1257	  1273	  1380	  1386	  1396	  1409	  1485	  1489	  1497	  1510	  1515	  1519	  1529	  1542
	  1580	  1603	  1709	  1712	  1720	  1734	  1766	  1769	  1776	  1789	  1821	  1824	  1832	  1844
	  1886	  1893	  1898	  1907	  1909	  1953	  1954	  1955	  1957	  1959	  1963	  1969	  1974	  1978
	  1980	  1983	  1988	  1994	  1998	  2033	  2046	  2051	  2056	  2059	  2060	  2065	  2066	  2068
	  2199	  2200	  2201	  2204	  2235	  2236	  2237	  2239	  2271	  2272	  2273	  2275	  2307	  2308
	  2309	  2311	  2344	  2345	  2346	  2348	  2628	  2629	  2664	  2665	  2711	  2713	  2781	  2782
	  2783	  2784	  2785	  2786	  2794	  2913	  2914	  2916	  2933	  2959	  2960	  2962	  2978	  3004
	  3005	  3007	  3025	  3051	  3052	  3054	  3072	  3171	  3182	  3184	  3207	  3249	  3266	  3290
	  3540	  3623	  3715	  3933	  3942	  3943	  3949	  3950	  3955	  4082	  4084	  4086	  4088	  4090
	  4092	  4094	  4096	  4098	  4101
T5	    55#	  1073	  1074	  1083	  1138	  1141	  1148	  1252	  1254	  1271	  1359	  1360	  1377	  1384
	  1388	  1407	  1434	  1438	  1454	  1486	  1491	  1508	  1516	  1521	  1540	  1573	  1575	  1597
	  1615	  1642	  1643	  1657	  1664	  1665	  1676	  1710	  1714	  1732	  1767	  1771	  1787	  1822
	  1826	  1842	  1877	  1888	  1900	  1905	  1908	  1914	  1941	  1953	  2004	  2203	  2207	  2215
	  2238	  2243	  2251	  2274	  2279	  2287	  2310	  2315	  2324	  2347	  2352	  2361	  2589	  2590
	  2710	  2711	  2912	  2958	  3003	  3050	  3396	  3428	  3429	  3430	  3431	  3433	  3435	  3437
	  3439	  3451	  3768
T6	    56#	  1983	  1984	  1985	  1986	  1988	  1989	  1990	  1991	  1994	  1995	  1996	  3557	  3558
	  3559	  3784	  3789	  3799	  3805
T7	    57#	   811	  1348	  1428	  1475	  1566	  1637	  1697	  1755	  1810	  2095	  2396	  2440	  2484
	  2528	  2571	  2693	  2867	  3257	  4048	  4049	  4050	  4051	  4052	  4053	  4054	  4055	  4056
	  4057	  4323	  4324
T8	    58#	  1262	  1263	  1265	  1266
T9	    59#	    70
TAB	   609#
TEMP1	   800	  2747	  2749	  2789	  2909	  2914	  2955	  2960	  3000	  3005	  3047	  3052	  3187	  3197
	  3214	  3269	  3280	  3294	  3374	  3376	  3403	  3461	  3739	  3972	  3994	  4024	  4027	  4068
	  4084	  4228	  4249	  4251	  4479#
TEMP2	  2791	  3188	  3200	  3212	  3218	  3270	  3286	  3299	  4019	  4230	  4240	  4480#
TEMP3	  3189	  3203	  3213	  4232	  4238	  4481#
TEMP4	  4482#
TEST1	   856#	  3476
TEST10	  1287#	  3483
TEST11	  1344#	  3484
TEST12	  1424#	  3485
TEST13	  1471#	  3486
TEST14	  1559#	  3487
TEST15	  1630#	  3488
TEST16	  1693#	  3489
TEST17	  1751#	  3490
TEST2	   902	   917#	  3477
TEST20	  1806#	  3491
TEST21	  1863#	  3492
TEST22	  1937#	  3493
TEST23	  2029#	  3494
TEST24	  2091#	  3495
TEST25	  2133	  2148#	  3498


TEST26	  2177	  2191#	  3499
TEST27	  2229#	  3500                                                                                                     SEQ 0190
TEST3	   943	   957#	  3478
TEST30	  2265#	  3501
TEST31	  2301#	  3502
TEST32	  2338#	  3503
TEST33	  2370	  2387#	  3504
TEST34	  2431#	  3505
TEST35	  2475#	  3507
TEST36	  2519#	  3508
TEST37	  2563#	  3510
TEST4	  1046	  1064#	  3479
TEST40	  2612#	  3511
TEST41	  2647#	  3512
TEST42	  2684#	  3513
TEST43	  2734#	  3515
TEST44	  2773#	  3516
TEST45	  2822#	  3517
TEST46	  2861#	  3518
TEST47	  2902#	  3519
TEST5	  1134#	  3480
TEST50	  2948#	  3520
TEST51	  2993#	  3521
TEST52	  3040#	  3522
TEST53	  3086#	  3523
TEST54	  3125#	  3524
TEST55	  3164#	  3525
TEST56	  3241#	  3526
TEST6	  1169#	  3481
TEST7	  1245#	  3482
TESTPC	   484#	   745	   857	   897	   918	   938	   958	  1043	  1065	  1125	  1135	  1158	  1170	  1234
	  1246	  1276	  1288	  1334	  1345	  1415	  1425	  1460	  1472	  1548	  1560	  1620	  1631	  1682
	  1694	  1740	  1752	  1795	  1807	  1850	  1864	  1924	  1938	  2017	  2030	  2080	  2092	  2123
	  2149	  2172	  2192	  2220	  2230	  2256	  2266	  2292	  2302	  2329	  2339	  2366	  2388	  2419
	  2432	  2463	  2476	  2507	  2520	  2551	  2564	  2601	  2613	  2636	  2648	  2672	  2685	  2721
	  2735	  2763	  2774	  2811	  2823	  2852	  2862	  2891	  2903	  2937	  2949	  2982	  2994	  3029
	  3041	  3076	  3087	  3115	  3126	  3153	  3165	  3231	  3242	  3310
TICKS	   487#
TIMOUT	    75#	  1303	  1304	  1315	  1321
TMASK	    70#	  1068	  1075	  1078	  1113	  1136	  1142	  1173	  1198	  1227	  1250	  1255	  1350	  1361
	  1389	  1432	  1439	  1477	  1492	  1522	  1565	  1577	  1598	  1636	  1644	  1666	  1701	  1715
	  1759	  1772	  1814	  1827	  2202	  2208	  2241	  2244	  2277	  2280	  2313	  2316	  2319	  2350
	  2353	  2356	  2391	  2435	  2479	  2523	  2566	  2688
TN0	   412#
TN1	   412#
TOTALS	   150#
TRP3TP	   412#
TSTBL	   750	   840	   841	  3472	  3474#
TSTLP	   116#	   897	   938	  1043	  1125	  1158	  1234	  1276	  1334	  1415	  1460	  1548	  1620	  1682
	  1740	  1795	  1850	  1924	  2017	  2080	  2123	  2172	  2220	  2256	  2292	  2329	  2366	  2419
	  2463	  2507	  2551	  2601	  2636	  2672	  2721	  2763	  2811	  2852	  2891	  2937	  2982	  3029
	  3076	  3115	  3153	  3231	  3310
TSTS1	  3460	  3462#


TSTSEL	   837	   897	   938	  1043	  1125	  1158	  1234	  1276	  1334	  1415	  1460	  1548	  1620	  1682
	  1740	  1795	  1850	  1924	  2017	  2080	  2123	  2172	  2220	  2256	  2292	  2329	  2366	  2419     SEQ 0191
	  2463	  2507	  2551	  2601	  2636	  2672	  2721	  2763	  2811	  2852	  2891	  2937	  2982	  3029
	  3076	  3115	  3153	  3231	  3310	  3460#
TTNBRF	   667#
TTYFIL	   583#
TTYSPD	   584#
TXTINH	   161#
UBACLR	   961	  1067	  1140	  1172	  1249	  1292	  1318	  1347	  1427	  1474	  1562	  1633	  1696	  1754
	  1809	  1868	  1940	  2032	  2094	  2195	  2232	  2268	  2304	  2341	  2393	  2437	  2481	  2525
	  2568	  2617	  2652	  2690	  2737	  2776	  2825	  2864	  2905	  2951	  2996	  3043	  3089	  3128
	  3167	  3244	  3349	  3951	  3975	  4017	  4108#	  4210
UBAFG1	  4494#
UBAFLG	  4493#
UBAMT	   924	   925	   926	   927	  1110	  1121	  1352	  1413	  1431	  1458	  1479	  1546	  1564	  1618
	  1635	  1680	  1700	  1738	  1758	  1793	  1813	  1848	  1870	  1922	  1943	  2013	  2035	  2078
	  2098	  2121	  4050	  4113	  4504#
UBAPR	   966	   985	  1009	  1029	  1181	  1193	  1212	  1222	  1256	  1880	  1887	  1904	  1967	  1972
	  2050	  2054	  3997	  4048	  4299	  4325	  4331	  4502#
UBASR	   818	   864	   865	   866	   867	   875	   876	   877	   878	   931	  1007	  1008	  1014	  1027
	  1028	  1033	  1076	  1077	  1089	  1091	  1092	  1111	  1112	  1143	  1295	  1302	  1320	  2740
	  2837	  2916	  2962	  3009	  3056	  3099	  3108	  3138	  3147	  3170	  3247	  3357	  3427	  3576
	  3633	  3822	  3935	  3953	  3978	  4049	  4110	  4111	  4212	  4503#
UBAVEC	   412#
UBEBA1	  2275	  3260	  3365	  3435	  3853	  4055	  4515#
UBEC1A	  2311	  2849	  2921	  2967	  3014	  3061	  3094	  3133	  3183	  3185	  3265	  3267	  3367	  3437
	  3857	  3942	  4030	  4056	  4129	  4516#
UBEC1B	  2348	  2832	  2843	  2848	  2919	  3012	  3059	  3369	  3439	  3855	  4057	  4517#
UBECC1	  2239	  2965	  3262	  3363	  3433	  3851	  4023	  4033	  4054	  4514#
UBECLA	  4136#	  4140
UBECLZ	  4125	  4142#
UBEDB1	  2158	  2204	  2589	  2624	  2659	  2710	  2746	  3263	  3361	  3373	  3431	  3849	  4020	  4053
	  4283	  4513#
UBELOD	  2405	  2449	  2493	  2537	  2581	  2703	  2877	  3841#
UBEMAX	  3382	  4051	  4509#
UBETBL	  4136	  4512#
UBINIT	    83#	   863	  1006	  1026	  1090	  4109
UEXORN	   795	  2132	  2152	  2198	  2234	  2270	  2306	  2343	  2390	  2434	  2478	  2522	  2565	  2615
	  2650	  2687	  2741	  2870	  3372	  3413	  3417	  3938	  4124	  4134	  4268	  4291	  4473#
UNWAN1	  3939#	  3945
UNWANT	  3928#	  3960	  3971
UNWANZ	  3947	  3955#
USER	   474#
USERF	   412#
USRASB	   464
USRCRF	   593#
USRLFF	   592#
UUODIS	   546#
UUOEXT	   502#
UUORTN	   503#
UUOSKP	   500#
VECNUM	  2753	  3173	  3176	  3251	  3377	  3445	  4286	  4524#
WAPADR	  1392	  1393	  1525	  1526	  1601	  1602	  1663	  1668	  1707	  1716	  1764	  1773	  1819	  1828


	  4471#
WAPSET	  1349	  1429	  1476	  1567	  1638	  1698	  1756	  1811	  2096	  2397	  2441	  2485	  2529	  2572     SEQ 0192
	  2694	  2868	  3258	  4316#
WASP	  1314	  1316	  1328	  1332#
WIND	   856	   859#	   870
WRAPA	  1751	  1754#
WRAPB	  1767#	  1789
WRAPC	  1768#	  1781	  1785	  1787
WRAPD	  1791#
WRKADR	   968	   970	   971	   972	   973	   987	   988	   989	   990	   991	  1011	  1013	  1031	  1032
	  1183	  1184	  1195	  1196	  1214	  1215	  1224	  1225	  1258	  1259	  1260	  1362	  1390	  1440
	  1493	  1523	  1578	  1599	  1647	  1661	  1705	  1762	  1817	  1889	  1897	  1973	  1974	  2055
	  2056	  2104	  2159	  2160	  2162	  2205	  2209	  2210	  2240	  2245	  2246	  2276	  2281	  2282
	  2312	  2317	  2318	  2349	  2354	  2355	  2625	  2627	  2628	  2661	  2663	  2664	  3259	  3662
	  3675	  3689	  3729	  4137	  4139	  4332	  4470#
ZERMEM	  1890	  1951	  2040	  3797#
$$MUUO	   698#
$$OUTE	   704#
$$TAX1	   716#
$$TAX2	   717#
$$TOGG	   710#
$$UUO	   687#
$ACC0	   525#
$BEND1	   495#
$BEND2	    32	   496#
$CHRIN	   586#
$CRLF	   588#
$DEVCH	   412#
$DSKUP	   465#
$DVOFF	   582#
$EMODE	   463#
$FFF	   590#
$IBUF	   638#
$INEXT	   640#
$INNM	   639#
$ITRHL	   506#
$ITRX1	   507#
$LPAPE	  4553
$MMAP	   466#
$MODVL	   461#
$MODVU	   462#
$OBUF	   629#
$ONETM	   489#
$OUTEX	   631#
$OUTNM	   630#
$PAPER	   412
$PARER	   513#
$PNAME	   459#
$PSHER	   517#
$PVER	   460#
$RSRTX	   509#
$RSRTY	   510#
$SPAG1	   529#


$START	   426#
$SVAPR	   527#                                                                                                            SEQ 0193
$SVPAG	   528#
$SVPI	   526#
$SVUPC	   532#
$SVUUO	   531#
$TABF	   589#
$TTCHR	   585#
$TWCNT	   581#
$TYPNB	   587#
$UMODE	   464#
$UORTX	   504#
$USRHL	   508#
$UUOER	   505#	   546
$VTF	   591#
%ACTFL	   538#
%ACTUL	   539#
%COREC	   537#
%CORFL	   536#
%DISCR	   540#
%ERHI1	   679#
%ERHI2	   680#
%ERHI3	   681#
.JB41	   412#
.JBAPR	   412#
.JBCNI	   412#
.JBDDT	   412#
.JBFF	   412#
.JBOPC	   412#
.JBREL	   412#
.JBREN	   412#
.JBSA	   412#
.JBSYM	   412#
.JBTPC	   412#
.JBUSY	   412#
.JBUUO	   412#
.JBVER	   412#


APRID	   412#
BCIO	   412#                                                                                                            SEQ 0194
BCIOB	   412#
BSIO	   412#	  3978	  4110	  4111
BSIOB	   412#
CFLUSH	   334#
CINVAL	   333#
CLOKOP	   328#
CLRPT	   412#
CWRTBI	   335#
DROPDV	   295#
ENDUUO	   341#	   494
EOPUUO	   342#	   496	  4177	  4194
ERLOOP	   382#	   870	   881	   893	   930	   934	   976	   994	  1017	  1036	  1081	  1096	  1146	  1201
	  1230	  1269	  1307	  1323	  1326	  1330	  1371	  1375	  1401	  1405	  1448	  1452	  1502	  1506
	  1534	  1538	  1587	  1591	  1609	  1613	  1651	  1655	  1671	  1675	  1726	  1730	  1781	  1785
	  1837	  1841	  1912	  1918	  2002	  2009	  2064	  2074	  2112	  2117	  2165	  2213	  2249	  2285
	  2322	  2359	  2414	  2458	  2502	  2546	  2596	  2631	  2667	  2716	  2752	  2758	  2805	  2840
	  2886	  2927	  2973	  3020	  3067	  3102	  3105	  3111	  3141	  3144	  3150	  3199	  3202	  3205
	  3282	  3285	  3288
ERLP1	   383#
ERLP2	   384#
ERRHLT	   229#
ERROR	   391#	   869	   880	   892	   929	   933	   975	   993	  1016	  1035	  1080	  1095	  1145	  1200
	  1229	  1268	  1305	  1322	  1325	  1329	  1370	  1373	  1400	  1403	  1447	  1450	  1501	  1504
	  1533	  1536	  1586	  1589	  1608	  1611	  1650	  1653	  1670	  1673	  1725	  1728	  1780	  1783
	  1836	  1839	  1911	  1917	  2001	  2007	  2063	  2073	  2111	  2116	  2164	  2212	  2248	  2284
	  2321	  2358	  2413	  2457	  2501	  2545	  2594	  2630	  2666	  2714	  2751	  2757	  2804	  2839
	  2885	  2926	  2972	  3019	  3066	  3101	  3104	  3110	  3140	  3143	  3149	  3198	  3201	  3204
	  3281	  3284	  3287
ERROR1	   402#
ERUUO	   381#	   869	   880	   892	   929	   933	   975	   993	  1016	  1035	  1080	  1095	  1145	  1200
	  1229	  1268	  1306	  1322	  1325	  1329	  1370	  1374	  1400	  1404	  1447	  1451	  1501	  1505
	  1533	  1537	  1586	  1590	  1608	  1612	  1650	  1654	  1670	  1674	  1725	  1729	  1780	  1784
	  1836	  1840	  1911	  1917	  2001	  2008	  2063	  2073	  2111	  2116	  2164	  2212	  2248	  2284
	  2321	  2358	  2413	  2457	  2501	  2545	  2595	  2630	  2666	  2715	  2751	  2757	  2804	  2839
	  2885	  2926	  2972	  3019	  3066	  3101	  3104	  3110	  3140	  3143	  3149	  3198	  3201	  3204
	  3281	  3284	  3287
FATAL	   228#
FRD36	   370#
FRD8	   371#
FREAD	   369#
FSELEC	   368#
GET	   212#	  3451	  3452	  3453	  3581	  3582	  3601	  3614	  3626	  3637	  3651	  3665	  3679	  3700
	  3719	  3732	  3771	  3789	  3790	  3791	  3805	  3806	  3807	  3832	  3860	  3861	  3862	  3917
	  3918	  3955	  3956	  3957	  3958	  3959	  3982	  4002	  4003	  4004	  4040	  4041	  4075	  4076
	  4101	  4114	  4142	  4143	  4155	  4161	  4176	  4253	  4254	  4255	  4304	  4305	  4306	  4334
GO	   209#	   812	   825	   831	   961	  1067	  1140	  1172	  1249	  1292	  1318	  1347	  1349	  1427
	  1429	  1474	  1476	  1562	  1567	  1633	  1638	  1696	  1698	  1754	  1756	  1809	  1811	  1868
	  1890	  1940	  1951	  1961	  2015	  2032	  2040	  2042	  2094	  2096	  2195	  2232	  2268	  2304
	  2341	  2393	  2394	  2395	  2397	  2405	  2437	  2438	  2439	  2441	  2449	  2481	  2482	  2483
	  2485	  2493	  2525	  2526	  2527	  2529	  2537	  2568	  2569	  2570	  2572	  2581	  2617	  2618
	  2619	  2652	  2653	  2654	  2690	  2691	  2692	  2694	  2703	  2737	  2738	  2748	  2776	  2777


	  2780	  2792	  2825	  2826	  2864	  2865	  2866	  2868	  2877	  2905	  2906	  2910	  2915	  2931
	  2951	  2952	  2956	  2961	  2976	  2996	  2997	  3001	  3006	  3023	  3043	  3044	  3048	  3053     SEQ 0195
	  3070	  3089	  3090	  3107	  3128	  3129	  3146	  3167	  3168	  3180	  3244	  3245	  3255	  3258
	  3349	  3375	  3386	  3556	  3578	  3580	  3597	  3611	  3636	  3647	  3951	  3973	  3975	  4017
	  4018	  4028	  4210
HALT	    33	    34	    35	    36	    37	    38	   214#	   515
JEN	   216#
JRSTF	   215#
LPTST	   122#	   896	   937	  1042	  1124	  1157	  1233	  1275	  1333	  1414	  1459	  1547	  1619	  1681
	  1739	  1794	  1849	  1923	  2016	  2079	  2122	  2171	  2219	  2255	  2291	  2328	  2365	  2418
	  2462	  2506	  2550	  2600	  2635	  2671	  2720	  2762	  2810	  2851	  2890	  2936	  2981	  3028
	  3075	  3114	  3152	  3230	  3309
MAPADR	   351#
MAPCNK	   352#
MAPMEM	   348#
MAPPNT	   354#
MAPSET	   353#
MEMSEG	   350#	   772	  3780
MEMZRO	   349#	  3800
MODPCP	   361#
MODPCU	   360#
MTROP	   329#
NAME	     5#	     7
PBELL	   304#
PCRL	   298#	  1106	  1154	  3542	  3571	  3596	  3598	  3625	  3664	  3677	  3691	  3695	  3718	  3731
	  3770	  4175
PCRL2	   302#
PCRL2F	   303#
PCRLF	   299#	   813	  3446	  3450	  4289	  4301	  4303
PFORCE	   306#
PGMINT	   222#	   767
PJRST	   213#
PMSG	   308#
PMSGF	   311#	  4167	  4171
PNT1	   264#	  3624	  3717
PNT11	   278#
PNT11F	   279#
PNT1F	   265#	  4300
PNT2	   266#	  3595	  3769
PNT2F	   267#	  3422	  4277
PNT3	   268#
PNT3F	   269#
PNT4	   270#
PNT4F	   271#	  4288
PNT5	   272#
PNT5F	   273#
PNT6	   274#	  1105	  1153	  3694
PNT6F	   275#
PNT7	   276#	  3541	  3570	  3663	  3676	  3690	  3730
PNT7F	   277#	  4284
PNTA	   250#
PNTADF	   281#
PNTADR	   280#


PNTAF	   251#
PNTAL	   252#                                                                                                            SEQ 0196
PNTALF	   253#	  3464	  3738	  4279
PNTCHF	   263#
PNTCHR	   262#
PNTCI	   260#
PNTCIF	   261#
PNTCW	   296#
PNTCWF	   297#
PNTDCF	   289#
PNTDEC	   288#
PNTDS	   290#
PNTDSF	   291#
PNTHW	   284#
PNTHWF	   285#	  4169	  4173
PNTMSF	   257#	   802	   887	   903	   944	  1047	  1103	  1151	  2134	  2178	  2371	  3398	  3405	  3419
	  3423	  3441	  4185	  4271	  4278	  4285	  4294	  4298
PNTMSG	   256#	  1115	  1118	  3539	  3565	  3568	  3574	  3593	  3622	  3649	  3660	  3674	  3688	  3692
	  3697	  3714	  3728	  3767	  3877	  3880	  3883	  3886	  3889	  3893	  3896	  3899	  3902	  3905
	  3908	  3911	  3914
PNTNM	   292#
PNTOCF	   287#
PNTOCS	   286#
PNTOCT	   282#
PNTOTF	   283#
PNTSIX	   293#
PNTSXF	   294#
PSIXL	   254#
PSIXLF	   255#
PSIXM	   258#
PSIXMF	   259#	  4167	  4171
PSP	   300#
PSPF	   301#
PUT	   211#	  3394	  3395	  3396	  3536	  3537	  3591	  3609	  3621	  3632	  3646	  3658	  3673	  3687
	  3713	  3727	  3766	  3782	  3783	  3784	  3797	  3798	  3799	  3817	  3841	  3842	  3843	  3872
	  3873	  3929	  3930	  3931	  3932	  3933	  3966	  3990	  3991	  3992	  4013	  4014	  4065	  4066
	  4082	  4108	  4121	  4122	  4150	  4206	  4207	  4208	  4264	  4265	  4266	  4316
RDAPR	   412#
RDCSB	   412#
RDCSTM	   412#
RDEBR	   412#
RDHSB	   412#
RDINT	   412#
RDIO	   412#	   875	   876	   877	   878	   931	   988	   989	   990	   991	  1014	  1032	  1033	  1077
	  1092	  1112	  1196	  1225	  1260	  1302	  1320	  1647	  1668	  2160	  2210	  2246	  2282	  2318
	  2355	  2590	  2711	  2837	  2843	  3099	  3108	  3138	  3147	  3576	  3633	  3822	  3935	  3943
	  4033
RDIOB	   412#	  2628	  2664
RDPI	   412#
RDPUR	   412#
RDSPB	   412#
RDTIM	   412#
RDUBR	   412#


REPTUO	   385#
RTN	   210#	   502	  1107	  1122	  1155	  3388	  3454	  3583	  3602	  3615	  3627	  3638	  3652	  3666     SEQ 0197
	  3680	  3701	  3707	  3720	  3733	  3772	  3792	  3808	  3863	  3919	  3983	  4005	  4042	  4059
	  4077	  4102	  4115	  4144	  4256	  4307	  4335
S	   140#	   142	   146	   175	   177	   186	   189	   204	   205	   207	   218	   220	   224	   226
	   231	   235	   377	   379	   412	   417	   423	   450	   452	   470	   472	   490	   492	   521
	   523	   541	   543	   561	   563	   571	   573	   594	   599	   625	   627	   634	   636	   642
	   644	   650	   652	   656	   658	   663	   665	   669	   671	   675	   677	   683	   685	   688
	   690	   694	   696	   700	   702	   706	   708	   712	   714	   719	   721	   725	   727	   731
	   733	   735	   737
SIXBTZ	   317#	   844	   909	   950	  1053	  1127	  1160	  1236	  1278	  1336	  1417	  1462	  1550	  1622
	  1684	  1742	  1797	  1852	  1926	  2019	  2082	  2140	  2184	  2222	  2258	  2294	  2331	  2377
	  2421	  2465	  2509	  2553	  2603	  2638	  2674	  2723	  2765	  2813	  2854	  2893	  2939	  2984
	  3031	  3078	  3117	  3155	  3233
SWITCH	   323#	   823	   829	   835	   882	  2128
TIOE	   412#
TIOEB	   412#
TION	   412#
TIONB	   412#
TTALTM	   244#
TTICHR	   237#
TTICLR	   247#
TTICNV	   242#
TTIDEC	   241#
TTINO	   239#
TTIOCT	   240#	   804	  3407	  3425	  3442	  3465
TTIYES	   238#
TTLOOK	   243#
TTSIXB	   245#
TTYINP	   246#
WRAPR	   412#	   777	   778
WRCSB	   412#
WRCSTM	   412#
WREBR	   412#
WRHSB	   412#
WRINT	   412#
WRIO	   412#	   864	   865	   866	   867	   924	   925	   926	   927	   970	   971	   972	   973	  1007
	  1008	  1013	  1027	  1028	  1076	  1089	  1091	  1110	  1111	  1121	  1143	  1184	  1215	  1259
	  1297	  1352	  1362	  1393	  1413	  1431	  1458	  1479	  1493	  1526	  1546	  1564	  1578	  1602
	  1618	  1635	  1680	  1700	  1738	  1758	  1793	  1813	  1848	  1870	  1883	  1897	  1905	  1922
	  1943	  1967	  1974	  2013	  2035	  2050	  2056	  2078	  2098	  2104	  2121	  2162	  2209	  2245
	  2281	  2317	  2354	  2740	  2832	  2848	  2849	  2916	  2919	  2921	  2962	  2965	  2967	  3009
	  3012	  3014	  3056	  3059	  3061	  3094	  3133	  3170	  3183	  3185	  3192	  3247	  3260	  3262
	  3263	  3265	  3267	  3272	  3360	  3850	  3852	  3854	  3856	  3858	  3950	  3953	  3999	  4020
	  4023	  4030	  4113	  4131	  4139	  4212	  4238	  4240	  4325
WRIOB	   412#	  1440	  1716	  1773	  1828	  2627	  2663
WRPI	   412#	   791	  2935	  2980	  3027	  3074	  3091	  3130	  3181	  3229	  3248	  3308	  3312	  3980
	  4015	  4039	  4085	  4087	  4089	  4091	  4093	  4095	  4097	  4099	  4235	  4236	  4252
WRPUR	   412#
WRSPB	   412#
WRTIM	   412#
WRUBR	   412#
XINDEX	   132#	  1181	  1193	  1212	  1222
