DSKBA DECSYSTEM 2020 BASIC INSTRUCTION RELIABILITY TEST (1), VER 0,1 	MACRO %53(1020) 12:59 29-Mar-78 Page 118
DSKBA3	MAC	29-Mar-78 12:27		DIAGNOSTIC SECTION THREE                                                           SEQ 0456

 17688
 17689
 17690					;TEST HRLZI.  CHECK C(AC) FOR CORRECT DATA
 17691					;RAN TO RAN1
 17692
 17693
 17694			000010			AC=10
 17695	053706				HRLZI1:	SETUP	200,1^
 17696			000011			AC1=<AC+1>&17
 17697			000012			AC2=<AC+2>&17
 17698			000013			AC3=<AC+3>&17
 17699			000014			AC4=<AC+4>&17
 17700			000015			AC5=<AC+5>&17
 17701			000006			RAN1=<AC-2>&17
 17702	053706	201 07 0 00 053706 		MOVEI	AC-1,.
 17703	053707	202 07 0 00 030051 		MOVEM	AC-1,TESTPC	;SETUP SUBTEST PC
 17704	053710	201 07 0 00 000007 		MOVEI	AC-1,<AC-1>&17	;INFORM ERROR ROUTINE
 17705	053711	202 07 0 00 061117 		MOVEM	AC-1,ERRLOP#	;WHICH AC IS USED FOR ITERATION
 17706	053712	201 07 0 00 000200 		MOVEI	AC-1,200		;ROUTINE WEIGHTING
 17707	053713	240 07 1 00 030657 		ASH	AC-1,@CMPLXT+1	;ROUTINE COMPLEXITY
 17708	053714	240 07 1 00 030655 		ASH	AC-1,@RTIME	;RUN TIME CONTROLLER ^
 17709	053715				HRLZI2:	RANDOM^
 17710	053715	200 10 0 00 061125 		MOVE	AC,RAN#		;GENERATE  PSEUDO RANDOM NUMBER
 17711	053716	270 10 0 00 060657 		ADD	AC,[142536475076]
 17712	053717	241 10 0 00 777777 		ROT	AC,-1		;IN BOTH AC AND
 17713	053720	447 10 0 00 061125 		EQVB	AC,RAN		;REGISTER RAN ^
 17714	053721	200 13 0 00 061125 		MOVE	AC3,RAN		;SAVE RAN IN AN AC.
 17715	053722	241 10 0 00 000011 	HRLZI3:	ROT	AC,11		;C(AC)=SECOND RAN. NUM
 17716	053723	200 06 0 00 000010 		MOVE	RAN1,AC		;SAVE C(AC) IN CASE OF ERROR
 17717	053724	205 11 0 13 000000 		MOVSI	AC1,(AC3)	;SIMULATE A HRLZI INST.
 17718	053725	515 10 0 13 000000 		HRLZI	AC,(AC3)	;DO HRLZI.
 17719	053726	312 10 0 00 000011 		CAME	AC,AC1		;C(AC) SHOULD=SIM. ANS
 17720	053727	003 06 0 13 000000 		ERRI	RAN1,(AC3)
 17721						LOOP	HRLZI2,HRLZI3^
 17722	053730	367 07 0 00 053715 		SOJG	AC-1,HRLZI2		;ITERATION COUNTER
 17723	053731	200 10 0 00 061125 		MOVE	AC,RAN		;RESTORE RANDOM NUMBER
 17724	053732	321 07 0 00 053722 		JUMPL	AC-1,HRLZI3		;LOOP ON ERROR SWITCH ^
 17725

DSKBA DECSYSTEM 2020 BASIC INSTRUCTION RELIABILITY TEST (1), VER 0,1 	MACRO %53(1020) 12:59 29-Mar-78 Page 119
DSKBA3	MAC	29-Mar-78 12:27		DIAGNOSTIC SECTION THREE                                                           SEQ 0457

 17726
 17727
 17728					;TEST HRLZM. CHECK C(E) FOR CORRECT DATA.
 17729					;RAN TO RAN1
 17730
 17731
 17732			000010			AC=10
 17733	053733				HRLZM1:	SETUP	200,1^
 17734			000011			AC1=<AC+1>&17
 17735			000012			AC2=<AC+2>&17
 17736			000013			AC3=<AC+3>&17
 17737			000014			AC4=<AC+4>&17
 17738			000015			AC5=<AC+5>&17
 17739			000006			RAN1=<AC-2>&17
 17740	053733	201 07 0 00 053733 		MOVEI	AC-1,.
 17741	053734	202 07 0 00 030051 		MOVEM	AC-1,TESTPC	;SETUP SUBTEST PC
 17742	053735	201 07 0 00 000007 		MOVEI	AC-1,<AC-1>&17	;INFORM ERROR ROUTINE
 17743	053736	202 07 0 00 061117 		MOVEM	AC-1,ERRLOP#	;WHICH AC IS USED FOR ITERATION
 17744	053737	201 07 0 00 000200 		MOVEI	AC-1,200		;ROUTINE WEIGHTING
 17745	053740	240 07 1 00 030657 		ASH	AC-1,@CMPLXT+1	;ROUTINE COMPLEXITY
 17746	053741	240 07 1 00 030655 		ASH	AC-1,@RTIME	;RUN TIME CONTROLLER ^
 17747	053742				HRLZM2:	RANDOM^
 17748	053742	200 10 0 00 061125 		MOVE	AC,RAN#		;GENERATE  PSEUDO RANDOM NUMBER
 17749	053743	270 10 0 00 060657 		ADD	AC,[142536475076]
 17750	053744	241 10 0 00 777777 		ROT	AC,-1		;IN BOTH AC AND
 17751	053745	447 10 0 00 061125 		EQVB	AC,RAN		;REGISTER RAN ^
 17752	053746	200 12 0 00 061125 		MOVE	AC2,RAN		;SAVE RAN IN AN AC.
 17753	053747	241 10 0 00 000011 	HRLZM3:	ROT	AC,11		;C(E)=SECOND RAN. NUM
 17754	053750	200 06 0 00 000010 		MOVE	RAN1,AC		;SAVE C(E) IN CASE OF ERROR
 17755	053751	205 11 0 12 000000 		MOVSI	AC1,(AC2)	;SIMULATE A HRLZM INST.
 17756	053752	516 12 0 00 000010 		HRLZM	AC2,AC		;DO HRLZM.
 17757	053753	312 11 0 00 000010 		CAME	AC1,AC		;C(E) SHOULD=SIM. ANS.
 17758	053754	002 06 0 00 061125 		ERRM	RAN1,RAN
 17759						LOOP	HRLZM2,HRLZM3^
 17760	053755	367 07 0 00 053742 		SOJG	AC-1,HRLZM2		;ITERATION COUNTER
 17761	053756	200 10 0 00 061125 		MOVE	AC,RAN		;RESTORE RANDOM NUMBER
 17762	053757	321 07 0 00 053747 		JUMPL	AC-1,HRLZM3		;LOOP ON ERROR SWITCH ^
 17763

DSKBA DECSYSTEM 2020 BASIC INSTRUCTION RELIABILITY TEST (1), VER 0,1 	MACRO %53(1020) 12:59 29-Mar-78 Page 120
DSKBA3	MAC	29-Mar-78 12:27		DIAGNOSTIC SECTION THREE                                                           SEQ 0458

 17764
 17765
 17766					;TEST HRLZS.  CHECK C(E) FOR CORRECT DATA AND
 17767					;PROPER STORING OF C(E) INTO AC FOR RAN TO RAN CONDITION
 17768
 17769
 17770			000002			AC=2
 17771	053760				HRLZS1:	SETUP	200,1^
 17772			000003			AC1=<AC+1>&17
 17773			000004			AC2=<AC+2>&17
 17774			000005			AC3=<AC+3>&17
 17775			000006			AC4=<AC+4>&17
 17776			000007			AC5=<AC+5>&17
 17777			000000			RAN1=<AC-2>&17
 17778	053760	201 01 0 00 053760 		MOVEI	AC-1,.
 17779	053761	202 01 0 00 030051 		MOVEM	AC-1,TESTPC	;SETUP SUBTEST PC
 17780	053762	201 01 0 00 000001 		MOVEI	AC-1,<AC-1>&17	;INFORM ERROR ROUTINE
 17781	053763	202 01 0 00 061117 		MOVEM	AC-1,ERRLOP#	;WHICH AC IS USED FOR ITERATION
 17782	053764	201 01 0 00 000200 		MOVEI	AC-1,200		;ROUTINE WEIGHTING
 17783	053765	240 01 1 00 030657 		ASH	AC-1,@CMPLXT+1	;ROUTINE COMPLEXITY
 17784	053766	240 01 1 00 030655 		ASH	AC-1,@RTIME	;RUN TIME CONTROLLER ^
 17785	053767				HRLZS2:	RANDOM^
 17786	053767	200 02 0 00 061125 		MOVE	AC,RAN#		;GENERATE  PSEUDO RANDOM NUMBER
 17787	053770	270 02 0 00 060657 		ADD	AC,[142536475076]
 17788	053771	241 02 0 00 777777 		ROT	AC,-1		;IN BOTH AC AND
 17789	053772	447 02 0 00 061125 		EQVB	AC,RAN		;REGISTER RAN ^
 17790	053773	200 05 0 00 061125 		MOVE	AC3,RAN		;SAVE RAN IN AN AC.
 17791	053774	477 03 0 00 000000 	HRLZS3:	SETOB	AC1,RAN1	;SET C(AC) TO -1
 17792	053775	205 04 0 05 000000 		MOVSI	AC2,(AC3)	;SIMULATE A HRLZ INST.
 17793	053776	517 03 0 00 000002 		HRLZS	AC1,AC		;DO HRLZS
 17794	053777	312 03 0 00 000002 		CAME	AC1,AC		;C(AC) SHOULD=C(E) AFTER HRLZS
 17795	054000	002 05 0 00 000000 		ERRM	AC3,RAN1
 17796	054001	312 04 0 00 000002 		CAME	AC2,AC		;C(E) SHOULD=SIM ANS
 17797	054002	002 05 0 00 000000 		ERRM	AC3,RAN1
 17798						LOOP	HRLZS2,HRLZS3^
 17799	054003	367 01 0 00 053767 		SOJG	AC-1,HRLZS2		;ITERATION COUNTER
 17800	054004	200 02 0 00 061125 		MOVE	AC,RAN		;RESTORE RANDOM NUMBER
 17801	054005	321 01 0 00 053774 		JUMPL	AC-1,HRLZS3		;LOOP ON ERROR SWITCH ^
 17802

DSKBA DECSYSTEM 2020 BASIC INSTRUCTION RELIABILITY TEST (1), VER 0,1 	MACRO %53(1020) 12:59 29-Mar-78 Page 121
DSKBA3	MAC	29-Mar-78 12:27		DIAGNOSTIC SECTION THREE                                                           SEQ 0459

 17803
 17804
 17805					;TEST HLRZ CHECK C(AC) FOR CORRECT DATA
 17806					;RAN TO RAN1
 17807
 17808
 17809			000003			AC=3
 17810	054006				HLRZ1:	SETUP	200,1^
 17811			000004			AC1=<AC+1>&17
 17812			000005			AC2=<AC+2>&17
 17813			000006			AC3=<AC+3>&17
 17814			000007			AC4=<AC+4>&17
 17815			000010			AC5=<AC+5>&17
 17816			000001			RAN1=<AC-2>&17
 17817	054006	201 02 0 00 054006 		MOVEI	AC-1,.
 17818	054007	202 02 0 00 030051 		MOVEM	AC-1,TESTPC	;SETUP SUBTEST PC
 17819	054010	201 02 0 00 000002 		MOVEI	AC-1,<AC-1>&17	;INFORM ERROR ROUTINE
 17820	054011	202 02 0 00 061117 		MOVEM	AC-1,ERRLOP#	;WHICH AC IS USED FOR ITERATION
 17821	054012	201 02 0 00 000200 		MOVEI	AC-1,200		;ROUTINE WEIGHTING
 17822	054013	240 02 1 00 030657 		ASH	AC-1,@CMPLXT+1	;ROUTINE COMPLEXITY
 17823	054014	240 02 1 00 030655 		ASH	AC-1,@RTIME	;RUN TIME CONTROLLER ^
 17824	054015				HLRZ2:	RANDOM^
 17825	054015	200 03 0 00 061125 		MOVE	AC,RAN#		;GENERATE  PSEUDO RANDOM NUMBER
 17826	054016	270 03 0 00 060657 		ADD	AC,[142536475076]
 17827	054017	241 03 0 00 777777 		ROT	AC,-1		;IN BOTH AC AND
 17828	054020	447 03 0 00 061125 		EQVB	AC,RAN		;REGISTER RAN ^
 17829	054021	241 03 0 00 000011 	HLRZ3:	ROT	AC,11		;C(AC)=SECOND RAN. NUM
 17830	054022	200 01 0 00 000003 		MOVE	RAN1,AC		;SAVE C(AC) IN CASE OF ERROR
 17831	054023	204 04 0 00 061125 		MOVS	AC1,RAN		;SIMULATE
 17832	054024	621 04 0 00 777777 		TLZ	AC1,-1		;A HLRZ INST.
 17833	054025	554 03 0 00 061125 		HLRZ	AC,RAN		;DO HLRZ
 17834	054026	312 03 0 00 000004 		CAME	AC,AC1		;C(AC) SHOULD=SIM. ANS.
 17835	054027	011 00 0 00 000001 		EERR	,RAN1
 17836						LOOP	HLRZ2,HLRZ3^
 17837	054030	367 02 0 00 054015 		SOJG	AC-1,HLRZ2		;ITERATION COUNTER
 17838	054031	200 03 0 00 061125 		MOVE	AC,RAN		;RESTORE RANDOM NUMBER
 17839	054032	321 02 0 00 054021 		JUMPL	AC-1,HLRZ3		;LOOP ON ERROR SWITCH ^
 17840

DSKBA DECSYSTEM 2020 BASIC INSTRUCTION RELIABILITY TEST (1), VER 0,1 	MACRO %53(1020) 12:59 29-Mar-78 Page 122
DSKBA3	MAC	29-Mar-78 12:27		DIAGNOSTIC SECTION THREE                                                           SEQ 0460

 17841
 17842
 17843					;TEST HLRZI.  CHECK C(AC) FOR 0
 17844					;RAN TO RAN1.
 17845
 17846
 17847			000003			AC=3
 17848	054033				HLRZI1:	SETUP	200,1^
 17849			000004			AC1=<AC+1>&17
 17850			000005			AC2=<AC+2>&17
 17851			000006			AC3=<AC+3>&17
 17852			000007			AC4=<AC+4>&17
 17853			000010			AC5=<AC+5>&17
 17854			000001			RAN1=<AC-2>&17
 17855	054033	201 02 0 00 054033 		MOVEI	AC-1,.
 17856	054034	202 02 0 00 030051 		MOVEM	AC-1,TESTPC	;SETUP SUBTEST PC
 17857	054035	201 02 0 00 000002 		MOVEI	AC-1,<AC-1>&17	;INFORM ERROR ROUTINE
 17858	054036	202 02 0 00 061117 		MOVEM	AC-1,ERRLOP#	;WHICH AC IS USED FOR ITERATION
 17859	054037	201 02 0 00 000200 		MOVEI	AC-1,200		;ROUTINE WEIGHTING
 17860	054040	240 02 1 00 030657 		ASH	AC-1,@CMPLXT+1	;ROUTINE COMPLEXITY
 17861	054041	240 02 1 00 030655 		ASH	AC-1,@RTIME	;RUN TIME CONTROLLER ^
 17862	054042				HLRZI2:	RANDOM^
 17863	054042	200 03 0 00 061125 		MOVE	AC,RAN#		;GENERATE  PSEUDO RANDOM NUMBER
 17864	054043	270 03 0 00 060657 		ADD	AC,[142536475076]
 17865	054044	241 03 0 00 777777 		ROT	AC,-1		;IN BOTH AC AND
 17866	054045	447 03 0 00 061125 		EQVB	AC,RAN		;REGISTER RAN ^
 17867	054046	200 04 0 00 061125 		MOVE	AC1,RAN		;SAVE RAN IN AN AC.
 17868	054047	241 03 0 00 000011 	HLRZI3:	ROT	AC,11		;C(AC)=SECOND RAN. NUM
 17869	054050	200 01 0 00 000003 		MOVE	RAN1,AC		;SAVE C (AC) IN CASE OF ERROR
 17870	054051	555 03 0 04 000000 		HLRZI	AC,(AC1)	;DO HLRZI.
 17871	054052	312 03 0 00 060660 		CAME	AC,[0]		;C(AC) SHOULD=0
 17872	054053	003 01 0 04 000000 		ERRI	RAN1,(AC1)
 17873						LOOP	HLRZI2,HLRZI3^
 17874	054054	367 02 0 00 054042 		SOJG	AC-1,HLRZI2		;ITERATION COUNTER
 17875	054055	200 03 0 00 061125 		MOVE	AC,RAN		;RESTORE RANDOM NUMBER
 17876	054056	321 02 0 00 054047 		JUMPL	AC-1,HLRZI3		;LOOP ON ERROR SWITCH ^
 17877

DSKBA DECSYSTEM 2020 BASIC INSTRUCTION RELIABILITY TEST (1), VER 0,1 	MACRO %53(1020) 12:59 29-Mar-78 Page 123
DSKBA3	MAC	29-Mar-78 12:27		DIAGNOSTIC SECTION THREE                                                           SEQ 0461

 17878
 17879
 17880					;TEST HLRZM.  CHECK C(E) FOR CORRECT DATA
 17881					;RAN TO RAN1
 17882
 17883
 17884			000003			AC=3
 17885	054057				HLRZM1:	SETUP	200,1^
 17886			000004			AC1=<AC+1>&17
 17887			000005			AC2=<AC+2>&17
 17888			000006			AC3=<AC+3>&17
 17889			000007			AC4=<AC+4>&17
 17890			000010			AC5=<AC+5>&17
 17891			000001			RAN1=<AC-2>&17
 17892	054057	201 02 0 00 054057 		MOVEI	AC-1,.
 17893	054060	202 02 0 00 030051 		MOVEM	AC-1,TESTPC	;SETUP SUBTEST PC
 17894	054061	201 02 0 00 000002 		MOVEI	AC-1,<AC-1>&17	;INFORM ERROR ROUTINE
 17895	054062	202 02 0 00 061117 		MOVEM	AC-1,ERRLOP#	;WHICH AC IS USED FOR ITERATION
 17896	054063	201 02 0 00 000200 		MOVEI	AC-1,200		;ROUTINE WEIGHTING
 17897	054064	240 02 1 00 030657 		ASH	AC-1,@CMPLXT+1	;ROUTINE COMPLEXITY
 17898	054065	240 02 1 00 030655 		ASH	AC-1,@RTIME	;RUN TIME CONTROLLER ^
 17899	054066				HLRZM2:	RANDOM^
 17900	054066	200 03 0 00 061125 		MOVE	AC,RAN#		;GENERATE  PSEUDO RANDOM NUMBER
 17901	054067	270 03 0 00 060657 		ADD	AC,[142536475076]
 17902	054070	241 03 0 00 777777 		ROT	AC,-1		;IN BOTH AC AND
 17903	054071	447 03 0 00 061125 		EQVB	AC,RAN		;REGISTER RAN ^
 17904	054072	200 05 0 00 061125 		MOVE	AC2,RAN		;SAVE RAN IN AN AC.
 17905	054073	241 03 0 00 000011 	HLRZM3:	ROT	AC,11		;C(E)=SECOND RAN. NUM
 17906	054074	200 01 0 00 000003 		MOVE	RAN1,AC		;SAVE C(E) IN CASE OF ERROR
 17907	054075	204 04 0 00 061125 		MOVS	AC1,RAN		;SIMULATE
 17908	054076	621 04 0 00 777777 		TLZ	AC1,-1		;A HLRZ INST
 17909	054077	556 05 0 00 000003 		HLRZM	AC2,AC		;DO A HLRZM.
 17910	054100	312 04 0 00 000003 		CAME	AC1,AC		;C(E) SHOULD=SIM ANS
 17911	054101	002 01 0 00 061125 		ERRM	RAN1,RAN
 17912						LOOP	HLRZM2,HLRZM3^
 17913	054102	367 02 0 00 054066 		SOJG	AC-1,HLRZM2		;ITERATION COUNTER
 17914	054103	200 03 0 00 061125 		MOVE	AC,RAN		;RESTORE RANDOM NUMBER
 17915	054104	321 02 0 00 054073 		JUMPL	AC-1,HLRZM3		;LOOP ON ERROR SWITCH ^
 17916

DSKBA DECSYSTEM 2020 BASIC INSTRUCTION RELIABILITY TEST (1), VER 0,1 	MACRO %53(1020) 12:59 29-Mar-78 Page 124
DSKBA3	MAC	29-Mar-78 12:27		DIAGNOSTIC SECTION THREE                                                           SEQ 0462

 17917
 17918
 17919					;TEST HLRZS. CHECK C(E) FOR CORRECT DATA AND
 17920					;PROPER STORING C(E) INTO AC FOR RAN TO RAN CONDITION
 17921
 17922
 17923			000004			AC=4
 17924	054105				HLRZS1:	SETUP	200,1^
 17925			000005			AC1=<AC+1>&17
 17926			000006			AC2=<AC+2>&17
 17927			000007			AC3=<AC+3>&17
 17928			000010			AC4=<AC+4>&17
 17929			000011			AC5=<AC+5>&17
 17930			000002			RAN1=<AC-2>&17
 17931	054105	201 03 0 00 054105 		MOVEI	AC-1,.
 17932	054106	202 03 0 00 030051 		MOVEM	AC-1,TESTPC	;SETUP SUBTEST PC
 17933	054107	201 03 0 00 000003 		MOVEI	AC-1,<AC-1>&17	;INFORM ERROR ROUTINE
 17934	054110	202 03 0 00 061117 		MOVEM	AC-1,ERRLOP#	;WHICH AC IS USED FOR ITERATION
 17935	054111	201 03 0 00 000200 		MOVEI	AC-1,200		;ROUTINE WEIGHTING
 17936	054112	240 03 1 00 030657 		ASH	AC-1,@CMPLXT+1	;ROUTINE COMPLEXITY
 17937	054113	240 03 1 00 030655 		ASH	AC-1,@RTIME	;RUN TIME CONTROLLER ^
 17938	054114				HLRZS2:	RANDOM^
 17939	054114	200 04 0 00 061125 		MOVE	AC,RAN#		;GENERATE  PSEUDO RANDOM NUMBER
 17940	054115	270 04 0 00 060657 		ADD	AC,[142536475076]
 17941	054116	241 04 0 00 777777 		ROT	AC,-1		;IN BOTH AC AND
 17942	054117	447 04 0 00 061125 		EQVB	AC,RAN		;REGISTER RAN ^
 17943	054120	477 05 0 00 000002 	HLRZS3:	SETOB	AC1,RAN1	;SET C(AC) TO = -1
 17944	054121	204 06 0 00 000004 		MOVS	AC2,AC		;SIMULATE
 17945	054122	621 06 0 00 777777 		TLZ	AC2,-1		;A HLRZ
 17946	054123	557 05 0 00 000004 		HLRZS	AC1,AC		;DO HLRZS
 17947	054124	312 05 0 00 000004 		CAME	AC1,AC		;C(AC) SHOULD=C(E) AFTER HLRZS
 17948	054125	012 00 0 00 000002 		EERRM	,RAN1
 17949	054126	312 06 0 00 000004 		CAME	AC2,AC		;C(E) SHOULD=SIM. ANS.
 17950	054127	012 00 0 00 000002 		EERRM	,RAN1
 17951						LOOP	HLRZS2,HLRZS3^
 17952	054130	367 03 0 00 054114 		SOJG	AC-1,HLRZS2		;ITERATION COUNTER
 17953	054131	200 04 0 00 061125 		MOVE	AC,RAN		;RESTORE RANDOM NUMBER
 17954	054132	321 03 0 00 054120 		JUMPL	AC-1,HLRZS3		;LOOP ON ERROR SWITCH ^
 17955

DSKBA DECSYSTEM 2020 BASIC INSTRUCTION RELIABILITY TEST (1), VER 0,1 	MACRO %53(1020) 12:59 29-Mar-78 Page 125
DSKBA3	MAC	29-Mar-78 12:27		DIAGNOSTIC SECTION THREE                                                           SEQ 0463

 17956
 17957
 17958					;TEST HLRO CHECK C(AC) FOR CORRECT DATA
 17959					;RAN TO RAN1
 17960
 17961
 17962			000005			AC=5
 17963	054133				HLRO1:	SETUP	200,1^
 17964			000006			AC1=<AC+1>&17
 17965			000007			AC2=<AC+2>&17
 17966			000010			AC3=<AC+3>&17
 17967			000011			AC4=<AC+4>&17
 17968			000012			AC5=<AC+5>&17
 17969			000003			RAN1=<AC-2>&17
 17970	054133	201 04 0 00 054133 		MOVEI	AC-1,.
 17971	054134	202 04 0 00 030051 		MOVEM	AC-1,TESTPC	;SETUP SUBTEST PC
 17972	054135	201 04 0 00 000004 		MOVEI	AC-1,<AC-1>&17	;INFORM ERROR ROUTINE
 17973	054136	202 04 0 00 061117 		MOVEM	AC-1,ERRLOP#	;WHICH AC IS USED FOR ITERATION
 17974	054137	201 04 0 00 000200 		MOVEI	AC-1,200		;ROUTINE WEIGHTING
 17975	054140	240 04 1 00 030657 		ASH	AC-1,@CMPLXT+1	;ROUTINE COMPLEXITY
 17976	054141	240 04 1 00 030655 		ASH	AC-1,@RTIME	;RUN TIME CONTROLLER ^
 17977	054142				HLRO2:	RANDOM^
 17978	054142	200 05 0 00 061125 		MOVE	AC,RAN#		;GENERATE  PSEUDO RANDOM NUMBER
 17979	054143	270 05 0 00 060657 		ADD	AC,[142536475076]
 17980	054144	241 05 0 00 777777 		ROT	AC,-1		;IN BOTH AC AND
 17981	054145	447 05 0 00 061125 		EQVB	AC,RAN		;REGISTER RAN ^
 17982	054146	241 05 0 00 000011 	HLRO3:	ROT	AC,11
 17983	054147	200 03 0 00 000005 		MOVE	RAN1,AC		;C(AC)=SECOND RAND. NUM
 17984	054150	204 06 0 00 061125 		MOVS	AC1,RAN		;SIMULAE
 17985	054151	661 06 0 00 777777 		TLO	AC1,-1		;A HLRO
 17986	054152	564 05 0 00 061125 		HLRO	AC,RAN		;DO HLRO
 17987	054153	312 05 0 00 000006 		CAME	AC,AC1		;C(AC) SHOULD=SIM. ANS
 17988	054154	011 00 0 00 000003 		EERR	,RAN1
 17989						LOOP	HLRO2,HLRO3^
 17990	054155	367 04 0 00 054142 		SOJG	AC-1,HLRO2		;ITERATION COUNTER
 17991	054156	200 05 0 00 061125 		MOVE	AC,RAN		;RESTORE RANDOM NUMBER
 17992	054157	321 04 0 00 054146 		JUMPL	AC-1,HLRO3		;LOOP ON ERROR SWITCH ^
 17993

DSKBA DECSYSTEM 2020 BASIC INSTRUCTION RELIABILITY TEST (1), VER 0,1 	MACRO %53(1020) 12:59 29-Mar-78 Page 126
DSKBA3	MAC	29-Mar-78 12:27		DIAGNOSTIC SECTION THREE                                                           SEQ 0464

 17994
 17995
 17996					;TEST HLROI.  CHECK C(AC) FOR CORRECT DATA
 17997					;RAN TO RAN1
 17998
 17999
 18000			000006			AC=6
 18001	054160				HLROI1:	SETUP	200,1^
 18002			000007			AC1=<AC+1>&17
 18003			000010			AC2=<AC+2>&17
 18004			000011			AC3=<AC+3>&17
 18005			000012			AC4=<AC+4>&17
 18006			000013			AC5=<AC+5>&17
 18007			000004			RAN1=<AC-2>&17
 18008	054160	201 05 0 00 054160 		MOVEI	AC-1,.
 18009	054161	202 05 0 00 030051 		MOVEM	AC-1,TESTPC	;SETUP SUBTEST PC
 18010	054162	201 05 0 00 000005 		MOVEI	AC-1,<AC-1>&17	;INFORM ERROR ROUTINE
 18011	054163	202 05 0 00 061117 		MOVEM	AC-1,ERRLOP#	;WHICH AC IS USED FOR ITERATION
 18012	054164	201 05 0 00 000200 		MOVEI	AC-1,200		;ROUTINE WEIGHTING
 18013	054165	240 05 1 00 030657 		ASH	AC-1,@CMPLXT+1	;ROUTINE COMPLEXITY
 18014	054166	240 05 1 00 030655 		ASH	AC-1,@RTIME	;RUN TIME CONTROLLER ^
 18015	054167				HLROI2:	RANDOM^
 18016	054167	200 06 0 00 061125 		MOVE	AC,RAN#		;GENERATE  PSEUDO RANDOM NUMBER
 18017	054170	270 06 0 00 060657 		ADD	AC,[142536475076]
 18018	054171	241 06 0 00 777777 		ROT	AC,-1		;IN BOTH AC AND
 18019	054172	447 06 0 00 061125 		EQVB	AC,RAN		;REGISTER RAN ^
 18020	054173	200 10 0 00 061125 		MOVE	AC2,RAN		;SAVE RAN IN AN AC.
 18021	054174	241 06 0 00 000011 	HLROI3:	ROT	AC,11		;C(AC)=SECOND RAN. NUM
 18022	054175	200 04 0 00 000006 		MOVE	RAN1,AC		;SAVE C(AC) IN CASE OF ERROR
 18023	054176	205 07 0 00 777777 		MOVSI	AC1,-1		;SIMULATE A HLROI
 18024	054177	565 06 0 10 000000 		HLROI	AC,(AC2)	;DO HLROI.
 18025	054200	312 06 0 00 000007 		CAME	AC,AC1		;C(AC) SHOULD=SIM. ANS
 18026	054201	003 04 0 10 000000 		ERRI	RAN1,(AC2)
 18027						LOOP	HLROI2,HLROI3^
 18028	054202	367 05 0 00 054167 		SOJG	AC-1,HLROI2		;ITERATION COUNTER
 18029	054203	200 06 0 00 061125 		MOVE	AC,RAN		;RESTORE RANDOM NUMBER
 18030	054204	321 05 0 00 054174 		JUMPL	AC-1,HLROI3		;LOOP ON ERROR SWITCH ^
 18031

DSKBA DECSYSTEM 2020 BASIC INSTRUCTION RELIABILITY TEST (1), VER 0,1 	MACRO %53(1020) 12:59 29-Mar-78 Page 127
DSKBA3	MAC	29-Mar-78 12:27		DIAGNOSTIC SECTION THREE                                                           SEQ 0465

 18032
 18033
 18034					;TEST HLROM CHECK C(E) FOR CORRECT DATA.
 18035					;RAN TO RAN1
 18036
 18037
 18038			000007			AC=7
 18039	054205				HLROM1:	SETUP	200,1^
 18040			000010			AC1=<AC+1>&17
 18041			000011			AC2=<AC+2>&17
 18042			000012			AC3=<AC+3>&17
 18043			000013			AC4=<AC+4>&17
 18044			000014			AC5=<AC+5>&17
 18045			000005			RAN1=<AC-2>&17
 18046	054205	201 06 0 00 054205 		MOVEI	AC-1,.
 18047	054206	202 06 0 00 030051 		MOVEM	AC-1,TESTPC	;SETUP SUBTEST PC
 18048	054207	201 06 0 00 000006 		MOVEI	AC-1,<AC-1>&17	;INFORM ERROR ROUTINE
 18049	054210	202 06 0 00 061117 		MOVEM	AC-1,ERRLOP#	;WHICH AC IS USED FOR ITERATION
 18050	054211	201 06 0 00 000200 		MOVEI	AC-1,200		;ROUTINE WEIGHTING
 18051	054212	240 06 1 00 030657 		ASH	AC-1,@CMPLXT+1	;ROUTINE COMPLEXITY
 18052	054213	240 06 1 00 030655 		ASH	AC-1,@RTIME	;RUN TIME CONTROLLER ^
 18053	054214				HLROM2:	RANDOM^
 18054	054214	200 07 0 00 061125 		MOVE	AC,RAN#		;GENERATE  PSEUDO RANDOM NUMBER
 18055	054215	270 07 0 00 060657 		ADD	AC,[142536475076]
 18056	054216	241 07 0 00 777777 		ROT	AC,-1		;IN BOTH AC AND
 18057	054217	447 07 0 00 061125 		EQVB	AC,RAN		;REGISTER RAN ^
 18058	054220	200 11 0 00 061125 		MOVE	AC2,RAN		;SAVE RAN IN AN AC.
 18059	054221	241 07 0 00 000011 	HLROM3:	ROT	AC,11		;C(E)=SECOND RAN. NUM
 18060	054222	200 05 0 00 000007 		MOVE	RAN1,AC		;SAVE C(E) IN CASE OF ERROR
 18061	054223	204 10 0 00 061125 		MOVS	AC1,RAN		;SIMULATE
 18062	054224	661 10 0 00 777777 		TLO	AC1,-1		;A HLRO
 18063	054225	566 11 0 00 000007 		HLROM	AC2,AC		;DO HLROM.
 18064	054226	312 10 0 00 000007 		CAME	AC1,AC		;C(E) SHOULD=SIM. ANS
 18065	054227	002 05 0 00 061125 		ERRM	RAN1,RAN
 18066						LOOP	HLROM2,HLROM3^
 18067	054230	367 06 0 00 054214 		SOJG	AC-1,HLROM2		;ITERATION COUNTER
 18068	054231	200 07 0 00 061125 		MOVE	AC,RAN		;RESTORE RANDOM NUMBER
 18069	054232	321 06 0 00 054221 		JUMPL	AC-1,HLROM3		;LOOP ON ERROR SWITCH ^
 18070

DSKBA DECSYSTEM 2020 BASIC INSTRUCTION RELIABILITY TEST (1), VER 0,1 	MACRO %53(1020) 12:59 29-Mar-78 Page 128
DSKBA3	MAC	29-Mar-78 12:27		DIAGNOSTIC SECTION THREE                                                           SEQ 0466

 18071
 18072
 18073					;TEST HLROS.  CHECK C(E) FOR CORRECT DATA AND
 18074					;PROPER STORING OF C(E) INTO AC FOR RAN TO RAN CONDITION
 18075
 18076
 18077			000010			AC=10
 18078	054233				HLROS1:	SETUP	200,1^
 18079			000011			AC1=<AC+1>&17
 18080			000012			AC2=<AC+2>&17
 18081			000013			AC3=<AC+3>&17
 18082			000014			AC4=<AC+4>&17
 18083			000015			AC5=<AC+5>&17
 18084			000006			RAN1=<AC-2>&17
 18085	054233	201 07 0 00 054233 		MOVEI	AC-1,.
 18086	054234	202 07 0 00 030051 		MOVEM	AC-1,TESTPC	;SETUP SUBTEST PC
 18087	054235	201 07 0 00 000007 		MOVEI	AC-1,<AC-1>&17	;INFORM ERROR ROUTINE
 18088	054236	202 07 0 00 061117 		MOVEM	AC-1,ERRLOP#	;WHICH AC IS USED FOR ITERATION
 18089	054237	201 07 0 00 000200 		MOVEI	AC-1,200		;ROUTINE WEIGHTING
 18090	054240	240 07 1 00 030657 		ASH	AC-1,@CMPLXT+1	;ROUTINE COMPLEXITY
 18091	054241	240 07 1 00 030655 		ASH	AC-1,@RTIME	;RUN TIME CONTROLLER ^
 18092	054242				HLROS2:	RANDOM^
 18093	054242	200 10 0 00 061125 		MOVE	AC,RAN#		;GENERATE  PSEUDO RANDOM NUMBER
 18094	054243	270 10 0 00 060657 		ADD	AC,[142536475076]
 18095	054244	241 10 0 00 777777 		ROT	AC,-1		;IN BOTH AC AND
 18096	054245	447 10 0 00 061125 		EQVB	AC,RAN		;REGISTER RAN ^
 18097	054246	477 11 0 00 000006 	HLROS3:	SETOB	AC1,RAN1	;SET C(AC) TO ALL ONES
 18098	054247	204 12 0 00 000010 		MOVS	AC2,AC		;SIMULATE
 18099	054250	661 12 0 00 777777 		TLO	AC2,-1		;A HLRO
 18100	054251	567 11 0 00 000010 		HLROS	AC1,AC		;DO HLROS
 18101	054252	312 11 0 00 000010 		CAME	AC1,AC		;C(AC) SHOULD=C(E) AFTER HLROS.
 18102	054253	012 00 0 00 000006 		EERRM	,RAN1
 18103	054254	312 12 0 00 000010 		CAME	AC2,AC		;C(E) SHOULD=SIM. ANS
 18104	054255	012 00 0 00 000006 		EERRM	,RAN1
 18105						LOOP	HLROS2,HLROS3^
 18106	054256	367 07 0 00 054242 		SOJG	AC-1,HLROS2		;ITERATION COUNTER
 18107	054257	200 10 0 00 061125 		MOVE	AC,RAN		;RESTORE RANDOM NUMBER
 18108	054260	321 07 0 00 054246 		JUMPL	AC-1,HLROS3		;LOOP ON ERROR SWITCH ^
 18109

DSKBA DECSYSTEM 2020 BASIC INSTRUCTION RELIABILITY TEST (1), VER 0,1 	MACRO %53(1020) 12:59 29-Mar-78 Page 129
DSKBA3	MAC	29-Mar-78 12:27		DIAGNOSTIC SECTION THREE                                                           SEQ 0467

 18110
 18111
 18112					;TEST HRLE  CHECK C(AC) FOR CORRECT DATA
 18113					;RAN TO RAN1.
 18114
 18115
 18116			000011			AC=11
 18117	054261				HRLE1:	SETUP	200,4^
 18118			000012			AC1=<AC+1>&17
 18119			000013			AC2=<AC+2>&17
 18120			000014			AC3=<AC+3>&17
 18121			000015			AC4=<AC+4>&17
 18122			000016			AC5=<AC+5>&17
 18123			000007			RAN1=<AC-2>&17
 18124	054261	201 10 0 00 054261 		MOVEI	AC-1,.
 18125	054262	202 10 0 00 030051 		MOVEM	AC-1,TESTPC	;SETUP SUBTEST PC
 18126	054263	201 10 0 00 000010 		MOVEI	AC-1,<AC-1>&17	;INFORM ERROR ROUTINE
 18127	054264	202 10 0 00 061117 		MOVEM	AC-1,ERRLOP#	;WHICH AC IS USED FOR ITERATION
 18128	054265	201 10 0 00 000200 		MOVEI	AC-1,200		;ROUTINE WEIGHTING
 18129	054266	240 10 1 00 030662 		ASH	AC-1,@CMPLXT+4	;ROUTINE COMPLEXITY
 18130	054267	240 10 1 00 030655 		ASH	AC-1,@RTIME	;RUN TIME CONTROLLER ^
 18131	054270				HRLE2:	RANDOM^
 18132	054270	200 11 0 00 061125 		MOVE	AC,RAN#		;GENERATE  PSEUDO RANDOM NUMBER
 18133	054271	270 11 0 00 060657 		ADD	AC,[142536475076]
 18134	054272	241 11 0 00 777777 		ROT	AC,-1		;IN BOTH AC AND
 18135	054273	447 11 0 00 061125 		EQVB	AC,RAN		;REGISTER RAN ^
 18136	054274	200 13 0 00 061125 		MOVE	AC2,RAN		;SAVE RAN IN AN AC.
 18137	054275	241 11 0 00 000011 	HRLE3:	ROT	AC,11		;C(AC)=SECOND RAN. NUM
 18138	054276	200 07 0 00 000011 		MOVE	RAN1,AC		;SAVE C(AC) IN CASE OF ERROR
 18139	054277	204 12 0 00 061125 		MOVS	AC1,RAN		;SIULATE
 18140	054300	620 12 0 00 777777 		TRZ	AC1,-1		;A
 18141	054301	602 13 0 00 400000 		TRNE	AC2,400000	;HRLE
 18142	054302	660 12 0 00 777777 		TRO	AC1,-1		;INST
 18143	054303	534 11 0 00 061125 		HRLE	AC,RAN		;NO HRLE
 18144	054304	312 11 0 00 000012 		CAME	AC,AC1		;C(AC) SHOULD=SIM. ANS
 18145	054305	001 13 0 00 000007 		ERR	AC2,RAN1
 18146						LOOP	HRLE2,HRLE3^
 18147	054306	367 10 0 00 054270 		SOJG	AC-1,HRLE2		;ITERATION COUNTER
 18148	054307	200 11 0 00 061125 		MOVE	AC,RAN		;RESTORE RANDOM NUMBER
 18149	054310	321 10 0 00 054275 		JUMPL	AC-1,HRLE3		;LOOP ON ERROR SWITCH ^
 18150

DSKBA DECSYSTEM 2020 BASIC INSTRUCTION RELIABILITY TEST (1), VER 0,1 	MACRO %53(1020) 12:59 29-Mar-78 Page 130
DSKBA3	MAC	29-Mar-78 12:27		DIAGNOSTIC SECTION THREE                                                           SEQ 0468

 18151
 18152
 18153					;TEST HRLEI.  CHECK C(AC) FOR CORRECT DATA
 18154					;RAN TO RAN1
 18155
 18156
 18157			000004			AC=4
 18158	054311				HRLEI1:	SETUP	200,4^
 18159			000005			AC1=<AC+1>&17
 18160			000006			AC2=<AC+2>&17
 18161			000007			AC3=<AC+3>&17
 18162			000010			AC4=<AC+4>&17
 18163			000011			AC5=<AC+5>&17
 18164			000002			RAN1=<AC-2>&17
 18165	054311	201 03 0 00 054311 		MOVEI	AC-1,.
 18166	054312	202 03 0 00 030051 		MOVEM	AC-1,TESTPC	;SETUP SUBTEST PC
 18167	054313	201 03 0 00 000003 		MOVEI	AC-1,<AC-1>&17	;INFORM ERROR ROUTINE
 18168	054314	202 03 0 00 061117 		MOVEM	AC-1,ERRLOP#	;WHICH AC IS USED FOR ITERATION
 18169	054315	201 03 0 00 000200 		MOVEI	AC-1,200		;ROUTINE WEIGHTING
 18170	054316	240 03 1 00 030662 		ASH	AC-1,@CMPLXT+4	;ROUTINE COMPLEXITY
 18171	054317	240 03 1 00 030655 		ASH	AC-1,@RTIME	;RUN TIME CONTROLLER ^
 18172	054320				HRLEI2:	RANDOM^
 18173	054320	200 04 0 00 061125 		MOVE	AC,RAN#		;GENERATE  PSEUDO RANDOM NUMBER
 18174	054321	270 04 0 00 060657 		ADD	AC,[142536475076]
 18175	054322	241 04 0 00 777777 		ROT	AC,-1		;IN BOTH AC AND
 18176	054323	447 04 0 00 061125 		EQVB	AC,RAN		;REGISTER RAN ^
 18177	054324	200 06 0 00 061125 		MOVE	AC2,RAN		;SAVE RAN IN AN AC.
 18178	054325	241 04 0 00 000011 	HRLEI3:	ROT	AC,11		;C(AC)=SECOND RAN NUM
 18179	054326	200 02 0 00 000004 		MOVE	RAN1,AC		;SAVE C(AC) IN CASE OF ERROR
 18180	054327	204 05 0 00 061125 		MOVS	AC1,RAN		;SIMULATE
 18181	054330	620 05 0 00 777777 		TRZ	AC1,-1		;A
 18182	054331	602 06 0 00 400000 		TRNE	AC2,400000	;HRLE
 18183	054332	660 05 0 00 777777 		TRO	AC1,-1		;INST
 18184	054333	535 04 0 06 000000 		HRLEI	AC,(AC2)	;DO HRLEI.
 18185	054334	312 04 0 00 000005 		CAME	AC,AC1		;C(AC) SHOULD=SIM. ANS
 18186	054335	003 02 0 06 000000 		ERRI	RAN1,(AC2)
 18187						LOOP	HRLEI2,HRLEI3^
 18188	054336	367 03 0 00 054320 		SOJG	AC-1,HRLEI2		;ITERATION COUNTER
 18189	054337	200 04 0 00 061125 		MOVE	AC,RAN		;RESTORE RANDOM NUMBER
 18190	054340	321 03 0 00 054325 		JUMPL	AC-1,HRLEI3		;LOOP ON ERROR SWITCH ^
 18191

DSKBA DECSYSTEM 2020 BASIC INSTRUCTION RELIABILITY TEST (1), VER 0,1 	MACRO %53(1020) 12:59 29-Mar-78 Page 131
DSKBA3	MAC	29-Mar-78 12:27		DIAGNOSTIC SECTION THREE                                                           SEQ 0469

 18192
 18193
 18194					;TEST HRLEM.  CHECK C(E) FOR CORRECT DATA
 18195					;RAN TO RAN1
 18196
 18197
 18198			000005			AC=5
 18199	054341				HRLEM1:	SETUP	200,4^
 18200			000006			AC1=<AC+1>&17
 18201			000007			AC2=<AC+2>&17
 18202			000010			AC3=<AC+3>&17
 18203			000011			AC4=<AC+4>&17
 18204			000012			AC5=<AC+5>&17
 18205			000003			RAN1=<AC-2>&17
 18206	054341	201 04 0 00 054341 		MOVEI	AC-1,.
 18207	054342	202 04 0 00 030051 		MOVEM	AC-1,TESTPC	;SETUP SUBTEST PC
 18208	054343	201 04 0 00 000004 		MOVEI	AC-1,<AC-1>&17	;INFORM ERROR ROUTINE
 18209	054344	202 04 0 00 061117 		MOVEM	AC-1,ERRLOP#	;WHICH AC IS USED FOR ITERATION
 18210	054345	201 04 0 00 000200 		MOVEI	AC-1,200		;ROUTINE WEIGHTING
 18211	054346	240 04 1 00 030662 		ASH	AC-1,@CMPLXT+4	;ROUTINE COMPLEXITY
 18212	054347	240 04 1 00 030655 		ASH	AC-1,@RTIME	;RUN TIME CONTROLLER ^
 18213	054350				HRLEM2:	RANDOM^
 18214	054350	200 05 0 00 061125 		MOVE	AC,RAN#		;GENERATE  PSEUDO RANDOM NUMBER
 18215	054351	270 05 0 00 060657 		ADD	AC,[142536475076]
 18216	054352	241 05 0 00 777777 		ROT	AC,-1		;IN BOTH AC AND
 18217	054353	447 05 0 00 061125 		EQVB	AC,RAN		;REGISTER RAN ^
 18218	054354	200 07 0 00 061125 		MOVE	AC2,RAN		;SAVE RAN IN AN AC.
 18219	054355	241 05 0 00 000011 	HRLEM3:	ROT	AC,11		;C(E)=SECOND RAN. NUM
 18220	054356	200 03 0 00 000005 		MOVE	RAN1,AC		;SAVE C(E) IN CASE OF ERROR
 18221	054357	204 06 0 00 061125 		MOVS	AC1,RAN		;SIMULATE
 18222	054360	620 06 0 00 777777 		TRZ	AC1,-1		;A
 18223	054361	602 07 0 00 400000 		TRNE	AC2,400000	;HRLE
 18224	054362	660 06 0 00 777777 		TRO	AC1,-1		;INST
 18225	054363	536 07 0 00 000005 		HRLEM	AC2,AC		;DO HRLEM.
 18226	054364	312 06 0 00 000005 		CAME	AC1,AC		;C(AC) SHOULD=SIM. ANS
 18227	054365	002 03 0 00 061125 		ERRM	RAN1,RAN
 18228						LOOP	HRLEM2,HRLEM3^
 18229	054366	367 04 0 00 054350 		SOJG	AC-1,HRLEM2		;ITERATION COUNTER
 18230	054367	200 05 0 00 061125 		MOVE	AC,RAN		;RESTORE RANDOM NUMBER
 18231	054370	321 04 0 00 054355 		JUMPL	AC-1,HRLEM3		;LOOP ON ERROR SWITCH ^
 18232

DSKBA DECSYSTEM 2020 BASIC INSTRUCTION RELIABILITY TEST (1), VER 0,1 	MACRO %53(1020) 12:59 29-Mar-78 Page 132
DSKBA3	MAC	29-Mar-78 12:27		DIAGNOSTIC SECTION THREE                                                           SEQ 0470

 18233
 18234
 18235					;TEST HRLES.  CHECK C(E) FOR CORRECT DATA AND
 18236					;PROPER STORING OF C(E) INTO AC FOR RAN TO RAN CONDITION
 18237
 18238
 18239			000006			AC=6
 18240	054371				HRLES1:	SETUP	200,4^
 18241			000007			AC1=<AC+1>&17
 18242			000010			AC2=<AC+2>&17
 18243			000011			AC3=<AC+3>&17
 18244			000012			AC4=<AC+4>&17
 18245			000013			AC5=<AC+5>&17
 18246			000004			RAN1=<AC-2>&17
 18247	054371	201 05 0 00 054371 		MOVEI	AC-1,.
 18248	054372	202 05 0 00 030051 		MOVEM	AC-1,TESTPC	;SETUP SUBTEST PC
 18249	054373	201 05 0 00 000005 		MOVEI	AC-1,<AC-1>&17	;INFORM ERROR ROUTINE
 18250	054374	202 05 0 00 061117 		MOVEM	AC-1,ERRLOP#	;WHICH AC IS USED FOR ITERATION
 18251	054375	201 05 0 00 000200 		MOVEI	AC-1,200		;ROUTINE WEIGHTING
 18252	054376	240 05 1 00 030662 		ASH	AC-1,@CMPLXT+4	;ROUTINE COMPLEXITY
 18253	054377	240 05 1 00 030655 		ASH	AC-1,@RTIME	;RUN TIME CONTROLLER ^
 18254	054400				HRLES2:	RANDOM^
 18255	054400	200 06 0 00 061125 		MOVE	AC,RAN#		;GENERATE  PSEUDO RANDOM NUMBER
 18256	054401	270 06 0 00 060657 		ADD	AC,[142536475076]
 18257	054402	241 06 0 00 777777 		ROT	AC,-1		;IN BOTH AC AND
 18258	054403	447 06 0 00 061125 		EQVB	AC,RAN		;REGISTER RAN ^
 18259	054404	477 07 0 00 000004 	HRLES3:	SETOB	AC1,RAN1	;SET C(AC) TO ALL ONES.
 18260	054405	204 10 0 00 000006 		MOVS	AC2,AC		;SIMULATE
 18261	054406	620 10 0 00 777777 		TRZ	AC2,-1		;A
 18262	054407	602 06 0 00 400000 		TRNE	AC,400000	;HRLE
 18263	054410	660 10 0 00 777777 		TRO	AC2,-1		;INST
 18264	054411	537 07 0 00 000006 		HRLES	AC1,AC		;DO HRLES
 18265	054412	312 07 0 00 000006 		CAME	AC1,AC		;C(AC) HOULD=C(E) AFTER HRLES.
 18266	054413	012 00 0 00 000004 		EERRM	,RAN1
 18267	054414	312 10 0 00 000006 		CAME	AC2,AC		;C(E) SHOULD=SIM. ANS
 18268	054415	012 00 0 00 000004 		EERRM	,RAN1
 18269						LOOP	HRLES2,HRLES3^
 18270	054416	367 05 0 00 054400 		SOJG	AC-1,HRLES2		;ITERATION COUNTER
 18271	054417	200 06 0 00 061125 		MOVE	AC,RAN		;RESTORE RANDOM NUMBER
 18272	054420	321 05 0 00 054404 		JUMPL	AC-1,HRLES3		;LOOP ON ERROR SWITCH ^
 18273

DSKBA DECSYSTEM 2020 BASIC INSTRUCTION RELIABILITY TEST (1), VER 0,1 	MACRO %53(1020) 12:59 29-Mar-78 Page 133
DSKBA3	MAC	29-Mar-78 12:27		DIAGNOSTIC SECTION THREE                                                           SEQ 0471

 18274
 18275
 18276					;TEST HLRE CHECK C(AC) FOR CORRECT DATA
 18277					;RAN TO RAN1
 18278
 18279
 18280			000007			AC=7
 18281	054421				HLRE1:	SETUP	200,4^
 18282			000010			AC1=<AC+1>&17
 18283			000011			AC2=<AC+2>&17
 18284			000012			AC3=<AC+3>&17
 18285			000013			AC4=<AC+4>&17
 18286			000014			AC5=<AC+5>&17
 18287			000005			RAN1=<AC-2>&17
 18288	054421	201 06 0 00 054421 		MOVEI	AC-1,.
 18289	054422	202 06 0 00 030051 		MOVEM	AC-1,TESTPC	;SETUP SUBTEST PC
 18290	054423	201 06 0 00 000006 		MOVEI	AC-1,<AC-1>&17	;INFORM ERROR ROUTINE
 18291	054424	202 06 0 00 061117 		MOVEM	AC-1,ERRLOP#	;WHICH AC IS USED FOR ITERATION
 18292	054425	201 06 0 00 000200 		MOVEI	AC-1,200		;ROUTINE WEIGHTING
 18293	054426	240 06 1 00 030662 		ASH	AC-1,@CMPLXT+4	;ROUTINE COMPLEXITY
 18294	054427	240 06 1 00 030655 		ASH	AC-1,@RTIME	;RUN TIME CONTROLLER ^
 18295	054430				HLRE2:	RANDOM^
 18296	054430	200 07 0 00 061125 		MOVE	AC,RAN#		;GENERATE  PSEUDO RANDOM NUMBER
 18297	054431	270 07 0 00 060657 		ADD	AC,[142536475076]
 18298	054432	241 07 0 00 777777 		ROT	AC,-1		;IN BOTH AC AND
 18299	054433	447 07 0 00 061125 		EQVB	AC,RAN		;REGISTER RAN ^
 18300	054434	200 11 0 00 061125 		MOVE	AC2,RAN		;SAVE RAN IN AN AC.
 18301	054435	241 07 0 00 000011 	HLRE3:	ROT	AC,11		;C(AC)=SECOND RAN. NUM
 18302	054436	200 05 0 00 000007 		MOVE	RAN1,AC		;SAVE C(AC) IN CASE OF ERROR
 18303	054437	204 10 0 00 061125 		MOVS	AC1,RAN		;SIMULATE
 18304	054440	621 10 0 00 777777 		TLZ	AC1,-1		;A
 18305	054441	603 11 0 00 400000 		TLNE	AC2,400000	;HLRE
 18306	054442	661 10 0 00 777777 		TLO	AC1,-1		;INST
 18307	054443	574 07 0 00 061125 		HLRE	AC,RAN		;DO HLRE
 18308	054444	312 07 0 00 000010 		CAME	AC,AC1		;C(AC) SHOULD=SIM. ANS
 18309	054445	001 11 0 00 000005 		ERR	AC2,RAN1
 18310						LOOP	HLRE2,HLRE3^
 18311	054446	367 06 0 00 054430 		SOJG	AC-1,HLRE2		;ITERATION COUNTER
 18312	054447	200 07 0 00 061125 		MOVE	AC,RAN		;RESTORE RANDOM NUMBER
 18313	054450	321 06 0 00 054435 		JUMPL	AC-1,HLRE3		;LOOP ON ERROR SWITCH ^
 18314

DSKBA DECSYSTEM 2020 BASIC INSTRUCTION RELIABILITY TEST (1), VER 0,1 	MACRO %53(1020) 12:59 29-Mar-78 Page 134
DSKBA3	MAC	29-Mar-78 12:27		DIAGNOSTIC SECTION THREE                                                           SEQ 0472

 18315
 18316
 18317					;TEST HLREI.  CHECK C(AC) FOR 0
 18318					;RAN TO RAN1
 18319
 18320
 18321			000010			AC=10
 18322	054451				HLREI1:	SETUP	200,4^
 18323			000011			AC1=<AC+1>&17
 18324			000012			AC2=<AC+2>&17
 18325			000013			AC3=<AC+3>&17
 18326			000014			AC4=<AC+4>&17
 18327			000015			AC5=<AC+5>&17
 18328			000006			RAN1=<AC-2>&17
 18329	054451	201 07 0 00 054451 		MOVEI	AC-1,.
 18330	054452	202 07 0 00 030051 		MOVEM	AC-1,TESTPC	;SETUP SUBTEST PC
 18331	054453	201 07 0 00 000007 		MOVEI	AC-1,<AC-1>&17	;INFORM ERROR ROUTINE
 18332	054454	202 07 0 00 061117 		MOVEM	AC-1,ERRLOP#	;WHICH AC IS USED FOR ITERATION
 18333	054455	201 07 0 00 000200 		MOVEI	AC-1,200		;ROUTINE WEIGHTING
 18334	054456	240 07 1 00 030662 		ASH	AC-1,@CMPLXT+4	;ROUTINE COMPLEXITY
 18335	054457	240 07 1 00 030655 		ASH	AC-1,@RTIME	;RUN TIME CONTROLLER ^
 18336	054460				HLREI2:	RANDOM^
 18337	054460	200 10 0 00 061125 		MOVE	AC,RAN#		;GENERATE  PSEUDO RANDOM NUMBER
 18338	054461	270 10 0 00 060657 		ADD	AC,[142536475076]
 18339	054462	241 10 0 00 777777 		ROT	AC,-1		;IN BOTH AC AND
 18340	054463	447 10 0 00 061125 		EQVB	AC,RAN		;REGISTER RAN ^
 18341	054464	200 11 0 00 061125 		MOVE	AC1,RAN		;SAVE RAN IN AN AC.
 18342	054465	241 10 0 00 000001 	HLREI3:	ROT	AC,1		;C(AC)=SECOND RAN. NUM
 18343	054466	200 06 0 00 000010 		MOVE	RAN1,AC		;SAVE C(AC) IN CASE OF ERROR
 18344	054467	575 10 0 11 000000 		HLREI	AC,(AC1)	;DO HLREI INST.
 18345	054470	312 10 0 00 060660 		CAME	AC,[0]		;C(AC) SHOULD = 0.
 18346	054471	003 06 0 11 000000 		ERRI	RAN1,(AC1)
 18347						LOOP	HLREI2,HLREI3^
 18348	054472	367 07 0 00 054460 		SOJG	AC-1,HLREI2		;ITERATION COUNTER
 18349	054473	200 10 0 00 061125 		MOVE	AC,RAN		;RESTORE RANDOM NUMBER
 18350	054474	321 07 0 00 054465 		JUMPL	AC-1,HLREI3		;LOOP ON ERROR SWITCH ^
 18351

DSKBA DECSYSTEM 2020 BASIC INSTRUCTION RELIABILITY TEST (1), VER 0,1 	MACRO %53(1020) 12:59 29-Mar-78 Page 135
DSKBA3	MAC	29-Mar-78 12:27		DIAGNOSTIC SECTION THREE                                                           SEQ 0473

 18352
 18353
 18354					;TEST HLREM.  CHECK C(E) FOR CORRECT DATA
 18355					;RAN TO RAN1
 18356
 18357
 18358			000010			AC=10
 18359	054475				HLREM1:	SETUP	200,4^
 18360			000011			AC1=<AC+1>&17
 18361			000012			AC2=<AC+2>&17
 18362			000013			AC3=<AC+3>&17
 18363			000014			AC4=<AC+4>&17
 18364			000015			AC5=<AC+5>&17
 18365			000006			RAN1=<AC-2>&17
 18366	054475	201 07 0 00 054475 		MOVEI	AC-1,.
 18367	054476	202 07 0 00 030051 		MOVEM	AC-1,TESTPC	;SETUP SUBTEST PC
 18368	054477	201 07 0 00 000007 		MOVEI	AC-1,<AC-1>&17	;INFORM ERROR ROUTINE
 18369	054500	202 07 0 00 061117 		MOVEM	AC-1,ERRLOP#	;WHICH AC IS USED FOR ITERATION
 18370	054501	201 07 0 00 000200 		MOVEI	AC-1,200		;ROUTINE WEIGHTING
 18371	054502	240 07 1 00 030662 		ASH	AC-1,@CMPLXT+4	;ROUTINE COMPLEXITY
 18372	054503	240 07 1 00 030655 		ASH	AC-1,@RTIME	;RUN TIME CONTROLLER ^
 18373	054504				HLREM2:	RANDOM^
 18374	054504	200 10 0 00 061125 		MOVE	AC,RAN#		;GENERATE  PSEUDO RANDOM NUMBER
 18375	054505	270 10 0 00 060657 		ADD	AC,[142536475076]
 18376	054506	241 10 0 00 777777 		ROT	AC,-1		;IN BOTH AC AND
 18377	054507	447 10 0 00 061125 		EQVB	AC,RAN		;REGISTER RAN ^
 18378	054510	200 12 0 00 061125 		MOVE	AC2,RAN		;SAVE RAN IN AN AC.
 18379	054511	241 10 0 00 000011 	HLREM3:	ROT	AC,11		;C(E)=SECOND RAN. NUM
 18380	054512	200 06 0 00 000010 		MOVE	RAN1,AC		;SAVE C(E) IN CASE OF ERROR
 18381	054513	204 11 0 00 061125 		MOVS	AC1,RAN		;SIMULATE
 18382	054514	621 11 0 00 777777 		TLZ	AC1,-1		;A
 18383	054515	603 12 0 00 400000 		TLNE	AC2,400000	;HLRE
 18384	054516	661 11 0 00 777777 		TLO	AC1,-1		;INST
 18385	054517	576 12 0 00 000010 		HLREM	AC2,AC		;DO HLREM.
 18386	054520	312 11 0 00 000010 		CAME	AC1,AC		;C(E) SHOULD=SIM. ANS
 18387	054521	002 06 0 00 061125 		ERRM	RAN1,RAN
 18388						LOOP	HLREM2,HLREM3^
 18389	054522	367 07 0 00 054504 		SOJG	AC-1,HLREM2		;ITERATION COUNTER
 18390	054523	200 10 0 00 061125 		MOVE	AC,RAN		;RESTORE RANDOM NUMBER
 18391	054524	321 07 0 00 054511 		JUMPL	AC-1,HLREM3		;LOOP ON ERROR SWITCH ^
 18392

DSKBA DECSYSTEM 2020 BASIC INSTRUCTION RELIABILITY TEST (1), VER 0,1 	MACRO %53(1020) 12:59 29-Mar-78 Page 136
DSKBA3	MAC	29-Mar-78 12:27		DIAGNOSTIC SECTION THREE                                                           SEQ 0474

 18393
 18394
 18395					;TEST HLRES.  CHECK C(E) FOR CORRECT DATA AND
 18396					;PROPER STORING OF C(E) INTO AC FOR RAN TO RAN CONDITION
 18397
 18398
 18399			000002			AC=2
 18400	054525				HLRES1:	SETUP	200,4^
 18401			000003			AC1=<AC+1>&17
 18402			000004			AC2=<AC+2>&17
 18403			000005			AC3=<AC+3>&17
 18404			000006			AC4=<AC+4>&17
 18405			000007			AC5=<AC+5>&17
 18406			000000			RAN1=<AC-2>&17
 18407	054525	201 01 0 00 054525 		MOVEI	AC-1,.
 18408	054526	202 01 0 00 030051 		MOVEM	AC-1,TESTPC	;SETUP SUBTEST PC
 18409	054527	201 01 0 00 000001 		MOVEI	AC-1,<AC-1>&17	;INFORM ERROR ROUTINE
 18410	054530	202 01 0 00 061117 		MOVEM	AC-1,ERRLOP#	;WHICH AC IS USED FOR ITERATION
 18411	054531	201 01 0 00 000200 		MOVEI	AC-1,200		;ROUTINE WEIGHTING
 18412	054532	240 01 1 00 030662 		ASH	AC-1,@CMPLXT+4	;ROUTINE COMPLEXITY
 18413	054533	240 01 1 00 030655 		ASH	AC-1,@RTIME	;RUN TIME CONTROLLER ^
 18414	054534				HLRES2:	RANDOM^
 18415	054534	200 02 0 00 061125 		MOVE	AC,RAN#		;GENERATE  PSEUDO RANDOM NUMBER
 18416	054535	270 02 0 00 060657 		ADD	AC,[142536475076]
 18417	054536	241 02 0 00 777777 		ROT	AC,-1		;IN BOTH AC AND
 18418	054537	447 02 0 00 061125 		EQVB	AC,RAN		;REGISTER RAN ^
 18419	054540	477 03 0 00 000000 	HLRES3:	SETOB	AC1,RAN1	;SET C(E) TO ALL ONES
 18420	054541	204 04 0 00 000002 		MOVS	AC2,AC		;SIMULATE
 18421	054542	621 04 0 00 777777 		TLZ	AC2,-1		;A
 18422	054543	603 02 0 00 400000 		TLNE	AC,400000	;HLRE
 18423	054544	661 04 0 00 777777 		TLO	AC2,-1		;INST
 18424	054545	577 03 0 00 000002 		HLRES	AC1,AC		;DO HLRES
 18425	054546	312 03 0 00 000002 		CAME	AC1,AC		;C(AC) SHOULD=C(E) AFTER HLRES
 18426	054547	012 00 0 00 000000 		EERRM	,RAN1
 18427	054550	312 04 0 00 000002 		CAME	AC2,AC		;C(E) SHOULD=SIM ANS
 18428	054551	012 00 0 00 000000 		EERRM	,RAN1
 18429						LOOP	HLRES2,HLRES3^
 18430	054552	367 01 0 00 054534 		SOJG	AC-1,HLRES2		;ITERATION COUNTER
 18431	054553	200 02 0 00 061125 		MOVE	AC,RAN		;RESTORE RANDOM NUMBER
 18432	054554	321 01 0 00 054540 		JUMPL	AC-1,HLRES3		;LOOP ON ERROR SWITCH ^
 18433

DSKBA DECSYSTEM 2020 BASIC INSTRUCTION RELIABILITY TEST (1), VER 0,1 	MACRO %53(1020) 12:59 29-Mar-78 Page 137
DSKBA3	MAC	29-Mar-78 12:27		DIAGNOSTIC SECTION THREE                                                           SEQ 0475

 18434
 18435
 18436					DEFINE ADSBSM <
 18437						MOVE	AC1,AC		;PUT SEC. NUM. INTO AC1.
 18438						MOVE	AC3,AC1		;PUT SEC. NUM. INTO AC3 AND
 18439						AND	AC3,AC2		;"AND" IT WITH 1ST NUM..PRODUCE CRY BIT.
 18440						XOR	AC1,AC2		;PRODUCE SAME 1'S + 0'S AN ADD WOULD
 18441									;PRODUCE, WITHOUT CARRY BITS.
 18442						LSH	AC3,1		;SHIFT CRY BIT(S) TO LINE UP WITH NEXT BIT(S).
 18443						MOVE	AC4,AC1		;SAVE FOR FUTURE "AND".
 18444						TDCN	AC1,AC3		;A 0,1 CONDITION (NO FURTHUR CARRY)
 18445						JRST	.+3		;WILL LEAVE WITH ANY CRY BIT(S) SET,
 18446						AND	AC3,AC4		;OTHERWISE IT WILL COMP. THE CRY BIT(S) AND
 18447						JRST	.-5		;PRODUCE OTHER CRY BIT(S). >
 18448

DSKBA DECSYSTEM 2020 BASIC INSTRUCTION RELIABILITY TEST (1), VER 0,1 	MACRO %53(1020) 12:59 29-Mar-78 Page 138
DSKBA3	MAC	29-Mar-78 12:27		DIAGNOSTIC SECTION THREE                                                           SEQ 0476

 18449
 18450
 18451					;TEST ADD.  CHECK FOR CORRECT DATA IN AC BY
 18452					;SIMULATING AN ADD, DOING AN ADD, AND COMPARING C(AC) WITH
 18453					;SIMULATED ANS.
 18454					;RAN TO RAN1.
 18455			000003			AC=3
 18456	054555				ADDA1:	SETUP	200,2^
 18457			000004			AC1=<AC+1>&17
 18458			000005			AC2=<AC+2>&17
 18459			000006			AC3=<AC+3>&17
 18460			000007			AC4=<AC+4>&17
 18461			000010			AC5=<AC+5>&17
 18462			000001			RAN1=<AC-2>&17
 18463	054555	201 02 0 00 054555 		MOVEI	AC-1,.
 18464	054556	202 02 0 00 030051 		MOVEM	AC-1,TESTPC	;SETUP SUBTEST PC
 18465	054557	201 02 0 00 000002 		MOVEI	AC-1,<AC-1>&17	;INFORM ERROR ROUTINE
 18466	054560	202 02 0 00 061117 		MOVEM	AC-1,ERRLOP#	;WHICH AC IS USED FOR ITERATION
 18467	054561	201 02 0 00 000200 		MOVEI	AC-1,200		;ROUTINE WEIGHTING
 18468	054562	240 02 1 00 030660 		ASH	AC-1,@CMPLXT+2	;ROUTINE COMPLEXITY
 18469	054563	240 02 1 00 030655 		ASH	AC-1,@RTIME	;RUN TIME CONTROLLER ^
 18470	054564				ADDA2:	RANDOM^
 18471	054564	200 03 0 00 061125 		MOVE	AC,RAN#		;GENERATE  PSEUDO RANDOM NUMBER
 18472	054565	270 03 0 00 060657 		ADD	AC,[142536475076]
 18473	054566	241 03 0 00 777777 		ROT	AC,-1		;IN BOTH AC AND
 18474	054567	447 03 0 00 061125 		EQVB	AC,RAN		;REGISTER RAN ^
 18475	054570	207 01 0 00 000003 	ADDA3:	MOVSS	RAN1,AC		;C(AC)=SECOND RAN. NUM.
 18476	054571	200 05 0 00 061125 		MOVE	AC2,RAN		;PUT 1ST NUM. INTO AC2.
 18477					;SIMULATE AN ADD INSTRUCTION.
 18478						ADSBSM^
 18479	054572	200 04 0 00 000003 		MOVE	AC1,AC		;PUT SEC. NUM. INTO AC1.
 18480	054573	200 06 0 00 000004 		MOVE	AC3,AC1		;PUT SEC. NUM. INTO AC3 AND
 18481	054574	404 06 0 00 000005 		AND	AC3,AC2		;"AND" IT WITH 1ST NUM..PRODUCE CRY BIT.
 18482	054575	430 04 0 00 000005 		XOR	AC1,AC2		;PRODUCE SAME 1'S + 0'S AN ADD WOULD
 18483									;PRODUCE, WITHOUT CARRY BITS.
 18484	054576	242 06 0 00 000001 		LSH	AC3,1		;SHIFT CRY BIT(S) TO LINE UP WITH NEXT BIT(S).
 18485	054577	200 07 0 00 000004 		MOVE	AC4,AC1		;SAVE FOR FUTURE "AND".
 18486	054600	656 04 0 00 000006 		TDCN	AC1,AC3		;A 0,1 CONDITION (NO FURTHUR CARRY)
 18487	054601	254 00 0 00 054604 		JRST	.+3		;WILL LEAVE WITH ANY CRY BIT(S) SET,
 18488	054602	404 06 0 00 000007 		AND	AC3,AC4		;OTHERWISE IT WILL COMP. THE CRY BIT(S) AND
 18489	054603	254 00 0 00 054576 		JRST	.-5		;PRODUCE OTHER CRY BIT(S). ^
 18490	054604	270 03 0 00 061125 		ADD	AC,RAN		;DO AN ADD.
 18491	054605	312 03 0 00 000004 		CAME	AC,AC1		;C(AC) SHOULD=SIM. ANS.
 18492	054606	011 00 0 00 000001 		EERR	,RAN1
 18493						LOOP	ADDA2,ADDA3^
 18494	054607	367 02 0 00 054564 		SOJG	AC-1,ADDA2		;ITERATION COUNTER
 18495	054610	200 03 0 00 061125 		MOVE	AC,RAN		;RESTORE RANDOM NUMBER
 18496	054611	321 02 0 00 054570 		JUMPL	AC-1,ADDA3		;LOOP ON ERROR SWITCH ^
 18497

DSKBA DECSYSTEM 2020 BASIC INSTRUCTION RELIABILITY TEST (1), VER 0,1 	MACRO %53(1020) 12:59 29-Mar-78 Page 139
DSKBA3	MAC	29-Mar-78 12:27		DIAGNOSTIC SECTION THREE                                                           SEQ 0477

 18498					;TEST ADDM. CHECK FOR CORRECT DATA IN E BY
 18499					;SIMULATING AN ADDM, DOING AN ADDM, AND COMPARING C(E)
 18500					;WITH SIMULATED ANS.
 18501					;RAN TO RAN1.
 18502			000002			AC=2
 18503	054612				ADDMA1:	SETUP	200,2^
 18504			000003			AC1=<AC+1>&17
 18505			000004			AC2=<AC+2>&17
 18506			000005			AC3=<AC+3>&17
 18507			000006			AC4=<AC+4>&17
 18508			000007			AC5=<AC+5>&17
 18509			000000			RAN1=<AC-2>&17
 18510	054612	201 01 0 00 054612 		MOVEI	AC-1,.
 18511	054613	202 01 0 00 030051 		MOVEM	AC-1,TESTPC	;SETUP SUBTEST PC
 18512	054614	201 01 0 00 000001 		MOVEI	AC-1,<AC-1>&17	;INFORM ERROR ROUTINE
 18513	054615	202 01 0 00 061117 		MOVEM	AC-1,ERRLOP#	;WHICH AC IS USED FOR ITERATION
 18514	054616	201 01 0 00 000200 		MOVEI	AC-1,200		;ROUTINE WEIGHTING
 18515	054617	240 01 1 00 030660 		ASH	AC-1,@CMPLXT+2	;ROUTINE COMPLEXITY
 18516	054620	240 01 1 00 030655 		ASH	AC-1,@RTIME	;RUN TIME CONTROLLER ^
 18517	054621				ADDMA2:	RANDOM^
 18518	054621	200 02 0 00 061125 		MOVE	AC,RAN#		;GENERATE  PSEUDO RANDOM NUMBER
 18519	054622	270 02 0 00 060657 		ADD	AC,[142536475076]
 18520	054623	241 02 0 00 777777 		ROT	AC,-1		;IN BOTH AC AND
 18521	054624	447 02 0 00 061125 		EQVB	AC,RAN		;REGISTER RAN ^
 18522	054625	200 07 0 00 061125 		MOVE	AC5,RAN		;SAVE RAN IN AN AC.
 18523	054626	207 00 0 00 000002 	ADDMA3:	MOVSS	RAN1,AC		;C(E)=SECOND RAN NUM.
 18524	054627	200 04 0 00 061125 		MOVE	AC2,RAN		;PUT 1ST NUMBER INTO AC2
 18525					;SIMULATE AN ADD INSTRUCTION
 18526						ADSBSM^
 18527	054630	200 03 0 00 000002 		MOVE	AC1,AC		;PUT SEC. NUM. INTO AC1.
 18528	054631	200 05 0 00 000003 		MOVE	AC3,AC1		;PUT SEC. NUM. INTO AC3 AND
 18529	054632	404 05 0 00 000004 		AND	AC3,AC2		;"AND" IT WITH 1ST NUM..PRODUCE CRY BIT.
 18530	054633	430 03 0 00 000004 		XOR	AC1,AC2		;PRODUCE SAME 1'S + 0'S AN ADD WOULD
 18531									;PRODUCE, WITHOUT CARRY BITS.
 18532	054634	242 05 0 00 000001 		LSH	AC3,1		;SHIFT CRY BIT(S) TO LINE UP WITH NEXT BIT(S).
 18533	054635	200 06 0 00 000003 		MOVE	AC4,AC1		;SAVE FOR FUTURE "AND".
 18534	054636	656 03 0 00 000005 		TDCN	AC1,AC3		;A 0,1 CONDITION (NO FURTHUR CARRY)
 18535	054637	254 00 0 00 054642 		JRST	.+3		;WILL LEAVE WITH ANY CRY BIT(S) SET,
 18536	054640	404 05 0 00 000006 		AND	AC3,AC4		;OTHERWISE IT WILL COMP. THE CRY BIT(S) AND
 18537	054641	254 00 0 00 054634 		JRST	.-5		;PRODUCE OTHER CRY BIT(S). ^
 18538	054642	272 07 0 00 000002 		ADDM	AC5,AC		;DO AN ADDM.
 18539	054643	312 03 0 00 000002 		CAME	AC1,AC		;C(E) SHOULD=SIM. ANS.
 18540	054644	002 00 0 00 061125 		ERRM	RAN1,RAN
 18541						LOOP	ADDMA2,ADDMA3^
 18542	054645	367 01 0 00 054621 		SOJG	AC-1,ADDMA2		;ITERATION COUNTER
 18543	054646	200 02 0 00 061125 		MOVE	AC,RAN		;RESTORE RANDOM NUMBER
 18544	054647	321 01 0 00 054626 		JUMPL	AC-1,ADDMA3		;LOOP ON ERROR SWITCH ^
 18545

DSKBA DECSYSTEM 2020 BASIC INSTRUCTION RELIABILITY TEST (1), VER 0,1 	MACRO %53(1020) 12:59 29-Mar-78 Page 140
DSKBA3	MAC	29-Mar-78 12:27		DIAGNOSTIC SECTION THREE                                                           SEQ 0478

 18546
 18547
 18548					;TEST ADDI.  CHECK FOR CORRECT DATA IN AC BY
 18549					;SIMULATING AN ADDI, DOING AN ADDI, AND COMPARING
 18550					;C(AC) WITH SIMULATED ANS.
 18551					;RAN TO RAN1 CONDITION
 18552			000003			AC=3
 18553	054650				ADDIA1:	SETUP	200,2^
 18554			000004			AC1=<AC+1>&17
 18555			000005			AC2=<AC+2>&17
 18556			000006			AC3=<AC+3>&17
 18557			000007			AC4=<AC+4>&17
 18558			000010			AC5=<AC+5>&17
 18559			000001			RAN1=<AC-2>&17
 18560	054650	201 02 0 00 054650 		MOVEI	AC-1,.
 18561	054651	202 02 0 00 030051 		MOVEM	AC-1,TESTPC	;SETUP SUBTEST PC
 18562	054652	201 02 0 00 000002 		MOVEI	AC-1,<AC-1>&17	;INFORM ERROR ROUTINE
 18563	054653	202 02 0 00 061117 		MOVEM	AC-1,ERRLOP#	;WHICH AC IS USED FOR ITERATION
 18564	054654	201 02 0 00 000200 		MOVEI	AC-1,200		;ROUTINE WEIGHTING
 18565	054655	240 02 1 00 030660 		ASH	AC-1,@CMPLXT+2	;ROUTINE COMPLEXITY
 18566	054656	240 02 1 00 030655 		ASH	AC-1,@RTIME	;RUN TIME CONTROLLER ^
 18567	054657				ADDIA2:	RANDOM^
 18568	054657	200 03 0 00 061125 		MOVE	AC,RAN#		;GENERATE  PSEUDO RANDOM NUMBER
 18569	054660	270 03 0 00 060657 		ADD	AC,[142536475076]
 18570	054661	241 03 0 00 777777 		ROT	AC,-1		;IN BOTH AC AND
 18571	054662	447 03 0 00 061125 		EQVB	AC,RAN		;REGISTER RAN ^
 18572	054663	200 10 0 00 061125 		MOVE	AC5,RAN		;SAVE RAN IN AN AC.
 18573	054664	207 01 0 00 000003 	ADDIA3:	MOVSS	RAN1,AC		;C(AC)=SECOND RAN. NUM.
 18574	054665	201 05 0 10 000000 		MOVEI	AC2,(AC5)	;PUT 1ST NUM INTO AC2.
 18575					;SIMULATE ADDI INSTRUCTION
 18576						ADSBSM^
 18577	054666	200 04 0 00 000003 		MOVE	AC1,AC		;PUT SEC. NUM. INTO AC1.
 18578	054667	200 06 0 00 000004 		MOVE	AC3,AC1		;PUT SEC. NUM. INTO AC3 AND
 18579	054670	404 06 0 00 000005 		AND	AC3,AC2		;"AND" IT WITH 1ST NUM..PRODUCE CRY BIT.
 18580	054671	430 04 0 00 000005 		XOR	AC1,AC2		;PRODUCE SAME 1'S + 0'S AN ADD WOULD
 18581									;PRODUCE, WITHOUT CARRY BITS.
 18582	054672	242 06 0 00 000001 		LSH	AC3,1		;SHIFT CRY BIT(S) TO LINE UP WITH NEXT BIT(S).
 18583	054673	200 07 0 00 000004 		MOVE	AC4,AC1		;SAVE FOR FUTURE "AND".
 18584	054674	656 04 0 00 000006 		TDCN	AC1,AC3		;A 0,1 CONDITION (NO FURTHUR CARRY)
 18585	054675	254 00 0 00 054700 		JRST	.+3		;WILL LEAVE WITH ANY CRY BIT(S) SET,
 18586	054676	404 06 0 00 000007 		AND	AC3,AC4		;OTHERWISE IT WILL COMP. THE CRY BIT(S) AND
 18587	054677	254 00 0 00 054672 		JRST	.-5		;PRODUCE OTHER CRY BIT(S). ^
 18588	054700	271 03 0 10 000000 		ADDI	AC,(AC5)	;DO AN ADDI.
 18589	054701	312 03 0 00 000004 		CAME	AC,AC1		;C(AC) SHOULD=SIM. ANS.
 18590	054702	003 01 0 10 000000 		ERRI	RAN1,(AC5)
 18591						LOOP	ADDIA2,ADDIA3^
 18592	054703	367 02 0 00 054657 		SOJG	AC-1,ADDIA2		;ITERATION COUNTER
 18593	054704	200 03 0 00 061125 		MOVE	AC,RAN		;RESTORE RANDOM NUMBER
 18594	054705	321 02 0 00 054664 		JUMPL	AC-1,ADDIA3		;LOOP ON ERROR SWITCH ^
 18595

DSKBA DECSYSTEM 2020 BASIC INSTRUCTION RELIABILITY TEST (1), VER 0,1 	MACRO %53(1020) 12:59 29-Mar-78 Page 141
DSKBA3	MAC	29-Mar-78 12:27		DIAGNOSTIC SECTION THREE                                                           SEQ 0479

 18596					;TEST ADDB. CHECK FOR C(E)=C(AC), AND CORRECT DATA IN AC
 18597					;BY SIMULATING AN ADD, DOING AN ADDB, AND COMPARING C(AC)
 18598					;WITH SIMULATED ANS.
 18599					;RAN TO RAN1 CONDITION.
 18600			000004			AC=4
 18601	054706				ADDBA1:	SETUP	200,2^
 18602			000005			AC1=<AC+1>&17
 18603			000006			AC2=<AC+2>&17
 18604			000007			AC3=<AC+3>&17
 18605			000010			AC4=<AC+4>&17
 18606			000011			AC5=<AC+5>&17
 18607			000002			RAN1=<AC-2>&17
 18608	054706	201 03 0 00 054706 		MOVEI	AC-1,.
 18609	054707	202 03 0 00 030051 		MOVEM	AC-1,TESTPC	;SETUP SUBTEST PC
 18610	054710	201 03 0 00 000003 		MOVEI	AC-1,<AC-1>&17	;INFORM ERROR ROUTINE
 18611	054711	202 03 0 00 061117 		MOVEM	AC-1,ERRLOP#	;WHICH AC IS USED FOR ITERATION
 18612	054712	201 03 0 00 000200 		MOVEI	AC-1,200		;ROUTINE WEIGHTING
 18613	054713	240 03 1 00 030660 		ASH	AC-1,@CMPLXT+2	;ROUTINE COMPLEXITY
 18614	054714	240 03 1 00 030655 		ASH	AC-1,@RTIME	;RUN TIME CONTROLLER ^
 18615	054715				ADDBA2:	RANDOM^
 18616	054715	200 04 0 00 061125 		MOVE	AC,RAN#		;GENERATE  PSEUDO RANDOM NUMBER
 18617	054716	270 04 0 00 060657 		ADD	AC,[142536475076]
 18618	054717	241 04 0 00 777777 		ROT	AC,-1		;IN BOTH AC AND
 18619	054720	447 04 0 00 061125 		EQVB	AC,RAN		;REGISTER RAN ^
 18620	054721	207 02 0 00 000004 	ADDBA3:	MOVSS	RAN1,AC		;C(AC)=SECOND RAN NUM.
 18621	054722	200 11 0 00 061125 		MOVE	AC5,RAN		;PUT 1ST NUM INTO C(E).
 18622	054723	200 06 0 00 061125 		MOVE	AC2,RAN		;PUT C(E) (1ST NUM.) INTO AC2.
 18623					;SIMULATE AN ADD INSTRUCTION
 18624						ADSBSM^
 18625	054724	200 05 0 00 000004 		MOVE	AC1,AC		;PUT SEC. NUM. INTO AC1.
 18626	054725	200 07 0 00 000005 		MOVE	AC3,AC1		;PUT SEC. NUM. INTO AC3 AND
 18627	054726	404 07 0 00 000006 		AND	AC3,AC2		;"AND" IT WITH 1ST NUM..PRODUCE CRY BIT.
 18628	054727	430 05 0 00 000006 		XOR	AC1,AC2		;PRODUCE SAME 1'S + 0'S AN ADD WOULD
 18629									;PRODUCE, WITHOUT CARRY BITS.
 18630	054730	242 07 0 00 000001 		LSH	AC3,1		;SHIFT CRY BIT(S) TO LINE UP WITH NEXT BIT(S).
 18631	054731	200 10 0 00 000005 		MOVE	AC4,AC1		;SAVE FOR FUTURE "AND".
 18632	054732	656 05 0 00 000007 		TDCN	AC1,AC3		;A 0,1 CONDITION (NO FURTHUR CARRY)
 18633	054733	254 00 0 00 054736 		JRST	.+3		;WILL LEAVE WITH ANY CRY BIT(S) SET,
 18634	054734	404 07 0 00 000010 		AND	AC3,AC4		;OTHERWISE IT WILL COMP. THE CRY BIT(S) AND
 18635	054735	254 00 0 00 054730 		JRST	.-5		;PRODUCE OTHER CRY BIT(S). ^
 18636	054736	273 04 0 00 000011 		ADDB	AC,AC5		;DO AN ADDB.
 18637	054737	312 04 0 00 000011 		CAME	AC,AC5		;C(AC) SHOULD=C(E)
 18638	054740	011 00 0 00 000002 		EERR	,RAN1
 18639	054741	312 04 0 00 000005 		CAME	AC,AC1		;C(AC) SHOULD=SIM. ANS.
 18640	054742	011 00 0 00 000002 		EERR	,RAN1
 18641						LOOP	ADDBA2,ADDBA3^
 18642	054743	367 03 0 00 054715 		SOJG	AC-1,ADDBA2		;ITERATION COUNTER
 18643	054744	200 04 0 00 061125 		MOVE	AC,RAN		;RESTORE RANDOM NUMBER
 18644	054745	321 03 0 00 054721 		JUMPL	AC-1,ADDBA3		;LOOP ON ERROR SWITCH ^
 18645

DSKBA DECSYSTEM 2020 BASIC INSTRUCTION RELIABILITY TEST (1), VER 0,1 	MACRO %53(1020) 12:59 29-Mar-78 Page 142
DSKBA3	MAC	29-Mar-78 12:27		DIAGNOSTIC SECTION THREE                                                           SEQ 0480

 18646
 18647
 18648					;TEST SUB. CHECK FOR CORRECT DATA IN AC BY
 18649					;SIMULATING A SUB, DOING A SUB, AND COMPARING C(AC)
 18650					;WITH THE SIMULATED ANSWER
 18651					;RAN TO RAN1
 18652			000005			AC=5
 18653	054746				SUBA1:	SETUP	200,2^
 18654			000006			AC1=<AC+1>&17
 18655			000007			AC2=<AC+2>&17
 18656			000010			AC3=<AC+3>&17
 18657			000011			AC4=<AC+4>&17
 18658			000012			AC5=<AC+5>&17
 18659			000003			RAN1=<AC-2>&17
 18660	054746	201 04 0 00 054746 		MOVEI	AC-1,.
 18661	054747	202 04 0 00 030051 		MOVEM	AC-1,TESTPC	;SETUP SUBTEST PC
 18662	054750	201 04 0 00 000004 		MOVEI	AC-1,<AC-1>&17	;INFORM ERROR ROUTINE
 18663	054751	202 04 0 00 061117 		MOVEM	AC-1,ERRLOP#	;WHICH AC IS USED FOR ITERATION
 18664	054752	201 04 0 00 000200 		MOVEI	AC-1,200		;ROUTINE WEIGHTING
 18665	054753	240 04 1 00 030660 		ASH	AC-1,@CMPLXT+2	;ROUTINE COMPLEXITY
 18666	054754	240 04 1 00 030655 		ASH	AC-1,@RTIME	;RUN TIME CONTROLLER ^
 18667	054755				SUBA2:	RANDOM^
 18668	054755	200 05 0 00 061125 		MOVE	AC,RAN#		;GENERATE  PSEUDO RANDOM NUMBER
 18669	054756	270 05 0 00 060657 		ADD	AC,[142536475076]
 18670	054757	241 05 0 00 777777 		ROT	AC,-1		;IN BOTH AC AND
 18671	054760	447 05 0 00 061125 		EQVB	AC,RAN		;REGISTER RAN ^
 18672	054761	207 03 0 00 000005 	SUBA3:	MOVSS	RAN1,AC		;C(AC)=SECOND RAN. NUM.
 18673	054762	210 07 0 00 061125 		MOVN	AC2,RAN		;PUT 2'S COMP OF 1ST NUM INTO AC2.
 18674					;SIMULATE A SUB INSTRUCTION
 18675						ADSBSM^
 18676	054763	200 06 0 00 000005 		MOVE	AC1,AC		;PUT SEC. NUM. INTO AC1.
 18677	054764	200 10 0 00 000006 		MOVE	AC3,AC1		;PUT SEC. NUM. INTO AC3 AND
 18678	054765	404 10 0 00 000007 		AND	AC3,AC2		;"AND" IT WITH 1ST NUM..PRODUCE CRY BIT.
 18679	054766	430 06 0 00 000007 		XOR	AC1,AC2		;PRODUCE SAME 1'S + 0'S AN ADD WOULD
 18680									;PRODUCE, WITHOUT CARRY BITS.
 18681	054767	242 10 0 00 000001 		LSH	AC3,1		;SHIFT CRY BIT(S) TO LINE UP WITH NEXT BIT(S).
 18682	054770	200 11 0 00 000006 		MOVE	AC4,AC1		;SAVE FOR FUTURE "AND".
 18683	054771	656 06 0 00 000010 		TDCN	AC1,AC3		;A 0,1 CONDITION (NO FURTHUR CARRY)
 18684	054772	254 00 0 00 054775 		JRST	.+3		;WILL LEAVE WITH ANY CRY BIT(S) SET,
 18685	054773	404 10 0 00 000011 		AND	AC3,AC4		;OTHERWISE IT WILL COMP. THE CRY BIT(S) AND
 18686	054774	254 00 0 00 054767 		JRST	.-5		;PRODUCE OTHER CRY BIT(S). ^
 18687	054775	274 05 0 00 061125 		SUB	AC,RAN		;DO A SUB.
 18688	054776	312 05 0 00 000006 		CAME	AC,AC1		;C(AC) SHOULD=SIM. ANS.
 18689	054777	011 00 0 00 000003 		EERR	,RAN1
 18690						LOOP	SUBA2,SUBA3^
 18691	055000	367 04 0 00 054755 		SOJG	AC-1,SUBA2		;ITERATION COUNTER
 18692	055001	200 05 0 00 061125 		MOVE	AC,RAN		;RESTORE RANDOM NUMBER
 18693	055002	321 04 0 00 054761 		JUMPL	AC-1,SUBA3		;LOOP ON ERROR SWITCH ^
 18694

DSKBA DECSYSTEM 2020 BASIC INSTRUCTION RELIABILITY TEST (1), VER 0,1 	MACRO %53(1020) 12:59 29-Mar-78 Page 143
DSKBA3	MAC	29-Mar-78 12:27		DIAGNOSTIC SECTION THREE                                                           SEQ 0481

 18695
 18696
 18697					;TEST SUBM. CHECK FOR CORRECT DATA IN E BY
 18698					;SIMULATING A SUBM, DOING A SUBM, AND COMPARING C(E)
 18699					;WITH THE SIMULATED ANSWER
 18700					;RAN TO RAN1.
 18701			000006			AC=6
 18702	055003				SUBMA1:	SETUP	200,2^
 18703			000007			AC1=<AC+1>&17
 18704			000010			AC2=<AC+2>&17
 18705			000011			AC3=<AC+3>&17
 18706			000012			AC4=<AC+4>&17
 18707			000013			AC5=<AC+5>&17
 18708			000004			RAN1=<AC-2>&17
 18709	055003	201 05 0 00 055003 		MOVEI	AC-1,.
 18710	055004	202 05 0 00 030051 		MOVEM	AC-1,TESTPC	;SETUP SUBTEST PC
 18711	055005	201 05 0 00 000005 		MOVEI	AC-1,<AC-1>&17	;INFORM ERROR ROUTINE
 18712	055006	202 05 0 00 061117 		MOVEM	AC-1,ERRLOP#	;WHICH AC IS USED FOR ITERATION
 18713	055007	201 05 0 00 000200 		MOVEI	AC-1,200		;ROUTINE WEIGHTING
 18714	055010	240 05 1 00 030660 		ASH	AC-1,@CMPLXT+2	;ROUTINE COMPLEXITY
 18715	055011	240 05 1 00 030655 		ASH	AC-1,@RTIME	;RUN TIME CONTROLLER ^
 18716	055012				SUBMA2:	RANDOM^
 18717	055012	200 06 0 00 061125 		MOVE	AC,RAN#		;GENERATE  PSEUDO RANDOM NUMBER
 18718	055013	270 06 0 00 060657 		ADD	AC,[142536475076]
 18719	055014	241 06 0 00 777777 		ROT	AC,-1		;IN BOTH AC AND
 18720	055015	447 06 0 00 061125 		EQVB	AC,RAN		;REGISTER RAN ^
 18721	055016	207 04 0 00 000006 	SUBMA3:	MOVSS	RAN1,AC		;C(AC)=SECOND RAN. NUM.
 18722	055017	200 13 0 00 061125 		MOVE	AC5,RAN		;C(E)=1ST RAN. NUM.
 18723	055020	210 10 0 00 000013 		MOVN	AC2,AC5		;PUT 1ST RAN. NUM INTO AC2
 18724					;SIMULATE A SUB INSTRUCTION
 18725						ADSBSM^
 18726	055021	200 07 0 00 000006 		MOVE	AC1,AC		;PUT SEC. NUM. INTO AC1.
 18727	055022	200 11 0 00 000007 		MOVE	AC3,AC1		;PUT SEC. NUM. INTO AC3 AND
 18728	055023	404 11 0 00 000010 		AND	AC3,AC2		;"AND" IT WITH 1ST NUM..PRODUCE CRY BIT.
 18729	055024	430 07 0 00 000010 		XOR	AC1,AC2		;PRODUCE SAME 1'S + 0'S AN ADD WOULD
 18730									;PRODUCE, WITHOUT CARRY BITS.
 18731	055025	242 11 0 00 000001 		LSH	AC3,1		;SHIFT CRY BIT(S) TO LINE UP WITH NEXT BIT(S).
 18732	055026	200 12 0 00 000007 		MOVE	AC4,AC1		;SAVE FOR FUTURE "AND".
 18733	055027	656 07 0 00 000011 		TDCN	AC1,AC3		;A 0,1 CONDITION (NO FURTHUR CARRY)
 18734	055030	254 00 0 00 055033 		JRST	.+3		;WILL LEAVE WITH ANY CRY BIT(S) SET,
 18735	055031	404 11 0 00 000012 		AND	AC3,AC4		;OTHERWISE IT WILL COMP. THE CRY BIT(S) AND
 18736	055032	254 00 0 00 055025 		JRST	.-5		;PRODUCE OTHER CRY BIT(S). ^
 18737	055033	276 06 0 00 000013 		SUBM	AC,AC5		;DO A SUBM.
 18738	055034	312 07 0 00 000013 		CAME	AC1,AC5		;C(E) SHOULD=SIM. ANS.
 18739	055035	012 00 0 00 000004 		EERRM	,RAN1
 18740						LOOP	SUBMA2,SUBMA3^
 18741	055036	367 05 0 00 055012 		SOJG	AC-1,SUBMA2		;ITERATION COUNTER
 18742	055037	200 06 0 00 061125 		MOVE	AC,RAN		;RESTORE RANDOM NUMBER
 18743	055040	321 05 0 00 055016 		JUMPL	AC-1,SUBMA3		;LOOP ON ERROR SWITCH ^
 18744

DSKBA DECSYSTEM 2020 BASIC INSTRUCTION RELIABILITY TEST (1), VER 0,1 	MACRO %53(1020) 12:59 29-Mar-78 Page 144
DSKBA3	MAC	29-Mar-78 12:27		DIAGNOSTIC SECTION THREE                                                           SEQ 0482

 18745
 18746
 18747					;TEST SUBI.  CHECK FOR CORRECT DATA IN AC BY
 18748					;SIMULATING A SUBI, DOING A SUBI, AND COMPARING
 18749					;C(AC) WITH THE SIMULATED ANSWER
 18750					;RAN TO RAN1
 18751			000007			AC=7
 18752	055041				SUBIA1:	SETUP	200,2^
 18753			000010			AC1=<AC+1>&17
 18754			000011			AC2=<AC+2>&17
 18755			000012			AC3=<AC+3>&17
 18756			000013			AC4=<AC+4>&17
 18757			000014			AC5=<AC+5>&17
 18758			000005			RAN1=<AC-2>&17
 18759	055041	201 06 0 00 055041 		MOVEI	AC-1,.
 18760	055042	202 06 0 00 030051 		MOVEM	AC-1,TESTPC	;SETUP SUBTEST PC
 18761	055043	201 06 0 00 000006 		MOVEI	AC-1,<AC-1>&17	;INFORM ERROR ROUTINE
 18762	055044	202 06 0 00 061117 		MOVEM	AC-1,ERRLOP#	;WHICH AC IS USED FOR ITERATION
 18763	055045	201 06 0 00 000200 		MOVEI	AC-1,200		;ROUTINE WEIGHTING
 18764	055046	240 06 1 00 030660 		ASH	AC-1,@CMPLXT+2	;ROUTINE COMPLEXITY
 18765	055047	240 06 1 00 030655 		ASH	AC-1,@RTIME	;RUN TIME CONTROLLER ^
 18766	055050				SUBIA2:	RANDOM^
 18767	055050	200 07 0 00 061125 		MOVE	AC,RAN#		;GENERATE  PSEUDO RANDOM NUMBER
 18768	055051	270 07 0 00 060657 		ADD	AC,[142536475076]
 18769	055052	241 07 0 00 777777 		ROT	AC,-1		;IN BOTH AC AND
 18770	055053	447 07 0 00 061125 		EQVB	AC,RAN		;REGISTER RAN ^
 18771	055054	200 14 0 00 061125 		MOVE	AC5,RAN		;SAVE RAN IN AN AC.
 18772	055055	207 05 0 00 000007 	SUBIA3:	MOVSS	RAN1,AC		;C(AC)=SECOND RAN. NUM.
 18773	055056	211 11 0 14 000000 		MOVNI	AC2,(AC5)	;PUT 2'S COMP OF 1ST RAN NUM INTO AC2.
 18774					;SIMULATE A SUB INSTRUCTION
 18775						ADSBSM^
 18776	055057	200 10 0 00 000007 		MOVE	AC1,AC		;PUT SEC. NUM. INTO AC1.
 18777	055060	200 12 0 00 000010 		MOVE	AC3,AC1		;PUT SEC. NUM. INTO AC3 AND
 18778	055061	404 12 0 00 000011 		AND	AC3,AC2		;"AND" IT WITH 1ST NUM..PRODUCE CRY BIT.
 18779	055062	430 10 0 00 000011 		XOR	AC1,AC2		;PRODUCE SAME 1'S + 0'S AN ADD WOULD
 18780									;PRODUCE, WITHOUT CARRY BITS.
 18781	055063	242 12 0 00 000001 		LSH	AC3,1		;SHIFT CRY BIT(S) TO LINE UP WITH NEXT BIT(S).
 18782	055064	200 13 0 00 000010 		MOVE	AC4,AC1		;SAVE FOR FUTURE "AND".
 18783	055065	656 10 0 00 000012 		TDCN	AC1,AC3		;A 0,1 CONDITION (NO FURTHUR CARRY)
 18784	055066	254 00 0 00 055071 		JRST	.+3		;WILL LEAVE WITH ANY CRY BIT(S) SET,
 18785	055067	404 12 0 00 000013 		AND	AC3,AC4		;OTHERWISE IT WILL COMP. THE CRY BIT(S) AND
 18786	055070	254 00 0 00 055063 		JRST	.-5		;PRODUCE OTHER CRY BIT(S). ^
 18787	055071	275 07 0 14 000000 		SUBI	AC,(AC5)	;DO A SUBI.
 18788	055072	312 07 0 00 000010 		CAME	AC,AC1		;C(AC) SHOULD=SIM. ANS.
 18789	055073	003 05 0 14 000000 		ERRI	RAN1,(AC5)
 18790						LOOP	SUBIA2,SUBIA3^
 18791	055074	367 06 0 00 055050 		SOJG	AC-1,SUBIA2		;ITERATION COUNTER
 18792	055075	200 07 0 00 061125 		MOVE	AC,RAN		;RESTORE RANDOM NUMBER
 18793	055076	321 06 0 00 055055 		JUMPL	AC-1,SUBIA3		;LOOP ON ERROR SWITCH ^
 18794

DSKBA DECSYSTEM 2020 BASIC INSTRUCTION RELIABILITY TEST (1), VER 0,1 	MACRO %53(1020) 12:59 29-Mar-78 Page 145
DSKBA3	MAC	29-Mar-78 12:27		DIAGNOSTIC SECTION THREE                                                           SEQ 0483

 18795					;TEST SUBB.  CHECK FOR C(AC)=C(E), AND CORRECT DATA
 18796					;IN AC BY SIMULATING A SUB, DOING A SUBB, AND COMPARING
 18797					;C(AC) WITH SIMULATED ANSWER.
 18798					;RAN TO RAN1 CONDITION.
 18799			000010			AC=10
 18800	055077				SUBBA1:	SETUP	200,2^
 18801			000011			AC1=<AC+1>&17
 18802			000012			AC2=<AC+2>&17
 18803			000013			AC3=<AC+3>&17
 18804			000014			AC4=<AC+4>&17
 18805			000015			AC5=<AC+5>&17
 18806			000006			RAN1=<AC-2>&17
 18807	055077	201 07 0 00 055077 		MOVEI	AC-1,.
 18808	055100	202 07 0 00 030051 		MOVEM	AC-1,TESTPC	;SETUP SUBTEST PC
 18809	055101	201 07 0 00 000007 		MOVEI	AC-1,<AC-1>&17	;INFORM ERROR ROUTINE
 18810	055102	202 07 0 00 061117 		MOVEM	AC-1,ERRLOP#	;WHICH AC IS USED FOR ITERATION
 18811	055103	201 07 0 00 000200 		MOVEI	AC-1,200		;ROUTINE WEIGHTING
 18812	055104	240 07 1 00 030660 		ASH	AC-1,@CMPLXT+2	;ROUTINE COMPLEXITY
 18813	055105	240 07 1 00 030655 		ASH	AC-1,@RTIME	;RUN TIME CONTROLLER ^
 18814	055106				SUBBA2:	RANDOM^
 18815	055106	200 10 0 00 061125 		MOVE	AC,RAN#		;GENERATE  PSEUDO RANDOM NUMBER
 18816	055107	270 10 0 00 060657 		ADD	AC,[142536475076]
 18817	055110	241 10 0 00 777777 		ROT	AC,-1		;IN BOTH AC AND
 18818	055111	447 10 0 00 061125 		EQVB	AC,RAN		;REGISTER RAN ^
 18819	055112	207 06 0 00 000010 	SUBBA3:	MOVSS	RAN1,AC		;C(AC)=SECOND RAN. NUM.
 18820	055113	200 15 0 00 061125 		MOVE	AC5,RAN		;C(E)=1ST RAN. NUM.
 18821	055114	210 12 0 00 000015 		MOVN	AC2,AC5		;PUT 2'S COMP OF 1ST NUM. INTO C2
 18822					;SIMULATE A SUB INSTRUCTION
 18823						ADSBSM^
 18824	055115	200 11 0 00 000010 		MOVE	AC1,AC		;PUT SEC. NUM. INTO AC1.
 18825	055116	200 13 0 00 000011 		MOVE	AC3,AC1		;PUT SEC. NUM. INTO AC3 AND
 18826	055117	404 13 0 00 000012 		AND	AC3,AC2		;"AND" IT WITH 1ST NUM..PRODUCE CRY BIT.
 18827	055120	430 11 0 00 000012 		XOR	AC1,AC2		;PRODUCE SAME 1'S + 0'S AN ADD WOULD
 18828									;PRODUCE, WITHOUT CARRY BITS.
 18829	055121	242 13 0 00 000001 		LSH	AC3,1		;SHIFT CRY BIT(S) TO LINE UP WITH NEXT BIT(S).
 18830	055122	200 14 0 00 000011 		MOVE	AC4,AC1		;SAVE FOR FUTURE "AND".
 18831	055123	656 11 0 00 000013 		TDCN	AC1,AC3		;A 0,1 CONDITION (NO FURTHUR CARRY)
 18832	055124	254 00 0 00 055127 		JRST	.+3		;WILL LEAVE WITH ANY CRY BIT(S) SET,
 18833	055125	404 13 0 00 000014 		AND	AC3,AC4		;OTHERWISE IT WILL COMP. THE CRY BIT(S) AND
 18834	055126	254 00 0 00 055121 		JRST	.-5		;PRODUCE OTHER CRY BIT(S). ^
 18835	055127	277 10 0 00 000015 		SUBB	AC,AC5		;DO A SUBB.
 18836	055130	312 10 0 00 000015 		CAME	AC,AC5		;C(AC) SHOULD=C(E)
 18837	055131	011 00 0 00 000006 		EERR	,RAN1
 18838	055132	312 10 0 00 000011 		CAME	AC,AC1		;C(AC) SHOULD=SIM ANS
 18839	055133	011 00 0 00 000006 		EERR	,RAN1
 18840						LOOP	SUBBA2,SUBBA3^
 18841	055134	367 07 0 00 055106 		SOJG	AC-1,SUBBA2		;ITERATION COUNTER
 18842	055135	200 10 0 00 061125 		MOVE	AC,RAN		;RESTORE RANDOM NUMBER
 18843	055136	321 07 0 00 055112 		JUMPL	AC-1,SUBBA3		;LOOP ON ERROR SWITCH ^
 18844

DSKBA DECSYSTEM 2020 BASIC INSTRUCTION RELIABILITY TEST (1), VER 0,1 	MACRO %53(1020) 12:59 29-Mar-78 Page 146
DSKBA3	MAC	29-Mar-78 12:27		DIAGNOSTIC SECTION THREE                                                           SEQ 0484

 18845
 18846
 18847					;TEST AOBJP. CHECK FOR CORRECT DATA IN AC.
 18848					;C(AC) = RAN.
 18849
 18850
 18851			000002			AC=2
 18852	055137				ABJP1:	SETUP	100,0^
 18853			000003			AC1=<AC+1>&17
 18854			000004			AC2=<AC+2>&17
 18855			000005			AC3=<AC+3>&17
 18856			000006			AC4=<AC+4>&17
 18857			000007			AC5=<AC+5>&17
 18858			000000			RAN1=<AC-2>&17
 18859	055137	201 01 0 00 055137 		MOVEI	AC-1,.
 18860	055140	202 01 0 00 030051 		MOVEM	AC-1,TESTPC	;SETUP SUBTEST PC
 18861	055141	201 01 0 00 000001 		MOVEI	AC-1,<AC-1>&17	;INFORM ERROR ROUTINE
 18862	055142	202 01 0 00 061117 		MOVEM	AC-1,ERRLOP#	;WHICH AC IS USED FOR ITERATION
 18863	055143	201 01 0 00 000100 		MOVEI	AC-1,100		;ROUTINE WEIGHTING
 18864	055144	240 01 1 00 030656 		ASH	AC-1,@CMPLXT+0	;ROUTINE COMPLEXITY
 18865	055145	240 01 1 00 030655 		ASH	AC-1,@RTIME	;RUN TIME CONTROLLER ^
 18866	055146				ABJP2:	RANDOM^
 18867	055146	200 02 0 00 061125 		MOVE	AC,RAN#		;GENERATE  PSEUDO RANDOM NUMBER
 18868	055147	270 02 0 00 060657 		ADD	AC,[142536475076]
 18869	055150	241 02 0 00 777777 		ROT	AC,-1		;IN BOTH AC AND
 18870	055151	447 02 0 00 061125 		EQVB	AC,RAN		;REGISTER RAN ^
 18871	055152	200 03 0 00 000002 	ABJP3:	MOVE	AC1,AC		;SIMULATE
 18872	055153	270 03 0 00 060720 		ADD	AC1,[XWD 1,1]	;AN AOBJP INST.
 18873	055154	606 03 0 00 777777 		TRNN	AC1,777777	;IF CARRY ACROSS OCCURS
 18874	055155	274 03 0 00 060714 		SUB	AC1,[XWD 1,0]	;DELETE CARRY 18 TO 17 EFFECT
 18875	055156	252 02 0 00 055157 		AOBJP	AC,.+1		;DO AN AOBJP INST.
 18876	055157	312 02 0 00 000003 		CAME	AC,AC1		;C(AC) SHOULD = SIM. ANS.
 18877	055160	013 00 0 00 055157 		EERRI	,.-1
 18878						LOOP	ABJP2,ABJP3^
 18879	055161	367 01 0 00 055146 		SOJG	AC-1,ABJP2		;ITERATION COUNTER
 18880	055162	200 02 0 00 061125 		MOVE	AC,RAN		;RESTORE RANDOM NUMBER
 18881	055163	321 01 0 00 055152 		JUMPL	AC-1,ABJP3		;LOOP ON ERROR SWITCH ^
 18882
 18883
 18884

DSKBA DECSYSTEM 2020 BASIC INSTRUCTION RELIABILITY TEST (1), VER 0,1 	MACRO %53(1020) 12:59 29-Mar-78 Page 147
DSKBA3	MAC	29-Mar-78 12:27		DIAGNOSTIC SECTION THREE                                                           SEQ 0485

 18885
 18886
 18887					;TEST AOBJN. CHEC C(AC) FOR CORRECT DATA.
 18888					;C(AC) = RAN.
 18889
 18890
 18891			000003			AC=3
 18892	055164				ABJN1:	SETUP	100,0^
 18893			000004			AC1=<AC+1>&17
 18894			000005			AC2=<AC+2>&17
 18895			000006			AC3=<AC+3>&17
 18896			000007			AC4=<AC+4>&17
 18897			000010			AC5=<AC+5>&17
 18898			000001			RAN1=<AC-2>&17
 18899	055164	201 02 0 00 055164 		MOVEI	AC-1,.
 18900	055165	202 02 0 00 030051 		MOVEM	AC-1,TESTPC	;SETUP SUBTEST PC
 18901	055166	201 02 0 00 000002 		MOVEI	AC-1,<AC-1>&17	;INFORM ERROR ROUTINE
 18902	055167	202 02 0 00 061117 		MOVEM	AC-1,ERRLOP#	;WHICH AC IS USED FOR ITERATION
 18903	055170	201 02 0 00 000100 		MOVEI	AC-1,100		;ROUTINE WEIGHTING
 18904	055171	240 02 1 00 030656 		ASH	AC-1,@CMPLXT+0	;ROUTINE COMPLEXITY
 18905	055172	240 02 1 00 030655 		ASH	AC-1,@RTIME	;RUN TIME CONTROLLER ^
 18906	055173				ABJN2:	RANDOM^
 18907	055173	200 03 0 00 061125 		MOVE	AC,RAN#		;GENERATE  PSEUDO RANDOM NUMBER
 18908	055174	270 03 0 00 060657 		ADD	AC,[142536475076]
 18909	055175	241 03 0 00 777777 		ROT	AC,-1		;IN BOTH AC AND
 18910	055176	447 03 0 00 061125 		EQVB	AC,RAN		;REGISTER RAN ^
 18911	055177	200 04 0 00 000003 	ABJN3:	MOVE	AC1,AC		;SIMULATE
 18912	055200	270 04 0 00 060720 		ADD	AC1,[XWD 1,1]	;AN AOBJN.
 18913	055201	606 04 0 00 777777 		TRNN	AC1,777777	;IF CARRY ACROSS OCCURS
 18914	055202	274 04 0 00 060714 		SUB	AC1,[XWD 1,0]	;DELETE CARRY 18 TO 17 EFFECT
 18915	055203	253 03 0 00 055204 		AOBJN	AC,.+1		;DO AN AOBJN INST.
 18916	055204	312 03 0 00 000004 		CAME	AC,AC1		;C(AC) SHOULD = SIM. ANS.
 18917	055205	013 00 0 00 055204 		EERRI	,.-1
 18918						LOOP	ABJN2,ABJN3^
 18919	055206	367 02 0 00 055173 		SOJG	AC-1,ABJN2		;ITERATION COUNTER
 18920	055207	200 03 0 00 061125 		MOVE	AC,RAN		;RESTORE RANDOM NUMBER
 18921	055210	321 02 0 00 055177 		JUMPL	AC-1,ABJN3		;LOOP ON ERROR SWITCH ^
 18922
 18923
 18924

DSKBA DECSYSTEM 2020 BASIC INSTRUCTION RELIABILITY TEST (1), VER 0,1 	MACRO %53(1020) 12:59 29-Mar-78 Page 148
DSKBA3	MAC	29-Mar-78 12:27		DIAGNOSTIC SECTION THREE                                                           SEQ 0486

 18925
 18926
 18927					;TEST AOBJN, AOBJP. CHECK FOR JUMP/ NO JUMP AND
 18928					;CORRECT DAT IN AC.
 18929					;C(AC) = RAN.
 18930
 18931
 18932			000002			AC=2
 18933	055211				ABJP1A:	SETUP	100,0^
 18934			000003			AC1=<AC+1>&17
 18935			000004			AC2=<AC+2>&17
 18936			000005			AC3=<AC+3>&17
 18937			000006			AC4=<AC+4>&17
 18938			000007			AC5=<AC+5>&17
 18939			000000			RAN1=<AC-2>&17
 18940	055211	201 01 0 00 055211 		MOVEI	AC-1,.
 18941	055212	202 01 0 00 030051 		MOVEM	AC-1,TESTPC	;SETUP SUBTEST PC
 18942	055213	201 01 0 00 000001 		MOVEI	AC-1,<AC-1>&17	;INFORM ERROR ROUTINE
 18943	055214	202 01 0 00 061117 		MOVEM	AC-1,ERRLOP#	;WHICH AC IS USED FOR ITERATION
 18944	055215	201 01 0 00 000100 		MOVEI	AC-1,100		;ROUTINE WEIGHTING
 18945	055216	240 01 1 00 030656 		ASH	AC-1,@CMPLXT+0	;ROUTINE COMPLEXITY
 18946	055217	240 01 1 00 030655 		ASH	AC-1,@RTIME	;RUN TIME CONTROLLER ^
 18947	055220				ABJP1B:	RANDOM^
 18948	055220	200 02 0 00 061125 		MOVE	AC,RAN#		;GENERATE  PSEUDO RANDOM NUMBER
 18949	055221	270 02 0 00 060657 		ADD	AC,[142536475076]
 18950	055222	241 02 0 00 777777 		ROT	AC,-1		;IN BOTH AC AND
 18951	055223	447 02 0 00 061125 		EQVB	AC,RAN		;REGISTER RAN ^
 18952	055224	630 02 0 00 060721 	ABJP1C:	TDZ	AC,[XWD 400002,2];MAKE C(AC) SO AOBJP WILL ALWAYS JUMP.
 18953	055225	200 00 0 00 000002 		MOVE	RAN1,AC		;SAVE C(AC) IN CASE OF ERROR.
 18954	055226	200 03 0 00 000002 		MOVE	AC1,AC		;SIMULATE AN
 18955	055227	270 03 0 00 060722 		ADD	AC1,[XWD 2,2]	;AOBJP INST.
 18956	055230	253 02 0 00 055232 		AOBJN	AC,.+2		;C(AC) IS POS...NO JUMP.
 18957	055231	252 02 0 00 055233 		AOBJP	AC,.+2		;C(AC) IS POS...JUMP.
 18958	055232	005 02 0 00 060723 		ER	AC,[ASCII /AOBJP/]
 18959	055233	312 02 0 00 000003 		CAME	AC,AC1		;C(AC) SHOULD = SIM. ANS.
 18960	055234	003 00 0 00 055233 		ERRI	RAN1,.-1
 18961						LOOP	ABJP1B,ABJP1C^
 18962	055235	367 01 0 00 055220 		SOJG	AC-1,ABJP1B		;ITERATION COUNTER
 18963	055236	200 02 0 00 061125 		MOVE	AC,RAN		;RESTORE RANDOM NUMBER
 18964	055237	321 01 0 00 055224 		JUMPL	AC-1,ABJP1C		;LOOP ON ERROR SWITCH ^
 18965
 18966
 18967

DSKBA DECSYSTEM 2020 BASIC INSTRUCTION RELIABILITY TEST (1), VER 0,1 	MACRO %53(1020) 12:59 29-Mar-78 Page 149
DSKBA3	MAC	29-Mar-78 12:27		DIAGNOSTIC SECTION THREE                                                           SEQ 0487

 18968
 18969
 18970					;TEST AOBJP, AOBJN. CHECK FOR JUMP/ NO JUMP AND
 18971					;CORRECT DATA IN AC.
 18972					;C(AC) = RAN.
 18973
 18974
 18975			000003			AC=3
 18976	055240				ABJN1A:	SETUP	100,0^
 18977			000004			AC1=<AC+1>&17
 18978			000005			AC2=<AC+2>&17
 18979			000006			AC3=<AC+3>&17
 18980			000007			AC4=<AC+4>&17
 18981			000010			AC5=<AC+5>&17
 18982			000001			RAN1=<AC-2>&17
 18983	055240	201 02 0 00 055240 		MOVEI	AC-1,.
 18984	055241	202 02 0 00 030051 		MOVEM	AC-1,TESTPC	;SETUP SUBTEST PC
 18985	055242	201 02 0 00 000002 		MOVEI	AC-1,<AC-1>&17	;INFORM ERROR ROUTINE
 18986	055243	202 02 0 00 061117 		MOVEM	AC-1,ERRLOP#	;WHICH AC IS USED FOR ITERATION
 18987	055244	201 02 0 00 000100 		MOVEI	AC-1,100		;ROUTINE WEIGHTING
 18988	055245	240 02 1 00 030656 		ASH	AC-1,@CMPLXT+0	;ROUTINE COMPLEXITY
 18989	055246	240 02 1 00 030655 		ASH	AC-1,@RTIME	;RUN TIME CONTROLLER ^
 18990	055247				ABJN1B:	RANDOM^
 18991	055247	200 03 0 00 061125 		MOVE	AC,RAN#		;GENERATE  PSEUDO RANDOM NUMBER
 18992	055250	270 03 0 00 060657 		ADD	AC,[142536475076]
 18993	055251	241 03 0 00 777777 		ROT	AC,-1		;IN BOTH AC AND
 18994	055252	447 03 0 00 061125 		EQVB	AC,RAN		;REGISTER RAN ^
 18995	055253	630 03 0 00 060722 	ABJN1C:	TDZ	AC,[XWD 2,2]	;MAKE C(AC) SO
 18996	055254	661 03 0 00 400000 		TLO	AC,400000	;AOBJN WILL ALWAYS JUMP.
 18997	055255	200 01 0 00 000003 		MOVE	RAN1,AC		;SAVE C(AC) IN CASE OF ERROR.
 18998	055256	200 04 0 00 000003 		MOVE	AC1,AC		;SIMULATE AN
 18999	055257	270 04 0 00 060722 		ADD	AC1,[XWD 2,2]	;AOBJN INST.
 19000	055260	252 03 0 00 055262 		AOBJP	AC,.+2		;C(AC) IS NEG...NO JUMP.
 19001	055261	253 03 0 00 055263 		AOBJN	AC,.+2		;C(AC) IS NEG...JUMP.
 19002	055262	005 03 0 00 060724 		ER	AC,[ASCII /AOBJN/]
 19003	055263	312 03 0 00 000004 		CAME	AC,AC1		;C(AC) SHOULD = SIM. ANS.
 19004	055264	003 01 0 00 055263 		ERRI	RAN1,.-1
 19005						LOOP	ABJN1B,ABJN1C^
 19006	055265	367 02 0 00 055247 		SOJG	AC-1,ABJN1B		;ITERATION COUNTER
 19007	055266	200 03 0 00 061125 		MOVE	AC,RAN		;RESTORE RANDOM NUMBER
 19008	055267	321 02 0 00 055253 		JUMPL	AC-1,ABJN1C		;LOOP ON ERROR SWITCH ^
 19009
 19010
 19011

DSKBA DECSYSTEM 2020 BASIC INSTRUCTION RELIABILITY TEST (1), VER 0,1 	MACRO %53(1020) 12:59 29-Mar-78 Page 150
DSKBA3	MAC	29-Mar-78 12:27		DIAGNOSTIC SECTION THREE                                                           SEQ 0488

 19012
 19013
 19014					;TEST AOBJP. CHECK TO SEE THAT AOBJP STOPS JUMPING
 19015					;AT THE RIGHT TIME.
 19016					;C(AC) = (377677,377677) ON FIRST AOBJP.
 19017
 19018
 19019			000004			AC=4
 19020	055270				ABJP2A:	SETUP	1,0^
 19021			000005			AC1=<AC+1>&17
 19022			000006			AC2=<AC+2>&17
 19023			000007			AC3=<AC+3>&17
 19024			000010			AC4=<AC+4>&17
 19025			000011			AC5=<AC+5>&17
 19026			000002			RAN1=<AC-2>&17
 19027	055270	201 03 0 00 055270 		MOVEI	AC-1,.
 19028	055271	202 03 0 00 030051 		MOVEM	AC-1,TESTPC	;SETUP SUBTEST PC
 19029	055272	201 03 0 00 000003 		MOVEI	AC-1,<AC-1>&17	;INFORM ERROR ROUTINE
 19030	055273	202 03 0 00 061117 		MOVEM	AC-1,ERRLOP#	;WHICH AC IS USED FOR ITERATION
 19031	055274	201 03 0 00 000001 		MOVEI	AC-1,1		;ROUTINE WEIGHTING
 19032	055275	240 03 1 00 030656 		ASH	AC-1,@CMPLXT+0	;ROUTINE COMPLEXITY
 19033	055276	240 03 1 00 030655 		ASH	AC-1,@RTIME	;RUN TIME CONTROLLER ^
 19034	055277	200 04 0 00 060725 	ABJP2B:	MOVE	AC,[XWD 377677,377677]
 19035	055300	200 02 0 00 000004 		MOVE	RAN1,AC		;SAVE C(AC) IN CASE OF ERROR.
 19036	055301	252 04 0 00 055301 		AOBJP	AC,.		;STAY HERE UNTIL C(AC) IS NEG.
 19037	055302	312 04 0 00 060717 		CAME	AC,[XWD 400000,400000];C(AC) SHOULD = THIS CONSTANT.
 19038	055303	004 04 0 00 060717 		ERROR	AC,[XWD 400000,400000]
 19039	055304	367 03 0 00 055277 		SOJG	AC-1,ABJP2B	;ITERATION COUNTER.
 19040	055305	321 03 0 00 055277 		JUMPL	AC-1,ABJP2B	;LOOP ON ERROR SWITCH.
DSKBA DECSYSTEM 2020 BASIC INSTRUCTION RELIABILITY TEST (1), VER 0,1 	MACRO %53(1020) 12:59 29-Mar-78 Page 151
DSKBA3	MAC	29-Mar-78 12:27		DIAGNOSTIC SECTION THREE                                                           SEQ 0489

 19041					;TEST AOBJN. CHECK TO SEE THAT AOBJN STOPS JUMPING
 19042					;AT THE RIGHT TIME.
 19043					;C(AC) = (777700,777700) ON FIRST AOBJN.
 19044
 19045
 19046			000005			AC=5
 19047	055306				ABJN2A:	SETUP	1,0^
 19048			000006			AC1=<AC+1>&17
 19049			000007			AC2=<AC+2>&17
 19050			000010			AC3=<AC+3>&17
 19051			000011			AC4=<AC+4>&17
 19052			000012			AC5=<AC+5>&17
 19053			000003			RAN1=<AC-2>&17
 19054	055306	201 04 0 00 055306 		MOVEI	AC-1,.
 19055	055307	202 04 0 00 030051 		MOVEM	AC-1,TESTPC	;SETUP SUBTEST PC
 19056	055310	201 04 0 00 000004 		MOVEI	AC-1,<AC-1>&17	;INFORM ERROR ROUTINE
 19057	055311	202 04 0 00 061117 		MOVEM	AC-1,ERRLOP#	;WHICH AC IS USED FOR ITERATION
 19058	055312	201 04 0 00 000001 		MOVEI	AC-1,1		;ROUTINE WEIGHTING
 19059	055313	240 04 1 00 030656 		ASH	AC-1,@CMPLXT+0	;ROUTINE COMPLEXITY
 19060	055314	240 04 1 00 030655 		ASH	AC-1,@RTIME	;RUN TIME CONTROLLER ^
 19061	055315	200 05 0 00 060726 	ABJN2B:	MOVE	AC,[XWD -100,-100]
 19062	055316	253 05 0 00 055316 		AOBJN	AC,.		;STAY HERE UNTIL C(AC) IS POS.
 19063	055317	312 05 0 00 060660 		CAME	AC,[XWD 0,0]	;C(AC) SHOULD = THIS CONSTANT.
 19064	055320	004 05 0 00 060660 		ERROR	AC,[XWD 0,0]
 19065	055321	367 04 0 00 055315 		SOJG	AC-1,ABJN2B	;ITERATION COUNTER.
 19066	055322	321 04 0 00 055315 		JUMPL	AC-1,ABJN2B	;LOOP ON ERROR SWITCH.
DSKBA DECSYSTEM 2020 BASIC INSTRUCTION RELIABILITY TEST (1), VER 0,1 	MACRO %53(1020) 12:59 29-Mar-78 Page 152
DSKBA3	MAC	29-Mar-78 12:27		DIAGNOSTIC SECTION THREE                                                           SEQ 0490

 19067					;JFFO RELIABILITY TEST
 19068
 19069			000001		YY=1
 19070			000010			AC=10
 19071			000015		RAN1=15
 19072	055323	201 05 0 00 000005 	JFOT0:	MOVEI	5,5
 19073	055324	202 05 0 00 061117 		MOVEM	5,ERRLOP
 19074	055325	201 00 0 00 001000 		MOVEI	0,1000
 19075	055326	202 00 0 00 061120 		MOVEM	0,JFCNTR#
 19076	055327				JFOT0A:	RANDOM^
 19077	055327	200 10 0 00 061125 		MOVE	AC,RAN#		;GENERATE  PSEUDO RANDOM NUMBER
 19078	055330	270 10 0 00 060657 		ADD	AC,[142536475076]
 19079	055331	241 10 0 00 777777 		ROT	AC,-1		;IN BOTH AC AND
 19080	055332	447 10 0 00 061125 		EQVB	AC,RAN		;REGISTER RAN ^
 19081	055333	241 10 0 00 000001 		ROT	AC,1
 19082	055334	447 10 0 00 000015 		EQVB	AC,RAN1
 19083	055335	200 02 0 00 061125 	JFOT1:	MOVE	2,RAN
 19084	055336	403 03 0 00 000004 		SETZB	3,4
 19085	055337	332 00 0 00 000002 		SKIPE	2
 19086	055340	603 02 0 00 400000 	JFOT2:	TLNE	2,400000
 19087	055341	254 00 0 00 055345 		JRST	JFOT3
 19088	055342	241 02 0 00 000001 		ROT	2,1
 19089	055343	201 04 0 00 000001 		MOVEI	4,1
 19090	055344	344 03 0 00 055340 		AOJA	3,JFOT2
 19091	055345	200 01 0 00 061125 	JFOT3:	MOVE	1,RAN
 19092	055346	200 02 0 00 000015 		MOVE	2,RAN1
 19093	055347	243 01 1 04 055363 		JFFO	1,@JFTAB(4)
 19094	055350	332 00 0 00 061125 		SKIPE	RAN
 19095	055351	006 01 0 00 000001 		ERM	1,YY		;C(AC) HAD A BIT SET SO PC SHOULD
 19096	055352	321 05 0 00 055335 		JUMPL	5,JFOT1	;HAVE GONE TO E.
 19097	055353	254 00 0 00 055366 		JRST	JFOND
 19098
 19099	055354	332 00 0 00 000002 	JFOT4:	SKIPE	2		;C(AC+1) GET CLEARED?
 19100	055355	006 02 0 00 000002 		ERM	2,YY+1		;NO.
 19101	055356	254 00 0 00 055361 		JRST	JFOT6
 19102	055357	312 02 0 00 000003 	JFOT5:	CAME	2,3		;C(AC+1) GET CORECT NUMBER OF LEADING ZERO BITS IN AC?
 19103	055360	006 02 0 00 000003 		ERM	2,YY+2		;NO.
 19104	055361	321 05 0 00 055335 	JFOT6:	JUMPL	5,JFOT1
 19105	055362	254 00 0 00 055366 		JRST	JFOND
 19106	055363	000000	055354		JFTAB:	XWD	0,JFOT4
 19107	055364	000000	055357			XWD	0,JFOT5
 19108
 19109	055365	252525	252525		K1:	252525252525
 19110
 19111	055366	372 00 0 00 061120 	JFOND:	SOSE	JFCNTR		;DECREMENT JFFO RAN NUM CNT.
 19112	055367	254 00 0 00 055327 		JRST	JFOT0A		;CONTINUE IF NON 0.
DSKBA DECSYSTEM 2020 BASIC INSTRUCTION RELIABILITY TEST (1), VER 0,1 	MACRO %53(1020) 12:59 29-Mar-78 Page 1
DSKBA4	MAC	29-Mar-78 12:28		DIAGNOSTIC SECTION FOUR                                                            SEQ 0491

 19113					SUBTTL	DIAGNOSTIC SECTION FOUR
 19114
 19115					;COMPUTE MEMORY SIZE TO BE USED
 19116
 19117	055370	037 10 0 00 000002 	MEMFD1:	SWITCH
 19118	055371	405 00 0 00 000777 		ANDI	0,777
 19119	055372	336 00 0 00 000000 		SKIPN	0		;MEMORY SIZE SPECIFIED ?
 19120	055373	254 00 0 00 055410 		JRST	MEMFD3		;NO, CHECK RELIAB & OPRSEL SWITCHES
 19121	055374	242 00 0 00 000011 	MEMFD2:	LSH	0,9		;POSITION HIGH ORDER
 19122	055375	660 00 0 00 000777 		TRO	0,777		;SET LOW ORDER BITS
 19123	055376	404 00 0 00 030147 		AND	0,MEMSIZ+1	;AND WITH ACTUAL MEMORY
 19124	055377	552 00 0 00 030147 		HRRZM	0,MEMSIZ+1	;SAVE
 19125	055400	311 00 0 00 030145 		CAML	0,MEMLOW	;ENOUGH MEMORY FOR TEST ?
 19126	055401	254 00 0 00 055415 		JRST	MEMFD4		;YES
 19127						MOVEI	[ASCIZ/
 19128	055402	201 00 0 00 060727 	MEMORY SIZE SELECTED TOO SMALL/]
 19129	055403	037 17 0 00 000001 		PNTALF
 19130	055404	201 00 0 00 030640 		MOVEI	PGMNAM
 19131	055405	037 17 0 00 000001 		PNTALF
 19132	055406	037 14 0 00 000004 		ERRHLT
 19133	055407	254 00 0 00 030600 		JRST	START
 19134
 19135	055410	200 00 0 00 030046 	MEMFD3:	MOVE	0,CONSW
 19136	055411	603 00 0 00 000410 		TLNE	RELIAB!OPRSEL	;IF EITHER RELIAB OR OPRSEL SWITCH SET
 19137	055412	254 00 0 00 055415 		JRST	MEMFD4		;USE ALL OF MEMORY
 19138	055413	201 00 0 00 000077 		MOVEI	77		;OTHERWISE LIMIT MEMORY TO 32K
 19139	055414	254 00 0 00 055374 		JRST	MEMFD2
 19140
 19141	055415	200 00 0 00 030046 	MEMFD4:	MOVE	0,CONSW
 19142	055416	603 00 0 00 000004 		TLNE	0,CHAIN		;RUNNING IN CHAIN MODE ?
 19143	055417	254 00 0 00 055435 		JRST	PART4		;YES
 19144	055420	332 00 0 00 030037 		SKIPE	USER		;RUNNING IN USER MODE ?
 19145	055421	254 00 0 00 055435 		JRST	PART4		;YES
 19146	055422	332 00 0 00 061121 		SKIPE	MEMONC
 19147	055423	254 00 0 00 055435 		JRST	PART4
 19148						PMSG	<TESTING >^
 19149	055424	037 02 0 00 060736 		PSIXM	[SIXBIT\TESTING _\]^
 19150	055425	200 00 0 00 030147 		MOVE	MEMSIZ+1
 19151	055426	271 00 0 00 000001 		ADDI	0,1
 19152	055427	231 00 0 00 002000 		IDIVI	^D1024
 19153	055430	037 15 0 00 000000 		PNTDEC			;PRINT MEMORY SIZE BEING USED
 19154						PMSG	<K^>^
 19155	055431	037 02 0 00 060740 		PSIXM	[SIXBIT\K^_\]^
 19156	055432	476 00 0 00 061121 		SETOM	MEMONC
 19157	055433	254 00 0 00 055435 		JRST	PART4
DSKBA DECSYSTEM 2020 BASIC INSTRUCTION RELIABILITY TEST (1), VER 0,1 	MACRO %53(1020) 12:59 29-Mar-78 Page 2
DSKBA4	MAC	29-Mar-78 12:28		DIAGNOSTIC SECTION FOUR                                                            SEQ 0492

 19158					;CONSTANTS
 19159
 19160	055434	740000	000000		FLAGS:	XWD	AROV!CRY0!CRY1!FOV,0
 19161
 19162					;COMPUTE BUFFER SIZE TO BE USED
 19163
 19164	055435				PART4:
 19165	055435	200 01 0 00 030147 	MST1:	MOVE	1,MEMSIZ+1	;GET MEMORY SIZE
 19166	055436	210 01 0 00 000001 		MOVN	1,1		;MAKE (AC1) CONTAIN
 19167	055437	270 01 0 00 030145 		ADD	1,MEMLOW	; - HIGHEST MEM LOC + END OF PROG
 19168	055440	204 01 0 00 000001 		MOVS	1,1		;IN THE LEFT HALF
 19169	055441	540 01 0 00 030145 		HRR	1,MEMLOW	;END OF PROG IN RIGHT HALF
 19170	055442	202 01 0 00 061114 		MOVEM	1,BLOK#		;SAVE
 19171
 19172	055443	200 01 0 00 030147 	MST2:	MOVE	1,MEMSIZ+1
 19173	055444	204 02 0 00 000001 		MOVS	2,1		;PUT HIGHEST MEMORY LOCATION
 19174	055445	540 02 0 00 000001 		HRR	2,1		;IN LEFT AND RIGHT HALF
 19175	055446	202 02 0 00 061123 		MOVEM	2,MODULO#	;OF MODULO
 19176	055447	210 01 0 00 000001 		MOVN	1,1		;MAKE C(AC1) CONTAIN
 19177	055450	270 01 0 00 030145 		ADD	1,MEMLOW	;-HIGHEST MEM LOC + END OF PROGRAM
 19178	055451	204 01 0 00 000001 		MOVS	1,1		;IN THE LEFT HALF
 19179	055452	540 01 0 00 030145 		HRR	1,MEMLOW	;END OF PROG IN RIGHT HALF
 19180	055453	202 01 0 00 061132 		MOVEM	1,WCBUF#	;SAVE
 19181	055454	274 01 0 00 060714 		SUB	1,[1,,0]
 19182	055455	202 01 0 00 061115 		MOVEM	1,BUFSIZ#
 19183	055456	254 00 0 00 055457 		JRST	MSADT		;GO PERFORM DIAGNOSTIC
DSKBA DECSYSTEM 2020 BASIC INSTRUCTION RELIABILITY TEST (1), VER 0,1 	MACRO %53(1020) 12:59 29-Mar-78 Page 3
DSKBA4	MAC	29-Mar-78 12:28		DIAGNOSTIC SECTION FOUR                                                            SEQ 0493

 19184						LALL
 19185					;FAST ADDRESS TEST TO CHECK MEMORY(S)
 19186
 19187			000004			AC=4
 19188	055457	201 03 0 00 055457 	MSADT:	MOVEI	AC-1,.
 19189	055460	202 03 0 00 030051 		MOVEM	AC-1,TESTPC	;SETUP SUBTEST PC
 19190	055461	201 03 0 00 000003 		MOVEI	AC-1,<AC-1>&17	;INFORM ERROR ROUTINE WHICH AC IS
 19191	055462	202 03 0 00 061117 		MOVEM	AC-1,ERRLOP#	;USED FOR KEEPING PROG IN LOOP.
 19192	055463	400 02 0 00 000000 		SETZ	2,		;CLEAR AC2.
 19193	055464	200 01 0 00 061114 		MOVE	1,BLOK		;MOVE(-TOP+END) END INTO AC1.
 19194	055465	332 00 0 00 030037 	MSADT2:	SKIPE	USER
 19195	055466	254 00 0 00 055470 		JRST	MSADT1
 19196	055467	7 000 20 0 00 040201 		CONO	APR,LDPAER!LAPRP1	 ;DISABLE PARITY
 19197	055470	202 01 0 01 000000 	MSADT1:	MOVEM	1,(1)		;MOVE TO MEM.
 19198	055471	312 01 0 01 000000 		CAME	1,(1)		;DOES IT COMPARE?
 19199	055472	002 01 0 00 000001 		ERRM	1,1		;NO. PNT ERR MES.
 19200	055473	332 00 0 00 030037 		SKIPE	USER
 19201	055474	254 00 0 00 055500 		JRST	MSADT3
 19202	055475	7 000 30 0 00 000200 	MSADT4:	CONSZ	APR,LPARER	;KL10 PARITY ERROR ?
 19203	055476	005 01 0 00 060741 		ER	1,[ASCII/PAR/]
 19204	055477	7 000 20 0 00 020201 		CONO	APR,LCPAER!LAPRP1
 19205	055500	321 03 0 02 055470 	MSADT3:	JUMPL	AC-1,MSADT1(2)	;LOOP ON ERROR SWITCH.
 19206	055501	253 01 0 00 055502 		AOBJN	1,.+1		;FIX FOR GREATER THAN 128K MEM
 19207	055502	603 01 0 00 770000 		TLNE	1,770000
 19208	055503	254 00 0 02 055470 		JRST	MSADT1(2)	;ADD ONE AND TRY NEXT MEM LOC.
 19209	055504	431 02 0 00 000001 		XORI	2,1		;THIS MAKES C(AC2)=1 OR 0.
 19210	055505	332 00 0 00 000002 		SKIPE	2		;C(AC2)=0?... GONE THROUGH 2 PASSES.
 19211	055506	254 00 0 00 055465 		JRST	MSADT2		;NO..DO 2ND PASS...JUST COMPARE.
 19212	055507	332 00 0 00 030037 		SKIPE	USER
 19213	055510	254 00 0 00 055512 		JRST	TST1
 19214	055511	7 000 20 0 00 121601 		CONO	APR,LAPRAL!LAPRP1
DSKBA DECSYSTEM 2020 BASIC INSTRUCTION RELIABILITY TEST (1), VER 0,1 	MACRO %53(1020) 12:59 29-Mar-78 Page 4
DSKBA4	MAC	29-Mar-78 12:28		DIAGNOSTIC SECTION FOUR                                                            SEQ 0494

 19215					;TEST MOVE, MOVEM, MOVES, HLLM, EXCH.  AFTER EXECUTING
 19216					;THESE 5 INSTRUCTIONS, THE C(AC) AND C(E) SHOULD STILL
 19217					;=RANDOM NUM.
 19218
 19219			000010			AC=10
 19220	055512				TST1:	MSETUP^
 19221			000011			AC1=<AC+1>&17
 19222			000012			AC2=<AC+2>&17
 19223			000013			AC3=<AC+3>&17
 19224			000014			AC4=<AC+4>&17
 19225	055512	201 07 0 00 055512 		MOVEI	AC-1,.
 19226	055513	202 07 0 00 030051 		MOVEM	AC-1,TESTPC	;SETUP SUBTEST PC
 19227	055514	201 07 0 00 000007 		MOVEI	AC-1,<AC-1>&17	;INFORM ERROR ROUTINE
 19228	055515	202 07 0 00 061117 		MOVEM	AC-1,ERRLOP#	;WHICH AC IS USED FOR ITERATION
 19229	055516	200 11 0 00 061114 		MOVE	AC1,BLOK#	;MOVE (-TOP+END,END) INTO AC1. ^
 19230	055517				TST1A:	MRANDOM^
 19231	055517	270 10 0 00 060657 		ADD	RA,[142536475076]
 19232	055520	241 10 0 00 777777 		ROT	RA,-1		;GENERATE A PSEUDO RANDOM NUMBER
 19233	055521	447 10 0 00 000010 		EQVB	RA,AC		;IN BOTH RA AND AC.
 19234	055522	200 10 0 00 000010 		MOVE	AC,RA		;ON ERROR...RESTORE C(AC) AND C(E)
 19235	055523	202 10 0 11 000000 		MOVEM	RA,(AC1)	;PUT RANDOM # IN 1ST MEMORY LOC.
 19236	055524	312 10 0 11 000000 		CAME	RA,(AC1)	;DID IT MAKE IT ?
 19237	055525	002 10 0 00 000010 		ERRM	RA,RA		;NO...PRINT ERROR MESSAGE. ^
 19238	055526	200 10 0 11 000000 	TST1B:	MOVE	AC,(AC1)	;DO A MOVE...C(AC)+C(E) STAY SAME.
 19239	055527	202 10 0 11 000000 		MOVEM	AC,(AC1)	;DO A MOVEM...C(AC)+C(E) STAY SAME.
 19240	055530	203 10 0 11 000000 		MOVES	AC,(AC1)	;DO A MOVES...C(AC)+C(E) STAY SAME.
 19241	055531	502 10 0 11 000000 		HLLM	AC,(AC1)	;DO A HLLM...C(AC)+C(E) STAY SAME.
 19242	055532	250 10 0 11 000000 		EXCH	AC,(AC1)	;DO AN EXCH...C(AC)+C(E) STAY SAME.
 19243	055533	312 10 0 00 000010 		CAME	AC,RA		;C(AC) SHOULD STILL=RAN. NUM.
 19244	055534	001 10 0 00 000010 		ERR	RA,RA
 19245	055535	312 10 0 11 000000 		CAME	RA,(AC1)	;C(E) SHOULD STILL=RAN.NUM.
 19246	055536	002 10 0 00 000010 		ERRM	RA,RA
 19247	055537	321 07 0 00 055522 		JUMPL	AC-1,TST1B-4	;LOOP ON ERROR SWITCH
 19248	055540	253 11 0 00 055541 		AOBJN	AC1,.+1
 19249	055541	603 11 0 00 770000 		TLNE	AC1,770000
 19250	055542	254 00 0 00 055517 		JRST	TST1A		;INC. TO TEST NEXT LOC.
DSKBA DECSYSTEM 2020 BASIC INSTRUCTION RELIABILITY TEST (1), VER 0,1 	MACRO %53(1020) 12:59 29-Mar-78 Page 5
DSKBA4	MAC	29-Mar-78 12:28		DIAGNOSTIC SECTION FOUR                                                            SEQ 0495

 19251
 19252					;TEST HLLS, HRRM, ANDM, SETAB.  AFTER
 19253					;EXECUTING THESE 4 INSTRUCTIONS, THE C(AC)+C(E)
 19254					;SHOULD STILL=RANDOM NUM.
 19255
 19256			000001			AC=1
 19257	055543				TST2:	MSETUP^
 19258			000002			AC1=<AC+1>&17
 19259			000003			AC2=<AC+2>&17
 19260			000004			AC3=<AC+3>&17
 19261			000005			AC4=<AC+4>&17
 19262	055543	201 00 0 00 055543 		MOVEI	AC-1,.
 19263	055544	202 00 0 00 030051 		MOVEM	AC-1,TESTPC	;SETUP SUBTEST PC
 19264	055545	201 00 0 00 000000 		MOVEI	AC-1,<AC-1>&17	;INFORM ERROR ROUTINE
 19265	055546	202 00 0 00 061117 		MOVEM	AC-1,ERRLOP#	;WHICH AC IS USED FOR ITERATION
 19266	055547	200 02 0 00 061114 		MOVE	AC1,BLOK#	;MOVE (-TOP+END,END) INTO AC1. ^
 19267	055550				TST2A:	MRANDOM^
 19268	055550	270 10 0 00 060657 		ADD	RA,[142536475076]
 19269	055551	241 10 0 00 777777 		ROT	RA,-1		;GENERATE A PSEUDO RANDOM NUMBER
 19270	055552	447 10 0 00 000001 		EQVB	RA,AC		;IN BOTH RA AND AC.
 19271	055553	200 01 0 00 000010 		MOVE	AC,RA		;ON ERROR...RESTORE C(AC) AND C(E)
 19272	055554	202 10 0 02 000000 		MOVEM	RA,(AC1)	;PUT RANDOM # IN 1ST MEMORY LOC.
 19273	055555	312 10 0 02 000000 		CAME	RA,(AC1)	;DID IT MAKE IT ?
 19274	055556	002 10 0 00 000010 		ERRM	RA,RA		;NO...PRINT ERROR MESSAGE. ^
 19275	055557	503 01 0 02 000000 	TST2B:	HLLS	AC,(AC1)	;DO A HLLS INST...C(AC)+C(E) STAY SAME
 19276	055560	542 01 0 02 000000 		HRRM	AC,(AC1)	;DO A HRRM INST...C(AC)+C(E) STAY SAME
 19277	055561	406 01 0 02 000000 		ANDM	AC,(AC1)	;DO A HRRS INST...C(AC)+C(E) STAY SAME
 19278	055562	427 01 0 02 000000 		SETAB	AC,(AC1)	;DO A SETMM INST...C(AC)+C(E) STAY SAME.
 19279	055563	312 01 0 00 000010 		CAME	AC,RA		;C(AC) SHOULD STILL=RAN. NUM
 19280	055564	001 10 0 00 000010 		ERR	RA,RA
 19281	055565	312 10 0 02 000000 		CAME	RA,(AC1)	;C(E) SHOULD STILL=RAN NUM
 19282	055566	002 10 0 00 000010 		ERRM	RA,RA
 19283	055567	321 00 0 00 055553 		JUMPL	AC-1,TST2B-4	;LOOP ON ERROR SWITCH
 19284	055570	253 02 0 00 055571 		AOBJN	AC1,.+1
 19285	055571	603 02 0 00 770000 		TLNE	AC1,770000
 19286	055572	254 00 0 00 055550 		JRST	TST2A		;INC TO TEST NEXT LOC.
 19287
DSKBA DECSYSTEM 2020 BASIC INSTRUCTION RELIABILITY TEST (1), VER 0,1 	MACRO %53(1020) 12:59 29-Mar-78 Page 6
DSKBA4	MAC	29-Mar-78 12:28		DIAGNOSTIC SECTION FOUR                                                            SEQ 0496

 19288
 19289					;TEST SETMB, HRRS, IORB, SETAM, SETMM.  AFTER
 19290					;EXECUTING THESE 5 INSTRUCTIONS, THE C(AC)+C(E)
 19291					;SHOULD STILL=RANDOM NUMBER
 19292
 19293			000002			AC=2
 19294	055573				TST3:	MSETUP^
 19295			000003			AC1=<AC+1>&17
 19296			000004			AC2=<AC+2>&17
 19297			000005			AC3=<AC+3>&17
 19298			000006			AC4=<AC+4>&17
 19299	055573	201 01 0 00 055573 		MOVEI	AC-1,.
 19300	055574	202 01 0 00 030051 		MOVEM	AC-1,TESTPC	;SETUP SUBTEST PC
 19301	055575	201 01 0 00 000001 		MOVEI	AC-1,<AC-1>&17	;INFORM ERROR ROUTINE
 19302	055576	202 01 0 00 061117 		MOVEM	AC-1,ERRLOP#	;WHICH AC IS USED FOR ITERATION
 19303	055577	200 03 0 00 061114 		MOVE	AC1,BLOK#	;MOVE (-TOP+END,END) INTO AC1. ^
 19304	055600				TST3A:	MRANDOM^
 19305	055600	270 10 0 00 060657 		ADD	RA,[142536475076]
 19306	055601	241 10 0 00 777777 		ROT	RA,-1		;GENERATE A PSEUDO RANDOM NUMBER
 19307	055602	447 10 0 00 000002 		EQVB	RA,AC		;IN BOTH RA AND AC.
 19308	055603	200 02 0 00 000010 		MOVE	AC,RA		;ON ERROR...RESTORE C(AC) AND C(E)
 19309	055604	202 10 0 03 000000 		MOVEM	RA,(AC1)	;PUT RANDOM # IN 1ST MEMORY LOC.
 19310	055605	312 10 0 03 000000 		CAME	RA,(AC1)	;DID IT MAKE IT ?
 19311	055606	002 10 0 00 000010 		ERRM	RA,RA		;NO...PRINT ERROR MESSAGE. ^
 19312	055607	417 02 0 03 000000 	TST3B:	SETMB	AC,(AC1)	;DO A SETMB. INST...C(AC)+C(E) STAY SAME
 19313	055610	543 02 0 03 000000 		HRRS	AC,(AC1)	;DO AN ANDM INST...C(AC)+C(E) STAY SAME
 19314	055611	437 02 0 03 000000 		IORB	AC,(AC1)	;DO AN ANDB INST...C(AC)+C(E) STAY SAME
 19315	055612	426 02 0 03 000000 		SETAM	AC,(AC1)	;DO A SETAM INST...C(AC)+C(E) STAY SAME
 19316	055613	416 02 0 03 000000 		SETMM	AC,(AC1)	;DO A SETAB INST...C(AC)+C(E) STAY SAME
 19317	055614	312 02 0 00 000010 		CAME	AC,RA		;C(AC) SHOULD STILL=RAN. NUM.
 19318	055615	001 10 0 00 000010 		ERR	RA,RA
 19319	055616	312 10 0 03 000000 		CAME	RA,(AC1)	;C(E) SHOULD STILL=RAN. NUM.
 19320	055617	002 10 0 00 000010 		ERRM	RA,RA
 19321	055620	321 01 0 00 055603 		JUMPL	AC-1,TST3B-4	;LOOP ON ERROR SWITCH
 19322	055621	253 03 0 00 055622 		AOBJN	AC1,.+1
 19323	055622	603 03 0 00 770000 		TLNE	AC1,770000
 19324	055623	254 00 0 00 055600 		JRST	TST3A		;INC TO TEST NEXT LOC.
DSKBA DECSYSTEM 2020 BASIC INSTRUCTION RELIABILITY TEST (1), VER 0,1 	MACRO %53(1020) 12:59 29-Mar-78 Page 7
DSKBA4	MAC	29-Mar-78 12:28		DIAGNOSTIC SECTION FOUR                                                            SEQ 0497

 19325
 19326					;TEST IORM, ANDB, SETCMM, SETCMB.  AFTER
 19327					;EXECUTING THESE 4 INSTRUCTIONS, THE C(AC)+C(E)
 19328					;SHOULD STILL=RANDOM NUMBER.
 19329
 19330			000003			AC=3
 19331	055624				TST4:	MSETUP^
 19332			000004			AC1=<AC+1>&17
 19333			000005			AC2=<AC+2>&17
 19334			000006			AC3=<AC+3>&17
 19335			000007			AC4=<AC+4>&17
 19336	055624	201 02 0 00 055624 		MOVEI	AC-1,.
 19337	055625	202 02 0 00 030051 		MOVEM	AC-1,TESTPC	;SETUP SUBTEST PC
 19338	055626	201 02 0 00 000002 		MOVEI	AC-1,<AC-1>&17	;INFORM ERROR ROUTINE
 19339	055627	202 02 0 00 061117 		MOVEM	AC-1,ERRLOP#	;WHICH AC IS USED FOR ITERATION
 19340	055630	200 04 0 00 061114 		MOVE	AC1,BLOK#	;MOVE (-TOP+END,END) INTO AC1. ^
 19341	055631				TST4A:	MRANDOM^
 19342	055631	270 10 0 00 060657 		ADD	RA,[142536475076]
 19343	055632	241 10 0 00 777777 		ROT	RA,-1		;GENERATE A PSEUDO RANDOM NUMBER
 19344	055633	447 10 0 00 000003 		EQVB	RA,AC		;IN BOTH RA AND AC.
 19345	055634	200 03 0 00 000010 		MOVE	AC,RA		;ON ERROR...RESTORE C(AC) AND C(E)
 19346	055635	202 10 0 04 000000 		MOVEM	RA,(AC1)	;PUT RANDOM # IN 1ST MEMORY LOC.
 19347	055636	312 10 0 04 000000 		CAME	RA,(AC1)	;DID IT MAKE IT ?
 19348	055637	002 10 0 00 000010 		ERRM	RA,RA		;NO...PRINT ERROR MESSAGE. ^
 19349									;IF ORIGIN C(AC)=0011,C(E)=0011
 19350	055640	436 03 0 04 000000 	TST4B:	IORM	AC,(AC1)	;C(AC)=0011, C(E)=0011
 19351	055641	407 03 0 04 000000 		ANDB	AC,(AC1)	;C(AC)=0011, C(E)=0011
 19352	055642	462 03 0 04 000000 		SETCMM	AC,(AC1)	;C(AC)=0011, C(E)=1100
 19353	055643	463 03 0 04 000000 		SETCMB	AC,(AC1)	;C(AC)=0011, C(E)=0011
 19354	055644	312 03 0 00 000010 		CAME	AC,RA		;C(AC) SHOULD STILL=RAN. NUM.
 19355	055645	001 10 0 00 000010 		ERR	RA,RA
 19356	055646	312 10 0 04 000000 		CAME	RA,(AC1)	;C(E) SHOULD STILL=RAN. NUM.
 19357	055647	002 10 0 00 000010 		ERRM	RA,RA
 19358	055650	321 02 0 00 055634 		JUMPL	AC-1,TST4B-4	;LOOP ON ERROR SWITCH
 19359	055651	253 04 0 00 055652 		AOBJN	AC1,.+1
 19360	055652	603 04 0 00 770000 		TLNE	AC1,770000
 19361	055653	254 00 0 00 055631 		JRST	TST4A		;INC TO TEST NEXT LOC.
DSKBA DECSYSTEM 2020 BASIC INSTRUCTION RELIABILITY TEST (1), VER 0,1 	MACRO %53(1020) 12:59 29-Mar-78 Page 8
DSKBA4	MAC	29-Mar-78 12:28		DIAGNOSTIC SECTION FOUR                                                            SEQ 0498

 19362
 19363					;TEST MOVSM, MOVSS, MOVNM, MOVNS. AFTER
 19364					;EXECUTING THESE 4 INSTRUCTIONS, THE C(AC)+C(E)
 19365					;SHOULD STILL=RANDOM NUMBER
 19366
 19367			000004			AC=4
 19368	055654				TST5:	MSETUP^
 19369			000005			AC1=<AC+1>&17
 19370			000006			AC2=<AC+2>&17
 19371			000007			AC3=<AC+3>&17
 19372			000010			AC4=<AC+4>&17
 19373	055654	201 03 0 00 055654 		MOVEI	AC-1,.
 19374	055655	202 03 0 00 030051 		MOVEM	AC-1,TESTPC	;SETUP SUBTEST PC
 19375	055656	201 03 0 00 000003 		MOVEI	AC-1,<AC-1>&17	;INFORM ERROR ROUTINE
 19376	055657	202 03 0 00 061117 		MOVEM	AC-1,ERRLOP#	;WHICH AC IS USED FOR ITERATION
 19377	055660	200 05 0 00 061114 		MOVE	AC1,BLOK#	;MOVE (-TOP+END,END) INTO AC1. ^
 19378	055661				TST5A:	MRANDOM^
 19379	055661	270 10 0 00 060657 		ADD	RA,[142536475076]
 19380	055662	241 10 0 00 777777 		ROT	RA,-1		;GENERATE A PSEUDO RANDOM NUMBER
 19381	055663	447 10 0 00 000004 		EQVB	RA,AC		;IN BOTH RA AND AC.
 19382	055664	200 04 0 00 000010 		MOVE	AC,RA		;ON ERROR...RESTORE C(AC) AND C(E)
 19383	055665	202 10 0 05 000000 		MOVEM	RA,(AC1)	;PUT RANDOM # IN 1ST MEMORY LOC.
 19384	055666	312 10 0 05 000000 		CAME	RA,(AC1)	;DID IT MAKE IT ?
 19385	055667	002 10 0 00 000010 		ERRM	RA,RA		;NO...PRINT ERROR MESSAGE. ^
 19386									;IF C(AC)+C(E)=(0011)0101
 19387	055670	206 04 0 05 000000 	TST5B:	MOVSM	AC,(AC1)	;C(AC)=(0011)0101, C(E)=(0101)0011
 19388	055671	207 04 0 05 000000 		MOVSS	AC,(AC1)	;C(AC)=(0011)0101, C(E)=(0011)0101
 19389	055672	212 04 0 05 000000 		MOVNM	AC,(AC1)	;C(AC)=(0011)0101, C(E)=(1100)1011
 19390	055673	213 04 0 05 000000 		MOVNS	AC,(AC1)	;C(AC)=(0011)0101, C(E)=(0011)0101
 19391	055674	312 04 0 00 000010 		CAME	AC,RA		;C(AC) SHOULD STILL=RAN. NUM
 19392	055675	001 10 0 00 000010 		ERR	RA,RA
 19393	055676	312 10 0 05 000000 		CAME	RA,(AC1)	;C(E) SHOULD STILL=RAN. NUM.
 19394	055677	002 10 0 00 000010 		ERRM	RA,RA
 19395	055700	321 03 0 00 055664 		JUMPL	AC-1,TST5B-4	;LOOP ON ERROR SWITCH
 19396	055701	253 05 0 00 055702 		AOBJN	AC1,.+1
 19397	055702	603 05 0 00 770000 		TLNE	AC1,770000
 19398	055703	254 00 0 00 055661 		JRST	TST5A		;INC TO TEST NEXT LOC.
DSKBA DECSYSTEM 2020 BASIC INSTRUCTION RELIABILITY TEST (1), VER 0,1 	MACRO %53(1020) 12:59 29-Mar-78 Page 9
DSKBA4	MAC	29-Mar-78 12:28		DIAGNOSTIC SECTION FOUR                                                            SEQ 0499

 19399
 19400					;TEST HRLM, HLRN, MOVSS, XORM, XORB.  AFTER
 19401					;EXECUTING THESE 5 INSTRUCTIONS, THE C(AC)+C(E)
 19402					;SHOULD STILL=RANDOM NUMBER.
 19403
 19404			000005			AC=5
 19405	055704				TST6:	MSETUP^
 19406			000006			AC1=<AC+1>&17
 19407			000007			AC2=<AC+2>&17
 19408			000010			AC3=<AC+3>&17
 19409			000011			AC4=<AC+4>&17
 19410	055704	201 04 0 00 055704 		MOVEI	AC-1,.
 19411	055705	202 04 0 00 030051 		MOVEM	AC-1,TESTPC	;SETUP SUBTEST PC
 19412	055706	201 04 0 00 000004 		MOVEI	AC-1,<AC-1>&17	;INFORM ERROR ROUTINE
 19413	055707	202 04 0 00 061117 		MOVEM	AC-1,ERRLOP#	;WHICH AC IS USED FOR ITERATION
 19414	055710	200 06 0 00 061114 		MOVE	AC1,BLOK#	;MOVE (-TOP+END,END) INTO AC1. ^
 19415	055711				TST6A:	MRANDOM^
 19416	055711	270 10 0 00 060657 		ADD	RA,[142536475076]
 19417	055712	241 10 0 00 777777 		ROT	RA,-1		;GENERATE A PSEUDO RANDOM NUMBER
 19418	055713	447 10 0 00 000005 		EQVB	RA,AC		;IN BOTH RA AND AC.
 19419	055714	200 05 0 00 000010 		MOVE	AC,RA		;ON ERROR...RESTORE C(AC) AND C(E)
 19420	055715	202 10 0 06 000000 		MOVEM	RA,(AC1)	;PUT RANDOM # IN 1ST MEMORY LOC.
 19421	055716	312 10 0 06 000000 		CAME	RA,(AC1)	;DID IT MAKE IT ?
 19422	055717	002 10 0 00 000010 		ERRM	RA,RA		;NO...PRINT ERROR MESSAGE. ^
 19423									;IF C(AC)+C(E)=(0011)0101
 19424	055720	506 05 0 06 000000 	TST6B:	HRLM	AC,(AC1)	;C(AC)=(0011)0101, C(E)=(0101)0101
 19425	055721	546 05 0 06 000000 		HLRM	AC,(AC1)	;C(AC)=(0011)0101, C(E)=(0101)0011
 19426	055722	207 05 0 06 000000 		MOVSS	AC,(AC1)	;C(AC)=(0011)0101, C(E)=(0011)0101
 19427	055723	432 05 0 06 000000 		XORM	AC,(AC1)	;C(AC)=(0011)0101, C(E)=(0000)0000
 19428	055724	433 05 0 06 000000 		XORB	AC,(AC1)	;C(AC)=(0011)0101, C(E)=(0011)0101
 19429	055725	312 05 0 00 000010 		CAME	AC,RA		;C(AC) SHOULD STILL=RAN. NUM
 19430	055726	001 10 0 00 000010 		ERR	RA,RA
 19431	055727	312 10 0 06 000000 		CAME	RA,(AC1)	;C(E) SHOULD STILL=RAN. NUM.
 19432	055730	002 10 0 00 000010 		ERRM	RA,RA
 19433	055731	321 04 0 00 055714 		JUMPL	AC-1,TST6B-4	;LOOP ON ERROR SWITCH.
 19434	055732	253 06 0 00 055733 		AOBJN	AC1,.+1
 19435	055733	603 06 0 00 770000 		TLNE	AC1,770000
 19436	055734	254 00 0 00 055711 		JRST	TST6A		;INC TO TEST NEXT LOC.
DSKBA DECSYSTEM 2020 BASIC INSTRUCTION RELIABILITY TEST (1), VER 0,1 	MACRO %53(1020) 12:59 29-Mar-78 Page 10
DSKBA4	MAC	29-Mar-78 12:28		DIAGNOSTIC SECTION FOUR                                                            SEQ 0500

 19437
 19438					;TEST EQVM, ORCMM, ORCAM, EQVB. AFTER
 19439					;EXECUTING THESE 4 INSTRUCTIONS, THE C(AC)+
 19440					;C(E) SHOULD STILL=RANDOM NUMBER
 19441
 19442			000006			AC=6
 19443	055735				TST7:	MSETUP^
 19444			000007			AC1=<AC+1>&17
 19445			000010			AC2=<AC+2>&17
 19446			000011			AC3=<AC+3>&17
 19447			000012			AC4=<AC+4>&17
 19448	055735	201 05 0 00 055735 		MOVEI	AC-1,.
 19449	055736	202 05 0 00 030051 		MOVEM	AC-1,TESTPC	;SETUP SUBTEST PC
 19450	055737	201 05 0 00 000005 		MOVEI	AC-1,<AC-1>&17	;INFORM ERROR ROUTINE
 19451	055740	202 05 0 00 061117 		MOVEM	AC-1,ERRLOP#	;WHICH AC IS USED FOR ITERATION
 19452	055741	200 07 0 00 061114 		MOVE	AC1,BLOK#	;MOVE (-TOP+END,END) INTO AC1. ^
 19453	055742				TST7A:	MRANDOM^
 19454	055742	270 10 0 00 060657 		ADD	RA,[142536475076]
 19455	055743	241 10 0 00 777777 		ROT	RA,-1		;GENERATE A PSEUDO RANDOM NUMBER
 19456	055744	447 10 0 00 000006 		EQVB	RA,AC		;IN BOTH RA AND AC.
 19457	055745	200 06 0 00 000010 		MOVE	AC,RA		;ON ERROR...RESTORE C(AC) AND C(E)
 19458	055746	202 10 0 07 000000 		MOVEM	RA,(AC1)	;PUT RANDOM # IN 1ST MEMORY LOC.
 19459	055747	312 10 0 07 000000 		CAME	RA,(AC1)	;DID IT MAKE IT ?
 19460	055750	002 10 0 00 000010 		ERRM	RA,RA		;NO...PRINT ERROR MESSAGE. ^
 19461									;IF C(AC)+C(E)=(0011)0101
 19462	055751	446 06 0 07 000000 	TST7B:	EQVM	AC,(AC1)	;C(AC)=(0011)0101, C(E)=(1111)1111
 19463	055752	466 06 0 07 000000 		ORCMM	AC,(AC1)	;C(AC)=(0011)0101, C(E)=(0011)0101
 19464	055753	456 06 0 07 000000 		ORCAM	AC,(AC1)	;C(AC)=(0011)0101, C(E)=(1111)1111
 19465	055754	447 06 0 07 000000 		EQVB	AC,(AC1)	;C(AC)=(0011)0101, C(E)=(0011)0101
 19466	055755	312 06 0 00 000010 		CAME	AC,RA		;C(AC) SHOULD STILL=RAN. NUM
 19467	055756	001 10 0 00 000010 		ERR	RA,RA
 19468	055757	312 10 0 07 000000 		CAME	RA,(AC1)	;C(E) SHOULD STILL=RAN. NUM
 19469	055760	002 10 0 00 000010 		ERRM	RA,RA
 19470	055761	321 05 0 00 055745 		JUMPL	AC-1,TST7B-4	;LOOP ON ERROR SWITCH.
 19471	055762	253 07 0 00 055763 		AOBJN	AC1,.+1
 19472	055763	603 07 0 00 770000 		TLNE	AC1,770000
 19473	055764	254 00 0 00 055742 		JRST	TST7A		;INC TO TEST NEXT LOC.
DSKBA DECSYSTEM 2020 BASIC INSTRUCTION RELIABILITY TEST (1), VER 0,1 	MACRO %53(1020) 12:59 29-Mar-78 Page 11
DSKBA4	MAC	29-Mar-78 12:28		DIAGNOSTIC SECTION FOUR                                                            SEQ 0501

 19474
 19475					;TEST ANDCAM, ANDCMM, ANDCBB, SETCAB.  AFTER
 19476					;EXECUTING THESE 4 INSTRUCTIONS, THE C(AC)+
 19477					;C(E) SHOULD STILL=RANDOM NUMBER.
 19478
 19479			000012			AC=12
 19480	055765				TST10:	MSETUP^
 19481			000013			AC1=<AC+1>&17
 19482			000014			AC2=<AC+2>&17
 19483			000015			AC3=<AC+3>&17
 19484			000016			AC4=<AC+4>&17
 19485	055765	201 11 0 00 055765 		MOVEI	AC-1,.
 19486	055766	202 11 0 00 030051 		MOVEM	AC-1,TESTPC	;SETUP SUBTEST PC
 19487	055767	201 11 0 00 000011 		MOVEI	AC-1,<AC-1>&17	;INFORM ERROR ROUTINE
 19488	055770	202 11 0 00 061117 		MOVEM	AC-1,ERRLOP#	;WHICH AC IS USED FOR ITERATION
 19489	055771	200 13 0 00 061114 		MOVE	AC1,BLOK#	;MOVE (-TOP+END,END) INTO AC1. ^
 19490	055772				TST10A:	MRANDOM^
 19491	055772	270 10 0 00 060657 		ADD	RA,[142536475076]
 19492	055773	241 10 0 00 777777 		ROT	RA,-1		;GENERATE A PSEUDO RANDOM NUMBER
 19493	055774	447 10 0 00 000012 		EQVB	RA,AC		;IN BOTH RA AND AC.
 19494	055775	200 12 0 00 000010 		MOVE	AC,RA		;ON ERROR...RESTORE C(AC) AND C(E)
 19495	055776	202 10 0 13 000000 		MOVEM	RA,(AC1)	;PUT RANDOM # IN 1ST MEMORY LOC.
 19496	055777	312 10 0 13 000000 		CAME	RA,(AC1)	;DID IT MAKE IT ?
 19497	056000	002 10 0 00 000010 		ERRM	RA,RA		;NO...PRINT ERROR MESSAGE. ^
 19498									;IF C(AC)+C(E)=(0011)0101,
 19499	056001	412 12 0 13 000000 	TST10B:	ANDCAM	AC,(AC1)	;C(AC)=(0011)0101, C(E)=(0000)0000
 19500	056002	422 12 0 13 000000 		ANDCMM	AC,(AC1)	;C(AC)=(0011)0101, C(E)=(0011)0101
 19501	056003	443 12 0 13 000000 		ANDCBB	AC,(AC1)	;C(AC)=(1100)1010, C(E)=(1100)1010
 19502	056004	453 12 0 13 000000 		SETCAB	AC,(AC1)	;C(AC)=(0011)0101, C(E)=(0011)0101
 19503	056005	312 12 0 00 000010 		CAME	AC,RA		;C(AC) SHOULD STILL=RAN. NUM.
 19504	056006	001 10 0 00 000010 		ERR	RA,RA
 19505	056007	312 10 0 13 000000 		CAME	RA,(AC1)	;C(E) SHOULD STILL=RAN. NUM.
 19506	056010	002 10 0 00 000010 		ERRM	RA,RA
 19507	056011	321 11 0 00 055775 		JUMPL	AC-1,TST10B-4	;LOOP ON ERROR SWITCH.
 19508	056012	253 13 0 00 056013 		AOBJN	AC1,.+1
 19509	056013	603 13 0 00 770000 		TLNE	AC1,770000
 19510	056014	254 00 0 00 055772 		JRST	TST10A		;INC TO TEST NEXT LOC.
DSKBA DECSYSTEM 2020 BASIC INSTRUCTION RELIABILITY TEST (1), VER 0,1 	MACRO %53(1020) 12:59 29-Mar-78 Page 12
DSKBA4	MAC	29-Mar-78 12:28		DIAGNOSTIC SECTION FOUR                                                            SEQ 0502

 19511
 19512					;TEST SETCAM, ORCAB, ORCBM, AND CAB, AFTER
 19513					;EXECUTING THESE 4 INSTRUCTIONS, THE C(AC)+
 19514					;C(E) SHOULD STILL=RANDOM NUMBER.
 19515
 19516			000012			AC=12
 19517	056015				TST11:	MSETUP^
 19518			000013			AC1=<AC+1>&17
 19519			000014			AC2=<AC+2>&17
 19520			000015			AC3=<AC+3>&17
 19521			000016			AC4=<AC+4>&17
 19522	056015	201 11 0 00 056015 		MOVEI	AC-1,.
 19523	056016	202 11 0 00 030051 		MOVEM	AC-1,TESTPC	;SETUP SUBTEST PC
 19524	056017	201 11 0 00 000011 		MOVEI	AC-1,<AC-1>&17	;INFORM ERROR ROUTINE
 19525	056020	202 11 0 00 061117 		MOVEM	AC-1,ERRLOP#	;WHICH AC IS USED FOR ITERATION
 19526	056021	200 13 0 00 061114 		MOVE	AC1,BLOK#	;MOVE (-TOP+END,END) INTO AC1. ^
 19527	056022				TST11A:	MRANDOM^
 19528	056022	270 10 0 00 060657 		ADD	RA,[142536475076]
 19529	056023	241 10 0 00 777777 		ROT	RA,-1		;GENERATE A PSEUDO RANDOM NUMBER
 19530	056024	447 10 0 00 000012 		EQVB	RA,AC		;IN BOTH RA AND AC.
 19531	056025	200 12 0 00 000010 		MOVE	AC,RA		;ON ERROR...RESTORE C(AC) AND C(E)
 19532	056026	202 10 0 13 000000 		MOVEM	RA,(AC1)	;PUT RANDOM # IN 1ST MEMORY LOC.
 19533	056027	312 10 0 13 000000 		CAME	RA,(AC1)	;DID IT MAKE IT ?
 19534	056030	002 10 0 00 000010 		ERRM	RA,RA		;NO...PRINT ERROR MESSAGE. ^
 19535									;IF C(AC)+C(E)=(0011)0101,
 19536	056031	452 12 0 13 000000 	TST11B:	SETCAM	AC,(AC1)	;C(AC)=(0011)0101, C(E)=(1100)1010
 19537	056032	457 12 0 13 000000 		ORCAB	AC,(AC1)	;C(AC)=(1100)1010, C(E)=(1100)1010
 19538	056033	472 12 0 13 000000 		ORCBM	AC,(AC1)	;C(AC)=(1100)1010, C(E)=(0011)0101
 19539	056034	413 12 0 13 000000 		ANDCAB	AC,(AC1)	;C(AC)=(0011)0101, C(E)=(0011)0101
 19540	056035	312 12 0 00 000010 		CAME	AC,RA		;C(AC) SHOULD STILL=RAN. NUM.
 19541	056036	001 10 0 00 000010 		ERR	RA,RA
 19542	056037	312 10 0 13 000000 		CAME	RA,(AC1)	;C(E) SHOULD STILL=RAN. NUM.
 19543	056040	002 10 0 00 000010 		ERRM	RA,RA
 19544	056041	321 11 0 00 056025 		JUMPL	AC-1,TST11B-4	;LOOP ON ERROR SWITCH.
 19545	056042	253 13 0 00 056043 		AOBJN	AC1,.+1
 19546	056043	603 13 0 00 770000 		TLNE	AC1,770000
 19547	056044	254 00 0 00 056022 		JRST	TST11A		;INC TO TEST NEXT LOC.
DSKBA DECSYSTEM 2020 BASIC INSTRUCTION RELIABILITY TEST (1), VER 0,1 	MACRO %53(1020) 12:59 29-Mar-78 Page 13
DSKBA4	MAC	29-Mar-78 12:28		DIAGNOSTIC SECTION FOUR                                                            SEQ 0503

 19548
 19549					;TEST SETZM, ANDCBM, ORCMB. AFTER
 19550					;EXECUTING THESE 3 INSTRUCTIONS, THE C(AC)
 19551					;+C(E) SHOULD=RANDOM NUMBER.
 19552
 19553			000013			AC=13
 19554	056045				TST12:	MSETUP^
 19555			000014			AC1=<AC+1>&17
 19556			000015			AC2=<AC+2>&17
 19557			000016			AC3=<AC+3>&17
 19558			000017			AC4=<AC+4>&17
 19559	056045	201 12 0 00 056045 		MOVEI	AC-1,.
 19560	056046	202 12 0 00 030051 		MOVEM	AC-1,TESTPC	;SETUP SUBTEST PC
 19561	056047	201 12 0 00 000012 		MOVEI	AC-1,<AC-1>&17	;INFORM ERROR ROUTINE
 19562	056050	202 12 0 00 061117 		MOVEM	AC-1,ERRLOP#	;WHICH AC IS USED FOR ITERATION
 19563	056051	200 14 0 00 061114 		MOVE	AC1,BLOK#	;MOVE (-TOP+END,END) INTO AC1. ^
 19564	056052				TST12A:	MRANDOM^
 19565	056052	270 10 0 00 060657 		ADD	RA,[142536475076]
 19566	056053	241 10 0 00 777777 		ROT	RA,-1		;GENERATE A PSEUDO RANDOM NUMBER
 19567	056054	447 10 0 00 000013 		EQVB	RA,AC		;IN BOTH RA AND AC.
 19568	056055	200 13 0 00 000010 		MOVE	AC,RA		;ON ERROR...RESTORE C(AC) AND C(E)
 19569	056056	202 10 0 14 000000 		MOVEM	RA,(AC1)	;PUT RANDOM # IN 1ST MEMORY LOC.
 19570	056057	312 10 0 14 000000 		CAME	RA,(AC1)	;DID IT MAKE IT ?
 19571	056060	002 10 0 00 000010 		ERRM	RA,RA		;NO...PRINT ERROR MESSAGE. ^
 19572									;IF C(AC(+C(E)=(0011)0101
 19573	056061	402 13 0 14 000000 	TST12B:	SETZM	AC,(AC1)	;C(AC)=(0011)0101, C(E)=(0000)0000
 19574	056062	442 13 0 14 000000 		ANDCBM	AC,(AC1)	;C(AC)=(0011)0101, C(E)=(1100)1010
 19575	056063	467 13 0 14 000000 		ORCMB	AC,(AC1)	;C(AC)=(0011)0101, C(E)=(0011)0101
 19576	056064	312 13 0 00 000010 		CAME	AC,RA		;C(AC) SHOULD STILL=RAN. NUM.
 19577	056065	001 10 0 00 000010 		ERR	RA,RA
 19578	056066	312 10 0 14 000000 		CAME	RA,(AC1)	;C(E) SHOULD STILL=RAN. NUM.
 19579	056067	002 10 0 00 000010 		ERRM	RA,RA
 19580	056070	321 12 0 00 056055 		JUMPL	AC-1,TST12B-4	;LOOP ON ERROR SWITCH.
 19581	056071	253 14 0 00 056072 		AOBJN	AC1,.+1
 19582	056072	603 14 0 00 770000 		TLNE	AC1,770000
 19583	056073	254 00 0 00 056052 		JRST	TST12A		;INC TO TEST NEXT LOC.
DSKBA DECSYSTEM 2020 BASIC INSTRUCTION RELIABILITY TEST (1), VER 0,1 	MACRO %53(1020) 12:59 29-Mar-78 Page 14
DSKBA4	MAC	29-Mar-78 12:28		DIAGNOSTIC SECTION FOUR                                                            SEQ 0504

 19584
 19585					;TEST HRLS, HLRS. CHECK FOR
 19586					;CORRECT DATA IN THE C(AC) AND C(E).
 19587					;C(AC)+C(E)=RAN. NUM.
 19588
 19589			000001			AC=1
 19590	056074				TST13:	MSETUP^
 19591			000002			AC1=<AC+1>&17
 19592			000003			AC2=<AC+2>&17
 19593			000004			AC3=<AC+3>&17
 19594			000005			AC4=<AC+4>&17
 19595	056074	201 00 0 00 056074 		MOVEI	AC-1,.
 19596	056075	202 00 0 00 030051 		MOVEM	AC-1,TESTPC	;SETUP SUBTEST PC
 19597	056076	201 00 0 00 000000 		MOVEI	AC-1,<AC-1>&17	;INFORM ERROR ROUTINE
 19598	056077	202 00 0 00 061117 		MOVEM	AC-1,ERRLOP#	;WHICH AC IS USED FOR ITERATION
 19599	056100	200 02 0 00 061114 		MOVE	AC1,BLOK#	;MOVE (-TOP+END,END) INTO AC1. ^
 19600	056101				TST13A:	MRANDOM^
 19601	056101	270 10 0 00 060657 		ADD	RA,[142536475076]
 19602	056102	241 10 0 00 777777 		ROT	RA,-1		;GENERATE A PSEUDO RANDOM NUMBER
 19603	056103	447 10 0 00 000001 		EQVB	RA,AC		;IN BOTH RA AND AC.
 19604	056104	200 01 0 00 000010 		MOVE	AC,RA		;ON ERROR...RESTORE C(AC) AND C(E)
 19605	056105	202 10 0 02 000000 		MOVEM	RA,(AC1)	;PUT RANDOM # IN 1ST MEMORY LOC.
 19606	056106	312 10 0 02 000000 		CAME	RA,(AC1)	;DID IT MAKE IT ?
 19607	056107	002 10 0 00 000010 		ERRM	RA,RA		;NO...PRINT ERROR MESSAGE. ^
 19608	056110	205 03 0 10 000000 	TST13B:	MOVSI	AC2,(RA)	;SIMULAT A
 19609	056111	435 03 0 10 000000 		IORI	AC2,(RA)	;HRLS INST.
 19610	056112	507 01 0 02 000000 		HRLS	AC,(AC1)	;DO A HRLS
 19611	056113	312 01 0 02 000000 		CAME	AC,(AC1)	;C(AC) SHOULD=C(E).
 19612	056114	001 10 0 00 000010 		ERR	RA,RA
 19613	056115	312 03 0 02 000000 		CAME	AC2,(AC1)	;C(E) SHOULD=SIM. ANS.
 19614	056116	002 10 0 00 000010 		ERRM	RA,RA
 19615	056117	204 04 0 00 000010 		MOVS	AC3,RA		;SIMULATE
 19616	056120	205 03 0 04 000000 		MOVSI	AC2,(AC3)	;A
 19617	056121	435 03 0 04 000000 		IORI	AC2,(AC3)	;HLRS INST.
 19618	056122	200 01 0 00 000010 		MOVE	AC,RA		;RESTORE C(AC).
 19619	056123	202 01 0 02 000000 		MOVEM	AC,(AC1)	;RESTORE C(E).
 19620	056124	547 01 0 02 000000 		HLRS	AC,(AC1)	;DO A HLRS INST.
 19621	056125	312 01 0 02 000000 		CAME	AC,(AC1)	;C(AC) SHOULD=C(E).
 19622	056126	001 10 0 00 000010 		ERR	RA,RA
 19623	056127	312 03 0 02 000000 		CAME	AC2,(AC1)	;C(E) SHOULD=SIM. ANS.
 19624	056130	002 10 0 00 000010 		ERRM	RA,RA
 19625	056131	321 00 0 00 056104 		JUMPL	AC-1,TST13B-4	;LOOP ON ERROR SWITCH.
 19626	056132	253 02 0 00 056133 		AOBJN	AC1,.+1
 19627	056133	603 02 0 00 770000 		TLNE	AC1,770000
 19628	056134	254 00 0 00 056101 		JRST	TST13A		;INC TO TEST NEXT LOC.
DSKBA DECSYSTEM 2020 BASIC INSTRUCTION RELIABILITY TEST (1), VER 0,1 	MACRO %53(1020) 12:59 29-Mar-78 Page 15
DSKBA4	MAC	29-Mar-78 12:28		DIAGNOSTIC SECTION FOUR                                                            SEQ 0505

 19629
 19630					;TEST HRLZM, HLRZS, HLRZM, HRLZS. CHECK
 19631					;FOR CORRECT DATA IN THE C(AC)+C(E).
 19632					;C(AC)+C(E)=RAN. NUM.
 19633
 19634			000014			AC=14
 19635	056135				TST14:	MSETUP^
 19636			000015			AC1=<AC+1>&17
 19637			000016			AC2=<AC+2>&17
 19638			000017			AC3=<AC+3>&17
 19639			000000			AC4=<AC+4>&17
 19640	056135	201 13 0 00 056135 		MOVEI	AC-1,.
 19641	056136	202 13 0 00 030051 		MOVEM	AC-1,TESTPC	;SETUP SUBTEST PC
 19642	056137	201 13 0 00 000013 		MOVEI	AC-1,<AC-1>&17	;INFORM ERROR ROUTINE
 19643	056140	202 13 0 00 061117 		MOVEM	AC-1,ERRLOP#	;WHICH AC IS USED FOR ITERATION
 19644	056141	200 15 0 00 061114 		MOVE	AC1,BLOK#	;MOVE (-TOP+END,END) INTO AC1. ^
 19645	056142				TST14A:	MRANDOM^
 19646	056142	270 10 0 00 060657 		ADD	RA,[142536475076]
 19647	056143	241 10 0 00 777777 		ROT	RA,-1		;GENERATE A PSEUDO RANDOM NUMBER
 19648	056144	447 10 0 00 000014 		EQVB	RA,AC		;IN BOTH RA AND AC.
 19649	056145	200 14 0 00 000010 		MOVE	AC,RA		;ON ERROR...RESTORE C(AC) AND C(E)
 19650	056146	202 10 0 15 000000 		MOVEM	RA,(AC1)	;PUT RANDOM # IN 1ST MEMORY LOC.
 19651	056147	312 10 0 15 000000 		CAME	RA,(AC1)	;DID IT MAKE IT ?
 19652	056150	002 10 0 00 000010 		ERRM	RA,RA		;NO...PRINT ERROR MESSAGE. ^
 19653									;IF C(AC)+C(E)=(0011)0101
 19654	056151	516 14 0 15 000000 	TST14B:	HRLZM	AC,(AC1)	;C(AC)=(0011)0101, C(E)=(0101)000
 19655	056152	557 00 0 15 000000 		HLRZS	0,(AC1)		;C(AC)=(0011)0101,C(E)=(0000)0101
 19656	056153	502 14 0 15 000000 		HLLM	AC,(AC1)	;C(AC)=(0011)0101,C(E)=(0011)0101
 19657	056154	312 14 0 00 000010 		CAME	AC,RA		;C(AC)SHOULD=RAN. NUM.
 19658	056155	001 10 0 00 000010 		ERR	RA,RA
 19659	056156	312 10 0 15 000000 		CAME	RA,(AC1)	;C(E) SHOULD=RAN. NUM.
 19660	056157	002 10 0 00 000010 		ERRM	RA,RA
 19661	056160	556 14 0 15 000000 		HLRZM	AC,(AC1)	;C(AC)=(0011)0101,C(E)=(0000)0011
 19662	056161	517 00 0 15 000000 		HRLZS	0,(AC1)		;C(AC)=(0011)0101,C(E)=(0011)0000
 19663	056162	542 14 0 15 000000 		HRRM	AC,(AC1)	;C(AC)=(0011)0101,C(E)=)0011)0101
 19664	056163	312 14 0 00 000010 		CAME	AC,RA		;C(AC)SHOULD=RAN. NUM.
 19665	056164	001 10 0 00 000010 		ERR	RA,RA
 19666	056165	312 10 0 15 000000 		CAME	RA,(AC1)	;C(E)SHOULD=RAN. NUM.
 19667	056166	002 10 0 00 000010 		ERRM	RA,RA
 19668	056167	321 13 0 00 056145 		JUMPL	AC-1,TST14B-4	;LOOP ON ERROR SWITCH.
 19669	056170	253 15 0 00 056171 		AOBJN	AC1,.+1
 19670	056171	603 15 0 00 770000 		TLNE	AC1,770000
 19671	056172	254 00 0 00 056142 		JRST	TST14A		;INC TO TEST NEXT LOC.
DSKBA DECSYSTEM 2020 BASIC INSTRUCTION RELIABILITY TEST (1), VER 0,1 	MACRO %53(1020) 12:59 29-Mar-78 Page 16
DSKBA4	MAC	29-Mar-78 12:28		DIAGNOSTIC SECTION FOUR                                                            SEQ 0506

 19672
 19673					;TEST HRLOM, HLROS, HLROM, HRLOS. CHECK FOR
 19674					;CORRECT DATA IN THE C(AC)+C(E).
 19675					;C(AC)+C(E)=RAN. NUM.
 19676
 19677			000015			AC=15
 19678	056173				TST15:	MSETUP^
 19679			000016			AC1=<AC+1>&17
 19680			000017			AC2=<AC+2>&17
 19681			000000			AC3=<AC+3>&17
 19682			000001			AC4=<AC+4>&17
 19683	056173	201 14 0 00 056173 		MOVEI	AC-1,.
 19684	056174	202 14 0 00 030051 		MOVEM	AC-1,TESTPC	;SETUP SUBTEST PC
 19685	056175	201 14 0 00 000014 		MOVEI	AC-1,<AC-1>&17	;INFORM ERROR ROUTINE
 19686	056176	202 14 0 00 061117 		MOVEM	AC-1,ERRLOP#	;WHICH AC IS USED FOR ITERATION
 19687	056177	200 16 0 00 061114 		MOVE	AC1,BLOK#	;MOVE (-TOP+END,END) INTO AC1. ^
 19688	056200				TST15A:	MRANDOM^
 19689	056200	270 10 0 00 060657 		ADD	RA,[142536475076]
 19690	056201	241 10 0 00 777777 		ROT	RA,-1		;GENERATE A PSEUDO RANDOM NUMBER
 19691	056202	447 10 0 00 000015 		EQVB	RA,AC		;IN BOTH RA AND AC.
 19692	056203	200 15 0 00 000010 		MOVE	AC,RA		;ON ERROR...RESTORE C(AC) AND C(E)
 19693	056204	202 10 0 16 000000 		MOVEM	RA,(AC1)	;PUT RANDOM # IN 1ST MEMORY LOC.
 19694	056205	312 10 0 16 000000 		CAME	RA,(AC1)	;DID IT MAKE IT ?
 19695	056206	002 10 0 00 000010 		ERRM	RA,RA		;NO...PRINT ERROR MESSAGE. ^
 19696									;IF C(AC)+C(E)=(0011)0101
 19697	056207	526 15 0 16 000000 	TST15B:	HRLOM	AC,(AC1)	;C(AC)=(0011)0101, C(E)=(0101)1111
 19698	056210	567 00 0 16 000000 		HLROS	0,(AC1)		;C(AC)=)0011)0101, C(E)=(1111)0101
 19699	056211	502 15 0 16 000000 		HLLM	AC,(AC1)	;C(E)=(0011)0101, C(E)=(0011)0101
 19700	056212	312 15 0 00 000010 		CAME	AC,RA		;C(AC) SHOULD=RAN. NUM.
 19701	056213	001 10 0 00 000010 		ERR	RA,RA
 19702	056214	312 10 0 16 000000 		CAME	RA,(AC1)	;C(E) SHOULD=RAN. NUM.
 19703	056215	002 10 0 00 000010 		ERRM	RA,RA
 19704	056216	566 15 0 16 000000 		HLROM	AC,(AC1)	;C(AC)=(0011)0101, C(E)=(1111)0011
 19705	056217	527 00 0 16 000000 		HRLOS	0,(AC1)		;C(E)=(0011)1111
 19706	056220	542 15 0 16 000000 		HRRM	AC,(AC1)	;C(AC)=(0011)0101, C(E)=(0011)0101
 19707	056221	312 15 0 00 000010 		CAME	AC,RA		;C(AC) SHOULD=RAN. NUM.
 19708	056222	001 10 0 00 000010 		ERR	RA,RA
 19709	056223	312 10 0 16 000000 		CAME	RA,(AC1)	;C(E) SHOULD = RAN. NUM.
 19710	056224	002 10 0 00 000010 		ERRM	RA,RA
 19711	056225	321 14 0 00 056203 		JUMPL	AC-1,TST15B-4	;LOOP ON ERROR SWITCH.
 19712	056226	253 16 0 00 056227 		AOBJN	AC1,.+1
 19713	056227	603 16 0 00 770000 		TLNE	AC1,770000
 19714	056230	254 00 0 00 056200 		JRST	TST15A		;INC TO TEST NEXT LOC.
DSKBA DECSYSTEM 2020 BASIC INSTRUCTION RELIABILITY TEST (1), VER 0,1 	MACRO %53(1020) 12:59 29-Mar-78 Page 17
DSKBA4	MAC	29-Mar-78 12:28		DIAGNOSTIC SECTION FOUR                                                            SEQ 0507

 19715
 19716					;TEST HRLEM, HLRES, HLREM, HRLES. CHECK
 19717					;FOR CORRECT DATA IN THE C(AC)+C(E).
 19718					;C(AC)+C(E)=RAN. NUM.
 19719
 19720			000001			AC=1
 19721	056231				TST16:	MSETUP^
 19722			000002			AC1=<AC+1>&17
 19723			000003			AC2=<AC+2>&17
 19724			000004			AC3=<AC+3>&17
 19725			000005			AC4=<AC+4>&17
 19726	056231	201 00 0 00 056231 		MOVEI	AC-1,.
 19727	056232	202 00 0 00 030051 		MOVEM	AC-1,TESTPC	;SETUP SUBTEST PC
 19728	056233	201 00 0 00 000000 		MOVEI	AC-1,<AC-1>&17	;INFORM ERROR ROUTINE
 19729	056234	202 00 0 00 061117 		MOVEM	AC-1,ERRLOP#	;WHICH AC IS USED FOR ITERATION
 19730	056235	200 02 0 00 061114 		MOVE	AC1,BLOK#	;MOVE (-TOP+END,END) INTO AC1. ^
 19731	056236				TST16A:	MRANDOM^
 19732	056236	270 10 0 00 060657 		ADD	RA,[142536475076]
 19733	056237	241 10 0 00 777777 		ROT	RA,-1		;GENERATE A PSEUDO RANDOM NUMBER
 19734	056240	447 10 0 00 000001 		EQVB	RA,AC		;IN BOTH RA AND AC.
 19735	056241	200 01 0 00 000010 		MOVE	AC,RA		;ON ERROR...RESTORE C(AC) AND C(E)
 19736	056242	202 10 0 02 000000 		MOVEM	RA,(AC1)	;PUT RANDOM # IN 1ST MEMORY LOC.
 19737	056243	312 10 0 02 000000 		CAME	RA,(AC1)	;DID IT MAKE IT ?
 19738	056244	002 10 0 00 000010 		ERRM	RA,RA		;NO...PRINT ERROR MESSAGE. ^
 19739	056245	620 01 0 00 400000 	TST16B:	TRZ	AC,400000	;CLEAR BIT 18 IN AC.
 19740	056246	200 03 0 00 000001 		MOVE	AC2,AC		;SAVE FOR FUTURE COMPARE.
 19741									;IF C(AC)+C(E)=(0011)0101
 19742	056247	536 01 0 02 000000 		HRLEM	AC,(AC1)	;C(AC)=(0011)0101, C(E)=(0011)0101
 19743	056250	577 00 0 02 000000 		HLRES	0,(AC1)		;C(AC)=(0011)0101, C(E)=(0000)0101
 19744	056251	502 01 0 02 000000 		HLLM	AC,(AC1)	;C(AC)=(0011)0101, C(E)=(0011)0101
 19745	056252	312 01 0 00 000003 		CAME	AC,AC2		;C(AC)SHOULD=ORIG C(AC).
 19746	056253	001 10 0 00 000003 		ERR	RA,AC2
 19747	056254	312 03 0 02 000000 		CAME	AC2,(AC1)	;C(E) SHOULD=ORIG C(AC).
 19748	056255	002 10 0 00 000003 		ERRM	RA,AC2
 19749	056256	621 01 0 00 400000 		TLZ	AC,400000	;CLEAR BIT 0.
 19750	056257	200 03 0 00 000001 		MOVE	AC2,AC		;SAVE FOR FUTURE COMPARE.
 19751	056260	576 01 0 02 000000 		HLREM	AC,(AC1)	;C(AC)=(0011)0101, C(E)=(0000)0011
 19752	056261	537 00 0 02 000000 		HRLES	0,(AC1)		;C(AC)=(0011)0101, C(E)=(0011)0000
 19753	056262	542 01 0 02 000000 		HRRM	AC,(AC1)	;C(AC) = (0011)0101, C(E) = (0011)0101.
 19754	056263	312 01 0 00 000003 		CAME	AC,AC2		;C(AC)SHOULD=ORIG C(AC).
 19755	056264	001 10 0 00 000003 		ERR	RA,AC2
 19756	056265	312 03 0 02 000000 		CAME	AC2,(AC1)	;C(E) SHOULD=ORIG C(AC).
 19757	056266	002 10 0 00 000003 		ERRM	RA,AC2
 19758	056267	321 00 0 00 056241 		JUMPL	AC-1,TST16B-4	;LOOP ON ERROR SWITCH
 19759	056270	253 02 0 00 056271 		AOBJN	AC1,.+1
 19760	056271	603 02 0 00 770000 		TLNE	AC1,770000
 19761	056272	254 00 0 00 056236 		JRST	TST16A		;INC TO TEST NEXT LOC.
DSKBA DECSYSTEM 2020 BASIC INSTRUCTION RELIABILITY TEST (1), VER 0,1 	MACRO %53(1020) 12:59 29-Mar-78 Page 18
DSKBA4	MAC	29-Mar-78 12:28		DIAGNOSTIC SECTION FOUR                                                            SEQ 0508

 19762
 19763					;TEST HRLEM, HLRES, HLREM, HRLES.   CHECK
 19764					;FOR CORRECT DATA IN AC AND C(E).
 19765					;C(AC)+C(E)=RAN. NUM.
 19766
 19767			000002			AC=2
 19768	056273				TST17:	MSETUP^
 19769			000003			AC1=<AC+1>&17
 19770			000004			AC2=<AC+2>&17
 19771			000005			AC3=<AC+3>&17
 19772			000006			AC4=<AC+4>&17
 19773	056273	201 01 0 00 056273 		MOVEI	AC-1,.
 19774	056274	202 01 0 00 030051 		MOVEM	AC-1,TESTPC	;SETUP SUBTEST PC
 19775	056275	201 01 0 00 000001 		MOVEI	AC-1,<AC-1>&17	;INFORM ERROR ROUTINE
 19776	056276	202 01 0 00 061117 		MOVEM	AC-1,ERRLOP#	;WHICH AC IS USED FOR ITERATION
 19777	056277	200 03 0 00 061114 		MOVE	AC1,BLOK#	;MOVE (-TOP+END,END) INTO AC1. ^
 19778	056300				TST17A:	MRANDOM^
 19779	056300	270 10 0 00 060657 		ADD	RA,[142536475076]
 19780	056301	241 10 0 00 777777 		ROT	RA,-1		;GENERATE A PSEUDO RANDOM NUMBER
 19781	056302	447 10 0 00 000002 		EQVB	RA,AC		;IN BOTH RA AND AC.
 19782	056303	200 02 0 00 000010 		MOVE	AC,RA		;ON ERROR...RESTORE C(AC) AND C(E)
 19783	056304	202 10 0 03 000000 		MOVEM	RA,(AC1)	;PUT RANDOM # IN 1ST MEMORY LOC.
 19784	056305	312 10 0 03 000000 		CAME	RA,(AC1)	;DID IT MAKE IT ?
 19785	056306	002 10 0 00 000010 		ERRM	RA,RA		;NO...PRINT ERROR MESSAGE. ^
 19786	056307	660 02 0 00 400000 	TST17B:	TRO	AC,400000	;SET BIT 18 IN AC.
 19787	056310	200 04 0 00 000002 		MOVE	AC2,AC		;SAVE C(AC) BOR FUTURE COMPARE
 19788									;IF C(AC)+C(E)=(0011)1101
 19789	056311	536 02 0 03 000000 		HRLEM	AC,(AC1)	;C(AC)=(0011)1101, C(E)=(1101)1111
 19790	056312	577 00 0 03 000000 		HLRES	0,(AC1)		;C(AC)=(0011)1101, C(E)=(0011)1101
 19791	056313	502 02 0 03 000000 		HLLM	AC,(AC1)	;C(AC)=(0011)1101, C(E)=(0011)1101
 19792	056314	312 02 0 00 000004 		CAME	AC,AC2		;C(AC) SHOULD=ORIG C(AC).
 19793	056315	001 10 0 00 000004 		ERR	RA,AC2
 19794	056316	312 04 0 03 000000 		CAME	AC2,(AC1)	;C(E) SHOULD=ORIG C(AC)
 19795	056317	002 10 0 00 000004 		ERRM	RA,AC2
 19796	056320	661 02 0 00 400000 		TLO	AC,400000	;SET BIT 0 IN AC.
 19797	056321	200 04 0 00 000002 		MOVE	AC2,AC		;SAVE FOR FUTURE COMPARE
 19798									;IF C(AC)+C(E)=(1010)1101
 19799	056322	576 02 0 03 000000 		HLREM	AC,(AC1)	;C(AC)=(1011)1101, C(E)=(1111)1011
 19800	056323	537 00 0 03 000000 		HRLES	0,(AC1)		;C(AC)=(1011)1101, C(E)=(1011)1111
 19801	056324	542 02 0 03 000000 		HRRM	AC,(AC1)	;C(AC)=(1011)1101, C(E)=(1011)1101
 19802	056325	312 02 0 00 000004 		CAME	AC,AC2		;C(AC) SHOULD=ORIG C(AC).
 19803	056326	001 10 0 00 000004 		ERR	RA,AC2
 19804	056327	312 04 0 03 000000 		CAME	AC2,(AC1)	;C(E) SHOULD = ORIG C(AC).
 19805	056330	002 10 0 00 000004 		ERRM	RA,AC2
 19806	056331	321 01 0 00 056303 		JUMPL	AC-1,TST17B-4	;LOOP ON ERROR SWITCH.
 19807	056332	253 03 0 00 056333 		AOBJN	AC1,.+1
 19808	056333	603 03 0 00 770000 		TLNE	AC1,770000
 19809	056334	254 00 0 00 056300 		JRST	TST17A		;INC TO TEST NEXT LOC.
DSKBA DECSYSTEM 2020 BASIC INSTRUCTION RELIABILITY TEST (1), VER 0,1 	MACRO %53(1020) 12:59 29-Mar-78 Page 19
DSKBA4	MAC	29-Mar-78 12:28		DIAGNOSTIC SECTION FOUR                                                            SEQ 0509

 19810
 19811					;TEST HLLOM, HLLZS, HRROM, HRRZS.  CHECK FOR
 19812					;CORRECT DATA IN AC AND C(E).
 19813					;C(AC)+C(E)=RAN. NUM.
 19814
 19815			000001			AC=1
 19816	056335				TST20:	MSETUP^
 19817			000002			AC1=<AC+1>&17
 19818			000003			AC2=<AC+2>&17
 19819			000004			AC3=<AC+3>&17
 19820			000005			AC4=<AC+4>&17
 19821	056335	201 00 0 00 056335 		MOVEI	AC-1,.
 19822	056336	202 00 0 00 030051 		MOVEM	AC-1,TESTPC	;SETUP SUBTEST PC
 19823	056337	201 00 0 00 000000 		MOVEI	AC-1,<AC-1>&17	;INFORM ERROR ROUTINE
 19824	056340	202 00 0 00 061117 		MOVEM	AC-1,ERRLOP#	;WHICH AC IS USED FOR ITERATION
 19825	056341	200 02 0 00 061114 		MOVE	AC1,BLOK#	;MOVE (-TOP+END,END) INTO AC1. ^
 19826	056342				TST20A:	MRANDOM^
 19827	056342	270 10 0 00 060657 		ADD	RA,[142536475076]
 19828	056343	241 10 0 00 777777 		ROT	RA,-1		;GENERATE A PSEUDO RANDOM NUMBER
 19829	056344	447 10 0 00 000001 		EQVB	RA,AC		;IN BOTH RA AND AC.
 19830	056345	200 01 0 00 000010 		MOVE	AC,RA		;ON ERROR...RESTORE C(AC) AND C(E)
 19831	056346	202 10 0 02 000000 		MOVEM	RA,(AC1)	;PUT RANDOM # IN 1ST MEMORY LOC.
 19832	056347	312 10 0 02 000000 		CAME	RA,(AC1)	;DID IT MAKE IT ?
 19833	056350	002 10 0 00 000010 		ERRM	RA,RA		;NO...PRINT ERROR MESSAGE. ^
 19834	056351	200 03 0 00 000001 	TST20B:	MOVE	AC2,AC		;SIMULATE A
 19835	056352	660 03 0 00 777777 		TRO	AC2,-1		;HLLOM INST
 19836	056353	522 01 0 02 000000 		HLLOM	AC,(AC1)	;DO HLLOM.
 19837	056354	312 03 0 02 000000 		CAME	AC2,(AC1)	;C(E) SHOULD=SIM. ANS.
 19838	056355	002 10 0 00 000010 		ERRM	RA,RA
 19839	056356	620 03 0 00 777777 		TRZ	AC2,-1		;SIMULATE A HLLSZ INST.
 19840	056357	513 01 0 02 000000 		HLLZS	AC,(AC1)	;DO A HLLZS.
 19841	056360	312 01 0 00 000003 		CAME	AC,AC2		;C(AC) SHOULD=SIM ANS.
 19842	056361	001 10 0 00 000010 		ERR	RA,RA
 19843	056362	312 03 0 02 000000 		CAME	AC2,(AC1)	;C(E) SHOULD=SIM. ANS.
 19844	056363	002 10 0 00 000010 		ERRM	RA,RA
 19845	056364	200 01 0 00 000010 		MOVE	AC,RA		;RESTOR C(AC)
 19846	056365	200 03 0 00 000010 		MOVE	AC2,RA		;SIMULATE A
 19847	056366	661 03 0 00 777777 		TLO	AC2,-1		;HRROM INST.
 19848	056367	562 01 0 02 000000 		HRROM	AC,(AC1)	;DO A HRROM.
 19849	056370	312 03 0 02 000000 		CAME	AC2,(AC1)	;C(E) SHOULD=SIM. ANS.
 19850	056371	001 10 0 00 000010 		ERR	RA,RA
 19851	056372	621 03 0 00 777777 		TLZ	AC2,-1		;SIMULATE A HRRZS INST.
 19852	056373	553 01 0 02 000000 		HRRZS	AC,(AC1)	;DO A HRRZS INST.
 19853	056374	312 01 0 00 000003 		CAME	AC,AC2		;C(AC) SHOULD=SIM. ANS.
 19854	056375	001 10 0 00 000010 		ERR	RA,RA
 19855	056376	312 03 0 02 000000 		CAME	AC2,(AC1)	;C(E) SHOULD=SIM. ANS.
 19856	056377	002 10 0 00 000010 		ERRM	RA,RA
 19857	056400	321 00 0 00 056345 		JUMPL	AC-1,TST20B-4	;LOOP ON ERROR SWITCH.
 19858	056401	253 02 0 00 056402 		AOBJN	AC1,.+1
 19859	056402	603 02 0 00 770000 		TLNE	AC1,770000
 19860	056403	254 00 0 00 056342 		JRST	TST20A		;INC TO TEST NEXT LOC.
DSKBA DECSYSTEM 2020 BASIC INSTRUCTION RELIABILITY TEST (1), VER 0,1 	MACRO %53(1020) 12:59 29-Mar-78 Page 20
DSKBA4	MAC	29-Mar-78 12:28		DIAGNOSTIC SECTION FOUR                                                            SEQ 0510

 19861
 19862					;TEST HLLOS, HLLZM, HRROS, HRRZM.  CHECK FOR
 19863					;CORRECT DATA IN AC AND C(E).
 19864					;C(AC)+C(E)=RAN. NUM.
 19865
 19866			000002			AC=2
 19867	056404				TST21:	MSETUP^
 19868			000003			AC1=<AC+1>&17
 19869			000004			AC2=<AC+2>&17
 19870			000005			AC3=<AC+3>&17
 19871			000006			AC4=<AC+4>&17
 19872	056404	201 01 0 00 056404 		MOVEI	AC-1,.
 19873	056405	202 01 0 00 030051 		MOVEM	AC-1,TESTPC	;SETUP SUBTEST PC
 19874	056406	201 01 0 00 000001 		MOVEI	AC-1,<AC-1>&17	;INFORM ERROR ROUTINE
 19875	056407	202 01 0 00 061117 		MOVEM	AC-1,ERRLOP#	;WHICH AC IS USED FOR ITERATION
 19876	056410	200 03 0 00 061114 		MOVE	AC1,BLOK#	;MOVE (-TOP+END,END) INTO AC1. ^
 19877	056411				TST21A:	MRANDOM^
 19878	056411	270 10 0 00 060657 		ADD	RA,[142536475076]
 19879	056412	241 10 0 00 777777 		ROT	RA,-1		;GENERATE A PSEUDO RANDOM NUMBER
 19880	056413	447 10 0 00 000002 		EQVB	RA,AC		;IN BOTH RA AND AC.
 19881	056414	200 02 0 00 000010 		MOVE	AC,RA		;ON ERROR...RESTORE C(AC) AND C(E)
 19882	056415	202 10 0 03 000000 		MOVEM	RA,(AC1)	;PUT RANDOM # IN 1ST MEMORY LOC.
 19883	056416	312 10 0 03 000000 		CAME	RA,(AC1)	;DID IT MAKE IT ?
 19884	056417	002 10 0 00 000010 		ERRM	RA,RA		;NO...PRINT ERROR MESSAGE. ^
 19885	056420	200 04 0 00 000002 	TST21B:	MOVE	AC2,AC		;SIMULATE A
 19886	056421	660 04 0 00 777777 		TRO	AC2,-1		;HLLOS INST.
 19887	056422	523 02 0 03 000000 		HLLOS	AC,(AC1)	;DO A HLLOS.
 19888	056423	312 02 0 00 000004 		CAME	AC,AC2		;C(AC) SHOULD=SIM. ANS.
 19889	056424	001 10 0 00 000010 		ERR	RA,RA
 19890	056425	312 04 0 03 000000 		CAME	AC2,(AC1)	;C(E) SHOULD=SIM. ANS.
 19891	056426	002 10 0 00 000010 		ERRM	RA,RA
 19892	056427	200 05 0 00 000002 		MOVE	AC3,AC		;SAVE C(AC) IN CASE OF ERR.
 19893	056430	620 04 0 00 777777 		TRZ	AC2,-1		;SIMULATE A HLLZM INST.
 19894	056431	512 02 0 03 000000 		HLLZM	AC,(AC1)	;DO A HLLZM
 19895	056432	312 04 0 03 000000 		CAME	AC2,(AC1)	;C(E) SHOULD=SIM. ANS.
 19896	056433	002 05 0 00 000005 		ERRM	AC3,AC3
 19897	056434	200 02 0 00 000010 		MOVE	AC,RA		;RESTORE C(AC).
 19898	056435	202 02 0 03 000000 		MOVEM	AC,(AC1)	;RESTORE C(E).
 19899	056436	200 04 0 00 000010 		MOVE	AC2,RA		;SIMULATE A
 19900	056437	661 04 0 00 777777 		TLO	AC2,-1		;HRROS INST.
 19901	056440	563 02 0 03 000000 		HRROS	AC,(AC1)	;DO A HRROS
 19902	056441	312 02 0 00 000004 		CAME	AC,AC2		;C(AC) SHOULD=SIM. ANS.
 19903	056442	001 10 0 00 000010 		ERR	RA,RA
 19904	056443	312 04 0 03 000000 		CAME	AC2,(AC1)	;C(E) SHOULD=SIM. ANS.
 19905	056444	002 10 0 00 000010 		ERRM	RA,RA
 19906	056445	200 05 0 00 000002 		MOVE	AC3,AC		;SAVE C(AC) IN CASE OF ERROR.
 19907	056446	621 04 0 00 777777 		TLZ	AC2,-1		;SIMULATE A HRRZM INST.
 19908	056447	552 02 0 03 000000 		HRRZM	AC,(AC1)	;DO A HRRZM.
 19909	056450	312 04 0 03 000000 		CAME	AC2,(AC1)	;C(E) SHOULD=SIM. ANS.
 19910	056451	002 05 0 00 000005 		ERRM	AC3,AC3
 19911	056452	321 01 0 00 056414 		JUMPL	AC-1,TST21B-4	;LOOP ON ERROR SWITCH
 19912	056453	253 03 0 00 056454 		AOBJN	AC1,.+1
 19913	056454	603 03 0 00 770000 		TLNE	AC1,770000
 19914	056455	254 00 0 00 056411 		JRST	TST21A		;INC TO TEST NEXT LOC.
DSKBA DECSYSTEM 2020 BASIC INSTRUCTION RELIABILITY TEST (1), VER 0,1 	MACRO %53(1020) 12:59 29-Mar-78 Page 21
DSKBA4	MAC	29-Mar-78 12:28		DIAGNOSTIC SECTION FOUR                                                            SEQ 0511

 19915
 19916					;TEST HLLEM, HRRES.  CHECK C(AC)+C(E)
 19917					;FOR CORRECT DATA.
 19918					;C(AC) HAS SIGN BIT SET.
 19919
 19920			000003			AC=3
 19921	056456				TST22:	MSETUP^
 19922			000004			AC1=<AC+1>&17
 19923			000005			AC2=<AC+2>&17
 19924			000006			AC3=<AC+3>&17
 19925			000007			AC4=<AC+4>&17
 19926	056456	201 02 0 00 056456 		MOVEI	AC-1,.
 19927	056457	202 02 0 00 030051 		MOVEM	AC-1,TESTPC	;SETUP SUBTEST PC
 19928	056460	201 02 0 00 000002 		MOVEI	AC-1,<AC-1>&17	;INFORM ERROR ROUTINE
 19929	056461	202 02 0 00 061117 		MOVEM	AC-1,ERRLOP#	;WHICH AC IS USED FOR ITERATION
 19930	056462	200 04 0 00 061114 		MOVE	AC1,BLOK#	;MOVE (-TOP+END,END) INTO AC1. ^
 19931	056463				TST22A:	MRANDOM^
 19932	056463	270 10 0 00 060657 		ADD	RA,[142536475076]
 19933	056464	241 10 0 00 777777 		ROT	RA,-1		;GENERATE A PSEUDO RANDOM NUMBER
 19934	056465	447 10 0 00 000003 		EQVB	RA,AC		;IN BOTH RA AND AC.
 19935	056466	200 03 0 00 000010 		MOVE	AC,RA		;ON ERROR...RESTORE C(AC) AND C(E)
 19936	056467	202 10 0 04 000000 		MOVEM	RA,(AC1)	;PUT RANDOM # IN 1ST MEMORY LOC.
 19937	056470	312 10 0 04 000000 		CAME	RA,(AC1)	;DID IT MAKE IT ?
 19938	056471	002 10 0 00 000010 		ERRM	RA,RA		;NO...PRINT ERROR MESSAGE. ^
 19939	056472	661 03 0 00 400000 	TST22B:	TLO	AC,400000	;SET SIGN BIT IN AC.
 19940	056473	200 06 0 00 000003 		MOVE	AC3,AC		;SAVE FOR FUTURE COMPARE.
 19941	056474	200 05 0 00 000003 		MOVE	AC2,AC		;SIMULATE A HLLEM
 19942	056475	660 05 0 00 777777 		TRO	AC2,-1		;WITH SIGN BIT SET.
 19943	056476	532 03 0 04 000000 		HLLEM	AC,(AC1)	;DO A HLLEM.
 19944	056477	312 03 0 00 000006 		CAME	AC,AC3		;C(AC) SHOULD=ORIG. C(AC).
 19945	056500	001 10 0 00 000006 		ERR	RA,AC3		;C(AC) GOT MODIFIED.
 19946	056501	312 05 0 04 000000 		CAME	AC2,(AC1)	;C(E) SHOULD=SIM. ANS.
 19947	056502	002 10 0 00 000006 		ERRM	RA,AC3
 19948	056503	474 07 0 00 000000 		SETO	AC4,		;SIMULATE HRRES WITH BIT 18 A ONE.
 19949	056504	573 03 0 04 000000 		HRRES	AC,(AC1)	;DO A HRRES.
 19950	056505	312 07 0 04 000000 		CAME	AC4,(AC1)	;C(E) SHOULD=-1.
 19951	056506	002 05 0 00 000006 		ERRM	AC2,AC3
 19952	056507	312 03 0 04 000000 		CAME	AC,(AC1)	;C(AC) SHOULD=C(E).
 19953	056510	001 05 0 00 000006 		ERR	AC2,AC3
 19954	056511	321 02 0 00 056466 		JUMPL	AC-1,TST22B-4	;LOOP ON ERROR SWITCH.
 19955	056512	253 04 0 00 056513 		AOBJN	AC1,.+1
 19956	056513	603 04 0 00 770000 		TLNE	AC1,770000
 19957	056514	254 00 0 00 056463 		JRST	TST22A		;INC TO TEST NEXT LOC.
DSKBA DECSYSTEM 2020 BASIC INSTRUCTION RELIABILITY TEST (1), VER 0,1 	MACRO %53(1020) 12:59 29-Mar-78 Page 22
DSKBA4	MAC	29-Mar-78 12:28		DIAGNOSTIC SECTION FOUR                                                            SEQ 0512

 19958
 19959					;TEST HLLEM, HRRES.  CHECK C(AC)+C(E)
 19960					;FOR CORRECT DATA
 19961					;C(AC) HAS SIGN BIT CLEAR.
 19962
 19963			000012			AC=12
 19964	056515				TST23:	MSETUP^
 19965			000013			AC1=<AC+1>&17
 19966			000014			AC2=<AC+2>&17
 19967			000015			AC3=<AC+3>&17
 19968			000016			AC4=<AC+4>&17
 19969	056515	201 11 0 00 056515 		MOVEI	AC-1,.
 19970	056516	202 11 0 00 030051 		MOVEM	AC-1,TESTPC	;SETUP SUBTEST PC
 19971	056517	201 11 0 00 000011 		MOVEI	AC-1,<AC-1>&17	;INFORM ERROR ROUTINE
 19972	056520	202 11 0 00 061117 		MOVEM	AC-1,ERRLOP#	;WHICH AC IS USED FOR ITERATION
 19973	056521	200 13 0 00 061114 		MOVE	AC1,BLOK#	;MOVE (-TOP+END,END) INTO AC1. ^
 19974	056522				TST23A:	MRANDOM^
 19975	056522	270 10 0 00 060657 		ADD	RA,[142536475076]
 19976	056523	241 10 0 00 777777 		ROT	RA,-1		;GENERATE A PSEUDO RANDOM NUMBER
 19977	056524	447 10 0 00 000012 		EQVB	RA,AC		;IN BOTH RA AND AC.
 19978	056525	200 12 0 00 000010 		MOVE	AC,RA		;ON ERROR...RESTORE C(AC) AND C(E)
 19979	056526	202 10 0 13 000000 		MOVEM	RA,(AC1)	;PUT RANDOM # IN 1ST MEMORY LOC.
 19980	056527	312 10 0 13 000000 		CAME	RA,(AC1)	;DID IT MAKE IT ?
 19981	056530	002 10 0 00 000010 		ERRM	RA,RA		;NO...PRINT ERROR MESSAGE. ^
 19982	056531	621 12 0 00 400000 	TST23B:	TLZ	AC,400000	;CLEAR SIGN BIT IN AC
 19983	056532	200 15 0 00 000012 		MOVE	AC3,AC		;SAVE FOR FUTURE COMPARE
 19984	056533	200 14 0 00 000012 		MOVE	AC2,AC		;SIMULATE A HLLEM
 19985	056534	620 14 0 00 777777 		TRZ	AC2,-1		;WITH SIGN BIT CLEAR.
 19986	056535	532 12 0 13 000000 		HLLEM	AC,(AC1)	;DO A HLLEM.
 19987	056536	312 12 0 00 000015 		CAME	AC,AC3		;C(AC) SHOULD=ORIG. C(AC)
 19988	056537	001 10 0 00 000015 		ERR	RA,AC3
 19989	056540	312 14 0 13 000000 		CAME	AC2,(AC1)	;C(E) SHOULD=SIM. ANS.
 19990	056541	002 10 0 00 000015 		ERRM	RA,AC3
 19991	056542	400 16 0 00 000000 		SETZ	AC4,		;SIMULATE HRRES WITH BIT 18 CLEAR.
 19992	056543	573 12 0 13 000000 		HRRES	AC,(AC1)	;DO A HRRES INST.
 19993	056544	312 16 0 13 000000 		CAME	AC4,(AC1)	;C(E) SHOULD=SIM. ANS.
 19994	056545	002 14 0 00 000015 		ERRM	AC2,AC3
 19995	056546	312 12 0 13 000000 		CAME	AC,(AC1)	;C(AC) SHOULD=C(E).
 19996	056547	001 14 0 00 000015 		ERR	AC2,AC3
 19997	056550	321 11 0 00 056525 		JUMPL	AC-1,TST23B-4	;LOOP ON ERROR SWITCH
 19998	056551	253 13 0 00 056552 		AOBJN	AC1,.+1
 19999	056552	603 13 0 00 770000 		TLNE	AC1,770000
 20000	056553	254 00 0 00 056522 		JRST	TST23A		;INC TO TEST NEXT LOC.
DSKBA DECSYSTEM 2020 BASIC INSTRUCTION RELIABILITY TEST (1), VER 0,1 	MACRO %53(1020) 12:59 29-Mar-78 Page 23
DSKBA4	MAC	29-Mar-78 12:28		DIAGNOSTIC SECTION FOUR                                                            SEQ 0513

 20001
 20002					;TEST HRREM, HLLES.  CHECK C(AC)+C(E)
 20003					;FOR CORRECT DATA.
 20004					;C(AC) HAS BIT 18 SET.
 20005
 20006			000012			AC=12
 20007	056554				TST24:	MSETUP^
 20008			000013			AC1=<AC+1>&17
 20009			000014			AC2=<AC+2>&17
 20010			000015			AC3=<AC+3>&17
 20011			000016			AC4=<AC+4>&17
 20012	056554	201 11 0 00 056554 		MOVEI	AC-1,.
 20013	056555	202 11 0 00 030051 		MOVEM	AC-1,TESTPC	;SETUP SUBTEST PC
 20014	056556	201 11 0 00 000011 		MOVEI	AC-1,<AC-1>&17	;INFORM ERROR ROUTINE
 20015	056557	202 11 0 00 061117 		MOVEM	AC-1,ERRLOP#	;WHICH AC IS USED FOR ITERATION
 20016	056560	200 13 0 00 061114 		MOVE	AC1,BLOK#	;MOVE (-TOP+END,END) INTO AC1. ^
 20017	056561				TST24A:	MRANDOM^
 20018	056561	270 10 0 00 060657 		ADD	RA,[142536475076]
 20019	056562	241 10 0 00 777777 		ROT	RA,-1		;GENERATE A PSEUDO RANDOM NUMBER
 20020	056563	447 10 0 00 000012 		EQVB	RA,AC		;IN BOTH RA AND AC.
 20021	056564	200 12 0 00 000010 		MOVE	AC,RA		;ON ERROR...RESTORE C(AC) AND C(E)
 20022	056565	202 10 0 13 000000 		MOVEM	RA,(AC1)	;PUT RANDOM # IN 1ST MEMORY LOC.
 20023	056566	312 10 0 13 000000 		CAME	RA,(AC1)	;DID IT MAKE IT ?
 20024	056567	002 10 0 00 000010 		ERRM	RA,RA		;NO...PRINT ERROR MESSAGE. ^
 20025	056570	660 12 0 00 400000 	TST24B:	TRO	AC,400000	;SET BIT 18 IN AC.
 20026	056571	200 15 0 00 000012 		MOVE	AC3,AC		;SAVE C(AC) FOR FUTURE COMPARE
 20027	056572	200 14 0 00 000012 		MOVE	AC2,AC		;SIMULATE A HRREM
 20028	056573	661 14 0 00 777777 		TLO	AC2,-1		;WITH BIT 18 SET.
 20029	056574	572 12 0 13 000000 		HRREM	AC,(AC1)	;DO A HRREM
 20030	056575	312 12 0 00 000015 		CAME	AC,AC3		;C(AC) SHOULD=ORIG. C(AC)
 20031	056576	001 10 0 00 000015 		ERR	RA,AC3
 20032	056577	312 14 0 13 000000 		CAME	AC2,(AC1)	;C(E) SHOULD=SIM. ANS.
 20033	056600	002 10 0 00 000015 		ERRM	RA,AC3
 20034	056601	474 16 0 00 000000 		SETO	AC4,		;SIMULATE A HLLES WITH SIGN BIT SET.
 20035	056602	533 12 0 13 000000 		HLLES	AC,(AC1)	;DO A HLLES
 20036	056603	312 16 0 13 000000 		CAME	AC4,(AC1)	;C(E) SHOULD=-1.
 20037	056604	002 14 0 00 000015 		ERRM	AC2,AC3
 20038	056605	312 12 0 13 000000 		CAME	AC,(AC1)	;C(AC) SHOULD=C(E).
 20039	056606	001 14 0 00 000015 		ERR	AC2,AC3
 20040	056607	321 11 0 00 056564 		JUMPL	AC-1,TST24B-4	;LOOP ON ERROR SWITCH
 20041	056610	253 13 0 00 056611 		AOBJN	AC1,.+1
 20042	056611	603 13 0 00 770000 		TLNE	AC1,770000
 20043	056612	254 00 0 00 056561 		JRST	TST24A		;INC TO TEST NEXT LOC.
DSKBA DECSYSTEM 2020 BASIC INSTRUCTION RELIABILITY TEST (1), VER 0,1 	MACRO %53(1020) 12:59 29-Mar-78 Page 24
DSKBA4	MAC	29-Mar-78 12:28		DIAGNOSTIC SECTION FOUR                                                            SEQ 0514

 20044
 20045					;TEST HRREM, HLLES.  CHECK C(AC)+C(E)
 20046					;FOR CORRECT DATA.
 20047					;C(AC) HAS BIT 18 CLEAR.
 20048
 20049			000003			AC=3
 20050	056613				TST25:	MSETUP^
 20051			000004			AC1=<AC+1>&17
 20052			000005			AC2=<AC+2>&17
 20053			000006			AC3=<AC+3>&17
 20054			000007			AC4=<AC+4>&17
 20055	056613	201 02 0 00 056613 		MOVEI	AC-1,.
 20056	056614	202 02 0 00 030051 		MOVEM	AC-1,TESTPC	;SETUP SUBTEST PC
 20057	056615	201 02 0 00 000002 		MOVEI	AC-1,<AC-1>&17	;INFORM ERROR ROUTINE
 20058	056616	202 02 0 00 061117 		MOVEM	AC-1,ERRLOP#	;WHICH AC IS USED FOR ITERATION
 20059	056617	200 04 0 00 061114 		MOVE	AC1,BLOK#	;MOVE (-TOP+END,END) INTO AC1. ^
 20060	056620				TST25A:	MRANDOM^
 20061	056620	270 10 0 00 060657 		ADD	RA,[142536475076]
 20062	056621	241 10 0 00 777777 		ROT	RA,-1		;GENERATE A PSEUDO RANDOM NUMBER
 20063	056622	447 10 0 00 000003 		EQVB	RA,AC		;IN BOTH RA AND AC.
 20064	056623	200 03 0 00 000010 		MOVE	AC,RA		;ON ERROR...RESTORE C(AC) AND C(E)
 20065	056624	202 10 0 04 000000 		MOVEM	RA,(AC1)	;PUT RANDOM # IN 1ST MEMORY LOC.
 20066	056625	312 10 0 04 000000 		CAME	RA,(AC1)	;DID IT MAKE IT ?
 20067	056626	002 10 0 00 000010 		ERRM	RA,RA		;NO...PRINT ERROR MESSAGE. ^
 20068	056627	620 03 0 00 400000 	TST25B:	TRZ	AC,400000	;CLEAR BIT 18 ON AC.
 20069	056630	200 06 0 00 000003 		MOVE	AC3,AC		;SAVE C(AC) FOR FUTURE COMPARE.
 20070	056631	200 05 0 00 000003 		MOVE	AC2,AC		;SIMULATE A HRREM
 20071	056632	621 05 0 00 777777 		TLZ	AC2,-1		;WITH BIT 18 CLEAR.
 20072	056633	572 03 0 04 000000 		HRREM	AC,(AC1)	;DO A HRREM
 20073	056634	312 03 0 00 000006 		CAME	AC,AC3		;C(AC) SHOULD=ORIG C(AC)
 20074	056635	001 10 0 00 000006 		ERR	RA,AC3
 20075	056636	312 05 0 04 000000 		CAME	AC2,(AC1)	;C(E) SHOULD=SIM. ANS.
 20076	056637	002 10 0 00 000006 		ERRM	RA,AC3
 20077	056640	400 07 0 00 000000 		SETZ	AC4,		;SIMULATE A HLLES WITH SIGN BIT CLEAR.
 20078	056641	533 03 0 04 000000 		HLLES	AC,(AC1)	;DO A HLLES
 20079	056642	312 07 0 04 000000 		CAME	AC4,(AC1)	;C(E) SHOULD=0
 20080	056643	002 05 0 00 000006 		ERRM	AC2,AC3
 20081	056644	312 03 0 04 000000 		CAME	AC,(AC1)	;C(AC) SHOULD=C(E).
 20082	056645	001 05 0 00 000006 		ERR	AC2,AC3
 20083	056646	321 02 0 00 056623 		JUMPL	AC-1,TST25B-4	;LOOP ON ERROR SWITCH
 20084	056647	253 04 0 00 056650 		AOBJN	AC1,.+1
 20085	056650	603 04 0 00 770000 		TLNE	AC1,770000
 20086	056651	254 00 0 00 056620 		JRST	TST25A		;INC TO TEST NEXT LOC.
DSKBA DECSYSTEM 2020 BASIC INSTRUCTION RELIABILITY TEST (1), VER 0,1 	MACRO %53(1020) 12:59 29-Mar-78 Page 25
DSKBA4	MAC	29-Mar-78 12:28		DIAGNOSTIC SECTION FOUR                                                            SEQ 0515

 20087
 20088					;TEST ORCBB, ANDCMB, SETOM, SETZB, SETOB.  CHECK
 20089					;FOR CORRECT DATA IN AC AND C(E).
 20090
 20091			000004			AC=4
 20092	056652				TST26:	MSETUP^
 20093			000005			AC1=<AC+1>&17
 20094			000006			AC2=<AC+2>&17
 20095			000007			AC3=<AC+3>&17
 20096			000010			AC4=<AC+4>&17
 20097	056652	201 03 0 00 056652 		MOVEI	AC-1,.
 20098	056653	202 03 0 00 030051 		MOVEM	AC-1,TESTPC	;SETUP SUBTEST PC
 20099	056654	201 03 0 00 000003 		MOVEI	AC-1,<AC-1>&17	;INFORM ERROR ROUTINE
 20100	056655	202 03 0 00 061117 		MOVEM	AC-1,ERRLOP#	;WHICH AC IS USED FOR ITERATION
 20101	056656	200 05 0 00 061114 		MOVE	AC1,BLOK#	;MOVE (-TOP+END,END) INTO AC1. ^
 20102	056657				TST26A:	MRANDOM^
 20103	056657	270 10 0 00 060657 		ADD	RA,[142536475076]
 20104	056660	241 10 0 00 777777 		ROT	RA,-1		;GENERATE A PSEUDO RANDOM NUMBER
 20105	056661	447 10 0 00 000004 		EQVB	RA,AC		;IN BOTH RA AND AC.
 20106	056662	200 04 0 00 000010 		MOVE	AC,RA		;ON ERROR...RESTORE C(AC) AND C(E)
 20107	056663	202 10 0 05 000000 		MOVEM	RA,(AC1)	;PUT RANDOM # IN 1ST MEMORY LOC.
 20108	056664	312 10 0 05 000000 		CAME	RA,(AC1)	;DID IT MAKE IT ?
 20109	056665	002 10 0 00 000010 		ERRM	RA,RA		;NO...PRINT ERROR MESSAGE. ^
 20110	056666	460 06 0 00 000004 	TST26B:	SETCM	AC2,AC		;SIMULATE A ORCBB...1'S COMP.
 20111	056667	473 04 0 05 000000 		ORCBB	AC,(AC1)	;DO ORCBB
 20112	056670	312 04 0 00 000006 		CAME	AC,AC2		;C(AC) SHOULD=SIM. ANS.
 20113	056671	001 10 0 00 000010 		ERR	RA,RA
 20114	056672	312 06 0 05 000000 		CAME	AC2,(AC1)	;C(E) SHOULD=SIM. ANS.
 20115	056673	002 10 0 00 000010 		ERRM	RA,RA
 20116	056674	201 07 0 00 000000 		MOVEI	AC3,0		;SIMULATE ANDCMB...AND 1'S COMP
 20117	056675	423 04 0 05 000000 		ANDCMB	AC,(AC1)	;OF A NUMBER WITH THAT NUMBER
 20118	056676	312 04 0 00 000007 		CAME	AC,AC3		;SHOULD=0
 20119	056677	001 06 0 00 000006 		ERR	AC2,AC2
 20120	056700	312 07 0 05 000000 		CAME	AC3,(AC1)	;C(E) SHOULD=0
 20121	056701	002 06 0 00 000006 		ERRM	AC2,AC2
 20122	056702	200 06 0 00 060662 		MOVE	AC2,[-1]	;SIMULATE SETOM.
 20123	056703	476 04 0 05 000000 		SETOM	AC,(AC1)	;DO SETOM.
 20124	056704	312 04 0 00 000007 		CAME	AC,AC3		;C(AC)SHOULD STILL=0.
 20125	056705	001 07 0 00 000007 		ERR	AC3,AC3
 20126	056706	312 06 0 05 000000 		CAME	AC2,(AC1)	;C(E) SHOULD=-1
 20127	056707	002 07 0 00 000007 		ERRM	AC3,AC3
 20128	056710	403 04 0 05 000000 		SETZB	AC,(AC1)	;DO SETZB
 20129	056711	312 04 0 00 000007 		CAME	AC,AC3		;C(AC) SHOULD=0
 20130	056712	001 06 0 00 000007 		ERR	AC2,AC3
 20131	056713	312 07 0 05 000000 		CAME	AC3,(AC1)	;C(E) SHOULD=0
 20132	056714	002 06 0 00 000007 		ERRM	AC2,AC3
 20133	056715	477 04 0 05 000000 		SETOB	AC,(AC1)	;DO A SETOB.
 20134	056716	312 04 0 00 000006 		CAME	AC,AC2		;C(AC) SHOULD=-1
 20135	056717	001 07 0 00 000007 		ERR	AC3,AC3
 20136	056720	312 06 0 05 000000 		CAME	AC2,(AC1)	;C(E) SHOULD=-1
 20137	056721	002 07 0 00 000007 		ERRM	AC3,AC3
 20138	056722	321 03 0 00 056662 		JUMPL	AC-1,TST26B-4	;LOOP ON ERROR SWITCH.
 20139	056723	253 05 0 00 056724 		AOBJN	AC1,.+1
 20140	056724	603 05 0 00 770000 		TLNE	AC1,770000
 20141	056725	254 00 0 00 056657 		JRST	TST26A		;INC TO TEST NEXT LOC.
DSKBA DECSYSTEM 2020 BASIC INSTRUCTION RELIABILITY TEST (1), VER 0,1 	MACRO %53(1020) 12:59 29-Mar-78 Page 26
DSKBA4	MAC	29-Mar-78 12:28		DIAGNOSTIC SECTION FOUR                                                            SEQ 0516

 20142
 20143					;TEST AOS, SOA, TDC, TDCA, TSC, TSCA.  CHECK
 20144					;FOR CORRECT DATA IN AC AND C(E)
 20145					;C(AC) AND C(E)=RAN. NUM.
 20146
 20147			000005			AC=5
 20148	056726				TST27:	MSETUP^
 20149			000006			AC1=<AC+1>&17
 20150			000007			AC2=<AC+2>&17
 20151			000010			AC3=<AC+3>&17
 20152			000011			AC4=<AC+4>&17
 20153	056726	201 04 0 00 056726 		MOVEI	AC-1,.
 20154	056727	202 04 0 00 030051 		MOVEM	AC-1,TESTPC	;SETUP SUBTEST PC
 20155	056730	201 04 0 00 000004 		MOVEI	AC-1,<AC-1>&17	;INFORM ERROR ROUTINE
 20156	056731	202 04 0 00 061117 		MOVEM	AC-1,ERRLOP#	;WHICH AC IS USED FOR ITERATION
 20157	056732	200 06 0 00 061114 		MOVE	AC1,BLOK#	;MOVE (-TOP+END,END) INTO AC1. ^
 20158	056733				TST27A:	MRANDOM^
 20159	056733	270 10 0 00 060657 		ADD	RA,[142536475076]
 20160	056734	241 10 0 00 777777 		ROT	RA,-1		;GENERATE A PSEUDO RANDOM NUMBER
 20161	056735	447 10 0 00 000005 		EQVB	RA,AC		;IN BOTH RA AND AC.
 20162	056736	200 05 0 00 000010 		MOVE	AC,RA		;ON ERROR...RESTORE C(AC) AND C(E)
 20163	056737	202 10 0 06 000000 		MOVEM	RA,(AC1)	;PUT RANDOM # IN 1ST MEMORY LOC.
 20164	056740	312 10 0 06 000000 		CAME	RA,(AC1)	;DID IT MAKE IT ?
 20165	056741	002 10 0 00 000010 		ERRM	RA,RA		;NO...PRINT ERROR MESSAGE. ^
 20166	056742	350 05 0 06 000000 	TST27B:	AOS	AC,(AC1)	;ADD ONE TO AC+C(E) AND NO SKIP.
 20167	056743	374 05 0 06 000000 		SOSA	AC,(AC1)	;SUB ONE FROM AC+C(E) AND SKIP.
 20168	056744	005 05 0 00 060701 		ER	AC,[ASCII/AOS/]
 20169	056745	312 05 0 06 000000 		CAME	AC,(AC1)	;C(AC)SHOULD=C(E).
 20170	056746	001 10 0 00 000010 		ERR	RA,RA		;C(E) DID NOT GET STORED IN AC CORRECTLY
 20171	056747	312 05 0 00 000010 		CAME	AC,RA		;C(AC) SHOULD=ORIG. C(AC).
 20172	056750	001 10 0 00 000010 		ERR	RA,RA
 20173	056751	650 05 0 06 000000 		TDC	AC,(AC1)	;SHOULD NOT SKIP
 20174	056752	654 05 0 06 000000 		TDCA	AC,(AC1)	;SHOULD ALWAYS SKIP.
 20175	056753	005 05 0 00 060674 		ER	AC,[ASCII/TST/]
 20176	056754	312 05 0 00 000010 		CAME	AC,RA		;C(AC) SHOULD=ORIG C(AC).
 20177	056755	001 10 0 00 000010 		ERR	RA,RA
 20178	056756	651 05 0 06 000000 		TSC	AC,(AC1)	;SHOULD NOT SKIP.
 20179	056757	655 05 0 06 000000 		TSCA	AC,(AC1)	;SHOULD ALWAYS SKIP.
 20180	056760	005 05 0 00 060674 		ER	AC,[ASCII/TST/]
 20181	056761	312 05 0 00 000010 		CAME	AC,RA		;C(AC) SHOULD=ORIG C(AC).
 20182	056762	001 10 0 00 000010 		ERR	RA,RA
 20183	056763	321 04 0 00 056736 		JUMPL	AC-1,TST27B-4	;LOOP ON ERROR SWITCH.
 20184	056764	253 06 0 00 056765 		AOBJN	AC1,.+1
 20185	056765	603 06 0 00 770000 		TLNE	AC1,770000
 20186	056766	254 00 0 00 056733 		JRST	TST27A		;INC TO TEST NEXT LOC.
DSKBA DECSYSTEM 2020 BASIC INSTRUCTION RELIABILITY TEST (1), VER 0,1 	MACRO %53(1020) 12:59 29-Mar-78 Page 27
DSKBA4	MAC	29-Mar-78 12:28		DIAGNOSTIC SECTION FOUR                                                            SEQ 0517

 20187
 20188					;TEST MOVMM, MOVMS.  CHECK FOR
 20189					;CORRECT DATA IN AC AND C(E).
 20190					;C(AC)+C(E)=RAN. NUM.
 20191
 20192			000003			AC=3
 20193	056767				TST30:	MSETUP^
 20194			000004			AC1=<AC+1>&17
 20195			000005			AC2=<AC+2>&17
 20196			000006			AC3=<AC+3>&17
 20197			000007			AC4=<AC+4>&17
 20198	056767	201 02 0 00 056767 		MOVEI	AC-1,.
 20199	056770	202 02 0 00 030051 		MOVEM	AC-1,TESTPC	;SETUP SUBTEST PC
 20200	056771	201 02 0 00 000002 		MOVEI	AC-1,<AC-1>&17	;INFORM ERROR ROUTINE
 20201	056772	202 02 0 00 061117 		MOVEM	AC-1,ERRLOP#	;WHICH AC IS USED FOR ITERATION
 20202	056773	200 04 0 00 061114 		MOVE	AC1,BLOK#	;MOVE (-TOP+END,END) INTO AC1. ^
 20203	056774				TST30A:	MRANDOM^
 20204	056774	270 10 0 00 060657 		ADD	RA,[142536475076]
 20205	056775	241 10 0 00 777777 		ROT	RA,-1		;GENERATE A PSEUDO RANDOM NUMBER
 20206	056776	447 10 0 00 000003 		EQVB	RA,AC		;IN BOTH RA AND AC.
 20207	056777	200 03 0 00 000010 		MOVE	AC,RA		;ON ERROR...RESTORE C(AC) AND C(E)
 20208	057000	202 10 0 04 000000 		MOVEM	RA,(AC1)	;PUT RANDOM # IN 1ST MEMORY LOC.
 20209	057001	312 10 0 04 000000 		CAME	RA,(AC1)	;DID IT MAKE IT ?
 20210	057002	002 10 0 00 000010 		ERRM	RA,RA		;NO...PRINT ERROR MESSAGE. ^
 20211	057003	460 05 0 00 000003 	TST30B:	SETCM	AC2,AC		;SIMULATE A MOVM
 20212	057004	271 05 0 00 000001 		ADDI	AC2,1		;WITH SIGN BIT SET.
 20213	057005	607 03 0 00 400000 		TLNN	AC,400000	;SKIP IF SIGN BIT SET.
 20214	057006	200 05 0 00 000003 		MOVE	AC2,AC		;SIM. MOVM WITH SIGN BIT CLEAR.
 20215	057007	216 03 0 04 000000 		MOVMM	AC,(AC1)	;DO A MOVMM
 20216	057010	312 03 0 00 000010 		CAME	AC,RA		;C(AC) SHOULD=ORIG. C(AC)
 20217	057011	001 10 0 00 000010 		ERR	RA,RA		;C(AC) GOT MODIFIED.
 20218	057012	312 05 0 04 000000 		CAME	AC2,(AC1)	;C(E) SHOULD=SIM. ANS.
 20219	057013	002 10 0 00 000010 		ERRM	RA,RA
 20220	057014	202 10 0 04 000000 		MOVEM	RA,(AC1)	;RESTORE C(E).
 20221	057015	217 03 0 04 000000 		MOVMS	AC,(AC1)	;DO A MOVMS
 20222	057016	312 03 0 04 000000 		CAME	AC,(AC1)	;C(AC) SHOULD=C(E).
 20223	057017	001 10 0 00 000010 		ERR	RA,RA
 20224	057020	312 05 0 04 000000 		CAME	AC2,(AC1)	;C(E) SHOULD=SIM. ANS.
 20225	057021	002 10 0 00 000010 		ERRM	RA,RA
 20226	057022	321 02 0 00 056777 		JUMPL	AC-1,TST30B-4	;LOOP ON ERROR SWITCH
 20227	057023	253 04 0 00 057024 		AOBJN	AC1,.+1
 20228	057024	603 04 0 00 770000 		TLNE	AC1,770000
 20229	057025	254 00 0 00 056774 		JRST	TST30A		;INC TO TEST NEXT LOC.
DSKBA DECSYSTEM 2020 BASIC INSTRUCTION RELIABILITY TEST (1), VER 0,1 	MACRO %53(1020) 12:59 29-Mar-78 Page 28
DSKBA4	MAC	29-Mar-78 12:28		DIAGNOSTIC SECTION FOUR                                                            SEQ 0518

 20230
 20231					;TEST ADDM, SUBB, ADDB, SUBM. CHECK FOR
 20232					;CORRECT DATA IN AC AND C(E)
 20233					;C(AC) AND C(E)=RAN. NUM.
 20234
 20235			000001			AC=1
 20236	057026				TST31:	MSETUP^
 20237			000002			AC1=<AC+1>&17
 20238			000003			AC2=<AC+2>&17
 20239			000004			AC3=<AC+3>&17
 20240			000005			AC4=<AC+4>&17
 20241	057026	201 00 0 00 057026 		MOVEI	AC-1,.
 20242	057027	202 00 0 00 030051 		MOVEM	AC-1,TESTPC	;SETUP SUBTEST PC
 20243	057030	201 00 0 00 000000 		MOVEI	AC-1,<AC-1>&17	;INFORM ERROR ROUTINE
 20244	057031	202 00 0 00 061117 		MOVEM	AC-1,ERRLOP#	;WHICH AC IS USED FOR ITERATION
 20245	057032	200 02 0 00 061114 		MOVE	AC1,BLOK#	;MOVE (-TOP+END,END) INTO AC1. ^
 20246	057033				TST31A:	MRANDOM^
 20247	057033	270 10 0 00 060657 		ADD	RA,[142536475076]
 20248	057034	241 10 0 00 777777 		ROT	RA,-1		;GENERATE A PSEUDO RANDOM NUMBER
 20249	057035	447 10 0 00 000001 		EQVB	RA,AC		;IN BOTH RA AND AC.
 20250	057036	200 01 0 00 000010 		MOVE	AC,RA		;ON ERROR...RESTORE C(AC) AND C(E)
 20251	057037	202 10 0 02 000000 		MOVEM	RA,(AC1)	;PUT RANDOM # IN 1ST MEMORY LOC.
 20252	057040	312 10 0 02 000000 		CAME	RA,(AC1)	;DID IT MAKE IT ?
 20253	057041	002 10 0 00 000010 		ERRM	RA,RA		;NO...PRINT ERROR MESSAGE. ^
 20254	057042	272 01 0 02 000000 	TST31B:	ADDM	AC,(AC1)	;DO AN ADDM.
 20255	057043	200 03 0 02 000000 		MOVE	AC2,(AC1)	;PUT ANS INTO AC2
 20256	057044	202 01 0 02 000000 		MOVEM	AC,(AC1)	;AND RESTORE C(E)
 20257	057045	277 03 0 02 000000 		SUBB	AC2,(AC1)	;DO A SUBB.
 20258	057046	312 03 0 00 000010 		CAME	AC2,RA		;C(AC2) SHOULD=ORIG C(AC).
 20259	057047	001 10 0 00 000010 		ERR	RA,RA
 20260	057050	312 10 0 02 000000 		CAME	RA,(AC1)	;C(E) SHOULD=ORIG. C(E)
 20261	057051	002 10 0 00 000010 		ERRM	RA,RA
 20262	057052	273 01 0 02 000000 		ADDB	AC,(AC1)	;DO AN ADDB.
 20263	057053	312 01 0 02 000000 		CAME	AC,(AC1)	;C(AC) SHOULD=C(E).
 20264	057054	001 10 0 00 000010 		ERR	RA,RA
 20265	057055	202 10 0 02 000000 		MOVEM	RA,(AC1)	;RESTORE C(E).
 20266	057056	276 01 0 02 000000 		SUBM	AC,(AC1)	;DO A SUBM.
 20267	057057	312 10 0 02 000000 		CAME	RA,(AC1)	;C(E) SHOULD=ORIG. C(E)
 20268	057060	002 10 0 00 000010 		ERRM	RA,RA
 20269	057061	321 00 0 00 057036 		JUMPL	AC-1,TST31B-4	;LOOP ON ERROR SWITCH
 20270	057062	253 02 0 00 057063 		AOBJN	AC1,.+1
 20271	057063	603 02 0 00 770000 		TLNE	AC1,770000
 20272	057064	254 00 0 00 057033 		JRST	TST31A		;INC TO TEST NEXT LOC.
DSKBA DECSYSTEM 2020 BASIC INSTRUCTION RELIABILITY TEST (1), VER 0,1 	MACRO %53(1020) 12:59 29-Mar-78 Page 29
DSKBA4	MAC	29-Mar-78 12:28		DIAGNOSTIC SECTION FOUR                                                            SEQ 0519

 20273					;TEST JRST. PUT A JSP BACK TO THE PROGRAM
 20274					;IN EVERY LOCATION FROM THE END OF PROGRAM TO
 20275					;THE DESIGNATED END OF MEMORY. PUT A JRST
 20276					;BACK TO PROGRAM IN EACH LOC THAT THE JRST,
 20277					;IN THE PROGRAM, POINTS TO. THIS WAY IF
 20278					;THE JRST DOES NOT GO TO THE RIGHT LOC
 20279					;IN MEMORY, A JSP WILL STORE THE LOC
 20280					;IT DID GO TO.
 20281
 20282			000001			AC=1
 20283	057065				JRST1:	SETUP1	1,1^
 20284			000002			AC1=<AC+1>&17
 20285			000003			AC2=<AC+2>&17
 20286			000004			AC3=<AC+3>&17
 20287			000005			AC4=<AC+4>&17
 20288			000006			AC5=<AC+5>&17
 20289			000017			RAN1=<AC-2>&17
 20290	057065	201 00 0 00 057065 		MOVEI	AC-1,.
 20291	057066	202 00 0 00 030051 		MOVEM	AC-1,TESTPC	;SETUP SUBTEST PC
 20292	057067	201 00 0 00 000000 		MOVEI	AC-1,<AC-1>&17	;INFORM ERROR ROUTINE
 20293	057070	202 00 0 00 061117 		MOVEM	AC-1,ERRLOP#	;WHICH AC IS USED FOR ITERATION
 20294	057071	201 00 0 00 000001 		MOVEI	AC-1,1		;ROUTINE WEIGHTING
 20295	057072	240 00 1 00 030657 		ASH	AC-1,@CMPLXT+1	;ROUTINE COMPLEXITY
 20296	057073	240 00 1 00 030655 		ASH	AC-1,@RTIME	;RUN TIME CONTROLLER ^
 20297	057074	200 01 0 00 061115 		MOVE	AC,BUFSIZ	;PUT A
 20298	057075	200 05 0 00 060742 		MOVE	AC4,[JSP AC3,JRST5]	;JSP AC3, JRST5
 20299	057076	202 05 0 01 000000 		MOVEM	AC4,(AC)	;FROM END OF PROG
 20300	057077	253 01 0 00 057100 		AOBJN	AC,.+1
 20301	057100	603 01 0 00 770000 		TLNE	AC,770000
 20302	057101	254 00 0 00 057076 		JRST	.-3
 20303	057102	200 02 0 00 061132 	JRST1A:	MOVE	AC1,WCBUF	;MOVE (-TOP+END,END) INTO AC1.
 20304	057103	200 03 0 00 060743 		MOVE	AC2,[JRST JRST4]	;PUT A JRST JRST4 INTO
 20305	057104	202 03 0 02 000000 	JRST2:	MOVEM	AC2,(AC1)	;CURRENT MEM LOC UNDER TEST.
 20306	057105	254 00 0 02 000000 	JRST3:	JRST	(AC1)		;DO THE JRST OUT TO MEM.
 20307	057106	005 00 0 00 060744 		ER	,[ASCII/JRST/]	;PC GOT INC INSTEAD OF MEM ADDRESS.
 20308	057107	254 00 0 00 057112 	JRST4:	JRST	.+3		;JRST FOUND A JRST AND CAME BACK OK
 20309	057110	360 04 0 00 000000 	JRST5:	SOJ	AC3,		;JRST WENT TO WRONG LOC AND
 20310	057111	007 04 0 02 000000 		ERMM	AC3,(AC1)	;A JSP CAME BACK HERE.
 20311	057112	321 00 0 00 057105 		JUMPL	AC-1,JRST3	;LOOP ON ERROR SWITCH.
 20312	057113	202 05 0 02 000000 		MOVEM	AC4,(AC1)	;REPLACE CURRENT LOC WITH JSP.
 20313	057114	253 02 0 00 057115 		AOBJN	AC1,.+1
 20314	057115	603 02 0 00 770000 		TLNE	AC1,770000
 20315	057116	254 00 0 00 057104 		JRST	JRST2		;INC TO TEST NEXT LOC.
 20316	057117	367 00 0 00 057102 		SOJG	AC-1,JRST1A	;ITERATION COUNTER.
 20317
DSKBA DECSYSTEM 2020 BASIC INSTRUCTION RELIABILITY TEST (1), VER 0,1 	MACRO %53(1020) 12:59 29-Mar-78 Page 30
DSKBA4	MAC	29-Mar-78 12:28		DIAGNOSTIC SECTION FOUR                                                            SEQ 0520

 20318
 20319					;TEST JSP. PUT A JSP BACK TO PROGRAM IN EACH
 20320					;LOCATION FROM THE END OF PROGRAM TO THE DESIGNATED
 20321					;END OF MEMORY. IF THE JSP DOES NOT GO TO THE RIGHT
 20322					;LOC IN MEMORY, THE JSP BACK WILL STORE THE LOC IT
 20323					;DID GO TO. CHECK C(AC) FOR CORRECT FLAGS IN THE LEFT
 20324					;SIDE AND E+1 IN THE RIGHT.
 20325
 20326			000002			AC=2
 20327	057120				JSP1:	SETUP1	1,1^
 20328			000003			AC1=<AC+1>&17
 20329			000004			AC2=<AC+2>&17
 20330			000005			AC3=<AC+3>&17
 20331			000006			AC4=<AC+4>&17
 20332			000007			AC5=<AC+5>&17
 20333			000000			RAN1=<AC-2>&17
 20334	057120	201 01 0 00 057120 		MOVEI	AC-1,.
 20335	057121	202 01 0 00 030051 		MOVEM	AC-1,TESTPC	;SETUP SUBTEST PC
 20336	057122	201 01 0 00 000001 		MOVEI	AC-1,<AC-1>&17	;INFORM ERROR ROUTINE
 20337	057123	202 01 0 00 061117 		MOVEM	AC-1,ERRLOP#	;WHICH AC IS USED FOR ITERATION
 20338	057124	201 01 0 00 000001 		MOVEI	AC-1,1		;ROUTINE WEIGHTING
 20339	057125	240 01 1 00 030657 		ASH	AC-1,@CMPLXT+1	;ROUTINE COMPLEXITY
 20340	057126	240 01 1 00 030655 		ASH	AC-1,@RTIME	;RUN TIME CONTROLLER ^
 20341	057127	200 02 0 00 061115 		MOVE	AC,BUFSIZ	;PUT A
 20342	057130	200 03 0 00 060745 		MOVE	AC1,[JSP AC,JSP3]	;JSP AC,JSP3
 20343	057131	202 03 0 02 000000 		MOVEM	AC1,(AC)	;FROM END OF PROG.
 20344	057132	253 02 0 00 057133 		AOBJN	AC,.+1
 20345	057133	603 02 0 00 770000 		TLNE	AC,770000
 20346	057134	254 00 0 00 057131 		JRST	.-3
 20347	057135	200 03 0 00 061132 	JSP1A:	MOVE	AC1,WCBUF	;MOVE (-TOP+END,END) INTO AC1.
 20348	057136	200 04 0 00 055434 		MOVE	AC2,FLAGS	;MOVE ALL FLAGS BITS BUT USER MODE
 20349	057137	254 02 0 04 057140 		JRST	2,.+1(AC2)	;INTO AC2 AND SET THESE FLAGS.
 20350	057140	513 00 0 00 000004 	JSP2:	HLLZS	AC2		;SIMULATE JSP...
 20351	057141	541 04 0 03 000001 		HRRI	AC2,1(AC1)	;(FLAGS, MEM LOC+1).
 20352	057142	477 02 0 00 000000 		SETOB	AC,RAN1		;MAKE C(AC)=-1.
 20353	057143	265 02 0 03 000000 		JSP	AC,(AC1)	;DO A JSP TO MEM.
 20354	057144	621 02 0 00 010000 	JSP3:	TLZ	AC,USERF	;CLEAR USER MODE BIT IN AC IF ON.
 20355	057145	312 02 0 00 000004 		CAME	AC,AC2		;C(AC) SHOULD=SIM. ANS
 20356	057146	003 00 0 03 000000 		ERRI	RAN1,(AC1)	;
 20357	057147	321 01 0 00 057140 		JUMPL	AC-1,JSP2	;LOOP ON ERROR SWITCH.
 20358	057150	253 03 0 00 057151 		AOBJN	AC1,.+1
 20359	057151	603 03 0 00 770000 		TLNE	AC1,770000
 20360	057152	254 00 0 00 057140 		JRST	JSP2		;INC TO TEST NEXT LOC.
 20361	057153	367 01 0 00 057135 		SOJG	AC-1,JSP1A	;ITERATION COUNTER.
DSKBA DECSYSTEM 2020 BASIC INSTRUCTION RELIABILITY TEST (1), VER 0,1 	MACRO %53(1020) 12:59 29-Mar-78 Page 31
DSKBA4	MAC	29-Mar-78 12:28		DIAGNOSTIC SECTION FOUR                                                            SEQ 0521

 20362
 20363					;TEST JSR.
 20364					;PUT A JSP BACK TO THE PROGRAM IN EVERY LOCATION
 20365					;FROM THE END OF THE PROGRAM TO THE DESIGNATED
 20366					;END OF MEMORY. IF THE JSR DOES NOT GO TO THE
 20367					;RIGHT LOC IN MEMORY, THE JSP WILL STORE THE LOC
 20368					;IT DID GO TO. ALSO CHECK FOR NO MODIFICATION OF AC.
 20369
 20370			000003			AC=3
 20371	057154				JSRA:	SETUP1	1,1^
 20372			000004			AC1=<AC+1>&17
 20373			000005			AC2=<AC+2>&17
 20374			000006			AC3=<AC+3>&17
 20375			000007			AC4=<AC+4>&17
 20376			000010			AC5=<AC+5>&17
 20377			000001			RAN1=<AC-2>&17
 20378	057154	201 02 0 00 057154 		MOVEI	AC-1,.
 20379	057155	202 02 0 00 030051 		MOVEM	AC-1,TESTPC	;SETUP SUBTEST PC
 20380	057156	201 02 0 00 000002 		MOVEI	AC-1,<AC-1>&17	;INFORM ERROR ROUTINE
 20381	057157	202 02 0 00 061117 		MOVEM	AC-1,ERRLOP#	;WHICH AC IS USED FOR ITERATION
 20382	057160	201 02 0 00 000001 		MOVEI	AC-1,1		;ROUTINE WEIGHTING
 20383	057161	240 02 1 00 030657 		ASH	AC-1,@CMPLXT+1	;ROUTINE COMPLEXITY
 20384	057162	240 02 1 00 030655 		ASH	AC-1,@RTIME	;RUN TIME CONTROLLER ^
 20385	057163	200 03 0 00 061115 		MOVE	AC,BUFSIZ	;PUT A
 20386	057164	200 05 0 00 060746 		MOVE	AC2,[JSP AC4,JSRD]	;JSP AC4, JSRD
 20387	057165	202 05 0 03 000000 		MOVEM	AC2,(AC)	;FROM END OF PROG
 20388	057166	253 03 0 00 057167 		AOBJN	AC,.+1
 20389	057167	603 03 0 00 770000 		TLNE	AC,770000
 20390	057170	254 00 0 00 057165 		JRST	.-3
 20391	057171	200 04 0 00 061132 	JSPA1:	MOVE	AC1,WCBUF	;MOVE (-TOP+END,END) INTO AC1.
 20392	057172	270 04 0 00 060714 		ADD	AC1,[XWD 1,0]	;ADD ONE TO LEFT...PREVENT NON EX MEM.
 20393	057173	477 03 0 00 000001 	JSRB:	SETOB	AC,RAN1		;SET C(AC) TO ALL ONES.
 20394	057174	264 03 0 04 000000 	JSRC:	JSR	AC,(AC1)	;DO THE JSR TO MEM.
 20395	057175	312 03 0 00 000001 	JSRD:	CAME	AC,RAN1		;C(AC) SHOULD STILL= -1.
 20396	057176	001 05 0 00 000001 		ERR	AC2,RAN1	;C(AC)GOT MODIFIED
 20397	057177	553 00 0 00 000007 		HRRZS	AC4		;JSP STORED PC IN AC4.
 20398	057200	302 07 0 04 000002 		CAIE	AC4,2(AC1)	;C(AC4) SHOULD=MEM LOC+2.
 20399	057201	007 07 0 04 000002 		ERMM	AC4,2(AC1)	;JSR WENT TO WRONG LOC.
 20400	057202	321 02 0 00 057173 		JUMPL	AC-1,JSRB	;LOOP ON ERROR SWITCH.
 20401	057203	202 05 0 04 000000 		MOVEM	AC2,(AC1)	;RESTORE JSP IN CURRENT LOC.
 20402	057204	253 04 0 00 057205 		AOBJN	AC1,.+1
 20403	057205	603 04 0 00 770000 		TLNE	AC1,770000
 20404	057206	254 00 0 00 057174 		JRST	JSRC		;INC TO TEST NEXT LOC.
 20405	057207	367 02 0 00 057171 		SOJG	AC-1,JSPA1	;ITERATION COUNTER.
DSKBA DECSYSTEM 2020 BASIC INSTRUCTION RELIABILITY TEST (1), VER 0,1 	MACRO %53(1020) 12:59 29-Mar-78 Page 32
DSKBA4	MAC	29-Mar-78 12:28		DIAGNOSTIC SECTION FOUR                                                            SEQ 0522

 20406
 20407					;TEST JSR.
 20408					;CHECK FOR NO MODIFICATION OF AC AND JSR GOING
 20409					;TO THE CORRECT LOCATION IN MEMORY. PUT A
 20410					;JSR BACK TO JSR+1,IN PROG,IN EVERY LOCATION
 20411					;IN MEMORY FROM THE END OF THE PROGRAM TO THE
 20412					;DESIGNATED END OF MEMORY. IF THE JSR GOES TO
 20413					;THE WRONG LOC IN MEMORY, THE JSR IN MEM WILL
 20414					;STORE THE LOC IT DID GO TO +2 IN THE PROG.
 20415
 20416			000004			AC=4
 20417	057210				JSR1:	SETUP1	 1,1^
 20418			000005			AC1=<AC+1>&17
 20419			000006			AC2=<AC+2>&17
 20420			000007			AC3=<AC+3>&17
 20421			000010			AC4=<AC+4>&17
 20422			000011			AC5=<AC+5>&17
 20423			000002			RAN1=<AC-2>&17
 20424	057210	201 03 0 00 057210 		MOVEI	AC-1,.
 20425	057211	202 03 0 00 030051 		MOVEM	AC-1,TESTPC	;SETUP SUBTEST PC
 20426	057212	201 03 0 00 000003 		MOVEI	AC-1,<AC-1>&17	;INFORM ERROR ROUTINE
 20427	057213	202 03 0 00 061117 		MOVEM	AC-1,ERRLOP#	;WHICH AC IS USED FOR ITERATION
 20428	057214	201 03 0 00 000001 		MOVEI	AC-1,1		;ROUTINE WEIGHTING
 20429	057215	240 03 1 00 030657 		ASH	AC-1,@CMPLXT+1	;ROUTINE COMPLEXITY
 20430	057216	240 03 1 00 030655 		ASH	AC-1,@RTIME	;RUN TIME CONTROLLER ^
 20431	057217	200 04 0 00 061115 		MOVE	AC,BUFSIZ	;PUT A
 20432	057220	200 10 0 00 060747 		MOVE	AC4,[JSR JSR4]	;JSR JSR4
 20433	057221	202 10 0 04 000000 		MOVEM	AC4,(AC)	;FROM END OF PROG
 20434	057222	253 04 0 00 057223 		AOBJN	AC,.+1
 20435	057223	603 04 0 00 770000 		TLNE	AC,770000
 20436	057224	254 00 0 00 057221 		JRST	.-3
 20437	057225	200 05 0 00 061132 	JSR1A:	MOVE	AC1,WCBUF	;MOVE (-TOP+END,END) INTO AC1.
 20438	057226	270 05 0 00 060714 		ADD	AC1,[XWD 1,0]	;ADD ONE TO LEFT...PREVENT NONEX MEM.
 20439	057227	200 06 0 00 055434 		MOVE	AC2,FLAGS	;MOVE FLAGS, EXCEPT USER MODE, BITS
 20440	057230	254 02 0 06 057231 		JRST	2,.+1(AC2)	;INTO AC2 AND SET THESE FLAGS.
 20441	057231	265 07 0 00 057232 		JSP	AC3,.+1		;DO A JSP TO GET FLAGS
 20442	057232	603 07 0 00 010000 		TLNE	AC3,USERF	;USER MODE BIT ON?
 20443	057233	661 06 0 00 010000 		TLO	AC2,USERF	;YES. SET USER MODE BIT FOR COMPARE.
 20444	057234	477 04 0 00 000002 	JSR2:	SETOB	AC,RAN1		;SET C(AC) TO ALL ONES.
 20445	057235	541 06 0 05 000002 	JSR3:	HRRI	AC2,2(AC1)	;SETUP RIGHT SIDE OF  AC TO=PC+1... SIM. ANS.
 20446	057236	264 04 0 05 000000 		JSR	AC,(AC1)	;DO A JSR TO MEM.
 20447	057237	000000	000000		JSR4:	0			;JSR IN MEM COMES HERE AND STORES (FLAGS, PC+2)
 20448	057240	312 04 0 00 000002 		CAME	AC,RAN1		;C(AC) SHOULD STILL= -1.
 20449	057241	001 10 0 00 000002 		ERR	AC4,RAN1	;C(AC) GOT MODIFIED.
 20450	057242	312 06 0 00 057237 		CAME	AC2,JSR4	;C(JSR4) SHOULD=SIM. ANS.
 20451	057243	002 10 0 00 000002 		ERRM	AC4,RAN1	;JSR WENT TO WRONG LOC OR FLAGS CHANGED.
 20452	057244	321 03 0 00 057234 		JUMPL	AC-1,JSR2	;LOOP ON ERROR SWITCH
 20453	057245	202 10 0 05 000000 		MOVEM	AC4,(AC1)	;RESTORE JSR IN MEM.
 20454	057246	253 05 0 00 057247 		AOBJN	AC1,.+1
 20455	057247	603 05 0 00 770000 		TLNE	AC1,770000
 20456	057250	254 00 0 00 057235 		JRST	JSR3		;INC TO TEST NEXT LOC.
 20457	057251	367 03 0 00 057225 		SOJG	AC-1,JSR1A	;ITERATION COUNTER.
DSKBA DECSYSTEM 2020 BASIC INSTRUCTION RELIABILITY TEST (1), VER 0,1 	MACRO %53(1020) 12:59 29-Mar-78 Page 33
DSKBA4	MAC	29-Mar-78 12:28		DIAGNOSTIC SECTION FOUR                                                            SEQ 0523

 20458
 20459					;TEST JSA.
 20460					;CHECK THAT THE JSA GOES TO THE CORRECT LOC
 20461					;IN MEM AND THAT THE C(AC)=(E,PC).
 20462					;PUT A JSP BACK TO THE PROGRAM IN EVERY LOCATION
 20463					;FROM THE END OF THE PROG TO THE END OF MEM.
 20464					;IF THE JSA GOES TO THE WRONG LOC, THE JSP WILL
 20465					;STORE THE LOC IT DID GO TO
 20466
 20467			000005			AC=5
 20468	057252				JSAA:	SETUP1	1,1^
 20469			000006			AC1=<AC+1>&17
 20470			000007			AC2=<AC+2>&17
 20471			000010			AC3=<AC+3>&17
 20472			000011			AC4=<AC+4>&17
 20473			000012			AC5=<AC+5>&17
 20474			000003			RAN1=<AC-2>&17
 20475	057252	201 04 0 00 057252 		MOVEI	AC-1,.
 20476	057253	202 04 0 00 030051 		MOVEM	AC-1,TESTPC	;SETUP SUBTEST PC
 20477	057254	201 04 0 00 000004 		MOVEI	AC-1,<AC-1>&17	;INFORM ERROR ROUTINE
 20478	057255	202 04 0 00 061117 		MOVEM	AC-1,ERRLOP#	;WHICH AC IS USED FOR ITERATION
 20479	057256	201 04 0 00 000001 		MOVEI	AC-1,1		;ROUTINE WEIGHTING
 20480	057257	240 04 1 00 030657 		ASH	AC-1,@CMPLXT+1	;ROUTINE COMPLEXITY
 20481	057260	240 04 1 00 030655 		ASH	AC-1,@RTIME	;RUN TIME CONTROLLER ^
 20482	057261	200 05 0 00 061115 		MOVE	AC,BUFSIZ	;PUT A
 20483	057262	200 12 0 00 060750 		MOVE	AC5,[JSP AC3,JSAD]	;JSP AC3, JSAD
 20484	057263	202 12 0 05 000000 		MOVEM	AC5,(AC)	;FROM END OF PROG
 20485	057264	253 05 0 00 057265 		AOBJN	AC,.+1
 20486	057265	603 05 0 00 770000 		TLNE	AC,770000
 20487	057266	254 00 0 00 057263 		JRST	.-3
 20488	057267	200 06 0 00 061132 	JSA1A:	MOVE	AC1,WCBUF	;MOVE (-TOP+END,END) INTO AC1.
 20489	057270	270 06 0 00 060714 		ADD	AC1,[XWD 1,0]	;ADD ONE TO LEFT...PREVENT NON EX MEM
 20490	057271				JSAB:	RANDM1^
 20491	057271	200 05 0 00 061125 		MOVE	AC,RAN#		;GENERATE  PSEUDO RANDOM NUMBER
 20492	057272	270 05 0 00 060657 		ADD	AC,[142536475076]
 20493	057273	241 05 0 00 777777 		ROT	AC,-1
 20494	057274	447 05 0 00 061125 		EQVB	AC,RAN		;IN BOTH AC AND REGISTER RAN. ^
 20495
 20496	057275	205 11 0 06 000000 		MOVSI	AC4,(AC1)	;SIMULATE THE
 20497	057276	541 11 0 00 057300 		HRRI	AC4,JSAD	;JSA INST.
 20498	057277	266 05 0 06 000000 	JSAC:	JSA	AC,(AC1)	;DO THE JSA INST.
 20499	057300	312 05 0 00 000011 	JSAD:	CAME	AC,AC4		;C(AC) SHOULD=SIM. ANS.
 20500	057301	013 00 0 06 000000 		EERRI	(AC1)
 20501	057302	553 00 0 00 000010 		HRRZS	AC3		;JSP IN MEM STORED PC+2
 20502	057303	302 10 0 06 000002 		CAIE	AC3,2(AC1)	;OF JSA DESTINATION IN AC3
 20503	057304	007 10 0 06 000002 		ERMM	AC3,2(AC1)	;JSA DID NOT GO TO CORRECT MEM LOC.
 20504	057305	321 04 0 00 057277 		JUMPL	AC-1,JSAC	;LOOP ON ERROR SWITCH
 20505	057306	202 12 0 06 000000 		MOVEM	AC5,(AC1)	;RESTORE JSP IN CURRENT LOC.
 20506	057307	253 06 0 00 057310 		AOBJN	AC1,.+1
 20507	057310	603 06 0 00 770000 		TLNE	AC1,770000
 20508	057311	254 00 0 00 057271 		JRST	JSAB		;INC TO TEST NEXT LOC.
 20509	057312	367 04 0 00 057267 		SOJG	AC-1,JSA1A	;ITERATION COUNTER.
DSKBA DECSYSTEM 2020 BASIC INSTRUCTION RELIABILITY TEST (1), VER 0,1 	MACRO %53(1020) 12:59 29-Mar-78 Page 34
DSKBA4	MAC	29-Mar-78 12:28		DIAGNOSTIC SECTION FOUR                                                            SEQ 0524

 20510
 20511					;TEST JSA.
 20512					;PUT A JSA BACK TO THE PROG IN EVERY LOCATION
 20513					;FROM THE END OF THE PROG TO THE DESIGNATED
 20514					;END OF MEMORY AFTER THE JSA TO MEM AND
 20515					;THE JSA BACK, THE CONTENTS OF THE DESTINATION
 20516					;OF THE JSA IN MEMORY SHOULD=ORIG C(AC) OF THE
 20517					;JSA IN THE PROG.  ALSO THE C(AC) OF THE JSA
 20518					;IN MEMORY SHOULD=(E OF JSA IN MEMORY, E+2 OF
 20519					;JSA IN PROG.)  ORIGINAL C(AC)= RAN. NUM.
 20520
 20521			000006			AC=6
 20522	057313				JSA1:	SETUP1	1,1^
 20523			000007			AC1=<AC+1>&17
 20524			000010			AC2=<AC+2>&17
 20525			000011			AC3=<AC+3>&17
 20526			000012			AC4=<AC+4>&17
 20527			000013			AC5=<AC+5>&17
 20528			000004			RAN1=<AC-2>&17
 20529	057313	201 05 0 00 057313 		MOVEI	AC-1,.
 20530	057314	202 05 0 00 030051 		MOVEM	AC-1,TESTPC	;SETUP SUBTEST PC
 20531	057315	201 05 0 00 000005 		MOVEI	AC-1,<AC-1>&17	;INFORM ERROR ROUTINE
 20532	057316	202 05 0 00 061117 		MOVEM	AC-1,ERRLOP#	;WHICH AC IS USED FOR ITERATION
 20533	057317	201 05 0 00 000001 		MOVEI	AC-1,1		;ROUTINE WEIGHTING
 20534	057320	240 05 1 00 030657 		ASH	AC-1,@CMPLXT+1	;ROUTINE COMPLEXITY
 20535	057321	240 05 1 00 030655 		ASH	AC-1,@RTIME	;RUN TIME CONTROLLER ^
 20536	057322	200 06 0 00 061115 		MOVE	AC,BUFSIZ	;PUT A
 20537	057323	200 12 0 00 060751 		MOVE	AC4,[JSA AC3,JSA4]	;JSA AC3, JSA4
 20538	057324	202 12 0 06 000000 		MOVEM	AC4,(AC)	;FROM END OF PROG
 20539	057325	253 06 0 00 057326 		AOBJN	AC,.+1
 20540	057326	603 06 0 00 770000 		TLNE	AC,770000
 20541	057327	254 00 0 00 057324 		JRST	.-3
 20542	057330	200 07 0 00 061132 	JSAX:	MOVE	AC1,WCBUF	;MOVE (-TOP+END,END) INTO AC1.
 20543	057331	270 07 0 00 060714 		ADD	AC1,[XWD 1,0]	;ADD ONE TO LEFT... PREVENT NON EX MOVEM
 20544	057332				JSA2:	RANDM1^
 20545	057332	200 06 0 00 061125 		MOVE	AC,RAN#		;GENERATE  PSEUDO RANDOM NUMBER
 20546	057333	270 06 0 00 060657 		ADD	AC,[142536475076]
 20547	057334	241 06 0 00 777777 		ROT	AC,-1
 20548	057335	447 06 0 00 061125 		EQVB	AC,RAN		;IN BOTH AC AND REGISTER RAN. ^
 20549	057336	200 10 0 00 061125 		MOVE	AC2,RAN		;SAVE C(AC) FOR FUTURE COMPARE.
 20550	057337	200 11 0 00 061125 	JSA3:	MOVE	AC3,RAN		;PUT RAN NUM INTO AC OF JSA IN MEM.
 20551	057340	205 13 0 00 057343 		MOVSI	AC5,JSA4	;SIMULATE THE
 20552	057341	541 13 0 07 000002 		HRRI	AC5,2(AC1)	;JSA IN MEM.
 20553	057342	266 06 0 07 000000 		JSA	AC,(AC1)	;DO THE JSA TO MEM
 20554	057343	000000	000000		JSA4:	0			;THE JSA IN MEM SHOULD POINT HERE.
 20555	057344	312 10 0 00 057343 		CAME	AC2,JSA4	;THE C(JSA4) SHOULD = RAN NUM.
 20556	057345	002 12 0 00 000010 		ERRM	AC4,AC2
 20557	057346	312 11 0 00 000013 		CAME	AC3,AC5		;THE MEM JSA AC SHOULD=SIM. ANS.
 20558	057347	001 12 0 00 000010 		ERR	AC4,AC2
 20559	057350	321 05 0 00 057337 		JUMPL	AC-1,JSA3	;LOOP ON ERROR SWITCH
 20560	057351	202 12 0 07 000000 		MOVEM	AC4,(AC1)	;RESTORE THE JSA IN MEM.
 20561	057352	253 07 0 00 057353 		AOBJN	AC1,.+1
 20562	057353	603 07 0 00 770000 		TLNE	AC1,770000
 20563	057354	254 00 0 00 057332 		JRST	JSA2		;INC TO TEST NEXT LOC
 20564	057355	367 05 0 00 057330 		SOJG	AC-1,JSAX	;ITERATION COUNTER.
DSKBA DECSYSTEM 2020 BASIC INSTRUCTION RELIABILITY TEST (1), VER 0,1 	MACRO %53(1020) 12:59 29-Mar-78 Page 35
DSKBA4	MAC	29-Mar-78 12:28		DIAGNOSTIC SECTION FOUR                                                            SEQ 0525

 20565
 20566					;TEST JRA
 20567					;PUT A JSP BACK TO THE PROG IN EVERY LOCATION
 20568					;FROM THE END OF PROG TO THE DESIGNATED
 20569					;END OF MEM.  IF THE JRA GOES TO THE WRONG LOC
 20570					;IN MEM, THE JSP WILL STORE THE LOC IT DID GO
 20571					;TO.  BEFORE THE JRA, THE C(AC)= (E,0). AFTER THE
 20572					;JRA, THE C(AC) SHOULD=C(E).
 20573
 20574			000007			AC=7
 20575	057356				JRA1:	SETUP1	1,1^
 20576			000010			AC1=<AC+1>&17
 20577			000011			AC2=<AC+2>&17
 20578			000012			AC3=<AC+3>&17
 20579			000013			AC4=<AC+4>&17
 20580			000014			AC5=<AC+5>&17
 20581			000005			RAN1=<AC-2>&17
 20582	057356	201 06 0 00 057356 		MOVEI	AC-1,.
 20583	057357	202 06 0 00 030051 		MOVEM	AC-1,TESTPC	;SETUP SUBTEST PC
 20584	057360	201 06 0 00 000006 		MOVEI	AC-1,<AC-1>&17	;INFORM ERROR ROUTINE
 20585	057361	202 06 0 00 061117 		MOVEM	AC-1,ERRLOP#	;WHICH AC IS USED FOR ITERATION
 20586	057362	201 06 0 00 000001 		MOVEI	AC-1,1		;ROUTINE WEIGHTING
 20587	057363	240 06 1 00 030657 		ASH	AC-1,@CMPLXT+1	;ROUTINE COMPLEXITY
 20588	057364	240 06 1 00 030655 		ASH	AC-1,@RTIME	;RUN TIME CONTROLLER ^
 20589	057365	200 07 0 00 061115 		MOVE	AC,BUFSIZ	;PUT A
 20590	057366	200 11 0 00 060752 		MOVE	AC2,[JSP AC3,JRA3]	;JSP AC3,JRA3
 20591	057367	202 11 0 07 000000 		MOVEM	AC2,(AC)	;FROM END OF PROG
 20592	057370	253 07 0 00 057371 		AOBJN	AC,.+1
 20593	057371	603 07 0 00 770000 		TLNE	AC,770000
 20594	057372	254 00 0 00 057367 		JRST	.-3
 20595	057373	200 10 0 00 061132 	JRA1A:	MOVE	AC1,WCBUF	;MOVE (-TOP+END,END) INTO AC1.
 20596	057374	205 07 0 10 000000 	JRA2:	MOVSI	AC,(AC1)	;PUT E INTO LEFT SIDE OF AC.
 20597	057375	200 13 0 00 000007 		MOVE	AC4,AC		;SAVE C(AC) FOR PNT IN CASE OF ERR.
 20598	057376	267 07 0 10 000000 		JRA	AC,(AC1)	;DO THE JRA TO MEM
 20599	057377	312 07 0 00 000011 	JRA3:	CAME	AC,AC2		;C(AC) SHOULD=ORIG C(E).
 20600	057400	001 11 0 00 000013 		ERR	AC2,AC4
 20601	057401	553 00 0 00 000012 		HRRZS	AC3		;JSP IN MEM STORED PC IN AC3
 20602	057402	302 12 0 10 000001 		CAIE	AC3,1(AC1)	;C(AC3) SHOULD = ADDRESS+1.
 20603	057403	007 11 0 10 000001 		ERMM	AC2,1(AC1)	;JRA WENT TO WRONG LOC.
 20604	057404	321 06 0 00 057374 		JUMPL	AC-1,JRA2	;LOOP ON ERROR SWITCH.
 20605	057405	253 10 0 00 057406 		AOBJN	AC1,.+1
 20606	057406	603 10 0 00 770000 		TLNE	AC1,770000
 20607	057407	254 00 0 00 057374 		JRST	JRA2		;INC TO TEST NEXT LOC.
 20608	057410	367 06 0 00 057373 		SOJG	AC-1,JRA1A	;ITERATION COUNTER.
DSKBA DECSYSTEM 2020 BASIC INSTRUCTION RELIABILITY TEST (1), VER 0,1 	MACRO %53(1020) 12:59 29-Mar-78 Page 36
DSKBA4	MAC	29-Mar-78 12:28		DIAGNOSTIC SECTION FOUR                                                            SEQ 0526

 20609
 20610					;TEST JRA, JSA.
 20611					;PUT A JRA BACK TO PROG IN EVERY LOC FROM
 20612					;THE END OF THE PROG TO THE DESIGNATED END
 20613					;OF MEM.  THE ORIGINAL C(AC)=RAN NUM. AFTER
 20614					;THE JSA THE C(AC) SHOULD=(E,PC) AND THE
 20615					;C(E) SHOULD=RAN. NUM. AFTER THE JRA THE
 20616					;C(AC) SHOULD=RAN. NUM. AGAIN. CHECK FOR RAN
 20617					;NUM IN AC AND C(E)
 20618
 20619			000010			AC=10
 20620	057411				JRAA:	SETUP1	1,1^
 20621			000011			AC1=<AC+1>&17
 20622			000012			AC2=<AC+2>&17
 20623			000013			AC3=<AC+3>&17
 20624			000014			AC4=<AC+4>&17
 20625			000015			AC5=<AC+5>&17
 20626			000006			RAN1=<AC-2>&17
 20627	057411	201 07 0 00 057411 		MOVEI	AC-1,.
 20628	057412	202 07 0 00 030051 		MOVEM	AC-1,TESTPC	;SETUP SUBTEST PC
 20629	057413	201 07 0 00 000007 		MOVEI	AC-1,<AC-1>&17	;INFORM ERROR ROUTINE
 20630	057414	202 07 0 00 061117 		MOVEM	AC-1,ERRLOP#	;WHICH AC IS USED FOR ITERATION
 20631	057415	201 07 0 00 000001 		MOVEI	AC-1,1		;ROUTINE WEIGHTING
 20632	057416	240 07 1 00 030657 		ASH	AC-1,@CMPLXT+1	;ROUTINE COMPLEXITY
 20633	057417	240 07 1 00 030655 		ASH	AC-1,@RTIME	;RUN TIME CONTROLLER ^
 20634	057420	200 10 0 00 061115 		MOVE	AC,BUFSIZ	;PUT A
 20635	057421	200 12 0 00 060753 		MOVE	AC2,[JRA AC,JRAD]	;JRA AC,JRAD
 20636	057422	202 12 0 10 000000 		MOVEM	AC2,(AC)	;FROM END OF PROG
 20637	057423	253 10 0 00 057424 		AOBJN	AC,.+1
 20638	057424	603 10 0 00 770000 		TLNE	AC,770000
 20639	057425	254 00 0 00 057422 		JRST	.-3
 20640	057426	200 11 0 00 061132 	JRAA1:	MOVE	AC1,WCBUF	;MOVE (-TOP+END,END) INTO AC1.
 20641	057427	270 11 0 00 060714 		ADD	AC1,[XWD 1,0]	;ADD ONE ON LEFT...PREVENT NON EX MEM
 20642	057430				JRAB:	RANDM1^
 20643	057430	200 10 0 00 061125 		MOVE	AC,RAN#		;GENERATE  PSEUDO RANDOM NUMBER
 20644	057431	270 10 0 00 060657 		ADD	AC,[142536475076]
 20645	057432	241 10 0 00 777777 		ROT	AC,-1
 20646	057433	447 10 0 00 061125 		EQVB	AC,RAN		;IN BOTH AC AND REGISTER RAN. ^
 20647	057434	200 10 0 00 061125 	JRAC:	MOVE	AC,RAN		;RESTORE C(AC) IN CASE OF ERROR
 20648	057435	266 10 0 11 000000 		JSA	AC,(AC1)	;DO THE JSA TO MEM.
 20649	057436	312 10 0 00 061125 	JRAD:	CAME	AC,RAN		;C(AC) SHOULD=ORIG. C(AC).
 20650	057437	001 12 0 00 061125 		ERR	AC2,RAN
 20651	057440	312 10 0 11 000000 		CAME	AC,(AC1)	;C(E) SHOULD=ORIG C(AC).
 20652	057441	001 12 0 00 061125 		ERR	AC2,RAN
 20653	057442	321 07 0 00 057434 		JUMPL	AC-1,JRAC	;LOOP ON ERROR SWITCH
 20654	057443	202 12 0 11 000000 		MOVEM	AC2,(AC1)	;RESTORE JRA IN MEM.
 20655	057444	253 11 0 00 057445 		AOBJN	AC1,.+1
 20656	057445	603 11 0 00 770000 		TLNE	AC1,770000
 20657	057446	254 00 0 00 057430 		JRST	JRAB		;INC TO TEST NEXT LOC.
 20658	057447	367 07 0 00 057426 		SOJG	AC-1,JRAA1	;ITERATION COUNTER.
DSKBA DECSYSTEM 2020 BASIC INSTRUCTION RELIABILITY TEST (1), VER 0,1 	MACRO %53(1020) 12:59 29-Mar-78 Page 37
DSKBA4	MAC	29-Mar-78 12:28		DIAGNOSTIC SECTION FOUR                                                            SEQ 0527

 20659
 20660					;TEST SKIPA.
 20661					;PUT A SKIPA . IN EVERY OTHER LOCATION FROM THE END OF
 20662					;THE PROG TO THE END OF DESIGNATED MEMORY. PUT A JSP BACK TO PROG
 20663					;IN ALL OTHER LOCATIONS FROM THE END OF PROG TO END OF MEM
 20664					;IF THE SKIPA GOES TO THE WRONG LOCATION IN MEM, THE JSP
 20665					;BACK WILL STORE THE PC+1 OF WHERE THE SKIPA WENT TO
 20666					;THE AC OF THE SKIPA INSTRUCTION WILL CONTAIN THE
 20667					;SKIPA THAT FAILED.
 20668
 20669			000011			AC=11
 20670	057450				SKPAA:	SETUP1	5,1^
 20671			000012			AC1=<AC+1>&17
 20672			000013			AC2=<AC+2>&17
 20673			000014			AC3=<AC+3>&17
 20674			000015			AC4=<AC+4>&17
 20675			000016			AC5=<AC+5>&17
 20676			000007			RAN1=<AC-2>&17
 20677	057450	201 10 0 00 057450 		MOVEI	AC-1,.
 20678	057451	202 10 0 00 030051 		MOVEM	AC-1,TESTPC	;SETUP SUBTEST PC
 20679	057452	201 10 0 00 000010 		MOVEI	AC-1,<AC-1>&17	;INFORM ERROR ROUTINE
 20680	057453	202 10 0 00 061117 		MOVEM	AC-1,ERRLOP#	;WHICH AC IS USED FOR ITERATION
 20681	057454	201 10 0 00 000005 		MOVEI	AC-1,5		;ROUTINE WEIGHTING
 20682	057455	240 10 1 00 030657 		ASH	AC-1,@CMPLXT+1	;ROUTINE COMPLEXITY
 20683	057456	240 10 1 00 030655 		ASH	AC-1,@RTIME	;RUN TIME CONTROLLER ^
 20684	057457	550 14 0 00 061123 		HRRZ	AC3,MODULO	;PUT TOP OF DESIGNATED MEM INTO AC3.
 20685	057460	200 13 0 00 060754 		MOVE	AC2,[JSP AC4,SKPAA2];PUT A JSP BACK TO PROG INTO AC2.
 20686	057461	200 12 0 00 060755 		MOVE	AC1,[SKIPA AC5,0];PUT A SKIPA INST INTO AC1.
 20687	057462	541 12 1 00 030145 		HRRI	AC1,@MEMLOW
 20688	057463	202 12 0 12 000000 	SKPAA1:	MOVEM	AC1,(AC1)	;STORE SKIPA IN MEM.
 20689	057464	340 12 0 00 000000 		AOJ	AC1,		;ADD ONE TO ADDRESS IN MEM.
 20690	057465	202 13 0 12 000000 		MOVEM	AC2,(AC1)	;STORE JSP INST.
 20691	057466	303 14 0 12 000002 		CAILE	AC3,2(AC1)	;ADDRESS > OR = TOP OF MEM?
 20692	057467	344 12 0 00 057463 		AOJA	AC1,SKPAA1	;NO. ADD ONE AND CONTINUE.
 20693	057470	200 13 0 00 060756 		MOVE	AC2,[JRST SKPAA3]	;PUT A JRST BACK INTO AC2.
 20694	057471	202 13 0 14 777777 		MOVEM	AC2,-1(AC3)	;STORE IN TOP -1.
 20695	057472	202 13 0 14 000000 		MOVEM	AC2,(AC3)	;STORE IN TOP.
 20696	057473	254 00 1 00 030145 		JRST	@MEMLOW		;GO DO SKIPA INSTRUCTIONS.
 20697	057474	201 15 0 15 777777 	SKPAA2:	MOVEI	AC4,-1(AC4)	;PUT THE PC OF WHERE THE SKIPA WENT TO INTO AC4.
 20698	057475	007 16 0 14 000000 		ERMM	AC5,(AC3)	;C(AC5) = FAILING SKIPA INST.
 20699	057476	367 10 0 00 057473 	SKPAA3:	SOJG	AC-1,SKPAA2-1	;ITERATION COUNTER.
 20700	057477	321 10 0 00 057473 		JUMPL	AC-1,SKPAA2-1	;LOOP ON ERROR SWITCH.
DSKBA DECSYSTEM 2020 BASIC INSTRUCTION RELIABILITY TEST (1), VER 0,1 	MACRO %53(1020) 12:59 29-Mar-78 Page 38
DSKBA4	MAC	29-Mar-78 12:28		DIAGNOSTIC SECTION FOUR                                                            SEQ 0528

 20701					;TEST SKIPA.
 20702					;THIS TEST IS LIKE THE PREVIOUS ONE EXCEPT THAT THE LOCATIONS
 20703					;IN MEM CONTAINING THE SKIPA AND THE ONES CONTAINING THE JSP BACK
 20704					;HAVE BEEN EXCHANGED.
 20705
 20706			000010			AC=10
 20707	057500				SKPB:	SETUP1	5,1^
 20708			000011			AC1=<AC+1>&17
 20709			000012			AC2=<AC+2>&17
 20710			000013			AC3=<AC+3>&17
 20711			000014			AC4=<AC+4>&17
 20712			000015			AC5=<AC+5>&17
 20713			000006			RAN1=<AC-2>&17
 20714	057500	201 07 0 00 057500 		MOVEI	AC-1,.
 20715	057501	202 07 0 00 030051 		MOVEM	AC-1,TESTPC	;SETUP SUBTEST PC
 20716	057502	201 07 0 00 000007 		MOVEI	AC-1,<AC-1>&17	;INFORM ERROR ROUTINE
 20717	057503	202 07 0 00 061117 		MOVEM	AC-1,ERRLOP#	;WHICH AC IS USED FOR ITERATION
 20718	057504	201 07 0 00 000005 		MOVEI	AC-1,5		;ROUTINE WEIGHTING
 20719	057505	240 07 1 00 030657 		ASH	AC-1,@CMPLXT+1	;ROUTINE COMPLEXITY
 20720	057506	240 07 1 00 030655 		ASH	AC-1,@RTIME	;RUN TIME CONTROLLER ^
 20721	057507	550 13 0 00 061123 		HRRZ	AC3,MODULO	;PUT TOP OF MEM IN AC3.
 20722	057510	200 12 0 00 060757 		MOVE	AC2,[JSP AC4,SKPB2];PUT JSP BACK INTO AC2.
 20723	057511	200 11 0 00 060760 		MOVE	AC1,[SKIPA AC5,1];PUT SKIPA INST INTO AC1.
 20724	057512	271 11 1 00 030145 		ADDI	AC1,@MEMLOW
 20725	057513	202 11 0 11 000000 	SKPB1:	MOVEM	AC1,(AC1)	;PUT SKIPA INST INTO MEM.
 20726	057514	340 11 0 00 000000 		AOJ	AC1,		;INC ADDRESS.
 20727	057515	202 12 0 11 000000 		MOVEM	AC2,(AC1)	;PUT JSP INST INTO MEM.
 20728	057516	303 13 0 11 000001 		CAILE	AC3,1(AC1)	;MEM FILLED?
 20729	057517	344 11 0 00 057513 		AOJA	AC1,SKPB1	;NO. CONTINUE TO FILL MEM.
 20730	057520	200 12 0 00 060761 		MOVE	AC2,[JRST SKPB3];PUT A JRST  INTO AC2.
 20731	057521	202 12 0 13 777777 		MOVEM	AC2,-1(AC3)	;PUT A JRST BACK IN TOP -1.
 20732	057522	202 12 0 13 000000 		MOVEM	AC2,(AC3)	;PUT A JRST BACK INTO TOP.
 20733	057523	201 10 1 00 030145 		MOVEI	AC,@MEMLOW
 20734	057524	254 00 0 10 000001 		JRST	1(AC)		;GO DO SKIPA INSTRUCTIONS.
 20735	057525	201 14 0 14 777777 	SKPB2:	MOVEI	AC4,-1(AC4)	;PUT PC OF WHERE SKIPA INST WENT TO INTO AC4.
 20736	057526	007 15 0 13 000000 		ERMM	AC5,(AC3)	;C(AC5) = FAILING SKIPA INST.
 20737	057527	367 07 0 00 057524 	SKPB3:	SOJG	AC-1,SKPB2-1	;ITERATION COUNTER.
 20738	057530	321 07 0 00 057524 		JUMPL	AC-1,SKPB2-1	;LOOP ON ERROR SWITCH.
 20739
DSKBA DECSYSTEM 2020 BASIC INSTRUCTION RELIABILITY TEST (1), VER 0,1 	MACRO %53(1020) 12:59 29-Mar-78 Page 39
DSKBA4	MAC	29-Mar-78 12:28		DIAGNOSTIC SECTION FOUR                                                            SEQ 0529

 20740					;TEST DEFER.
 20741					;FILL BUFFER WITH RAN NUM THAT = ADDRESSES FROM THE END OF
 20742					;THE PROG TO THE END OF DESIGNATED MEMORY. PICK A RANDOM ADDRESS
 20743					;AND SET BIT 13 IN THAT LOC. NOW GET THE LOC THAT THAT POINTS
 20744					;TO AND SET BIT 13 IN IT. KEEP DOING THIS FOR 30 TIMES OR
 20745					;UNTIL A LOC POINTS TO A LOC THAT ALREADY HAS BIT 13 SET.
 20746			000006			COUNT=6
 20747			000007			FINAL=7
 20748	057531	201 16 0 00 057531 	DFRTST:	MOVEI	16,.
 20749	057532	202 16 0 00 030051 		MOVEM	16,TESTPC	;SETUP SUBTEST PC
 20750	057533	201 16 0 00 000016 		MOVEI	16,16
 20751	057534	202 16 0 00 061117 		MOVEM	16,ERRLOP#	;WHICH AC IS USED FOR ITERATION.
 20752	057535	201 16 0 00 000005 		MOVEI	16,5		;ROUTINE WEIGHTING.
 20753	057536	550 05 0 00 061123 		HRRZ	5,MODULO	;PUT HIGHEST MEM LOC IN AC5.
 20754	057537	402 00 0 00 061116 		SETZM	DFRTFG#		;CLR "WHICH DEFER TEST " FLAG.
 20755	057540	201 01 1 00 030145 	DFRT1:	MOVEI	1,@MEMLOW	;PUT ADDRESS OF END OF PROG INTO AC1.
 20756	057541	402 00 0 00 000006 		SETZM	COUNT#		;CLR  CNT OF # OF DEFERS.
 20757	057542	200 10 0 00 061125 	DFRT2:	MOVE	10,RAN		;PRODUCE
 20758	057543	270 10 0 00 060657 		ADD	10,[142536475076];A
 20759	057544	241 10 0 00 000001 		ROT	10,1		;RANDOM
 20760	057545	447 10 0 00 061125 		EQVB	10,RAN		;NUMBER.
 20761	057546	404 10 0 00 000005 		AND	10,5		;AND WITH HIGHEST MEM LOC.
 20762	057547	305 10 1 00 030145 		CAIGE	10,@MEMLOW	;RAN NUM > OR = END OF PROG?
 20763	057550	254 00 0 00 057542 		JRST	DFRT2		;NO. GET ANOTHER NUM.
 20764	057551	303 01 1 00 000005 		CAILE	1,@5		;ADDRESS > HIGHEST MEM LOC?
 20765	057552	254 00 0 00 057555 		JRST	DFRT3		;YES. STOP FILLING MEM.
 20766	057553	202 10 0 01 000000 		MOVEM	10,(1)		;PUT RAN NUM INTO MEM.
 20767	057554	344 01 0 00 057542 		AOJA	1,DFRT2		;ADD 1 TO ADDRESS AND GET A NEW NUM.
 20768	057555	505 10 0 00 000020 	DFRT3:	HRLI	10,20		;SET INDIRECT BIT.
 20769	057556	202 10 0 06 060356 		MOVEM	10,TABL(COUNT)	;PUT IN TABLE.
 20770	057557	200 03 0 10 000000 		MOVE	3,(10)		;GET CONTENTS OF ADDRESS.
 20771	057560	505 03 0 00 000020 		HRLI	3,20		;SET DEFER BIT.
 20772	057561	200 02 0 00 000006 		MOVE	2,COUNT		;PUT COUNT INTO AC2.
 20773	057562	316 03 0 02 060356 		CAMN	3,TABL(2)	;C(C(ADDRESS)) = ANY IN TABLE?
 20774	057563	254 00 0 00 057572 		JRST	DFRT4		;YES. STOP SETTING DEFER BIT.
 20775	057564	365 02 0 00 057562 		SOJGE	2,.-2		;SUB 1 AND TEST NEXT IN TABLE.
 20776	057565	202 03 0 10 000000 		MOVEM	3,(10)		;NUMBER OK, STORE DEFER BIT.
 20777	057566	201 10 0 03 000000 		MOVEI	10,(3)
 20778	057567	350 02 0 00 000006 		AOS	2,COUNT		;INC COUNT.
 20779	057570	305 02 0 00 000030 		CAIGE	2,30		;COUNT = 30?
 20780	057571	254 00 0 00 057555 		JRST	DFRT3		;NO. CONTINUE.
 20781	057572	550 07 0 10 000000 	DFRT4:	HRRZ	7,(10)		;YES. STORE ADDRESS WHERE DEFER SHOULD STOP.
 20782	057573	201 02 1 00 060356 		MOVEI	2,@TABL		;DO DEFER INST.
 20783	057574	312 02 0 00 000007 		CAME	2,FINAL		;C(AC2) SHOULD = C(FINAL).
 20784	057575	260 17 0 00 060272 		GO	ERROUT		;DEFER STOPPED OR WENT TO WRONG LOC.
 20785	057576	367 16 0 00 057540 		SOJG	16,DFRT1	;ITERATION COUNT.
 20786	057577	321 16 0 00 057555 		JUMPL	16,DFRT3	;ERROR LOOP SWITCH.
DSKBA DECSYSTEM 2020 BASIC INSTRUCTION RELIABILITY TEST (1), VER 0,1 	MACRO %53(1020) 12:59 29-Mar-78 Page 40
DSKBA4	MAC	29-Mar-78 12:28		DIAGNOSTIC SECTION FOUR                                                            SEQ 0530

 20787					;TEST DEFER.
 20788					;THIS TEST IS LIKE THE PREVIOUS ONE EXCEPT IT USES
 20789					;INDEX REGISTERS BESIDES THE INDIRECT. INDEX REGISTERS
 20790					;10 - 16 ARE SET TO A -1.THE FLOW FROM ONE LOC TO ANOTHER
 20791					;IS FROM ONE LOC TO THE NEXT LOC -1.
 20792
 20793	057600	201 07 0 00 057600 	DFT:	MOVEI	7,.
 20794	057601	202 07 0 00 030051 		MOVEM	7,TESTPC	;SETUP SUBTEST PC
 20795	057602	201 07 0 00 000007 		MOVEI	7,7		;INFORM ERROR ROUTINE
 20796	057603	202 07 0 00 061117 		MOVEM	7,ERRLOP	;WHICH AC IS USED FOR ITERATION.
 20797	057604	201 07 0 00 000005 		MOVEI	7,5		;PUT ITERATION COUNT INTO AC7.
 20798	057605	202 07 0 00 061126 		MOVEM	7,TAMP#		;SAVE ITERATION COUNT IN TAMP.
 20799	057606	402 00 0 00 061131 		SETZM	TAMP3#		;CLR
 20800	057607	476 00 0 00 061116 		SETOM	DFRTFG#		;SET "WHICH DEFER TEST" FLAG.
 20801	057610	477 10 0 00 000011 	DFT1:	SETOB	10,11		;SET C(AC10-AC16) TO A -1.
 20802	057611	477 12 0 00 000013 		SETOB	12,13
 20803	057612	477 14 0 00 000015 		SETOB	14,15
 20804	057613	474 16 0 00 000000 		SETO	16,
 20805	057614	550 07 0 00 061123 		HRRZ	7,MODULO	;PUT HIGHEST MEM LOC INTO AC7.
 20806	057615	201 01 1 00 030145 		MOVEI	1,@MEMLOW	;PUT ADDRESS OF END OF PROG INTO AC1.
 20807	057616	402 00 0 00 000006 		SETZM	COUNT		;CLR INDIRECT BIT COUNTER.
 20808	057617	200 04 0 00 061125 	DFT2:	MOVE	4,RAN		;PRODUCE
 20809	057620	270 04 0 00 060657 		ADD	4,[142536475076];A
 20810	057621	241 04 0 00 000001 		ROT	4,1		;RANDOM
 20811	057622	447 04 0 00 061125 		EQVB	4,RAN		;NUMBER.
 20812	057623	404 04 0 00 000007 		AND	4,7		;KEEP NUMBER WITHIN EX MEM.
 20813	057624	307 04 1 00 030145 		CAIG	4,@MEMLOW	;NUMBER > THAN END OF PROG?
 20814	057625	254 00 0 00 057617 		JRST	DFT2		;NO. GET ANOTHER NUMBER.
 20815	057626	303 01 1 00 000007 		CAILE	1,@7		;ADR OF WHERE NUM IS STORED > THAN MEM?
 20816	057627	254 00 0 00 057632 		JRST	DFT3		;YES. MEM HAS BEEN FILLED.
 20817	057630	202 04 0 01 000000 		MOVEM	4,(1)		;STORE THIS NUM IN MEM.
 20818	057631	344 01 0 00 057617 		AOJA	1,DFT2		;INC ADR.
DSKBA DECSYSTEM 2020 BASIC INSTRUCTION RELIABILITY TEST (1), VER 0,1 	MACRO %53(1020) 12:59 29-Mar-78 Page 41
DSKBA4	MAC	29-Mar-78 12:28		DIAGNOSTIC SECTION FOUR                                                            SEQ 0531

 20819	057632	200 05 0 00 000004 	DFT3:	MOVE	5,4		;GEN A
 20820	057633	405 05 0 00 000007 		ANDI	5,7		;NUM FROM 0-7.
 20821	057634	306 05 0 00 000007 		CAIN	5,7
 20822	057635	275 05 0 00 000001 		SUBI	5,1
 20823	057636	505 04 0 05 000030 		HRLI	4,30(5)		;SET INDIRECT BIT + INDEX FROM 10 TO 16.
 20824	057637	202 04 0 06 060356 		MOVEM	4,TABL(6)	;STORE IN TABLE.
 20825	057640	200 03 0 04 777777 		MOVE	3,-1(4)		;GET LOC -1.
 20826	057641	505 03 0 05 000030 		HRLI	3,30(5)		;SET INDIRECT BIT + INDEX.
 20827	057642	200 02 0 00 000006 		MOVE	2,COUNT		;PUT COUNT INTO AC2.
 20828	057643	202 03 0 00 061127 		MOVEM	3,TAMP1#	;SAVE C(AC3).
 20829	057644	202 04 0 00 061130 		MOVEM	4,TAMP2#	;SAVE C(AC4).
 20830	057645	550 04 0 00 000003 		HRRZ	4,3		;PUT CURRENT ADR INTO AC4.
 20831	057646	550 03 0 02 060356 		HRRZ	3,TABL(2)	;PUT ADR IN TABLE INTO AC3.
 20832	057647	306 03 0 04 000000 		CAIN	3,(4)		;ADR = ANY IN TABL?
 20833	057650	476 00 0 00 061131 		SETOM	TAMP3#		;YES. SET FLAG.
 20834	057651	365 02 0 00 057646 		SOJGE	2,.-3		;CONTINUE UNTIL CHECKED ALL OF TABLE.
 20835	057652	200 03 0 00 061127 		MOVE	3,TAMP1		;RESTORE AC3.
 20836	057653	200 04 0 00 061130 		MOVE	4,TAMP2		;RESTORE AC4.
 20837	057654	336 00 0 00 061131 		SKIPN	TAMP3		;ADR = ANY IN TABL?
 20838	057655	254 00 0 00 057661 		JRST	.+4		;NO.
 20839	057656	402 00 0 00 061131 		SETZM	TAMP3		;YES. CLR FLAG.
 20840	057657	201 07 0 03 000000 		MOVEI	7,(3)		;GET LAST ADR AND
 20841	057660	254 00 0 00 057667 		JRST	DFT4+1		;GO DO DEFER.
 20842	057661	202 03 0 04 777777 		MOVEM	3,-1(4)		;STORE INDIRECT AND INDEX.
 20843	057662	201 04 0 03 000000 		MOVEI	4,(3)		;GET NEXT ADR.
 20844	057663	350 02 0 00 000006 		AOS	2,COUNT		;INC COUNT.
 20845	057664	305 02 0 00 000030 		CAIGE	2,30		;30?
 20846	057665	254 00 0 00 057632 		JRST	DFT3		;NO. CONTINUE.
 20847	057666	550 07 0 04 777777 	DFT4:	HRRZ	7,-1(4)		;GET ADR WHERE DEFER SHOULD STOP.
 20848	057667	201 02 1 00 060356 		MOVEI	2,@TABL		;DO DEFER INST.
 20849	057670	316 02 0 00 000007 		CAMN	2,7		;=?
 20850	057671	254 00 0 00 057674 		JRST	.+3		;YES.
 20851	057672	260 17 0 00 060272 		GO	ERROUT		;NO. GO PNT ERR MESS.
 20852	057673	254 00 0 00 057676 		JRST	DFT4+10		;JUMP AROUND LOADING ITR CTR.
 20853	057674	370 07 0 00 061126 		SOS	7,TAMP		;GET ITER COUNT AND SUB 1.
 20854	057675	327 07 0 00 057610 		JUMPG	7,DFT1		;CONTINUE IF > 0.
 20855	057676	321 07 0 00 057632 		JUMPL	7,DFT3		;ERROR LOOP IF < 0.
 20856
 20857
DSKBA DECSYSTEM 2020 BASIC INSTRUCTION RELIABILITY TEST (1), VER 0,1 	MACRO %53(1020) 12:59 29-Mar-78 Page 42
DSKBA4	MAC	29-Mar-78 12:28		DIAGNOSTIC SECTION FOUR                                                            SEQ 0532

 20858					;TEST POP.
 20859					;CHECK FOR ABILITY OF POP TO MOVE A RANDOM NUMBER
 20860					;FROM THE C(C(AC)R) TO THE C(E).
 20861
 20862			000011			AC=11
 20863	057677				TPOP:	SETUP1	1,1^
 20864			000012			AC1=<AC+1>&17
 20865			000013			AC2=<AC+2>&17
 20866			000014			AC3=<AC+3>&17
 20867			000015			AC4=<AC+4>&17
 20868			000016			AC5=<AC+5>&17
 20869			000007			RAN1=<AC-2>&17
 20870	057677	201 10 0 00 057677 		MOVEI	AC-1,.
 20871	057700	202 10 0 00 030051 		MOVEM	AC-1,TESTPC	;SETUP SUBTEST PC
 20872	057701	201 10 0 00 000010 		MOVEI	AC-1,<AC-1>&17	;INFORM ERROR ROUTINE
 20873	057702	202 10 0 00 061117 		MOVEM	AC-1,ERRLOP#	;WHICH AC IS USED FOR ITERATION
 20874	057703	201 10 0 00 000001 		MOVEI	AC-1,1		;ROUTINE WEIGHTING
 20875	057704	240 10 1 00 030657 		ASH	AC-1,@CMPLXT+1	;ROUTINE COMPLEXITY
 20876	057705	240 10 1 00 030655 		ASH	AC-1,@RTIME	;RUN TIME CONTROLLER ^
 20877	057706				TPOP1:	RANDM1^
 20878	057706	200 11 0 00 061125 		MOVE	AC,RAN#		;GENERATE  PSEUDO RANDOM NUMBER
 20879	057707	270 11 0 00 060657 		ADD	AC,[142536475076]
 20880	057710	241 11 0 00 777777 		ROT	AC,-1
 20881	057711	447 11 0 00 061125 		EQVB	AC,RAN		;IN BOTH AC AND REGISTER RAN. ^
 20882	057712	200 12 0 00 060762 	TPOP2:	MOVE	AC1,[XWD 1,AC]	;SETUP POINTER TO GET DATA FROM AC.
 20883	057713	262 12 0 00 000013 		POP	AC1,AC2		;DO POP INST.
 20884	057714	312 13 0 00 000011 		CAME	AC2,AC		;C(E) SHOULD=RAN. NUM.
 20885	057715	004 13 0 00 000011 		ERROR	AC2,AC
 20886						LOOP	TPOP1,TPOP2^
 20887	057716	367 10 0 00 057706 		SOJG	AC-1,TPOP1		;ITERATION COUNTER
 20888	057717	200 11 0 00 061125 		MOVE	AC,RAN		;RESTORE RANDOM NUMBER
 20889	057720	321 10 0 00 057712 		JUMPL	AC-1,TPOP2		;LOOP ON ERROR SWITCH ^
DSKBA DECSYSTEM 2020 BASIC INSTRUCTION RELIABILITY TEST (1), VER 0,1 	MACRO %53(1020) 12:59 29-Mar-78 Page 43
DSKBA4	MAC	29-Mar-78 12:28		DIAGNOSTIC SECTION FOUR                                                            SEQ 0533

 20890
 20891					;TEST POP.
 20892					;CHECK POINTER DECREMENT.
 20893					;A RANDOM NUMBER WITH BOTH LEFT AND RIGHT SIDES
 20894					;LESS THAN MEMORY SIZE IS USED AS A POINTER WORD.  THE
 20895					;ONLY RESTRICTION ON THIS NUMBER IS THAT IT BE NON
 20896					;ZERO IN THE LEFT HALF...PREVENT PDL OVERFLOW.
 20897
 20898			000012			AC=12
 20899	057721				TPOP3:	SETUP1	1,1^
 20900			000013			AC1=<AC+1>&17
 20901			000014			AC2=<AC+2>&17
 20902			000015			AC3=<AC+3>&17
 20903			000016			AC4=<AC+4>&17
 20904			000017			AC5=<AC+5>&17
 20905			000010			RAN1=<AC-2>&17
 20906	057721	201 11 0 00 057721 		MOVEI	AC-1,.
 20907	057722	202 11 0 00 030051 		MOVEM	AC-1,TESTPC	;SETUP SUBTEST PC
 20908	057723	201 11 0 00 000011 		MOVEI	AC-1,<AC-1>&17	;INFORM ERROR ROUTINE
 20909	057724	202 11 0 00 061117 		MOVEM	AC-1,ERRLOP#	;WHICH AC IS USED FOR ITERATION
 20910	057725	201 11 0 00 000001 		MOVEI	AC-1,1		;ROUTINE WEIGHTING
 20911	057726	240 11 1 00 030657 		ASH	AC-1,@CMPLXT+1	;ROUTINE COMPLEXITY
 20912	057727	240 11 1 00 030655 		ASH	AC-1,@RTIME	;RUN TIME CONTROLLER ^
 20913	057730				TPOP4:	RANDM1^
 20914	057730	200 12 0 00 061125 		MOVE	AC,RAN#		;GENERATE  PSEUDO RANDOM NUMBER
 20915	057731	270 12 0 00 060657 		ADD	AC,[142536475076]
 20916	057732	241 12 0 00 777777 		ROT	AC,-1
 20917	057733	447 12 0 00 061125 		EQVB	AC,RAN		;IN BOTH AC AND REGISTER RAN. ^
 20918	057734	404 12 0 00 061123 	TPOP5:	AND	AC,MODULO	;MAKE LEFT AND RHT=<MEM SIZ.
 20919	057735	607 12 0 00 777777 		TLNN	AC,-1		;IS LEFT SIDE=0?
 20920	057736	254 00 0 00 057730 		JRST	TPOP4		;YES.. REJECT..PREVENT PDL OV.
 20921	057737	200 13 0 00 000012 		MOVE	AC1,AC		;MOVE POINTER WORD INTO AC1.
 20922	057740	274 12 0 00 060720 		SUB	AC,[XWD 1,1]	;SIMULATE DECREMENTING POINTER.
 20923	057741	262 13 0 00 000014 		POP	AC1,AC2		;DO A POP INST.
 20924	057742	312 13 0 00 000012 		CAME	AC1,AC		;C(AC) SHOULD=SIM. ANS.
 20925	057743	004 13 0 00 000012 		ERROR	AC1,AC
 20926						LOOP	TPOP4,TPOP5^
 20927	057744	367 11 0 00 057730 		SOJG	AC-1,TPOP4		;ITERATION COUNTER
 20928	057745	200 12 0 00 061125 		MOVE	AC,RAN		;RESTORE RANDOM NUMBER
 20929	057746	321 11 0 00 057734 		JUMPL	AC-1,TPOP5		;LOOP ON ERROR SWITCH ^
DSKBA DECSYSTEM 2020 BASIC INSTRUCTION RELIABILITY TEST (1), VER 0,1 	MACRO %53(1020) 12:59 29-Mar-78 Page 44
DSKBA4	MAC	29-Mar-78 12:28		DIAGNOSTIC SECTION FOUR                                                            SEQ 0534

 20930
 20931					;TEST PUSH.
 20932					;CHECK THE ABILITY OF PUSH TO MOVE A RANDOM
 20933					;NUMBER FROM THE C(E) TO THE C(C(AC)R).
 20934
 20935			000013			AC=13
 20936	057747				TPUSH:	SETUP1	1,1^
 20937			000014			AC1=<AC+1>&17
 20938			000015			AC2=<AC+2>&17
 20939			000016			AC3=<AC+3>&17
 20940			000017			AC4=<AC+4>&17
 20941			000000			AC5=<AC+5>&17
 20942			000011			RAN1=<AC-2>&17
 20943	057747	201 12 0 00 057747 		MOVEI	AC-1,.
 20944	057750	202 12 0 00 030051 		MOVEM	AC-1,TESTPC	;SETUP SUBTEST PC
 20945	057751	201 12 0 00 000012 		MOVEI	AC-1,<AC-1>&17	;INFORM ERROR ROUTINE
 20946	057752	202 12 0 00 061117 		MOVEM	AC-1,ERRLOP#	;WHICH AC IS USED FOR ITERATION
 20947	057753	201 12 0 00 000001 		MOVEI	AC-1,1		;ROUTINE WEIGHTING
 20948	057754	240 12 1 00 030657 		ASH	AC-1,@CMPLXT+1	;ROUTINE COMPLEXITY
 20949	057755	240 12 1 00 030655 		ASH	AC-1,@RTIME	;RUN TIME CONTROLLER ^
 20950	057756				TPUSH1:	RANDM1^
 20951	057756	200 13 0 00 061125 		MOVE	AC,RAN#		;GENERATE  PSEUDO RANDOM NUMBER
 20952	057757	270 13 0 00 060657 		ADD	AC,[142536475076]
 20953	057760	241 13 0 00 777777 		ROT	AC,-1
 20954	057761	447 13 0 00 061125 		EQVB	AC,RAN		;IN BOTH AC AND REGISTER RAN. ^
 20955	057762	201 14 0 00 000014 	TPUSH2:	MOVEI	AC1,AC1	;MAKE THE C(AC)R = AC2.
 20956	057763	261 14 0 00 000013 		PUSH	AC1,AC		;DO PUSH...C(AC) TO C(AC2)
 20957	057764	312 15 0 00 000013 		CAME	AC2,AC		;C(AC2) SHOULD=RAN. NUM.
 20958	057765	004 15 0 00 000013 		ERROR	AC2,AC
 20959						LOOP	TPUSH1,TPUSH2^
 20960	057766	367 12 0 00 057756 		SOJG	AC-1,TPUSH1		;ITERATION COUNTER
 20961	057767	200 13 0 00 061125 		MOVE	AC,RAN		;RESTORE RANDOM NUMBER
 20962	057770	321 12 0 00 057762 		JUMPL	AC-1,TPUSH2		;LOOP ON ERROR SWITCH ^
DSKBA DECSYSTEM 2020 BASIC INSTRUCTION RELIABILITY TEST (1), VER 0,1 	MACRO %53(1020) 12:59 29-Mar-78 Page 45
DSKBA4	MAC	29-Mar-78 12:28		DIAGNOSTIC SECTION FOUR                                                            SEQ 0535

 20963
 20964					;TEST PUSH
 20965					;CHECK POINTER INCREMENT.
 20966					;A RANDOM NUMBER WITH BOTH LEFT AND RIGHT SIDES
 20967					;LESS THAN MEMORY SIZE IS USED AS A POINTER WORD
 20968
 20969			000014			AC=14
 20970	057771				TPUSH3:	SETUP1	1,1^
 20971			000015			AC1=<AC+1>&17
 20972			000016			AC2=<AC+2>&17
 20973			000017			AC3=<AC+3>&17
 20974			000000			AC4=<AC+4>&17
 20975			000001			AC5=<AC+5>&17
 20976			000012			RAN1=<AC-2>&17
 20977	057771	201 13 0 00 057771 		MOVEI	AC-1,.
 20978	057772	202 13 0 00 030051 		MOVEM	AC-1,TESTPC	;SETUP SUBTEST PC
 20979	057773	201 13 0 00 000013 		MOVEI	AC-1,<AC-1>&17	;INFORM ERROR ROUTINE
 20980	057774	202 13 0 00 061117 		MOVEM	AC-1,ERRLOP#	;WHICH AC IS USED FOR ITERATION
 20981	057775	201 13 0 00 000001 		MOVEI	AC-1,1		;ROUTINE WEIGHTING
 20982	057776	240 13 1 00 030657 		ASH	AC-1,@CMPLXT+1	;ROUTINE COMPLEXITY
 20983	057777	240 13 1 00 030655 		ASH	AC-1,@RTIME	;RUN TIME CONTROLLER ^
 20984	060000				TPUSH4:	RANDM1^
 20985	060000	200 14 0 00 061125 		MOVE	AC,RAN#		;GENERATE  PSEUDO RANDOM NUMBER
 20986	060001	270 14 0 00 060657 		ADD	AC,[142536475076]
 20987	060002	241 14 0 00 777777 		ROT	AC,-1
 20988	060003	447 14 0 00 061125 		EQVB	AC,RAN		;IN BOTH AC AND REGISTER RAN. ^
 20989	060004	404 14 0 00 061123 	TPUSH5:	AND	AC,MODULO	;MAKE LEFT+RHT=<MEM SIZE
 20990	060005	550 15 0 00 000014 		HRRZ	AC1,AC		;BUT > THAN END.
 20991	060006	312 15 0 00 000014 		CAME	AC1,AC		;BOTH HALVES EQUAL?..GEN NEW NUM.
 20992	060007	307 15 1 00 030145 		CAIG	AC1,@MEMLOW
 20993	060010	254 00 0 00 060000 		JRST	TPUSH4		;REJECT.
 20994	060011	500 15 0 00 000014 		HLL	AC1,AC
 20995	060012	540 14 0 00 000015 		HRR	AC,AC1
 20996	060013	274 15 0 00 060720 		SUB	AC1,[XWD 1,1]	;SIMULATE INCREMENTING POINTER
 20997	060014	261 15 0 00 000016 		PUSH	AC1,AC2		;DO A PUSH INST.
 20998	060015	312 15 0 00 000014 		CAME	AC1,AC		;C(AC) SHOULD=SIM. ANS.
 20999	060016	004 15 0 00 000014 		ERROR	AC1,AC
 21000						LOOP	TPUSH4,TPUSH5^
 21001	060017	367 13 0 00 060000 		SOJG	AC-1,TPUSH4		;ITERATION COUNTER
 21002	060020	200 14 0 00 061125 		MOVE	AC,RAN		;RESTORE RANDOM NUMBER
 21003	060021	321 13 0 00 060004 		JUMPL	AC-1,TPUSH5		;LOOP ON ERROR SWITCH ^
DSKBA DECSYSTEM 2020 BASIC INSTRUCTION RELIABILITY TEST (1), VER 0,1 	MACRO %53(1020) 12:59 29-Mar-78 Page 46
DSKBA4	MAC	29-Mar-78 12:28		DIAGNOSTIC SECTION FOUR                                                            SEQ 0536

 21004
 21005					;POP TEST
 21006					;AN AREA OF CORE IS SET ASIDE AS A BUFFER. THE TOP(HIGH)
 21007					;LOCATIONS ARE CONSIDERED THE FROM AREA.  LOCATIONS BELOW THE "FROM"
 21008					;AREA ARE CONSIDERED THE "TO" AREA.  THE FROM AND TO LOCATIONS ARE
 21009					;CHOSEN FROM A RANDOM NUMBER GENERATORS.  THE TEST IS DESIGNED
 21010					;SUCH THAT A LARGE NUMBER OF POP INSTRUCTIONS MAY BE EXECUTED
 21011					;QUICKLY.  THE NUMBER OF ITERATIONS OF THE POP INSTRUCTION IS A FUNCTION
 21012					;OF THE FROM ADDRESS, AND TO ADDRESS.  THE NUMBER IS CHOSEN SUCH
 21013					;THAT THE FROM AND TO AREAS DO NOT OVERLAP.  THE POP INSTRUCTION TAKES
 21014					;DATA WORDS DECREMENTING THROUGH MEMORY TO THE TO AREA INCREMENTING
 21015					;THROUGH MEMORY.   IN ESSENCE EVERYTHING IS RANDOM.
 21016					;THIS TEST SHOULD NEVER SET THE PDL-OV FLAG.
 21017					;ERRORS ARE POSSIBLE FROM AN INCORRECT POINTER WORD OR DATA TRANSFERED
 21018					;INCORRECTLY, IN ANY CASE,  THE FIRST ERROR WILL BE PRINTED.
 21019					;THE LIST WILL RECYCLE WITH THE FAILED NUMBERS.
 21020					;IF THE PROBLEM IS TO DIFFICULT TO SCOPE SUGGEST MARGIN
 21021					;ON A SIMPLER POP TEST.
 21022
 21023			000010			AC=10
 21024			000012			POPOINT=12		;POP INST POINTER AC
 21025			000013			GDP=13			;GENERATE DATA POINTER
 21026			000014			CDP=14			;CHECK DATA POINTER
 21027			000015			POPE=15			;POP"E" POINTER TO CORE
 21028	060022				POPT:	SETUP1	1,1^
 21029			000011			AC1=<AC+1>&17
 21030			000012			AC2=<AC+2>&17
 21031			000013			AC3=<AC+3>&17
 21032			000014			AC4=<AC+4>&17
 21033			000015			AC5=<AC+5>&17
 21034			000006			RAN1=<AC-2>&17
 21035	060022	201 07 0 00 060022 		MOVEI	AC-1,.
 21036	060023	202 07 0 00 030051 		MOVEM	AC-1,TESTPC	;SETUP SUBTEST PC
 21037	060024	201 07 0 00 000007 		MOVEI	AC-1,<AC-1>&17	;INFORM ERROR ROUTINE
 21038	060025	202 07 0 00 061117 		MOVEM	AC-1,ERRLOP#	;WHICH AC IS USED FOR ITERATION
 21039	060026	201 07 0 00 000001 		MOVEI	AC-1,1		;ROUTINE WEIGHTING
 21040	060027	240 07 1 00 030657 		ASH	AC-1,@CMPLXT+1	;ROUTINE COMPLEXITY
 21041	060030	240 07 1 00 030655 		ASH	AC-1,@RTIME	;RUN TIME CONTROLLER ^
DSKBA DECSYSTEM 2020 BASIC INSTRUCTION RELIABILITY TEST (1), VER 0,1 	MACRO %53(1020) 12:59 29-Mar-78 Page 47
DSKBA4	MAC	29-Mar-78 12:28		DIAGNOSTIC SECTION FOUR                                                            SEQ 0537

 21042	060031				POPT1:	RANDM1^
 21043	060031	200 10 0 00 061125 		MOVE	AC,RAN#		;GENERATE  PSEUDO RANDOM NUMBER
 21044	060032	270 10 0 00 060657 		ADD	AC,[142536475076]
 21045	060033	241 10 0 00 777777 		ROT	AC,-1
 21046	060034	447 10 0 00 061125 		EQVB	AC,RAN		;IN BOTH AC AND REGISTER RAN. ^
 21047	060035	404 10 0 00 061123 		AND	AC,MODULO	;CONFINE TEST TO MEM SIZE
 21048	060036	550 00 0 00 000010 		HRRZ	0,AC		;AC = HIGH,,LOW = FROM,,TO
 21049	060037	554 01 0 00 000010 		HLRZ	1,AC		;AC+1 = LOW,,HIGH = TO,,FROM
 21050	060040	311 00 0 00 000001 		CAML	0,1		;0 = + NUMBER OF WORDS BETWEEN TO AND FROM
 21051	060041	204 10 0 00 000010 		MOVS	AC,AC
 21052	060042	204 11 0 00 000010 		MOVS	AC+1,AC
 21053	060043	201 00 0 11 000000 		MOVEI	(AC+1)		;SUB "TO" AREA FROM  "FROM" AREA
 21054	060044	275 00 0 10 000000 		SUBI	(AC)		;THIS LEAVES POSITIVE DIFF IN C(0)
 21055	060045	334 00 0 00 000000 		SKIPA			;IF THE NUMBERS WILL OVERLAP OR
 21056	060046	240 00 0 00 777777 		ASH	0,-1		;DESTROY PROGRAM SCALE SIZE OF BLOCK
 21057	060047	336 01 0 00 000000 		SKIPN	1,0		;MOVE 0 TO 1. IF THE BLOCK SIZE
 21058	060050	254 00 0 00 060031 		JRST	POPT1		;IS ZERO THEN GET OTHER NUMBERS
 21059	060051	275 01 0 10 000000 		SUBI	1,(AC)		;DO NOT ALLOW TO AREA TO
 21060	060052	271 01 1 00 030145 		ADDI	1,@MEMLOW	;OVERLAY PROGRAM. LOC0 CONTAINS
 21061	060053	327 01 0 00 060046 		JUMPG	1,.-5		;NUMBER OF WORDS IN BLOCK
 21062	060054	214 00 0 00 000000 	POPRET:	MOVM			;MAKE IT POSITIVE FOR ITERATION
 21063	060055	306 00 0 00 000001 		CAIN	0,1		;=1?
 21064	060056	254 00 0 00 060031 		JRST	POPT1		;YES. REJECT.
DSKBA DECSYSTEM 2020 BASIC INSTRUCTION RELIABILITY TEST (1), VER 0,1 	MACRO %53(1020) 12:59 29-Mar-78 Page 48
DSKBA4	MAC	29-Mar-78 12:28		DIAGNOSTIC SECTION FOUR                                                            SEQ 0538

 21065	060057	516 00 0 00 000012 	POPT2:	HRLZM	POPOINT		;MAKE POP POINTER WORD
 21066	060060	541 12 0 11 000000 		HRRI	POPOINT,(AC+1)	;(+WC, FROM LOC)
 21067	060061	213 13 0 00 000000 		MOVNS	GDP,0		;MAKE GEN DATA POINTER
 21068	060062	507 14 0 00 000013 		HRLS	CDP,GDP		;-WC+1,FROM-WC
 21069	060063	271 13 0 11 000000 		ADDI	GDP,(AC+1)	;MAKE CHECK DATA POINTER
 21070	060064	271 14 0 10 000000 		ADDI	CDP,(AC)	;-WC+1, TO -WC
 21071	060065	202 14 0 00 000015 		MOVEM	CDP,POPE	;MAKE A POINTER FOR POP (E)
 21072	060066	542 13 0 00 060104 		HRRM	GDP,POPT5
 21073	060067	321 07 0 00 060100 		JUMPL	AC-1,POPT4	;NO MORE RANDOM IF ERROR SET
 21074	060070				POPT3:	RANDM1			^;FILL THE FROM AREA
 21075
 21076	060070	200 10 0 00 061125 		MOVE	AC,RAN#		;GENERATE  PSEUDO RANDOM NUMBER
 21077	060071	270 10 0 00 060657 		ADD	AC,[142536475076]
 21078	060072	241 10 0 00 777777 		ROT	AC,-1
 21079	060073	447 10 0 00 061125 		EQVB	AC,RAN		;IN BOTH AC AND REGISTER RAN.
 21080	060074	202 10 0 13 000000 		MOVEM	AC,(GDP)	;WHEN EXIT GDP=0,FROM
 21081	060075	253 13 0 00 060076 		AOBJN	GDP,.+1
 21082	060076	603 13 0 00 770000 		TLNE	GDP,770000
 21083	060077	254 00 0 00 060070 		JRST	POPT3
 21084
 21085	060100	262 12 0 15 000000 	POPT4:	POP	POPOINT,(POPE)	;TRANSFER N WORDS WITH THE
 21086	060101	253 15 0 00 060102 		AOBJN	POPE,.+1	;POP INSTRUCTION
 21087	060102	603 15 0 00 770000 		TLNE	POPE,770000
 21088	060103	254 00 0 00 060100 		JRST	POPT4
 21089
 21090	060104	201 01 0 00 000000 	POPT5:	MOVEI	1,0		;FILLED BY DATA FROM+WC
 21091	060105	271 01 0 00 000001 		ADDI	1,1
 21092	060106	505 01 0 00 000001 		HRLI	1,1		;CHECK THE POP POINTER
 21093	060107	312 01 0 00 000012 		CAME	1,POPOINT
 21094	060110	004 12 0 00 000001 		ERROR	POPOINT,1	;POP POINTER FAIL
 21095	060111	551 01 0 11 000000 		HRRZI	1,(AC+1)	;CHECK THE DATA
 21096	060112	200 10 0 01 000000 		MOVE	AC,(1)		;IN THE TO AREA
 21097	060113	312 10 0 14 000000 		CAME	AC,(CDP)	;AGAINST THE FROM AREA
 21098	060114	004 10 0 14 000000 		ERROR	AC,(CDP)	;DATA FAIL
 21099	060115	275 01 0 00 000001 		SUBI	1,1
 21100	060116	253 14 0 00 060117 		AOBJN	CDP,.+1
 21101	060117	603 14 0 00 770000 		TLNE	CDP,770000
 21102	060120	254 00 0 00 060112 		JRST	.-6
 21103						LOOP	POPT1,POPRET^
 21104	060121	367 07 0 00 060031 		SOJG	AC-1,POPT1		;ITERATION COUNTER
 21105	060122	200 10 0 00 061125 		MOVE	AC,RAN		;RESTORE RANDOM NUMBER
 21106	060123	321 07 0 00 060054 		JUMPL	AC-1,POPRET		;LOOP ON ERROR SWITCH ^
DSKBA DECSYSTEM 2020 BASIC INSTRUCTION RELIABILITY TEST (1), VER 0,1 	MACRO %53(1020) 12:59 29-Mar-78 Page 49
DSKBA4	MAC	29-Mar-78 12:28		DIAGNOSTIC SECTION FOUR                                                            SEQ 0539

 21107
 21108					;PUSH TEST
 21109					;A RANDOM SET OF ADDRESS ARE CHOSEN SUCH THAT A FROM AND TO
 21110					;AREA ARE FORMED.  THE "TO" AREA IS THE TOP OF CORE (HIGH ADDRESS)
 21111					;AND "FROM" AREA IS THE LOWER ADDRESSES.  A RANDOM NUMBER IS
 21112					;GENERATED IN THE FROM AREA.  IT IS TRANSFERED BY THE PUSH INST
 21113					;TOO THE TO AREA.  WORKS ARE STORED SEQUENTIALY INCREMENTING IN THE
 21114					;"TO" AREA.  THE WORDS ARE OBTAINED BY DECREMENTING THROUGH THE
 21115					;FROM AREA.  IN THE EVENT OF ERROR THE PUSH POINTER IS RESET
 21116					;AND THE FAILURES IS CYCLED
 21117
 21118			000005			AC=5
 21119			000002			PP=2
 21120			000003			CKPP=3
 21121
 21122	060124				PUSHT:	SETUP1	1,1^
 21123			000006			AC1=<AC+1>&17
 21124			000007			AC2=<AC+2>&17
 21125			000010			AC3=<AC+3>&17
 21126			000011			AC4=<AC+4>&17
 21127			000012			AC5=<AC+5>&17
 21128			000003			RAN1=<AC-2>&17
 21129	060124	201 04 0 00 060124 		MOVEI	AC-1,.
 21130	060125	202 04 0 00 030051 		MOVEM	AC-1,TESTPC	;SETUP SUBTEST PC
 21131	060126	201 04 0 00 000004 		MOVEI	AC-1,<AC-1>&17	;INFORM ERROR ROUTINE
 21132	060127	202 04 0 00 061117 		MOVEM	AC-1,ERRLOP#	;WHICH AC IS USED FOR ITERATION
 21133	060130	201 04 0 00 000001 		MOVEI	AC-1,1		;ROUTINE WEIGHTING
 21134	060131	240 04 1 00 030657 		ASH	AC-1,@CMPLXT+1	;ROUTINE COMPLEXITY
 21135	060132	240 04 1 00 030655 		ASH	AC-1,@RTIME	;RUN TIME CONTROLLER ^
 21136	060133				PUSHT1:	RANDM1^
 21137	060133	200 05 0 00 061125 		MOVE	AC,RAN#		;GENERATE  PSEUDO RANDOM NUMBER
 21138	060134	270 05 0 00 060657 		ADD	AC,[142536475076]
 21139	060135	241 05 0 00 777777 		ROT	AC,-1
 21140	060136	447 05 0 00 061125 		EQVB	AC,RAN		;IN BOTH AC AND REGISTER RAN. ^
 21141	060137	404 05 0 00 061123 	PUSHT2:	AND	AC,MODULO
 21142	060140	204 06 0 00 000005 		MOVS	AC+1,AC
 21143	060141	317 05 0 00 000006 		CAMG	AC,AC+1		;C(AC)R IS SMALLER ADDR
 21144	060142	250 05 0 00 000006 		EXCH	AC,AC+1		;C(AC+1)R IS LARGER ADDRESS
 21145	060143	405 05 0 00 777777 		ANDI	AC,-1		;SMALLEST ADDRESS MUST
 21146	060144	307 05 1 00 030145 		CAIG	AC,@MEMLOW	;BE ABOVE PROGRAM OR REJECT
 21147	060145	254 00 0 00 060133 		JRST	PUSHT1		;THESE NUMBERS
 21148	060146	201 00 0 06 000000 		MOVEI	(AC+1)		;FIND THE DIFFERENCE BETWEEN
 21149	060147	274 00 0 00 061123 		SUB	MODULO		;THE HIGHEST ADDR IN THE
 21150	060150	573 01 0 00 000000 		HRRES	1,0		;"TO" AREA AND THE TOP OF MEMORY
 21151	060151	325 01 0 00 060133 		JUMPGE	1,PUSHT1	;IF NO ROOM AT TOP REJECT
 21152	060152	217 01 0 00 000000 		MOVMS	1,0		;MAKE DIFF A POSITIVE NUMBER
 21153	060153	542 05 0 00 060161 	PUSHT3:	HRRM	AC,PUSHT5	;THE FROM AREA ADDRESS
 21154	060154	550 03 0 00 000006 		HRRZ	CKPP,AC+1	;A WORD TO CHECK POINTER INC
DSKBA DECSYSTEM 2020 BASIC INSTRUCTION RELIABILITY TEST (1), VER 0,1 	MACRO %53(1020) 12:59 29-Mar-78 Page 50
DSKBA4	MAC	29-Mar-78 12:28		DIAGNOSTIC SECTION FOUR                                                            SEQ 0540

 21155	060155				PUSHT4:	RANDM1^
 21156	060155	200 05 0 00 061125 		MOVE	AC,RAN#		;GENERATE  PSEUDO RANDOM NUMBER
 21157	060156	270 05 0 00 060657 		ADD	AC,[142536475076]
 21158	060157	241 05 0 00 777777 		ROT	AC,-1
 21159	060160	447 05 0 00 061125 		EQVB	AC,RAN		;IN BOTH AC AND REGISTER RAN. ^
 21160	060161	202 05 0 01 000000 	PUSHT5:	MOVEM	AC,0(1)		;STORE A RANDOM NUMBER IN
 21161	060162	202 03 0 00 000002 		MOVEM	CKPP,PP		;THE FROM AREA
 21162	060163	261 02 1 00 060161 		PUSH	PP,@.-2		;C(E) TO C(C(ACRT))
 21163	060164	270 03 0 00 060720 		ADD	CKPP,[XWD 1,1]	;INC THE CHECK POINTER
 21164	060165	312 02 0 00 000003 		CAME	PP,CKPP		;CHECK FOR PROPER INCREMENT
 21165	060166	004 02 0 00 000003 		ERROR	PP,CKPP		;ERROR
 21166	060167	312 05 0 03 000000 		CAME	AC,(CKPP)	;DATA TRANSFER INCORRECT
 21167	060170	004 05 0 03 000000 		ERROR	AC,(CKPP)	;ERROR
 21168	060171	325 04 0 00 060174 		JUMPGE	AC-1,.+3	;IF ERROR SWITCH IS SET
 21169	060172	274 03 0 00 060720 		SUB	CKPP,[XWD 1,1]	;BACK UP THE POINTER
 21170	060173	254 00 0 00 060161 		JRST	PUSHT5		;AND REPEAT THE SEQ
 21171	060174	367 01 0 00 060155 		SOJG	1,PUSHT4	;GO UNTIL TOP OF CORE
 21172						LOOP	PUSHT1,PUSHT1	^;ITERATE TEST
 21173
 21174	060175	367 04 0 00 060133 		SOJG	AC-1,PUSHT1		;ITERATION COUNTER
 21175	060176	200 05 0 00 061125 		MOVE	AC,RAN		;RESTORE RANDOM NUMBER
 21176	060177	321 04 0 00 060133 		JUMPL	AC-1,PUSHT1		;LOOP ON ERROR SWITCH
DSKBA DECSYSTEM 2020 BASIC INSTRUCTION RELIABILITY TEST (1), VER 0,1 	MACRO %53(1020) 12:59 29-Mar-78 Page 51
DSKBA4	MAC	29-Mar-78 12:28		DIAGNOSTIC SECTION FOUR                                                            SEQ 0541

 21177
 21178					;TEST POPJ
 21179					;CHECK TO SEE THAT THE POPJ CAN LOAD THE PC WITH EVERY
 21180					;ADDRESS IN THE BUFFER AND THAT IT JUMPS TO THE RIGHT
 21181					;LOC IN THE BUFFER
 21182
 21183			000005			AC=5
 21184	060200				POPJ1:	SETUP1	1,1^
 21185			000006			AC1=<AC+1>&17
 21186			000007			AC2=<AC+2>&17
 21187			000010			AC3=<AC+3>&17
 21188			000011			AC4=<AC+4>&17
 21189			000012			AC5=<AC+5>&17
 21190			000003			RAN1=<AC-2>&17
 21191	060200	201 04 0 00 060200 		MOVEI	AC-1,.
 21192	060201	202 04 0 00 030051 		MOVEM	AC-1,TESTPC	;SETUP SUBTEST PC
 21193	060202	201 04 0 00 000004 		MOVEI	AC-1,<AC-1>&17	;INFORM ERROR ROUTINE
 21194	060203	202 04 0 00 061117 		MOVEM	AC-1,ERRLOP#	;WHICH AC IS USED FOR ITERATION
 21195	060204	201 04 0 00 000001 		MOVEI	AC-1,1		;ROUTINE WEIGHTING
 21196	060205	240 04 1 00 030657 		ASH	AC-1,@CMPLXT+1	;ROUTINE COMPLEXITY
 21197	060206	240 04 1 00 030655 		ASH	AC-1,@RTIME	;RUN TIME CONTROLLER ^
 21198	060207	200 05 0 00 061115 		MOVE	AC,BUFSIZ	;PUT A
 21199	060210	200 11 0 00 060763 		MOVE	AC4,[JSP AC3,POPJ4]	;JSP AC3, POPJ4
 21200	060211	202 11 0 05 000000 		MOVEM	AC4,(AC)	;FROM THE END OF PROG
 21201	060212	253 05 0 00 060213 		AOBJN	AC,.+1
 21202	060213	603 05 0 00 770000 		TLNE	AC,770000
 21203	060214	254 00 0 00 060211 		JRST	.-3
 21204	060215	200 05 0 00 061132 	POPJ1A:	MOVE	AC,WCBUF	;MOVE (-TOP+END,END) INTO AC.
 21205	060216	200 12 0 00 060764 		MOVE	AC5,[XWD 1,AC1]	;MAKE POINTER=(1,AC1)
 21206	060217	200 07 0 00 060765 		MOVE	AC2,[PUSHJ AC5,POPJ3]	;PUT A PUSHJ IN AC2.
 21207	060220	205 06 0 05 000000 	POPJ2:	MOVSI	AC1,(AC)	;SETUP AC1 SO BOTH HALVES
 21208	060221	541 06 0 05 000000 		HRRI	AC1,(AC)	;HAVE CURRENT LOC UNDER TEST.
 21209	060222	202 07 0 06 000000 		MOVEM	AC2,(AC1)	;STORE PUSHJ INTO CURRENT LOC IN BUFFER.
 21210	060223	263 12 0 00 000000 		POPJ	AC5,0		;DO THE POPJ.
 21211	060224	312 12 0 00 060764 	POPJ3:	CAME	AC5,[XWD 1,AC1]	;PUSHJ IN MEM BROUGHT IT BACK HERE
 21212	060225	004 12 0 00 060764 		ERROR	AC5,[XWD 1,AC1]	;POINTER DIDN'T GET DEC+INC PROPERLY
 21213	060226	254 00 0 00 060230 		JRST	.+2		;GO AROUND ERROR UUO
 21214	060227	004 10 0 00 000006 	POPJ4:	ERROR	AC3,AC1		;POPJ WENT TO WRONG LOC.
 21215	060230	321 04 0 00 060220 		JUMPL	AC-1,POPJ2	;LOOP ON ERROR SWITCH
 21216	060231	202 11 0 05 000000 		MOVEM	AC4,(AC)	;PUT A JSP IN CURRENT LOC.
 21217	060232	253 05 0 00 060233 		AOBJN	AC,.+1
 21218	060233	603 05 0 00 770000 		TLNE	AC,770000
 21219	060234	254 00 0 00 060220 		JRST	POPJ2		;INC TO TEST NEXT LOC.
 21220	060235	367 04 0 00 060215 		SOJG	AC-1,POPJ1A	;ITERATION COUNTER.
DSKBA DECSYSTEM 2020 BASIC INSTRUCTION RELIABILITY TEST (1), VER 0,1 	MACRO %53(1020) 12:59 29-Mar-78 Page 52
DSKBA4	MAC	29-Mar-78 12:28		DIAGNOSTIC SECTION FOUR                                                            SEQ 0542

 21221
 21222					;TEST PUSHJ.
 21223					;CHECK TO SEE THAT THE PUSHJ CAN GO TO EVERY LOC IN
 21224					;THE BUFFER AREA
 21225
 21226			000006			AC=6
 21227	060236				PUSHJ1:	SETUP1	1,1^
 21228			000007			AC1=<AC+1>&17
 21229			000010			AC2=<AC+2>&17
 21230			000011			AC3=<AC+3>&17
 21231			000012			AC4=<AC+4>&17
 21232			000013			AC5=<AC+5>&17
 21233			000004			RAN1=<AC-2>&17
 21234	060236	201 05 0 00 060236 		MOVEI	AC-1,.
 21235	060237	202 05 0 00 030051 		MOVEM	AC-1,TESTPC	;SETUP SUBTEST PC
 21236	060240	201 05 0 00 000005 		MOVEI	AC-1,<AC-1>&17	;INFORM ERROR ROUTINE
 21237	060241	202 05 0 00 061117 		MOVEM	AC-1,ERRLOP#	;WHICH AC IS USED FOR ITERATION
 21238	060242	201 05 0 00 000001 		MOVEI	AC-1,1		;ROUTINE WEIGHTING
 21239	060243	240 05 1 00 030657 		ASH	AC-1,@CMPLXT+1	;ROUTINE COMPLEXITY
 21240	060244	240 05 1 00 030655 		ASH	AC-1,@RTIME	;RUN TIME CONTROLLER ^
 21241	060245	200 06 0 00 061115 		MOVE	AC,BUFSIZ	;PUT A
 21242	060246	200 12 0 00 060766 		MOVE	AC4,[JSP AC3,PUSHJ4]	;JSP AC3, PUSHJ4
 21243	060247	202 12 0 06 000000 		MOVEM	AC4,(AC)	;FROM TH END OF PROG
 21244	060250	253 06 0 00 060251 		AOBJN	AC,.+1
 21245	060251	603 06 0 00 770000 		TLNE	AC,770000
 21246	060252	254 00 0 00 060247 		JRST	.-3
 21247	060253	200 06 0 00 061132 	PUSHJA:	MOVE	AC,WCBUF	;MOVE (-TOP+END,END) INTO AC.
 21248	060254	200 10 0 00 060767 		MOVE	AC2,[POPJ AC1,0];MOVE A POPJ INTO AC2.
 21249	060255	205 07 0 06 000000 	PUSHJ2:	MOVSI	AC1,(AC)	;MAKE BOTH HALVES OF POINTER
 21250	060256	541 07 0 06 000000 		HRRI	AC1,(AC)	;= CURRENT LOC UNDER TEST.
 21251
 21252	060257	202 10 0 07 000000 	PUSHJ3:	MOVEM	AC2,(AC1)	;STORE POPJ IN CURRENT BUFF LOC.
 21253	060260	260 07 0 07 000000 		PUSHJ	AC1,(AC1)	;DO A PUSHJ
 21254	060261	254 00 0 00 060263 		JRST	.+2		;PUSHJ WENT TO RIGHT LOC.
 21255	060262	004 11 0 00 000007 	PUSHJ4:	ERROR	AC3,AC1		;PUSHJ WENT TO WRONG LOC.
 21256	060263	321 05 0 00 060255 		JUMPL	AC-1,PUSHJ2	;LOOP ON ERROR SWITCH.
 21257	060264	202 12 0 07 000000 		MOVEM	AC4,(AC1)	;RESTORE JSP IN CURRENT LOC.
 21258	060265	253 06 0 00 060266 		AOBJN	AC,.+1
 21259	060266	603 06 0 00 770000 		TLNE	AC,770000
 21260	060267	254 00 0 00 060257 		JRST	PUSHJ3		;INC TO TEST NEXT LOC.
 21261	060270	367 05 0 00 060253 		SOJG	AC-1,PUSHJA	;ITERATION COUNTER.
 21262
 21263
 21264	060271	254 00 0 00 030057 		JRST	BEGEND		;REPEAT TEST
DSKBA DECSYSTEM 2020 BASIC INSTRUCTION RELIABILITY TEST (1), VER 0,1 	MACRO %53(1020) 12:59 29-Mar-78 Page 53
DSKBA4	MAC	29-Mar-78 12:28		DIAGNOSTIC SECTION FOUR                                                            SEQ 0543

 21265	060272	202 00 0 00 061141 	ERROUT:	MOVEM	0,%ERAC0	;SAVE AC0.
 21266	060273	202 01 0 00 061142 		MOVEM	1,%ERAC1	;SAVE AC1.
 21267	060274	202 02 0 00 061143 		MOVEM	2,%ERAC2	;SAVE AC2.
 21268	060275	350 00 0 00 030053 		AOS	ERRTLS
 21269	060276	350 00 0 00 061122 		AOS	MICNT		;INC ERR COUNT.
 21270	060277	336 00 0 00 030041 		SKIPN	KLFLG
 21271	060300	332 00 0 00 030037 		SKIPE	USER		;USER MODE ?
 21272	060301	254 00 0 00 060303 		JRST	.+2
 21273	060302	7 004 14 0 00 061122 		DATAO	PI,MICNT	;EXEC MODE. PUT ER CNT INTO MI.
 21274	060303	402 00 0 00 061124 		SETZM	PROCED		;CLR PROCEED FLAG.
 21275	060304	335 00 1 00 061117 		SKIPGE	@ERRLOP		;1ST TIME THROUGH ERR PNT?
 21276	060305	254 00 0 00 060352 		JRST	EROUT2		;NO.  SEE IF PRINT ALL
 21277	060306	037 04 0 00 000002 		PNTNM
 21278	060307	037 10 0 00 000002 		SWITCH			;GO READ THE DATA SWITCHES.
 21279	060310	603 00 0 00 040000 	EROUT1:	TLNE	0,NOPNT		;NO PRINTOUT ?
 21280	060311	254 00 0 00 060613 		JRST	%ERMORE		;YES. DON'T PNT AND GO HALT.
 21281	060312	402 00 0 00 061122 		SETZM	MICNT		;CLR ERR CNT.
 21282						PMSG	<PC =   >^
 21283	060313	037 02 0 00 060770 		PSIXM	[SIXBIT\PC =   _\]^
 21284	060314	200 00 0 17 000000 		MOVE	0,(P)
 21285	060315	360 00 0 00 000000 		SOJ	0,
 21286	060316	037 06 0 00 000000 		PNT6
 21287	060317	402 00 0 00 061113 		SETZM	ASTF#		;CLR PNT * FLAG.
 21288						PMSG	<^DEFER TEST FAILURE.^COR =  >^
 21289	060320	037 02 0 00 060772 		PSIXM	[SIXBIT\^DEFER TEST FAILURE.^COR =  _\]^
 21290	060321	200 00 0 00 000007 		MOVE	0,FINAL
 21291	060322	037 06 0 00 000000 		PNT6			;PNT C(GOOD).
 21292						PMSG	<^ERR = >^
 21293	060323	037 02 0 00 060777 		PSIXM	[SIXBIT\^ERR = _\]^
 21294	060324	200 00 0 00 000002 		MOVE	0,2
 21295	060325	037 06 0 00 000000 		PNT6			;PNT C(BAD).
 21296						PNTMSG	[ASCIZ/
 21297					THE FOLLOWING IS A LIST OF ALL THE
 21298					LOCATIONS WHERE THE INDIRECT BIT WAS SET.
 21299	060326	037 00 0 00 061001 	/]
 21300	060327	400 01 0 00 000000 		SETZ	1,
DSKBA DECSYSTEM 2020 BASIC INSTRUCTION RELIABILITY TEST (1), VER 0,1 	MACRO %53(1020) 12:59 29-Mar-78 Page 54
DSKBA4	MAC	29-Mar-78 12:28		DIAGNOSTIC SECTION FOUR                                                            SEQ 0544

 21301	060330	037 00 0 00 030242 	ERRT1:	PCRL
 21302	060331	550 00 0 01 060356 		HRRZ	0,TABL(1)	;GET ADDRESS ON LIST.
 21303	060332	316 00 0 00 000002 		CAMN	0,2		;= FAILING ADDRESS?
 21304	060333	476 00 0 00 061113 		SETOM	ASTF		;YES. SET PNT * FLAG.
 21305	060334	037 06 0 00 000000 		PNT6			;PNT ADDRESS ON LIST.
 21306	060335	201 00 0 00 030252 		MOVEI	0,AST
 21307	060336	332 00 0 00 061113 		SKIPE	ASTF		;PNT * FLAG SET?
 21308	060337	037 00 0 00 000000 		PNTA
 21309	060340	402 00 0 00 061113 		SETZM	ASTF		;CLR PNT * FLAG.
 21310	060341	305 01 0 06 777777 		CAIGE	1,-1(COUNT)	;END OF LIST?
 21311	060342	344 01 0 00 060330 		AOJA	1,ERRT1		;NO.
 21312	060343	037 00 0 00 030242 		PCRL
 21313	060344	402 00 0 00 000006 		SETZM	COUNT		;CLR COUNT.
 21314	060345	332 00 0 00 061116 		SKIPE	DFRTFG		;1ST DEFER TEST?
 21315	060346	550 04 0 00 060356 		HRRZ	4,TABL		;NO. SECOND.
 21316	060347	336 00 0 00 061116 		SKIPN	DFRTFG		;1ST DEFER TEST?
 21317	060350	200 10 0 00 060356 		MOVE	10,TABL		;RESTORE NUMBER.
 21318	060351	254 00 0 00 060613 		JRST	%ERMORE		;GO RESTORE AC'S AND RETURN.
 21319
 21320	060352	037 10 0 00 000002 	EROUT2:	SWITCH
 21321	060353	607 00 0 00 001000 		TLNN	PALERS		;PRINT ALL ERRORS ?
 21322	060354	254 00 0 00 060613 		JRST	%ERMORE		;NO
 21323	060355	254 00 0 00 060310 		JRST	EROUT1		;YES
 21324
 21325	060356				TABL:	BLOCK 40
DSKBA DECSYSTEM 2020 BASIC INSTRUCTION RELIABILITY TEST (1), VER 0,1 	MACRO %53(1020) 12:59 29-Mar-78 Page 1
UUOERR	KSM	28-Mar-78 11:17		*UUOERR* OLD-UUO ERROR HANDLER SUBROUTINE, MARCH 1978                              SEQ 0545

 21326					SUBTTL	*UUOERR* OLD-UUO ERROR HANDLER SUBROUTINE, MARCH 1978
 21327
 21328					;THIS SUBROUTINE PROVIDES ERROR REPORTING THRU THE USE OF UUO'S.
 21329
 21330	060416	202 00 0 00 061141 	ERRMES:	MOVEM	0,%ERAC0#	;SAVE AC0
 21331	060417	202 01 0 00 061142 		MOVEM	1,%ERAC1#	;SAVE AC1
 21332	060420	202 02 0 00 061143 		MOVEM	2,%ERAC2#	;SAVE AC2
 21333	060421	350 00 0 00 030053 		AOS	ERRTLS		;INCREMENT ERROR TOTALS
 21334	060422	550 00 0 00 030114 		HRRZ	0,$SVUPC	;GET PC OF UUO
 21335	060423	316 00 0 00 030052 		CAMN	0,ERRPC		;PC = PC OF LAST ERROR ?
 21336	060424	350 00 0 00 061122 		AOS	MICNT#		;YES, ADD 1 TO ERROR COUNT
 21337	060425	200 00 0 00 061122 		MOVE	0,MICNT
 21338	060426	504 00 0 00 030114 		HRL	0,$SVUPC
 21339	060427	402 00 0 00 061124 		SETZM	PROCED#		;CLEAR PROCEED FLAG
 21340	060430	037 10 0 00 000002 		SWITCH
 21341	060431	603 00 0 00 040000 		TLNE	NOPNT		;PRINTOUT ?
 21342	060432	254 00 0 00 060615 		JRST	%ERRS1		;NO, RESTORE AC'S AND RETURN
 21343	060433	200 01 0 00 030113 		MOVE	1,$SVUUO
 21344	060434	242 01 0 00 777745 		LSH	1,-^D27
 21345	060435	202 01 0 00 061133 		MOVEM	1,%ACS1A#	;SAVE UUO NUMBER
 21346	060436	200 00 0 00 061141 		MOVE	0,%ERAC0
 21347	060437	200 01 0 00 061142 		MOVE	1,%ERAC1
 21348	060440	335 00 1 00 061117 		SKIPGE	@ERRLOP		;ERR LOOP AC > OR = 0 ?
 21349	060441	254 00 0 00 060647 		JRST	%ERRS4		;NO, SEE IF PRINT ALL
 21350	060442	402 00 0 00 061122 	%ERMS1:	SETZM	MICNT		;CLEAR ERROR COUNT
 21351	060443	331 00 0 00 030043 		SKIPL	MONCTL		;DIAG MON OR SYS EXER ?
 21352	060444	254 00 0 00 060450 		JRST	.+4		;NO, DON'T NEED TITLE
 21353	060445	336 00 0 00 061144 		SKIPN	%ERFST#		;FIRST ERROR ?
 21354	060446	037 04 0 00 000002 		PNTNM			;YES, PRINT PROGRAM TITLE
 21355	060447	476 00 0 00 061144 		SETOM	%ERFST
 21356	060450	336 00 0 00 030047 		SKIPN	PASCNT		;FIRST PASS ?
 21357	060451	254 00 0 00 060455 		JRST	.+4		;YES
 21358						PMSG	<^TEST PASS COUNT = >^
 21359	060452	037 02 0 00 061022 		PSIXM	[SIXBIT\^TEST PASS COUNT = _\]^
 21360	060453	200 00 0 00 030047 		MOVE	PASCNT
 21361	060454	037 15 0 00 000000 		PNTDEC
 21362						PMSG	<^PC =   >^
 21363	060455	037 02 0 00 061026 		PSIXM	[SIXBIT\^PC =   _\]^
 21364	060456	550 00 0 00 030114 		HRRZ	0,$SVUPC	;GET PC OF UUO
 21365	060457	202 00 0 00 030052 		MOVEM	0,ERRPC		;SAVE FOR COMPARE
 21366	060460	037 06 0 00 000000 		PNT6			;PRINT UUO ADDRESS
 21367						XLIST
 21368						LIST
DSKBA DECSYSTEM 2020 BASIC INSTRUCTION RELIABILITY TEST (1), VER 0,1 	MACRO %53(1020) 12:59 29-Mar-78 Page 4
UUOERR	KSM	28-Mar-78 11:17		*UUOERR* OLD-UUO ERROR HANDLER SUBROUTINE, MARCH 1978                              SEQ 0546

 21369					;RELIABILITY FORMAT ERROR PRINTER
 21370
 21371	060461	402 00 0 00 061145 	%ERMS2:	SETZM	%RAND#		;CLEAR PNT C(RAN) FLAG
 21372	060462	200 01 0 00 061133 		MOVE	1,%ACS1A
 21373	060463	301 01 0 00 000011 		CAIL	1,11		;UUO # 11-13
 21374	060464	476 00 0 00 061145 		SETOM	%RAND		;YES, SET PNT C(RAN) FLAG
 21375	060465	620 01 0 00 000010 		TRZ	1,10		;MAKE UUO # 1-7
 21376	060466	202 01 0 00 061133 		MOVEM	1,%ACS1A
 21377	060467	200 02 0 00 030052 		MOVE	2,ERRPC		;GET UUO ADDRESS
 21378	060470	200 02 0 02 777777 		MOVE	2,-1(2)		;GET INST IN UUO-1
 21379	060471	301 01 0 00 000004 		CAIL	1,4		;UUO # < THAN 4 ?
 21380	060472	200 02 0 00 030113 		MOVE	2,$SVUUO	;YES, GET UUO
 21381	060473	202 02 0 00 061134 		MOVEM	2,%CNTE#	;SAVE E ADDRESS
 21382	060474	200 02 0 00 061143 		MOVE	2,%ERAC2
 21383	060475	200 01 0 00 061142 		MOVE	1,%ERAC1
 21384	060476	200 00 0 00 061141 		MOVE	0,%ERAC0
 21385	060477	201 01 1 00 061134 		MOVEI	1,@%CNTE	;GET ADRS FIELD OF UUO OR UUO-1
 21386	060500	202 01 0 00 061135 		MOVEM	1,%EE1#
 21387	060501	200 01 0 00 061142 		MOVE	1,%ERAC1
 21388	060502	200 01 1 00 061135 		MOVE	1,@%EE1		;GET C(E)
 21389	060503	202 01 0 00 061136 		MOVEM	1,%EE1A#
 21390	060504	200 01 0 00 061142 		MOVE	1,%ERAC1
 21391	060505	201 01 1 00 030113 		MOVEI	1,@$SVUUO	;GET ADDRESS FIELD OF UUO
 21392	060506	202 01 0 00 061137 		MOVEM	1,%EE2#
 21393	060507	200 01 0 00 061133 		MOVE	1,%ACS1A
 21394	060510	306 01 0 00 000003 		CAIN	1,3		;UUO # 3 ?
 21395	060511	254 00 0 00 060515 		JRST	.+4		;YES
 21396	060512	200 01 0 00 061142 		MOVE	1,%ERAC1
 21397	060513	200 01 1 00 061137 		MOVE	1,@%EE2		;GET C(E) OF UUO
 21398	060514	202 01 0 00 061140 		MOVEM	1,%EE2A#
 21399	060515	200 02 0 00 061133 		MOVE	2,%ACS1A	;GET UUO #
 21400	060516	200 01 0 00 061134 		MOVE	1,%CNTE
 21401	060517	242 01 0 00 777751 		LSH	1,-27		;GET AC NUMBER
 21402	060520	405 01 0 00 000017 		ANDI	1,17
 21403	060521	307 02 0 00 000005 		CAIG	2,5		;UUO # 6,7 OR 2
 21404	060522	306 02 0 00 000002 		CAIN	2,2
 21405	060523	254 00 0 00 060572 		JRST	%ERR2		;YES, GO PNT E AND C(E)
DSKBA DECSYSTEM 2020 BASIC INSTRUCTION RELIABILITY TEST (1), VER 0,1 	MACRO %53(1020) 12:59 29-Mar-78 Page 5
UUOERR	KSM	28-Mar-78 11:17		*UUOERR* OLD-UUO ERROR HANDLER SUBROUTINE, MARCH 1978                              SEQ 0547

 21406					;PRINT ERROR AC
 21407
 21408						PMSG	<^AC =   >^
 21409	060524	037 02 0 00 061030 		PSIXM	[SIXBIT\^AC =   _\]^
 21410	060525	200 00 0 00 000001 		MOVE	0,1
 21411	060526	037 02 0 00 000000 		PNT2			;PRINT AC NUMBER
 21412						PMSG	<^C(AC)= >^
 21413	060527	037 02 0 00 061032 		PSIXM	[SIXBIT\^C(AC)= _\]^
 21414	060530	200 00 0 01 000000 		MOVE	0,(1)		;GET C(AC)
 21415	060531	307 01 0 00 000002 		CAIG	1,2		;IS AC # = SAVED AC ?
 21416	060532	200 00 0 01 061141 		MOVE	0,%ERAC0(1)	;YES, GET SAVED AC
 21417	060533	037 13 0 00 000000 	%ERRB:	PNTHW			;PRINT C(AC) OR UUO2 (E)
 21418
 21419					;PRINT ERROR INFO
 21420
 21421	060534	306 02 0 00 000005 		CAIN	2,5		;UUO # 5
 21422	060535	254 00 0 00 060606 		JRST	%ERR4		;YES, GO PNT 'TST','SKP', OR ETC.
 21423
 21424						PMSG	<^COR =  >^
 21425	060536	037 02 0 00 061034 		PSIXM	[SIXBIT\^COR =  _\]^
 21426	060537	200 00 0 01 000000 		MOVE	0,(1)		;GET C(AC)
 21427	060540	307 01 0 00 000002 		CAIG	1,2		;IS AC # = SAVED AC ?
 21428	060541	200 00 0 01 061141 		MOVE	0,%ERAC0(1)	;YES, GET SAVED AC
 21429	060542	302 02 0 00 000002 		CAIE	2,2
 21430	060543	200 00 0 00 061136 		MOVE	0,%EE1A		;UUO # 2, GET C(E)
 21431	060544	037 13 0 00 000000 		PNTHW			;PRINT C(E) OR UUO2 C(AC)
 21432	060545	301 02 0 00 000004 		CAIL	2,4		;UUO # >3 ?
 21433	060546	254 00 0 00 060611 		JRST	%ERRC		;YES, RESTORE AC'S AND RETURN
 21434
 21435						PMSG	<^    ORIGINAL>^
 21436	060547	037 02 0 00 061036 		PSIXM	[SIXBIT\^    ORIGINAL_\]^
DSKBA DECSYSTEM 2020 BASIC INSTRUCTION RELIABILITY TEST (1), VER 0,1 	MACRO %53(1020) 12:59 29-Mar-78 Page 6
UUOERR	KSM	28-Mar-78 11:17		*UUOERR* OLD-UUO ERROR HANDLER SUBROUTINE, MARCH 1978                              SEQ 0548

 21437	060550	200 01 0 00 030113 	%ERRB1:	MOVE	1,$SVUUO
 21438	060551	242 01 0 00 777751 		LSH	1,-27		;GET AC # OF UUO
 21439	060552	405 01 0 00 000017 		ANDI	1,17
 21440						PMSG	<^C(AC)= >^
 21441	060553	037 02 0 00 061032 		PSIXM	[SIXBIT\^C(AC)= _\]^
 21442	060554	200 00 0 01 000000 		MOVE	0,(1)		;GET C(AC)
 21443	060555	307 01 0 00 000002 		CAIG	1,2		;IS AC # = SAVED AC ?
 21444	060556	200 00 0 01 061141 		MOVE	0,%ERAC0(1)	;YES, GET SAVED AC
 21445	060557	332 00 0 00 061145 		SKIPE	%RAND		;PRINT C(RAN) FLAG SET ?
 21446	060560	200 00 0 00 061125 		MOVE	0,RAN#		;YES
 21447	060561	037 13 0 00 000000 		PNTHW			;PRINT C(AC) OR C(RAN)
 21448	060562	306 02 0 00 000003 		CAIN	2,3		;UUO # 3 ?
 21449	060563	254 00 0 00 060572 		JRST	%ERR2		;YES, PRINT E, RESTORE AC'S AND RETURN
 21450	060564	306 02 0 00 000007 		CAIN	2,7		;UUO # 7 ?
 21451	060565	254 00 0 00 060611 		JRST	%ERRC		;YES, BYPASS PRINTING C(E)
 21452						PMSG	<^C(E) = >^
 21453	060566	037 02 0 00 061041 		PSIXM	[SIXBIT\^C(E) = _\]^
 21454	060567	200 00 0 00 061140 		MOVE	0,%EE2A
 21455	060570	037 13 0 00 000000 		PNTHW			;PRINT C(E)
 21456	060571	254 00 0 00 060611 		JRST	%ERRC
 21457
 21458	060572				%ERR2:	PMSG	<^E =    >^
 21459	060572	037 02 0 00 061043 		PSIXM	[SIXBIT\^E =    _\]^
 21460	060573	200 00 0 00 061137 		MOVE	0,%EE2
 21461	060574	306 02 0 00 000002 		CAIN	2,2		;UUO # 2 ?
 21462	060575	200 00 0 00 061135 		MOVE	0,%EE1
 21463	060576	037 06 0 00 000000 		PNT6			;PRINT E OF UUO OR UUO-1
 21464	060577	301 02 0 00 000006 		CAIL	2,6		;UUO 6 OR 7 ?
 21465	060600	254 00 0 00 060550 		JRST	%ERRB1		;YES, GO PNT C(AC), C(E) AND RETURN
 21466	060601	306 02 0 00 000003 		CAIN	2,3		;UUO # 3 ?
 21467	060602	254 00 0 00 060611 		JRST	%ERRC		;YES, RESTORE AC'S AND RETURN
 21468
 21469						PMSG	<^C(E) = >^
 21470	060603	037 02 0 00 061041 		PSIXM	[SIXBIT\^C(E) = _\]^
 21471	060604	200 00 0 00 061136 		MOVE	0,%EE1A		;GET C(E)
 21472	060605	254 00 0 00 060533 		JRST	%ERRB
DSKBA DECSYSTEM 2020 BASIC INSTRUCTION RELIABILITY TEST (1), VER 0,1 	MACRO %53(1020) 12:59 29-Mar-78 Page 7
UUOERR	KSM	28-Mar-78 11:17		*UUOERR* OLD-UUO ERROR HANDLER SUBROUTINE, MARCH 1978                              SEQ 0549

 21473					;PRINT ASCII COMMENT
 21474
 21475	060606	551 00 1 00 030113 	%ERR4:	HRRZI	0,@$SVUUO
 21476	060607	037 00 0 00 000000 		PNTA			;PRINT 'TST','SKP', OR ETC.
 21477	060610	254 00 0 00 060611 		JRST	%ERRC
 21478
 21479					;COMPLETE PRINTOUT
 21480
 21481	060611	037 00 0 00 030242 	%ERRC:	PCRL
 21482
 21483						XLIST
 21484						LIST
 21485	060612	254 00 0 00 060613 		JRST	%ERMORE
 21486
 21487					>
 21488						LIST
DSKBA DECSYSTEM 2020 BASIC INSTRUCTION RELIABILITY TEST (1), VER 0,1 	MACRO %53(1020) 12:59 29-Mar-78 Page 8
UUOERR	KSM	28-Mar-78 11:17		*UUOERR* OLD-UUO ERROR HANDLER SUBROUTINE, MARCH 1978                              SEQ 0550

 21489					;RESTORE AC'S AND RETURN OR HALT
 21490
 21491	060613	256 00 0 00 030101 	%ERMORE:XCT	ERMORE
 21492	060614	037 10 0 00 000002 		SWITCH
 21493
 21494	060615	037 07 0 00 000003 	%ERRS1:	TTALTM			;ALTMODE CHECK
 21495	060616	254 00 0 00 060622 		JRST	.+4		;NONE
 21496	060617	201 00 0 00 060622 		MOVEI	.+3		;SAVE CONT ADDRESS
 21497	060620	202 00 0 00 000130 		MOVEM	JOBOPC
 21498	060621	254 00 1 00 030063 		JRST	@ALTMGO		;PERFORM TRANSFER
 21499	060622	200 00 0 00 030046 		MOVE	CONSW
 21500	060623	603 00 0 00 002000 		TLNE	0,ERSTOP	;HALT ON ERROR SWITCH SET ?
 21501	060624	037 14 0 00 000004 		ERRHLT			;YES
 21502	060625	607 00 0 00 004000 		TLNN	0,LOOPER	;LOOP ON ERROR SWITCH SET ?
 21503	060626	476 00 0 00 061124 		SETOM	PROCED		;NO, SET THE PROCEED FLAG
 21504	060627	603 00 0 00 010000 		TLNE	0,DING		;RING BELL SWITCH SET ?
 21505	060630	037 01 0 00 000007 		PBELL			;YES, GO RING BELL
 21506
 21507	060631	200 02 0 00 061143 	%ERRS2:	MOVE	2,%ERAC2	;RESTORE AC'S
 21508	060632	200 01 0 00 061142 		MOVE	1,%ERAC1
 21509	060633	476 00 1 00 061117 		SETOM	@ERRLOP		;SET C(ERR LOOP AC) TO -1
 21510	060634	336 00 0 00 061124 		SKIPN	PROCED		;LOOP ON ERROR ?
 21511	060635	254 00 0 00 060645 		JRST	%ERRS5		;YES
 21512	060636	350 00 1 00 061117 		AOS	@ERRLOP		;NO, INC C(ERR LOOP AC)
 21513	060637	350 00 1 00 061117 		AOS	@ERRLOP		;SO IT ='S 1
 21514	060640	331 00 0 00 030043 		SKIPL	MONCTL		;UNDER DIAGNOSTIC MONITOR ?
 21515	060641	254 00 0 00 060645 		JRST	%ERRS5		;NO, CONTINUE PROGRAM
 21516	060642	200 00 0 00 030053 		MOVE	0,ERRTLS	;YES
 21517	060643	301 00 0 00 000024 		CAIL	0,^D20		;PRINTED ALLOWED ERRORS ?
 21518	060644	254 00 0 00 060653 		JRST	%ERRS6
 21519
 21520	060645	200 00 0 00 061141 	%ERRS5:	MOVE	0,%ERAC0	;NO, CONTINUE PROGRAM
 21521	060646	254 00 0 00 030065 		JRST	UUOEXT
 21522
 21523	060647	200 00 0 00 030046 	%ERRS4:	MOVE	0,CONSW
 21524	060650	607 00 0 00 001000 		TLNN	PALERS		;PRINT ALL ERRORS ?
 21525	060651	254 00 0 00 060615 		JRST	%ERRS1		;NO
 21526	060652	254 00 0 00 060442 		JRST	%ERMS1		;YES
 21527
 21528	060653				%ERRS6:	PMSGF	<^EXCEEDED ALLOWED ERRORS^>^
 21529	060653	037 04 0 00 061045 		PSIXMF	[SIXBIT\^EXCEEDED ALLOWED ERRORS^_\]^
 21530	060654	254 00 0 00 030061 		JRST	$BEND2
DSKBA DECSYSTEM 2020 BASIC INSTRUCTION RELIABILITY TEST (1), VER 0,1 	MACRO %53(1020) 12:59 29-Mar-78 Page 1
STOR	KSM	28-Mar-78 11:25		*STOR* RESERVED STORAGE, MARCH 1978                                                SEQ 0551

 21531					SUBTTL	*STOR* RESERVED STORAGE, MARCH 1978
 21532
 21533					;PROGRAM LITERALS
 21534
 21535						XLIST
 21536					IFNDEF	$LPAPER,<LIST>
 21537	060655					LIT
 21538	060655	64 51 55 45 62 00
 21539	060656	45 70 51 64 00 00
 21540	060657	142536	475076
 21541	060660	000000	000000
 21542	060661	123 113 120 000 000
 21543	060662	777777	777777
 21544	060663	000000	000377
 21545	060664	117 126 000 000 000
 21546	060665	400000	000000
 21547	060666	000000	000001
 21548	060667	103 122 131 060 000
 21549	060670	103 122 131 061 000
 21550	060671	103 122 131 060 061
 21551	060672	777777	000000
 21552	060673	377777	777777
 21553	060674	124 123 124 000 000
 21554	060675	101 122 117 126 000
 21555	060676	112 115 120 000 000
 21556	060677	400000	000001
 21557	060700	000000	000002
 21558	060701	101 117 123 000 000
 21559	060702	777777	777776
 21560	060703	600000	000000
 21561	060704	000000	000003
 21562	060705	200000	000000
 21563	060706	101 117 112 000 000
 21564	060707	123 117 123 000 000
 21565	060710	123 117 112 000 000
 21566	060711	103 101 115 000 000
 21567	060712	103 101 111 000 000
 21568	060713	000000	003154
 21569	060714	000001	000000
 21570	060715	000100	000100
 21571	060716	010000	010000
 21572	060717	400000	400000
 21573	060720	000001	000001
 21574	060721	400002	000002
 21575	060722	000002	000002
 21576	060723	101 117 102 112 120
 21577	060724	101 117 102 112 116
 21578	060725	377677	377677
 21579	060726	777700	777700
 21580	060727	015 012 115 105 115
 21581	060730	117 122 131 040 123
 21582	060731	111 132 105 040 123
 21583	060732	105 114 105 103 124
 21584	060733	105 104 040 124 117
 21585	060734	117 040 123 115 101
DSKBA DECSYSTEM 2020 BASIC INSTRUCTION RELIABILITY TEST (1), VER 0,1 	MACRO %53(1020) 12:59 29-Mar-78 Page 1-1
STOR	KSM	28-Mar-78 11:25		*STOR* RESERVED STORAGE, MARCH 1978                                                SEQ 0552

 21586	060735	114 114 000 000 000
 21587	060736	64 45 63 64 51 56
 21588	060737	47 00 77 00 00 00
 21589	060740	53 76 77 00 00 00
 21590	060741	120 101 122 000 000
 21591	060742	265 04 0 00 057110
 21592	060743	254 00 0 00 057107
 21593	060744	112 122 123 124 000
 21594	060745	265 02 0 00 057144
 21595	060746	265 07 0 00 057175
 21596	060747	264 00 0 00 057237
 21597	060750	265 10 0 00 057300
 21598	060751	266 11 0 00 057343
 21599	060752	265 12 0 00 057377
 21600	060753	267 10 0 00 057436
 21601	060754	265 15 0 00 057474
 21602	060755	334 16 0 00 000000
 21603	060756	254 00 0 00 057476
 21604	060757	265 14 0 00 057525
 21605	060760	334 15 0 00 000001
 21606	060761	254 00 0 00 057527
 21607	060762	000001	000011
 21608	060763	265 10 0 00 060227
 21609	060764	000001	000006
 21610	060765	260 12 0 00 060224
 21611	060766	265 11 0 00 060262
 21612	060767	263 07 0 00 000000
 21613	060770	60 43 00 35 00 00
 21614	060771	00 77 00 00 00 00
 21615	060772	76 44 45 46 45 62
 21616	060773	00 64 45 63 64 00
 21617	060774	46 41 51 54 65 62
 21618	060775	45 16 76 43 57 62
 21619	060776	00 35 00 00 77 00
 21620	060777	76 45 62 62 00 35
 21621	061000	00 77 00 00 00 00
 21622	061001	015 012 124 110 105
 21623	061002	040 106 117 114 114
 21624	061003	117 127 111 116 107
 21625	061004	040 111 123 040 101
 21626	061005	040 114 111 123 124
 21627	061006	040 117 106 040 101
 21628	061007	114 114 040 124 110
 21629	061010	105 015 012 114 117
 21630	061011	103 101 124 111 117
 21631	061012	116 123 040 127 110
 21632	061013	105 122 105 040 124
 21633	061014	110 105 040 111 116
 21634	061015	104 111 122 105 103
 21635	061016	124 040 102 111 124
 21636	061017	040 127 101 123 040
 21637	061020	123 105 124 056 015
 21638	061021	012 000 000 000 000
 21639	061022	76 64 45 63 64 00
 21640	061023	60 41 63 63 00 43
DSKBA DECSYSTEM 2020 BASIC INSTRUCTION RELIABILITY TEST (1), VER 0,1 	MACRO %53(1020) 12:59 29-Mar-78 Page 1-2
STOR	KSM	28-Mar-78 11:25		*STOR* RESERVED STORAGE, MARCH 1978                                                SEQ 0553

 21641	061024	57 65 56 64 00 35
 21642	061025	00 77 00 00 00 00
 21643	061026	76 60 43 00 35 00
 21644	061027	00 00 77 00 00 00
 21645	061030	76 41 43 00 35 00
 21646	061031	00 00 77 00 00 00
 21647	061032	76 43 10 41 43 11
 21648	061033	35 00 77 00 00 00
 21649	061034	76 43 57 62 00 35
 21650	061035	00 00 77 00 00 00
 21651	061036	76 00 00 00 00 57
 21652	061037	62 51 47 51 56 41
 21653	061040	54 77 00 00 00 00
 21654	061041	76 43 10 45 11 00
 21655	061042	35 00 77 00 00 00
 21656	061043	76 45 00 35 00 00
 21657	061044	00 00 77 00 00 00
 21658	061045	76 45 70 43 45 45
 21659	061046	44 45 44 00 41 54
 21660	061047	54 57 67 45 44 00
 21661	061050	45 62 62 57 62 63
 21662	061051	76 77 00 00 00 00
 21663						LIST
 21664	061052	000000	000000		ENDSLD:	0
 21665
 21666					IFDEF	DEBUG,<
 21667	061053				PATCH:	BLOCK DEBUG		;PATCHING AREA
 21668					>
 21669
 21670					;PROGRAM VARIABLES
 21671	061113					VAR
 21672
 21673					IFDEF	PGMEND,<
 21674	061146	000000	000000		END:	0
 21675			030000			END	BEGIN	>

NO ERRORS DETECTED

PROGRAM BREAK IS 000000
ABSOLUTE BREAK IS 061147
CPU TIME USED 01:08.616

28P CORE USED

A	   733#	   743	   745	   745#	   746	   748	   748#	   749	   751	   751#	   752	   754	   754#	   755
	   757	   757#	   758	   760	   760#	   761	   763	   763#                                                    SEQ 0554
ABJN1	 18892#
ABJN1A	 18976#
ABJN1B	 18990#	 19006
ABJN1C	 18995#	 19008
ABJN2	 18906#	 18919
ABJN2A	 19047#
ABJN2B	 19061#	 19065	 19066
ABJN3	 18911#	 18921
ABJP1	 18852#
ABJP1A	 18933#
ABJP1B	 18947#	 18962
ABJP1C	 18952#	 18964
ABJP2	 18866#	 18879
ABJP2A	 19020#
ABJP2B	 19034#	 19039	 19040
ABJP3	 18871#	 18881
ABORT	   168#
AC	   803#	   805	   806	   807	   808	   809	   810	   811	   812	   813	   814	   815	   816	   817
	   819	   820	   821	   822	   830	   831	   832	   833	   834	   834#	   836	   837	   838	   839
	   840	   840#	   842	   843	   844	   845	   846	   846#	   848	   849	   850	   851	   852	   852#
	   854	   855	   856	   857	   858	   858#	   860	   861	   862	   863	   864	   864#	   866	   867
	   868	   869	   870	   870#	   872	   873	   874	   875	   876	   876#	   878	   879	   880	   881
	   882	   882#	   884	   885	   886	   887	   888	   888#	   890#	   892	   893	   894	   902#	   904
	   905	   906	   907	   908	   909	   910	   911	   912	   913	   914	   915	   916	   918	   919
	   920	   921	   930	   931	   932	   933	   934	   935	   935#	   937	   938	   939	   940	   941
	   942	   942#	   944	   945	   946	   947	   948	   949	   949#	   951	   952	   953	   954	   955
	   956	   956#	   958	   959	   960	   961	   962	   963	   963#	   965	   966	   967	   968	   969
	   970	   970#	   972	   973	   974	   975	   976	   977	   977#	   979	   980	   981	   982	   983
	   984	   984#	   986	   987	   988	   989	   990	   991	   991#	   993	   994	   995	   996	   997
	   998	   998#	  1000#	  1002	  1003	  1004	  1010#	  1012	  1013	  1014	  1015	  1016	  1017	  1018
	  1019	  1020	  1021	  1022	  1023	  1024	  1026	  1027	  1028	  1029	  1041	  1042	  1045	  1045#
	  1046	  1049	  1050	  1053	  1053#	  1054	  1057	  1058	  1061	  1061#	  1062	  1065	  1066	  1069
	  1069#	  1070	  1073	  1074	  1077	  1077#	  1078	  1081	  1082	  1085	  1085#	  1086	  1089	  1090
	  1093	  1093#	  1094	  1097	  1098	  1101	  1101#	  1102	  1104#	  1106	  1107	  1108	  1114#	  1116
	  1117	  1118	  1119	  1120	  1121	  1122	  1123	  1124	  1125	  1126	  1127	  1128	  1130	  1131
	  1132	  1133	  1147	  1148	  1149	  1150	  1155	  1155#	  1156	  1158	  1159	  1160	  1161	  1166
	  1166#	  1167	  1169	  1170	  1171	  1172	  1177	  1177#	  1178	  1180	  1181	  1182	  1183	  1188
	  1188#	  1189	  1191	  1192	  1193	  1194	  1199	  1199#	  1200	  1202	  1203	  1204	  1205	  1210
	  1210#	  1211	  1213	  1214	  1215	  1216	  1221	  1221#	  1222	  1224	  1225	  1226	  1227	  1232
	  1232#	  1233	  1235#	  1237	  1238	  1239	  1246#	  1248	  1249	  1250	  1251	  1252	  1253	  1254
	  1255	  1256	  1257	  1258	  1259	  1260	  1262	  1263	  1264	  1265	  1267	  1268	  1273	  1274
	  1275	  1282#	  1300	  1301	  1302	  1303	  1304	  1305	  1306	  1307	  1308	  1309	  1310	  1311
	  1312	  1314	  1315	  1316	  1317	  1319	  1320	  1321	  1323	  1324	  1325	  1326	  1327	  1331
	  1332	  1333	  1334	  1334#	  1337	  1338	  1339	  1340	  1341	  1342	  1343	  1344	  1345	  1346
	  1347	  1348	  1349	  1351	  1352	  1353	  1354	  1356	  1357	  1358	  1360	  1361	  1362	  1363
	  1364	  1368	  1369	  1370	  1371	  1371#	  1378#	  1380	  1381	  1382	  1383	  1384	  1385	  1386
	  1387	  1388	  1389	  1390	  1391	  1392	  1394	  1395	  1396	  1397	  1407	  1408	  1409	  1410
	  1411	  1412	  1412#	  1413	  1415	  1416	  1417	  1418	  1419	  1420	  1420#	  1421	  1423	  1424
	  1425	  1426	  1427	  1428	  1428#	  1429	  1431	  1432	  1433	  1434	  1435	  1436	  1436#	  1437
	  1439#	  1441	  1442	  1443	  1450#	  1473	  1474	  1475	  1476	  1477	  1478	  1479	  1480	  1481
	  1482	  1483	  1484	  1485	  1487	  1488	  1489	  1490	  1491	  1492	  1493	  1494	  1495	  1496
	  1497	  1498	  1499	  1500	  1501	  1502	  1503	  1504	  1505	  1507	  1508	  1509	  1510	  1510#
	  1513	  1514	  1515	  1516	  1517	  1518	  1519	  1520	  1521	  1522	  1523	  1524	  1525	  1527     SEQ 0555
	  1528	  1529	  1530	  1531	  1532	  1533	  1534	  1535	  1536	  1537	  1538	  1539	  1540	  1541
	  1542	  1543	  1544	  1545	  1547	  1548	  1549	  1550	  1550#	  1553	  1554	  1555	  1556	  1557
	  1558	  1559	  1560	  1561	  1562	  1563	  1564	  1565	  1567	  1568	  1569	  1570	  1571	  1572
	  1573	  1574	  1575	  1576	  1577	  1578	  1579	  1580	  1581	  1582	  1583	  1584	  1585	  1587
	  1588	  1589	  1590	  1590#	  1598#	  1600	  1601	  1602	  1603	  1604	  1605	  1606	  1607	  1608
	  1609	  1610	  1611	  1612	  1614	  1615	  1616	  1617	  1641	  1642	  1643	  1644	  1645	  1646
	  1647	  1648	  1649	  1650	  1651	  1652	  1653	  1654	  1655	  1656	  1657	  1658	  1659	  1660
	  1661	  1661#	  1663	  1664	  1665	  1666	  1667	  1668	  1669	  1670	  1671	  1672	  1673	  1674
	  1675	  1676	  1677	  1678	  1679	  1680	  1681	  1682	  1683	  1683#	  1685#	  1687	  1688	  1689
	  1694#	  1696	  1697	  1698	  1699	  1700	  1701	  1702	  1703	  1704	  1705	  1706	  1707	  1708
	  1710	  1711	  1712	  1713	  1714	  1715	  1716	  1717	  1718	  1719	  1720	  1721	  1722	  1723
	  1725	  1726	  1727	  1733#	  1735	  1736	  1737	  1738	  1739	  1740	  1741	  1742	  1743	  1744
	  1745	  1746	  1747	  1749	  1750	  1751	  1752	  1753	  1754	  1755	  1756	  1757	  1758	  1759
	  1760	  1761	  1762	  1763	  1764	  1765	  1767	  1768	  1769	  1776#	  1778	  1779	  1780	  1781
	  1782	  1783	  1784	  1785	  1786	  1787	  1788	  1789	  1790	  1792	  1793	  1794	  1795	  1796
	  1797	  1798	  1799	  1800	  1801	  1802	  1803	  1804	  1805	  1807	  1808	  1809	  1815#	  1817
	  1818	  1819	  1820	  1821	  1822	  1823	  1824	  1825	  1826	  1827	  1828	  1829	  1831	  1832
	  1833	  1834	  1835	  1836	  1837	  1838	  1839	  1840	  1841	  1842	  1843	  1844	  1845	  1847
	  1848	  1849	  1855#	  1857	  1858	  1859	  1860	  1861	  1862	  1863	  1864	  1865	  1866	  1867
	  1868	  1869	  1871	  1872	  1873	  1874	  1883	  1885	  1885#	  1886	  1889	  1891	  1891#	  1892
	  1894#	  1896	  1897	  1898	  1903#	  1905	  1906	  1907	  1908	  1909	  1910	  1911	  1912	  1913
	  1914	  1915	  1916	  1917	  1919	  1920	  1921	  1922	  1928	  1929	  1930	  1937#	  1939	  1940
	  1941	  1942	  1943	  1944	  1945	  1946	  1947	  1948	  1949	  1950	  1951	  1953	  1954	  1955
	  1956	  1957	  1958	  1959	  1960	  1961	  1962	  1963	  1964	  1965	  1966	  1967	  1968	  1969
	  1970	  1972	  1973	  1974	  1980#	  1982	  1983	  1984	  1985	  1986	  1987	  1988	  1989	  1990
	  1991	  1992	  1993	  1994	  1996	  1997	  1998	  1999	  2000	  2001	  2002	  2003	  2004	  2005
	  2006	  2007	  2008	  2009	  2010	  2011	  2013	  2014	  2015	  2021#	  2023	  2024	  2025	  2026
	  2027	  2028	  2029	  2030	  2031	  2032	  2033	  2034	  2035	  2037	  2038	  2039	  2040	  2041
	  2042	  2043	  2044	  2045	  2046	  2047	  2048	  2049	  2050	  2051	  2053	  2054	  2055	  2061#
	  2063	  2064	  2065	  2066	  2067	  2068	  2069	  2070	  2071	  2072	  2073	  2074	  2075	  2077
	  2078	  2079	  2080	  2081	  2082	  2083	  2084	  2085	  2086	  2087	  2088	  2089	  2090	  2091
	  2092	  2093	  2094	  2095	  2097	  2098	  2099	  2105#	  2107	  2108	  2109	  2110	  2111	  2112
	  2113	  2114	  2115	  2116	  2117	  2118	  2119	  2121	  2122	  2123	  2124	  2127	  2128	  2129
	  2130	  2131	  2132	  2133	  2134	  2135	  2137	  2138	  2139	  2147#	  2149	  2150	  2151	  2152
	  2153	  2154	  2155	  2156	  2157	  2158	  2159	  2160	  2161	  2163	  2164	  2165	  2166	  2167
	  2168	  2170	  2172	  2173	  2174	  2175	  2177	  2179	  2180	  2181	  2188#	  2190	  2191	  2192
	  2193	  2194	  2195	  2196	  2197	  2198	  2199	  2200	  2201	  2202	  2204	  2205	  2206	  2207
	  2208	  2210	  2212	  2213	  2214	  2215	  2216	  2217	  2219	  2220	  2221	  2229#	  2231	  2232
	  2233	  2234	  2235	  2236	  2237	  2238	  2239	  2240	  2241	  2242	  2243	  2245	  2246	  2247
	  2248	  2249	  2250	  2256	  2257	  2258	  2259	  2260	  2262	  2263	  2264	  2272#	  2274	  2275
	  2276	  2277	  2278	  2279	  2280	  2281	  2282	  2283	  2284	  2285	  2286	  2288	  2289	  2290
	  2291	  2292	  2293	  2297	  2298	  2299	  2300	  2301	  2303	  2304	  2305	  2313#	  2315	  2316
	  2317	  2318	  2319	  2320	  2321	  2322	  2323	  2324	  2325	  2326	  2327	  2329	  2330	  2331
	  2332	  2333	  2334	  2335	  2337	  2340	  2341	  2342	  2343	  2344	  2346	  2347	  2348	  2356#
	  2358	  2359	  2360	  2361	  2362	  2363	  2364	  2365	  2366	  2367	  2368	  2369	  2370	  2372
	  2373	  2374	  2375	  2376	  2378	  2379	  2380	  2381	  2382	  2383	  2385	  2386	  2387	  2396#
	  2398	  2399	  2400	  2401	  2402	  2403	  2404	  2405	  2406	  2407	  2408	  2409	  2410	  2412
	  2413	  2414	  2415	  2416	  2417	  2420	  2421	  2423	  2424	  2425	  2426	  2427	  2429	  2430
	  2431	  2440#	  2442	  2443	  2444	  2445	  2446	  2447	  2448	  2449	  2450	  2451	  2452	  2453
	  2454	  2456	  2457	  2458	  2459	  2460	  2461	  2462	  2465	  2466	  2467	  2468	  2469	  2471
	  2472	  2473	  2481#	  2483	  2484	  2485	  2486	  2487	  2488	  2489	  2490	  2491	  2492	  2493
	  2494	  2495	  2497	  2498	  2499	  2500	  2501	  2502	  2504	  2505	  2508	  2509	  2510	  2511
	  2512	  2514	  2515	  2516	  2524#	  2526	  2527	  2528	  2529	  2530	  2531	  2532	  2533	  2534     SEQ 0556
	  2535	  2536	  2537	  2538	  2540	  2541	  2542	  2543	  2544	  2546	  2548	  2549	  2550	  2551
	  2552	  2554	  2555	  2556	  2564#	  2566	  2567	  2568	  2569	  2570	  2571	  2572	  2573	  2574
	  2575	  2576	  2577	  2578	  2580	  2581	  2582	  2583	  2584	  2585	  2589	  2590	  2591	  2592
	  2593	  2594	  2595	  2596	  2597	  2598	  2599	  2600	  2602	  2603	  2604	  2611#	  2613	  2614
	  2615	  2616	  2617	  2618	  2619	  2620	  2621	  2622	  2623	  2624	  2625	  2627	  2628	  2629
	  2630	  2631	  2633	  2634	  2635	  2636	  2637	  2639	  2640	  2641	  2647#	  2649	  2650	  2651
	  2652	  2653	  2654	  2655	  2656	  2657	  2658	  2659	  2660	  2661	  2663	  2664	  2665	  2666
	  2667	  2668	  2670	  2671	  2672	  2676	  2677	  2678	  2684#	  2686	  2687	  2688	  2689	  2690
	  2691	  2692	  2693	  2694	  2695	  2696	  2697	  2698	  2700	  2701	  2702	  2703	  2704	  2705
	  2706	  2707	  2708	  2709	  2711	  2712	  2713	  2719#	  2721	  2722	  2723	  2724	  2725	  2726
	  2727	  2728	  2729	  2730	  2731	  2732	  2733	  2735	  2736	  2737	  2738	  2739	  2740	  2744
	  2745	  2746	  2747	  2748	  2749	  2750	  2751	  2752	  2753	  2754	  2755	  2757	  2758	  2759
	  2765#	  2767	  2768	  2769	  2770	  2771	  2772	  2773	  2774	  2775	  2776	  2777	  2778	  2779
	  2781	  2782	  2783	  2784	  2785	  2787	  2788	  2793	  2794	  2795	  2802#	  2804	  2805	  2806
	  2807	  2808	  2809	  2810	  2811	  2812	  2813	  2814	  2815	  2816	  2818	  2819	  2820	  2821
	  2826	  2827	  2828	  2829	  2830	  2831	  2832	  2837	  2838	  2839	  2846#	  2848	  2849	  2850
	  2851	  2852	  2853	  2854	  2855	  2856	  2857	  2858	  2859	  2860	  2862	  2863	  2864	  2865
	  2870	  2871	  2872	  2873	  2874	  2875	  2876	  2881	  2882	  2883	  2891#	  2893	  2894	  2895
	  2896	  2897	  2898	  2899	  2900	  2901	  2902	  2903	  2904	  2905	  2907	  2908	  2909	  2910
	  2914	  2915	  2916	  2917	  2922	  2923	  2924	  2931#	  2933	  2934	  2935	  2936	  2937	  2938
	  2939	  2940	  2941	  2942	  2943	  2944	  2945	  2947	  2948	  2949	  2950	  2954	  2955	  2956
	  2957	  2962	  2963	  2964	  2972#	  2974	  2975	  2976	  2977	  2978	  2979	  2980	  2981	  2982
	  2983	  2984	  2985	  2986	  2988	  2989	  2990	  2991	  3004	  3007	  3008	  3009	  3012	  3014
	  3014#	  3015	  3017	  3020	  3021	  3022	  3025	  3027	  3027#	  3028	  3030	  3033	  3034	  3035
	  3038	  3040	  3040#	  3041	  3043	  3046	  3047	  3048	  3051	  3053	  3053#	  3054	  3056	  3059
	  3060	  3061	  3064	  3066	  3066#	  3067	  3069	  3072	  3073	  3074	  3077	  3079	  3079#	  3080
	  3082	  3085	  3086	  3087	  3090	  3092	  3092#	  3093	  3095	  3098	  3099	  3100	  3103	  3105
	  3105#	  3106	  3108	  3111	  3112	  3113	  3116	  3118	  3118#	  3119	  3121	  3124	  3125	  3126
	  3129	  3131	  3131#	  3132	  3134#	  3136	  3137	  3138	  3145#	  3147	  3148	  3149	  3150	  3151
	  3152	  3153	  3154	  3155	  3156	  3157	  3158	  3159	  3161	  3162	  3163	  3164	  3177	  3180
	  3181	  3182	  3185	  3187	  3187#	  3188	  3190	  3193	  3194	  3195	  3198	  3200	  3200#	  3201
	  3203	  3206	  3207	  3208	  3211	  3213	  3213#	  3214	  3216	  3219	  3220	  3221	  3224	  3226
	  3226#	  3227	  3229	  3232	  3233	  3234	  3237	  3239	  3239#	  3240	  3242	  3245	  3246	  3247
	  3250	  3252	  3252#	  3253	  3255	  3258	  3259	  3260	  3263	  3265	  3265#	  3266	  3268	  3271
	  3272	  3273	  3276	  3278	  3278#	  3279	  3281	  3284	  3285	  3286	  3289	  3291	  3291#	  3292
	  3294	  3297	  3298	  3299	  3302	  3304	  3304#	  3305	  3307#	  3309	  3310	  3311	  3319#	  3321
	  3322	  3323	  3324	  3325	  3326	  3327	  3328	  3329	  3330	  3331	  3332	  3333	  3335	  3336
	  3337	  3338	  3344	  3345	  3347	  3348	  3352	  3353	  3354	  3363#	  3365	  3366	  3367	  3368
	  3369	  3370	  3371	  3372	  3373	  3374	  3375	  3376	  3377	  3379	  3380	  3381	  3382	  3403
	  3406	  3408	  3410	  3411	  3414	  3414#	  3415	  3416	  3419	  3422	  3424	  3426	  3427	  3430
	  3430#	  3431	  3432	  3435	  3438	  3440	  3442	  3443	  3446	  3446#	  3447	  3448	  3451	  3454
	  3456	  3458	  3459	  3462	  3462#	  3463	  3464	  3467	  3470	  3472	  3474	  3475	  3478	  3478#
	  3479	  3480	  3483	  3486	  3488	  3490	  3491	  3494	  3494#	  3495	  3496	  3499	  3502	  3504
	  3506	  3507	  3510	  3510#	  3511	  3512	  3515	  3518	  3520	  3522	  3523	  3526	  3526#	  3527
	  3528	  3531	  3534	  3536	  3538	  3539	  3542	  3542#	  3543	  3544	  3547	  3550	  3552	  3554
	  3555	  3558	  3558#	  3559	  3560	  3563#	  3565	  3566	  3567	  3572#	  3574	  3575	  3576	  3577
	  3578	  3579	  3580	  3581	  3582	  3583	  3584	  3585	  3586	  3588	  3589	  3590	  3591	  3592
	  3593	  3596	  3599	  3601	  3602	  3603	  3608#	  3610	  3611	  3612	  3613	  3614	  3615	  3616
	  3617	  3618	  3619	  3620	  3621	  3622	  3624	  3625	  3626	  3627	  3628	  3629	  3632	  3635
	  3637	  3638	  3639	  3646#	  3648	  3649	  3650	  3651	  3652	  3653	  3654	  3655	  3656	  3657
	  3658	  3659	  3660	  3662	  3663	  3664	  3665	  3669	  3670	  3671	  3672	  3673	  3674	  3675
	  3676	  3680	  3681	  3682	  3688#	  3690	  3691	  3692	  3693	  3694	  3695	  3696	  3697	  3698
	  3699	  3700	  3701	  3702	  3704	  3705	  3706	  3707	  3711	  3712	  3713	  3714	  3715	  3716     SEQ 0557
	  3717	  3718	  3719	  3720	  3722	  3723	  3724	  3729#	  3731	  3732	  3733	  3734	  3735	  3736
	  3737	  3738	  3739	  3740	  3741	  3742	  3743	  3745	  3746	  3747	  3748	  3752	  3753	  3754
	  3755	  3756	  3757	  3758	  3761	  3762	  3763	  3769#	  3771	  3772	  3773	  3774	  3775	  3776
	  3777	  3778	  3779	  3780	  3781	  3782	  3783	  3785	  3786	  3787	  3788	  3789	  3790	  3791
	  3794	  3795	  3796	  3801#	  3803	  3804	  3805	  3806	  3807	  3808	  3809	  3810	  3811	  3812
	  3813	  3814	  3815	  3817	  3818	  3819	  3820	  3824	  3825	  3826	  3827	  3828	  3829	  3830
	  3831	  3833	  3834	  3835	  3840#	  3842	  3843	  3844	  3845	  3846	  3847	  3848	  3849	  3850
	  3851	  3852	  3853	  3854	  3856	  3857	  3858	  3859	  3864	  3865	  3866	  3867	  3868	  3869
	  3870	  3875	  3876	  3877	  3882#	  3884	  3885	  3886	  3887	  3888	  3889	  3890	  3891	  3892
	  3893	  3894	  3895	  3896	  3898	  3899	  3900	  3901	  3903	  3904	  3906	  3907	  3909	  3910
	  3911	  3916#	  3918	  3919	  3920	  3921	  3922	  3923	  3924	  3925	  3926	  3927	  3928	  3929
	  3930	  3932	  3933	  3934	  3935	  3937	  3938	  3939	  3940	  3944	  3945	  3946	  3951#	  3953
	  3954	  3955	  3956	  3957	  3958	  3959	  3960	  3961	  3962	  3963	  3964	  3965	  3967	  3968
	  3969	  3970	  3972	  3975	  3980	  3981	  3982	  3987#	  3989	  3990	  3991	  3992	  3993	  3994
	  3995	  3996	  3997	  3998	  3999	  4000	  4001	  4002	  4004	  4007	  4009	  4010	  4013	  4015
	  4016	  4018	  4020	  4021	  4023	  4025	  4026	  4027	  4033#	  4035	  4036	  4037	  4038	  4039
	  4040	  4041	  4042	  4043	  4044	  4045	  4046	  4047	  4048	  4049	  4050	  4051	  4053	  4054
	  4055	  4062#	  4064	  4065	  4066	  4067	  4068	  4069	  4070	  4071	  4072	  4073	  4074	  4075
	  4076	  4077	  4078	  4079	  4080	  4082	  4083	  4084	  4089#	  4091	  4092	  4093	  4094	  4095
	  4096	  4097	  4098	  4099	  4100	  4101	  4102	  4103	  4105	  4106	  4107	  4108	  4109	  4110
	  4111	  4112	  4114	  4115	  4116	  4121#	  4123	  4124	  4125	  4126	  4127	  4128	  4129	  4130
	  4131	  4132	  4133	  4134	  4135	  4137	  4138	  4139	  4140	  4143	  4144	  4145	  4146	  4147
	  4148	  4149	  4151	  4152	  4153	  4159#	  4161	  4162	  4163	  4164	  4165	  4166	  4167	  4168
	  4169	  4170	  4171	  4172	  4173	  4175	  4176	  4177	  4178	  4180	  4181	  4182	  4184	  4185
	  4186	  4193#	  4195	  4196	  4197	  4198	  4199	  4200	  4201	  4202	  4203	  4204	  4205	  4206
	  4207	  4209	  4210	  4211	  4212	  4214	  4215	  4216	  4217	  4221	  4223	  4225	  4228	  4230
	  4231	  4232	  4238#	  4240	  4241	  4242	  4243	  4244	  4245	  4246	  4247	  4248	  4249	  4250
	  4251	  4252	  4254	  4255	  4256	  4257	  4260	  4264	  4265	  4266	  4272#	  4274	  4275	  4276
	  4277	  4278	  4279	  4280	  4281	  4282	  4283	  4284	  4285	  4286	  4288	  4289	  4290	  4291
	  4294	  4295	  4298	  4299	  4300	  4306#	  4308	  4309	  4310	  4311	  4312	  4313	  4314	  4315
	  4316	  4317	  4318	  4319	  4320	  4322	  4323	  4324	  4325	  4326	  4328	  4329	  4332	  4333
	  4334	  4340#	  4342	  4343	  4344	  4345	  4346	  4347	  4348	  4349	  4350	  4351	  4352	  4353
	  4354	  4356	  4357	  4358	  4359	  4360	  4361	  4364	  4365	  4366	  4372#	  4374	  4375	  4376
	  4377	  4378	  4379	  4380	  4381	  4382	  4383	  4384	  4385	  4386	  4388	  4389	  4390	  4391
	  4393	  4394	  4396	  4398	  4399	  4400	  4406#	  4408	  4409	  4410	  4411	  4412	  4413	  4414
	  4415	  4416	  4417	  4418	  4419	  4420	  4422	  4423	  4424	  4425	  4426	  4430	  4432	  4434
	  4435	  4436	  4442#	  4444	  4445	  4446	  4447	  4448	  4449	  4450	  4451	  4452	  4453	  4454
	  4455	  4456	  4458	  4459	  4460	  4461	  4463	  4464	  4466	  4469	  4470	  4471	  4477#	  4479
	  4480	  4481	  4482	  4483	  4484	  4485	  4486	  4487	  4488	  4489	  4490	  4491	  4493	  4494
	  4495	  4496	  4498	  4499	  4504	  4505	  4506	  4512#	  4514	  4515	  4516	  4517	  4518	  4519
	  4520	  4521	  4522	  4523	  4524	  4525	  4526	  4528	  4529	  4530	  4531	  4532	  4534	  4535
	  4537	  4540	  4541	  4542	  4548#	  4550	  4551	  4552	  4553	  4554	  4555	  4556	  4557	  4558
	  4559	  4560	  4561	  4562	  4564	  4565	  4566	  4567	  4571	  4572	  4573	  4574	  4577	  4578
	  4579	  4585#	  4587	  4588	  4589	  4590	  4591	  4592	  4593	  4594	  4595	  4596	  4597	  4598
	  4599	  4601	  4602	  4603	  4604	  4607	  4611	  4612	  4613	  4619#	  4621	  4622	  4623	  4624
	  4625	  4626	  4627	  4628	  4629	  4630	  4631	  4632	  4633	  4635	  4636	  4637	  4638	  4639
	  4640	  4641	  4644	  4645	  4646	  4652#	  4654	  4655	  4656	  4657	  4658	  4659	  4660	  4661
	  4662	  4663	  4664	  4665	  4666	  4668	  4669	  4670	  4671	  4673	  4674	  4675	  4678	  4679
	  4680	  4685#	  4687	  4688	  4689	  4690	  4691	  4692	  4693	  4694	  4695	  4696	  4697	  4698
	  4699	  4701	  4702	  4703	  4704	  4707	  4710	  4713	  4714	  4715	  4721#	  4723	  4724	  4725
	  4726	  4727	  4728	  4729	  4730	  4731	  4732	  4733	  4734	  4735	  4737	  4738	  4739	  4740
	  4741	  4742	  4745	  4748	  4749	  4750	  4756#	  4758	  4759	  4760	  4761	  4762	  4763	  4764
	  4765	  4766	  4767	  4768	  4769	  4770	  4772	  4773	  4774	  4775	  4776	  4777	  4780	  4781     SEQ 0558
	  4782	  4788#	  4790	  4791	  4792	  4793	  4794	  4795	  4796	  4797	  4798	  4799	  4800	  4801
	  4802	  4804	  4805	  4806	  4807	  4809	  4810	  4812	  4814	  4815	  4816	  4822#	  4824	  4825
	  4826	  4827	  4828	  4829	  4830	  4831	  4832	  4833	  4834	  4835	  4836	  4838	  4839	  4840
	  4841	  4842	  4843	  4845	  4846	  4849	  4850	  4851	  4858#	  4860	  4861	  4862	  4863	  4864
	  4865	  4866	  4867	  4868	  4869	  4870	  4871	  4872	  4874	  4875	  4876	  4877	  4879	  4880
	  4882	  4885	  4886	  4887	  4894#	  4896	  4897	  4898	  4899	  4900	  4901	  4902	  4903	  4904
	  4905	  4906	  4907	  4908	  4910	  4911	  4912	  4913	  4915	  4916	  4917	  4922	  4923	  4924
	  4931#	  4933	  4934	  4935	  4936	  4937	  4938	  4939	  4940	  4941	  4942	  4943	  4944	  4945
	  4947	  4948	  4949	  4950	  4951	  4952	  4953	  4955	  4958	  4959	  4960	  4967#	  4969	  4970
	  4971	  4972	  4973	  4974	  4975	  4976	  4977	  4978	  4979	  4980	  4981	  4983	  4984	  4985
	  4986	  4988	  4992	  4993	  4996	  4997	  4998	  5003#	  5005	  5006	  5007	  5008	  5009	  5010
	  5011	  5012	  5013	  5014	  5015	  5016	  5017	  5019	  5020	  5021	  5022	  5026	  5027	  5028
	  5029	  5030	  5031	  5032	  5033	  5035	  5036	  5037	  5043#	  5045	  5046	  5047	  5048	  5049
	  5050	  5051	  5052	  5053	  5054	  5055	  5056	  5057	  5059	  5060	  5061	  5062	  5064	  5068
	  5069	  5072	  5073	  5074	  5081#	  5083	  5084	  5085	  5086	  5087	  5088	  5089	  5090	  5091
	  5092	  5093	  5094	  5095	  5097	  5098	  5099	  5100	  5102	  5106	  5107	  5108	  5109	  5110
	  5111	  5112	  5115	  5116	  5117	  5125#	  5127	  5128	  5129	  5130	  5131	  5132	  5133	  5134
	  5135	  5136	  5137	  5138	  5139	  5141	  5142	  5143	  5144	  5150	  5151	  5152	  5153	  5154
	  5155	  5156	  5158	  5161	  5162	  5163	  5171#	  5173	  5174	  5175	  5176	  5177	  5178	  5179
	  5180	  5181	  5182	  5183	  5184	  5185	  5187	  5188	  5189	  5190	  5196	  5197	  5198	  5199
	  5200	  5201	  5202	  5204	  5207	  5208	  5209	  5215#	  5217	  5218	  5219	  5220	  5221	  5222
	  5223	  5224	  5225	  5226	  5227	  5228	  5229	  5231	  5232	  5233	  5234	  5235	  5242	  5243
	  5246	  5247	  5248	  5254#	  5256	  5257	  5258	  5259	  5260	  5261	  5262	  5263	  5264	  5265
	  5266	  5267	  5268	  5270	  5271	  5272	  5273	  5274	  5275	  5276	  5277	  5280	  5281	  5282
	  5288#	  5290	  5291	  5292	  5293	  5294	  5295	  5296	  5297	  5298	  5299	  5300	  5301	  5302
	  5304	  5305	  5306	  5307	  5308	  5310	  5311	  5312	  5313	  5315	  5316	  5321	  5322	  5323
	  5329#	  5331	  5332	  5333	  5334	  5335	  5336	  5337	  5338	  5339	  5340	  5341	  5342	  5343
	  5345	  5346	  5347	  5348	  5349	  5356	  5357	  5362	  5363	  5364	  5370#	  5372	  5373	  5374
	  5375	  5376	  5377	  5378	  5379	  5380	  5381	  5382	  5383	  5384	  5386	  5387	  5388	  5389
	  5390	  5401	  5402	  5404	  5405	  5406	  5412#	  5414	  5415	  5416	  5417	  5418	  5419	  5420
	  5421	  5422	  5423	  5424	  5425	  5426	  5428	  5429	  5430	  5431	  5432	  5433	  5435	  5436
	  5437	  5438	  5441	  5442	  5443	  5449#	  5451	  5452	  5453	  5454	  5455	  5456	  5457	  5458
	  5459	  5460	  5461	  5462	  5463	  5465	  5466	  5467	  5468	  5470	  5473	  5476	  5478	  5479
	  5480	  5486#	  5488	  5489	  5490	  5491	  5492	  5493	  5494	  5495	  5496	  5497	  5498	  5499
	  5500	  5502	  5503	  5504	  5505	  5507	  5509	  5510	  5511	  5512	  5515	  5516	  5517	  5523#
	  5525	  5526	  5527	  5528	  5529	  5530	  5531	  5532	  5533	  5534	  5535	  5536	  5537	  5539
	  5540	  5541	  5542	  5543	  5545	  5548	  5551	  5553	  5554	  5555	  5561#	  5563	  5564	  5565
	  5566	  5567	  5568	  5569	  5570	  5571	  5572	  5573	  5574	  5575	  5577	  5578	  5579	  5580
	  5581	  5583	  5585	  5586	  5587	  5588	  5591	  5592	  5593	  5599#	  5601	  5602	  5603	  5604
	  5605	  5606	  5607	  5608	  5609	  5610	  5611	  5612	  5613	  5615	  5616	  5617	  5618	  5619
	  5620	  5621	  5623	  5624	  5625	  5626	  5629	  5630	  5631	  5637#	  5639	  5640	  5641	  5642
	  5643	  5644	  5645	  5646	  5647	  5648	  5649	  5650	  5651	  5653	  5654	  5655	  5656	  5657
	  5658	  5660	  5661	  5662	  5663	  5666	  5667	  5668	  5674#	  5676	  5677	  5678	  5679	  5680
	  5681	  5682	  5683	  5684	  5685	  5686	  5687	  5688	  5690	  5691	  5692	  5693	  5694	  5695
	  5697	  5698	  5699	  5700	  5705	  5706	  5707	  5713#	  5715	  5716	  5717	  5718	  5719	  5720
	  5721	  5722	  5723	  5724	  5725	  5726	  5727	  5729	  5730	  5731	  5732	  5733	  5734	  5736
	  5737	  5738	  5739	  5742	  5743	  5744	  5751#	  5753	  5754	  5755	  5756	  5757	  5758	  5759
	  5760	  5761	  5762	  5763	  5764	  5765	  5767	  5768	  5769	  5770	  5771	  5773	  5774	  5775
	  5776	  5778	  5779	  5780	  5781	  5784	  5785	  5786	  5792#	  5794	  5795	  5796	  5797	  5798
	  5799	  5800	  5801	  5802	  5803	  5804	  5805	  5806	  5809	  5810	  5811	  5812	  5814	  5815
	  5816	  5818	  5819	  5820	  5821	  5824	  5825	  5826	  5833#	  5835	  5836	  5837	  5838	  5839
	  5840	  5841	  5842	  5843	  5844	  5845	  5846	  5847	  5850	  5851	  5852	  5853	  5855	  5856
	  5857	  5859	  5860	  5862	  5863	  5864	  5865	  5868	  5869	  5870	  5877#	  5879	  5880	  5881     SEQ 0559
	  5882	  5883	  5884	  5885	  5886	  5887	  5888	  5889	  5890	  5891	  5894	  5895	  5896	  5897
	  5901	  5902	  5905	  5908	  5910	  5911	  5912	  5920#	  5922	  5923	  5924	  5925	  5926	  5927
	  5928	  5929	  5930	  5931	  5932	  5933	  5934	  5937	  5938	  5939	  5940	  5943	  5944	  5946
	  5948	  5951	  5954	  5955	  5956	  5962#	  5964	  5965	  5966	  5967	  5968	  5969	  5970	  5971
	  5972	  5973	  5974	  5975	  5976	  5978	  5979	  5980	  5981	  5982	  5983	  5984	  5986	  5987
	  5988	  5989	  5992	  5993	  5994	  6000#	  6002	  6003	  6004	  6005	  6006	  6007	  6008	  6009
	  6010	  6011	  6012	  6013	  6014	  6016	  6017	  6018	  6019	  6020	  6022	  6023	  6024	  6025
	  6028	  6029	  6030	  6036#	  6038	  6039	  6040	  6041	  6042	  6043	  6044	  6045	  6046	  6047
	  6048	  6049	  6050	  6052	  6053	  6054	  6055	  6056	  6057	  6059	  6060	  6061	  6063	  6064
	  6065	  6066	  6069	  6070	  6071	  6078#	  6080	  6081	  6082	  6083	  6084	  6085	  6086	  6087
	  6088	  6089	  6090	  6091	  6092	  6095	  6096	  6097	  6098	  6100	  6101	  6102	  6104	  6105
	  6106	  6107	  6110	  6111	  6112	  6119#	  6121	  6122	  6123	  6124	  6125	  6126	  6127	  6128
	  6129	  6130	  6131	  6132	  6133	  6136	  6137	  6138	  6139	  6141	  6142	  6143	  6145	  6146
	  6147	  6149	  6150	  6151	  6154	  6155	  6156	  6163#	  6165	  6166	  6167	  6168	  6169	  6170
	  6171	  6172	  6173	  6174	  6175	  6176	  6177	  6180	  6181	  6182	  6183	  6187	  6188	  6189
	  6191	  6194	  6195	  6198	  6201	  6202	  6203	  6210#	  6212	  6213	  6214	  6215	  6216	  6217
	  6218	  6219	  6220	  6221	  6222	  6223	  6224	  6227	  6228	  6229	  6230	  6234	  6235	  6238
	  6240	  6241	  6244	  6245	  6246	  6252#	  6254	  6255	  6256	  6257	  6258	  6259	  6260	  6261
	  6262	  6263	  6264	  6265	  6266	  6268	  6269	  6270	  6271	  6273	  6274	  6277	  6278	  6281
	  6282	  6283	  6289#	  6291	  6292	  6293	  6294	  6295	  6296	  6297	  6298	  6299	  6300	  6301
	  6302	  6303	  6305	  6306	  6307	  6308	  6310	  6312	  6313	  6314	  6315	  6319	  6320	  6321
	  6327#	  6329	  6330	  6331	  6332	  6333	  6334	  6335	  6336	  6337	  6338	  6339	  6340	  6341
	  6343	  6344	  6345	  6346	  6348	  6353	  6354	  6355	  6361#	  6363	  6364	  6365	  6366	  6367
	  6368	  6369	  6370	  6371	  6372	  6373	  6374	  6375	  6377	  6378	  6379	  6380	  6382	  6384
	  6385	  6386	  6387	  6390	  6391	  6392	  6398#	  6400	  6401	  6402	  6403	  6404	  6405	  6406
	  6407	  6408	  6409	  6410	  6411	  6412	  6414	  6415	  6416	  6417	  6418	  6420	  6421	  6423
	  6425	  6426	  6427	  6433#	  6435	  6436	  6437	  6438	  6439	  6440	  6441	  6442	  6443	  6444
	  6445	  6446	  6447	  6449	  6450	  6451	  6452	  6453	  6454	  6457	  6459	  6460	  6461	  6462
	  6465	  6466	  6467	  6473#	  6475	  6476	  6477	  6478	  6479	  6480	  6481	  6482	  6483	  6484
	  6485	  6486	  6487	  6489	  6490	  6491	  6492	  6493	  6495	  6497	  6499	  6500	  6501	  6507#
	  6509	  6510	  6511	  6512	  6513	  6514	  6515	  6516	  6517	  6518	  6519	  6520	  6521	  6523
	  6524	  6525	  6526	  6527	  6529	  6532	  6534	  6535	  6536	  6544#	  6546	  6547	  6548	  6549
	  6550	  6551	  6552	  6553	  6554	  6555	  6556	  6557	  6558	  6560	  6561	  6562	  6563	  6565
	  6567	  6569	  6570	  6571	  6577#	  6579	  6580	  6581	  6582	  6583	  6584	  6585	  6586	  6587
	  6588	  6589	  6590	  6591	  6593	  6594	  6595	  6596	  6597	  6599	  6600	  6603	  6605	  6606
	  6607	  6617#	  6619	  6620	  6621	  6622	  6623	  6624	  6625	  6626	  6627	  6628	  6629	  6630
	  6631	  6633	  6634	  6635	  6636	  6637	  6638	  6639	  6640	  6643	  6644	  6645	  6653#	  6655
	  6656	  6657	  6658	  6659	  6660	  6661	  6662	  6663	  6664	  6665	  6666	  6667	  6669	  6670
	  6671	  6672	  6673	  6675	  6677	  6679	  6680	  6681	  6690#	  6692	  6693	  6694	  6695	  6696
	  6697	  6698	  6699	  6700	  6701	  6702	  6703	  6704	  6707	  6708	  6709	  6710	  6712	  6713
	  6714	  6716	  6717	  6718	  6719	  6721	  6722	  6723	  6724	  6727	  6728	  6729	  6738#	  6740
	  6741	  6742	  6743	  6744	  6745	  6746	  6747	  6748	  6749	  6750	  6751	  6752	  6755	  6756
	  6757	  6758	  6760	  6761	  6762	  6764	  6765	  6766	  6767	  6769	  6770	  6771	  6772	  6775
	  6776	  6777	  6786#	  6788	  6789	  6790	  6791	  6792	  6793	  6794	  6795	  6796	  6797	  6798
	  6799	  6800	  6803	  6804	  6805	  6806	  6810	  6811	  6812	  6815	  6818	  6819	  6821	  6823
	  6825	  6826	  6827	  6835#	  6837	  6838	  6839	  6840	  6841	  6842	  6843	  6844	  6845	  6846
	  6847	  6848	  6849	  6852	  6853	  6854	  6855	  6859	  6860	  6862	  6864	  6866	  6869	  6872
	  6873	  6874	  6883#	  6885	  6886	  6887	  6888	  6889	  6890	  6891	  6892	  6893	  6894	  6895
	  6896	  6897	  6900	  6901	  6902	  6903	  6905	  6906	  6907	  6909	  6910	  6911	  6912	  6915
	  6916	  6917	  6925#	  6927	  6928	  6929	  6930	  6931	  6932	  6933	  6934	  6935	  6936	  6937
	  6938	  6939	  6942	  6943	  6944	  6945	  6947	  6948	  6949	  6951	  6952	  6953	  6954	  6957
	  6958	  6959	  6968#	  6970	  6971	  6972	  6973	  6974	  6975	  6976	  6977	  6978	  6979	  6980
	  6981	  6982	  6985	  6986	  6987	  6988	  6992	  6993	  6996	  6999	  7001	  7002	  7003	  7013#    SEQ 0560
	  7015	  7016	  7017	  7018	  7019	  7020	  7021	  7022	  7023	  7024	  7025	  7026	  7027	  7030
	  7031	  7032	  7033	  7037	  7038	  7041	  7044	  7046	  7047	  7048	  7056#	  7058	  7059	  7060
	  7061	  7062	  7063	  7064	  7065	  7066	  7067	  7068	  7069	  7070	  7072	  7073	  7074	  7075
	  7077	  7079	  7081	  7083	  7084	  7085	  7093#	  7096	  7097	  7098	  7099	  7100	  7101	  7102
	  7103	  7104	  7105	  7106	  7107	  7108	  7110	  7111	  7112	  7113	  7115	  7116	  7119	  7120
	  7121	  7129#	  7131	  7132	  7133	  7134	  7135	  7136	  7137	  7138	  7139	  7140	  7141	  7142
	  7143	  7145	  7146	  7147	  7148	  7149	  7150	  7151	  7152	  7153	  7156	  7157	  7158	  7167#
	  7169	  7170	  7171	  7172	  7173	  7174	  7175	  7176	  7177	  7178	  7179	  7180	  7181	  7183
	  7184	  7185	  7186	  7187	  7188	  7190	  7191	  7192	  7193	  7196	  7197	  7198	  7208#	  7210
	  7211	  7212	  7213	  7214	  7215	  7216	  7217	  7218	  7219	  7220	  7221	  7222	  7224	  7225
	  7226	  7227	  7229	  7231	  7232	  7233	  7234	  7237	  7238	  7239	  7247#	  7249	  7250	  7251
	  7252	  7253	  7254	  7255	  7256	  7257	  7258	  7259	  7260	  7261	  7263	  7264	  7265	  7266
	  7268	  7269	  7271	  7273	  7276	  7278	  7279	  7280	  7288#	  7290	  7291	  7292	  7293	  7294
	  7295	  7296	  7297	  7298	  7299	  7300	  7301	  7302	  7304	  7305	  7306	  7307	  7308	  7309
	  7312	  7314	  7315	  7316	  7317	  7320	  7321	  7322	  7330#	  7332	  7333	  7334	  7335	  7336
	  7337	  7338	  7339	  7340	  7341	  7342	  7343	  7344	  7346	  7347	  7348	  7349	  7350	  7352
	  7355	  7358	  7360	  7362	  7364	  7366	  7367	  7368	  7377#	  7379	  7380	  7381	  7382	  7383
	  7384	  7385	  7386	  7387	  7388	  7389	  7390	  7391	  7393	  7394	  7395	  7396	  7397	  7398
	  7401	  7403	  7404	  7405	  7406	  7408	  7409	  7410	  7411	  7414	  7415	  7416	  7425#	  7427
	  7428	  7429	  7430	  7431	  7432	  7433	  7434	  7435	  7436	  7437	  7438	  7439	  7441	  7442
	  7443	  7444	  7445	  7446	  7447	  7448	  7450	  7452	  7454	  7455	  7456	  7457	  7460	  7461
	  7462	  7470#	  7472	  7473	  7474	  7475	  7476	  7477	  7478	  7479	  7480	  7481	  7482	  7483
	  7484	  7486	  7487	  7488	  7489	  7491	  7493	  7496	  7499	  7501	  7502	  7503	  7511#	  7513
	  7514	  7515	  7516	  7517	  7518	  7519	  7520	  7521	  7522	  7523	  7524	  7525	  7527	  7528
	  7529	  7530	  7532	  7534	  7535	  7536	  7537	  7540	  7541	  7542	  7551#	  7553	  7554	  7555
	  7556	  7557	  7558	  7559	  7560	  7561	  7562	  7563	  7564	  7565	  7567	  7568	  7569	  7570
	  7571	  7572	  7574	  7575	  7576	  7577	  7580	  7581	  7582	  7590#	  7592	  7593	  7594	  7595
	  7596	  7597	  7598	  7599	  7600	  7601	  7602	  7603	  7604	  7606	  7607	  7608	  7609	  7610
	  7612	  7614	  7616	  7617	  7618	  7619	  7622	  7623	  7624	  7632#	  7634	  7635	  7636	  7637
	  7638	  7639	  7640	  7641	  7642	  7643	  7644	  7645	  7646	  7648	  7649	  7650	  7651	  7653
	  7655	  7656	  7657	  7658	  7661	  7662	  7663	  7671#	  7673	  7674	  7675	  7676	  7677	  7678
	  7679	  7680	  7681	  7682	  7683	  7684	  7685	  7687	  7688	  7689	  7690	  7691	  7693	  7694
	  7697	  7700	  7702	  7704	  7706	  7708	  7709	  7710	  7718#	  7720	  7721	  7722	  7723	  7724
	  7725	  7726	  7727	  7728	  7729	  7730	  7731	  7732	  7734	  7735	  7736	  7737	  7738	  7740
	  7741	  7743	  7744	  7745	  7746	  7749	  7750	  7751	  7759#	  7761	  7762	  7763	  7764	  7765
	  7766	  7767	  7768	  7769	  7770	  7771	  7772	  7773	  7775	  7776	  7777	  7778	  7779	  7781
	  7784	  7787	  7789	  7790	  7791	  7799#	  7801	  7802	  7803	  7804	  7805	  7806	  7807	  7808
	  7809	  7810	  7811	  7812	  7813	  7815	  7816	  7817	  7818	  7819	  7821	  7822	  7824	  7825
	  7826	  7827	  7830	  7831	  7832	  7840#	  7842	  7843	  7844	  7845	  7846	  7847	  7848	  7849
	  7850	  7851	  7852	  7853	  7854	  7856	  7857	  7858	  7859	  7860	  7861	  7862	  7864	  7865
	  7866	  7867	  7870	  7871	  7872	  7880#	  7882	  7883	  7884	  7885	  7886	  7887	  7888	  7889
	  7890	  7891	  7892	  7893	  7894	  7896	  7897	  7898	  7899	  7901	  7903	  7904	  7905	  7906
	  7909	  7910	  7911	  7919#	  7921	  7922	  7923	  7924	  7925	  7926	  7927	  7928	  7929	  7930
	  7931	  7932	  7933	  7935	  7936	  7937	  7938	  7940	  7943	  7946	  7948	  7949	  7950	  7959#
	  7961	  7962	  7963	  7964	  7965	  7966	  7967	  7968	  7969	  7970	  7971	  7972	  7973	  7975
	  7976	  7977	  7978	  7979	  7980	  7982	  7983	  7984	  7985	  7988	  7989	  7990	  7998#	  8000
	  8001	  8002	  8003	  8004	  8005	  8006	  8007	  8008	  8009	  8010	  8011	  8012	  8014	  8015
	  8016	  8017	  8018	  8019	  8020	  8024	  8026	  8027	  8028	  8029	  8032	  8033	  8034	  8042#
	  8044	  8045	  8046	  8047	  8048	  8049	  8050	  8051	  8052	  8053	  8054	  8055	  8056	  8058
	  8059	  8060	  8061	  8063	  8065	  8066	  8067	  8068	  8071	  8072	  8073	  8081#	  8083	  8084
	  8085	  8086	  8087	  8088	  8089	  8090	  8091	  8092	  8093	  8094	  8095	  8097	  8098	  8099
	  8100	  8102	  8105	  8108	  8110	  8111	  8112	  8120#	  8122	  8123	  8124	  8125	  8126	  8127
	  8128	  8129	  8130	  8131	  8132	  8133	  8134	  8136	  8137	  8138	  8139	  8140	  8142	  8143     SEQ 0561
	  8145	  8146	  8147	  8148	  8151	  8152	  8153	  8161#	  8163	  8164	  8165	  8166	  8167	  8168
	  8169	  8170	  8171	  8172	  8173	  8174	  8175	  8177	  8178	  8179	  8180	  8181	  8183	  8185
	  8187	  8189	  8192	  8194	  8195	  8196	  8204#	  8206	  8207	  8208	  8209	  8210	  8211	  8212
	  8213	  8214	  8215	  8216	  8217	  8218	  8220	  8221	  8222	  8223	  8224	  8226	  8227	  8229
	  8230	  8231	  8234	  8235	  8236	  8244#	  8246	  8247	  8248	  8249	  8250	  8251	  8252	  8253
	  8254	  8255	  8256	  8257	  8258	  8260	  8261	  8262	  8263	  8264	  8265	  8266	  8267	  8269
	  8270	  8271	  8272	  8275	  8276	  8277	  8285#	  8287	  8288	  8289	  8290	  8291	  8292	  8293
	  8294	  8295	  8296	  8297	  8298	  8299	  8301	  8302	  8303	  8304	  8306	  8308	  8309	  8310
	  8311	  8314	  8315	  8316	  8324#	  8326	  8327	  8328	  8329	  8330	  8331	  8332	  8333	  8334
	  8335	  8336	  8337	  8338	  8340	  8341	  8342	  8343	  8345	  8348	  8349	  8351	  8353	  8354
	  8355	  8363#	  8365	  8366	  8367	  8368	  8369	  8370	  8371	  8372	  8373	  8374	  8375	  8376
	  8377	  8379	  8380	  8381	  8382	  8383	  8384	  8386	  8387	  8388	  8389	  8392	  8393	  8394
	  8403#	  8405	  8406	  8407	  8408	  8409	  8410	  8411	  8412	  8413	  8414	  8415	  8416	  8417
	  8419	  8420	  8421	  8422	  8423	  8424	  8426	  8427	  8428	  8429	  8432	  8433	  8434	  8442#
	  8444	  8445	  8446	  8447	  8448	  8449	  8450	  8451	  8452	  8453	  8454	  8455	  8456	  8458
	  8459	  8460	  8461	  8463	  8465	  8466	  8467	  8468	  8471	  8472	  8473	  8481#	  8483	  8484
	  8485	  8486	  8487	  8488	  8489	  8490	  8491	  8492	  8493	  8494	  8495	  8497	  8498	  8499
	  8500	  8502	  8505	  8508	  8510	  8511	  8512	  8520#	  8522	  8523	  8524	  8525	  8526	  8527
	  8528	  8529	  8530	  8531	  8532	  8533	  8534	  8536	  8537	  8538	  8539	  8540	  8542	  8544
	  8545	  8546	  8547	  8550	  8551	  8552	  8560#	  8562	  8563	  8564	  8565	  8566	  8567	  8568
	  8569	  8570	  8571	  8572	  8573	  8574	  8576	  8577	  8578	  8579	  8580	  8582	  8585	  8588
	  8590	  8591	  8592	  8600#	  8602	  8603	  8604	  8605	  8606	  8607	  8608	  8609	  8610	  8611
	  8612	  8613	  8614	  8616	  8617	  8618	  8619	  8620	  8621	  8623	  8625	  8626	  8627	  8628
	  8631	  8632	  8633	  8641#	  8643	  8644	  8645	  8646	  8647	  8648	  8649	  8650	  8651	  8652
	  8653	  8654	  8655	  8657	  8658	  8659	  8660	  8661	  8662	  8664	  8665	  8667	  8668	  8669
	  8670	  8673	  8674	  8675	  8684#	  8686	  8687	  8688	  8689	  8690	  8691	  8692	  8693	  8694
	  8695	  8696	  8697	  8698	  8700	  8701	  8702	  8703	  8706	  8707	  8708	  8711	  8712	  8713
	  8715	  8717	  8718	  8719	  8727#	  8729	  8730	  8731	  8732	  8733	  8734	  8735	  8736	  8737
	  8738	  8739	  8740	  8741	  8744	  8745	  8746	  8747	  8751	  8752	  8756	  8759	  8760	  8761
	  8772#	  8774	  8775	  8776	  8777	  8778	  8779	  8780	  8781	  8782	  8783	  8784	  8785	  8786
	  8788	  8789	  8790	  8791	  8793	  8794	  8796	  8801	  8802	  8803	  8814#	  8816	  8817	  8818
	  8819	  8820	  8821	  8822	  8823	  8824	  8825	  8826	  8827	  8828	  8831	  8832	  8833	  8834
	  8840	  8841	  8842	  8845	  8848	  8849	  8850	  8859#	  8861	  8862	  8863	  8864	  8865	  8866
	  8867	  8868	  8869	  8870	  8871	  8872	  8873	  8875	  8876	  8877	  8878	  8879	  8880	  8881
	  8883	  8884	  8885	  8886	  8891	  8892	  8893	  8902#	  8904	  8905	  8906	  8907	  8908	  8909
	  8910	  8911	  8912	  8913	  8914	  8915	  8916	  8918	  8919	  8920	  8921	  8922	  8923	  8924
	  8926	  8927	  8928	  8929	  8933	  8934	  8935	  8936	  8937	  8938	  8940	  8942	  8943	  8944
	  8951#	  8953	  8954	  8955	  8956	  8957	  8958	  8959	  8960	  8961	  8962	  8963	  8964	  8965
	  8967	  8968	  8969	  8970	  8971	  8972	  8974	  8975	  8976	  8977	  8978	  8982	  8983	  8984
	  8985	  8986	  8987	  8989	  8991	  8992	  8993	  9002#	  9004	  9005	  9006	  9007	  9008	  9009
	  9010	  9011	  9012	  9013	  9014	  9015	  9016	  9018	  9019	  9020	  9021	  9022	  9024	  9025
	  9026	  9027	  9028	  9029	  9031	  9034	  9035	  9036	  9046#	  9048	  9049	  9050	  9051	  9052
	  9053	  9054	  9055	  9056	  9057	  9058	  9059	  9060	  9062	  9063	  9064	  9065	  9066	  9067
	  9068	  9069	  9070	  9073	  9074	  9075	  9083#	  9085	  9086	  9087	  9088	  9089	  9090	  9091
	  9092	  9093	  9094	  9095	  9096	  9097	  9098	  9099	  9100	  9101	  9102	  9103	  9104	  9105
	  9107	  9108	  9118#	  9120	  9121	  9122	  9123	  9124	  9125	  9126	  9127	  9128	  9129	  9130
	  9131	  9132	  9133	  9134	  9135	  9136	  9137	  9138	  9139	  9150#	  9152	  9153	  9154	  9155
	  9156	  9157	  9158	  9159	  9160	  9161	  9162	  9163	  9164	  9165	  9166	  9167	  9168	  9169
	  9170	  9171	  9172	  9173	  9174	  9178	  9179	  9188#	  9190	  9191	  9192	  9193	  9194	  9195
	  9196	  9197	  9198	  9199	  9200	  9201	  9202	  9203	  9204	  9205	  9206	  9207	  9208	  9209
	  9210	  9211	  9212	  9214	  9215	  9224#	  9226	  9227	  9228	  9229	  9230	  9231	  9232	  9233
	  9234	  9235	  9236	  9237	  9238	  9239	  9240	  9241	  9242	  9243	  9244	  9245	  9246	  9247
	  9249	  9250	  9251	  9252	  9253	  9255	  9256	  9257	  9266#	  9268	  9269	  9270	  9271	  9272     SEQ 0562
	  9273	  9274	  9275	  9276	  9277	  9278	  9279	  9280	  9281	  9282	  9283	  9284	  9285	  9286
	  9287	  9288	  9289	  9291	  9292	  9293	  9294	  9295	  9298	  9299	  9300	  9301	  9311#	  9313
	  9314	  9315	  9316	  9317	  9318	  9319	  9320	  9321	  9322	  9323	  9324	  9325	  9327	  9328
	  9329	  9330	  9331	  9332	  9333	  9334	  9335	  9336	  9337	  9340	  9341	  9342	  9352#	  9354
	  9355	  9356	  9357	  9358	  9359	  9360	  9361	  9362	  9363	  9364	  9365	  9366	  9368	  9369
	  9370	  9371	  9375	  9377	  9378	  9379	  9380	  9401	  9402	  9403	  9412#	  9414	  9415	  9416
	  9417	  9418	  9419	  9420	  9421	  9422	  9423	  9424	  9425	  9426	  9427	  9428	  9429	  9430
	  9433	  9434	  9435	  9436	  9440	  9441	  9442	  9443	  9444	  9455#	  9457	  9458	  9459	  9460
	  9461	  9462	  9463	  9464	  9465	  9466	  9467	  9468	  9469	  9471	  9472	  9473	  9474	  9477
	  9478	  9480	  9485	  9486	  9487	  9498#	  9500	  9501	  9502	  9503	  9504	  9505	  9506	  9507
	  9508	  9509	  9510	  9511	  9512	  9514	  9515	  9516	  9517	  9518	  9519	  9520	  9523	  9524
	  9526	  9528	  9531	  9532	  9533	  9542#	  9544	  9545	  9546	  9547	  9548	  9549	  9550	  9551
	  9552	  9553	  9554	  9555	  9556	  9558	  9559	  9560	  9561	  9562	  9563	  9564	  9565	  9568
	  9569	  9571	  9573	  9576	  9577	  9578	  9587#	  9589	  9590	  9591	  9592	  9593	  9594	  9595
	  9596	  9597	  9598	  9599	  9600	  9601	  9602	  9603	  9604	  9605	  9606	  9608	  9610	  9611
	  9613	  9615	  9617	  9618	  9619	  9629#	  9631	  9632	  9633	  9634	  9635	  9636	  9637	  9638
	  9639	  9640	  9641	  9642	  9643	  9644	  9646	  9647	  9649	  9651	  9653	  9654	  9662#	  9664
	  9665	  9666	  9667	  9668	  9669	  9670	  9671	  9672	  9673	  9674	  9675	  9676	  9678	  9679
	  9680	  9681	  9682	  9684	  9685	  9686	  9687	  9690	  9691	  9692	  9700#	  9702	  9703	  9704
	  9705	  9706	  9707	  9708	  9709	  9710	  9711	  9712	  9713	  9714	  9715	  9716	  9717	  9718
	  9719	  9721	  9722	  9723	  9724	  9726	  9727	  9728	  9738#	  9740	  9741	  9742	  9743	  9744
	  9745	  9746	  9747	  9748	  9749	  9750	  9751	  9752	  9753	  9754	  9755	  9756	  9757	  9758
	  9760	  9761	  9771#	  9773	  9774	  9775	  9776	  9777	  9778	  9779	  9780	  9781	  9782	  9783
	  9784	  9785	  9787	  9788	  9789	  9790	  9791	  9792	  9793	  9795	  9796	  9797	  9798	  9801
	  9802	  9803	  9811#	  9813	  9814	  9815	  9816	  9817	  9818	  9819	  9820	  9821	  9822	  9823
	  9824	  9825	  9827	  9828	  9829	  9830	  9831	  9832	  9833	  9834	  9836	  9837	  9838	  9839
	  9842	  9843	  9844	  9852#	  9854	  9855	  9856	  9857	  9858	  9859	  9860	  9861	  9862	  9863
	  9864	  9865	  9866	  9867	  9868	  9869	  9870	  9871	  9872	  9875	  9876	  9877	  9885#	  9887
	  9888	  9889	  9890	  9891	  9892	  9893	  9894	  9895	  9896	  9897	  9898	  9899	  9900	  9901
	  9902	  9903	  9904	  9905	  9907	  9908	  9917#	  9919	  9920	  9921	  9922	  9923	  9924	  9925
	  9926	  9927	  9928	  9929	  9930	  9931	  9933	  9934	  9935	  9936	  9938	  9940	  9941	  9943
	  9945	  9948	  9949	  9950	  9959#	  9961	  9962	  9963	  9964	  9965	  9966	  9967	  9968	  9969
	  9970	  9971	  9972	  9973	  9974	  9975	  9976	  9977	  9979	  9981	  9982	  9984	  9986	  9990
	  9991	 10002#	 10004	 10005	 10006	 10007	 10008	 10009	 10010	 10011	 10012	 10013	 10014	 10015
	 10016	 10018	 10019	 10020	 10021	 10024	 10025	 10027	 10032	 10033	 10034	 10045#	 10047	 10048
	 10049	 10050	 10051	 10052	 10053	 10054	 10055	 10056	 10057	 10058	 10059	 10060	 10061	 10063
	 10064	 10066	 10068	 10070	 10071	 10080#	 10082	 10083	 10084	 10085	 10086	 10087	 10088	 10089
	 10090	 10091	 10092	 10093	 10094	 10096	 10097	 10098	 10099	 10100	 10101	 10102	 10104	 10106
	 10107	 10109	 10111	 10114	 10115	 10116	 10125#	 10127	 10128	 10129	 10130	 10131	 10132	 10133
	 10134	 10135	 10136	 10137	 10138	 10139	 10141	 10142	 10143	 10144	 10145	 10146	 10148	 10150
	 10151	 10153	 10155	 10158	 10159	 10160	 10169#	 10171	 10172	 10173	 10174	 10175	 10176	 10177
	 10178	 10179	 10180	 10181	 10182	 10183	 10184	 10185	 10187	 10188	 10190	 10192	 10194	 10195
	 10204#	 10206	 10207	 10208	 10209	 10210	 10211	 10212	 10213	 10214	 10215	 10216	 10217	 10218
	 10219	 10220	 10222	 10223	 10225	 10227	 10229	 10230	 10238#	 10240	 10241	 10242	 10243	 10244
	 10245	 10246	 10247	 10248	 10249	 10250	 10251	 10252	 10254	 10255	 10256	 10257	 10258	 10260
	 10261	 10262	 10263	 10266	 10267	 10268	 10276#	 10278	 10279	 10280	 10281	 10282	 10283	 10284
	 10285	 10286	 10287	 10288	 10289	 10290	 10291	 10292	 10293	 10294	 10295	 10298	 10299	 10300
	 10301	 10305	 10306	 10314#	 10316	 10317	 10318	 10319	 10320	 10321	 10322	 10323	 10324	 10325
	 10326	 10327	 10328	 10329	 10330	 10331	 10332	 10333	 10334	 10336	 10337	 10345#	 10347	 10348
	 10349	 10350	 10351	 10352	 10353	 10354	 10355	 10356	 10357	 10358	 10359	 10361	 10362	 10363
	 10364	 10365	 10366	 10367	 10368	 10370	 10371	 10372	 10373	 10376	 10377	 10378	 10386#	 10388
	 10389	 10390	 10391	 10392	 10393	 10394	 10395	 10396	 10397	 10398	 10399	 10400	 10402	 10403
	 10404	 10405	 10406	 10407	 10408	 10410	 10411	 10412	 10413	 10416	 10417	 10418	 10426#	 10428     SEQ 0563
	 10429	 10430	 10431	 10432	 10433	 10434	 10435	 10436	 10437	 10438	 10439	 10440	 10441	 10442
	 10443	 10444	 10445	 10446	 10448	 10449	 10457#	 10459	 10460	 10461	 10462	 10463	 10464	 10465
	 10466	 10467	 10468	 10469	 10470	 10471	 10472	 10473	 10474	 10475	 10476	 10477	 10479	 10480
	 10489#	 10491	 10492	 10493	 10494	 10495	 10496	 10497	 10498	 10499	 10500	 10501	 10502	 10503
	 10505	 10506	 10507	 10508	 10510	 10511	 10513	 10515	 10518	 10519	 10520	 10528#	 10530	 10531
	 10532	 10533	 10534	 10535	 10536	 10537	 10538	 10539	 10540	 10541	 10542	 10544	 10545	 10546
	 10547	 10548	 10549	 10550	 10551	 10554	 10555	 10556	 10565#	 10567	 10568	 10569	 10570	 10571
	 10572	 10573	 10574	 10575	 10576	 10577	 10578	 10579	 10582	 10583	 10584	 10585	 10589	 10590
	 10591	 10592	 10597	 10598	 10599	 10607#	 10609	 10610	 10611	 10612	 10613	 10614	 10615	 10616
	 10617	 10618	 10619	 10620	 10621	 10623	 10624	 10625	 10626	 10627	 10630	 10631	 10633	 10634
	 10635	 10636	 10641	 10642	 10643	 10651#	 10653	 10654	 10655	 10656	 10657	 10658	 10659	 10660
	 10661	 10662	 10663	 10664	 10665	 10667	 10668	 10669	 10670	 10671	 10674	 10675	 10677	 10678
	 10679	 10680	 10685	 10686	 10687	 10695#	 10697	 10698	 10699	 10700	 10701	 10702	 10703	 10704
	 10705	 10706	 10707	 10708	 10709	 10711	 10712	 10713	 10714	 10715	 10718	 10719	 10721	 10722
	 10726	 10729	 10730	 10731	 10739#	 10741	 10742	 10743	 10744	 10745	 10746	 10747	 10748	 10749
	 10750	 10751	 10752	 10753	 10755	 10756	 10757	 10758	 10759	 10760	 10761	 10762	 10765	 10766
	 10767	 10775#	 10777	 10778	 10779	 10780	 10781	 10782	 10783	 10784	 10785	 10786	 10787	 10788
	 10789	 10791	 10792	 10793	 10794	 10795	 10796	 10797	 10798	 10801	 10802	 10803	 10811#	 10813
	 10814	 10815	 10816	 10817	 10818	 10819	 10820	 10821	 10822	 10823	 10824	 10825	 10827	 10828
	 10829	 10830	 10831	 10832	 10833	 10834	 10835	 10836	 10837	 10838	 10841	 10842	 10843	 10851#
	 10853	 10854	 10855	 10856	 10857	 10858	 10859	 10860	 10861	 10862	 10863	 10864	 10865	 10867
	 10868	 10869	 10870	 10872	 10873	 10874	 10875	 10876	 10877	 10878	 10881	 10882	 10883	 10891#
	 10893	 10894	 10895	 10896	 10897	 10898	 10899	 10900	 10901	 10902	 10903	 10904	 10905	 10907
	 10908	 10909	 10910	 10912	 10913	 10914	 10915	 10916	 10917	 10920	 10921	 10922	 10931#	 10933
	 10934	 10935	 10936	 10937	 10938	 10939	 10940	 10941	 10942	 10943	 10944	 10945	 10946	 10948
	 10949	 10953	 10955	 10956	 10959	 10960	 10961	 10962	 10973#	 10975	 10976	 10977	 10978	 10979
	 10980	 10981	 10982	 10983	 10984	 10985	 10986	 10987	 10988	 10990	 10991	 10994	 10996	 10997
	 10998	 10999	 11000	 11002	 11003	 11004	 11014#	 11016	 11017	 11018	 11019	 11020	 11021	 11022
	 11023	 11024	 11025	 11026	 11027	 11028	 11030	 11031	 11032	 11033	 11035	 11036	 11037	 11038
	 11039	 11040	 11042	 11043	 11051#	 11053	 11054	 11055	 11056	 11057	 11058	 11059	 11060	 11061
	 11062	 11063	 11064	 11065	 11067	 11068	 11069	 11070	 11072	 11073	 11074	 11075	 11076	 11077
	 11079	 11080	 11089#	 11091	 11092	 11093	 11094	 11095	 11096	 11097	 11098	 11099	 11100	 11101
	 11102	 11103	 11104	 11106	 11107	 11110	 11111	 11112	 11113	 11114	 11115	 11117	 11118	 11129#
	 11131	 11132	 11133	 11134	 11135	 11136	 11137	 11138	 11139	 11140	 11141	 11142	 11143	 11144
	 11146	 11147	 11152	 11153	 11156	 11157	 11158	 11166#	 11168	 11169	 11170	 11171	 11172	 11173
	 11174	 11175	 11176	 11177	 11178	 11179	 11180	 11182	 11183	 11184	 11185	 11187	 11189	 11191
	 11192	 11195	 11196	 11197	 11205#	 11207	 11208	 11209	 11210	 11211	 11212	 11213	 11214	 11215
	 11216	 11217	 11218	 11219	 11221	 11222	 11223	 11224	 11226	 11228	 11230	 11231	 11234	 11235
	 11236	 11244#	 11246	 11247	 11248	 11249	 11250	 11251	 11252	 11253	 11254	 11255	 11256	 11257
	 11258	 11260	 11261	 11262	 11263	 11265	 11267	 11268	 11271	 11272	 11273	 11281#	 11283	 11284
	 11285	 11286	 11287	 11288	 11289	 11290	 11291	 11292	 11293	 11294	 11295	 11297	 11298	 11299
	 11300	 11302	 11304	 11306	 11307	 11310	 11311	 11312	 11320#	 11322	 11323	 11324	 11325	 11326
	 11327	 11328	 11329	 11330	 11331	 11332	 11333	 11334	 11336	 11337	 11338	 11339	 11341	 11342
	 11343	 11346	 11347	 11348	 11356#	 11358	 11359	 11360	 11361	 11362	 11363	 11364	 11365	 11366
	 11367	 11368	 11369	 11370	 11372	 11373	 11374	 11375	 11377	 11379	 11381	 11382	 11385	 11386
	 11387	 11395#	 11397	 11398	 11399	 11400	 11401	 11402	 11403	 11404	 11405	 11406	 11407	 11408
	 11409	 11411	 11412	 11413	 11414	 11416	 11418	 11419	 11420	 11421	 11424	 11425	 11426	 11434#
	 11436	 11437	 11438	 11439	 11440	 11441	 11442	 11443	 11444	 11445	 11446	 11447	 11448	 11450
	 11451	 11452	 11453	 11455	 11457	 11459	 11460	 11463	 11464	 11465	 11473#	 11475	 11476	 11477
	 11478	 11479	 11480	 11481	 11482	 11483	 11484	 11485	 11486	 11487	 11489	 11490	 11491	 11492
	 11494	 11496	 11498	 11499	 11502	 11503	 11504	 11512#	 11514	 11515	 11516	 11517	 11518	 11519
	 11520	 11521	 11522	 11523	 11524	 11525	 11526	 11528	 11529	 11530	 11531	 11533	 11534	 11535
	 11536	 11539	 11540	 11541	 11549#	 11551	 11552	 11553	 11554	 11555	 11556	 11557	 11558	 11559     SEQ 0564
	 11560	 11561	 11562	 11563	 11565	 11566	 11567	 11568	 11570	 11572	 11573	 11575	 11576	 11579
	 11580	 11581	 11589#	 11591	 11592	 11593	 11594	 11595	 11596	 11597	 11598	 11599	 11600	 11601
	 11602	 11603	 11605	 11606	 11607	 11608	 11610	 11613	 11614	 11617	 11618	 11619	 11627#	 11629
	 11630	 11631	 11632	 11633	 11634	 11635	 11636	 11637	 11638	 11639	 11640	 11641	 11643	 11644
	 11645	 11646	 11648	 11650	 11652	 11653	 11656	 11657	 11658	 11666#	 11668	 11669	 11670	 11671
	 11672	 11673	 11674	 11675	 11676	 11677	 11678	 11679	 11680	 11682	 11683	 11684	 11685	 11687
	 11689	 11690	 11692	 11693	 11696	 11697	 11698	 11706#	 11708	 11709	 11710	 11711	 11712	 11713
	 11714	 11715	 11716	 11717	 11718	 11719	 11720	 11722	 11723	 11724	 11725	 11727	 11728	 11729
	 11732	 11733	 11734	 11742#	 11744	 11745	 11746	 11747	 11748	 11749	 11750	 11751	 11752	 11753
	 11754	 11755	 11756	 11758	 11759	 11760	 11761	 11762	 11764	 11765	 11766	 11767	 11770	 11771
	 11772	 11780#	 11782	 11783	 11784	 11785	 11786	 11787	 11788	 11789	 11790	 11791	 11792	 11793
	 11794	 11796	 11797	 11798	 11799	 11801	 11804	 11807	 11809	 11810	 11811	 11819#	 11821	 11822
	 11823	 11824	 11825	 11826	 11827	 11828	 11829	 11830	 11831	 11832	 11833	 11835	 11836	 11837
	 11838	 11839	 11840	 11842	 11843	 11844	 11845	 11848	 11849	 11850	 11858#	 11860	 11861	 11862
	 11863	 11864	 11865	 11866	 11867	 11868	 11869	 11870	 11871	 11872	 11874	 11875	 11876	 11877
	 11878	 11879	 11881	 11882	 11883	 11884	 11887	 11888	 11889	 11897#	 11899	 11900	 11901	 11902
	 11903	 11904	 11905	 11906	 11907	 11908	 11909	 11910	 11911	 11913	 11914	 11915	 11916	 11917
	 11919	 11920	 11921	 11922	 11925	 11926	 11927	 11935#	 11937	 11938	 11939	 11940	 11941	 11942
	 11943	 11944	 11945	 11946	 11947	 11948	 11949	 11951	 11952	 11953	 11954	 11956	 11959	 11962
	 11964	 11965	 11966	 11974#	 11976	 11977	 11978	 11979	 11980	 11981	 11982	 11983	 11984	 11985
	 11986	 11987	 11988	 11990	 11991	 11992	 11993	 11994	 11995	 11996	 11998	 11999	 12000	 12001
	 12004	 12005	 12006	 12014#	 12016	 12017	 12018	 12019	 12020	 12021	 12022	 12023	 12024	 12025
	 12026	 12027	 12028	 12030	 12031	 12032	 12033	 12034	 12036	 12039	 12042	 12044	 12045	 12046
	 12054#	 12056	 12057	 12058	 12059	 12060	 12061	 12062	 12063	 12064	 12065	 12066	 12067	 12068
	 12070	 12071	 12072	 12073	 12074	 12075	 12076	 12078	 12079	 12080	 12081	 12084	 12085	 12086
	 12094#	 12096	 12097	 12098	 12099	 12100	 12101	 12102	 12103	 12104	 12105	 12106	 12107	 12108
	 12110	 12111	 12112	 12113	 12114	 12115	 12117	 12118	 12119	 12120	 12123	 12124	 12125	 12133#
	 12135	 12136	 12137	 12138	 12139	 12140	 12141	 12142	 12143	 12144	 12145	 12146	 12147	 12149
	 12150	 12151	 12152	 12153	 12154	 12156	 12157	 12158	 12159	 12162	 12163	 12164	 12172#	 12174
	 12175	 12176	 12177	 12178	 12179	 12180	 12181	 12182	 12183	 12184	 12185	 12186	 12188	 12189
	 12190	 12191	 12192	 12193	 12195	 12197	 12198	 12199	 12200	 12203	 12204	 12205	 12213#	 12215
	 12216	 12217	 12218	 12219	 12220	 12221	 12222	 12223	 12224	 12225	 12226	 12227	 12229	 12230
	 12231	 12232	 12233	 12235	 12237	 12238	 12240	 12241	 12242	 12243	 12246	 12247	 12248	 12257#
	 12259	 12260	 12261	 12262	 12263	 12264	 12265	 12266	 12267	 12268	 12269	 12270	 12271	 12274
	 12275	 12276	 12277	 12281	 12282	 12283	 12285	 12286	 12287	 12288	 12291	 12292	 12293	 12302#
	 12304	 12305	 12306	 12307	 12308	 12309	 12310	 12311	 12312	 12313	 12314	 12315	 12316	 12319
	 12320	 12321	 12322	 12326	 12327	 12328	 12330	 12331	 12333	 12334	 12335	 12336	 12339	 12340
	 12341	 12350#	 12352	 12353	 12354	 12355	 12356	 12357	 12358	 12359	 12360	 12361	 12362	 12363
	 12364	 12367	 12368	 12369	 12370	 12376	 12377	 12380	 12383	 12385	 12386	 12387	 12396#	 12398
	 12399	 12400	 12401	 12402	 12403	 12404	 12405	 12406	 12407	 12408	 12409	 12410	 12413	 12414
	 12415	 12416	 12421	 12422	 12424	 12426	 12429	 12432	 12433	 12434	 12442#	 12444	 12445	 12446
	 12447	 12448	 12449	 12450	 12451	 12452	 12453	 12454	 12455	 12456	 12458	 12459	 12460	 12461
	 12462	 12464	 12465	 12466	 12467	 12470	 12471	 12472	 12480#	 12482	 12483	 12484	 12485	 12486
	 12487	 12488	 12489	 12490	 12491	 12492	 12493	 12494	 12496	 12497	 12498	 12499	 12501	 12503
	 12506	 12509	 12511	 12512	 12513	 12521#	 12523	 12524	 12525	 12526	 12527	 12528	 12529	 12530
	 12531	 12532	 12533	 12534	 12535	 12537	 12538	 12539	 12540	 12541	 12543	 12545	 12546	 12547
	 12548	 12551	 12552	 12553	 12561#	 12563	 12564	 12565	 12566	 12567	 12568	 12569	 12570	 12571
	 12572	 12573	 12574	 12575	 12577	 12578	 12579	 12580	 12582	 12585	 12588	 12590	 12591	 12592
	 12600#	 12602	 12603	 12604	 12605	 12606	 12607	 12608	 12609	 12610	 12611	 12612	 12613	 12614
	 12616	 12617	 12618	 12619	 12620	 12621	 12624	 12626	 12627	 12628	 12629	 12632	 12633	 12634
	 12642#	 12644	 12645	 12646	 12647	 12648	 12649	 12650	 12651	 12652	 12653	 12654	 12655	 12656
	 12658	 12659	 12660	 12661	 12662	 12663	 12665	 12666	 12667	 12668	 12671	 12672	 12673	 12684#
	 12686	 12687	 12688	 12689	 12690	 12691	 12692	 12693	 12694	 12695	 12696	 12697	 12698	 12701     SEQ 0565
	 12702	 12703	 12704	 12708	 12709	 12710	 12712	 12713	 12714	 12715	 12716	 12719	 12720	 12721
	 12732#	 12734	 12735	 12736	 12737	 12738	 12739	 12740	 12741	 12742	 12743	 12744	 12745	 12746
	 12749	 12750	 12751	 12752	 12756	 12757	 12758	 12760	 12761	 12762	 12763	 12766	 12767	 12768
	 12777#	 12779	 12780	 12781	 12782	 12783	 12784	 12785	 12786	 12787	 12788	 12789	 12790	 12791
	 12794	 12795	 12796	 12797	 12802	 12803	 12806	 12809	 12812	 12814	 12816	 12818	 12821	 12822
	 12823	 12832#	 12834	 12835	 12836	 12837	 12838	 12839	 12840	 12841	 12842	 12843	 12844	 12845
	 12846	 12849	 12850	 12851	 12852	 12857	 12858	 12859	 12862	 12865	 12868	 12869	 12870	 12882#
	 12884	 12885	 12886	 12887	 12888	 12889	 12890	 12891	 12892	 12893	 12894	 12895	 12896	 12898
	 12899	 12900	 12901	 12902	 12904	 12905	 12906	 12907	 12910	 12911	 12912	 12918#	 12920	 12921
	 12922	 12923	 12924	 12925	 12926	 12927	 12928	 12929	 12930	 12931	 12932	 12934	 12935	 12936
	 12937	 12939	 12942	 12945	 12947	 12948	 12949	 12966#	 12968	 12969	 12970	 12971	 12972	 12973
	 12974	 12975	 12976	 12977	 12978	 12979	 12980	 12982	 12983	 12984	 12985	 12986	 12988	 12989
	 12990	 12991	 12994	 12995	 12996	 13004#	 13006	 13007	 13008	 13009	 13010	 13011	 13012	 13013
	 13014	 13015	 13016	 13017	 13018	 13020	 13021	 13022	 13023	 13025	 13028	 13031	 13033	 13034
	 13035	 13043#	 13045	 13046	 13047	 13048	 13049	 13050	 13051	 13052	 13053	 13054	 13055	 13056
	 13057	 13059	 13060	 13061	 13062	 13063	 13064	 13066	 13067	 13068	 13069	 13072	 13073	 13074
	 13082#	 13084	 13085	 13086	 13087	 13088	 13089	 13090	 13091	 13092	 13093	 13094	 13095	 13096
	 13098	 13099	 13100	 13101	 13102	 13103	 13105	 13106	 13107	 13108	 13111	 13112	 13113	 13121#
	 13123	 13124	 13125	 13126	 13127	 13128	 13129	 13130	 13131	 13132	 13133	 13134	 13135	 13137
	 13138	 13139	 13140	 13141	 13143	 13144	 13145	 13146	 13149	 13150	 13151	 13159#	 13161	 13162
	 13163	 13164	 13165	 13166	 13167	 13168	 13169	 13170	 13171	 13172	 13173	 13175	 13176	 13177
	 13178	 13179	 13182	 13185	 13188	 13189	 13191	 13193	 13195	 13196	 13197	 13205#	 13207	 13208
	 13209	 13210	 13211	 13212	 13213	 13214	 13215	 13216	 13217	 13218	 13219	 13221	 13222	 13223
	 13224	 13225	 13226	 13229	 13230	 13232	 13233	 13234	 13235	 13238	 13239	 13240	 13248#	 13250
	 13251	 13252	 13253	 13254	 13255	 13256	 13257	 13258	 13259	 13260	 13261	 13262	 13264	 13265
	 13266	 13267	 13268	 13270	 13273	 13276	 13277	 13279	 13281	 13283	 13284	 13285	 13293#	 13295
	 13296	 13297	 13298	 13299	 13300	 13301	 13302	 13303	 13304	 13305	 13306	 13307	 13309	 13310
	 13311	 13312	 13313	 13314	 13315	 13316	 13318	 13319	 13320	 13321	 13323	 13324	 13325	 13326
	 13329	 13330	 13331	 13338#	 13340	 13341	 13342	 13343	 13344	 13345	 13346	 13347	 13348	 13349
	 13350	 13351	 13352	 13355	 13356	 13357	 13358	 13362	 13363	 13364	 13366	 13367	 13368	 13369
	 13371	 13372	 13373	 13374	 13377	 13378	 13379	 13387#	 13389	 13390	 13391	 13392	 13393	 13394
	 13395	 13396	 13397	 13398	 13399	 13400	 13401	 13403	 13404	 13405	 13406	 13407	 13409	 13410
	 13411	 13412	 13415	 13416	 13417	 13425#	 13427	 13428	 13429	 13430	 13431	 13432	 13433	 13434
	 13435	 13436	 13437	 13438	 13439	 13441	 13442	 13443	 13444	 13446	 13449	 13452	 13454	 13455
	 13456	 13464#	 13466	 13467	 13468	 13469	 13470	 13471	 13472	 13473	 13474	 13475	 13476	 13477
	 13478	 13480	 13481	 13482	 13483	 13484	 13486	 13487	 13488	 13489	 13492	 13493	 13494	 13502#
	 13504	 13505	 13506	 13507	 13508	 13509	 13510	 13511	 13512	 13513	 13514	 13515	 13516	 13518
	 13519	 13520	 13521	 13523	 13526	 13529	 13531	 13532	 13533	 13541#	 13543	 13544	 13545	 13546
	 13547	 13548	 13549	 13550	 13551	 13552	 13553	 13554	 13555	 13557	 13558	 13559	 13560	 13561
	 13562	 13564	 13565	 13566	 13567	 13570	 13571	 13572	 13580#	 13582	 13583	 13584	 13585	 13586
	 13587	 13588	 13589	 13590	 13591	 13592	 13593	 13594	 13596	 13597	 13598	 13599	 13600	 13602
	 13604	 13605	 13606	 13607	 13610	 13611	 13612	 13620#	 13622	 13623	 13624	 13625	 13626	 13627
	 13628	 13629	 13630	 13631	 13632	 13633	 13634	 13636	 13637	 13638	 13639	 13640	 13642	 13643
	 13644	 13645	 13648	 13649	 13650	 13658#	 13660	 13661	 13662	 13663	 13664	 13665	 13666	 13667
	 13668	 13669	 13670	 13671	 13672	 13674	 13675	 13676	 13677	 13679	 13682	 13685	 13687	 13688
	 13689	 13697#	 13699	 13700	 13701	 13702	 13703	 13704	 13705	 13706	 13707	 13708	 13709	 13710
	 13711	 13713	 13714	 13715	 13716	 13717	 13718	 13719	 13721	 13722	 13723	 13724	 13727	 13728
	 13729	 13737#	 13739	 13740	 13741	 13742	 13743	 13744	 13745	 13746	 13747	 13748	 13749	 13750
	 13751	 13753	 13754	 13755	 13756	 13757	 13759	 13762	 13765	 13767	 13768	 13769	 13777#	 13779
	 13780	 13781	 13782	 13783	 13784	 13785	 13786	 13787	 13788	 13789	 13790	 13791	 13793	 13794
	 13795	 13796	 13797	 13798	 13799	 13800	 13802	 13803	 13804	 13805	 13808	 13809	 13810	 13818#
	 13820	 13821	 13822	 13823	 13824	 13825	 13826	 13827	 13828	 13829	 13830	 13831	 13832	 13834
	 13835	 13836	 13837	 13838	 13839	 13840	 13841	 13843	 13844	 13845	 13846	 13849	 13850	 13851     SEQ 0566
	 13859#	 13861	 13862	 13863	 13864	 13865	 13866	 13867	 13868	 13869	 13870	 13871	 13872	 13873
	 13875	 13876	 13877	 13878	 13879	 13881	 13882	 13883	 13884	 13887	 13888	 13889	 13897#	 13899
	 13900	 13901	 13902	 13903	 13904	 13905	 13906	 13907	 13908	 13909	 13910	 13911	 13913	 13914
	 13915	 13916	 13918	 13921	 13924	 13926	 13927	 13928	 13936#	 13938	 13939	 13940	 13941	 13942
	 13943	 13944	 13945	 13946	 13947	 13948	 13949	 13950	 13952	 13953	 13954	 13955	 13956	 13958
	 13960	 13961	 13962	 13963	 13966	 13967	 13968	 13976#	 13978	 13979	 13980	 13981	 13982	 13983
	 13984	 13985	 13986	 13987	 13988	 13989	 13990	 13992	 13993	 13994	 13995	 13997	 13999	 14005#
	 14007	 14008	 14009	 14010	 14011	 14012	 14013	 14014	 14015	 14016	 14017	 14018	 14019	 14021
	 14022	 14023	 14024	 14025	 14028	 14029	 14031	 14032	 14033	 14034	 14037	 14038	 14039	 14047#
	 14049	 14050	 14051	 14052	 14053	 14054	 14055	 14056	 14057	 14058	 14059	 14060	 14061	 14063
	 14064	 14065	 14066	 14067	 14069	 14070	 14071	 14072	 14075	 14076	 14077	 14085#	 14087	 14088
	 14089	 14090	 14091	 14092	 14093	 14094	 14095	 14096	 14097	 14098	 14099	 14101	 14102	 14103
	 14104	 14106	 14109	 14112	 14114	 14115	 14116	 14124#	 14126	 14127	 14128	 14129	 14130	 14131
	 14132	 14133	 14134	 14135	 14136	 14137	 14138	 14140	 14141	 14142	 14143	 14144	 14145	 14146
	 14148	 14149	 14151	 14152	 14153	 14154	 14157	 14158	 14159	 14167#	 14169	 14170	 14171	 14172
	 14173	 14174	 14175	 14176	 14177	 14178	 14179	 14180	 14181	 14183	 14184	 14185	 14186	 14187
	 14189	 14191	 14193	 14195	 14198	 14200	 14201	 14202	 14210#	 14212	 14213	 14214	 14215	 14216
	 14217	 14218	 14219	 14220	 14221	 14222	 14223	 14224	 14226	 14227	 14228	 14229	 14230	 14231
	 14232	 14233	 14235	 14236	 14238	 14239	 14240	 14241	 14244	 14245	 14246	 14254#	 14256	 14257
	 14258	 14259	 14260	 14261	 14262	 14263	 14264	 14265	 14266	 14267	 14268	 14270	 14271	 14272
	 14273	 14274	 14275	 14276	 14278	 14279	 14280	 14282	 14283	 14284	 14285	 14288	 14289	 14290
	 14298#	 14300	 14301	 14302	 14303	 14304	 14305	 14306	 14307	 14308	 14309	 14310	 14311	 14312
	 14314	 14315	 14316	 14317	 14318	 14320	 14321	 14322	 14323	 14326	 14327	 14328	 14336#	 14338
	 14339	 14340	 14341	 14342	 14343	 14344	 14345	 14346	 14347	 14348	 14349	 14350	 14352	 14353
	 14354	 14355	 14357	 14358	 14361	 14364	 14366	 14367	 14368	 14376#	 14378	 14379	 14380	 14381
	 14382	 14383	 14384	 14385	 14386	 14387	 14388	 14389	 14390	 14392	 14393	 14394	 14395	 14396
	 14398	 14400	 14401	 14402	 14403	 14406	 14407	 14408	 14416#	 14418	 14419	 14420	 14421	 14422
	 14423	 14424	 14425	 14426	 14427	 14428	 14429	 14430	 14432	 14433	 14434	 14435	 14437	 14440
	 14443	 14445	 14446	 14447	 14455#	 14457	 14458	 14459	 14460	 14461	 14462	 14463	 14464	 14465
	 14466	 14467	 14468	 14469	 14471	 14472	 14473	 14474	 14475	 14476	 14478	 14479	 14480	 14481
	 14484	 14485	 14486	 14494#	 14496	 14497	 14498	 14499	 14500	 14501	 14502	 14503	 14504	 14505
	 14506	 14507	 14508	 14510	 14511	 14512	 14513	 14514	 14517	 14518	 14520	 14521	 14522	 14523
	 14526	 14527	 14528	 14536#	 14538	 14539	 14540	 14541	 14542	 14543	 14544	 14545	 14546	 14547
	 14548	 14549	 14550	 14552	 14553	 14554	 14555	 14556	 14558	 14559	 14560	 14561	 14564	 14565
	 14566	 14574#	 14576	 14577	 14578	 14579	 14580	 14581	 14582	 14583	 14584	 14585	 14586	 14587
	 14588	 14590	 14591	 14592	 14593	 14594	 14596	 14597	 14599	 14602	 14604	 14605	 14606	 14614#
	 14616	 14617	 14618	 14619	 14620	 14621	 14622	 14623	 14624	 14625	 14626	 14627	 14628	 14630
	 14631	 14632	 14633	 14634	 14635	 14637	 14638	 14640	 14641	 14642	 14643	 14646	 14647	 14648
	 14656#	 14658	 14659	 14660	 14661	 14662	 14663	 14664	 14665	 14666	 14667	 14668	 14669	 14670
	 14672	 14673	 14674	 14675	 14676	 14678	 14681	 14684	 14686	 14687	 14688	 14696#	 14698	 14699
	 14700	 14701	 14702	 14703	 14704	 14705	 14706	 14707	 14708	 14709	 14710	 14712	 14713	 14714
	 14715	 14716	 14717	 14718	 14719	 14721	 14722	 14723	 14724	 14727	 14728	 14729	 14737#	 14739
	 14740	 14741	 14742	 14743	 14744	 14745	 14746	 14747	 14748	 14749	 14750	 14751	 14753	 14754
	 14755	 14756	 14757	 14758	 14759	 14761	 14762	 14764	 14765	 14766	 14767	 14770	 14771	 14772
	 14780#	 14782	 14783	 14784	 14785	 14786	 14787	 14788	 14789	 14790	 14791	 14792	 14793	 14794
	 14796	 14797	 14798	 14799	 14800	 14802	 14803	 14804	 14805	 14808	 14809	 14810	 14818#	 14820
	 14821	 14822	 14823	 14824	 14825	 14826	 14827	 14828	 14829	 14830	 14831	 14832	 14834	 14835
	 14836	 14837	 14839	 14842	 14845	 14847	 14848	 14849	 14855#	 14857	 14858	 14859	 14860	 14861
	 14862	 14863	 14864	 14865	 14866	 14867	 14868	 14869	 14871	 14872	 14873	 14874	 14875	 14877
	 14878	 14879	 14880	 14883	 14884	 14885	 14893#	 14895	 14896	 14897	 14898	 14899	 14900	 14901
	 14902	 14903	 14904	 14905	 14906	 14907	 14909	 14910	 14911	 14912	 14914	 14917	 14920	 14922
	 14923	 14924	 14932#	 14934	 14935	 14936	 14937	 14938	 14939	 14940	 14941	 14942	 14943	 14944
	 14945	 14946	 14948	 14949	 14950	 14951	 14952	 14953	 14955	 14956	 14957	 14958	 14961	 14962     SEQ 0567
	 14963	 14971#	 14973	 14974	 14975	 14976	 14977	 14978	 14979	 14980	 14981	 14982	 14983	 14984
	 14985	 14987	 14988	 14989	 14990	 14991	 14993	 14995	 14996	 14997	 14998	 15001	 15002	 15003
	 15011#	 15013	 15014	 15015	 15016	 15017	 15018	 15019	 15020	 15021	 15022	 15023	 15024	 15025
	 15027	 15028	 15029	 15030	 15031	 15033	 15034	 15035	 15036	 15039	 15040	 15041	 15049#	 15051
	 15052	 15053	 15054	 15055	 15056	 15057	 15058	 15059	 15060	 15061	 15062	 15063	 15065	 15066
	 15067	 15068	 15069	 15071	 15074	 15077	 15078	 15080	 15082	 15084	 15085	 15086	 15094#	 15096
	 15097	 15098	 15099	 15100	 15101	 15102	 15103	 15104	 15105	 15106	 15107	 15108	 15110	 15111
	 15112	 15113	 15114	 15115	 15119	 15120	 15122	 15123	 15124	 15125	 15128	 15129	 15130	 15138#
	 15140	 15141	 15142	 15143	 15144	 15145	 15146	 15147	 15148	 15149	 15150	 15151	 15152	 15154
	 15155	 15156	 15157	 15158	 15160	 15162	 15165	 15167	 15168	 15169	 15177#	 15179	 15180	 15181
	 15182	 15183	 15184	 15185	 15186	 15187	 15188	 15189	 15190	 15191	 15193	 15194	 15195	 15196
	 15197	 15198	 15199	 15200	 15202	 15203	 15204	 15205	 15207	 15208	 15209	 15210	 15213	 15214
	 15215	 15224#	 15226	 15227	 15228	 15229	 15230	 15231	 15232	 15233	 15234	 15235	 15236	 15237
	 15238	 15241	 15242	 15243	 15244	 15249	 15250	 15251	 15253	 15254	 15255	 15256	 15258	 15259
	 15260	 15261	 15264	 15265	 15266	 15276#	 15278	 15279	 15280	 15281	 15282	 15283	 15284	 15285
	 15286	 15287	 15288	 15289	 15290	 15292	 15293	 15294	 15295	 15296	 15298	 15299	 15301	 15304
	 15305	 15306	 15314#	 15316	 15317	 15318	 15319	 15320	 15321	 15322	 15323	 15324	 15325	 15326
	 15327	 15328	 15330	 15331	 15332	 15333	 15334	 15337	 15339	 15340	 15342	 15345	 15346	 15347
	 15355#	 15357	 15358	 15359	 15360	 15361	 15362	 15363	 15364	 15365	 15366	 15367	 15368	 15369
	 15371	 15372	 15373	 15374	 15375	 15378	 15380	 15381	 15383	 15386	 15387	 15388	 15396#	 15398
	 15399	 15400	 15401	 15402	 15403	 15404	 15405	 15406	 15407	 15408	 15409	 15410	 15412	 15413
	 15414	 15415	 15416	 15417	 15419	 15420	 15422	 15425	 15426	 15427	 15435#	 15437	 15438	 15439
	 15440	 15441	 15442	 15443	 15444	 15445	 15446	 15447	 15448	 15449	 15451	 15452	 15453	 15454
	 15455	 15458	 15460	 15461	 15463	 15466	 15467	 15468	 15476#	 15478	 15479	 15480	 15481	 15482
	 15483	 15484	 15485	 15486	 15487	 15488	 15489	 15490	 15492	 15493	 15494	 15495	 15496	 15498
	 15499	 15504	 15505	 15506	 15514#	 15516	 15517	 15518	 15519	 15520	 15521	 15522	 15523	 15524
	 15525	 15526	 15527	 15528	 15530	 15531	 15532	 15533	 15534	 15537	 15539	 15540	 15542	 15545
	 15546	 15547	 15555#	 15557	 15558	 15559	 15560	 15561	 15562	 15563	 15564	 15565	 15566	 15567
	 15568	 15569	 15571	 15572	 15573	 15574	 15575	 15578	 15579	 15580	 15581	 15583	 15586	 15587
	 15588	 15596#	 15598	 15599	 15600	 15601	 15602	 15603	 15604	 15605	 15606	 15607	 15608	 15609
	 15610	 15612	 15613	 15614	 15615	 15616	 15619	 15621	 15622	 15624	 15627	 15628	 15629	 15637#
	 15639	 15640	 15641	 15642	 15643	 15644	 15645	 15646	 15647	 15648	 15649	 15650	 15651	 15653
	 15654	 15655	 15656	 15657	 15660	 15662	 15663	 15665	 15668	 15669	 15670	 15678#	 15680	 15681
	 15682	 15683	 15684	 15685	 15686	 15687	 15688	 15689	 15690	 15691	 15692	 15694	 15695	 15696
	 15697	 15698	 15700	 15701	 15702	 15704	 15707	 15708	 15709	 15717#	 15719	 15720	 15721	 15722
	 15723	 15724	 15725	 15726	 15727	 15728	 15729	 15730	 15731	 15733	 15734	 15735	 15736	 15737
	 15739	 15741	 15742	 15744	 15747	 15748	 15749	 15757#	 15759	 15760	 15761	 15762	 15763	 15764
	 15765	 15766	 15767	 15768	 15769	 15770	 15771	 15773	 15774	 15775	 15776	 15777	 15781	 15782
	 15784	 15787	 15788	 15789	 15797#	 15799	 15800	 15801	 15802	 15803	 15804	 15805	 15806	 15807
	 15808	 15809	 15810	 15811	 15813	 15814	 15815	 15816	 15817	 15820	 15822	 15823	 15825	 15828
	 15829	 15830	 15838#	 15840	 15841	 15842	 15843	 15844	 15845	 15846	 15847	 15848	 15849	 15850
	 15851	 15852	 15854	 15855	 15856	 15857	 15858	 15861	 15863	 15864	 15866	 15869	 15870	 15871
	 15879#	 15881	 15882	 15883	 15884	 15885	 15886	 15887	 15888	 15889	 15890	 15891	 15892	 15893
	 15895	 15896	 15897	 15898	 15899	 15901	 15902	 15904	 15907	 15908	 15909	 15917#	 15919	 15920
	 15921	 15922	 15923	 15924	 15925	 15926	 15927	 15928	 15929	 15930	 15931	 15933	 15934	 15935
	 15936	 15937	 15938	 15939	 15942	 15943	 15946	 15947	 15948	 15956#	 15958	 15959	 15960	 15961
	 15962	 15963	 15964	 15965	 15966	 15967	 15968	 15969	 15970	 15972	 15973	 15974	 15975	 15977
	 15978	 15979	 15980	 15981	 15984	 15985	 15986	 15994#	 15996	 15997	 15998	 15999	 16000	 16001
	 16002	 16003	 16004	 16005	 16006	 16007	 16008	 16010	 16011	 16012	 16013	 16015	 16016	 16017
	 16020	 16021	 16024	 16025	 16026	 16038#	 16040	 16041	 16042	 16043	 16044	 16045	 16046	 16047
	 16048	 16049	 16050	 16051	 16052	 16054	 16055	 16056	 16057	 16060	 16061	 16063	 16066	 16067
	 16068	 16076#	 16078	 16079	 16080	 16081	 16082	 16083	 16084	 16085	 16086	 16087	 16088	 16089
	 16090	 16092	 16093	 16094	 16095	 16097	 16098	 16099	 16102	 16103	 16106	 16107	 16108	 16116#    SEQ 0568
	 16118	 16119	 16120	 16121	 16122	 16123	 16124	 16125	 16126	 16127	 16128	 16129	 16130	 16132
	 16133	 16134	 16135	 16137	 16138	 16139	 16142	 16143	 16146	 16147	 16148	 16156#	 16158	 16159
	 16160	 16161	 16162	 16163	 16164	 16165	 16166	 16167	 16168	 16169	 16170	 16172	 16173	 16174
	 16175	 16177	 16178	 16179	 16182	 16183	 16186	 16187	 16188	 16197#	 16199	 16200	 16201	 16202
	 16203	 16204	 16205	 16206	 16207	 16208	 16209	 16210	 16211	 16213	 16214	 16215	 16216	 16219
	 16220	 16222	 16225	 16226	 16227	 16235#	 16237	 16238	 16239	 16240	 16241	 16242	 16243	 16244
	 16245	 16246	 16247	 16248	 16249	 16251	 16252	 16253	 16254	 16256	 16257	 16259	 16260	 16261
	 16264	 16265	 16266	 16274#	 16276	 16277	 16278	 16279	 16280	 16281	 16282	 16283	 16284	 16285
	 16286	 16287	 16288	 16290	 16291	 16292	 16293	 16295	 16296	 16298	 16299	 16300	 16303	 16304
	 16305	 16313#	 16315	 16316	 16317	 16318	 16319	 16320	 16321	 16322	 16323	 16324	 16325	 16326
	 16327	 16329	 16330	 16331	 16332	 16334	 16335	 16337	 16338	 16339	 16342	 16343	 16344	 16353#
	 16355	 16356	 16357	 16358	 16359	 16360	 16361	 16362	 16363	 16364	 16365	 16366	 16367	 16369
	 16370	 16371	 16372	 16374	 16375	 16376	 16377	 16379	 16382	 16383	 16384	 16392#	 16394	 16395
	 16396	 16397	 16398	 16399	 16400	 16401	 16402	 16403	 16404	 16405	 16406	 16408	 16409	 16410
	 16411	 16412	 16413	 16414	 16418	 16419	 16422	 16423	 16424	 16432#	 16434	 16435	 16436	 16437
	 16438	 16439	 16440	 16441	 16442	 16443	 16444	 16445	 16446	 16448	 16449	 16450	 16451	 16453
	 16454	 16455	 16457	 16458	 16461	 16462	 16463	 16471#	 16473	 16474	 16475	 16476	 16477	 16478
	 16479	 16480	 16481	 16482	 16483	 16484	 16485	 16487	 16488	 16489	 16490	 16492	 16493	 16494
	 16498	 16499	 16502	 16503	 16504	 16513#	 16515	 16516	 16517	 16518	 16519	 16520	 16521	 16522
	 16523	 16524	 16525	 16526	 16527	 16529	 16530	 16531	 16532	 16534	 16536	 16539	 16540	 16542
	 16545	 16546	 16547	 16555#	 16557	 16558	 16559	 16560	 16561	 16562	 16563	 16564	 16565	 16566
	 16567	 16568	 16569	 16571	 16572	 16573	 16574	 16575	 16576	 16579	 16580	 16583	 16584	 16585
	 16593#	 16595	 16596	 16597	 16598	 16599	 16600	 16601	 16602	 16603	 16604	 16605	 16606	 16607
	 16609	 16610	 16611	 16612	 16614	 16615	 16616	 16617	 16620	 16621	 16622	 16630#	 16632	 16633
	 16634	 16635	 16636	 16637	 16638	 16639	 16640	 16641	 16642	 16643	 16644	 16646	 16647	 16648
	 16649	 16651	 16652	 16655	 16656	 16659	 16660	 16661	 16670#	 16672	 16673	 16674	 16675	 16676
	 16677	 16678	 16679	 16680	 16681	 16682	 16683	 16684	 16686	 16687	 16688	 16689	 16691	 16693
	 16694	 16696	 16699	 16700	 16701	 16709#	 16711	 16712	 16713	 16714	 16715	 16716	 16717	 16718
	 16719	 16720	 16721	 16722	 16723	 16725	 16726	 16727	 16728	 16730	 16731	 16733	 16734	 16737
	 16738	 16739	 16747#	 16749	 16750	 16751	 16752	 16753	 16754	 16755	 16756	 16757	 16758	 16759
	 16760	 16761	 16763	 16764	 16765	 16766	 16768	 16769	 16771	 16772	 16775	 16776	 16777	 16785#
	 16787	 16788	 16789	 16790	 16791	 16792	 16793	 16794	 16795	 16796	 16797	 16798	 16799	 16801
	 16802	 16803	 16804	 16806	 16807	 16809	 16810	 16813	 16814	 16815	 16824#	 16826	 16827	 16828
	 16829	 16830	 16831	 16832	 16833	 16834	 16835	 16836	 16837	 16838	 16840	 16841	 16842	 16843
	 16845	 16846	 16847	 16849	 16852	 16853	 16854	 16862#	 16864	 16865	 16866	 16867	 16868	 16869
	 16870	 16871	 16872	 16873	 16874	 16875	 16876	 16878	 16879	 16880	 16881	 16882	 16883	 16886
	 16887	 16890	 16891	 16892	 16902#	 16904	 16905	 16906	 16907	 16908	 16909	 16910	 16911	 16912
	 16913	 16914	 16915	 16916	 16918	 16919	 16920	 16921	 16923	 16924	 16927	 16928	 16931	 16932
	 16933	 16941#	 16943	 16944	 16945	 16946	 16947	 16948	 16949	 16950	 16951	 16952	 16953	 16954
	 16955	 16957	 16958	 16959	 16960	 16962	 16963	 16966	 16967	 16970	 16971	 16972	 16981#	 16983
	 16984	 16985	 16986	 16987	 16988	 16989	 16990	 16991	 16992	 16993	 16994	 16995	 16997	 16998
	 16999	 17000	 17002	 17004	 17005	 17007	 17010	 17011	 17012	 17020#	 17022	 17023	 17024	 17025
	 17026	 17027	 17028	 17029	 17030	 17031	 17032	 17033	 17034	 17036	 17037	 17038	 17039	 17040
	 17041	 17044	 17045	 17048	 17049	 17050	 17058#	 17060	 17061	 17062	 17063	 17064	 17065	 17066
	 17067	 17068	 17069	 17070	 17071	 17072	 17074	 17075	 17076	 17077	 17079	 17080	 17083	 17084
	 17087	 17088	 17089	 17097#	 17099	 17100	 17101	 17102	 17103	 17104	 17105	 17106	 17107	 17108
	 17109	 17110	 17111	 17113	 17114	 17115	 17116	 17118	 17119	 17122	 17123	 17126	 17127	 17128
	 17137#	 17139	 17140	 17141	 17142	 17143	 17144	 17145	 17146	 17147	 17148	 17149	 17150	 17151
	 17153	 17154	 17155	 17156	 17158	 17160	 17161	 17163	 17166	 17167	 17168	 17176#	 17178	 17179
	 17180	 17181	 17182	 17183	 17184	 17185	 17186	 17187	 17188	 17189	 17190	 17192	 17193	 17194
	 17195	 17197	 17198	 17201	 17202	 17205	 17206	 17207	 17215#	 17217	 17218	 17219	 17220	 17221
	 17222	 17223	 17224	 17225	 17226	 17227	 17228	 17229	 17231	 17232	 17233	 17234	 17236	 17237
	 17240	 17241	 17244	 17245	 17246	 17254#	 17256	 17257	 17258	 17259	 17260	 17261	 17262	 17263     SEQ 0569
	 17264	 17265	 17266	 17267	 17268	 17270	 17271	 17272	 17273	 17275	 17276	 17279	 17280	 17283
	 17284	 17285	 17293#	 17295	 17296	 17297	 17298	 17299	 17300	 17301	 17302	 17303	 17304	 17305
	 17306	 17307	 17309	 17310	 17311	 17312	 17314	 17316	 17317	 17319	 17322	 17323	 17324	 17332#
	 17334	 17335	 17336	 17337	 17338	 17339	 17340	 17341	 17342	 17343	 17344	 17345	 17346	 17348
	 17349	 17350	 17351	 17353	 17354	 17359	 17360	 17363	 17364	 17365	 17373#	 17375	 17376	 17377
	 17378	 17379	 17380	 17381	 17382	 17383	 17384	 17385	 17386	 17387	 17389	 17390	 17391	 17392
	 17394	 17395	 17396	 17397	 17400	 17401	 17402	 17410#	 17412	 17413	 17414	 17415	 17416	 17417
	 17418	 17419	 17420	 17421	 17422	 17423	 17424	 17426	 17427	 17428	 17429	 17431	 17432	 17437
	 17438	 17441	 17442	 17443	 17451#	 17453	 17454	 17455	 17456	 17457	 17458	 17459	 17460	 17461
	 17462	 17463	 17464	 17465	 17467	 17468	 17469	 17470	 17472	 17474	 17476	 17477	 17479	 17482
	 17483	 17484	 17492#	 17494	 17495	 17496	 17497	 17498	 17499	 17500	 17501	 17502	 17503	 17504
	 17505	 17506	 17508	 17509	 17510	 17511	 17513	 17514	 17519	 17520	 17523	 17524	 17525	 17533#
	 17535	 17536	 17537	 17538	 17539	 17540	 17541	 17542	 17543	 17544	 17545	 17546	 17547	 17549
	 17550	 17551	 17552	 17554	 17555	 17560	 17561	 17564	 17565	 17566	 17574#	 17576	 17577	 17578
	 17579	 17580	 17581	 17582	 17583	 17584	 17585	 17586	 17587	 17588	 17590	 17591	 17592	 17593
	 17595	 17596	 17601	 17602	 17605	 17606	 17607	 17615#	 17617	 17618	 17619	 17620	 17621	 17622
	 17623	 17624	 17625	 17626	 17627	 17628	 17629	 17631	 17632	 17633	 17634	 17636	 17638	 17640
	 17641	 17643	 17646	 17647	 17648	 17656#	 17658	 17659	 17660	 17661	 17662	 17663	 17664	 17665
	 17666	 17667	 17668	 17669	 17670	 17672	 17673	 17674	 17675	 17677	 17678	 17680	 17681	 17684
	 17685	 17686	 17694#	 17696	 17697	 17698	 17699	 17700	 17701	 17702	 17703	 17704	 17705	 17706
	 17707	 17708	 17710	 17711	 17712	 17713	 17715	 17716	 17718	 17719	 17722	 17723	 17724	 17732#
	 17734	 17735	 17736	 17737	 17738	 17739	 17740	 17741	 17742	 17743	 17744	 17745	 17746	 17748
	 17749	 17750	 17751	 17753	 17754	 17756	 17757	 17760	 17761	 17762	 17770#	 17772	 17773	 17774
	 17775	 17776	 17777	 17778	 17779	 17780	 17781	 17782	 17783	 17784	 17786	 17787	 17788	 17789
	 17793	 17794	 17796	 17799	 17800	 17801	 17809#	 17811	 17812	 17813	 17814	 17815	 17816	 17817
	 17818	 17819	 17820	 17821	 17822	 17823	 17825	 17826	 17827	 17828	 17829	 17830	 17833	 17834
	 17837	 17838	 17839	 17847#	 17849	 17850	 17851	 17852	 17853	 17854	 17855	 17856	 17857	 17858
	 17859	 17860	 17861	 17863	 17864	 17865	 17866	 17868	 17869	 17870	 17871	 17874	 17875	 17876
	 17884#	 17886	 17887	 17888	 17889	 17890	 17891	 17892	 17893	 17894	 17895	 17896	 17897	 17898
	 17900	 17901	 17902	 17903	 17905	 17906	 17909	 17910	 17913	 17914	 17915	 17923#	 17925	 17926
	 17927	 17928	 17929	 17930	 17931	 17932	 17933	 17934	 17935	 17936	 17937	 17939	 17940	 17941
	 17942	 17944	 17946	 17947	 17949	 17952	 17953	 17954	 17962#	 17964	 17965	 17966	 17967	 17968
	 17969	 17970	 17971	 17972	 17973	 17974	 17975	 17976	 17978	 17979	 17980	 17981	 17982	 17983
	 17986	 17987	 17990	 17991	 17992	 18000#	 18002	 18003	 18004	 18005	 18006	 18007	 18008	 18009
	 18010	 18011	 18012	 18013	 18014	 18016	 18017	 18018	 18019	 18021	 18022	 18024	 18025	 18028
	 18029	 18030	 18038#	 18040	 18041	 18042	 18043	 18044	 18045	 18046	 18047	 18048	 18049	 18050
	 18051	 18052	 18054	 18055	 18056	 18057	 18059	 18060	 18063	 18064	 18067	 18068	 18069	 18077#
	 18079	 18080	 18081	 18082	 18083	 18084	 18085	 18086	 18087	 18088	 18089	 18090	 18091	 18093
	 18094	 18095	 18096	 18098	 18100	 18101	 18103	 18106	 18107	 18108	 18116#	 18118	 18119	 18120
	 18121	 18122	 18123	 18124	 18125	 18126	 18127	 18128	 18129	 18130	 18132	 18133	 18134	 18135
	 18137	 18138	 18143	 18144	 18147	 18148	 18149	 18157#	 18159	 18160	 18161	 18162	 18163	 18164
	 18165	 18166	 18167	 18168	 18169	 18170	 18171	 18173	 18174	 18175	 18176	 18178	 18179	 18184
	 18185	 18188	 18189	 18190	 18198#	 18200	 18201	 18202	 18203	 18204	 18205	 18206	 18207	 18208
	 18209	 18210	 18211	 18212	 18214	 18215	 18216	 18217	 18219	 18220	 18225	 18226	 18229	 18230
	 18231	 18239#	 18241	 18242	 18243	 18244	 18245	 18246	 18247	 18248	 18249	 18250	 18251	 18252
	 18253	 18255	 18256	 18257	 18258	 18260	 18262	 18264	 18265	 18267	 18270	 18271	 18272	 18280#
	 18282	 18283	 18284	 18285	 18286	 18287	 18288	 18289	 18290	 18291	 18292	 18293	 18294	 18296
	 18297	 18298	 18299	 18301	 18302	 18307	 18308	 18311	 18312	 18313	 18321#	 18323	 18324	 18325
	 18326	 18327	 18328	 18329	 18330	 18331	 18332	 18333	 18334	 18335	 18337	 18338	 18339	 18340
	 18342	 18343	 18344	 18345	 18348	 18349	 18350	 18358#	 18360	 18361	 18362	 18363	 18364	 18365
	 18366	 18367	 18368	 18369	 18370	 18371	 18372	 18374	 18375	 18376	 18377	 18379	 18380	 18385
	 18386	 18389	 18390	 18391	 18399#	 18401	 18402	 18403	 18404	 18405	 18406	 18407	 18408	 18409
	 18410	 18411	 18412	 18413	 18415	 18416	 18417	 18418	 18420	 18422	 18424	 18425	 18427	 18430     SEQ 0570
	 18431	 18432	 18455#	 18457	 18458	 18459	 18460	 18461	 18462	 18463	 18464	 18465	 18466	 18467
	 18468	 18469	 18471	 18472	 18473	 18474	 18475	 18479	 18490	 18491	 18494	 18495	 18496	 18502#
	 18504	 18505	 18506	 18507	 18508	 18509	 18510	 18511	 18512	 18513	 18514	 18515	 18516	 18518
	 18519	 18520	 18521	 18523	 18527	 18538	 18539	 18542	 18543	 18544	 18552#	 18554	 18555	 18556
	 18557	 18558	 18559	 18560	 18561	 18562	 18563	 18564	 18565	 18566	 18568	 18569	 18570	 18571
	 18573	 18577	 18588	 18589	 18592	 18593	 18594	 18600#	 18602	 18603	 18604	 18605	 18606	 18607
	 18608	 18609	 18610	 18611	 18612	 18613	 18614	 18616	 18617	 18618	 18619	 18620	 18625	 18636
	 18637	 18639	 18642	 18643	 18644	 18652#	 18654	 18655	 18656	 18657	 18658	 18659	 18660	 18661
	 18662	 18663	 18664	 18665	 18666	 18668	 18669	 18670	 18671	 18672	 18676	 18687	 18688	 18691
	 18692	 18693	 18701#	 18703	 18704	 18705	 18706	 18707	 18708	 18709	 18710	 18711	 18712	 18713
	 18714	 18715	 18717	 18718	 18719	 18720	 18721	 18726	 18737	 18741	 18742	 18743	 18751#	 18753
	 18754	 18755	 18756	 18757	 18758	 18759	 18760	 18761	 18762	 18763	 18764	 18765	 18767	 18768
	 18769	 18770	 18772	 18776	 18787	 18788	 18791	 18792	 18793	 18799#	 18801	 18802	 18803	 18804
	 18805	 18806	 18807	 18808	 18809	 18810	 18811	 18812	 18813	 18815	 18816	 18817	 18818	 18819
	 18824	 18835	 18836	 18838	 18841	 18842	 18843	 18851#	 18853	 18854	 18855	 18856	 18857	 18858
	 18859	 18860	 18861	 18862	 18863	 18864	 18865	 18867	 18868	 18869	 18870	 18871	 18875	 18876
	 18879	 18880	 18881	 18891#	 18893	 18894	 18895	 18896	 18897	 18898	 18899	 18900	 18901	 18902
	 18903	 18904	 18905	 18907	 18908	 18909	 18910	 18911	 18915	 18916	 18919	 18920	 18921	 18932#
	 18934	 18935	 18936	 18937	 18938	 18939	 18940	 18941	 18942	 18943	 18944	 18945	 18946	 18948
	 18949	 18950	 18951	 18952	 18953	 18954	 18956	 18957	 18958	 18959	 18962	 18963	 18964	 18975#
	 18977	 18978	 18979	 18980	 18981	 18982	 18983	 18984	 18985	 18986	 18987	 18988	 18989	 18991
	 18992	 18993	 18994	 18995	 18996	 18997	 18998	 19000	 19001	 19002	 19003	 19006	 19007	 19008
	 19019#	 19021	 19022	 19023	 19024	 19025	 19026	 19027	 19028	 19029	 19030	 19031	 19032	 19033
	 19034	 19035	 19036	 19037	 19038	 19039	 19040	 19046#	 19048	 19049	 19050	 19051	 19052	 19053
	 19054	 19055	 19056	 19057	 19058	 19059	 19060	 19061	 19062	 19063	 19064	 19065	 19066	 19070#
	 19077	 19078	 19079	 19080	 19081	 19082	 19187#	 19188	 19189	 19190	 19191	 19205	 19219#	 19221
	 19222	 19223	 19224	 19225	 19226	 19227	 19228	 19233	 19234	 19238	 19239	 19240	 19241	 19242
	 19243	 19247	 19256#	 19258	 19259	 19260	 19261	 19262	 19263	 19264	 19265	 19270	 19271	 19275
	 19276	 19277	 19278	 19279	 19283	 19293#	 19295	 19296	 19297	 19298	 19299	 19300	 19301	 19302
	 19307	 19308	 19312	 19313	 19314	 19315	 19316	 19317	 19321	 19330#	 19332	 19333	 19334	 19335
	 19336	 19337	 19338	 19339	 19344	 19345	 19350	 19351	 19352	 19353	 19354	 19358	 19367#	 19369
	 19370	 19371	 19372	 19373	 19374	 19375	 19376	 19381	 19382	 19387	 19388	 19389	 19390	 19391
	 19395	 19404#	 19406	 19407	 19408	 19409	 19410	 19411	 19412	 19413	 19418	 19419	 19424	 19425
	 19426	 19427	 19428	 19429	 19433	 19442#	 19444	 19445	 19446	 19447	 19448	 19449	 19450	 19451
	 19456	 19457	 19462	 19463	 19464	 19465	 19466	 19470	 19479#	 19481	 19482	 19483	 19484	 19485
	 19486	 19487	 19488	 19493	 19494	 19499	 19500	 19501	 19502	 19503	 19507	 19516#	 19518	 19519
	 19520	 19521	 19522	 19523	 19524	 19525	 19530	 19531	 19536	 19537	 19538	 19539	 19540	 19544
	 19553#	 19555	 19556	 19557	 19558	 19559	 19560	 19561	 19562	 19567	 19568	 19573	 19574	 19575
	 19576	 19580	 19589#	 19591	 19592	 19593	 19594	 19595	 19596	 19597	 19598	 19603	 19604	 19610
	 19611	 19618	 19619	 19620	 19621	 19625	 19634#	 19636	 19637	 19638	 19639	 19640	 19641	 19642
	 19643	 19648	 19649	 19654	 19656	 19657	 19661	 19663	 19664	 19668	 19677#	 19679	 19680	 19681
	 19682	 19683	 19684	 19685	 19686	 19691	 19692	 19697	 19699	 19700	 19704	 19706	 19707	 19711
	 19720#	 19722	 19723	 19724	 19725	 19726	 19727	 19728	 19729	 19734	 19735	 19739	 19740	 19742
	 19744	 19745	 19749	 19750	 19751	 19753	 19754	 19758	 19767#	 19769	 19770	 19771	 19772	 19773
	 19774	 19775	 19776	 19781	 19782	 19786	 19787	 19789	 19791	 19792	 19796	 19797	 19799	 19801
	 19802	 19806	 19815#	 19817	 19818	 19819	 19820	 19821	 19822	 19823	 19824	 19829	 19830	 19834
	 19836	 19840	 19841	 19845	 19848	 19852	 19853	 19857	 19866#	 19868	 19869	 19870	 19871	 19872
	 19873	 19874	 19875	 19880	 19881	 19885	 19887	 19888	 19892	 19894	 19897	 19898	 19901	 19902
	 19906	 19908	 19911	 19920#	 19922	 19923	 19924	 19925	 19926	 19927	 19928	 19929	 19934	 19935
	 19939	 19940	 19941	 19943	 19944	 19949	 19952	 19954	 19963#	 19965	 19966	 19967	 19968	 19969
	 19970	 19971	 19972	 19977	 19978	 19982	 19983	 19984	 19986	 19987	 19992	 19995	 19997	 20006#
	 20008	 20009	 20010	 20011	 20012	 20013	 20014	 20015	 20020	 20021	 20025	 20026	 20027	 20029
	 20030	 20035	 20038	 20040	 20049#	 20051	 20052	 20053	 20054	 20055	 20056	 20057	 20058	 20063     SEQ 0571
	 20064	 20068	 20069	 20070	 20072	 20073	 20078	 20081	 20083	 20091#	 20093	 20094	 20095	 20096
	 20097	 20098	 20099	 20100	 20105	 20106	 20110	 20111	 20112	 20117	 20118	 20123	 20124	 20128
	 20129	 20133	 20134	 20138	 20147#	 20149	 20150	 20151	 20152	 20153	 20154	 20155	 20156	 20161
	 20162	 20166	 20167	 20168	 20169	 20171	 20173	 20174	 20175	 20176	 20178	 20179	 20180	 20181
	 20183	 20192#	 20194	 20195	 20196	 20197	 20198	 20199	 20200	 20201	 20206	 20207	 20211	 20213
	 20214	 20215	 20216	 20221	 20222	 20226	 20235#	 20237	 20238	 20239	 20240	 20241	 20242	 20243
	 20244	 20249	 20250	 20254	 20256	 20262	 20263	 20266	 20269	 20282#	 20284	 20285	 20286	 20287
	 20288	 20289	 20290	 20291	 20292	 20293	 20294	 20295	 20296	 20297	 20299	 20300	 20301	 20311
	 20316	 20326#	 20328	 20329	 20330	 20331	 20332	 20333	 20334	 20335	 20336	 20337	 20338	 20339
	 20340	 20341	 20342	 20343	 20344	 20345	 20352	 20353	 20354	 20355	 20357	 20361	 20370#	 20372
	 20373	 20374	 20375	 20376	 20377	 20378	 20379	 20380	 20381	 20382	 20383	 20384	 20385	 20387
	 20388	 20389	 20393	 20394	 20395	 20400	 20405	 20416#	 20418	 20419	 20420	 20421	 20422	 20423
	 20424	 20425	 20426	 20427	 20428	 20429	 20430	 20431	 20433	 20434	 20435	 20444	 20446	 20448
	 20452	 20457	 20467#	 20469	 20470	 20471	 20472	 20473	 20474	 20475	 20476	 20477	 20478	 20479
	 20480	 20481	 20482	 20484	 20485	 20486	 20491	 20492	 20493	 20494	 20498	 20499	 20504	 20509
	 20521#	 20523	 20524	 20525	 20526	 20527	 20528	 20529	 20530	 20531	 20532	 20533	 20534	 20535
	 20536	 20538	 20539	 20540	 20545	 20546	 20547	 20548	 20553	 20559	 20564	 20574#	 20576	 20577
	 20578	 20579	 20580	 20581	 20582	 20583	 20584	 20585	 20586	 20587	 20588	 20589	 20591	 20592
	 20593	 20596	 20597	 20598	 20599	 20604	 20608	 20619#	 20621	 20622	 20623	 20624	 20625	 20626
	 20627	 20628	 20629	 20630	 20631	 20632	 20633	 20634	 20635	 20636	 20637	 20638	 20643	 20644
	 20645	 20646	 20647	 20648	 20649	 20651	 20653	 20658	 20669#	 20671	 20672	 20673	 20674	 20675
	 20676	 20677	 20678	 20679	 20680	 20681	 20682	 20683	 20699	 20700	 20706#	 20708	 20709	 20710
	 20711	 20712	 20713	 20714	 20715	 20716	 20717	 20718	 20719	 20720	 20733	 20734	 20737	 20738
	 20862#	 20864	 20865	 20866	 20867	 20868	 20869	 20870	 20871	 20872	 20873	 20874	 20875	 20876
	 20878	 20879	 20880	 20881	 20882	 20884	 20885	 20887	 20888	 20889	 20898#	 20900	 20901	 20902
	 20903	 20904	 20905	 20906	 20907	 20908	 20909	 20910	 20911	 20912	 20914	 20915	 20916	 20917
	 20918	 20919	 20921	 20922	 20924	 20925	 20927	 20928	 20929	 20935#	 20937	 20938	 20939	 20940
	 20941	 20942	 20943	 20944	 20945	 20946	 20947	 20948	 20949	 20951	 20952	 20953	 20954	 20956
	 20957	 20958	 20960	 20961	 20962	 20969#	 20971	 20972	 20973	 20974	 20975	 20976	 20977	 20978
	 20979	 20980	 20981	 20982	 20983	 20985	 20986	 20987	 20988	 20989	 20990	 20991	 20994	 20995
	 20998	 20999	 21001	 21002	 21003	 21023#	 21029	 21030	 21031	 21032	 21033	 21034	 21035	 21036
	 21037	 21038	 21039	 21040	 21041	 21043	 21044	 21045	 21046	 21047	 21048	 21049	 21051	 21052
	 21053	 21054	 21059	 21066	 21069	 21070	 21073	 21076	 21077	 21078	 21079	 21080	 21095	 21096
	 21097	 21098	 21104	 21105	 21106	 21118#	 21123	 21124	 21125	 21126	 21127	 21128	 21129	 21130
	 21131	 21132	 21133	 21134	 21135	 21137	 21138	 21139	 21140	 21141	 21142	 21143	 21144	 21145
	 21146	 21148	 21153	 21154	 21156	 21157	 21158	 21159	 21160	 21166	 21167	 21168	 21174	 21175
	 21176	 21183#	 21185	 21186	 21187	 21188	 21189	 21190	 21191	 21192	 21193	 21194	 21195	 21196
	 21197	 21198	 21200	 21201	 21202	 21204	 21207	 21208	 21215	 21216	 21217	 21218	 21220	 21226#
	 21228	 21229	 21230	 21231	 21232	 21233	 21234	 21235	 21236	 21237	 21238	 21239	 21240	 21241
	 21243	 21244	 21245	 21247	 21249	 21250	 21256	 21258	 21259	 21261
AC1	   805#	   904#	  1012#	  1040	  1041	  1042	  1046#	  1048	  1049	  1050	  1054#	  1056	  1057	  1058
	  1062#	  1064	  1065	  1066	  1070#	  1072	  1073	  1074	  1078#	  1080	  1081	  1082	  1086#	  1088
	  1089	  1090	  1094#	  1096	  1097	  1098	  1102#	  1116#	  1147	  1151	  1152	  1156#	  1158	  1162
	  1163	  1167#	  1169	  1173	  1174	  1178#	  1180	  1184	  1185	  1189#	  1191	  1195	  1196	  1200#
	  1202	  1206	  1207	  1211#	  1213	  1217	  1218	  1222#	  1224	  1228	  1229	  1233#	  1248#	  1266
	  1267	  1270	  1300#	  1337#	  1380#	  1407	  1408	  1409	  1410	  1411	  1413#	  1415	  1416	  1417
	  1418	  1419	  1421#	  1423	  1424	  1425	  1426	  1427	  1429#	  1431	  1432	  1433	  1434	  1435
	  1437#	  1473#	  1513#	  1553#	  1600#	  1696#	  1735#	  1778#	  1817#	  1857#	  1882	  1883	  1884	  1886#
	  1888	  1889	  1890	  1892#	  1905#	  1923	  1924	  1939#	  1982#	  2023#	  2063#	  2107#	  2149#	  2167
	  2168	  2171	  2173	  2174	  2175	  2176	  2190#	  2208	  2209	  2213	  2214	  2215	  2231#	  2249
	  2251	  2253	  2254	  2256	  2257	  2258	  2274#	  2292	  2295	  2297	  2298	  2299	  2315#	  2334
	  2336	  2338	  2340	  2341	  2342	  2358#	  2376	  2377	  2379	  2380	  2381	  2398#	  2416	  2418
	  2419	  2421	  2423	  2424	  2425	  2442#	  2461	  2463	  2465	  2466	  2467	  2483#	  2502	  2503     SEQ 0572
	  2506	  2508	  2509	  2510	  2526#	  2544	  2545	  2548	  2549	  2550	  2566#	  2584	  2585	  2589
	  2590	  2591	  2592	  2593	  2594	  2595	  2596	  2597	  2598	  2613#	  2631	  2632	  2633	  2634
	  2635	  2649#	  2667	  2668	  2670	  2671	  2672	  2673	  2674	  2686#	  2704	  2705	  2706	  2707
	  2721#	  2739	  2740	  2744	  2745	  2746	  2747	  2748	  2749	  2750	  2751	  2752	  2753	  2767#
	  2786	  2787	  2790	  2804#	  2822	  2834	  2848#	  2866	  2878	  2893#	  2911	  2919	  2933#	  2951
	  2959	  2974#	  3005	  3010	  3015#	  3018	  3023	  3028#	  3031	  3036	  3041#	  3044	  3049	  3054#
	  3057	  3062	  3067#	  3070	  3075	  3080#	  3083	  3088	  3093#	  3096	  3101	  3106#	  3109	  3114
	  3119#	  3122	  3127	  3132#	  3147#	  3178	  3183	  3188#	  3191	  3196	  3201#	  3204	  3209	  3214#
	  3217	  3222	  3227#	  3230	  3235	  3240#	  3243	  3248	  3253#	  3256	  3261	  3266#	  3269	  3274
	  3279#	  3282	  3287	  3292#	  3295	  3300	  3305#	  3321#	  3343	  3349	  3350	  3365#	  3405	  3412
	  3413	  3415#	  3421	  3428	  3429	  3431#	  3437	  3444	  3445	  3447#	  3453	  3460	  3461	  3463#
	  3469	  3476	  3477	  3479#	  3485	  3492	  3493	  3495#	  3501	  3508	  3509	  3511#	  3517	  3524
	  3525	  3527#	  3533	  3540	  3541	  3543#	  3549	  3556	  3557	  3559#	  3574#	  3610#	  3648#	  3669
	  3670	  3671	  3672	  3673	  3674	  3677	  3678	  3690#	  3711	  3712	  3713	  3714	  3715	  3716
	  3717	  3718	  3731#	  3771#	  3803#	  3824	  3825	  3826	  3827	  3828	  3829	  3842#	  3884#	  3905
	  3906	  3907	  3918#	  3936	  3941	  3942	  3953#	  3971	  3977	  3989#	  4035#	  4064#	  4091#	  4123#
	  4161#	  4179	  4180	  4195#	  4240#	  4259	  4260	  4261	  4274#	  4293	  4294	  4308#	  4326	  4327
	  4328	  4342#	  4374#	  4392	  4394	  4395	  4408#	  4426	  4427	  4429	  4430	  4431	  4444#	  4462
	  4463	  4464	  4479#	  4497	  4498	  4499	  4501	  4514#	  4532	  4533	  4534	  4535	  4550#	  4568
	  4571	  4572	  4573	  4587#	  4605	  4607	  4608	  4621#	  4639	  4640	  4654#	  4672	  4674	  4687#
	  4706	  4707	  4708	  4723#	  4741	  4742	  4743	  4758#	  4790#	  4808	  4810	  4811	  4824#	  4843
	  4844	  4846	  4860#	  4878	  4879	  4880	  4896#	  4914	  4916	  4917	  4919	  4933#	  4951	  4952
	  4953	  4969#	  4989	  4990	  4991	  4993	  5005#	  5045#	  5065	  5066	  5067	  5069	  5083#	  5102
	  5106	  5107	  5108	  5109	  5110	  5111	  5127#	  5146	  5150	  5151	  5152	  5153	  5154	  5155
	  5156	  5173#	  5217#	  5236	  5237	  5238	  5239	  5240	  5242	  5256#	  5274	  5276	  5277	  5278
	  5290#	  5309	  5315	  5318	  5331#	  5350	  5352	  5353	  5354	  5356	  5357	  5359	  5372#	  5391
	  5395	  5396	  5397	  5398	  5399	  5400	  5401	  5402	  5414#	  5432	  5433	  5436	  5439	  5451#
	  5469	  5470	  5472	  5473	  5474	  5475	  5488#	  5506	  5507	  5510	  5513	  5525#	  5544	  5545
	  5547	  5548	  5549	  5550	  5563#	  5582	  5583	  5586	  5589	  5601#	  5620	  5621	  5624	  5627
	  5639#	  5657	  5658	  5661	  5664	  5676#	  5694	  5695	  5698	  5701	  5702	  5703	  5715#	  5753#
	  5771	  5772	  5775	  5777	  5779	  5782	  5794#	  5807	  5813	  5814	  5816	  5819	  5822	  5835#
	  5848	  5854	  5855	  5858	  5859	  5861	  5862	  5863	  5866	  5879#	  5892	  5898	  5899	  5900
	  5901	  5902	  5904	  5905	  5906	  5907	  5922#	  5935	  5941	  5942	  5943	  5944	  5945	  5947
	  5948	  5949	  5950	  5952	  5964#	  5982	  5983	  5985	  5987	  5990	  6002#	  6038#	  6056	  6058
	  6060	  6062	  6064	  6067	  6080#	  6093	  6099	  6100	  6102	  6105	  6108	  6121#	  6134	  6140
	  6141	  6144	  6145	  6148	  6150	  6152	  6165#	  6178	  6184	  6185	  6186	  6187	  6190	  6191
	  6192	  6193	  6195	  6196	  6197	  6199	  6212#	  6225	  6231	  6232	  6233	  6234	  6235	  6237
	  6238	  6239	  6240	  6242	  6254#	  6272	  6273	  6275	  6277	  6279	  6291#	  6309	  6310	  6313
	  6317	  6329#	  6347	  6348	  6349	  6350	  6363#	  6381	  6382	  6385	  6388	  6400#	  6419	  6421
	  6422	  6435#	  6456	  6457	  6460	  6475#	  6494	  6495	  6496	  6509#	  6527	  6528	  6529	  6530
	  6531	  6546#	  6564	  6565	  6566	  6579#	  6598	  6600	  6601	  6602	  6619#	  6655#	  6673	  6674
	  6675	  6676	  6692#	  6705	  6711	  6712	  6714	  6717	  6720	  6721	  6723	  6725	  6740#	  6753
	  6759	  6760	  6762	  6765	  6768	  6769	  6771	  6773	  6788#	  6801	  6807	  6808	  6809	  6810
	  6812	  6814	  6815	  6816	  6817	  6819	  6820	  6821	  6822	  6837#	  6850	  6856	  6857	  6858
	  6859	  6861	  6862	  6863	  6865	  6866	  6867	  6868	  6870	  6885#	  6898	  6904	  6905	  6907
	  6910	  6913	  6927#	  6940	  6946	  6947	  6949	  6952	  6955	  6970#	  6983	  6989	  6990	  6991
	  6992	  6993	  6995	  6996	  6997	  6998	  7015#	  7028	  7034	  7035	  7036	  7037	  7038	  7040
	  7041	  7042	  7043	  7058#	  7076	  7079	  7080	  7096#	  7114	  7115	  7117	  7131#	  7150	  7151
	  7153	  7169#	  7187	  7188	  7191	  7194	  7210#	  7228	  7229	  7232	  7249#	  7267	  7269	  7270
	  7272	  7273	  7274	  7275	  7290#	  7311	  7312	  7315	  7332#	  7351	  7352	  7354	  7355	  7356
	  7357	  7359	  7360	  7361	  7362	  7363	  7379#	  7398	  7399	  7400	  7401	  7404	  7407	  7408
	  7410	  7412	  7427#	  7446	  7452	  7455	  7458	  7472#	  7490	  7493	  7495	  7496	  7497	  7498
	  7513#	  7531	  7532	  7535	  7538	  7553#	  7571	  7572	  7575	  7578	  7592#	  7610	  7611	  7614     SEQ 0573
	  7617	  7620	  7634#	  7652	  7653	  7656	  7673#	  7692	  7694	  7696	  7697	  7698	  7699	  7701
	  7702	  7703	  7704	  7705	  7720#	  7739	  7740	  7744	  7761#	  7780	  7781	  7783	  7784	  7785
	  7786	  7801#	  7819	  7820	  7821	  7823	  7825	  7828	  7842#	  7861	  7862	  7865	  7868	  7882#
	  7900	  7901	  7904	  7907	  7921#	  7939	  7940	  7942	  7943	  7944	  7945	  7961#	  7979	  7980
	  7983	  7986	  8000#	  8018	  8024	  8027	  8030	  8044#	  8062	  8063	  8066	  8069	  8083#	  8101
	  8102	  8104	  8105	  8106	  8107	  8122#	  8141	  8142	  8144	  8146	  8149	  8163#	  8182	  8184
	  8185	  8186	  8188	  8189	  8190	  8191	  8206#	  8224	  8225	  8226	  8228	  8229	  8232	  8246#
	  8265	  8266	  8268	  8270	  8273	  8287#	  8305	  8306	  8309	  8312	  8326#	  8344	  8345	  8347
	  8348	  8350	  8365#	  8383	  8384	  8387	  8390	  8405#	  8423	  8424	  8427	  8430	  8444#	  8462
	  8463	  8466	  8469	  8483#	  8501	  8502	  8504	  8505	  8506	  8507	  8522#	  8541	  8542	  8545
	  8548	  8562#	  8581	  8582	  8584	  8585	  8586	  8587	  8602#	  8621	  8622	  8623	  8626	  8629
	  8643#	  8664	  8665	  8668	  8671	  8686#	  8705	  8706	  8707	  8714	  8729#	  8742	  8748	  8749
	  8750	  8751	  8752	  8753	  8754	  8774#	  8792	  8793	  8794	  8795	  8796	  8798	  8816#	  8829
	  8835	  8836	  8837	  8838	  8839	  8840	  8841	  8843	  8861#	  8882	  8883	  8884	  8888	  8904#
	  8925	  8926	  8927	  8931	  8934	  8935	  8939	  8953#	  8973	  8975	  8976	  8980	  8983	  8984
	  8988	  9004#	  9023	  9026	  9027	  9029	  9048#	  9085#	  9120#	  9152#	  9190#	  9226#	  9249	  9253
	  9254	  9268#	  9291	  9295	  9296	  9313#	  9354#	  9374	  9377	  9378	  9382	  9388	  9390	  9392
	  9395	  9397	  9399	  9414#	  9432	  9433	  9434	  9438	  9457#	  9475	  9476	  9477	  9478	  9479
	  9480	  9482	  9500#	  9522	  9523	  9524	  9525	  9526	  9544#	  9567	  9568	  9569	  9570	  9571
	  9589#	  9607	  9610	  9611	  9612	  9613	  9631#	  9645	  9646	  9647	  9648	  9649	  9664#	  9682
	  9683	  9687	  9702#	  9717	  9718	  9725	  9726	  9740#	  9773#	  9793	  9794	  9798	  9813#	  9834
	  9835	  9839	  9854#	  9887#	  9919#	  9937	  9940	  9941	  9942	  9943	  9961#	  9978	  9981	  9982
	  9983	  9984	 10004#	 10022	 10023	 10024	 10025	 10026	 10027	 10029	 10047#	 10062	 10063	 10064
	 10065	 10066	 10082#	 10103	 10106	 10107	 10108	 10109	 10127#	 10147	 10150	 10151	 10152	 10153
	 10171#	 10186	 10187	 10188	 10189	 10190	 10206#	 10221	 10222	 10223	 10224	 10225	 10240#	 10258
	 10259	 10263	 10278#	 10296	 10297	 10301	 10316#	 10347#	 10367	 10374	 10388#	 10407	 10414	 10428#
	 10459#	 10491#	 10509	 10510	 10511	 10512	 10513	 10530#	 10567#	 10580	 10586	 10587	 10588	 10589
	 10590	 10594	 10609#	 10628	 10629	 10632	 10633	 10634	 10638	 10653#	 10672	 10673	 10676	 10677
	 10678	 10682	 10697#	 10716	 10717	 10720	 10721	 10722	 10723	 10724	 10741#	 10777#	 10813#	 10831
	 10835	 10836	 10839	 10853#	 10871	 10875	 10876	 10879	 10893#	 10911	 10914	 10915	 10918	 10933#
	 10947	 10950	 10952	 10954	 10955	 10956	 10957	 10958	 10975#	 10989	 10992	 10995	 10997	 10998
	 11001	 11016#	 11034	 11035	 11037	 11038	 11041	 11053#	 11071	 11072	 11074	 11075	 11078	 11091#
	 11105	 11108	 11112	 11113	 11116	 11131#	 11145	 11148	 11150	 11151	 11152	 11153	 11154	 11155
	 11168#	 11188	 11189	 11190	 11192	 11207#	 11227	 11228	 11229	 11230	 11231	 11246#	 11266	 11268
	 11283#	 11303	 11304	 11305	 11307	 11322#	 11358#	 11378	 11379	 11380	 11382	 11397#	 11417	 11418
	 11419	 11421	 11436#	 11456	 11457	 11458	 11460	 11475#	 11495	 11496	 11497	 11499	 11514#	 11534
	 11536	 11551#	 11571	 11572	 11573	 11574	 11576	 11591#	 11611	 11612	 11614	 11629#	 11649	 11650
	 11651	 11653	 11668#	 11688	 11689	 11690	 11691	 11693	 11708#	 11744#	 11782#	 11800	 11801	 11803
	 11804	 11805	 11806	 11821#	 11839	 11840	 11843	 11846	 11860#	 11878	 11879	 11882	 11885	 11899#
	 11937#	 11955	 11956	 11958	 11959	 11960	 11961	 11976#	 12016#	 12035	 12036	 12038	 12039	 12040
	 12041	 12056#	 12075	 12076	 12079	 12081	 12082	 12096#	 12114	 12115	 12118	 12121	 12135#	 12153
	 12154	 12157	 12160	 12174#	 12192	 12195	 12198	 12201	 12215#	 12233	 12234	 12237	 12239	 12241
	 12244	 12259#	 12272	 12278	 12279	 12280	 12281	 12283	 12286	 12289	 12304#	 12317	 12323	 12324
	 12325	 12326	 12329	 12330	 12332	 12334	 12337	 12352#	 12365	 12371	 12372	 12373	 12374	 12375
	 12376	 12377	 12379	 12380	 12381	 12382	 12398#	 12411	 12417	 12418	 12419	 12420	 12421	 12422
	 12423	 12425	 12426	 12427	 12428	 12430	 12444#	 12482#	 12500	 12503	 12505	 12506	 12507	 12508
	 12523#	 12563#	 12581	 12582	 12584	 12585	 12586	 12587	 12602#	 12620	 12624	 12627	 12630	 12644#
	 12662	 12663	 12666	 12669	 12686#	 12699	 12705	 12706	 12707	 12708	 12711	 12712	 12714	 12717
	 12734#	 12747	 12753	 12754	 12755	 12756	 12758	 12761	 12764	 12779#	 12792	 12798	 12799	 12800
	 12801	 12802	 12805	 12806	 12808	 12809	 12810	 12811	 12813	 12814	 12815	 12816	 12817	 12819
	 12834#	 12847	 12853	 12854	 12855	 12856	 12857	 12859	 12861	 12862	 12863	 12864	 12866	 12884#
	 12920#	 12938	 12939	 12941	 12942	 12943	 12944	 12968#	 13006#	 13024	 13025	 13027	 13028	 13029
	 13030	 13045#	 13063	 13064	 13067	 13070	 13084#	 13102	 13103	 13106	 13109	 13123#	 13161#	 13181     SEQ 0574
	 13182	 13184	 13185	 13186	 13187	 13189	 13190	 13191	 13192	 13207#	 13226	 13227	 13250#	 13269
	 13270	 13272	 13273	 13274	 13275	 13277	 13278	 13279	 13280	 13295#	 13315	 13316	 13319	 13322
	 13323	 13325	 13327	 13340#	 13353	 13359	 13360	 13361	 13362	 13364	 13367	 13370	 13371	 13373
	 13375	 13389#	 13427#	 13445	 13446	 13448	 13449	 13450	 13451	 13466#	 13504#	 13522	 13523	 13525
	 13526	 13527	 13528	 13543#	 13561	 13562	 13565	 13568	 13582#	 13600	 13601	 13602	 13605	 13608
	 13622#	 13660#	 13678	 13679	 13681	 13682	 13683	 13684	 13699#	 13739#	 13758	 13759	 13761	 13762
	 13763	 13764	 13779#	 13799	 13800	 13803	 13806	 13820#	 13840	 13841	 13844	 13847	 13861#	 13899#
	 13917	 13918	 13920	 13921	 13922	 13923	 13938#	 13956	 13957	 13963	 13978#	 13996	 13999	 14001
	 14007#	 14025	 14026	 14027	 14029	 14032	 14035	 14049#	 14087#	 14105	 14106	 14108	 14109	 14110
	 14111	 14126#	 14169#	 14188	 14191	 14192	 14194	 14195	 14196	 14197	 14212#	 14232	 14235	 14237
	 14238	 14239	 14242	 14256#	 14276	 14277	 14279	 14281	 14283	 14286	 14300#	 14338#	 14356	 14358
	 14360	 14361	 14362	 14363	 14378#	 14396	 14397	 14403	 14418#	 14436	 14437	 14439	 14440	 14441
	 14442	 14457#	 14475	 14476	 14479	 14482	 14496#	 14514	 14515	 14516	 14518	 14521	 14524	 14538#
	 14576#	 14595	 14597	 14598	 14599	 14600	 14601	 14616#	 14636	 14637	 14643	 14658#	 14677	 14678
	 14680	 14681	 14682	 14683	 14698#	 14718	 14719	 14722	 14725	 14739#	 14759	 14760	 14762	 14765
	 14768	 14782#	 14820#	 14838	 14839	 14841	 14842	 14843	 14844	 14857#	 14895#	 14913	 14914	 14916
	 14917	 14918	 14919	 14934#	 14952	 14953	 14956	 14959	 14973#	 14991	 14992	 14993	 14996	 14999
	 15013#	 15051#	 15070	 15071	 15073	 15074	 15075	 15076	 15078	 15079	 15080	 15081	 15096#	 15115
	 15116	 15117	 15140#	 15159	 15160	 15161	 15162	 15163	 15164	 15179#	 15199	 15200	 15203	 15206
	 15207	 15209	 15211	 15226#	 15239	 15245	 15246	 15247	 15248	 15251	 15254	 15257	 15258	 15260
	 15262	 15278#	 15297	 15298	 15299	 15316#	 15335	 15339	 15340	 15357#	 15376	 15380	 15381	 15398#
	 15418	 15419	 15420	 15437#	 15456	 15460	 15461	 15478#	 15497	 15498	 15499	 15501	 15516#	 15535
	 15539	 15540	 15557#	 15576	 15580	 15581	 15598#	 15617	 15621	 15622	 15639#	 15658	 15662	 15663
	 15680#	 15699	 15701	 15702	 15719#	 15738	 15741	 15742	 15759#	 15778	 15781	 15782	 15799#	 15818
	 15822	 15823	 15840#	 15859	 15863	 15864	 15881#	 15900	 15901	 15902	 15919#	 15939	 15941	 15943
	 15944	 15958#	 15979	 15981	 15996#	 16017	 16019	 16021	 16040#	 16059	 16060	 16061	 16078#	 16099
	 16100	 16101	 16103	 16118#	 16139	 16140	 16141	 16143	 16158#	 16179	 16180	 16181	 16183	 16199#
	 16218	 16219	 16220	 16237#	 16258	 16259	 16261	 16276#	 16297	 16298	 16300	 16315#	 16336	 16337
	 16339	 16355#	 16373	 16376	 16377	 16394#	 16414	 16415	 16417	 16419	 16434#	 16455	 16456	 16458
	 16473#	 16494	 16495	 16497	 16499	 16515#	 16533	 16539	 16540	 16557#	 16577	 16578	 16580	 16595#
	 16613	 16616	 16618	 16632#	 16653	 16654	 16656	 16672#	 16690	 16693	 16694	 16696	 16711#	 16732
	 16734	 16749#	 16770	 16772	 16787#	 16808	 16810	 16826#	 16844	 16846	 16847	 16864#	 16884	 16885
	 16887	 16904#	 16925	 16926	 16928	 16943#	 16964	 16965	 16967	 16983#	 17001	 17004	 17005	 17022#
	 17042	 17043	 17045	 17060#	 17081	 17082	 17084	 17099#	 17120	 17121	 17123	 17139#	 17157	 17160
	 17161	 17178#	 17199	 17200	 17202	 17217#	 17238	 17239	 17241	 17256#	 17277	 17278	 17280	 17295#
	 17313	 17316	 17317	 17334#	 17355	 17356	 17358	 17360	 17375#	 17393	 17396	 17398	 17412#	 17433
	 17434	 17436	 17438	 17453#	 17471	 17476	 17477	 17494#	 17515	 17516	 17518	 17520	 17535#	 17556
	 17557	 17559	 17561	 17576#	 17597	 17598	 17600	 17602	 17617#	 17635	 17640	 17641	 17658#	 17679
	 17681	 17696#	 17717	 17719	 17734#	 17755	 17757	 17772#	 17791	 17793	 17794	 17811#	 17831	 17832
	 17834	 17849#	 17867	 17870	 17872	 17886#	 17907	 17908	 17910	 17925#	 17943	 17946	 17947	 17964#
	 17984	 17985	 17987	 18002#	 18023	 18025	 18040#	 18061	 18062	 18064	 18079#	 18097	 18100	 18101
	 18118#	 18139	 18140	 18142	 18144	 18159#	 18180	 18181	 18183	 18185	 18200#	 18221	 18222	 18224
	 18226	 18241#	 18259	 18264	 18265	 18282#	 18303	 18304	 18306	 18308	 18323#	 18341	 18344	 18346
	 18360#	 18381	 18382	 18384	 18386	 18401#	 18419	 18424	 18425	 18457#	 18479	 18480	 18482	 18485
	 18486	 18491	 18504#	 18527	 18528	 18530	 18533	 18534	 18539	 18554#	 18577	 18578	 18580	 18583
	 18584	 18589	 18602#	 18625	 18626	 18628	 18631	 18632	 18639	 18654#	 18676	 18677	 18679	 18682
	 18683	 18688	 18703#	 18726	 18727	 18729	 18732	 18733	 18738	 18753#	 18776	 18777	 18779	 18782
	 18783	 18788	 18801#	 18824	 18825	 18827	 18830	 18831	 18838	 18853#	 18871	 18872	 18873	 18874
	 18876	 18893#	 18911	 18912	 18913	 18914	 18916	 18934#	 18954	 18955	 18959	 18977#	 18998	 18999
	 19003	 19021#	 19048#	 19221#	 19229	 19235	 19236	 19238	 19239	 19240	 19241	 19242	 19245	 19248
	 19249	 19258#	 19266	 19272	 19273	 19275	 19276	 19277	 19278	 19281	 19284	 19285	 19295#	 19303
	 19309	 19310	 19312	 19313	 19314	 19315	 19316	 19319	 19322	 19323	 19332#	 19340	 19346	 19347
	 19350	 19351	 19352	 19353	 19356	 19359	 19360	 19369#	 19377	 19383	 19384	 19387	 19388	 19389     SEQ 0575
	 19390	 19393	 19396	 19397	 19406#	 19414	 19420	 19421	 19424	 19425	 19426	 19427	 19428	 19431
	 19434	 19435	 19444#	 19452	 19458	 19459	 19462	 19463	 19464	 19465	 19468	 19471	 19472	 19481#
	 19489	 19495	 19496	 19499	 19500	 19501	 19502	 19505	 19508	 19509	 19518#	 19526	 19532	 19533
	 19536	 19537	 19538	 19539	 19542	 19545	 19546	 19555#	 19563	 19569	 19570	 19573	 19574	 19575
	 19578	 19581	 19582	 19591#	 19599	 19605	 19606	 19610	 19611	 19613	 19619	 19620	 19621	 19623
	 19626	 19627	 19636#	 19644	 19650	 19651	 19654	 19655	 19656	 19659	 19661	 19662	 19663	 19666
	 19669	 19670	 19679#	 19687	 19693	 19694	 19697	 19698	 19699	 19702	 19704	 19705	 19706	 19709
	 19712	 19713	 19722#	 19730	 19736	 19737	 19742	 19743	 19744	 19747	 19751	 19752	 19753	 19756
	 19759	 19760	 19769#	 19777	 19783	 19784	 19789	 19790	 19791	 19794	 19799	 19800	 19801	 19804
	 19807	 19808	 19817#	 19825	 19831	 19832	 19836	 19837	 19840	 19843	 19848	 19849	 19852	 19855
	 19858	 19859	 19868#	 19876	 19882	 19883	 19887	 19890	 19894	 19895	 19898	 19901	 19904	 19908
	 19909	 19912	 19913	 19922#	 19930	 19936	 19937	 19943	 19946	 19949	 19950	 19952	 19955	 19956
	 19965#	 19973	 19979	 19980	 19986	 19989	 19992	 19993	 19995	 19998	 19999	 20008#	 20016	 20022
	 20023	 20029	 20032	 20035	 20036	 20038	 20041	 20042	 20051#	 20059	 20065	 20066	 20072	 20075
	 20078	 20079	 20081	 20084	 20085	 20093#	 20101	 20107	 20108	 20111	 20114	 20117	 20120	 20123
	 20126	 20128	 20131	 20133	 20136	 20139	 20140	 20149#	 20157	 20163	 20164	 20166	 20167	 20169
	 20173	 20174	 20178	 20179	 20184	 20185	 20194#	 20202	 20208	 20209	 20215	 20218	 20220	 20221
	 20222	 20224	 20227	 20228	 20237#	 20245	 20251	 20252	 20254	 20255	 20256	 20257	 20260	 20262
	 20263	 20265	 20266	 20267	 20270	 20271	 20284#	 20303	 20305	 20306	 20310	 20312	 20313	 20314
	 20328#	 20342	 20343	 20347	 20351	 20353	 20356	 20358	 20359	 20372#	 20391	 20392	 20394	 20398
	 20399	 20401	 20402	 20403	 20418#	 20437	 20438	 20445	 20446	 20453	 20454	 20455	 20469#	 20488
	 20489	 20496	 20498	 20500	 20502	 20503	 20505	 20506	 20507	 20523#	 20542	 20543	 20552	 20553
	 20560	 20561	 20562	 20576#	 20595	 20596	 20598	 20602	 20603	 20605	 20606	 20621#	 20640	 20641
	 20648	 20651	 20654	 20655	 20656	 20671#	 20686	 20687	 20688	 20689	 20690	 20691	 20692	 20708#
	 20723	 20724	 20725	 20726	 20727	 20728	 20729	 20864#	 20882	 20883	 20900#	 20921	 20923	 20924
	 20925	 20937#	 20955	 20956	 20971#	 20990	 20991	 20992	 20994	 20995	 20996	 20997	 20998	 20999
	 21029#	 21123#	 21185#	 21205	 21207	 21208	 21209	 21211	 21212	 21214	 21228#	 21248	 21249	 21250
	 21252	 21253	 21255	 21257
AC2	   806#	   905#	  1013#	  1117#	  1249#	  1301#	  1318	  1319	  1323	  1324	  1325	  1328	  1329	  1338#
	  1355	  1356	  1360	  1361	  1362	  1365	  1366	  1381#	  1474#	  1514#	  1554#	  1601#	  1697#	  1736#
	  1779#	  1818#	  1858#	  1906#	  1924	  1925	  1926	  1940#	  1983#	  2024#	  2064#	  2108#	  2150#	  2191#
	  2209	  2211	  2232#	  2250	  2252	  2275#	  2293	  2294	  2296	  2316#	  2337	  2338	  2339	  2359#
	  2399#	  2443#	  2484#	  2527#	  2567#	  2614#	  2650#	  2687#	  2722#	  2768#	  2805#	  2849#	  2894#	  2934#
	  2975#	  3148#	  3322#	  3342	  3345	  3366#	  3404	  3408	  3416#	  3420	  3424	  3432#	  3436	  3440
	  3448#	  3452	  3456	  3464#	  3468	  3472	  3480#	  3484	  3488	  3496#	  3500	  3504	  3512#	  3516
	  3520	  3528#	  3532	  3536	  3544#	  3548	  3552	  3560#	  3575#	  3611#	  3649#	  3691#	  3732#	  3772#
	  3804#	  3843#	  3885#	  3902	  3905	  3919#	  3937	  3939	  3940	  3954#	  3973	  3974	  3975	  3990#
	  4036#	  4065#	  4092#	  4124#	  4162#	  4196#	  4241#	  4258	  4261	  4275#	  4292	  4295	  4309#	  4343#
	  4375#	  4393	  4395	  4409#	  4427	  4428	  4431	  4445#	  4480#	  4515#	  4551#	  4588#	  4606	  4608
	  4622#	  4655#	  4673	  4675	  4688#	  4705	  4708	  4724#	  4759#	  4791#	  4809	  4811	  4825#	  4861#
	  4897#	  4915	  4919	  4934#	  4970#	  4987	  4992	  4994	  5006#	  5046#	  5063	  5065	  5068	  5070
	  5084#	  5128#	  5145	  5158	  5174#	  5191	  5204	  5218#	  5237	  5239	  5241	  5243	  5257#	  5291#
	  5310	  5312	  5314	  5318	  5332#	  5351	  5353	  5355	  5359	  5373#	  5415#	  5452#	  5489#	  5526#
	  5564#	  5602#	  5640#	  5677#	  5716#	  5754#	  5772	  5773	  5774	  5776	  5781	  5795#	  5815	  5821
	  5822	  5836#	  5857	  5858	  5860	  5865	  5880#	  5899	  5900	  5907	  5908	  5923#	  5942	  5946
	  5947	  5951	  5952	  5965#	  6003#	  6039#	  6057	  6058	  6059	  6061	  6066	  6081#	  6101	  6107
	  6108	  6122#	  6143	  6144	  6147	  6151	  6166#	  6185	  6186	  6194	  6198	  6199	  6213#	  6232
	  6233	  6241	  6242	  6255#	  6292#	  6330#	  6364#	  6401#	  6420	  6422	  6436#	  6476#	  6510#	  6547#
	  6580#	  6599	  6602	  6620#	  6656#	  6693#	  6713	  6719	  6720	  6724	  6725	  6741#	  6761	  6767
	  6768	  6772	  6773	  6789#	  6808	  6809	  6817	  6818	  6822	  6823	  6838#	  6857	  6858	  6864
	  6865	  6869	  6870	  6886#	  6906	  6912	  6913	  6928#	  6948	  6954	  6955	  6971#	  6990	  6991
	  6998	  6999	  7016#	  7035	  7036	  7043	  7044	  7059#	  7077	  7078	  7080	  7097#	  7132#	  7170#
	  7211#	  7250#	  7268	  7270	  7275	  7291#	  7333#	  7380#	  7428#	  7447	  7448	  7449	  7450	  7451     SEQ 0576
	  7473#	  7491	  7492	  7498	  7514#	  7554#	  7593#	  7611	  7613	  7635#	  7674#	  7693	  7699	  7705
	  7721#	  7762#	  7802#	  7843#	  7883#	  7922#	  7962#	  8001#	  8019	  8021	  8022	  8023	  8029	  8045#
	  8084#	  8123#	  8164#	  8183	  8184	  8186	  8191	  8207#	  8247#	  8288#	  8327#	  8366#	  8406#	  8445#
	  8484#	  8523#	  8563#	  8603#	  8644#	  8661	  8662	  8663	  8687#	  8730#	  8749	  8750	  8754	  8755
	  8756	  8757	  8775#	  8817#	  8838	  8839	  8843	  8844	  8845	  8846	  8862#	  8881	  8886	  8887
	  8888	  8889	  8905#	  8924	  8929	  8930	  8931	  8932	  8938	  8940	  8954#	  8974	  8978	  8979
	  8980	  8981	  8987	  8989	  9005#	  9025	  9030	  9031	  9032	  9049#	  9086#	  9121#	  9153#	  9191#
	  9227#	  9269#	  9314#	  9355#	  9375	  9376	  9380	  9382	  9415#	  9430	  9431	  9436	  9438	  9458#
	  9501#	  9520	  9521	  9528	  9545#	  9565	  9566	  9573	  9590#	  9608	  9609	  9615	  9632#	  9645
	  9650	  9652	  9665#	  9703#	  9719	  9720	  9724	  9741#	  9774#	  9814#	  9855#	  9888#	  9920#	  9937
	  9944	  9946	  9962#	  9978	  9985	  9987	 10005#	 10048#	 10062	 10067	 10069	 10083#	 10103	 10110
	 10112	 10128#	 10147	 10154	 10156	 10172#	 10186	 10191	 10193	 10207#	 10221	 10226	 10228	 10241#
	 10279#	 10317#	 10348#	 10368	 10369	 10373	 10389#	 10408	 10409	 10413	 10429#	 10460#	 10492#	 10531#
	 10568#	 10587	 10588	 10593	 10594	 10595	 10610#	 10632	 10637	 10638	 10639	 10654#	 10676	 10681
	 10682	 10683	 10698#	 10720	 10724	 10725	 10727	 10742#	 10778#	 10814#	 10854#	 10894#	 10934#	 10953
	 10961	 10976#	 10995	 11003	 11017#	 11054#	 11092#	 11132#	 11169#	 11186	 11188	 11191	 11193	 11208#
	 11225	 11227	 11232	 11247#	 11264	 11266	 11267	 11269	 11284#	 11301	 11303	 11306	 11308	 11323#
	 11340	 11342	 11344	 11359#	 11376	 11378	 11381	 11383	 11398#	 11415	 11417	 11420	 11422	 11437#
	 11454	 11456	 11459	 11461	 11476#	 11493	 11495	 11498	 11500	 11515#	 11532	 11535	 11537	 11552#
	 11569	 11571	 11575	 11577	 11592#	 11609	 11611	 11613	 11615	 11630#	 11647	 11649	 11652	 11654
	 11669#	 11686	 11688	 11692	 11694	 11709#	 11726	 11728	 11730	 11745#	 11783#	 11822#	 11861#	 11900#
	 11938#	 11977#	 12017#	 12057#	 12097#	 12136#	 12175#	 12193	 12194	 12200	 12216#	 12234	 12235	 12236
	 12238	 12243	 12260#	 12282	 12288	 12289	 12305#	 12328	 12329	 12331	 12336	 12353#	 12374	 12375
	 12382	 12383	 12399#	 12420	 12424	 12425	 12429	 12430	 12445#	 12483#	 12501	 12502	 12508	 12524#
	 12541	 12542	 12548	 12564#	 12603#	 12621	 12622	 12623	 12629	 12645#	 12687#	 12710	 12711	 12716
	 12735#	 12780#	 12803	 12804	 12805	 12811	 12817	 12835#	 12858	 12864	 12885#	 12921#	 12969#	 13007#
	 13046#	 13085#	 13124#	 13162#	 13208#	 13251#	 13296#	 13341#	 13390#	 13428#	 13467#	 13505#	 13544#	 13583#
	 13623#	 13661#	 13700#	 13740#	 13780#	 13821#	 13862#	 13900#	 13939#	 13979#	 13997	 13998	 14008#	 14027
	 14028	 14034	 14050#	 14088#	 14127#	 14146	 14147	 14149	 14154	 14170#	 14189	 14190	 14192	 14197
	 14213#	 14233	 14234	 14236	 14241	 14257#	 14277	 14278	 14280	 14285	 14301#	 14339#	 14357	 14363
	 14379#	 14419#	 14458#	 14497#	 14516	 14517	 14523	 14539#	 14577#	 14596	 14601	 14617#	 14659#	 14699#
	 14740#	 14760	 14761	 14767	 14783#	 14821#	 14858#	 14896#	 14935#	 14974#	 15014#	 15052#	 15097#	 15141#
	 15180#	 15227#	 15248	 15249	 15279#	 15317#	 15336	 15337	 15338	 15342	 15358#	 15377	 15378	 15379
	 15383	 15399#	 15438#	 15457	 15458	 15459	 15463	 15479#	 15517#	 15536	 15537	 15538	 15542	 15558#
	 15577	 15578	 15579	 15583	 15599#	 15618	 15619	 15620	 15624	 15640#	 15659	 15660	 15661	 15665
	 15681#	 15700	 15704	 15720#	 15739	 15740	 15744	 15760#	 15779	 15780	 15784	 15800#	 15819	 15820
	 15821	 15825	 15841#	 15860	 15861	 15862	 15866	 15882#	 15920#	 15940	 15941	 15959#	 15976	 15980
	 15982	 15997#	 16018	 16019	 16041#	 16058	 16063	 16079#	 16096	 16101	 16104	 16119#	 16136	 16141
	 16142	 16144	 16159#	 16176	 16181	 16182	 16200#	 16217	 16221	 16222	 16223	 16238#	 16255	 16258
	 16262	 16277#	 16294	 16297	 16299	 16301	 16316#	 16333	 16336	 16338	 16356#	 16374	 16375	 16379
	 16395#	 16416	 16417	 16435#	 16474#	 16496	 16497	 16516#	 16534	 16535	 16538	 16542	 16558#	 16596#
	 16633#	 16650	 16655	 16673#	 16691	 16692	 16712#	 16729	 16732	 16735	 16750#	 16767	 16770	 16771
	 16773	 16788#	 16805	 16808	 16809	 16827#	 16845	 16849	 16865#	 16905#	 16922	 16927	 16929	 16944#
	 16961	 16966	 16984#	 17002	 17003	 17007	 17023#	 17061#	 17100#	 17117	 17122	 17140#	 17158	 17159
	 17163	 17179#	 17196	 17199	 17203	 17218#	 17235	 17238	 17240	 17242	 17257#	 17274	 17277	 17279
	 17296#	 17314	 17315	 17319	 17335#	 17352	 17357	 17361	 17376#	 17413#	 17430	 17435	 17437	 17454#
	 17472	 17473	 17475	 17479	 17495#	 17512	 17517	 17521	 17536#	 17553	 17558	 17560	 17562	 17577#
	 17594	 17599	 17601	 17618#	 17636	 17637	 17639	 17643	 17659#	 17676	 17679	 17682	 17697#	 17735#
	 17752	 17755	 17756	 17773#	 17792	 17796	 17812#	 17850#	 17887#	 17904	 17909	 17926#	 17944	 17945
	 17949	 17965#	 18003#	 18020	 18024	 18026	 18041#	 18058	 18063	 18080#	 18098	 18099	 18103	 18119#
	 18136	 18141	 18145	 18160#	 18177	 18182	 18184	 18186	 18201#	 18218	 18223	 18225	 18242#	 18260
	 18261	 18263	 18267	 18283#	 18300	 18305	 18309	 18324#	 18361#	 18378	 18383	 18385	 18402#	 18420
	 18421	 18423	 18427	 18458#	 18476	 18481	 18482	 18505#	 18524	 18529	 18530	 18555#	 18574	 18579     SEQ 0577
	 18580	 18603#	 18622	 18627	 18628	 18655#	 18673	 18678	 18679	 18704#	 18723	 18728	 18729	 18754#
	 18773	 18778	 18779	 18802#	 18821	 18826	 18827	 18854#	 18894#	 18935#	 18978#	 19022#	 19049#	 19222#
	 19259#	 19296#	 19333#	 19370#	 19407#	 19445#	 19482#	 19519#	 19556#	 19592#	 19608	 19609	 19613	 19616
	 19617	 19623	 19637#	 19680#	 19723#	 19740	 19745	 19746	 19747	 19748	 19750	 19754	 19755	 19756
	 19757	 19770#	 19787	 19792	 19793	 19794	 19795	 19797	 19802	 19803	 19804	 19805	 19818#	 19834
	 19835	 19837	 19839	 19841	 19843	 19846	 19847	 19849	 19851	 19853	 19855	 19869#	 19885	 19886
	 19888	 19890	 19893	 19895	 19899	 19900	 19902	 19904	 19907	 19909	 19923#	 19941	 19942	 19946
	 19951	 19953	 19966#	 19984	 19985	 19989	 19994	 19996	 20009#	 20027	 20028	 20032	 20037	 20039
	 20052#	 20070	 20071	 20075	 20080	 20082	 20094#	 20110	 20112	 20114	 20119	 20121	 20122	 20126
	 20130	 20132	 20134	 20136	 20150#	 20195#	 20211	 20212	 20214	 20218	 20224	 20238#	 20255	 20257
	 20258	 20285#	 20304	 20305	 20329#	 20348	 20349	 20350	 20351	 20355	 20373#	 20386	 20387	 20396
	 20401	 20419#	 20439	 20440	 20443	 20445	 20450	 20470#	 20524#	 20549	 20555	 20556	 20558	 20577#
	 20590	 20591	 20599	 20600	 20603	 20622#	 20635	 20636	 20650	 20652	 20654	 20672#	 20685	 20690
	 20693	 20694	 20695	 20709#	 20722	 20727	 20730	 20731	 20732	 20865#	 20883	 20884	 20885	 20901#
	 20923	 20938#	 20957	 20958	 20972#	 20997	 21030#	 21124#	 21186#	 21206	 21209	 21229#	 21248	 21252
AC3	   807#	   906#	  1014#	  1118#	  1250#	  1302#	  1339#	  1382#	  1475#	  1515#	  1555#	  1602#	  1698#	  1737#
	  1780#	  1819#	  1859#	  1907#	  1941#	  1984#	  2025#	  2065#	  2109#	  2151#	  2192#	  2233#	  2276#	  2317#
	  2360#	  2400#	  2444#	  2485#	  2528#	  2568#	  2615#	  2651#	  2688#	  2723#	  2769#	  2806#	  2850#	  2895#
	  2935#	  2976#	  3149#	  3323#	  3339	  3340	  3341	  3367#	  3383	  3384	  3385	  3576#	  3612#	  3650#
	  3692#	  3733#	  3773#	  3805#	  3844#	  3886#	  3920#	  3955#	  3991#	  4037#	  4066#	  4093#	  4125#	  4163#
	  4197#	  4242#	  4276#	  4310#	  4344#	  4376#	  4410#	  4446#	  4481#	  4516#	  4552#	  4589#	  4623#	  4656#
	  4689#	  4725#	  4760#	  4792#	  4826#	  4862#	  4898#	  4935#	  4971#	  5007#	  5047#	  5085#	  5129#	  5175#
	  5219#	  5258#	  5292#	  5333#	  5374#	  5416#	  5453#	  5490#	  5527#	  5565#	  5603#	  5641#	  5678#	  5717#
	  5755#	  5796#	  5837#	  5881#	  5924#	  5966#	  6004#	  6040#	  6082#	  6123#	  6167#	  6189	  6190	  6193
	  6197	  6214#	  6256#	  6293#	  6331#	  6365#	  6402#	  6437#	  6477#	  6511#	  6548#	  6581#	  6621#	  6657#
	  6694#	  6742#	  6790#	  6839#	  6860	  6861	  6863	  6868	  6887#	  6929#	  6972#	  7017#	  7060#	  7098#
	  7133#	  7171#	  7212#	  7251#	  7292#	  7334#	  7381#	  7429#	  7474#	  7515#	  7555#	  7594#	  7612	  7613
	  7619	  7636#	  7675#	  7722#	  7763#	  7803#	  7844#	  7884#	  7923#	  7963#	  8002#	  8020	  8021	  8046#
	  8085#	  8124#	  8165#	  8208#	  8248#	  8289#	  8328#	  8367#	  8407#	  8446#	  8485#	  8524#	  8564#	  8604#
	  8645#	  8688#	  8731#	  8776#	  8818#	  8863#	  8906#	  8955#	  9006#	  9050#	  9087#	  9122#	  9154#	  9192#
	  9228#	  9270#	  9315#	  9356#	  9372	  9381	  9383	  9389	  9396	  9416#	  9428	  9429	  9437	  9439
	  9459#	  9502#	  9519	  9527	  9529	  9546#	  9564	  9572	  9574	  9591#	  9607	  9614	  9616	  9633#
	  9666#	  9704#	  9742#	  9775#	  9815#	  9856#	  9889#	  9921#	  9938	  9939	  9945	  9963#	  9979	  9980
	  9986	 10006#	 10049#	 10084#	 10104	 10105	 10111	 10129#	 10148	 10149	 10155	 10173#	 10208#	 10242#
	 10280#	 10318#	 10349#	 10390#	 10430#	 10461#	 10493#	 10532#	 10569#	 10611#	 10655#	 10699#	 10743#	 10779#
	 10815#	 10855#	 10895#	 10935#	 10977#	 11018#	 11055#	 11093#	 11133#	 11170#	 11209#	 11248#	 11285#	 11324#
	 11360#	 11399#	 11438#	 11477#	 11516#	 11553#	 11593#	 11631#	 11670#	 11710#	 11746#	 11784#	 11823#	 11862#
	 11901#	 11939#	 11978#	 12018#	 12058#	 12098#	 12137#	 12176#	 12217#	 12261#	 12306#	 12354#	 12400#	 12446#
	 12484#	 12525#	 12565#	 12604#	 12646#	 12688#	 12736#	 12781#	 12836#	 12886#	 12922#	 12970#	 13008#	 13047#
	 13086#	 13125#	 13163#	 13209#	 13252#	 13297#	 13342#	 13391#	 13429#	 13468#	 13506#	 13545#	 13584#	 13624#
	 13662#	 13701#	 13741#	 13781#	 13822#	 13863#	 13901#	 13940#	 13980#	 14009#	 14051#	 14089#	 14128#	 14171#
	 14214#	 14258#	 14302#	 14340#	 14380#	 14420#	 14459#	 14498#	 14540#	 14578#	 14618#	 14660#	 14700#	 14741#
	 14784#	 14822#	 14859#	 14897#	 14936#	 14975#	 15015#	 15053#	 15098#	 15142#	 15181#	 15228#	 15280#	 15318#
	 15359#	 15400#	 15439#	 15480#	 15518#	 15559#	 15600#	 15641#	 15682#	 15721#	 15761#	 15801#	 15842#	 15883#
	 15921#	 15960#	 15998#	 16014	 16020	 16022	 16042#	 16080#	 16120#	 16160#	 16201#	 16239#	 16278#	 16317#
	 16357#	 16396#	 16436#	 16452	 16457	 16459	 16475#	 16491	 16498	 16517#	 16536	 16537	 16538	 16559#
	 16597#	 16634#	 16674#	 16713#	 16751#	 16789#	 16828#	 16866#	 16906#	 16945#	 16985#	 17024#	 17062#	 17078
	 17083	 17085	 17101#	 17141#	 17180#	 17219#	 17258#	 17297#	 17336#	 17377#	 17414#	 17455#	 17496#	 17537#
	 17578#	 17619#	 17660#	 17698#	 17714	 17717	 17718	 17720	 17736#	 17774#	 17790	 17792	 17795	 17797
	 17813#	 17851#	 17888#	 17927#	 17966#	 18004#	 18042#	 18081#	 18120#	 18161#	 18202#	 18243#	 18284#	 18325#
	 18362#	 18403#	 18459#	 18480	 18481	 18484	 18486	 18488	 18506#	 18528	 18529	 18532	 18534	 18536
	 18556#	 18578	 18579	 18582	 18584	 18586	 18604#	 18626	 18627	 18630	 18632	 18634	 18656#	 18677
	 18678	 18681	 18683	 18685	 18705#	 18727	 18728	 18731	 18733	 18735	 18755#	 18777	 18778	 18781     SEQ 0578
	 18783	 18785	 18803#	 18825	 18826	 18829	 18831	 18833	 18855#	 18895#	 18936#	 18979#	 19023#	 19050#
	 19223#	 19260#	 19297#	 19334#	 19371#	 19408#	 19446#	 19483#	 19520#	 19557#	 19593#	 19615	 19616	 19617
	 19638#	 19681#	 19724#	 19771#	 19819#	 19870#	 19892	 19896	 19906	 19910	 19924#	 19940	 19944	 19945
	 19947	 19951	 19953	 19967#	 19983	 19987	 19988	 19990	 19994	 19996	 20010#	 20026	 20030	 20031
	 20033	 20037	 20039	 20053#	 20069	 20073	 20074	 20076	 20080	 20082	 20095#	 20116	 20118	 20120
	 20124	 20125	 20127	 20129	 20130	 20131	 20132	 20135	 20137	 20151#	 20196#	 20239#	 20286#	 20298
	 20309	 20310	 20330#	 20374#	 20420#	 20441	 20442	 20471#	 20483	 20501	 20502	 20503	 20525#	 20537
	 20550	 20557	 20578#	 20590	 20601	 20602	 20623#	 20673#	 20684	 20691	 20694	 20695	 20698	 20710#
	 20721	 20728	 20731	 20732	 20736	 20866#	 20902#	 20939#	 20973#	 21031#	 21125#	 21187#	 21199	 21214
	 21230#	 21242	 21255
AC4	   808#	   907#	  1015#	  1119#	  1251#	  1303#	  1340#	  1383#	  1476#	  1516#	  1556#	  1603#	  1699#	  1738#
	  1781#	  1820#	  1860#	  1908#	  1942#	  1985#	  2026#	  2066#	  2110#	  2152#	  2193#	  2234#	  2277#	  2318#
	  2361#	  2401#	  2445#	  2486#	  2529#	  2569#	  2616#	  2652#	  2689#	  2724#	  2770#	  2807#	  2851#	  2896#
	  2936#	  2977#	  3150#	  3324#	  3368#	  3577#	  3613#	  3651#	  3693#	  3734#	  3774#	  3806#	  3845#	  3887#
	  3921#	  3956#	  3992#	  4038#	  4067#	  4094#	  4126#	  4164#	  4198#	  4243#	  4277#	  4311#	  4345#	  4377#
	  4411#	  4447#	  4482#	  4517#	  4553#	  4590#	  4624#	  4657#	  4690#	  4726#	  4761#	  4793#	  4827#	  4863#
	  4899#	  4936#	  4972#	  5008#	  5048#	  5086#	  5130#	  5176#	  5220#	  5259#	  5293#	  5334#	  5375#	  5417#
	  5454#	  5491#	  5528#	  5566#	  5604#	  5642#	  5679#	  5718#	  5756#	  5797#	  5838#	  5882#	  5925#	  5967#
	  6005#	  6041#	  6083#	  6124#	  6168#	  6215#	  6257#	  6294#	  6332#	  6366#	  6403#	  6438#	  6478#	  6512#
	  6549#	  6582#	  6622#	  6658#	  6695#	  6743#	  6791#	  6840#	  6888#	  6930#	  6973#	  7018#	  7061#	  7099#
	  7134#	  7172#	  7213#	  7252#	  7293#	  7335#	  7382#	  7430#	  7475#	  7516#	  7556#	  7595#	  7637#	  7676#
	  7723#	  7764#	  7804#	  7845#	  7885#	  7924#	  7964#	  8003#	  8047#	  8086#	  8125#	  8166#	  8209#	  8249#
	  8290#	  8329#	  8368#	  8408#	  8447#	  8486#	  8525#	  8565#	  8605#	  8646#	  8689#	  8732#	  8777#	  8819#
	  8864#	  8907#	  8956#	  9007#	  9051#	  9088#	  9123#	  9155#	  9193#	  9229#	  9271#	  9316#	  9357#	  9417#
	  9460#	  9503#	  9547#	  9592#	  9634#	  9667#	  9705#	  9743#	  9776#	  9816#	  9857#	  9890#	  9922#	  9964#
	 10007#	 10050#	 10085#	 10130#	 10174#	 10209#	 10243#	 10281#	 10319#	 10350#	 10391#	 10431#	 10462#	 10494#
	 10533#	 10570#	 10612#	 10656#	 10700#	 10744#	 10780#	 10816#	 10856#	 10896#	 10936#	 10978#	 11019#	 11056#
	 11094#	 11134#	 11171#	 11210#	 11249#	 11286#	 11325#	 11361#	 11400#	 11439#	 11478#	 11517#	 11554#	 11594#
	 11632#	 11671#	 11711#	 11747#	 11785#	 11824#	 11863#	 11902#	 11940#	 11979#	 12019#	 12059#	 12099#	 12138#
	 12177#	 12218#	 12262#	 12307#	 12355#	 12401#	 12447#	 12485#	 12526#	 12566#	 12605#	 12647#	 12689#	 12737#
	 12782#	 12837#	 12887#	 12923#	 12971#	 13009#	 13048#	 13087#	 13126#	 13164#	 13210#	 13253#	 13298#	 13343#
	 13392#	 13430#	 13469#	 13507#	 13546#	 13585#	 13625#	 13663#	 13702#	 13742#	 13782#	 13823#	 13864#	 13902#
	 13941#	 13981#	 14010#	 14052#	 14090#	 14129#	 14172#	 14215#	 14259#	 14303#	 14341#	 14381#	 14421#	 14460#
	 14499#	 14541#	 14579#	 14619#	 14661#	 14701#	 14742#	 14785#	 14823#	 14860#	 14898#	 14937#	 14976#	 15016#
	 15054#	 15099#	 15143#	 15182#	 15229#	 15281#	 15319#	 15360#	 15401#	 15440#	 15481#	 15519#	 15560#	 15601#
	 15642#	 15683#	 15722#	 15762#	 15802#	 15843#	 15884#	 15922#	 15961#	 15999#	 16043#	 16081#	 16121#	 16161#
	 16202#	 16240#	 16279#	 16318#	 16358#	 16397#	 16437#	 16476#	 16518#	 16560#	 16598#	 16635#	 16675#	 16714#
	 16752#	 16790#	 16829#	 16867#	 16907#	 16946#	 16986#	 17025#	 17063#	 17102#	 17142#	 17181#	 17220#	 17259#
	 17298#	 17337#	 17378#	 17415#	 17456#	 17497#	 17538#	 17579#	 17620#	 17661#	 17699#	 17737#	 17775#	 17814#
	 17852#	 17889#	 17928#	 17967#	 18005#	 18043#	 18082#	 18121#	 18162#	 18203#	 18244#	 18285#	 18326#	 18363#
	 18404#	 18460#	 18485	 18488	 18507#	 18533	 18536	 18557#	 18583	 18586	 18605#	 18631	 18634	 18657#
	 18682	 18685	 18706#	 18732	 18735	 18756#	 18782	 18785	 18804#	 18830	 18833	 18856#	 18896#	 18937#
	 18980#	 19024#	 19051#	 19224#	 19261#	 19298#	 19335#	 19372#	 19409#	 19447#	 19484#	 19521#	 19558#	 19594#
	 19639#	 19682#	 19725#	 19772#	 19820#	 19871#	 19925#	 19948	 19950	 19968#	 19991	 19993	 20011#	 20034
	 20036	 20054#	 20077	 20079	 20096#	 20152#	 20197#	 20240#	 20287#	 20298	 20299	 20312	 20331#	 20375#
	 20386	 20397	 20398	 20399	 20421#	 20432	 20433	 20449	 20451	 20453	 20472#	 20496	 20497	 20499
	 20526#	 20537	 20538	 20556	 20558	 20560	 20579#	 20597	 20600	 20624#	 20674#	 20685	 20697	 20711#
	 20722	 20735	 20867#	 20903#	 20940#	 20974#	 21032#	 21126#	 21188#	 21199	 21200	 21216	 21231#	 21242
	 21243	 21257
AC5	   809#	   908#	  1016#	  1120#	  1252#	  1304#	  1341#	  1384#	  1477#	  1517#	  1557#	  1604#	  1700#	  1739#
	  1782#	  1821#	  1861#	  1909#	  1943#	  1986#	  2027#	  2067#	  2111#	  2153#	  2194#	  2235#	  2278#	  2319#
	  2362#	  2402#	  2446#	  2487#	  2530#	  2570#	  2617#	  2653#	  2690#	  2725#	  2771#	  2808#	  2852#	  2897#
	  2937#	  2978#	  3151#	  3325#	  3369#	  3578#	  3614#	  3652#	  3694#	  3735#	  3775#	  3807#	  3846#	  3888#    SEQ 0579
	  3922#	  3957#	  3993#	  4039#	  4068#	  4095#	  4127#	  4165#	  4199#	  4244#	  4278#	  4312#	  4346#	  4378#
	  4412#	  4448#	  4483#	  4518#	  4554#	  4591#	  4625#	  4658#	  4691#	  4727#	  4762#	  4794#	  4828#	  4864#
	  4900#	  4937#	  4973#	  5009#	  5049#	  5087#	  5131#	  5177#	  5221#	  5260#	  5294#	  5335#	  5376#	  5418#
	  5455#	  5492#	  5529#	  5567#	  5605#	  5643#	  5680#	  5719#	  5757#	  5798#	  5839#	  5883#	  5926#	  5968#
	  6006#	  6042#	  6084#	  6125#	  6169#	  6216#	  6258#	  6295#	  6333#	  6367#	  6404#	  6439#	  6479#	  6513#
	  6550#	  6583#	  6623#	  6659#	  6696#	  6744#	  6792#	  6841#	  6889#	  6931#	  6974#	  7019#	  7062#	  7100#
	  7135#	  7173#	  7214#	  7253#	  7294#	  7336#	  7383#	  7431#	  7476#	  7517#	  7557#	  7596#	  7638#	  7677#
	  7724#	  7765#	  7805#	  7846#	  7886#	  7925#	  7965#	  8004#	  8048#	  8087#	  8126#	  8167#	  8210#	  8250#
	  8291#	  8330#	  8369#	  8409#	  8448#	  8487#	  8526#	  8566#	  8606#	  8647#	  8690#	  8733#	  8778#	  8820#
	  8865#	  8908#	  8957#	  9008#	  9052#	  9089#	  9124#	  9156#	  9194#	  9230#	  9272#	  9317#	  9358#	  9418#
	  9461#	  9504#	  9548#	  9593#	  9635#	  9668#	  9706#	  9744#	  9777#	  9817#	  9858#	  9891#	  9923#	  9965#
	 10008#	 10051#	 10086#	 10131#	 10175#	 10210#	 10244#	 10282#	 10320#	 10351#	 10392#	 10432#	 10463#	 10495#
	 10534#	 10571#	 10613#	 10657#	 10701#	 10745#	 10781#	 10817#	 10857#	 10897#	 10937#	 10979#	 11020#	 11057#
	 11095#	 11135#	 11172#	 11211#	 11250#	 11287#	 11326#	 11362#	 11401#	 11440#	 11479#	 11518#	 11555#	 11595#
	 11633#	 11672#	 11712#	 11748#	 11786#	 11825#	 11864#	 11903#	 11941#	 11980#	 12020#	 12060#	 12100#	 12139#
	 12178#	 12219#	 12263#	 12308#	 12356#	 12402#	 12448#	 12486#	 12527#	 12567#	 12606#	 12648#	 12690#	 12738#
	 12783#	 12838#	 12888#	 12924#	 12972#	 13010#	 13049#	 13088#	 13127#	 13165#	 13211#	 13254#	 13299#	 13344#
	 13393#	 13431#	 13470#	 13508#	 13547#	 13586#	 13626#	 13664#	 13703#	 13743#	 13783#	 13824#	 13865#	 13903#
	 13942#	 13982#	 14011#	 14053#	 14091#	 14130#	 14173#	 14216#	 14260#	 14304#	 14342#	 14382#	 14422#	 14461#
	 14500#	 14542#	 14580#	 14620#	 14662#	 14702#	 14743#	 14786#	 14824#	 14861#	 14899#	 14938#	 14977#	 15017#
	 15055#	 15100#	 15144#	 15183#	 15230#	 15282#	 15320#	 15361#	 15402#	 15441#	 15482#	 15520#	 15561#	 15602#
	 15643#	 15684#	 15723#	 15763#	 15803#	 15844#	 15885#	 15923#	 15962#	 16000#	 16044#	 16082#	 16122#	 16162#
	 16203#	 16241#	 16280#	 16319#	 16359#	 16398#	 16438#	 16477#	 16519#	 16561#	 16599#	 16636#	 16676#	 16715#
	 16753#	 16791#	 16830#	 16868#	 16908#	 16947#	 16987#	 17026#	 17064#	 17103#	 17143#	 17182#	 17221#	 17260#
	 17299#	 17338#	 17379#	 17416#	 17457#	 17498#	 17539#	 17580#	 17621#	 17662#	 17700#	 17738#	 17776#	 17815#
	 17853#	 17890#	 17929#	 17968#	 18006#	 18044#	 18083#	 18122#	 18163#	 18204#	 18245#	 18286#	 18327#	 18364#
	 18405#	 18461#	 18508#	 18522	 18538	 18558#	 18572	 18574	 18588	 18590	 18606#	 18621	 18636	 18637
	 18658#	 18707#	 18722	 18723	 18737	 18738	 18757#	 18771	 18773	 18787	 18789	 18805#	 18820	 18821
	 18835	 18836	 18857#	 18897#	 18938#	 18981#	 19025#	 19052#	 20288#	 20332#	 20376#	 20422#	 20473#	 20483
	 20484	 20505	 20527#	 20551	 20552	 20557	 20580#	 20625#	 20675#	 20686	 20698	 20712#	 20723	 20736
	 20868#	 20904#	 20941#	 20975#	 21033#	 21127#	 21189#	 21205	 21206	 21210	 21211	 21212	 21232#
ADD1	  4090#
ADD1A	  4122#
ADD1B	  4160#
ADD1C	  4194#
ADD2	  4104#	  4114
ADD2A	  4136#	  4151
ADD2B	  4174#	  4184
ADD2C	  4208#	  4230
ADD3	  4109#	  4116
ADD3A	  4141#	  4153
ADD3B	  4179#	  4186
ADD3C	  4213#	  4232
ADD4C	  4227	  4229#
ADDA1	 18456#
ADDA2	 18470#	 18494
ADDA3	 18475#	 18496
ADDB1	  4443#
ADDB1A	  4478#
ADDB1B	  4513#
ADDB2	  4457#	  4469
ADDB2A	  4492#	  4504
ADDB2B	  4527#	  4540                                                                                                     SEQ 0580
ADDB3	  4462#	  4471
ADDB3A	  4497#	  4506
ADDB3B	  4532#	  4542
ADDBA1	 18601#
ADDBA2	 18615#	 18642
ADDBA3	 18620#	 18644
ADDI1	  4341#
ADDI1A	  4373#
ADDI1B	  4407#
ADDI2	  4355#	  4364
ADDI2A	  4387#	  4398
ADDI2B	  4421#	  4434
ADDI3	  4360#	  4366
ADDI3A	  4392#	  4400
ADDI3B	  4426#	  4436
ADDIA1	 18553#
ADDIA2	 18567#	 18592
ADDIA3	 18573#	 18594
ADDM1	  4239#
ADDM1A	  4273#
ADDM1B	  4307#
ADDM2	  4253#	  4264
ADDM2A	  4287#	  4298
ADDM2B	  4321#	  4332
ADDM3	  4259#	  4266
ADDM3A	  4293#	  4300
ADDM3B	  4326#	  4334
ADDMA1	 18503#
ADDMA2	 18517#	 18542
ADDMA3	 18523#	 18544
AJSJ1	 10529#
AJSJ2	 10543#	 10554
AJSJ3	 10548#	 10556
ALTMGO	   480#	 21498
ANCAB1	 15356#
ANCAB2	 15370#	 15386
ANCAB3	 15375#	 15388
ANCAI4	 11206#
ANCAI5	 11220#	 11234
ANCAI6	 11226#	 11236
ANCBB1	 15597#
ANCBB2	 15611#	 15627
ANCBB3	 15616#	 15629
ANCBIA	 11435#
ANCBIB	 11449#	 11463
ANCBIC	 11455#	 11465
ANCMB1	 15436#
ANCMB2	 15450#	 15466
ANCMB3	 15455#	 15468
ANCMIA	 11282#
ANCMIB	 11296#	 11310
ANCMIC	 11302#	 11312
ANDB1	 15315#                                                                                                            SEQ 0581
ANDB2	 15329#	 15345
ANDB3	 15334#	 15347
ANDI4	 11167#
ANDI5	 11181#	 11195
ANDI6	 11187#	 11197
AOJ1	  9663#
AOJ2	  9677#	  9690
AOJ3	  9682#	  9692
AOJE1	  9701#
AOJE2	  9716#	  9727
AOJE3	  9718#	  9728
AOJG1	  9812#
AOJG2	  9826#	  9842
AOJG3	  9831#	  9844
AOJGA	  9739#
AOJGB	  9753#	  9760	  9761
AOJGE1	  9853#
AOJGE2	  9867#	  9875	  9877
AOJL1	  9772#
AOJL2	  9786#	  9801
AOJL3	  9791#	  9803
AOJLE1	  9886#
AOJLE2	  9900#	  9907	  9908
AOS1	  9353#
AOS2	  9367#	  9401
AOS3	  9372#	  9403
AOS4	  9387	  9394	  9400#
AOSE1	  9413#
AOSE2	  9428#	  9443
AOSE3	  9429#	  9444
AOSG1	  9543#
AOSG2	  9557#	  9576
AOSG3	  9562#	  9578
AOSGA	  9456#
AOSGB	  9470#	  9485
AOSGC	  9475#	  9487
AOSGE1	  9630#
AOSGE2	  9644#	  9653	  9654
AOSL1	  9499#
AOSL2	  9513#	  9531
AOSL3	  9518#	  9533
AOSLE1	  9588#
AOSLE2	  9602#
AOSLE3	  9603#	  9618
AOSLE4	  9607#	  9619
APR	 19196	 19202	 19204	 19214
AROV	   394#	 19160
AROVA	  4224	  4226#
AROVTP	   394#
AROVU	   394#
ASH1	  4034#
ASH2	  4048#	  4053	  4055
ASH3	  4063#                                                                                                            SEQ 0582
ASH4	  4077#	  4082	  4084
ASHOV	  3988#
ASHOV1	  4002#	  4025	  4027
ASSS1	 10490#
ASSS2	 10504#	 10518
ASSS3	 10509#	 10520
AST	   595#	 21306
ASTF	 21287#	 21287	 21304	 21307	 21309
ATSIN	   596#
BEGEND	   476#	 21264
BEGIN	    71	    74	    76	    77	    78	    79	    80	    81	   383	   384	   407#	 21675
BEGIN1	   423#	   477
BELL	   599#
BIS	   394#
BLOK	 19170#	 19170	 19193	 19229#	 19229	 19266#	 19266	 19303#	 19303	 19340#	 19340	 19377#	 19377	 19414#
	 19414	 19452#	 19452	 19489#	 19489	 19526#	 19526	 19563#	 19563	 19599#	 19599	 19644#	 19644	 19687#
	 19687	 19730#	 19730	 19777#	 19777	 19825#	 19825	 19876#	 19876	 19930#	 19930	 19973#	 19973	 20016#
	 20016	 20059#	 20059	 20101#	 20101	 20157#	 20157	 20202#	 20202	 20245#	 20245
BMACA	  2441#
BMACA1	  2455#	  2460	  2471
BMACA2	  2460#	  2473
BMACB	  2525#
BMACB1	  2539#	  2554
BMACB2	  2544#	  2556
BMACM	  2482#
BMACM1	  2496#	  2501	  2507	  2514
BMACM2	  2501#	  2516	  2641
BMAN	  2397#
BMAN1	  2411#	  2422	  2429
BMAN2	  2416#	  2431
BMCAM	  2612#
BMCAM1	  2626#	  2639
BMCAM2	  2631#
BMCMM	  2565#
BMCMM1	  2579#	  2586	  2602
BMCMM2	  2584#	  2604
BMEQ	  2357#
BMEQ1	  2371#	  2385
BMEQ2	  2376#	  2387
BMICA	  2189#
BMICA1	  2203#	  2219
BMICA2	  2208#	  2221
BMICB	  2273#
BMICB1	  2287#	  2303
BMICB2	  2292#	  2305
BMICM	  2230#
BMICM1	  2244#	  2255	  2262
BMICM2	  2249#	  2264
BMIOR	  2148#
BMIOR1	  2162#	  2169	  2179
BMIOR2	  2167#	  2181
BMSA	  2648#
BMSA1	  2662#	  2669	  2676                                                                                             SEQ 0583
BMSA2	  2667#	  2678
BMSM	  2685#
BMSM1	  2699#	  2711
BMSM2	  2704#	  2713
BMSMM	  2720#
BMSMM1	  2734#	  2741	  2757
BMSMM2	  2739#	  2759
BMX	  2314#
BMX1	  2328#	  2333	  2346
BMX2	  2333#	  2348
BOLA	  1695#
BOLA1	  1714#	  1725	  1727
BOLAB	  2062#
BOLAB1	  2081#	  2097	  2099
BOLAC	  1777#
BOLAC1	  1796#	  1807	  1809
BOLAX	  1981#
BOLAX1	  2000#	  2013	  2015
BOLCA	  1283#
BOLCA1	  1393#	  1441
BOLCA2	  1398#	  1443
BOLCAI	  1379#
BOLCM	  1904#
BOLCM1	  1923#	  1928	  1930
BOLEQ	  1816#
BOLEQ1	  1835#	  1847	  1849
BOLOB	  2022#
BOLOB1	  2041#	  2053	  2055
BOLOC	  1938#
BOLOC1	  1957#	  1972	  1974
BOLOS	  1734#
BOLOS1	  1753#	  1767	  1769
BOLSA	  2106#
BOLSA1	  2125#	  2137	  2139
BOLSM	  1856#
BOLSM1	  1875#	  1896	  1898
BOLX	  1451#
BOLZI	  1599#
BOLZI1	  1618#	  1687	  1689
BOTHF	  4220	  4225#
BUFSIZ	 19182#	 19182	 20297	 20341	 20385	 20431	 20482	 20536	 20589	 20634	 21198	 21241
CAI1	 10812#
CAI2	 10826#	 10841
CAI3	 10832#	 10843
CAIE1	 10852#
CAIE2	 10866#	 10881
CAIE3	 10872#	 10883
CAIG1	 10974#
CAIG2	 10990#	 11002
CAIG3	 10996#	 11004
CAIGA	 11130#
CAIGB	 11146#	 11157
CAIGC	 11151#	 11158                                                                                                     SEQ 0584
CAIGE1	 11015#
CAIGE2	 11029#	 11042
CAIGE3	 11035#	 11043
CAIL1	 10932#
CAIL2	 10948#	 10960
CAIL3	 10954#	 10962
CAILA	 11090#
CAILB	 11106#	 11117
CAILC	 11111#	 11118
CAILE1	 11052#
CAILE2	 11066#	 11079
CAILE3	 11072#	 11080
CAIN1	 10892#
CAIN2	 10906#	 10920
CAIN3	 10912#	 10922
CAM1	   771	   804#
CAM10	 10566#
CAM11	 10581#	 10597
CAM12	 10588#	 10599
CAMG1	 10740#
CAMG2	 10754#	 10765
CAMG3	 10759#	 10767
CAMGE1	 10696#
CAMGE2	 10710#	 10729
CAMGE3	 10715#	 10731
CAML1	 10608#
CAML2	 10622#	 10641
CAML3	 10627#	 10643
CAMLA	 10776#
CAMLB	 10790#	 10801
CAMLC	 10795#	 10803
CAMLE1	 10652#
CAMLE2	 10666#	 10685
CAMLE3	 10671#	 10687
CAMNE1	   823#	   892	   894
CCA	   394#
CDP	 21026#	 21068	 21070	 21071	 21097	 21098	 21100	 21101
CHAIN	   188#	 19142
CHNOFF	   394#
CHNON	   394#
CKPP	 21120#	 21154	 21161	 21163	 21164	 21165	 21166	 21167	 21169
CLKU	   394#
CLOCKF	   462#
CMPLXT	   734	   743	   746	   749	   752	   755	   758	   761	   793#	   816	   915	  1023	  1127	  1259
	  1311	  1348	  1391	  1484	  1524	  1564	  1611	  1707	  1746	  1789	  1828	  1868	  1916	  1950
	  1993	  2034	  2074	  2118	  2160	  2201	  2242	  2285	  2326	  2369	  2409	  2453	  2494	  2537
	  2577	  2624	  2660	  2697	  2732	  2778	  2815	  2859	  2904	  2944	  2985	  3158	  3332	  3376
	  3585	  3621	  3659	  3701	  3742	  3782	  3814	  3853	  3895	  3929	  3964	  4000	  4046	  4075
	  4102	  4134	  4172	  4206	  4251	  4285	  4319	  4353	  4385	  4419	  4455	  4490	  4525	  4561
	  4598	  4632	  4665	  4698	  4734	  4769	  4801	  4835	  4871	  4907	  4944	  4980	  5016	  5056
	  5094	  5138	  5184	  5228	  5267	  5301	  5342	  5383	  5425	  5462	  5499	  5536	  5574	  5612
	  5650	  5687	  5726	  5764	  5805	  5846	  5890	  5933	  5975	  6013	  6049	  6091	  6132	  6176
	  6223	  6265	  6302	  6340	  6374	  6411	  6446	  6486	  6520	  6557	  6590	  6630	  6666	  6703     SEQ 0585
	  6751	  6799	  6848	  6896	  6938	  6981	  7026	  7069	  7107	  7142	  7180	  7221	  7260	  7301
	  7343	  7390	  7438	  7483	  7524	  7564	  7603	  7645	  7684	  7731	  7772	  7812	  7853	  7893
	  7932	  7972	  8011	  8055	  8094	  8133	  8174	  8217	  8257	  8298	  8337	  8376	  8416	  8455
	  8494	  8533	  8573	  8613	  8654	  8697	  8740	  8785	  8827	  8872	  8915	  8964	  9015	  9059
	  9096	  9131	  9163	  9201	  9237	  9279	  9324	  9365	  9425	  9468	  9511	  9555	  9600	  9642
	  9675	  9713	  9751	  9784	  9824	  9865	  9898	  9930	  9972	 10015	 10058	 10093	 10138	 10182
	 10217	 10251	 10289	 10327	 10358	 10399	 10439	 10470	 10502	 10541	 10578	 10620	 10664	 10708
	 10752	 10788	 10824	 10864	 10904	 10944	 10986	 11027	 11064	 11102	 11142	 11179	 11218	 11257
	 11294	 11333	 11369	 11408	 11447	 11486	 11525	 11562	 11602	 11640	 11679	 11719	 11755	 11793
	 11832	 11871	 11910	 11948	 11987	 12027	 12067	 12107	 12146	 12185	 12226	 12270	 12315	 12363
	 12409	 12455	 12493	 12534	 12574	 12613	 12655	 12697	 12745	 12790	 12845	 12895	 12931	 12979
	 13017	 13056	 13095	 13134	 13172	 13218	 13261	 13306	 13351	 13400	 13438	 13477	 13515	 13554
	 13593	 13633	 13671	 13710	 13750	 13790	 13831	 13872	 13910	 13949	 13989	 14018	 14060	 14098
	 14137	 14180	 14223	 14267	 14311	 14349	 14389	 14429	 14468	 14507	 14549	 14587	 14627	 14669
	 14709	 14750	 14793	 14831	 14868	 14906	 14945	 14984	 15024	 15062	 15107	 15151	 15190	 15237
	 15289	 15327	 15368	 15409	 15448	 15489	 15527	 15568	 15609	 15650	 15691	 15730	 15770	 15810
	 15851	 15892	 15930	 15969	 16007	 16051	 16089	 16129	 16169	 16210	 16248	 16287	 16326	 16366
	 16405	 16445	 16484	 16526	 16568	 16606	 16643	 16683	 16722	 16760	 16798	 16837	 16875	 16915
	 16954	 16994	 17033	 17071	 17110	 17150	 17189	 17228	 17267	 17306	 17345	 17386	 17423	 17464
	 17505	 17546	 17587	 17628	 17669	 17707	 17745	 17783	 17822	 17860	 17897	 17936	 17975	 18013
	 18051	 18090	 18129	 18170	 18211	 18252	 18293	 18334	 18371	 18412	 18468	 18515	 18565	 18613
	 18665	 18714	 18764	 18812	 18864	 18904	 18945	 18988	 19032	 19059	 20295	 20339	 20383	 20429
	 20480	 20534	 20587	 20632	 20682	 20719	 20875	 20911	 20948	 20982	 21040	 21134	 21196	 21239
CNTLC	   479#
CNTRP	   394#
COMMA	   588#
CONSW	   463#	 19135	 19141	 21499	 21523
COUNT	 20746#	 20756#	 20756	 20769	 20772	 20778	 20807	 20827	 20844	 21310	 21313
CPOPJ	   483#
CPOPJ1	   481#
CRLF	   318	   319	   583#
CRLF2	   322	   323	   585#
CRY0	   394#	 19160
CRY0A	  4218	  4222#
CRY0B	  9384	  9389#
CRY1	   394#	 19160
CRY1B	  9385	  9396#
CSHFLG	   642#
CSHMEM	   643#
CTRP	   394#
CYCL60	   636#
DCK	   394#
DDTLNK	   202#	   421
DDTSRT	   421#
DEBUG	    67#	 21666	 21667
DECVER	     4#	    10	    25	   442
DF22F	   547#
DFRT1	 20755#	 20785
DFRT2	 20757#	 20763	 20767
DFRT3	 20765	 20768#	 20780	 20786
DFRT4	 20774	 20781#
DFRTFG	 20754#	 20754	 20800#	 20800	 21314	 21316
DFRTST	 20748#                                                                                                            SEQ 0586
DFT	 20793#
DFT1	 20801#	 20854
DFT2	 20808#	 20814	 20818
DFT3	 20816	 20819#	 20846	 20855
DFT4	 20841	 20847#	 20852
DIAGMN	   410#
DING	   174#	 21504
DOLLAR	   602#
DSKUPD	   447
EBIT0	   394#
EBIT1	   394#
EBIT10	   394#
EBIT11	   394#
EBIT12	   394#
EBIT13	   394#
EBIT14	   394#
EBIT15	   394#
EBIT2	   394#
EBIT3	   394#
EBIT4	   394#
EBIT5	   394#
EBIT6	   394#
EBIT7	   394#
EBIT8	   394#
EBIT9	   394#
END	 21674#
ENDFIX	   722#
ENDSLD	 21664#
EQVB1	 15638#
EQVB2	 15652#	 15668
EQVB3	 15657#	 15670
EQVIA	 11474#
EQVIB	 11488#	 11502
EQVIC	 11494#	 11504
ERDIAG	 21368
ERMORE	   496#	 21491
EROLD	    68#	   394
EROUT1	 21279#	 21323
EROUT2	 21276	 21320#
ERRELB	    70#	 21368
ERRLOP	   814#	   814	   913#	   913	  1021#	  1021	  1125#	  1125	  1257#	  1257	  1309#	  1309	  1346#	  1346
	  1389#	  1389	  1482#	  1482	  1522#	  1522	  1562#	  1562	  1609#	  1609	  1705#	  1705	  1744#	  1744
	  1787#	  1787	  1826#	  1826	  1866#	  1866	  1914#	  1914	  1948#	  1948	  1991#	  1991	  2032#	  2032
	  2072#	  2072	  2116#	  2116	  2158#	  2158	  2199#	  2199	  2240#	  2240	  2283#	  2283	  2324#	  2324
	  2367#	  2367	  2407#	  2407	  2451#	  2451	  2492#	  2492	  2535#	  2535	  2575#	  2575	  2622#	  2622
	  2658#	  2658	  2695#	  2695	  2730#	  2730	  2776#	  2776	  2813#	  2813	  2857#	  2857	  2902#	  2902
	  2942#	  2942	  2983#	  2983	  3156#	  3156	  3330#	  3330	  3374#	  3374	  3583#	  3583	  3619#	  3619
	  3657#	  3657	  3699#	  3699	  3740#	  3740	  3780#	  3780	  3812#	  3812	  3851#	  3851	  3893#	  3893
	  3927#	  3927	  3962#	  3962	  3998#	  3998	  4044#	  4044	  4073#	  4073	  4100#	  4100	  4132#	  4132
	  4170#	  4170	  4204#	  4204	  4249#	  4249	  4283#	  4283	  4317#	  4317	  4351#	  4351	  4383#	  4383
	  4417#	  4417	  4453#	  4453	  4488#	  4488	  4523#	  4523	  4559#	  4559	  4596#	  4596	  4630#	  4630
	  4663#	  4663	  4696#	  4696	  4732#	  4732	  4767#	  4767	  4799#	  4799	  4833#	  4833	  4869#	  4869
	  4905#	  4905	  4942#	  4942	  4978#	  4978	  5014#	  5014	  5054#	  5054	  5092#	  5092	  5136#	  5136     SEQ 0587
	  5182#	  5182	  5226#	  5226	  5265#	  5265	  5299#	  5299	  5340#	  5340	  5381#	  5381	  5423#	  5423
	  5460#	  5460	  5497#	  5497	  5534#	  5534	  5572#	  5572	  5610#	  5610	  5648#	  5648	  5685#	  5685
	  5724#	  5724	  5762#	  5762	  5803#	  5803	  5844#	  5844	  5888#	  5888	  5931#	  5931	  5973#	  5973
	  6011#	  6011	  6047#	  6047	  6089#	  6089	  6130#	  6130	  6174#	  6174	  6221#	  6221	  6263#	  6263
	  6300#	  6300	  6338#	  6338	  6372#	  6372	  6409#	  6409	  6444#	  6444	  6484#	  6484	  6518#	  6518
	  6555#	  6555	  6588#	  6588	  6628#	  6628	  6664#	  6664	  6701#	  6701	  6749#	  6749	  6797#	  6797
	  6846#	  6846	  6894#	  6894	  6936#	  6936	  6979#	  6979	  7024#	  7024	  7067#	  7067	  7105#	  7105
	  7140#	  7140	  7178#	  7178	  7219#	  7219	  7258#	  7258	  7299#	  7299	  7341#	  7341	  7388#	  7388
	  7436#	  7436	  7481#	  7481	  7522#	  7522	  7562#	  7562	  7601#	  7601	  7643#	  7643	  7682#	  7682
	  7729#	  7729	  7770#	  7770	  7810#	  7810	  7851#	  7851	  7891#	  7891	  7930#	  7930	  7970#	  7970
	  8009#	  8009	  8053#	  8053	  8092#	  8092	  8131#	  8131	  8172#	  8172	  8215#	  8215	  8255#	  8255
	  8296#	  8296	  8335#	  8335	  8374#	  8374	  8414#	  8414	  8453#	  8453	  8492#	  8492	  8531#	  8531
	  8571#	  8571	  8611#	  8611	  8652#	  8652	  8695#	  8695	  8738#	  8738	  8783#	  8783	  8825#	  8825
	  8870#	  8870	  8913#	  8913	  8962#	  8962	  9013#	  9013	  9057#	  9057	  9094#	  9094	  9129#	  9129
	  9161#	  9161	  9199#	  9199	  9235#	  9235	  9277#	  9277	  9322#	  9322	  9363#	  9363	  9423#	  9423
	  9466#	  9466	  9509#	  9509	  9553#	  9553	  9598#	  9598	  9640#	  9640	  9673#	  9673	  9711#	  9711
	  9749#	  9749	  9782#	  9782	  9822#	  9822	  9863#	  9863	  9896#	  9896	  9928#	  9928	  9970#	  9970
	 10013#	 10013	 10056#	 10056	 10091#	 10091	 10136#	 10136	 10180#	 10180	 10215#	 10215	 10249#	 10249
	 10287#	 10287	 10325#	 10325	 10356#	 10356	 10397#	 10397	 10437#	 10437	 10468#	 10468	 10500#	 10500
	 10539#	 10539	 10576#	 10576	 10618#	 10618	 10662#	 10662	 10706#	 10706	 10750#	 10750	 10786#	 10786
	 10822#	 10822	 10862#	 10862	 10902#	 10902	 10942#	 10942	 10984#	 10984	 11025#	 11025	 11062#	 11062
	 11100#	 11100	 11140#	 11140	 11177#	 11177	 11216#	 11216	 11255#	 11255	 11292#	 11292	 11331#	 11331
	 11367#	 11367	 11406#	 11406	 11445#	 11445	 11484#	 11484	 11523#	 11523	 11560#	 11560	 11600#	 11600
	 11638#	 11638	 11677#	 11677	 11717#	 11717	 11753#	 11753	 11791#	 11791	 11830#	 11830	 11869#	 11869
	 11908#	 11908	 11946#	 11946	 11985#	 11985	 12025#	 12025	 12065#	 12065	 12105#	 12105	 12144#	 12144
	 12183#	 12183	 12224#	 12224	 12268#	 12268	 12313#	 12313	 12361#	 12361	 12407#	 12407	 12453#	 12453
	 12491#	 12491	 12532#	 12532	 12572#	 12572	 12611#	 12611	 12653#	 12653	 12695#	 12695	 12743#	 12743
	 12788#	 12788	 12843#	 12843	 12893#	 12893	 12929#	 12929	 12977#	 12977	 13015#	 13015	 13054#	 13054
	 13093#	 13093	 13132#	 13132	 13170#	 13170	 13216#	 13216	 13259#	 13259	 13304#	 13304	 13349#	 13349
	 13398#	 13398	 13436#	 13436	 13475#	 13475	 13513#	 13513	 13552#	 13552	 13591#	 13591	 13631#	 13631
	 13669#	 13669	 13708#	 13708	 13748#	 13748	 13788#	 13788	 13829#	 13829	 13870#	 13870	 13908#	 13908
	 13947#	 13947	 13987#	 13987	 14016#	 14016	 14058#	 14058	 14096#	 14096	 14135#	 14135	 14178#	 14178
	 14221#	 14221	 14265#	 14265	 14309#	 14309	 14347#	 14347	 14387#	 14387	 14427#	 14427	 14466#	 14466
	 14505#	 14505	 14547#	 14547	 14585#	 14585	 14625#	 14625	 14667#	 14667	 14707#	 14707	 14748#	 14748
	 14791#	 14791	 14829#	 14829	 14866#	 14866	 14904#	 14904	 14943#	 14943	 14982#	 14982	 15022#	 15022
	 15060#	 15060	 15105#	 15105	 15149#	 15149	 15188#	 15188	 15235#	 15235	 15287#	 15287	 15325#	 15325
	 15366#	 15366	 15407#	 15407	 15446#	 15446	 15487#	 15487	 15525#	 15525	 15566#	 15566	 15607#	 15607
	 15648#	 15648	 15689#	 15689	 15728#	 15728	 15768#	 15768	 15808#	 15808	 15849#	 15849	 15890#	 15890
	 15928#	 15928	 15967#	 15967	 16005#	 16005	 16049#	 16049	 16087#	 16087	 16127#	 16127	 16167#	 16167
	 16208#	 16208	 16246#	 16246	 16285#	 16285	 16324#	 16324	 16364#	 16364	 16403#	 16403	 16443#	 16443
	 16482#	 16482	 16524#	 16524	 16566#	 16566	 16604#	 16604	 16641#	 16641	 16681#	 16681	 16720#	 16720
	 16758#	 16758	 16796#	 16796	 16835#	 16835	 16873#	 16873	 16913#	 16913	 16952#	 16952	 16992#	 16992
	 17031#	 17031	 17069#	 17069	 17108#	 17108	 17148#	 17148	 17187#	 17187	 17226#	 17226	 17265#	 17265
	 17304#	 17304	 17343#	 17343	 17384#	 17384	 17421#	 17421	 17462#	 17462	 17503#	 17503	 17544#	 17544
	 17585#	 17585	 17626#	 17626	 17667#	 17667	 17705#	 17705	 17743#	 17743	 17781#	 17781	 17820#	 17820
	 17858#	 17858	 17895#	 17895	 17934#	 17934	 17973#	 17973	 18011#	 18011	 18049#	 18049	 18088#	 18088
	 18127#	 18127	 18168#	 18168	 18209#	 18209	 18250#	 18250	 18291#	 18291	 18332#	 18332	 18369#	 18369
	 18410#	 18410	 18466#	 18466	 18513#	 18513	 18563#	 18563	 18611#	 18611	 18663#	 18663	 18712#	 18712
	 18762#	 18762	 18810#	 18810	 18862#	 18862	 18902#	 18902	 18943#	 18943	 18986#	 18986	 19030#	 19030
	 19057#	 19057	 19073	 19191#	 19191	 19228#	 19228	 19265#	 19265	 19302#	 19302	 19339#	 19339	 19376#
	 19376	 19413#	 19413	 19451#	 19451	 19488#	 19488	 19525#	 19525	 19562#	 19562	 19598#	 19598	 19643#
	 19643	 19686#	 19686	 19729#	 19729	 19776#	 19776	 19824#	 19824	 19875#	 19875	 19929#	 19929	 19972#
	 19972	 20015#	 20015	 20058#	 20058	 20100#	 20100	 20156#	 20156	 20201#	 20201	 20244#	 20244	 20293#    SEQ 0588
	 20293	 20337#	 20337	 20381#	 20381	 20427#	 20427	 20478#	 20478	 20532#	 20532	 20585#	 20585	 20630#
	 20630	 20680#	 20680	 20717#	 20717	 20751#	 20751	 20796	 20873#	 20873	 20909#	 20909	 20946#	 20946
	 20980#	 20980	 21038#	 21038	 21132#	 21132	 21194#	 21194	 21237#	 21237	 21275	 21348	 21509	 21512
	 21513
ERRMES	    52	    53	    54	    55	    56	    57	    58	    59	    60	    61	 21330#
ERROUT	 20784	 20851	 21265#
ERRPC	   467#	 21335	 21365	 21377
ERRT1	 21301#	 21311
ERRTLS	   468#	 21268	 21333	 21516
ERSTOP	   177#	 21500
EXCASB	    64#	   445
EXCH1	  1247#
EXCH2	  1261#	  1273
EXCH3	  1266#	  1275
EXIOT	   394#
FINAL	 20747#	 20783	 21290
FLAGS	 19160#	 20348	 20439
FOV	   394#	 19160
FOVU	   394#
FRDLNK	   200#
FSELNK	   199#
FXU	   394#
GDP	 21025#	 21067	 21068	 21069	 21072	 21080	 21081	 21082
HLL1	 15918#
HLL2	 15932#	 15946
HLL3	 15937#	 15948
HLLE1	 17333#
HLLE2	 17347#	 17363
HLLE3	 17353#	 17365
HLLEI1	 17374#
HLLEI2	 17388#	 17400
HLLEI3	 17394#	 17402
HLLEM1	 17411#
HLLEM2	 17425#	 17441
HLLEM3	 17431#	 17443
HLLES1	 17452#
HLLES2	 17466#	 17482
HLLES3	 17471#	 17484
HLLI1	 15957#
HLLI2	 15971#	 15984
HLLI3	 15977#	 15986
HLLM1	 15995#
HLLM2	 16009#	 16024
HLLM3	 16015#	 16026
HLLO1	 16863#
HLLO2	 16877#	 16890
HLLO3	 16882#	 16892
HLLOI1	 16903#
HLLOI2	 16917#	 16931
HLLOI3	 16923#	 16933
HLLOM1	 16942#
HLLOM2	 16956#	 16970
HLLOM3	 16962#	 16972                                                                                                     SEQ 0589
HLLOS1	 16982#
HLLOS2	 16996#	 17010
HLLOS3	 17001#	 17012
HLLS1	 16039#
HLLS2	 16053#	 16066
HLLS3	 16059#	 16068
HLLZ1	 16556#
HLLZ2	 16570#	 16583
HLLZ3	 16575#	 16585
HLLZI1	 16594#
HLLZI2	 16608#	 16620
HLLZI3	 16614#	 16622
HLLZM1	 16631#
HLLZM2	 16645#	 16659
HLLZM3	 16651#	 16661
HLLZS1	 16671#
HLLZS2	 16685#	 16699
HLLZS3	 16690#	 16701
HLR1	 16393#
HLR2	 16407#	 16422
HLR3	 16412#	 16424
HLRE1	 18281#
HLRE2	 18295#	 18311
HLRE3	 18301#	 18313
HLREI1	 18322#
HLREI2	 18336#	 18348
HLREI3	 18342#	 18350
HLREM1	 18359#
HLREM2	 18373#	 18389
HLREM3	 18379#	 18391
HLRES1	 18400#
HLRES2	 18414#	 18430
HLRES3	 18419#	 18432
HLRI1	 16433#
HLRI2	 16447#	 16461
HLRI3	 16453#	 16463
HLRM1	 16472#
HLRM2	 16486#	 16502
HLRM3	 16492#	 16504
HLRO1	 17963#
HLRO2	 17977#	 17990
HLRO3	 17982#	 17992
HLROI1	 18001#
HLROI2	 18015#	 18028
HLROI3	 18021#	 18030
HLROM1	 18039#
HLROM2	 18053#	 18067
HLROM3	 18059#	 18069
HLROS1	 18078#
HLROS2	 18092#	 18106
HLROS3	 18097#	 18108
HLRS1	 16514#
HLRS2	 16528#	 16545                                                                                                     SEQ 0590
HLRS3	 16533#	 16547
HLRZ1	 17810#
HLRZ2	 17824#	 17837
HLRZ3	 17829#	 17839
HLRZI1	 17848#
HLRZI2	 17862#	 17874
HLRZI3	 17868#	 17876
HLRZM1	 17885#
HLRZM2	 17899#	 17913
HLRZM3	 17905#	 17915
HLRZS1	 17924#
HLRZS2	 17938#	 17952
HLRZS3	 17943#	 17954
HRL1	 16236#
HRL2	 16250#	 16264
HRL3	 16256#	 16266
HRLE1	 18117#
HRLE2	 18131#	 18147
HRLE3	 18137#	 18149
HRLEI1	 18158#
HRLEI2	 18172#	 18188
HRLEI3	 18178#	 18190
HRLEM1	 18199#
HRLEM2	 18213#	 18229
HRLEM3	 18219#	 18231
HRLES1	 18240#
HRLES2	 18254#	 18270
HRLES3	 18259#	 18272
HRLI1	 16275#
HRLI2	 16289#	 16303
HRLI3	 16295#	 16305
HRLM1	 16314#
HRLM2	 16328#	 16342
HRLM3	 16334#	 16344
HRLO1	 17177#
HRLO2	 17191#	 17205
HRLO3	 17197#	 17207
HRLOI1	 17216#
HRLOI2	 17230#	 17244
HRLOI3	 17236#	 17246
HRLOM1	 17255#
HRLOM2	 17269#	 17283
HRLOM3	 17275#	 17285
HRLOS1	 17294#
HRLOS2	 17308#	 17322
HRLOS3	 17313#	 17324
HRLS1	 16354#
HRLS2	 16368#	 16382
HRLS3	 16373#	 16384
HRLZ1	 17657#
HRLZ2	 17671#	 17684
HRLZ3	 17677#	 17686
HRLZI1	 17695#                                                                                                            SEQ 0591
HRLZI2	 17709#	 17722
HRLZI3	 17715#	 17724
HRLZM1	 17733#
HRLZM2	 17747#	 17760
HRLZM3	 17753#	 17762
HRLZS1	 17771#
HRLZS2	 17785#	 17799
HRLZS3	 17791#	 17801
HRR1	 16077#
HRR2	 16091#	 16106
HRR3	 16097#	 16108
HRRE1	 17493#
HRRE2	 17507#	 17523
HRRE3	 17513#	 17525
HRREI1	 17534#
HRREI2	 17548#	 17564
HRREI3	 17554#	 17566
HRREM1	 17575#
HRREM2	 17589#	 17605
HRREM3	 17595#	 17607
HRRES1	 17616#
HRRES2	 17630#	 17646
HRRES3	 17635#	 17648
HRRI1	 16117#
HRRI2	 16131#	 16146
HRRI3	 16137#	 16148
HRRM1	 16157#
HRRM2	 16171#	 16186
HRRM3	 16177#	 16188
HRRO1	 17021#
HRRO2	 17035#	 17048
HRRO3	 17040#	 17050
HRROI1	 17059#
HRROI2	 17073#	 17087
HRROI3	 17079#	 17089
HRROM1	 17098#
HRROM2	 17112#	 17126
HRROM3	 17118#	 17128
HRROS1	 17138#
HRROS2	 17152#	 17166
HRROS3	 17157#	 17168
HRRS1	 16198#
HRRS2	 16212#	 16225
HRRS3	 16218#	 16227
HRRZ1	 16710#
HRRZ2	 16724#	 16737
HRRZ3	 16730#	 16739
HRRZI1	 16748#
HRRZI2	 16762#	 16775
HRRZI3	 16768#	 16777
HRRZM1	 16786#
HRRZM2	 16800#	 16813
HRRZM3	 16806#	 16815                                                                                                     SEQ 0592
HRRZS1	 16825#
HRRZS2	 16839#	 16852
HRRZS3	 16844#	 16854
HYPEN	   593#
INHCSH	   185#
INHPAG	   182#
IOCLR	   394#
IORB1	 15556#
IORB2	 15570#	 15586
IORB3	 15575#	 15588
IORIA	 11396#
IORIB	 11410#	 11424
IORIC	 11416#	 11426
ITERAT	    88#	   440
ITRCH1	   500#
ITRCNT	   440#
JFCNTR	 19075#	 19075	 19111
JFOND	 19097	 19105	 19111#
JFOT0	 19072#
JFOT0A	 19076#	 19112
JFOT1	 19083#	 19096	 19104
JFOT2	 19086#	 19090
JFOT3	 19087	 19091#
JFOT4	 19099#	 19106
JFOT5	 19102#	 19107
JFOT6	 19101	 19104#
JFTAB	 19093	 19106#
JMP1	  9047#
JMP2	  9061#	  9073
JMP3	  9066#	  9075
JMPE1	  9084#
JMPE2	  9099#	  9107
JMPE3	  9101#	  9108
JMPG1	  9189#
JMPG2	  9204#	  9214
JMPG3	  9208#	  9215
JMPGE1	  9225#
JMPGE2	  9240#	  9255
JMPGE3	  9245#	  9257
JMPL1	  9151#
JMPL2	  9166#	  9178
JMPL3	  9167#	  9177
JMPL4	  9170#	  9179
JMPLE1	  9267#
JMPLE2	  9282#	  9299
JMPLE3	  9286#	  9301
JMPLEA	  9312#
JMPLEB	  9326#	  9331	  9340
JMPLEC	  9332#	  9342
JMPN1	  9119#
JMPN2	  9133#	  9138	  9139
JOB41	   394#
JOBAPR	   394#                                                                                                            SEQ 0593
JOBCNI	   394#
JOBDDT	   394#
JOBFF	   394#
JOBOPC	   394#	 21497
JOBREL	   394#
JOBREN	   394#
JOBSA	   394#
JOBSYM	   394#
JOBTPC	   394#
JOBUSY	   394#
JOBUUO	   394#
JOBVER	   394#
JRA1	 20575#
JRA1A	 20595#	 20608
JRA2	 20596#	 20604	 20607
JRA3	 20590	 20599#
JRAA	 20620#
JRAA1	 20640#	 20658
JRAB	 20642#	 20657
JRAC	 20647#	 20653
JRAD	 20635	 20649#
JRST1	 20283#
JRST1A	 20303#	 20316
JRST2	 20305#	 20315
JRST3	 20306#	 20311
JRST4	 20304	 20308#
JRST5	 20298	 20309#
JSA1	 20522#
JSA1A	 20488#	 20509
JSA2	 20544#	 20563
JSA3	 20550#	 20559
JSA4	 20537	 20551	 20554#	 20555
JSAA	 20468#
JSAB	 20490#	 20508
JSAC	 20498#	 20504
JSAD	 20483	 20497	 20499#
JSAX	 20542#	 20564
JSP1	 20327#
JSP1A	 20347#	 20361
JSP2	 20350#	 20357	 20360
JSP3	 20342	 20354#
JSPA1	 20391#	 20405
JSR1	 20417#
JSR1A	 20437#	 20457
JSR2	 20444#	 20452
JSR3	 20445#	 20456
JSR4	 20432	 20447#	 20450
JSRA	 20371#
JSRB	 20393#	 20400
JSRC	 20394#	 20404
JSRD	 20386	 20395#
K1	 19109#
KAIFLG	   457#                                                                                                            SEQ 0594
KLFLG	   458#	 21270
KNTRP	   394#
KTRP	   394#
LACLK	   394#
LACLKE	   394#
LAPRAL	   394#	 19214
LAPRP1	   394#	 19196	 19204	 19214
LAPRP2	   394#
LAPRP3	   394#
LAPRP4	   394#
LAPRP5	   394#
LAPRP6	   394#
LAPRP7	   394#
LCHNOF	   394#
LCHNON	   394#
LCNTXT	   394#
LCNXER	   394#
LCPAER	   394#	 19204
LCPSFT	   394#
LCPWRF	   394#
LDATAF	   394#
LDLNK	   201#	   410	   412
LDNXER	   394#
LDPAER	   394#	 19196
LDPSFT	   394#
LDPWRF	   394#
LEBXMH	   394#
LEBXML	   394#
LENXER	   394#
LEPAER	   394#
LEPSFT	   394#
LEPWRF	   394#
LEUPFW	   394#
LEXCMP	   394#
LFLGCL	   394#
LFLGDS	   394#
LFLGEN	   394#
LFLGST	   394#
LFP	   597#
LINSTF	   394#
LINT	   394#
LIOCLR	   394#
LLACBL	   394#
LLDUSB	   394#
LMBXMH	   394#
LMBXML	   394#
LNXMEN	   394#
LNXMER	   394#
LOOPER	   176#	 21502
LPAREN	   394#
LPARER	   394#	 19202
LPFWPC	   394#
LPGFTR	   394#                                                                                                            SEQ 0595
LPICH1	   394#
LPICH2	   394#
LPICH3	   394#
LPICH4	   394#
LPICH5	   394#
LPICH6	   394#
LPICH7	   394#
LPICHA	   394#
LPICLR	   394#
LPIIP1	   394#
LPIIP2	   394#
LPIIP3	   394#
LPIIP4	   394#
LPIIP5	   394#
LPIIP6	   394#
LPIIP7	   394#
LPIOFF	   394#
LPION	   394#
LPRCH1	   394#
LPRCH2	   394#
LPRCH3	   394#
LPRCH4	   394#
LPRCH5	   394#
LPRCH6	   394#
LPRCH7	   394#
LPRFMH	   394#
LPRFML	   394#
LPSFT	   394#
LPSFTE	   394#
LPWRFE	   394#
LPWRFL	   394#
LREQSE	   394#
LRQCLR	   394#
LSECMO	   394#
LSH1	  3952#
LSH1P	  5371#
LSH1PA	  5385#	  5404
LSH1PB	  5390#	  5406
LSH2	  3966#	  3980
LSH3	  3971#	  3982
LSHA	  3917#
LSHB	  3931#	  3944
LSHC	  3936#	  3946
LSMODE	   394#
LSNXER	   394#
LSPAER	   394#
LSPSFT	   394#
LSPWRF	   394#
LTBASH	   394#
LTBASL	   394#
LTRPAE	   394#
LTRPEN	   394#
LUSCMP	   394#                                                                                                            SEQ 0596
LUUO	   394#
LUUO1	    52#	   527	   528
LUUO10	   527	   532
LUUO11	    59#	   527	   532
LUUO12	    60#	   527	   533
LUUO13	    61#	   527	   533
LUUO14	   527	   534
LUUO15	   527	   534
LUUO16	   527	   535
LUUO17	   527	   535
LUUO2	    53#	   527	   529
LUUO20	   527	   536
LUUO21	   527	   536
LUUO22	   527	   537
LUUO23	   527	   537
LUUO24	   527	   538
LUUO25	   527	   538
LUUO26	   527	   539
LUUO27	   527	   539
LUUO3	    54#	   527	   529
LUUO30	   527	   540
LUUO31	   527	   540
LUUO32	   527	   541
LUUO33	   527	   541
LUUO4	    55#	   527	   530
LUUO5	    56#	   527	   530
LUUO6	    57#	   527	   531
LUUO7	    58#	   527	   531
LUUOI	   394#
LWRITE	   394#
MAPNEW	   548#
MARGIN	   470#
MCNVER	     3#	    10	    25	   442
MEMFD1	 19117#
MEMFD2	 19121#	 19139
MEMFD3	 19120	 19135#
MEMFD4	 19126	 19137	 19141#
MEMLOW	   550#	 19125	 19167	 19169	 19177	 19179	 20687	 20696	 20724	 20733	 20755	 20762	 20806	 20813
	 20992	 21060	 21146
MEMMAP	    66#	   448
MEMONC	   726#	   726	 19146	 19156
MEMSIZ	   551#	 19123	 19124	 19150	 19165	 19172
MEMTOT	   549#
MICNT	 21269	 21273	 21281	 21336#	 21336	 21337	 21350
MINUS	   592#
MODDVC	   184#
MODDVL	   383	   383#	   443
MODDVU	   384	   384#	   444
MODLNK	   203#	   407
MODULO	 19175#	 19175	 20684	 20721	 20753	 20805	 20918	 20989	 21047	 21141	 21149
MONCTL	   460#	 21351	 21514
MONFLG	   459#
MONTEN	   461#                                                                                                            SEQ 0597
MONTYP	   674#
MOVAC	   903#
MOVAC1	   922#	  1002	  1004
MOVN1	  5004#
MOVN2	  5018#	  5035
MOVN3	  5023#	  5037
MOVS1	  3770#
MOVS2	  3784#	  3794
MOVS3	  3789#	  3796
MOVSA	  3730#
MOVSB	  3744#	  3761
MOVSC	  3749#	  3763
MOVSIA	  3883#
MOVSIB	  3897#	  3909
MOVSIC	  3903#	  3911
MOVSMA	  3802#
MOVSMB	  3816#	  3833
MOVSMC	  3821#	  3835
MOVSSA	  3841#
MOVSSB	  3855#	  3875
MOVSSC	  3860#	  3877
MPVU	   394#
MSADT	 19183	 19188#
MSADT1	 19195	 19197#	 19205	 19208
MSADT2	 19194#	 19211
MSADT3	 19201	 19205#
MSADT4	 19202#
MST1	 19165#
MST2	 19172#
MUUO	   394#
MUUOPC	   394#
MVEI1	  4968#
MVEI2	  4982#	  4996
MVEI3	  4988#	  4998
MVEM1	  3647#
MVEM2	  3661#	  3680
MVEM3	  3666#	  3682
MVES1	  3689#
MVES2	  3703#	  3722
MVES3	  3708#	  3724
MVM1	  5216#
MVM2	  5230#	  5246
MVM3	  5235#	  5248
MVMI1	  5255#
MVMI2	  5269#	  5280
MVMI3	  5274#	  5282
MVMM1	  5289#
MVMM2	  5303#	  5321
MVMM3	  5308#	  5323
MVMS1	  5330#
MVMS2	  5344#	  5362
MVMS3	  5349#	  5364
MVNI1	  5044#                                                                                                            SEQ 0598
MVNI2	  5058#	  5072
MVNI3	  5064#	  5074
MVNM1	  5082#
MVNM2	  5096#	  5115
MVNM3	  5102#	  5117
MVNS1	  5126#
MVNS2	  5140#	  5161
MVNS3	  5146#	  5163
MVNSA	  5172#
MVNSB	  5186#	  5207
MVNSC	  5192#	  5209
NOPNT	   172#	 21279	 21341
NXMU	   394#
OPRSEL	   186#	 19136
OPTIME	   562#
ORCAB1	 15718#
ORCAB2	 15732#	 15747
ORCAB3	 15737#	 15749
ORCAI1	 11550#
ORCAI2	 11564#	 11579
ORCAI3	 11570#	 11581
ORCBB1	 15839#
ORCBB2	 15853#	 15869
ORCBB3	 15858#	 15871
ORCBI1	 11667#
ORCBI2	 11681#	 11696
ORCBI3	 11687#	 11698
ORCMB1	 15798#
ORCMB2	 15812#	 15828
ORCMB3	 15817#	 15830
ORCMI1	 11628#
ORCMI2	 11642#	 11656
ORCMI3	 11648#	 11658
P	   229	   230	   231	   232	   394#	   482	 21284
PAG	   394#
PALERS	   178#	 21321	 21524
PAREA1	    82#	   438
PAREA2	    83#	   439
PAREA3	    84#	   436
PAREA4	    85#	   437
PAREA5	    86#	   449
PAREA6	    87#	   450
PAREA7	   449#
PAREA8	   450#
PART3	 12951	 12960#
PART4	 19143	 19145	 19147	 19157	 19164#
PARU	   394#
PASCNT	   464#	 21356	 21360
PATCH	 21667#
PDISF	   559#
PDLOVU	   394#
PDOVTP	   394#
PERIOD	   589#                                                                                                            SEQ 0599
PFSTRT	   416#
PGMEND	    69#	 21673
PGMNAM	   441	   776#	 19130
PI	 21273
PICHN1	   394#
PICHN2	   394#
PICHN3	   394#
PICHN4	   394#
PICHN5	   394#
PICHN6	   394#
PICHN7	   394#
PICHNA	   394#
PICLR	   394#
PIOFF	   394#
PION	   394#
PLIST	   628#	   628
PLISTE	   628	   630#
PLISTS	   629#
PLUS	   594#
PNTENB	   558#
PNTEXT	   437#
PNTFLG	   557#
PNTINH	   560#
PNTLPT	   173#
PNTNAM	   436#
PNTRP	   394#
PNTSPC	   561#
POPE	 21027#	 21071	 21085	 21086	 21087
POPJ1	 21184#
POPJ1A	 21204#	 21220
POPJ2	 21207#	 21215	 21219
POPJ3	 21206	 21211#
POPJ4	 21199	 21214#
POPOIN	 21024#	 21065	 21066	 21085	 21093	 21094
POPRET	 21062#	 21106
POPT	 21028#
POPT1	 21042#	 21058	 21064	 21104
POPT2	 21065#
POPT3	 21074#	 21083
POPT4	 21073	 21085#	 21088
POPT5	 21072	 21090#
PP	 21119#	 21161	 21162	 21164	 21165
PROCED	 21274	 21339#	 21339	 21503	 21510
PTRP	   394#
PUSHJ1	 21227#
PUSHJ2	 21249#	 21256
PUSHJ3	 21252#	 21260
PUSHJ4	 21242	 21255#
PUSHJA	 21247#	 21261
PUSHT	 21122#
PUSHT1	 21136#	 21147	 21151	 21174	 21176
PUSHT2	 21141#
PUSHT3	 21153#                                                                                                            SEQ 0600
PUSHT4	 21155#	 21171
PUSHT5	 21153	 21160#	 21170
PVPAGI	   655#
QUEST	   600#
RA	    36#	 19231	 19232	 19233	 19234	 19235	 19236	 19237	 19243	 19244	 19245	 19246	 19268	 19269
	 19270	 19271	 19272	 19273	 19274	 19279	 19280	 19281	 19282	 19305	 19306	 19307	 19308	 19309
	 19310	 19311	 19317	 19318	 19319	 19320	 19342	 19343	 19344	 19345	 19346	 19347	 19348	 19354
	 19355	 19356	 19357	 19379	 19380	 19381	 19382	 19383	 19384	 19385	 19391	 19392	 19393	 19394
	 19416	 19417	 19418	 19419	 19420	 19421	 19422	 19429	 19430	 19431	 19432	 19454	 19455	 19456
	 19457	 19458	 19459	 19460	 19466	 19467	 19468	 19469	 19491	 19492	 19493	 19494	 19495	 19496
	 19497	 19503	 19504	 19505	 19506	 19528	 19529	 19530	 19531	 19532	 19533	 19534	 19540	 19541
	 19542	 19543	 19565	 19566	 19567	 19568	 19569	 19570	 19571	 19576	 19577	 19578	 19579	 19601
	 19602	 19603	 19604	 19605	 19606	 19607	 19608	 19609	 19612	 19614	 19615	 19618	 19622	 19624
	 19646	 19647	 19648	 19649	 19650	 19651	 19652	 19657	 19658	 19659	 19660	 19664	 19665	 19666
	 19667	 19689	 19690	 19691	 19692	 19693	 19694	 19695	 19700	 19701	 19702	 19703	 19707	 19708
	 19709	 19710	 19732	 19733	 19734	 19735	 19736	 19737	 19738	 19746	 19748	 19755	 19757	 19779
	 19780	 19781	 19782	 19783	 19784	 19785	 19793	 19795	 19803	 19805	 19827	 19828	 19829	 19830
	 19831	 19832	 19833	 19838	 19842	 19844	 19845	 19846	 19850	 19854	 19856	 19878	 19879	 19880
	 19881	 19882	 19883	 19884	 19889	 19891	 19897	 19899	 19903	 19905	 19932	 19933	 19934	 19935
	 19936	 19937	 19938	 19945	 19947	 19975	 19976	 19977	 19978	 19979	 19980	 19981	 19988	 19990
	 20018	 20019	 20020	 20021	 20022	 20023	 20024	 20031	 20033	 20061	 20062	 20063	 20064	 20065
	 20066	 20067	 20074	 20076	 20103	 20104	 20105	 20106	 20107	 20108	 20109	 20113	 20115	 20159
	 20160	 20161	 20162	 20163	 20164	 20165	 20170	 20171	 20172	 20176	 20177	 20181	 20182	 20204
	 20205	 20206	 20207	 20208	 20209	 20210	 20216	 20217	 20219	 20220	 20223	 20225	 20247	 20248
	 20249	 20250	 20251	 20252	 20253	 20258	 20259	 20260	 20261	 20264	 20265	 20267	 20268
RADIX	   603#
RADLSC	   605#
RADLSP	   604#
RAN	   730	   819#	   819	   822	   830	   836	   842	   848	   854	   860	   866	   872	   878	   884
	   893	   918#	   918	   921	   930	   931	   932	   933#	   933	   934#	   934	   937	   938	   939
	   940#	   940	   941#	   941	   944	   945	   946	   947#	   947	   948#	   948	   951	   952	   953
	   954#	   954	   955#	   955	   958	   959	   960	   961#	   961	   962#	   962	   965	   966	   967
	   968#	   968	   969#	   969	   972	   973	   974	   975#	   975	   976#	   976	   979	   980	   981
	   982#	   982	   983#	   983	   986	   987	   988	   989#	   989	   990#	   990	   993	   994	   995
	   996#	   996	   997#	   997	  1003	  1026#	  1026	  1029	  1040#	  1040	  1048#	  1048	  1056#	  1056
	  1064#	  1064	  1072#	  1072	  1080#	  1080	  1088#	  1088	  1096#	  1096	  1107	  1130#	  1130	  1133
	  1149	  1150	  1151	  1152	  1160	  1161	  1162	  1163	  1171	  1172	  1173	  1174	  1182	  1183
	  1184	  1185	  1193	  1194	  1195	  1196	  1204	  1205	  1206	  1207	  1215	  1216	  1217	  1218
	  1226	  1227	  1228	  1229	  1238	  1262#	  1262	  1265	  1269	  1270	  1271	  1274	  1314#	  1314
	  1317	  1320#	  1320	  1321	  1326#	  1326	  1327	  1332	  1351#	  1351	  1354	  1357#	  1357	  1358
	  1363#	  1363	  1364	  1369	  1394#	  1394	  1397	  1442	  1487#	  1487	  1490	  1492	  1493	  1494
	  1496	  1497	  1498	  1502	  1504	  1505	  1508	  1527#	  1527	  1530	  1532	  1533	  1534	  1536
	  1537	  1538	  1542	  1544	  1545	  1548	  1567#	  1567	  1570	  1572	  1573	  1574	  1576	  1577
	  1578	  1582	  1584	  1585	  1588	  1614#	  1614	  1617	  1641#	  1641	  1645	  1646	  1647	  1648
	  1649	  1650	  1652	  1653	  1655	  1663#	  1663	  1667	  1668	  1669	  1670	  1671	  1672	  1674
	  1675	  1677	  1688	  1710#	  1710	  1713	  1714	  1715	  1716	  1718	  1719	  1721	  1726	  1749#
	  1749	  1752	  1756	  1757	  1758	  1759	  1763	  1768	  1792#	  1792	  1795	  1796	  1799	  1800
	  1801	  1803	  1808	  1831#	  1831	  1834	  1835	  1838#	  1838	  1839	  1840	  1842	  1844	  1845
	  1848	  1871#	  1871	  1874	  1882	  1884	  1888	  1890	  1897	  1919#	  1919	  1922	  1923	  1925
	  1926	  1929	  1953#	  1953	  1956	  1957	  1960	  1964	  1966	  1967	  1969	  1970	  1973	  1996#
	  1996	  1999	  2000	  2003	  2007	  2010	  2011	  2014	  2037#	  2037	  2040	  2041	  2043	  2044
	  2046	  2054	  2077#	  2077	  2080	  2081	  2083	  2084	  2087	  2088	  2092	  2094	  2095	  2098
	  2121#	  2121	  2124	  2134	  2135	  2138	  2163#	  2163	  2166	  2180	  2204#	  2204	  2207	  2220     SEQ 0601
	  2245#	  2245	  2248	  2263	  2288#	  2288	  2291	  2304	  2329#	  2329	  2332	  2347	  2372#	  2372
	  2375	  2386	  2412#	  2412	  2415	  2430	  2456#	  2456	  2459	  2472	  2497#	  2497	  2500	  2515
	  2540#	  2540	  2543	  2555	  2580#	  2580	  2583	  2599	  2600	  2603	  2627#	  2627	  2630	  2640
	  2663#	  2663	  2666	  2673	  2674	  2677	  2700#	  2700	  2703	  2712	  2735#	  2735	  2738	  2754
	  2755	  2758	  2781#	  2781	  2784	  2794	  2818#	  2818	  2821	  2832	  2838	  2862#	  2862	  2865
	  2876	  2882	  2907#	  2907	  2910	  2917	  2923	  2947#	  2947	  2950	  2957	  2963	  2988#	  2988
	  2991	  3004	  3010	  3017	  3023	  3030	  3036	  3043	  3049	  3056	  3062	  3069	  3075	  3082
	  3088	  3095	  3101	  3108	  3114	  3121	  3127	  3137	  3161#	  3161	  3164	  3177	  3183	  3190
	  3196	  3203	  3209	  3216	  3222	  3229	  3235	  3242	  3248	  3255	  3261	  3268	  3274	  3281
	  3287	  3294	  3300	  3310	  3335#	  3335	  3338	  3339	  3342	  3347	  3348	  3353	  3379#	  3379
	  3382	  3383	  3403	  3404	  3410	  3411	  3419	  3420	  3426	  3427	  3435	  3436	  3442	  3443
	  3451	  3452	  3458	  3459	  3467	  3468	  3474	  3475	  3483	  3484	  3490	  3491	  3499	  3500
	  3506	  3507	  3515	  3516	  3522	  3523	  3531	  3532	  3538	  3539	  3547	  3548	  3554	  3555
	  3566	  3588#	  3588	  3591	  3602	  3624#	  3624	  3627	  3638	  3662#	  3662	  3665	  3675	  3676
	  3677	  3678	  3681	  3704#	  3704	  3707	  3719	  3720	  3723	  3745#	  3745	  3748	  3758	  3759
	  3762	  3785#	  3785	  3788	  3791	  3792	  3795	  3817#	  3817	  3820	  3830	  3831	  3834	  3856#
	  3856	  3859	  3870	  3876	  3898#	  3898	  3901	  3902	  3910	  3932#	  3932	  3935	  3945	  3967#
	  3967	  3970	  3973	  3981	  4026	  4054	  4083	  4105#	  4105	  4108	  4110	  4111	  4112	  4115
	  4137#	  4137	  4140	  4148	  4149	  4152	  4175#	  4175	  4178	  4179	  4185	  4209#	  4209	  4212
	  4216	  4217	  4231	  4254#	  4254	  4257	  4258	  4262	  4265	  4288#	  4288	  4291	  4292	  4299
	  4322#	  4322	  4325	  4333	  4356#	  4356	  4359	  4361	  4365	  4388#	  4388	  4391	  4399	  4422#
	  4422	  4425	  4435	  4458#	  4458	  4461	  4465	  4466	  4467	  4470	  4493#	  4493	  4496	  4501
	  4505	  4528#	  4528	  4531	  4536	  4538	  4541	  4564#	  4564	  4567	  4574	  4575	  4578	  4601#
	  4601	  4604	  4606	  4612	  4635#	  4635	  4638	  4642	  4645	  4668#	  4668	  4671	  4679	  4701#
	  4701	  4704	  4705	  4709	  4710	  4711	  4714	  4737#	  4737	  4740	  4744	  4745	  4746	  4749
	  4772#	  4772	  4775	  4777	  4781	  4804#	  4804	  4807	  4815	  4838#	  4838	  4841	  4850	  4874#
	  4874	  4877	  4881	  4882	  4883	  4886	  4910#	  4910	  4913	  4923	  4947#	  4947	  4950	  4954
	  4956	  4959	  4983#	  4983	  4986	  4987	  4989	  4997	  5019#	  5019	  5022	  5032	  5033	  5036
	  5059#	  5059	  5062	  5063	  5073	  5097#	  5097	  5100	  5101	  5113	  5116	  5141#	  5141	  5144
	  5145	  5162	  5187#	  5187	  5190	  5191	  5208	  5231#	  5231	  5234	  5236	  5247	  5270#	  5270
	  5273	  5281	  5304#	  5304	  5307	  5309	  5322	  5345#	  5345	  5348	  5350	  5351	  5363	  5386#
	  5386	  5389	  5391	  5405	  5428#	  5428	  5431	  5438	  5439	  5442	  5465#	  5465	  5468	  5479
	  5502#	  5502	  5505	  5512	  5513	  5516	  5539#	  5539	  5542	  5554	  5577#	  5577	  5580	  5588
	  5589	  5592	  5615#	  5615	  5618	  5626	  5627	  5630	  5653#	  5653	  5656	  5663	  5664	  5667
	  5690#	  5690	  5693	  5700	  5701	  5702	  5703	  5706	  5729#	  5729	  5732	  5735	  5736	  5740
	  5743	  5767#	  5767	  5770	  5777	  5778	  5782	  5785	  5809#	  5809	  5812	  5825	  5850#	  5850
	  5853	  5869	  5894#	  5894	  5897	  5911	  5937#	  5937	  5940	  5955	  5978#	  5978	  5981	  5985
	  5986	  5990	  5993	  6016#	  6016	  6019	  6025	  6026	  6029	  6052#	  6052	  6055	  6062	  6063
	  6067	  6070	  6095#	  6095	  6098	  6111	  6136#	  6136	  6139	  6155	  6180#	  6180	  6183	  6202
	  6227#	  6227	  6230	  6245	  6268#	  6268	  6271	  6272	  6275	  6278	  6282	  6305#	  6305	  6308
	  6309	  6315	  6317	  6320	  6343#	  6343	  6346	  6350	  6354	  6377#	  6377	  6380	  6387	  6388
	  6391	  6414#	  6414	  6417	  6426	  6449#	  6449	  6452	  6462	  6463	  6466	  6489#	  6489	  6492
	  6494	  6500	  6523#	  6523	  6526	  6535	  6560#	  6560	  6563	  6566	  6570	  6593#	  6593	  6596
	  6606	  6633#	  6633	  6636	  6641	  6644	  6669#	  6669	  6672	  6680	  6707#	  6707	  6710	  6728
	  6755#	  6755	  6758	  6776	  6803#	  6803	  6806	  6826	  6852#	  6852	  6855	  6873	  6900#	  6900
	  6903	  6916	  6942#	  6942	  6945	  6958	  6985#	  6985	  6988	  7002	  7030#	  7030	  7033	  7047
	  7072#	  7072	  7075	  7084	  7110#	  7110	  7113	  7116	  7117	  7120	  7145#	  7145	  7148	  7154
	  7157	  7183#	  7183	  7186	  7193	  7194	  7197	  7224#	  7224	  7227	  7234	  7235	  7238	  7263#
	  7263	  7266	  7279	  7304#	  7304	  7307	  7317	  7318	  7321	  7346#	  7346	  7349	  7367	  7393#
	  7393	  7396	  7406	  7407	  7411	  7412	  7415	  7441#	  7441	  7444	  7457	  7458	  7461	  7486#
	  7486	  7489	  7502	  7527#	  7527	  7530	  7537	  7538	  7541	  7567#	  7567	  7570	  7577	  7578
	  7581	  7606#	  7606	  7609	  7623	  7648#	  7648	  7651	  7658	  7659	  7662	  7687#	  7687	  7690
	  7709	  7734#	  7734	  7737	  7742	  7743	  7747	  7750	  7775#	  7775	  7778	  7790	  7815#	  7815     SEQ 0602
	  7818	  7823	  7824	  7828	  7831	  7856#	  7856	  7859	  7867	  7868	  7871	  7896#	  7896	  7899
	  7906	  7907	  7910	  7935#	  7935	  7938	  7949	  7975#	  7975	  7978	  7986	  7989	  8014#	  8014
	  8017	  8030	  8033	  8058#	  8058	  8061	  8068	  8069	  8072	  8097#	  8097	  8100	  8111	  8136#
	  8136	  8139	  8144	  8145	  8149	  8152	  8177#	  8177	  8180	  8195	  8220#	  8220	  8223	  8227
	  8228	  8231	  8232	  8235	  8260#	  8260	  8263	  8268	  8269	  8273	  8276	  8301#	  8301	  8304
	  8311	  8312	  8315	  8340#	  8340	  8343	  8354	  8379#	  8379	  8382	  8389	  8390	  8393	  8419#
	  8419	  8422	  8429	  8430	  8433	  8458#	  8458	  8461	  8468	  8469	  8472	  8497#	  8497	  8500
	  8511	  8536#	  8536	  8539	  8547	  8548	  8551	  8576#	  8576	  8579	  8591	  8616#	  8616	  8619
	  8628	  8629	  8632	  8657#	  8657	  8660	  8670	  8671	  8674	  8700#	  8700	  8703	  8712	  8714
	  8718	  8744#	  8744	  8747	  8755	  8757	  8760	  8788#	  8788	  8791	  8797	  8799	  8802	  8831#
	  8831	  8834	  8844	  8846	  8849	  8875#	  8875	  8878	  8892	  8918#	  8918	  8921	  8943	  8967#
	  8967	  8970	  8992	  9018#	  9018	  9021	  9035	  9062#	  9062	  9065	  9070	  9074	  9327#	  9327
	  9330	  9341	  9368#	  9368	  9371	  9372	  9402	  9440	  9471#	  9471	  9474	  9481	  9483	  9486
	  9514#	  9514	  9517	  9532	  9558#	  9558	  9561	  9577	  9678#	  9678	  9681	  9691	  9787#	  9787
	  9790	  9802	  9827#	  9827	  9830	  9843	  9876	  9933#	  9933	  9936	  9949	 10018#	 10018	 10021
	 10028	 10030	 10033	 10096#	 10096	 10099	 10115	 10141#	 10141	 10144	 10159	 10254#	 10254	 10257
	 10267	 10361#	 10361	 10364	 10377	 10402#	 10402	 10405	 10417	 10505#	 10505	 10508	 10515	 10519
	 10544#	 10544	 10547	 10551	 10555	 10582#	 10582	 10585	 10592	 10593	 10595	 10598	 10623#	 10623
	 10626	 10628	 10642	 10667#	 10667	 10670	 10672	 10686	 10711#	 10711	 10714	 10716	 10730	 10755#
	 10755	 10758	 10759	 10760	 10762	 10763	 10766	 10791#	 10791	 10794	 10795	 10796	 10798	 10799
	 10802	 10827#	 10827	 10830	 10842	 10867#	 10867	 10870	 10871	 10882	 10907#	 10907	 10910	 10911
	 10921	 11030#	 11030	 11033	 11034	 11067#	 11067	 11070	 11071	 11182#	 11182	 11185	 11186	 11196
	 11221#	 11221	 11224	 11225	 11235	 11260#	 11260	 11263	 11264	 11272	 11297#	 11297	 11300	 11301
	 11311	 11336#	 11336	 11339	 11340	 11347	 11372#	 11372	 11375	 11376	 11386	 11411#	 11411	 11414
	 11415	 11425	 11450#	 11450	 11453	 11454	 11464	 11489#	 11489	 11492	 11493	 11503	 11528#	 11528
	 11531	 11532	 11540	 11565#	 11565	 11568	 11569	 11580	 11605#	 11605	 11608	 11609	 11618	 11643#
	 11643	 11646	 11647	 11657	 11682#	 11682	 11685	 11686	 11697	 11722#	 11722	 11725	 11726	 11733
	 11758#	 11758	 11761	 11767	 11771	 11796#	 11796	 11799	 11810	 11835#	 11835	 11838	 11845	 11849
	 11874#	 11874	 11877	 11884	 11888	 11913#	 11913	 11916	 11922	 11926	 11951#	 11951	 11954	 11965
	 11990#	 11990	 11993	 12005	 12030#	 12030	 12033	 12045	 12070#	 12070	 12073	 12085	 12110#	 12110
	 12113	 12120	 12124	 12149#	 12149	 12152	 12159	 12163	 12188#	 12188	 12191	 12204	 12229#	 12229
	 12232	 12240	 12247	 12274#	 12274	 12277	 12292	 12319#	 12319	 12322	 12340	 12367#	 12367	 12370
	 12386	 12413#	 12413	 12416	 12433	 12458#	 12458	 12461	 12467	 12471	 12496#	 12496	 12499	 12512
	 12537#	 12537	 12540	 12552	 12577#	 12577	 12580	 12591	 12616#	 12616	 12619	 12633	 12658#	 12658
	 12661	 12668	 12672	 12701#	 12701	 12704	 12720	 12749#	 12749	 12752	 12767	 12794#	 12794	 12797
	 12822	 12849#	 12849	 12852	 12869	 12898#	 12898	 12901	 12907	 12911	 12934#	 12934	 12937	 12948
	 12982#	 12982	 12985	 12991	 12995	 13020#	 13020	 13023	 13034	 13059#	 13059	 13062	 13069	 13073
	 13098#	 13098	 13101	 13108	 13112	 13137#	 13137	 13140	 13146	 13150	 13175#	 13175	 13178	 13196
	 13221#	 13221	 13224	 13239	 13264#	 13264	 13267	 13284	 13309#	 13309	 13312	 13330	 13355#	 13355
	 13358	 13378	 13403#	 13403	 13406	 13412	 13416	 13441#	 13441	 13444	 13455	 13480#	 13480	 13483
	 13489	 13493	 13518#	 13518	 13521	 13532	 13557#	 13557	 13560	 13567	 13571	 13596#	 13596	 13599
	 13607	 13611	 13636#	 13636	 13639	 13645	 13649	 13674#	 13674	 13677	 13688	 13713#	 13713	 13716
	 13728	 13753#	 13753	 13756	 13768	 13793#	 13793	 13796	 13809	 13834#	 13834	 13837	 13850	 13875#
	 13875	 13878	 13884	 13888	 13913#	 13913	 13916	 13927	 13952#	 13952	 13955	 13967	 13992#	 13992
	 13995	 14021#	 14021	 14024	 14038	 14063#	 14063	 14066	 14072	 14076	 14101#	 14101	 14104	 14115
	 14140#	 14140	 14143	 14158	 14183#	 14183	 14186	 14201	 14226#	 14226	 14229	 14245	 14270#	 14270
	 14273	 14289	 14314#	 14314	 14317	 14323	 14327	 14352#	 14352	 14355	 14367	 14392#	 14392	 14395
	 14407	 14432#	 14432	 14435	 14446	 14471#	 14471	 14474	 14481	 14485	 14510#	 14510	 14513	 14527
	 14552#	 14552	 14555	 14561	 14565	 14590#	 14590	 14593	 14605	 14630#	 14630	 14633	 14647	 14672#
	 14672	 14675	 14687	 14712#	 14712	 14715	 14728	 14753#	 14753	 14756	 14771	 14796#	 14796	 14799
	 14805	 14809	 14834#	 14834	 14837	 14848	 14871#	 14871	 14874	 14880	 14884	 14909#	 14909	 14912
	 14923	 14948#	 14948	 14951	 14958	 14962	 14987#	 14987	 14990	 14998	 15002	 15027#	 15027	 15030
	 15036	 15040	 15065#	 15065	 15068	 15085	 15110#	 15110	 15113	 15129	 15154#	 15154	 15157	 15168     SEQ 0603
	 15193#	 15193	 15196	 15214	 15241#	 15241	 15244	 15265	 15292#	 15292	 15295	 15297	 15305	 15330#
	 15330	 15333	 15335	 15336	 15346	 15371#	 15371	 15374	 15376	 15377	 15387	 15412#	 15412	 15415
	 15418	 15422	 15426	 15451#	 15451	 15454	 15456	 15457	 15467	 15492#	 15492	 15495	 15497	 15505
	 15530#	 15530	 15533	 15535	 15536	 15546	 15571#	 15571	 15574	 15576	 15577	 15587	 15612#	 15612
	 15615	 15617	 15618	 15628	 15653#	 15653	 15656	 15658	 15659	 15669	 15694#	 15694	 15697	 15699
	 15708	 15733#	 15733	 15736	 15738	 15740	 15748	 15773#	 15773	 15776	 15778	 15779	 15788	 15813#
	 15813	 15816	 15818	 15819	 15829	 15854#	 15854	 15857	 15859	 15860	 15870	 15895#	 15895	 15898
	 15900	 15908	 15933#	 15933	 15936	 15940	 15942	 15947	 15972#	 15972	 15975	 15976	 15985	 16010#
	 16010	 16013	 16014	 16018	 16025	 16054#	 16054	 16057	 16058	 16067	 16092#	 16092	 16095	 16096
	 16102	 16107	 16132#	 16132	 16135	 16136	 16147	 16172#	 16172	 16175	 16176	 16184	 16187	 16213#
	 16213	 16216	 16217	 16226	 16251#	 16251	 16254	 16255	 16260	 16265	 16290#	 16290	 16293	 16294
	 16304	 16329#	 16329	 16332	 16333	 16340	 16343	 16369#	 16369	 16372	 16383	 16408#	 16408	 16411
	 16416	 16418	 16423	 16448#	 16448	 16451	 16452	 16462	 16487#	 16487	 16490	 16491	 16496	 16500
	 16503	 16529#	 16529	 16532	 16546	 16571#	 16571	 16574	 16577	 16579	 16584	 16609#	 16609	 16612
	 16613	 16621	 16646#	 16646	 16649	 16650	 16653	 16657	 16660	 16686#	 16686	 16689	 16700	 16725#
	 16725	 16728	 16729	 16733	 16738	 16763#	 16763	 16766	 16767	 16776	 16801#	 16801	 16804	 16805
	 16811	 16814	 16840#	 16840	 16843	 16853	 16878#	 16878	 16881	 16884	 16886	 16891	 16918#	 16918
	 16921	 16922	 16932	 16957#	 16957	 16960	 16961	 16964	 16968	 16971	 16997#	 16997	 17000	 17011
	 17036#	 17036	 17039	 17042	 17044	 17049	 17074#	 17074	 17077	 17078	 17081	 17088	 17113#	 17113
	 17116	 17117	 17120	 17124	 17127	 17153#	 17153	 17156	 17167	 17192#	 17192	 17195	 17196	 17201
	 17206	 17231#	 17231	 17234	 17235	 17245	 17270#	 17270	 17273	 17274	 17281	 17284	 17309#	 17309
	 17312	 17323	 17348#	 17348	 17351	 17352	 17355	 17359	 17364	 17389#	 17389	 17392	 17393	 17401
	 17426#	 17426	 17429	 17430	 17433	 17439	 17442	 17467#	 17467	 17470	 17483	 17508#	 17508	 17511
	 17512	 17515	 17519	 17524	 17549#	 17549	 17552	 17553	 17556	 17565	 17590#	 17590	 17593	 17594
	 17597	 17603	 17606	 17631#	 17631	 17634	 17647	 17672#	 17672	 17675	 17676	 17680	 17685	 17710#
	 17710	 17713	 17714	 17723	 17748#	 17748	 17751	 17752	 17758	 17761	 17786#	 17786	 17789	 17790
	 17800	 17825#	 17825	 17828	 17831	 17833	 17838	 17863#	 17863	 17866	 17867	 17875	 17900#	 17900
	 17903	 17904	 17907	 17911	 17914	 17939#	 17939	 17942	 17953	 17978#	 17978	 17981	 17984	 17986
	 17991	 18016#	 18016	 18019	 18020	 18029	 18054#	 18054	 18057	 18058	 18061	 18065	 18068	 18093#
	 18093	 18096	 18107	 18132#	 18132	 18135	 18136	 18139	 18143	 18148	 18173#	 18173	 18176	 18177
	 18180	 18189	 18214#	 18214	 18217	 18218	 18221	 18227	 18230	 18255#	 18255	 18258	 18271	 18296#
	 18296	 18299	 18300	 18303	 18307	 18312	 18337#	 18337	 18340	 18341	 18349	 18374#	 18374	 18377
	 18378	 18381	 18387	 18390	 18415#	 18415	 18418	 18431	 18471#	 18471	 18474	 18476	 18490	 18495
	 18518#	 18518	 18521	 18522	 18524	 18540	 18543	 18568#	 18568	 18571	 18572	 18593	 18616#	 18616
	 18619	 18621	 18622	 18643	 18668#	 18668	 18671	 18673	 18687	 18692	 18717#	 18717	 18720	 18722
	 18742	 18767#	 18767	 18770	 18771	 18792	 18815#	 18815	 18818	 18820	 18842	 18867#	 18867	 18870
	 18880	 18907#	 18907	 18910	 18920	 18948#	 18948	 18951	 18963	 18991#	 18991	 18994	 19007	 19077#
	 19077	 19080	 19083	 19091	 19094	 20491#	 20491	 20494	 20545#	 20545	 20548	 20549	 20550	 20643#
	 20643	 20646	 20647	 20649	 20650	 20652	 20757	 20760	 20808	 20811	 20878#	 20878	 20881	 20888
	 20914#	 20914	 20917	 20928	 20951#	 20951	 20954	 20961	 20985#	 20985	 20988	 21002	 21043#	 21043
	 21046	 21076#	 21076	 21079	 21105	 21137#	 21137	 21140	 21156#	 21156	 21159	 21175	 21446#	 21446
RAN1	   810#	   909#	  1017#	  1121#	  1253#	  1266	  1268	  1269	  1271	  1305#	  1342#	  1385#	  1478#	  1518#
	  1558#	  1605#	  1701#	  1740#	  1783#	  1822#	  1862#	  1910#	  1944#	  1987#	  2028#	  2068#	  2112#	  2154#
	  2195#	  2236#	  2279#	  2320#	  2363#	  2403#	  2447#	  2488#	  2531#	  2571#	  2618#	  2654#	  2691#	  2726#
	  2772#	  2786	  2789	  2791	  2809#	  2822	  2835	  2853#	  2866	  2879	  2898#	  2911	  2920	  2938#
	  2951	  2960	  2979#	  3005	  3013	  3018	  3026	  3031	  3039	  3044	  3052	  3057	  3065	  3070
	  3078	  3083	  3091	  3096	  3104	  3109	  3117	  3122	  3130	  3152#	  3178	  3186	  3191	  3199
	  3204	  3212	  3217	  3225	  3230	  3238	  3243	  3251	  3256	  3264	  3269	  3277	  3282	  3290
	  3295	  3303	  3326#	  3343	  3370#	  3579#	  3615#	  3653#	  3695#	  3736#	  3776#	  3808#	  3847#	  3860
	  3871	  3873	  3889#	  3923#	  3958#	  3971	  3978	  3994#	  4040#	  4069#	  4096#	  4128#	  4166#	  4200#
	  4245#	  4259	  4262	  4279#	  4293	  4296	  4313#	  4327	  4330	  4347#	  4379#	  4392	  4396	  4413#
	  4429	  4432	  4449#	  4462	  4465	  4467	  4484#	  4497	  4500	  4502	  4519#	  4533	  4536	  4538
	  4555#	  4568	  4575	  4592#	  4605	  4609	  4626#	  4659#	  4672	  4676	  4692#	  4706	  4709	  4711     SEQ 0604
	  4728#	  4763#	  4795#	  4808	  4812	  4829#	  4842	  4847	  4865#	  4878	  4881	  4883	  4901#	  4914
	  4918	  4920	  4938#	  4974#	  4988	  4994	  5010#	  5050#	  5064	  5070	  5088#	  5101	  5112	  5132#
	  5146	  5157	  5159	  5178#	  5192	  5203	  5205	  5222#	  5235	  5244	  5261#	  5275	  5278	  5295#
	  5308	  5316	  5317	  5319	  5336#	  5349	  5358	  5360	  5377#	  5419#	  5456#	  5469	  5476	  5493#
	  5530#	  5544	  5551	  5568#	  5606#	  5644#	  5681#	  5720#	  5758#	  5799#	  5840#	  5856	  5861	  5866
	  5884#	  5927#	  5969#	  6007#	  6043#	  6085#	  6126#	  6142	  6148	  6149	  6152	  6170#	  6217#	  6259#
	  6276	  6279	  6296#	  6334#	  6347	  6351	  6368#	  6405#	  6419	  6423	  6440#	  6456	  6463	  6480#
	  6514#	  6528	  6532	  6551#	  6584#	  6598	  6624#	  6660#	  6674	  6677	  6697#	  6745#	  6793#	  6842#
	  6890#	  6932#	  6975#	  7020#	  7063#	  7076	  7081	  7101#	  7136#	  7149	  7154	  7174#	  7215#	  7228
	  7235	  7254#	  7267	  7271	  7276	  7295#	  7311	  7318	  7337#	  7351	  7358	  7364	  7384#	  7432#
	  7477#	  7490	  7499	  7518#	  7558#	  7597#	  7639#	  7652	  7659	  7678#	  7692	  7700	  7706	  7725#
	  7739	  7742	  7747	  7766#	  7780	  7787	  7806#	  7847#	  7887#	  7926#	  7939	  7946	  7966#	  8005#
	  8049#	  8088#	  8101	  8108	  8127#	  8168#	  8182	  8187	  8192	  8211#	  8251#	  8292#	  8331#	  8344
	  8350	  8351	  8370#	  8410#	  8449#	  8488#	  8501	  8507	  8508	  8527#	  8567#	  8581	  8587	  8588
	  8607#	  8648#	  8691#	  8705	  8713	  8715	  8734#	  8779#	  8792	  8797	  8798	  8799	  8821#	  8866#
	  8882	  8887	  8889	  8909#	  8925	  8930	  8932	  8958#	  8973	  8979	  8981	  9009#	  9023	  9030
	  9032	  9053#	  9066	  9071	  9090#	  9100	  9101	  9105	  9106	  9125#	  9133	  9137	  9157#	  9169
	  9170	  9174	  9175	  9176	  9195#	  9207	  9208	  9212	  9213	  9231#	  9243	  9247	  9248	  9256
	  9273#	  9285	  9289	  9290	  9297	  9300	  9318#	  9333	  9337	  9338	  9359#	  9374	  9381	  9383
	  9419#	  9432	  9437	  9439	  9462#	  9476	  9481	  9483	  9505#	  9522	  9527	  9529	  9549#	  9567
	  9572	  9574	  9594#	  9606	  9614	  9616	  9617	  9636#	  9669#	  9707#	  9745#	  9754	  9759	  9778#
	  9792	  9799	  9818#	  9833	  9840	  9859#	  9868	  9873	  9892#	  9901	  9906	  9924#	  9966#	  9977
	  9988	 10009#	 10023	 10028	 10030	 10052#	 10061	 10067	 10069	 10087#	 10102	 10110	 10112	 10132#
	 10146	 10154	 10156	 10176#	 10185	 10191	 10193	 10211#	 10220	 10226	 10228	 10245#	 10283#	 10294
	 10295	 10296	 10302	 10303	 10321#	 10330	 10335	 10352#	 10393#	 10433#	 10442	 10447	 10464#	 10473
	 10478	 10496#	 10509	 10514	 10516	 10535#	 10572#	 10614#	 10631	 10636	 10637	 10639	 10658#	 10675
	 10680	 10681	 10683	 10702#	 10719	 10725	 10726	 10727	 10746#	 10782#	 10818#	 10834	 10838	 10839
	 10858#	 10874	 10878	 10879	 10898#	 10913	 10917	 10918	 10938#	 10952	 10954	 10958	 10959	 10980#
	 10994	 10996	 11000	 11001	 11021#	 11036	 11040	 11041	 11058#	 11073	 11077	 11078	 11096#	 11110
	 11111	 11115	 11116	 11136#	 11150	 11151	 11155	 11156	 11173#	 11187	 11193	 11212#	 11226	 11232
	 11251#	 11265	 11269	 11288#	 11302	 11308	 11327#	 11341	 11343	 11344	 11363#	 11377	 11383	 11402#
	 11416	 11422	 11441#	 11455	 11461	 11480#	 11494	 11500	 11519#	 11533	 11537	 11556#	 11570	 11577
	 11596#	 11610	 11615	 11634#	 11648	 11654	 11673#	 11687	 11694	 11713#	 11727	 11730	 11749#	 11787#
	 11800	 11807	 11826#	 11865#	 11904#	 11942#	 11955	 11962	 11981#	 11995	 12001	 12002	 12021#	 12035
	 12042	 12061#	 12101#	 12140#	 12179#	 12220#	 12264#	 12309#	 12327	 12332	 12333	 12337	 12357#	 12403#
	 12449#	 12487#	 12500	 12509	 12528#	 12568#	 12581	 12588	 12607#	 12649#	 12691#	 12709	 12717	 12739#
	 12757	 12763	 12764	 12784#	 12801	 12812	 12813	 12818	 12819	 12839#	 12856	 12865	 12866	 12889#
	 12925#	 12938	 12945	 12973#	 13011#	 13024	 13031	 13050#	 13089#	 13128#	 13166#	 13181	 13188	 13193
	 13212#	 13229	 13235	 13236	 13255#	 13269	 13276	 13281	 13300#	 13314	 13321	 13326	 13345#	 13363
	 13369	 13370	 13374	 13375	 13394#	 13432#	 13445	 13452	 13471#	 13509#	 13522	 13528	 13529	 13548#
	 13587#	 13627#	 13665#	 13678	 13684	 13685	 13704#	 13718	 13724	 13725	 13744#	 13758	 13764	 13765
	 13784#	 13798	 13805	 13806	 13825#	 13839	 13846	 13847	 13866#	 13904#	 13917	 13923	 13924	 13943#
	 13983#	 13996	 14012#	 14054#	 14092#	 14105	 14112	 14131#	 14145	 14150	 14151	 14155	 14174#	 14188
	 14193	 14198	 14217#	 14231	 14237	 14242	 14261#	 14275	 14281	 14282	 14286	 14305#	 14343#	 14356
	 14364	 14383#	 14423#	 14436	 14443	 14462#	 14501#	 14543#	 14581#	 14595	 14602	 14621#	 14635	 14644
	 14663#	 14677	 14684	 14703#	 14717	 14724	 14725	 14744#	 14758	 14768	 14787#	 14825#	 14838	 14845
	 14862#	 14900#	 14913	 14920	 14939#	 14978#	 15018#	 15056#	 15070	 15077	 15082	 15101#	 15119	 15125
	 15126	 15145#	 15159	 15165	 15184#	 15198	 15205	 15206	 15210	 15211	 15231#	 15250	 15256	 15257
	 15261	 15262	 15283#	 15296	 15300	 15302	 15321#	 15334	 15341	 15343	 15362#	 15375	 15382	 15384
	 15403#	 15416	 15417	 15421	 15423	 15442#	 15455	 15462	 15464	 15483#	 15496	 15500	 15501	 15502
	 15521#	 15534	 15541	 15543	 15562#	 15575	 15582	 15584	 15603#	 15616	 15623	 15625	 15644#	 15657
	 15664	 15666	 15685#	 15698	 15703	 15705	 15724#	 15737	 15743	 15745	 15764#	 15777	 15783	 15785
	 15804#	 15817	 15824	 15826	 15845#	 15858	 15865	 15867	 15886#	 15899	 15903	 15905	 15924#	 15938     SEQ 0605
	 15944	 15963#	 15978	 15982	 16001#	 16016	 16022	 16045#	 16059	 16062	 16064	 16083#	 16098	 16104
	 16123#	 16138	 16144	 16163#	 16178	 16184	 16204#	 16218	 16221	 16223	 16242#	 16257	 16262	 16281#
	 16296	 16301	 16320#	 16335	 16340	 16360#	 16373	 16378	 16380	 16399#	 16413	 16420	 16439#	 16454
	 16459	 16478#	 16493	 16500	 16520#	 16533	 16541	 16543	 16562#	 16576	 16581	 16600#	 16615	 16618
	 16637#	 16652	 16657	 16677#	 16690	 16695	 16697	 16716#	 16731	 16735	 16754#	 16769	 16773	 16792#
	 16807	 16811	 16831#	 16844	 16848	 16850	 16869#	 16883	 16888	 16909#	 16924	 16929	 16948#	 16963
	 16968	 16988#	 17001	 17006	 17008	 17027#	 17041	 17046	 17065#	 17080	 17085	 17104#	 17119	 17124
	 17144#	 17157	 17162	 17164	 17183#	 17198	 17203	 17222#	 17237	 17242	 17261#	 17276	 17281	 17300#
	 17313	 17318	 17320	 17339#	 17354	 17361	 17380#	 17395	 17398	 17417#	 17432	 17439	 17458#	 17471
	 17478	 17480	 17499#	 17514	 17521	 17540#	 17555	 17562	 17581#	 17596	 17603	 17622#	 17635	 17642
	 17644	 17663#	 17678	 17682	 17701#	 17716	 17720	 17739#	 17754	 17758	 17777#	 17791	 17795	 17797
	 17816#	 17830	 17835	 17854#	 17869	 17872	 17891#	 17906	 17911	 17930#	 17943	 17948	 17950	 17969#
	 17983	 17988	 18007#	 18022	 18026	 18045#	 18060	 18065	 18084#	 18097	 18102	 18104	 18123#	 18138
	 18145	 18164#	 18179	 18186	 18205#	 18220	 18227	 18246#	 18259	 18266	 18268	 18287#	 18302	 18309
	 18328#	 18343	 18346	 18365#	 18380	 18387	 18406#	 18419	 18426	 18428	 18462#	 18475	 18492	 18509#
	 18523	 18540	 18559#	 18573	 18590	 18607#	 18620	 18638	 18640	 18659#	 18672	 18689	 18708#	 18721
	 18739	 18758#	 18772	 18789	 18806#	 18819	 18837	 18839	 18858#	 18898#	 18939#	 18953	 18960	 18982#
	 18997	 19004	 19026#	 19035	 19053#	 19071#	 19082	 19092	 20289#	 20333#	 20352	 20356	 20377#	 20393
	 20395	 20396	 20423#	 20444	 20448	 20449	 20451	 20474#	 20528#	 20581#	 20626#	 20676#	 20713#	 20869#
	 20905#	 20942#	 20976#	 21034#	 21128#	 21190#	 21233#
RANDBS	   438#	   727
REENTR	   418#
RELIAB	   180#	   737	   767	 19136
RENTR1	    73	   773#
REPT	   394#
REPT1	   394#
REPTU	   516#
REQSET	   394#
RESRT1	    72	   493#
RESRT2	   494#
RETURN	   425#
ROTL2	  2803#
ROTL2A	  2817#	  2837
ROTL2B	  2822#	  2839
ROTLR	  3320#
ROTLR1	  3334#	  3341	  3352
ROTLR2	  3342#	  3354
ROTOV	  3573#
ROTOV1	  3587#	  3592	  3594	  3601
ROTOV2	  3592#	  3603
ROTR2	  2847#
ROTR2A	  2861#	  2881
ROTR2B	  2866#	  2883
RSTART	   169#
RTCL	  2973#
RTCLA	  2987#	  3136
RTCLB	  2992#	  3138
RTCLR	  3364#
RTCLR1	  3378#	  3385	  3565
RTCLR2	  3386#	  3567
RTCR	  3146#
RTCRA	  3160#	  3309
RTCRB	  3165#	  3311                                                                                                     SEQ 0606
RTIME	   769	   792#	   817	   916	  1024	  1128	  1260	  1312	  1349	  1392	  1485	  1525	  1565	  1612
	  1708	  1747	  1790	  1829	  1869	  1917	  1951	  1994	  2035	  2075	  2119	  2161	  2202	  2243
	  2286	  2327	  2370	  2410	  2454	  2495	  2538	  2578	  2625	  2661	  2698	  2733	  2779	  2816
	  2860	  2905	  2945	  2986	  3159	  3333	  3377	  3586	  3622	  3660	  3702	  3743	  3783	  3815
	  3854	  3896	  3930	  3965	  4001	  4047	  4076	  4103	  4135	  4173	  4207	  4252	  4286	  4320
	  4354	  4386	  4420	  4456	  4491	  4526	  4562	  4599	  4633	  4666	  4699	  4735	  4770	  4802
	  4836	  4872	  4908	  4945	  4981	  5017	  5057	  5095	  5139	  5185	  5229	  5268	  5302	  5343
	  5384	  5426	  5463	  5500	  5537	  5575	  5613	  5651	  5688	  5727	  5765	  5806	  5847	  5891
	  5934	  5976	  6014	  6050	  6092	  6133	  6177	  6224	  6266	  6303	  6341	  6375	  6412	  6447
	  6487	  6521	  6558	  6591	  6631	  6667	  6704	  6752	  6800	  6849	  6897	  6939	  6982	  7027
	  7070	  7108	  7143	  7181	  7222	  7261	  7302	  7344	  7391	  7439	  7484	  7525	  7565	  7604
	  7646	  7685	  7732	  7773	  7813	  7854	  7894	  7933	  7973	  8012	  8056	  8095	  8134	  8175
	  8218	  8258	  8299	  8338	  8377	  8417	  8456	  8495	  8534	  8574	  8614	  8655	  8698	  8741
	  8786	  8828	  8873	  8916	  8965	  9016	  9060	  9097	  9132	  9164	  9202	  9238	  9280	  9325
	  9366	  9426	  9469	  9512	  9556	  9601	  9643	  9676	  9714	  9752	  9785	  9825	  9866	  9899
	  9931	  9973	 10016	 10059	 10094	 10139	 10183	 10218	 10252	 10290	 10328	 10359	 10400	 10440
	 10471	 10503	 10542	 10579	 10621	 10665	 10709	 10753	 10789	 10825	 10865	 10905	 10945	 10987
	 11028	 11065	 11103	 11143	 11180	 11219	 11258	 11295	 11334	 11370	 11409	 11448	 11487	 11526
	 11563	 11603	 11641	 11680	 11720	 11756	 11794	 11833	 11872	 11911	 11949	 11988	 12028	 12068
	 12108	 12147	 12186	 12227	 12271	 12316	 12364	 12410	 12456	 12494	 12535	 12575	 12614	 12656
	 12698	 12746	 12791	 12846	 12896	 12932	 12980	 13018	 13057	 13096	 13135	 13173	 13219	 13262
	 13307	 13352	 13401	 13439	 13478	 13516	 13555	 13594	 13634	 13672	 13711	 13751	 13791	 13832
	 13873	 13911	 13950	 13990	 14019	 14061	 14099	 14138	 14181	 14224	 14268	 14312	 14350	 14390
	 14430	 14469	 14508	 14550	 14588	 14628	 14670	 14710	 14751	 14794	 14832	 14869	 14907	 14946
	 14985	 15025	 15063	 15108	 15152	 15191	 15238	 15290	 15328	 15369	 15410	 15449	 15490	 15528
	 15569	 15610	 15651	 15692	 15731	 15771	 15811	 15852	 15893	 15931	 15970	 16008	 16052	 16090
	 16130	 16170	 16211	 16249	 16288	 16327	 16367	 16406	 16446	 16485	 16527	 16569	 16607	 16644
	 16684	 16723	 16761	 16799	 16838	 16876	 16916	 16955	 16995	 17034	 17072	 17111	 17151	 17190
	 17229	 17268	 17307	 17346	 17387	 17424	 17465	 17506	 17547	 17588	 17629	 17670	 17708	 17746
	 17784	 17823	 17861	 17898	 17937	 17976	 18014	 18052	 18091	 18130	 18171	 18212	 18253	 18294
	 18335	 18372	 18413	 18469	 18516	 18566	 18614	 18666	 18715	 18765	 18813	 18865	 18905	 18946
	 18989	 19033	 19060	 20296	 20340	 20384	 20430	 20481	 20535	 20588	 20633	 20683	 20720	 20876
	 20912	 20949	 20983	 21041	 21135	 21197	 21240
RTL36	  2892#
RTL36A	  2906#	  2922
RTL36B	  2911#	  2924
RTP	   598#
RTR36	  2932#
RTR36A	  2946#	  2962
RTR36B	  2951#	  2964
RTROV	  3609#
RTROV1	  3623#	  3628	  3630	  3637
RTROV2	  3628#	  3639
RUNFLG	   465#
SADR1	    71#	   414
SADR10	    80#	   430
SADR11	    81#	   431
SADR2	    72#	   416
SADR3	    73#	   418
SADR4	    74#
SADR5	    75#	   479
SADR6	    76#	   480
SADR7	    77#	   427                                                                                                     SEQ 0607
SADR8	    78#	   428
SADR9	    79#	   429
SBINIT	   242	   424#
SCOPE	   517#
SETAB1	 15477#
SETAB2	 15491#	 15504
SETAB3	 15496#	 15506
SETAIA	 11321#
SETAIB	 11335#	 11346
SETAIC	 11341#	 11348
SETMB1	 15397#
SETMB2	 15411#	 15425
SETMB3	 15416#	 15427
SETZB1	 15277#
SETZB2	 15291#	 15304
SETZB3	 15296#	 15306
SETZM1	  2766#
SETZM2	  2780#	  2785	  2793
SETZM3	  2785#	  2795
SFSTRT	   414#
SKIP1	  8685#
SKIP2	  8699#	  8717
SKIP3	  8704#	  8719
SKIPE1	  8728#
SKIPE2	  8743#	  8759
SKIPE3	  8750#	  8761
SKIPG1	  8815#
SKIPG2	  8830#	  8848
SKIPG3	  8839#	  8850
SKIPL1	  8860#
SKIPL2	  8874#	  8891
SKIPL3	  8879#	  8893
SKIPN1	  8773#
SKIPN2	  8787#	  8801
SKIPN3	  8792#	  8803
SKP	  1011#
SKP1	  1030#	  1106	  1108
SKPA	  1115#
SKPA1	  1134#	  1237	  1239
SKPAA	 20670#
SKPAA1	 20688#	 20692
SKPAA2	 20685	 20697#	 20699	 20700
SKPAA3	 20693	 20699#
SKPB	 20707#
SKPB1	 20725#	 20729
SKPB2	 20722	 20735#	 20737	 20738
SKPB3	 20730	 20737#
SKPGE1	  8903#
SKPGE2	  8917#	  8942
SKPGE3	  8922#	  8944
SKPLE1	  8952#
SKPLE2	  8966#	  8991
SKPLE3	  8971#	  8993                                                                                                     SEQ 0608
SKPLEA	  9003#
SKPLEB	  9017#	  9022	  9034
SKPLEC	  9023#	  9036
SLASH	   601#
SM10	   705#
SNTRP	   394#
SOJ1	 10239#
SOJ2	 10253#	 10266
SOJ3	 10258#	 10268
SOJE1	 10277#
SOJE2	 10291#	 10304
SOJE3	 10292#	 10305
SOJE4	 10295#	 10306
SOJG1	 10346#
SOJG2	 10360#	 10376
SOJG3	 10365#	 10378
SOJGE1	 10458#
SOJGE2	 10472#	 10479	 10480
SOJL1	 10315#
SOJL1A	 10387#
SOJL2	 10329#	 10336	 10337
SOJL2A	 10401#	 10416
SOJL3A	 10406#	 10418
SOJLE1	 10427#
SOJLE2	 10441#	 10448	 10449
SOS1	  9918#
SOS2	  9932#	  9948
SOS3	  9937#	  9950
SOSE1	  9960#
SOSE2	  9974#	  9989
SOSE3	  9975#	  9990
SOSE4	  9977#	  9991
SOSG1	 10081#
SOSG2	 10095#	 10114
SOSG3	 10100#	 10116
SOSGE1	 10205#
SOSGE2	 10219#	 10229	 10230
SOSL1	 10046#
SOSL1A	 10126#
SOSL2	 10060#	 10070	 10071
SOSL2A	 10140#	 10158
SOSL3A	 10145#	 10160
SOSLA	 10003#
SOSLB	 10017#	 10032
SOSLC	 10022#	 10034
SOSLE1	 10170#
SOSLE2	 10184#	 10194	 10195
SPACE	   590#
SRTDDT	   420#
START	   408	   725#	 19133
START1	   427#
START2	   428#
START3	   429#                                                                                                            SEQ 0609
START4	   430#
START5	   431#
STARTA	   423	   734#
STCAB1	 15679#
STCAB2	 15693#	 15707
STCAB3	 15698#	 15709
STCAI1	 11513#
STCAI2	 11527#	 11539
STCAI3	 11533#	 11541
STCMB1	 15758#
STCMB2	 15772#	 15787
STCMB3	 15777#	 15789
STCMI1	 11590#
STCMI2	 11604#	 11617
STCMI3	 11610#	 11619
STMI4	 11245#
STMI5	 11259#	 11271
STMI6	 11265#	 11273
STOB1	 15880#
STOB2	 15894#	 15907
STOB3	 15899#	 15909
STOI1	 11707#
STOI2	 11721#	 11732
STOI3	 11727#	 11734
STRP	   394#
SUB1	  4549#
SUB1A	  4586#
SUB1B	  4600#	  4611
SUB1C	  4605#	  4613
SUB2	  4563#	  4577
SUB2A	  4620#
SUB2B	  4634#	  4644
SUB2C	  4639#	  4646
SUB3	  4568#	  4579
SUBA1	 18653#
SUBA2	 18667#	 18691
SUBA3	 18672#	 18693
SUBB1	  4859#
SUBB1A	  4895#
SUBB1B	  4932#
SUBB2	  4873#	  4885
SUBB2A	  4909#	  4922
SUBB2B	  4946#	  4958
SUBB3	  4878#	  4887
SUBB3A	  4914#	  4924
SUBB3B	  4951#	  4960
SUBBA1	 18800#
SUBBA2	 18814#	 18841
SUBBA3	 18819#	 18843
SUBI1	  4757#
SUBI1A	  4789#
SUBI1B	  4823#
SUBI2	  4771#	  4780                                                                                                     SEQ 0610
SUBI2A	  4803#	  4814
SUBI2B	  4837#	  4849
SUBI3	  4776#	  4782
SUBI3A	  4808#	  4816
SUBI3B	  4843#	  4851
SUBIA1	 18752#
SUBIA2	 18766#	 18791
SUBIA3	 18772#	 18793
SUBLNK	   204#	   424
SUBM1	  4653#
SUBM1A	  4686#
SUBM1B	  4722#
SUBM2	  4667#	  4678
SUBM2A	  4700#	  4713
SUBM2B	  4736#	  4748
SUBM3	  4672#	  4680
SUBM3A	  4706#	  4715
SUBM3B	  4741#	  4750
SUBMA1	 18702#
SUBMA2	 18716#	 18741
SUBMA3	 18721#	 18743
SWPTAB	   711#
SWTEXR	   439#
SYSEXR	   412#
TAB	   591#
TABL	 20769	 20773	 20782	 20824	 20831	 20848	 21302	 21315	 21317	 21325#
TAMP	 20798#	 20798	 20853
TAMP1	 20828#	 20828	 20835
TAMP2	 20829#	 20829	 20836
TAMP3	 20799#	 20799	 20833#	 20833	 20837	 20839
TDC1	  6253#
TDC2	  6267#	  6281
TDC3	  6272#	  6283
TDCA1	  6290#
TDCA2	  6304#	  6319
TDCA3	  6309#	  6321
TDCE1	  6328#
TDCE10	  6691#
TDCE11	  6706#	  6727
TDCE12	  6712#	  6729
TDCE2	  6342#	  6353
TDCE20	  6739#
TDCE21	  6754#	  6775
TDCE22	  6760#	  6777
TDCE3	  6347#	  6355
TDCE4	  6399#
TDCE5	  6413#	  6418	  6425
TDCE6	  6419#	  6427
TDCE7	  6474#
TDCE8	  6488#	  6493	  6499
TDCE9	  6494#	  6501
TDCEA	  6362#
TDCEB	  6376#	  6390                                                                                                     SEQ 0611
TDCEC	  6381#	  6392
TDCED	  6434#
TDCEE	  6448#	  6453	  6455	  6465
TDCEF	  6456#	  6467
TDCEG	  6508#
TDCEH	  6522#	  6534
TDCEI	  6527#	  6536
TDCN1	  6545#
TDCN1A	  6787#
TDCN1B	  6802#	  6811	  6825
TDCN1C	  6809#	  6827
TDCN2	  6559#	  6569
TDCN3	  6564#	  6571
TDCN4	  6578#
TDCN5	  6592#	  6597	  6605
TDCN6	  6598#	  6607
TDCN7	  6618#
TDCN8	  6632#	  6637	  6643
TDCN9	  6638#	  6645
TDCNA1	  6836#
TDCNA2	  6851#	  6872
TDCNA3	  6858#	  6874
TDCNG	  6654#
TDCNH	  6668#	  6679
TDCNI	  6673#	  6681
TDN1	  5413#
TDN2	  5427#	  5441
TDN3	  5432#	  5443
TDNE1A	  5450#
TDNE1B	  5487#
TDNE1C	  5524#
TDNE1D	  5562#
TDNE1E	  5600#
TDNE1F	  5638#
TDNE2A	  5464#	  5478
TDNE2B	  5501#	  5515
TDNE2C	  5538#	  5543	  5553
TDNE2D	  5576#	  5581	  5591
TDNE2E	  5614#	  5619	  5629
TDNE2F	  5652#	  5666
TDNE3A	  5469#	  5480
TDNE3B	  5506#	  5517
TDNE3C	  5544#	  5555
TDNE3D	  5582#	  5593
TDNE3E	  5620#	  5631
TDNE3F	  5657#	  5668
TDNN1	  6884#
TDNN2	  6899#	  6915
TDNN3	  6905#	  6917
TDNN4	  7014#
TDNN5	  7029#	  7046
TDNN6	  7036#	  7048
TDNNA	  6926#                                                                                                            SEQ 0612
TDNNB	  6941#	  6957
TDNNC	  6947#	  6959
TDNND	  6969#
TDNNE	  6984#	  7001
TDNNF	  6991#	  7003
TDOA1	  5963#
TDOA2	  5977#	  5992
TDOA3	  5982#	  5994
TDOAA	  6001#
TDOAB	  6015#	  6028
TDOAC	  6020#	  6030
TDOB1	  6037#
TDOB2	  6051#	  6069
TDOB3	  6056#	  6071
TDOE1	  6079#
TDOE2	  6094#	  6110
TDOE3	  6100#	  6112
TDOEA	  6120#
TDOEB	  6135#	  6154
TDOEC	  6141#	  6156
TDON1	  6211#
TDON2	  6226#	  6244
TDON3	  6233#	  6246
TDONA	  6164#
TDONB	  6179#	  6188	  6201
TDONC	  6186#	  6203
TDZA1	  5675#
TDZA2	  5689#	  5705
TDZA3	  5694#	  5707
TDZAA	  5714#
TDZAB	  5728#	  5742
TDZAC	  5733#	  5744
TDZB1	  5752#
TDZB2	  5766#	  5784
TDZB3	  5771#	  5786
TDZE1	  5793#
TDZE2	  5808#	  5824
TDZE3	  5814#	  5826
TDZEA	  5834#
TDZEB	  5849#	  5868
TDZEC	  5855#	  5870
TDZN1	  5921#
TDZN2	  5936#	  5954
TDZN3	  5942#	  5956
TDZNA	  5878#
TDZNB	  5893#	  5910
TDZNC	  5900#	  5912
TESTPC	   466#	   812	   911	  1019	  1123	  1255	  1307	  1344	  1387	  1480	  1520	  1560	  1607	  1703
	  1742	  1785	  1824	  1864	  1912	  1946	  1989	  2030	  2070	  2114	  2156	  2197	  2238	  2281
	  2322	  2365	  2405	  2449	  2490	  2533	  2573	  2620	  2656	  2693	  2728	  2774	  2811	  2855
	  2900	  2940	  2981	  3154	  3328	  3372	  3581	  3617	  3655	  3697	  3738	  3778	  3810	  3849
	  3891	  3925	  3960	  3996	  4042	  4071	  4098	  4130	  4168	  4202	  4247	  4281	  4315	  4349
	  4381	  4415	  4451	  4486	  4521	  4557	  4594	  4628	  4661	  4694	  4730	  4765	  4797	  4831     SEQ 0613
	  4867	  4903	  4940	  4976	  5012	  5052	  5090	  5134	  5180	  5224	  5263	  5297	  5338	  5379
	  5421	  5458	  5495	  5532	  5570	  5608	  5646	  5683	  5722	  5760	  5801	  5842	  5886	  5929
	  5971	  6009	  6045	  6087	  6128	  6172	  6219	  6261	  6298	  6336	  6370	  6407	  6442	  6482
	  6516	  6553	  6586	  6626	  6662	  6699	  6747	  6795	  6844	  6892	  6934	  6977	  7022	  7065
	  7103	  7138	  7176	  7217	  7256	  7297	  7339	  7386	  7434	  7479	  7520	  7560	  7599	  7641
	  7680	  7727	  7768	  7808	  7849	  7889	  7928	  7968	  8007	  8051	  8090	  8129	  8170	  8213
	  8253	  8294	  8333	  8372	  8412	  8451	  8490	  8529	  8569	  8609	  8650	  8693	  8736	  8781
	  8823	  8868	  8911	  8960	  9011	  9055	  9092	  9127	  9159	  9197	  9233	  9275	  9320	  9361
	  9421	  9464	  9507	  9551	  9596	  9638	  9671	  9709	  9747	  9780	  9820	  9861	  9894	  9926
	  9968	 10011	 10054	 10089	 10134	 10178	 10213	 10247	 10285	 10323	 10354	 10395	 10435	 10466
	 10498	 10537	 10574	 10616	 10660	 10704	 10748	 10784	 10820	 10860	 10900	 10940	 10982	 11023
	 11060	 11098	 11138	 11175	 11214	 11253	 11290	 11329	 11365	 11404	 11443	 11482	 11521	 11558
	 11598	 11636	 11675	 11715	 11751	 11789	 11828	 11867	 11906	 11944	 11983	 12023	 12063	 12103
	 12142	 12181	 12222	 12266	 12311	 12359	 12405	 12451	 12489	 12530	 12570	 12609	 12651	 12693
	 12741	 12786	 12841	 12891	 12927	 12975	 13013	 13052	 13091	 13130	 13168	 13214	 13257	 13302
	 13347	 13396	 13434	 13473	 13511	 13550	 13589	 13629	 13667	 13706	 13746	 13786	 13827	 13868
	 13906	 13945	 13985	 14014	 14056	 14094	 14133	 14176	 14219	 14263	 14307	 14345	 14385	 14425
	 14464	 14503	 14545	 14583	 14623	 14665	 14705	 14746	 14789	 14827	 14864	 14902	 14941	 14980
	 15020	 15058	 15103	 15147	 15186	 15233	 15285	 15323	 15364	 15405	 15444	 15485	 15523	 15564
	 15605	 15646	 15687	 15726	 15766	 15806	 15847	 15888	 15926	 15965	 16003	 16047	 16085	 16125
	 16165	 16206	 16244	 16283	 16322	 16362	 16401	 16441	 16480	 16522	 16564	 16602	 16639	 16679
	 16718	 16756	 16794	 16833	 16871	 16911	 16950	 16990	 17029	 17067	 17106	 17146	 17185	 17224
	 17263	 17302	 17341	 17382	 17419	 17460	 17501	 17542	 17583	 17624	 17665	 17703	 17741	 17779
	 17818	 17856	 17893	 17932	 17971	 18009	 18047	 18086	 18125	 18166	 18207	 18248	 18289	 18330
	 18367	 18408	 18464	 18511	 18561	 18609	 18661	 18710	 18760	 18808	 18860	 18900	 18941	 18984
	 19028	 19055	 19189	 19226	 19263	 19300	 19337	 19374	 19411	 19449	 19486	 19523	 19560	 19596
	 19641	 19684	 19727	 19774	 19822	 19873	 19927	 19970	 20013	 20056	 20098	 20154	 20199	 20242
	 20291	 20335	 20379	 20425	 20476	 20530	 20583	 20628	 20678	 20715	 20749	 20794	 20871	 20907
	 20944	 20978	 21036	 21130	 21192	 21235
TICKS	   469#
TLC1	 14781#
TLC2	 14795#	 14808
TLC3	 14800#	 14810
TLC4	 14819#
TLC5	 14833#	 14847
TLC6	 14838#	 14849
TLC7	 14856#
TLC8	 14870#	 14883
TLC9	 14875#	 14885
TLCA1	 14894#
TLCA2	 14908#	 14922
TLCA3	 14913#	 14924
TLCA4	 14933#
TLCA5	 14947#	 14961
TLCA6	 14952#	 14963
TLCA7	 14972#
TLCA8	 14986#	 15001
TLCA9	 14991#	 15003
TLCE1	 15012#
TLCE2	 15026#	 15039
TLCE3	 15031#	 15041
TLCE4	 15050#
TLCE5	 15064#	 15084                                                                                                     SEQ 0614
TLCE6	 15069#	 15086
TLCE7	 15095#
TLCE8	 15109#	 15118	 15128
TLCE9	 15114#	 15130
TLCN1	 15139#
TLCN2	 15153#	 15167
TLCN3	 15158#	 15169
TLCN4	 15178#
TLCN5	 15192#	 15213
TLCN6	 15197#	 15215
TLCN7	 15225#
TLCN8	 15240#	 15264
TLCN9	 15248#	 15266
TLFT1	 12956#	 14144	 14716	 15197
TLFT2	 12957#	 14230
TLN1	 13388#
TLN2	 13402#	 13415
TLN3	 13407#	 13417
TLN4	 13426#
TLN5	 13440#	 13454
TLN6	 13445#	 13456
TLN7	 13465#
TLN8	 13479#	 13492
TLN9	 13484#	 13494
TLNA1	 13503#
TLNA2	 13517#	 13531
TLNA3	 13522#	 13533
TLNA4	 13542#
TLNA5	 13556#	 13570
TLNA6	 13561#	 13572
TLNA7	 13581#
TLNA8	 13595#	 13610
TLNA9	 13600#	 13612
TLNE1	 13621#
TLNE2	 13635#	 13648
TLNE3	 13640#	 13650
TLNE4	 13659#
TLNE5	 13673#	 13687
TLNE6	 13678#	 13689
TLNE7	 13698#
TLNE8	 13712#	 13727
TLNE9	 13717#	 13729
TLNN1	 13738#
TLNN2	 13752#	 13767
TLNN3	 13758#	 13769
TLNN4	 13778#
TLNN5	 13792#	 13808
TLNN6	 13797#	 13810
TLNN7	 13819#
TLNN8	 13833#	 13849
TLNN9	 13838#	 13851
TLO1	 14299#
TLO2	 14313#	 14326                                                                                                     SEQ 0615
TLO3	 14318#	 14328
TLO4	 14337#
TLO5	 14351#	 14366
TLO6	 14356#	 14368
TLO7	 14377#
TLO8	 14391#	 14406
TLO9	 14396#	 14408
TLOA1	 14417#
TLOA2	 14431#	 14445
TLOA3	 14436#	 14447
TLOA4	 14456#
TLOA5	 14470#	 14484
TLOA6	 14475#	 14486
TLOA7	 14495#
TLOA8	 14509#	 14526
TLOA9	 14514#	 14528
TLOE1	 14537#
TLOE2	 14551#	 14564
TLOE3	 14556#	 14566
TLOE4	 14575#
TLOE5	 14589#	 14604
TLOE6	 14594#	 14606
TLOE7	 14615#
TLOE8	 14629#	 14646
TLOE9	 14634#	 14648
TLON1	 14657#
TLON2	 14671#	 14686
TLON3	 14676#	 14688
TLON4	 14697#
TLON5	 14711#	 14727
TLON6	 14716#	 14729
TLON7	 14738#
TLON8	 14752#	 14770
TLON9	 14757#	 14772
TLZ1	 13860#
TLZ2	 13874#	 13887
TLZ3	 13879#	 13889
TLZ4	 13898#
TLZ5	 13912#	 13926
TLZ6	 13917#	 13928
TLZ7	 13937#
TLZ8	 13951#	 13966
TLZ9	 13956#	 13968
TLZA1	 13977#
TLZA2	 13991#
TLZA3	 13996#
TLZA7	 14006#
TLZA8	 14020#	 14037
TLZA9	 14025#	 14039
TLZE1	 14048#
TLZE2	 14062#	 14075
TLZE3	 14067#	 14077
TLZE4	 14086#                                                                                                            SEQ 0616
TLZE5	 14100#	 14114
TLZE6	 14105#	 14116
TLZE7	 14125#
TLZE8	 14139#	 14157
TLZE9	 14144#	 14159
TLZN1	 14168#
TLZN2	 14182#	 14200
TLZN3	 14187#	 14202
TLZN4	 14211#
TLZN5	 14225#	 14244
TLZN6	 14230#	 14246
TLZN7	 14255#
TLZN8	 14269#	 14288
TLZN9	 14274#	 14290
TN0	   394#
TN1	   394#
TOTALS	   170#
TPOP	 20863#
TPOP1	 20877#	 20887
TPOP2	 20882#	 20889
TPOP3	 20899#
TPOP4	 20913#	 20920	 20927
TPOP5	 20918#	 20929
TPUSH	 20936#
TPUSH1	 20950#	 20960
TPUSH2	 20955#	 20962
TPUSH3	 20970#
TPUSH4	 20984#	 20993	 21001
TPUSH5	 20989#	 21003
TRC1	 12883#
TRC2	 12897#	 12910
TRC3	 12902#	 12912
TRC4	 12967#
TRC5	 12981#	 12994
TRC6	 12986#	 12996
TRC7	 13044#
TRC8	 13058#	 13072
TRC9	 13063#	 13074
TRCA1	 12919#
TRCA2	 12933#	 12947
TRCA3	 12938#	 12949
TRCA4	 13005#
TRCA5	 13019#	 13033
TRCA6	 13024#	 13035
TRCA7	 13083#
TRCA8	 13097#	 13111
TRCA9	 13102#	 13113
TRCE1	 13122#
TRCE2	 13136#	 13149
TRCE3	 13141#	 13151
TRCE4	 13206#
TRCE5	 13220#	 13228	 13238
TRCE6	 13225#	 13240                                                                                                     SEQ 0617
TRCEA1	 13160#
TRCEA2	 13174#	 13180	 13195
TRCEA3	 13181#	 13197
TRCEA4	 13249#
TRCEA5	 13263#	 13283
TRCEA6	 13268#	 13285
TRCN1	 13294#
TRCN2	 13308#	 13329
TRCN3	 13313#	 13331
TRCNA	 13339#
TRCNB	 13354#	 13377
TRCNC	 13362#	 13379
TRN1	 11743#
TRN2	 11757#	 11770
TRN3	 11762#	 11772
TRN4	 11781#
TRN5	 11795#	 11809
TRN6	 11800#	 11811
TRN7	 11820#
TRN8	 11834#	 11848
TRN9	 11839#	 11850
TRNA1	 11859#
TRNA2	 11873#	 11887
TRNA3	 11878#	 11889
TRNE1A	 11898#
TRNE1B	 11936#
TRNE1C	 11975#
TRNE1D	 12015#
TRNE1E	 12055#
TRNE1F	 12095#
TRNE2A	 11912#	 11925
TRNE2B	 11950#	 11964
TRNE2C	 11989#	 12004
TRNE2D	 12029#	 12044
TRNE2E	 12069#	 12084
TRNE2F	 12109#	 12123
TRNE3A	 11917#	 11927
TRNE3B	 11955#	 11966
TRNE3C	 11994#	 12006
TRNE3D	 12034#	 12046
TRNE3E	 12074#	 12086
TRNE3F	 12114#	 12125
TRO1	 12443#
TRO1A	 12522#
TRO1B	 12536#	 12551
TRO1C	 12541#	 12553
TRO1D	 12562#
TRO1E	 12576#	 12590
TRO1F	 12581#	 12592
TRO2	 12457#	 12470
TRO3	 12462#	 12472
TRO4	 12481#
TRO5	 12495#	 12511                                                                                                     SEQ 0618
TRO6	 12500#	 12513
TROA1	 12601#
TROA2	 12615#	 12632
TROA3	 12620#	 12634
TROA4	 12643#
TROA5	 12657#	 12671
TROA6	 12662#	 12673
TROE1	 12685#
TROE2	 12700#	 12719
TROE3	 12708#	 12721
TROEA	 12733#
TROEB	 12748#	 12766
TROEC	 12756#	 12768
TRON1	 12778#
TRON2	 12793#	 12804	 12821
TRON3	 12802#	 12823
TRONA	 12833#
TRONB	 12848#	 12868
TRONC	 12857#	 12870
TRP3TP	   394#
TRZA1	 12134#
TRZA2	 12148#	 12162
TRZA3	 12153#	 12164
TRZAA	 12173#
TRZAB	 12187#	 12203
TRZAC	 12193#	 12205
TRZB1	 12214#
TRZB2	 12228#	 12246
TRZB3	 12233#	 12248
TRZE1	 12258#
TRZE2	 12273#	 12291
TRZE3	 12281#	 12293
TRZEA	 12303#
TRZEB	 12318#	 12339
TRZEC	 12326#	 12341
TRZN1	 12397#
TRZN2	 12412#	 12432
TRZN3	 12421#	 12434
TRZNA	 12351#
TRZNB	 12366#	 12385
TRZNC	 12375#	 12387
TSC1	  7057#
TSC2	  7071#	  7083
TSC3	  7076#	  7085
TSC4	  7095#
TSC5	  7109#	  7119
TSC6	  7114#	  7121
TSC7	  7130#
TSC8	  7144#	  7156
TSC9	  7149#	  7158
TSCA1	  7168#
TSCA2	  7182#	  7196
TSCA3	  7187#	  7198                                                                                                     SEQ 0619
TSCE1	  7209#
TSCE2	  7223#	  7237
TSCE3	  7228#	  7239
TSCE4	  7289#
TSCE5	  7303#	  7308	  7310	  7320
TSCE6	  7311#	  7322
TSCEA	  7248#
TSCEB	  7262#	  7278
TSCEC	  7267#	  7280
TSCED	  7331#
TSCEE	  7345#	  7350	  7366
TSCEF	  7351#	  7368
TSCN1	  7378#
TSCN2	  7392#	  7397	  7400	  7414
TSCN3	  7398#	  7416
TSCNA	  7426#
TSCNB	  7440#	  7445	  7449	  7451	  7460
TSCNC	  7446#	  7462
TSN1	  8286#
TSN2	  8300#	  8314
TSN3	  8305#	  8316
TSN4	  8325#
TSN5	  8339#	  8353
TSN6	  8344#	  8355
TSN7	  8364#
TSN8	  8378#	  8392
TSN9	  8383#	  8394
TSNA1	  8404#
TSNA2	  8418#	  8432
TSNA3	  8423#	  8434
TSNE1	  8443#
TSNE2	  8457#	  8471
TSNE3	  8462#	  8473
TSNE4	  8521#
TSNE5	  8535#	  8540	  8550
TSNE6	  8540#	  8552
TSNEA	  8482#
TSNEB	  8496#	  8510
TSNEC	  8501#	  8512
TSNED	  8561#
TSNEE	  8575#	  8580	  8590
TSNEF	  8581#	  8592
TSNN1	  8601#
TSNN2	  8615#	  8620	  8631
TSNN3	  8621#	  8633
TSNNA	  8642#
TSNNB	  8656#	  8663	  8673
TSNNC	  8664#	  8675
TSO1	  7471#
TSO2	  7485#	  7501
TSO3	  7490#	  7503
TSO4	  7512#
TSO5	  7526#	  7540                                                                                                     SEQ 0620
TSO6	  7531#	  7542
TSO7	  7552#
TSO8	  7566#	  7580
TSO9	  7571#	  7582
TSOA1	  7591#
TSOA2	  7605#	  7622
TSOA3	  7610#	  7624
TSOE1	  7633#
TSOE2	  7647#	  7661
TSOE3	  7652#	  7663
TSOE4	  7719#
TSOE5	  7733#	  7738	  7749
TSOE6	  7739#	  7751
TSOEA	  7672#
TSOEB	  7686#	  7691	  7708
TSOEC	  7692#	  7710
TSOED	  7760#
TSOEE	  7774#	  7779	  7789
TSOEF	  7780#	  7791
TSON1	  7800#
TSON2	  7814#	  7830
TSON3	  7819#	  7832
TSONA	  7841#
TSONB	  7855#	  7860	  7870
TSONC	  7861#	  7872
TST1	 19213	 19220#
TST10	 19480#
TST10A	 19490#	 19510
TST10B	 19499#	 19507
TST11	 19517#
TST11A	 19527#	 19547
TST11B	 19536#	 19544
TST12	 19554#
TST12A	 19564#	 19583
TST12B	 19573#	 19580
TST13	 19590#
TST13A	 19600#	 19628
TST13B	 19608#	 19625
TST14	 19635#
TST14A	 19645#	 19671
TST14B	 19654#	 19668
TST15	 19678#
TST15A	 19688#	 19714
TST15B	 19697#	 19711
TST16	 19721#
TST16A	 19731#	 19761
TST16B	 19739#	 19758
TST17	 19768#
TST17A	 19778#	 19809
TST17B	 19786#	 19806
TST1A	 19230#	 19250
TST1B	 19238#	 19247
TST2	 19257#                                                                                                            SEQ 0621
TST20	 19816#
TST20A	 19826#	 19860
TST20B	 19834#	 19857
TST21	 19867#
TST21A	 19877#	 19914
TST21B	 19885#	 19911
TST22	 19921#
TST22A	 19931#	 19957
TST22B	 19939#	 19954
TST23	 19964#
TST23A	 19974#	 20000
TST23B	 19982#	 19997
TST24	 20007#
TST24A	 20017#	 20043
TST24B	 20025#	 20040
TST25	 20050#
TST25A	 20060#	 20086
TST25B	 20068#	 20083
TST26	 20092#
TST26A	 20102#	 20141
TST26B	 20110#	 20138
TST27	 20148#
TST27A	 20158#	 20186
TST27B	 20166#	 20183
TST2A	 19267#	 19286
TST2B	 19275#	 19283
TST3	 19294#
TST30	 20193#
TST30A	 20203#	 20229
TST30B	 20211#	 20226
TST31	 20236#
TST31A	 20246#	 20272
TST31B	 20254#	 20269
TST3A	 19304#	 19324
TST3B	 19312#	 19321
TST4	 19331#
TST4A	 19341#	 19361
TST4B	 19350#	 19358
TST5	 19368#
TST5A	 19378#	 19398
TST5B	 19387#	 19395
TST6	 19405#
TST6A	 19415#	 19436
TST6B	 19424#	 19433
TST7	 19443#
TST7A	 19453#	 19473
TST7B	 19462#	 19470
TSTLFT	 12955#	 13717	 13797	 14634	 15114
TSZ1	  7881#
TSZ2	  7895#	  7909
TSZ3	  7900#	  7911
TSZ4	  7920#
TSZ5	  7934#	  7948                                                                                                     SEQ 0622
TSZ6	  7939#	  7950
TSZ7	  7960#
TSZ8	  7974#	  7988
TSZ9	  7979#	  7990
TSZA1	  7999#
TSZA2	  8013#	  8032
TSZA3	  8018#	  8034
TSZE1	  8043#
TSZE2	  8057#	  8071
TSZE3	  8062#	  8073
TSZE4	  8121#
TSZE5	  8135#	  8140	  8151
TSZE6	  8141#	  8153
TSZEA	  8082#
TSZEB	  8096#	  8110
TSZEC	  8101#	  8112
TSZED	  8162#
TSZEE	  8176#	  8181	  8194
TSZEF	  8182#	  8196
TSZN1	  8205#
TSZN2	  8219#	  8234
TSZN3	  8224#	  8236
TSZNA	  8245#
TSZNB	  8259#	  8264	  8275
TSZNC	  8265#	  8277
TTNBRF	   649#
TTYFIL	   565#
TTYSPD	   566#
TXTINH	   181#
UBAVEC	   394#
USER	   456#	   728	 19144	 19194	 19200	 19212	 21271
USERF	   394#	 20354	 20442	 20443
USRASB	    65#	   446
USRCRF	   575#
USRLFF	   574#
UUODIS	   528#
UUOEXT	   484#	 21521
UUORTN	   485#
UUOSKP	   482#
UUOTXT	 21484
WCBUF	 19180#	 19180	 20303	 20347	 20391	 20437	 20488	 20542	 20595	 20640	 21204	 21247
XORB1	 15515#
XORB2	 15529#	 15545
XORB3	 15534#	 15547
XORIA	 11357#
XORIB	 11371#	 11385
XORIC	 11377#	 11387
YY	 19069#	 19095	 19100	 19103
$$MUUO	   680#
$$OUTE	   686#
$$TAX1	   698#
$$TAX2	   699#
$$TOGG	   692#                                                                                                            SEQ 0623
$$UUO	   669#
$ACC0	   507#
$BEND1	   477#
$BEND2	    75	   478#	 21530
$CHRIN	   568#
$CRLF	   570#
$DEVCH	   394#
$DSKUP	   447#
$DVOFF	   564#
$EMODE	   445#
$FFF	   572#
$IBUF	   620#
$INEXT	   622#
$INNM	   621#
$ITRHL	   488#
$ITRX1	   489#
$LPAPE	 21536
$MMAP	   448#
$MODVL	   443#
$MODVU	   444#
$OBUF	   611#
$ONETM	   471#
$OUTEX	   613#
$OUTNM	   612#
$PAPER	   394
$PARER	   495#
$PNAME	   441#
$PSHER	   499#
$PVER	   442#
$RSRTX	   491#
$RSRTY	   492#
$SPAG1	   511#
$START	   408#
$SVAPR	   509#
$SVPAG	   510#
$SVPI	   508#
$SVUPC	   514#	 21334	 21338	 21364
$SVUUO	   513#	 21343	 21380	 21391	 21437	 21475
$TABF	   571#
$TTCHR	   567#
$TWCNT	   563#
$TYPNB	   569#
$UMODE	   446#
$UORTX	   486#
$USRHL	   490#
$UUOER	   487#	   528
$VTF	   573#
%ACS1A	 21345#	 21345	 21372	 21376	 21393	 21399
%ACTFL	   520#
%ACTUL	   521#
%CNTE	 21381#	 21381	 21385	 21400
%COREC	   519#
%CORFL	   518#                                                                                                            SEQ 0624
%DISCR	   522#
%EE1	 21386#	 21386	 21388	 21462
%EE1A	 21389#	 21389	 21430	 21471
%EE2	 21392#	 21392	 21397	 21460
%EE2A	 21398#	 21398	 21454
%ERAC0	 21265	 21330#	 21330	 21346	 21384	 21416	 21428	 21444	 21520
%ERAC1	 21266	 21331#	 21331	 21347	 21383	 21387	 21390	 21396	 21508
%ERAC2	 21267	 21332#	 21332	 21382	 21507
%ERFST	 21353#	 21353	 21355
%ERHI1	   661#
%ERHI2	   662#
%ERHI3	   663#
%ERMOR	 21280	 21318	 21322	 21485	 21491#
%ERMS1	 21350#	 21526
%ERMS2	 21371#
%ERR2	 21405	 21449	 21458#
%ERR4	 21422	 21475#
%ERRB	 21417#	 21472
%ERRB1	 21437#	 21465
%ERRC	 21433	 21451	 21456	 21467	 21477	 21481#
%ERRS1	 21342	 21494#	 21525
%ERRS2	 21507#
%ERRS4	 21349	 21523#
%ERRS5	 21511	 21515	 21520#
%ERRS6	 21518	 21528#
%RAND	 21371#	 21371	 21374	 21445
.JB41	   394#
.JBAPR	   394#
.JBCNI	   394#
.JBDDT	   394#
.JBFF	   394#
.JBOPC	   394#
.JBREL	   394#
.JBREN	   394#
.JBSA	   394#
.JBSYM	   394#
.JBTPC	   394#
.JBUSY	   394#
.JBUUO	   394#
.JBVER	   394#

ADSBSM	 18436#	 18478	 18526	 18576	 18624	 18675	 18725	 18775	 18823
APRID	   394#                                                                                                            SEQ 0625
BCIO	   394#
BCIOB	   394#
BSIO	   394#
BSIOB	   394#
CFLUSH	   354#
CINVAL	   353#
CLOKOP	   348#
CLRPT	   394#
CWRTBI	   355#
DROPDV	   315#	   773
EERR	    49#	  2789	  2791	  2877	  3759	  3792	  3871	  3873	  4500	  4502	  4609	  4642	  4918	  4920
	  4954	  4956	  5244	  5735	  5740	  6026	  6351	  6641	  9944	  9946	  9985	  9987	 10514	 10516
	 10763	 10799	 15300	 15302	 15341	 15343	 15382	 15384	 15421	 15423	 15462	 15464	 15500	 15502
	 15541	 15543	 15582	 15584	 15623	 15625	 15664	 15666	 15703	 15705	 15743	 15745	 15783	 15785
	 15824	 15826	 15865	 15867	 15903	 15905	 16420	 16581	 16888	 17046	 17835	 17988	 18492	 18638
	 18640	 18689	 18837	 18839
EERRI	    51#	  2833	  2918	  2958	  3011	  3024	  3037	  3050	  3063	  3076	  3089	  3102	  3115	  3128
	  3184	  3197	  3210	  3223	  3236	  3249	  3262	  3275	  3288	  3301	  3976	  4362	  4778	  9688
	 10264	 10552	 11768	 11885	 11923	 12121	 12160	 12239	 12244	 12468	 12549	 12630	 12908	 12992
	 13070	 13147	 13413	 13490	 13608	 13646	 13885	 13964	 14035	 14073	 14324	 14404	 14482	 14524
	 14562	 14806	 14881	 14959	 14999	 15037	 18877	 18917	 20500
EERRM	    50#	  4296	  4330	  4676	  4744	  4746	  5113	  5157	  5159	  5203	  5205	  5317	  5319	  5358
	  5360	 16062	 16064	 16378	 16380	 16541	 16543	 16695	 16697	 16848	 16850	 17006	 17008	 17162
	 17164	 17318	 17320	 17478	 17480	 17642	 17644	 17948	 17950	 18102	 18104	 18266	 18268	 18426
	 18428	 18739
ENDUUO	   361#	   476
EOPUUO	   362#	   478
ER	    46#	  1148	  1159	  1170	  1181	  1192	  1203	  1214	  1225	  3599	  3635	  4007	  4013	  4018
	  4023	  4221	  4223	  4225	  4228	  5435	  5437	  5472	  5474	  5509	  5511	  5547	  5549	  5585
	  5587	  5623	  5625	  5660	  5662	  5697	  5699	  5738	  5780	  5818	  5820	  5864	  5904	  5906
	  5949	  5988	  6022	  6024	  6065	  6104	  6106	  6146	  6192	  6196	  6237	  6239	  6312	  6314
	  6349	  6384	  6386	  6459	  6461	  6530	  6601	  6639	  6716	  6718	  6722	  6764	  6766	  6770
	  6814	  6816	  6820	  6867	  6909	  6911	  6951	  6953	  6995	  6997	  7040	  7042	  7190	  7192
	  7231	  7233	  7274	  7314	  7316	  7354	  7356	  7361	  7403	  7405	  7409	  7454	  7456	  7495
	  7497	  7534	  7536	  7574	  7576	  7616	  7618	  7655	  7657	  7696	  7698	  7703	  7745	  7783
	  7785	  7826	  7864	  7866	  7903	  7905	  7942	  7944	  7982	  7984	  8026	  8028	  8065	  8067
	  8104	  8106	  8147	  8190	  8230	  8271	  8308	  8310	  8347	  8349	  8386	  8388	  8426	  8428
	  8465	  8467	  8504	  8506	  8544	  8546	  8584	  8586	  8625	  8627	  8667	  8669	  8708	  8711
	  8753	  8795	  8842	  8885	  8928	  8936	  8977	  8985	  9028	  9069	  9104	  9136	  9173	  9211
	  9246	  9252	  9288	  9294	  9336	  9379	  9388	  9390	  9392	  9395	  9397	  9399	  9435	  9479
	  9525	  9570	  9612	  9648	  9686	  9723	  9757	  9797	  9838	  9871	  9904	  9942	  9983	 10026
	 10065	 10108	 10152	 10189	 10224	 10262	 10300	 10333	 10372	 10412	 10445	 10476	 10512	 10550
	 10591	 10635	 10679	 10723	 10761	 10797	 10837	 10877	 10916	 10957	 10999	 11039	 11076	 11114
	 11154	 11764	 11766	 11803	 11805	 11842	 11844	 11881	 11883	 11919	 11921	 11958	 11960	 11998
	 12000	 12038	 12040	 12078	 12080	 12117	 12119	 12156	 12158	 12197	 12199	 12242	 12285	 12287
	 12335	 12379	 12381	 12427	 12464	 12466	 12505	 12507	 12545	 12547	 12584	 12586	 12626	 12628
	 12665	 12667	 12713	 12715	 12760	 12762	 12808	 12810	 12815	 12861	 12863	 12904	 12906	 12941
	 12943	 12988	 12990	 13027	 13029	 13066	 13068	 13105	 13107	 13143	 13145	 13184	 13186	 13190
	 13232	 13234	 13272	 13274	 13278	 13318	 13320	 13324	 13366	 13368	 13372	 13409	 13411	 13448
	 13450	 13486	 13488	 13525	 13527	 13564	 13566	 13604	 13606	 13642	 13644	 13681	 13683	 13721
	 13723	 13761	 13763	 13802	 13804	 13843	 13845	 13881	 13883	 13920	 13922	 13960	 13962	 14001
	 14031	 14033	 14069	 14071	 14108	 14110	 14153	 14196	 14240	 14284	 14320	 14322	 14360	 14362
	 14400	 14402	 14439	 14441	 14478	 14480	 14520	 14522	 14558	 14560	 14598	 14600	 14640	 14642     SEQ 0626
	 14680	 14682	 14721	 14723	 14764	 14766	 14802	 14804	 14841	 14843	 14877	 14879	 14916	 14918
	 14955	 14957	 14995	 14997	 15033	 15035	 15073	 15075	 15079	 15122	 15124	 15161	 15163	 15202
	 15204	 15208	 15253	 15255	 15259	 18958	 19002	 19203	 20168	 20175	 20180	 20307
ERM	    47#	 19095	 19100	 19103
ERMM	    48#	 20310	 20399	 20503	 20603	 20698	 20736
ERR	    42#	  1269	  1271	  2835	  4465	  4467	  4536	  4538	  4575	  4881	  4883	  5439	  5476	  5513
	  5551	  5589	  5627	  5664	  5701	  5703	  5777	  5782	  5822	  5861	  5866	  5908	  5946	  5951
	  5985	  5990	  6062	  6067	  6108	  6148	  6152	  6194	  6198	  6241	  6275	  6279	  6317	  6388
	  6423	  6463	  6497	  6532	  6567	  6603	  6677	  6720	  6725	  6768	  6773	  6818	  6823	  6864
	  6869	  6913	  6955	  6999	  7044	  7081	  7117	  7154	  7194	  7235	  7271	  7276	  7318	  7358
	  7364	  7407	  7412	  7458	  7499	  7538	  7578	  7620	  7659	  7700	  7706	  7742	  7747	  7787
	  7823	  7828	  7868	  7907	  7946	  7986	  8030	  8069	  8108	  8144	  8149	  8187	  8192	  8228
	  8232	  8268	  8273	  8312	  8351	  8390	  8430	  8469	  8508	  8548	  8588	  8629	  8671	  8713
	  8715	  8755	  8757	  8797	  8799	  8844	  8846	  8887	  8889	  8930	  8932	  8938	  8940	  8979
	  8981	  8987	  8989	  9030	  9032	  9381	  9383	  9437	  9439	  9481	  9483	  9527	  9529	  9572
	  9574	  9614	  9616	  9650	  9652	 10028	 10030	 10067	 10069	 10110	 10112	 10154	 10156	 10191
	 10193	 10226	 10228	 10593	 10595	 10637	 10639	 10681	 10683	 10725	 10727	 15944	 16104	 16262
	 16735	 17203	 17361	 17521	 17682	 18145	 18309	 19244	 19280	 19318	 19355	 19392	 19430	 19467
	 19504	 19541	 19577	 19612	 19622	 19658	 19665	 19701	 19708	 19746	 19755	 19793	 19803	 19842
	 19850	 19854	 19889	 19903	 19945	 19953	 19988	 19996	 20031	 20039	 20074	 20082	 20113	 20119
	 20125	 20130	 20135	 20170	 20172	 20177	 20182	 20217	 20223	 20259	 20264	 20396	 20449	 20558
	 20600	 20650	 20652
ERRHLT	   249#	 19132	 21501
ERRI	    44#	  2879	  2920	  2960	  3013	  3026	  3039	  3052	  3065	  3078	  3091	  3104	  3117	  3130
	  3186	  3199	  3212	  3225	  3238	  3251	  3264	  3277	  3290	  3303	  3978	  4396	  4432	  4812
	  4847	  4994	  5070	  5278	  9071	  9106	  9175	  9213	  9248	  9254	  9290	  9296	  9338	  9725
	  9759	  9799	  9840	  9873	  9906	 10302	 10335	 10374	 10414	 10447	 10478	 10839	 10879	 10918
	 10959	 11001	 11041	 11078	 11116	 11156	 11193	 11232	 11269	 11308	 11344	 11383	 11422	 11461
	 11500	 11537	 11577	 11615	 11654	 11694	 11730	 11807	 11846	 11962	 12002	 12042	 12082	 12201
	 12289	 12332	 12337	 12383	 12424	 12429	 12509	 12588	 12669	 12717	 12764	 12812	 12818	 12865
	 12945	 13031	 13109	 13188	 13193	 13236	 13276	 13281	 13322	 13327	 13370	 13375	 13452	 13529
	 13568	 13685	 13725	 13765	 13806	 13847	 13924	 14112	 14150	 14155	 14193	 14198	 14237	 14242
	 14281	 14286	 14364	 14443	 14602	 14644	 14684	 14725	 14768	 14845	 14920	 15077	 15082	 15126
	 15165	 15206	 15211	 15257	 15262	 15982	 16144	 16301	 16459	 16618	 16773	 16929	 17085	 17242
	 17398	 17562	 17720	 17872	 18026	 18186	 18346	 18590	 18789	 18960	 19004	 20356
ERRM	    43#	  4262	  4709	  4711	 16022	 16184	 16221	 16223	 16340	 16500	 16657	 16811	 16968	 17124
	 17281	 17439	 17603	 17758	 17795	 17797	 17911	 18065	 18227	 18387	 18540	 19199	 19237	 19246
	 19274	 19282	 19311	 19320	 19348	 19357	 19385	 19394	 19422	 19432	 19460	 19469	 19497	 19506
	 19534	 19543	 19571	 19579	 19607	 19614	 19624	 19652	 19660	 19667	 19695	 19703	 19710	 19738
	 19748	 19757	 19785	 19795	 19805	 19833	 19838	 19844	 19856	 19884	 19891	 19896	 19905	 19910
	 19938	 19947	 19951	 19981	 19990	 19994	 20024	 20033	 20037	 20067	 20076	 20080	 20109	 20115
	 20121	 20127	 20132	 20137	 20165	 20210	 20219	 20225	 20253	 20261	 20268	 20451	 20556
ERROR	    45#	   833	   839	   845	   851	   857	   863	   869	   875	   881	   887	   932	   934	   939
	   941	   946	   948	   953	   955	   960	   962	   967	   969	   974	   976	   981	   983	   988
	   990	   995	   997	  1042	  1044	  1050	  1052	  1058	  1060	  1066	  1068	  1074	  1076	  1082
	  1084	  1090	  1092	  1098	  1100	  1150	  1152	  1154	  1161	  1163	  1165	  1172	  1174	  1176
	  1183	  1185	  1187	  1194	  1196	  1198	  1205	  1207	  1209	  1216	  1218	  1220	  1227	  1229
	  1231	  1321	  1327	  1329	  1358	  1364	  1366	  1411	  1419	  1427	  1435	  1494	  1497	  1500
	  1505	  1534	  1537	  1540	  1545	  1574	  1577	  1580	  1585	  1644	  1647	  1650	  1653	  1657
	  1660	  1666	  1669	  1672	  1675	  1679	  1682	  1716	  1719	  1723	  1755	  1758	  1761	  1765
	  1798	  1801	  1805	  1837	  1840	  1845	  1884	  1890	  1926	  1959	  1962	  1967	  1970	  2002
	  2005	  2011	  2044	  2048	  2051	  2084	  2088	  2091	  2095	  2135	  2175	  2177	  2215	  2217
	  2258	  2260	  2299	  2301	  2342	  2344	  2381	  2383	  2425	  2427	  2467	  2469	  2510	  2512     SEQ 0627
	  2550	  2552	  2598	  2600	  2635	  2637	  2672	  2674	  2707	  2709	  2753	  2755	  3348	  3350
	  3411	  3413	  3427	  3429	  3443	  3445	  3459	  3461	  3475	  3477	  3491	  3493	  3507	  3509
	  3523	  3525	  3539	  3541	  3555	  3557	  3676	  3678	  3718	  3720	  3831	  3907	  3940	  3942
	  4051	  4080	  4112	  4149	  4182	  4217	  5033	  5402	 19038	 19064	 20885	 20925	 20958	 20999
	 21094	 21098	 21165	 21167	 21212	 21214	 21255
FATAL	   248#
FRD36	   390#
FRD8	   391#
FREAD	   389#
FSELEC	   388#
GET	   232#
GO	   229#	 20784	 20851
HALT	    77	    78	    79	    80	    81	   234#	   497
JEN	   236#
JRSTF	   235#
LOOP	   112#	   891	  1001	  1105	  1236	  1272	  1330	  1367	  1440	  1506	  1546	  1586	  1686	  1724
	  1766	  1806	  1846	  1895	  1927	  1971	  2012	  2052	  2096	  2136	  2178	  2218	  2261	  2302
	  2345	  2384	  2428	  2470	  2513	  2553	  2601	  2638	  2675	  2710	  2756	  2792	  2836	  2880
	  2921	  2961	  3135	  3308	  3351	  3564	  3600	  3636	  3679	  3721	  3760	  3793	  3832	  3874
	  3908	  3943	  3979	  4024	  4052	  4081	  4113	  4150	  4183	  4229	  4263	  4297	  4331	  4363
	  4397	  4433	  4468	  4503	  4539	  4576	  4610	  4643	  4677	  4712	  4747	  4779	  4813	  4848
	  4884	  4921	  4957	  4995	  5034	  5071	  5114	  5160	  5206	  5245	  5279	  5320	  5361	  5403
	  5440	  5477	  5514	  5552	  5590	  5628	  5665	  5704	  5741	  5783	  5823	  5867	  5909	  5953
	  5991	  6027	  6068	  6109	  6153	  6200	  6243	  6280	  6318	  6352	  6389	  6424	  6464	  6498
	  6533	  6568	  6604	  6642	  6678	  6726	  6774	  6824	  6871	  6914	  6956	  7000	  7045	  7082
	  7118	  7155	  7195	  7236	  7277	  7319	  7365	  7413	  7459	  7500	  7539	  7579	  7621	  7660
	  7707	  7748	  7788	  7829	  7869	  7908	  7947	  7987	  8031	  8070	  8109	  8150	  8193	  8233
	  8274	  8313	  8352	  8391	  8431	  8470	  8509	  8549	  8589	  8630	  8672	  8716	  8758	  8800
	  8847	  8890	  8941	  8990	  9033	  9072	  9339	  9400	  9484	  9530	  9575	  9689	  9800	  9841
	  9874	  9947	 10031	 10113	 10157	 10265	 10375	 10415	 10517	 10553	 10596	 10640	 10684	 10728
	 10764	 10800	 10840	 10880	 10919	 11194	 11233	 11270	 11309	 11345	 11384	 11423	 11462	 11501
	 11538	 11578	 11616	 11655	 11695	 11731	 11769	 11808	 11847	 11886	 11924	 11963	 12003	 12043
	 12083	 12122	 12161	 12202	 12245	 12290	 12338	 12384	 12431	 12469	 12510	 12550	 12589	 12631
	 12670	 12718	 12765	 12820	 12867	 12909	 12946	 12993	 13032	 13071	 13110	 13148	 13194	 13237
	 13282	 13328	 13376	 13414	 13453	 13491	 13530	 13569	 13609	 13647	 13686	 13726	 13766	 13807
	 13848	 13886	 13925	 13965	 14036	 14074	 14113	 14156	 14199	 14243	 14287	 14325	 14365	 14405
	 14444	 14483	 14525	 14563	 14603	 14645	 14685	 14726	 14769	 14807	 14846	 14882	 14921	 14960
	 15000	 15038	 15083	 15127	 15166	 15212	 15263	 15303	 15344	 15385	 15424	 15465	 15503	 15544
	 15585	 15626	 15667	 15706	 15746	 15786	 15827	 15868	 15906	 15945	 15983	 16023	 16065	 16105
	 16145	 16185	 16224	 16263	 16302	 16341	 16381	 16421	 16460	 16501	 16544	 16582	 16619	 16658
	 16698	 16736	 16774	 16812	 16851	 16889	 16930	 16969	 17009	 17047	 17086	 17125	 17165	 17204
	 17243	 17282	 17321	 17362	 17399	 17440	 17481	 17522	 17563	 17604	 17645	 17683	 17721	 17759
	 17798	 17836	 17873	 17912	 17951	 17989	 18027	 18066	 18105	 18146	 18187	 18228	 18269	 18310
	 18347	 18388	 18429	 18493	 18541	 18591	 18641	 18690	 18740	 18790	 18840	 18878	 18918	 18961
	 19005	 20886	 20926	 20959	 21000	 21103	 21172
MAPADR	   371#
MAPCNK	   372#
MAPMEM	   368#
MAPPNT	   374#
MAPSET	   373#
MEMSEG	   370#
MEMZRO	   369#
MODPCP	   381#                                                                                                            SEQ 0628
MODPCU	   380#
MRANDO	   129#	 19230	 19267	 19304	 19341	 19378	 19415	 19453	 19490	 19527	 19564	 19600	 19645	 19688
	 19731	 19778	 19826	 19877	 19931	 19974	 20017	 20060	 20102	 20158	 20203	 20246
MSETUP	   118#	 19220	 19257	 19294	 19331	 19368	 19405	 19443	 19480	 19517	 19554	 19590	 19635	 19678
	 19721	 19768	 19816	 19867	 19921	 19964	 20007	 20050	 20092	 20148	 20193	 20236
MTROP	   349#
NAME	     7#	    10
PBELL	   324#	 21505
PCRL	   318#	 21301	 21312	 21481
PCRL2	   322#
PCRL2F	   323#
PCRLF	   319#
PFORCE	   326#
PGMINT	   242#	   725
PJRST	   233#
PMSG	   328#	 19148	 19154	 21282	 21288	 21292	 21358	 21362	 21408	 21412	 21424	 21435	 21440	 21452
	 21458	 21469
PMSGF	   331#	 21528
PNT1	   284#
PNT11	   298#
PNT11F	   299#
PNT1F	   285#
PNT2	   286#	 21411
PNT2F	   287#
PNT3	   288#
PNT3F	   289#
PNT4	   290#
PNT4F	   291#
PNT5	   292#
PNT5F	   293#
PNT6	   294#	 21286	 21291	 21295	 21305	 21366	 21463
PNT6F	   295#
PNT7	   296#
PNT7F	   297#
PNTA	   270#	 21308	 21476
PNTADF	   301#
PNTADR	   300#
PNTAF	   271#
PNTAL	   272#
PNTALF	   273#	 19129	 19131
PNTCHF	   283#
PNTCHR	   282#
PNTCI	   280#
PNTCIF	   281#
PNTCW	   316#
PNTCWF	   317#
PNTDCF	   309#
PNTDEC	   308#	 19153	 21361
PNTDS	   310#
PNTDSF	   311#
PNTHW	   304#	 21417	 21431	 21447	 21455
PNTHWF	   305#
PNTMSF	   277#                                                                                                            SEQ 0629
PNTMSG	   276#	 21296
PNTNM	   312#	 21277	 21354
PNTOCF	   307#
PNTOCS	   306#
PNTOCT	   302#
PNTOTF	   303#
PNTSIX	   313#
PNTSXF	   314#
PSIXL	   274#
PSIXLF	   275#
PSIXM	   278#	 19149	 19155	 21283	 21289	 21293	 21359	 21363	 21409	 21413	 21425	 21436	 21441	 21453
	 21459	 21470
PSIXMF	   279#	 21529
PSP	   320#
PSPF	   321#
PUT	   231#
RANDM1	   153#	 20490	 20544	 20642	 20877	 20913	 20950	 20984	 21042	 21074	 21136	 21155
RANDOM	   106#	   818	   917	  1025	  1129	  1261	  1313	  1350	  1393	  1486	  1526	  1566	  1613	  1709
	  1748	  1791	  1830	  1870	  1918	  1952	  1995	  2036	  2076	  2120	  2162	  2203	  2244	  2287
	  2328	  2371	  2411	  2455	  2496	  2539	  2579	  2626	  2662	  2699	  2734	  2780	  2817	  2861
	  2906	  2946	  2987	  3160	  3334	  3378	  3587	  3623	  3661	  3703	  3744	  3784	  3816	  3855
	  3897	  3931	  3966	  4104	  4136	  4174	  4208	  4253	  4287	  4321	  4355	  4387	  4421	  4457
	  4492	  4527	  4563	  4600	  4634	  4667	  4700	  4736	  4771	  4803	  4837	  4873	  4909	  4946
	  4982	  5018	  5058	  5096	  5140	  5186	  5230	  5269	  5303	  5344	  5385	  5427	  5464	  5501
	  5538	  5576	  5614	  5652	  5689	  5728	  5766	  5808	  5849	  5893	  5936	  5977	  6015	  6051
	  6094	  6135	  6179	  6226	  6267	  6304	  6342	  6376	  6413	  6448	  6488	  6522	  6559	  6592
	  6632	  6668	  6706	  6754	  6802	  6851	  6899	  6941	  6984	  7029	  7071	  7109	  7144	  7182
	  7223	  7262	  7303	  7345	  7392	  7440	  7485	  7526	  7566	  7605	  7647	  7686	  7733	  7774
	  7814	  7855	  7895	  7934	  7974	  8013	  8057	  8096	  8135	  8176	  8219	  8259	  8300	  8339
	  8378	  8418	  8457	  8496	  8535	  8575	  8615	  8656	  8699	  8743	  8787	  8830	  8874	  8917
	  8966	  9017	  9061	  9326	  9367	  9470	  9513	  9557	  9677	  9786	  9826	  9932	 10017	 10095
	 10140	 10253	 10360	 10401	 10504	 10543	 10581	 10622	 10666	 10710	 10754	 10790	 10826	 10866
	 10906	 11029	 11066	 11181	 11220	 11259	 11296	 11335	 11371	 11410	 11449	 11488	 11527	 11564
	 11604	 11642	 11681	 11721	 11757	 11795	 11834	 11873	 11912	 11950	 11989	 12029	 12069	 12109
	 12148	 12187	 12228	 12273	 12318	 12366	 12412	 12457	 12495	 12536	 12576	 12615	 12657	 12700
	 12748	 12793	 12848	 12897	 12933	 12981	 13019	 13058	 13097	 13136	 13174	 13220	 13263	 13308
	 13354	 13402	 13440	 13479	 13517	 13556	 13595	 13635	 13673	 13712	 13752	 13792	 13833	 13874
	 13912	 13951	 13991	 14020	 14062	 14100	 14139	 14182	 14225	 14269	 14313	 14351	 14391	 14431
	 14470	 14509	 14551	 14589	 14629	 14671	 14711	 14752	 14795	 14833	 14870	 14908	 14947	 14986
	 15026	 15064	 15109	 15153	 15192	 15240	 15291	 15329	 15370	 15411	 15450	 15491	 15529	 15570
	 15611	 15652	 15693	 15732	 15772	 15812	 15853	 15894	 15932	 15971	 16009	 16053	 16091	 16131
	 16171	 16212	 16250	 16289	 16328	 16368	 16407	 16447	 16486	 16528	 16570	 16608	 16645	 16685
	 16724	 16762	 16800	 16839	 16877	 16917	 16956	 16996	 17035	 17073	 17112	 17152	 17191	 17230
	 17269	 17308	 17347	 17388	 17425	 17466	 17507	 17548	 17589	 17630	 17671	 17709	 17747	 17785
	 17824	 17862	 17899	 17938	 17977	 18015	 18053	 18092	 18131	 18172	 18213	 18254	 18295	 18336
	 18373	 18414	 18470	 18517	 18567	 18615	 18667	 18716	 18766	 18814	 18866	 18906	 18947	 18990
	 19076
RDAPR	   394#
RDCSB	   394#
RDCSTM	   394#
RDEBR	   394#
RDHSB	   394#
RDINT	   394#                                                                                                            SEQ 0630
RDIO	   394#
RDIOB	   394#
RDPI	   394#
RDPUR	   394#
RDSPB	   394#
RDTIM	   394#
RDUBR	   394#
RTN	   230#	   484
S	   160#	   162	   166	   195	   197	   206	   209	   224	   225	   227	   238	   240	   244	   246
	   251	   255	   394	   399	   405	   432	   434	   452	   454	   472	   474	   503	   505	   523
	   525	   543	   545	   553	   555	   576	   581	   607	   609	   616	   618	   624	   626	   632
	   634	   638	   640	   645	   647	   651	   653	   657	   659	   665	   667	   670	   672	   676
	   678	   682	   684	   688	   690	   694	   696	   701	   703	   707	   709	   713	   715	   717
	   719
SETUP	    91#	   804	   903	  1011	  1115	  1247	  1299	  1336	  1379	  1472	  1512	  1552	  1599	  1695
	  1734	  1777	  1816	  1856	  1904	  1938	  1981	  2022	  2062	  2106	  2148	  2189	  2230	  2273
	  2314	  2357	  2397	  2441	  2482	  2525	  2565	  2612	  2648	  2685	  2720	  2766	  2803	  2847
	  2892	  2932	  2973	  3146	  3320	  3364	  3573	  3609	  3647	  3689	  3730	  3770	  3802	  3841
	  3883	  3917	  3952	  3988	  4034	  4063	  4090	  4122	  4160	  4194	  4239	  4273	  4307	  4341
	  4373	  4407	  4443	  4478	  4513	  4549	  4586	  4620	  4653	  4686	  4722	  4757	  4789	  4823
	  4859	  4895	  4932	  4968	  5004	  5044	  5082	  5126	  5172	  5216	  5255	  5289	  5330	  5371
	  5413	  5450	  5487	  5524	  5562	  5600	  5638	  5675	  5714	  5752	  5793	  5834	  5878	  5921
	  5963	  6001	  6037	  6079	  6120	  6164	  6211	  6253	  6290	  6328	  6362	  6399	  6434	  6474
	  6508	  6545	  6578	  6618	  6654	  6691	  6739	  6787	  6836	  6884	  6926	  6969	  7014	  7057
	  7095	  7130	  7168	  7209	  7248	  7289	  7331	  7378	  7426	  7471	  7512	  7552	  7591	  7633
	  7672	  7719	  7760	  7800	  7841	  7881	  7920	  7960	  7999	  8043	  8082	  8121	  8162	  8205
	  8245	  8286	  8325	  8364	  8404	  8443	  8482	  8521	  8561	  8601	  8642	  8685	  8728	  8773
	  8815	  8860	  8903	  8952	  9003	  9047	  9084	  9119	  9151	  9189	  9225	  9267	  9312	  9353
	  9413	  9456	  9499	  9543	  9588	  9630	  9663	  9701	  9739	  9772	  9812	  9853	  9886	  9918
	  9960	 10003	 10046	 10081	 10126	 10170	 10205	 10239	 10277	 10315	 10346	 10387	 10427	 10458
	 10490	 10529	 10566	 10608	 10652	 10696	 10740	 10776	 10812	 10852	 10892	 10932	 10974	 11015
	 11052	 11090	 11130	 11167	 11206	 11245	 11282	 11321	 11357	 11396	 11435	 11474	 11513	 11550
	 11590	 11628	 11667	 11707	 11743	 11781	 11820	 11859	 11898	 11936	 11975	 12015	 12055	 12095
	 12134	 12173	 12214	 12258	 12303	 12351	 12397	 12443	 12481	 12522	 12562	 12601	 12643	 12685
	 12733	 12778	 12833	 12883	 12919	 12967	 13005	 13044	 13083	 13122	 13160	 13206	 13249	 13294
	 13339	 13388	 13426	 13465	 13503	 13542	 13581	 13621	 13659	 13698	 13738	 13778	 13819	 13860
	 13898	 13937	 13977	 14006	 14048	 14086	 14125	 14168	 14211	 14255	 14299	 14337	 14377	 14417
	 14456	 14495	 14537	 14575	 14615	 14657	 14697	 14738	 14781	 14819	 14856	 14894	 14933	 14972
	 15012	 15050	 15095	 15139	 15178	 15225	 15277	 15315	 15356	 15397	 15436	 15477	 15515	 15556
	 15597	 15638	 15679	 15718	 15758	 15798	 15839	 15880	 15918	 15957	 15995	 16039	 16077	 16117
	 16157	 16198	 16236	 16275	 16314	 16354	 16393	 16433	 16472	 16514	 16556	 16594	 16631	 16671
	 16710	 16748	 16786	 16825	 16863	 16903	 16942	 16982	 17021	 17059	 17098	 17138	 17177	 17216
	 17255	 17294	 17333	 17374	 17411	 17452	 17493	 17534	 17575	 17616	 17657	 17695	 17733	 17771
	 17810	 17848	 17885	 17924	 17963	 18001	 18039	 18078	 18117	 18158	 18199	 18240	 18281	 18322
	 18359	 18400	 18456	 18503	 18553	 18601	 18653	 18702	 18752	 18800	 18852	 18892	 18933	 18976
	 19020	 19047
SETUP1	   138#	 20283	 20327	 20371	 20417	 20468	 20522	 20575	 20620	 20670	 20707	 20863	 20899	 20936
	 20970	 21028	 21122	 21184	 21227
SIXBTZ	   337#
SWITCH	   343#	   736	 19117	 21278	 21320	 21340	 21492
TIOE	   394#
TIOEB	   394#
TION	   394#                                                                                                            SEQ 0631
TIONB	   394#
TTALTM	   264#	 21494
TTICHR	   257#
TTICLR	   267#
TTICNV	   262#
TTIDEC	   261#
TTINO	   259#
TTIOCT	   260#
TTIYES	   258#
TTLOOK	   263#
TTSIXB	   265#
TTYINP	   266#
WRAPR	   394#
WRCSB	   394#
WRCSTM	   394#
WREBR	   394#
WRHSB	   394#
WRINT	   394#
WRIO	   394#
WRIOB	   394#
WRPI	   394#
WRPUR	   394#
WRSPB	   394#
WRTIM	   394#
WRUBR	   394#

ADD	   820	   919	  1027	  1131	  1263	  1315	  1352	  1395	  1488	  1528	  1568	  1615	  1711	  1750
	  1793	  1832	  1872	  1920	  1954	  1997	  2038	  2078	  2122	  2164	  2205	  2246	  2289	  2330     SEQ 0632
	  2373	  2413	  2457	  2498	  2541	  2581	  2628	  2664	  2701	  2736	  2782	  2819	  2863	  2908
	  2948	  2989	  3162	  3336	  3380	  3589	  3625	  3663	  3705	  3746	  3786	  3818	  3857	  3899
	  3933	  3968	  4106	  4110	  4138	  4143	  4144	  4145	  4146	  4147	  4176	  4180	  4210	  4214
	  4215	  4255	  4289	  4323	  4357	  4389	  4423	  4459	  4494	  4529	  4565	  4602	  4636	  4669
	  4702	  4738	  4773	  4805	  4839	  4875	  4911	  4948	  4984	  5020	  5060	  5067	  5098	  5142
	  5188	  5232	  5241	  5271	  5305	  5314	  5346	  5355	  5387	  5429	  5466	  5503	  5540	  5578
	  5616	  5654	  5691	  5730	  5768	  5810	  5851	  5895	  5938	  5979	  6017	  6053	  6096	  6137
	  6181	  6228	  6269	  6306	  6344	  6378	  6415	  6450	  6490	  6524	  6561	  6594	  6634	  6670
	  6708	  6756	  6804	  6853	  6901	  6943	  6986	  7031	  7073	  7111	  7146	  7184	  7225	  7264
	  7305	  7347	  7394	  7442	  7487	  7528	  7568	  7607	  7649	  7688	  7735	  7776	  7816	  7857
	  7897	  7936	  7976	  8015	  8059	  8098	  8137	  8178	  8221	  8261	  8302	  8341	  8380	  8420
	  8459	  8498	  8537	  8577	  8617	  8658	  8701	  8745	  8789	  8832	  8876	  8919	  8968	  9019
	  9063	  9328	  9369	  9376	  9431	  9472	  9515	  9521	  9559	  9566	  9609	  9679	  9683	  9720
	  9788	  9794	  9828	  9835	  9934	 10019	 10097	 10142	 10255	 10362	 10403	 10506	 10545	 10583
	 10624	 10668	 10712	 10756	 10792	 10828	 10868	 10908	 11031	 11068	 11183	 11222	 11261	 11298
	 11337	 11373	 11412	 11451	 11490	 11529	 11566	 11606	 11644	 11683	 11723	 11759	 11797	 11836
	 11875	 11914	 11952	 11991	 12031	 12071	 12111	 12150	 12189	 12230	 12275	 12320	 12368	 12414
	 12459	 12497	 12538	 12578	 12617	 12659	 12702	 12750	 12795	 12850	 12899	 12935	 12983	 13021
	 13060	 13099	 13138	 13176	 13222	 13265	 13310	 13356	 13404	 13442	 13481	 13519	 13558	 13597
	 13637	 13675	 13714	 13754	 13794	 13835	 13876	 13914	 13953	 13993	 14022	 14064	 14102	 14141
	 14184	 14227	 14271	 14315	 14353	 14393	 14433	 14472	 14511	 14553	 14591	 14631	 14673	 14713
	 14754	 14797	 14835	 14872	 14910	 14949	 14988	 15028	 15066	 15111	 15155	 15194	 15242	 15293
	 15331	 15372	 15413	 15452	 15493	 15531	 15572	 15613	 15654	 15695	 15734	 15774	 15814	 15855
	 15896	 15934	 15973	 16011	 16055	 16093	 16133	 16173	 16214	 16252	 16291	 16330	 16370	 16409
	 16449	 16488	 16530	 16572	 16610	 16647	 16687	 16726	 16764	 16802	 16841	 16879	 16919	 16958
	 16998	 17037	 17075	 17114	 17154	 17193	 17232	 17271	 17310	 17349	 17390	 17427	 17468	 17509
	 17550	 17591	 17632	 17673	 17711	 17749	 17787	 17826	 17864	 17901	 17940	 17979	 18017	 18055
	 18094	 18133	 18174	 18215	 18256	 18297	 18338	 18375	 18416	 18472	 18490	 18519	 18569	 18617
	 18669	 18718	 18768	 18816	 18868	 18872	 18908	 18912	 18949	 18955	 18992	 18999	 19078	 19167
	 19177	 19231	 19268	 19305	 19342	 19379	 19416	 19454	 19491	 19528	 19565	 19601	 19646	 19689
	 19732	 19779	 19827	 19878	 19932	 19975	 20018	 20061	 20103	 20159	 20204	 20247	 20392	 20438
	 20489	 20492	 20543	 20546	 20641	 20644	 20758	 20809	 20879	 20915	 20952	 20986	 21044	 21077
	 21138	 21157	 21163
ADDB	  4463	  4498	  4534	 18636	 20262
ADDI	  4360	  4394	  4430	 18588	 19151	 20212	 20724	 21060	 21069	 21070	 21091
ADDM	  4260	  4294	  4328	 18538	 20254
AND	  1714	  1717	  1721	  2171	  2211	  2252	  2547	  3340	  3384	  4844	  5390	  5774	  7448	  8662
	  9024	  9332	 11572	 12194	 15861	 18481	 18488	 18529	 18536	 18579	 18586	 18627	 18634	 18678
	 18685	 18728	 18735	 18778	 18785	 18826	 18833	 19123	 20761	 20812	 20918	 20989	 21047	 21141
ANDB	 15339	 19351
ANDCA	  1796	  1799	  1803	  2336	  2339	 11689	 12622	 14028	 14278
ANDCAB	 15380	 19539
ANDCAI	 11230
ANDCAM	  2465	 19499
ANDCB	  2081	  2082	  2085	  2086	  2089	  2092	  2093
ANDCBB	 15621	 19501
ANDCBI	 11459
ANDCBM	  2548	 19574
ANDCM	  2000	  2003	  2007	  2008	  2295	  5814	  5858	  5901	  6141	  6187	  6712	  6810	  6905	  6992
	 11418	 11650	 12281	 12329	 12376	 12708	 12802	 13362	 15249	 15578	 15820
ANDCMB	 15460	 20117
ANDCMI	 11306
ANDCMM	  2508	 19500                                                                                                     SEQ 0633
ANDI	  3903	  3974	 11191	 12502	 13957	 14147	 14234	 19118	 20820	 21145	 21402	 21439
ANDM	  2423	 19277
AOBJN	 18915	 18956	 19001	 19062	 19206	 19248	 19284	 19322	 19359	 19396	 19434	 19471	 19508	 19545
	 19581	 19626	 19669	 19712	 19759	 19807	 19858	 19912	 19955	 19998	 20041	 20084	 20139	 20184
	 20227	 20270	 20300	 20313	 20344	 20358	 20388	 20402	 20434	 20454	 20485	 20506	 20539	 20561
	 20592	 20605	 20637	 20655	 21081	 21086	 21100	 21201	 21217	 21244	 21258
AOBJP	 18875	 18957	 19000	 19036
AOJ	  9684	 10548	 20689	 20726
AOJA	  9685	 19090	 20692	 20729	 20767	 20818	 21311
AOJE	  9721	  9756
AOJG	  9755	  9796	  9836	  9869	  9902
AOJGE	  9870
AOJL	  9795	  9837
AOJLE	  9903
AOJN	  9722
AOS	   482	  9377	 10510	 20166	 20778	 20844	 21268	 21269	 21333	 21336	 21512	 21513
AOSA	  9378
AOSE	  9433	  9478
AOSG	  9477	  9524	  9568	  9611	  9646
AOSGE	  9647
AOSL	  9523	  9569
AOSLE	  9610
AOSN	  9434
ASCII	   583	   585	   588	   589	   590	   591	   593	   594	   595	   596	   597	   598	   600	   601
	   602	  1148	  1159	  1170	  1181	  1192	  1203	  1214	  1225	  3599	  3635	  4007	  4013	  4018
	  4023	  4221	  4223	  4225	  4228	  5435	  5437	  5472	  5474	  5509	  5511	  5547	  5549	  5585
	  5587	  5623	  5625	  5660	  5662	  5697	  5699	  5738	  5780	  5818	  5820	  5864	  5904	  5906
	  5949	  5988	  6022	  6024	  6065	  6104	  6106	  6146	  6192	  6196	  6237	  6239	  6312	  6314
	  6349	  6384	  6386	  6459	  6461	  6530	  6601	  6639	  6716	  6718	  6722	  6764	  6766	  6770
	  6814	  6816	  6820	  6867	  6909	  6911	  6951	  6953	  6995	  6997	  7040	  7042	  7190	  7192
	  7231	  7233	  7274	  7314	  7316	  7354	  7356	  7361	  7403	  7405	  7409	  7454	  7456	  7495
	  7497	  7534	  7536	  7574	  7576	  7616	  7618	  7655	  7657	  7696	  7698	  7703	  7745	  7783
	  7785	  7826	  7864	  7866	  7903	  7905	  7942	  7944	  7982	  7984	  8026	  8028	  8065	  8067
	  8104	  8106	  8147	  8190	  8230	  8271	  8308	  8310	  8347	  8349	  8386	  8388	  8426	  8428
	  8465	  8467	  8504	  8506	  8544	  8546	  8584	  8586	  8625	  8627	  8667	  8669	  8708	  8711
	  8753	  8795	  8842	  8885	  8928	  8936	  8977	  8985	  9028	  9069	  9104	  9136	  9173	  9211
	  9246	  9252	  9288	  9294	  9336	  9379	  9388	  9390	  9392	  9395	  9397	  9399	  9435	  9479
	  9525	  9570	  9612	  9648	  9686	  9723	  9757	  9797	  9838	  9871	  9904	  9942	  9983	 10026
	 10065	 10108	 10152	 10189	 10224	 10262	 10300	 10333	 10372	 10412	 10445	 10476	 10512	 10550
	 10591	 10635	 10679	 10723	 10761	 10797	 10837	 10877	 10916	 10957	 10999	 11039	 11076	 11114
	 11154	 11764	 11766	 11803	 11805	 11842	 11844	 11881	 11883	 11919	 11921	 11958	 11960	 11998
	 12000	 12038	 12040	 12078	 12080	 12117	 12119	 12156	 12158	 12197	 12199	 12242	 12285	 12287
	 12335	 12379	 12381	 12427	 12464	 12466	 12505	 12507	 12545	 12547	 12584	 12586	 12626	 12628
	 12665	 12667	 12713	 12715	 12760	 12762	 12808	 12810	 12815	 12861	 12863	 12904	 12906	 12941
	 12943	 12988	 12990	 13027	 13029	 13066	 13068	 13105	 13107	 13143	 13145	 13184	 13186	 13190
	 13232	 13234	 13272	 13274	 13278	 13318	 13320	 13324	 13366	 13368	 13372	 13409	 13411	 13448
	 13450	 13486	 13488	 13525	 13527	 13564	 13566	 13604	 13606	 13642	 13644	 13681	 13683	 13721
	 13723	 13761	 13763	 13802	 13804	 13843	 13845	 13881	 13883	 13920	 13922	 13960	 13962	 14001
	 14031	 14033	 14069	 14071	 14108	 14110	 14153	 14196	 14240	 14284	 14320	 14322	 14360	 14362
	 14400	 14402	 14439	 14441	 14478	 14480	 14520	 14522	 14558	 14560	 14598	 14600	 14640	 14642
	 14680	 14682	 14721	 14723	 14764	 14766	 14802	 14804	 14841	 14843	 14877	 14879	 14916	 14918
	 14955	 14957	 14995	 14997	 15033	 15035	 15073	 15075	 15079	 15122	 15124	 15161	 15163	 15202
	 15204	 15208	 15253	 15255	 15259	 18958	 19002	 19203	 20168	 20175	 20180	 20307                     SEQ 0634
ASCIZ	   776	 19127	 21296
ASH	   816	   817	   915	   916	  1023	  1024	  1127	  1128	  1259	  1260	  1311	  1312	  1348	  1349
	  1391	  1392	  1484	  1485	  1524	  1525	  1564	  1565	  1611	  1612	  1707	  1708	  1746	  1747
	  1789	  1790	  1828	  1829	  1868	  1869	  1916	  1917	  1950	  1951	  1993	  1994	  2034	  2035
	  2074	  2075	  2118	  2119	  2160	  2161	  2201	  2202	  2242	  2243	  2285	  2286	  2326	  2327
	  2369	  2370	  2409	  2410	  2453	  2454	  2494	  2495	  2537	  2538	  2577	  2578	  2624	  2625
	  2660	  2661	  2697	  2698	  2732	  2733	  2778	  2779	  2815	  2816	  2859	  2860	  2904	  2905
	  2944	  2945	  2985	  2986	  3158	  3159	  3332	  3333	  3376	  3377	  3585	  3586	  3621	  3622
	  3659	  3660	  3701	  3702	  3742	  3743	  3782	  3783	  3814	  3815	  3853	  3854	  3895	  3896
	  3929	  3930	  3964	  3965	  4000	  4001	  4004	  4010	  4016	  4021	  4046	  4047	  4049	  4075
	  4076	  4078	  4102	  4103	  4134	  4135	  4172	  4173	  4206	  4207	  4251	  4252	  4285	  4286
	  4319	  4320	  4353	  4354	  4385	  4386	  4419	  4420	  4455	  4456	  4490	  4491	  4525	  4526
	  4561	  4562	  4598	  4599	  4632	  4633	  4665	  4666	  4698	  4699	  4734	  4735	  4769	  4770
	  4801	  4802	  4835	  4836	  4871	  4872	  4907	  4908	  4944	  4945	  4980	  4981	  5016	  5017
	  5056	  5057	  5094	  5095	  5138	  5139	  5184	  5185	  5228	  5229	  5267	  5268	  5301	  5302
	  5342	  5343	  5383	  5384	  5425	  5426	  5462	  5463	  5499	  5500	  5536	  5537	  5574	  5575
	  5612	  5613	  5650	  5651	  5687	  5688	  5726	  5727	  5764	  5765	  5805	  5806	  5846	  5847
	  5890	  5891	  5933	  5934	  5975	  5976	  6013	  6014	  6049	  6050	  6091	  6092	  6132	  6133
	  6176	  6177	  6223	  6224	  6265	  6266	  6302	  6303	  6340	  6341	  6374	  6375	  6411	  6412
	  6446	  6447	  6486	  6487	  6520	  6521	  6557	  6558	  6590	  6591	  6630	  6631	  6666	  6667
	  6703	  6704	  6751	  6752	  6799	  6800	  6848	  6849	  6896	  6897	  6938	  6939	  6981	  6982
	  7026	  7027	  7069	  7070	  7107	  7108	  7142	  7143	  7180	  7181	  7221	  7222	  7260	  7261
	  7301	  7302	  7343	  7344	  7390	  7391	  7438	  7439	  7483	  7484	  7524	  7525	  7564	  7565
	  7603	  7604	  7645	  7646	  7684	  7685	  7731	  7732	  7772	  7773	  7812	  7813	  7853	  7854
	  7893	  7894	  7932	  7933	  7972	  7973	  8011	  8012	  8055	  8056	  8094	  8095	  8133	  8134
	  8174	  8175	  8217	  8218	  8257	  8258	  8298	  8299	  8337	  8338	  8376	  8377	  8416	  8417
	  8455	  8456	  8494	  8495	  8533	  8534	  8573	  8574	  8613	  8614	  8654	  8655	  8697	  8698
	  8740	  8741	  8785	  8786	  8827	  8828	  8872	  8873	  8915	  8916	  8964	  8965	  9015	  9016
	  9059	  9060	  9096	  9097	  9131	  9132	  9163	  9164	  9201	  9202	  9237	  9238	  9279	  9280
	  9324	  9325	  9365	  9366	  9425	  9426	  9468	  9469	  9511	  9512	  9555	  9556	  9600	  9601
	  9642	  9643	  9675	  9676	  9713	  9714	  9751	  9752	  9784	  9785	  9824	  9825	  9865	  9866
	  9898	  9899	  9930	  9931	  9972	  9973	 10015	 10016	 10058	 10059	 10093	 10094	 10138	 10139
	 10182	 10183	 10217	 10218	 10251	 10252	 10289	 10290	 10327	 10328	 10358	 10359	 10399	 10400
	 10439	 10440	 10470	 10471	 10502	 10503	 10541	 10542	 10578	 10579	 10620	 10621	 10664	 10665
	 10708	 10709	 10752	 10753	 10788	 10789	 10824	 10825	 10864	 10865	 10904	 10905	 10944	 10945
	 10986	 10987	 11027	 11028	 11064	 11065	 11102	 11103	 11142	 11143	 11179	 11180	 11218	 11219
	 11257	 11258	 11294	 11295	 11333	 11334	 11369	 11370	 11408	 11409	 11447	 11448	 11486	 11487
	 11525	 11526	 11562	 11563	 11602	 11603	 11640	 11641	 11679	 11680	 11719	 11720	 11755	 11756
	 11793	 11794	 11832	 11833	 11871	 11872	 11910	 11911	 11948	 11949	 11987	 11988	 12027	 12028
	 12067	 12068	 12107	 12108	 12146	 12147	 12185	 12186	 12226	 12227	 12270	 12271	 12315	 12316
	 12363	 12364	 12409	 12410	 12455	 12456	 12493	 12494	 12534	 12535	 12574	 12575	 12613	 12614
	 12655	 12656	 12697	 12698	 12745	 12746	 12790	 12791	 12845	 12846	 12895	 12896	 12931	 12932
	 12979	 12980	 13017	 13018	 13056	 13057	 13095	 13096	 13134	 13135	 13172	 13173	 13218	 13219
	 13261	 13262	 13306	 13307	 13351	 13352	 13400	 13401	 13438	 13439	 13477	 13478	 13515	 13516
	 13554	 13555	 13593	 13594	 13633	 13634	 13671	 13672	 13710	 13711	 13750	 13751	 13790	 13791
	 13831	 13832	 13872	 13873	 13910	 13911	 13949	 13950	 13989	 13990	 14018	 14019	 14060	 14061
	 14098	 14099	 14137	 14138	 14180	 14181	 14223	 14224	 14267	 14268	 14311	 14312	 14349	 14350
	 14389	 14390	 14429	 14430	 14468	 14469	 14507	 14508	 14549	 14550	 14587	 14588	 14627	 14628
	 14669	 14670	 14709	 14710	 14750	 14751	 14793	 14794	 14831	 14832	 14868	 14869	 14906	 14907
	 14945	 14946	 14984	 14985	 15024	 15025	 15062	 15063	 15107	 15108	 15151	 15152	 15190	 15191
	 15237	 15238	 15289	 15290	 15327	 15328	 15368	 15369	 15409	 15410	 15448	 15449	 15489	 15490
	 15527	 15528	 15568	 15569	 15609	 15610	 15650	 15651	 15691	 15692	 15730	 15731	 15770	 15771
	 15810	 15811	 15851	 15852	 15892	 15893	 15930	 15931	 15969	 15970	 16007	 16008	 16051	 16052     SEQ 0635
	 16089	 16090	 16129	 16130	 16169	 16170	 16210	 16211	 16248	 16249	 16287	 16288	 16326	 16327
	 16366	 16367	 16405	 16406	 16445	 16446	 16484	 16485	 16526	 16527	 16568	 16569	 16606	 16607
	 16643	 16644	 16683	 16684	 16722	 16723	 16760	 16761	 16798	 16799	 16837	 16838	 16875	 16876
	 16915	 16916	 16954	 16955	 16994	 16995	 17033	 17034	 17071	 17072	 17110	 17111	 17150	 17151
	 17189	 17190	 17228	 17229	 17267	 17268	 17306	 17307	 17345	 17346	 17386	 17387	 17423	 17424
	 17464	 17465	 17505	 17506	 17546	 17547	 17587	 17588	 17628	 17629	 17669	 17670	 17707	 17708
	 17745	 17746	 17783	 17784	 17822	 17823	 17860	 17861	 17897	 17898	 17936	 17937	 17975	 17976
	 18013	 18014	 18051	 18052	 18090	 18091	 18129	 18130	 18170	 18171	 18211	 18212	 18252	 18253
	 18293	 18294	 18334	 18335	 18371	 18372	 18412	 18413	 18468	 18469	 18515	 18516	 18565	 18566
	 18613	 18614	 18665	 18666	 18714	 18715	 18764	 18765	 18812	 18813	 18864	 18865	 18904	 18905
	 18945	 18946	 18988	 18989	 19032	 19033	 19059	 19060	 20295	 20296	 20339	 20340	 20383	 20384
	 20429	 20430	 20480	 20481	 20534	 20535	 20587	 20588	 20632	 20633	 20682	 20683	 20719	 20720
	 20875	 20876	 20911	 20912	 20948	 20949	 20982	 20983	 21040	 21041	 21056	 21134	 21135	 21196
	 21197	 21239	 21240
BLOCK	   551	   611	   614	   620	   623	   629	   793	 21325	 21667
BYTE	   599
CAI	 10835
CAIA	 10836
CAIE	 10875	 10915	 20398	 20502	 20602	 21429
CAIG	 10956	 10997	 11037	 11153	 20813	 20992	 21146	 21403	 21415	 21427	 21443
CAIGE	 11038	 11112	 20762	 20779	 20845	 21310
CAIL	 10955	 10998	 11074	 11113	 21373	 21379	 21432	 21464	 21517
CAILE	 11075	 11152	 20691	 20728	 20764	 20815
CAIN	 10876	 10914	 13227	 15117	 20821	 20832	 21063	 21394	 21404	 21421	 21448	 21450	 21461	 21466
CALL	   729	   774
CAM	 10589
CAMA	 10590
CAME	   832	   838	   844	   850	   856	   862	   868	   874	   880	   886	   931	   933	   938	   940
	   945	   947	   952	   954	   959	   961	   966	   968	   973	   975	   980	   982	   987	   989
	   994	   996	  1041	  1043	  1049	  1051	  1057	  1059	  1065	  1067	  1073	  1075	  1081	  1083
	  1089	  1091	  1097	  1099	  1149	  1151	  1153	  1160	  1162	  1164	  1171	  1173	  1175	  1182
	  1184	  1186	  1193	  1195	  1197	  1204	  1206	  1208	  1215	  1217	  1219	  1226	  1228	  1230
	  1268	  1270	  1326	  1328	  1363	  1365	  1410	  1418	  1426	  1434	  1493	  1496	  1499	  1504
	  1533	  1536	  1539	  1544	  1573	  1576	  1579	  1584	  1643	  1646	  1649	  1652	  1656	  1659
	  1665	  1668	  1671	  1674	  1678	  1681	  1715	  1718	  1722	  1754	  1757	  1760	  1764	  1797
	  1800	  1804	  1836	  1839	  1844	  1883	  1889	  1925	  1958	  1961	  1966	  1969	  2001	  2004
	  2010	  2043	  2047	  2050	  2083	  2087	  2090	  2094	  2134	  2176	  2216	  2259	  2300	  2343
	  2382	  2426	  2468	  2511	  2551	  2599	  2636	  2671	  2673	  2708	  2754	  2788	  2790	  2832
	  2834	  2876	  2878	  2917	  2919	  2957	  2959	  3010	  3012	  3023	  3025	  3036	  3038	  3049
	  3051	  3062	  3064	  3075	  3077	  3088	  3090	  3101	  3103	  3114	  3116	  3127	  3129	  3183
	  3185	  3196	  3198	  3209	  3211	  3222	  3224	  3235	  3237	  3248	  3250	  3261	  3263	  3274
	  3276	  3287	  3289	  3300	  3302	  3347	  3349	  3410	  3412	  3426	  3428	  3442	  3444	  3458
	  3460	  3474	  3476	  3490	  3492	  3506	  3508	  3522	  3524	  3538	  3540	  3554	  3556	  3675
	  3677	  3717	  3719	  3758	  3791	  3830	  3870	  3872	  3906	  3939	  3941	  3975	  3977	  4050
	  4079	  4111	  4148	  4181	  4216	  4261	  4295	  4329	  4361	  4395	  4431	  4464	  4466	  4499
	  4501	  4535	  4537	  4574	  4608	  4641	  4675	  4708	  4710	  4743	  4745	  4777	  4811	  4846
	  4880	  4882	  4917	  4919	  4953	  4955	  4993	  5032	  5069	  5112	  5156	  5158	  5204	  5243
	  5277	  5316	  5318	  5357	  5359	  5401	  5438	  5475	  5512	  5550	  5588	  5626	  5663	  5700
	  5734	  5739	  5776	  5781	  5821	  5860	  5865	  5907	  5945	  5950	  5984	  5989	  6025	  6061
	  6066	  6107	  6147	  6151	  6193	  6197	  6240	  6274	  6278	  6315	  6350	  6387	  6422	  6462
	  6496	  6531	  6566	  6602	  6640	  6676	  6719	  6724	  6767	  6772	  6817	  6822	  6863	  6868
	  6912	  6954	  6998	  7043	  7080	  7116	  7153	  7193	  7234	  7270	  7275	  7317	  7357	  7363
	  7406	  7411	  7457	  7498	  7537	  7577	  7619	  7658	  7699	  7705	  7741	  7746	  7786	  7822     SEQ 0636
	  7827	  7867	  7906	  7945	  7985	  8029	  8068	  8107	  8143	  8148	  8186	  8191	  8227	  8231
	  8267	  8272	  8311	  8350	  8389	  8429	  8468	  8507	  8547	  8587	  8628	  8670	  8712	  8714
	  8754	  8756	  8796	  8798	  8843	  8845	  8886	  8888	  8929	  8931	  8937	  8939	  8978	  8980
	  8986	  8988	  9029	  9031	  9070	  9105	  9137	  9174	  9212	  9247	  9253	  9289	  9295	  9337
	  9380	  9382	  9389	  9396	  9436	  9438	  9480	  9482	  9526	  9528	  9571	  9573	  9613	  9615
	  9649	  9651	  9687	  9724	  9758	  9798	  9839	  9872	  9905	  9943	  9945	  9984	  9986	 10027
	 10029	 10066	 10068	 10109	 10111	 10153	 10155	 10190	 10192	 10225	 10227	 10263	 10301	 10334
	 10373	 10413	 10446	 10477	 10513	 10515	 10551	 10592	 10594	 10636	 10638	 10680	 10682	 10724
	 10726	 10762	 10798	 10838	 10878	 10917	 10958	 11000	 11040	 11077	 11115	 11155	 11192	 11231
	 11268	 11307	 11343	 11382	 11421	 11460	 11499	 11536	 11576	 11614	 11653	 11693	 11729	 11767
	 11806	 11845	 11884	 11922	 11961	 12001	 12041	 12081	 12120	 12159	 12200	 12238	 12243	 12288
	 12331	 12336	 12382	 12423	 12428	 12467	 12508	 12548	 12587	 12629	 12668	 12716	 12763	 12811
	 12817	 12864	 12907	 12944	 12991	 13030	 13069	 13108	 13146	 13187	 13192	 13235	 13275	 13280
	 13321	 13326	 13369	 13374	 13412	 13451	 13489	 13528	 13567	 13607	 13645	 13684	 13724	 13764
	 13805	 13846	 13884	 13923	 13963	 14034	 14072	 14111	 14149	 14154	 14192	 14197	 14236	 14241
	 14280	 14285	 14323	 14363	 14403	 14442	 14481	 14523	 14561	 14601	 14643	 14683	 14724	 14767
	 14805	 14844	 14880	 14919	 14958	 14998	 15036	 15076	 15081	 15125	 15164	 15205	 15210	 15256
	 15261	 15299	 15301	 15340	 15342	 15381	 15383	 15420	 15422	 15461	 15463	 15499	 15501	 15540
	 15542	 15581	 15583	 15622	 15624	 15663	 15665	 15702	 15704	 15742	 15744	 15782	 15784	 15823
	 15825	 15864	 15866	 15902	 15904	 15943	 15981	 16021	 16061	 16063	 16103	 16143	 16183	 16220
	 16222	 16261	 16300	 16339	 16377	 16379	 16419	 16458	 16499	 16540	 16542	 16580	 16617	 16656
	 16694	 16696	 16734	 16772	 16810	 16847	 16849	 16887	 16928	 16967	 17005	 17007	 17045	 17084
	 17123	 17161	 17163	 17202	 17241	 17280	 17317	 17319	 17360	 17397	 17438	 17477	 17479	 17520
	 17561	 17602	 17641	 17643	 17681	 17719	 17757	 17794	 17796	 17834	 17871	 17910	 17947	 17949
	 17987	 18025	 18064	 18101	 18103	 18144	 18185	 18226	 18265	 18267	 18308	 18345	 18386	 18425
	 18427	 18491	 18539	 18589	 18637	 18639	 18688	 18738	 18788	 18836	 18838	 18876	 18916	 18959
	 19003	 19037	 19063	 19102	 19198	 19236	 19243	 19245	 19273	 19279	 19281	 19310	 19317	 19319
	 19347	 19354	 19356	 19384	 19391	 19393	 19421	 19429	 19431	 19459	 19466	 19468	 19496	 19503
	 19505	 19533	 19540	 19542	 19570	 19576	 19578	 19606	 19611	 19613	 19621	 19623	 19651	 19657
	 19659	 19664	 19666	 19694	 19700	 19702	 19707	 19709	 19737	 19745	 19747	 19754	 19756	 19784
	 19792	 19794	 19802	 19804	 19832	 19837	 19841	 19843	 19849	 19853	 19855	 19883	 19888	 19890
	 19895	 19902	 19904	 19909	 19937	 19944	 19946	 19950	 19952	 19980	 19987	 19989	 19993	 19995
	 20023	 20030	 20032	 20036	 20038	 20066	 20073	 20075	 20079	 20081	 20108	 20112	 20114	 20118
	 20120	 20124	 20126	 20129	 20131	 20134	 20136	 20164	 20169	 20171	 20176	 20181	 20209	 20216
	 20218	 20222	 20224	 20252	 20258	 20260	 20263	 20267	 20355	 20395	 20448	 20450	 20499	 20555
	 20557	 20599	 20649	 20651	 20783	 20884	 20924	 20957	 20991	 20998	 21093	 21097	 21164	 21166
	 21211
CAMG	 10634	 10678	 10759	 21143
CAMGE	  8922	 10721	 10760
CAML	  8879	 10633	 10722	 10795	 19125	 21050
CAMLE	  8971	 10677	 10796
CAMN	   831	   837	   843	   849	   855	   861	   867	   873	   879	   885	  1320	  1357	  2168	  2174
	  2214	  2254	  2257	  2298	  2341	  2380	  2421	  2424	  2466	  2506	  2509	  2549	  2585	  2597
	  2634	  2668	  2706	  2740	  2752	  3593	  3629	  5202	  5702	  6454	  7309	  8836	  9176	  9205
	  9241	  9297	  9603	  9988	 10303	 12279	 12324	 12372	 12418	 12706	 12754	 12799	 12854	 13360
	 15246	 20773	 20849	 21303	 21335
CONO	 19196	 19204	 19214
CONSZ	 19202
DATAO	 21273
DEFINE	     7	    91	   106	   112	   118	   129	   138	   153	   160	   328	   331	   337	 18436
END	 21675
EQV	  1835	  1838	  1842	 11379	 15537
EQVB	   822	   921	  1029	  1133	  1265	  1317	  1354	  1397	  1490	  1530	  1570	  1617	  1713	  1752     SEQ 0637
	  1795	  1834	  1874	  1922	  1956	  1999	  2040	  2080	  2124	  2166	  2207	  2248	  2291	  2332
	  2375	  2415	  2459	  2500	  2543	  2583	  2630	  2666	  2703	  2738	  2784	  2821	  2865	  2910
	  2950	  2991	  3164	  3338	  3382	  3591	  3627	  3665	  3707	  3748	  3788	  3820	  3859	  3901
	  3935	  3970	  4108	  4140	  4178	  4212	  4257	  4291	  4325	  4359	  4391	  4425	  4461	  4496
	  4531	  4567	  4604	  4638	  4671	  4704	  4740	  4775	  4807	  4841	  4877	  4913	  4950	  4986
	  5022	  5062	  5100	  5144	  5190	  5234	  5273	  5307	  5348	  5389	  5431	  5468	  5505	  5542
	  5580	  5618	  5656	  5693	  5732	  5770	  5812	  5853	  5897	  5940	  5981	  6019	  6055	  6098
	  6139	  6183	  6230	  6271	  6308	  6346	  6380	  6417	  6452	  6492	  6526	  6563	  6596	  6636
	  6672	  6710	  6758	  6806	  6855	  6903	  6945	  6988	  7033	  7075	  7113	  7148	  7186	  7227
	  7266	  7307	  7349	  7396	  7444	  7489	  7530	  7570	  7609	  7651	  7690	  7737	  7778	  7818
	  7859	  7899	  7938	  7978	  8017	  8061	  8100	  8139	  8180	  8223	  8263	  8304	  8343	  8382
	  8422	  8461	  8500	  8539	  8579	  8619	  8660	  8703	  8747	  8791	  8834	  8878	  8921	  8970
	  9021	  9065	  9330	  9371	  9474	  9517	  9561	  9681	  9790	  9830	  9936	 10021	 10099	 10144
	 10257	 10364	 10405	 10508	 10547	 10585	 10626	 10670	 10714	 10758	 10794	 10830	 10870	 10910
	 11033	 11070	 11185	 11224	 11263	 11300	 11339	 11375	 11414	 11453	 11492	 11531	 11568	 11608
	 11646	 11685	 11725	 11761	 11799	 11838	 11877	 11916	 11954	 11993	 12033	 12073	 12113	 12152
	 12191	 12232	 12277	 12322	 12370	 12416	 12461	 12499	 12540	 12580	 12619	 12661	 12704	 12752
	 12797	 12852	 12901	 12937	 12985	 13023	 13062	 13101	 13140	 13178	 13224	 13267	 13312	 13358
	 13406	 13444	 13483	 13521	 13560	 13599	 13639	 13677	 13716	 13756	 13796	 13837	 13878	 13916
	 13955	 13995	 14024	 14066	 14104	 14143	 14186	 14229	 14273	 14317	 14355	 14395	 14435	 14474
	 14513	 14555	 14593	 14633	 14675	 14715	 14756	 14799	 14837	 14874	 14912	 14951	 14990	 15030
	 15068	 15113	 15157	 15196	 15244	 15295	 15333	 15374	 15415	 15454	 15495	 15533	 15574	 15615
	 15656	 15662	 15697	 15736	 15776	 15816	 15857	 15898	 15936	 15975	 16013	 16057	 16095	 16135
	 16175	 16216	 16254	 16293	 16332	 16372	 16411	 16451	 16490	 16532	 16574	 16612	 16649	 16689
	 16728	 16766	 16804	 16843	 16881	 16921	 16960	 17000	 17039	 17077	 17116	 17156	 17195	 17234
	 17273	 17312	 17351	 17392	 17429	 17470	 17511	 17552	 17593	 17634	 17675	 17713	 17751	 17789
	 17828	 17866	 17903	 17942	 17981	 18019	 18057	 18096	 18135	 18176	 18217	 18258	 18299	 18340
	 18377	 18418	 18474	 18521	 18571	 18619	 18671	 18720	 18770	 18818	 18870	 18910	 18951	 18994
	 19080	 19082	 19233	 19270	 19307	 19344	 19381	 19418	 19456	 19465	 19493	 19530	 19567	 19603
	 19648	 19691	 19734	 19781	 19829	 19880	 19934	 19977	 20020	 20063	 20105	 20161	 20206	 20249
	 20494	 20548	 20646	 20760	 20811	 20881	 20917	 20954	 20988	 21046	 21079	 21140	 21159
EQVI	 11498
EQVM	  2379	 19462
EXCH	  1267	 19242	 21144
HLL	 15942	 20994
HLLE	 17359
HLLEI	 17396
HLLEM	 17437	 19943	 19986
HLLES	 17476	 20035	 20078
HLLI	 15980
HLLM	 16020	 19241	 19656	 19699	 19744	 19791
HLLO	 16886
HLLOI	 16927
HLLOM	 16966	 19836
HLLOS	 17004	 19887
HLLS	 16060	 19275
HLLZ	 16579
HLLZI	 16616
HLLZM	 16655	 19894
HLLZS	 16693	 19840	 20350
HLR	 16418
HLRE	 18307
HLREI	 18344                                                                                                             SEQ 0638
HLREM	 18385	 19751	 19799
HLRES	 18424	 19743	 19790
HLRI	 16457
HLRM	 16498	 19425
HLRO	 17986
HLROI	 18024
HLROM	 18063	 19704
HLROS	 18100	 19698
HLRS	 16539	 19620
HLRZ	 17833	 21049
HLRZI	 17870
HLRZM	 17909	 19661
HLRZS	 17946	 19655
HRL	 16260	 21338
HRLE	 18143
HRLEI	 18184
HRLEM	 18225	 19742	 19789
HRLES	 18264	 19752	 19800
HRLI	 16299	 20768	 20771	 20823	 20826	 21092
HRLM	 16338	 19424
HRLO	 17201
HRLOI	 17240
HRLOM	 17279	 19697
HRLOS	 17316	 19705
HRLS	 16376	 19610	 21068
HRLZ	 17680
HRLZI	 17718
HRLZM	 17756	 19654	 21065
HRLZS	 17793	 19662
HRR	 16102	 19169	 19174	 19179	 20995
HRRE	 17519
HRREI	 17560
HRREM	 17601	 20029	 20072
HRRES	 17640	 19949	 19992	 21150
HRRI	 16142	 20351	 20445	 20497	 20552	 20687	 21066	 21208	 21250
HRRM	 16182	 19276	 19663	 19706	 19753	 19801	 21072	 21153
HRRO	 17044
HRROI	 17083
HRROM	 17122	 19848
HRROS	 17160	 19901
HRRS	 16219	 19313
HRRZ	 16733	 20684	 20721	 20753	 20781	 20805	 20830	 20831	 20847	 20990	 21048	 21154	 21302	 21315
	 21334	 21364
HRRZI	 16771	 21095	 21475
HRRZM	 16809	 19124	 19908
HRRZS	 16846	 19852	 20397	 20501	 20601
IDIVI	 19152
IFDEF	   394	   445	   446	   447	   448	 21368	 21484	 21666	 21673
IFNDEF	   383	   384	   394	   445	   446	   447	   448	   527	 21536
IOR	  1645	  1648	  1651	  1655	  1658	  1667	  1670	  1673	  1677	  1680	  2338	  2418	  2504	  5855
	  5862	  5943	  6059	  6100	  6144	  6190	  6234	  6760	  6859	  6947	  7037	  7613	  9168	  9284
	  9442	  9976	 10366	 10949	 10991	 11107	 11147	 11457	 12326	 12421	 12711	 12756	 12805	 12857
	 13717	 13797	 13838	 14144	 14230	 14274	 14397	 14517	 14634	 14637	 14716	 14757	 14761	 15114     SEQ 0639
	 15197	 15619	 15740	 16538
IORB	 15580	 19314
IORI	  4428	 10101	 10293	 11420	 11994	 12034	 12074	 12542	 13225	 13268	 13313	 13757	 14187	 14594
	 14676	 15069	 15158	 19609	 19617
IORM	  2173	 19350
JFCL	   485	   486	   487	   488	   489	   490	   491	   492	   493	   494	   495	   496	  3595	  3597
	  3631	  3633	  4003	  4005	  4008	  4011	  4014	  4017	  4019	  4022	  4213	  4218	  4219	  4222
	  4226	  8704	  8709	  9373	  9384	  9385	  9386	  9391	  9393	  9398
JFFO	 19093
JRA	 20598	 20635
JRST	   233	   234	   235	   236	   407	   408	   410	   412	   414	   416	   418	   421	   423	   424
	   477	   771	  2169	  2255	  2422	  2507	  2586	  2669	  2741	  3594	  3598	  3630	  3634	  4006
	  4012	  4220	  4224	  4227	  5434	  5471	  5508	  5546	  5584	  5622	  5659	  5696	  5817	  5903
	  6021	  6103	  6236	  6311	  6383	  6455	  6458	  6715	  6763	  6813	  6908	  6950	  6994	  7039
	  7189	  7230	  7310	  7313	  7353	  7402	  7453	  7494	  7533	  7573	  7615	  7654	  7695	  7782
	  7863	  7902	  7941	  7981	  8025	  8064	  8103	  8307	  8346	  8385	  8425	  8464	  8503	  8543
	  8583	  8624	  8666	  8710	  9177	  9387	  9394	  9989	 10304	 10951	 10993	 11109	 11149	 11763
	 11802	 11841	 11880	 11918	 11957	 11997	 12037	 12077	 12116	 12155	 12196	 12284	 12378	 12463
	 12504	 12544	 12583	 12625	 12664	 12759	 12807	 12860	 12903	 12940	 12951	 12987	 13026	 13065
	 13104	 13142	 13180	 13183	 13228	 13231	 13271	 13317	 13365	 13408	 13447	 13485	 13524	 13563
	 13603	 13641	 13680	 13720	 13760	 13801	 13842	 13880	 13919	 13959	 14000	 14030	 14068	 14107
	 14319	 14359	 14399	 14438	 14477	 14519	 14557	 14639	 14679	 14720	 14763	 14801	 14840	 14876
	 14915	 14954	 14994	 15032	 15072	 15118	 15121	 15201	 15252	 18487	 18489	 18535	 18537	 18585
	 18587	 18633	 18635	 18684	 18686	 18734	 18736	 18784	 18786	 18832	 18834	 19087	 19097	 19101
	 19105	 19112	 19120	 19126	 19133	 19137	 19139	 19143	 19145	 19147	 19157	 19183	 19195	 19201
	 19208	 19211	 19213	 19250	 19286	 19324	 19361	 19398	 19436	 19473	 19510	 19547	 19583	 19628
	 19671	 19714	 19761	 19809	 19860	 19914	 19957	 20000	 20043	 20086	 20141	 20186	 20229	 20272
	 20302	 20304	 20306	 20308	 20315	 20346	 20349	 20360	 20390	 20404	 20436	 20440	 20456	 20487
	 20508	 20541	 20563	 20594	 20607	 20639	 20657	 20693	 20696	 20730	 20734	 20763	 20765	 20774
	 20780	 20814	 20816	 20838	 20841	 20846	 20850	 20852	 20920	 20993	 21058	 21064	 21083	 21088
	 21102	 21147	 21170	 21203	 21213	 21219	 21246	 21254	 21260	 21264	 21272	 21276	 21280	 21318
	 21322	 21323	 21342	 21349	 21352	 21357	 21395	 21405	 21422	 21433	 21449	 21451	 21456	 21465
	 21467	 21472	 21477	 21485	 21495	 21498	 21511	 21515	 21518	 21521	 21525	 21526	 21530
JSA	 20498	 20537	 20553	 20648
JSP	   242	 20298	 20342	 20353	 20386	 20441	 20483	 20590	 20685	 20722	 21199	 21242
JSR	 20394	 20432	 20446
JUMP	  9067
JUMPA	  9068
JUMPE	  2333	  2460	  2501	  2785	  3341	  3385	  3592	  3628	  5543	  5581	  5619	  6188	  6418	  6453
	  6493	  6597	  6637	  6811	  7308	  7350	  7397	  7400	  7445	  7449	  7451	  7691	  7738	  7779
	  7860	  8140	  8181	  8264	  8540	  8580	  8620	  8663	  9022	  9102	  9135	  9331	 12804
JUMPG	  9171	  9210	  9286	  9292	 20854	 21061
JUMPGE	  9245	  9251	  9335	 21151	 21168
JUMPL	   894	  1004	  1108	  1239	  1275	  1333	  1370	  1443	  1509	  1549	  1589	  1689	  1727	  1769
	  1809	  1849	  1898	  1930	  1974	  2015	  2055	  2099	  2139	  2181	  2221	  2264	  2305	  2348
	  2387	  2431	  2473	  2516	  2556	  2604	  2641	  2678	  2713	  2759	  2795	  2839	  2883	  2924
	  2964	  3138	  3311	  3354	  3567	  3603	  3639	  3682	  3724	  3763	  3796	  3835	  3877	  3911
	  3946	  3982	  4027	  4055	  4084	  4116	  4153	  4186	  4232	  4266	  4300	  4334	  4366	  4400
	  4436	  4471	  4506	  4542	  4579	  4613	  4646	  4680	  4715	  4750	  4782	  4816	  4851	  4887
	  4924	  4960	  4998	  5037	  5074	  5117	  5163	  5209	  5248	  5282	  5323	  5364	  5406	  5443
	  5480	  5517	  5555	  5593	  5631	  5668	  5707	  5744	  5786	  5826	  5870	  5912	  5956	  5994
	  6030	  6071	  6112	  6156	  6203	  6246	  6283	  6321	  6355	  6392	  6427	  6467	  6501	  6536
	  6571	  6607	  6645	  6681	  6729	  6777	  6827	  6874	  6917	  6959	  7003	  7048	  7085	  7121     SEQ 0640
	  7158	  7198	  7239	  7280	  7322	  7368	  7416	  7462	  7503	  7542	  7582	  7624	  7663	  7710
	  7751	  7791	  7832	  7872	  7911	  7950	  7990	  8034	  8073	  8112	  8153	  8196	  8236	  8277
	  8316	  8355	  8394	  8434	  8473	  8512	  8552	  8592	  8633	  8675	  8719	  8761	  8803	  8850
	  8893	  8944	  8993	  9036	  9075	  9108	  9139	  9172	  9179	  9209	  9215	  9244	  9250	  9257
	  9301	  9342	  9403	  9444	  9487	  9533	  9578	  9619	  9654	  9692	  9728	  9761	  9803	  9844
	  9877	  9908	  9950	  9991	 10034	 10071	 10116	 10160	 10195	 10230	 10268	 10306	 10337	 10378
	 10418	 10449	 10480	 10520	 10556	 10599	 10643	 10687	 10731	 10767	 10803	 10843	 10883	 10922
	 10962	 11004	 11043	 11080	 11118	 11158	 11197	 11236	 11273	 11312	 11348	 11387	 11426	 11465
	 11504	 11541	 11581	 11619	 11658	 11698	 11734	 11772	 11811	 11850	 11889	 11927	 11966	 12006
	 12046	 12086	 12125	 12164	 12205	 12248	 12293	 12341	 12387	 12434	 12472	 12513	 12553	 12592
	 12634	 12673	 12721	 12768	 12823	 12870	 12912	 12949	 12996	 13035	 13074	 13113	 13151	 13197
	 13240	 13285	 13331	 13379	 13417	 13456	 13494	 13533	 13572	 13612	 13650	 13689	 13729	 13769
	 13810	 13851	 13889	 13928	 13968	 14039	 14077	 14116	 14159	 14202	 14246	 14290	 14328	 14368
	 14408	 14447	 14486	 14528	 14566	 14606	 14648	 14688	 14729	 14772	 14810	 14849	 14885	 14924
	 14963	 15003	 15041	 15086	 15130	 15169	 15215	 15266	 15306	 15347	 15388	 15427	 15468	 15506
	 15547	 15588	 15629	 15670	 15709	 15749	 15789	 15830	 15871	 15909	 15948	 15986	 16026	 16068
	 16108	 16148	 16188	 16227	 16266	 16305	 16344	 16384	 16424	 16463	 16504	 16547	 16585	 16622
	 16661	 16701	 16739	 16777	 16815	 16854	 16892	 16933	 16972	 17012	 17050	 17089	 17128	 17168
	 17207	 17246	 17285	 17324	 17365	 17402	 17443	 17484	 17525	 17566	 17607	 17648	 17686	 17724
	 17762	 17801	 17839	 17876	 17915	 17954	 17992	 18030	 18069	 18108	 18149	 18190	 18231	 18272
	 18313	 18350	 18391	 18432	 18496	 18544	 18594	 18644	 18693	 18743	 18793	 18843	 18881	 18921
	 18964	 19008	 19040	 19066	 19096	 19104	 19205	 19247	 19283	 19321	 19358	 19395	 19433	 19470
	 19507	 19544	 19580	 19625	 19668	 19711	 19758	 19806	 19857	 19911	 19954	 19997	 20040	 20083
	 20138	 20183	 20226	 20269	 20311	 20357	 20400	 20452	 20504	 20559	 20604	 20653	 20700	 20738
	 20786	 20855	 20889	 20929	 20962	 21003	 21073	 21106	 21176	 21215	 21256
JUMPLE	  9287	  9293	  9334
JUMPN	  9103	  9134
LALL	     8	   795	  6538	 12953	 19184
LIST	     7	   394	   527	 21368	 21484	 21488	 21536	 21663
LIT	 21537
LOC	    24	   397	   721
LSH	   744	   747	   750	   753	   756	   759	   762	  3938	  3972	  4990	  4991	  5395	  5396	  5397
	  5398	  5399	  5400	 18484	 18532	 18582	 18630	 18681	 18731	 18781	 18829	 19121	 21344	 21401
	 21438
MOVE	   727	   819	   830	   836	   842	   848	   854	   860	   866	   872	   878	   884	   893	   918
	   930	   937	   944	   951	   958	   965	   972	   979	   986	   993	  1003	  1026	  1030	  1107
	  1130	  1134	  1238	  1262	  1274	  1314	  1318	  1332	  1351	  1355	  1369	  1394	  1407	  1415
	  1423	  1431	  1442	  1487	  1491	  1508	  1527	  1531	  1548	  1567	  1571	  1588	  1614	  1641
	  1663	  1688	  1710	  1726	  1749	  1768	  1792	  1808	  1831	  1848	  1871	  1897	  1919	  1929
	  1953	  1973	  1996	  2014	  2037	  2054	  2077	  2098	  2121	  2138	  2163	  2180	  2204	  2220
	  2245	  2263	  2288	  2304	  2329	  2337	  2347	  2372	  2386	  2412	  2417	  2430	  2456	  2472
	  2497	  2515	  2540	  2555	  2580	  2603	  2627	  2640	  2663	  2677	  2700	  2712	  2735	  2758
	  2781	  2794	  2818	  2838	  2862	  2882	  2907	  2923	  2947	  2963	  2988	  3004	  3017	  3030
	  3043	  3056	  3069	  3082	  3095	  3108	  3121	  3137	  3161	  3177	  3190	  3203	  3216	  3229
	  3242	  3255	  3268	  3281	  3294	  3310	  3335	  3339	  3353	  3379	  3383	  3403	  3419	  3435
	  3451	  3467	  3483	  3499	  3515	  3531	  3547	  3566	  3588	  3602	  3624	  3638	  3662	  3681
	  3704	  3723	  3745	  3762	  3785	  3795	  3817	  3834	  3856	  3876	  3898	  3902	  3910	  3932
	  3945	  3967	  3981	  4026	  4048	  4054	  4077	  4083	  4105	  4115	  4137	  4152	  4175	  4185
	  4209	  4231	  4254	  4258	  4265	  4288	  4292	  4299	  4322	  4327	  4333	  4356	  4365	  4388
	  4399	  4422	  4427	  4429	  4435	  4458	  4470	  4493	  4505	  4528	  4533	  4541	  4564	  4578
	  4601	  4612	  4635	  4639	  4645	  4668	  4679	  4701	  4705	  4714	  4737	  4741	  4749	  4772
	  4781	  4804	  4815	  4838	  4842	  4843	  4850	  4874	  4886	  4910	  4923	  4947	  4951	  4959
	  4983	  4987	  4989	  4997	  5019	  5036	  5059	  5063	  5073	  5097	  5101	  5102	  5116	  5141     SEQ 0641
	  5145	  5162	  5187	  5191	  5208	  5231	  5236	  5239	  5247	  5270	  5281	  5304	  5309	  5312
	  5322	  5345	  5350	  5353	  5363	  5386	  5391	  5405	  5428	  5442	  5465	  5479	  5502	  5516
	  5539	  5554	  5577	  5592	  5615	  5620	  5630	  5653	  5667	  5690	  5706	  5729	  5736	  5743
	  5767	  5772	  5778	  5785	  5809	  5815	  5825	  5850	  5856	  5857	  5869	  5894	  5899	  5900
	  5911	  5937	  5942	  5947	  5952	  5955	  5978	  5986	  5993	  6016	  6029	  6052	  6057	  6063
	  6070	  6095	  6101	  6111	  6136	  6142	  6143	  6149	  6155	  6180	  6185	  6186	  6189	  6199
	  6202	  6227	  6232	  6233	  6242	  6245	  6268	  6282	  6305	  6320	  6343	  6354	  6377	  6391
	  6414	  6426	  6449	  6466	  6489	  6494	  6500	  6523	  6528	  6535	  6560	  6570	  6593	  6606
	  6633	  6644	  6669	  6674	  6680	  6707	  6713	  6728	  6755	  6761	  6776	  6803	  6808	  6809
	  6826	  6852	  6857	  6858	  6860	  6865	  6870	  6873	  6900	  6906	  6916	  6942	  6948	  6958
	  6985	  6990	  6991	  7002	  7030	  7035	  7036	  7047	  7072	  7077	  7084	  7110	  7120	  7145
	  7149	  7157	  7183	  7187	  7197	  7224	  7238	  7263	  7279	  7304	  7321	  7346	  7367	  7393
	  7415	  7441	  7446	  7461	  7486	  7491	  7502	  7527	  7541	  7567	  7581	  7606	  7610	  7612
	  7623	  7648	  7662	  7687	  7709	  7734	  7743	  7750	  7775	  7790	  7815	  7824	  7831	  7856
	  7871	  7896	  7910	  7935	  7949	  7975	  7989	  8014	  8018	  8019	  8033	  8058	  8072	  8097
	  8111	  8136	  8145	  8152	  8177	  8195	  8220	  8235	  8260	  8269	  8276	  8301	  8315	  8340
	  8354	  8379	  8393	  8419	  8423	  8433	  8458	  8472	  8497	  8511	  8536	  8551	  8576	  8591
	  8616	  8632	  8657	  8664	  8674	  8700	  8705	  8718	  8744	  8749	  8750	  8760	  8788	  8802
	  8831	  8838	  8839	  8849	  8875	  8881	  8892	  8918	  8924	  8943	  8967	  8973	  8974	  8992
	  9018	  9025	  9035	  9062	  9066	  9074	  9100	  9101	  9165	  9170	  9207	  9208	  9256	  9281
	  9298	  9300	  9327	  9333	  9341	  9368	  9372	  9374	  9375	  9402	  9428	  9429	  9430	  9432
	  9440	  9471	  9475	  9476	  9486	  9514	  9519	  9520	  9522	  9532	  9558	  9564	  9565	  9567
	  9577	  9606	  9607	  9608	  9617	  9644	  9645	  9678	  9682	  9691	  9717	  9718	  9719	  9726
	  9753	  9754	  9787	  9792	  9793	  9802	  9827	  9833	  9834	  9843	  9867	  9868	  9876	  9900
	  9901	  9933	  9937	  9938	  9949	  9977	  9978	  9979	 10018	 10022	 10023	 10033	 10061	 10062
	 10096	 10102	 10103	 10104	 10115	 10141	 10146	 10147	 10148	 10159	 10185	 10186	 10220	 10221
	 10254	 10258	 10267	 10294	 10295	 10296	 10330	 10361	 10367	 10368	 10377	 10402	 10407	 10408
	 10417	 10442	 10473	 10505	 10509	 10519	 10544	 10555	 10582	 10587	 10588	 10598	 10623	 10628
	 10631	 10632	 10642	 10667	 10672	 10675	 10676	 10686	 10711	 10716	 10719	 10720	 10730	 10755
	 10766	 10791	 10802	 10827	 10831	 10834	 10842	 10867	 10871	 10874	 10882	 10907	 10911	 10913
	 10921	 10952	 10953	 10954	 10961	 10994	 10995	 10996	 11003	 11030	 11034	 11036	 11067	 11071
	 11073	 11110	 11111	 11150	 11151	 11182	 11186	 11196	 11221	 11225	 11235	 11260	 11264	 11272
	 11297	 11301	 11311	 11336	 11340	 11347	 11372	 11376	 11386	 11411	 11415	 11425	 11450	 11454
	 11464	 11489	 11493	 11503	 11528	 11532	 11540	 11565	 11569	 11580	 11605	 11609	 11618	 11643
	 11657	 11682	 11686	 11697	 11722	 11726	 11733	 11758	 11771	 11796	 11810	 11835	 11839	 11849
	 11874	 11888	 11913	 11926	 11951	 11965	 11990	 11995	 12005	 12030	 12045	 12070	 12075	 12085
	 12110	 12124	 12149	 12163	 12188	 12192	 12193	 12204	 12229	 12240	 12247	 12274	 12282	 12292
	 12319	 12327	 12328	 12333	 12340	 12367	 12374	 12375	 12386	 12413	 12420	 12425	 12430	 12433
	 12458	 12471	 12496	 12501	 12512	 12537	 12541	 12552	 12577	 12591	 12616	 12621	 12633	 12658
	 12662	 12672	 12701	 12709	 12710	 12720	 12749	 12757	 12767	 12794	 12801	 12813	 12819	 12822
	 12849	 12856	 12866	 12869	 12898	 12911	 12934	 12948	 12982	 12995	 13020	 13034	 13059	 13073
	 13098	 13102	 13112	 13137	 13150	 13175	 13196	 13221	 13229	 13239	 13264	 13284	 13309	 13314
	 13315	 13330	 13355	 13363	 13378	 13403	 13416	 13441	 13455	 13480	 13493	 13518	 13532	 13557
	 13561	 13571	 13596	 13600	 13611	 13636	 13649	 13674	 13688	 13713	 13718	 13728	 13753	 13768
	 13793	 13798	 13809	 13834	 13839	 13840	 13850	 13875	 13888	 13913	 13927	 13952	 13956	 13967
	 13992	 14021	 14025	 14038	 14063	 14076	 14101	 14115	 14140	 14145	 14146	 14151	 14158	 14183
	 14201	 14226	 14231	 14233	 14245	 14270	 14275	 14276	 14282	 14289	 14314	 14327	 14352	 14367
	 14392	 14396	 14407	 14432	 14446	 14471	 14485	 14510	 14514	 14527	 14552	 14565	 14590	 14605
	 14630	 14635	 14647	 14672	 14687	 14712	 14717	 14728	 14753	 14758	 14759	 14771	 14796	 14809
	 14834	 14848	 14871	 14884	 14909	 14923	 14948	 14962	 14987	 15002	 15027	 15040	 15065	 15085
	 15110	 15119	 15129	 15154	 15168	 15193	 15198	 15214	 15241	 15250	 15265	 15292	 15297	 15305
	 15330	 15335	 15336	 15346	 15371	 15376	 15377	 15387	 15412	 15417	 15418	 15426	 15451	 15456
	 15457	 15467	 15492	 15497	 15505	 15530	 15535	 15536	 15546	 15571	 15576	 15577	 15587	 15612     SEQ 0642
	 15617	 15618	 15628	 15653	 15658	 15659	 15669	 15694	 15699	 15708	 15733	 15738	 15748	 15773
	 15778	 15779	 15788	 15813	 15818	 15819	 15829	 15854	 15859	 15860	 15870	 15895	 15900	 15908
	 15933	 15938	 15947	 15972	 15976	 15978	 15985	 16010	 16014	 16025	 16054	 16058	 16067	 16092
	 16096	 16098	 16099	 16107	 16132	 16136	 16138	 16139	 16147	 16172	 16176	 16178	 16179	 16187
	 16213	 16217	 16226	 16251	 16255	 16257	 16265	 16290	 16294	 16296	 16304	 16329	 16333	 16335
	 16343	 16369	 16383	 16408	 16413	 16414	 16423	 16448	 16452	 16454	 16455	 16462	 16487	 16491
	 16493	 16494	 16503	 16529	 16534	 16546	 16571	 16576	 16577	 16584	 16609	 16613	 16615	 16621
	 16646	 16650	 16652	 16653	 16660	 16686	 16691	 16700	 16725	 16729	 16731	 16738	 16763	 16767
	 16769	 16776	 16801	 16805	 16807	 16814	 16840	 16853	 16878	 16883	 16884	 16891	 16918	 16922
	 16924	 16932	 16957	 16961	 16963	 16964	 16971	 16997	 17002	 17011	 17036	 17041	 17042	 17049
	 17074	 17078	 17080	 17081	 17088	 17113	 17117	 17119	 17120	 17127	 17153	 17158	 17167	 17192
	 17196	 17198	 17206	 17231	 17235	 17237	 17245	 17270	 17274	 17276	 17284	 17309	 17323	 17348
	 17352	 17354	 17355	 17364	 17389	 17393	 17395	 17401	 17426	 17430	 17432	 17433	 17442	 17467
	 17472	 17483	 17508	 17512	 17514	 17515	 17524	 17549	 17553	 17555	 17556	 17565	 17590	 17594
	 17596	 17597	 17606	 17631	 17636	 17647	 17672	 17676	 17678	 17685	 17710	 17714	 17716	 17723
	 17748	 17752	 17754	 17761	 17786	 17790	 17800	 17825	 17830	 17838	 17863	 17867	 17869	 17875
	 17900	 17904	 17906	 17914	 17939	 17953	 17978	 17983	 17991	 18016	 18020	 18022	 18029	 18054
	 18058	 18060	 18068	 18093	 18107	 18132	 18136	 18138	 18148	 18173	 18177	 18179	 18189	 18214
	 18218	 18220	 18230	 18255	 18271	 18296	 18300	 18302	 18312	 18337	 18341	 18343	 18349	 18374
	 18378	 18380	 18390	 18415	 18431	 18471	 18476	 18479	 18480	 18485	 18495	 18518	 18522	 18524
	 18527	 18528	 18533	 18543	 18568	 18572	 18577	 18578	 18583	 18593	 18616	 18621	 18622	 18625
	 18626	 18631	 18643	 18668	 18676	 18677	 18682	 18692	 18717	 18722	 18726	 18727	 18732	 18742
	 18767	 18771	 18776	 18777	 18782	 18792	 18815	 18820	 18824	 18825	 18830	 18842	 18867	 18871
	 18880	 18907	 18911	 18920	 18948	 18953	 18954	 18963	 18991	 18997	 18998	 19007	 19034	 19035
	 19061	 19077	 19083	 19091	 19092	 19135	 19141	 19150	 19165	 19172	 19193	 19229	 19234	 19238
	 19266	 19271	 19303	 19308	 19340	 19345	 19377	 19382	 19414	 19419	 19452	 19457	 19489	 19494
	 19526	 19531	 19563	 19568	 19599	 19604	 19618	 19644	 19649	 19687	 19692	 19730	 19735	 19740
	 19750	 19777	 19782	 19787	 19797	 19825	 19830	 19834	 19845	 19846	 19876	 19881	 19885	 19892
	 19897	 19899	 19906	 19930	 19935	 19940	 19941	 19973	 19978	 19983	 19984	 20016	 20021	 20026
	 20027	 20059	 20064	 20069	 20070	 20101	 20106	 20122	 20157	 20162	 20202	 20207	 20214	 20245
	 20250	 20255	 20297	 20298	 20303	 20304	 20341	 20342	 20347	 20348	 20385	 20386	 20391	 20431
	 20432	 20437	 20439	 20482	 20483	 20488	 20491	 20536	 20537	 20542	 20545	 20549	 20550	 20589
	 20590	 20595	 20597	 20634	 20635	 20640	 20643	 20647	 20685	 20686	 20693	 20722	 20723	 20730
	 20757	 20770	 20772	 20808	 20819	 20825	 20827	 20835	 20836	 20878	 20882	 20888	 20914	 20921
	 20928	 20951	 20961	 20985	 21002	 21043	 21076	 21096	 21105	 21137	 21156	 21175	 21198	 21199
	 21204	 21205	 21206	 21241	 21242	 21247	 21248	 21284	 21290	 21294	 21317	 21337	 21343	 21346
	 21347	 21360	 21372	 21377	 21378	 21380	 21382	 21383	 21384	 21387	 21388	 21390	 21393	 21396
	 21397	 21399	 21400	 21410	 21414	 21416	 21426	 21428	 21430	 21437	 21442	 21444	 21446	 21454
	 21460	 21462	 21471	 21499	 21507	 21508	 21516	 21520	 21523
MOVEI	   735	   766	   768	   811	   813	   815	   910	   912	   914	  1018	  1020	  1022	  1122	  1124
	  1126	  1254	  1256	  1258	  1306	  1308	  1310	  1343	  1345	  1347	  1386	  1388	  1390	  1479
	  1481	  1483	  1519	  1521	  1523	  1559	  1561	  1563	  1606	  1608	  1610	  1702	  1704	  1706
	  1741	  1743	  1745	  1784	  1786	  1788	  1823	  1825	  1827	  1863	  1865	  1867	  1911	  1913
	  1915	  1945	  1947	  1949	  1988	  1990	  1992	  2029	  2031	  2033	  2069	  2071	  2073	  2113
	  2115	  2117	  2155	  2157	  2159	  2196	  2198	  2200	  2237	  2239	  2241	  2280	  2282	  2284
	  2321	  2323	  2325	  2364	  2366	  2368	  2404	  2406	  2408	  2448	  2450	  2452	  2489	  2491
	  2493	  2532	  2534	  2536	  2572	  2574	  2576	  2619	  2621	  2623	  2655	  2657	  2659	  2692
	  2694	  2696	  2727	  2729	  2731	  2773	  2775	  2777	  2810	  2812	  2814	  2854	  2856	  2858
	  2899	  2901	  2903	  2939	  2941	  2943	  2980	  2982	  2984	  3153	  3155	  3157	  3327	  3329
	  3331	  3371	  3373	  3375	  3580	  3582	  3584	  3616	  3618	  3620	  3654	  3656	  3658	  3696
	  3698	  3700	  3737	  3739	  3741	  3777	  3779	  3781	  3809	  3811	  3813	  3848	  3850	  3852
	  3890	  3892	  3894	  3924	  3926	  3928	  3959	  3961	  3963	  3995	  3997	  3999	  4041	  4043
	  4045	  4070	  4072	  4074	  4097	  4099	  4101	  4129	  4131	  4133	  4167	  4169	  4171	  4201     SEQ 0643
	  4203	  4205	  4246	  4248	  4250	  4280	  4282	  4284	  4314	  4316	  4318	  4348	  4350	  4352
	  4380	  4382	  4384	  4393	  4414	  4416	  4418	  4450	  4452	  4454	  4485	  4487	  4489	  4520
	  4522	  4524	  4556	  4558	  4560	  4593	  4595	  4597	  4627	  4629	  4631	  4660	  4662	  4664
	  4693	  4695	  4697	  4729	  4731	  4733	  4764	  4766	  4768	  4796	  4798	  4800	  4830	  4832
	  4834	  4866	  4868	  4870	  4902	  4904	  4906	  4939	  4941	  4943	  4975	  4977	  4979	  4992
	  5011	  5013	  5015	  5051	  5053	  5055	  5065	  5089	  5091	  5093	  5133	  5135	  5137	  5179
	  5181	  5183	  5223	  5225	  5227	  5262	  5264	  5266	  5274	  5296	  5298	  5300	  5337	  5339
	  5341	  5378	  5380	  5382	  5420	  5422	  5424	  5457	  5459	  5461	  5494	  5496	  5498	  5531
	  5533	  5535	  5569	  5571	  5573	  5607	  5609	  5611	  5645	  5647	  5649	  5682	  5684	  5686
	  5721	  5723	  5725	  5759	  5761	  5763	  5800	  5802	  5804	  5807	  5841	  5843	  5845	  5848
	  5885	  5887	  5889	  5892	  5928	  5930	  5932	  5935	  5970	  5972	  5974	  6008	  6010	  6012
	  6044	  6046	  6048	  6086	  6088	  6090	  6093	  6127	  6129	  6131	  6134	  6171	  6173	  6175
	  6178	  6218	  6220	  6222	  6225	  6260	  6262	  6264	  6297	  6299	  6301	  6335	  6337	  6339
	  6369	  6371	  6373	  6406	  6408	  6410	  6441	  6443	  6445	  6481	  6483	  6485	  6515	  6517
	  6519	  6552	  6554	  6556	  6585	  6587	  6589	  6625	  6627	  6629	  6661	  6663	  6665	  6698
	  6700	  6702	  6705	  6746	  6748	  6750	  6753	  6794	  6796	  6798	  6801	  6843	  6845	  6847
	  6850	  6891	  6893	  6895	  6898	  6933	  6935	  6937	  6940	  6976	  6978	  6980	  6983	  7021
	  7023	  7025	  7028	  7064	  7066	  7068	  7102	  7104	  7106	  7137	  7139	  7141	  7175	  7177
	  7179	  7216	  7218	  7220	  7255	  7257	  7259	  7296	  7298	  7300	  7338	  7340	  7342	  7385
	  7387	  7389	  7433	  7435	  7437	  7478	  7480	  7482	  7519	  7521	  7523	  7559	  7561	  7563
	  7598	  7600	  7602	  7640	  7642	  7644	  7679	  7681	  7683	  7726	  7728	  7730	  7767	  7769
	  7771	  7807	  7809	  7811	  7848	  7850	  7852	  7888	  7890	  7892	  7927	  7929	  7931	  7967
	  7969	  7971	  8006	  8008	  8010	  8050	  8052	  8054	  8089	  8091	  8093	  8128	  8130	  8132
	  8169	  8171	  8173	  8212	  8214	  8216	  8252	  8254	  8256	  8293	  8295	  8297	  8332	  8334
	  8336	  8371	  8373	  8375	  8411	  8413	  8415	  8450	  8452	  8454	  8489	  8491	  8493	  8528
	  8530	  8532	  8568	  8570	  8572	  8608	  8610	  8612	  8649	  8651	  8653	  8692	  8694	  8696
	  8735	  8737	  8739	  8742	  8780	  8782	  8784	  8822	  8824	  8826	  8829	  8867	  8869	  8871
	  8910	  8912	  8914	  8959	  8961	  8963	  9010	  9012	  9014	  9054	  9056	  9058	  9091	  9093
	  9095	  9098	  9126	  9128	  9130	  9158	  9160	  9162	  9196	  9198	  9200	  9203	  9232	  9234
	  9236	  9239	  9274	  9276	  9278	  9319	  9321	  9323	  9360	  9362	  9364	  9420	  9422	  9424
	  9427	  9463	  9465	  9467	  9506	  9508	  9510	  9550	  9552	  9554	  9595	  9597	  9599	  9602
	  9604	  9637	  9639	  9641	  9670	  9672	  9674	  9708	  9710	  9712	  9715	  9746	  9748	  9750
	  9779	  9781	  9783	  9819	  9821	  9823	  9860	  9862	  9864	  9893	  9895	  9897	  9925	  9927
	  9929	  9967	  9969	  9971	  9974	 10010	 10012	 10014	 10053	 10055	 10057	 10060	 10088	 10090
	 10092	 10133	 10135	 10137	 10177	 10179	 10181	 10184	 10212	 10214	 10216	 10219	 10246	 10248
	 10250	 10284	 10286	 10288	 10291	 10322	 10324	 10326	 10329	 10353	 10355	 10357	 10394	 10396
	 10398	 10434	 10436	 10438	 10441	 10465	 10467	 10469	 10472	 10497	 10499	 10501	 10536	 10538
	 10540	 10573	 10575	 10577	 10580	 10615	 10617	 10619	 10659	 10661	 10663	 10703	 10705	 10707
	 10747	 10749	 10751	 10783	 10785	 10787	 10819	 10821	 10823	 10833	 10859	 10861	 10863	 10872
	 10899	 10901	 10903	 10912	 10939	 10941	 10943	 10946	 10947	 10981	 10983	 10985	 10988	 10989
	 11022	 11024	 11026	 11035	 11059	 11061	 11063	 11072	 11097	 11099	 11101	 11104	 11105	 11137
	 11139	 11141	 11144	 11145	 11174	 11176	 11178	 11188	 11213	 11215	 11217	 11227	 11252	 11254
	 11256	 11266	 11289	 11291	 11293	 11303	 11328	 11330	 11332	 11364	 11366	 11368	 11378	 11403
	 11405	 11407	 11417	 11442	 11444	 11446	 11456	 11481	 11483	 11485	 11495	 11520	 11522	 11524
	 11557	 11559	 11561	 11571	 11597	 11599	 11601	 11611	 11635	 11637	 11639	 11647	 11649	 11674
	 11676	 11678	 11688	 11714	 11716	 11718	 11750	 11752	 11754	 11788	 11790	 11792	 11827	 11829
	 11831	 11866	 11868	 11870	 11905	 11907	 11909	 11943	 11945	 11947	 11982	 11984	 11986	 12022
	 12024	 12026	 12062	 12064	 12066	 12102	 12104	 12106	 12141	 12143	 12145	 12180	 12182	 12184
	 12221	 12223	 12225	 12234	 12265	 12267	 12269	 12272	 12280	 12310	 12312	 12314	 12317	 12325
	 12358	 12360	 12362	 12365	 12373	 12404	 12406	 12408	 12411	 12419	 12450	 12452	 12454	 12488
	 12490	 12492	 12529	 12531	 12533	 12569	 12571	 12573	 12608	 12610	 12612	 12650	 12652	 12654
	 12692	 12694	 12696	 12699	 12707	 12740	 12742	 12744	 12747	 12755	 12785	 12787	 12789	 12792
	 12800	 12803	 12840	 12842	 12844	 12847	 12855	 12858	 12890	 12892	 12894	 12926	 12928	 12930     SEQ 0644
	 12974	 12976	 12978	 13012	 13014	 13016	 13051	 13053	 13055	 13090	 13092	 13094	 13129	 13131
	 13133	 13167	 13169	 13171	 13213	 13215	 13217	 13226	 13256	 13258	 13260	 13301	 13303	 13305
	 13346	 13348	 13350	 13353	 13361	 13395	 13397	 13399	 13433	 13435	 13437	 13472	 13474	 13476
	 13510	 13512	 13514	 13549	 13551	 13553	 13588	 13590	 13592	 13628	 13630	 13632	 13666	 13668
	 13670	 13705	 13707	 13709	 13745	 13747	 13749	 13785	 13787	 13789	 13826	 13828	 13830	 13867
	 13869	 13871	 13905	 13907	 13909	 13944	 13946	 13948	 13984	 13986	 13988	 14013	 14015	 14017
	 14055	 14057	 14059	 14093	 14095	 14097	 14132	 14134	 14136	 14175	 14177	 14179	 14218	 14220
	 14222	 14262	 14264	 14266	 14306	 14308	 14310	 14344	 14346	 14348	 14384	 14386	 14388	 14424
	 14426	 14428	 14463	 14465	 14467	 14502	 14504	 14506	 14544	 14546	 14548	 14582	 14584	 14586
	 14622	 14624	 14626	 14664	 14666	 14668	 14704	 14706	 14708	 14745	 14747	 14749	 14788	 14790
	 14792	 14826	 14828	 14830	 14863	 14865	 14867	 14901	 14903	 14905	 14940	 14942	 14944	 14979
	 14981	 14983	 15019	 15021	 15023	 15057	 15059	 15061	 15102	 15104	 15106	 15116	 15146	 15148
	 15150	 15185	 15187	 15189	 15232	 15234	 15236	 15239	 15247	 15284	 15286	 15288	 15322	 15324
	 15326	 15363	 15365	 15367	 15404	 15406	 15408	 15443	 15445	 15447	 15484	 15486	 15488	 15522
	 15524	 15526	 15563	 15565	 15567	 15604	 15606	 15608	 15645	 15647	 15649	 15686	 15688	 15690
	 15725	 15727	 15729	 15765	 15767	 15769	 15805	 15807	 15809	 15846	 15848	 15850	 15887	 15889
	 15891	 15925	 15927	 15929	 15939	 15964	 15966	 15968	 15979	 16002	 16004	 16006	 16017	 16046
	 16048	 16050	 16084	 16086	 16088	 16124	 16126	 16128	 16164	 16166	 16168	 16205	 16207	 16209
	 16243	 16245	 16247	 16282	 16284	 16286	 16321	 16323	 16325	 16361	 16363	 16365	 16400	 16402
	 16404	 16440	 16442	 16444	 16479	 16481	 16483	 16521	 16523	 16525	 16563	 16565	 16567	 16601
	 16603	 16605	 16638	 16640	 16642	 16678	 16680	 16682	 16717	 16719	 16721	 16732	 16755	 16757
	 16759	 16770	 16793	 16795	 16797	 16808	 16832	 16834	 16836	 16845	 16870	 16872	 16874	 16910
	 16912	 16914	 16949	 16951	 16953	 16989	 16991	 16993	 17028	 17030	 17032	 17066	 17068	 17070
	 17105	 17107	 17109	 17145	 17147	 17149	 17184	 17186	 17188	 17223	 17225	 17227	 17262	 17264
	 17266	 17301	 17303	 17305	 17340	 17342	 17344	 17381	 17383	 17385	 17418	 17420	 17422	 17459
	 17461	 17463	 17500	 17502	 17504	 17541	 17543	 17545	 17582	 17584	 17586	 17623	 17625	 17627
	 17664	 17666	 17668	 17702	 17704	 17706	 17740	 17742	 17744	 17778	 17780	 17782	 17817	 17819
	 17821	 17855	 17857	 17859	 17892	 17894	 17896	 17931	 17933	 17935	 17970	 17972	 17974	 18008
	 18010	 18012	 18046	 18048	 18050	 18085	 18087	 18089	 18124	 18126	 18128	 18165	 18167	 18169
	 18206	 18208	 18210	 18247	 18249	 18251	 18288	 18290	 18292	 18329	 18331	 18333	 18366	 18368
	 18370	 18407	 18409	 18411	 18463	 18465	 18467	 18510	 18512	 18514	 18560	 18562	 18564	 18574
	 18608	 18610	 18612	 18660	 18662	 18664	 18709	 18711	 18713	 18759	 18761	 18763	 18807	 18809
	 18811	 18859	 18861	 18863	 18899	 18901	 18903	 18940	 18942	 18944	 18983	 18985	 18987	 19027
	 19029	 19031	 19054	 19056	 19058	 19072	 19074	 19089	 19127	 19130	 19138	 19188	 19190	 19225
	 19227	 19262	 19264	 19299	 19301	 19336	 19338	 19373	 19375	 19410	 19412	 19448	 19450	 19485
	 19487	 19522	 19524	 19559	 19561	 19595	 19597	 19640	 19642	 19683	 19685	 19726	 19728	 19773
	 19775	 19821	 19823	 19872	 19874	 19926	 19928	 19969	 19971	 20012	 20014	 20055	 20057	 20097
	 20099	 20116	 20153	 20155	 20198	 20200	 20241	 20243	 20290	 20292	 20294	 20334	 20336	 20338
	 20378	 20380	 20382	 20424	 20426	 20428	 20475	 20477	 20479	 20529	 20531	 20533	 20582	 20584
	 20586	 20627	 20629	 20631	 20677	 20679	 20681	 20697	 20714	 20716	 20718	 20733	 20735	 20748
	 20750	 20752	 20755	 20777	 20782	 20793	 20795	 20797	 20806	 20840	 20843	 20848	 20870	 20872
	 20874	 20906	 20908	 20910	 20943	 20945	 20947	 20955	 20977	 20979	 20981	 21035	 21037	 21039
	 21053	 21090	 21129	 21131	 21133	 21148	 21191	 21193	 21195	 21234	 21236	 21238	 21306	 21385
	 21391	 21496
MOVEM	   730	   743	   746	   749	   752	   755	   758	   761	   769	   812	   814	   911	   913	  1019
	  1021	  1123	  1125	  1255	  1257	  1307	  1309	  1344	  1346	  1387	  1389	  1480	  1482	  1520
	  1522	  1560	  1562	  1607	  1609	  1703	  1705	  1742	  1744	  1785	  1787	  1824	  1826	  1864
	  1866	  1912	  1914	  1946	  1948	  1989	  1991	  2030	  2032	  2070	  2072	  2114	  2116	  2156
	  2158	  2197	  2199	  2238	  2240	  2281	  2283	  2322	  2324	  2365	  2367	  2405	  2407	  2449
	  2451	  2490	  2492	  2533	  2535	  2573	  2575	  2620	  2622	  2656	  2658	  2693	  2695	  2728
	  2730	  2774	  2776	  2811	  2813	  2855	  2857	  2900	  2902	  2940	  2942	  2981	  2983	  3154
	  3156	  3328	  3330	  3372	  3374	  3581	  3583	  3617	  3619	  3655	  3657	  3669	  3670	  3671
	  3672	  3673	  3674	  3697	  3699	  3738	  3740	  3778	  3780	  3810	  3812	  3849	  3851	  3891     SEQ 0645
	  3893	  3925	  3927	  3960	  3962	  3996	  3998	  4042	  4044	  4071	  4073	  4098	  4100	  4130
	  4132	  4168	  4170	  4202	  4204	  4247	  4249	  4281	  4283	  4315	  4317	  4349	  4351	  4381
	  4383	  4415	  4417	  4451	  4453	  4486	  4488	  4521	  4523	  4557	  4559	  4594	  4596	  4628
	  4630	  4661	  4663	  4694	  4696	  4730	  4732	  4765	  4767	  4797	  4799	  4831	  4833	  4867
	  4869	  4903	  4905	  4940	  4942	  4976	  4978	  5012	  5014	  5052	  5054	  5090	  5092	  5134
	  5136	  5180	  5182	  5224	  5226	  5263	  5265	  5297	  5299	  5338	  5340	  5379	  5381	  5421
	  5423	  5458	  5460	  5495	  5497	  5532	  5534	  5570	  5572	  5608	  5610	  5646	  5648	  5683
	  5685	  5722	  5724	  5760	  5762	  5801	  5803	  5842	  5844	  5886	  5888	  5929	  5931	  5971
	  5973	  6009	  6011	  6045	  6047	  6087	  6089	  6128	  6130	  6172	  6174	  6219	  6221	  6261
	  6263	  6298	  6300	  6336	  6338	  6370	  6372	  6407	  6409	  6442	  6444	  6482	  6484	  6516
	  6518	  6553	  6555	  6586	  6588	  6626	  6628	  6662	  6664	  6699	  6701	  6747	  6749	  6795
	  6797	  6844	  6846	  6892	  6894	  6934	  6936	  6977	  6979	  7022	  7024	  7065	  7067	  7103
	  7105	  7138	  7140	  7176	  7178	  7217	  7219	  7256	  7258	  7297	  7299	  7339	  7341	  7386
	  7388	  7434	  7436	  7479	  7481	  7520	  7522	  7560	  7562	  7599	  7601	  7641	  7643	  7680
	  7682	  7727	  7729	  7768	  7770	  7808	  7810	  7849	  7851	  7889	  7891	  7928	  7930	  7968
	  7970	  8007	  8009	  8051	  8053	  8090	  8092	  8129	  8131	  8170	  8172	  8213	  8215	  8253
	  8255	  8294	  8296	  8333	  8335	  8372	  8374	  8412	  8414	  8451	  8453	  8490	  8492	  8529
	  8531	  8569	  8571	  8609	  8611	  8650	  8652	  8693	  8695	  8736	  8738	  8781	  8783	  8823
	  8825	  8868	  8870	  8882	  8911	  8913	  8925	  8960	  8962	  9011	  9013	  9055	  9057	  9092
	  9094	  9127	  9129	  9159	  9161	  9169	  9197	  9199	  9233	  9235	  9243	  9275	  9277	  9285
	  9320	  9322	  9361	  9363	  9421	  9423	  9464	  9466	  9507	  9509	  9551	  9553	  9596	  9598
	  9638	  9640	  9671	  9673	  9709	  9711	  9747	  9749	  9780	  9782	  9820	  9822	  9861	  9863
	  9894	  9896	  9926	  9928	  9968	  9970	 10011	 10013	 10054	 10056	 10089	 10091	 10134	 10136
	 10178	 10180	 10213	 10215	 10247	 10249	 10285	 10287	 10323	 10325	 10354	 10356	 10395	 10397
	 10435	 10437	 10466	 10468	 10498	 10500	 10537	 10539	 10574	 10576	 10616	 10618	 10660	 10662
	 10704	 10706	 10748	 10750	 10784	 10786	 10820	 10822	 10860	 10862	 10900	 10902	 10940	 10942
	 10982	 10984	 11023	 11025	 11060	 11062	 11098	 11100	 11138	 11140	 11175	 11177	 11214	 11216
	 11253	 11255	 11290	 11292	 11329	 11331	 11365	 11367	 11404	 11406	 11443	 11445	 11482	 11484
	 11521	 11523	 11558	 11560	 11598	 11600	 11636	 11638	 11675	 11677	 11715	 11717	 11751	 11753
	 11789	 11791	 11828	 11830	 11867	 11869	 11906	 11908	 11944	 11946	 11983	 11985	 12023	 12025
	 12063	 12065	 12103	 12105	 12142	 12144	 12181	 12183	 12222	 12224	 12266	 12268	 12311	 12313
	 12359	 12361	 12405	 12407	 12451	 12453	 12489	 12491	 12530	 12532	 12570	 12572	 12609	 12611
	 12651	 12653	 12693	 12695	 12741	 12743	 12786	 12788	 12841	 12843	 12891	 12893	 12927	 12929
	 12975	 12977	 13013	 13015	 13052	 13054	 13091	 13093	 13130	 13132	 13168	 13170	 13214	 13216
	 13257	 13259	 13302	 13304	 13347	 13349	 13396	 13398	 13434	 13436	 13473	 13475	 13511	 13513
	 13550	 13552	 13589	 13591	 13629	 13631	 13667	 13669	 13706	 13708	 13746	 13748	 13786	 13788
	 13827	 13829	 13868	 13870	 13906	 13908	 13945	 13947	 13985	 13987	 14014	 14016	 14056	 14058
	 14094	 14096	 14133	 14135	 14176	 14178	 14219	 14221	 14263	 14265	 14307	 14309	 14345	 14347
	 14385	 14387	 14425	 14427	 14464	 14466	 14503	 14505	 14545	 14547	 14583	 14585	 14623	 14625
	 14665	 14667	 14705	 14707	 14746	 14748	 14789	 14791	 14827	 14829	 14864	 14866	 14902	 14904
	 14941	 14943	 14980	 14982	 15020	 15022	 15058	 15060	 15103	 15105	 15147	 15149	 15186	 15188
	 15233	 15235	 15285	 15287	 15323	 15325	 15364	 15366	 15405	 15407	 15444	 15446	 15485	 15487
	 15523	 15525	 15564	 15566	 15605	 15607	 15646	 15648	 15687	 15689	 15726	 15728	 15766	 15768
	 15806	 15808	 15847	 15849	 15888	 15890	 15926	 15928	 15965	 15967	 16003	 16005	 16016	 16047
	 16049	 16085	 16087	 16125	 16127	 16165	 16167	 16206	 16208	 16244	 16246	 16283	 16285	 16322
	 16324	 16362	 16364	 16401	 16403	 16441	 16443	 16480	 16482	 16522	 16524	 16564	 16566	 16602
	 16604	 16639	 16641	 16679	 16681	 16718	 16720	 16756	 16758	 16794	 16796	 16833	 16835	 16871
	 16873	 16911	 16913	 16950	 16952	 16990	 16992	 17029	 17031	 17067	 17069	 17106	 17108	 17146
	 17148	 17185	 17187	 17224	 17226	 17263	 17265	 17302	 17304	 17341	 17343	 17382	 17384	 17419
	 17421	 17460	 17462	 17501	 17503	 17542	 17544	 17583	 17585	 17624	 17626	 17665	 17667	 17703
	 17705	 17741	 17743	 17779	 17781	 17818	 17820	 17856	 17858	 17893	 17895	 17932	 17934	 17971
	 17973	 18009	 18011	 18047	 18049	 18086	 18088	 18125	 18127	 18166	 18168	 18207	 18209	 18248
	 18250	 18289	 18291	 18330	 18332	 18367	 18369	 18408	 18410	 18464	 18466	 18511	 18513	 18561     SEQ 0646
	 18563	 18609	 18611	 18661	 18663	 18710	 18712	 18760	 18762	 18808	 18810	 18860	 18862	 18900
	 18902	 18941	 18943	 18984	 18986	 19028	 19030	 19055	 19057	 19073	 19075	 19170	 19175	 19180
	 19182	 19189	 19191	 19197	 19226	 19228	 19235	 19239	 19263	 19265	 19272	 19300	 19302	 19309
	 19337	 19339	 19346	 19374	 19376	 19383	 19411	 19413	 19420	 19449	 19451	 19458	 19486	 19488
	 19495	 19523	 19525	 19532	 19560	 19562	 19569	 19596	 19598	 19605	 19619	 19641	 19643	 19650
	 19684	 19686	 19693	 19727	 19729	 19736	 19774	 19776	 19783	 19822	 19824	 19831	 19873	 19875
	 19882	 19898	 19927	 19929	 19936	 19970	 19972	 19979	 20013	 20015	 20022	 20056	 20058	 20065
	 20098	 20100	 20107	 20154	 20156	 20163	 20199	 20201	 20208	 20220	 20242	 20244	 20251	 20256
	 20265	 20291	 20293	 20299	 20305	 20312	 20335	 20337	 20343	 20379	 20381	 20387	 20401	 20425
	 20427	 20433	 20453	 20476	 20478	 20484	 20505	 20530	 20532	 20538	 20560	 20583	 20585	 20591
	 20628	 20630	 20636	 20654	 20678	 20680	 20688	 20690	 20694	 20695	 20715	 20717	 20725	 20727
	 20731	 20732	 20749	 20751	 20766	 20769	 20776	 20794	 20796	 20798	 20817	 20824	 20828	 20829
	 20842	 20871	 20873	 20907	 20909	 20944	 20946	 20978	 20980	 21036	 21038	 21071	 21080	 21130
	 21132	 21160	 21161	 21192	 21194	 21200	 21209	 21216	 21235	 21237	 21243	 21252	 21257	 21265
	 21266	 21267	 21330	 21331	 21332	 21345	 21365	 21376	 21381	 21386	 21389	 21392	 21398	 21497
MOVES	  3711	  3712	  3713	  3714	  3715	  3716	 19240
MOVM	  5242	 21062
MOVMI	  5276
MOVMM	  5315	 20215
MOVMS	  5356	 20221	 21152
MOVN	  3342	  3404	  3420	  3436	  3452	  3468	  3484	  3500	  3516	  3532	  3548	  4606	  4673	  4915
	  5026	  5027	  5028	  5029	  5030	  5031	 18673	 18723	 18821	 19166	 19176
MOVNI	  4809	  5068	 18773
MOVNM	  5106	  5107	  5108	  5109	  5110	  5111	 19389
MOVNS	  5150	  5151	  5152	  5153	  5154	  5155	  5196	  5197	  5198	  5199	  5200	  5201	 19390	 21067
MOVS	  2167	  2208	  2249	  2292	  2334	  2376	  2416	  2461	  2502	  2544	  2584	  2631	  2667	  2704
	  2739	  3752	  3753	  3754	  3755	  3756	  3757	  3789	  3973	  5432	  5771	  6056	  7150	  7268
	  7398	  7447	  7571	  7611	  7693	  7820	  7861	  7979	  8020	  8023	  8183	  8225	  8265	  8383
	  8621	  8661	 11878	 12233	 13799	 14232	 14238	 14475	 14718	 14952	 14992	 15115	 15199	 15248
	 15940	 16018	 16416	 16496	 16536	 17831	 17907	 17944	 17984	 18061	 18098	 18139	 18180	 18221
	 18260	 18303	 18381	 18420	 19168	 19173	 19178	 19615	 21051	 21052	 21142
MOVSI	  3905	  3937	  4015	  4020	 13997	 14027	 14189	 14277	 14357	 14516	 14596	 14636	 14760	 16258
	 16297	 16336	 16374	 17199	 17238	 17277	 17314	 17679	 17717	 17755	 17792	 18023	 19608	 19616
	 20496	 20551	 20596	 21207	 21249
MOVSM	  3824	  3825	  3826	  3827	  3828	  3829	 19387
MOVSS	  3864	  3865	  3866	  3867	  3868	  3869	  4988	  5064	  5235	  5275	  5308	  5349	 11187	 11226
	 11265	 11302	 11341	 11377	 11416	 11455	 11494	 11533	 11570	 11610	 11648	 11687	 11727	 15296
	 15334	 15375	 15416	 15455	 15496	 15534	 15575	 15616	 15657	 15698	 15737	 15777	 15817	 15858
	 15899	 18475	 18523	 18573	 18620	 18672	 18721	 18772	 18819	 19388	 19426
NOSYM	    26
OPDEF	    42	    43	    44	    45	    46	    47	    48	    49	    50	    51	   229	   230	   231	   232
	   233	   234	   235	   236	   242	   248	   249	   257	   258	   259	   260	   261	   262	   263
	   264	   265	   266	   267	   270	   271	   272	   273	   274	   275	   276	   277	   278	   279
	   280	   281	   282	   283	   284	   285	   286	   287	   288	   289	   290	   291	   292	   293
	   294	   295	   296	   297	   298	   299	   300	   301	   302	   303	   304	   305	   306	   307
	   308	   309	   310	   311	   312	   313	   314	   315	   316	   317	   318	   319	   320	   321
	   322	   323	   324	   326	   343	   348	   349	   353	   354	   355	   361	   362	   368	   369
	   370	   371	   372	   373	   374	   380	   381	   388	   389	   390	   391	   394
ORCA	  1756	  1759	  1762	  1763	  2463	 11228	 15378
ORCAB	 15741	 19537
ORCAI	 11575
ORCAM	  2213	 19464
ORCB	  2041	  2042	  2045	  2046	  2049	 11189	 15337                                                             SEQ 0647
ORCBB	 15863	 20111
ORCBI	 11692
ORCBM	  2297	 19538
ORCM	  1957	  1960	  1964	  1968	  8021	 11304	 12235	 15458
ORCMB	 15822	 19575
ORCMI	 11652
ORCMM	  2256	 19463
POP	   232	 20883	 20923	 21085
POPJ	   230	 21210	 21248
PUSH	   231	 20956	 20997	 21162
PUSHJ	   229	 21206	 21253
REPEAT	   739	   823	   922	  1031	  1135	  1283	  1322	  1359	  1398	  1451	  1618	  1875	  2125	  2587
	  2742	  2823	  2867	  2912	  2952	  2992	  3006	  3019	  3032	  3045	  3058	  3071	  3084	  3097
	  3110	  3123	  3165	  3179	  3192	  3205	  3218	  3231	  3244	  3257	  3270	  3283	  3296	  3386
	  3666	  3708	  3749	  3821	  3861	  4141	  4569	  5023	  5103	  5147	  5193	  5392
ROT	   821	   920	  1028	  1132	  1264	  1316	  1353	  1396	  1489	  1529	  1569	  1616	  1712	  1751
	  1794	  1833	  1873	  1921	  1955	  1998	  2039	  2079	  2123	  2165	  2206	  2247	  2290	  2331
	  2374	  2414	  2458	  2499	  2542	  2582	  2629	  2665	  2702	  2737	  2783	  2820	  2826	  2827
	  2828	  2829	  2830	  2831	  2864	  2870	  2871	  2872	  2873	  2874	  2875	  2909	  2914	  2915
	  2916	  2949	  2954	  2955	  2956	  2990	  3163	  3337	  3344	  3345	  3381	  3590	  3596	  3626
	  3632	  3664	  3706	  3747	  3787	  3790	  3819	  3858	  3900	  3904	  3934	  3969	  4107	  4139
	  4177	  4211	  4256	  4290	  4324	  4358	  4390	  4424	  4460	  4495	  4530	  4566	  4603	  4637
	  4670	  4703	  4739	  4774	  4806	  4840	  4876	  4912	  4949	  4985	  5021	  5061	  5099	  5143
	  5189	  5233	  5272	  5306	  5347	  5388	  5430	  5467	  5504	  5541	  5579	  5617	  5655	  5692
	  5731	  5769	  5811	  5813	  5852	  5854	  5896	  5898	  5939	  5941	  5980	  6018	  6054	  6097
	  6099	  6138	  6140	  6182	  6184	  6229	  6231	  6270	  6307	  6345	  6379	  6416	  6451	  6491
	  6525	  6562	  6595	  6635	  6671	  6709	  6711	  6757	  6759	  6805	  6807	  6854	  6856	  6902
	  6904	  6944	  6946	  6987	  6989	  7032	  7034	  7074	  7078	  7112	  7147	  7185	  7226	  7265
	  7306	  7348	  7395	  7443	  7488	  7492	  7529	  7569	  7608	  7650	  7689	  7736	  7777	  7817
	  7858	  7898	  7937	  7977	  8016	  8060	  8099	  8138	  8179	  8222	  8262	  8303	  8342	  8381
	  8421	  8460	  8499	  8538	  8578	  8618	  8659	  8702	  8746	  8748	  8790	  8833	  8835	  8837
	  8877	  8920	  8969	  9020	  9064	  9099	  9167	  9204	  9206	  9240	  9242	  9283	  9329	  9370
	  9441	  9473	  9516	  9560	  9605	  9680	  9716	  9789	  9829	  9935	  9975	 10020	 10098	 10143
	 10256	 10292	 10363	 10404	 10507	 10546	 10584	 10586	 10625	 10627	 10669	 10671	 10713	 10715
	 10757	 10793	 10829	 10832	 10869	 10909	 11032	 11069	 11184	 11223	 11262	 11299	 11338	 11374
	 11413	 11452	 11491	 11530	 11567	 11607	 11645	 11684	 11724	 11760	 11798	 11837	 11876	 11915
	 11953	 11992	 12032	 12072	 12112	 12151	 12190	 12231	 12276	 12278	 12321	 12323	 12369	 12371
	 12415	 12417	 12460	 12498	 12539	 12579	 12618	 12660	 12703	 12705	 12751	 12753	 12796	 12798
	 12851	 12853	 12900	 12936	 12984	 13022	 13061	 13100	 13139	 13177	 13223	 13266	 13311	 13357
	 13359	 13405	 13443	 13482	 13520	 13559	 13598	 13601	 13638	 13676	 13715	 13755	 13795	 13836
	 13877	 13915	 13954	 13994	 14023	 14026	 14065	 14103	 14142	 14185	 14228	 14272	 14316	 14354
	 14394	 14434	 14473	 14512	 14515	 14554	 14592	 14632	 14674	 14714	 14755	 14798	 14836	 14873
	 14911	 14950	 14989	 15029	 15067	 15112	 15156	 15195	 15243	 15245	 15294	 15332	 15373	 15414
	 15453	 15494	 15532	 15573	 15614	 15655	 15696	 15735	 15775	 15815	 15856	 15897	 15935	 15937
	 15974	 15977	 16012	 16015	 16056	 16094	 16097	 16134	 16137	 16174	 16177	 16215	 16253	 16256
	 16292	 16295	 16331	 16334	 16371	 16410	 16412	 16450	 16453	 16489	 16492	 16531	 16573	 16575
	 16611	 16614	 16648	 16651	 16688	 16727	 16730	 16765	 16768	 16803	 16806	 16842	 16880	 16882
	 16920	 16923	 16959	 16962	 16999	 17038	 17040	 17076	 17079	 17115	 17118	 17155	 17194	 17197
	 17233	 17236	 17272	 17275	 17311	 17350	 17353	 17391	 17394	 17428	 17431	 17469	 17510	 17513
	 17551	 17554	 17592	 17595	 17633	 17674	 17677	 17712	 17715	 17750	 17753	 17788	 17827	 17829
	 17865	 17868	 17902	 17905	 17941	 17980	 17982	 18018	 18021	 18056	 18059	 18095	 18134	 18137
	 18175	 18178	 18216	 18219	 18257	 18298	 18301	 18339	 18342	 18376	 18379	 18417	 18473	 18520
	 18570	 18618	 18670	 18719	 18769	 18817	 18869	 18909	 18950	 18993	 19079	 19081	 19088	 19232     SEQ 0648
	 19269	 19306	 19343	 19380	 19417	 19455	 19492	 19529	 19566	 19602	 19647	 19690	 19733	 19780
	 19828	 19879	 19933	 19976	 20019	 20062	 20104	 20160	 20205	 20248	 20493	 20547	 20645	 20759
	 20810	 20880	 20916	 20953	 20987	 21045	 21078	 21139	 21158
ROTC	  3007	  3008	  3009	  3020	  3021	  3022	  3033	  3034	  3035	  3046	  3047	  3048	  3059	  3060
	  3061	  3072	  3073	  3074	  3085	  3086	  3087	  3098	  3099	  3100	  3111	  3112	  3113	  3124
	  3125	  3126	  3180	  3181	  3182	  3193	  3194	  3195	  3206	  3207	  3208	  3219	  3220	  3221
	  3232	  3233	  3234	  3245	  3246	  3247	  3258	  3259	  3260	  3271	  3272	  3273	  3284	  3285
	  3286	  3297	  3298	  3299	  3406	  3408	  3422	  3424	  3438	  3440	  3454	  3456	  3470	  3472
	  3486	  3488	  3502	  3504	  3518	  3520	  3534	  3536	  3550	  3552	 10948	 10990	 11106	 11146
SETA	  2127	  2128	  2129	  2130	  2131	  2132	  2133
SETAB	 15498	 19278
SETAI	 11342
SETAM	  2503	  2670	 19315
SETCA	  1319	  1323	  1324	  1325	  1356	  1360	  1361	  1362	  1654	  1676	  1720	  1843	  1965	  2464
	  5066	  7399	  8022	  8622	  8880	  8923	  8972	 11190	 11229	 11305	 11380	 11458	 11497	 11574
	 11612	 11651	 11691	 12236	 12623	 13998	 14190	 15338	 15379	 15459	 15538	 15620	 15661	 15780
	 15821	 15862
SETCAB	 15701	 19502
SETCAI	  1408	  1409	  1416	  1417	  1424	  1425	  1432	  1433	 11535
SETCAM	  2633	 19536
SETCM	  1923	  1924	  2170	  2209	  2210	  2250	  2251	  2293	  2294	  2335	  2377	  2545	  2546	  2632
	  4179	  4326	  4426	  4532	  5237	  5310	  5351	  5657	  5694	  5982	  6272	  6309	  6420	  6527
	  6599	  6673	  7819	  8224	 11534	 12114	 12153	 12620	 13063	 14991	 15700	 15739	 20110	 20211
SETCMB	 15781	 19353
SETCMI	 11613
SETCMM	  2589	  2590	  2591	  2592	  2593	  2594	  2595	  2596	 19352
SETM	  1882	  1888	  2462
SETMB	 15419	 19312
SETMI	 11267
SETMM	  2744	  2745	  2746	  2747	  2748	  2749	  2750	  2751	 19316
SETO	  1753	  1802	  2006	  3405	  3421	  3437	  3453	  3469	  3485	  3501	  3517	  3533	  3549	  3936
	  4002	  5582	  6276	  7359	  8141	  8188	  8541	 14194	 19948	 20034	 20804
SETOB	  1266	  2786	  2822	  2866	  2911	  2951	  3005	  3018	  3031	  3044	  3057	  3070	  3083	  3096
	  3109	  3122	  3178	  3191	  3204	  3217	  3230	  3243	  3256	  3269	  3282	  3295	  3343	  3971
	  5146	  5192	  5544	  6419	  6456	  6598	  7311	  7351	  7739	  7780	  8182	  8581	  9023	 12035
	 12581	 13024	 13269	 13522	 13758	 13996	 14188	 14436	 14677	 14913	 15159	 15901	 16059	 16218
	 16373	 16533	 16690	 16844	 17001	 17157	 17313	 17471	 17635	 17791	 17943	 18097	 18259	 18419
	 20133	 20352	 20393	 20444	 20801	 20802	 20803
SETOI	 11728
SETOM	  2705	 19156	 20123	 20800	 20833	 21304	 21355	 21374	 21503	 21509
SETZ	  4009	  4109	  5506	  6381	  6564	  7114	  7272	  7531	  7701	  7900	  8062	  8305	  8462	  8933
	  8982	 16925	 19192	 19991	 20077	 21300
SETZB	  3860	  4259	  4293	  4392	  4462	  4497	  4568	  4605	  4672	  4706	  4808	  4878	  4914	  5469
	  6347	  7076	  7228	  7267	  7490	  7652	  7692	  7939	  8101	  8344	  8501	  8792	  9133	  9249
	  9291	 11800	 11955	 12500	 12938	 13181	 13445	 13678	 13917	 14105	 14356	 14595	 14838	 15070
	 15298	 19084	 20128
SETZI	  1642	  1664	  1841	  1963
SETZM	   726	   734	   738	  2787	 19573	 20754	 20756	 20799	 20807	 20839	 21274	 21281	 21287	 21309
	 21313	 21339	 21350	 21371
SIXBIT	    84	    85	   612	   613	   621	   622	   729	   774	 19149	 19155	 21283	 21289	 21293	 21359
	 21363	 21409	 21413	 21425	 21436	 21441	 21453	 21459	 21470	 21529
SKIP	  1040	  1048	  1056	  1064	  1072	  1080	  1088	  1096	  8706
SKIPA	  1147	  1158	  1169	  1180	  1191	  1202	  1213	  1224	  8707	 20686	 20723	 21055                     SEQ 0649
SKIPE	   728	  8751	  8794	 19085	 19094	 19099	 19144	 19146	 19194	 19200	 19210	 19212	 21271	 21307
	 21314	 21445
SKIPG	  8841	  8883	  8975	  8983
SKIPGE	  8927	  8935	  8984	  9027	 21275	 21348
SKIPL	  8840	  8884	  8926	  8934	 21351	 21514
SKIPLE	  8976	  9026
SKIPN	  8752	  8793	 19119	 20837	 21057	 21270	 21316	 21353	 21356	 21510
SOJ	 10260	 20309	 21285
SOJA	 10261	 10549
SOJE	 10298	 10332
SOJG	   892	  1002	  1106	  1237	  1273	  1331	  1368	  1441	  1507	  1547	  1587	  1687	  1725	  1767
	  1807	  1847	  1896	  1928	  1972	  2013	  2053	  2097	  2137	  2179	  2219	  2262	  2303	  2346
	  2385	  2429	  2471	  2514	  2554	  2602	  2639	  2676	  2711	  2757	  2793	  2837	  2881	  2922
	  2962	  3136	  3309	  3352	  3565	  3601	  3637	  3680	  3722	  3761	  3794	  3833	  3875	  3909
	  3944	  3980	  4025	  4053	  4082	  4114	  4151	  4184	  4230	  4264	  4298	  4332	  4364	  4398
	  4434	  4469	  4504	  4540	  4577	  4611	  4644	  4678	  4713	  4748	  4780	  4814	  4849	  4885
	  4922	  4958	  4996	  5035	  5072	  5115	  5161	  5207	  5246	  5280	  5321	  5362	  5404	  5441
	  5478	  5515	  5553	  5591	  5629	  5666	  5705	  5742	  5784	  5824	  5868	  5910	  5954	  5992
	  6028	  6069	  6110	  6154	  6201	  6244	  6281	  6319	  6353	  6390	  6425	  6465	  6499	  6534
	  6569	  6605	  6643	  6679	  6727	  6775	  6825	  6872	  6915	  6957	  7001	  7046	  7083	  7119
	  7156	  7196	  7237	  7278	  7320	  7366	  7414	  7460	  7501	  7540	  7580	  7622	  7661	  7708
	  7749	  7789	  7830	  7870	  7909	  7948	  7988	  8032	  8071	  8110	  8151	  8194	  8234	  8275
	  8314	  8353	  8392	  8432	  8471	  8510	  8550	  8590	  8631	  8673	  8717	  8759	  8801	  8848
	  8891	  8942	  8991	  9034	  9073	  9107	  9138	  9178	  9214	  9255	  9299	  9340	  9401	  9443
	  9485	  9531	  9576	  9618	  9653	  9690	  9727	  9760	  9801	  9842	  9875	  9907	  9948	  9990
	 10032	 10070	 10114	 10158	 10194	 10229	 10266	 10305	 10336	 10371	 10376	 10410	 10416	 10448
	 10479	 10518	 10554	 10597	 10641	 10685	 10729	 10765	 10801	 10841	 10881	 10920	 10960	 11002
	 11042	 11079	 11117	 11157	 11195	 11234	 11271	 11310	 11346	 11385	 11424	 11463	 11502	 11539
	 11579	 11617	 11656	 11696	 11732	 11770	 11809	 11848	 11887	 11925	 11964	 12004	 12044	 12084
	 12123	 12162	 12203	 12246	 12291	 12339	 12385	 12432	 12470	 12511	 12551	 12590	 12632	 12671
	 12719	 12766	 12821	 12868	 12910	 12947	 12994	 13033	 13072	 13111	 13149	 13195	 13238	 13283
	 13329	 13377	 13415	 13454	 13492	 13531	 13570	 13610	 13648	 13687	 13727	 13767	 13808	 13849
	 13887	 13926	 13966	 14037	 14075	 14114	 14157	 14200	 14244	 14288	 14326	 14366	 14406	 14445
	 14484	 14526	 14564	 14604	 14646	 14686	 14727	 14770	 14808	 14847	 14883	 14922	 14961	 15001
	 15039	 15084	 15128	 15167	 15213	 15264	 15304	 15345	 15386	 15425	 15466	 15504	 15545	 15586
	 15627	 15668	 15707	 15747	 15787	 15828	 15869	 15907	 15946	 15984	 16024	 16066	 16106	 16146
	 16186	 16225	 16264	 16303	 16342	 16382	 16422	 16461	 16502	 16545	 16583	 16620	 16659	 16699
	 16737	 16775	 16813	 16852	 16890	 16931	 16970	 17010	 17048	 17087	 17126	 17166	 17205	 17244
	 17283	 17322	 17363	 17400	 17441	 17482	 17523	 17564	 17605	 17646	 17684	 17722	 17760	 17799
	 17837	 17874	 17913	 17952	 17990	 18028	 18067	 18106	 18147	 18188	 18229	 18270	 18311	 18348
	 18389	 18430	 18494	 18542	 18592	 18642	 18691	 18741	 18791	 18841	 18879	 18919	 18962	 19006
	 19039	 19065	 20316	 20361	 20405	 20457	 20509	 20564	 20608	 20658	 20699	 20737	 20785	 20887
	 20927	 20960	 21001	 21104	 21171	 21174	 21220	 21261
SOJGE	 10475	 20775	 20834
SOJL	 10331	 10370	 10411	 10443
SOJLE	 10444	 10474
SOJN	 10299
SOS	  9940	 20853
SOSA	  9941	 10511	 20167
SOSE	  9981	 10025	 10064	 19111
SOSG	 10107	 10150
SOSGE	 10223
SOSL	 10024	 10063	 10106	 10151	 10187                                                                             SEQ 0650
SOSLE	 10188	 10222
SOSN	  9982
SUB	  4571	  4572	  4573	  4607	  4640	  9939	  9980	 10105	 10149	 10259	 10297	 10369	 10409	 18687
	 18874	 18914	 19181	 20922	 20996	 21149	 21169
SUBB	  4879	  4916	  4952	 18835	 20257
SUBI	  4776	  4810	  4845	 18787	 20822	 21054	 21059	 21099
SUBM	  4674	  4707	  4742	 18737	 20266
SUBTTL	    27	    38	   158	   193	   394	   395	   723	   794	  6537	 12952	 19113	 21326	 21531
TDC	  6273	  6277	  6310	 20173
TDCA	  6313	 20174
TDCE	  6348	  6385	  6421	  6457	  6495	  6529	  6721	  6723	  6762	  6765	  6819	  6821	  6862
TDCN	  6382	  6460	  6565	  6600	  6638	  6675	  6714	  6717	  6769	  6771	  6812	  6815	  6866	 18486
	 18534	 18584	 18632	 18683	 18733	 18783	 18831
TDN	  5433
TDNA	  5436
TDNE	  5473	  5510	  5545	  5583	  5621	  5661	  6910	  6949	  6996	  7038	 10950	 10992	 11108	 11148
TDNN	  5470	  5507	  5548	  5586	  5624	  5658	  6907	  6952	  6993	  7041
TDO	  5983	  6020	  6060	  9562	  9831	 10145	 10406	 10629	 10673	 10717
TDOA	  5987	  6023	  6064
TDOE	  6102	  6145	  6191	  6235
TDON	  6105	  6150	  6195	  6238
TDZ	  5695	  5733	  5775	  9518	  9563	  9791	  9832	 10100	 10365	 10630	 10674	 10718	 18952	 18995
TDZA	  5698	  5737	  5779
TDZE	  5819	  5859	  5905	  5944
TDZN	  5816	  5863	  5902	  5948
TITLE	    12
TLC	 14800	 14839	 14875	 14914	 14953	 14993
TLCA	 14803	 14842	 14878	 14917	 14956	 14996
TLCE	 15034	 15078	 15080	 15120	 15162	 15200	 15203	 15258	 15260
TLCN	 15031	 15071	 15074	 15123	 15160	 15207	 15209	 15251	 15254
TLN	 13407	 13446	 13484	 13523	 13562	 13602
TLNA	 13410	 13449	 13487	 13526	 13565	 13605
TLNE	   767	  5240	  5313	  5354	 13643	 13682	 13719	 13759	 13800	 13841	 17357	 17435	 17474	 18305
	 18383	 18422	 19086	 19136	 19142	 19207	 19249	 19285	 19323	 19360	 19397	 19435	 19472	 19509
	 19546	 19582	 19627	 19670	 19713	 19760	 19808	 19859	 19913	 19956	 19999	 20042	 20085	 20140
	 20185	 20228	 20271	 20301	 20314	 20345	 20359	 20389	 20403	 20435	 20442	 20455	 20486	 20507
	 20540	 20562	 20593	 20606	 20638	 20656	 21082	 21087	 21101	 21202	 21218	 21245	 21259	 21279
	 21341	 21500	 21504
TLNN	   737	  5238	  5311	  5352	 13640	 13679	 13722	 13762	 13803	 13844	 20213	 20919	 21321	 21502
	 21524
TLO	 14318	 14358	 14398	 14437	 14476	 14518	 15941	 16019	 17043	 17082	 17121	 17159	 17518	 17559
	 17600	 17639	 17985	 18062	 18099	 18306	 18384	 18423	 18996	 19796	 19847	 19900	 19939	 20028
	 20443
TLOA	 14321	 14361	 14401	 14440	 14479	 14521
TLOE	 14559	 14597	 14638	 14678	 14719	 14762
TLON	 14556	 14599	 14641	 14681	 14722	 14765
TLZ	 13879	 13918	 13958	 13999	 14029	 16537	 17516	 17557	 17598	 17637	 17832	 17908	 17945	 18304
	 18382	 18421	 19749	 19851	 19907	 19982	 20071	 20354
TLZA	 13882	 13921	 13961	 14032
TLZE	 14070	 14109	 14148	 14191	 14235	 14279
TLZN	 14067	 14106	 14152	 14195	 14239	 14283
TRC	 12902	 12939	 12986	 13025	 13064	 13103
TRCA	 12905	 12942	 12989	 13028	 13067	 13106                                                                     SEQ 0651
TRCE	 13144	 13189	 13191	 13230	 13270	 13273	 13316	 13319	 13371	 13373
TRCN	 13141	 13182	 13185	 13233	 13277	 13279	 13323	 13325	 13364	 13367
TRN	 11762	 11801	 11840	 11879
TRNA	 11765	 11804	 11843	 11882
TRNE	 11920	 11959	 11996	 12036	 12076	 12118	 17517	 17558	 17599	 17638	 18141	 18182	 18223	 18262
TRNN	 11917	 11956	 11999	 12039	 12079	 12115	 13179	 18873	 18913
TRO	 12462	 12503	 12543	 12582	 12624	 12663	 16101	 16141	 16181	 16259	 16298	 16337	 16375	 16417
	 16497	 16885	 16926	 16965	 17003	 17200	 17239	 17278	 17315	 17358	 17436	 17475	 18142	 18183
	 18224	 18263	 19122	 19786	 19835	 19886	 19942	 20025
TROA	 12465	 12506	 12546	 12585	 12627	 12666
TROE	 12712	 12758	 12814	 12816	 12859
TRON	 12714	 12761	 12806	 12809	 12862
TRZ	 12154	 12195	 12237	 16100	 16140	 16180	 16415	 16456	 16495	 16535	 16578	 16654	 16692	 17356
	 17434	 17473	 18140	 18181	 18222	 18261	 19739	 19839	 19893	 19985	 20068	 21375
TRZA	 12157	 12198	 12241
TRZE	 12286	 12330	 12380	 12422
TRZN	 12283	 12334	 12377	 12426
TSC	  7079	  7115	  7152	  7188	 20178
TSCA	  7191	 20179
TSCE	  7232	  7273	  7312	  7352	  7355	  7408	  7410	  7452
TSCN	  7229	  7269	  7315	  7360	  7362	  7401	  7404	  7455
TSN	  8306	  8345	  8384	  8424
TSNA	  8309	  8348	  8387	  8427
TSNE	  8466	  8505	  8542	  8582	  8626	  8665
TSNN	  8463	  8502	  8545	  8585	  8623	  8668
TSO	  7493	  7532	  7572	  7614
TSOA	  7496	  7535	  7575	  7617
TSOE	  7656	  7702	  7704	  7740	  7781	  7825	  7862
TSON	  7653	  7694	  7697	  7744	  7784	  7821	  7865
TSZ	  7901	  7940	  7980	  8024
TSZA	  7904	  7943	  7983	  8027
TSZE	  8066	  8105	  8142	  8185	  8229	  8266
TSZN	  8063	  8102	  8146	  8189	  8226	  8270
VAR	 21671
XALL	    14
XCT	 21491
XLIST	     6	   393	   394	   526	 21367	 21368	 21483	 21535
XOR	  1492	  1495	  1498	  1501	  1502	  1503	  1532	  1535	  1538	  1541	  1542	  1543	  1572	  1575
	  1578	  1581	  1582	  1583	  2009	  2172	  2212	  2253	  2296	  2378	  2419	  2420	  2505	  5773
	  6058	  6861	  7151	  7450	  8184	  9166	  9282	 10873	 11419	 11496	 11573	 11690	 15579	 15660
	 18482	 18530	 18580	 18628	 18679	 18729	 18779	 18827
XORB	 15539	 19428
XORI	 11381	 19209
XORM	  2340	 19427
XWD	  4048	  4079	  4844	  5390	  8836	  9024	  9165	  9166	  9168	  9176	  9205	  9241	  9281	  9282
	  9284	  9297	  9298	  9332	  9396	  9475	  9518	  9562	  9603	  9644	  9650	  9652	  9753	  9791
	  9831	  9867	  9900	 10100	 10145	 10365	 10406	 10629	 10630	 10673	 10674	 10717	 10718	 10950
	 10992	 11108	 11148	 12194	 12279	 12324	 12372	 12418	 12622	 12706	 12754	 12799	 12854	 13360
	 13838	 14274	 14397	 14757	 15246	 18872	 18874	 18912	 18914	 18952	 18955	 18995	 18999	 19034
	 19037	 19038	 19061	 19063	 19064	 19106	 19107	 19160	 20392	 20438	 20489	 20543	 20641	 20882
	 20922	 20996	 21163	 21169	 21205	 21211	 21212
