DSDUA DECSYSTEM 2020 DUP-11 DIAGNOSTIC VERSION 0,2	MACRO %53(1020) 08:16 15-Jun-79 Page 1
DSDUAT	MAC	14-Jun-79 16:07		CONSOLE DATA SWITCH ASSIGNMENTS, MARCH 1978                                        SEQ 0039

     1					;MAINDEC-10-DSDUA
     2
     3
     4
     5
     6
     7
     8			000000			MCNVER==00
     9
    10			000002			DECVER==02
    11
    12						XLIST
    13						LIST
    14						LALL
    15						DUP20	\MCNVER,\DECVER^
    16						TITLE	DSDUA DECSYSTEM 2020 DUP-11 DIAGNOSTIC VERSION 0,2
    17					^
    18
    19
    20						;MAINTAINER:	PDP-10 DIAGNOSTIC GROUP
    21
    22						;ASSEMBLE AS FOLLOWS:	DSDUAT,PARAM,FIXED,DSDUAM,DSADUSS,STOR,DSDUAS
    23
    24
    25	000137					LOC	137
    26	000137	000000	000002			MCNVER,,DECVER
    27						NOSYM
DSDUA DECSYSTEM 2020 DUP-11 DIAGNOSTIC VERSION 0,2	MACRO %53(1020) 08:16 15-Jun-79 Page 2
DSDUAT	MAC	14-Jun-79 16:07		DIAGNOSTIC PARAMETERS                                                              SEQ 0040

    28						SUBTTL	DIAGNOSTIC PARAMETERS
    29
    30						DEFINE	BOX	(TEXTA)
    31					<
    32						LALL
    33						LIST
    34						S
    35						COMMENT $
    36						 TEXTA
    37						$
    38						S
    39						XLIST
    40						XALL
    41						LIST
    42					>
    43						DEFINE	D,<;--------------------------------------------------------------------->
    44
    45						DEFINE	UTYPER	(A)
    46					<
    47						SETZB	15,1		;INITIALIZE REGS
    48						RDIO	0,@A		;READ UNIBUS REG
    49						PNTHW
    50					>
    51
    52						DEFINE	STATLP
    53					<
    54						PCRLF
    55						MOVEI	0,[ASCIZ/********************/]
    56						PNTAL
    57						PCRLF
    58						MOVEI	0,[ASCIZ/RXCSR :/]
    59						PNTAL
    60						UTYPER	(RXCSR)
    61						PCRLF
    62						MOVEI	0,[ASCIZ/RXDBUF:/]
    63						PNTAL
    64						UTYPER	(RXDBUF)
    65						PCRLF
    66						MOVEI	0,[ASCIZ/TXCSR :/]
    67						PNTAL
    68						UTYPER	(TXCSR)
    69						PCRLF
    70						MOVEI	0,[ASCIZ/TXDBUF:/]
    71						PNTAL
    72						UTYPER	(TXDBUF)
    73						PCRLF
    74						MOVEI	0,[ASCIZ/UASTAT:/]
    75						PNTAL
    76						UTYPER	(UASTAT)
    77						PCRLF
    78					>
    79
    80						DEFINE	LPSTAT
    81					<
    82						JSR	STATUS		;PRINT STANDARD STATUS!
DSDUA DECSYSTEM 2020 DUP-11 DIAGNOSTIC VERSION 0,2	MACRO %53(1020) 08:16 15-Jun-79 Page 2-1
DSDUAT	MAC	14-Jun-79 16:07		DIAGNOSTIC PARAMETERS                                                              SEQ 0041

    83						JSR	XDPNT		;PRINT AC BLOCK LESS AC1
    84					>
    85
    86						DEFINE	CHKCON
    87					<
    88						MOVEI	6,DTR		;DTR BIT
    89						BSIO	6,@RXCSR	;SET DTR (SETS DSR)
    90					>
    91
    92						DEFINE	CLEAR	(A)
    93					<
    94						SETZB	1,10
    95						WRIO	10,@A		;LOAD ZEROS INTO SELECTED REG.
    96					>
    97
    98						DEFINE	CLKHI	(%HX)
    99					<
   100
   101						PKCLK	1		;RAISE CLOCK EDGE TO 1
   102					%HX:
   103					>
   104
   105						DEFINE	CLKLO	(%JX)
   106					<
   107						MOVEI	10,1B30		;CLOCK POSITIONED FOR BYTE REF
   108						BCIOB	10,@TXCSRH	;PUT MAINT CLOCK INPUT AT LOGICAL 0
   109						SWITCH
   110						TRNE	0,1B35
   111						JSR	STATUS
   112					%JX:
   113					>
   114						DEFINE	CLKDUP	(%P,%PX)
   115					<
   116					%P:	MOVEI	10,1B30		;CLOCK BIT POSITIONED FOR BYTE REF.
   117						BSIOB	10,@TXCSRH	;BIT SET CLK BIT
   118						SWITCH
   119						TRNE	0,1B35		;DEBUGGING TOOL
   120						JSR	STATUS		;WHICH PRINTS TICK STATUS
   121						SUBI	11,1		;DECREMENT TICK COUNT
   122						JUMPE	11,%PX		;JUMP IF TICKS ALL DONE
   123						BCIOB	10,@TXCSRH	;BIT CLR CLK BIT
   124						SWITCH
   125						TRNE	0,1B35		;DEBUGGING TOOL
   126						JSR	STATUS		;WHICH PRINTS TICK STATUS
   127						SUBI	11,1		;DECREMENT TICK COUNT
   128						JUMPE	11,%PX		;JUMP IF TICKS ALL DONE
   129						JRST	%P		;CONTINUE CLOCKING
   130					%PX:
   131					>
   132						DEFINE	PKCLK	(A)
   133					<
   134						MOVEI	11,^D'A		;CLOCK TICK ARGUMENT
   135						JSR	DUPCLK		;CALL PKCLK ROUTINE
   136					>
   137
DSDUA DECSYSTEM 2020 DUP-11 DIAGNOSTIC VERSION 0,2	MACRO %53(1020) 08:16 15-Jun-79 Page 2-2
DSDUAT	MAC	14-Jun-79 16:07		DIAGNOSTIC PARAMETERS                                                              SEQ 0042

   138						DEFINE	RPOKE	(A,B)
   139					<
   140						MOVEI	12,A		;DATA
   141						MOVEI	16,^D'B		;DECIMAL # OF SHIFTS
   142						JSR	RCVMT		;GENERATE SERIAL DATA
   143					>
   144
   145						DEFINE	RCVBIT	(%D,%DX,%DXY)
   146					<
   147					%D:	MOVEI	6,4		;RCVR BIT WINDOW INPUT BIT
   148						BCIOB	6,@TXCSRH	;CLEAR WINDOW BIT
   149						ROT	12,-^D1		;ROTATE CURRENT BIT INTO POSITION
   150						JUMPGE	12,%DX		;TEST BIT-JUMP IF =0
   151						BSIOB	6,@TXCSRH	;BIT IS A 0-SET BIT WINDOW
   152					%DX:	PKCLK	2		;GIVE CLOCK
   153						SUBI	16,1		;DECREMENT # OF SHIFTS
   154						JUMPN	16,%D		;KEEP SHIFTING DATA IF NOT=0
   155					%DXY:
   156					>
   157
   158						DEFINE	RFLG	(A,%E,%EX,%EXY)
   159					<
   160						MOVEI	12,^D'A		;SETUP FOR (N)FLAGS
   161					%E:	MOVEI	16,0		;INIT COUNTER
   162						MOVEI	6,4		;RCVR BIT WINDOW INPUT BIT
   163						BCIOB	6,@TXCSRH	;FIRST BIT OF FLAG IS ALWAYS 0
   164						PKCLK	2		;GIVE ONE FULL CLOCK
   165					%EX:	BSIOB	6,@TXCSRH	;NEXT 6 BITS ARE 1'S
   166						PKCLK	2		;ONE FULL CLOCK
   167						ADDI	16,1		;COUNT # OF 1'S
   168						CAIE	16,6		;DONE 6 ONE YET??
   169						JRST	%EX		;NO-PUSH OUT ANOTHER 1 BIT
   170						BCIOB	6,@TXCSRH	;LAST BIT IS A ZERO
   171						PKCLK	2		;ONE FULL CLOCK
   172						SUBI	12,1		;DECREMENT FLAG COUNT
   173						JUMPN	12,%E		;JUMP IF NOT ALL FLAGS DONE
   174					%EXY:
   175					>
   176
   177						DEFINE	FLG	(A,%C,%CX,%CXY)
   178					<
   179						MOVEI	12,^D'A		;SETUP FOR (N) FLAGS
   180					%C:	PKCLK	2		;PUSH OUT FIRST FLAG BIT
   181					%CX:	MOVEI	16,0		;INIT COUNTER
   182						PKCLK	2		;PUSH OUT SECOND FLAG BIT
   183						AOS	16		;COUNT THE ONE BITS
   184						CAIE	16,6		;HAVE WE GENERATED 6 ONES YET??
   185						JRST	%CX+1		;NO-PUSH OUT ANOTHER ONE
   186						PKCLK	2		;YES-PUSH OUT FINAL ZERO BIT
   187						SUBI	12,1		;DECREMENT FLAG COUNT
   188						JUMPN	12,%C		;JUMP IF NOT ALL FLAGS DONE
   189					%CXY:
   190					>
   191
   192						DEFINE	SFLG	(A,%K,%KX,%KXY)
DSDUA DECSYSTEM 2020 DUP-11 DIAGNOSTIC VERSION 0,2	MACRO %53(1020) 08:16 15-Jun-79 Page 2-3
DSDUAT	MAC	14-Jun-79 16:07		DIAGNOSTIC PARAMETERS                                                              SEQ 0043

   193					<
   194
   195						MOVEI	12,^D'A		;SETUP FOR (N) SPECIAL FLAGS
   196					%K:	MOVEI	16,0		;INIT COUNTER
   197						MOVEI	6,4		;RCVR BIT WINDOW INPUT BIT
   198					%KX:	BSIOB	6,@TXCSRH	;NEXT 6 BITS ARE 1'S
   199						PKCLK	2		;ONE FULL CLK
   200						ADDI	16,1		;COUNT 3 OF 1'S
   201						CAIE	16,6		;DONE 6 ONES YET?
   202						JRST	%KX		;NO-PUSH OUT ANOTHER 1-BIT
   203						BCIOB	6,@TXCSRH	;LAST BIT IS A 0
   204						PKCLK	2		;ONE FULL CLOCK
   205						SUBI	12,1		;DECREMENT FLAG COUNT
   206						JUMPN	12,%K		;JUMP IF NOT ALL FLAGS DONE
   207					%KXY:
   208					>
   209
   210						DEFINE	NXTTST	(A,B)<
   211						MOVEI	5,A		;GET CURRENT TEST #
   212						GO	$NXTST		;GO CHECK SWITCHES
   213						JRST	T.'A		;REPEAT SAME TEST
   214						MOVEI	5,T.'B		;GET NXT TEST #
   215						MOVEM	5,TESTPC	;SAVE ADRS FOR PC
   216						JRST	T.'B		;GO TO NEXT TEST>
   217
   218
   219
DSDUA DECSYSTEM 2020 DUP-11 DIAGNOSTIC VERSION 0,2	MACRO %53(1020) 08:16 15-Jun-79 Page 3
DSDUAT	MAC	14-Jun-79 16:07		DIAGNOSTIC PARAMETERS                                                              SEQ 0044

   220					;ACCUMULATOR ASSIGNMENTS:
   221
   222			000000		AC=	0
   223			000000		AC0=	0
   224			000001		AC1=	1
   225			000012		IRPTAC=	12
   226			000015		PRTOUT=	15
   227
   228					;SPECIAL BIT ASSIGNMENTS
   229			000001		EXCASB==1
   230			000100		DEBUG==100
   231			000001		ALTGO==1
   232			000001		ITERAT==1
   233			030000		SADR1=	BEGIN
   234			030000		SADR2=	BEGIN
   235			030600		SADR3=	EXITS
   236			030007		SADR4=	SRTDDT
   237			030061		SADR5=	$BEND2
   238			030007		SADR6=	SRTDDT
   239		254200	030000		SADR7=	HALT BEGIN
   240		254200	030000		SADR8=	HALT BEGIN
   241		254200	030000		SADR9=	HALT BEGIN
   242		254200	030000		SADR10=	HALT BEGIN
   243		254200	030000		SADR11=	HALT BEGIN
   244			000000		PAREA1=	0
   245			000017		PAREA2=	17
   246		446344	654100		PAREA3=	SIXBIT	/DSDUA/
   247		605664	000000		PAREA4=	SIXBIT	/PNT/
   248			000000		PAREA5=	0
   249			000000		PAREA6=	0
   250
   251		260740	040234		OPDEF	CSINIT	[PUSHJ	P,$CSINIT]
   252		260740	040241		OPDEF	UBACLR	[PUSHJ	P,$UBACLR]
   253
   254					;SWITCH SETTINGS
   255
   256			000200		CONTU==200			;CONTINUE WITH FIRST TEST AGAIN
   257									;RELIAB ==400 IN RH WILL REPEAT EACH
   258									;TEST 10 TIMES &LOOP ON DATA IN TESTS
   259									;43 & 57
   260
DSDUA DECSYSTEM 2020 DUP-11 DIAGNOSTIC VERSION 0,2	MACRO %53(1020) 08:16 15-Jun-79 Page 4
DSDUAT	MAC	14-Jun-79 16:07		DIAGNOSTIC PARAMETERS                                                              SEQ 0045

   261
   262					SUBTTL	CONSOLE DATA SWITCH ASSIGNMENTS, MARCH 1978
   263
   264					DEFINE	S,<;*********************************************************************>
   265
   266					S^;*********************************************************************^
   267					;*DATA SWITCHES
   268					;*LEFT HALF SWITCHES ARE PRE-ASSIGNED FOR SUBROUTINE PACKAGE USE
   269					;*AND CONTROL LOOPING, PRINTING (TTY OR OTHER DEVICE) AND MISC. FUNCTIONS
   270					S^;*********************************************************************^
   271
   272			400000		ABORT==	400000			;ABORT PROGRAM ON PASS COMPLETION
   273			200000		RSTART==200000			;RESTART TEST, PRINT TOTALS
   274			100000		TOTALS==100000			;PRINT TOTALS, CONTINUE
   275
   276			040000		NOPNT==	040000			;INHIBIT ALL PRINT/TYPE OUT (EXCEPT FORCED)
   277			020000		PNTLPT==020000			;PRINT ALL DATA ON LPT (LOGICAL DEVICE, USER MODE)
   278			010000		DING==	010000			;RING BELL ON ERROR
   279
   280			004000		LOOPER==004000			;ENTER EXERCISE/CHECK LOOP ON ERROR
   281			002000		ERSTOP==002000			;HALT ON TEST ERROR
   282			001000		PALERS==001000			;PRINT ALL ERRORS
   283
   284			000400		RELIAB==000400			;RELIABILITY MODE
   285			000200		TXTINH==000200			;INHIBIT ERROR TEXT
   286			000100		INHPAG==000100			;INHIBIT PAGING
   287
   288			000040		MODDVC==000040			;MODIFY DEVICE CODE
   289			000020		INHCSH==000020			;INHIBIT CACHE
   290			000010		OPRSEL==000010			;OPERATOR SELECTION
   291
   292			000004		CHAIN==	000004			;CHAIN CONTROL SWITCH
   293
   294									;SWITCH 16 RESERVED
   295
   296									;SWITCH 17 RESERVED !!!
DSDUA DECSYSTEM 2020 DUP-11 DIAGNOSTIC VERSION 0,2	MACRO %53(1020) 08:16 15-Jun-79 Page 2
PARAM	KSM	28-Mar-78 11:27		PROGRAM/SUBROUTINE PARAMETERS                                                      SEQ 0046

   297					SUBTTL	PROGRAM/SUBROUTINE PARAMETERS
   298
   299					S^;*********************************************************************^
   300					;*SPECIAL SUBPROGRAM LINKAGES
   301					S^;*********************************************************************^
   302
   303			027772		FSELNK=	27772	;FILE SELECT LINK
   304			027773		FRDLNK=	27773	;FILE READ LINK
   305			027774		LDLNK=	27774	;LOAD LINKAGE ADDRESS
   306			027775		DDTLNK=	27775	;DDT LINKAGE ADDRESS
   307			027776		MODLNK=	27776	;OPERATIONAL MODE CHECK LINKAGE ADDRESS
   308			027777		SUBLNK=	27777	;SUBROUTINE LINKAGE ADDRESS
   309
   310					S^;*********************************************************************^
   311					;*SPECIAL SUBROUTINE FATAL HALTS
   312					;*USED TO REPORT ERRORS THAT CAUSE THE SUBROUTINES TO BE UNUSABLE
   313					S^;*********************************************************************^
   314
   315					;ADDRESS   TAG	REASON
   316					;---------------------
   317
   318					; 1010 	NOEXEC	;PROGRAM NOT CODED FOR EXEC MODE OPERATION
   319					; 1011  PLERR	;FATAL PUSH LIST POINTER ERROR
   320					; 1012  PLERR1	;INITIAL PUSH LIST POINTER ERROR
   321					; 1013  MUOERR	;MUUO WITH LUUO HANDLER WIPED OUT
   322					; 1014  SMBER	;KS-10 INTERRUPT WITHOUT DOORBELL
   323					; 1015  SMCER	;KS-10 CLOCK INTERRUPT WITHOUT FLAG SET
   324					; 1016  CPIERR	;CPU INITIALIZATION ERROR
   325					; 1017  EOPERR	;END OF PROGRAM ERROR
   326					; 1020  LUOERR	;INTERRUPT WITH LUUO HANDLER WIPED OUT
   327
   328					S^;*********************************************************************^
DSDUA DECSYSTEM 2020 DUP-11 DIAGNOSTIC VERSION 0,2	MACRO %53(1020) 08:16 15-Jun-79 Page 3
PARAM	KSM	28-Mar-78 11:27		PROGRAM/SUBROUTINE PARAMETERS                                                      SEQ 0047

   329					S^;*********************************************************************^
   330					;OPERATOR DEFINITIONS (NON-UUO'S)
   331					S^;*********************************************************************^
   332
   333		260740	000000		OPDEF	GO	[PUSHJ	P,]	;SUBROUTINE CALL
   334		263740	000000		OPDEF	RTN	[POPJ	P,]	;SUBROUTINE RETURN
   335		261740	000000		OPDEF	PUT	[PUSH	P,]	;PUT DATA ON PUSH LIST
   336		262740	000000		OPDEF	GET	[POP	P,]	;GET DATA FROM PUSH LIST
   337		254000	000000		OPDEF	PJRST	[JRST	]	;JRST TO ROUTINE THAT RTN'S
   338		254200	000000		OPDEF	HALT	[JRST	4,]	;DEFINITION FOR DDT
   339		254100	000000		OPDEF	JRSTF	[JRST	2,]	;DEFINITION FOR DDT
   340		254500	000000		OPDEF	JEN	[JRST	12,]	;DEFINITION FOR DDT
   341
   342					S^;*********************************************************************^
   343					;*SUBROUTINE INITIALIZATION CALL
   344					S^;*********************************************************************^
   345
   346		265000	030011		OPDEF	PGMINT	[JSP	0,SBINIT]	;SUBROUTINE INITIALIZATION
   347
   348					S^;*********************************************************************^
   349					;*HALTING UUO'S (A MORE GRACEFUL HALT THAN SIMPLY USING THE HALT INSTRUCTION).
   350					S^;*********************************************************************^
   351
   352		037640	000004		OPDEF	FATAL	[37B8!15B12!4]	;FATAL PROGRAMMING HALT
   353		037600	000004		OPDEF	ERRHLT	[37B8!14B12!4]	;PROGRAM ERROR HALT
   354
   355					S^;*********************************************************************^
   356					;*TERMINAL INPUT UUO'S
   357					;*ALWAYS COME FROM THE CONSOLE TERMINAL IN EXEC MODE OR THE
   358					;*CONTROLLING TERMINAL (REAL TERMINAL OR PTY) IN USER MODE.
   359					S^;*********************************************************************^
   360
   361		037000	000003		OPDEF	TTICHR 	[37B8!0B12!3]	;TTY, INPUT ANY CHARACTER
   362		037040	000003		OPDEF	TTIYES	[37B8!1B12!3]	;TTY, NORMAL RETURN Y
   363		037100	000003		OPDEF	TTINO	[37B8!2B12!3]	;TTY, NORMAL RETURN N
   364		037140	000003		OPDEF	TTIOCT	[37B8!3B12!3]	;TTY, INPUT OCTAL WORD
   365		037200	000003		OPDEF	TTIDEC	[37B8!4B12!3]	;TTY, INPUT DECIMAL WORD
   366		037240	000003		OPDEF	TTICNV	[37B8!5B12!3]	;TTY, INPUT CONVERTABLE WORD
   367		037300	000003		OPDEF	TTLOOK	[37B8!6B12!3]	;TTY, KEYBOARD CHECK
   368		037340	000003		OPDEF	TTALTM	[37B8!7B12!3]	;TTY, ALT-MODE CHECK
   369		037400	000003		OPDEF	TTSIXB	[37B8!10B12!3]	;TTY, INPUT SIXBIT WORD
   370		037440	000003		OPDEF	TTYINP	[37B8!11B12!3]	;TTY, IMAGE MODE INPUT
   371		037500	000003		OPDEF	TTICLR	[37B8!12B12!3]	;TTY, CLEAR INPUT
DSDUA DECSYSTEM 2020 DUP-11 DIAGNOSTIC VERSION 0,2	MACRO %53(1020) 08:16 15-Jun-79 Page 4
PARAM	KSM	28-Mar-78 11:27		PROGRAM/SUBROUTINE PARAMETERS                                                      SEQ 0048

   372					;*TERMINAL OUTPUT UUO'S.
   373
   374		037000	000000		OPDEF	PNTA	[37B8!0B12!0]	;PRINT ASCII WORD
   375		037000	000001		OPDEF	PNTAF	[37B8!0B12!1]	;PRINT ASCII WORD FORCED
   376		037740	000000		OPDEF	PNTAL	[37B8!17B12!0]	;PRINT ASCIZ LINE
   377		037740	000001		OPDEF	PNTALF	[37B8!17B12!1]	;PRINT ASCIZ LINE FORCED
   378		037600	000003		OPDEF	PSIXL	[37B8!14B12!3]	;PRINT SIXBIT'Z LINE
   379		037640	000003		OPDEF	PSIXLF	[37B8!15B12!3]	;PRINT SIXBIT'Z LINE FORCED
   380		037000	000000		OPDEF	PNTMSG	[37B8!0B12!0]	;PRINT MESSAGE IMMEDIATE
   381		037040	000000		OPDEF	PNTMSF	[37B8!1B12!0]	;PRINT MESSAGE IMMEDIATE FORCED
   382		037100	000000		OPDEF	PSIXM	[37B8!2B12!0]	;PRINT SIXBIT'Z MSG IMMEDIATE
   383		037200	000000		OPDEF	PSIXMF	[37B8!4B12!0]	;PRINT SIXBIT'Z MSG IMM FORCED
   384		037000	000000		OPDEF	PNTCI	[37B8!0B12!0]	;PRINT CHARACTER IMMEDIATE
   385		037040	000000		OPDEF	PNTCIF	[37B8!1B12!0]	;PRINT CHARACTER IMMEDIATE FORCED
   386		037500	000000		OPDEF	PNTCHR	[37B8!12B12!0]	;PRINT CHARACTER
   387		037500	000001		OPDEF	PNTCHF	[37B8!12B12!1]	;PRINT CHARACTER FORCED
   388		037040	000000		OPDEF	PNT1	[37B8!1B12!0]	;PRINT ONE OCTAL DIGIT
   389		037040	000001		OPDEF	PNT1F	[37B8!1B12!1]	;PRINT 1 OCTAL DIGIT FORCED
   390		037100	000000		OPDEF	PNT2	[37B8!2B12!0]	;PRINT TWO OCTAL DIGITS
   391		037100	000001		OPDEF	PNT2F	[37B8!2B12!1]	;PRINT 2 OCTAL DIGITS FORCED
   392		037140	000000		OPDEF	PNT3	[37B8!3B12!0]	;PRINT THREE OCTAL DIGITS
   393		037140	000001		OPDEF	PNT3F	[37B8!3B12!1]	;PRINT THREE OCTAL DIGITS FORCED
   394		037200	000000		OPDEF	PNT4	[37B8!4B12!0]	;PRINT FOUR OCTAL DIGITS
   395		037200	000001		OPDEF	PNT4F	[37B8!4B12!1]	;PRINT FOUR OCTAL DIGITS FORCED
   396		037240	000000		OPDEF	PNT5	[37B8!5B12!0]	;PRINT FIVE OCTAL DIGITS
   397		037240	000001		OPDEF	PNT5F	[37B8!5B12!1]	;PRINT FIVE OCTAL DIGITS FORCED
   398		037300	000000		OPDEF	PNT6	[37B8!6B12!0]	;PRINT SIX OCTAL DIGITS
   399		037300	000001		OPDEF	PNT6F	[37B8!6B12!1]	;PRINT SIX OCTAL DIGITS FORCED
   400		037340	000000		OPDEF	PNT7	[37B8!7B12!0]	;PRINT 7 OCTAL DIGITS
   401		037340	000001		OPDEF	PNT7F	[37B8!7B12!1]	;PRINT 7 OCTAL DIGITS FORCED
   402		037440	000000		OPDEF	PNT11	[37B8!11B12!0]	;PRINT 11 OCTAL DIGITS
   403		037440	000001		OPDEF	PNT11F	[37B8!11B12!1]	;PRINT 11 OCTAL DIGITS FORCED.
   404		037400	000000		OPDEF	PNTADR	[37B8!10B12!0]	;PRINT PHYSICAL ADDRESS
   405		037400	000001		OPDEF	PNTADF	[37B8!10B12!1]	;PRINT PHYSICAL ADDRESS FORCED
   406		037600	000000		OPDEF	PNTOCT  [37B8!14B12!0]	;PRINT FULL WORD OCTAL
   407		037600	000001		OPDEF	PNTOTF	[37B8!14B12!1]	;PRINT FULL WORD OCTAL FORCED
   408		037540	000000		OPDEF	PNTHW	[37B8!13B12!0]	;PRINT OCTAL HALF WORDS, 6 SP 6
   409		037540	000001		OPDEF	PNTHWF	[37B8!13B12!1]	;PRINT OCTAL HALF WORDS, 6 SP 6 FORCED
   410		037700	000003		OPDEF	PNTOCS	[37B8!16B12!3]	;PRINT OCTAL, SUPPRESS LEADING 0'S
   411		037740	000003		OPDEF	PNTOCF	[37B8!17B12!3]	;PRINT OCTAL, SUPPRESS LEADING 0'S FORCED
   412		037640	000000		OPDEF	PNTDEC	[37B8!15B12!0]	;PRINT DECIMAL, SUPRESS LEADING 0'S
   413		037640	000001		OPDEF	PNTDCF	[37B8!15B12!1]	;PRINT DECIMAL, SUPRESS LEADING 0'S FORCED
   414		037700	000000		OPDEF	PNTDS	[37B8!16B12!0]	;PRINT DECIMAL, SPACES FOR LD 0'S
   415		037700	000001		OPDEF	PNTDSF	[37B8!16B12!1]	;PRINT DECIMAL, SPACES FOR LD 0'S FORCED
DSDUA DECSYSTEM 2020 DUP-11 DIAGNOSTIC VERSION 0,2	MACRO %53(1020) 08:16 15-Jun-79 Page 5
PARAM	KSM	28-Mar-78 11:27		PROGRAM/SUBROUTINE PARAMETERS                                                      SEQ 0049

   416		037200	000002		OPDEF	PNTNM	[37B8!4B12!2]	;PRINT PROGRAM NAME
   417		037000	000002		OPDEF	PNTSIX	[37B8!0B12!2]	;PRINT SIXBIT WORD
   418		037040	000002		OPDEF	PNTSXF	[37B8!1B12!2]	;PRINT SIXBIT WORD FORCED
   419		037240	000002		OPDEF	DROPDV	[37B8!5B12!2]	;CLOSE LOGICAL FILE, USER MODE
   420		037100	000002		OPDEF	PNTCW	[37B8!2B12!2]	;PRINT DF10 CONTROL WORD
   421		037140	000002		OPDEF	PNTCWF	[37B8!3B12!2]	;PRINT DF10 CONTROL WORD FORCED
   422		037000	030242		OPDEF	PCRL	[37B8!0B12!CRLF] ;PRINT CARRIAGE RETURN/LINE FEED
   423		037040	030242		OPDEF	PCRLF	[37B8!1B12!CRLF] ;PRINT CARRIAGE RETURN/LINE FEED FORCED
   424		037000	000040		OPDEF	PSP	[37B8!0B12!40]	;PRINT SPACE
   425		037040	000040		OPDEF	PSPF	[37B8!1B12!40]	;PRINT SPACE FORCED
   426		037000	030243		OPDEF	PCRL2	[37B8!0B12!CRLF2] ;PRINT CARRIAGE RETURN/LINE FEED (TWICE)
   427		037040	030243		OPDEF	PCRL2F	[37B8!1B12!CRLF2] ;PRINT CARRIAGE RETURN/LINE FEED (TWICE) FORCED
   428		037040	000007		OPDEF	PBELL	[37B8!1B12!7]	;PRINT TTY BELL
   429
   430		037040	000026		OPDEF	PFORCE	[37B8!1B12!26]	;PRINT FORCE, CONTROL O OVERRIDE
   431
   432					DEFINE	PMSG	(ARG),<
   433						PSIXM	[SIXBIT\ARG'_\]>
   434
   435					DEFINE	PMSGF	(ARG),<
   436						PSIXMF	[SIXBIT\ARG'_\]>
   437
   438					;*SIXBTZ -- MACRO TO GENERATE SIXBIT DATA FOR PRINTING
   439					;*	CONSERVES CORE OVER ASCIZ
   440
   441					DEFINE	SIXBTZ	(ARG),<	[SIXBIT\ARG'_\]>
   442
   443					;*CONSOLE SWITCH INPUT UUO.
   444					;*READS CONSOLE SWITCHES IF IN EXEC MODE OR ASKS FOR THEM IF
   445					;* USER MODE.
   446
   447		037400	000002		OPDEF	SWITCH	[37B8!10B12!2]	;INPUT CONSOLE SWITCHES
   448
   449					;*CLOCK INITIALIZATION UUO - TO SET DESIRED CLOCK OPERATION
   450					;*EITHER IGNORE CLOCK, ONLY LET IT TICK OR CAUSE INTERRUPT TO OCCUR.
   451
   452		037540	000004		OPDEF	CLOKOP	[37B8!13B12!4]	;CLOCK OPERATION UUO - CLOCK
   453		037200	000004		OPDEF	MTROP	[37B8!4B12!4]	;CLOCK OPERATION UUO - METER
   454
   455					;*KS-10 CACHE OPERATION UUO'S
   456
   457		037040	000004		OPDEF	CINVAL	[37B8!1B12!4]	;CACHE INVALIDATE
   458		037100	000004		OPDEF	CFLUSH	[37B8!2B12!4]	;CACHE FLUSH
   459		037140	000004		OPDEF	CWRTBI	[37B8!3B12!4]	;CACHE WRITE-BACK & INVALIDATE
DSDUA DECSYSTEM 2020 DUP-11 DIAGNOSTIC VERSION 0,2	MACRO %53(1020) 08:16 15-Jun-79 Page 6
PARAM	KSM	28-Mar-78 11:27		PROGRAM/SUBROUTINE PARAMETERS                                                      SEQ 0050

   460					;*END OF PASS/PROGRAM UUOS
   461
   462					;PERFORMS THE END OF PASS FUNCTIONS. INCREMENT PASS COUNT,
   463					;*DECREMENT ITERATION COUNT, CHECK IF FINISHED WITH THIS PROGRAM ETC.
   464
   465		037500	000004		OPDEF	ENDUUO	[37B8!12B12!4]	;UUO TO DISPLAY LIGHTS
   466		037700	000004		OPDEF	EOPUUO	[37B8!16B12!4]	;END OF PROGRAM UUO
   467
   468					;*MEMORY MANAGEMENT UUO'S
   469					;*UUO'S TO PERFORM VARIOUS MEMORY FUNCTIONS. MAPPING, ZEROING, PAGING,
   470					;*ADDRESS CONVERSION, ETC...
   471
   472		037000	000004		OPDEF	MAPMEM	[37B8!0B12!4]	;MAP MEMORY
   473		037500	000002		OPDEF	MEMZRO	[37B8!12B12!2]	;ZERO MEMORY
   474		037440	000002		OPDEF	MEMSEG	[37B8!11B12!2]	;SETUP MEMORY SEGMENT
   475		037540	000002		OPDEF	MAPADR	[37B8!13B12!2]	;VIRTUAL TO PHYSICAL ADR CONVERT
   476		037640	000002		OPDEF	MAPCNK	[37B8!15B12!2]	;MAP MEMORY CHUNK
   477		037600	000002		OPDEF	MAPSET	[37B8!14B12!2]	;SET KI10 EXEC PAGE MAP
   478		037740	000002		OPDEF	MAPPNT	[37B8!17B12!2]	;PRINT MEMORY MAP
   479
   480					;*DEVICE CODE MODIFICATION UUO
   481					;*ALLOWS THE MODIFICATION OF IOT'S TO ONE DEVICE TO BE CHANGED TO
   482					;*IOT'S TO A DIFFERENT DEVICE CODE.
   483
   484		037340	000002		OPDEF	MODPCU	[37B8!7B12!2]	;MODIFY PERHIPERAL CODE, USER
   485		037300	000002		OPDEF	MODPCP	[37B8!6B12!2]	;MODIFY PERHIPERAL CODE, PROGRAM
   486
   487			030000			IFNDEF	MODDVL,<MODDVL==BEGIN>
   488			030000			IFNDEF	MODDVU,<MODDVU==BEGIN>
   489
   490					;*"DIAMON" FILE SELECTION AND READ UUOS
   491
   492		037240	000004		OPDEF	FSELECT	[37B8!5B12!4]	;FILE SELECTION
   493		037300	000004		OPDEF	FREAD	[37B8!6B12!4]	;FILE READ - ASCII DATA
   494		037340	000004		OPDEF	FRD36	[37B8!7B12!4]	;FILE READ - 36 BIT DATA
   495		037400	000004		OPDEF	FRD8	[37B8!10B12!4]	;FILE READ - 8 BIT DATA
   496
   497						XLIST
   498					IFNDEF	EROLD,<LIST
DSDUA DECSYSTEM 2020 DUP-11 DIAGNOSTIC VERSION 0,2	MACRO %53(1020) 08:16 15-Jun-79 Page 7
PARAM	KSM	28-Mar-78 11:27		ERROR HANDLING UUO DEFINITIONS                                                     SEQ 0051

   499					SUBTTL	ERROR HANDLING UUO DEFINITIONS
   500
   501					S^;*********************************************************************^
   502					;*ERROR HANDLER PARAMETERS
   503					S^;*********************************************************************^
   504
   505		036000	000000		OPDEF	ERUUO	[36B8]		;ERROR CALL UUO
   506		035000	000000		OPDEF	ERLOOP	[35B8]		;ERROR LOOP, CHECKS PC,REPT,REPT1,ERROR
   507		035040	000000		OPDEF	ERLP1	[35B8!1B12]	;ERROR LOOP IF PC'S MATCH
   508		035100	000000		OPDEF	ERLP2	[35B8!2B12]	;ERROR LOOP IF ANY ERROR
   509		034000	000000		OPDEF	REPTUO	[34B8]		;REPEAT LOOP UUO
   510
   511					;*THE ERROR HANDLER MACROS
   512
   513					;*A MACRO TO REPORT AN ERROR AND LOOP
   514
   515						DEFINE	ERROR	(ADR,FORMAT,CORECT,ACTUAL,F,D,ERR)<
   516												SALL
   517						ERUUO	FORMAT,[T,,[SIXBIT\F'_\]
   518							   CORECT,,ACTUAL
   519							   [SIXBIT\D'_\],,ERR]
   520												XALL
   521						ERLOOP	ADR		;IF ERROR, LOOP TO ADR
   522					>
   523
   524					;*A MACRO TO REPORT AN ERROR AND NOT LOOP
   525
   526						DEFINE	ERROR1	(FORMAT,CORECT,ACTUAL,F,D,ERR)<
   527												SALL
   528						ERUUO	FORMAT,[T,,[SIXBIT\F'_\]
   529							   CORECT,,ACTUAL
   530							   [SIXBIT\D'_\],,ERR]
   531												XALL>
   532
   533					>;END OF EROLD CONDITIONAL
   534
   535						XLIST
   536						LIST
DSDUA DECSYSTEM 2020 DUP-11 DIAGNOSTIC VERSION 0,2	MACRO %53(1020) 08:16 15-Jun-79 Page 1
FIXED	KSM	28-Mar-78 11:28		*FIXED* FIXED CONTROL AND DISPATCH STORAGE, MARCH 1978                             SEQ 0052

   537					SUBTTL	*FIXED* FIXED CONTROL AND DISPATCH STORAGE, MARCH 1978
   538
   539	030000					LOC	30000
   540
   541					S^;*********************************************************************^
   542					;*PROGRAM STARTING ADDRESSES
   543					;*THESE ADDRESSES CALL VARIOUS SPECIAL START ROUTINES AND OR OPTIONS
   544					;*NORMAL START ADDRESS IS 30000 ALL OTHERS ARE SPECIAL. INVOKED BECAUSE
   545					;*OF END OF PASS, POWER FAILURE, DDT START, RE-ENTERING(TYPICALLY USER
   546					;*MODE), OR ANY NUMBER OF SPECIAL FEATURE TESTS.
   547					S^;*********************************************************************^
   548
   549	030000	254 00 1 00 027776 	BEGIN:	JRST	@MODLNK		;STAND-ALONE START
   550	030001	254 00 0 00 030613 	$START:	JRST	START		;MODE CHECK STARTING ADDRESS
   551
   552	030002	254 00 1 00 027774 	DIAGMN:	JRST	@LDLNK		;DIAGNOSTIC MONITOR START
   553
   554	030003	254 00 1 00 027774 	SYSEXR:	JRST	@LDLNK		;SYSTEM EXERCISER START
   555
   556	030004	254 00 0 00 030000 	SFSTRT:	JRST	SADR1		;SPECIAL FEATURE START
   557
   558	030005	254 00 0 00 030000 	PFSTRT:	JRST	SADR2		;POWER FAIL RESTART
   559
   560	030006	254 00 0 00 030600 	REENTR:	JRST	SADR3		;REENTER START(USUALLY USER MODE ONLY)
   561
   562	030007				SRTDDT:				;COMMONLY MISTAKEN NAME FOR "DDTSRT"
   563	030007	254 00 1 00 027775 	DDTSRT:	JRST	@DDTLNK		;DDT START
   564
   565	030010	254 00 0 00 031052 	BEGIN1:	JRST	STARTA		;LOOP START(END OF PASS COMES HERE)
   566	030011	254 00 1 00 027777 	SBINIT:	JRST	@SUBLNK		;PMGINT LINKAGE
   567	030012	000000	000000		RETURN:	0			;RETURN ADDRESS STORAGE
   568
   569	030013	254200	030000		START1:	SADR7			;OPTIONAL STARTING ADR/INSTRUCTIONS
   570	030014	254200	030000		START2:	SADR8			; "
   571	030015	254200	030000		START3:	SADR9			; "
   572	030016	254200	030000		START4:	SADR10			; "
   573	030017	254200	030000		START5:	SADR11			; "
DSDUA DECSYSTEM 2020 DUP-11 DIAGNOSTIC VERSION 0,2	MACRO %53(1020) 08:16 15-Jun-79 Page 2
FIXED	KSM	28-Mar-78 11:28		*FIXED* FIXED CONTROL AND DISPATCH STORAGE, MARCH 1978                             SEQ 0053

   574					S^;*********************************************************************^
   575					;*PROGRAM FIXED PARAMETER AREA
   576					S^;*********************************************************************^
   577
   578	030020	446344	654100		PNTNAM:	PAREA3		;SIXBIT PROGRAM NAME
   579	030021	605664	000000		PNTEXT:	PAREA4		;SIXBIT PROGRAM EXTENSION
   580	030022	000000	000000		RANDBS:	PAREA1		;RANDOM BASE NUMBER
   581	030023	000000	000017		SWTEXR:	PAREA2		;SYSTEM EXERCISER SWITCHES
   582	030024	000000	000001		ITRCNT:	ITERAT		;PROGRAM ITERATIONS
   583	030025	000000	030602		$PNAME:	PGMNAM		;POINTER TO PROGRAMS NAME
   584	030026	000000	000002		$PVER:	MCNVER,,DECVER	;MCN & DEC VERSION LEVEL
   585	030027	000000	030000		$MODVL:	MODDVL		;DEVICE CODE CHANGE LOWER LIMIT
   586	030030	000000	030000		$MODVU:	MODDVU		;DEVICE CODE CHANGE UPPER LIMIT
   587	030031	777777	777777		$EMODE:	IFNDEF EXCASB,<0> IFDEF EXCASB,<-1>	;EXEC ALLOWED
   588	030032	000000	000000		$UMODE:	IFNDEF USRASB,<0> IFDEF USRASB,<-1>	;USER ALLOWED
   589	030033	000000	000000		$DSKUP:	IFNDEF DSKUPD,<0> IFDEF DSKUPD,<-1>	;DISK UPDATE MODE
   590	030034	000000	000000		$MMAP:	IFNDEF MEMMAP,<0> IFDEF MEMMAP,<-1>	;ALLOW MEMORY RTNS
   591	030035	000000	000000		PAREA7:	PAREA5		;OPTIONAL PARAMETER
   592	030036	000000	000000		PAREA8:	PAREA6		;OPTIONAL PARAMETER
   593
   594					S^;*********************************************************************^
   595					;*PROGRAM VARIABLE PARAMETER AREA
   596					S^;*********************************************************************^
   597
   598	030037	000000	000000		USER:	0		; 0 = EXEC, -1 = USER MODE FLAG
   599	030040	000000	000000		KAIFLG:	0		;PROCESSOR TYPE, 0 = KA10, -1 = KI10
   600	030041	000000	000000		KLFLG:	0		;PROCESSOR TYPE, 0 = KA/KI, -1 = KL10
   601	030042	777777	777777		MONFLG:	-1		;DIAG MONITOR SPECIAL USER FLAG
   602	030043	000000	000000		MONCTL:	0		;DIAG MON/SYS EXR FLAG
   603	030044	000000	000000		MONTEN:	0		;-1= LOADED BY 10
   604	030045	000000	000000		CLOCKF:	0		;CLOCK TICKED FLAG
   605	030046	000000	000000		CONSW:	0		;CONSOLE SWITCH SETTINGS
   606	030047	000000	000000		PASCNT:	0		;PROGRAM PASS COUNT
   607	030050	000000	000000		RUNFLG:	0		;PROGRAM RUN FLAG
   608	030051	000000	000000		TESTPC:	0		;SUBTEST PC
   609	030052	000000	000000		ERRPC:	0		;ERROR PC
   610	030053	000000	000000		ERRTLS:	0		;ERROR TOTALS
   611	030054	000000	000000		TICKS:	0		;PROGRAM RUNNING TIME
   612	030055	000000	000000		MARGIN:	0		;KI10 MARGIN WORD VALUE
   613	030056	000000	000000		$ONETM:	0		;SUBROUTINE INITIALIZATION FLAG
DSDUA DECSYSTEM 2020 DUP-11 DIAGNOSTIC VERSION 0,2	MACRO %53(1020) 08:16 15-Jun-79 Page 3
FIXED	KSM	28-Mar-78 11:28		*FIXED* FIXED CONTROL AND DISPATCH STORAGE, MARCH 1978                             SEQ 0054

   614					S^;*********************************************************************^
   615					;*SPECIAL PROGRAM DISPATCH ADDRESSES
   616					S^;*********************************************************************^
   617
   618	030057	037 12 0 00 000004 	BEGEND:	ENDUUO		;END OF PASS
   619	030060	254 00 0 00 030010 	$BEND1:	JRST	BEGIN1	;KEEP RUNNING PROGRAM
   620	030061	037 16 0 00 000004 	$BEND2:	EOPUUO		;END OF PROGRAM - NO RETURN
   621	030062	000000	030061		CNTLC:	SADR5		;CONTROL C XFER ADDRESS
   622	030063	000000	030007		ALTMGO:	SADR6		;ALTMODE XFER ADDRESS
   623	030064				CPOPJ1:			;SKIP RETURN
   624	030064	350 00 0 17 000000 	UUOSKP:	AOS	(P)	;SKIP RETURN FROM UUO
   625	030065				CPOPJ:			;NON-SKIP REGULAR RETURN
   626	030065	263 17 0 00 000000 	UUOEXT:	RTN		;UUO RETURN
   627	030066	255 00 0 00 000000 	UUORTN:	JFCL		;ADDITIONAL USERS UUO ROUTINE
   628	030067	255 00 0 00 000000 	$UORTX:	JFCL		;ADDITIONAL UUO LINKAGE
   629	030070	255 00 0 00 000000 	$UUOER:	JFCL		;INITED AS (JRST $UOERX)
   630	030071	255 00 0 00 000000 	$ITRHL:	JFCL		;ADDITIONAL INTERRUPT LINKAGE
   631	030072	255 00 0 00 000000 	$ITRX1:	JFCL		; "
   632	030073	255 00 0 00 000000 	$USRHL:	JFCL		; "
   633	030074	255 00 0 00 000000 	$RSRTX:	JFCL		;ADDITIONAL POWER FAIL LINKAGE
   634	030075	255 00 0 00 000000 	$RSRTY:	JFCL		; "
   635	030076	255 00 0 00 000000 	RESRT1:	JFCL		; INITED AS (JRST RESRTX)
   636	030077	255 00 0 00 000000 	RESRT2:	JFCL		; "
   637	030100	255 00 0 00 000000 	$PARER:	JFCL		;ADDITIONAL PARITY ERROR LINKAGE
   638	030101	255 00 0 00 000000 	ERMORE:	JFCL		;ADDITIONAL ERROR HANDLER LINKAGE
   639	030102	254 04 0 00 030102 		HALT	.	;IMPROPER TRANSFER HALT
   640
   641	030103	000000	000000		$PSHER:	0		;INITED AS (JRST PSHERR)
   642	030104	000000	000000		ITRCH1:	0		;PC & FLAGS OF CURRENT INTERRUPT
   643	030105	000000	000000			0		;INITED AS (JRST $ITRC1)
   644
   645					S^;*********************************************************************^
   646					;*PROCESSOR CONTROL STORAGE
   647					S^;*********************************************************************^
   648
   649	030106	000000	000000		$ACC0:	0		;INTERRUPT SAVED AC0
   650	030107	000000	000000		$SVPI:	0		;INTERRUPT SAVED PI
   651	030110	000000	000000		$SVAPR:	0		;INTERRUPT SAVED APR
   652	030111	000000	000000		$SVPAG:	0		;INTERRUPT SAVED PAG (DATAI)
   653	030112	000000	000000		$SPAG1:	0		;INTERRUPT SAVED PAG (CONI)
   654
   655	030113	000000	000000		$SVUUO:	0		;CURRENT USERS UUO
   656	030114	000000	000000		$SVUPC:	0		;PC OF CURRENT USERS UUO
   657
   658	030115	000000	000000		REPTU:	0		;REPEAT UUO ITERATIONS
   659	030116	000000	000000		SCOPE:	0		;ERROR HANDLER SCOPE LOOP FLAG
   660	030117	000000	000000		%CORFLG:0		; " CORRECT FLAG
   661	030120	000000	000000		%COREC:	0		; " CORRECT DATA
   662	030121	000000	000000		%ACTFL:	0		; " ACTUAL FLAG
   663	030122	000000	000000		%ACTUL:	0		; " ACTUAL DATA
   664	030123	000000	000000		%DISCR:	0		; " DISCREPENCY DATA
DSDUA DECSYSTEM 2020 DUP-11 DIAGNOSTIC VERSION 0,2	MACRO %53(1020) 08:16 15-Jun-79 Page 4
FIXED	KSM	28-Mar-78 11:28		*FIXED* FIXED CONTROL AND DISPATCH STORAGE, MARCH 1978                             SEQ 0055

   665					S^;*********************************************************************^
   666					;*UUO DISPATCH TABLE
   667					S^;*********************************************************************^
   668						XLIST
   669						LIST
   670	030124	030070	030070		UUODIS:	LUUO1,,$UUOER
   671	030125	030070	030070			LUUO3,,LUUO2
   672	030126	030070	030070			LUUO5,,LUUO4
   673	030127	030070	030070			LUUO7,,LUUO6
   674	030130	030070	030070			LUUO11,,LUUO10
   675	030131	030070	030070			LUUO13,,LUUO12
   676	030132	030070	030070			LUUO15,,LUUO14
   677	030133	030070	030070			LUUO17,,LUUO16
   678	030134	030070	030070			LUUO21,,LUUO20
   679	030135	030070	030070			LUUO23,,LUUO22
   680	030136	030070	030070			LUUO25,,LUUO24
   681	030137	030070	030070			LUUO27,,LUUO26
   682	030140	030070	030070			LUUO31,,LUUO30
   683	030141	030070	030070			LUUO33,,LUUO32
   684
   685					S^;*********************************************************************^
   686					;*MEMORY MANAGMENT STORAGE
   687					S^;*********************************************************************^
   688
   689	030142	000000	000000		DF22F:	0		;DF10 CONTROL FLAG, 0 = 18, -1 = 22 BIT
   690	030143	000000	000000		MAPNEW:	0		;MEMORY MAPPING CONTROL FLAG, -1 = 4096K MAPPING
   691	030144	000000	000000		MEMTOT:	0		;TOTAL MEMORY SIZE IN K (1024.)
   692	030145	000000	000000		MEMLOW:	0		;LOWEST USABLE MEMORY
   693	030146				MEMSIZ:	BLOCK ^D41	;MEMORY SEGMENT POINTER TABLE
   694
   695					S^;*********************************************************************^
   696					;*PRINT CONTROL STORAGE
   697					S^;*********************************************************************^
   698
   699	030217	000000	000000		PNTFLG:	0		;PRINT FLAG, -1 WHILE IN PRINT ROUTINE
   700	030220	000000	000000		PNTENB:	0		;PRINT ENABLE
   701	030221	000000	000000		PDISF:	0		;PRINT DISABLED FLAG
   702	030222	000000	000000		PNTINH:	0		;INHIBIT PRINT INPUT CHECKS
   703	030223	000000	000000		PNTSPC:	0		;PRINT SPACE CONTROL
   704	030224	000000	000000		OPTIME:	0		;TYPE-IN WAIT TIME
   705	030225	000000	000000		$TWCNT:	0		;TIME WAITED
   706	030226	000000	000000		$DVOFF:	0		;LOGICAL DEVICE INITED FLAG
   707	030227	000000	000000		TTYFIL:	0		;TTY EXEC FILLERS FLAG
   708	030230	000000	000000		TTYSPD:	0		;TTY EXEC BAUD RATE
   709	030231	000000	000000		$TTCHR:	0		;ACTUAL TYPED IN CHAR
   710	030232	000000	000000		$CHRIN:	0		;UPPER CASED & PARITY STRIPPED CHAR
   711	030233	000000	000000		$TYPNB:	0		;TYPED IN NUMBER
   712	030234	000000	000000		$CRLF:	0		;FREE CR/LF FLAG
   713	030235	000000	000000		$TABF:	0		;TAB CONVERSION FLAG
   714	030236	000000	000000		$FFF:	0		;FORM FEED CONVERSION FLAG
   715	030237	000000	000000		$VTF:	0		;VERTICAL TAB CONVERSION FLAG
   716	030240	000000	000000		USRLFF:	0		;USER LF FILLERS
   717	030241	000000	000000		USRCRF:	0		;USER CR FILLERS
DSDUA DECSYSTEM 2020 DUP-11 DIAGNOSTIC VERSION 0,2	MACRO %53(1020) 08:16 15-Jun-79 Page 5
FIXED	KSM	28-Mar-78 11:28		*FIXED* FIXED CONTROL AND DISPATCH STORAGE, MARCH 1978                             SEQ 0056

   718					S^;*********************************************************************^
   719					;*THE FOLLOWING MISCELLANEOUS PRINT CHARACTERS ARE INCLUDED
   720					;*TO FACILITATE PRINTING AND ARE CALLED AS FOLLOWS:
   721					;*	MOVEI	NAME
   722					;*	PNTA		;OR PNTAF
   723					S^;*********************************************************************^
   724
   725	030242				CRLF:	ASCII/
   726	030242	015 012 000 000 000 	/
   727	030243				CRLF2:	ASCII/
   728
   729	030243	015 012 015 012 000 	/
   730	030244	054 000 000 000 000 	COMMA:	ASCII/,/
   731	030245	056 000 000 000 000 	PERIOD:	ASCII/./
   732	030246	040 000 000 000 000 	SPACE:	ASCII/ /
   733	030247	011 000 000 000 000 	TAB:	ASCII/	/
   734	030250				MINUS:
   735	030250	055 000 000 000 000 	HYPEN:	ASCII/-/
   736	030251	053 000 000 000 000 	PLUS:	ASCII/+/
   737	030252	052 000 000 000 000 	AST:	ASCII/*/
   738	030253	100 000 000 000 000 	ATSIN:	ASCII/@/
   739	030254	050 000 000 000 000 	LFP:	ASCII/(/
   740	030255	051 000 000 000 000 	RTP:	ASCII/)/
   741	030256	007 0000000000 		BELL:	BYTE (7) 007
   742	030257	077 000 000 000 000 	QUEST:	ASCII/?/
   743	030260	057 000 000 000 000 	SLASH:	ASCII!/!
   744	030261	044 000 000 000 000 	DOLLAR:	ASCII/$/
   745	030262	000000	000012		RADIX:	^D10			;DECIMAL PRINT RADIX
   746	030263	000000	000040		RADLSP:	40			;DECIMAL PRINT LEADING CHAR
   747	030264	000000	000012		RADLSC:	^D10			;DECIMAL PRINT LEADING CHAR COUNT
   748
   749					S^;*********************************************************************^
   750					;*USER MODE OUTPUT FILE INFORMATION
   751					S^;*********************************************************************^
   752
   753	030265				$OBUF:	BLOCK	3		;LOGICAL FILE OUTPUT BUFFER HEADER
   754	030270	60 62 51 56 64 00 	$OUTNM:	SIXBIT	/PRINT/		;FILE NAME
   755	030271	60 56 64 00 00 00 	$OUTEX:	SIXBIT	/PNT/		;FILE NAME EXTENSION
   756	030272					BLOCK	2
   757
   758					S^;*********************************************************************^
   759					;*DISK UPDATE MODE FILE INFORMATION
   760					S^;*********************************************************************^
   761
   762	030274				$IBUF:	BLOCK	3
   763	030277	60 62 51 56 64 00 	$INNM:	SIXBIT	/PRINT/
   764	030300	60 56 64 00 00 00 	$INEXT:	SIXBIT	/PNT/
   765	030301					BLOCK	2
DSDUA DECSYSTEM 2020 DUP-11 DIAGNOSTIC VERSION 0,2	MACRO %53(1020) 08:16 15-Jun-79 Page 6
FIXED	KSM	28-Mar-78 11:28		*FIXED* FIXED CONTROL AND DISPATCH STORAGE, MARCH 1978                             SEQ 0057

   766					S^;*********************************************************************^
   767					;*PUSHDOWN LIST CONTROL INFORMATION
   768					S^;*********************************************************************^
   769
   770	030303	777577	030303		PLIST:	PLIST-PLISTE,,PLIST
   771	030304				PLISTS:	BLOCK	200
   772	030504	000000	000000		PLISTE:	0		;END OF PUSHDOWN LIST
   773
   774					S^;*********************************************************************^
   775					;*POWER LINE CLOCK FREQUENCY FLAG
   776					S^;*********************************************************************^
   777
   778	030505	000000	000000		CYCL60:	0	;0 = 60, -1 = 50 CYCLE
   779
   780					S^;*********************************************************************^
   781					;*KL10 CACHE CONTROL FLAGS
   782					S^;*********************************************************************^
   783
   784	030506	000000	000000		CSHFLG:	0	;ALLOW CACHE IF 0
   785	030507	000000	000000		CSHMEM:	0	;CACHE MEMORY SEGMENTS IF 0
   786
   787					S^;*********************************************************************^
   788					;*NUMBER INPUT DIGIT FLAG
   789					S^;*********************************************************************^
   790
   791	030510	000000	000000		TTNBRF:	0	;-1 IF ANY DIGIT TYPED
   792
   793					S^;*********************************************************************^
   794					;*KL10 & KI10 "INHPAG" SWITCH PAGING PREVENTION
   795					S^;*********************************************************************^
   796
   797	030511	000000	000000		PVPAGI:	0	;IF NON-ZERO, OVERRIDE "INHPAG" SWITCH ACTION
   798
   799					S^;*********************************************************************^
   800					;*ERROR REPORTING ROUTINE ADDITIONAL USERS CONTROL INSTRUCTIONS
   801					S^;*********************************************************************^
   802
   803	030512	000000	000000		%ERHI1:	0	;IF NON-ZERO, XCT'D AT START OF %ERUUO
   804	030513	000000	000000		%ERHI2:	0	;IF NON-ZERO, XCT'D AT END OF %ERUUO
   805	030514	000000	000000		%ERHI3:	0	;IF NON-ZERO, XCT'D AFTER "PC" OF %ERUUO
   806
   807					S^;*********************************************************************^
   808					;*SPECIAL USERS UUO INTERCEPT INSTRUCTION
   809					S^;*********************************************************************^
   810
   811	030515	000000	000000		$$UUO:	0	;IF NON-ZERO, XCT'D AT START OF $UORTN
DSDUA DECSYSTEM 2020 DUP-11 DIAGNOSTIC VERSION 0,2	MACRO %53(1020) 08:16 15-Jun-79 Page 7
FIXED	KSM	28-Mar-78 11:28		*FIXED* FIXED CONTROL AND DISPATCH STORAGE, MARCH 1978                             SEQ 0058

   812					S^;*********************************************************************^
   813					;*USER MODE MONITOR TYPE FLAG
   814					S^;*********************************************************************^
   815
   816	030516	000000	000000		MONTYP:	0	;0 = TOPS10, -1 = TOPS20
   817
   818					S^;*********************************************************************^
   819					;*SPECIAL USERS MUUO INTERCEPT INSTRUCTION
   820					S^;*********************************************************************^
   821
   822	030517	000000	000000		$$MUUO:	0	;IF NON-ZERO, XCT'D AT START OF MUUOER
   823
   824					S^;*********************************************************************^
   825					;*SPECIAL USERS USER MODE OUTPUT ERROR INTERCEPT INSTUCTION
   826					S^;*********************************************************************^
   827
   828	030520	000000	000000		$$OUTER:0	;IF NON-ZERO, XCT'D AT END OF USER MODE ERROR
   829
   830					S^;*********************************************************************^
   831					;*"SWITCH" CALL USAGE CONTROL
   832					S^;*********************************************************************^
   833
   834	030521	000000	000000		$$TOGGLE:0	;IF NON-ZERO, USE C(CONSW) FOR SWITCHES
   835
   836					S^;*********************************************************************^
   837					;*SPECIAL USERS ALTMODE SWITCH CALL INTERCEPT INSTRUCTIONS
   838					S^;*********************************************************************^
   839
   840	030522	000000	000000		$$TAX1:	0	;IF NON-ZERO, XCT'D AT START OF ALTMODE SWITCH CALL
   841	030523	000000	000000		$$TAX2:	0	;IF NON-ZERO, XCT'D AT END OF ALTMODE SWITCH CALL
   842
   843					S^;*********************************************************************^
   844					;*SM10 (KS-10) PROCESSOR TYPE FLAG
   845					S^;*********************************************************************^
   846
   847	030524	000000	000000		SM10:	0	;IF -1 THIS IS AN KS-10
   848
   849					S^;*********************************************************************^
   850					;*RIGHT HALF SWITCHES PROMPT TABLE ADDRESS
   851					S^;*********************************************************************^
   852
   853	030525	000000	000000		SWPTAB:	0	;0 = NO PROMPT, ADR = ADR OF SIXBIT PROMPT TABLE
   854
   855					S^;*********************************************************************^
   856					;*SPECIAL FUTURE EXPANSION ROOM
   857					S^;*********************************************************************^
   858
   859					S^;*********************************************************************^
   860					;*END OF FIXED STORAGE
   861					S^;*********************************************************************^
   862
   863	030577					LOC	30577
   864	030577	000000	000000		ENDFIX:	0		;END OF FIXED STORAGE
DSDUA DECSYSTEM 2020 DUP-11 DIAGNOSTIC VERSION 0,2	MACRO %53(1020) 08:16 15-Jun-79 Page 1
DSDUAM	MAC	14-Jun-79 16:28		*FIXED* FIXED CONTROL AND DISPATCH STORAGE, MARCH 1978                             SEQ 0059

   865					S^;*********************************************************************^
   866						SUBTTL	BIT SYNCHRONOUS INTERFACE  DIAGNOSTIC-INITIALIZE ROUTINE
   867					S^;*********************************************************************^
   868	030600	037 05 0 00 000002 	EXITS:	DROPDV				;CLOSE LOGICAL OUTPUT FILE
   869	030601	047 00 0 00 000012 		EXIT
   870
   871
   872	030602				PGMNAM:	ASCIZ	/
   873	030602	015 012 104 123 104 	DSDUA DECSYSTEM 2020 DUP-11 DIAGNOSTICS
   874	030603	125 101 040 104 105
   875	030604	103 123 131 123 124
   876	030605	105 115 040 062 060
   877	030606	062 060 040 104 125
   878	030607	120 055 061 061 040
   879	030610	104 111 101 107 116
   880	030611	117 123 124 111 103
   881	030612	123 015 012 000 000 	/
   882
   883
   884					;INITIALIZE ROUTINE
   885
   886	030613	402 00 0 00 043546 	START:	SETZM	ONCE#			;CLEAR INITIALIZATION FLAG
   887	030614	402 00 0 00 041017 		SETZM	MMFLG			;CLEAR MAINT MODE HELP FLAG
   888	030615	402 00 0 00 043541 		SETZM	EXTBIT#			;CLEAR EXTENDED BIT FLAG
   889	030616	402 00 0 00 043547 		SETZM	PCNTX#			;INIT PASS COUNT
   890	030617	201 00 0 00 042224 		MOVEI	0,HELP			;GET PROMPT TABLE ADDRESS
   891	030620	202 00 0 00 030525 		MOVEM	0,SWPTAB		;STOR IT FOR SMSUB
   892	030621	265 00 0 00 030011 		PGMINT				;PROGRAM INITIALIZATION
   893	030622	571 00 0 00 777766 		HRREI	0,-^D10			;SET LOOP COUNT
   894	030623	202 00 0 00 043540 		MOVEM	0,ERRLOP#		;TO -10.
   895	030624	402 00 0 00 043545 		SETZM	JCONF#			;DUP11 JUMPER CONFIG FLAG
   896	030625	402 00 0 00 043543 		SETZM	H325F#			;H325 JUMPER CONNECTOR FLAG
   897	030626	402 00 0 00 043551 		SETZM	STATDU#			;MAP DUP STATUS FLAG
   898	030627	402 00 0 00 043536 		SETZM	BEGTST#			;CLEAR BEGTST
   899	030630	403 12 0 00 043537 		SETZB	IRPTAC,ENDTST#		;CLEAR "INTERRUPT" FLAG AND ENDTST
   900	030631	403 14 0 00 000016 		SETZB	PRTOUT-1,PRTOUT+1
   901	030632	332 00 0 00 043546 		SKIPE	ONCE			;SKIP IF SYSTEM IDENTIFICATION
   902										;QUESTIONS HAVEN'T BEEN ANSWERED
   903	030633	254 00 0 00 030701 		JRST	GETSWT			;SKIP THE DIALOGUE
   904	030634	201 03 0 00 760300 		MOVEI	3,760300		;GET DEFAULT DUP BASE ADDRESS
   905	030635	505 03 0 00 000003 		HRLI	3,3			;ADD DEFAULT UBA ADDRESS
   906	030636	202 03 0 00 043541 		MOVEM	3,EXTBIT		;STORE IT
   907	030637	201 03 0 00 000570 		MOVEI	3,570			;GET DEFAULT VECTOR ADDRESS
   908	030640	202 03 0 00 041224 		MOVEM	3,VECTOR		;STORE FOR DUP1
   909	030641	037 10 0 00 000002 		SWITCH
   910	030642	603 00 0 00 000040 		TLNE	MODDVC			;TEST MODIFY SWITCH?
   911	030643	260 17 0 00 040725 		GO 	MUBADR			;YES! GO GET PARAMETERS
   912
   913	030644	037 01 0 00 030242 		PCRLF
   914	030645	037 01 0 00 030242 		PCRLF
   915						MOVEI	0,[ASCIZ/'COMMAND MODE' IS INDICATED WHEN THE PROGRAM TYPES
   916					 AN "*" AT THE LEFT SIDE OF THE TERMINAL. TO RE-START
   917					THE ONCE ONLY DIALOG FROM 'COMMAND MODE' TYPE "&".
   918	030646	201 00 0 00 043555 	/]
   919	030647	037 17 0 00 000001 		PNTALF
DSDUA DECSYSTEM 2020 DUP-11 DIAGNOSTIC VERSION 0,2	MACRO %53(1020) 08:16 15-Jun-79 Page 2
DSDUAM	MAC	14-Jun-79 16:28		BIT SYNCHRONOUS INTERFACE  DIAGNOSTIC-INITIALIZE ROUTINE                           SEQ 0060

   920
   921	030650				STRTX:	MOVEI	0,[ASCIZ/
   922	030650	201 00 0 00 043615 	IS THE DUP-11 UNIT #1 OR #2 ?/]
   923	030651	037 17 0 00 000001 		PNTALF
   924	030652	037 03 0 00 000003 		TTIOCT
   925	030653	254 00 0 00 030652 		JRST	.-1
   926	030654	306 00 0 00 000001 		CAIN	0,1
   927	030655	254 00 0 00 030666 		JRST	STARTX
   928	030656	302 00 0 00 000002 		CAIE	0,2
   929	030657	254 00 0 00 030650 		JRST	STRTX
   930	030660	200 00 0 00 043541 		MOVE	0,EXTBIT
   931	030661	660 00 0 00 000010 		TRO	0,10			;SET BIT TO MODIFY DUP11 ADDRESSES
   932	030662	202 00 0 00 043541 		MOVEM	0,EXTBIT		;STOR IT BACK
   933	030663	200 00 0 00 041224 		MOVE	0,VECTOR		;GET VECTOR
   934	030664	271 00 0 00 000010 		ADDI	0,10			;CHANGE IT
   935	030665	202 00 0 00 041224 		MOVEM	VECTOR			;STOR IT
   936
   937	030666				STARTX:	MOVEI	[ASCIZ/
   938	030666	201 00 0 00 043624 	DO YOU WANT A MAP OF THE DUP-11 STATUS ?/]
   939	030667	037 17 0 00 000001 		PNTALF
   940	030670	037 01 0 00 000003 		TTIYES
   941	030671	254 00 0 00 030673 		JRST	SETFLG			;NO - JUMP TO REST OF DIALOGUE
   942	030672	476 00 0 00 043551 		SETOM	STATDU			;YES SET STATDU  FLAG
   943
   944
   945
   946
   947	030673	037 01 0 00 030242 	SETFLG:	PCRLF
   948	030674	201 00 0 00 043635 		MOVEI	[ASCIZ/IS THE H325 TURN AROUND CONNECTER IN PLACE ?/]
   949	030675	037 17 0 00 000001 		PNTALF
   950	030676	037 01 0 00 000003 		TTIYES				;Y=RTN+2, N=RTN+1
   951	030677	254 00 0 00 030703 		JRST	PUTCON			;N0 - TELL HIM THE BAD NEWS
   952	030700	476 00 0 00 043543 		SETOM	H325F			;SET FLAG CONNECTER IS ON
   953	030701	476 00 0 00 043546 	GETSWT:	SETOM	ONCE			;INDICATE THAT THE OPERATOR
   954										;HAS IDENTIFIED THE TYPE SYSTEM
   955	030702	254 00 0 00 030707 		JRST	ESTART			;NO-EXEC MODE
   956	030703				PUTCON:MOVEI	[ASCIZ/
   957					H325  CONNECTER SHOULD BE ON FOR THE DIAGNOSTICS TO BE STARTED
   958	030703	201 00 0 00 043646 	/]
   959	030704	037 17 0 00 000001 		PNTALF
   960	030705	037 01 0 00 030242 		PCRLF
   961
   962	030706	254 00 0 00 030613 		JRST	START
   963
   964
   965
   966
   967
DSDUA DECSYSTEM 2020 DUP-11 DIAGNOSTIC VERSION 0,2	MACRO %53(1020) 08:16 15-Jun-79 Page 3
DSDUAM	MAC	14-Jun-79 16:28		BIT SYNCHRONOUS INTERFACE  DIAGNOSTIC-INITIALIZE ROUTINE                           SEQ 0061

   968					D^;---------------------------------------------------------------------^
   969	030707	201 03 0 00 763100 	ESTART:	MOVEI	3,763100		;REG ADDRESS
   970	030710	500 03 0 00 043541 		HLL	3,EXTBIT		;ADD UNIBUS #
   971	030711	202 03 0 00 041221 		MOVEM	3,UASTAT		;STORE WHOLE ADDRESS
   972
   973	030712	201 03 0 00 763300 		MOVEI	3,763300
   974	030713	500 03 0 00 043541 		HLL	3,EXTBIT
   975	030714	202 03 0 00 041222 		MOVEM	3,UAMAIN
   976
   977	030715	201 03 0 00 763000 		MOVEI	3,763000
   978	030716	500 03 0 00 043541 		HLL	3,EXTBIT
   979	030717	202 03 0 00 041223 		MOVEM	3,UBADDR
   980
   981	030720	200 03 0 00 043541 		MOVE	3,EXTBIT
   982	030721	202 03 0 00 041227 		MOVEM	3,RXCSR
   983	030722	202 03 0 00 041230 		MOVEM	3,RXCSRL
   984
   985	030723	340 03 0 00 000000 		AOJ	3,
   986	030724	202 03 0 00 041231 		MOVEM	3,RXCSRH
   987
   988	030725	340 03 0 00 000000 		AOJ	3,
   989	030726	202 03 0 00 041232 		MOVEM	3,RXDBUF
   990	030727	202 03 0 00 041233 		MOVEM	3,PARCSR
   991
   992	030730	340 03 0 00 000000 		AOJ	3,
   993	030731	202 03 0 00 041234 		MOVEM	3,PARCSH
   994
   995	030732	340 03 0 00 000000 		AOJ	3,
   996	030733	202 03 0 00 041235 		MOVEM	3,TXCSR
   997	030734	202 03 0 00 041236 		MOVEM	3,TXCSRL
   998
   999	030735	340 03 0 00 000000 		AOJ	3,
  1000	030736	202 03 0 00 041237 		MOVEM	3,TXCSRH
  1001
  1002	030737	340 03 0 00 000000 		AOJ	3,
  1003	030740	202 03 0 00 041240 		MOVEM	3,TXDBUF
  1004	030741	202 03 0 00 041241 		MOVEM	3,TXDBUL
  1005
  1006	030742	340 03 0 00 000000 		AOJ	3,
  1007	030743	202 03 0 00 041242 		MOVEM	3,TXDBUH
  1008
  1009					;END OF REG INIT DEFINITIONS AND STORAGE
  1010
  1011	030744	200 00 0 00 043551 		MOVE	0,STATDU		;CHECK TO SEE IF STATUS MAP REQD.
  1012	030745	322 00 0 00 030747 		JUMPE	0,.+2			;NOT REQD.
  1013	030746	260 17 0 00 040476 		GO	MAPDU			;PRINT STATUS MAP!
  1014	030747	700 04 0 00 200000 		WRAPR	,IOCLR
  1015	030750	700 14 0 00 012377 		WRPI	,12377			;TURN ON PI SYSTEM
  1016
  1017	030751	264 00 0 00 040157 	SENDIT:	JSR	ISO
  1018	030752	254 00 0 00 030753 		JRST	ASTRSK-2
  1019
DSDUA DECSYSTEM 2020 DUP-11 DIAGNOSTIC VERSION 0,2	MACRO %53(1020) 08:16 15-Jun-79 Page 4
DSDUAM	MAC	14-Jun-79 16:28		BIT SYNCHRONOUS INTERFACE  DIAGNOSTIC-INITIALIZE ROUTINE                           SEQ 0062

  1020					;IN THIS SECTION WE ACCEPT OPERATOR COMMANDS
  1021					;AND DISPATCH THE PROGRAM TO THE TESTS
  1022					;SPECIFIED BY THE OPERATOR.
  1023
  1024						MOVEI	0,[ASCIZ/
  1025
  1026					TYPE ? TO GET FORMAT ON (TERMINAL), OR % TO GET SUMMARY OF CONTROLLER
  1027	030753	201 00 0 00 043664 	TESTS, (SEE TEXT FILE FOR CONTROL OF SUMMARY OUTPUT DEVICE SELECTION.)/]
  1028	030754	037 17 0 00 000001 	PRTMES:	PNTALF
  1029	030755	402 00 0 00 041017 	ASTRSK:	SETZM	MMFLG			;CLEAR MAINT MODE HELP FLAG
  1030	030756	037 01 0 00 030242 		PCRLF
  1031	030757	402 00 0 00 000012 		SETZM	IRPTAC
  1032	030760	400 14 0 00 000000 		SETZ	PRTOUT-1,		;CLEAR REST OF INPUT COMMAND
  1033	030761	201 00 0 00 030242 		MOVEI	0,CRLF			;PRINT CR-LF AND * ON TTY
  1034	030762	037 17 0 00 000001 		PNTALF
  1035	030763	201 00 0 00 030252 		MOVEI	0,AST
  1036	030764	037 00 0 00 000001 		PNTAF
  1037
  1038
  1039	030765	201 00 0 00 031025 	SETSW2:	MOVEI	0,COMNRC		; SET SW 2
  1040	030766	542 00 0 00 031024 		HRRM	0,SW2			; TO "- NOT R'CVD"
  1041
  1042	030767	037 00 0 00 000003 	EACCPT:	TTICHR				;INPUT A CHARACTER
  1043	030770	254 00 0 00 030767 		JRST	.-1
  1044	030771	200 15 0 00 000000 		MOVE	PRTOUT,0
  1045	030772	306 15 0 00 000040 	COMINP:	CAIN	PRTOUT," "
  1046	030773	254 00 0 00 030767 		JRST	EACCPT			;CHAR. IS A "SPACE", IGNORE IT
  1047	030774	302 15 0 00 000077 		CAIE	PRTOUT,077		;IS CHAR A "?"
  1048	030775	254 00 0 00 031001 		JRST	COMIN2			;NO KEEP CHECKING
  1049	030776	201 00 0 00 040031 		MOVEI	0,CORFRM		;YES MESSAGE
  1050	030777	037 17 0 00 000000 		PNTAL
  1051	031000	254 00 0 00 030755 		JRST	ASTRSK
  1052
  1053
  1054	031001	302 15 0 00 000045 	COMIN2:	CAIE	PRTOUT,"%"		;TEST FOR %
  1055	031002	254 00 0 00 031006 		JRST	COMIN3			;NO-CHECK FOR &
  1056	031003	201 00 0 00 042246 		MOVEI	0,TESTX			;GET TEXT FILE
  1057	031004	037 17 0 00 000000 		PNTAL				;GIVE IT TO HIM
  1058	031005	254 00 0 00 030755 		JRST	ASTRSK			;AND GONE.....
  1059
  1060
  1061	031006	302 15 0 00 000046 	COMIN3:	CAIE	PRTOUT,"&"		;TEST FOR &
  1062	031007	254 00 0 00 031012 		JRST	TREC			;NOT % - KEEP CHECKING
  1063	031010	402 00 0 00 043546 		SETZM	ONCE			;YES - GO TO ONCE ONLY AGAIN
  1064	031011	254 00 0 00 030613 		JRST	START			;BY JUMPINT TO START!
DSDUA DECSYSTEM 2020 DUP-11 DIAGNOSTIC VERSION 0,2	MACRO %53(1020) 08:16 15-Jun-79 Page 5
DSDUAM	MAC	14-Jun-79 16:28		BIT SYNCHRONOUS INTERFACE  DIAGNOSTIC-INITIALIZE ROUTINE                           SEQ 0063

  1065	031012	306 15 0 00 000015 	TREC:	CAIN	PRTOUT,15		;IS CHAR "CR"?
  1066	031013	254 00 0 00 031050 		JRST	CRSERV			;YES -SERVICE CR
  1067	031014	306 15 0 00 000055 		CAIN	PRTOUT,055		;IS CHAR "-"?
  1068	031015	254 00 0 00 031164 		JRST	SW2RES			;YES - RESET SW2 TO "-R'CVD"
  1069
  1070	031016	301 15 0 00 000060 	OCTDIG:	CAIL	PRTOUT,060		; IS CHAR.
  1071	031017	303 15 0 00 000067 		CAILE	PRTOUT,067		; AN OCTAL DIGIT?
  1072	031020	254 00 0 00 031030 		JRST	A.WRFR			;NO
  1073	031021	275 15 0 00 000060 		SUBI	PRTOUT,60		;FIND OCTAL DIGIT
  1074	031022	241 15 0 00 000041 		ROT	PRTOUT,41		;OCTAL DIGIT
  1075	031023	245 14 0 00 000003 		ROTC	PRTOUT-1,3		;INTO PRTOUT-1
  1076
  1077	031024	254 00 0 00 031025 	SW2:	JRST	COMNRC			;SW2 INTITIALLY = "- NOT R'CVD"
  1078
  1079	031025	202 14 0 00 043536 	COMNRC:	MOVEM	PRTOUT-1,BEGTST		;DIGIT=BEGINNING TST
  1080	031026	202 14 0 00 043537 	COMREC:	MOVEM	PRTOUT-1,ENDTST		;DIGIT=ENDING TST
  1081	031027	254 00 0 00 030767 		JRST	EACCPT
  1082
  1083
  1084	031030	306 15 0 00 000141 	A.WRFR:	CAIN	PRTOUT,141		;IS CHAR. LOWER CASE "A"?
  1085	031031	254 00 0 00 031034 		JRST	.+3			;YES
  1086	031032	306 15 0 00 000101 		CAIN	PRTOUT,"A"		;IS CHAR. AN "A"?
  1087	031033	254 00 0 00 031042 		JRST	EBEG
  1088	031034	306 15 0 00 000104 		CAIN	PRTOUT,"D"		;IS IT A "D" ?
  1089	031035	254 00 0 00 030755 		JRST	ASTRSK			;CANT DO THIS ON DUP-11
  1090	031036	254 00 0 00 031045 		JRST	WRGFRM			;NO
  1091	031037	201 00 0 00 000000 	ALLEND:	MOVEI	0,0
  1092	031040	202 00 0 00 043537 		MOVEM	0,ENDTST
  1093	031041	254 00 0 00 030767 		JRST	EACCPT
  1094
  1095	031042	201 00 0 00 000001 	EBEG:	MOVEI	0,1
  1096	031043	202 00 0 00 043536 		MOVEM	BEGTST
  1097	031044	254 00 0 00 031037 		JRST	ALLEND
  1098
  1099	031045	201 00 0 00 040014 	WRGFRM:	MOVEI	0,WRFORM		;S.A. OF MSG=WRFORM
  1100	031046	037 17 0 00 000001 		PNTALF
  1101	031047	254 00 0 00 030755 		JRST	ASTRSK
  1102
  1103
  1104	031050	400 15 0 00 000014 	CRSERV:	SETZ	PRTOUT,PRTOUT-1
  1105	031051	254 00 0 00 031052 		JRST	STARTA
DSDUA DECSYSTEM 2020 DUP-11 DIAGNOSTIC VERSION 0,2	MACRO %53(1020) 08:16 15-Jun-79 Page 6
DSDUAM	MAC	14-Jun-79 16:28		BIT SYNCHRONOUS INTERFACE  DIAGNOSTIC-INITIALIZE ROUTINE                           SEQ 0064

  1106					S^;*********************************************************************^
  1107						SUBTTL	DISPATCH TABLE AND RELATED ROUTINES
  1108					S^;*********************************************************************^
  1109
  1110	031052	402 00 0 00 041017 	STARTA:	SETZM	MMFLG			;CLEAR MAINT MODE HELP FLG
  1111	031053	200 01 0 00 043536 		MOVE	1,BEGTST		;GO TO THE RIGHT ADDR
  1112	031054	303 01 0 00 000075 		CAILE	1,75			;*JMP IF TEST NUMBER IS
  1113	031055	254 00 0 00 031161 		JRST	ILLEGL			;*GREATER THAN 155
  1114	031056	200 05 0 01 031061 		MOVE	5,DTBLE(1)
  1115	031057	552 05 0 00 030051 		HRRZM	5,TESTPC
  1116	031060	254 00 0 01 031061 		JRST	DTBLE(1)		;IN THE DISPATCH TABLE
  1117
  1118	031061	254 00 0 00 031161 	DTBLE:	JRST	ILLEGL
  1119	031062	254 00 0 00 031170 		JRST	T.1
  1120	031063	254 00 0 00 031251 		JRST	T.2
  1121	031064	254 00 0 00 031302 		JRST	T.3
  1122	031065	254 00 0 00 031327 		JRST	T.4
  1123	031066	254 00 0 00 031352 		JRST	T.5
  1124	031067	254 00 0 00 031404 		JRST	T.6
  1125	031070	254 00 0 00 031442 		JRST	T.7
  1126	031071	254 00 0 00 031473 		JRST	T.10
  1127	031072	254 00 0 00 031520 		JRST	T.11
  1128	031073	254 00 0 00 031543 		JRST	T.12
  1129	031074	254 00 0 00 031575 		JRST	T.13
  1130	031075	254 00 0 00 031627 		JRST	T.14
  1131	031076	254 00 0 00 031660 		JRST	T.15
  1132	031077	254 00 0 00 031710 		JRST	T.16
  1133	031100	254 00 0 00 031740 		JRST	T.17
  1134	031101	254 00 0 00 031770 		JRST	T.20
  1135	031102	254 00 0 00 032020 		JRST	T.21
  1136	031103	254 00 0 00 032050 		JRST	T.22
  1137	031104	254 00 0 00 032101 		JRST	T.23
  1138	031105	254 00 0 00 032132 		JRST	T.24
  1139	031106	254 00 0 00 032173 		JRST	T.25
  1140	031107	254 00 0 00 032231 		JRST	T.26
  1141	031110	254 00 0 00 032267 		JRST	T.27
  1142	031111	254 00 0 00 032324 		JRST	T.30
  1143	031112	254 00 0 00 032366 		JRST	T.31
  1144	031113	254 00 0 00 032454 		JRST	T.32
  1145	031114	254 00 0 00 032613 		JRST	T.33
  1146	031115	254 00 0 00 032735 		JRST	T.34
  1147	031116	254 00 0 00 033142 		JRST	T.35
  1148	031117	254 00 0 00 033336 		JRST	T.36
  1149	031120	254 00 0 00 033454 		JRST	T.37
  1150	031121	254 00 0 00 033563 		JRST	T.40
  1151	031122	254 00 0 00 033705 		JRST	T.41
  1152	031123	254 00 0 00 034022 		JRST	T.42
  1153	031124	254 00 0 00 034151 		JRST	T.43
  1154	031125	254 00 0 00 034254 		JRST	T.44
  1155	031126	254 00 0 00 034352 		JRST	T.45
  1156	031127	254 00 0 00 034504 		JRST	T.46
  1157	031130	254 00 0 00 034623 		JRST	T.47
  1158	031131	254 00 0 00 034764 		JRST	T.50
  1159	031132	254 00 0 00 035207 		JRST	T.51
  1160	031133	254 00 0 00 035321 		JRST	T.52
DSDUA DECSYSTEM 2020 DUP-11 DIAGNOSTIC VERSION 0,2	MACRO %53(1020) 08:16 15-Jun-79 Page 6-1
DSDUAM	MAC	14-Jun-79 16:28		DISPATCH TABLE AND RELATED ROUTINES                                                SEQ 0065

  1161	031134	254 00 0 00 035472 		JRST	T.53
  1162	031135	254 00 0 00 035555 		JRST	T.54
  1163	031136	254 00 0 00 035677 		JRST	T.55
  1164	031137	254 00 0 00 036034 		JRST	T.56
  1165	031140	254 00 0 00 036141 		JRST	T.57
  1166	031141	254 00 0 00 036247 		JRST	T.60
  1167	031142	254 00 0 00 036353 		JRST	T.61
  1168	031143	254 00 0 00 036470 		JRST	T.62
  1169	031144	254 00 0 00 036603 		JRST	T.63
  1170	031145	254 00 0 00 036716 		JRST	T.64
  1171	031146	254 00 0 00 037031 		JRST	T.65
  1172	031147	254 00 0 00 037054 		JRST	T.66
  1173	031150	254 00 0 00 037114 		JRST	T.67
  1174	031151	254 00 0 00 037201 		JRST	T.70
  1175	031152	254 00 0 00 037273 		JRST	T.71
  1176	031153	254 00 0 00 037404 		JRST	T.72
  1177	031154	254 00 0 00 037534 		JRST	T.73
  1178	031155	254 00 0 00 037633 		JRST	T.74
  1179	031156	254 00 0 00 037734 		JRST	T.75
  1180	031157	254 00 0 00 040013 		JRST	T.76
  1181	031160	254 00 0 00 030755 		JRST	ASTRSK
  1182
  1183
  1184	031161	201 00 0 00 043722 	ILLEGL:	MOVEI	0,[ASCIZ/ILLEGAL TEST NUMBER/]
  1185	031162	037 17 0 00 000001 		PNTALF
  1186	031163	254 00 0 00 030755 		JRST	ASTRSK
  1187
  1188	031164	201 00 0 00 031026 	SW2RES:	MOVEI	0,COMREC		;RESET SW2 TO
  1189	031165	542 00 0 00 031024 		HRRM	0,SW2			; "- R'CVD"
  1190	031166	400 14 0 00 000000 		SETZ	PRTOUT-1,
  1191	031167	254 00 0 00 030767 		JRST	EACCPT
  1192
  1193					S^;*********************************************************************^
  1194						SUBTTL	*STATIC LOGIC TESTS -- .1-.155
  1195					S^;*********************************************************************^
  1196			043726			T=SIXBTZ<*DUP11 STATIC TESTS*>^	[SIXBIT\*DUP11 STATIC TESTS*_\]^
DSDUA DECSYSTEM 2020 DUP-11 DIAGNOSTIC VERSION 0,2	MACRO %53(1020) 08:16 15-Jun-79 Page 7
DSDUAM	MAC	14-Jun-79 16:28		*STATIC LOGIC TESTS -- .1-.155                                                     SEQ 0066

  1197						XLIST
  1198						LIST
  1199						S^;*********************************************************************^
  1200						COMMENT $
  1201						 TEST.1-- *REGISTER ACCESS TEST*
  1202							THIS TEST INITIALIZES THE UNIBUS ADAPTER
  1203						STATUS REGISTER TO ZEROS,INITIALIZES THE RXCSR,
  1204						RXDBUF,TXCSR AND THE TXDBUF REGISTERS AND THEN,
  1205						ONE REGISTER AT A TIME ACCESSES ALL OF THE
  1206						DUP11 REGISTERS. IF A REGISTER IS PRESENT THE
  1207						TIMEOUT FLAG (BIT 18 OF THE ADAPTER STATUS REG-
  1208						ISTER WILL REMAIN CLEAR;FOLLOWING THAT REGISTER
  1209						ATTEMPTED ACCESS. IF THE TIMEOUT BIT SETS, THE
  1210						ADDRESS OF THE FAILING REGISTER WILL BE PRINTED
  1211						AS "ACTUAL:" AND NO "CORRECT:" OR "DISCREPANCY:"
  1212						WILL BE PRINTED.
  1213						REGISTERS ACCESSED IN ORDER:*
  1214							1.) RXCSR-760310-R/W
  1215							2.) RXDBUF-760312-R
  1216							    PARCSR-760312-W
  1217							3.) TXCSR-760314-R/W
  1218							4.) TXDBUF-760316-R/W
  1219						* THE UNIBUS ADAPTER STATUS REGISTER
  1220						IS ADDRESS 776310                   *
  1221						NOTE:  INITIALIZATION FOR ALL OF
  1222						THE REGISTER TESTS CONSISTS OF:
  1223						A.) SETTING DEVICE RESET IN
  1224						THE TXCSR REGISTER. THIS ACTION
  1225						CLEARS THE FOLLOWING:
  1226							. R/W BITS IN RXCSR
  1227							. ALL BITS IN RXDBUF
  1228							. ALL BITS IN TXCSR EXCEPT TXDONE (WHICH SETS)
  1229							. ALL BITS IN TXDBUF.
  1230						$
  1231						S^;*********************************************************************^
  1232						XLIST
  1233						LIST
  1234
  1235	031170	201 00 0 00 043732 	T.1:	MOVEI	0,[ASCIZ/STARTING *BASIC REGISTER TESTING*/]
  1236	031171	037 17 0 00 000000 		PNTAL
  1237	031172	037 01 0 00 030242 		PCRLF
  1238	031173	200 00 0 00 000502 	Z.1:	MOVE	0,LPGFTR	;OBTAIN STD PAGE FAIL NEW PC WORD
  1239	031174	202 00 0 00 043552 		MOVEM	0,SVPFPC#	;SAVE IT FOR RESTORATION
  1240	031175	201 00 0 00 040224 		MOVEI	0,T.1PF		;ADDRESS OF HANDLER FOR THIS TEST!
  1241	031176	202 00 0 00 000502 		MOVEM	0,LPGFTR	;SETUP PF-PC TO BE THIS HANDLER
  1242	031177	201 00 0 00 031214 		MOVEI	0,T.1B+1
  1243	031200	202 00 0 00 043550 		MOVEM	0,PFRTN#	;RETURN FOLLOWING PAGE FAULT
  1244	031201	260 17 0 00 040234 		CSINIT			;PRE-TEST INITIALIZATION
  1245	031202	400 04 0 00 000000 		SETZ	4,
  1246	031203	200 02 0 00 041227 		MOVE	2,RXCSR		;BASE ADDRESS OF REG LIST
DSDUA DECSYSTEM 2020 DUP-11 DIAGNOSTIC VERSION 0,2	MACRO %53(1020) 08:16 15-Jun-79 Page 8
DSDUAM	MAC	14-Jun-79 16:28		*STATIC LOGIC TESTS -- .1-.155                                                     SEQ 0067

  1247	031204	260 17 0 00 040241 	T.1A:	UBACLR			;CLEAR UNIBUS STATUS
  1248	031205	712 03 0 02 000000 		RDIO	3,(2)		;ACCESS THE REGISTER
  1249	031206	037 10 0 00 000002 		SWITCH
  1250	031207	607 00 0 00 000400 		TLNN	0,400		;IS RELIABILITY SW=1?
  1251	031210	264 00 0 00 031242 		JSR	ACCK		;NO-PRINT WHICH REG WE ACCECCED
  1252	031211	505 01 0 00 377777 		HRLI	1,377777	;YES-DONT PRINT ACCESSED REGISTERS OVER AND OVER
  1253	031212	660 01 0 00 777700 		TRO	1,777700
  1254
  1255	031213	345 01 0 00 031213 	T.1B:	AOJGE	1,T.1B		;COUNT IT UP
  1256	031214	400 01 0 00 000000 		SETZ	1,		;INIT REG 1
  1257	031215	200 05 0 00 041221 		MOVE	5,UASTAT	;PUT ADDRESS IN AC0
  1258	031216	201 03 0 00 400000 		MOVEI	3,TIMOUT	;MAKE MASK
  1259	031217	710 03 0 05 000000 		TIOE	3,(5)		;TEST ADAPTER TIMEOUT BIT
  1260						ERROR	(T.1,13,0,2,TEST.1,DUP REGISTER ACCESS TIMEOUT,PRTSTA)^
  1261	031220	036 13 0 00 043750
  1262	031221	035 00 0 00 031170 		ERLOOP	T.1		;IF ERROR, LOOP TO T.1
  1263	031222	271 02 0 00 000002 		ADDI	2,2		;INCREMENT ADR BY +2
  1264	031223	311 02 0 00 041235 		CAML	2,TXCSR		;IS IT LESS THAN TXCSR?
  1265	031224	254 00 0 00 031226 		JRST	.+2		;NO
  1266	031225	254 00 0 00 031204 		JRST	T.1A		;YES,CONTINUE TESTING
  1267	031226	312 02 0 00 041235 		CAME	2,TXCSR		;IS IT = TO TXCSR?
  1268	031227	254 00 0 00 031231 		JRST	.+2		;NO-GREATER THAN
  1269	031230	254 00 0 00 031204 		JRST	T.1A		;YES,CONTINUE (TXCSR)
  1270	031231	312 02 0 00 041240 		CAME	2,TXDBUF	;IS IT = TO TXDBUF?
  1271	031232	254 00 0 00 031234 		JRST	.+2		;NO-GREATER THAN
  1272	031233	254 00 0 00 031204 		JRST	T.1A		;YES,CONTINUE (TXDBUF)
  1273						NXTTST	(1,2)^		;DONE ALL FOUR NOW!
  1274	031234	201 05 0 00 000001 		MOVEI	5,1		;GET CURRENT TEST #
  1275	031235	260 17 0 00 040245 		GO	$NXTST		;GO CHECK SWITCHES
  1276	031236	254 00 0 00 031170 		JRST	T.1		;REPEAT SAME TEST
  1277	031237	201 05 0 00 031251 		MOVEI	5,T.2		;GET NXT TEST #
  1278	031240	202 05 0 00 030051 		MOVEM	5,TESTPC	;SAVE ADRS FOR PC
  1279	031241	254 00 0 00 031251 		JRST	T.2		;GO TO NEXT TEST
  1280
  1281	031242	000000	000000		ACCK:	0
  1282	031243	201 00 0 00 043753 		MOVEI	0,[ASCIZ/*ACCESSING REGISTER:/]
  1283	031244	037 17 0 00 000000 		PNTAL
  1284	031245	200 00 0 00 000002 		MOVE	0,2		;AC2 = REG WE ARE ACCESSING
  1285	031246	037 14 0 00 000000 		PNTOCT			;PRINT THE REG.
  1286	031247	037 01 0 00 030242 		PCRLF
  1287	031250	254 00 1 00 031242 		JRST	@ACCK		;AND EXIT
DSDUA DECSYSTEM 2020 DUP-11 DIAGNOSTIC VERSION 0,2	MACRO %53(1020) 08:16 15-Jun-79 Page 9
DSDUAM	MAC	14-Jun-79 16:28		*STATIC LOGIC TESTS -- .1-.155                                                     SEQ 0068

  1288						XLIST
  1289						LIST
  1290						S^;*********************************************************************^
  1291						COMMENT $
  1292						 TEST.2-- *TXCSR REGISTER R/W TEST*
  1293							THIS TEST INITIALIZES THE UNIBUS ADAPTER STATUS
  1294						REGISTER TO ZEROS,INITIALIZES THE TXCSR REGISTER AND THEN
  1295						WRITES A FLOATING PATTERN THRU THE R/W AND W BITS OF THIS
  1296						REGISTER.AFTER EACH PATTERN IS WRITTEN IT IS READ BACK AND
  1297						CHECKED. IF THE PATTERN WRITTEN AND THE CORRESPONDING
  1298						RESULT READBACK IS NOT THE SAME,AN ERROR PRINTOUT OCCURS.
  1299						$
  1300						S^;*********************************************************************^
  1301						XLIST
  1302						LIST
  1303
  1304	031251	200 03 0 00 041235 	T.2:	MOVE	3,TXCSR		;ADDRESS OF STATUS REG.
  1305	031252	260 17 0 00 040234 		CSINIT			;PRE-TEST INITIALIZATION
  1306	031253	200 04 0 00 042000 		MOVE	4,T02L		;POS-LIST LENGTH
  1307	031254	201 02 0 00 042000 		MOVEI	2,T02L		;ADDRESS-1 OF LIST
  1308	031255	271 02 0 00 000001 	T.2A:	ADDI	2,1		;ADDRESS OF FIRST PATTERN
  1309	031256	260 17 0 00 040241 		UBACLR			;CLEAR UNIBUS STATUS
  1310	031257	200 05 0 02 000000 		MOVE	5,0(2)		;PATTERN INTO AC5
  1311	031260	202 05 0 00 041225 		MOVEM	5,GDDAT		;COPY OF CURRENT PATTERN
  1312	031261	713 05 0 03 000000 		WRIO	5,(3)		;WRITE PATTERN INTO CSRA
  1313	031262	505 01 0 00 377777 		HRLI	1,377777
  1314	031263	660 01 0 00 777700 		TRO	1,777700
  1315	031264	345 01 0 00 031264 	T.2B:	AOJGE	1,T.2B		;COUNT IT UP
  1316	031265	403 01 0 00 000005 		SETZB	1,5		;INIT INDEX,RECIEVING REG
  1317	031266	712 05 0 03 000000 		RDIO	5,(3)		;READ PATTERN INTO AC5
  1318	031267	620 05 0 00 141247 		TRZ	5,141247	;PRESERVE ONLY R/W AND W BITS
  1319	031270	312 05 0 00 041225 		CAME	5,GDDAT		;COMPARE DATA READ TO GDDAT
  1320						ERROR	(T.2,13,GDDAT,5,TEST.2,TXCSR R/W TEST,PRTSTA)^
  1321	031271	036 13 0 00 043765
  1322	031272	035 00 0 00 031251 		ERLOOP	T.2		;IF ERROR, LOOP TO T.2
  1323	031273	367 04 0 00 031255 		SOJG	4,T.2A		;LIST DONE?-JUMP IF NOT!
  1324						NXTTST	(2,3)^
  1325	031274	201 05 0 00 000002 		MOVEI	5,2		;GET CURRENT TEST #
  1326	031275	260 17 0 00 040245 		GO	$NXTST		;GO CHECK SWITCHES
  1327	031276	254 00 0 00 031251 		JRST	T.2		;REPEAT SAME TEST
  1328	031277	201 05 0 00 031302 		MOVEI	5,T.3		;GET NXT TEST #
  1329	031300	202 05 0 00 030051 		MOVEM	5,TESTPC	;SAVE ADRS FOR PC
  1330	031301	254 00 0 00 031302 		JRST	T.3		;GO TO NEXT TEST^
  1331
DSDUA DECSYSTEM 2020 DUP-11 DIAGNOSTIC VERSION 0,2	MACRO %53(1020) 08:16 15-Jun-79 Page 10
DSDUAM	MAC	14-Jun-79 16:28		*STATIC LOGIC TESTS -- .1-.155                                                     SEQ 0069

  1332						XLIST
  1333						LIST
  1334						S^;*********************************************************************^
  1335						COMMENT $
  1336						 TEST.3-- *TXCSR HI-BYTE TEST*
  1337							THIS TEST INITIALIZES THE UNIBUS ADAPTER
  1338						STATUS REGISTER TO ZEROS AND INITIALIZES THE TXCSR
  1339						REGISTER. THE TEST READS AN ENTIRE WORD FROM THE
  1340						TXCSR REGISTER,SAVES THE HI-BYTE OF THIS WORD
  1341						AS GOOD DATA,BYTE ADDRESSES THE TXCSR REGISTER
  1342						FOR THE HI-BYTE AND THEN COMPARES THE BYTE THUS
  1343						OBTAINED TO THE BYTE OF GOOD DATA. IF BOTH BYTES
  1344						ARE NOT THE SAME AN ERROR PRINTOUT WILL OCCUR.
  1345						$
  1346						S^;*********************************************************************^
  1347						XLIST
  1348						LIST
  1349
  1350	031302	400 05 0 00 000000 	T.3:	SETZ	5,		;INITIALIZE RECIEVING REG.
  1351	031303	200 03 0 00 041235 		MOVE	3,TXCSR		;ADDRESS WORD
  1352	031304	260 17 0 00 040234 		CSINIT			;PRE-TEST INITIALIZATION
  1353	031305	260 17 0 00 040241 		UBACLR			;CLEAR UNIBUS ADAPTER STATUS
  1354	031306	712 05 0 03 000000 		RDIO	5,(3)		;16-BITS OF CSRA TO AC5
  1355	031307	620 05 0 00 000377 		TRZ	5,377		;CLEAR LO-BYTE
  1356	031310	242 05 0 00 777770 		LSH	5,-^D8		;RIGHT JUSTIFY BYTE
  1357	031311	620 05 0 00 777400 		TRZ	5,777400	;GET RID OF JUNK
  1358	031312	202 05 0 00 041225 		MOVEM	5,GDDAT		;SAVE GOOD DATA
  1359	031313	200 03 0 00 041237 		MOVE	3,TXCSRH	;ADDRESS OF HI-BYTE
  1360	031314	400 05 0 00 000000 		SETZ	5,		;INITIALIZE RECIEVING REG.
  1361	031315	722 05 0 03 000000 		RDIOB	5,(3)		;READ HI-BYTE INTO AC5 RIGHT
  1362	031316	312 05 0 00 041225 		CAME	5,GDDAT		;COMPARE BYTE READ TO GOOD BYTE
  1363						ERROR	(T.3,13,GDDAT,5,TEST.3,TXCSR HI-BYTE TEST,PRTSTA)^
  1364	031317	036 13 0 00 043776
  1365	031320	035 00 0 00 031302 		ERLOOP	T.3		;IF ERROR, LOOP TO T.3
  1366						NXTTST	(3,4)^
  1367	031321	201 05 0 00 000003 		MOVEI	5,3		;GET CURRENT TEST #
  1368	031322	260 17 0 00 040245 		GO	$NXTST		;GO CHECK SWITCHES
  1369	031323	254 00 0 00 031302 		JRST	T.3		;REPEAT SAME TEST
  1370	031324	201 05 0 00 031327 		MOVEI	5,T.4		;GET NXT TEST #
  1371	031325	202 05 0 00 030051 		MOVEM	5,TESTPC	;SAVE ADRS FOR PC
  1372	031326	254 00 0 00 031327 		JRST	T.4		;GO TO NEXT TEST^
  1373
DSDUA DECSYSTEM 2020 DUP-11 DIAGNOSTIC VERSION 0,2	MACRO %53(1020) 08:16 15-Jun-79 Page 11
DSDUAM	MAC	14-Jun-79 16:28		*STATIC LOGIC TESTS -- .1-.155                                                     SEQ 0070

  1374						XLIST
  1375						LIST
  1376						S^;*********************************************************************^
  1377						COMMENT $
  1378						 TEST.4-- *TXCSR LO-BYTE TEST*
  1379							THIS TEST INITIALIZES THE UNIBUS ADAPTER
  1380						STATUS REGISTER TO ZEROS AND INITIALIZES THE TXCSR
  1381						REGISTER. THE TEST READS THE ENTIRE WORD FROM THE
  1382						TXCSR REGISTER,SAVES THE LO-BYTE OF THIS WORD
  1383						AS GOOD DATA,BYTE ADDRESSES THE TXCSR REGISTER
  1384						FOR THE LO-BYTE AND THEN COMPARES THE BYTE THUS
  1385						OBTAINED TO THE BYTE OF GOOD DATA. IF BOTH BYTES
  1386						ARE NOT THE SAME AND ERROR PRINTOUT WILL OCCUR.
  1387						$
  1388						S^;*********************************************************************^
  1389						XLIST
  1390						LIST
  1391
  1392	031327	400 05 0 00 000000 	T.4:	SETZ	5,		;INITIALIZE RECIEVING REG.
  1393	031330	200 03 0 00 041235 		MOVE	3,TXCSR		;ADDRESS WORD
  1394	031331	260 17 0 00 040234 		CSINIT			;PRE-TEST INITIALIZATION
  1395	031332	260 17 0 00 040241 		UBACLR			;CLEAR UNIBUS ADAPTER STATUS
  1396	031333	712 05 0 03 000000 		RDIO	5,(3)		;16-BITS OF CSRA TO AC5
  1397	031334	620 05 0 00 777400 		TRZ	5,777400	;CLEAR HI-BYTE AND JUNK TOO!
  1398	031335	202 05 0 00 041225 		MOVEM	5,GDDAT		;SAVE GOOD DATA
  1399	031336	200 03 0 00 041235 		MOVE	3,TXCSR		;ADDRESS OF LO-BYTE
  1400	031337	400 05 0 00 000000 		SETZ	5,		;INITIALIZE RECIEVING REG.
  1401	031340	722 05 0 03 000000 		RDIOB	5,(3)		;READ LO-BYTE INTO AC5 RIGHT
  1402	031341	312 05 0 00 041225 		CAME	5,GDDAT		;COMPARE BYTE READ TO GOOD BYTE
  1403						ERROR	(T.4,13,GDDAT,5,TEST.4,TXCSR LO-BYTE TEST,PRTSTA)^
  1404	031342	036 13 0 00 044007
  1405	031343	035 00 0 00 031327 		ERLOOP	T.4		;IF ERROR, LOOP TO T.4
  1406						NXTTST	(4,5)^
  1407	031344	201 05 0 00 000004 		MOVEI	5,4		;GET CURRENT TEST #
  1408	031345	260 17 0 00 040245 		GO	$NXTST		;GO CHECK SWITCHES
  1409	031346	254 00 0 00 031327 		JRST	T.4		;REPEAT SAME TEST
  1410	031347	201 05 0 00 031352 		MOVEI	5,T.5		;GET NXT TEST #
  1411	031350	202 05 0 00 030051 		MOVEM	5,TESTPC	;SAVE ADRS FOR PC
  1412	031351	254 00 0 00 031352 		JRST	T.5		;GO TO NEXT TEST^
  1413
DSDUA DECSYSTEM 2020 DUP-11 DIAGNOSTIC VERSION 0,2	MACRO %53(1020) 08:16 15-Jun-79 Page 12
DSDUAM	MAC	14-Jun-79 16:28		*STATIC LOGIC TESTS -- .1-.155                                                     SEQ 0071

  1414						XLIST
  1415						LIST
  1416						S^;*********************************************************************^
  1417						COMMENT $
  1418						 TEST.5-- *TXCSR CLEAR TEST (MRESET)*
  1419						      THIS TEST INITIALIZES THE UNIBUS ADAPTER STATUS REGISTER
  1420						TO ZEROS,AND INITIALIZES THE TXCSR REGISTER. THE TEST LOADS 1'S
  1421						INTO TXCSR EXCEPT FOR "TX DATA LATE","MAINT TX OUT DATA",AND
  1422						"MAINT TIMER". THEN THE MRESET BIT IS SET TO ONE (SHOULD CLEAR
  1423						TXCSR ALL BUT THE DONE BIT). THE TXCSR REGISTER IS CHECKED
  1424						FOR THE PROPER CONTENTS. IF ANY OTHER BIT IS SET EXCEPT FOR
  1425						THE DONE BIT,AN ERROR PRINTOUT WILL OCCUR.
  1426						$
  1427						S^;*********************************************************************^
  1428						XLIST
  1429						LIST
  1430
  1431	031352	200 03 0 00 041235 	T.5:	MOVE	3,TXCSR		;ADDRESS WORD
  1432	031353	260 17 0 00 040234 		CSINIT			;PRE-TEST INITIALIZATION
  1433	031354	260 17 0 00 040241 		UBACLR			;CLEAR UNIBUS ADAPTER STATUS
  1434	031355	201 05 0 00 177777 		MOVEI	5,177777
  1435	031356	713 05 0 03 000000 		WRIO	5,(3)		;SET ALL BITS IN TCXSR EXCEPT TX DATA LATE,
  1436									;MAINT TX OUT DATA,AND TX ACTIVE
  1437	031357	201 05 0 00 000400 		MOVEI	5,MRESET	;
  1438	031360	714 05 0 03 000000 		BSIO	5,(3)		;SET MRESET-LEAVE REST ALONE
  1439	031361	505 01 0 00 377777 		HRLI	1,377777
  1440	031362	660 01 0 00 777700 		TRO	1,777700
  1441	031363	345 01 0 00 031363 	T.5B:	AOJGE	1,T.5B		;SHORT DELAY
  1442	031364	403 01 0 00 000005 		SETZB	1,5		;INITIALIZE INDEX
  1443	031365	201 02 0 00 000200 		MOVEI	2,TXDONE	;SETS DONE-CLEAR REST
  1444	031366	712 05 0 03 000000 		RDIO	5,(3)		;NOW READ RESULTS PREVIOUSLY SETUP
  1445	031367	434 02 0 00 000005 		IOR	2,5		;FORM CORRECT DATA
  1446	031370	602 05 0 00 003577 		TRNE	5,3577		;TEST RESULTS BITS 10-08,06-00
  1447						ERROR	(T.5,13,2,5,TEST.5,<TXCSR CLR TST(10-08,06-00)NOT CLEAR>,PRTSTA)^
  1448	031371	036 13 0 00 044022
  1449	031372	035 00 0 00 031352 		ERLOOP	T.5		;IF ERROR, LOOP TO T.5
  1450	031373	606 05 0 00 000200 		TRNN	5,200		;TEST RESULTS BIT 07 (DONE)
  1451						ERROR	(T.5,13,2,5,TEST.5,TXCSR CLR TST-FAILED TO SET BIT 07,PRTSTA)^
  1452	031374	036 13 0 00 044033
  1453	031375	035 00 0 00 031352 		ERLOOP	T.5		;IF ERROR, LOOP TO T.5
  1454						NXTTST	(5,6)^
  1455	031376	201 05 0 00 000005 		MOVEI	5,5		;GET CURRENT TEST #
  1456	031377	260 17 0 00 040245 		GO	$NXTST		;GO CHECK SWITCHES
  1457	031400	254 00 0 00 031352 		JRST	T.5		;REPEAT SAME TEST
  1458	031401	201 05 0 00 031404 		MOVEI	5,T.6		;GET NXT TEST #
  1459	031402	202 05 0 00 030051 		MOVEM	5,TESTPC	;SAVE ADRS FOR PC
  1460	031403	254 00 0 00 031404 		JRST	T.6		;GO TO NEXT TEST^
  1461
DSDUA DECSYSTEM 2020 DUP-11 DIAGNOSTIC VERSION 0,2	MACRO %53(1020) 08:16 15-Jun-79 Page 13
DSDUAM	MAC	14-Jun-79 16:28		*STATIC LOGIC TESTS -- .1-.155                                                     SEQ 0072

  1462						XLIST
  1463						LIST
  1464						S^;*********************************************************************^
  1465						COMMENT $
  1466						 TEST.6-- *TXCSR CLEAR TEST (UBINIT)*
  1467						THIS TEST INITIALIZES THE UNIBUS ADAPTER
  1468						STATUS REGISTER TO ZEROS,AND INITIALIZES
  1469						THE TXCSR REGISTER. THE TEST LOADS 1'S
  1470						INTO TXCSR EXCEPT FOR "TX DATA LATE","MAINT
  1471						TX OUT DATA",AND "TX ACTIVE". NEXT THE UNIBUS
  1472						ADAPTER STATUS REGISTER INIT BIT (BIT 29) IS SET.
  1473						THIS ACTION RESULTS IN UNIBUS INIT WHICH
  1474						SHOULD CAUSE TXCSR TO CLEAR ALL BUT THE
  1475						DONE BIT. THE TXCSR REGISTER IS CHECKED
  1476						FOR THE PROPER CONTENTS. IF ANY OTHER BIT
  1477						IS SET EXCEPT FOR THE DONE BIT,AN ERROR
  1478						PRINTOUT OCCURS.
  1479						$
  1480						S^;*********************************************************************^
  1481						XLIST
  1482						LIST
  1483
  1484	031404	200 03 0 00 041235 	T.6:	MOVE	3,TXCSR		;ADDRESS WORD
  1485	031405	260 17 0 00 040234 		CSINIT			;PRE-TEST INITIALIZATION
  1486	031406	260 17 0 00 040241 		UBACLR			;CLEAR UNIBUS ADAPTER STATUS
  1487
  1488	031407	201 05 0 00 177777 		MOVEI	5,177777	;
  1489	031410	713 05 0 03 000000 		WRIO	5,(3)		;SET ALL BITS IN TXCSR EXCEPT TX DATA LATE,
  1490									;MAINT TX OUT DATA,AND TX ACTIVE
  1491	031411	201 05 0 00 000400 		MOVEI	5,MRESET
  1492	031412	714 05 0 03 000000 		BSIO	5,(3)		;SET MRESET-LEAVE REST ALONE
  1493	031413	505 01 0 00 377777 		HRLI	1,377777
  1494	031414	660 01 0 00 777700 		TRO	1,777700
  1495
  1496	031415	345 01 0 00 031415 	T.6B:	AOJGE	1,T.6B		;SHORT DELAY
  1497	031416	403 01 0 00 000005 		SETZB	1,5		;INITIALIZE INDEX REG.
  1498	031417	201 02 0 00 000200 		MOVEI	2,TXDONE	;SETS DONE-CLEARS REST
  1499	031420	201 05 0 00 000100 		MOVEI	5,UBINIT	;ADAPTER INIT BIT
  1500	031421	200 04 0 00 041221 		MOVE	4,UASTAT	;STATUS ADDRESS (ADAPTER)
  1501	031422	713 05 0 04 000000 		WRIO	5,(4)		;SET UBINIT IN ADAPTER!
  1502	031423	400 05 0 00 000000 		SETZ	5,		;INITIALIZE RECIEVING REG
  1503	031424	712 05 0 03 000000 		RDIO	5,(3)		;NOW READ RESULTS PREVIOUSLY SETUP
  1504	031425	434 02 0 00 000005 		IOR	2,5		;FORM CORRECT DATA
  1505	031426	602 05 0 00 003577 		TRNE	5,3577		;TEST RESULTS BITS 10-08,06-00
  1506						ERROR	(T.6,13,2,5,TEST.6,<TXCSR CLR TST(10-08,06-00)NOT CLEAR>,PRTSTA)^
  1507	031427	036 13 0 00 044040
  1508	031430	035 00 0 00 031404 		ERLOOP	T.6		;IF ERROR, LOOP TO T.6
  1509	031431	606 05 0 00 000200 		TRNN	5,200		;TEST RESULTS BIT 07 (DONE)
  1510						ERROR	(T.6,13,2,5,TEST.6,TXCSR CLR TEST-FAILED TO SET BIT 07,PRTSTA)^
  1511	031432	036 13 0 00 044051
  1512	031433	035 00 0 00 031404 		ERLOOP	T.6		;IF ERROR, LOOP TO T.6
  1513						NXTTST	(6,7)^
  1514	031434	201 05 0 00 000006 		MOVEI	5,6		;GET CURRENT TEST #
  1515	031435	260 17 0 00 040245 		GO	$NXTST		;GO CHECK SWITCHES
  1516	031436	254 00 0 00 031404 		JRST	T.6		;REPEAT SAME TEST
DSDUA DECSYSTEM 2020 DUP-11 DIAGNOSTIC VERSION 0,2	MACRO %53(1020) 08:16 15-Jun-79 Page 13-1
DSDUAM	MAC	14-Jun-79 16:28		*STATIC LOGIC TESTS -- .1-.155                                                     SEQ 0073

  1517	031437	201 05 0 00 031442 		MOVEI	5,T.7		;GET NXT TEST #
  1518	031440	202 05 0 00 030051 		MOVEM	5,TESTPC	;SAVE ADRS FOR PC
  1519	031441	254 00 0 00 031442 		JRST	T.7		;GO TO NEXT TEST^
  1520
DSDUA DECSYSTEM 2020 DUP-11 DIAGNOSTIC VERSION 0,2	MACRO %53(1020) 08:16 15-Jun-79 Page 14
DSDUAM	MAC	14-Jun-79 16:28		*STATIC LOGIC TESTS -- .1-.155                                                     SEQ 0074

  1521						XLIST
  1522						LIST
  1523						S^;*********************************************************************^
  1524						COMMENT $
  1525						 TEST.7-- *RXCSR REGISTER R/W TEST*
  1526							THIS TEST INITIALIZES THE UNIBUS ADAPTER STATUS REGISTER
  1527						TO ZEROS,INITIALIZES THE RXCSR REGISTER AND THEN WRITES A
  1528						FLOATING PATTERN THRU THE R/W BITS OF THE REGISTER. AFTER EACH
  1529						PATTERN IS WRITTEN IT IS READ BACK AND CHECKED. IF THE PATTERN
  1530						WRITTEN AND THE CORRESPONDING RESULT READ BACK IS NOT THE SAME,
  1531						AN ERROR PRINTOUT OCCURS.
  1532						$
  1533						S^;*********************************************************************^
  1534						XLIST
  1535						LIST
  1536
  1537	031442	200 03 0 00 041227 	T.7:	MOVE	3,RXCSR		;ADDRESS OF STATUS REGISTER
  1538	031443	260 17 0 00 040234 		CSINIT			;PRE-TEST INITIALIZATION
  1539	031444	200 04 0 00 042037 		MOVE	4,T07L		;POS-LIST LENGTH
  1540	031445	201 02 0 00 042037 		MOVEI	2,T07L		;ADDRESS-1 OF LIST
  1541	031446	271 02 0 00 000001 	T.7A:	ADDI	2,1		;ADDRESS OF FIRST PATTERN
  1542	031447	260 17 0 00 040241 		UBACLR			;CLEAR UNIBUS STATUS
  1543	031450	200 05 0 02 000000 		MOVE	5,0(2)		;PATTERN INTO AC5
  1544	031451	202 05 0 00 041225 		MOVEM	5,GDDAT		;COPY OF CURRENT PATTERN
  1545	031452	713 05 0 03 000000 		WRIO	5,(3)		;WRITE PATTERN INTO CSRB
  1546	031453	505 01 0 00 377777 		HRLI	1,377777
  1547	031454	660 01 0 00 777700 		TRO	1,777700
  1548	031455	345 01 0 00 031455 	T.7B:	AOJGE	1,T.7B		;SHORT DELAY
  1549	031456	403 01 0 00 000005 		SETZB	1,5		;INITIALIZE INDEX REG,RECIEVING REG
  1550	031457	712 05 0 03 000000 		RDIO	5,(3)		;READ PATTERN INTO AC5
  1551	031460	620 05 0 00 177201 		TRZ	5,177201	;PRESERVE ONLY R/W BITS
  1552	031461	312 05 0 00 041225 		CAME	5,GDDAT		;COMPARE DATA READ TO GDDAT
  1553						ERROR	(T.7,13,GDDAT,5,TEST.7,RXCSR R/W TEST,PRTSTA)^
  1554	031462	036 13 0 00 044061
  1555	031463	035 00 0 00 031442 		ERLOOP	T.7		;IF ERROR, LOOP TO T.7
  1556	031464	367 04 0 00 031446 		SOJG	4,T.7A		;LIST DONE?-JUMP IF NOT!
  1557						NXTTST	(7,10)^
  1558	031465	201 05 0 00 000007 		MOVEI	5,7		;GET CURRENT TEST #
  1559	031466	260 17 0 00 040245 		GO	$NXTST		;GO CHECK SWITCHES
  1560	031467	254 00 0 00 031442 		JRST	T.7		;REPEAT SAME TEST
  1561	031470	201 05 0 00 031473 		MOVEI	5,T.10		;GET NXT TEST #
  1562	031471	202 05 0 00 030051 		MOVEM	5,TESTPC	;SAVE ADRS FOR PC
  1563	031472	254 00 0 00 031473 		JRST	T.10		;GO TO NEXT TEST^
  1564
DSDUA DECSYSTEM 2020 DUP-11 DIAGNOSTIC VERSION 0,2	MACRO %53(1020) 08:16 15-Jun-79 Page 15
DSDUAM	MAC	14-Jun-79 16:28		*STATIC LOGIC TESTS -- .1-.155                                                     SEQ 0075

  1565						XLIST
  1566						LIST
  1567						S^;*********************************************************************^
  1568						COMMENT $
  1569						 TEST.10-- *RXCSR HI-BYTE TEST*
  1570							THIS TEST INITIALIZES THE UNIBUS ADAPTER
  1571						STATUS REGISTER TO ZEROS,INITIALIZES THE RXCSR
  1572						REGISTER. THE INITIALIZATION ALSO CLEARS TXCSR,
  1573						RXDBUF AND TXDBUF. THE TEST READS AN ENTIRE WORD
  1574						FROM THE RXCSR REGISTER,SAVES THE HI-BYTE OF THIS
  1575						WORD AS GOOD DATA,BYTE ADDRESSES THE RXCSR REGISTER,
  1576						FOR THE HI-BYTE.AND THEN COMPARES THE BYTE THUS
  1577						OBTAINED TO THE BYTE OF GOOD DATA. IF BOTH BYTES
  1578						ARE NOT THE SAME AN ERROR PRINTOUT OCCURES.
  1579						$
  1580						S^;*********************************************************************^
  1581						XLIST
  1582						LIST
  1583
  1584	031473	400 05 0 00 000000 	T.10:	SETZ	5,		;INITIALIZE RECIEVING REG.
  1585	031474	200 03 0 00 041227 		MOVE	3,RXCSR		;ADDRESS WORD
  1586	031475	260 17 0 00 040234 		CSINIT			;PRE-TEST INITIALIZATION
  1587	031476	260 17 0 00 040241 		UBACLR			;CLEAR UNIBUS ADAPTER STATUS
  1588	031477	712 05 0 03 000000 		RDIO	5,(3)		;16-BITS OF RXCSR TO AC5
  1589	031500	620 05 0 00 000377 		TRZ	5,377		;CLEAR LO-BYTE
  1590	031501	242 05 0 00 777770 		LSH	5,-^D8		;RIGHT JUSTIFY BYTE
  1591	031502	620 05 0 00 777400 		TRZ	5,777400	;GET RID OF JUNK
  1592	031503	202 05 0 00 041225 		MOVEM	5,GDDAT		;SAVE GOOD DATA
  1593	031504	200 03 0 00 041231 		MOVE	3,RXCSRH	;ADDRESS OF HI-BYTE
  1594	031505	400 05 0 00 000000 		SETZ	5,		;INITIALIZE RECIEVING REG
  1595	031506	722 05 0 03 000000 		RDIOB	5,(3)		;READ HI-BYTE INTO AC5 RIGHT
  1596	031507	312 05 0 00 041225 		CAME	5,GDDAT		;COMPARE BYTE READ TO GOOD BYTE
  1597						ERROR	(T.10,13,GDDAT,5,TEST.10,RXCSR HI-BYTE TEST,PRTSTA)^
  1598	031510	036 13 0 00 044072
  1599	031511	035 00 0 00 031473 		ERLOOP	T.10		;IF ERROR, LOOP TO T.10
  1600						NXTTST	(10,11)^
  1601	031512	201 05 0 00 000010 		MOVEI	5,10		;GET CURRENT TEST #
  1602	031513	260 17 0 00 040245 		GO	$NXTST		;GO CHECK SWITCHES
  1603	031514	254 00 0 00 031473 		JRST	T.10		;REPEAT SAME TEST
  1604	031515	201 05 0 00 031520 		MOVEI	5,T.11		;GET NXT TEST #
  1605	031516	202 05 0 00 030051 		MOVEM	5,TESTPC	;SAVE ADRS FOR PC
  1606	031517	254 00 0 00 031520 		JRST	T.11		;GO TO NEXT TEST^
  1607
DSDUA DECSYSTEM 2020 DUP-11 DIAGNOSTIC VERSION 0,2	MACRO %53(1020) 08:16 15-Jun-79 Page 16
DSDUAM	MAC	14-Jun-79 16:28		*STATIC LOGIC TESTS -- .1-.155                                                     SEQ 0076

  1608						XLIST
  1609						LIST
  1610						S^;*********************************************************************^
  1611						COMMENT $
  1612						 TEST.11-- *RXCSR LO-BYTE TEST*
  1613							THIS TEST INITIALIZES THE UNIBUS ADAPTER
  1614						STATUS REGISTER TO ZEROS,INITIALIZES THE RXCSR
  1615						REGISTER. THE INITIALIZATION ALSO CLEARS TXCSR,
  1616						RXDBUF,AND TXDBUF. THE TEST READS AN ENTIRE WORD
  1617						FROM THE RXCSR REGISTER,SAVES THE LOW BYTE OF THIS
  1618						WORD,AND THEN COMPARES THE BYTE THUS OBTAINED TO
  1619						THE BYTE OF GOOD DATA. IF BOTH BYTES ARE NOT THE
  1620						SAME AN ERROR PRINTOUT WILL OCCUR.
  1621						$
  1622						S^;*********************************************************************^
  1623						XLIST
  1624						LIST
  1625
  1626	031520	400 05 0 00 000000 	T.11:	SETZ	5,		;INITIALIZE RECIEVING REG.
  1627	031521	200 03 0 00 041227 		MOVE	3,RXCSR		;ADDRESS WORD
  1628	031522	260 17 0 00 040234 		CSINIT			;PRE-TEST INITIALIZATION
  1629	031523	260 17 0 00 040241 		UBACLR			;CLEAR UNIBUS ADAPTER STATUS
  1630	031524	712 05 0 03 000000 		RDIO	5,(3)		;16-BITS OF RXCSR TO AC5
  1631	031525	620 05 0 00 777400 		TRZ	5,777400	;CLEAR HI-BYTE AND JUNK TOO!
  1632	031526	202 05 0 00 041225 		MOVEM	5,GDDAT		;SAVE GOOD DATA
  1633	031527	200 03 0 00 041230 		MOVE	3,RXCSRL	;ADDRESS OF LO-BYTE
  1634	031530	400 05 0 00 000000 		SETZ	5,		;INITIALIZE RECIEVING REG.
  1635	031531	722 05 0 03 000000 		RDIOB	5,(3)		;READ LO-BYTE INTO AC5 RIGHT
  1636	031532	312 05 0 00 041225 		CAME	5,GDDAT		;COMPARE BYTE RECIEVED TO GOOD BYTE
  1637						ERROR	(T.11,13,GDDAT,5,TEST.11,RXCSR LO-BYTE TEST,PRTSTA)^
  1638	031533	036 13 0 00 044103
  1639	031534	035 00 0 00 031520 		ERLOOP	T.11		;IF ERROR, LOOP TO T.11
  1640						NXTTST	(11,12)^
  1641	031535	201 05 0 00 000011 		MOVEI	5,11		;GET CURRENT TEST #
  1642	031536	260 17 0 00 040245 		GO	$NXTST		;GO CHECK SWITCHES
  1643	031537	254 00 0 00 031520 		JRST	T.11		;REPEAT SAME TEST
  1644	031540	201 05 0 00 031543 		MOVEI	5,T.12		;GET NXT TEST #
  1645	031541	202 05 0 00 030051 		MOVEM	5,TESTPC	;SAVE ADRS FOR PC
  1646	031542	254 00 0 00 031543 		JRST	T.12		;GO TO NEXT TEST^
  1647
DSDUA DECSYSTEM 2020 DUP-11 DIAGNOSTIC VERSION 0,2	MACRO %53(1020) 08:16 15-Jun-79 Page 17
DSDUAM	MAC	14-Jun-79 16:28		*STATIC LOGIC TESTS -- .1-.155                                                     SEQ 0077

  1648						XLIST
  1649						LIST
  1650						S^;*********************************************************************^
  1651						COMMENT $
  1652						 TEST.12-- *RXCSR CLEAR TEST (MRESET)*
  1653						   THIS TEST INITIALIZES THE UNIBUS ADAPTER STATUS REGISTER
  1654						TO ZEROS,INITIALIZES THE RXCSR REGISTER. THE INITIALIZATION
  1655						ALSO CLEARS TXCSR, RXDBUF,AND TXDBUF. THE TEST LOADS 1'S INTO
  1656						RXCSR THEN THE MRESET BIT IS SET TO ONE (SHOULD CAUSE ALL BITS
  1657						EXCEPT DATA SET CHANGE A,CARRIER, AND DATA SET READY TO CLEAR)
  1658						IN RXCSR. IF THE RESULTS ARE NOT AS SPECIFIED,AN ERROR PRINTOUT
  1659						WILL OCCUR.
  1660						$
  1661						S^;*********************************************************************^
  1662						XLIST
  1663						LIST
  1664
  1665	031543	200 03 0 00 041227 	T.12:	MOVE	3,RXCSR		;ADDRESS WORD
  1666	031544	260 17 0 00 040234 		CSINIT			;PRE-TEST INITIALIZATION
  1667	031545	260 17 0 00 040241 		UBACLR			;CLEAR UNIBUS ADAPTER STATUS
  1668	031546	201 05 0 00 177777 		MOVEI	5,177777	;
  1669	031547	713 05 0 03 000000 		WRIO	5,(3)		;SET ALL BITS IN RXCSR
  1670	031550	201 05 0 00 000400 		MOVEI	5,MRESET	;
  1671	031551	200 03 0 00 041235 		MOVE	3,TXCSR		;ADDRESS OF TXCSR REGISTER
  1672	031552	714 05 0 03 000000 		BSIO	5,(3)		;SET MRESET
  1673	031553	200 03 0 00 041227 		MOVE	3,RXCSR		;ADDRESS OF RXCSR REGISTER
  1674	031554	505 01 0 00 377777 		HRLI	1,377777
  1675	031555	660 01 0 00 777700 		TRO	1,777700
  1676	031556	345 01 0 00 031556 	T.12B:	AOJGE	1,T.12B		;SHORT DELAY
  1677	031557	403 01 0 00 000002 		SETZB	1,2		;INITIALIZE INDEX REG,WHAT WE EXPECT
  1678	031560	400 05 0 00 000000 		SETZ	5,		;INITIALIZE RECIEVING REG
  1679	031561	712 05 0 03 000000 		RDIO	5,(3)		;NOW READ RESULTS PREVIOUSLY SETUP
  1680	031562	434 02 0 00 000005 		IOR	2,5		;FORM CORRECT DATA
  1681	031563	620 02 0 00 024776 		TRZ	2,24776
  1682	031564	602 05 0 00 024776 		TRNE	5,24776		;TEST RESULTS BITS 13,11,08-01
  1683						ERROR	(T.12,13,2,5,TEST.12,<RXCSR CLR TST(10-08,04-00)NOT CLEAR>,PRTSTA)^
  1684	031565	036 13 0 00 044116
  1685	031566	035 00 0 00 031543 		ERLOOP	T.12		;IF ERROR, LOOP TO T.12
  1686						NXTTST	(12,13)^
  1687	031567	201 05 0 00 000012 		MOVEI	5,12		;GET CURRENT TEST #
  1688	031570	260 17 0 00 040245 		GO	$NXTST		;GO CHECK SWITCHES
  1689	031571	254 00 0 00 031543 		JRST	T.12		;REPEAT SAME TEST
  1690	031572	201 05 0 00 031575 		MOVEI	5,T.13		;GET NXT TEST #
  1691	031573	202 05 0 00 030051 		MOVEM	5,TESTPC	;SAVE ADRS FOR PC
  1692	031574	254 00 0 00 031575 		JRST	T.13		;GO TO NEXT TEST^
  1693
DSDUA DECSYSTEM 2020 DUP-11 DIAGNOSTIC VERSION 0,2	MACRO %53(1020) 08:16 15-Jun-79 Page 18
DSDUAM	MAC	14-Jun-79 16:28		*STATIC LOGIC TESTS -- .1-.155                                                     SEQ 0078

  1694						XLIST
  1695						LIST
  1696						S^;*********************************************************************^
  1697						COMMENT $
  1698						 TEST.13-- *RXCSR CLEAR TEST (UBINIT)*
  1699						    THIS TEST INITIALIZES THE UNIBUS ADAPTER STATUS REGISTER
  1700						TO ZEROS,INITIALIZES THE RXCSR REGISTER. THE INITIALIZATION
  1701						ALSO CLEARS TXCSR,RXDBUF,AND TXDBUF. THE TEST LOADS 1'S INTO
  1702						RXCSR NEXT THE UNIBUS ADAPTER STATUS REGISTER INIT BIT (BIT 29)
  1703						IS SET. THIS ACTION RESULTS IN UNIBUS INIT WHICH SHOULD CAUSE
  1704						RXCSR TO CLEAR.IF THE RESULTS ARE NOT AS SPECIFIED,AN ERROR
  1705						PRINTOUT WILL OCCUR.
  1706						$
  1707						S^;*********************************************************************^
  1708						XLIST
  1709						LIST
  1710
  1711	031575	200 03 0 00 041227 	T.13:	MOVE	3,RXCSR		;ADDRESS WORD
  1712	031576	260 17 0 00 040234 		CSINIT			;PRE-TEST INITIALIZATION
  1713	031577	260 17 0 00 040241 		UBACLR			;CLEAR UNIBUS ADAPTER STATUS
  1714	031600	201 05 0 00 177777 		MOVEI	5,177777	;
  1715	031601	713 05 0 03 000000 		WRIO	5,(3)		;SET ALL BITS IN RXCSR
  1716	031602	505 01 0 00 377777 		HRLI	1,377777
  1717	031603	660 01 0 00 777700 		TRO	1,777700
  1718	031604	345 01 0 00 031604 	T.13B:	AOJGE	1,T.13B		;SHORT DELAY
  1719	031605	403 01 0 00 000002 		SETZB	1,2		;INITIALIZE INDEX REG,WHAT WE EXPECT
  1720	031606	400 05 0 00 000000 		SETZ	5,		;
  1721	031607	201 05 0 00 000100 		MOVEI	5,UBINIT	;ADAPTER INIT BIT
  1722	031610	200 04 0 00 041221 		MOVE	4,UASTAT	;STATUS ADDRESS (ADAPTER)
  1723	031611	713 05 0 04 000000 		WRIO	5,(4)		;SET UBINIT IN ADAPTER
  1724	031612	400 05 0 00 000000 		SETZ	5,
  1725	031613	712 05 0 03 000000 		RDIO	5,(3)		;NOW READ RESULTS PREVIOUSLY SETUP
  1726	031614	434 02 0 00 000005 		IOR	2,5		;FORM CORRECT DATA
  1727	031615	620 02 0 00 024776 		TRZ	2,24776
  1728	031616	602 05 0 00 024776 		TRNE	5,24776		;TEST RESULTS BITS 13,11,08-01
  1729						ERROR	(T.13,13,2,5,TEST.13,<RXCSR CLR TST(10-08,04-00)NOT CLEAR>,PRTSTA)^
  1730	031617	036 13 0 00 044123
  1731	031620	035 00 0 00 031575 		ERLOOP	T.13		;IF ERROR, LOOP TO T.13
  1732						NXTTST	(13,14)^
  1733	031621	201 05 0 00 000013 		MOVEI	5,13		;GET CURRENT TEST #
  1734	031622	260 17 0 00 040245 		GO	$NXTST		;GO CHECK SWITCHES
  1735	031623	254 00 0 00 031575 		JRST	T.13		;REPEAT SAME TEST
  1736	031624	201 05 0 00 031627 		MOVEI	5,T.14		;GET NXT TEST #
  1737	031625	202 05 0 00 030051 		MOVEM	5,TESTPC	;SAVE ADRS FOR PC
  1738	031626	254 00 0 00 031627 		JRST	T.14		;GO TO NEXT TEST^
  1739
DSDUA DECSYSTEM 2020 DUP-11 DIAGNOSTIC VERSION 0,2	MACRO %53(1020) 08:16 15-Jun-79 Page 19
DSDUAM	MAC	14-Jun-79 16:28		*STATIC LOGIC TESTS -- .1-.155                                                     SEQ 0079

  1740						XLIST
  1741						LIST
  1742						S^;*********************************************************************^
  1743						COMMENT $
  1744						 TEST.14-- *TXDBUF REGISTER R/W TEST*
  1745							THIS TEST INITIALIZES THE UNIBUS ADAPTER
  1746						STATUS REGISTER TO ZEROS,INITIALIZES THE TXDBUF
  1747						REGISTER AND THEN WRITES A FLOATING PATTERN THRU
  1748						THIS REGISTER. AFTER EACH PATTERN IS WRITTEN IT
  1749						IS READ BACK AND CHECKED. IF THE PATTERN WRITTEN
  1750						AND THE CORRESPONDING RESULT READBACK IS NOT THE
  1751						SAME,AN ERROR PRINTOUT OCCURS.
  1752						$
  1753						S^;*********************************************************************^
  1754						XLIST
  1755						LIST
  1756
  1757	031627	200 03 0 00 041240 	T.14:	MOVE	3,TXDBUF	;ADDRESS OF TXDBUF REG.
  1758	031630	260 17 0 00 040234 		CSINIT			;PRE-TEST INITIALIZATION
  1759	031631	200 04 0 00 042077 		MOVE	4,T14L		;POS-LIST LENGTH
  1760	031632	201 02 0 00 042077 		MOVEI	2,T14L		;ADDRESS-1 OF LIST
  1761	031633	271 02 0 00 000001 	T.14A:	ADDI	2,1		;ADDRESS OF FIRST PATTERN
  1762	031634	260 17 0 00 040241 		UBACLR			;CLEAR UNIBUS STATUS
  1763	031635	200 05 0 02 000000 		MOVE	5,0(2)		;PATTERN INTO AC5
  1764	031636	202 05 0 00 041225 		MOVEM	5,GDDAT		;COPY OF CURRENT PATTERN
  1765	031637	713 05 0 03 000000 		WRIO	5,(3)		;WRITE PATTERN INTO BUSADR
  1766	031640	505 01 0 00 377777 		HRLI	1,377777
  1767	031641	660 01 0 00 777700 		TRO	1,777700
  1768	031642	345 01 0 00 031642 	T.14B:	AOJGE	1,T.14B		;SHORT DELAY
  1769	031643	403 01 0 00 000005 		SETZB	1,5		;INITIALIZE INDEX REG,RECIEVING REG
  1770	031644	712 05 0 03 000000 		RDIO	5,(3)		;READ PATTERN INTO AC5
  1771	031645	620 05 0 00 174000 		TRZ	5,174000	;MASK OUT READ ONLY BITS
  1772	031646	312 05 0 00 041225 		CAME	5,GDDAT		;COMPARE DATA READ TO GDDAT
  1773						ERROR	(T.14,13,GDDAT,5,TEST.14,TXDBUF R/W TEST,PRTSTA)^
  1774	031647	036 13 0 00 044133
  1775	031650	035 00 0 00 031627 		ERLOOP	T.14		;IF ERROR, LOOP TO T.14
  1776	031651	367 04 0 00 031633 		SOJG	4,T.14A		;LIST DONE?-JUMP IF NOT
  1777						NXTTST	(14,15)^
  1778	031652	201 05 0 00 000014 		MOVEI	5,14		;GET CURRENT TEST #
  1779	031653	260 17 0 00 040245 		GO	$NXTST		;GO CHECK SWITCHES
  1780	031654	254 00 0 00 031627 		JRST	T.14		;REPEAT SAME TEST
  1781	031655	201 05 0 00 031660 		MOVEI	5,T.15		;GET NXT TEST #
  1782	031656	202 05 0 00 030051 		MOVEM	5,TESTPC	;SAVE ADRS FOR PC
  1783	031657	254 00 0 00 031660 		JRST	T.15		;GO TO NEXT TEST^
  1784
DSDUA DECSYSTEM 2020 DUP-11 DIAGNOSTIC VERSION 0,2	MACRO %53(1020) 08:16 15-Jun-79 Page 20
DSDUAM	MAC	14-Jun-79 16:28		*STATIC LOGIC TESTS -- .1-.155                                                     SEQ 0080

  1785						XLIST
  1786						LIST
  1787						S^;*********************************************************************^
  1788						COMMENT $
  1789						 TEST.15-- *TXDBUF CLEAR TEST (MRESET)*
  1790							THIS TEST INITIALIZES THE UNIBUS ADAPTER
  1791						STATUS REGISTER TO ZEROS,INITIALIZES THE TXCSR
  1792						REGISTER. THE INITIALIZATION ALSO CLEARS RXCSR,
  1793						RXDBUF,AND TXDBUF. THE TEST LOADS 1'S INTO TXDBUF
  1794						THEN THE MRESET BIT IS SET TO ONE. THIS SHOULD
  1795						RESULT IN THE TXDBUF REGISTER BEING CLEARED. IF
  1796						THE RESULTS ARE NOT AS SPECIFIED,AN ERROR PRINTOUT
  1797						WILL OCCUR.
  1798						$
  1799						S^;*********************************************************************^
  1800						XLIST
  1801						LIST
  1802
  1803	031660	200 03 0 00 041240 	T.15:	MOVE	3,TXDBUF	;ADDRESS OF TXDBUF REGISTER
  1804	031661	260 17 0 00 040234 		CSINIT			;PRE-TEST INITIALIZATION
  1805	031662	260 17 0 00 040241 		UBACLR			;CLEAR UNIBUS ADAPTER STATUS
  1806	031663	201 05 0 00 177777 		MOVEI	5,177777	;
  1807	031664	713 05 0 03 000000 		WRIO	5,(3)		;SET ALL BITS IN TXDBUF
  1808	031665	201 05 0 00 000400 		MOVEI	5,MRESET	;
  1809	031666	200 03 0 00 041235 		MOVE	3,TXCSR		;ADDRESS OF TXCSR REGISTER
  1810	031667	714 05 0 03 000000 		BSIO	5,(3)		;SET MRESET
  1811	031670	200 03 0 00 041240 		MOVE	3,TXDBUF	;ADDRESS OF TXDBUF
  1812	031671	505 01 0 00 377777 		HRLI	1,377777
  1813	031672	660 01 0 00 777700 		TRO	1,777700
  1814	031673	345 01 0 00 031673 	T.15B:	AOJGE	1,T.15B		;SHORT DELAY
  1815	031674	403 01 0 00 000002 		SETZB	1,2		;INITIALIZE INDEX REG,WHAT WE EXPECT
  1816	031675	400 05 0 00 000000 		SETZ	5,		;INITIALIZE RECIEVING REG
  1817	031676	712 05 0 03 000000 		RDIO	5,(3)		;NOW READ RESULTS PREVIOUSLY SETUP
  1818	031677	602 05 0 00 177777 		TRNE	5,177777	;TEST RESULTS BITS 15-00
  1819						ERROR	(T.15,13,2,5,TEST.15,TXDBUF CLR TST(15-00)NOT CLEAR,PRTSTA)^
  1820	031700	036 13 0 00 044146
  1821	031701	035 00 0 00 031660 		ERLOOP	T.15		;IF ERROR, LOOP TO T.15
  1822						NXTTST	(15,16)^
  1823	031702	201 05 0 00 000015 		MOVEI	5,15		;GET CURRENT TEST #
  1824	031703	260 17 0 00 040245 		GO	$NXTST		;GO CHECK SWITCHES
  1825	031704	254 00 0 00 031660 		JRST	T.15		;REPEAT SAME TEST
  1826	031705	201 05 0 00 031710 		MOVEI	5,T.16		;GET NXT TEST #
  1827	031706	202 05 0 00 030051 		MOVEM	5,TESTPC	;SAVE ADRS FOR PC
  1828	031707	254 00 0 00 031710 		JRST	T.16		;GO TO NEXT TEST^
  1829
DSDUA DECSYSTEM 2020 DUP-11 DIAGNOSTIC VERSION 0,2	MACRO %53(1020) 08:16 15-Jun-79 Page 21
DSDUAM	MAC	14-Jun-79 16:28		*STATIC LOGIC TESTS -- .1-.155                                                     SEQ 0081

  1830						XLIST
  1831						LIST
  1832						S^;*********************************************************************^
  1833						COMMENT $
  1834						 TEST.16-- *TXDBUF CLEAR TEST (UBINIT)*
  1835							THIS TEST INITIALIZES THE UNIBUS ADAPTER
  1836						STATUS REGISTER TO ZEROS,INITIALIZES THE TXDBUF
  1837						REGISTER. THE INITIALIZATION ALSO CLEARS RXCSR,
  1838						RXDBUF,AND TXCSR. THE TEST LOADS 1'S INTO TXDBUF
  1839						NEXT THE UNIBUS ADAPTER STATUS REGISTER INIT BIT
  1840						(BIT 29) IS SET. THIS ACTION RESULTS IN UNIBUS
  1841						INIT WHICH SHOULD CAUSE TXDBUF TO CLEAR 15-00.
  1842						IF THE RESULTS ARE NOT AS SPECIFIED,AN ERROR
  1843						PRINTOUT WILL OCCUR.
  1844						$
  1845						S^;*********************************************************************^
  1846						XLIST
  1847						LIST
  1848
  1849	031710	200 03 0 00 041240 	T.16:	MOVE	3,TXDBUF	;ADDRESS OF TXDBUF REG
  1850	031711	260 17 0 00 040234 		CSINIT			;PER-TEST INITIALIZATION
  1851	031712	260 17 0 00 040241 		UBACLR			;CLEAR UNIBUS ADAPTER STATUS
  1852	031713	201 05 0 00 177777 		MOVEI	5,177777	;
  1853	031714	713 05 0 03 000000 		WRIO	5,(3)		;SET ALL BITS IN TXDBUF
  1854	031715	505 01 0 00 377777 		HRLI	1,377777
  1855	031716	660 01 0 00 777700 		TRO	1,777700
  1856	031717	345 01 0 00 031717 	T.16B:	AOJGE	1,T.16B		;SHORT DELAY
  1857	031720	403 01 0 00 000002 		SETZB	1,2		;INITIALIZE INDEX REG,WHAT WE EXPECT
  1858	031721	400 05 0 00 000000 		SETZ	5,		;
  1859	031722	201 05 0 00 000100 		MOVEI	5,UBINIT	;ADAPTER INIT BIT
  1860	031723	200 04 0 00 041221 		MOVE	4,UASTAT	;STATUS ADDRESS (ADAPTER)
  1861	031724	713 05 0 04 000000 		WRIO	5,(4)		;SET UBINIT IN ADAPTER
  1862	031725	400 05 0 00 000000 		SETZ	5,		;INITIALIZE RECIEVING REG
  1863	031726	712 05 0 03 000000 		RDIO	5,(3)		;READ RESULTS
  1864	031727	602 05 0 00 177777 		TRNE	5,177777	;TEST RESULTS 15-00
  1865						ERROR	(T.16,13,2,5,TEST.16,TXDBUF CLR TST(15-00)NOT CLEAR,PRTSTA)^
  1866	031730	036 13 0 00 044153
  1867	031731	035 00 0 00 031710 		ERLOOP	T.16		;IF ERROR, LOOP TO T.16
  1868						NXTTST	(16,17)^
  1869	031732	201 05 0 00 000016 		MOVEI	5,16		;GET CURRENT TEST #
  1870	031733	260 17 0 00 040245 		GO	$NXTST		;GO CHECK SWITCHES
  1871	031734	254 00 0 00 031710 		JRST	T.16		;REPEAT SAME TEST
  1872	031735	201 05 0 00 031740 		MOVEI	5,T.17		;GET NXT TEST #
  1873	031736	202 05 0 00 030051 		MOVEM	5,TESTPC	;SAVE ADRS FOR PC
  1874	031737	254 00 0 00 031740 		JRST	T.17		;GO TO NEXT TEST^
  1875
DSDUA DECSYSTEM 2020 DUP-11 DIAGNOSTIC VERSION 0,2	MACRO %53(1020) 08:16 15-Jun-79 Page 22
DSDUAM	MAC	14-Jun-79 16:28		*STATIC LOGIC TESTS -- .1-.155                                                     SEQ 0082

  1876						XLIST
  1877						LIST
  1878						S^;*********************************************************************^
  1879						COMMENT $
  1880						 TEST.17-- *PARCSR/RXDBUF CLEAR TEST (MRESET)*
  1881						   THIS TEST INITIALIZES THE UNIBUS ADAPTER STATUS REGISTER
  1882						TO ZEROS,INITIALIZES THE RXCSR REGISTER. THE INITIALIZATION
  1883						ALSO CLEARS TXCSR,TXDBUF,AND RXDBUF. THE TEST LOADS 1'S INTO
  1884						PARCSR THEN THE MRESET BIT IS SET TO ONE. THIS ACTION SHOULD
  1885						RESULT IN THE CLEARING OF RXDBUF (READ ONLY).BOTH PARCSR AND
  1886						RXDBUF SHARE A COMMON ADDRESS.THEREFORE THIS TEST CHECKS THAT
  1887						WRITING INTO PARCSR (WRITE ONLY) DOESN'T EFFECT THE CLEARED
  1888						RXDBUF REGISTER.IF THE RESULTS ARE NOT AS SPECIFIED,AN ERROR
  1889						PRINTOUT WILL OCCUR.
  1890						$
  1891						S^;*********************************************************************^
  1892						XLIST
  1893						LIST
  1894
  1895	031740	200 03 0 00 041233 	T.17:	MOVE	3,PARCSR	;ADDRESS OF PARCSR REGISTER
  1896	031741	260 17 0 00 040234 		CSINIT			;PRE-TEST INITIALIZATION
  1897	031742	260 17 0 00 040241 		UBACLR			;CLEAR UNIBUS ADAPTER STATUS
  1898	031743	201 05 0 00 177777 		MOVEI	5,177777	;
  1899	031744	713 05 0 03 000000 		WRIO	5,(3)		;SET ALL BITS IN PARCSR
  1900	031745	201 05 0 00 000400 		MOVEI	5,MRESET	;
  1901	031746	200 03 0 00 041235 		MOVE	3,TXCSR		;ADDRESS OF TXCSR REGISTER
  1902	031747	714 05 0 03 000000 		BSIO	5,(3)		;SET MRESET
  1903	031750	200 03 0 00 041233 		MOVE	3,PARCSR	;ADDRESS OF PARCSR REGISTER
  1904	031751	505 01 0 00 377777 		HRLI	1,377777
  1905	031752	660 01 0 00 777700 		TRO	1,777700
  1906	031753	345 01 0 00 031753 	T.17B:	AOJGE	1,T.17B		;SHORT DELAY
  1907	031754	403 01 0 00 000002 		SETZB	1,2		;INITIALIZE INDEX REG,WHAT WE EXPECT
  1908	031755	400 05 0 00 000000 		SETZ	5,		;INITIALIZE RECIEVING REG
  1909	031756	712 05 0 03 000000 		RDIO	5,(3)		;NOW READ RESULTS PREVIOUSLY SETUP
  1910	031757	602 05 0 00 177777 		TRNE	5,177777	;TEST RESULTS BITS 15-00
  1911						ERROR	(T.17,13,2,5,TEST.17,PARCSR/RXDBUF CLR TST(15-00)NOT CLEAR,PRTSTA)^
  1912	031760	036 13 0 00 044167
  1913	031761	035 00 0 00 031740 		ERLOOP	T.17		;IF ERROR, LOOP TO T.17
  1914						NXTTST	(17,20)^
  1915	031762	201 05 0 00 000017 		MOVEI	5,17		;GET CURRENT TEST #
  1916	031763	260 17 0 00 040245 		GO	$NXTST		;GO CHECK SWITCHES
  1917	031764	254 00 0 00 031740 		JRST	T.17		;REPEAT SAME TEST
  1918	031765	201 05 0 00 031770 		MOVEI	5,T.20		;GET NXT TEST #
  1919	031766	202 05 0 00 030051 		MOVEM	5,TESTPC	;SAVE ADRS FOR PC
  1920	031767	254 00 0 00 031770 		JRST	T.20		;GO TO NEXT TEST^
  1921
DSDUA DECSYSTEM 2020 DUP-11 DIAGNOSTIC VERSION 0,2	MACRO %53(1020) 08:16 15-Jun-79 Page 23
DSDUAM	MAC	14-Jun-79 16:28		*STATIC LOGIC TESTS -- .1-.155                                                     SEQ 0083

  1922						XLIST
  1923						LIST
  1924						S^;*********************************************************************^
  1925						COMMENT $
  1926						 TEST.20-- *PARCSR/RXDBUF CLEAR TEST (UBINIT)*
  1927							THIS TEST INITIALIZES THE UNIBUS ADAPTER
  1928						STATUS REGISTER TO ZEROS,INITIALIZES THE RXCSR
  1929						REGISTER. THE INITIALIZATION ALSO CLEARS TXCSR,
  1930						TXDBUF,AND RXDBUF. THE TEST LOADS 1'S INTO PARCSR.
  1931						NEXT THE UNIBUS ADAPTER STATUS REGISTER INIT BIT
  1932						(BIT 29) IS SET. THIS ACTION RESULTS IN UNIBUS
  1933						INIT WHICH SHOULD CAUSE RXDBUF TO CLEAR. IF THE
  1934						RESULTS ARE NOT AS SPECIFIED,AN ERROR PRINTOUT
  1935						OCCURS.
  1936						$
  1937						S^;*********************************************************************^
  1938						XLIST
  1939						LIST
  1940
  1941	031770	200 03 0 00 041233 	T.20:	MOVE	3,PARCSR	;ADDRESS OF PARCSR REG
  1942	031771	260 17 0 00 040234 		CSINIT			;PRE-TEST INITIALIZATION
  1943	031772	260 17 0 00 040241 		UBACLR			;CLEAR UNIBUS ADAPTER STATUS
  1944	031773	201 05 0 00 177777 		MOVEI	5,177777	;
  1945	031774	713 05 0 03 000000 		WRIO	5,(3)		;SET ALL BITS IN PARCSR
  1946	031775	505 01 0 00 377777 		HRLI	1,377777
  1947	031776	660 01 0 00 777700 		TRO	1,777700
  1948	031777	345 01 0 00 031777 	T.20B:	AOJGE	1,T.20B		;SHORT DELAY
  1949	032000	403 01 0 00 000002 		SETZB	1,2		;INITIALIZE INDEX REG,WHAT WE EXPECT
  1950	032001	400 05 0 00 000000 		SETZ	5,
  1951	032002	201 05 0 00 000100 		MOVEI	5,UBINIT	;ADAPTER INIT BIT
  1952	032003	200 04 0 00 041221 		MOVE	4,UASTAT	;STATUS ADDRESS (ADAPTER)
  1953	032004	713 05 0 04 000000 		WRIO	5,(4)		;SET UBINIT IN ADAPTER
  1954	032005	400 05 0 00 000000 		SETZ	5,		;INITIALIZE RECIEVING REG
  1955	032006	712 05 0 03 000000 		RDIO	5,(3)		;READ RESULTS
  1956	032007	602 05 0 00 177777 		TRNE	5,177777	;TEST RESULTS 15-00
  1957						ERROR	(T.20,13,2,5,TEST.20,PARCSR/RXDBUF CLR TST(15-00)NOT CLEAR,PRTSTA)^
  1958	032010	036 13 0 00 044174
  1959	032011	035 00 0 00 031770 		ERLOOP	T.20		;IF ERROR, LOOP TO T.20
  1960						NXTTST	(20,21)^
  1961	032012	201 05 0 00 000020 		MOVEI	5,20		;GET CURRENT TEST #
  1962	032013	260 17 0 00 040245 		GO	$NXTST		;GO CHECK SWITCHES
  1963	032014	254 00 0 00 031770 		JRST	T.20		;REPEAT SAME TEST
  1964	032015	201 05 0 00 032020 		MOVEI	5,T.21		;GET NXT TEST #
  1965	032016	202 05 0 00 030051 		MOVEM	5,TESTPC	;SAVE ADRS FOR PC
  1966	032017	254 00 0 00 032020 		JRST	T.21		;GO TO NEXT TEST^
  1967
DSDUA DECSYSTEM 2020 DUP-11 DIAGNOSTIC VERSION 0,2	MACRO %53(1020) 08:16 15-Jun-79 Page 24
DSDUAM	MAC	14-Jun-79 16:28		*STATIC LOGIC TESTS -- .1-.155                                                     SEQ 0084

  1968						XLIST
  1969						LIST
  1970						S^;*********************************************************************^
  1971						COMMENT $
  1972						 TEST.21-- *PARCSR REGISTER WRITE/RXDBUF READ TEST*
  1973						THIS TEST INITIALIZES THE UNIBUS ADAPTER
  1974						STATUS REGISTER TO ZEROS,INITIALIZES THE
  1975						RXDBUF REGISTER AND THEN WRITES A FLOATING
  1976						PATTERN THRU THE BITS OF THE PARCSR REGISTER.
  1977						AFTER EACH PATTERN IS WRITTEN RXDBUF IS READ,
  1978						AND CHECKED. IF RXDBUF HAS BEEN DISTURBED,
  1979						AN ERROR PRINTOUT RESULTS.
  1980						$
  1981						S^;*********************************************************************^
  1982						XLIST
  1983						LIST
  1984
  1985	032020	200 03 0 00 041233 	T.21:	MOVE	3,PARCSR	;ADDRESS OF PARCSR REG.
  1986	032021	260 17 0 00 040234 		CSINIT			;PRE-TEST INITIALIZATION
  1987	032022	200 04 0 00 042145 		MOVE	4,T17L		;POS-LIST LENGTH
  1988	032023	201 02 0 00 042145 		MOVEI	2,T17L		;ADDRESS-1 OF LIST
  1989	032024	271 02 0 00 000001 	T.21A:	ADDI	2,1		;ADDRESS OF FIRST PATTERN
  1990	032025	260 17 0 00 040241 		UBACLR			;CLEAR UNIBUS STATUS
  1991	032026	200 05 0 02 000000 		MOVE	5,0(2)		;PATTERN INTO AC5
  1992	032027	402 00 0 00 041225 		SETZM	GDDAT		;WHAT WE EXPECT
  1993	032030	713 05 0 03 000000 		WRIO	5,(3)		;WRITE PATTERN INTO PARCSR
  1994	032031	505 01 0 00 377777 		HRLI	1,377777
  1995	032032	660 01 0 00 777700 		TRO	1,777700
  1996	032033	345 01 0 00 032033 	T.21B:	AOJGE	1,T.21B		;SHORT DELAY
  1997	032034	403 01 0 00 000005 		SETZB	1,5		;INITIALIZE INDEX REG,RECIEVING REG
  1998	032035	712 05 0 03 000000 		RDIO	5,(3)		;READ PATTERN INTO AC5
  1999	032036	312 05 0 00 041225 		CAME	5,GDDAT		;COMPARE DATA READ TO GDDAT
  2000						ERROR	(T.21,13,GDDAT,5,TEST.21,PARCSR/W-RXDBUF/R TEST,PRTSTA)^
  2001	032037	036 13 0 00 044205
  2002	032040	035 00 0 00 032020 		ERLOOP	T.21		;IF ERROR, LOOP TO T.21
  2003	032041	367 04 0 00 032024 		SOJG	4,T.21A		;LIST DONE?-JUMP IF NOT
  2004						NXTTST	(21,22)^
  2005	032042	201 05 0 00 000021 		MOVEI	5,21		;GET CURRENT TEST #
  2006	032043	260 17 0 00 040245 		GO	$NXTST		;GO CHECK SWITCHES
  2007	032044	254 00 0 00 032020 		JRST	T.21		;REPEAT SAME TEST
  2008	032045	201 05 0 00 032050 		MOVEI	5,T.22		;GET NXT TEST #
  2009	032046	202 05 0 00 030051 		MOVEM	5,TESTPC	;SAVE ADRS FOR PC
  2010	032047	254 00 0 00 032050 		JRST	T.22		;GO TO NEXT TEST^
  2011
DSDUA DECSYSTEM 2020 DUP-11 DIAGNOSTIC VERSION 0,2	MACRO %53(1020) 08:16 15-Jun-79 Page 25
DSDUAM	MAC	14-Jun-79 16:28		*STATIC LOGIC TESTS -- .1-.155                                                     SEQ 0085

  2012						XLIST
  2013						LIST
  2014						S^;*********************************************************************^
  2015						COMMENT $
  2016						 TEST.22-- *TXCSR REGISTER READ ONLY TEST*
  2017							THIS TEST INITIALIZES THE UNIBUS ADAPTER
  2018						STATUS REGISTER TO ZEROS,INITIALIZES THE TXCSR
  2019						REGISTER AND THEN WRITES A FLOATING PATTERN THRU
  2020						THE "READ ONLY" BITS OF THIS REGISTER. AFTER EACH
  2021						PATTERN IS WRITTEN, THE READ ONLY BITS ARE READ
  2022						BACK AND CHECKED. IF THE RESULT READ BACK FROM
  2023						TXCSR,IS NOT THE SAME AS THE INITIALIZED STATE,
  2024						AN ERROR PRINTOUT OCCURS.
  2025						$
  2026						S^;*********************************************************************^
  2027						XLIST
  2028						LIST
  2029
  2030	032050	200 03 0 00 041235 	T.22:	MOVE	3,TXCSR		;ADDRESS OF TXCSR REG
  2031	032051	260 17 0 00 040234 		CSINIT			;PRE-TEST INITIALIZATION
  2032	032052	200 04 0 00 042031 		MOVE	4,T02AL		;POS-LIST LENGTH
  2033	032053	201 02 0 00 042031 		MOVEI	2,T02AL		;ADDRESS-1 OF LIST
  2034	032054	271 02 0 00 000001 	T.22A:	ADDI	2,1		;ADDRESS OF FIRST PATTERN
  2035	032055	260 17 0 00 040241 		UBACLR			;CLEAR UNIBUS STATUS
  2036	032056	200 05 0 02 000000 		MOVE	5,0(2)		;PATTERN INTO AC5
  2037	032057	402 00 0 00 041225 		SETZM	GDDAT		;EXPECTED = ZEROS
  2038	032060	713 05 0 03 000000 		WRIO	5,(3)		;WRITE PATTERN INTO TXCSR
  2039	032061	505 01 0 00 377777 		HRLI	1,377777
  2040	032062	660 01 0 00 777700 		TRO	1,777700
  2041	032063	345 01 0 00 032063 	T.22B:	AOJGE	1,T.22B		;SHORT DELAY
  2042	032064	403 01 0 00 000005 		SETZB	1,5		;INITIALIZE INDEX,RECIEVING REG
  2043	032065	712 05 0 03 000000 		RDIO	5,(3)		;READ PATTERN INTO AC5
  2044	032066	620 05 0 00 141247 		TRZ	5,141247	;PRESERVE R/W ONLY
  2045	032067	312 05 0 00 041225 		CAME	5,GDDAT		;COMPARE DATA READ TO GDDAT
  2046						ERROR	(T.22,13,GDDAT,5,TEST.22,TXCSR REGISTER READ ONLY TEST,PRTSTA)^
  2047	032070	036 13 0 00 044217
  2048	032071	035 00 0 00 032050 		ERLOOP	T.22		;IF ERROR, LOOP TO T.22
  2049	032072	367 04 0 00 032054 		SOJG	4,T.22A		;LIST DONE?-JUMP IF NOT
  2050						NXTTST	(22,23)^
  2051	032073	201 05 0 00 000022 		MOVEI	5,22		;GET CURRENT TEST #
  2052	032074	260 17 0 00 040245 		GO	$NXTST		;GO CHECK SWITCHES
  2053	032075	254 00 0 00 032050 		JRST	T.22		;REPEAT SAME TEST
  2054	032076	201 05 0 00 032101 		MOVEI	5,T.23		;GET NXT TEST #
  2055	032077	202 05 0 00 030051 		MOVEM	5,TESTPC	;SAVE ADRS FOR PC
  2056	032100	254 00 0 00 032101 		JRST	T.23		;GO TO NEXT TEST^
  2057
DSDUA DECSYSTEM 2020 DUP-11 DIAGNOSTIC VERSION 0,2	MACRO %53(1020) 08:16 15-Jun-79 Page 26
DSDUAM	MAC	14-Jun-79 16:28		*STATIC LOGIC TESTS -- .1-.155                                                     SEQ 0086

  2058						XLIST
  2059						LIST
  2060						S^;*********************************************************************^
  2061						COMMENT $
  2062						 TEST.23-- *RXCSR REGISTER READ ONLY TEST*
  2063							THIS TEST INITIALIZES THE UNIBUS ADAPTER
  2064						STATUS REGISTER TO ZEROS,INITIALIZES THE RXCSR
  2065						REGISTER AND THEN WRITES A FLOATING PATTERN THRU
  2066						THE READ ONLY BITS OF THIS REGISTER. AFTER EACH
  2067						PATTERN IS WRITTEN,THE READ ONLY BITS ARE READ
  2068						AND CHECKED. IF THE RESULT READ BACK IS NOT THE
  2069						SAME AS THE INITIALIZED STATE,AN ERROR PRINTOUT
  2070						OCCURS.
  2071						$
  2072						S^;*********************************************************************^
  2073						XLIST
  2074						LIST
  2075
  2076	032101	200 03 0 00 041227 	T.23:	MOVE	3,RXCSR		;ADDRESS OF RXCSR REG
  2077	032102	260 17 0 00 040234 		CSINIT			;PRE-TEST INITIALIZATION
  2078	032103	200 04 0 00 042064 		MOVE	4,T07AL		;POS-LIST LENGTH
  2079	032104	201 02 0 00 042064 		MOVEI	2,T07AL		;ADDRESS-1 OF LIST
  2080	032105	271 02 0 00 000001 	T.23A:	ADDI	2,1		;ADDRESS OF FIRST PATTERN
  2081	032106	260 17 0 00 040241 		UBACLR			;CLEAR UNIBUS STATUS
  2082	032107	200 05 0 02 000000 		MOVE	5,0(2)		;PATTERN INTO AC5
  2083	032110	402 00 0 00 041225 		SETZM	GDDAT		;EXPECTED = ZEROS
  2084	032111	713 05 0 03 000000 		WRIO	5,(3)		;WRITE PATTERN INTO RXCSR
  2085	032112	505 01 0 00 377777 		HRLI	1,377777
  2086	032113	660 01 0 00 777700 		TRO	1,777700
  2087	032114	345 01 0 00 032114 	T.23B:	AOJGE	1,T.23B		;SHORT DELAY
  2088	032115	403 01 0 00 000005 		SETZB	1,5		;INITIALIZE INDEX,RECIEVING REG
  2089	032116	712 05 0 03 000000 		RDIO	5,(3)		;READ RESULTS INTO AC5
  2090	032117	620 05 0 00 177201 		TRZ	5,177201	;PRESERVE ONLY R/W
  2091	032120	312 05 0 00 041225 		CAME	5,GDDAT		;COMPARE DATA READ TO GDDAT
  2092						ERROR	(T.23,13,GDDAT,5,TEST.23,RXCSR REGISTER READ ONLY TEST,PRTSTA)^
  2093	032121	036 13 0 00 044231
  2094	032122	035 00 0 00 032101 		ERLOOP	T.23		;IF ERROR, LOOP TO T.23
  2095	032123	367 04 0 00 032105 		SOJG	4,T.23A		;LIST DONE?-JUMP IF NOT
  2096						NXTTST	(23,24)^
  2097	032124	201 05 0 00 000023 		MOVEI	5,23		;GET CURRENT TEST #
  2098	032125	260 17 0 00 040245 		GO	$NXTST		;GO CHECK SWITCHES
  2099	032126	254 00 0 00 032101 		JRST	T.23		;REPEAT SAME TEST
  2100	032127	201 05 0 00 032132 		MOVEI	5,T.24		;GET NXT TEST #
  2101	032130	202 05 0 00 030051 		MOVEM	5,TESTPC	;SAVE ADRS FOR PC
  2102	032131	254 00 0 00 032132 		JRST	T.24		;GO TO NEXT TEST^
  2103
DSDUA DECSYSTEM 2020 DUP-11 DIAGNOSTIC VERSION 0,2	MACRO %53(1020) 08:16 15-Jun-79 Page 27
DSDUAM	MAC	14-Jun-79 16:28		*STATIC LOGIC TESTS -- .1-.155                                                     SEQ 0087

  2104						XLIST
  2105						LIST
  2106						S^;*********************************************************************^
  2107						COMMENT $
  2108						 TEST.24-- *TXCSR 0'S DISTURB TEST*
  2109							THIS TEST INITIALIZES TXCSR,RXCSR,TXDBUF,RXDBUF,
  2110						AND UASTAT. A PATTERN IS WRITTEN IN THE TXCSR REGISTER
  2111						AND THEN 0'S ARE WRITTEN INTO ALL OTHER DUP-11 REGISTERS
  2112						ONE REGISTER AT A TIME. THE STATE OF THE REGISTER UNDER
  2113						TEST (TXCSR) IS CHECKED IMMEDIATLY AFTER EACH REGISTER
  2114						IS LOADED WITH 0'S. IF TXCSR IS DISTURBED,AN ERROR
  2115						PRINTOUT OCCURS.
  2116						$
  2117						S^;*********************************************************************^
  2118						XLIST
  2119						LIST
  2120
  2121	032132	201 00 0 00 044234 	T.24:	MOVEI	0,[ASCIZ/STARTING *REGISTER DISTURB TESTING*/]
  2122	032133	037 17 0 00 000000 		PNTAL
  2123	032134	037 01 0 00 030242 		PCRLF
  2124	032135	200 03 0 00 041236 	Z.24:	MOVE	3,TXCSRL	;ADDRESS OF TXCSR REG
  2125	032136	201 05 0 00 036130 		MOVEI	5,36130		;PATTERN
  2126	032137	202 05 0 00 041225 		MOVEM	5,GDDAT		;COPY OF EXPECTED DATA
  2127	032140	400 01 0 00 000000 		SETZ	1,		;INITIALIZE INDEX REG
  2128	032141	260 17 0 00 040234 		CSINIT			;PRE-TEST INITIALIZATION
  2129	032142	200 04 0 00 042203 		MOVE	4,AL00		;POS-LIST LENGHT
  2130	032143	201 02 0 00 042203 		MOVEI	2,AL00		;ADDRESS-1 OF LIST
  2131
  2132	032144	271 02 0 00 000001 	T.24A:	ADDI	2,1		;ADDRESS OF FIRST REGISTER
  2133	032145	260 17 0 00 040241 		UBACLR			;CLEAR UNIBUS STATUS
  2134	032146	713 05 0 03 000000 		WRIO	5,(3)		;WRITE PATTERN IN TXCSR
  2135	032147	400 05 0 00 000000 		SETZ	5,		;FORM DISTURB PATTERN OF 0
  2136	032150	200 06 1 00 000002 		MOVE	6,@2		;LOAD DUP-11 ADDRESS
  2137	032151	200 06 1 00 000006 		MOVE	6,@6		;INTO AC6
  2138	032152	713 05 0 06 000000 		WRIO	5,(6)		;TRY TO DISTURB TXCSR
  2139	032153	505 01 0 00 377777 		HRLI	1,377777
  2140	032154	660 01 0 00 777700 		TRO	1,777700
  2141
  2142	032155	345 01 0 00 032155 	T.24B:	AOJGE	1,T.24B		;SHORT DELAY
  2143	032156	400 01 0 00 000000 		SETZ	1,		;INITIALIZE INDEX REG
  2144	032157	712 05 0 03 000000 		RDIO	5,(3)		;READ BACK ORIGINAL PATTERN
  2145	032160	620 05 0 00 741647 		TRZ	5,741647	;CLEAR EXTRANEOUS BITS-LEAVE ORIGINAL
  2146	032161	312 05 0 00 041225 		CAME	5,GDDAT		;COMPARE GOOD DATA TO ORIGINAL
  2147						ERROR	(T.24,13,GDDAT,5,TEST.24,TXCSR 0'S DISTURB TEST,PRTSTA)^
  2148	032162	036 13 0 00 044252
  2149	032163	035 00 0 00 032132 		ERLOOP	T.24		;IF ERROR, LOOP TO T.24
  2150	032164	367 04 0 00 032144 		SOJG	4,T.24A		;LIST DONE?-JUMP IF NOT
  2151						NXTTST	(24,25)^
  2152	032165	201 05 0 00 000024 		MOVEI	5,24		;GET CURRENT TEST #
  2153	032166	260 17 0 00 040245 		GO	$NXTST		;GO CHECK SWITCHES
  2154	032167	254 00 0 00 032132 		JRST	T.24		;REPEAT SAME TEST
  2155	032170	201 05 0 00 032173 		MOVEI	5,T.25		;GET NXT TEST #
  2156	032171	202 05 0 00 030051 		MOVEM	5,TESTPC	;SAVE ADRS FOR PC
  2157	032172	254 00 0 00 032173 		JRST	T.25		;GO TO NEXT TEST^
  2158
DSDUA DECSYSTEM 2020 DUP-11 DIAGNOSTIC VERSION 0,2	MACRO %53(1020) 08:16 15-Jun-79 Page 28
DSDUAM	MAC	14-Jun-79 16:28		*STATIC LOGIC TESTS -- .1-.155                                                     SEQ 0088

  2159						XLIST
  2160						LIST
  2161						S^;*********************************************************************^
  2162						COMMENT $
  2163						 TEST.25-- *TXDBUF 0'S DISTURB TEST*
  2164							THIS TEST INITIALIZES TXCSR,RXCSR,TXDBUF, RXDBUF,AND
  2165						UASTAT.A PATTERN IS WRITTEN IN TXDBUF AND THEN 0'S ARE  WRITTEN
  2166						INTO ALL OTHER DUP-11 REGISTERS ONE REGISTER AT A TIME.THE
  2167						STATE OF THE REGISTER UNDER TEST (TXDBUF) IS CHECKED IMMEDIATLY
  2168						AFTER EACH REGISTER IS LOADED WITH 0'S. IF TXDBUF IS DISTURBED
  2169						AN ERROR PRINTOUT OCCURS.
  2170						$
  2171						S^;*********************************************************************^
  2172						XLIST
  2173						LIST
  2174
  2175	032173	200 03 0 00 041240 	T.25:	MOVE	3,TXDBUF	;ADDRESS OF TXDBUF REG
  2176	032174	201 05 0 00 002777 		MOVEI	5,2777		;PATTERN
  2177	032175	202 05 0 00 041225 		MOVEM	5,GDDAT		;COPY OF EXPECTED DATA
  2178	032176	400 01 0 00 000000 		SETZ	1,		;INITIALIZE INDEX REG
  2179	032177	260 17 0 00 040234 		CSINIT			;PRE-TEST INITIALIZATION
  2180	032200	200 04 0 00 042207 		MOVE	4,AL01		;POS-LIST LENGTH
  2181	032201	201 02 0 00 042207 		MOVEI	2,AL01		;ADDRESS-1 OF LIST
  2182	032202	271 02 0 00 000001 	T.25A:	ADDI	2,1		;ADDRESS OF FIRST REGISTER
  2183	032203	260 17 0 00 040241 		UBACLR			;CLEAR UNIBUS STATUS
  2184	032204	713 05 0 03 000000 		WRIO	5,(3)		;WRITE PATTERN IN TXDBUF
  2185	032205	400 05 0 00 000000 		SETZ	5,		;FORM DISTURB PATTERN OF 0
  2186	032206	200 06 1 00 000002 		MOVE	6,@2		;LOAD DUP-11 ADDRESS
  2187	032207	200 06 1 00 000006 		MOVE	6,@6		;INTO AC6
  2188	032210	713 05 0 06 000000 		WRIO	5,(6)		;TRY TO DISTURB TXDBUF
  2189	032211	505 01 0 00 377777 		HRLI	1,377777
  2190	032212	660 01 0 00 777700 		TRO	1,777700
  2191	032213	345 01 0 00 032213 	T.25B:	AOJGE	1,T.25B		;SHORT DELAY
  2192	032214	400 01 0 00 000000 		SETZ	1,		;INITIALIZE INDEX REG
  2193	032215	712 05 0 03 000000 		RDIO	5,(3)		;READ BACK ORIGINAL PATTERN
  2194	032216	620 05 0 00 014000 		TRZ	5,014000	;CLEAR EXTRANEOUS BITS-LEAVE REST AS IS
  2195	032217	312 05 0 00 041225 		CAME	5,GDDAT		;COMPARE GOOD DATA TO THAT READ
  2196						ERROR	(T.25,13,GDDAT,5,TEST.25,TXDBUF 0'S DISTURB TEST,PRTSTA)^
  2197	032220	036 13 0 00 044263
  2198	032221	035 00 0 00 032173 		ERLOOP	T.25		;IF ERROR, LOOP TO T.25
  2199	032222	367 04 0 00 032202 		SOJG	4,T.25A		;LIST DONE?-JUMP IF NOT
  2200						NXTTST	(25,26)^
  2201	032223	201 05 0 00 000025 		MOVEI	5,25		;GET CURRENT TEST #
  2202	032224	260 17 0 00 040245 		GO	$NXTST		;GO CHECK SWITCHES
  2203	032225	254 00 0 00 032173 		JRST	T.25		;REPEAT SAME TEST
  2204	032226	201 05 0 00 032231 		MOVEI	5,T.26		;GET NXT TEST #
  2205	032227	202 05 0 00 030051 		MOVEM	5,TESTPC	;SAVE ADRS FOR PC
  2206	032230	254 00 0 00 032231 		JRST	T.26		;GO TO NEXT TEST^
  2207
DSDUA DECSYSTEM 2020 DUP-11 DIAGNOSTIC VERSION 0,2	MACRO %53(1020) 08:16 15-Jun-79 Page 29
DSDUAM	MAC	14-Jun-79 16:28		*STATIC LOGIC TESTS -- .1-.155                                                     SEQ 0089

  2208						XLIST
  2209						LIST
  2210						S^;*********************************************************************^
  2211						COMMENT $
  2212						 TEST.26-- *RXCSR 0'S DISTURB TEST*
  2213							THIS TEST INITIALIZES TXCSR,RXCSR,TXDBUF,
  2214						RXDBUF,,AND UASTAT. A PATTERN IS WRITTEN IN
  2215						RXCSR AND THEN 0'S ARE WRITTEN INTO ALL OTHER
  2216						DUP-11 REGISTERS,ONE REGISTER AT A TIME. THE STATE
  2217						OF THE REGISTER UNDER TEST (RXCSR) IS CHECKED
  2218						IMMEDIATLY AFTER EACH REGISTER IS LOADED WITH
  2219						0'S. IF RXCSR IS DISTURBED,AN ERROR PRINTOUT
  2220						OCCURS. TO TEST DETECTION OF DATA SET READY (0),
  2221						POWER DOWN THE MODEM AND THEN RUN TEST .26.
  2222						THE TEST WILL FAIL WITH DATA SET READY AS A
  2223						DISCREPANCY.
  2224						$
  2225						S^;*********************************************************************^
  2226						XLIST
  2227						LIST
  2228
  2229
  2230	032231	200 03 0 00 041227 	T.26:	MOVE	3,RXCSR		;ADDRESS OF RXCSR REG
  2231	032232	201 05 0 00 001576 		MOVEI	5,1576		;PATTERN
  2232	032233	202 05 0 00 041225 		MOVEM	5,GDDAT		;COPY OF EXPECTED DATA
  2233	032234	400 01 0 00 000000 		SETZ	1,		;INITIALIZE INDEX REG
  2234	032235	260 17 0 00 040234 		CSINIT			;PRE-TEST INITIALIZATION
  2235	032236	200 04 0 00 042213 		MOVE	4,AL02		;POS-LIST LENGTH
  2236	032237	201 02 0 00 042213 		MOVEI	2,AL02		;ADDRESS-1 OF LIST
  2237
  2238	032240	271 02 0 00 000001 	T.26A:	ADDI	2,1		;ADDRESS OF FIRST REGISTER
  2239	032241	260 17 0 00 040241 		UBACLR			;CLEAR UNIBUS STATUS
  2240	032242	713 05 0 03 000000 		WRIO	5,(3)		;WRITE PATTERN IN RXCSR
  2241	032243	400 05 0 00 000000 		SETZ	5,		;FORM DISTURB PATTERN OF 0
  2242	032244	200 06 1 00 000002 		MOVE	6,@2		;LOAD DUP-11 ADDRESS
  2243	032245	200 06 1 00 000006 		MOVE	6,@6		;INTO AC6
  2244	032246	713 05 0 06 000000 		WRIO	5,(6)		;TRY TO DISTURB RXCSR
  2245	032247	505 01 0 00 377777 		HRLI	1,377777
  2246	032250	660 01 0 00 777700 		TRO	1,777700
  2247
  2248	032251	345 01 0 00 032251 	T.26B:	AOJGE	1,T.26B			;SHORT DELAY
  2249	032252	400 01 0 00 000000 		SETZ	1,		;INITIALIZE INDEX REG
  2250	032253	712 05 0 03 000000 		RDIO	5,(3)		;READ BACK ORIGINAL PATTERN
  2251	032254	620 05 0 00 176201 		TRZ	5,176201	;CLEAR READ ONLY EXCEPT BIT 09
  2252	032255	312 05 0 00 041225 		CAME	5,GDDAT		;COMPARE GOOD DATA WITH ORIGINAL
  2253						ERROR	(T.26,13,GDDAT,5,TEST.26,RXCSR 0'S DISTURB TEST,PRTSTA)^
  2254	032256	036 13 0 00 044274
  2255	032257	035 00 0 00 032231 		ERLOOP	T.26		;IF ERROR, LOOP TO T.26
  2256	032260	367 04 0 00 032240 		SOJG	4,T.26A		;LIST DONE?-JUMP IF NOT
  2257						NXTTST	(26,27)^
  2258	032261	201 05 0 00 000026 		MOVEI	5,26		;GET CURRENT TEST #
  2259	032262	260 17 0 00 040245 		GO	$NXTST		;GO CHECK SWITCHES
  2260	032263	254 00 0 00 032231 		JRST	T.26		;REPEAT SAME TEST
  2261	032264	201 05 0 00 032267 		MOVEI	5,T.27		;GET NXT TEST #
  2262	032265	202 05 0 00 030051 		MOVEM	5,TESTPC	;SAVE ADRS FOR PC
DSDUA DECSYSTEM 2020 DUP-11 DIAGNOSTIC VERSION 0,2	MACRO %53(1020) 08:16 15-Jun-79 Page 29-1
DSDUAM	MAC	14-Jun-79 16:28		*STATIC LOGIC TESTS -- .1-.155                                                     SEQ 0090

  2263	032266	254 00 0 00 032267 		JRST	T.27		;GO TO NEXT TEST^
  2264
DSDUA DECSYSTEM 2020 DUP-11 DIAGNOSTIC VERSION 0,2	MACRO %53(1020) 08:16 15-Jun-79 Page 30
DSDUAM	MAC	14-Jun-79 16:28		*STATIC LOGIC TESTS -- .1-.155                                                     SEQ 0091

  2265						XLIST
  2266						LIST
  2267						S^;*********************************************************************^
  2268						COMMENT $
  2269						 TEST.27-- *RXDBUF 0'S DISTURB TEST*
  2270							THIS TEST INITIALIZES TXCSR,RXCSR,TXDBUF,
  2271						RXDBUF,AND UASTAT. A PATTERN IS WRITTEN IN
  2272						PARCSR AND THEN 0'S ARE WRITTEN INTO ALL
  2273						OTHER DUP-11 REGISTERS ONE REGISTER AT A
  2274						TIME. THE STATE OF THE REGISTER UNDER TEST
  2275						(RXDBUF) IS CHECKED IMMEDIATLY AFTER EACH
  2276						REGISTER IS LOADED WITH 0'S. IF RXDBUF IS
  2277						DISTURBED,AN ERROR PRINTOUT OCCURS.
  2278						$
  2279						S^;*********************************************************************^
  2280						XLIST
  2281						LIST
  2282
  2283	032267	200 03 0 00 041233 	T.27:	MOVE	3,PARCSR	;ADDRESS OF PARCSR REG
  2284	032270	201 05 0 00 000000 		MOVEI	5,0		;PATTERN
  2285	032271	202 05 0 00 041225 		MOVEM	5,GDDAT		;COPY OF EXPECTED DATA
  2286	032272	400 01 0 00 000000 		SETZ	1,		;INITIALIZE INDEX REG
  2287	032273	260 17 0 00 040234 		CSINIT			;PRE-TEST INITIALIZATION
  2288	032274	200 04 0 00 042217 		MOVE	4,AL03		;POS-LIST LENGTH
  2289	032275	201 02 0 00 042217 		MOVEI	2,AL03		;ADDRESS-1 OF LIST
  2290
  2291	032276	271 02 0 00 000001 	T.27A:	ADDI	2,1		;ADDRESS OF FIRST REGISTER
  2292	032277	260 17 0 00 040241 		UBACLR			;CLEAR UNIBUS STATUS
  2293	032300	713 05 0 03 000000 		WRIO	5,(3)		;WRITE PATTERN IN PARCSR
  2294	032301	400 05 0 00 000000 		SETZ	5,		;FORM DISTURB PATTERN OF 0
  2295	032302	200 06 1 00 000002 		MOVE	6,@2		;LOAD DUP-11 ADDRESS
  2296	032303	200 06 1 00 000006 		MOVE	6,@6		;INTO AC6
  2297	032304	713 05 0 06 000000 		WRIO	5,(6)		;TRY TO DISTURB RXDBUF
  2298	032305	505 01 0 00 377777 		HRLI	1,377777
  2299	032306	660 01 0 00 777700 		TRO	1,777700
  2300
  2301	032307	345 01 0 00 032307 	T.27B:	AOJGE	1,T.27B		;SHORT DELAY
  2302	032310	400 01 0 00 000000 		SETZ	1,		;INITIALIZE INDEX REG
  2303	032311	712 05 0 03 000000 		RDIO	5,(3)		;READ BACK PATTERN
  2304	032312	312 05 0 00 041225 		CAME	5,GDDAT		;COMPARE GOOD DATA TO ORIGINAL
  2305						ERROR	(T.27,13,GDDAT,5,TEST.27,RXDBUF 0'S DISTURB TEST,PRTSTA)^
  2306	032313	036 13 0 00 044305
  2307	032314	035 00 0 00 032267 		ERLOOP	T.27		;IF ERROR, LOOP TO T.27
  2308	032315	367 04 0 00 032276 		SOJG	4,T.27A		;LIST DONE?-JUMP IF NOT
  2309						NXTTST	(27,30)^
  2310	032316	201 05 0 00 000027 		MOVEI	5,27		;GET CURRENT TEST #
  2311	032317	260 17 0 00 040245 		GO	$NXTST		;GO CHECK SWITCHES
  2312	032320	254 00 0 00 032267 		JRST	T.27		;REPEAT SAME TEST
  2313	032321	201 05 0 00 032324 		MOVEI	5,T.30		;GET NXT TEST #
  2314	032322	202 05 0 00 030051 		MOVEM	5,TESTPC	;SAVE ADRS FOR PC
  2315	032323	254 00 0 00 032324 		JRST	T.30		;GO TO NEXT TEST^
  2316
DSDUA DECSYSTEM 2020 DUP-11 DIAGNOSTIC VERSION 0,2	MACRO %53(1020) 08:16 15-Jun-79 Page 31
DSDUAM	MAC	14-Jun-79 16:28		*STATIC LOGIC TESTS -- .1-.155                                                     SEQ 0092

  2317						XLIST
  2318						LIST
  2319						S^;*********************************************************************^
  2320						COMMENT $
  2321						 TEST.30-- *SYSTEM TEST MODE/FREE RUNNING CLOCK TEST*
  2322							THIS TEST INITIALIZES THE UNIBUS ADAPTER STATUS
  2323						REGISTER TO ZEROS,INITIALIZES THE TXCSR REGISTER. THE
  2324						INITIALIZATION ALSO CLEARS RXCSR,RXDBUF,AND TXDBUF. MAINT
  2325						MODE SEL A (TXCSR BIT 11) IS SET. THIS ENABLES TXDBUF 'MAINT
  2326						TIMER' TO BE ALTERNATELY SET AND CLEARED EACH 100 MICRO-
  2327						SECONDS BY AN INTERNAL FREE-RUNNING CLOCK. THE TEST VERIFIES
  2328						THAT THE 'MAINT TIMER' BOTH SETS AND CLEARS AS A FUNCTION OF
  2329						THE CLOCK. IF THE 'MAINT TIMER' FAILS TO DO SO AN ERROR
  2330						PRINTOUT OCCURS.
  2331						$
  2332						S^;*********************************************************************^
  2333						XLIST
  2334						LIST
  2335	032324	201 00 0 00 044310 	T.30:	MOVEI	0,[ASCIZ/STARTING *INTERNAL MAINTENANCE MODE (TRANSMITTER) TESTING*/]
  2336	032325	037 17 0 00 000000 		PNTAL
  2337	032326	037 01 0 00 030242 		PCRLF
  2338	032327	260 17 0 00 040234 	Z.30:	CSINIT			;PRE-TEST INITIALIZATION
  2339	032330	260 17 0 00 040241 		UBACLR			;CLEAR OUT UNIBUS ADAPTER
  2340	032331	402 00 0 00 041007 		SETZM	XTEMP1		;INITIALIZE COUNTER
  2341	032332	201 06 0 00 004000 		MOVEI	6,SYSTST	;PREPARE TO ENTER SYSTEM
  2342									;TEST MODE AND START CLOCK
  2343	032333	200 03 0 00 041236 		MOVE	3,TXCSRL	;ADDRESS OF TXCSR REG
  2344	032334	713 06 0 03 000000 		WRIO	6,(3)		;START CLOCK
  2345	032335	200 03 0 00 041240 	T.30A:	MOVE	3,TXDBUF	;ADDRESS OF TXDBUFFER REG
  2346	032336	201 05 0 00 004000 		MOVEI	5,TIMER		;MAINT TIMER BIT
  2347	032337	711 05 0 03 000000 		TION	5,(3)		;TEST BIT
  2348	032340	254 00 0 00 032345 		JRST	ER30A+1		;BIT IS CLEAR JUMP
  2349	032341	350 00 0 00 041007 		AOS	XTEMP1		;BIT IS SET - INCREMENT COUNT
  2350	032342	200 00 0 00 041007 		MOVE	0,XTEMP1	;GET CURRENT COUNT
  2351	032343	325 00 0 00 032335 		JUMPGE	0,T.30A		;JUMP IF NEGATIVE COUNT
  2352	032344				ER30A:	ERROR	(T.30,13,0,0,TEST.30,MAINT TIMER BIT FAILED TO CLEAR,PRTSTA)^
  2353	032344	036 13 0 00 044334
  2354	032345	035 00 0 00 032324 		ERLOOP	T.30		;IF ERROR, LOOP TO T.30
  2355	032346	402 00 0 00 041007 		SETZM	XTEMP1		;INIT THE COUNTER
  2356	032347	200 03 0 00 041240 	T.30B1:	MOVE	3,TXDBUF	;ADDRESS OF TXDBUFFER REG
  2357	032350	201 05 0 00 004000 		MOVEI	5,TIMER		;MAINT TIMER BIT
  2358	032351	711 05 0 03 000000 		TION	5,(3)		;TEST THE TIMER BIT
  2359	032352	254 00 0 00 032357 		JRST	ER30B+1		;BIT IS SET - CHECK NXTTST PARAMETERS
  2360	032353	350 00 0 00 041007 		AOS	XTEMP1		;BIT IS CLEAR - INCREMENT COUNT
  2361	032354	200 00 0 00 041007 		MOVE	0,XTEMP1	;GET CURRENT COUNT
  2362	032355	325 00 0 00 032347 		JUMPGE	0,T.30B1	;JUMP IF POSITIVE COUNT
  2363	032356				ER30B:	ERROR	(T.30,13,0,0,TEST.30,MAINT TIMER BIT FAILED TO SET,PRTSTA)^
  2364	032356	036 13 0 00 044344
  2365	032357	035 00 0 00 032324 		ERLOOP	T.30		;IF ERROR, LOOP TO T.30
  2366						NXTTST	(30,31)^
  2367	032360	201 05 0 00 000030 		MOVEI	5,30		;GET CURRENT TEST #
  2368	032361	260 17 0 00 040245 		GO	$NXTST		;GO CHECK SWITCHES
  2369	032362	254 00 0 00 032324 		JRST	T.30		;REPEAT SAME TEST
  2370	032363	201 05 0 00 032366 		MOVEI	5,T.31		;GET NXT TEST #
  2371	032364	202 05 0 00 030051 		MOVEM	5,TESTPC	;SAVE ADRS FOR PC
DSDUA DECSYSTEM 2020 DUP-11 DIAGNOSTIC VERSION 0,2	MACRO %53(1020) 08:16 15-Jun-79 Page 31-1
DSDUAM	MAC	14-Jun-79 16:28		*STATIC LOGIC TESTS -- .1-.155                                                     SEQ 0093

  2372	032365	254 00 0 00 032366 		JRST	T.31		;GO TO NEXT TEST^
  2373
DSDUA DECSYSTEM 2020 DUP-11 DIAGNOSTIC VERSION 0,2	MACRO %53(1020) 08:16 15-Jun-79 Page 32
DSDUAM	MAC	14-Jun-79 16:28		*STATIC LOGIC TESTS -- .1-.155                                                     SEQ 0094

  2374						XLIST
  2375						LIST
  2376						S^;*********************************************************************^
  2377						COMMENT $
  2378						 TEST.31-- *INTERNAL MAINT MODE/STATIC XMITTER FCNS (SEND-TXDONE-TSOM)*
  2379							THIS TEST INITIALIZES THE UNIBUS ADAPTER STATUS REGISTER TO
  2380						ZEROS,INITIALIZES THE TXCSR REGISTER. THE INITIALIZATION ALSO CLEARS
  2381						RXCSR,RXDBUF AND TXDBUF. 'NOCRC' IS SET TO INHIBIT TRANSMISSION OF
  2382						A CRC CHARACTER. THE DUP-11 IS PLACED IN INTERNAL MAINT MODE (TXCSR BITS
  2383						12-11 = 1). THE SEND BIT IS SET TO 1,ENABLING THE TRANSMITTER LOGIC.
  2384						AT THIS POINT THE TXCSR REGISTER IS READ AND SHOULD CONTAIN: SEND (1),
  2385						MAINT MODE SEL B (1),MAINT MODE SEL A (1),AND TXDONE (1). TXDBUF IS
  2386						READ AND CHECKED BITS 11-00 SHOULD BE ZEROS. THE INITIAL LOADING OF
  2387						TXDBUF WITH ZEROS,SHOULD HAVE CAUSED TXDONE TO CLEAR,SO THIS IS
  2388						TESTED NEXT. FINALLY,THE START OF MSG BIT 'TSOM' (BIT 08 OF TXDBUF)
  2389						IS SET TO BEGIN TRANSMISSION OF THE CHARACTER CONTAINED IN BITS
  2390						07-00 OF TXDBUF. IN THIS TEST BITS 07-00 OF TXDBUF CONTAIN ZERO.
  2391						A SERIES OF SINGLE STEP CLOCKS ARE ISSUED AND THEN TXDONE IS
  2392						TESTED FOR THE SET CONDITION (TXDONE=1). IF ANY OF THE ABOVE EVENTS
  2393						FAIL TO OCCUR AN ERROR PRINTOUT OCCURS.
  2394						$
  2395						S^;*********************************************************************^
  2396						XLIST
  2397						LIST
  2398
  2399
  2400	032366				T.31:	CLEAR	TXDBUF		^;CLEAR TXDBUF
  2401	032366	403 01 0 00 000010 		SETZB	1,10
  2402	032367	713 10 1 00 041240 		WRIO	10,@TXDBUF		;LOAD ZEROS INTO SELECTED REG.
  2403	032370	260 17 0 00 040234 		CSINIT			;PRE-TEST INITIALIZATION
  2404	032371	201 06 0 00 001000 		MOVEI	6,CRCEN		;BIT TO TURN OFF 'CRC'
  2405	032372	200 03 0 00 041233 		MOVE	3,PARCSR	;ADDRESS OF PARCSR REG
  2406	032373	713 06 0 03 000000 		WRIO	6,(3)		;SET 'NOCRC'
  2407
  2408	032374	201 06 0 00 014000 		MOVEI	6,MMODE		;INTERNAL MAINT MODE BITS
  2409	032375	476 00 0 00 041017 		SETOM	MMFLG		;SET HELP FLAG
  2410	032376	200 03 0 00 041236 		MOVE	3,TXCSRL	;ADDRESS OF TXCSR REG
  2411	032377	713 06 0 03 000000 		WRIO	6,(3)		;SET MODE - START CLOCK
  2412	032400	201 06 0 00 000020 		MOVEI	6,SEND		;TRANSMITTER ENABLE
  2413	032401	724 06 0 03 000000 		BSIOB	6,(3)		;BIT SET SEND
  2414
  2415	032402	201 00 0 00 014220 		MOVEI	0,SEND!TXDONE!MMODE
  2416	032403	202 00 0 00 041225 		MOVEM	0,GDDAT		;EXPECTED TO GDDAT
  2417
  2418	032404	712 05 0 03 000000 		RDIO	5,(3)		;READ TXCSR REGISTER
  2419	032405	312 05 0 00 041225 		CAME	5,GDDAT		;COMPARE ACTUAL TO EXPECTED
  2420						ERROR	(T.31,13,GDDAT,5,TEST.31,<STATIC XMITTER FCNS TEST-SEND-TXDONE-MMODE,NOT AL
  2421					L SET IN TXCSR>,PRTSTA)^
  2422	032406	036 13 0 00 044364
  2423	032407	035 00 0 00 032366 		ERLOOP	T.31		;IF ERROR, LOOP TO T.31
  2424
  2425	032410	402 00 0 00 041225 		SETZM	GDDAT		;FORM EXPECTED
  2426	032411	200 03 0 00 041240 		MOVE	3,TXDBUF
  2427	032412	712 05 0 03 000000 		RDIO	5,(3)		;READ TXDBUF REG
  2428	032413	620 05 0 00 170000 		TRZ	5,170000	;MASK OUT BITS 15-12
DSDUA DECSYSTEM 2020 DUP-11 DIAGNOSTIC VERSION 0,2	MACRO %53(1020) 08:16 15-Jun-79 Page 32-1
DSDUAM	MAC	14-Jun-79 16:28		*STATIC LOGIC TESTS -- .1-.155                                                     SEQ 0095

  2429	032414	312 05 0 00 041225 		CAME	5,GDDAT		;COMPARE ACTUAL TO EXPECTED
  2430						ERROR	(T.31,13,GDDAT,5,TEST.31,<STATIC XMITTER FCNS TEST -TXDBUF NOT CLEAR>,PRTST
  2431					A)^
  2432	032415	036 13 0 00 044377
  2433	032416	035 00 0 00 032366 		ERLOOP	T.31		;IF ERROR, LOOP TO T.31
  2434
  2435						CLEAR	TXDBUF		^;CLEAR TXDBUF
  2436	032417	403 01 0 00 000010 		SETZB	1,10
  2437	032420	713 10 1 00 041240 		WRIO	10,@TXDBUF		;LOAD ZEROS INTO SELECTED REG.
  2438	032421	200 03 0 00 041235 		MOVE	3,TXCSR		;ADDRESS OF TXCSR REG
  2439	032422	201 06 0 00 777577 		MOVEI	6,777577	;MASK
  2440	032423	202 06 0 00 041225 		MOVEM	6,GDDAT		;PUT A COPY OF MASK IN GDDAT
  2441	032424	712 05 0 03 000000 		RDIO	5,(3)		;READ TXCSR REGISTER
  2442	032425	406 05 0 00 041225 		ANDM	5,GDDAT		;COMBINE (AC5) WITH GDDAT,TXDONE IS NOT EFFECTED
  2443	032426	312 05 0 00 041225 		CAME	5,GDDAT		;COMPARE ACTUAL WITH EXPECTED
  2444						ERROR	(T.31,13,GDDAT,5,TEST.31,<STATIC XMITTER FCNS TEST-TXDONE NOT CLEAR>,PRTSTA
  2445					)^
  2446	032427	036 13 0 00 044411
  2447	032430	035 00 0 00 032366 		ERLOOP	T.31		;IF ERROR, LOOP TO T.31
  2448
  2449	032431	200 03 0 00 041240 		MOVE	3,TXDBUF
  2450	032432	201 06 0 00 000400 		MOVEI	6,TSOM		;START OF MSG BIT
  2451	032433	713 06 0 03 000000 		WRIO	6,(3)		;SET TSOM
  2452
  2453						PKCLK	15		^;GIVE 15 DECIMAL TRANSITIONS OF SS CLK
  2454	032434	201 11 0 00 000017 		MOVEI	11,^D15		;CLOCK TICK ARGUMENT
  2455	032435	264 00 0 00 040560 		JSR	DUPCLK		;CALL PKCLK ROUTINE
  2456
  2457	032436	201 06 0 00 000200 		MOVEI	6,TXDONE	;TXDONE BIT
  2458	032437	202 06 0 00 041225 		MOVEM	6,GDDAT		;SET EXPECTED
  2459	032440	200 03 0 00 041235 		MOVE	3,TXCSR
  2460	032441	712 05 0 03 000000 		RDIO	5,(3)		;READ TXCSR REGISTER
  2461	032442	436 05 0 00 041225 		IORM	5,GDDAT		;'OR' IN REST OF BITS TXDONE ALREADY SET!
  2462	032443	312 05 0 00 041225 		CAME	5,GDDAT		;COMPARE ACTUAL TO EXPECTED
  2463						ERROR	(T.31,13,GDDAT,5,TEST.31,<STATIC XMITTER FCNS TEST-TXDONE NOT SET>,PRTSTA)^
  2464
  2465	032444	036 13 0 00 044423
  2466	032445	035 00 0 00 032366 		ERLOOP	T.31		;IF ERROR, LOOP TO T.31
  2467
  2468						NXTTST	(31,32)^
  2469	032446	201 05 0 00 000031 		MOVEI	5,31		;GET CURRENT TEST #
  2470	032447	260 17 0 00 040245 		GO	$NXTST		;GO CHECK SWITCHES
  2471	032450	254 00 0 00 032366 		JRST	T.31		;REPEAT SAME TEST
  2472	032451	201 05 0 00 032454 		MOVEI	5,T.32		;GET NXT TEST #
  2473	032452	202 05 0 00 030051 		MOVEM	5,TESTPC	;SAVE ADRS FOR PC
  2474	032453	254 00 0 00 032454 		JRST	T.32		;GO TO NEXT TEST^
  2475
DSDUA DECSYSTEM 2020 DUP-11 DIAGNOSTIC VERSION 0,2	MACRO %53(1020) 08:16 15-Jun-79 Page 33
DSDUAM	MAC	14-Jun-79 16:28		*STATIC LOGIC TESTS -- .1-.155                                                     SEQ 0096

  2476						XLIST
  2477						LIST
  2478						S^;*********************************************************************^
  2479						COMMENT $
  2480						 TEST.32-- *INTERNAL MAINT MODE/STATIC XMITTER FCNS*
  2481							THIS TEST INITIALIZES THE UNIBUS ADAPTER STATUS REGISTER TO
  2482						ZEROS,INITIALIZES THE TXCSR REGISTER. THE INITIALIZATION ALSO CLEARS
  2483						RXCSR,RXDBUF AND TXDBUF. 'NOCRC' IS SET TO INHIBIT TRANSMISSION OF A
  2484						CRC CHARACTER. THE DUP11 IS PLACED IN INTERNAL MAINT MODE (TXCSR BITS
  2485						12-11 = 1). THE SEND BIT IS SET TO 1,ENABLING THE TRANSMITTER LOGIC.
  2486						TXDBUF IS THEN LOADED WITH ZEROS,AND THE START OF MSG BIT (TSOM) IS SET
  2487						TO BEGIN TRANSMISSION OF THE CHARACTER CONTAINED IN BITS 07-00 OF TXDBUF
  2488						(TXDBUF 07-00=0). SEVEN TRANSITIONS OF THE SINGLE STEP CLOCK ARE ISSUED,
  2489						AND TXACT SHOULD BE SET. THIS IS CHECKED BY READING AND TESTING BIT 09
  2490						OF TXCSR. FOURTEEN MORE TRANSITIONS OF THE CLOCK ARE ISSUED. SEND AND
  2491						TSOM SHOULD BE SET AND BOTH BITS ARE SO TESTED. BITS 11-00 OF TXDBUF
  2492						ARE CHECKED AND ONLY TSOM SHOULD BE SET AT THIS TIME. NOW,TSOM IS
  2493						CLEARED AND THIS SHOULD RESULT IN TXDONE BEING CLEARED IN TXDBUF.
  2494						NEXT,SEND IS CLEARED AND EIGHT TRANSITIONS OF THE SINGLE STEP
  2495						CLOCK ARE ISSUED. TXDONE (SHOULD BE CLEAR NOW),IS TESTED. TWO MORE
  2496						TRANSITIONS OF THE CLOCK ARE ISSUED AND THEN TXACT IS CHECKED FOR
  2497						EQUAL TO ZERO. TXDONE SHOULD NOW BE SET AND IT IS CHECKED. FINALLY,
  2498						MAINT TX DATA OUT IS CHECKED FOR EQUAL TO ZERO. IF ANY OF THE
  2499						ABOVE EVENTS FAIL TO OCCUR,AN ERROR PRINTOUT OCCURS.
  2500						$
  2501						S^;*********************************************************************^
  2502						XLIST
  2503						LIST
  2504	032454				T.32:	CLEAR	TXDBUF		^;CLEAR TXDBUF
  2505	032454	403 01 0 00 000010 		SETZB	1,10
  2506	032455	713 10 1 00 041240 		WRIO	10,@TXDBUF		;LOAD ZEROS INTO SELECTED REG.
  2507	032456	260 17 0 00 040234 		CSINIT			;PRE-TEST INITIALIZATION
  2508	032457	201 06 0 00 001000 		MOVEI	6,CRCEN		;BIT TO TURN OFF 'CRC'
  2509	032460	200 03 0 00 041233 		MOVE	3,PARCSR	;ADDRESS OF PARCSR REG
  2510	032461	713 06 0 03 000000 		WRIO	6,(3)		;SET 'NOCRC'
  2511	032462	201 06 0 00 014000 		MOVEI	6,MMODE		;INTERNAL MAINT MODE BITS
  2512	032463	476 00 0 00 041017 		SETOM	MMFLG		;SET HELP FLAG
  2513	032464	200 03 0 00 041236 		MOVE	3,TXCSRL	;ADDRESS OF TXCSR REG
  2514	032465	713 06 0 03 000000 		WRIO	6,(3)		;SET MODE - START CLK
  2515	032466	201 06 0 00 000020 		MOVEI	6,SEND		;TRANSMITTER ENABLE
  2516	032467	714 06 0 03 000000 		BSIO	6,(3)		;BIT SET 'SEND'
  2517	032470				T.32A:	CLEAR	TXDBUF		^;WRITE ZEROS TO TXDBUF
  2518	032470	403 01 0 00 000010 		SETZB	1,10
  2519	032471	713 10 1 00 041240 		WRIO	10,@TXDBUF		;LOAD ZEROS INTO SELECTED REG.
  2520	032472	201 06 0 00 000400 		MOVEI	6,TSOM		;START OF MSG BIT
  2521	032473	200 03 0 00 041240 		MOVE	3,TXDBUF	;ADDRESS OF TXDBUF REG
  2522	032474	713 06 0 03 000000 		WRIO	6,(3)		;SET 'TSOM'
  2523						PKCLK	8		^;GIVE 8 DECIMAL TRANSITIONS OF SS CLOCK
  2524	032475	201 11 0 00 000010 		MOVEI	11,^D8		;CLOCK TICK ARGUMENT
  2525	032476	264 00 0 00 040560 		JSR	DUPCLK		;CALL PKCLK ROUTINE
  2526	032477	201 02 0 00 001000 		MOVEI	2,TXACT		;TXACT BIT - EXPECTED
  2527	032500	200 03 0 00 041235 		MOVE	3,TXCSR		;ADDRESS OF TXCSR REG
  2528	032501	712 05 0 03 000000 		RDIO	5,(3)		;READ TXCSR REG
  2529	032502	434 02 0 00 000005 		IOR	2,5		;FORM EXPECTED
  2530	032503	606 05 0 00 001000 		TRNN	5,TXACT		;TEST BIT
DSDUA DECSYSTEM 2020 DUP-11 DIAGNOSTIC VERSION 0,2	MACRO %53(1020) 08:16 15-Jun-79 Page 33-1
DSDUAM	MAC	14-Jun-79 16:28		*STATIC LOGIC TESTS -- .1-.155                                                     SEQ 0097

  2531						ERROR	(T.32,13,2,5,TEST.32,<STATIC XMITTER FCNS TEST-TXACT NOT SET>,PRTSTA)^
  2532	032504	036 13 0 00 044437
  2533	032505	035 00 0 00 032454 		ERLOOP	T.32		;IF ERROR, LOOP TO T.32
  2534						PKCLK	14		^;GIVE 14 DECIMAL TRANSITIONS OF SS CLOCK
  2535	032506	201 11 0 00 000016 		MOVEI	11,^D14		;CLOCK TICK ARGUMENT
  2536	032507	264 00 0 00 040560 		JSR	DUPCLK		;CALL PKCLK ROUTINE
  2537	032510	200 03 0 00 041236 		MOVE	3,TXCSRL	;ADDRESS OF TXCSR REG
  2538	032511	201 02 0 00 000020 		MOVEI	2,SEND		;EXPECTED BIT
  2539	032512	712 05 0 03 000000 		RDIO	5,(3)		;READ TXCSR REG
  2540	032513	434 02 0 00 000005 		IOR	2,5		;FORM EXPECTED
  2541	032514	606 05 0 00 041236 		TRNN	5,TXCSRL		;TEST BIT
  2542						ERROR	(T.32,13,2,5,TEST.32,<STATIC XMITTER FCNS TEST-SEND NOT SET>,PRTSTA)^
  2543	032515	036 13 0 00 044451
  2544	032516	035 00 0 00 032454 		ERLOOP	T.32		;IF ERROR, LOOP TO T.32
  2545	032517	200 03 0 00 041240 		MOVE	3,TXDBUF	;ADDRESS OF TXDBUF REG
  2546	032520	201 02 0 00 000400 		MOVEI	2,TSOM		;START OF MSG BIT
  2547	032521	712 05 0 03 000000 		RDIO	5,(3)		;READ TXDBUF REG
  2548	032522	620 05 0 00 170000 		TRZ	5,170000	;MASK OUT BITS 15-12
  2549	032523	312 05 0 00 000002 		CAME	5,2		;COMPARE ACTUAL TO EXPECTED
  2550						ERROR	(T.32,13,2,5,TEST.32,<STATIC XMITTER FCNS TEST-TSOM NOT SET>,PRTSTA)^
  2551	032524	036 13 0 00 044463
  2552	032525	035 00 0 00 032454 		ERLOOP	T.32		;IF ERROR, LOOP TO T.32
  2553						CLEAR	TXDBUF		^;CLEAR TSOM
  2554	032526	403 01 0 00 000010 		SETZB	1,10
  2555	032527	713 10 1 00 041240 		WRIO	10,@TXDBUF		;LOAD ZEROS INTO SELECTED REG.
  2556	032530	200 03 0 00 041235 		MOVE	3,TXCSR		;ADDRESS OF TXCSR REG
  2557	032531	712 05 0 03 000000 		RDIO	5,(3)		;READ TXCSR REG
  2558	032532	200 02 0 00 000005 		MOVE	2,5		;FORM EXPECTED
  2559	032533	620 02 0 00 000200 		TRZ	2,TXDONE
  2560	032534	312 05 0 00 000002 		CAME	5,2		;SKIP IF BIT IS OKAY
  2561						ERROR	(T.32,13,2,5,TEST.32,<STATIC XMITTER FCNS TEST-TXDONE NOT CLEAR>,PRTSTA)^
  2562	032535	036 13 0 00 044466
  2563	032536	035 00 0 00 032454 		ERLOOP	T.32		;IF ERROR, LOOP TO T.32
  2564	032537	200 03 0 00 041240 		MOVE	3,TXDBUF	;ADDRESS OF TXDBUF REG
  2565	032540	400 02 0 00 000000 		SETZ	2,		;EXPECTED (TSOM=0)
  2566	032541	712 05 0 03 000000 		RDIO	5,(3)		;READ TXDBUF
  2567	032542	620 05 0 00 170000 		TRZ	5,170000	;MASK OUT BITS 15-12
  2568	032543	312 05 0 00 000002 		CAME	5,2		;COMPARE ACTUAL TO EXPECTED
  2569						ERROR	(T.32,13,2,5,TEST.32,<STATIC XMITTER FCNS TEST-TSOM NOT CLEAR>,PRTSTA)^
  2570	032544	036 13 0 00 044500
  2571	032545	035 00 0 00 032454 		ERLOOP	T.32		;IF ERROR, LOOP TO T.32
  2572	032546	200 03 0 00 041236 		MOVE	3,TXCSRL	;ADDRESS OF TXCSR REG
  2573	032547	201 02 0 00 000020 		MOVEI	2,SEND		;TRANSMITTER ENABLE
  2574	032550	725 02 0 03 000000 		BCIOB	2,(3)		;CLEAR SEND BIT
  2575						PKCLK	15		^;GIVE 15 DECIMAL TRANSITIONS OF SS CLOCK
  2576	032551	201 11 0 00 000017 		MOVEI	11,^D15		;CLOCK TICK ARGUMENT
  2577	032552	264 00 0 00 040560 		JSR	DUPCLK		;CALL PKCLK ROUTINE
  2578	032553	712 05 0 03 000000 		RDIO	5,(3)		;READ TXCSR REG
  2579	032554	200 02 0 00 000005 		MOVE	2,5		;FORM EXPECTED
  2580	032555	620 02 0 00 000200 		TRZ	2,TXDONE
  2581	032556	312 05 0 00 000002 		CAME	5,2		;SKIP IF BIT IS OKAY
  2582						ERROR	(T.32,13,2,5,TEST.32,<STATIC XMITTER FCNS TEST-TXDONE NOT CLEAR>,PRTSTA)^
  2583	032557	036 13 0 00 044466
  2584	032560	035 00 0 00 032454 		ERLOOP	T.32		;IF ERROR, LOOP TO T.32
  2585						PKCLK	4		^;GIVE 4 DECIMAL TRANSITIONS OF SS CLOCK
DSDUA DECSYSTEM 2020 DUP-11 DIAGNOSTIC VERSION 0,2	MACRO %53(1020) 08:16 15-Jun-79 Page 33-2
DSDUAM	MAC	14-Jun-79 16:28		*STATIC LOGIC TESTS -- .1-.155                                                     SEQ 0098

  2586	032561	201 11 0 00 000004 		MOVEI	11,^D4		;CLOCK TICK ARGUMENT
  2587	032562	264 00 0 00 040560 		JSR	DUPCLK		;CALL PKCLK ROUTINE
  2588	032563	712 05 0 03 000000 		RDIO	5,(3)		;READ TXCSR REG
  2589	032564	200 02 0 00 000005 		MOVE	2,5		;FORM EXPECTED
  2590	032565	620 02 0 00 001000 		TRZ	2,TXACT
  2591	032566	312 05 0 00 000002 		CAME	5,2		;SKIP IF BIT IS OKAY
  2592						ERROR	(T.32,13,2,5,TEST.32,<STATIC XMITTER FCNS TEST-TXACT NOT CLEAR>,PRTSTA)^
  2593	032567	036 13 0 00 044512
  2594	032570	035 00 0 00 032454 		ERLOOP	T.32		;IF ERROR, LOOP TO T.32
  2595	032571	201 02 0 00 000200 		MOVEI	2,TXDONE	;TXDONE BIT
  2596	032572	712 05 0 03 000000 		RDIO	5,(3)		;READ TXCSR REG
  2597	032573	434 02 0 00 000005 		IOR	2,5		;FORM EXPECTED
  2598	032574	606 05 0 00 000200 		TRNN	5,TXDONE	;TEST BIT
  2599						ERROR	(T.32,13,2,5,TEST.32,<STATIC XMITTER FCNS TEST-TXDONE NOT SET>,PRTSTA)^
  2600	032575	036 13 0 00 044515
  2601	032576	035 00 0 00 032454 		ERLOOP	T.32		;IF ERROR, LOOP TO T.32
  2602	032577	712 05 0 03 000000 		RDIO	5,(3)		;READ TXCSR REG
  2603	032600	200 02 0 00 000005 		MOVE	2,5		;FORM EXPECTED
  2604	032601	620 02 0 00 040000 		TRZ	2,MTDATA
  2605	032602	312 05 0 00 000002 		CAME	5,2		;SKIP IF BIT IS OKAY
  2606						ERROR	(T.32,13,2,5,TEST.32,<STATIC XMITTER FCNS TEST-MAINT TX DATA OUT NOT CLEAR>
  2607					,PRTSTA)^
  2608	032603	036 13 0 00 044531
  2609	032604	035 00 0 00 032454 		ERLOOP	T.32		;IF ERROR, LOOP TO T.32
  2610						NXTTST	(32,33)^
  2611	032605	201 05 0 00 000032 		MOVEI	5,32		;GET CURRENT TEST #
  2612	032606	260 17 0 00 040245 		GO	$NXTST		;GO CHECK SWITCHES
  2613	032607	254 00 0 00 032454 		JRST	T.32		;REPEAT SAME TEST
  2614	032610	201 05 0 00 032613 		MOVEI	5,T.33		;GET NXT TEST #
  2615	032611	202 05 0 00 030051 		MOVEM	5,TESTPC	;SAVE ADRS FOR PC
  2616	032612	254 00 0 00 032613 		JRST	T.33		;GO TO NEXT TEST^
  2617
DSDUA DECSYSTEM 2020 DUP-11 DIAGNOSTIC VERSION 0,2	MACRO %53(1020) 08:16 15-Jun-79 Page 34
DSDUAM	MAC	14-Jun-79 16:28		*STATIC LOGIC TESTS -- .1-.155                                                     SEQ 0099

  2618						XLIST
  2619						LIST
  2620						S^;*********************************************************************^
  2621						COMMENT $
  2622						 TEST.33-- *INTERNAL MAINT MODE/IDLE FLAGS TEST*
  2623							THIS TEST INITIALIZES THE UNIBUS ADAPTER
  2624						STATUS REGISTER TO ZEROS,INITIALIZES THE TXCSR
  2625						REGISTER. THE INITIALIZATION ALSO CLEARS RXCSR,
  2626						RXDBUF,AND TXDBUF. 'NOCRC' IS SET TO INHIBIT
  2627						TRANSMISSION OF A CRC CHARACTER. THE DUP-11 IS
  2628						PLACED IN INTERNAL MAINT MODE (TXCSR BITS 12-11
  2629						=1). SEND IS SET TO A 1,TO ENABLE THE TRANSMITTER
  2630						LOGIC AND THEN TSOM IS SET TO A 1 TO ENABLE
  2631						TRANSMISSION OF FLAGS. THE TEST SENDS A TOTAL OF
  2632						512 DECIMAL FLAGS. EACH FLAG CHARACTER CONSISTS
  2633						OF AN EIGHT BIT CODE (01111110 BINARY). IF
  2634						ANY BIT IS PICKED OR DROPPED AN ERROR PRINTOUT OCCURS.
  2635						$
  2636						S^;*********************************************************************^
  2637						XLIST
  2638						LIST
  2639
  2640	032613	260 17 0 00 040234 	T.33:	CSINIT			;PRE-TEST INITIALIZATION
  2641						CLEAR	TXDBUF		^;WRITE ZEROS INTO TXDBUF REG
  2642	032614	403 01 0 00 000010 		SETZB	1,10
  2643	032615	713 10 1 00 041240 		WRIO	10,@TXDBUF		;LOAD ZEROS INTO SELECTED REG.
  2644	032616	201 06 0 00 001000 		MOVEI	6,CRCEN		;BIT TO TURN OFF 'CRC'
  2645	032617	200 03 0 00 041233 		MOVE	3,PARCSR	;ADDRESS OF TXCSR REG
  2646	032620	713 06 0 03 000000 		WRIO	6,(3)		;SET 'NOCRC'
  2647	032621	201 06 0 00 014020 		MOVEI	6,MMODE!SEND	;INTERNAL MAINT MODE BITS
  2648	032622	476 00 0 00 041017 		SETOM	MMFLG		;SET HELP FLAG
  2649	032623	200 03 0 00 041236 		MOVE	3,TXCSRL	;ADDRESS OF TXCSR REG
  2650	032624	713 06 0 03 000000 		WRIO	6,(3)		;SET MODE-START CLOCK
  2651	032625	201 06 0 00 000400 		MOVEI	6,TSOM		;TRANSMITTER ENABLE
  2652	032626	200 03 0 00 041240 		MOVE	3,TXDBUF	;ADDRESS OF TXDBUF REG
  2653	032627	713 06 0 03 000000 		WRIO	6,(3)		;SET 'TSOM'
  2654						PKCLK	6		^;BEGIN TO SYNC DUP
  2655	032630	201 11 0 00 000006 		MOVEI	11,^D6		;CLOCK TICK ARGUMENT
  2656	032631	264 00 0 00 040560 		JSR	DUPCLK		;CALL PKCLK ROUTINE
  2657	032632	200 03 0 00 041236 	T.33S1:	MOVE	3,TXCSRL	;ADDRESS OF TXCSR REG
  2658	032633	712 05 0 03 000000 		RDIO	5,(3)		;READ TXCSR REG
  2659	032634	606 05 0 00 000200 		TRNN	5,TXDONE	;TEST TXDONE
  2660	032635	254 00 0 00 032705 		JRST	T.33S		;CHECK AND GIVE EXTRA CLOCK
  2661	032636	606 05 0 00 001000 		TRNN	5,TXACT		;TEST TXACTIVE
  2662	032637	254 00 0 00 032705 		JRST	T.33S		;CHECK AND GIVE EXTRA CLOCK
DSDUA DECSYSTEM 2020 DUP-11 DIAGNOSTIC VERSION 0,2	MACRO %53(1020) 08:16 15-Jun-79 Page 35
DSDUAM	MAC	14-Jun-79 16:28		*STATIC LOGIC TESTS -- .1-.155                                                     SEQ 0100

  2663					;THE PROGRAM AND THE DUP SHOULD NOW BE IN SYNC...........
  2664	032640	201 12 0 00 001000 		MOVEI	12,^D512		;SETUP FOR 512 DECIMAL FLAGS
  2665	032641	201 10 0 00 000100 	T.33A:	MOVEI	10,1B29		;MAINT TX DATA OUT BIT
  2666	032642	200 14 0 00 041237 		MOVE	14,TXCSRH	;TXCSR HI-BYTE ADDRESS
  2667	032643	720 10 0 14 000000 		TIOEB	10,(14)	;TEST MT DATA BIT
  2668						ERROR	(T.33,13,0,0,TEST.33,<STATIC XMITTER FCNS TEST-FIRST BIT OF FLAG (BIT 0) NO
  2669					T 0>,PRTSTA)^
  2670	032644	036 13 0 00 044550
  2671	032645	035 00 0 00 032613 		ERLOOP	T.33		;IF ERROR, LOOP TO T.33
  2672						PKCLK	2		^;GENERATE FIRST BIT OF FLAG
  2673	032646	201 11 0 00 000002 		MOVEI	11,^D2		;CLOCK TICK ARGUMENT
  2674	032647	264 00 0 00 040560 		JSR	DUPCLK		;CALL PKCLK ROUTINE
  2675	032650	201 10 0 00 000100 		MOVEI	10,1B29		;MAINT TX DATA OUT BIT
  2676	032651	200 14 0 00 041237 		MOVE	14,TXCSRH	;TXCSR HI-BYTE ADDRESS
  2677	032652	721 10 0 14 000000 		TIONB	10,(14)	;TEST MT DATA BIT
  2678						ERROR	(T.33,13,0,0,TEST.33,<STATIC XMITTER FCNS TEST-SECOND BIT OF FLAG CHAR (BIT
  2679					 1) NOT 1>,PRTSTA)^
  2680	032653	036 13 0 00 044566
  2681	032654	035 00 0 00 032613 		ERLOOP	T.33		;IF ERROR, LOOP TO T.33
  2682	032655	201 16 0 00 000000 		MOVEI 16,0		;INIT COUNTER
  2683	032656				T.33B:	PKCLK	2		^;GENERATE NEXT BIT OF FLAG CHAR
  2684	032656	201 11 0 00 000002 		MOVEI	11,^D2		;CLOCK TICK ARGUMENT
  2685	032657	264 00 0 00 040560 		JSR	DUPCLK		;CALL PKCLK ROUTINE
  2686	032660	201 10 0 00 000100 		MOVEI	10,1B29		;MAINT TX DATA OUT BIT
  2687	032661	721 10 0 14 000000 		TIONB	10,(14)	;TEST MT DATA BIT
  2688						ERROR	(T.33,13,0,0,TEST.33,<STATIC XMITTER FCNS TEST-FAILED TO GENERATE 1'S IN FL
  2689					AG BITS (2-6)>,XER33C)^
  2690	032662	036 13 0 00 044605
  2691	032663	035 00 0 00 032613 		ERLOOP	T.33		;IF ERROR, LOOP TO T.33
  2692	032664	350 00 0 00 000016 		AOS	16		;COUNT 1 BITS
  2693	032665	302 16 0 00 000005 		CAIE	16,5		;GENERATED 5 ONE'S YET?
  2694	032666	254 00 0 00 032656 		JRST	T.33B		;NO-OUTPUT ANOTHER ONE
  2695						PKCLK	2		^;YES-OUTPUT LAST ZERO
  2696	032667	201 11 0 00 000002 		MOVEI	11,^D2		;CLOCK TICK ARGUMENT
  2697	032670	264 00 0 00 040560 		JSR	DUPCLK		;CALL PKCLK ROUTINE
  2698	032671	201 10 0 00 000100 		MOVEI	10,1B29		;MAINT TX DATA OUT BIT
  2699	032672	720 10 0 14 000000 		TIOEB	10,(14)	;TEST MT DATA BIT
  2700						ERROR	(T.33,13,0,0,TEST.33,<STATIC XMITTER FCNS TEST-LAST BIT OF FLAG CHAR (BIT 7
  2701					) NOT 0>,PRTSTA)^
  2702	032673	036 13 0 00 044623
  2703	032674	035 00 0 00 032613 		ERLOOP	T.33		;IF ERROR, LOOP TO T.33
  2704	032675	275 12 0 00 000001 		SUBI	12,1		;DECREMENT FLAG CHAR CNT
  2705	032676	326 12 0 00 032725 		JUMPN	12,T.33X	;JUMP IF NOT ALL FLAGS DONE
  2706						NXTTST	(33,34)^
  2707	032677	201 05 0 00 000033 		MOVEI	5,33		;GET CURRENT TEST #
  2708	032700	260 17 0 00 040245 		GO	$NXTST		;GO CHECK SWITCHES
  2709	032701	254 00 0 00 032613 		JRST	T.33		;REPEAT SAME TEST
  2710	032702	201 05 0 00 032735 		MOVEI	5,T.34		;GET NXT TEST #
  2711	032703	202 05 0 00 030051 		MOVEM	5,TESTPC	;SAVE ADRS FOR PC
  2712	032704	254 00 0 00 032735 		JRST	T.34		;GO TO NEXT TEST^
  2713	032705	200 00 0 00 041016 	T.33S:	MOVE	0,XSYNCT	;GET CURRENT SYNC COUNT
  2714	032706	271 00 0 00 000001 		ADDI	0,1		;UPDATE IT
  2715	032707	202 00 0 00 041016 		MOVEM	0,XSYNCT	;STORE IT BACK
  2716						PKCLK	2		^;GIVE ONE FULL CLOCK
  2717	032710	201 11 0 00 000002 		MOVEI	11,^D2		;CLOCK TICK ARGUMENT
DSDUA DECSYSTEM 2020 DUP-11 DIAGNOSTIC VERSION 0,2	MACRO %53(1020) 08:16 15-Jun-79 Page 35-1
DSDUAM	MAC	14-Jun-79 16:28		*STATIC LOGIC TESTS -- .1-.155                                                     SEQ 0101

  2718	032711	264 00 0 00 040560 		JSR	DUPCLK		;CALL PKCLK ROUTINE
  2719	032712	200 00 0 00 041016 		MOVE	0,XSYNCT	;GET SYNC CK COUNT
  2720	032713	302 00 0 00 000006 		CAIE	0,6		;ONLY TRY SIX EXTRA CLOCKS
  2721	032714	254 00 0 00 032632 		JRST	T.33S1		;TRY ANOTHER CLOCK
  2722						ERROR	(T.33,13,0,0,TEST.33,<STATIC XMITTER FCNS TEST-CANT SYNC PROGRAM WITH FLAG
  2723					CHARACTER>,PRTSTA)^
  2724	032715	036 13 0 00 044641
  2725	032716	035 00 0 00 032613 		ERLOOP	T.33		;IF ERROR, LOOP TO T.33
  2726						NXTTST	(33,34)^
  2727	032717	201 05 0 00 000033 		MOVEI	5,33		;GET CURRENT TEST #
  2728	032720	260 17 0 00 040245 		GO	$NXTST		;GO CHECK SWITCHES
  2729	032721	254 00 0 00 032613 		JRST	T.33		;REPEAT SAME TEST
  2730	032722	201 05 0 00 032735 		MOVEI	5,T.34		;GET NXT TEST #
  2731	032723	202 05 0 00 030051 		MOVEM	5,TESTPC	;SAVE ADRS FOR PC
  2732	032724	254 00 0 00 032735 		JRST	T.34		;GO TO NEXT TEST^
  2733	032725				T.33X:	PKCLK	2		^;SPECIAL CLOCK TO FORCE INITIAL ZERO FLAG BIT OUT
  2734	032725	201 11 0 00 000002 		MOVEI	11,^D2		;CLOCK TICK ARGUMENT
  2735	032726	264 00 0 00 040560 		JSR	DUPCLK		;CALL PKCLK ROUTINE
  2736	032727	254 00 0 00 032641 		JRST	T.33A		;CONTINUE IN LOOP!!
  2737	032730				XER33C:	LPSTAT	^		;STATUS INFO
  2738	032730	264 00 0 00 040432 		JSR	STATUS		;PRINT STANDARD STATUS!
  2739	032731	264 00 0 00 040613 		JSR	XDPNT		;PRINT AC BLOCK LESS AC1
  2740	032732	264 00 0 00 040157 		JSR	ISO		;CALL ISOLATION
  2741	032733	260 17 0 00 040542 		GO	FLGMSG		;PRINT SPECIAL STATUS ON FLAGS
  2742	032734	263 17 0 00 000000 		RTN
  2743
DSDUA DECSYSTEM 2020 DUP-11 DIAGNOSTIC VERSION 0,2	MACRO %53(1020) 08:16 15-Jun-79 Page 36
DSDUAM	MAC	14-Jun-79 16:28		*STATIC LOGIC TESTS -- .1-.155                                                     SEQ 0102

  2744						XLIST
  2745						LIST
  2746						S^;*********************************************************************^
  2747						COMMENT $
  2748						 TEST.34-- *INTERNAL MAINT MODE/BASIC XMITTER TEST*
  2749							THIS TEST INITIALIZES THE UNIBUS ADAPTER TO ZEROS,
  2750						INITIALIZES THE TXCSR REGISTER. THE INITIALIZATION ALSO
  2751						CLEARS RXCSR,RXDBUF,AND TXDBUF. 'NOCRC' IS SET TO INHIBIT
  2752						TRANSMISSION OF A CRC CHARACTER. THE DUP-11 IS PLACED IN
  2753						INTERNAL MAINT MODE (TXCSR BITS 12-11=1). SEND IS SET TO 1,
  2754						TO ENABLE THE TRANSMITTER LOGIC AND TSOM IS SET TO 1 ,TO
  2755						BEGIN FLAG TRANSMISSION. TO GUARANTEE SYNCHRONIZATION BETWEEN
  2756						THE DUP HARDWARE AND THE DIAGNOSTIC PROGRAM,UP TO SIX FULL
  2757						CLOCKS ARE ISSUED ;THEN THE PROGRAM LOOKS FOR BOTH
  2758						TXDONE AND TXACT TO BE SET AS AN INDICATION OF SYNCHRONIZATION.
  2759						WHETHER BOTH ARE SET AFTER NONE,ONE,TWO,OR UP TO SIX CLOCKS,
  2760						IS A FUNCTION OF THE PREVIOUS STATE OF THE DUP RAMS. THE
  2761						PROGRAM WILL GIVE UP TO SIX CLOCKS WHILE ATTEMPTING TO
  2762						SYNC THE HARDWARE TO THE PROGRAM (ACTUALLY AT MOST FIVE EXTRA
  2763						CLOCK MAY BE REQUIRED). IF SYNCHRONIZATION IS NOT ATTAINED,
  2764						AN ERROR PRINTOUT WILL OCCUR. OTHERWISE, THE PROGRAM BEGINS
  2765						THE SYNCHRONOUS TRANSMISSION OF CHARACTERS BEGINNING WITH 0
  2766						AND ENDING WITH 377 (OCTAL) WITHIN THE INTERFACE. EACH
  2767						CHARACTER IS SAMPLED LSB FIRST,ONE BIT AT A TIME AS IT
  2768						APPEARS IN THE MTDATA BIT WINDOW OF TXCSR. BIT STUFFING FOR
  2769						CHARACTERS CONTAINING 5 OR MORE CONTIGUOUS ONES IS ALSO TESTED
  2770						BY THE PROGRAM. DISCREPANCIES YIELD AN ERROR PRINTOUT.
  2771						$
  2772						S^;*********************************************************************^
  2773						XLIST
  2774						LIST
  2775
  2776	032735	260 17 0 00 040241 	T.34:	UBACLR			;INIT ADAPTER AND DUP LOGIC
  2777	032736	260 17 0 00 040234 		CSINIT			;PRE-TEST INITIALIZATION
  2778	032737	402 00 0 00 041016 		SETZM	XSYNCT		;INIT SYNC COUNT TO ZERO
  2779	032740	201 06 0 00 001000 		MOVEI	6,CRCEN		;BIT TO TURN OFF 'CRC'
  2780	032741	200 03 0 00 041233 		MOVE	3,PARCSR	;ADDRESS OF PARCSR REG
  2781	032742	713 06 0 03 000000 		WRIO	6,(3)		;LOAD PARCSR REG, SET 'NOCRC'
  2782	032743	201 06 0 00 014020 		MOVEI	6,MMODE!SEND	;INTERNAL MAINT MODE PLUS SEND
  2783	032744	476 00 0 00 041017 		SETOM	MMFLG		;SET HELP FLAG
  2784	032745	200 03 0 00 041236 		MOVE	3,TXCSRL
  2785	032746	713 06 0 03 000000 		WRIO	6,(3)		;SET MODE-START CLOCK
  2786	032747	201 06 0 00 000400 		MOVEI	6,TSOM		;TRANSMITTER ENABLE BIT
  2787	032750	200 03 0 00 041240 		MOVE	3,TXDBUF
  2788	032751	713 06 0 03 000000 		WRIO	6,(3)		;SET TSOM
  2789						PKCLK	6		^;BEGIN TO SYNC DUP
  2790	032752	201 11 0 00 000006 		MOVEI	11,^D6		;CLOCK TICK ARGUMENT
  2791	032753	264 00 0 00 040560 		JSR	DUPCLK		;CALL PKCLK ROUTINE
  2792	032754	200 03 0 00 041236 	T.34S1:	MOVE	3,TXCSRL	;ADDRESS OF TXCSR REG
  2793	032755	712 05 0 03 000000 		RDIO	5,(3)		;READ TXCSR REG
  2794	032756	606 05 0 00 000200 		TRNN	5,TXDONE	;TEST TXDONE
  2795	032757	254 00 0 00 033122 		JRST	XSYNCK		;CHECK AND GIVE EXTRA CLK
  2796	032760	606 05 0 00 001000 		TRNN	5,TXACT		;TEST TXACT
  2797	032761	254 00 0 00 033122 		JRST	XSYNCK		;CHECK AND GIVE EXTRA CLK
  2798						PKCLK	2		^;OK! WE ARE SYNCED UP NOW
DSDUA DECSYSTEM 2020 DUP-11 DIAGNOSTIC VERSION 0,2	MACRO %53(1020) 08:16 15-Jun-79 Page 36-1
DSDUAM	MAC	14-Jun-79 16:28		*STATIC LOGIC TESTS -- .1-.155                                                     SEQ 0103

  2799	032762	201 11 0 00 000002 		MOVEI	11,^D2		;CLOCK TICK ARGUMENT
  2800	032763	264 00 0 00 040560 		JSR	DUPCLK		;CALL PKCLK ROUTINE
  2801	032764	476 00 0 00 041225 		SETOM	GDDAT		;INIT CHARACTER BASE TO ALL ONES
  2802	032765	400 16 0 00 000000 		SETZ	16,		;INIT ONES COUNTER
  2803	032766	400 02 0 00 000000 		SETZ	2,		;INIT 8-BIT COUNTER
  2804	032767	201 00 0 00 000377 		MOVEI	0,377
  2805	032770	202 00 0 00 041010 		MOVEM	0,XCHRNT	;SETUP FOR 377 CHARS
  2806	032771	402 00 0 00 041011 		SETZM	XLDCNT		;INIT LOAD COUNT
  2807	032772	402 00 0 00 041013 		SETZM	XBUFLG		;INHIBIT SECONDARY LOAD
  2808	032773	476 00 0 00 041012 		SETOM	XLDFLG		;ENABLE PRIMARY LOAD
  2809	032774	260 17 0 00 033072 		GO	T.34B2		;GO LOAD FIRST CHAR
  2810						PKCLK	12		^;COMPLETE FLAG
  2811	032775	201 11 0 00 000014 		MOVEI	11,^D12		;CLOCK TICK ARGUMENT
  2812	032776	264 00 0 00 040560 		JSR	DUPCLK		;CALL PKCLK ROUTINE
  2813	032777				T.34B:	PKCLK	2		^;PUSH OUT A BIT OF THIS CHARACTER
  2814	032777	201 11 0 00 000002 		MOVEI	11,^D2		;CLOCK TICK ARGUMENT
  2815	033000	264 00 0 00 040560 		JSR	DUPCLK		;CALL PKCLK ROUTINE
  2816	033001	271 02 0 00 000001 		ADDI	2,1		;COUNT THE BIT
  2817	033002	200 03 0 00 041235 		MOVE	3,TXCSR		;ADDRESS OF TXCSR REG
  2818	033003	712 05 0 03 000000 		RDIO	5,(3)		;READ THE TXCSR REG
  2819	033004	242 05 0 00 000025 		LSH	5,^D21		;POSITION MT DATA BIT IN BIT 0
  2820	033005	621 05 0 00 377777 		TLZ	5,377777	;CLEAR BIT 1-17
  2821	033006	241 12 0 00 777777 		ROT	12,-^D1		;POSITION EXPECTED BIT
  2822	033007	200 04 0 00 000012 		MOVE	4,12		;PUT A WORKING COPY IN AC4
  2823	033010	620 04 0 00 777777 		TRZ	4,777777	;CLEAR BITS 18-35
  2824	033011	621 04 0 00 377777 		TLZ	4,377777	;CLEAR BITS 1-17
  2825	033012	312 04 0 00 000005 		CAME	4,5		;COMPARE EXPECTED TO ACTUAL
  2826						ERROR	(T.34,13,0,0,TEST.34,<STATIC XMITTER FCNS TEST-MT DATA BIT NOT IN CORRECT S
  2827					TATE>,PRTSTA)^
  2828	033013	036 13 0 00 044660
  2829	033014	035 00 0 00 032735 		ERLOOP	T.34		;IF ERROR, LOOP TO T.34
  2830	033015	200 00 0 00 041010 		MOVE	0,XCHRNT	;GET CHAR COUNT
  2831	033016	322 00 0 00 033116 		JUMPE	0,T.34D		;JUMP IF DONE ALL CHARS-SET 'TEOM'
  2832	033017	200 03 0 00 041235 		MOVE	3,TXCSR
  2833	033020	712 06 0 03 000000 		RDIO	6,(3)		;READ TXCSR REG
  2834	033021	476 00 0 00 041013 		SETOM	XBUFLG		;ENABLE LOADING SECONDARY BUFFER
  2835	033022	602 06 0 00 000200 		TRNE	6,TXDONE	;TEST TXDONE (READY FOR ANOTHER CHAR)
  2836	033023	260 17 0 00 033072 		GO	T.34B2		;TXDONE SET-LOAD AND RETURN
  2837	033024	607 05 0 00 400000 		TLNN	5,400000	;TXDONE NOT SET-TEST FOR BIT STUFFENG
  2838	033025	254 00 0 00 033042 		JRST	T.34E		;BIT NOT A 1,CLEAR COUNT
  2839	033026	271 16 0 00 000001 		ADDI	16,1		;INCREMENT ONES COUNT
  2840	033027	302 16 0 00 000005 		CAIE	16,5		;HAVE WE SEEN FIVE ONES?
  2841	033030	254 00 0 00 033043 		JRST	T.34F		;NO-CHECK CHARACTER DONE!
  2842						PKCLK	2		^;STUFF A ZERO
  2843	033031	201 11 0 00 000002 		MOVEI	11,^D2		;CLOCK TICK ARGUMENT
  2844	033032	264 00 0 00 040560 		JSR	DUPCLK		;CALL PKCLK ROUTINE
  2845	033033	200 03 0 00 041235 		MOVE	3,TXCSR		;ADDRESS OF TXCSR REG
  2846	033034	712 05 0 03 000000 		RDIO	5,(3)		;READ TXCSR
  2847	033035	242 05 0 00 000025 		LSH	5,^D21		;POSITION MT DATA BIT IN BIT 0
  2848	033036	621 05 0 00 377777 		TLZ	5,377777	;CLEAR BITS 1-17
  2849	033037	302 05 0 00 000000 		CAIE	5,0		;CHECK TO SEE IF BITS ARE ALL ZERO
  2850						ERROR	(T.34,13,0,0,TEST.34,<STATIC XMITTER FCNS TEST-FSAILED TO STUFF A ZERO>,PRT
  2851					STA)^
  2852	033040	036 13 0 00 044674
  2853	033041	035 00 0 00 032735 		ERLOOP	T.34		;IF ERROR, LOOP TO T.34
DSDUA DECSYSTEM 2020 DUP-11 DIAGNOSTIC VERSION 0,2	MACRO %53(1020) 08:16 15-Jun-79 Page 36-2
DSDUAM	MAC	14-Jun-79 16:28		*STATIC LOGIC TESTS -- .1-.155                                                     SEQ 0104

  2854	033042	400 16 0 00 000000 	T.34E:	SETZ	16,		;INIT ONES COUNTER
  2855	033043	305 02 0 00 000010 	T.34F:	CAIGE	2,^D8		;CHECK BIT COUNT FOR EIGHT
  2856	033044	254 00 0 00 032777 		JRST	T.34B		;NOT DONE CHAR-CONTINUE CLOCKING
  2857	033045	400 02 0 00 000000 		SETZ	2,		;INIT THE CHAR COUNT
  2858	033046	200 12 0 00 041014 		MOVE	12,XBUFBK	;LOAD PRIMARY FROM SECONDARY
  2859	033047	370 00 0 00 041010 		SOS	XCHRNT		;DONE CHAR-DECREMENT COUNT
  2860	033050	200 03 0 00 041240 	T.34F1:	MOVE	3,TXDBUF	;ADDRESS OF TXDBUF REG
  2861	033051	201 06 0 00 001000 		MOVEI	6,TEOM		;TRANSMIT END OF MSG BIT
  2862	033052	711 06 0 03 000000 		TION	6,(3)		;TEST FOR TEOM SET
  2863	033053	254 00 0 00 033062 		JRST	T.34G		;TEOM NOT YET SET-JUMP
  2864						NXTTST	(34,35)^		;TEOM IS SET EXIT
  2865	033054	201 05 0 00 000034 		MOVEI	5,34		;GET CURRENT TEST #
  2866	033055	260 17 0 00 040245 		GO	$NXTST		;GO CHECK SWITCHES
  2867	033056	254 00 0 00 032735 		JRST	T.34		;REPEAT SAME TEST
  2868	033057	201 05 0 00 033142 		MOVEI	5,T.35		;GET NXT TEST #
  2869	033060	202 05 0 00 030051 		MOVEM	5,TESTPC	;SAVE ADRS FOR PC
  2870	033061	254 00 0 00 033142 		JRST	T.35		;GO TO NEXT TEST
  2871	033062	200 03 0 00 041235 	T.34G:	MOVE	3,TXCSR		;ADDRESS OF TXCSR REG
  2872	033063	712 06 0 03 000000 		RDIO	6,(3)		;READ TXCSR REG
  2873	033064	602 06 0 00 000200 		TRNE	6,TXDONE	;TEST TXDONE BIT
  2874	033065	260 17 0 00 033067 		GO	T.34G1		;TEOM NOT SET, TXDONE SET, ENABLE LOADING
  2875	033066	254 00 0 00 032777 		JRST	T.34B		;TXDONE NOT SET
  2876	033067	476 00 0 00 041013 	T.34G1:	SETOM	XBUFLG
  2877	033070	402 00 0 00 041012 		SETZM	XLDFLG
  2878	033071	254 00 0 00 033072 		JRST	T.34B2		;LOAD SECONDARY
  2879	033072	200 00 0 00 041011 	T.34B2:	MOVE	0,XLDCNT	;GET CURRENT LOAD COUNT
  2880	033073	271 00 0 00 000001 		ADDI	0,1		;UPDATE IT
  2881	033074	202 00 0 00 041011 		MOVEM	0,XLDCNT	;REPLACE IT
  2882	033075	303 00 0 00 000400 		CAILE	0,400
  2883	033076	254 00 0 00 032777 		JRST	T.34B
  2884	033077	200 07 0 00 041225 		MOVE	7,GDDAT		;GET CURRENT FORM OF CHAR
  2885	033100	271 07 0 00 000001 		ADDI	7,1		;MODIFY IT
  2886	033101	620 07 0 00 777400 		TRZ	7,777400	;CLEAR ALL BUT LOW 8-BITS
  2887	033102	200 00 0 00 041012 		MOVE	0,XLDFLG	;PRIMARY BUFFER BACKUP FLAG
  2888	033103	322 00 0 00 033106 		JUMPE	0,.+3		;CANT LOAD PRIMARY IF FLAG NOT SET!!
  2889	033104	202 07 0 00 000012 		MOVEM	7,12		;LOAD HOLDING REGISTER
  2890	033105	402 00 0 00 041012 		SETZM	XLDFLG		;INIT THE LOAD FLAG
  2891	033106	200 00 0 00 041013 		MOVE	0,XBUFLG	;SECONDARY BUFFER BACKUP FLAG
  2892	033107	322 00 0 00 033112 		JUMPE	0,.+3		;CANT LOAD SECONDARY IF FLAG NOT SET!!
  2893	033110	202 07 0 00 041014 		MOVEM	7,XBUFBK	;LOAD SECONDARY HOLDING REG
  2894	033111	402 00 0 00 041013 		SETZM	XBUFLG		;INIT THE LOAD FLAG
  2895	033112	202 07 0 00 041225 		MOVEM	7,GDDAT		;REPLACE PREVIOUS CONSTANT
  2896	033113	200 03 0 00 041240 		MOVE	3,TXDBUF	;ADDRESS OF TXDBUF REG
  2897	033114	713 07 0 03 000000 		WRIO	7,(3)		;LOAD CHAR - CLEAR TSOM ETC.....
  2898	033115	263 17 0 00 000000 		RTN
DSDUA DECSYSTEM 2020 DUP-11 DIAGNOSTIC VERSION 0,2	MACRO %53(1020) 08:16 15-Jun-79 Page 37
DSDUAM	MAC	14-Jun-79 16:28		*STATIC LOGIC TESTS -- .1-.155                                                     SEQ 0105

  2899	033116	200 03 0 00 041240 	T.34D:	MOVE	3,TXDBUF	;ADDRESS OF TXDBUF REG
  2900	033117	201 06 0 00 001000 		MOVEI	6,TEOM		;TRANSMIT END OF MSG BIT
  2901	033120	714 06 0 03 000000 		BSIO	6,(3)		;BIT SET 'TEOM'
  2902	033121	254 00 0 00 033050 		JRST	T.34F1		;CHECK FOR TEOM SET IN TXDBUF
  2903	033122	200 00 0 00 041016 	XSYNCK:	MOVE	0,XSYNCT	;GET CURRENT SYNC CK COUNT
  2904	033123	271 00 0 00 000001 		ADDI	0,1		;UPDATE IT
  2905	033124	202 00 0 00 041016 		MOVEM	0,XSYNCT	;STORE IT BACK
  2906						PKCLK	2		^;GIVE ONE FULL CLK
  2907	033125	201 11 0 00 000002 		MOVEI	11,^D2		;CLOCK TICK ARGUMENT
  2908	033126	264 00 0 00 040560 		JSR	DUPCLK		;CALL PKCLK ROUTINE
  2909	033127	200 00 0 00 041016 		MOVE	0,XSYNCT	;GET SYNC CK COUNT
  2910	033130	302 00 0 00 000006 		CAIE	0,6		;ONLY TRY SIX EXTRA CLOCKS
  2911	033131	254 00 0 00 032754 		JRST	T.34S1		;TRY ANOTHER CLOCK
  2912						ERROR	(T.34,13,0,0,TEST.34,<STATIC XMITTER FCNS TEST-CANT SYNC PROGRAM WITH FLAG
  2913					CHARACTER>,PRTSTA)^
  2914	033132	036 13 0 00 044677
  2915	033133	035 00 0 00 032735 		ERLOOP	T.34		;IF ERROR, LOOP TO T.34
  2916						NXTTST	(34,35)^
  2917	033134	201 05 0 00 000034 		MOVEI	5,34		;GET CURRENT TEST #
  2918	033135	260 17 0 00 040245 		GO	$NXTST		;GO CHECK SWITCHES
  2919	033136	254 00 0 00 032735 		JRST	T.34		;REPEAT SAME TEST
  2920	033137	201 05 0 00 033142 		MOVEI	5,T.35		;GET NXT TEST #
  2921	033140	202 05 0 00 030051 		MOVEM	5,TESTPC	;SAVE ADRS FOR PC
  2922	033141	254 00 0 00 033142 		JRST	T.35		;GO TO NEXT TEST^
  2923
DSDUA DECSYSTEM 2020 DUP-11 DIAGNOSTIC VERSION 0,2	MACRO %53(1020) 08:16 15-Jun-79 Page 38
DSDUAM	MAC	14-Jun-79 16:28		*STATIC LOGIC TESTS -- .1-.155                                                     SEQ 0106

  2924						XLIST
  2925						LIST
  2926						S^;*********************************************************************^
  2927						COMMENT $
  2928						 TEST.35-- *INTERNAL MAINT MODE/ABORT SEQUENCE TEST*
  2929							THIS TEST INITIALIZES THE UNIBUS ADAPTER STATUS
  2930						REGISTER TO ZEROS,INITIALIZES THE TXCSR REGISTER. THE
  2931						INITIALIZATION ALSO CLEARS RXCSR,RXDBUF,AND TXDBUF.
  2932						'NOCRC' IS SET TO INHIBIT TRANSMISSION OF A CRC
  2933						CHARACTER. THE DUP-11 IS PLACED IN INTERNAL MAINT
  2934						MODE (TXCSR BITS 12-11=1). SEND IS SET TO 1,
  2935						TO ENABLE THE TRANSMITTER LOGIC AND TSOM IS SET TO
  2936						1 TO BEGIN FLAG TRANSMISSION. AFTER ATTAINING
  2937						SYNCHRONIZATION *,BETWEEN THE DUP AND THE PROGRAM,
  2938						TRANSMITTER ABORT (TXABORT) IS SET IN TXDBUF. THE
  2939						FLAG IS ALREADY IN PROCESS AT THIS POINT. CLOCKS
  2940						ARE GIVEN TO COMPLETE PUSHING OUT THE FLAG AND
  2941						PUSH THE FIRST BIT OF THE ABORT CODE (11111111)
  2942						INTO THE MTDATA BIT WINDOW,WHERE IT IS CHECKED.
  2943						THIS PROCEDURE CONTINUES,FOR THE SECOND BIT OF
  2944						THE ABORT CODE. NOW,TXACT IS TESTED AND SHOULD BE
  2945						A 1. THE TXABORT BIT IN TXDBUF IS CLEARED AND
  2946						CLOCKING CONTINUES WITH CHECKING OF THE REMAINING
  2947						6 ABORT CODE BITS. FOLLOWING THIS,THE NORMAL FLAG,
  2948						DATA,FLAG,IDLE LINE SEQUENCE BEGINS. AFTER STARTING
  2949						THE FLAG,WITH THREE FULL CLOCKS,THE CHARACTER '252'
  2950						IS LOADED INTO TXDBUF. TEN FULL CLOCKS PUSH
  2951						OUT THE FIRST 5 BITS (LSB FIRST) OF '252'.
  2952						WE BIT SET TEOM IN TXDBUF,ISSUE THREE MORE FULL CLOCKS PUSHING
  2953						OUT THE LAST 3 BITS OF '252'.FINALLY,WE FORCE SEND THREE FLAGS
  2954						AND LET THE LINE IDLE AT A MARK.IF THERE ARE ANY DISCREPANCIES
  2955						AN ERROR PRINTOUT OCCURS.
  2956						* - SEE SYNC PROCEDURE FOR TEST.34.
  2957						$
  2958						S^;*********************************************************************^
  2959						XLIST
  2960						LIST
  2961	033142	260 17 0 00 040241 	T.35:	UBACLR			;INIT ADAPTER AND DUP LOGIC
  2962	033143	260 17 0 00 040234 		CSINIT			;PRE-TEST INITIALIZATION
  2963						CLEAR	TXDBUF		^;WRITE ZEROS INTO TXDBUF,CLEAR TXDONE
  2964	033144	403 01 0 00 000010 		SETZB	1,10
  2965	033145	713 10 1 00 041240 		WRIO	10,@TXDBUF		;LOAD ZEROS INTO SELECTED REG.
  2966	033146	402 00 0 00 041016 		SETZM	XSYNCT		;INIT SYNC COUNT TO ZERO
  2967	033147	201 06 0 00 001000 		MOVEI	6,CRCEN		;BIT TO TURN OFF 'CRC'
  2968	033150	200 03 0 00 041233 		MOVE	3,PARCSR	;PARAMATER STATUS REG ADDRESS
  2969	033151	713 06 0 03 000000 		WRIO	6,(3)		;LOAD PARCSR REG-SET 'NOCRC'
  2970	033152	201 06 0 00 014020 		MOVEI	6,MMODE!SEND	;INTERNAL MAINT MODE PLUS SEND
  2971	033153	476 00 0 00 041017 		SETOM	MMFLG		;SET HELP FLAG
  2972	033154	200 03 0 00 041236 		MOVE	3,TXCSRL	;ADDRESS OF TXCSR REG
  2973	033155	713 06 0 03 000000 		WRIO	6,(3)		;SET MODE-START CLK
  2974	033156	201 06 0 00 000400 		MOVEI	6,TSOM		;XMITTER ENABLE BIT
  2975	033157	200 03 0 00 041240 		MOVE	3,TXDBUF	;ADDRESS OF TXDBUF REG
  2976	033160	713 06 0 03 000000 		WRIO	6,(3)		;SET TSOM
DSDUA DECSYSTEM 2020 DUP-11 DIAGNOSTIC VERSION 0,2	MACRO %53(1020) 08:16 15-Jun-79 Page 39
DSDUAM	MAC	14-Jun-79 16:28		*STATIC LOGIC TESTS -- .1-.155                                                     SEQ 0107

  2977						PKCLK	6		^;BEGIN TO SYNC DUP
  2978	033161	201 11 0 00 000006 		MOVEI	11,^D6		;CLOCK TICK ARGUMENT
  2979	033162	264 00 0 00 040560 		JSR	DUPCLK		;CALL PKCLK ROUTINE
  2980	033163	200 03 0 00 041236 	T.35S1:	MOVE	3,TXCSRL
  2981	033164	712 05 0 03 000000 		RDIO	5,(3)		;READ TXCSR REG
  2982	033165	606 05 0 00 000200 		TRNN	5,TXDONE	;TEST TXDONE
  2983	033166	254 00 0 00 033316 		JRST	T.35S		;CHECK AND GIVE EXTRA CLK
  2984	033167	606 05 0 00 001000 		TRNN	5,TXACT		;TEST TXACTIVE
  2985	033170	254 00 0 00 033316 		JRST	T.35S		;CHECK AND GIVE EXTRA CLK
  2986						PKCLK	2		^;OK!,WE ARE SYNCED UP NOW
  2987	033171	201 11 0 00 000002 		MOVEI	11,^D2		;CLOCK TICK ARGUMENT
  2988	033172	264 00 0 00 040560 		JSR	DUPCLK		;CALL PKCLK ROUTINE
  2989	033173	200 03 0 00 041240 		MOVE	3,TXDBUF	;ADDRESS OF TXDBUF REG
  2990	033174	201 06 0 00 002000 		MOVEI	6,TABORT	;TXABORT BIT
  2991	033175	714 06 0 03 000000 		BSIO	6,(3)		;SET TXABORT
  2992	033176	402 00 0 00 041225 		SETZM	GDDAT
  2993						PKCLK	12		^;PUSH OUT THE ABORT
  2994	033177	201 11 0 00 000014 		MOVEI	11,^D12		;CLOCK TICK ARGUMENT
  2995	033200	264 00 0 00 040560 		JSR	DUPCLK		;CALL PKCLK ROUTINE
  2996						PKCLK	2		^;AND PUSH OUT A BIT
  2997	033201	201 11 0 00 000002 		MOVEI	11,^D2		;CLOCK TICK ARGUMENT
  2998	033202	264 00 0 00 040560 		JSR	DUPCLK		;CALL PKCLK ROUTINE
  2999	033203	400 05 0 00 000000 		SETZ	5,		;INIT RECIEVING REG
  3000	033204	200 03 0 00 041235 		MOVE	3,TXCSR
  3001	033205	712 05 0 03 000000 		RDIO	5,(3)		;READ TXCSR REG
  3002	033206	606 05 0 00 040000 		TRNN	5,MTDATA	;TEST THE MTDATA BIT
  3003						ERROR	(T.35,13,0,0,TEST.35,<STATIC XMITTER FCNS TEST-FIRST 1 BIT OF ABORT CODE NO
  3004					T=1>,PRTSTA)^
  3005	033207	036 13 0 00 044716
  3006	033210	035 00 0 00 033142 		ERLOOP	T.35		;IF ERROR, LOOP TO T.35
  3007						PKCLK	2		^;PUSH OUT ANOTHER BIT
  3008	033211	201 11 0 00 000002 		MOVEI	11,^D2		;CLOCK TICK ARGUMENT
  3009	033212	264 00 0 00 040560 		JSR	DUPCLK		;CALL PKCLK ROUTINE
  3010	033213	400 05 0 00 000000 		SETZ	5,		;INIT RECIEVING REG
  3011	033214	712 05 0 03 000000 		RDIO	5,(3)		;READ TXCSR
  3012	033215	606 05 0 00 040000 		TRNN	5,MTDATA	;TEST THE MTDATA BIT
  3013						ERROR	(T.35,13,0,0,TEST.35,<STATIC XMITTER FCNS TEST-2ND 1 BIT OF ABORT CODE NOT=
  3014					1>,PRTSTA)^
  3015	033216	036 13 0 00 044733
  3016	033217	035 00 0 00 033142 		ERLOOP	T.35		;IF ERROR, LOOP TO T.35
  3017	033220	606 05 0 00 001000 		TRNN	5,TXACT		;TEST TXACTIVE
  3018						ERROR	(T.35,13,0,0,TEST.35,<STATIC XMITTER FCNS TEST-TXACT NOT SET>,PRTSTA)^
  3019	033221	036 13 0 00 044736
  3020	033222	035 00 0 00 033142 		ERLOOP	T.35		;IF ERROR, LOOP TO T.35
  3021	033223	200 03 0 00 041240 		MOVE	3,TXDBUF	;ADDRESS OF TXDBUF REG
  3022	033224	201 06 0 00 002000 		MOVEI	6,TABORT	;TXABORT BIT
  3023	033225	715 06 0 03 000000 		BCIO	6,(3)		;CLEAR TXABORT
  3024	033226	402 00 0 00 041225 		SETZM	GDDAT
  3025	033227				T.35E:	PKCLK	2		^;PUSH OUT A BIT
  3026	033227	201 11 0 00 000002 		MOVEI	11,^D2		;CLOCK TICK ARGUMENT
  3027	033230	264 00 0 00 040560 		JSR	DUPCLK		;CALL PKCLK ROUTINE
  3028	033231	400 05 0 00 000000 		SETZ	5,
  3029	033232	200 03 0 00 041235 		MOVE	3,TXCSR		;ADDRESS OF TXCSR REG
  3030	033233	712 05 0 03 000000 		RDIO	5,(3)		;READ TXCSR REG
  3031	033234	606 05 0 00 040000 		TRNN	5,MTDATA	;TEST MTDATA BIT
DSDUA DECSYSTEM 2020 DUP-11 DIAGNOSTIC VERSION 0,2	MACRO %53(1020) 08:16 15-Jun-79 Page 39-1
DSDUAM	MAC	14-Jun-79 16:28		*STATIC LOGIC TESTS -- .1-.155                                                     SEQ 0108

  3032						ERROR	(T.35,13,0,0,TEST.35,<STATIC XMITTER FCNS TEST-ABORT CHARACTER NOT ALL ONES
  3033					>,PRTSTA)^
  3034	033235	036 13 0 00 044752
  3035	033236	035 00 0 00 033142 		ERLOOP	T.35		;IF ERROR, LOOP TO T.35
  3036	033237	350 00 0 00 041225 		AOS	GDDAT		;COUNT PUSHED BITS
  3037	033240	200 00 0 00 041225 		MOVE	0,GDDAT		;GET COUNT
  3038	033241	305 00 0 00 000006 		CAIGE	0,6		;DONE 6 BITS ??
  3039	033242	254 00 0 00 033227 		JRST	T.35E		;NO-CONTINUE TO PUSH OUT BITS
  3040						PKCLK	6		^;YES-START FLAG ON ITS WAY
  3041	033243	201 11 0 00 000006 		MOVEI	11,^D6		;CLOCK TICK ARGUMENT
  3042	033244	264 00 0 00 040560 		JSR	DUPCLK		;CALL PKCLK ROUTINE
  3043	033245	200 03 0 00 041240 		MOVE	3,TXDBUF
  3044	033246	201 06 0 00 000252 		MOVEI	6,252		;PATTERN
  3045	033247	713 06 0 03 000000 		WRIO	6,(3)		;LOAD TXDBUF WITH 252
  3046						PKCLK	20		^;FINISH FLAG AND DATA
  3047	033250	201 11 0 00 000024 		MOVEI	11,^D20		;CLOCK TICK ARGUMENT
  3048	033251	264 00 0 00 040560 		JSR	DUPCLK		;CALL PKCLK ROUTINE
  3049	033252	201 06 0 00 001000 		MOVEI	6,TEOM		;TRANSMIT END OF MSG BIT
  3050	033253	714 06 0 03 000000 		BSIO	6,(3)		;SET TEOM IN TXDBUF
  3051						PKCLK	6^
  3052	033254	201 11 0 00 000006 		MOVEI	11,^D6		;CLOCK TICK ARGUMENT
  3053	033255	264 00 0 00 040560 		JSR	DUPCLK		;CALL PKCLK ROUTINE
  3054						FLG	3		^;PUSH OUT 3 FLAG CHARS (01111110)
  3055	033256	201 12 0 00 000003 		MOVEI	12,^D3		;SETUP FOR (N) FLAGS
  3056	033257	201 11 0 00 000002 		MOVEI	11,^D2		;CLOCK TICK ARGUMENT
  3057	033260	264 00 0 00 040560 		JSR	DUPCLK		;CALL PKCLK ROUTINE
  3058	033261	201 16 0 00 000000 	..0002:	MOVEI	16,0		;INIT COUNTER
  3059	033262	201 11 0 00 000002 		MOVEI	11,^D2		;CLOCK TICK ARGUMENT
  3060	033263	264 00 0 00 040560 		JSR	DUPCLK		;CALL PKCLK ROUTINE
  3061	033264	350 00 0 00 000016 		AOS	16		;COUNT THE ONE BITS
  3062	033265	302 16 0 00 000006 		CAIE	16,6		;HAVE WE GENERATED 6 ONES YET??
  3063	033266	254 00 0 00 033262 		JRST	..0002+1		;NO-PUSH OUT ANOTHER ONE
  3064	033267	201 11 0 00 000002 		MOVEI	11,^D2		;CLOCK TICK ARGUMENT
  3065	033270	264 00 0 00 040560 		JSR	DUPCLK		;CALL PKCLK ROUTINE
  3066	033271	275 12 0 00 000001 		SUBI	12,1		;DECREMENT FLAG COUNT
  3067	033272	326 12 0 00 033257 		JUMPN	12,..0001		;JUMP IF NOT ALL FLAGS DONE
  3068	033273	200 03 0 00 041236 		MOVE	3,TXCSRL
  3069	033274	201 06 0 00 000020 		MOVEI	6,SEND		;SEND BIT
  3070	033275	715 06 0 03 000000 		BCIO	6,(3)		;CLEAR SEND IN TXCSR REG
  3071						PKCLK	4^
  3072	033276	201 11 0 00 000004 		MOVEI	11,^D4		;CLOCK TICK ARGUMENT
  3073	033277	264 00 0 00 040560 		JSR	DUPCLK		;CALL PKCLK ROUTINE
  3074	033300	400 05 0 00 000000 		SETZ	5,		;INIT RECIEVING REG
  3075	033301	712 05 0 03 000000 		RDIO	5,(3)		;READ TXCSR REG
  3076	033302	606 05 0 00 040000 		TRNN	5,MTDATA	;TEST MTDATA BIT
  3077						ERROR	(T.35,13,0,0,TEST.35,<STATIC XMITTER FCNS TEST-NOT MARKING STATE>,PRTSTA)^
  3078
  3079	033303	036 13 0 00 044765
  3080	033304	035 00 0 00 033142 		ERLOOP	T.35		;IF ERROR, LOOP TO T.35
  3081	033305	606 05 0 00 000200 		TRNN	5,TXDONE	;TEST TXDONE
  3082						ERROR	(T.35,13,0,0,TEST.35,<STATIC XMITTER FCNS TEST-TXDONE NOT SET>,PRTSTA)^
  3083	033306	036 13 0 00 044770
  3084	033307	035 00 0 00 033142 		ERLOOP	T.35		;IF ERROR, LOOP TO T.35
  3085						NXTTST	(35,36)^
  3086	033310	201 05 0 00 000035 		MOVEI	5,35		;GET CURRENT TEST #
DSDUA DECSYSTEM 2020 DUP-11 DIAGNOSTIC VERSION 0,2	MACRO %53(1020) 08:16 15-Jun-79 Page 39-2
DSDUAM	MAC	14-Jun-79 16:28		*STATIC LOGIC TESTS -- .1-.155                                                     SEQ 0109

  3087	033311	260 17 0 00 040245 		GO	$NXTST		;GO CHECK SWITCHES
  3088	033312	254 00 0 00 033142 		JRST	T.35		;REPEAT SAME TEST
  3089	033313	201 05 0 00 033336 		MOVEI	5,T.36		;GET NXT TEST #
  3090	033314	202 05 0 00 030051 		MOVEM	5,TESTPC	;SAVE ADRS FOR PC
  3091	033315	254 00 0 00 033336 		JRST	T.36		;GO TO NEXT TEST^
  3092
  3093	033316	200 00 0 00 041016 	T.35S:	MOVE	0,XSYNCT	;GET SYNC CK COUNT
  3094	033317	271 00 0 00 000001 		ADDI	0,1		;UPDATE IT
  3095	033320	202 00 0 00 041016 		MOVEM	0,XSYNCT	;STORE IT BACK
  3096						PKCLK	2		^;GIVE ONE FULL CLOCK
  3097	033321	201 11 0 00 000002 		MOVEI	11,^D2		;CLOCK TICK ARGUMENT
  3098	033322	264 00 0 00 040560 		JSR	DUPCLK		;CALL PKCLK ROUTINE
  3099	033323	200 00 0 00 041016 		MOVE	0,XSYNCT	;GET SYNC CK COUNT
  3100	033324	302 00 0 00 000006 		CAIE	0,6		;ALLOW ONLY 6 EXTRA CLOCKS
  3101	033325	254 00 0 00 033163 		JRST	T.35S1		;TRY ANOTHER CLOCK
  3102						ERROR	(T.35,13,0,0,TEST.35,<STATIC XMITTER FCNS TEST-CANT SYNC PROGRAM WITH FLAG
  3103					CHARACTER>,PRTSTA)^
  3104	033326	036 13 0 00 044773
  3105	033327	035 00 0 00 033142 		ERLOOP	T.35		;IF ERROR, LOOP TO T.35
  3106						NXTTST	(35,36)^
  3107	033330	201 05 0 00 000035 		MOVEI	5,35		;GET CURRENT TEST #
  3108	033331	260 17 0 00 040245 		GO	$NXTST		;GO CHECK SWITCHES
  3109	033332	254 00 0 00 033142 		JRST	T.35		;REPEAT SAME TEST
  3110	033333	201 05 0 00 033336 		MOVEI	5,T.36		;GET NXT TEST #
  3111	033334	202 05 0 00 030051 		MOVEM	5,TESTPC	;SAVE ADRS FOR PC
  3112	033335	254 00 0 00 033336 		JRST	T.36		;GO TO NEXT TEST^
  3113
DSDUA DECSYSTEM 2020 DUP-11 DIAGNOSTIC VERSION 0,2	MACRO %53(1020) 08:16 15-Jun-79 Page 40
DSDUAM	MAC	14-Jun-79 16:28		*STATIC LOGIC TESTS -- .1-.155                                                     SEQ 0110

  3114						XLIST
  3115						LIST
  3116						S^;*********************************************************************^
  3117						COMMENT $
  3118						 TEST.36-- *MAINT MODE/DATA UNDER-RUN TEST*
  3119							THIS TEST INITIALIZES THE UNIBUS ADAPTER
  3120						STATUS REGISTER TO ZEROS,INITIALIZES THE TXCSR REGISTER.
  3121						THE INITIALIZATION ALSO CLEARS RXCSR,RXDBUF,AND TXDBUF.
  3122						'NOCRC' IS SET TO INHIBIT TRANSMISSION OF A CRC CHARACTER
  3123						THE DUP-11 IS PLACED IN INTERNAL MAINT MODE (TXCSR BITS
  3124						12-11=1). SEND IS SET TO 1,TO ENABLE THE TRANSMITTER
  3125						LOGIC. TSOM IS SET TO ONE TO BEGIN FLAG TRANSMISSION.
  3126						AFTER ATTAINING SYNCHRONIZATION *,BETWEEN THE DUP AND
  3127						THE PROGRAM,THE TXDBUFFER IS LOADED WITH ZEROS
  3128						CLEARING TXDONE. SEVEN CLOCKS ARE NOW ISSUED,PUSHING
  3129						OUT THE FLAG E.G.(01111110). NEXT,UP TO 7 1/2 FULL
  3130						CLOCKS ARE ISSUED,AND TXDATA LATE (TXCSR BIT 15) IS
  3131						TESTED;IT SHOULD BE CLEAR. NOW,ONE FULL CLOCK IS
  3132						ISSUED AND AGAIN,TXDATA LATE IS TESTED;IT SHOULD BE
  3133						SET. WE NEXT CLEAR SEND,GIVE 8 FULL CLOCKS(PUSHING
  3134						OUT THE FINAL FLAG)AND CONTINUE CLOCKING WHILE
  3135						CHECKING TO MAKE SHURE THAT THE LINE GOES TO A
  3136						SPACE COND. IF THERE ARE ANY DISCREPANCIES,AN ERROR
  3137						PRINTOUT OCCURS
  3138
  3139						* - SEE SYNC PROCEDURE FOR TEST .34.
  3140						$
  3141						S^;*********************************************************************^
  3142						XLIST
  3143						LIST
  3144
  3145	033336	260 17 0 00 040241 	T.36:	UBACLR			;INIT ADAPTER AND DUP LOGIC
  3146	033337	260 17 0 00 040234 		CSINIT			;PRE-TEST INITIALIZATION
  3147	033340	402 00 0 00 041225 		SETZM	GDDAT
  3148						CLEAR	TXDBUF		^;WRITE ZEROS INTO TXDBUF
  3149	033341	403 01 0 00 000010 		SETZB	1,10
  3150	033342	713 10 1 00 041240 		WRIO	10,@TXDBUF		;LOAD ZEROS INTO SELECTED REG.
  3151	033343	402 00 0 00 041016 		SETZM	XSYNCT		;INIT SYNC COUNT TO ZERO
  3152	033344	201 06 0 00 001000 		MOVEI	6,CRCEN		;BIT TO TURN OFF 'CRC'
  3153	033345	200 03 0 00 041233 		MOVE	3,PARCSR	;ADDRESS OF PARCSR REG
  3154	033346	713 06 0 03 000000 		WRIO	6,(3)		;LOAD PARCSR-SET 'NOCRC'
  3155	033347	201 06 0 00 014020 		MOVEI	6,MMODE!SEND	;INTERNAL MAINT MODE PLUS SEND
  3156	033350	476 00 0 00 041017 		SETOM	MMFLG		;SET HELP FLAG
  3157	033351	200 03 0 00 041236 		MOVE	3,TXCSRL	;ADDRESS OF TXCSR REG
  3158	033352	713 06 0 03 000000 		WRIO	6,(3)		;SET MODE-START CLK
  3159	033353	201 06 0 00 000400 		MOVEI	6,TSOM		;XMITTER ENABLE BIT
  3160	033354	200 03 0 00 041240 		MOVE	3,TXDBUF
  3161	033355	713 06 0 03 000000 		WRIO	6,(3)		;SET TSOM
  3162						PKCLK	6		^;BEGIN TO SYNC DUP
  3163	033356	201 11 0 00 000006 		MOVEI	11,^D6		;CLOCK TICK ARGUMENT
  3164	033357	264 00 0 00 040560 		JSR	DUPCLK		;CALL PKCLK ROUTINE
DSDUA DECSYSTEM 2020 DUP-11 DIAGNOSTIC VERSION 0,2	MACRO %53(1020) 08:16 15-Jun-79 Page 41
DSDUAM	MAC	14-Jun-79 16:28		*STATIC LOGIC TESTS -- .1-.155                                                     SEQ 0111

  3165	033360	200 03 0 00 041236 	T.36S1:	MOVE	3,TXCSRL	;ADDRESS OF TXCSR REG
  3166	033361	712 05 0 03 000000 		RDIO	5,(3)		;READ TXCSR REG
  3167	033362	606 05 0 00 000200 		TRNN	5,TXDONE	;TEST TXDONE
  3168	033363	254 00 0 00 033434 		JRST	T.36S		;CHECK AND GIVE EXTRA CLOCK
  3169	033364	606 05 0 00 001000 		TRNN	5,TXACT		;TEST TXACTIVE
  3170	033365	254 00 0 00 033434 		JRST	T.36S		;CHECK AND GIVE EXTRA CLOCK
  3171						CLEAR	TXDBUF		^;CLEAR TSOM-LOAD BUFFER WITH ZEROS
  3172	033366	403 01 0 00 000010 		SETZB	1,10
  3173	033367	713 10 1 00 041240 		WRIO	10,@TXDBUF		;LOAD ZEROS INTO SELECTED REG.
  3174						PKCLK	14		^;FINISH FLAG
  3175	033370	201 11 0 00 000016 		MOVEI	11,^D14		;CLOCK TICK ARGUMENT
  3176	033371	264 00 0 00 040560 		JSR	DUPCLK		;CALL PKCLK ROUTINE
  3177						PKCLK	15		^;OUTPUT UP TO 7 1/2 CLOCK TICKS
  3178	033372	201 11 0 00 000017 		MOVEI	11,^D15		;CLOCK TICK ARGUMENT
  3179	033373	264 00 0 00 040560 		JSR	DUPCLK		;CALL PKCLK ROUTINE
  3180	033374	200 03 0 00 041236 		MOVE	3,TXCSRL	;ADDRESS OF TXCSR REG
  3181	033375	712 05 0 03 000000 		RDIO	5,(3)		;READ TXCSR REG
  3182	033376	602 05 0 00 100000 		TRNE	5,TXDLAT	;TEST DATA LATE
  3183						ERROR	(T.36,13,0,0,TEST.36,<STATIC XMITTER FCNS TEST-TXDLAT IS SET AND SHOULDN'T
  3184					BE>,PRTSTA)^
  3185	033377	036 13 0 00 045012
  3186	033400	035 00 0 00 033336 		ERLOOP	T.36		;IF ERROR, LOOP TO T.36
  3187						PKCLK	2^
  3188	033401	201 11 0 00 000002 		MOVEI	11,^D2		;CLOCK TICK ARGUMENT
  3189	033402	264 00 0 00 040560 		JSR	DUPCLK		;CALL PKCLK ROUTINE
  3190	033403	712 05 0 03 000000 		RDIO	5,(3)		;READ TXCSR REG
  3191	033404	606 05 0 00 100000 		TRNN	5,TXDLAT	;TEST FOR UNDER-RUN,SHOULD BE SET!
  3192						ERROR	(T.36,13,0,0,TEST.36,<STATIC XMITTER FCNS TEST-TXDLAT NOT AND SHOULD BE>,PR
  3193					TSTA)^
  3194	033405	036 13 0 00 045026
  3195	033406	035 00 0 00 033336 		ERLOOP	T.36		;IF ERROR, LOOP TO T.36
  3196	033407	201 06 0 00 000020 		MOVEI	6,SEND		;SEND BIT
  3197	033410	715 06 0 03 000000 		BCIO	6,(3)		;CLEAR SEND
  3198						PKCLK	16		^;PUSH 8-BITS
  3199	033411	201 11 0 00 000020 		MOVEI	11,^D16		;CLOCK TICK ARGUMENT
  3200	033412	264 00 0 00 040560 		JSR	DUPCLK		;CALL PKCLK ROUTINE
  3201	033413				T.36B1:	PKCLK	2		^;PUSH OUT A BIT
  3202	033413	201 11 0 00 000002 		MOVEI	11,^D2		;CLOCK TICK ARGUMENT
  3203	033414	264 00 0 00 040560 		JSR	DUPCLK		;CALL PKCLK ROUTINE
  3204	033415	400 05 0 00 000000 		SETZ	5,		;INIT RECIEVING REG
  3205	033416	712 05 0 03 000000 		RDIO	5,(3)		;READ TXCSR REG
  3206	033417	602 05 0 00 040000 		TRNE	5,MTDATA	;TEST WINDOW FOR SPACING COND
  3207						ERROR	(T.36,13,0,0,TEST.36,<STATIC XMITTER FCNS TEST-LINE NOT SPACING>,PRTSTA)^
  3208	033420	036 13 0 00 045040
  3209	033421	035 00 0 00 033336 		ERLOOP	T.36		;IF ERROR, LOOP TO T.36
  3210	033422	350 00 0 00 041225 		AOS	GDDAT
  3211	033423	200 00 0 00 041225 		MOVE	0,GDDAT		;GET COUNT
  3212	033424	302 00 0 00 000010 		CAIE	0,^D8		;DONE 8 BITS YET?
  3213	033425	254 00 0 00 033413 		JRST	T.36B1		;NO-CONTINUE PUSHING
  3214						NXTTST	(36,37)^
  3215	033426	201 05 0 00 000036 		MOVEI	5,36		;GET CURRENT TEST #
  3216	033427	260 17 0 00 040245 		GO	$NXTST		;GO CHECK SWITCHES
  3217	033430	254 00 0 00 033336 		JRST	T.36		;REPEAT SAME TEST
  3218	033431	201 05 0 00 033454 		MOVEI	5,T.37		;GET NXT TEST #
  3219	033432	202 05 0 00 030051 		MOVEM	5,TESTPC	;SAVE ADRS FOR PC
DSDUA DECSYSTEM 2020 DUP-11 DIAGNOSTIC VERSION 0,2	MACRO %53(1020) 08:16 15-Jun-79 Page 41-1
DSDUAM	MAC	14-Jun-79 16:28		*STATIC LOGIC TESTS -- .1-.155                                                     SEQ 0112

  3220	033433	254 00 0 00 033454 		JRST	T.37		;GO TO NEXT TEST^
  3221
  3222	033434	200 00 0 00 041016 	T.36S:	MOVE	0,XSYNCT	;GET SYNC CK COUNT
  3223	033435	271 00 0 00 000001 		ADDI	0,1		;UPDATE IT
  3224	033436	202 00 0 00 041016 		MOVEM	0,XSYNCT	;STORE IT BACK
  3225						PKCLK	2		^;GIVE ONE FULL CLOCK
  3226	033437	201 11 0 00 000002 		MOVEI	11,^D2		;CLOCK TICK ARGUMENT
  3227	033440	264 00 0 00 040560 		JSR	DUPCLK		;CALL PKCLK ROUTINE
  3228	033441	200 00 0 00 041016 		MOVE	0,XSYNCT
  3229	033442	302 00 0 00 000006 		CAIE	0,6		;ALLOW ONLY 6 EXTRA CLOCKS
  3230	033443	254 00 0 00 033360 		JRST	T.36S1		;TRY ANOTHER CLOCK
  3231						ERROR	(T.36,13,0,0,TEST.36,<STATIC XMITTER FCNS TEST-CANT SYNC PROGRAM WITH FLAG
  3232					CHARACTER>,PRTSTA)^
  3233	033444	036 13 0 00 045043
  3234	033445	035 00 0 00 033336 		ERLOOP	T.36		;IF ERROR, LOOP TO T.36
  3235						NXTTST	(36,37)^
  3236	033446	201 05 0 00 000036 		MOVEI	5,36		;GET CURRENT TEST #
  3237	033447	260 17 0 00 040245 		GO	$NXTST		;GO CHECK SWITCHES
  3238	033450	254 00 0 00 033336 		JRST	T.36		;REPEAT SAME TEST
  3239	033451	201 05 0 00 033454 		MOVEI	5,T.37		;GET NXT TEST #
  3240	033452	202 05 0 00 030051 		MOVEM	5,TESTPC	;SAVE ADRS FOR PC
  3241	033453	254 00 0 00 033454 		JRST	T.37		;GO TO NEXT TEST^
  3242
DSDUA DECSYSTEM 2020 DUP-11 DIAGNOSTIC VERSION 0,2	MACRO %53(1020) 08:16 15-Jun-79 Page 42
DSDUAM	MAC	14-Jun-79 16:28		*STATIC LOGIC TESTS -- .1-.155                                                     SEQ 0113

  3243						XLIST
  3244						LIST
  3245						S^;*********************************************************************^
  3246						COMMENT $
  3247						 TEST.37-- *INTERNAL MAINT MODE/'SEND//TEOM' INTERACTION TEST (WITHOUT BIT STUFF)*
  3248							THIS TEST INITIALIZES THE UNIBUS ADAPTER STATUS REGISTER
  3249						TO ZEROS,INITIALIZES THE TXCSR REGISTER. THE INITIALIZATION ALSO
  3250						CLEARS RXCSR,RXDBUF,AND TXDBUF. 'NOCRC' IS SET TO INHIBIT
  3251						TRANSMISSION OF A CRC CHARACTER. THE DUP-11 IS PLACED IN INTERNAL
  3252						MAINT MODE (TXCSR BITS 12-11=1). SEND IS SET TO 1,TO ENABLE THE
  3253						TRANSMITTER LOGIC AND TSOM IS SET TO 1,TO BEGIN FLAG TRANSMISSION.
  3254						AFTER ATTAINING SYNCHRONIZATION *,BETWEEN THE DUP AND THE PROGRAM,
  3255						A CHARACTER '252' IS LOADED INTO TXDBUF,WHILE CLEARING TSOM.
  3256						SIX FULL CLOCKS ARE ISSUED,PUSHING OUT THE SIX 1-BITS OF THE
  3257						FLAG CHARACTER. SEND IS CLEARED AND ONE FULL CLOCK IS ISSUED
  3258						TO PUSH OUT THE FINAL 0 BIT OF THE FLAG. FROM THIS POINT
  3259						A LOOP IS ENTERED THAT ISSUES 5 FULL CLOCKS,AND THEN CHECKS
  3260						THE BIT WINDOW FOR A 'SPACING COND'. THIS LOOP IS PERFORMED
  3261						EIGHT TIMES WITH CHECKING AFTER EACH GROUP OF 5 FULL CLOCKS.
  3262						FINALLY TXACTIVE IS TESTED AND SHOULD BE CLEAR. IF THERE ARE
  3263						ANY DISCREPANCIES,AN ERROR PRINTOUT OCCURS.
  3264
  3265						* - SEE SYNC PROCEDURE FOR TEST .34.
  3266						$
  3267						S^;*********************************************************************^
  3268						XLIST
  3269						LIST
  3270
  3271	033454	260 17 0 00 040241 	T.37:	UBACLR			;INIT ADAPTER AND DUP LOGIC
  3272	033455	260 17 0 00 040234 		CSINIT			;PRE-TEST INITIALIZATION
  3273	033456	402 00 0 00 041225 		SETZM	GDDAT
  3274						CLEAR	TXDBUF		^;WRITE ZEROS INTO TXDBUF
  3275	033457	403 01 0 00 000010 		SETZB	1,10
  3276	033460	713 10 1 00 041240 		WRIO	10,@TXDBUF		;LOAD ZEROS INTO SELECTED REG.
  3277	033461	402 00 0 00 041016 		SETZM	XSYNCT		;INIT SYNC COUNT TO ZERO
  3278	033462	201 06 0 00 001000 		MOVEI	6,CRCEN		;BIT TO TURN OFF 'CRC'
  3279	033463	200 03 0 00 041233 		MOVE	3,PARCSR	;ADDRESS OF PARAM STATUS REG
  3280	033464	713 06 0 03 000000 		WRIO	6,(3)		;LOAD PARCSR REG-SET 'NOCRC'
  3281	033465	201 06 0 00 014020 		MOVEI	6,MMODE!SEND	;INTERNAL MAINT MODE PLUS SEND
  3282	033466	476 00 0 00 041017 		SETOM	MMFLG		;SET HELP FLAG
  3283	033467	200 03 0 00 041236 		MOVE	3,TXCSRL
  3284	033470	713 06 0 03 000000 		WRIO	6,(3)		;SET MODE-START CLOCK
  3285	033471	201 06 0 00 000400 		MOVEI	6,TSOM		;XMITTER ENABLE BIT
  3286	033472	200 03 0 00 041240 		MOVE	3,TXDBUF
  3287	033473	713 06 0 03 000000 		WRIO	6,(3)		;SET TSOM
  3288						PKCLK	6		^;BEGIN TO SYNC DUP
  3289	033474	201 11 0 00 000006 		MOVEI	11,^D6		;CLOCK TICK ARGUMENT
  3290	033475	264 00 0 00 040560 		JSR	DUPCLK		;CALL PKCLK ROUTINE
DSDUA DECSYSTEM 2020 DUP-11 DIAGNOSTIC VERSION 0,2	MACRO %53(1020) 08:16 15-Jun-79 Page 43
DSDUAM	MAC	14-Jun-79 16:28		*STATIC LOGIC TESTS -- .1-.155                                                     SEQ 0114

  3291	033476	200 03 0 00 041236 	T.37S1:	MOVE	3,TXCSRL	;ADDRESS OF TXCSR REG
  3292	033477	712 05 0 03 000000 		RDIO	5,(3)		;READ TXCSR
  3293	033500	606 05 0 00 000200 		TRNN	5,TXDONE	;TEST TXDONE
  3294	033501	254 00 0 00 033543 		JRST	T.37S		;CHECK AND GIVE EXTRA CLOCK
  3295	033502	606 05 0 00 001000 		TRNN	5,TXACT		;TEST TXACTIVE
  3296	033503	254 00 0 00 033543 		JRST	T.37S		;CHECK AND GIVE EXTRA CLOCK
  3297	033504	201 06 0 00 000252 		MOVEI	6,252		;PATTERN
  3298	033505	200 03 0 00 041240 		MOVE	3,TXDBUF
  3299	033506	713 06 0 03 000000 		WRIO	6,(3)		;LOAD CHAR INTO TXDBUF
  3300						PKCLK	12		^;PUSH 6 BITS OUT
  3301	033507	201 11 0 00 000014 		MOVEI	11,^D12		;CLOCK TICK ARGUMENT
  3302	033510	264 00 0 00 040560 		JSR	DUPCLK		;CALL PKCLK ROUTINE
  3303	033511	200 03 0 00 041236 		MOVE	3,TXCSRL	;ADDRESS OF TXCSR REG
  3304	033512	201 06 0 00 000020 		MOVEI	6,SEND
  3305	033513	715 06 0 03 000000 		BCIO	6,(3)		;CLEAR SEND
  3306						PKCLK	2		^;GIVE ONE FULL CLOCK
  3307	033514	201 11 0 00 000002 		MOVEI	11,^D2		;CLOCK TICK ARGUMENT
  3308	033515	264 00 0 00 040560 		JSR	DUPCLK		;CALL PKCLK ROUTINE
  3309	033516				T.37A1:	PKCLK	10		^;PUSH OUT 5 BITS
  3310	033516	201 11 0 00 000012 		MOVEI	11,^D10		;CLOCK TICK ARGUMENT
  3311	033517	264 00 0 00 040560 		JSR	DUPCLK		;CALL PKCLK ROUTINE
  3312	033520	400 05 0 00 000000 		SETZ	5,		;INIT RECIEVING REG
  3313	033521	712 05 0 03 000000 		RDIO	5,(3)		;READ TXCSR REG
  3314	033522	602 05 0 00 040000 		TRNE	5,MTDATA	;TEST BIT-SHOULD BE SPACE
  3315						ERROR	(T.37,13,0,0,TEST.37,<STATIC XMITTER FCNS TEST-FAILED TO SPACE>,PRTSTA)^
  3316	033523	036 13 0 00 045057
  3317	033524	035 00 0 00 033454 		ERLOOP	T.37		;IF ERROR, LOOP TO T.37
  3318	033525	350 00 0 00 041225 		AOS	GDDAT		;INCREMENT COUNT
  3319	033526	200 00 0 00 041225 		MOVE	0,GDDAT		;GET COUNT
  3320	033527	302 00 0 00 000010 		CAIE	0,^D8		;TRIED 8 TIMES ??
  3321	033530	254 00 0 00 033516 		JRST	T.37A1		;NO-KEEP CLOCKING BITS
  3322	033531	712 05 0 03 000000 		RDIO	5,(3)		;READ TXCSR
  3323	033532	602 05 0 00 001000 		TRNE	5,TXACT		;TEST TXACTIVE
  3324						ERROR	(T.37,13,0,0,TEST.37,<STATIC XMITTER FCNS TEST-TXACT NOT CLEAR>,PRTSTA)^
  3325	033533	036 13 0 00 045062
  3326	033534	035 00 0 00 033454 		ERLOOP	T.37		;IF ERROR, LOOP TO T.37
  3327						NXTTST	(37,40)^
  3328	033535	201 05 0 00 000037 		MOVEI	5,37		;GET CURRENT TEST #
  3329	033536	260 17 0 00 040245 		GO	$NXTST		;GO CHECK SWITCHES
  3330	033537	254 00 0 00 033454 		JRST	T.37		;REPEAT SAME TEST
  3331	033540	201 05 0 00 033563 		MOVEI	5,T.40		;GET NXT TEST #
  3332	033541	202 05 0 00 030051 		MOVEM	5,TESTPC	;SAVE ADRS FOR PC
  3333	033542	254 00 0 00 033563 		JRST	T.40		;GO TO NEXT TEST^
  3334	033543	200 00 0 00 041016 	T.37S:	MOVE	0,XSYNCT	;GET SYNC CK COUNT
  3335	033544	271 00 0 00 000001 		ADDI	0,1		;UPDATE IT
  3336	033545	202 00 0 00 041016 		MOVEM	0,XSYNCT	;STORE IT BACK
  3337						PKCLK	2		^;GIVE ONE FULL CLOCK
  3338	033546	201 11 0 00 000002 		MOVEI	11,^D2		;CLOCK TICK ARGUMENT
  3339	033547	264 00 0 00 040560 		JSR	DUPCLK		;CALL PKCLK ROUTINE
  3340	033550	200 00 0 00 041016 		MOVE	0,XSYNCT	;GET SYNC CK COUNT
  3341	033551	302 00 0 00 000006 		CAIE	0,6		;ALLOW ONLY 6 EXTRA CLOCKS
  3342	033552	254 00 0 00 033476 		JRST	T.37S1		;TRY ANOTHER CLOCK
  3343						ERROR	(T.37,13,0,0,TEST.37,<STATIC XMITTER FCNS TEST-CANT SYNC PROGRAM WITH FLAG>
  3344					,PRTSTA)^
  3345	033553	036 13 0 00 045076
DSDUA DECSYSTEM 2020 DUP-11 DIAGNOSTIC VERSION 0,2	MACRO %53(1020) 08:16 15-Jun-79 Page 43-1
DSDUAM	MAC	14-Jun-79 16:28		*STATIC LOGIC TESTS -- .1-.155                                                     SEQ 0115

  3346	033554	035 00 0 00 033454 		ERLOOP	T.37		;IF ERROR, LOOP TO T.37
  3347						NXTTST	(37,40)^
  3348	033555	201 05 0 00 000037 		MOVEI	5,37		;GET CURRENT TEST #
  3349	033556	260 17 0 00 040245 		GO	$NXTST		;GO CHECK SWITCHES
  3350	033557	254 00 0 00 033454 		JRST	T.37		;REPEAT SAME TEST
  3351	033560	201 05 0 00 033563 		MOVEI	5,T.40		;GET NXT TEST #
  3352	033561	202 05 0 00 030051 		MOVEM	5,TESTPC	;SAVE ADRS FOR PC
  3353	033562	254 00 0 00 033563 		JRST	T.40		;GO TO NEXT TEST^
  3354
DSDUA DECSYSTEM 2020 DUP-11 DIAGNOSTIC VERSION 0,2	MACRO %53(1020) 08:16 15-Jun-79 Page 44
DSDUAM	MAC	14-Jun-79 16:28		*STATIC LOGIC TESTS -- .1-.155                                                     SEQ 0116

  3355						XLIST
  3356						LIST
  3357						S^;*********************************************************************^
  3358						COMMENT $
  3359						 TEST.40-- *INTERNAL MAINT MODE/'SEND/TEOM' INTERACTION TEST (WITH BIT STUFF)*
  3360							THIS TEST INITIALIZES THE UNIBUS ADAPTER STATUS REGISTER
  3361						TO ZEROS,INITIALIZES THE TXCSR REGISTER. THE INITIALIZATION ALSO
  3362						CLEARS RXCSR,RXDBUF,AND TXDBUF. 'NOCRC' IS SET TO INHIBIT
  3363						TRANSMISSION OF A CRC CHARACTER. THE DUP-11 IS PLACED IN INTERNAL
  3364						MAINT MODE (TXCSR BITS 12-11=1). SEND IS SET TO 1,TO ENABLE THE
  3365						TRANSMITTER LOGIC AND TSOM IS SET TO 1,TO BEGIN FLAG TRANSMISSION.
  3366						AFTER ATTAINING SYNCHRONIZATION *,BETWEEN THE DUP AND THE PROGRAM,
  3367						A CHARACTER '177',IS LOADED INTO TXDBUF,WHILE CLEARING TSOM.
  3368						SEVEN FULL CLOCKS ARE ISSUED,PUSHING OUT THE FLAG AND THE FIRST
  3369						(LSB) DATA BIT OF THE CHARACTER '177'. SEND IS NOW CLEARED,AND
  3370						SIX FULL CLOCKS ARE ISSUED PUSHING OUT THE LOW ORDER 5-BITS OF
  3371						THE CHARACTER '177' AND THE STUFFED ZERO,WHICH IS TESTED AT THIS
  3372						POINT. NEXT,TWO FULL CLOCKS ARE ISSUED PUSHING OUT THE REMAINING
  3373						TWO 1-BITS OF THE CHARACTER AND THE MSB IS TESTED FOR '=1'. AT
  3374						THIS POINT A SERIES OF EIGHT SINGLE FULL CLOCKS ARE ISSUED,WITH
  3375						CHECKING FOR A 'SPACING COND' AFTER EACH CLOCK. IF THERE ARE
  3376						ANY DISCREPANCIES,AN ERROR PRINTOUT OCCURS.
  3377
  3378						* - SEE SYNC PROCEDURE FOR TEST .34.
  3379						$
  3380						S^;*********************************************************************^
  3381						XLIST
  3382						LIST
  3383
  3384	033563	260 17 0 00 040241 	T.40:	UBACLR			;INIT ADAPTER AND DUP LOGIC
  3385	033564	260 17 0 00 040234 		CSINIT			;PRE-TEST INITIALIZATION
  3386	033565	402 00 0 00 041225 		SETZM	GDDAT
  3387						CLEAR	TXDBUF		^;WRITE ZEROS INTO TXDBUF REG
  3388	033566	403 01 0 00 000010 		SETZB	1,10
  3389	033567	713 10 1 00 041240 		WRIO	10,@TXDBUF		;LOAD ZEROS INTO SELECTED REG.
  3390	033570	402 00 0 00 041016 		SETZM	XSYNCT		;INIT SYNC COUNT TO ZERO
  3391	033571	201 06 0 00 001000 		MOVEI	6,CRCEN		;BIT TO TURN OFF CRC
  3392	033572	200 03 0 00 041233 		MOVE	3,PARCSR	;ADDRESS OF PARAM STATUS REG
  3393	033573	713 06 0 03 000000 		WRIO	6,(3)		;LOAD PARCSR REG-SET 'NOCRC'
  3394	033574	201 06 0 00 014020 		MOVEI	6,MMODE!SEND	;INTERNAL MAINT MODE PLUS SEND
  3395	033575	476 00 0 00 041017 		SETOM	MMFLG		;SET HELP FLAG
  3396	033576	200 03 0 00 041236 		MOVE	3,TXCSRL	;ADDRESS OF TXCSR REG
  3397	033577	713 06 0 03 000000 		WRIO	6,(3)		;SET MODE-START CLOCK
  3398	033600	201 06 0 00 000400 		MOVEI	6,TSOM		;XMITTER ENABLE BIT
  3399	033601	200 03 0 00 041240 		MOVE	3,TXDBUF	;ADDRESS OF TXDBUF REG
  3400	033602	713 06 0 03 000000 		WRIO	6,(3)		;SET TSOM
  3401						PKCLK	6		^;BEGIN TO SYNC DUP
  3402	033603	201 11 0 00 000006 		MOVEI	11,^D6		;CLOCK TICK ARGUMENT
  3403	033604	264 00 0 00 040560 		JSR	DUPCLK		;CALL PKCLK ROUTINE
DSDUA DECSYSTEM 2020 DUP-11 DIAGNOSTIC VERSION 0,2	MACRO %53(1020) 08:16 15-Jun-79 Page 45
DSDUAM	MAC	14-Jun-79 16:28		*STATIC LOGIC TESTS -- .1-.155                                                     SEQ 0117

  3404	033605	200 03 0 00 041236 	T.40S1:	MOVE	3,TXCSRL	;ADDRESS OF TXCSR REG
  3405	033606	712 05 0 03 000000 		RDIO	5,(3)		;READ TXCSR REG
  3406	033607	606 05 0 00 000200 		TRNN	5,TXDONE	;TEST TXDONE
  3407	033610	254 00 0 00 033665 		JRST	T.40S		;CHECK AND GIVE EXTRA CLOCK
  3408	033611	606 05 0 00 001000 		TRNN	5,TXACT		;TEST TXACTIVE
  3409	033612	254 00 0 00 033665 		JRST	T.40S		;CHECK AND GIVE EXTRA CLOCK
  3410	033613	201 06 0 00 000177 		MOVEI	6,177		;PATTERN
  3411	033614	200 03 0 00 041240 		MOVE	3,TXDBUF
  3412	033615	713 06 0 03 000000 		WRIO	6,(3)		;LOAD CHAR INTO TXDBUF
  3413						PKCLK	14		^;PUSH OUT 7-BITS
  3414	033616	201 11 0 00 000016 		MOVEI	11,^D14		;CLOCK TICK ARGUMENT
  3415	033617	264 00 0 00 040560 		JSR	DUPCLK		;CALL PKCLK ROUTINE
  3416	033620	200 03 0 00 041236 		MOVE	3,TXCSRL	;ADDRESS OF TXCSR REG
  3417	033621	201 06 0 00 000020 		MOVEI	6,SEND
  3418	033622	715 06 0 03 000000 		BCIO	6,(3)		;CLEAR SEND
  3419						PKCLK	12		^;PUSH OUT 6-BITS
  3420	033623	201 11 0 00 000014 		MOVEI	11,^D12		;CLOCK TICK ARGUMENT
  3421	033624	264 00 0 00 040560 		JSR	DUPCLK		;CALL PKCLK ROUTINE
  3422	033625	400 05 0 00 000000 		SETZ	5,
  3423	033626	712 05 0 03 000000 		RDIO	5,(3)		;READ TXCSR REG
  3424	033627	602 05 0 00 040000 		TRNE	5,MTDATA	;TEST BIT STUFF FCN
  3425						ERROR	(T.40,13,0,0,TEST.40,<STATIC XMITTER FCNS TEST-BIT STUFF FAILED,BIT NOT=0>,
  3426					PRTSTA)^
  3427	033630	036 13 0 00 045114
  3428	033631	035 00 0 00 033563 		ERLOOP	T.40		;IF ERROR, LOOP TO T.40
  3429						PKCLK	4		^;PUSH OUT 2-BITS
  3430	033632	201 11 0 00 000004 		MOVEI	11,^D4		;CLOCK TICK ARGUMENT
  3431	033633	264 00 0 00 040560 		JSR	DUPCLK		;CALL PKCLK ROUTINE
  3432	033634	712 05 0 03 000000 		RDIO	5,(3)		;READ TXCSR REG
  3433	033635	606 05 0 00 040000 		TRNN	5,MTDATA	;TEST THAT LAST 1-BIT IS THERE
  3434						ERROR	(T.40,13,0,0,TEST.40,<STATIC XMITTER FCNS TEST-MSB OF CHAR NOT OUTPUT AS 1>
  3435					,PRTSTA)^
  3436	033636	036 13 0 00 045130
  3437	033637	035 00 0 00 033563 		ERLOOP	T.40		;IF ERROR, LOOP TO T.40
  3438	033640				T.40A1:	PKCLK	2		^;PUSH OUT A BIT
  3439	033640	201 11 0 00 000002 		MOVEI	11,^D2		;CLOCK TICK ARGUMENT
  3440	033641	264 00 0 00 040560 		JSR	DUPCLK		;CALL PKCLK ROUTINE
  3441	033642	400 05 0 00 000000 		SETZ	5,
  3442	033643	712 05 0 03 000000 		RDIO	5,(3)		;READ TXCSR REG
  3443	033644	602 05 0 00 040000 		TRNE	5,MTDATA	;TEST BIT FOR CORRECT DATA
  3444						ERROR	(T.40,13,0,0,TEST.40,<STATIC XMITTER FCNS TEST-FAILED TO SPACE>,PRTSTA)^
  3445	033645	036 13 0 00 045133
  3446	033646	035 00 0 00 033563 		ERLOOP	T.40		;IF ERROR, LOOP TO T.40
  3447	033647	350 00 0 00 041225 		AOS	GDDAT		;INCREMENT COUNT
  3448	033650	200 00 0 00 041225 		MOVE	0,GDDAT		;GET COUNT
  3449	033651	302 00 0 00 000010 		CAIE	0,^D8		;PROCESSED 8-BITS??
  3450	033652	254 00 0 00 033640 		JRST	T.40A1		;NO-KEEP CLOCKING
  3451	033653	712 05 0 03 000000 		RDIO	5,(3)		;READ TXCSR REG
  3452	033654	602 05 0 00 001000 		TRNE	5,TXACT		;TEST TXACTIVE
  3453						ERROR	(T.40,13,0,0,TEST.40,<STATIC XMITTER FCNS TEST-TXACT NOT CLEAR>,PRTSTA)^
  3454	033655	036 13 0 00 045136
  3455	033656	035 00 0 00 033563 		ERLOOP	T.40		;IF ERROR, LOOP TO T.40
  3456						NXTTST	(40,41)^
  3457	033657	201 05 0 00 000040 		MOVEI	5,40		;GET CURRENT TEST #
  3458	033660	260 17 0 00 040245 		GO	$NXTST		;GO CHECK SWITCHES
DSDUA DECSYSTEM 2020 DUP-11 DIAGNOSTIC VERSION 0,2	MACRO %53(1020) 08:16 15-Jun-79 Page 45-1
DSDUAM	MAC	14-Jun-79 16:28		*STATIC LOGIC TESTS -- .1-.155                                                     SEQ 0118

  3459	033661	254 00 0 00 033563 		JRST	T.40		;REPEAT SAME TEST
  3460	033662	201 05 0 00 033705 		MOVEI	5,T.41		;GET NXT TEST #
  3461	033663	202 05 0 00 030051 		MOVEM	5,TESTPC	;SAVE ADRS FOR PC
  3462	033664	254 00 0 00 033705 		JRST	T.41		;GO TO NEXT TEST^
  3463
  3464	033665	200 00 0 00 041016 	T.40S:	MOVE	0,XSYNCT		;GET SYNC CK COUNT
  3465	033666	271 00 0 00 000001 		ADDI	0,1		;UPDATE IT
  3466	033667	202 00 0 00 041016 		MOVEM	0,XSYNCT	;STORE IT BACK
  3467						PKCLK	2		^;GIVE ONE FULL CLOCK
  3468	033670	201 11 0 00 000002 		MOVEI	11,^D2		;CLOCK TICK ARGUMENT
  3469	033671	264 00 0 00 040560 		JSR	DUPCLK		;CALL PKCLK ROUTINE
  3470	033672	200 00 0 00 041016 		MOVE	0,XSYNCT	;GET SYNC CK COUNT
  3471	033673	302 00 0 00 000006 		CAIE	0,6		;ALLOW ONLY 6 EXTRA CLOCKS
  3472	033674	254 00 0 00 033605 		JRST	T.40S1		;TRY ANOTHER CLOCK
  3473						ERROR	(T.40,13,0,0,TEST.40,<STATIC XMITTER FCNS TEST-CANT SYNC PROGRAM WITH FLAG>
  3474					,PRTSTA)^
  3475	033675	036 13 0 00 045141
  3476	033676	035 00 0 00 033563 		ERLOOP	T.40		;IF ERROR, LOOP TO T.40
  3477						NXTTST	(40,41)^
  3478	033677	201 05 0 00 000040 		MOVEI	5,40		;GET CURRENT TEST #
  3479	033700	260 17 0 00 040245 		GO	$NXTST		;GO CHECK SWITCHES
  3480	033701	254 00 0 00 033563 		JRST	T.40		;REPEAT SAME TEST
  3481	033702	201 05 0 00 033705 		MOVEI	5,T.41		;GET NXT TEST #
  3482	033703	202 05 0 00 030051 		MOVEM	5,TESTPC	;SAVE ADRS FOR PC
  3483	033704	254 00 0 00 033705 		JRST	T.41		;GO TO NEXT TEST^
  3484
DSDUA DECSYSTEM 2020 DUP-11 DIAGNOSTIC VERSION 0,2	MACRO %53(1020) 08:16 15-Jun-79 Page 46
DSDUAM	MAC	14-Jun-79 16:28		*STATIC LOGIC TESTS -- .1-.155                                                     SEQ 0119

  3485						XLIST
  3486						LIST
  3487						S^;*********************************************************************^
  3488						COMMENT $
  3489						 TEST.41-- *INTERNAL MAINT MODE/'DATA UNDER-RUN'TEST*
  3490							THIS TEST INITIALIZES THE UNIBUS ADAPTER STATUS
  3491						REGISTER TO ZEROS,INITIALIZES THE TXCSR REGISTER. THE
  3492						INITIALIZATION ALSO CLEARS RXCSR,RXDBUF AND TXDBUF.
  3493						'NOCRC' IS SET TO INHIBIT TRANSMISSION OF A CRC CHAR.
  3494						THE DUP-11 IS PLACED IN INTERNAL MAINT MODE (TXCSR BITS
  3495						12-11=1). SEND IS SET TO 1,TO BEGIN FLAG TRANSMISSION.
  3496						AFTER ATTAINING SYNCHRONIZATION *,BETWEEN THE DUP
  3497						AND THE PROGRAM,A CHARACTER '176' IS LOADED INTO
  3498						TXDBUF,WHILE CLEARING TSOM. SEVEN FULL CLOCKS ARE
  3499						ISSUED,PUSHING OUT THE FLAG AND THE FIRST (LSB)
  3500						DATA BIT OF THE CHARACTER '176'. NEXT,AT LEAST
  3501						7 1/2 FULL CLOCKS ARE ISSUED (JUST SHORT OF THE
  3502						NUMBER REQUIRED TO CAUSE AN UNDER-RUN CONDITION.
  3503						WE NOW TEST FOR DATA LATE (TXDLAT),WHICH SHOULD
  3504						BE CLEAR AT THIS TIME. NOW WE ISSUE TWO FULL CLOCKS
  3505						TO FORCE AN UNDER-RUN CONDITION AND TEST TXDLAT
  3506						WHICH NOW,SHOULD BE SET. WE ALSO TEST THE BIT
  3507						WINDOW,FOR A 1-BIT WHICH IS THE 'MARKING STATE'.
  3508						IF THERE ARE ANY DISCREPANCIES,AN ERROR PRINTOUT
  3509						OCCURS.
  3510
  3511						* - SEE SYNC PROCEDURE FOR TEST .34.
  3512						$
  3513						S^;*********************************************************************^
  3514						XLIST
  3515						LIST
  3516
  3517	033705	260 17 0 00 040241 	T.41:	UBACLR			;INIT ADAPTER AND DUP LOGIC
  3518	033706	260 17 0 00 040234 		CSINIT			;PRE-TEST INITIALIZATION
  3519	033707	402 00 0 00 041225 		SETZM	GDDAT
  3520						CLEAR	TXDBUF		^;WRITE ZEROS TO TXDBUF REG
  3521	033710	403 01 0 00 000010 		SETZB	1,10
  3522	033711	713 10 1 00 041240 		WRIO	10,@TXDBUF		;LOAD ZEROS INTO SELECTED REG.
  3523	033712	402 00 0 00 041016 		SETZM	XSYNCT		;INIT SYNC COUNT TO ZERO
  3524	033713	201 06 0 00 001000 		MOVEI	6,CRCEN		;BIT TO TURN OFF 'CRC'
  3525	033714	200 03 0 00 041233 		MOVE	3,PARCSR	;ADDRESS OF PARCSR REG
  3526	033715	713 06 0 03 000000 		WRIO	6,(3)		;LOAD PARCSR-SET 'NOCRC'
  3527	033716	201 06 0 00 014020 		MOVEI	6,MMODE!SEND	;INTERNAL MAINT MODE PLUS SEND
  3528	033717	476 00 0 00 041017 		SETOM	MMFLG		;SET HELP FLAG
  3529	033720	200 03 0 00 041236 		MOVE	3,TXCSRL	;ADDRESS OF TXCSR REG
  3530	033721	713 06 0 03 000000 		WRIO	6,(3)		;SET MODE-START CLOCK
  3531	033722	201 06 0 00 000400 		MOVEI	6,TSOM		;XMITTER ENABLE BIT
  3532	033723	200 03 0 00 041240 		MOVE	3,TXDBUF
  3533	033724	713 06 0 03 000000 		WRIO	6,(3)		;SET TSOM
  3534						PKCLK	6		^;BEGIN TO SYNC DUP
  3535	033725	201 11 0 00 000006 		MOVEI	11,^D6		;CLOCK TICK ARGUMENT
  3536	033726	264 00 0 00 040560 		JSR	DUPCLK		;CALL PKCLK ROUTINE
DSDUA DECSYSTEM 2020 DUP-11 DIAGNOSTIC VERSION 0,2	MACRO %53(1020) 08:16 15-Jun-79 Page 47
DSDUAM	MAC	14-Jun-79 16:28		*STATIC LOGIC TESTS -- .1-.155                                                     SEQ 0120

  3537	033727	200 03 0 00 041236 	T.41S1:	MOVE	3,TXCSRL	;ADDRESS OF TXCSR REG
  3538	033730	712 05 0 03 000000 		RDIO	5,(3)		;READ TXCSR REG
  3539	033731	606 05 0 00 000200 		TRNN	5,TXDONE	;TEST TXDONE
  3540	033732	254 00 0 00 034002 		JRST	T.41S		;CHECK AND GIVE EXTRA CLOCK
  3541	033733	606 05 0 00 001000 		TRNN	5,TXACT		;TEST TXACTIVE
  3542	033734	254 00 0 00 034002 		JRST	T.41S		;CHECK AND GIVE EXTRA CLOCK
  3543	033735	201 06 0 00 000176 		MOVEI	6,176		;PATTERN TO BE STUFFED
  3544	033736	200 03 0 00 041241 		MOVE	3,TXDBUL	;ADDRESS OF TXDBUF LO-BYTE
  3545	033737	723 06 0 03 000000 		WRIOB	6,(3)		;LOAD CHAR,DONT CLEAR BITS 15-08
  3546	033740	201 06 0 00 000001 		MOVEI	6,1		;START OF MSG BIT (ADJUSTED)
  3547	033741	200 03 0 00 041242 		MOVE	3,TXDBUH	;ADDRESS OF TXDBUF HI-BYTE
  3548	033742	725 06 0 03 000000 		BCIOB	6,(3)		;CLEAR TSOM IN TXDBUF LEAVE REST ALONE
  3549						PKCLK	14		^;FINISH FLAG
  3550	033743	201 11 0 00 000016 		MOVEI	11,^D14		;CLOCK TICK ARGUMENT
  3551	033744	264 00 0 00 040560 		JSR	DUPCLK		;CALL PKCLK ROUTINE
  3552						PKCLK	15		^;OUTPUT UP TO 7 1/2 CLOCK TICKS
  3553	033745	201 11 0 00 000017 		MOVEI	11,^D15		;CLOCK TICK ARGUMENT
  3554	033746	264 00 0 00 040560 		JSR	DUPCLK		;CALL PKCLK ROUTINE
  3555	033747	200 03 0 00 041236 		MOVE	3,TXCSRL
  3556	033750	712 05 0 03 000000 		RDIO	5,(3)		;READ TXCSR REG
  3557	033751	602 05 0 00 100000 		TRNE	5,TXDLAT	;TEST DATA LATE
  3558						ERROR	(T.41,13,0,0,TEST.41,<STATIC XMITTER FCNS TEST-TXDLAT SET TOO EARLY>,PRTSTA
  3559					)^
  3560	033752	036 13 0 00 045156
  3561	033753	035 00 0 00 033705 		ERLOOP	T.41		;IF ERROR, LOOP TO T.41
  3562						PKCLK	2		^;BIT STUFF!
  3563	033754	201 11 0 00 000002 		MOVEI	11,^D2		;CLOCK TICK ARGUMENT
  3564	033755	264 00 0 00 040560 		JSR	DUPCLK		;CALL PKCLK ROUTINE
  3565	033756	712 05 0 03 000000 		RDIO	5,(3)		;READ TXCSR REG
  3566	033757	602 05 0 00 100000 		TRNE	5,TXDLAT	;TEST DATA LATE
  3567						ERROR	(T.41,13,0,0,TEST.41,<STATIC XMITTER FCNS TEST-TXDLAT SET TOO EARLY>,PRTSTA
  3568					)^
  3569	033760	036 13 0 00 045156
  3570	033761	035 00 0 00 033705 		ERLOOP	T.41		;IF ERROR, LOOP TO T.41
  3571						PKCLK	4		^;FINISH CHAR- "CAUSE UNDER-RUN"
  3572	033762	201 11 0 00 000004 		MOVEI	11,^D4		;CLOCK TICK ARGUMENT
  3573	033763	264 00 0 00 040560 		JSR	DUPCLK		;CALL PKCLK ROUTINE
  3574	033764	712 05 0 03 000000 		RDIO	5,(3)		;READ TXCSR REG
  3575	033765	606 05 0 00 100000 		TRNN	5,TXDLAT	;TEST DATA LATE
  3576						ERROR	(T.41,13,0,0,TEST.41,<STATIC XMITTER FCNS TEST-TXDLAT NOT SET>,PRTSTA)^
  3577	033766	036 13 0 00 045170
  3578	033767	035 00 0 00 033705 		ERLOOP	T.41		;IF ERROR, LOOP TO T.41
  3579	033770	712 05 0 03 000000 		RDIO	5,(3)		;READ TXCSR REG
  3580	033771	606 05 0 00 040000 		TRNN	5,MTDATA	;TEST MTDATA
  3581						ERROR	(T.41,13,0,0,TEST.41,<STATIC XMITTER FCNS TEST-MTDATA BIT NOT SET>,PRTSTA)^
  3582
  3583	033772	036 13 0 00 045203
  3584	033773	035 00 0 00 033705 		ERLOOP	T.41		;IF ERROR, LOOP TO T.41
  3585						NXTTST	(41,42)^
  3586	033774	201 05 0 00 000041 		MOVEI	5,41		;GET CURRENT TEST #
  3587	033775	260 17 0 00 040245 		GO	$NXTST		;GO CHECK SWITCHES
  3588	033776	254 00 0 00 033705 		JRST	T.41		;REPEAT SAME TEST
  3589	033777	201 05 0 00 034022 		MOVEI	5,T.42		;GET NXT TEST #
  3590	034000	202 05 0 00 030051 		MOVEM	5,TESTPC	;SAVE ADRS FOR PC
  3591	034001	254 00 0 00 034022 		JRST	T.42		;GO TO NEXT TEST^
DSDUA DECSYSTEM 2020 DUP-11 DIAGNOSTIC VERSION 0,2	MACRO %53(1020) 08:16 15-Jun-79 Page 47-1
DSDUAM	MAC	14-Jun-79 16:28		*STATIC LOGIC TESTS -- .1-.155                                                     SEQ 0121

  3592
  3593	034002	200 00 0 00 041016 	T.41S:	MOVE	0,XSYNCT	;GET SYNC CK COUNT
  3594	034003	271 00 0 00 000001 		ADDI	0,1		;UPDATE IT
  3595	034004	202 00 0 00 041016 		MOVEM	0,XSYNCT	;STORE IT BACK
  3596						PKCLK	2		^;GIVE ONE FULL CLOCK
  3597	034005	201 11 0 00 000002 		MOVEI	11,^D2		;CLOCK TICK ARGUMENT
  3598	034006	264 00 0 00 040560 		JSR	DUPCLK		;CALL PKCLK ROUTINE
  3599	034007	201 00 0 00 041016 		MOVEI	0,XSYNCT	;
  3600	034010	302 00 0 00 000006 		CAIE	0,6		;ALLOW ONLY 6 EXTRA CLOCKS
  3601	034011	254 00 0 00 033727 		JRST	T.41S1		;TRY ANOTHER CLOCK
  3602						ERROR	(T.41,13,0,0,TEST.41,<STATIC XMITTER FCNS TEST-CANT SYNC PROGRAM WITH FLAG>
  3603					,PRTSTA)^
  3604	034012	036 13 0 00 045206
  3605	034013	035 00 0 00 033705 		ERLOOP	T.41		;IF ERROR, LOOP TO T.41
  3606						NXTTST	(41,42)^
  3607	034014	201 05 0 00 000041 		MOVEI	5,41		;GET CURRENT TEST #
  3608	034015	260 17 0 00 040245 		GO	$NXTST		;GO CHECK SWITCHES
  3609	034016	254 00 0 00 033705 		JRST	T.41		;REPEAT SAME TEST
  3610	034017	201 05 0 00 034022 		MOVEI	5,T.42		;GET NXT TEST #
  3611	034020	202 05 0 00 030051 		MOVEM	5,TESTPC	;SAVE ADRS FOR PC
  3612	034021	254 00 0 00 034022 		JRST	T.42		;GO TO NEXT TEST^
DSDUA DECSYSTEM 2020 DUP-11 DIAGNOSTIC VERSION 0,2	MACRO %53(1020) 08:16 15-Jun-79 Page 48
DSDUAM	MAC	14-Jun-79 16:28		*STATIC LOGIC TESTS -- .1-.155                                                     SEQ 0122

  3613						XLIST
  3614						LIST
  3615						S^;*********************************************************************^
  3616						COMMENT $
  3617						 TEST.42-- *INTERNAL MAINT MODE/'TSOM//TEOM'TEST*
  3618							THIS TEST INITIALIZES THE UNIBUS ADAPTER STATUS
  3619						REGISTER TO ZEROS,INITIALIZES THE TXCSR REGISTER. THE
  3620						INITIALIZATION ALSO CLEARS RXCSR,RXDBUF,AND TXDBUF.
  3621						'NOCRC' IS SET TO INHIBIT TRANSMISSION OF A CRC CHAR.
  3622						THE DUP-11 IS PLACED IN INTERNAL MAINT MODE (TXCSR BITS
  3623						12-11=1). SEND IS SET TO 1,TO BEGIN FLAG TRANSMISSION.
  3624						AFTER ATTAINING SYNCHRONIZATION *,BETWEEN THE DUP AND
  3625						THE PROGRAM,A CHARACTER '252' IS LOADED INTO TXDBUF
  3626						CLEARING TSOM. THIRTEEN FULL CLOCKS ARE ISSUED,AND
  3627						THEN BOTH TSOM AND TEOM ARE SET TO 1. NOW,TWO MORE FULL
  3628						CLOCKS ARE ISSUED AND TXACTIVE IS TESTED;IT SHOULD BE
  3629						SET AND REMAIN SET AS LONG AS BOTH TSOM AND TEOM
  3630						REMAIN SET. NEXT WE SETUP TO PUSH OUT A SINGLE FLAG CHAR.
  3631						CHECKING EACH BIT AS IT IS PUSHED OUT. ANY DISCREPANCIES
  3632						YIELD AN ERROR PRINTOUT.
  3633
  3634						* - SEE SYNC PROCEDURE FOR TEST .34.
  3635						$
  3636						S^;*********************************************************************^
  3637						XLIST
  3638						LIST
  3639
  3640	034022	260 17 0 00 040241 	T.42:	UBACLR			;INIT ADAPTER AND DUP LOGIC
  3641	034023	260 17 0 00 040234 		CSINIT			;PRE-TEST INITIALIZATION
  3642	034024	402 00 0 00 041225 		SETZM	GDDAT
  3643						CLEAR	TXDBUF		^;WRITE ZEROS TO TXDBUF
  3644	034025	403 01 0 00 000010 		SETZB	1,10
  3645	034026	713 10 1 00 041240 		WRIO	10,@TXDBUF		;LOAD ZEROS INTO SELECTED REG.
  3646	034027	402 00 0 00 041016 		SETZM	XSYNCT		;INIT SYNC COUNT TO ZEROS
  3647	034030	201 06 0 00 001000 		MOVEI	6,CRCEN		;BIT TO TURN OFF 'CRC'
  3648	034031	200 03 0 00 041233 		MOVE	3,PARCSR	;ADDRESS OF PARAM STATUS REG
  3649	034032	713 06 0 03 000000 		WRIO	6,(3)		;LOAD PARCSR REG-SET 'NOCRC'
  3650	034033	201 06 0 00 014020 		MOVEI	6,MMODE!SEND	;INTERNAL MAINT MODE PLUS SEND
  3651	034034	476 00 0 00 041017 		SETOM	MMFLG		;SET HELP FLAG
  3652	034035	200 03 0 00 041236 		MOVE	3,TXCSRL
  3653	034036	713 06 0 03 000000 		WRIO	6,(3)		;SET MODE START CLOCK
  3654	034037	201 06 0 00 000400 		MOVEI	6,TSOM		;XMITTER ENABLE BIT
  3655	034040	200 03 0 00 041240 		MOVE	3,TXDBUF
  3656	034041	713 06 0 03 000000 		WRIO	6,(3)		;SET TSOM
  3657						PKCLK	6		^;BEGIN TO SYNC DUP
  3658	034042	201 11 0 00 000006 		MOVEI	11,^D6		;CLOCK TICK ARGUMENT
  3659	034043	264 00 0 00 040560 		JSR	DUPCLK		;CALL PKCLK ROUTINE
DSDUA DECSYSTEM 2020 DUP-11 DIAGNOSTIC VERSION 0,2	MACRO %53(1020) 08:16 15-Jun-79 Page 49
DSDUAM	MAC	14-Jun-79 16:28		*STATIC LOGIC TESTS -- .1-.155                                                     SEQ 0123

  3660	034044	200 03 0 00 041236 	T.42S1:	MOVE	3,TXCSRL	;ADDRESS OT TXCSR REG
  3661	034045	712 05 0 03 000000 		RDIO	5,(3)		;READ TXCSR REG
  3662	034046	606 05 0 00 000200 		TRNN	5,TXDONE	;TEST TXDONE
  3663	034047	254 00 0 00 034131 		JRST	T.42S		;CHECK AND GIVE EXTRA CLOCK
  3664	034050	606 05 0 00 001000 		TRNN	5,TXACT		;TEST TXACTIVE
  3665	034051	254 00 0 00 034131 		JRST	T.42S		;CHECK AND GIVE EXTRA CLOCK
  3666	034052	201 06 0 00 000252 		MOVEI	6,252		;PATTERN
  3667	034053	200 03 0 00 041240 		MOVE	3,TXDBUF
  3668	034054	713 06 0 03 000000 		WRIO	6,(3)		;LOAD CHAR INTO TXDBUF
  3669						PKCLK	26		^;PUSH OUT FLAG AND CHAR
  3670	034055	201 11 0 00 000032 		MOVEI	11,^D26		;CLOCK TICK ARGUMENT
  3671	034056	264 00 0 00 040560 		JSR	DUPCLK		;CALL PKCLK ROUTINE
  3672	034057	201 06 0 00 001400 		MOVEI	6,TEOM!TSOM	;BOTH BITS
  3673	034060	200 03 0 00 041242 		MOVE	3,TXDBUH	;TXDBUF HI-BYTE ADDRESS
  3674	034061	714 06 0 03 000000 		BSIO	6,(3)		;SET TEOM AND TSOM
  3675						PKCLK	4		^;PUSH OUT TWO BITS
  3676	034062	201 11 0 00 000004 		MOVEI	11,^D4		;CLOCK TICK ARGUMENT
  3677	034063	264 00 0 00 040560 		JSR	DUPCLK		;CALL PKCLK ROUTINE
  3678	034064	200 03 0 00 041236 		MOVE	3,TXCSRL	;ADDRESS OF TXCSR REG
  3679	034065	712 05 0 03 000000 		RDIO	5,(3)		;READ TXCSR REG
  3680	034066	606 05 0 00 001000 		TRNN	5,TXACT		;TEST TXACTIVE
  3681						ERROR	(T.42,13,0,0,TEST.42,<STATIC XMITTER FCNS TEST-TXACT NOT SET>,PRTSTA)^
  3682	034067	036 13 0 00 045213
  3683	034070	035 00 0 00 034022 		ERLOOP	T.42		;IF ERROR, LOOP TO T.42
  3684	034071	201 12 0 00 000001 		MOVEI	12,1		;SETUP FOR 1 FLAG
  3685	034072				T.42A1:	PKCLK	2		^;GENERATE FIRST BIT OF FLAG
  3686	034072	201 11 0 00 000002 		MOVEI	11,^D2		;CLOCK TICK ARGUMENT
  3687	034073	264 00 0 00 040560 		JSR	DUPCLK		;CALL PKCLK ROUTINE
  3688	034074	201 10 0 00 000100 		MOVEI	10,1B29		;MAINT TX DATA OUT BIT
  3689	034075	200 14 0 00 041237 		MOVE	14,TXCSRH	;TXCSR HI-BYTE ADDRESS
  3690	034076	720 10 0 14 000000 		TIOEB	10,(14)	;TEST MTDATA BIT
  3691						ERROR	(T.42,13,0,0,TEST.42,<STATIC XMITTER FCNS TEST-FIRST BIT OF FLAG NOT 0>,PRT
  3692					STA)^
  3693	034077	036 13 0 00 045227
  3694	034100	035 00 0 00 034022 		ERLOOP	T.42		;IF ERROR, LOOP TO T.42
  3695	034101	201 16 0 00 000000 		MOVEI	16,0		;INIT COUNTER
  3696	034102				T.42B:	PKCLK	2		^;GENERATE NEXT FLAG BIT
  3697	034102	201 11 0 00 000002 		MOVEI	11,^D2		;CLOCK TICK ARGUMENT
  3698	034103	264 00 0 00 040560 		JSR	DUPCLK		;CALL PKCLK ROUTINE
  3699	034104	201 10 0 00 000100 		MOVEI	10,1B29
  3700	034105	721 10 0 14 000000 		TIONB	10,(14)	;TEST MTDATA BIT
  3701						ERROR	(T.42,13,0,0,TEST.42,<STATIC XMITTER FCNS TEST-FLAG BIT NOT A 1>,PRTSTA)^
  3702	034106	036 13 0 00 045241
  3703	034107	035 00 0 00 034022 		ERLOOP	T.42		;IF ERROR, LOOP TO T.42
  3704	034110	350 00 0 00 000016 		AOS	16		;COUNT 1 BITS
  3705	034111	302 16 0 00 000006 		CAIE	16,6		;GENERATE 6 ONES YET?
  3706	034112	254 00 0 00 034102 		JRST	T.42B		;NO-OUTPUT ANOTHER 1
  3707						PKCLK	2		^;YES-OUTPUT LAST ZERO
  3708	034113	201 11 0 00 000002 		MOVEI	11,^D2		;CLOCK TICK ARGUMENT
  3709	034114	264 00 0 00 040560 		JSR	DUPCLK		;CALL PKCLK ROUTINE
  3710	034115	201 10 0 00 000100 		MOVEI	10,1B29
  3711	034116	720 10 0 14 000000 		TIOEB	10,(14)	;TEST MTDATA BIT
  3712						ERROR	(T.42,13,0,0,TEST.42,<STATIC XMITTER FCNS TEST-LAST FLAG BIT NOT 0>,PRTSTA)
  3713					^
  3714	034117	036 13 0 00 045254
DSDUA DECSYSTEM 2020 DUP-11 DIAGNOSTIC VERSION 0,2	MACRO %53(1020) 08:16 15-Jun-79 Page 49-1
DSDUAM	MAC	14-Jun-79 16:28		*STATIC LOGIC TESTS -- .1-.155                                                     SEQ 0124

  3715	034120	035 00 0 00 034022 		ERLOOP	T.42		;IF ERROR, LOOP TO T.42
  3716	034121	275 12 0 00 000001 		SUBI	12,1		;DECREMENT FLAG CHAR COUNT
  3717	034122	326 12 0 00 034072 		JUMPN	12,T.42A1	;JUMP IF NOT ALL FLAGS DONE
  3718						NXTTST	(42,43)^
  3719	034123	201 05 0 00 000042 		MOVEI	5,42		;GET CURRENT TEST #
  3720	034124	260 17 0 00 040245 		GO	$NXTST		;GO CHECK SWITCHES
  3721	034125	254 00 0 00 034022 		JRST	T.42		;REPEAT SAME TEST
  3722	034126	201 05 0 00 034151 		MOVEI	5,T.43		;GET NXT TEST #
  3723	034127	202 05 0 00 030051 		MOVEM	5,TESTPC	;SAVE ADRS FOR PC
  3724	034130	254 00 0 00 034151 		JRST	T.43		;GO TO NEXT TEST^
  3725
  3726	034131	200 00 0 00 041016 	T.42S:	MOVE	0,XSYNCT	;GET CURRENT SYNC COUNT
  3727	034132	271 00 0 00 000001 		ADDI	0,1		;UPDATE IT
  3728	034133	202 00 0 00 041016 		MOVEM	0,XSYNCT	;STORE IT BACK
  3729						PKCLK	2		^;GIVE ONE FULL CLOCK
  3730	034134	201 11 0 00 000002 		MOVEI	11,^D2		;CLOCK TICK ARGUMENT
  3731	034135	264 00 0 00 040560 		JSR	DUPCLK		;CALL PKCLK ROUTINE
  3732	034136	200 00 0 00 041016 		MOVE	0,XSYNCT	;GET SYNC CK COUNT
  3733	034137	302 00 0 00 000006 		CAIE	0,6		;ONLY GIVE 6 EXTRA CLOCKS
  3734	034140	254 00 0 00 034044 		JRST	T.42S1		;TRY ANOTHER CLOCK
  3735						ERROR	(T.42,13,0,0,TEST.42,<STATIC XMITTER FCNS TEST-CANT SYNC PROGRAM WITH FLAG>
  3736					,PRTSTA)^
  3737	034141	036 13 0 00 045257
  3738	034142	035 00 0 00 034022 		ERLOOP	T.42		;IF ERROR, LOOP TO T.42
  3739						NXTTST	(42,43)^
  3740	034143	201 05 0 00 000042 		MOVEI	5,42		;GET CURRENT TEST #
  3741	034144	260 17 0 00 040245 		GO	$NXTST		;GO CHECK SWITCHES
  3742	034145	254 00 0 00 034022 		JRST	T.42		;REPEAT SAME TEST
  3743	034146	201 05 0 00 034151 		MOVEI	5,T.43		;GET NXT TEST #
  3744	034147	202 05 0 00 030051 		MOVEM	5,TESTPC	;SAVE ADRS FOR PC
  3745	034150	254 00 0 00 034151 		JRST	T.43		;GO TO NEXT TEST^
  3746
DSDUA DECSYSTEM 2020 DUP-11 DIAGNOSTIC VERSION 0,2	MACRO %53(1020) 08:16 15-Jun-79 Page 50
DSDUAM	MAC	14-Jun-79 16:28		*STATIC LOGIC TESTS -- .1-.155                                                     SEQ 0125

  3747						XLIST
  3748						LIST
  3749						S^;*********************************************************************^
  3750						COMMENT $
  3751						 TEST.43--*INTERNAL MAINT MODE(TEST OF THE BCC OPERATION USING
  3752						CRC.CCITT FOR THE POLYNOMIAL)TEST*
  3753							THIS TEST IS RUN IN INTERNAL MAINT MODE,A CERTAIN DATA
  3754						PATERN IS USED FROM TABLB.AT EACH TIME A DATA PATERN IS LOADED
  3755						INTO THE TRANSMITTER BUFFER,THE PROGRAM CALLS A SUBROUTINE
  3756						WHICH CALCULATES A SOFTWARE BCC.CHECKING IT  WITH THE WRDWR BCC
  3757						CALLED FROM SUBROUTINE "ACC" WILL AN ERROR PRINTOUT IF
  3758						THERE IS NO MATCH.(THIS TEST WILL LOOP ON DATA IF RELIAB IS
  3759						SET SW=400 RH).
  3760						$
  3761						S^;*********************************************************************^
  3762						XLIST
  3763						LIST
  3764	034151	525 02 0 00 600000 	T.43:	HRLOI	2,600000	;SET FOR CLEANING
  3765	034152	201 13 0 00 034247 		MOVEI	13,TABLB	;GET TABLE POINTER
  3766	034153	201 12 0 00 000004 		MOVEI	12,4		;SET # TO DO
  3767	034154	260 17 0 00 040241 	T.43A:	UBACLR			;INIT ADAPTER AND DUP LOGIC
  3768	034155	260 17 0 00 040234 		CSINIT			;PRE-TEST INITIALIZATION
  3769						CLEAR	TXDBUF		^;WRITE ZEROS INTO TXDBUF
  3770	034156	403 01 0 00 000010 		SETZB	1,10
  3771	034157	713 10 1 00 041240 		WRIO	10,@TXDBUF		;LOAD ZEROS INTO SELECTED REG.
  3772	034160	402 00 0 00 041016 		SETZM	XSYNCT		;INIT SYNC CK COUNT TO ZERO
  3773	034161	476 00 0 00 041017 		SETOM	MMFLG		;SET HELP FLAG
  3774	034162	201 06 0 00 014020 		MOVEI	6,MMODE!SEND	;INTERNAL MAINT MODE PLUS SEND
  3775	034163	713 06 1 00 041236 		WRIO	6,@TXCSRL	;SET MODE-START CLOCK
  3776	034164	201 06 0 00 000400 		MOVEI	6,TSOM		;XMITTER ENABLE BIT
  3777	034165	713 06 1 00 041240 		WRIO	6,@TXDBUF	;SET TSOM
  3778						PKCLK	6		^;BEGIN TO SYNC DUP
  3779	034166	201 11 0 00 000006 		MOVEI	11,^D6		;CLOCK TICK ARGUMENT
  3780	034167	264 00 0 00 040560 		JSR	DUPCLK		;CALL PKCLK ROUTINE
  3781	034170	200 03 0 00 041236 	T.43S1:	MOVE	3,TXCSRL
  3782	034171	712 05 0 03 000000 		RDIO	5,(3)		;READ TXCSR REG
  3783	034172	606 05 0 00 000200 		TRNN	5,TXDONE	;TEST TXDONE
  3784	034173	254 00 0 00 034227 		JRST	T.43S		;CHECK AND GIVE EXTRA CLOCK
  3785	034174	606 05 0 00 001000 		TRNN	5,TXACT		;TEST TXACTIVE
  3786	034175	254 00 0 00 034227 		JRST	T.43S		;CHECK AND GIVE EXTRA CLOCK
  3787	034176	200 06 1 00 000013 		MOVE	6,@13		;PATTERN
  3788	034177	713 06 1 00 041240 		WRIO	6,@TXDBUF	;LOAD CHARACTER,CLEAR TXDONE
  3789						PKCLK	16		^;PUSH OUT 8-BITS
  3790	034200	201 11 0 00 000020 		MOVEI	11,^D16		;CLOCK TICK ARGUMENT
  3791	034201	264 00 0 00 040560 		JSR	DUPCLK		;CALL PKCLK ROUTINE
  3792	034202	402 00 0 00 034253 		SETZM	CALBCC		;CLEAR OUT OLD BCC
  3793	034203	260 17 0 00 040267 		GO	SBCC		;CALCULATE A SOFTWARE BCC
  3794	034204	201 06 0 00 001000 		MOVEI	6,TEOM		;TEOM BIT (ADJUSTED)
  3795	034205	713 06 1 00 041240 		WRIO	6,@TXDBUF	;SET TEOM
  3796						PKCLK	14		^;PUSH OUT THE DATA
  3797	034206	201 11 0 00 000016 		MOVEI	11,^D14		;CLOCK TICK ARGUMENT
  3798	034207	264 00 0 00 040560 		JSR	DUPCLK		;CALL PKCLK ROUTINE
  3799	034210	260 17 0 00 040314 		GO	ACC		;DO A BCC CALCULATION (HRDWR)
  3800	034211	312 05 0 00 034253 		CAME	5,CALBCC	;DOES EXPECTED=FOUND?
DSDUA DECSYSTEM 2020 DUP-11 DIAGNOSTIC VERSION 0,2	MACRO %53(1020) 08:16 15-Jun-79 Page 51
DSDUAM	MAC	14-Jun-79 16:28		*STATIC LOGIC TESTS -- .1-.155                                                     SEQ 0126

  3801						ERROR	(T.43,13,CALBCC,5,TEST.43,<STATIC BCC MATCH ERROR>,PRTSTA)^
  3802	034212	036 13 0 00 045270
  3803	034213	035 00 0 00 034151 		ERLOOP	T.43		;IF ERROR, LOOP TO T.43
  3804	034214	037 10 0 00 000002 		SWITCH
  3805	034215	602 00 0 00 000400 		TRNE	0,RELIAB	;TEST FOR RELIABILITY
  3806	034216	254 00 0 00 034154 		JRST	T.43A		;YES LOOP ON SAME DATA
  3807	034217	271 13 0 00 000001 		ADDI	13,1		;MOVE TABLE POINTER
  3808	034220	367 12 0 00 034154 		SOJG	12,T.43A	;DONE ALL YET?
  3809						NXTTST	(43,44)^
  3810	034221	201 05 0 00 000043 		MOVEI	5,43		;GET CURRENT TEST #
  3811	034222	260 17 0 00 040245 		GO	$NXTST		;GO CHECK SWITCHES
  3812	034223	254 00 0 00 034151 		JRST	T.43		;REPEAT SAME TEST
  3813	034224	201 05 0 00 034254 		MOVEI	5,T.44		;GET NXT TEST #
  3814	034225	202 05 0 00 030051 		MOVEM	5,TESTPC	;SAVE ADRS FOR PC
  3815	034226	254 00 0 00 034254 		JRST	T.44		;GO TO NEXT TEST^
  3816
  3817	034227	200 00 0 00 041016 	T.43S:	MOVE	0,XSYNCT	;GET SYNC CK COUNT
  3818	034230	271 00 0 00 000001 		ADDI	0,1		;UPDATE IT
  3819	034231	202 00 0 00 041016 		MOVEM	0,XSYNCT	;STORE IT BACK
  3820						PKCLK	2		^;GIVE ONE FULL CLK
  3821	034232	201 11 0 00 000002 		MOVEI	11,^D2		;CLOCK TICK ARGUMENT
  3822	034233	264 00 0 00 040560 		JSR	DUPCLK		;CALL PKCLK ROUTINE
  3823	034234	200 00 0 00 041016 		MOVE	0,XSYNCT
  3824	034235	302 00 0 00 000006 		CAIE	0,6		;AT MOST GIVE 6 EXTRA CLKS
  3825	034236	254 00 0 00 034170 		JRST	T.43S1		;TRY ANOTHER CLOCK
  3826						ERROR	(T.43,13,0,0,TEST.43,<STATIC XMITTER FCNS TEST-CANT SYNC PROGRAM WITH FLAG>
  3827					,PRTSTA)^
  3828	034237	036 13 0 00 045273
  3829	034240	035 00 0 00 034151 		ERLOOP	T.43		;IF ERROR, LOOP TO T.43
  3830						NXTTST	(43,44)^
  3831	034241	201 05 0 00 000043 		MOVEI	5,43		;GET CURRENT TEST #
  3832	034242	260 17 0 00 040245 		GO	$NXTST		;GO CHECK SWITCHES
  3833	034243	254 00 0 00 034151 		JRST	T.43		;REPEAT SAME TEST
  3834	034244	201 05 0 00 034254 		MOVEI	5,T.44		;GET NXT TEST #
  3835	034245	202 05 0 00 030051 		MOVEM	5,TESTPC	;SAVE ADRS FOR PC
  3836	034246	254 00 0 00 034254 		JRST	T.44		;GO TO NEXT TEST^
  3837
  3838	034247	000000	000252		TABLB:	252
  3839	034250	000000	000000			0
  3840	034251	000000	000050			50
  3841	034252	000000	000000			0
  3842	034253	000000	000000		CALBCC:	0
  3843
DSDUA DECSYSTEM 2020 DUP-11 DIAGNOSTIC VERSION 0,2	MACRO %53(1020) 08:16 15-Jun-79 Page 52
DSDUAM	MAC	14-Jun-79 16:28		*STATIC LOGIC TESTS -- .1-.155                                                     SEQ 0127

  3844						XLIST
  3845						LIST
  3846						S^;*********************************************************************^
  3847						COMMENT $
  3848						 TEST.44-- *INTERNAL MAINT MODE/RCVR EN-RCVR ACTIVE-RSOM (PRIMARY MODE) TEST*
  3849							THIS TEST INITIALIZES THE UNIBUS ADAPTER STATUS REGISTER TO
  3850						ZEROS,INITIALIZES THE TXCSR REGISTER. THE INITIALIZATION ALSO CLEARS
  3851						RXCSR,RXDBUF,AND TXDBUF. 'NOCRC' IS SET TO INHIBIT RECEPTION OF A CRC
  3852						CHARACTER. THE DUP-11 IS PLACED IN INTERNAL MAINT MODE (TXCSR BITS
  3853						12-11=1). RCVEN IS SET TO ENABLE THE RECIEVER LOGIC. A SINGLE FLAG IS
  3854						PUSHED INTO THE MAINT INPUT BIT WINDOW ONE BIT AT A TIME. AFTER THE
  3855						LAST FLAG BIT HAS BEEN CLOCKED INTO THE WINDOW,RECIEVER ACTIVE (BIT 11
  3856						OF RXCSR) IS TESTED;IT SHOULD BE CLEAR AT THIS TIME. NEXT,A NULL CHAR,
  3857						(000) IS PUSHED (EIGHT FULL CLOCKS ARE ISSUED). FINALLY, A SINGLE 1/2
  3858						CLOCK IS ISSUED AND THE FOLLOWING BITS ARE TESTED: RXDONE,RSOM AND
  3859						RECACT - ALL SHOULD BE SET. ANY DISCREPANCIES YIELD AN ERROR PRINTOUT.
  3860						$
  3861						S^;*********************************************************************^
  3862						XLIST
  3863						LIST
  3864
  3865	034254	201 00 0 00 045276 	T.44:	MOVEI	0,[ASCIZ/STARTING *INTERNAL MAINTENANCE MODE (RECEIVER) TESTING*/]
  3866	034255	037 17 0 00 000000 		PNTAL
  3867	034256	037 01 0 00 030242 		PCRLF
  3868	034257	260 17 0 00 040241 	Z.44:	UBACLR			;INIT ADAPTER AND DUP LOGIC
  3869	034260	260 17 0 00 040234 		CSINIT			;PRE-TEST INITIALIZATION
  3870	034261	200 03 0 00 041233 		MOVE	3,PARCSR	;ADDRESS OF PARAM STATUS REG
  3871	034262	201 06 0 00 001000 		MOVEI	6,CRCEN		;BIT TO TURN OFF 'CRC'
  3872	034263	200 03 0 00 041230 		MOVE	3,RXCSRL	;ADDRESS OF RXCSR REG
  3873	034264	201 06 0 00 000020 		MOVEI	6,RCVEN		;RECIEVER ENABLE BIT
  3874	034265	713 06 0 03 000000 		WRIO	6,(3)		;TURN ON RECIEVER
  3875	034266	200 03 0 00 041235 		MOVE	3,TXCSR		;ADDRESS OF TXCSR REG
  3876	034267	201 06 0 00 014000 		MOVEI	6,MMODE		;INTERNAL MAINT MODE
  3877	034270	476 00 0 00 041017 		SETOM	MMFLG		;SET HELP FLAG
  3878	034271	713 06 0 03 000000 		WRIO	6,(3)		;SET MODE-START CLK
DSDUA DECSYSTEM 2020 DUP-11 DIAGNOSTIC VERSION 0,2	MACRO %53(1020) 08:16 15-Jun-79 Page 53
DSDUAM	MAC	14-Jun-79 16:28		*STATIC LOGIC TESTS -- .1-.155                                                     SEQ 0128

  3879						RFLG	1		^;PUSH OUT A FLAG
  3880	034272	201 12 0 00 000001 		MOVEI	12,^D1		;SETUP FOR (N)FLAGS
  3881	034273	201 16 0 00 000000 	..0004:	MOVEI	16,0		;INIT COUNTER
  3882	034274	201 06 0 00 000004 		MOVEI	6,4		;RCVR BIT WINDOW INPUT BIT
  3883	034275	725 06 1 00 041237 		BCIOB	6,@TXCSRH	;FIRST BIT OF FLAG IS ALWAYS 0
  3884	034276	201 11 0 00 000002 		MOVEI	11,^D2		;CLOCK TICK ARGUMENT
  3885	034277	264 00 0 00 040560 		JSR	DUPCLK		;CALL PKCLK ROUTINE
  3886	034300	724 06 1 00 041237 	..0005:	BSIOB	6,@TXCSRH	;NEXT 6 BITS ARE 1'S
  3887	034301	201 11 0 00 000002 		MOVEI	11,^D2		;CLOCK TICK ARGUMENT
  3888	034302	264 00 0 00 040560 		JSR	DUPCLK		;CALL PKCLK ROUTINE
  3889	034303	271 16 0 00 000001 		ADDI	16,1		;COUNT # OF 1'S
  3890	034304	302 16 0 00 000006 		CAIE	16,6		;DONE 6 ONE YET??
  3891	034305	254 00 0 00 034300 		JRST	..0005		;NO-PUSH OUT ANOTHER 1 BIT
  3892	034306	725 06 1 00 041237 		BCIOB	6,@TXCSRH	;LAST BIT IS 1 ZERO
  3893	034307	201 11 0 00 000002 		MOVEI	11,^D2		;CLOCK TICK ARGUMENT
  3894	034310	264 00 0 00 040560 		JSR	DUPCLK		;CALL PKCLK ROUTINE
  3895	034311	275 12 0 00 000001 		SUBI	12,1		;DECREMENT FLAG COUNT
  3896	034312	326 12 0 00 034273 		JUMPN	12,..0004		;JUMP IF NOT ALL FLAGS DONE
  3897	034313	200 03 0 00 041230 		MOVE	3,RXCSRL	;ADDRESS OF RXCSR REG
  3898	034314	712 05 0 03 000000 		RDIO	5,(3)		;READ RXCSR REG
  3899	034315	602 05 0 00 004000 		TRNE	5,RECACT	;TEST RECIEVER ACT
  3900						ERROR	(T.44,13,0,0,TEST.44,<STATIC RCVR FCNS TEST-RECACT NOT CLEAR>,PRTSTA)^
  3901	034316	036 13 0 00 045323
  3902	034317	035 00 0 00 034254 		ERLOOP	T.44		;IF ERROR, LOOP TO T.44
  3903						RPOKE	0,8		^;PUSH NULL CHAR INTO RCVR WINDOW
  3904	034320	201 12 0 00 000000 		MOVEI	12,0		;DATA
  3905	034321	201 16 0 00 000010 		MOVEI	16,^D8		;DECIMAL # OF SHIFTS
  3906	034322	264 00 0 00 040600 		JSR	RCVMT		;GENERATE SERIAL DATA
  3907						CLKHI			^;RAISE CLOCK EDGE HI!
  3908	034323	201 11 0 00 000001 		MOVEI	11,^D1		;CLOCK TICK ARGUMENT
  3909	034324	264 00 0 00 040560 		JSR	DUPCLK		;CALL PKCLK ROUTINE
  3910	034325	200 03 0 00 041227 		MOVE	3,RXCSR
  3911	034326	712 05 0 03 000000 		RDIO	5,(3)		;READ RXCSR REG
  3912	034327	606 05 0 00 000200 		TRNN	5,RXDONE	;TEST RXDONE
  3913						ERROR	(T.44,13,0,0,TEST.44,<STATIC RCVR FCNS TEST-RXDONE NOT SET>,PRTSTA)^
  3914	034330	036 13 0 00 045335
  3915	034331	035 00 0 00 034254 		ERLOOP	T.44		;IF ERROR, LOOP TO T.44
  3916	034332	200 03 0 00 041232 		MOVE	3,RXDBUF	;ADDRESS OF RXDBUF
  3917	034333	712 05 0 03 000000 		RDIO	5,(3)		;READ RXDBUF
  3918	034334	606 05 0 00 000400 		TRNN	5,RSOM		;TEST START OF MSG
  3919						ERROR	(T.44,13,0,0,TEST.44,<STATIC RCVR FCNS TEST-START OF MSG NOT SET>,PRTSTA)^
  3920
  3921	034335	036 13 0 00 045350
  3922	034336	035 00 0 00 034254 		ERLOOP	T.44		;IF ERROR, LOOP TO T.44
  3923	034337	200 03 0 00 041227 		MOVE	3,RXCSR		;ADDRESS OF RXCSR REG
  3924	034340	712 05 0 03 000000 		RDIO	5,(3)		;READ RXCSR REG
  3925	034341	606 05 0 00 004000 		TRNN	5,RECACT	;TEST FOR RECVR ACTIVE
  3926						ERROR	(T.44,13,0,0,TEST.44,<STATIC RCVR FCNS TEST-RECACT NOT SET>,PRTSTA)^
  3927	034342	036 13 0 00 045362
  3928	034343	035 00 0 00 034254 		ERLOOP	T.44		;IF ERROR, LOOP TO T.44
  3929						NXTTST	(44,45)^
  3930	034344	201 05 0 00 000044 		MOVEI	5,44		;GET CURRENT TEST #
  3931	034345	260 17 0 00 040245 		GO	$NXTST		;GO CHECK SWITCHES
  3932	034346	254 00 0 00 034254 		JRST	T.44		;REPEAT SAME TEST
  3933	034347	201 05 0 00 034352 		MOVEI	5,T.45		;GET NXT TEST #
DSDUA DECSYSTEM 2020 DUP-11 DIAGNOSTIC VERSION 0,2	MACRO %53(1020) 08:16 15-Jun-79 Page 53-1
DSDUAM	MAC	14-Jun-79 16:28		*STATIC LOGIC TESTS -- .1-.155                                                     SEQ 0129

  3934	034350	202 05 0 00 030051 		MOVEM	5,TESTPC	;SAVE ADRS FOR PC
  3935	034351	254 00 0 00 034352 		JRST	T.45		;GO TO NEXT TEST^
  3936
DSDUA DECSYSTEM 2020 DUP-11 DIAGNOSTIC VERSION 0,2	MACRO %53(1020) 08:16 15-Jun-79 Page 54
DSDUAM	MAC	14-Jun-79 16:28		*STATIC LOGIC TESTS -- .1-.155                                                     SEQ 0130

  3937						XLIST
  3938						LIST
  3939						S^;*********************************************************************^
  3940						COMMENT $
  3941						 TEST.45-- *INTERNAL MAINT MODE/RCVR EN-RCVR ACTIVE-RSOM (SECONDARY MODE) TEST*
  3942							THIS TEST INITIALIZES THE UNIBUS ADAPTER STATUS REGISTER TO
  3943						ZEROS,INITIALIZES THE TXCSR REGISTER. THE INITIALIZATION ALSO CLEARS
  3944						RXCSR,RXDBUF,AND TXDBUF. 'NOCRC' IS SET TO INHIBIT RECEPTION OF A
  3945						CRC CHARACTER. THE DUP-11 IS PLACED IN INTERNAL MAINT MODE (TXCSR
  3946						BITS 12-11=1). RCVEN IS SET TO ENABLE THE RECIEVER LOGIC,AND
  3947						SECONDARY MODE SELECT IS SET IN PARCSR. A SINGLE FLAG IS PUSHED
  3948						INTO THE MAINT INPUT BIT WINDOW,ONE BIT AT A TIME. AFTER THE LAST
  3949						FLAG BIT HAS BEEN CLOCKED INTO THE WINDOW,BOTH RECIEVER ACTIVE
  3950						(BIT 11 OF RXCSR) AND RXDONE (BIT 07 OF RXCSR) ARE TESTED;BOTH
  3951						SHOULD BE CLEAR AT THIS TIME. NEXT A NULL CHARACTER CONSISTING OF
  3952						(000), AND REPRESENTING THE SECONDARY STATION ADDRESS IS PUSHED,
  3953						(EIGHT FULL CLOCKS ARE PUSHED). NOW A SINGLE 1/2 CLOCK IS ISSUED
  3954						AND THE FOLLOWING BITS ARE TESTED: RXDONE,RSOM,AND RECACT-ALL
  3955						SHOULD BE CLEAR IN SECONDARY MODE. THE CLOCK IS NOW PULSED LOW
  3956						AND A SINGLE CHARACTER '252' IS PUSHED (EIGHT FULL CLOCKS ARE
  3957						THEN ISSUED). FINALLY,A SINGLE 1/2 CLOCK IS ISSUED AND THE
  3958						FOLLOWING BITS ARE TESTED: RXDONE,RSOM AND RECACT-ALL SHOULD
  3959						BE SET AT THIS TIME. ANY DISCREPANCIES YIELD AN ERROR PRINTOUT.
  3960						$
  3961						S^;*********************************************************************^
  3962						XLIST
  3963						LIST
  3964
  3965	034352	260 17 0 00 040241 	T.45:	UBACLR			;INIT ADAPTER AND DUP LOGIC
  3966	034353	260 17 0 00 040234 		CSINIT			;PRE-TEST INITIALIZATION
  3967	034354	200 03 0 00 041233 		MOVE	3,PARCSR	;ADDRESS OF PARAM-STATUS REG
  3968	034355	201 06 0 00 001000 		MOVEI	6,CRCEN		;BIT TO TURN OFF 'CRC'
  3969	034356	713 06 0 03 000000 		WRIO	6,(3)		;LOAD PARCSR-SET 'NOCRC'
  3970	034357	200 03 0 00 041230 		MOVE	3,RXCSRL	;ADDRESS OF RXCSR REG
  3971	034360	201 06 0 00 000020 		MOVEI	6,RCVEN		;RECIEVER ENABLE BIT
  3972	034361	713 06 0 03 000000 		WRIO	6,(3)		;SET RCVEN IN RXCSR
  3973	034362	201 06 0 00 000020 		MOVEI	6,20		;SECONDARY MODE BIT
  3974	034363	200 03 0 00 041234 		MOVE	3,PARCSH	;HI-BYTE ADDRESS PARCSR REG
  3975	034364	724 06 0 03 000000 		BSIOB	6,(3)		;SEL SECONDARY ADDRESS
  3976	034365	200 03 0 00 041235 		MOVE	3,TXCSR
  3977	034366	201 06 0 00 014000 		MOVEI	6,MMODE		;INTERNAL MAINT MODE BITS
  3978	034367	476 00 0 00 041017 		SETOM	MMFLG		;SET HELP FLAG
  3979	034370	713 06 0 03 000000 		WRIO	6,(3)		;SET MODE-START CLOCK
DSDUA DECSYSTEM 2020 DUP-11 DIAGNOSTIC VERSION 0,2	MACRO %53(1020) 08:16 15-Jun-79 Page 55
DSDUAM	MAC	14-Jun-79 16:28		*STATIC LOGIC TESTS -- .1-.155                                                     SEQ 0131

  3980						RFLG	1		^;PUSH OUT A FLAG
  3981	034371	201 12 0 00 000001 		MOVEI	12,^D1		;SETUP FOR (N)FLAGS
  3982	034372	201 16 0 00 000000 	..0010:	MOVEI	16,0		;INIT COUNTER
  3983	034373	201 06 0 00 000004 		MOVEI	6,4		;RCVR BIT WINDOW INPUT BIT
  3984	034374	725 06 1 00 041237 		BCIOB	6,@TXCSRH	;FIRST BIT OF FLAG IS ALWAYS 0
  3985	034375	201 11 0 00 000002 		MOVEI	11,^D2		;CLOCK TICK ARGUMENT
  3986	034376	264 00 0 00 040560 		JSR	DUPCLK		;CALL PKCLK ROUTINE
  3987	034377	724 06 1 00 041237 	..0011:	BSIOB	6,@TXCSRH	;NEXT 6 BITS ARE 1'S
  3988	034400	201 11 0 00 000002 		MOVEI	11,^D2		;CLOCK TICK ARGUMENT
  3989	034401	264 00 0 00 040560 		JSR	DUPCLK		;CALL PKCLK ROUTINE
  3990	034402	271 16 0 00 000001 		ADDI	16,1		;COUNT # OF 1'S
  3991	034403	302 16 0 00 000006 		CAIE	16,6		;DONE 6 ONE YET??
  3992	034404	254 00 0 00 034377 		JRST	..0011		;NO-PUSH OUT ANOTHER 1 BIT
  3993	034405	725 06 1 00 041237 		BCIOB	6,@TXCSRH	;LAST BIT IS 1 ZERO
  3994	034406	201 11 0 00 000002 		MOVEI	11,^D2		;CLOCK TICK ARGUMENT
  3995	034407	264 00 0 00 040560 		JSR	DUPCLK		;CALL PKCLK ROUTINE
  3996	034410	275 12 0 00 000001 		SUBI	12,1		;DECREMENT FLAG COUNT
  3997	034411	326 12 0 00 034372 		JUMPN	12,..0010		;JUMP IF NOT ALL FLAGS DONE
  3998	034412	200 03 0 00 041230 		MOVE	3,RXCSRL
  3999	034413	712 05 0 03 000000 		RDIO	5,(3)		;READ RXCSR
  4000	034414	602 05 0 00 004000 		TRNE	5,RECACT	;TEST RECIEVER ACTIVE
  4001						ERROR	(T.45,13,0,0,TEST.45,<STATIC RCVR FCNS TEST-RCVR ACT NOT CLEAR>,PRTSTA)^
  4002	034415	036 13 0 00 045376
  4003	034416	035 00 0 00 034352 		ERLOOP	T.45		;IF ERROR, LOOP TO T.45
  4004	034417	712 05 0 03 000000 		RDIO	5,(3)		;READ TXCSR
  4005	034420	602 05 0 00 000200 		TRNE	5,RXDONE	;TEST RXDONE
  4006						ERROR	(T.45,13,0,0,TEST.45,<STATIC RCVR FCNS TEST-RXDONE NOT CLEAR IN SECONDARY M
  4007					ODE>,PRTSTA)^
  4008	034421	036 13 0 00 045413
  4009	034422	035 00 0 00 034352 		ERLOOP	T.45		;IF ERROR, LOOP TO T.45
  4010						RPOKE	0,8		^;PUSH NULL CHAR INTO RCVR WINDOW
  4011	034423	201 12 0 00 000000 		MOVEI	12,0		;DATA
  4012	034424	201 16 0 00 000010 		MOVEI	16,^D8		;DECIMAL # OF SHIFTS
  4013	034425	264 00 0 00 040600 		JSR	RCVMT		;GENERATE SERIAL DATA
  4014						CLKHI			^;RAISE CLK EDGE HI
  4015	034426	201 11 0 00 000001 		MOVEI	11,^D1		;CLOCK TICK ARGUMENT
  4016	034427	264 00 0 00 040560 		JSR	DUPCLK		;CALL PKCLK ROUTINE
  4017	034430	200 03 0 00 041227 		MOVE	3,RXCSR
  4018	034431	712 05 0 03 000000 		RDIO	5,(3)		;READ RXCSR REG
  4019	034432	606 05 0 00 004000 		TRNN	5,RECACT	;TEST RECIEVER ACTIVE
  4020						ERROR	(T.45,13,0,0,TEST.45,<STATIC RCVR FCNS TEST-RECACT NOT SET>,PRTSTA)^
  4021	034433	036 13 0 00 045416
  4022	034434	035 00 0 00 034352 		ERLOOP	T.45		;IF ERROR, LOOP TO T.45
  4023	034435	712 05 0 03 000000 		RDIO	5,(3)		;READ RXCSR REG
  4024	034436	602 05 0 00 000200 		TRNE	5,RXDONE	;TEST RXDONE
  4025						ERROR	(T.45,13,0,0,TEST.45,<STATIC RCVR FCNS TEST-RXDONE NOT CLR (CHAR WAS SECOND
  4026					ARY ADR)>,PRTSTA)^
  4027	034437	036 13 0 00 045434
  4028	034440	035 00 0 00 034352 		ERLOOP	T.45		;IF ERROR, LOOP TO T.45
  4029	034441	200 03 0 00 041232 		MOVE	3,RXDBUF	;ADDRESS OF RXDBUF REG
  4030	034442	712 06 0 03 000000 		RDIO	6,(3)		;READ RXDBUF REG
  4031	034443	602 05 0 00 000400 		TRNE	5,RSOM		;TEST RSOM
  4032						ERROR	(T.45,13,0,0,TEST.45,<STATIC RCVR FCNS TEST-RSOM NOT CLEAR>,PRTSTA)^
  4033	034444	036 13 0 00 045446
  4034	034445	035 00 0 00 034352 		ERLOOP	T.45		;IF ERROR, LOOP TO T.45
DSDUA DECSYSTEM 2020 DUP-11 DIAGNOSTIC VERSION 0,2	MACRO %53(1020) 08:16 15-Jun-79 Page 55-1
DSDUAM	MAC	14-Jun-79 16:28		*STATIC LOGIC TESTS -- .1-.155                                                     SEQ 0132

  4035						CLKLO			^;PULSE CLOCK EDGE LOW!
  4036	034446	201 10 0 00 000040 		MOVEI	10,1B30		;CLOCK POSITIONED FOR BYTE REF
  4037	034447	725 10 1 00 041237 		BCIOB	10,@TXCSRH	;PUT MAINT CLOCK INPUT AT LOGICAL 0
  4038	034450	037 10 0 00 000002 		SWITCH
  4039	034451	602 00 0 00 000001 		TRNE	0,1B35
  4040	034452	264 00 0 00 040432 		JSR	STATUS
  4041						RPOKE	125,7		^;PUSH PATTERN
  4042	034453	201 12 0 00 000125 		MOVEI	12,125		;DATA
  4043	034454	201 16 0 00 000007 		MOVEI	16,^D7		;DECIMAL # OF SHIFTS
  4044	034455	264 00 0 00 040600 		JSR	RCVMT		;GENERATE SERIAL DATA
  4045						CLKHI			^;RAISE CLK EDGE HI
  4046	034456	201 11 0 00 000001 		MOVEI	11,^D1		;CLOCK TICK ARGUMENT
  4047	034457	264 00 0 00 040560 		JSR	DUPCLK		;CALL PKCLK ROUTINE
  4048	034460	200 03 0 00 041227 		MOVE	3,RXCSR
  4049	034461	712 05 0 03 000000 		RDIO	5,(3)		;READ RXCSR REG
  4050	034462	606 05 0 00 000200 		TRNN	5,RXDONE	;TEST RXDONE
  4051						ERROR	(T.45,13,0,0,TEST.45,<RXDONE NOT SET>,PRTSTA)^
  4052	034463	036 13 0 00 045454
  4053	034464	035 00 0 00 034352 		ERLOOP	T.45		;IF ERROR, LOOP TO T.45
  4054	034465	712 05 0 03 000000 		RDIO	5,(3)		;READ RXCSR
  4055	034466	606 05 0 00 004000 		TRNN	5,RECACT	;TEST RECACT
  4056						ERROR	(T.45,13,0,0,TEST.45,<STATIC RCVR FCNS TEST-RECIEVER ACT NOT SET>,PRTSTA)^
  4057
  4058	034467	036 13 0 00 045467
  4059	034470	035 00 0 00 034352 		ERLOOP	T.45		;IF ERROR, LOOP TO T.45
  4060	034471	200 03 0 00 041232 		MOVE	3,RXDBUF	;ADDRESS OF RXDBUF REG
  4061	034472	712 05 0 03 000000 		RDIO	5,(3)		;READ RXDBUF REG
  4062	034473	606 05 0 00 000400 		TRNN	5,RSOM		;TEST RSOM
  4063						ERROR	(T.45,13,0,0,TEST.45,<STATIC RCVR FCNS TEST-RSOM NOT SET>,PRTSTA)^
  4064	034474	036 13 0 00 045500
  4065	034475	035 00 0 00 034352 		ERLOOP	T.45		;IF ERROR, LOOP TO T.45
  4066						NXTTST	(45,46)^
  4067	034476	201 05 0 00 000045 		MOVEI	5,45		;GET CURRENT TEST #
  4068	034477	260 17 0 00 040245 		GO	$NXTST		;GO CHECK SWITCHES
  4069	034500	254 00 0 00 034352 		JRST	T.45		;REPEAT SAME TEST
  4070	034501	201 05 0 00 034504 		MOVEI	5,T.46		;GET NXT TEST #
  4071	034502	202 05 0 00 030051 		MOVEM	5,TESTPC	;SAVE ADRS FOR PC
  4072	034503	254 00 0 00 034504 		JRST	T.46		;GO TO NEXT TEST^
  4073
DSDUA DECSYSTEM 2020 DUP-11 DIAGNOSTIC VERSION 0,2	MACRO %53(1020) 08:16 15-Jun-79 Page 56
DSDUAM	MAC	14-Jun-79 16:28		*STATIC LOGIC TESTS -- .1-.155                                                     SEQ 0133

  4074						XLIST
  4075						LIST
  4076						S^;*********************************************************************^
  4077						COMMENT $
  4078						 TEST.46-- *INTERNAL MAINT MODE/'REOMM//RXDONE' (PRIMARY MODE) TEST*
  4079							THIS TEST INITIALIZES THE UNIBUS ADAPTER STATUS REGISTER TO
  4080						ZEROS,INITIALIZES THE TXCSR REGISTER. THE INITIALIZATION ALSO CLEARS
  4081						RXCSR,RXDBUF,AND TXDBUF. 'NOCRC' IS SET TO INHIBIT RECEPTION OF A
  4082						CRC CHARACTER. THE DUP-11 IS PLACED IN INTERNAL MAINT MODE (TXCSR
  4083						BITS 12-11=1). RCVEN IS SET TO ENABLE THE RECIEVER LOGIC. 64 DECIMAL
  4084						FLAG'S ARE PUSHED INTO THE MAINT INPUT BIT WINDOW,ONE BIT AT A TIME.
  4085						NEXT THE CHARACTER '125' IS PUSHED (EIGHT FULL CLOCKS ARE ISSUED).
  4086						THE FIRST BIT OF THE FLAG CHARACTER (0),IS INPUT TO THE MAINT BIT
  4087						WINDOW AND THE CLOCK EDGE IS RAISED HI. AT THIS TIME RXDONE IS TESTED;
  4088						IT SHOULD BE SET. NOW THE CLOCK IS PULSED LOW,AND WE READ THE TXDBUF
  4089						REGISTER (DUMMY READ) TO CAUSE THE HARDWARE TO CLEAR REOM. FINALLY,
  4090						A SINGLE FLAG CHARACTER IS PUSHED OUT AND THEN, REOM AND RXDONE ARE
  4091						TESTED;BOTH SHOULD BE SET. ANY DISCREPANCY YIELDS AN ERROR PRINTOUT.
  4092						$
  4093						S^;*********************************************************************^
  4094						XLIST
  4095						LIST
  4096
  4097	034504	260 17 0 00 040241 	T.46:	UBACLR			;INIT ADAPTER AND DUP LOGIC
  4098	034505	260 17 0 00 040234 		CSINIT			;PRE-TEST INITIALIZATION
  4099	034506	200 03 0 00 041233 		MOVE	3,PARCSR	;ADDRESS OF PARAM-STATUS REG
  4100	034507	201 06 0 00 001000 		MOVEI	6,CRCEN		;BIT TO BLOCK CRC
  4101	034510	713 06 0 03 000000 		WRIO	6,(3)		;SET 'NOCRC'
  4102	034511	200 03 0 00 041230 		MOVE	3,RXCSRL	;ADDRESS OF RXCSR REG
  4103	034512	201 06 0 00 000020 		MOVEI	6,RCVEN		;RECIEVER ENABLE BIT
  4104	034513	713 06 0 03 000000 		WRIO	6,(3)		;SET RECIEVER EN.
  4105	034514	200 03 0 00 041235 		MOVE	3,TXCSR		;ADDRESS OF TXCSR REG
  4106	034515	201 06 0 00 014000 		MOVEI	6,MMODE		;INTERNAL MAINT MODE BITS
  4107	034516	476 00 0 00 041017 		SETOM	MMFLG		;SET HELP FLAG
  4108	034517	713 06 0 03 000000 		WRIO	6,(3)		;SET MODE-START CLK
DSDUA DECSYSTEM 2020 DUP-11 DIAGNOSTIC VERSION 0,2	MACRO %53(1020) 08:16 15-Jun-79 Page 57
DSDUAM	MAC	14-Jun-79 16:28		*STATIC LOGIC TESTS -- .1-.155                                                     SEQ 0134

  4109						RFLG	64		^;PUSH OUT 64 DECIMAL FLAG'S
  4110	034520	201 12 0 00 000100 		MOVEI	12,^D64		;SETUP FOR (N)FLAGS
  4111	034521	201 16 0 00 000000 	..0016:	MOVEI	16,0		;INIT COUNTER
  4112	034522	201 06 0 00 000004 		MOVEI	6,4		;RCVR BIT WINDOW INPUT BIT
  4113	034523	725 06 1 00 041237 		BCIOB	6,@TXCSRH	;FIRST BIT OF FLAG IS ALWAYS 0
  4114	034524	201 11 0 00 000002 		MOVEI	11,^D2		;CLOCK TICK ARGUMENT
  4115	034525	264 00 0 00 040560 		JSR	DUPCLK		;CALL PKCLK ROUTINE
  4116	034526	724 06 1 00 041237 	..0017:	BSIOB	6,@TXCSRH	;NEXT 6 BITS ARE 1'S
  4117	034527	201 11 0 00 000002 		MOVEI	11,^D2		;CLOCK TICK ARGUMENT
  4118	034530	264 00 0 00 040560 		JSR	DUPCLK		;CALL PKCLK ROUTINE
  4119	034531	271 16 0 00 000001 		ADDI	16,1		;COUNT # OF 1'S
  4120	034532	302 16 0 00 000006 		CAIE	16,6		;DONE 6 ONE YET??
  4121	034533	254 00 0 00 034526 		JRST	..0017		;NO-PUSH OUT ANOTHER 1 BIT
  4122	034534	725 06 1 00 041237 		BCIOB	6,@TXCSRH	;LAST BIT IS 64 ZERO
  4123	034535	201 11 0 00 000002 		MOVEI	11,^D2		;CLOCK TICK ARGUMENT
  4124	034536	264 00 0 00 040560 		JSR	DUPCLK		;CALL PKCLK ROUTINE
  4125	034537	275 12 0 00 000001 		SUBI	12,1		;DECREMENT FLAG COUNT
  4126	034540	326 12 0 00 034521 		JUMPN	12,..0016		;JUMP IF NOT ALL FLAGS DONE
  4127						RPOKE	125,8		^;PUSH CHAR INTO RECIEVER BIT WINDOW
  4128	034541	201 12 0 00 000125 		MOVEI	12,125		;DATA
  4129	034542	201 16 0 00 000010 		MOVEI	16,^D8		;DECIMAL # OF SHIFTS
  4130	034543	264 00 0 00 040600 		JSR	RCVMT		;GENERATE SERIAL DATA
  4131	034544	201 06 0 00 000004 		MOVEI	6,4		;RCVR BIT WINDOW INPUT BIT
  4132	034545	200 03 0 00 041237 		MOVE	3,TXCSRH	;HI-BYTE ADDRESS TXCSR
  4133	034546	725 06 0 03 000000 		BCIOB	6,(3)		;CLEAR WINDOW BIT = FLAG BIT (0)
  4134						CLKHI			^;RAISE CLOCK EDGE HI!
  4135	034547	201 11 0 00 000001 		MOVEI	11,^D1		;CLOCK TICK ARGUMENT
  4136	034550	264 00 0 00 040560 		JSR	DUPCLK		;CALL PKCLK ROUTINE
  4137	034551	200 03 0 00 041230 		MOVE	3,RXCSRL
  4138	034552	712 05 0 03 000000 		RDIO	5,(3)		;READ RXCSR REG
  4139	034553	606 05 0 00 000200 		TRNN	5,RXDONE	;TEST RXDONE
  4140						ERROR	(T.46,13,0,0,TEST.46,<STATIC RCVR FCNS TEST-RXDONE NOT SET>,PRTSTA)^
  4141	034554	036 13 0 00 045505
  4142	034555	035 00 0 00 034504 		ERLOOP	T.46		;IF ERROR, LOOP TO T.46
  4143						CLKLO			^;PULSE CLOCK LOW!
  4144	034556	201 10 0 00 000040 		MOVEI	10,1B30		;CLOCK POSITIONED FOR BYTE REF
  4145	034557	725 10 1 00 041237 		BCIOB	10,@TXCSRH	;PUT MAINT CLOCK INPUT AT LOGICAL 0
  4146	034560	037 10 0 00 000002 		SWITCH
  4147	034561	602 00 0 00 000001 		TRNE	0,1B35
  4148	034562	264 00 0 00 040432 		JSR	STATUS
  4149	034563	200 03 0 00 041232 		MOVE	3,RXDBUF	;ADDRESS OF RXDBUF REG
  4150	034564	722 05 0 03 000000 		RDIOB	5,(3)		;DUMMY READ CYCLE TO CLEAR REOM
  4151	034565	201 16 0 00 000000 		MOVEI	16,0		;INIT PULSE COUNTER
  4152	034566	201 06 0 00 000004 		MOVEI	6,4		;RCVR BIT WINDOW BIT
  4153	034567	200 03 0 00 041237 		MOVE	3,TXCSRH	;HI-BYTE ADDRESS TXCSR
DSDUA DECSYSTEM 2020 DUP-11 DIAGNOSTIC VERSION 0,2	MACRO %53(1020) 08:16 15-Jun-79 Page 58
DSDUAM	MAC	14-Jun-79 16:28		*STATIC LOGIC TESTS -- .1-.155                                                     SEQ 0135

  4154	034570	724 06 0 03 000000 	T.46A1:	BSIOB	6,(3)		;NEXT 6-BITS ARE ONES
  4155						PKCLK	2		^;ONE FULL CLOCK
  4156	034571	201 11 0 00 000002 		MOVEI	11,^D2		;CLOCK TICK ARGUMENT
  4157	034572	264 00 0 00 040560 		JSR	DUPCLK		;CALL PKCLK ROUTINE
  4158	034573	271 16 0 00 000001 		ADDI	16,1		;COUNT # OF 1'S
  4159	034574	302 16 0 00 000006 		CAIE	16,6		;DONE 6 ONES YET?
  4160	034575	254 00 0 00 034570 		JRST	T.46A1		;NO-PUSH OUT ANOTHER ONE BIT
  4161	034576	725 06 0 03 000000 		BCIOB	6,(3)		;YES-NOW PUSH A ZERO BIT
  4162						PKCLK	2		^;ONE FULL CLOCK
  4163	034577	201 11 0 00 000002 		MOVEI	11,^D2		;CLOCK TICK ARGUMENT
  4164	034600	264 00 0 00 040560 		JSR	DUPCLK		;CALL PKCLK ROUTINE
  4165						CLKHI			^;RAISE CLOCK EDGE HI
  4166	034601	201 11 0 00 000001 		MOVEI	11,^D1		;CLOCK TICK ARGUMENT
  4167	034602	264 00 0 00 040560 		JSR	DUPCLK		;CALL PKCLK ROUTINE
  4168	034603	200 03 0 00 041230 		MOVE	3,RXCSRL
  4169	034604	712 05 0 03 000000 		RDIO	5,(3)		;READ RXCSR REG
  4170	034605	606 05 0 00 000200 		TRNN	5,RXDONE	;TEST RXDONE BIT
  4171						ERROR	(T.46,13,0,0,TEST.46,<STATIC RCVR FCNS TEST-RXDONE NOT SET>,PRTSTA)^
  4172	034606	036 13 0 00 045505
  4173	034607	035 00 0 00 034504 		ERLOOP	T.46		;IF ERROR, LOOP TO T.46
  4174	034610	200 03 0 00 041232 		MOVE	3,RXDBUF
  4175	034611	712 05 0 03 000000 		RDIO	5,(3)		;READ RXDBUF REG
  4176	034612	606 05 0 00 001000 		TRNN	5,REOM		;TEST REOM
  4177						ERROR	(T.46,13,0,0,TEST.46,<STATIC RCVR FCNS TEST-REOM NOT SET>,PRTSTA)^
  4178	034613	036 13 0 00 045516
  4179	034614	035 00 0 00 034504 		ERLOOP	T.46		;IF ERROR, LOOP TO T.46
  4180						NXTTST	(46,47)^
  4181	034615	201 05 0 00 000046 		MOVEI	5,46		;GET CURRENT TEST #
  4182	034616	260 17 0 00 040245 		GO	$NXTST		;GO CHECK SWITCHES
  4183	034617	254 00 0 00 034504 		JRST	T.46		;REPEAT SAME TEST
  4184	034620	201 05 0 00 034623 		MOVEI	5,T.47		;GET NXT TEST #
  4185	034621	202 05 0 00 030051 		MOVEM	5,TESTPC	;SAVE ADRS FOR PC
  4186	034622	254 00 0 00 034623 		JRST	T.47		;GO TO NEXT TEST^
  4187
DSDUA DECSYSTEM 2020 DUP-11 DIAGNOSTIC VERSION 0,2	MACRO %53(1020) 08:16 15-Jun-79 Page 59
DSDUAM	MAC	14-Jun-79 16:28		*STATIC LOGIC TESTS -- .1-.155                                                     SEQ 0136

  4188						XLIST
  4189						LIST
  4190						S^;*********************************************************************^
  4191						COMMENT $
  4192						 TEST.47-- *INTERNAL MAINT MODE/'REOM//RXDONE' (SHARED ZERO BIT IN FLAG-PRIMARY MOD
  4193					E)TEST*
  4194							THIS TEST INITIALIZES THE UNIBUS ADAPTER TO ZEROS,INITIALIZES
  4195						THE TXCSR REGISTER. THE INITIALIZATION ALSO CLEARS RXCSR,RXDBUF,AND
  4196						TXDBUF. 'NOCRC' IS SET TO INHIBIT RECEPTION OF A CRC CHARACTER. THE
  4197						DUP-11 IS PLACED IN INTERNAL MAINT MODE (TXCSR BITS 12-11=1). RCVEN
  4198						IS SET TO ENABLE THE RECIEVER LOGIC. 64 DECIMAL FLAG'S ARE PUSHED INTO
  4199						THE MAINT INPUT BIT WINDOW,(01111110),AND THEN 64 DECIMAL SPECIAL FLAGS
  4200						ARE PUSHED;EACH SHARING A COMMON ZERO BIT. E.G.011111101111110111
  4201						11101111110. NOW,THE CHARACTER '125' IS PUSHED (EIGHT FULL CLOCKS ARE
  4202						ISSUED). THE FIRST BIT OF THE FLAG CHARACTER (0),IS INPUT TO THE
  4203						MAINT BIT WINDOW AND THEN THE CLOCK EDGE IS RAISED HI. AT THIS TIME,
  4204						RXDONE IS TESTED;IT SHOULD BE SET. NEXT,THE CLOCK IS PULSED LOW,AND
  4205						WE READ THE ASSENBLED CHARACTER FROM RXDBUF,E.G.'125'. FINALLY,A
  4206						SINGLE FLAG CHARACTER IS PUSHED OUT AND THEN REOM AND RXDONE ARE
  4207						TESTED;BOTH SHOULD BE SET. ANY DISCREPANCIES YIELD AN ERROR PRINTOUT.
  4208						$
  4209						S^;*********************************************************************^
  4210						XLIST
  4211						LIST
  4212
  4213	034623	260 17 0 00 040241 	T.47:	UBACLR			;INIT ADAPTER AND DUP LOGIC
  4214	034624	260 17 0 00 040234 		CSINIT			;PRE TEST INITIALIZATION
  4215	034625	201 00 0 00 000125 		MOVEI	0,125		;CORRECT CHARACTER
  4216	034626	202 00 0 00 041225 		MOVEM	0,GDDAT
  4217	034627	200 03 0 00 041233 		MOVE	3,PARCSR	;ADDRESS OF PARAM-STATUS REG
  4218	034630	201 06 0 00 001000 		MOVEI	6,CRCEN		;BIT TO TURN OFF 'CRC'
  4219	034631	713 06 0 03 000000 		WRIO	6,(3)		;LOAD PARCSR REG-SET 'NOCRC'
  4220	034632	200 03 0 00 041230 		MOVE	3,RXCSRL	;ADDRESS OF RXCSR REG
  4221	034633	201 06 0 00 000020 		MOVEI	6,RCVEN		;RECIEVER ENABLE BIT
  4222	034634	713 06 0 03 000000 		WRIO	6,(3)		;SET MODE - START CLOCK
  4223	034635	200 03 0 00 041235 		MOVE	3,TXCSR		;ADDRESS OF TXCSR REG
  4224	034636	201 06 0 00 014000 		MOVEI	6,MMODE		;INTERNAL MAINT MODE BITS
  4225	034637	476 00 0 00 041017 		SETOM	MMFLG		;SET HELP FLAG
  4226	034640	713 06 0 03 000000 		WRIO	6,(3)		;SET MODE-START CLOCK
DSDUA DECSYSTEM 2020 DUP-11 DIAGNOSTIC VERSION 0,2	MACRO %53(1020) 08:16 15-Jun-79 Page 60
DSDUAM	MAC	14-Jun-79 16:28		*STATIC LOGIC TESTS -- .1-.155                                                     SEQ 0137

  4227						RFLG	64		^;PUSH OUT 64 DECIMAL FLAG'S
  4228	034641	201 12 0 00 000100 		MOVEI	12,^D64		;SETUP FOR (N)FLAGS
  4229	034642	201 16 0 00 000000 	..0024:	MOVEI	16,0		;INIT COUNTER
  4230	034643	201 06 0 00 000004 		MOVEI	6,4		;RCVR BIT WINDOW INPUT BIT
  4231	034644	725 06 1 00 041237 		BCIOB	6,@TXCSRH	;FIRST BIT OF FLAG IS ALWAYS 0
  4232	034645	201 11 0 00 000002 		MOVEI	11,^D2		;CLOCK TICK ARGUMENT
  4233	034646	264 00 0 00 040560 		JSR	DUPCLK		;CALL PKCLK ROUTINE
  4234	034647	724 06 1 00 041237 	..0025:	BSIOB	6,@TXCSRH	;NEXT 6 BITS ARE 1'S
  4235	034650	201 11 0 00 000002 		MOVEI	11,^D2		;CLOCK TICK ARGUMENT
  4236	034651	264 00 0 00 040560 		JSR	DUPCLK		;CALL PKCLK ROUTINE
  4237	034652	271 16 0 00 000001 		ADDI	16,1		;COUNT # OF 1'S
  4238	034653	302 16 0 00 000006 		CAIE	16,6		;DONE 6 ONE YET??
  4239	034654	254 00 0 00 034647 		JRST	..0025		;NO-PUSH OUT ANOTHER 1 BIT
  4240	034655	725 06 1 00 041237 		BCIOB	6,@TXCSRH	;LAST BIT IS 64 ZERO
  4241	034656	201 11 0 00 000002 		MOVEI	11,^D2		;CLOCK TICK ARGUMENT
  4242	034657	264 00 0 00 040560 		JSR	DUPCLK		;CALL PKCLK ROUTINE
  4243	034660	275 12 0 00 000001 		SUBI	12,1		;DECREMENT FLAG COUNT
  4244	034661	326 12 0 00 034642 		JUMPN	12,..0024		;JUMP IF NOT ALL FLAGS DONE
  4245						SFLG	64		^;PUSH OUT 64 DECIMAL SPECIAL FLAGS
  4246	034662	201 12 0 00 000100 		MOVEI	12,^D64		;SETUP FOR (N) SPECIAL FLAGS
  4247	034663	201 16 0 00 000000 	..0027:	MOVEI	16,0		;INIT COUNTER
  4248	034664	201 06 0 00 000004 		MOVEI	6,4		;RCVR BIT WINDOW INPUT BIT
  4249	034665	724 06 1 00 041237 	..0030:	BSIOB	6,@TXCSRH	;NEXT 6 BITS ARE 1'S
  4250	034666	201 11 0 00 000002 		MOVEI	11,^D2		;CLOCK TICK ARGUMENT
  4251	034667	264 00 0 00 040560 		JSR	DUPCLK		;CALL PKCLK ROUTINE
  4252	034670	271 16 0 00 000001 		ADDI	16,1		;COUNT 3 OF 1'S
  4253	034671	302 16 0 00 000006 		CAIE	16,6		;DONE 6 ONES YET?
  4254	034672	254 00 0 00 034665 		JRST	..0030		;NO-PUSH OUT ANOTHER 1-BIT
  4255	034673	725 06 1 00 041237 		BCIOB	6,@TXCSRH	;LAST BIT IS 64 0
  4256	034674	201 11 0 00 000002 		MOVEI	11,^D2		;CLOCK TICK ARGUMENT
  4257	034675	264 00 0 00 040560 		JSR	DUPCLK		;CALL PKCLK ROUTINE
  4258	034676	275 12 0 00 000001 		SUBI	12,1		;DECREMENT FLAG COUNT
  4259	034677	326 12 0 00 034663 		JUMPN	12,..0027		;JUMP IF NOT ALL FLAGS DONE
  4260						RPOKE	125,8		^;PUSH CHARACTER INTO RECIEVER WINDOW
  4261	034700	201 12 0 00 000125 		MOVEI	12,125		;DATA
  4262	034701	201 16 0 00 000010 		MOVEI	16,^D8		;DECIMAL # OF SHIFTS
  4263	034702	264 00 0 00 040600 		JSR	RCVMT		;GENERATE SERIAL DATA
  4264	034703	201 06 0 00 000004 		MOVEI	6,4		;RECIEVER BIT WINDOW BIT
  4265	034704	200 03 0 00 041237 		MOVE	3,TXCSRH	;HI-BYTE TXCSR ADR
  4266	034705	725 06 0 03 000000 		BCIOB	6,(3)		;CLEAR WINDOW BIT = FLAG BIT (0)
  4267						CLKHI			^;RAISE CLOCK EDGE HI!
  4268	034706	201 11 0 00 000001 		MOVEI	11,^D1		;CLOCK TICK ARGUMENT
  4269	034707	264 00 0 00 040560 		JSR	DUPCLK		;CALL PKCLK ROUTINE
  4270	034710	200 03 0 00 041230 		MOVE	3,RXCSRL	;ADDRESS OF RXCSR REG
  4271	034711	712 05 0 03 000000 		RDIO	5,(3)		;READ RXCSR REG
  4272	034712	606 05 0 00 000200 		TRNN	5,RXDONE	;TEST RXDONE
DSDUA DECSYSTEM 2020 DUP-11 DIAGNOSTIC VERSION 0,2	MACRO %53(1020) 08:16 15-Jun-79 Page 61
DSDUAM	MAC	14-Jun-79 16:28		*STATIC LOGIC TESTS -- .1-.155                                                     SEQ 0138

  4273						ERROR	(T.47,13,0,0,TEST.47,<STATIC RCVR FCNS TEST-TXDONE NOT SET>,PRTSTA)^
  4274	034713	036 13 0 00 045532
  4275	034714	035 00 0 00 034623 		ERLOOP	T.47		;IF ERROR, LOOP TO T.47
  4276						CLKLO			^;PULSE CLOCK LOW!
  4277	034715	201 10 0 00 000040 		MOVEI	10,1B30		;CLOCK POSITIONED FOR BYTE REF
  4278	034716	725 10 1 00 041237 		BCIOB	10,@TXCSRH	;PUT MAINT CLOCK INPUT AT LOGICAL 0
  4279	034717	037 10 0 00 000002 		SWITCH
  4280	034720	602 00 0 00 000001 		TRNE	0,1B35
  4281	034721	264 00 0 00 040432 		JSR	STATUS
  4282	034722	200 03 0 00 041232 		MOVE	3,RXDBUF	;ADDRRESS OF RXDBUF REG
  4283	034723	712 05 0 03 000000 		RDIO	5,(3)		;READ RXDBUF REG
  4284	034724	620 05 0 00 077600 		TRZ	5,77600		;CLEAR ALL BUT BITS 06-00
  4285	034725	302 05 0 00 000125 		CAIE	5,125		;IS CHAR RECIEVED = 125?
  4286						ERROR	(T.47,13,GDDAT,5,TEST.47,<STATIC RCVR FCNS TEST-CHARACTER RECIEVED NOT CORR
  4287					ECT>,PRTSTA)^
  4288	034726	036 13 0 00 045546
  4289	034727	035 00 0 00 034623 		ERLOOP	T.47		;IF ERROR, LOOP TO T.47
  4290	034730	201 16 0 00 000000 		MOVEI	16,0		;INIT COUNTER
  4291	034731	201 06 0 00 000004 		MOVEI	6,4		;RCVR BIT WINDOW INPUT BIT
  4292	034732	200 03 0 00 041237 		MOVE	3,TXCSRH	;HI-BYTE ADR
  4293	034733	724 06 0 03 000000 	T.47B1:	BSIOB	6,(3)		;NEXT 6-BITS ARE 1'S
  4294						PKCLK	2		^;GIVE ONE FULL CLOCK
  4295	034734	201 11 0 00 000002 		MOVEI	11,^D2		;CLOCK TICK ARGUMENT
  4296	034735	264 00 0 00 040560 		JSR	DUPCLK		;CALL PKCLK ROUTINE
  4297	034736	271 16 0 00 000001 		ADDI	16,1		;COUNT # OF 1'S
  4298	034737	302 16 0 00 000006 		CAIE	16,6		;DONE 6 ONES YET?
  4299	034740	254 00 0 00 034733 		JRST	T.47B1		;NO-PUSH OUT ANOTHER 1-BIT
  4300	034741	725 06 0 03 000000 		BCIOB	6,(3)		;YES-LAST BIT IS A 0
  4301						PKCLK	4		^;TWO FULL CLOCKS
  4302	034742	201 11 0 00 000004 		MOVEI	11,^D4		;CLOCK TICK ARGUMENT
  4303	034743	264 00 0 00 040560 		JSR	DUPCLK		;CALL PKCLK ROUTINE
  4304	034744	200 03 0 00 041230 		MOVE	3,RXCSRL	;ADDRESS OF RXCSR REG
  4305	034745	712 05 0 03 000000 		RDIO	5,(3)		;READ RXCSR REG
  4306	034746	606 05 0 00 000200 		TRNN	5,RXDONE	;TEST RXDONE
  4307						ERROR	(T.47,13,0,0,TEST.47,<STATIC RCVR FCNS TEST-RXDONE NOT SET>,PRTSTA)^
  4308	034747	036 13 0 00 045551
  4309	034750	035 00 0 00 034623 		ERLOOP	T.47		;IF ERROR, LOOP TO T.47
  4310	034751	200 03 0 00 041232 		MOVE	3,RXDBUF
  4311	034752	712 05 0 03 000000 		RDIO	5,(3)		;READ RXDBUF REG
  4312	034753	606 05 0 00 001000 		TRNN	5,REOM		;TEST REOM
  4313						ERROR	(T.47,13,0,0,TEST.47,<STATIC RCVR FCNS TEST-REOM NOT SET>,PRTSTA)^
  4314	034754	036 13 0 00 045554
  4315	034755	035 00 0 00 034623 		ERLOOP	T.47		;IF ERROR, LOOP TO T.47
  4316						NXTTST	(47,50)^
  4317	034756	201 05 0 00 000047 		MOVEI	5,47		;GET CURRENT TEST #
  4318	034757	260 17 0 00 040245 		GO	$NXTST		;GO CHECK SWITCHES
  4319	034760	254 00 0 00 034623 		JRST	T.47		;REPEAT SAME TEST
  4320	034761	201 05 0 00 034764 		MOVEI	5,T.50		;GET NXT TEST #
  4321	034762	202 05 0 00 030051 		MOVEM	5,TESTPC	;SAVE ADRS FOR PC
  4322	034763	254 00 0 00 034764 		JRST	T.50		;GO TO NEXT TEST^
DSDUA DECSYSTEM 2020 DUP-11 DIAGNOSTIC VERSION 0,2	MACRO %53(1020) 08:16 15-Jun-79 Page 62
DSDUAM	MAC	14-Jun-79 16:28		*STATIC LOGIC TESTS -- .1-.155                                                     SEQ 0139

  4323						XLIST
  4324						LIST
  4325						S^;*********************************************************************^
  4326						COMMENT $
  4327						 T.50--*INTERNAL MAINT MODE/'REOM//RXDONE '(IN SECONDARY MODE) TEST *
  4328							THIS TEST INITIALIZES THE UNIBUS ADAPTER REGITER TO ZEROS,INITIALIZES
  4329						TXCSR REGISTER.THE INITIALIZATION ALSO CLEARS RXCSR,RXDBUF,AND TXDBUF.
  4330						'NOCRC' IS TO INHIBIT RECEPTION OF A CRC CHARACTER.THE DUP-11 IS PLACED
  4331						IN INTERNAL MAINT MODE.RCVEN IS SET TO ENABLE THE RECIEVER LOGIC.
  4332						ONE FLAG IS PUSHED INTO THE MAINT INPUT BIT WINDOW,(01111110),
  4333						AND THE CLOCK EDGE IS RAISED HIGH,TEST RXDONE,AND THEN LOWER THE CLOCK EDGE.
  4334						ANOTHER FLAG,(01111110),THEN THE CHAR '252' IS PUSHED (8 FULL CLOCKS
  4335						ARE ISSUED).THE FIRST BIT OF THE FLAG CHAR(0),IS INPUT TO THE MAINT
  4336						BIT WINDOW ,AND THE CLOCK EDGE RAISED HIGH .AT THIS TIME RXDONE IS TESTED ;
  4337						IT SHOULD BE SET .NEXT, THE THE PULSED LOW ,AND WE READ THE ASSEMBLED
  4338						CHAR '252' FROM RXDBUF. FINALLY,A SINGLE FLAG CHAR IS PUSHED OUT
  4339						AND THEN REOM AND RXDONE ATRE TESTED;BOTH SHOULD BE SET .
  4340						ANY DESCREPANCIES YIELD AN ERROR PRINTOUT.
  4341						$
  4342						S^;*********************************************************************^
  4343						XLIST
  4344						LIST
  4345
  4346	034764	260 17 0 00 040241 	T.50:	UBACLR			;INIT ADAPTER AND DUP LOGIC
  4347	034765	260 17 0 00 040234 		CSINIT			;PRE-TEST INITIALIZATION
  4348	034766	200 03 0 00 041233 		MOVE	3,PARCSR	;ADDRESS OF PARAM-STATUS REG
  4349	034767	201 06 0 00 001000 		MOVEI	6,CRCEN		;BIT TO BLOCK CRC
  4350	034770	713 06 0 03 000000 		WRIO	6,(3)		;SET 'NOCRC'
  4351	034771	201 06 0 00 000020 		MOVEI	6,20		;SECONDARY MODE BIT
  4352	034772	200 03 0 00 041234 		MOVE	3,PARCSH	;HI-BYTE ADR PARCSR
  4353	034773	724 06 0 03 000000 		BSIOB	6,(3)		;SEL SECONDARY ADR
  4354	034774	200 03 0 00 041230 		MOVE	3,RXCSRL	;ADDRESS OF RXCSR REG
  4355	034775	201 06 0 00 000020 		MOVEI	6,RCVEN		;RECIEVER ENABLE BIT
  4356	034776	713 06 0 03 000000 		WRIO	6,(3)		;SET RECIEVER ENABLE
  4357	034777	200 03 0 00 041235 		MOVE	3,TXCSR		;ADDRESS OF TXCSR REG
  4358	035000	201 06 0 00 014000 		MOVEI	6,MMODE		;INTERNAL MAINT MODE BITS
  4359	035001	476 00 0 00 041017 		SETOM	MMFLG		;SET HELP FLAG
  4360	035002	713 06 0 03 000000 		WRIO	6,(3)		;SET MODE - START CLK
DSDUA DECSYSTEM 2020 DUP-11 DIAGNOSTIC VERSION 0,2	MACRO %53(1020) 08:16 15-Jun-79 Page 63
DSDUAM	MAC	14-Jun-79 16:28		*STATIC LOGIC TESTS -- .1-.155                                                     SEQ 0140

  4361						RFLG	1		^;PUSH OUT ONE FLAG
  4362	035003	201 12 0 00 000001 		MOVEI	12,^D1		;SETUP FOR (N)FLAGS
  4363	035004	201 16 0 00 000000 	..0034:	MOVEI	16,0		;INIT COUNTER
  4364	035005	201 06 0 00 000004 		MOVEI	6,4		;RCVR BIT WINDOW INPUT BIT
  4365	035006	725 06 1 00 041237 		BCIOB	6,@TXCSRH	;FIRST BIT OF FLAG IS ALWAYS 0
  4366	035007	201 11 0 00 000002 		MOVEI	11,^D2		;CLOCK TICK ARGUMENT
  4367	035010	264 00 0 00 040560 		JSR	DUPCLK		;CALL PKCLK ROUTINE
  4368	035011	724 06 1 00 041237 	..0035:	BSIOB	6,@TXCSRH	;NEXT 6 BITS ARE 1'S
  4369	035012	201 11 0 00 000002 		MOVEI	11,^D2		;CLOCK TICK ARGUMENT
  4370	035013	264 00 0 00 040560 		JSR	DUPCLK		;CALL PKCLK ROUTINE
  4371	035014	271 16 0 00 000001 		ADDI	16,1		;COUNT # OF 1'S
  4372	035015	302 16 0 00 000006 		CAIE	16,6		;DONE 6 ONE YET??
  4373	035016	254 00 0 00 035011 		JRST	..0035		;NO-PUSH OUT ANOTHER 1 BIT
  4374	035017	725 06 1 00 041237 		BCIOB	6,@TXCSRH	;LAST BIT IS 1 ZERO
  4375	035020	201 11 0 00 000002 		MOVEI	11,^D2		;CLOCK TICK ARGUMENT
  4376	035021	264 00 0 00 040560 		JSR	DUPCLK		;CALL PKCLK ROUTINE
  4377	035022	275 12 0 00 000001 		SUBI	12,1		;DECREMENT FLAG COUNT
  4378	035023	326 12 0 00 035004 		JUMPN	12,..0034		;JUMP IF NOT ALL FLAGS DONE
  4379						RPOKE	1,8		^;PUSH SECONDARY STATION ADR
  4380	035024	201 12 0 00 000001 		MOVEI	12,1		;DATA
  4381	035025	201 16 0 00 000010 		MOVEI	16,^D8		;DECIMAL # OF SHIFTS
  4382	035026	264 00 0 00 040600 		JSR	RCVMT		;GENERATE SERIAL DATA
  4383	035027	201 06 0 00 000004 		MOVEI	6,4		;RCVR BIT WINDOW INPUT BIT
  4384	035030	200 03 0 00 041237 		MOVE	3,TXCSRH	;HI-BYTE ADDRESS TXCSR
  4385	035031	725 06 0 03 000000 		BCIOB	6,(3)		;CLEAR WINDOW BIT = FLAG BIT (0)
  4386						CLKHI			^;RAISE CLK EDGE HI!
  4387	035032	201 11 0 00 000001 		MOVEI	11,^D1		;CLOCK TICK ARGUMENT
  4388	035033	264 00 0 00 040560 		JSR	DUPCLK		;CALL PKCLK ROUTINE
  4389	035034	200 03 0 00 041230 		MOVE	3,RXCSRL
  4390	035035	712 05 0 03 000000 		RDIO	5,(3)		;READ RXCSR REG
  4391	035036	602 05 0 00 000200 		TRNE	5,RXDONE	;TEST RXDONE
  4392						ERROR	(T.50,13,0,0,TEST.50,<STATIC RCVR FCNS TEST-RXDONE NOT CLEAR>,PRTSTA)^
  4393	035037	036 13 0 00 045570
  4394	035040	035 00 0 00 034764 		ERLOOP	T.50		;IF ERROR, LOOP TO T.50
  4395						CLKLO			^;PULSE CLOCK LOW!
  4396	035041	201 10 0 00 000040 		MOVEI	10,1B30		;CLOCK POSITIONED FOR BYTE REF
  4397	035042	725 10 1 00 041237 		BCIOB	10,@TXCSRH	;PUT MAINT CLOCK INPUT AT LOGICAL 0
  4398	035043	037 10 0 00 000002 		SWITCH
  4399	035044	602 00 0 00 000001 		TRNE	0,1B35
  4400	035045	264 00 0 00 040432 		JSR	STATUS
  4401	035046	200 03 0 00 041232 		MOVE	3,RXDBUF	;ADDRESS OF RXDBUF REG
  4402	035047	722 05 0 03 000000 		RDIOB	5,(3)		;DUMMY READ CYCLE TO CLEAR REOM
  4403	035050	201 16 0 00 000000 		MOVEI	16,0		;INIT PULSE COUNTER
  4404	035051	201 06 0 00 000004 		MOVEI	6,4		;RCVR BIT WINDOW BIT
  4405	035052	200 03 0 00 041237 		MOVE	3,TXCSRH	;HI-BYTE ADDRESS TXCSR
DSDUA DECSYSTEM 2020 DUP-11 DIAGNOSTIC VERSION 0,2	MACRO %53(1020) 08:16 15-Jun-79 Page 64
DSDUAM	MAC	14-Jun-79 16:28		*STATIC LOGIC TESTS -- .1-.155                                                     SEQ 0141

  4406	035053	724 06 0 03 000000 	T.50A1:	BSIOB	6,(3)		;NEXT 6-BITS ARE ONES
  4407						PKCLK	2		^;ONE FULL CLOCK
  4408	035054	201 11 0 00 000002 		MOVEI	11,^D2		;CLOCK TICK ARGUMENT
  4409	035055	264 00 0 00 040560 		JSR	DUPCLK		;CALL PKCLK ROUTINE
  4410	035056	271 16 0 00 000001 		ADDI	16,1		;COUNT # OF 1'S
  4411	035057	302 16 0 00 000006 		CAIE	16,6		;DONE 6 ONES YET?
  4412	035060	254 00 0 00 035053 		JRST	T.50A1		;NO-PUSH OUT ANOTHER 1-BIT
  4413	035061	725 06 0 03 000000 		BCIOB	6,(3)		;YES-NOW PUSH OUT A ZERO
  4414						PKCLK	2		^;ONE FULL CLK
  4415	035062	201 11 0 00 000002 		MOVEI	11,^D2		;CLOCK TICK ARGUMENT
  4416	035063	264 00 0 00 040560 		JSR	DUPCLK		;CALL PKCLK ROUTINE
  4417	035064	201 06 0 00 000004 		MOVEI	6,4		;RCVR BIT WINDOW INPUT BIT
  4418	035065	200 03 0 00 041237 		MOVE	3,TXCSRH		;HI-BYTE ADDRESS TXCSR
  4419	035066	725 06 0 03 000000 		BCIOB	6,(3)		;CLEAR WINDOW BIT=FLAG BIT(0)
  4420						CLKHI			^;RAISE CLOCK EDGE HI!
  4421	035067	201 11 0 00 000001 		MOVEI	11,^D1		;CLOCK TICK ARGUMENT
  4422	035070	264 00 0 00 040560 		JSR	DUPCLK		;CALL PKCLK ROUTINE
  4423	035071	200 03 0 00 041232 		MOVE	3,RXDBUF	;ADDRESS OF RXDBUF REG
  4424	035072	712 05 0 03 000000 		RDIO	5,(3)		;READ RXDBUF
  4425	035073	602 05 0 00 001000 		TRNE	5,REOM		;TEST FOR REOM
  4426						ERROR	(T.50,13,0,0,TEST.50,<STATIC RCVR FCNS TEST-REOM NOT CLEAR>,PRTSTA)^
  4427	035074	036 13 0 00 045602
  4428	035075	035 00 0 00 034764 		ERLOOP	T.50		;IF ERROR, LOOP TO T.50
  4429						CLKLO			^;PULSE CLOCK LOW!
  4430	035076	201 10 0 00 000040 		MOVEI	10,1B30		;CLOCK POSITIONED FOR BYTE REF
  4431	035077	725 10 1 00 041237 		BCIOB	10,@TXCSRH	;PUT MAINT CLOCK INPUT AT LOGICAL 0
  4432	035100	037 10 0 00 000002 		SWITCH
  4433	035101	602 00 0 00 000001 		TRNE	0,1B35
  4434	035102	264 00 0 00 040432 		JSR	STATUS
  4435						RFLG	1		^;PUSH OUT A FLAG
  4436	035103	201 12 0 00 000001 		MOVEI	12,^D1		;SETUP FOR (N)FLAGS
  4437	035104	201 16 0 00 000000 	..0043:	MOVEI	16,0		;INIT COUNTER
  4438	035105	201 06 0 00 000004 		MOVEI	6,4		;RCVR BIT WINDOW INPUT BIT
  4439	035106	725 06 1 00 041237 		BCIOB	6,@TXCSRH	;FIRST BIT OF FLAG IS ALWAYS 0
  4440	035107	201 11 0 00 000002 		MOVEI	11,^D2		;CLOCK TICK ARGUMENT
  4441	035110	264 00 0 00 040560 		JSR	DUPCLK		;CALL PKCLK ROUTINE
  4442	035111	724 06 1 00 041237 	..0044:	BSIOB	6,@TXCSRH	;NEXT 6 BITS ARE 1'S
  4443	035112	201 11 0 00 000002 		MOVEI	11,^D2		;CLOCK TICK ARGUMENT
  4444	035113	264 00 0 00 040560 		JSR	DUPCLK		;CALL PKCLK ROUTINE
  4445	035114	271 16 0 00 000001 		ADDI	16,1		;COUNT # OF 1'S
  4446	035115	302 16 0 00 000006 		CAIE	16,6		;DONE 6 ONE YET??
  4447	035116	254 00 0 00 035111 		JRST	..0044		;NO-PUSH OUT ANOTHER 1 BIT
  4448	035117	725 06 1 00 041237 		BCIOB	6,@TXCSRH	;LAST BIT IS 1 ZERO
  4449	035120	201 11 0 00 000002 		MOVEI	11,^D2		;CLOCK TICK ARGUMENT
  4450	035121	264 00 0 00 040560 		JSR	DUPCLK		;CALL PKCLK ROUTINE
  4451	035122	275 12 0 00 000001 		SUBI	12,1		;DECREMENT FLAG COUNT
  4452	035123	326 12 0 00 035104 		JUMPN	12,..0043		;JUMP IF NOT ALL FLAGS DONE
  4453						RPOKE	0,8		^;PUSH VALID SEC ADDRESS
  4454	035124	201 12 0 00 000000 		MOVEI	12,0		;DATA
  4455	035125	201 16 0 00 000010 		MOVEI	16,^D8		;DECIMAL # OF SHIFTS
  4456	035126	264 00 0 00 040600 		JSR	RCVMT		;GENERATE SERIAL DATA
  4457						RPOKE	252,8		^;PUSH OUT CHAR
  4458	035127	201 12 0 00 000252 		MOVEI	12,252		;DATA
  4459	035130	201 16 0 00 000010 		MOVEI	16,^D8		;DECIMAL # OF SHIFTS
  4460	035131	264 00 0 00 040600 		JSR	RCVMT		;GENERATE SERIAL DATA
DSDUA DECSYSTEM 2020 DUP-11 DIAGNOSTIC VERSION 0,2	MACRO %53(1020) 08:16 15-Jun-79 Page 64-1
DSDUAM	MAC	14-Jun-79 16:28		*STATIC LOGIC TESTS -- .1-.155                                                     SEQ 0142

  4461	035132	201 06 0 00 000004 		MOVEI	6,4		;RCVR BIT WINDOW INPUT BIT
  4462	035133	200 03 0 00 041237 		MOVE	3,TXCSRH	;ADDRESS OF HI-BYTE TXCSR REG
  4463	035134	725 06 0 03 000000 		BCIOB	6,(3)		;CLEAR WINDOW BIT = FLAG BIT (0)
  4464						CLKHI			^;RAISE CLOCK HI!
  4465	035135	201 11 0 00 000001 		MOVEI	11,^D1		;CLOCK TICK ARGUMENT
  4466	035136	264 00 0 00 040560 		JSR	DUPCLK		;CALL PKCLK ROUTINE
  4467	035137	200 03 0 00 041230 		MOVE	3,RXCSRL	;ADDRESS OF RXCSR REG
  4468	035140	712 05 0 03 000000 		RDIO	5,(3)		;READ RXCSR REG
  4469	035141	606 05 0 00 000200 		TRNN	5,RXDONE	;TEST RXDONE
  4470						ERROR	(T.50,13,0,0,TEST.50,<STATIC RCVR FCNS TEST-RXDONE NOT SET>,PRTSTA)^
  4471	035142	036 13 0 00 045605
  4472	035143	035 00 0 00 034764 		ERLOOP	T.50		;IF ERROR, LOOP TO T.50
  4473						CLKLO			^;PUSH CLOCK LOW!
  4474	035144	201 10 0 00 000040 		MOVEI	10,1B30		;CLOCK POSITIONED FOR BYTE REF
  4475	035145	725 10 1 00 041237 		BCIOB	10,@TXCSRH	;PUT MAINT CLOCK INPUT AT LOGICAL 0
  4476	035146	037 10 0 00 000002 		SWITCH
  4477	035147	602 00 0 00 000001 		TRNE	0,1B35
  4478	035150	264 00 0 00 040432 		JSR	STATUS
  4479	035151	201 16 0 00 000000 		MOVEI	16,0		;INIT PULSE COUNTER
  4480	035152	201 06 0 00 000004 		MOVEI	6,4		;RCVR BIT WINDOW BIT
  4481	035153	200 03 0 00 041237 		MOVE	3,TXCSRH	;HI-BYTE ADDRESS TXCSR
  4482	035154	724 06 0 03 000000 	T.50C1:	BSIOB	6,(3)		;NEXT 6-BITS ARE ONES
  4483						PKCLK	2		^;ONE FULL CLOCK
  4484	035155	201 11 0 00 000002 		MOVEI	11,^D2		;CLOCK TICK ARGUMENT
  4485	035156	264 00 0 00 040560 		JSR	DUPCLK		;CALL PKCLK ROUTINE
  4486	035157	271 16 0 00 000001 		ADDI	16,1		;COUNT # OF 1,S
  4487	035160	302 16 0 00 000006 		CAIE	16,6		;DONE 6 ONE,S YET ?
  4488	035161	254 00 0 00 035154 		JRST	T.50C1		;NO-PUSH OUT ANOTHER ONE BIT
  4489	035162	725 06 0 03 000000 		BCIOB	6,(3)
  4490						PKCLK	2		^;ONE FULL CLOCK
  4491	035163	201 11 0 00 000002 		MOVEI	11,^D2		;CLOCK TICK ARGUMENT
  4492	035164	264 00 0 00 040560 		JSR	DUPCLK		;CALL PKCLK ROUTINE
  4493						CLKHI			^;PULSE CLOCK HI!
  4494	035165	201 11 0 00 000001 		MOVEI	11,^D1		;CLOCK TICK ARGUMENT
  4495	035166	264 00 0 00 040560 		JSR	DUPCLK		;CALL PKCLK ROUTINE
  4496	035167	200 03 0 00 041230 		MOVE	3,RXCSRL	;ADDRESS OF RXCSR REG
  4497	035170	712 05 0 03 000000 		RDIO	5,(3)		;READ THE REG
  4498	035171	606 05 0 00 000200 		TRNN	5,RXDONE	;TEST DONE BIT
  4499						ERROR	(T.50,13,0,0,TEST.50,<STATIC RCVR FCNS TEST-RXDONE NOT SET>,PRTSTA)^
  4500	035172	036 13 0 00 045605
  4501	035173	035 00 0 00 034764 		ERLOOP	T.50		;IF ERROR, LOOP TO T.50
  4502	035174	200 03 0 00 041232 		MOVE	3,RXDBUF	;ADDRESS OF RXDBUF REG
  4503	035175	712 05 0 03 000000 		RDIO	5,(3)		;READ RXDBUF
  4504	035176	606 05 0 00 001000 		TRNN	5,REOM		;TEST FOR REOM
  4505						ERROR	(T.50,13,0,0,TEST.50,<STATIC RCVR FCNS TEST-REOM NOT SET>,PRTSTA)^
  4506	035177	036 13 0 00 045610
  4507	035200	035 00 0 00 034764 		ERLOOP	T.50		;IF ERROR, LOOP TO T.50
  4508						NXTTST	(50,51)^
  4509	035201	201 05 0 00 000050 		MOVEI	5,50		;GET CURRENT TEST #
  4510	035202	260 17 0 00 040245 		GO	$NXTST		;GO CHECK SWITCHES
  4511	035203	254 00 0 00 034764 		JRST	T.50		;REPEAT SAME TEST
  4512	035204	201 05 0 00 035207 		MOVEI	5,T.51		;GET NXT TEST #
  4513	035205	202 05 0 00 030051 		MOVEM	5,TESTPC	;SAVE ADRS FOR PC
  4514	035206	254 00 0 00 035207 		JRST	T.51		;GO TO NEXT TEST^
  4515
DSDUA DECSYSTEM 2020 DUP-11 DIAGNOSTIC VERSION 0,2	MACRO %53(1020) 08:16 15-Jun-79 Page 65
DSDUAM	MAC	14-Jun-79 16:28		*STATIC LOGIC TESTS -- .1-.155                                                     SEQ 0143

  4516						XLIST
  4517						LIST
  4518						S^;*********************************************************************^
  4519						COMMENT $
  4520						 TEST.51--*INTERNAL MAINT MODE /'ABORT//RXDONE' (PRIMARY MODE) TEST*
  4521						THIS TEST INITIALIZES THE UNIBUS ADAPTER TO ZEROS,
  4522						INITIALIZES THE TXCSR REGISTER. THE INITIALIZATION ALSO
  4523						CLEARS RXCSR,RXDBUF,AND TXDBUF.'NOCRC' IS SET TO INHIBIT
  4524						RECEPTION OF A CRC CHARACTER. THE DUP-11 IS PLACED IN
  4525						INTERNAL MAINT MODE (TXCSR BITS 12-11=1). RCVEN BIT IS
  4526						SET TO ENABLE THE RECIEVER LOGIC. ONE FLAG IS PUSHED
  4527						INTO THE MAINT BIT WINDOW,(01111110),THEN A NULL
  4528						CHARACTER ,THE WINDOW IS SET AND ONE FULL CLK IS ISSUED
  4529						AFTER A DUMMY READ TO CLEAR THE BUFFER WE PUSH OUT A
  4530						ABORT CHARACTER"177",INTO THE MAINT WINDOW WITH 8 FULL
  4531						CLOCKS.TABORT,RXDONE,AND RXDERR BITS ARE TESTED THEY
  4532						SHOULD BE SET.THE RECACT BIT SI TESTED IT SHOULD BE
  4533						CLEAR. ANY DESCREPANCIES YIELD AN ERROR PRINT OUT.
  4534						$
  4535						S^;*********************************************************************^
  4536						XLIST
  4537						LIST
  4538
  4539	035207	260 17 0 00 040241 	T.51:	UBACLR			;INIT ADAPTER AND DUP LOGIC
  4540	035210	260 17 0 00 040234 		CSINIT			;PRE TEST INITIALIZATION
  4541	035211	200 03 0 00 041233 		MOVE	3,PARCSR	;ADDRESS OF PARAM STAT REG
  4542	035212	201 06 0 00 001000 		MOVEI	6,CRCEN		;BIT TO TURN OFF CRC
  4543	035213	713 06 0 03 000000 		WRIO	6,(3)		;LOAD PARCSR 'NOCRC'
  4544	035214	200 03 0 00 041230 		MOVE	3,RXCSRL	;ADDRESS OF RXCSR REG
  4545	035215	201 06 0 00 000020 		MOVEI	6,RCVEN		;RECIEVER ENABLE BIT
  4546	035216	713 06 0 03 000000 		WRIO	6,(3)		;SET RECIEVER ENABLE
  4547	035217	200 03 0 00 041235 		MOVE	3,TXCSR		;ADDRESS OF TXCSR REG
  4548	035220	201 06 0 00 014000 		MOVEI   6,MMODE		;INTERNAL MAINT MODE BITS
  4549	035221	476 00 0 00 041017 		SETOM	MMFLG		;SET HELP FLG
  4550	035222	713 06 0 03 000000 		WRIO	6,(3)		;SET MODE-START CLK
DSDUA DECSYSTEM 2020 DUP-11 DIAGNOSTIC VERSION 0,2	MACRO %53(1020) 08:16 15-Jun-79 Page 66
DSDUAM	MAC	14-Jun-79 16:28		*STATIC LOGIC TESTS -- .1-.155                                                     SEQ 0144

  4551						RFLG	1		^;PUSH OUT A FLAG
  4552	035223	201 12 0 00 000001 		MOVEI	12,^D1		;SETUP FOR (N)FLAGS
  4553	035224	201 16 0 00 000000 	..0051:	MOVEI	16,0		;INIT COUNTER
  4554	035225	201 06 0 00 000004 		MOVEI	6,4		;RCVR BIT WINDOW INPUT BIT
  4555	035226	725 06 1 00 041237 		BCIOB	6,@TXCSRH	;FIRST BIT OF FLAG IS ALWAYS 0
  4556	035227	201 11 0 00 000002 		MOVEI	11,^D2		;CLOCK TICK ARGUMENT
  4557	035230	264 00 0 00 040560 		JSR	DUPCLK		;CALL PKCLK ROUTINE
  4558	035231	724 06 1 00 041237 	..0052:	BSIOB	6,@TXCSRH	;NEXT 6 BITS ARE 1'S
  4559	035232	201 11 0 00 000002 		MOVEI	11,^D2		;CLOCK TICK ARGUMENT
  4560	035233	264 00 0 00 040560 		JSR	DUPCLK		;CALL PKCLK ROUTINE
  4561	035234	271 16 0 00 000001 		ADDI	16,1		;COUNT # OF 1'S
  4562	035235	302 16 0 00 000006 		CAIE	16,6		;DONE 6 ONE YET??
  4563	035236	254 00 0 00 035231 		JRST	..0052		;NO-PUSH OUT ANOTHER 1 BIT
  4564	035237	725 06 1 00 041237 		BCIOB	6,@TXCSRH	;LAST BIT IS 1 ZERO
  4565	035240	201 11 0 00 000002 		MOVEI	11,^D2		;CLOCK TICK ARGUMENT
  4566	035241	264 00 0 00 040560 		JSR	DUPCLK		;CALL PKCLK ROUTINE
  4567	035242	275 12 0 00 000001 		SUBI	12,1		;DECREMENT FLAG COUNT
  4568	035243	326 12 0 00 035224 		JUMPN	12,..0051		;JUMP IF NOT ALL FLAGS DONE
  4569						RPOKE	0,8		^;PUSH OUT A NULL CHARAC
  4570	035244	201 12 0 00 000000 		MOVEI	12,0		;DATA
  4571	035245	201 16 0 00 000010 		MOVEI	16,^D8		;DECIMAL # OF SHIFTS
  4572	035246	264 00 0 00 040600 		JSR	RCVMT		;GENERATE SERIAL DATA
  4573	035247	201 06 0 00 000004 		MOVEI	6,4		;RCVR BIT WINDOW BIT
  4574	035250	200 03 0 00 041237 		MOVE	3,TXCSRH	;HI-BYTE ADDRESS OF TXCSR
  4575	035251	724 06 0 03 000000 		BSIOB	6,(3)		;SET BIT WINDOW
  4576						CLKHI			^;RAISE CLK HI
  4577	035252	201 11 0 00 000001 		MOVEI	11,^D1		;CLOCK TICK ARGUMENT
  4578	035253	264 00 0 00 040560 		JSR	DUPCLK		;CALL PKCLK ROUTINE
  4579	035254	200 03 0 00 041232 		MOVE	3,RXDBUF	;ADDRESS OF RXDBUF REG
  4580	035255	722 05 0 03 000000 		RDIOB	5,(3)		;DUMMY READ
  4581						CLKLO			^;PULSE CLOCK LOW!
  4582	035256	201 10 0 00 000040 		MOVEI	10,1B30		;CLOCK POSITIONED FOR BYTE REF
  4583	035257	725 10 1 00 041237 		BCIOB	10,@TXCSRH	;PUT MAINT CLOCK INPUT AT LOGICAL 0
  4584	035260	037 10 0 00 000002 		SWITCH
  4585	035261	602 00 0 00 000001 		TRNE	0,1B35
  4586	035262	264 00 0 00 040432 		JSR	STATUS
  4587						RPOKE	177,8		^;PUSH BAORT CHARAC
  4588	035263	201 12 0 00 000177 		MOVEI	12,177		;DATA
  4589	035264	201 16 0 00 000010 		MOVEI	16,^D8		;DECIMAL # OF SHIFTS
  4590	035265	264 00 0 00 040600 		JSR	RCVMT		;GENERATE SERIAL DATA
  4591	035266	201 06 0 00 000004 		MOVEI	6,4		;RECIEVER BIT WINDOW BIT
  4592	035267	200 03 0 00 041237 		MOVE	3,TXCSRH	;HI BYTE OF TXCSR ADDRESS
  4593	035270	725 06 0 03 000000 		BCIOB	6,(3)		;CLEAR WINDOW BIT=FLAG BIT (0)
  4594						CLKHI^
  4595	035271	201 11 0 00 000001 		MOVEI	11,^D1		;CLOCK TICK ARGUMENT
  4596	035272	264 00 0 00 040560 		JSR	DUPCLK		;CALL PKCLK ROUTINE
  4597	035273	200 03 0 00 041230 		MOVE	3,RXCSRL	;ADDRESS OF RXCSR REG
  4598	035274	712 05 0 03 000000 		RDIO	5,(3)		;READ RXCSR REG
  4599	035275	602 05 0 00 004000 		TRNE	5,RECACT	;TEST FOR RECIEVER ACTIVE
DSDUA DECSYSTEM 2020 DUP-11 DIAGNOSTIC VERSION 0,2	MACRO %53(1020) 08:16 15-Jun-79 Page 67
DSDUAM	MAC	14-Jun-79 16:28		*STATIC LOGIC TESTS -- .1-.155                                                     SEQ 0145

  4600						ERROR	(T.51,13,0,0,TEST.51,<STATIC RCVACT FCNS TEST-RCVACT IS SET>,PRTSTA)^
  4601	035276	036 13 0 00 045624
  4602	035277	035 00 0 00 035207 		ERLOOP	T.51		;IF ERROR, LOOP TO T.51
  4603	035300	606 05 0 00 000200 		TRNN	5,RXDONE	;TEST DONE BIT
  4604						ERROR	(T.51,13,0,0,TEST.51,<STATIC RCVER FCNS TEST-RXDONE IS NOT SET>,PRTSTA)^
  4605	035301	036 13 0 00 045636
  4606	035302	035 00 0 00 035207 		ERLOOP	T.51		;IF ERROR, LOOP TO T.51
  4607	035303	200 03 0 00 041232 		MOVE	3,RXDBUF
  4608	035304	712 05 0 03 000000 		RDIO	5,(3)
  4609	035305	606 05 0 00 002000 		TRNN	5,TABORT	;TEST ABORT BIT
  4610						ERROR	(T.51,13,0,0,TEST.51,<STATIC RCVER FCNS TEST-TABORT NOT SET>,PRTSTA)^
  4611	035306	036 13 0 00 045650
  4612	035307	035 00 0 00 035207 		ERLOOP	T.51		;IF ERROR, LOOP TO T.51
  4613	035310	606 05 0 00 100000 		TRNN	5,RXDERR	;TEST ERROR BIT
  4614						ERROR	(T.51,13,0,0,TEST.51,<STATIC TEST-RXDERR NOT SET>,PRTSTA)^
  4615	035311	036 13 0 00 045660
  4616	035312	035 00 0 00 035207 		ERLOOP	T.51		;IF ERROR, LOOP TO T.51
  4617						NXTTST	(51,52)^
  4618	035313	201 05 0 00 000051 		MOVEI	5,51		;GET CURRENT TEST #
  4619	035314	260 17 0 00 040245 		GO	$NXTST		;GO CHECK SWITCHES
  4620	035315	254 00 0 00 035207 		JRST	T.51		;REPEAT SAME TEST
  4621	035316	201 05 0 00 035321 		MOVEI	5,T.52		;GET NXT TEST #
  4622	035317	202 05 0 00 030051 		MOVEM	5,TESTPC	;SAVE ADRS FOR PC
  4623	035320	254 00 0 00 035321 		JRST	T.52		;GO TO NEXT TEST^
  4624
DSDUA DECSYSTEM 2020 DUP-11 DIAGNOSTIC VERSION 0,2	MACRO %53(1020) 08:16 15-Jun-79 Page 68
DSDUAM	MAC	14-Jun-79 16:28		*STATIC LOGIC TESTS -- .1-.155                                                     SEQ 0146

  4625						XLIST
  4626						LIST
  4627						S^;*********************************************************************^
  4628						COMMENT $
  4629						 T.52--*INTERNAL MAINTNANCE MODE /'ABORT//RXDONE' (SECONDARY MODE) TEST*
  4630						THIS TEST INITIALIZES THE UNIBUS ADAPTER  TO ZEROS,INITIALIZES
  4631						THE TXCSR REGISTER.THE INITIALIZATION ALSO CLEARS RXCSR,RXDBUF,
  4632						AND TXDBUF.'NOCRC' IS SET TO INHIBIT THE RECEPTION OF A CRC
  4633						CHARACTER.THE DUP-11 IS PLACED IN INTERNAL MAINT MODE (TXCSR
  4634						BITS 12-11=1).RCVEN BIT IS SET TO ENABLE THE RECIEVER LOGIC.
  4635							AN INITIAL FLAG IS PUSHED,THEN AWRONG SECONDARY ADDRESS
  4636						(001),AN EXTRA CLOCK PULSE,A DUMMY BUFFER READ TO CLEAR DONE,AND
  4637						FINALLY THE ABORT CHARACTER (177).ABORT BIT IS TESTED IT SHOULD
  4638						BE CLEAR.A NEW FLAG IS PUSHED ,A VALID SECONDARY ADDRESS,AND
  4639						A (252)CHARACTER.BUFFER IS READ TO CLEAR DONE.NOW THE ABORT
  4640						SEQUENCE IS PUSHED AGAIN,RECACT IS TESTED IT SHOULD BE CLEAR
  4641						RXDONE,RXDERR,AND TABORT,ALL ARE TESTED THEY SHOULD BE SET
  4642						ANY DISCREPANCIES WILL YIELD AN ERROR MESSAGE.
  4643						$
  4644						S^;*********************************************************************^
  4645						XLIST
  4646						LIST
  4647
  4648	035321	260 17 0 00 040241 	T.52:	UBACLR			;INIT ADABTER AND DUP LOGIC
  4649	035322	260 17 0 00 040234 		CSINIT			;PRE TEST INITIALIZATION
  4650	035323	200 03 0 00 041233 		MOVE	3,PARCSR	;ADDRESS OF PARCSR REG
  4651	035324	201 06 0 00 001000 		MOVEI	6,CRCEN		;BIT TO INHIBIT CRC
  4652	035325	713 06 0 03 000000 		WRIO	6,(3)		;SET 'NOCRC'
  4653	035326	200 03 0 00 041230 		MOVE	3,RXCSRL	;ADDRESS OF RXCSR REG
  4654	035327	201 06 0 00 000020 		MOVEI	6,RCVEN		;RECIEVER ENABLE BIT
  4655	035330	713 06 0 03 000000 		WRIO	6,(3)		;SET MODE START CLOCK
  4656	035331	201 06 0 00 000020 		MOVEI	6,20		;SECONDARY MODE BIT
  4657	035332	200 03 0 00 041234 		MOVE	3,PARCSH	;HI BYTE ADDRESS OF PARCSR
  4658	035333	724 06 0 03 000000 		BSIOB	6,(3)		;SEL SEC MODE
  4659	035334	200 03 0 00 041235 		MOVE	3,TXCSR		;ADDRESS OF TXCSR REG
  4660	035335	201 06 0 00 014000 		MOVEI	6,MMODE		;MAINT MODE BITS
  4661	035336	476 00 0 00 041017 		SETOM	MMFLG		;SET HELP FLAG
  4662	035337	713 06 0 03 000000 		WRIO	6,(3)		;SET MADE START CLOCK
DSDUA DECSYSTEM 2020 DUP-11 DIAGNOSTIC VERSION 0,2	MACRO %53(1020) 08:16 15-Jun-79 Page 69
DSDUAM	MAC	14-Jun-79 16:28		*STATIC LOGIC TESTS -- .1-.155                                                     SEQ 0147

  4663						RFLG	1		^;PUSH OUY A FLAG
  4664	035340	201 12 0 00 000001 		MOVEI	12,^D1		;SETUP FOR (N)FLAGS
  4665	035341	201 16 0 00 000000 	..0057:	MOVEI	16,0		;INIT COUNTER
  4666	035342	201 06 0 00 000004 		MOVEI	6,4		;RCVR BIT WINDOW INPUT BIT
  4667	035343	725 06 1 00 041237 		BCIOB	6,@TXCSRH	;FIRST BIT OF FLAG IS ALWAYS 0
  4668	035344	201 11 0 00 000002 		MOVEI	11,^D2		;CLOCK TICK ARGUMENT
  4669	035345	264 00 0 00 040560 		JSR	DUPCLK		;CALL PKCLK ROUTINE
  4670	035346	724 06 1 00 041237 	..0060:	BSIOB	6,@TXCSRH	;NEXT 6 BITS ARE 1'S
  4671	035347	201 11 0 00 000002 		MOVEI	11,^D2		;CLOCK TICK ARGUMENT
  4672	035350	264 00 0 00 040560 		JSR	DUPCLK		;CALL PKCLK ROUTINE
  4673	035351	271 16 0 00 000001 		ADDI	16,1		;COUNT # OF 1'S
  4674	035352	302 16 0 00 000006 		CAIE	16,6		;DONE 6 ONE YET??
  4675	035353	254 00 0 00 035346 		JRST	..0060		;NO-PUSH OUT ANOTHER 1 BIT
  4676	035354	725 06 1 00 041237 		BCIOB	6,@TXCSRH	;LAST BIT IS 1 ZERO
  4677	035355	201 11 0 00 000002 		MOVEI	11,^D2		;CLOCK TICK ARGUMENT
  4678	035356	264 00 0 00 040560 		JSR	DUPCLK		;CALL PKCLK ROUTINE
  4679	035357	275 12 0 00 000001 		SUBI	12,1		;DECREMENT FLAG COUNT
  4680	035360	326 12 0 00 035341 		JUMPN	12,..0057		;JUMP IF NOT ALL FLAGS DONE
  4681						RPOKE	1,8		^;PUSH AN ADDRESS
  4682	035361	201 12 0 00 000001 		MOVEI	12,1		;DATA
  4683	035362	201 16 0 00 000010 		MOVEI	16,^D8		;DECIMAL # OF SHIFTS
  4684	035363	264 00 0 00 040600 		JSR	RCVMT		;GENERATE SERIAL DATA
  4685	035364	200 03 0 00 041235 		MOVE	3,TXCSR		;ADDRESS OF TXCSR REG
  4686	035365	201 06 0 00 002000 		MOVEI	6,BITW		;ENABLE BIT WINDPOW
  4687	035366	714 06 0 03 000000 		BSIO	6,(3)		;SET BIT WINDOW ENABLE
  4688						PKCLK	2		^;GIVE ONE FULL CLOCK
  4689	035367	201 11 0 00 000002 		MOVEI	11,^D2		;CLOCK TICK ARGUMENT
  4690	035370	264 00 0 00 040560 		JSR	DUPCLK		;CALL PKCLK ROUTINE
  4691	035371	200 03 0 00 041232 		MOVE	3,RXDBUF	;ADDRESS OF RXDBUF REG
  4692	035372	722 05 0 03 000000 		RDIOB	5,(3)		;READ THE BUFFER
  4693						RPOKE	177,8		^;PUSH A SECOND CHARACTER
  4694	035373	201 12 0 00 000177 		MOVEI	12,177		;DATA
  4695	035374	201 16 0 00 000010 		MOVEI	16,^D8		;DECIMAL # OF SHIFTS
  4696	035375	264 00 0 00 040600 		JSR	RCVMT		;GENERATE SERIAL DATA
  4697	035376	200 03 0 00 041232 		MOVE	3,RXDBUF	;ADDRESS OF RXDBUF REG
  4698	035377	712 05 0 03 000000 		RDIO	5,(3)		;READ THE REG
  4699	035400	602 05 0 00 002000 		TRNE	5,TABORT	;TEST ABORT BIT
  4700						ERROR	(T.52,13,0,0,TEST.52,<STATIC RCVR FCNS TEST ABORT IS SET>,PRTSTA)^
  4701	035401	036 13 0 00 045673
  4702	035402	035 00 0 00 035321 		ERLOOP	T.52		;IF ERROR, LOOP TO T.52
  4703						RFLG	1		^;PUSH OUT A FLAG
  4704	035403	201 12 0 00 000001 		MOVEI	12,^D1		;SETUP FOR (N)FLAGS
  4705	035404	201 16 0 00 000000 	..0062:	MOVEI	16,0		;INIT COUNTER
  4706	035405	201 06 0 00 000004 		MOVEI	6,4		;RCVR BIT WINDOW INPUT BIT
  4707	035406	725 06 1 00 041237 		BCIOB	6,@TXCSRH	;FIRST BIT OF FLAG IS ALWAYS 0
  4708	035407	201 11 0 00 000002 		MOVEI	11,^D2		;CLOCK TICK ARGUMENT
  4709	035410	264 00 0 00 040560 		JSR	DUPCLK		;CALL PKCLK ROUTINE
  4710	035411	724 06 1 00 041237 	..0063:	BSIOB	6,@TXCSRH	;NEXT 6 BITS ARE 1'S
  4711	035412	201 11 0 00 000002 		MOVEI	11,^D2		;CLOCK TICK ARGUMENT
  4712	035413	264 00 0 00 040560 		JSR	DUPCLK		;CALL PKCLK ROUTINE
  4713	035414	271 16 0 00 000001 		ADDI	16,1		;COUNT # OF 1'S
  4714	035415	302 16 0 00 000006 		CAIE	16,6		;DONE 6 ONE YET??
  4715	035416	254 00 0 00 035411 		JRST	..0063		;NO-PUSH OUT ANOTHER 1 BIT
  4716	035417	725 06 1 00 041237 		BCIOB	6,@TXCSRH	;LAST BIT IS 1 ZERO
  4717	035420	201 11 0 00 000002 		MOVEI	11,^D2		;CLOCK TICK ARGUMENT
DSDUA DECSYSTEM 2020 DUP-11 DIAGNOSTIC VERSION 0,2	MACRO %53(1020) 08:16 15-Jun-79 Page 69-1
DSDUAM	MAC	14-Jun-79 16:28		*STATIC LOGIC TESTS -- .1-.155                                                     SEQ 0148

  4718	035421	264 00 0 00 040560 		JSR	DUPCLK		;CALL PKCLK ROUTINE
  4719	035422	275 12 0 00 000001 		SUBI	12,1		;DECREMENT FLAG COUNT
  4720	035423	326 12 0 00 035404 		JUMPN	12,..0062		;JUMP IF NOT ALL FLAGS DONE
  4721						RPOKE	0,8		^;PUSH VALID SECONDARY ADDRESS
  4722	035424	201 12 0 00 000000 		MOVEI	12,0		;DATA
  4723	035425	201 16 0 00 000010 		MOVEI	16,^D8		;DECIMAL # OF SHIFTS
  4724	035426	264 00 0 00 040600 		JSR	RCVMT		;GENERATE SERIAL DATA
  4725						RPOKE	252,8		^;PUSH A CHARACTER
  4726	035427	201 12 0 00 000252 		MOVEI	12,252		;DATA
  4727	035430	201 16 0 00 000010 		MOVEI	16,^D8		;DECIMAL # OF SHIFTS
  4728	035431	264 00 0 00 040600 		JSR	RCVMT		;GENERATE SERIAL DATA
  4729	035432	200 03 0 00 041235 		MOVE	3,TXCSR		;ADDRESS OF TXCSR REG
  4730	035433	201 06 0 00 002000 		MOVEI	6,BITW		;ENABLE BIT WINDOW
  4731	035434	714 06 0 03 000000 		BSIO	6,(3)		;SET BIT WINDOW
  4732						PKCLK	2		^;ONE FULL CLOCK
  4733	035435	201 11 0 00 000002 		MOVEI	11,^D2		;CLOCK TICK ARGUMENT
  4734	035436	264 00 0 00 040560 		JSR	DUPCLK		;CALL PKCLK ROUTINE
  4735	035437	200 03 0 00 041232 		MOVE	3,RXDBUF	;ADDRESS OF RXDBUF REG
  4736	035440	722 05 0 03 000000 		RDIOB	5,(3)		;DUMMY READ
  4737						RPOKE 177,8		^;PUSH ABORT SEQUENCE
  4738	035441	201 12 0 00 000177 		MOVEI	12,177		;DATA
  4739	035442	201 16 0 00 000010 		MOVEI	16,^D8		;DECIMAL # OF SHIFTS
  4740	035443	264 00 0 00 040600 		JSR	RCVMT		;GENERATE SERIAL DATA
  4741	035444	200 03 0 00 041227 		MOVE	3,RXCSR		;ADDRESS OF RXCSR REG
  4742	035445	712 05 0 03 000000 		RDIO	5,(3)		;READ THE REG
  4743	035446	602 05 0 00 004000 		TRNE	5,RECACT	;TEST RECIEVER ACTIVE
  4744						ERROR	(T.52,13,0,0,TEST.52,<STATIC RCVR FCNS TEST RECACT IS SET>,PRTSTA)^
  4745	035447	036 13 0 00 045704
  4746	035450	035 00 0 00 035321 		ERLOOP	T.52		;IF ERROR, LOOP TO T.52
  4747	035451	606 05 0 00 000200 		TRNN	5,RXDONE	;TEST RXDONE BIT
  4748						ERROR	(T.52,13,0,0,TEST.52,<STATIC RCVR FCNS TEST RXDONE IS NOT SET>,PRTSTA)^
  4749	035452	036 13 0 00 045716
  4750	035453	035 00 0 00 035321 		ERLOOP	T.52		;IF ERROR, LOOP TO T.52
  4751	035454	200 03 0 00 041232 		MOVE	3,RXDBUF	;ADDRESS OF RXDBUF REG
  4752	035455	712 05 0 03 000000 		RDIO	5,(3)		;READ THE BUFFER
  4753	035456	606 05 0 00 002000 		TRNN	5,TABORT	;TEST ABORT BIT
  4754						ERROR	(T.52,13,0,0,TEST.52,<STATIC RCVR FCNS TEST TABORT IS NOT SET>,PRTSTA)^
  4755	035457	036 13 0 00 045730
  4756	035460	035 00 0 00 035321 		ERLOOP	T.52		;IF ERROR, LOOP TO T.52
  4757	035461	606 05 0 00 100000 		TRNN	5,RXDERR	;TEST ERROR BIT
  4758						ERROR	(T.52,13,0,0,TEST.52,<STATIC RCVR FCNS TEST RXDERR IS NOT SET>,PRTSTA)^
  4759	035462	036 13 0 00 045742
  4760	035463	035 00 0 00 035321 		ERLOOP	T.52		;IF ERROR, LOOP TO T.52
  4761						NXTTST	(52,53)^
  4762	035464	201 05 0 00 000052 		MOVEI	5,52		;GET CURRENT TEST #
  4763	035465	260 17 0 00 040245 		GO	$NXTST		;GO CHECK SWITCHES
  4764	035466	254 00 0 00 035321 		JRST	T.52		;REPEAT SAME TEST
  4765	035467	201 05 0 00 035472 		MOVEI	5,T.53		;GET NXT TEST #
  4766	035470	202 05 0 00 030051 		MOVEM	5,TESTPC	;SAVE ADRS FOR PC
  4767	035471	254 00 0 00 035472 		JRST	T.53		;GO TO NEXT TEST^
  4768
DSDUA DECSYSTEM 2020 DUP-11 DIAGNOSTIC VERSION 0,2	MACRO %53(1020) 08:16 15-Jun-79 Page 70
DSDUAM	MAC	14-Jun-79 16:28		*STATIC LOGIC TESTS -- .1-.155                                                     SEQ 0149

  4769						XLIST
  4770						LIST
  4771						S^;*********************************************************************^
  4772						COMMENT $
  4773						 TEST.53--*INTERNAL MAINTNANCE MODE /'RXDERR/OVRRUN' (PRIMARY MODE)TEST*
  4774						   THIS TEST INITIALIZES THE UNIBUS ADAPTER REGISTER TO ZEROZ
  4775						INITIALIZES THE TXCSR REGISTER.THE INITIALIZATION ALSO CLEARS
  4776						RXCSR,RXDBUF,AND TXDBUF.'NOCRC IS SET TO INHIBIT THE RECEPTION
  4777						OF A CRC CHARACTER.THE DUP-11 IS PLACED IN INTERNAL MAINTNANCE
  4778						MODE (TXCSR BITS 12-11=1).RCVEN IS SET TO ENABLE THE RECIEVER
  4779						LOGIC.THE INITIAL FLAG IS PUSHED FIRST THEN TWO CHARACTERS
  4780						252,70.RECACT,RXDERR,OVRRUN,ALL ARE TESTED THEY SHOULD BE SET.
  4781						ANY DISCREPANCIES WILL YIELD AN ERROR MESSAGE.
  4782						$
  4783						S^;*********************************************************************^
  4784						XLIST
  4785						LIST
  4786	035472	260 17 0 00 040241 	T.53:	UBACLR			;INIT ADAPTER AND DUP LOGIC
  4787	035473	260 17 0 00 040234 		CSINIT			;PRE TEST INITIALIZATION
  4788	035474	200 03 0 00 041233 		MOVE	3,PARCSR	;ADDRESS OF PARCSR REG
  4789	035475	201 06 0 00 001000 		MOVEI	6,CRCEN		;BIT TO INHIBIT CRC
  4790	035476	713 06 0 03 000000 		WRIO	6,(3)		;SET 'NOCRC'
  4791	035477	200 03 0 00 041230 		MOVE	3,RXCSRL	;ADDRESS OF RXCSR REG
  4792	035500	201 06 0 00 000020 		MOVEI	6,RCVEN		;RECIEVER ENABLE BIT
  4793	035501	713 06 0 03 000000 		WRIO	6,(3)		;SET RECIEVER ENABLE
  4794	035502	200 03 0 00 041235 		MOVE	3,TXCSR		;ADDRESS OF TXCSR REG
  4795	035503	201 06 0 00 014000 		MOVEI	6,MMODE		;MAINT MODE BITS
  4796	035504	476 00 0 00 041017 		SETOM	MMFLG		;SET HELP FLAG
  4797	035505	713 06 0 03 000000 		WRIO	6,(3)		;SET MODE START CLOCK
  4798						RFLG	1		^;PUSH OUT ONE FLAG
  4799	035506	201 12 0 00 000001 		MOVEI	12,^D1		;SETUP FOR (N)FLAGS
  4800	035507	201 16 0 00 000000 	..0065:	MOVEI	16,0		;INIT COUNTER
  4801	035510	201 06 0 00 000004 		MOVEI	6,4		;RCVR BIT WINDOW INPUT BIT
  4802	035511	725 06 1 00 041237 		BCIOB	6,@TXCSRH	;FIRST BIT OF FLAG IS ALWAYS 0
  4803	035512	201 11 0 00 000002 		MOVEI	11,^D2		;CLOCK TICK ARGUMENT
  4804	035513	264 00 0 00 040560 		JSR	DUPCLK		;CALL PKCLK ROUTINE
  4805	035514	724 06 1 00 041237 	..0066:	BSIOB	6,@TXCSRH	;NEXT 6 BITS ARE 1'S
  4806	035515	201 11 0 00 000002 		MOVEI	11,^D2		;CLOCK TICK ARGUMENT
  4807	035516	264 00 0 00 040560 		JSR	DUPCLK		;CALL PKCLK ROUTINE
  4808	035517	271 16 0 00 000001 		ADDI	16,1		;COUNT # OF 1'S
  4809	035520	302 16 0 00 000006 		CAIE	16,6		;DONE 6 ONE YET??
  4810	035521	254 00 0 00 035514 		JRST	..0066		;NO-PUSH OUT ANOTHER 1 BIT
  4811	035522	725 06 1 00 041237 		BCIOB	6,@TXCSRH	;LAST BIT IS 1 ZERO
  4812	035523	201 11 0 00 000002 		MOVEI	11,^D2		;CLOCK TICK ARGUMENT
  4813	035524	264 00 0 00 040560 		JSR	DUPCLK		;CALL PKCLK ROUTINE
  4814	035525	275 12 0 00 000001 		SUBI	12,1		;DECREMENT FLAG COUNT
  4815	035526	326 12 0 00 035507 		JUMPN	12,..0065		;JUMP IF NOT ALL FLAGS DONE
  4816						RPOKE	252,8		^;PUSH OUT A CHARACTER
  4817	035527	201 12 0 00 000252 		MOVEI	12,252		;DATA
  4818	035530	201 16 0 00 000010 		MOVEI	16,^D8		;DECIMAL # OF SHIFTS
  4819	035531	264 00 0 00 040600 		JSR	RCVMT		;GENERATE SERIAL DATA
  4820						RPOKE	70,9		^;PUSH POUT A SECOND CHARACTER
  4821	035532	201 12 0 00 000070 		MOVEI	12,70		;DATA
  4822	035533	201 16 0 00 000011 		MOVEI	16,^D9		;DECIMAL # OF SHIFTS
  4823	035534	264 00 0 00 040600 		JSR	RCVMT		;GENERATE SERIAL DATA
DSDUA DECSYSTEM 2020 DUP-11 DIAGNOSTIC VERSION 0,2	MACRO %53(1020) 08:16 15-Jun-79 Page 71
DSDUAM	MAC	14-Jun-79 16:28		*STATIC LOGIC TESTS -- .1-.155                                                     SEQ 0150

  4824	035535	200 03 0 00 041227 		MOVE	3,RXCSR		;ADDRESS OF RXCSR REG
  4825	035536	712 05 0 03 000000 		RDIO	5,(3)		;READ THE REG
  4826	035537	606 05 0 00 004000 		TRNN	5,RECACT	;TEST RECACT
  4827						ERROR	(T.53,13,0,0,TEST.53,<STATIC RCVR FCNS TEST RECACT IS NOT SET>,PRTSTA)^
  4828	035540	036 13 0 00 045756
  4829	035541	035 00 0 00 035472 		ERLOOP	T.53		;IF ERROR, LOOP TO T.53
  4830	035542	200 03 0 00 041232 		MOVE	3,RXDBUF	;ADDRESS OF RXDBUF REG
  4831	035543	712 05 0 03 000000 		RDIO	5,(3)		;READ THE BUFFER
  4832	035544	606 05 0 00 140000 		TRNN	5,RXDERR!OVRRUN	;TEST THOSE BITS
  4833						ERROR	(T.53,13,0,0,TEST.53,<STATIC RCVR FCNS TEST RXDERR!OVRRUN NOT SET>,PRTSTA)^
  4834
  4835	035545	036 13 0 00 045771
  4836	035546	035 00 0 00 035472 		ERLOOP	T.53		;IF ERROR, LOOP TO T.53
  4837						NXTTST	(53,54)^
  4838	035547	201 05 0 00 000053 		MOVEI	5,53		;GET CURRENT TEST #
  4839	035550	260 17 0 00 040245 		GO	$NXTST		;GO CHECK SWITCHES
  4840	035551	254 00 0 00 035472 		JRST	T.53		;REPEAT SAME TEST
  4841	035552	201 05 0 00 035555 		MOVEI	5,T.54		;GET NXT TEST #
  4842	035553	202 05 0 00 030051 		MOVEM	5,TESTPC	;SAVE ADRS FOR PC
  4843	035554	254 00 0 00 035555 		JRST	T.54		;GO TO NEXT TEST^
  4844
DSDUA DECSYSTEM 2020 DUP-11 DIAGNOSTIC VERSION 0,2	MACRO %53(1020) 08:16 15-Jun-79 Page 72
DSDUAM	MAC	14-Jun-79 16:28		*STATIC LOGIC TESTS -- .1-.155                                                     SEQ 0151

  4845						XLIST
  4846						LIST
  4847						S^;*********************************************************************^
  4848						COMMENT $
  4849						 TEST.54--*INTERNAL MAINTNANCE MODE/'RXDERR//OVRRUN' (SECONDARY MODE) TEST*
  4850							THIS TEST INITIALIZES THE UNIBUS ADAPTER RGISTERS TO
  4851						ZEROS,INITIALIZES TXCSR.THE INITIALIZATION ALSO CLEARS RXCSR,
  4852						RXDBUF,AND TXDBUF.RCVEN BIT IS SET TO ENABLE RECIEVER LOGIC,
  4853						'NOCRC' IS SET TO INHIBIT THE RECEPTION OF A CRC CHARACTER.
  4854						THE DUP-11 IS PLACED IN INTERNAL MAINTNANCE MODE (TXCSR BITS
  4855						12-11=1).
  4856							THE INITIAL FLAGAND 3 CHARACTERS ARE PUSHED.RXDERR,
  4857						OVRRUN ARE TESTED THEY SHOULD BE CLEAR.A NEW FLAG IS PUSHED,
  4858						THEN THE SECONDARY STATION ADDRESS (000),AND TWO CHARACTERS
  4859						252,70.RECACT,RXDERR,OVRRUN ALL ARE TESTED THEY SHOULD BE SET
  4860						ANY DISCREPANCIES WILL YIELD AN ERROR MESSAGE.
  4861						$
  4862						S^;*********************************************************************^
  4863						XLIST
  4864						LIST
  4865
  4866	035555	260 17 0 00 040241 	T.54:	UBACLR			;PRE TEST INITIALIZATION
  4867	035556	260 17 0 00 040234 		CSINIT			;PRE TEST INITIALIZATION
  4868	035557	200 03 0 00 041233 		MOVE	3,PARCSR	;ADDRESS OF PARCSR REG
  4869	035560	201 06 0 00 001000 		MOVEI	6,CRCEN		;BIT TO INHIBIT CRC
  4870	035561	713 06 0 03 000000 		WRIO	6,(3)		;SET 'NOCRC'
  4871	035562	200 03 0 00 041230 		MOVE	3,RXCSRL	;ADDRESS OF RXCSR REG
  4872	035563	201 06 0 00 000020 		MOVEI	6,RCVEN		;RECIEVER ENABLE BIT
  4873	035564	713 06 0 03 000000 		WRIO	6,(3)		;ENABLE RECIEVER
  4874	035565	200 03 0 00 041234 		MOVE	3,PARCSH	;HI BYTE ADDRESS OF PARCSR REG
  4875	035566	201 06 0 00 000020 		MOVEI	6,20		;SEC MODE BIT
  4876	035567	724 06 0 03 000000 		BSIOB	6,(3)		;SEL SEC MODE
  4877	035570	200 03 0 00 041235 		MOVE	3,TXCSR		;ADDRESS OF TXCSR REG
  4878	035571	201 06 0 00 014000 		MOVEI	6,MMODE		;MAINT MODE BITS
  4879	035572	476 00 0 00 041017 		SETOM	MMFLG		;SET HELP FLAG
  4880	035573	714 06 0 03 000000 		BSIO	6,(3)		;SET MODE START CLOCK
  4881						RFLG	1		^;PUSH OUT A FLAG
  4882	035574	201 12 0 00 000001 		MOVEI	12,^D1		;SETUP FOR (N)FLAGS
  4883	035575	201 16 0 00 000000 	..0070:	MOVEI	16,0		;INIT COUNTER
  4884	035576	201 06 0 00 000004 		MOVEI	6,4		;RCVR BIT WINDOW INPUT BIT
  4885	035577	725 06 1 00 041237 		BCIOB	6,@TXCSRH	;FIRST BIT OF FLAG IS ALWAYS 0
  4886	035600	201 11 0 00 000002 		MOVEI	11,^D2		;CLOCK TICK ARGUMENT
  4887	035601	264 00 0 00 040560 		JSR	DUPCLK		;CALL PKCLK ROUTINE
  4888	035602	724 06 1 00 041237 	..0071:	BSIOB	6,@TXCSRH	;NEXT 6 BITS ARE 1'S
  4889	035603	201 11 0 00 000002 		MOVEI	11,^D2		;CLOCK TICK ARGUMENT
  4890	035604	264 00 0 00 040560 		JSR	DUPCLK		;CALL PKCLK ROUTINE
  4891	035605	271 16 0 00 000001 		ADDI	16,1		;COUNT # OF 1'S
  4892	035606	302 16 0 00 000006 		CAIE	16,6		;DONE 6 ONE YET??
  4893	035607	254 00 0 00 035602 		JRST	..0071		;NO-PUSH OUT ANOTHER 1 BIT
  4894	035610	725 06 1 00 041237 		BCIOB	6,@TXCSRH	;LAST BIT IS 1 ZERO
  4895	035611	201 11 0 00 000002 		MOVEI	11,^D2		;CLOCK TICK ARGUMENT
  4896	035612	264 00 0 00 040560 		JSR	DUPCLK		;CALL PKCLK ROUTINE
  4897	035613	275 12 0 00 000001 		SUBI	12,1		;DECREMENT FLAG COUNT
  4898	035614	326 12 0 00 035575 		JUMPN	12,..0070		;JUMP IF NOT ALL FLAGS DONE
  4899
DSDUA DECSYSTEM 2020 DUP-11 DIAGNOSTIC VERSION 0,2	MACRO %53(1020) 08:16 15-Jun-79 Page 73
DSDUAM	MAC	14-Jun-79 16:28		*STATIC LOGIC TESTS -- .1-.155                                                     SEQ 0152

  4900						RPOKE	252,25		^;PUSH OUT 3 CHARACTERS
  4901	035615	201 12 0 00 000252 		MOVEI	12,252		;DATA
  4902	035616	201 16 0 00 000031 		MOVEI	16,^D25		;DECIMAL # OF SHIFTS
  4903	035617	264 00 0 00 040600 		JSR	RCVMT		;GENERATE SERIAL DATA
  4904	035620	200 03 0 00 041232 		MOVE	3,RXDBUF	;ADDRESS OF RXDBUF REG
  4905	035621	712 05 0 03 000000 		RDIO	5,(3)		;READ THE BUFFER
  4906	035622	602 05 0 00 140000 		TRNE	5,OVRRUN!RXDERR	;TEST THOSE BITS
  4907						ERROR	(T.54,13,0,0,TEST.54,<STATIC RCVR FCNS TEST OVRRUN!RXDERR BITS ARE NOT CLEA
  4908					R>,PRTSTA)^
  4909	035623	036 13 0 00 046010
  4910	035624	035 00 0 00 035555 		ERLOOP	T.54		;IF ERROR, LOOP TO T.54
  4911						RFLG	1		^;PUSH OUT A FLAG
  4912	035625	201 12 0 00 000001 		MOVEI	12,^D1		;SETUP FOR (N)FLAGS
  4913	035626	201 16 0 00 000000 	..0073:	MOVEI	16,0		;INIT COUNTER
  4914	035627	201 06 0 00 000004 		MOVEI	6,4		;RCVR BIT WINDOW INPUT BIT
  4915	035630	725 06 1 00 041237 		BCIOB	6,@TXCSRH	;FIRST BIT OF FLAG IS ALWAYS 0
  4916	035631	201 11 0 00 000002 		MOVEI	11,^D2		;CLOCK TICK ARGUMENT
  4917	035632	264 00 0 00 040560 		JSR	DUPCLK		;CALL PKCLK ROUTINE
  4918	035633	724 06 1 00 041237 	..0074:	BSIOB	6,@TXCSRH	;NEXT 6 BITS ARE 1'S
  4919	035634	201 11 0 00 000002 		MOVEI	11,^D2		;CLOCK TICK ARGUMENT
  4920	035635	264 00 0 00 040560 		JSR	DUPCLK		;CALL PKCLK ROUTINE
  4921	035636	271 16 0 00 000001 		ADDI	16,1		;COUNT # OF 1'S
  4922	035637	302 16 0 00 000006 		CAIE	16,6		;DONE 6 ONE YET??
  4923	035640	254 00 0 00 035633 		JRST	..0074		;NO-PUSH OUT ANOTHER 1 BIT
  4924	035641	725 06 1 00 041237 		BCIOB	6,@TXCSRH	;LAST BIT IS 1 ZERO
  4925	035642	201 11 0 00 000002 		MOVEI	11,^D2		;CLOCK TICK ARGUMENT
  4926	035643	264 00 0 00 040560 		JSR	DUPCLK		;CALL PKCLK ROUTINE
  4927	035644	275 12 0 00 000001 		SUBI	12,1		;DECREMENT FLAG COUNT
  4928	035645	326 12 0 00 035626 		JUMPN	12,..0073		;JUMP IF NOT ALL FLAGS DONE
  4929						RPOKE	0,8		^;PUSH VALID SEC ADDRESS
  4930	035646	201 12 0 00 000000 		MOVEI	12,0		;DATA
  4931	035647	201 16 0 00 000010 		MOVEI	16,^D8		;DECIMAL # OF SHIFTS
  4932	035650	264 00 0 00 040600 		JSR	RCVMT		;GENERATE SERIAL DATA
  4933						RPOKE	252,8		^;1'ST CHARACTER
  4934	035651	201 12 0 00 000252 		MOVEI	12,252		;DATA
  4935	035652	201 16 0 00 000010 		MOVEI	16,^D8		;DECIMAL # OF SHIFTS
  4936	035653	264 00 0 00 040600 		JSR	RCVMT		;GENERATE SERIAL DATA
  4937						RPOKE	70,9		^;2'ND CHARACTER
  4938	035654	201 12 0 00 000070 		MOVEI	12,70		;DATA
  4939	035655	201 16 0 00 000011 		MOVEI	16,^D9		;DECIMAL # OF SHIFTS
  4940	035656	264 00 0 00 040600 		JSR	RCVMT		;GENERATE SERIAL DATA
  4941	035657	200 03 0 00 041227 		MOVE	3,RXCSR		;ADDRESS OF RXCSR REG
  4942	035660	712 05 0 03 000000 		RDIO	5,(3)		;READ THE REG
  4943	035661	606 05 0 00 004000 		TRNN	5,RECACT	;TEST RECACT
  4944						ERROR	(T.54,13,0,0,TEST.54,<STATIC RCVR FCNS TEST RECACT IS NOT SET>,PRTSTA)^
  4945	035662	036 13 0 00 046013
  4946	035663	035 00 0 00 035555 		ERLOOP	T.54		;IF ERROR, LOOP TO T.54
  4947	035664	200 03 0 00 041232 		MOVE	3,RXDBUF	;ADDRESS OF RXDBUF REG
  4948	035665	712 05 0 03 000000 		RDIO	5,(3)		;READ THE REG
  4949	035666	606 05 0 00 140000 		TRNN	5,RXDERR!OVRRUN	;TEST THOSE BITS
  4950						ERROR	(T.54,13,0,0,TEST.54,<STATIC RCVR FCNS TEST RXDERR!OVRRUN BITS ARE NOT SET>
  4951					,PRTSTA)^
  4952	035667	036 13 0 00 046027
  4953	035670	035 00 0 00 035555 		ERLOOP	T.54		;IF ERROR, LOOP TO T.54
  4954						NXTTST	(54,55)^
DSDUA DECSYSTEM 2020 DUP-11 DIAGNOSTIC VERSION 0,2	MACRO %53(1020) 08:16 15-Jun-79 Page 73-1
DSDUAM	MAC	14-Jun-79 16:28		*STATIC LOGIC TESTS -- .1-.155                                                     SEQ 0153

  4955	035671	201 05 0 00 000054 		MOVEI	5,54		;GET CURRENT TEST #
  4956	035672	260 17 0 00 040245 		GO	$NXTST		;GO CHECK SWITCHES
  4957	035673	254 00 0 00 035555 		JRST	T.54		;REPEAT SAME TEST
  4958	035674	201 05 0 00 035677 		MOVEI	5,T.55		;GET NXT TEST #
  4959	035675	202 05 0 00 030051 		MOVEM	5,TESTPC	;SAVE ADRS FOR PC
  4960	035676	254 00 0 00 035677 		JRST	T.55		;GO TO NEXT TEST^
  4961
DSDUA DECSYSTEM 2020 DUP-11 DIAGNOSTIC VERSION 0,2	MACRO %53(1020) 08:16 15-Jun-79 Page 74
DSDUAM	MAC	14-Jun-79 16:28		*STATIC LOGIC TESTS -- .1-.155                                                     SEQ 0154

  4962						XLIST
  4963						LIST
  4964						S^;*********************************************************************^
  4965						COMMENT $
  4966						 TEST.55--*INTERNAL MAINT MODE/ 'TXDBUF//RXDBUF' (SPECIFIC DATA PATERNS THRU RECIEV
  4967					ER IN PRIMARY MODE) TEST*
  4968						THIS TEST INITIALIZES THE UNIBUS ADAPTER TO ZEROS,INITIALIZES
  4969						THE TXCSR REG.THE INITIALIZATION ALSO CLEAR RXCSR,RXDBUF ,AND
  4970						TXDBUF.'NOCRC' IS SET TO INHIBIT RECEPTION OF A CRC CHARACTER
  4971						THE DUP-11 IS PLACED IN INTERNAL MAINT MODE.SEND,RCVEN ARE SET.
  4972							TSOM IS SET TO ONE TO START TRANSMISSION OF A FLAG,
  4973						AFTER ATTAINING SYNCHRONIZATION BETWEEN THE DUP-11 AND THE
  4974						PROGRAM.A SERIES OF 16 CLOCK PULSES IS ISSUED AFTER LOADING
  4975						TXDBUF WITH A NEW CHARACTER.RXDBUF IS TESTED EACH TIME,IT
  4976						SHOULD CONTAIN THE CHARACTER PREVIOSLY LOADED INTO TXDBUF.
  4977						ANY DISCREPANCIES WILL YIELD AN ERROR MESSAGE.
  4978						$
  4979						S^;*********************************************************************^
  4980						XLIST
  4981						LIST
  4982
  4983	035677	260 17 0 00 040241 	T.55:	UBACLR			;INIT ADAPTER AND DUP LOGIC
  4984	035700	260 17 0 00 040234 		CSINIT			;PRE TEST INITIALIZATION
  4985	035701	200 03 0 00 041233 		MOVE	3,PARCSR	;ADDRESS OF PARCSR REG
  4986	035702	201 06 0 00 001000 		MOVEI	6,CRCEN		;BIT TO INHIBIT CRC
  4987	035703	713 06 0 03 000000 		WRIO	6,(3)		;SET 'NOCRC'
  4988	035704	200 03 0 00 041235 		MOVE	3,TXCSR
  4989	035705	201 06 0 00 014020 		MOVEI	6,MMODE!SEND	;TRANSMITER AND MAINT MODE BITS
  4990	035706	476 00 0 00 041017 		SETOM	MMFLG		;SET HELP FLAG
  4991	035707	713 06 0 03 000000 		WRIO	6,(3)		;TURN ON THE RECIEVER
  4992									;AND MAINT MODE
  4993	035710	200 03 0 00 041227 		MOVE	3,RXCSR		;ADDRESS OF RXCSR REG
  4994	035711	201 06 0 00 000020 		MOVEI	6,RCVEN		;RECIEVER ENABLE BIT
  4995	035712	713 06 0 03 000000 		WRIO	6,(3)		;SET RECIEVER ENABLE
  4996						CLEAR	TXDBUF		^;RESET TXDONE
  4997	035713	403 01 0 00 000010 		SETZB	1,10
  4998	035714	713 10 1 00 041240 		WRIO	10,@TXDBUF		;LOAD ZEROS INTO SELECTED REG.
  4999	035715	200 03 0 00 041240 		MOVE	3,TXDBUF	;ADDRESS OF TXDBUF REG
  5000	035716	201 06 0 00 000400 		MOVEI	6,TSOM		;START
  5001	035717	713 06 0 03 000000 		WRIO	6,(3)		;A FLAG
  5002						PKCLK	6		^;BEGIN TO SYNC DUP
  5003	035720	201 11 0 00 000006 		MOVEI	11,^D6		;CLOCK TICK ARGUMENT
  5004	035721	264 00 0 00 040560 		JSR	DUPCLK		;CALL PKCLK ROUTINE
DSDUA DECSYSTEM 2020 DUP-11 DIAGNOSTIC VERSION 0,2	MACRO %53(1020) 08:16 15-Jun-79 Page 75
DSDUAM	MAC	14-Jun-79 16:28		*STATIC LOGIC TESTS -- .1-.155                                                     SEQ 0155

  5005	035722	200 03 0 00 041236 	T.55S1:	MOVE	3,TXCSRL	;ADDRESS OF TXCSR REG
  5006	035723	712 05 0 03 000000 		RDIO	5,(3)		;READ IT
  5007	035724	606 05 0 00 000200 		TRNN	5,TXDONE	;TEST DONE BIT
  5008	035725	254 00 0 00 036007 		JRST	T.55S		;CHECK AND GIVE EXTRA CLOCK
  5009	035726	606 05 0 00 001000 		TRNN	5,TXACT		;TEST ACTIVE BIT
  5010	035727	254 00 0 00 036007 		JRST	T.55S		;CHECK AND GIVE EXTRA CLOCK
  5011	035730	201 02 0 00 036027 		MOVEI	2,TBLA		;ADDRESS OF DATA TABLE
  5012	035731	201 04 0 00 000004 		MOVEI	4,4		;# TO DO
  5013	035732	200 05 0 02 000000 		MOVE	5,0(2)		;LOAD THE DATA IN AC5
  5014	035733	202 05 0 00 041225 		MOVEM	5,GDDAT
  5015	035734	271 02 0 00 000001 		ADDI	2,1
  5016	035735	360 04 0 00 000000 		SOJ	4,
  5017	035736	200 03 0 00 041240 		MOVE	3,TXDBUF	;ADDRESS OF BUFFER
  5018	035737	713 05 0 03 000000 		WRIO	5,(3)		;LOAD DATA INTO BUFFER
  5019						PKCLK	18		^;PUSH IT OUT
  5020	035740	201 11 0 00 000022 		MOVEI	11,^D18		;CLOCK TICK ARGUMENT
  5021	035741	264 00 0 00 040560 		JSR	DUPCLK		;CALL PKCLK ROUTINE
  5022	035742	200 05 0 02 000000 	T.55A:	MOVE	5,0(2)
  5023	035743	200 13 0 02 000000 		MOVE	13,0(2)
  5024	035744	200 03 0 00 041240 		MOVE	3,TXDBUF
  5025	035745	713 05 0 03 000000 		WRIO	5,(3)
  5026						PKCLK	16^
  5027	035746	201 11 0 00 000020 		MOVEI	11,^D16		;CLOCK TICK ARGUMENT
  5028	035747	264 00 0 00 040560 		JSR	DUPCLK		;CALL PKCLK ROUTINE
  5029	035750	200 03 0 00 041227 		MOVE	3,RXCSR		;ADDRESS OF RXCSR REG
  5030	035751	712 05 0 03 000000 		RDIO	5,(3)		;READ IT
  5031	035752	606 05 0 00 000200 		TRNN	5,RXDONE	;TEST DONE BIT
  5032						ERROR	(T.55,13,0,0,TEST.55,<STATIC RCVR FCNS TEST RXDONE NOT SET>,PRTSTA)^
  5033	035753	036 13 0 00 046043
  5034	035754	035 00 0 00 035677 		ERLOOP	T.55		;IF ERROR, LOOP TO T.55
  5035	035755	200 03 0 00 041232 		MOVE	3,RXDBUF	;ADDRESS OF BUFFER
  5036	035756	722 05 0 03 000000 		RDIOB	5,(3)		;READ IT
  5037	035757	312 05 0 00 041225 		CAME	5,GDDAT		;TEST CONTENTS
  5038						ERROR	(T.55,13,GDDAT,5,TEST.55,<STATIC RCVR FCNS TXDBUF/RXDBUF R/W>,PRTSTA)^
  5039	035760	036 13 0 00 046054
  5040	035761	035 00 0 00 035677 		ERLOOP	T.55		;IF ERROR, LOOP TO T.55
  5041	035762	202 13 0 00 041225 		MOVEM	13,GDDAT
  5042	035763	271 02 0 00 000001 		ADDI	2,1		;LOAD NEXT DATA ADDRESS
  5043	035764	365 04 0 00 035742 		SOJGE	4,T.55A		;DEC # TO DO-JUMP IF MORE TO GO
  5044						PKCLK	16		^;PUSH LAST CHARACTER
  5045	035765	201 11 0 00 000020 		MOVEI	11,^D16		;CLOCK TICK ARGUMENT
  5046	035766	264 00 0 00 040560 		JSR	DUPCLK		;CALL PKCLK ROUTINE
  5047	035767	200 03 0 00 041227 		MOVE	3,RXCSR		;ADDRESS OF RXCSR REG
  5048	035770	712 05 0 03 000000 		RDIO	5,(3)		;READ IT
  5049	035771	606 05 0 00 000200 		TRNN	5,RXDONE	;TEST DONE
  5050						ERROR	(T.55,13,0,0,TEST.55,<STATIC RCVR FCNS TEST RXDONE IS CLEAR>,PRTSTA)^
  5051	035772	036 13 0 00 046066
  5052	035773	035 00 0 00 035677 		ERLOOP	T.55		;IF ERROR, LOOP TO T.55
  5053	035774	200 03 0 00 041232 		MOVE	3,RXDBUF	;ADDRESS OF RXDBUF
  5054	035775	712 05 0 03 000000 		RDIO	5,(3)		;READ IT
  5055	035776	312 05 0 00 041225 		CAME	5,GDDAT		;TEST	DATA
  5056						ERROR	(T.55,13,GDDAT,5,TEST.55,<STATIC RCVR FCNS TXDBUF/RXDBUF W/R TEST>,PRTSTA)^
  5057
  5058	035777	036 13 0 00 046100
  5059	036000	035 00 0 00 035677 		ERLOOP	T.55		;IF ERROR, LOOP TO T.55
DSDUA DECSYSTEM 2020 DUP-11 DIAGNOSTIC VERSION 0,2	MACRO %53(1020) 08:16 15-Jun-79 Page 75-1
DSDUAM	MAC	14-Jun-79 16:28		*STATIC LOGIC TESTS -- .1-.155                                                     SEQ 0156

  5060						NXTTST	(55,56)^
  5061	036001	201 05 0 00 000055 		MOVEI	5,55		;GET CURRENT TEST #
  5062	036002	260 17 0 00 040245 		GO	$NXTST		;GO CHECK SWITCHES
  5063	036003	254 00 0 00 035677 		JRST	T.55		;REPEAT SAME TEST
  5064	036004	201 05 0 00 036034 		MOVEI	5,T.56		;GET NXT TEST #
  5065	036005	202 05 0 00 030051 		MOVEM	5,TESTPC	;SAVE ADRS FOR PC
  5066	036006	254 00 0 00 036034 		JRST	T.56		;GO TO NEXT TEST^
  5067
  5068	036007	201 00 0 00 041016 	T.55S:	MOVEI	0,XSYNCT	;GET SYNC CLK CNT
  5069	036010	271 00 0 00 000001 		ADDI	0,1		;UPDATE IT
  5070	036011	202 00 0 00 041016 		MOVEM	0,XSYNCT
  5071						PKCLK	2		^;GIVE ONE FULL CLOCK
  5072	036012	201 11 0 00 000002 		MOVEI	11,^D2		;CLOCK TICK ARGUMENT
  5073	036013	264 00 0 00 040560 		JSR	DUPCLK		;CALL PKCLK ROUTINE
  5074	036014	200 00 0 00 041016 		MOVE	0,XSYNCT
  5075	036015	302 00 0 00 000006 		CAIE	0,6		;ALLOW ONLY 6 EXTRA CLOCKS
  5076	036016	254 00 0 00 035722 		JRST	T.55S1		;TRY ANOTHER CLOCK
  5077						ERROR	(T.55,13,0,0,TEST.55,< STATIC XMITTER FCNS TEST-CANT SYNC PROGRAM WITH FLAG
  5078					 CHARACTER>,PRTSTA)^
  5079	036017	036 13 0 00 046116
  5080	036020	035 00 0 00 035677 		ERLOOP	T.55		;IF ERROR, LOOP TO T.55
  5081						NXTTST	(55,56)^
  5082	036021	201 05 0 00 000055 		MOVEI	5,55		;GET CURRENT TEST #
  5083	036022	260 17 0 00 040245 		GO	$NXTST		;GO CHECK SWITCHES
  5084	036023	254 00 0 00 035677 		JRST	T.55		;REPEAT SAME TEST
  5085	036024	201 05 0 00 036034 		MOVEI	5,T.56		;GET NXT TEST #
  5086	036025	202 05 0 00 030051 		MOVEM	5,TESTPC	;SAVE ADRS FOR PC
  5087	036026	254 00 0 00 036034 		JRST	T.56		;GO TO NEXT TEST^
  5088
  5089	036027	000000	000125		TBLA:	125
  5090	036030	000000	000252			252
  5091	036031	000000	000000			000
  5092	036032	000000	000377			377
  5093	036033	000000	000000			000
  5094
DSDUA DECSYSTEM 2020 DUP-11 DIAGNOSTIC VERSION 0,2	MACRO %53(1020) 08:16 15-Jun-79 Page 76
DSDUAM	MAC	14-Jun-79 16:28		*STATIC LOGIC TESTS -- .1-.155                                                     SEQ 0157

  5095						XLIST
  5096						LIST
  5097						S^;*********************************************************************^
  5098						COMMENT $
  5099						 TEST.56--*SYSTEM TEST MODE(VERIFY THAT THE DEVICE WILL WORK
  5100						WITH ALL POSSIBLE SECONDARY STATION ADDRESSES)TEST*
  5101							THIS TEST INITIALIZES THE UNIBUS ADAPTER TO ZEROS,
  5102						INITIALIZES THE TXCSR REG.THE INITIALIZATION ALSO CLEARS
  5103						RXCSR,RXDBUF,ANDTXDBUF.'NOCRC' IS SET TO INHIBIT THE RECEPTION
  5104						OF A CRC CHARACTER.THE DUP-11 IS PLACED IN SYSTEM TEST MODE
  5105						SEND,RCVEN BOTH ARE SET.SEL SEC MODE IS SET.
  5106							TSOM IS SET TO START A FLAG,TXDBUF IS LOADED WITH SEC
  5107						STATION ADDRESS.WHEN TXDONE IS DETECTED TSOM IS TURNED OFF
  5108						A '252' CHARACTER IS LOADED INTO THE TRANSMITTER BUFFER.
  5109						WHEN RECIEVER DONE IS DETECTED ,RXDBUF IS CHEKED,RSOM SHOULD
  5110						BE SET AND '252' SHOULD BE IN THE RECIEVER.THE SEC ADDRESS IS
  5111						INCREMENTED ,THE NEW ADDRESS IS SELECTED FOR THE SECONDARY
  5112						STATION AND LOOPED BACK TO THE SAME PROCEDURE.THE DEVICE SHUOLD
  5113						WORK WITH ALL THE POSSIBLE ADDRESSES SELECTED.ANY DISCREPANCIES
  5114						WILL YIELD AN ERROR PRINTOUT.
  5115						$
  5116						S^;*********************************************************************^
  5117						XLIST
  5118						LIST
  5119
  5120	036034	260 17 0 00 040241 	T.56:	UBACLR			;INIT ADAPTER AND DUP LOGIC
  5121	036035	260 17 0 00 040234 		CSINIT			;PRE TEST INITIALIZATION
  5122	036036	402 00 0 00 041001 		SETZM	TEMP0		;INIT TEMP STORAGE
  5123	036037	400 04 0 00 000000 		SETZ	4,		;INIT SEC ADD HOLD
  5124	036040	200 03 0 00 041233 		MOVE	3,PARCSR	;ADDRESS OF PARCSR REG
  5125	036041	201 06 0 00 011000 		MOVEI	6,PRISEC!CRCEN	;SEC MODE AND 'NOCRC' BITS
  5126	036042	713 06 0 03 000000 		WRIO	6,(3)
  5127	036043	200 13 0 00 041227 	T.56A:	MOVE	13,RXCSR		;ADDRESS OF RXCSR REG
  5128	036044	200 12 0 00 041232 		MOVE	12,RXDBUF	;ADDRESS OF RXDBUF
  5129	036045	201 06 0 00 000020 		MOVEI	6,RCVEN		;RECIEVER ENABLE BIT
  5130	036046	713 06 0 13 000000 		WRIO	6,(13)
  5131	036047	200 03 0 00 041235 		MOVE	3,TXCSR		;ADDRESS OF TXCSR REG
  5132	036050	201 06 0 00 004020 		MOVEI	6,MMODEA!SEND	;TURN ON TRANSMITTER
  5133	036051	402 00 0 00 041017 		SETZM	MMFLG		;CLEAR HELP FLAG
  5134	036052	713 06 0 03 000000 		WRIO	6,(3)		; AND CLOCK
  5135	036053	201 05 0 00 000200 		MOVEI	5,TXDONE
  5136	036054	711 05 0 03 000000 		TION	5,(3)
  5137	036055	254 00 0 00 036054 		JRST	.-1
  5138	036056	200 03 0 00 041240 		MOVE	3,TXDBUF	;ADDRESS OF BUFFER
  5139	036057	201 06 0 00 000400 		MOVEI	6,TSOM		;START OF MESSAGE
  5140	036060	713 06 0 03 000000 		WRIO	6,(3)
  5141	036061	200 03 0 00 041235 		MOVE	3,TXCSR
  5142	036062	711 05 0 03 000000 		TION	5,(3)
  5143	036063	254 00 0 00 036062 		JRST	.-1
  5144	036064	200 06 0 00 041001 		MOVE	6,TEMP0		;GET SEC ADD
  5145	036065	200 03 0 00 041240 		MOVE	3,TXDBUF	;ADDRESS OF TXDBUF
  5146	036066	713 06 0 03 000000 		WRIO	6,(3)		;LOAD ADDRESSS
  5147	036067	200 03 0 00 041235 		MOVE	3,TXCSR		;ADDRESS OF TXCSR REG
  5148	036070	711 05 0 03 000000 		TION	5,(3)
  5149	036071	254 00 0 00 036070 		JRST	.-1
DSDUA DECSYSTEM 2020 DUP-11 DIAGNOSTIC VERSION 0,2	MACRO %53(1020) 08:16 15-Jun-79 Page 76-1
DSDUAM	MAC	14-Jun-79 16:28		*STATIC LOGIC TESTS -- .1-.155                                                     SEQ 0158

  5150	036072	201 06 0 00 000252 		MOVEI	6,252		;GET DATA
  5151	036073	200 03 0 00 041240 		MOVE	3,TXDBUF	;ADDRESS OF BUFFER
  5152	036074	713 06 0 03 000000 		WRIO	6,(3)		;LOAD DATA
  5153	036075	202 06 0 00 041225 		MOVEM	6,GDDAT
  5154	036076	201 06 0 00 004000 		MOVEI	6,TIMER
  5155	036077	710 06 0 03 000000 		TIOE	6,(3)
  5156	036100	254 00 0 00 036077 		JRST	.-1
  5157	036101	711 06 0 03 000000 		TION	6,(3)
  5158	036102	254 00 0 00 036101 		JRST	.-1
  5159	036103	711 05 0 13 000000 		TION	5,(13)		;TEST RXDONE
  5160	036104	254 00 0 00 036103 		JRST	.-1
  5161	036105	712 07 0 12 000000 		RDIO	7,(12)		;READ RXDBUF
  5162	036106	712 06 0 13 000000 		RDIO	6,(13)
  5163	036107	602 06 0 00 100000 		TRNE	6,DSCA
  5164						ERROR	(T.56,13,0,0,TEST.56,<STATIC RCVR FCNS TEST DSCA IS SET>,PRTSTA)^
  5165	036110	036 13 0 00 046131
  5166	036111	035 00 0 00 036034 		ERLOOP	T.56		;IF ERROR, LOOP TO T.56
  5167	036112	626 07 0 00 000400 		TRZN	7,RSOM
  5168						ERROR	(T.56,13,0,0,TEST.56,<STATIC RCVR FCNS TEST RSOM IS CLEAR>,PRTSTA)^
  5169	036113	036 13 0 00 046142
  5170	036114	035 00 0 00 036034 		ERLOOP	T.56		;IF ERROR, LOOP TO T.56
  5171	036115	312 07 0 00 041225 		CAME	7,GDDAT		;CHECK DATA
  5172						ERROR	(T.56,13,GDDAT,7,TEST.56,<STATIC RCVR FCNS DATA RECIEVED ERROR>,PRTSTA)^
  5173	036116	036 13 0 00 046154
  5174	036117	035 00 0 00 036034 		ERLOOP	T.56		;IF ERROR, LOOP TO T.56
  5175	036120	260 17 0 00 040234 		CSINIT			;RESET THE DEVICE
  5176
  5177	036121	271 04 0 00 000001 		ADDI	4,1		;INC SEC ADDR
  5178	036122	501 04 0 00 000000 		HLLI	4,0		;CLEAR EXTRA BITS
  5179	036123	306 04 0 00 000277 		CAIN	4,277
  5180	036124	254 00 0 00 036133 		JRST	OUT
  5181	036125	202 04 0 00 041001 		MOVEM	4,TEMP0		;GET IT
  5182	036126	201 06 0 00 011000 		MOVEI	6,PRISEC!CRCEN	;
  5183	036127	270 06 0 00 041001 		ADD	6,TEMP0		;AND SEC ADDRESS
  5184	036130	200 03 0 00 041233 		MOVE	3,PARCSR	;ADDRESS OF PARCSR REG
  5185	036131	713 06 0 03 000000 		WRIO	6,(3)		;LOAD IT
  5186	036132	254 00 0 00 036043 		JRST	T.56A		;AND LOOP BACK
DSDUA DECSYSTEM 2020 DUP-11 DIAGNOSTIC VERSION 0,2	MACRO %53(1020) 08:16 15-Jun-79 Page 77
DSDUAM	MAC	14-Jun-79 16:28		*STATIC LOGIC TESTS -- .1-.155                                                     SEQ 0159

  5187	036133				OUT:	NXTTST	(56,57)^
  5188	036133	201 05 0 00 000056 		MOVEI	5,56		;GET CURRENT TEST #
  5189	036134	260 17 0 00 040245 		GO	$NXTST		;GO CHECK SWITCHES
  5190	036135	254 00 0 00 036034 		JRST	T.56		;REPEAT SAME TEST
  5191	036136	201 05 0 00 036141 		MOVEI	5,T.57		;GET NXT TEST #
  5192	036137	202 05 0 00 030051 		MOVEM	5,TESTPC	;SAVE ADRS FOR PC
  5193	036140	254 00 0 00 036141 		JRST	T.57		;GO TO NEXT TEST^
  5194
DSDUA DECSYSTEM 2020 DUP-11 DIAGNOSTIC VERSION 0,2	MACRO %53(1020) 08:16 15-Jun-79 Page 78
DSDUAM	MAC	14-Jun-79 16:28		*STATIC LOGIC TESTS -- .1-.155                                                     SEQ 0160

  5195						XLIST
  5196						LIST
  5197						S^;*********************************************************************^
  5198						COMMENT $
  5199						 TEST.57--*INTERNAL MAINTNANCE MODE(TEST OF THE BCC OPERATION USING CRC.CCITT FOR T
  5200					HE POLYNOMIAL)TEST*
  5201							THIS TEST IS RUN IN INTERNAL MAINT MODE ,IT TESTS A
  5202						CERTAIN DATA PATERN FROM TABLB THROUGH THE RECIEVER.AT EACH
  5203						TIME A DATA IS TRANSMITTED INTO THE RECIEVER BUFFER,THE
  5204						PROGRAM CALLS A SUBROUTINE WHICH CALCULATES A SOFTWARE BCC
  5205						"SBCC".CHECKING WITH THE HRDWR BCC WILL YIELD AN ERROR PRINOUT
  5206						IF THERE IS NO MATCH.(THIS TEST WILL LOOP ON DATA IF RELIAB IS
  5207						SET SW=400 RH).
  5208						$
  5209						S^;*********************************************************************^
  5210						XLIST
  5211						LIST
  5212
  5213	036141	201 13 0 00 034247 	T.57:	MOVEI	13,TABLB	;GET TABLE POINTER
  5214	036142	201 12 0 00 000004 		MOVEI	12,4		;GET # TO DO
  5215	036143	402 00 0 00 041225 		SETZM	GDDAT		;CLEAR DATA STORAGE
  5216	036144	260 17 0 00 040241 		UBACLR			;PRE TEST INITIALIZATION
  5217	036145	260 17 0 00 040267 	T.57A:	GO	SBCC		;GO CALCULATE BCC
  5218	036146	260 17 0 00 040234 		CSINIT			;INITIALIZE ALL REG'S
  5219	036147	476 00 0 00 041017 		SETOM	MMFLG		;SET HELP FLAG
  5220	036150	201 06 0 00 014000 		MOVEI	6,MMODE		;MAINT MODE BITS
  5221	036151	714 06 1 00 041235 		BSIO	6,@TXCSR	;SET MODE START CLOCK
  5222	036152	201 06 0 00 000020 		MOVEI	6,RCVEN		;RECIEVER ENABLE BIT
  5223	036153	714 06 1 00 041227 		BSIO	6,@RXCSR	;SET RECIEVER ENABLE
  5224	036154	201 06 0 00 000020 		MOVEI	6,SEND		;SEND BIT
  5225	036155	714 06 1 00 041235 		BSIO	6,@TXCSR	;SET THE BIT
  5226	036156	201 06 0 00 000400 		MOVEI	6,TSOM		;START OF MESSAGE BIT
  5227	036157	714 06 1 00 041240 		BSIO	6,@TXDBUF	;START A FLAG
  5228						PKCLK	8		^;PUSH OUT 4 BITS
  5229	036160	201 11 0 00 000010 		MOVEI	11,^D8		;CLOCK TICK ARGUMENT
  5230	036161	264 00 0 00 040560 		JSR	DUPCLK		;CALL PKCLK ROUTINE
  5231	036162	201 06 0 00 000200 		MOVEI	6,TXDONE	;DONE BIT
  5232	036163	711 06 1 00 041235 		TION	6,@TXCSR	;TEST THE BIT
  5233						ERROR	(T.57,13,0,0,TEST.57,<STATIC RCVR FCNS TXDONE NOT SET>,PRTSTA)^
  5234	036164	036 13 0 00 046167
  5235	036165	035 00 0 00 036141 		ERLOOP	T.57		;IF ERROR, LOOP TO T.57
  5236	036166	200 06 1 00 000013 		MOVE	6,@13		;GET DATA
  5237	036167	202 06 0 00 041225 		MOVEM	6,GDDAT		;STORE CORRECT DATA
  5238	036170	713 06 1 00 041240 		WRIO	6,@TXDBUF	;LOAD DATA
  5239						PKCLK	16		^;PUSH IT OUT
  5240	036171	201 11 0 00 000020 		MOVEI	11,^D16		;CLOCK TICK ARGUMENT
  5241	036172	264 00 0 00 040560 		JSR	DUPCLK		;CALL PKCLK ROUTINE
  5242	036173	201 06 0 00 001000 		MOVEI	6,TEOM		;END OF MESSAGE BIT
  5243	036174	714 06 1 00 041240 		BSIO	6,@TXDBUF	;SET THE BIT
  5244						PKCLK	16		^;PUSH OUT 8 MORE BITS
  5245	036175	201 11 0 00 000020 		MOVEI	11,^D16		;CLOCK TICK ARGUMENT
  5246	036176	264 00 0 00 040560 		JSR	DUPCLK		;CALL PKCLK ROUTINE
  5247
  5248	036177	201 06 0 00 000200 		MOVEI	6,RXDONE	;DONE BIT
  5249	036200	711 06 1 00 041227 		TION	6,@RXCSR	;TEST THE BIT
DSDUA DECSYSTEM 2020 DUP-11 DIAGNOSTIC VERSION 0,2	MACRO %53(1020) 08:16 15-Jun-79 Page 78-1
DSDUAM	MAC	14-Jun-79 16:28		*STATIC LOGIC TESTS -- .1-.155                                                     SEQ 0161

  5250						ERROR	(T.57,13,0,0,TEST.57,<STATIC RCVR FCNS RXDONE NIT SET>,PRTSTA)^
  5251	036201	036 13 0 00 046200
  5252	036202	035 00 0 00 036141 		ERLOOP	T.57		;IF ERROR, LOOP TO T.57
  5253	036203	722 06 1 00 041232 		RDIOB	6,@RXDBUF	;GET DATA FROM BUFFER
  5254	036204	312 06 0 00 041225 		CAME	6,GDDAT		;COMPARE DATA
  5255						ERROR	(T.57,13,GDDAT,6,TEST.57,<STATIC RCVR FCNS RXDBUF DATA READ ERROR>,PRTSTA)^
  5256
  5257	036205	036 13 0 00 046212
  5258	036206	035 00 0 00 036141 		ERLOOP	T.57		;IF ERROR, LOOP TO T.57
  5259						PKCLK	16		^;PUSH OUT 8 MORE BITS
  5260	036207	201 11 0 00 000020 		MOVEI	11,^D16		;CLOCK TICK ARGUMENT
  5261	036210	264 00 0 00 040560 		JSR	DUPCLK		;CALL PKCLK ROUTINE
  5262	036211	201 06 0 00 000200 		MOVEI	6,RXDONE	;DONE BIT
  5263	036212	711 06 1 00 041227 		TION	6,@RXCSR	;TEST THE BIT
  5264						ERROR	(T.57,13,0,0,TEST.57,<STATIC RCVR FCNS RXDONE NOT SET>,PRTSTA)^
  5265	036213	036 13 0 00 046223
  5266	036214	035 00 0 00 036141 		ERLOOP	T.57		;IF ERROR, LOOP TO T.57
  5267	036215	722 06 1 00 041232 		RDIOB	6,@RXDBUF	;READ LOW BYTE
  5268	036216	202 06 0 00 041006 		MOVEM	6,TEMP16	;STORE IT
  5269						PKCLK	26		^;FINISH POKING BITS
  5270	036217	201 11 0 00 000032 		MOVEI	11,^D26		;CLOCK TICK ARGUMENT
  5271	036220	264 00 0 00 040560 		JSR	DUPCLK		;CALL PKCLK ROUTINE
  5272	036221	201 06 0 00 000200 		MOVEI	6,RXDONE	;DONE BIT
  5273	036222	711 06 1 00 041227 		TION	6,@RXCSR	;TEST THE BIT
  5274						ERROR	(T.57,13,0,0,TEST.57,<STATIC RCVR FCNS RXDONE NOT SET>,PRTSTA)^
  5275	036223	036 13 0 00 046223
  5276	036224	035 00 0 00 036141 		ERLOOP	T.57		;IF ERROR, LOOP TO T.57
  5277	036225	722 06 1 00 041232 		RDIOB	6,@RXDBUF	;READ THE BYTE
  5278	036226	241 06 0 00 000010 		ROT	6,10		;MOVE BYTE 8 BITS
  5279	036227	436 06 0 00 041006 		ORM	6,TEMP16	;ADD IT TO LOW BYTE
  5280	036230	200 06 0 00 034253 		MOVE	6,CALBCC	;GET IT
  5281	036231	312 06 0 00 041006 		CAME	6,TEMP16	;COMPARE IT CHECK THE DIFFFERENCE
  5282						ERROR	(T.57,13,6,TEMP16,TEST.57,<STATIC BCC FCNS BCC COMPARE ERROR>,PRTSTA)^
  5283	036232	036 13 0 00 046234
  5284	036233	035 00 0 00 036141 		ERLOOP	T.57		;IF ERROR, LOOP TO T.57
  5285	036234	037 10 0 00 000002 		SWITCH
  5286	036235	602 00 0 00 000400 		TRNE	0,RELIAB	;RELIB ?
  5287	036236	254 00 0 00 036145 		JRST	T.57A		;YES,LOOP ON SAME DATA
  5288	036237	271 13 0 00 000001 		ADDI	13,1		;INCREMENT DATA ADDRESS
  5289	036240	367 12 0 00 036145 		SOJG	12,T.57A	;CHECK TO SEE ALL DONE YET?
  5290						NXTTST	(57,60)^
  5291	036241	201 05 0 00 000057 		MOVEI	5,57		;GET CURRENT TEST #
  5292	036242	260 17 0 00 040245 		GO	$NXTST		;GO CHECK SWITCHES
  5293	036243	254 00 0 00 036141 		JRST	T.57		;REPEAT SAME TEST
  5294	036244	201 05 0 00 036247 		MOVEI	5,T.60		;GET NXT TEST #
  5295	036245	202 05 0 00 030051 		MOVEM	5,TESTPC	;SAVE ADRS FOR PC
  5296	036246	254 00 0 00 036247 		JRST	T.60		;GO TO NEXT TEST^
  5297
DSDUA DECSYSTEM 2020 DUP-11 DIAGNOSTIC VERSION 0,2	MACRO %53(1020) 08:16 15-Jun-79 Page 79
DSDUAM	MAC	14-Jun-79 16:28		*STATIC LOGIC TESTS -- .1-.155                                                     SEQ 0162

  5298						XLIST
  5299						LIST
  5300						S^;*********************************************************************^
  5301						COMMENT $
  5302						 TEST.60--*INTERNAL MAINT MODE (IDLE STATE) TEST*
  5303							THIS INITIALIZES THE DUP-11 REG'S AND UNIBUS ADAPTER
  5304						REG'S TO ZEROS.THE DUP-11 IS PLACED IN INTERNAL MAINT MODE,
  5305						CRCEN IS SET TO INHIBIT RECEPTION OF A CRC CHARACTER.
  5306						TEOM & TSOM ARE SET TOGETHER IN TXDBUF TO START THE SPECIAL
  5307						SEQUENCED MESSAGE. THE DUP-11 SHUOLD PUSH OUT 16 NULL BITS
  5308						BEFOR THE FLAG.A CHARACTER IS LOADED INTO TRANSMITTER BUFFER
  5309						AND READ BACK FROM THE RECIEVER.CHECKED WITH INITIAL CHARACTER
  5310						FROM TRANSMITTER "125" IT SHOULD MATCH.CLOCKS ARE ISSUED TO
  5311						THE DUP-11 TO GENERATE THE REQUIRED SEQUENCE.ANY DISCREPANCIES
  5312						WILL YIELD AN ERROR MESSAGE.
  5313						$
  5314						S^;*********************************************************************^
  5315						XLIST
  5316						LIST
  5317
  5318	036247	260 17 0 00 040241 	T.60:	UBACLR			;CLEAR ADAPTER AND DUP LOGIC
  5319	036250	260 17 0 00 040234 		CSINIT			;PRE TEST INITIALIZATION
  5320	036251	403 04 0 00 000007 		SETZB	4,7		;INIT
  5321						CLEAR	TXDBUF		^;CLEAR TRANSMITTER BUFFER
  5322	036252	403 01 0 00 000010 		SETZB	1,10
  5323	036253	713 10 1 00 041240 		WRIO	10,@TXDBUF		;LOAD ZEROS INTO SELECTED REG.
  5324	036254	476 00 0 00 041017 		SETOM	MMFLG		;SET HELP FLAG
  5325	036255	201 06 0 00 014020 		MOVEI	6,MMODE!SEND	;MAINT MODE AND SEND BITS
  5326	036256	714 06 1 00 041235 		BSIO	6,@TXCSR	;SET MODE START CLOCK
  5327	036257	201 06 0 00 001000 		MOVEI	6,CRCEN		;BIT TO INHIBIT CRC
  5328	036260	714 06 1 00 041233 		BSIO	6,@PARCSR	;SET 'NOCRC'
  5329	036261	201 06 0 00 000020 		MOVEI	6,RCVEN		;RECIEVER ENABLE BIT
  5330	036262	714 06 1 00 041227 		BSIO	6,@RXCSR	;SET THE BIT
  5331	036263	201 06 0 00 001400 		MOVEI	6,TEOM!TSOM	;START
  5332	036264	714 06 1 00 041240 		BSIO	6,@TXDBUF	;SPECIAL SEQUENCE
  5333						PKCLK	2		^;SYNC UP DUP
  5334	036265	201 11 0 00 000002 		MOVEI	11,^D2		;CLOCK TICK ARGUMENT
  5335	036266	264 00 0 00 040560 		JSR	DUPCLK		;CALL PKCLK ROUTINE
  5336	036267	271 07 0 00 000001 	T.60A:	ADDI	7,1		;UPDATE COUNT
  5337	036270	306 07 0 00 000021 		CAIN	7,21		;CHECK FOR FINISH
  5338	036271	254 00 0 00 036301 		JRST	T.60B		;BRANCH IF YES
  5339						PKCLK	2		^;POKE THE CLOCK
  5340	036272	201 11 0 00 000002 		MOVEI	11,^D2		;CLOCK TICK ARGUMENT
  5341	036273	264 00 0 00 040560 		JSR	DUPCLK		;CALL PKCLK ROUTINE
  5342	036274	201 06 0 00 040000 		MOVEI	6,MTDATA
  5343	036275	710 06 1 00 041235 		TIOE	6,@TXCSR
  5344						ERROR	(T.60,13,0,0,TEST.60A,<STATIC RCVR FCNS MTDATA IS 1 SHOULD BE 0>,PRTSTA)^
  5345	036276	036 13 0 00 046250
  5346	036277	035 00 0 00 036247 		ERLOOP	T.60		;IF ERROR, LOOP TO T.60
  5347	036300	254 00 0 00 036267 		JRST	T.60A		;IT SHOULD BE ZERO
  5348	036301				T.60B:	PKCLK	2		^;POKE CLOCK
  5349	036301	201 11 0 00 000002 		MOVEI	11,^D2		;CLOCK TICK ARGUMENT
  5350	036302	264 00 0 00 040560 		JSR	DUPCLK		;CALL PKCLK ROUTINE
  5351	036303	710 06 1 00 041235 		TIOE	6,@TXCSR
  5352						ERROR	(T.60,13,0,0,TEST.60C,<STATIC RCVR FCNS MTDATA WAS 1 SHOULD BE 0>,PRTSTA)^
DSDUA DECSYSTEM 2020 DUP-11 DIAGNOSTIC VERSION 0,2	MACRO %53(1020) 08:16 15-Jun-79 Page 79-1
DSDUAM	MAC	14-Jun-79 16:28		*STATIC LOGIC TESTS -- .1-.155                                                     SEQ 0163

  5353
  5354	036304	036 13 0 00 046264
  5355	036305	035 00 0 00 036247 		ERLOOP	T.60		;IF ERROR, LOOP TO T.60
  5356	036306	201 06 0 00 000125 		MOVEI	6,125		;GET DATA
  5357	036307	713 06 1 00 041240 		WRIO	6,@TXDBUF	;LOAD IT
  5358	036310				T.60D:	PKCLK	2		^;POKE CLOCK
  5359	036310	201 11 0 00 000002 		MOVEI	11,^D2		;CLOCK TICK ARGUMENT
  5360	036311	264 00 0 00 040560 		JSR	DUPCLK		;CALL PKCLK ROUTINE
  5361	036312	201 06 0 00 040000 		MOVEI	6,MTDATA	;MTDATA BIT
  5362	036313	711 06 1 00 041235 		TION	6,@TXCSR	;TEST THE BIT
  5363						ERROR	(T.60,13,0,0,TEST.60E,<STATIC RCVR FCNS MTDATA IS 0 SHOULD BE ONE>,PRTSTA)^
  5364
  5365	036314	036 13 0 00 046301
  5366	036315	035 00 0 00 036247 		ERLOOP	T.60		;IF ERROR, LOOP TO T.60
  5367	036316	271 04 0 00 000001 		ADDI	4,1		;ICREMENT FOR FINISH
  5368	036317	302 04 0 00 000006 		CAIE	4,6		;CHECK IT
  5369	036320	254 00 0 00 036310 		JRST	T.60D		;BRANCH IF MORE TO GO
  5370						PKCLK	2		^;POKE THE CLOCK
  5371	036321	201 11 0 00 000002 		MOVEI	11,^D2		;CLOCK TICK ARGUMENT
  5372	036322	264 00 0 00 040560 		JSR	DUPCLK		;CALL PKCLK ROUTINE
  5373	036323	710 06 1 00 041235 		TIOE	6,@TXCSR	;CHECK MTDATA
  5374						ERROR	(T.60,13,0,0,TEST.60F,<STATIC RCVR FCNS MTDATA IS 1 SHOULD BE 0>,PRTSTA)^
  5375	036324	036 13 0 00 046306
  5376	036325	035 00 0 00 036247 		ERLOOP	T.60		;IF ERROR, LOOP TO T.60
  5377						PKCLK	6		^;START OUT DATA CHARACTER
  5378	036326	201 11 0 00 000006 		MOVEI	11,^D6		;CLOCK TICK ARGUMENT
  5379	036327	264 00 0 00 040560 		JSR	DUPCLK		;CALL PKCLK ROUTINE
  5380	036330	201 06 0 00 001000 		MOVEI	6,TXACT		;TRANS ACTIVE BIT
  5381	036331	714 06 1 00 041235 		BSIO	6,@TXCSR	;SET THE BIT
  5382						PKCLK	14		^;FINISH
  5383	036332	201 11 0 00 000016 		MOVEI	11,^D14		;CLOCK TICK ARGUMENT
  5384	036333	264 00 0 00 040560 		JSR	DUPCLK		;CALL PKCLK ROUTINE
  5385	036334	201 06 0 00 000200 		MOVEI	6,RXDONE	;DONE BIT
  5386	036335	711 06 1 00 041227 		TION	6,@RXCSR	;TEST THE BIT
  5387						ERROR	(T.60,13,0,0,TEST.60,<STATIC RCVR FCNS RXDONE IS NOT SET>,PRTSTA)^
  5388	036336	036 13 0 00 046321
  5389	036337	035 00 0 00 036247 		ERLOOP	T.60		;IF ERROR, LOOP TO T.60
  5390	036340	201 06 0 00 000125 		MOVEI	6,125		;GET CORRECT DATA
  5391	036341	722 05 1 00 041232 		RDIOB	5,@RXDBUF	;TEST DATA
  5392	036342	312 05 0 00 000006 		CAME	5,6
  5393						ERROR	(T.60,13,6,5,TEST.60,<STATIC RCVR FCNS DATA COMPARE ERROR>,PRTSTA)^
  5394	036343	036 13 0 00 046332
  5395	036344	035 00 0 00 036247 		ERLOOP	T.60		;IF ERROR, LOOP TO T.60
  5396						NXTTST	(60,61)^
  5397	036345	201 05 0 00 000060 		MOVEI	5,60		;GET CURRENT TEST #
  5398	036346	260 17 0 00 040245 		GO	$NXTST		;GO CHECK SWITCHES
  5399	036347	254 00 0 00 036247 		JRST	T.60		;REPEAT SAME TEST
  5400	036350	201 05 0 00 036353 		MOVEI	5,T.61		;GET NXT TEST #
  5401	036351	202 05 0 00 030051 		MOVEM	5,TESTPC	;SAVE ADRS FOR PC
  5402	036352	254 00 0 00 036353 		JRST	T.61		;GO TO NEXT TEST^
  5403
DSDUA DECSYSTEM 2020 DUP-11 DIAGNOSTIC VERSION 0,2	MACRO %53(1020) 08:16 15-Jun-79 Page 80
DSDUAM	MAC	14-Jun-79 16:28		*STATIC LOGIC TESTS -- .1-.155                                                     SEQ 0164

  5404						XLIST
  5405						LIST
  5406						S^;*********************************************************************^
  5407						COMMENT $
  5408						 TEST.61--*EXTERNAL MAINT MODE 'DTR//DSR!RING' TEST*
  5409							THIS TEST INITIALIZES THE UNIBUS ADAPTER STATUS REG'S
  5410						AND THE DUP-11 REG'S TO ZERPS.MEXT (BIT 12 IN TXCSR)IS SET TO
  5411						START THE FREE RUNING CLOCK FOR SYSTEST MODE.THIS TEST PROVES
  5412						THE INTERACTION OF DTR WITH RING,DSR,DSCA,AND DSCB.WE SET THE
  5413						BIT (DTR)AND VERIFY THAT THE OTHER BITS WILL SET.CLEAR THE BIT
  5414						AND VERIFY THE OTHER BITS WILL CLEAR.ANY DISCREPANCIES IN THE
  5415						VERIFICATION WILL YIELD AN ERROR PRINTOUT.
  5416						$
  5417						S^;*********************************************************************^
  5418						XLIST
  5419						LIST
  5420
  5421	036353	201 00 0 00 046335 	T.61:	MOVEI	0,[ASCIZ/STARTING *SYSTEM & EXTERNAL MAINTNANCE* TESTING/]
  5422	036354	037 17 0 00 000000 		PNTAL
  5423	036355	037 01 0 00 030242 		PCRLF
  5424	036356	260 17 0 00 040241 	Z.61:	UBACLR			;CLEAR ADAPTER AND UNIBUS LOGIC
  5425	036357	201 13 0 00 141003 		MOVEI	13,141003	;GET TABLE POINTER
  5426	036360	260 17 0 00 040234 		CSINIT			;PRE TEST INITIALIZATION
  5427						CLEAR	RXCSR		^
  5428	036361	403 01 0 00 000010 		SETZB	1,10
  5429	036362	713 10 1 00 041227 		WRIO	10,@RXCSR		;LOAD ZEROS INTO SELECTED REG.
  5430	036363	402 00 0 00 041017 		SETZM	MMFLG		;CLEAR HELP FLAG
  5431	036364	201 06 0 00 010000 		MOVEI	6,MEXT		;SET SYSTEM EXTERNAL
  5432	036365	714 06 1 00 041235 		BSIO	6,@TXCSR		;TEST MODE
  5433
  5434	036366	201 06 0 00 000002 		MOVEI	6,DTR		;GET DTR BIT
  5435	036367	201 07 0 00 000110 		MOVEI	7,110		;SET # TO DO
  5436	036370	201 05 0 00 004000 		MOVEI	5,TIMER		;TIMER BIT
  5437	036371	714 06 1 00 041227 		BSIO	6,@RXCSR	;SET DTR
  5438	036372	710 05 1 00 041240 	T.61A1:	TIOE	5,@TXDBUF	;CHECK TIMER & LOOP
  5439	036373	254 00 0 00 036372 		JRST	.-1		;IF SET
  5440	036374	711 05 1 00 041240 		TION	5,@TXDBUF	;CHECK TIMER & LOOP
  5441	036375	254 00 0 00 036374 		JRST	.-1		;IF CLEAR
  5442	036376	367 07 0 00 036372 		SOJG	7,T.61A1	;DEC # TO DO & LOOP
  5443	036377	712 02 1 00 041227 		RDIO	2,@RXCSR	;READ RXCSR
  5444	036400	312 02 0 00 000013 		CAME	2,13		;COMPARE
  5445						ERROR	(T.61,13,13,2,TEST.61,<STATIC RCVR FCNS RXCSR REG ERROR>,PRTSTA)^
  5446	036401	036 13 0 00 046357
  5447	036402	035 00 0 00 036353 		ERLOOP	T.61		;IF ERROR, LOOP TO T.61
  5448	036403	316 02 0 00 000013 		CAMN	2,13		;COMPARE
  5449	036404	254 00 0 00 036413 		JRST	T.61B
  5450	036405	201 07 0 00 000005 		MOVEI	7,5		;GET # TO DO
  5451	036406	710 05 1 00 041240 	T.61A3:	TIOE	5,@TXDBUF	;CHECK TIMER & LOOP
  5452	036407	254 00 0 00 036406 		JRST	.-1		;IF SET
  5453	036410	711 05 1 00 041240 		TION	5,@TXDBUF	;CHECK TIMER & LOOP
  5454	036411	254 00 0 00 036410 		JRST	.-1		;IF CLEAR
  5455	036412	367 07 0 00 036406 		SOJG	7,T.61A3	;DEC # TO DO & LOOP
  5456	036413	430 13 0 00 046362 	T.61B:	XOR	13,[DTR!DSR!RING]	;CLEAR THE IN DATA
  5457						CLEAR	RXCSR^
  5458	036414	403 01 0 00 000010 		SETZB	1,10
DSDUA DECSYSTEM 2020 DUP-11 DIAGNOSTIC VERSION 0,2	MACRO %53(1020) 08:16 15-Jun-79 Page 80-1
DSDUAM	MAC	14-Jun-79 16:28		*STATIC LOGIC TESTS -- .1-.155                                                     SEQ 0165

  5459	036415	713 10 1 00 041227 		WRIO	10,@RXCSR		;LOAD ZEROS INTO SELECTED REG.
  5460	036416	201 07 0 00 000005 		MOVEI	7,5		;GET # TO DO
DSDUA DECSYSTEM 2020 DUP-11 DIAGNOSTIC VERSION 0,2	MACRO %53(1020) 08:16 15-Jun-79 Page 81
DSDUAM	MAC	14-Jun-79 16:28		*STATIC LOGIC TESTS -- .1-.155                                                     SEQ 0166

  5461	036417	710 05 1 00 041240 	T.61B2:	TIOE	5,@TXDBUF	;CHECK TIMER & LOOP
  5462	036420	254 00 0 00 036417 		JRST	.-1		;IF SET
  5463	036421	711 05 1 00 041240 		TION	5,@TXDBUF	;CHECK TIMER & LOOP
  5464	036422	254 00 0 00 036421 		JRST	.-1		;IF CLEAR
  5465	036423	367 07 0 00 036417 		SOJG	7,T.61B2	;DEC # TO DO & LOOP
  5466	036424	712 02 1 00 041227 		RDIO	2,@RXCSR	;READ RXCSR
  5467	036425	312 13 0 00 000002 		CAME	13,2
  5468						ERROR	(T.61,13,13,2,TEST.61,<STATIC RCVR FCNS RXCSR REG ERROR>,PRTSTA)^
  5469	036426	036 13 0 00 046357
  5470	036427	035 00 0 00 036353 		ERLOOP	T.61		;IF ERROR, LOOP TO T.61
  5471	036430	201 06 0 00 000002 		MOVEI	6,DTR		;GET DTR BIT
  5472	036431	201 07 0 00 000005 		MOVEI	7,5
  5473	036432	714 06 1 00 041227 		BSIO	6,@RXCSR	;SET DTR
  5474	036433	710 05 1 00 041240 	T.61C2:	TIOE	5,@TXDBUF	;CHECK TIMER & LOOP
  5475	036434	254 00 0 00 036433 		JRST	.-1		;IF SET
  5476	036435	711 05 1 00 041240 		TION	5,@TXDBUF	;CHECK TIMER & LOOP
  5477	036436	254 00 0 00 036435 		JRST	.-1		;IF CLEAR
  5478	036437	367 07 0 00 036433 		SOJG	7,T.61C2	;DEC # TO DO & LOOP
  5479	036440	400 13 0 00 000000 		SETZ	13,		;CLEAR DATA
  5480						CLEAR	RXCSR^
  5481	036441	403 01 0 00 000010 		SETZB	1,10
  5482	036442	713 10 1 00 041227 		WRIO	10,@RXCSR		;LOAD ZEROS INTO SELECTED REG.
  5483	036443	260 17 0 00 040234 		CSINIT			;REINITIALIZE REG'S
  5484	036444	201 02 0 00 010000 		MOVEI	2,MEXT		;ENTER EXTERNAL
  5485	036445	201 07 0 00 000005 		MOVEI	7,5		;GET # TO DO
  5486	036446	200 10 0 00 046363 		MOVE	10,[DSCA!DSCB]	;GET DSC BITS
  5487	036447	714 02 1 00 041235 		BSIO	2,@TXCSR	;MAINT MODE
  5488	036450	710 05 1 00 041240 	T.61D:	TIOE	5,@TXDBUF	;CHECK TIMER & LOOP
  5489	036451	254 00 0 00 036450 		JRST	.-1		;IF SET
  5490	036452	711 05 1 00 041240 		TION	5,@TXDBUF	;CHECK TIMER & LOOP
  5491	036453	254 00 0 00 036452 		JRST	.-1		;IF CLEAR
  5492	036454	367 07 0 00 036450 		SOJG	7,T.61D		;DEC # TO DO & LOOP
  5493	036455	715 10 1 00 041227 		BCIO	10,@RXCSR	;CLEAR THOSE BITS
  5494	036456	712 02 1 00 041227 		RDIO	2,@RXCSR	;READ RXCSR
  5495	036457	332 00 0 00 000002 		SKIPE	2		;TEST IT
  5496						ERROR	(T.61,13,13,2,TEST.61,<STATIC RCVR FCNS RXCSR REG ERROR>,PRTSTA)^
  5497	036460	036 13 0 00 046357
  5498	036461	035 00 0 00 036353 		ERLOOP	T.61		;IF ERROR, LOOP TO T.61
  5499						NXTTST	(61,62)^
  5500	036462	201 05 0 00 000061 		MOVEI	5,61		;GET CURRENT TEST #
  5501	036463	260 17 0 00 040245 		GO	$NXTST		;GO CHECK SWITCHES
  5502	036464	254 00 0 00 036353 		JRST	T.61		;REPEAT SAME TEST
  5503	036465	201 05 0 00 036470 		MOVEI	5,T.62		;GET NXT TEST #
  5504	036466	202 05 0 00 030051 		MOVEM	5,TESTPC	;SAVE ADRS FOR PC
  5505	036467	254 00 0 00 036470 		JRST	T.62		;GO TO NEXT TEST^
  5506
DSDUA DECSYSTEM 2020 DUP-11 DIAGNOSTIC VERSION 0,2	MACRO %53(1020) 08:16 15-Jun-79 Page 82
DSDUAM	MAC	14-Jun-79 16:28		*STATIC LOGIC TESTS -- .1-.155                                                     SEQ 0167

  5507						XLIST
  5508						LIST
  5509						S^;*********************************************************************^
  5510						COMMENT $
  5511						 TEST.62--*EXTERNAL MAINT MODE 'RTS//CTS!CARDET' TEST*
  5512							THIS TEST INITIALIZES THE UNIBUS ADAPTER STATUS REG'S
  5513						AND THE DUP-11 REG'S TO ZEROS.THE DUP-11 IS PLACED IN EXTERNAL
  5514						MAINT MODE (BIT12=1 IN TXCSR)TO START THE FREE RUNNING CLOCK.
  5515						THIS TEST PROVES THE INTERACTION OF RTS WITH CTS,CARDET,DSCA,
  5516						AND DSCB.WE SET THE BIT (RTS) AND VERIFY THAT THE OTHER BITS
  5517						WILL SET,CLEAR THE BIT AND VERIFY THE OTHER BITS WILL CLEAR.
  5518						ANY DISCREPANCIES IN THE VERIFICATION WILL YIELD AN ERROR
  5519						PRINTOUT.
  5520						$
  5521						S^;*********************************************************************^
  5522						XLIST
  5523						LIST
  5524
  5525	036470	260 17 0 00 040241 	T.62:	UBACLR			;INIT ADAPTER AND DUP LOGIC
  5526	036471	201 13 0 00 130005 		MOVEI	13,DSCA!CTS!CARDET!RTS!DSCB
  5527	036472	260 17 0 00 040234 		CSINIT			;PRE TEST INITIALIZATION
  5528						CLEAR	RXCSR		^
  5529	036473	403 01 0 00 000010 		SETZB	1,10
  5530	036474	713 10 1 00 041227 		WRIO	10,@RXCSR		;LOAD ZEROS INTO SELECTED REG.
  5531	036475	402 00 0 00 041017 		SETZM	MMFLG		;CLEAR HELP FLAG
  5532	036476	201 06 0 00 010000 		MOVEI	6,MEXT		;SET EXTERNAL
  5533	036477	200 10 0 00 000110 		MOVE	10,110
  5534	036500	201 05 0 00 000004 		MOVEI	5,RTS
  5535	036501	714 06 1 00 041235 		BSIO	6,@TXCSR	;MAINT MODE
  5536	036502	714 05 1 00 041227 		BSIO	5,@RXCSR	;SET THE BIT
  5537	036503	201 06 0 00 004000 		MOVEI	6,TIMER		;GET TIMER BIT
  5538	036504	710 06 1 00 041240 	T.62A1:	TIOE	6,@TXDBUF	;CHECK TIMER & LOOP
  5539	036505	254 00 0 00 036504 		JRST	.-1		;IF SET
  5540	036506	711 06 1 00 041240 		TION	6,@TXDBUF	;CHECK TIMER LOOP
  5541	036507	254 00 0 00 036506 		JRST	.-1		;IF CLEAR
  5542	036510	367 10 0 00 036504 		SOJG	10,T.62A1	;DEC # TO DO & LOOP
  5543	036511	712 02 1 00 041227 		RDIO	2,@RXCSR	;READ RXCSR
  5544	036512	312 02 0 00 000013 		CAME	2,13		;SKIP IF ALL BITS GOT SET
  5545						ERROR	(T.62,13,13,2,TEST.62,<STATIC RCVR FCNS RXCSR REG ERROR>,PRTSTA)^
  5546	036513	036 13 0 00 046366
  5547	036514	035 00 0 00 036470 		ERLOOP	T.62		;IF ERROR, LOOP TO T.62
  5548	036515	316 02 0 00 000013 		CAMN	2,13		;SKIP IF THERE WAS AN ERROR
  5549	036516	254 00 0 00 036525 		JRST	T.62B		;JUMP AROUND
  5550	036517	201 07 0 00 000005 		MOVEI	7,5		;GET # TO DO
  5551	036520	710 06 1 00 041240 	T.62A3:	TIOE	6,@TXDBUF	;CHECK TIMER & LOOP
  5552	036521	254 00 0 00 036520 		JRST	.-1		;IF SET
  5553	036522	711 06 1 00 041240 		TION	6,@TXDBUF	;CHECK TIMER & LOOP
  5554	036523	254 00 0 00 036522 		JRST	.-1		;IF CLEAR
  5555	036524	367 07 0 00 036520 		SOJG	7,T.62A3	;DEC # TO DO & LOOP
  5556	036525	620 13 0 00 030004 	T.62B:	TRZ	13,CTS!CARDET!RTS	;CLEAR THOSE DATA BITS
  5557						CLEAR	RXCSR^
  5558	036526	403 01 0 00 000010 		SETZB	1,10
  5559	036527	713 10 1 00 041227 		WRIO	10,@RXCSR		;LOAD ZEROS INTO SELECTED REG.
  5560	036530	201 07 0 00 000005 		MOVEI	7,5		;GET # TO DO
DSDUA DECSYSTEM 2020 DUP-11 DIAGNOSTIC VERSION 0,2	MACRO %53(1020) 08:16 15-Jun-79 Page 83
DSDUAM	MAC	14-Jun-79 16:28		*STATIC LOGIC TESTS -- .1-.155                                                     SEQ 0168

  5561	036531	710 06 1 00 041240 	T.62B2:	TIOE	6,@TXDBUF	;CHECK TIMER & LOOP
  5562	036532	254 00 0 00 036531 		JRST	.-1		;IF SET
  5563	036533	711 06 1 00 041240 		TION	6,@TXDBUF	;CHECK TIMER & LOOP
  5564	036534	254 00 0 00 036533 		JRST	.-1		;IF CLEAR
  5565	036535	367 07 0 00 036531 		SOJG	7,T.62B2	;DEC # TO DO & LOOP
  5566	036536	712 02 1 00 041227 		RDIO	2,@RXCSR	;READ RXCSR
  5567	036537	312 02 0 00 000013 		CAME	2,13		;SKIP IF BITS OKAY
  5568						ERROR	(T.62,13,13,2,TEST.62,<STATIC RCVR FCNS RXCSR REG ERROR>,PRTSTA)^
  5569	036540	036 13 0 00 046366
  5570	036541	035 00 0 00 036470 		ERLOOP	T.62		;IF ERROR, LOOP TO T.62
  5571	036542	201 07 0 00 000005 		MOVEI	7,5		;GET # TO DO
  5572	036543	201 05 0 00 000004 		MOVEI	5,RTS
  5573	036544	714 05 1 00 041227 		BSIO	5,@RXCSR
  5574	036545	710 06 1 00 041240 	T.62C1:	TIOE	6,@TXDBUF	;CHECK TIMER & LOOP
  5575	036546	254 00 0 00 036545 		JRST	.-1		;IF SET
  5576	036547	711 06 1 00 041240 		TION	6,@TXDBUF	;CHECK TIMER & LOOP
  5577	036550	254 00 0 00 036547 		JRST	.-1		;IF CLEAR
  5578	036551	367 07 0 00 036545 		SOJG	7,T.62C1	;DEC # TO DO & LOOP
  5579	036552	400 13 0 00 000000 		SETZ	13,		;CLEAR	DATA
  5580						CLEAR	RXCSR		^
  5581	036553	403 01 0 00 000010 		SETZB	1,10
  5582	036554	713 10 1 00 041227 		WRIO	10,@RXCSR		;LOAD ZEROS INTO SELECTED REG.
  5583	036555	260 17 0 00 040234 		CSINIT			;REINITIALIZE
  5584	036556	201 06 0 00 004000 		MOVEI	6,TIMER
  5585	036557	201 02 0 00 010000 		MOVEI	2,MEXT		;SET EXTERNAL
  5586	036560	201 07 0 00 000005 		MOVEI	7,5		;GET # TO DO
  5587	036561	714 02 1 00 041235 		BSIO	2,@TXCSR	;MAINT MODE
  5588	036562	710 06 1 00 041240 	T.62C2:	TIOE	6,@TXDBUF	;TEST TIMER & LOOP
  5589	036563	254 00 0 00 036562 		JRST	.-1		;IF SET
  5590	036564	711 06 1 00 041240 		TION	6,@TXDBUF	;TEST TIMER & LOOP
  5591	036565	254 00 0 00 036564 		JRST	.-1		;IF CLEAR
  5592	036566	367 07 0 00 036562 		SOJG	7,T.62C2	;DEC # TO DO & LOOP
  5593	036567	200 02 0 00 046363 		MOVE	2,[DSCA!DSCB]	;CLEAR THOSE BITS
  5594	036570	715 02 1 00 041227 		BCIO	2,@RXCSR	;IN RXCSR
  5595	036571	712 02 1 00 041227 		RDIO	2,@RXCSR	;READ RXCSR
  5596	036572	332 00 0 00 000002 		SKIPE	2		;SKIP IF ALL BITS CLEARED OKAY
  5597						ERROR	(T.62,13,13,2,TEST.62,<STATIC RCVR FCNS RXCSR REG ERROR>,PRTSTA)^
  5598	036573	036 13 0 00 046366
  5599	036574	035 00 0 00 036470 		ERLOOP	T.62		;IF ERROR, LOOP TO T.62
  5600						NXTTST	(62,63)^
  5601	036575	201 05 0 00 000062 		MOVEI	5,62		;GET CURRENT TEST #
  5602	036576	260 17 0 00 040245 		GO	$NXTST		;GO CHECK SWITCHES
  5603	036577	254 00 0 00 036470 		JRST	T.62		;REPEAT SAME TEST
  5604	036600	201 05 0 00 036603 		MOVEI	5,T.63		;GET NXT TEST #
  5605	036601	202 05 0 00 030051 		MOVEM	5,TESTPC	;SAVE ADRS FOR PC
  5606	036602	254 00 0 00 036603 		JRST	T.63		;GO TO NEXT TEST^
  5607
DSDUA DECSYSTEM 2020 DUP-11 DIAGNOSTIC VERSION 0,2	MACRO %53(1020) 08:16 15-Jun-79 Page 84
DSDUAM	MAC	14-Jun-79 16:28		*STATIC LOGIC TESTS -- .1-.155                                                     SEQ 0169

  5608						XLIST
  5609						LIST
  5610						S^;*********************************************************************^
  5611						COMMENT $
  5612						 TEST.63--*EXTERNAL MAINT MODE 'STD//SRD' TEST*
  5613							THIS TEST INITIALIZES THE UNIBUS ADAPTER STATUS REG'S
  5614						AND THE DUP-11 REG'S TO ZEROS.IT VERIFIES THE INTERACTION
  5615						OF STD WITH SRD,DSCA,AND DSCB.WE SET THE BIT AND VERIFY THE
  5616						OTHER BITS WILL SET .CLEAR THE BIT AND VERIFY THE OTHER BITS
  5617						WILL CLEAR .ANY DISCREPANCIES IN THE VERIFICATION WILL AN ERROR
  5618						PRINTOUT.
  5619						$
  5620						S^;*********************************************************************^
  5621						XLIST
  5622						LIST
  5623	036603	260 17 0 00 040241 	T.63:	UBACLR			;INIT ADAPTER AND DUP LOGIC
  5624	036604	201 13 0 00 002011 		MOVEI	13,2011		;GET CORRECT DATA
  5625	036605	260 17 0 00 040234 		CSINIT			;PRE TEST INITIALIZATION
  5626						CLEAR	RXCSR		^
  5627	036606	403 01 0 00 000010 		SETZB	1,10
  5628	036607	713 10 1 00 041227 		WRIO	10,@RXCSR		;LOAD ZEROS INTO SELECTED REG.
  5629	036610	201 10 0 00 000110 		MOVEI	10,110		;GET # TO DO
  5630	036611	201 05 0 00 000010 		MOVEI	5,STD		;GET SEC TRANS DATA BIT
  5631	036612	402 00 0 00 041017 		SETZM	MMFLG		;CLEZR HELP FLAG
  5632	036613	201 06 0 00 010000 		MOVEI	6,MEXT		;SET EXTERNAL
  5633	036614	714 06 1 00 041235 		BSIO	6,@TXCSR	;MAINT MODE
  5634	036615	714 05 1 00 041227 		BSIO	5,@RXCSR	;SET STD BIT
  5635	036616	201 06 0 00 004000 		MOVEI	6,TIMER		;GET TIMER BIT
  5636	036617	710 06 1 00 041240 	T.63A:	TIOE	6,@TXDBUF	;CHECK TIMER & LOOP
  5637	036620	254 00 0 00 036617 		JRST	.-1		;IF SET
  5638	036621	711 06 1 00 041240 		TION	6,@TXDBUF	;CHECK TIMER & LOOP
  5639	036622	254 00 0 00 036621 		JRST	.-1		;IF CLEAR
  5640	036623	367 10 0 00 036617 		SOJG	10,T.63A	;DEC # TO DO & LOOP
  5641	036624	712 02 1 00 041227 		RDIO	2,@RXCSR	;READ IT &
  5642	036625	312 02 0 00 000013 		CAME	2,13		;SKIP IF BITS ARE OKAY
  5643						ERROR	(T.63,13,13,2,TEST.63,<STATIC RCVR FCNS RXCSR REG ERROR>,PRTSTA)^
  5644	036626	036 13 0 00 046373
  5645	036627	035 00 0 00 036603 		ERLOOP	T.63		;IF ERROR, LOOP TO T.63
  5646	036630	316 02 0 00 000013 		CAMN	2,13		;SKIP IF WE HAD ERROR
  5647	036631	254 00 0 00 036640 		JRST	T.63B		;CONTINUE
  5648	036632	201 07 0 00 000005 		MOVEI	7,5		;GET # TO DO
  5649	036633	710 06 1 00 041240 	T.63A2:	TIOE	6,@TXDBUF	;CHECK TIMER & LOOP
  5650	036634	254 00 0 00 036633 		JRST	.-1		;IF SET
  5651	036635	711 06 1 00 041240 		TION	6,@TXDBUF	;CHECK TIMER & LOOP
  5652	036636	254 00 0 00 036635 		JRST	.-1		;IF CLEAR
  5653	036637	367 07 0 00 036633 		SOJG	7,T.63A2	;DEC # TO DO & LOOP
  5654	036640	620 13 0 00 002010 	T.63B:	TRZ	13,STD!SRD	;CLEAR THOSE BITS IN DATA
  5655						CLEAR	RXCSR^
  5656	036641	403 01 0 00 000010 		SETZB	1,10
  5657	036642	713 10 1 00 041227 		WRIO	10,@RXCSR		;LOAD ZEROS INTO SELECTED REG.
  5658	036643	201 07 0 00 000005 		MOVEI	7,5		;GET # TO DO
DSDUA DECSYSTEM 2020 DUP-11 DIAGNOSTIC VERSION 0,2	MACRO %53(1020) 08:16 15-Jun-79 Page 85
DSDUAM	MAC	14-Jun-79 16:28		*STATIC LOGIC TESTS -- .1-.155                                                     SEQ 0170

  5659	036644	710 06 1 00 041240 	T.63B1:	TIOE	6,@TXDBUF	;CHECK TIMER & LOOP
  5660	036645	254 00 0 00 036644 		JRST	.-1		;IF SET
  5661	036646	711 06 1 00 041240 		TION	6,@TXDBUF	;CHECK TIMER & LOOP
  5662	036647	254 00 0 00 036646 		JRST	.-1		;IF CLEAR
  5663	036650	367 07 0 00 036644 		SOJG	7,T.63B1	;DEC # TO DO & LOOP
  5664	036651	712 02 1 00 041227 		RDIO	2,@RXCSR	;READ IT &
  5665	036652	312 02 0 00 000013 		CAME	2,13		;SKIP IF BITS ARE OKAY
  5666						ERROR	(T.63,13,13,2,TEST.63,<STATIC RCVR FCNS RXCSR REG ERROR>,PRTSTA)^
  5667	036653	036 13 0 00 046373
  5668	036654	035 00 0 00 036603 		ERLOOP	T.63		;IF ERROR, LOOP TO T.63
  5669	036655	201 07 0 00 000005 		MOVEI	7,5		;GET # TO DO
  5670	036656	201 05 0 00 000010 		MOVEI	5,STD		;GET STD BIT
  5671	036657	714 05 1 00 041227 		BSIO	5,@RXCSR	;SET THE BIT
  5672	036660	710 06 1 00 041240 	T.63C1:	TIOE	6,@TXDBUF	;CHECK TIMER & LOOP
  5673	036661	254 00 0 00 036660 		JRST	.-1		;IF SET
  5674	036662	711 06 1 00 041240 		TION	6,@TXDBUF	;CHECK TIMER & LOOP
  5675	036663	254 00 0 00 036662 		JRST	.-1		;IF CLEAR
  5676	036664	367 07 0 00 036660 		SOJG	7,T.63C1	;DEC # TO DO & LOOP
  5677	036665	400 13 0 00 000000 		SETZ	13,		;CLEAR GOOD DATA
  5678						CLEAR	RXCSR	^
  5679	036666	403 01 0 00 000010 		SETZB	1,10
  5680	036667	713 10 1 00 041227 		WRIO	10,@RXCSR		;LOAD ZEROS INTO SELECTED REG.
  5681	036670	260 17 0 00 040234 		CSINIT			;REINITIALIZE
  5682	036671	201 06 0 00 004000 		MOVEI	6,TIMER		;GET TIMER BIT
  5683	036672	201 02 0 00 010000 		MOVEI	2,MEXT		;GET EXTER MAINT BIT
  5684	036673	201 07 0 00 000005 		MOVEI	7,5		;GET # TO DO
  5685	036674	714 02 1 00 041235 		BSIO	2,@TXCSR	;SET THE MODE
  5686	036675	710 06 1 00 041240 	T.63C2:	TIOE	6,@TXDBUF	;CHECK TIMER & LOOP
  5687	036676	254 00 0 00 036675 		JRST	.-1		;IF SET
  5688	036677	711 06 1 00 041240 		TION	6,@TXDBUF	;CHECK TIMER & LOOP
  5689	036700	254 00 0 00 036677 		JRST	.-1		;IF CLEAR
  5690	036701	367 07 0 00 036675 		SOJG	7,T.63C2	;DEC # TO DO & LOOP
  5691	036702	200 02 0 00 046363 		MOVE	2,[DSCA!DSCB]	;GET DSC BITS
  5692	036703	715 02 1 00 041227 		BCIO	2,@RXCSR	;CLEAR THOSE BITS
  5693	036704	712 02 1 00 041227 		RDIO	2,@RXCSR	;READ THE REG
  5694	036705	332 00 0 00 000002 		SKIPE	2		;SKIP IF ALL BITS CLEARED OKAY
  5695						ERROR	(T.63,13,13,2,TEST.63,<STATIC RCVR FCNS RXCSR REG ERROR>,PRTSTA)^
  5696	036706	036 13 0 00 046373
  5697	036707	035 00 0 00 036603 		ERLOOP	T.63		;IF ERROR, LOOP TO T.63
  5698						NXTTST	(63,64)^
  5699	036710	201 05 0 00 000063 		MOVEI	5,63		;GET CURRENT TEST #
  5700	036711	260 17 0 00 040245 		GO	$NXTST		;GO CHECK SWITCHES
  5701	036712	254 00 0 00 036603 		JRST	T.63		;REPEAT SAME TEST
  5702	036713	201 05 0 00 036716 		MOVEI	5,T.64		;GET NXT TEST #
  5703	036714	202 05 0 00 030051 		MOVEM	5,TESTPC	;SAVE ADRS FOR PC
  5704	036715	254 00 0 00 036716 		JRST	T.64		;GO TO NEXT TEST^
  5705
DSDUA DECSYSTEM 2020 DUP-11 DIAGNOSTIC VERSION 0,2	MACRO %53(1020) 08:16 15-Jun-79 Page 86
DSDUAM	MAC	14-Jun-79 16:28		*STATIC LOGIC TESTS -- .1-.155                                                     SEQ 0171

  5706						XLIST
  5707						LIST
  5708						S^;*********************************************************************^
  5709						COMMENT $
  5710						 TEST.64--*EXTERNAL MAINT MODE (RXCSR) TEST*
  5711							THIS TEST INITIALIZES THE UNIBUS ADAPTER STATUS REG'S,
  5712						AND THE DUP-11 REG'S TO ZEROS.BIT 12 IN TXCSR IS SET TO START
  5713						EXTERNAL MAINT MODE AND THE FREE RUNING CLOCK.THIS TEST VERIFIES
  5714						THE INTERACTION OF DTR,RTS,ANDSTD WITH RING,DSR,CTS,CARDET,STD,
  5715						AND SRD.WE SET THE BITS AND VERIFY THE OTHERS WILL SET.CLEAR THE
  5716						BITS AND VERIFY THE OTHERS WILL CLEAR.ANY DISCREPANCIES IN
  5717						THE VERIFICATION WILL YIELD AN ERROR PRINTOUT.
  5718						$
  5719						S^;*********************************************************************^
  5720						XLIST
  5721						LIST
  5722
  5723	036716	260 17 0 00 040241 	T.64:	UBACLR			;CLEAR UNIBUS ADAPTER & DUP LOGIG
  5724	036717	201 13 0 00 173017 		MOVEI	13,173017	;STORE GOOD DATA
  5725	036720	260 17 0 00 040234 		CSINIT			;PRE TEST INITIALIZATION
  5726						CLEAR	RXCSR	^
  5727	036721	403 01 0 00 000010 		SETZB	1,10
  5728	036722	713 10 1 00 041227 		WRIO	10,@RXCSR		;LOAD ZEROS INTO SELECTED REG.
  5729	036723	201 10 0 00 000110 		MOVEI	10,110		;GET # TO DO
  5730	036724	201 05 0 00 000016 		MOVEI	5,DTR!RTS!STD	;GET THOSE BITS
  5731	036725	402 00 0 00 041017 		SETZM	MMFLG		;CLEAR HELP FLAG
  5732	036726	201 06 0 00 010000 		MOVEI	6,MEXT		;SET EXTERNAL
  5733	036727	714 06 1 00 041235 		BSIO	6,@TXCSR	;MAINT MODE
  5734	036730	714 05 1 00 041227 		BSIO	5,@RXCSR	;THOSE BITS TOO
  5735	036731	201 06 0 00 004000 		MOVEI	6,TIMER		;GET TIMER BIT
  5736	036732	710 06 1 00 041240 	T.64A:	TIOE	6,@TXDBUF	;CHECK TIMER & LOOP
  5737	036733	254 00 0 00 036732 		JRST	.-1		;IF SET
  5738	036734	711 06 1 00 041240 		TION	6,@TXDBUF	;CHECK TIMER & LOOP
  5739	036735	254 00 0 00 036734 		JRST	.-1		;IF CLEAR
  5740	036736	367 10 0 00 036732 		SOJG	10,T.64A	;DEC # TO DO & LOOP
  5741	036737	712 02 1 00 041227 		RDIO	2,@RXCSR	;READ THE REG
  5742	036740	312 02 0 00 000013 		CAME	2,13		;SKIP IF BITS ARE OKAY
  5743						ERROR	(T.64,13,13,2,TEST.64,<STATIC RCVR FCNS RXCSR REG ERROR>,PRTSTA)^
  5744	036741	036 13 0 00 046400
  5745	036742	035 00 0 00 036716 		ERLOOP	T.64		;IF ERROR, LOOP TO T.64
  5746	036743	316 02 0 00 000013 		CAMN	2,13		;SKIP IF WE HAD AN ERROR
  5747	036744	254 00 0 00 036753 		JRST	T.64B		;CONTINUE
  5748	036745	201 07 0 00 000005 		MOVEI	7,5		;GET # TO DO
  5749	036746	710 06 1 00 041240 	T.64A2:	TIOE	6,@TXDBUF	;CHECK	TIMER & LOOP
  5750	036747	254 00 0 00 036746 		JRST	.-1		;IF SET
  5751	036750	711 06 1 00 041240 		TION	6,@TXDBUF	;CHECK TIMER & LOOP
  5752	036751	254 00 0 00 036750 		JRST	.-1		;IF CLEAR
  5753	036752	367 07 0 00 036746 		SOJG	7,T.64A2	;DEC # TO DO & LOOP
  5754	036753	620 13 0 00 073016 	T.64B:	TRZ	13,RING!CTS!CARDET!SRD!DSR!STD!RTS!DTR	;CLEAR IN DATA
  5755						CLEAR	RXCSR	^
  5756	036754	403 01 0 00 000010 		SETZB	1,10
  5757	036755	713 10 1 00 041227 		WRIO	10,@RXCSR		;LOAD ZEROS INTO SELECTED REG.
  5758	036756	201 07 0 00 000005 		MOVEI	7,5		;GET # TO DO
DSDUA DECSYSTEM 2020 DUP-11 DIAGNOSTIC VERSION 0,2	MACRO %53(1020) 08:16 15-Jun-79 Page 87
DSDUAM	MAC	14-Jun-79 16:28		*STATIC LOGIC TESTS -- .1-.155                                                     SEQ 0172

  5759	036757	710 06 1 00 041240 	T.64B1:	TIOE	6,@TXDBUF	;CHECK TIMER & LOOP
  5760	036760	254 00 0 00 036757 		JRST	.-1		;IF SET
  5761	036761	711 06 1 00 041240 		TION	6,@TXDBUF	;CHECK TIMER & LOOP
  5762	036762	254 00 0 00 036761 		JRST	.-1		;IF CLEAR
  5763	036763	367 07 0 00 036757 		SOJG	7,T.64B1	;DEC # TO DO & LOOP
  5764	036764	712 02 1 00 041227 		RDIO	2,@RXCSR	;READ THE REG
  5765	036765	312 02 0 00 000013 		CAME	2,13		;SKIP IF BITS ARE OKAY
  5766						ERROR	(T.64,13,13,2,TEST.64,<STATIC RCVR FCNS RXCSR REG ERROR>,PRTSTA)^
  5767	036766	036 13 0 00 046400
  5768	036767	035 00 0 00 036716 		ERLOOP	T.64		;IF ERROR, LOOP TO T.64
  5769	036770	201 07 0 00 000005 		MOVEI	7,5		;GET # TO DO
  5770	036771	201 05 0 00 000016 		MOVEI	5,DTR!RTS!STD	;GET THOSE BITS
  5771	036772	714 05 1 00 041227 		BSIO	5,@RXCSR	;SET THEM
  5772	036773	710 06 1 00 041240 	T.64C1:	TIOE	6,@TXDBUF	;CHECK TIMER & LOOP
  5773	036774	254 00 0 00 036773 		JRST	.-1		;IF SET
  5774	036775	711 06 1 00 041240 		TION	6,@TXDBUF	;CHECK TIMER & LOOP
  5775	036776	254 00 0 00 036775 		JRST	.-1		;IF CLEAR
  5776	036777	367 07 0 00 036773 		SOJG	7,T.64C1	;DEC # TO DO & LOOP
  5777	037000	400 13 0 00 000000 		SETZ	13,		;CLEAR GOOD DATA
  5778						CLEAR	RXCSR	^
  5779	037001	403 01 0 00 000010 		SETZB	1,10
  5780	037002	713 10 1 00 041227 		WRIO	10,@RXCSR		;LOAD ZEROS INTO SELECTED REG.
  5781	037003	260 17 0 00 040234 		CSINIT			;REINITIALIZE
  5782	037004	201 06 0 00 004000 		MOVEI	6,TIMER		;GET TIMER BIT
  5783	037005	201 02 0 00 010000 		MOVEI	2,MEXT		;GET EXTERNAL MAINT BIT
  5784	037006	201 07 0 00 000005 		MOVEI	7,5		;GET # TO DO
  5785	037007	714 02 1 00 041235 		BSIO	2,@TXCSR	;SET THE MODE
  5786	037010	710 06 1 00 041240 	T.64C2:	TIOE	6,@TXDBUF	;CHECK TIMER & LOOP
  5787	037011	254 00 0 00 037010 		JRST	.-1		;IF SET
  5788	037012	711 06 1 00 041240 		TION	6,@TXDBUF	;CHECK TIMER & LOOP
  5789	037013	254 00 0 00 037012 		JRST	.-1		;IF CLEAR
  5790	037014	367 07 0 00 037010 		SOJG	7,T.64C2	;DEC # TO DO & LOOP
  5791	037015	200 02 0 00 046363 		MOVE	2,[DSCA!DSCB]	;STRIP THOSE BITS
  5792	037016	715 02 1 00 041227 		BCIO	2,@RXCSR	;FROM RXCSR
  5793	037017	712 02 1 00 041227 		RDIO	2,@RXCSR	;READ IT
  5794	037020	312 02 0 00 000013 		CAME	2,13		;SKIP IF BITS ARE OKAY
  5795						ERROR	(T.64,13,13,2,TEST.64,<STATIC RCVR FCNS RXCSR REG ERROR>,PRTSTA)^
  5796	037021	036 13 0 00 046400
  5797	037022	035 00 0 00 036716 		ERLOOP	T.64		;IF ERROR, LOOP TO T.64
  5798						NXTTST	(64,65)^
  5799	037023	201 05 0 00 000064 		MOVEI	5,64		;GET CURRENT TEST #
  5800	037024	260 17 0 00 040245 		GO	$NXTST		;GO CHECK SWITCHES
  5801	037025	254 00 0 00 036716 		JRST	T.64		;REPEAT SAME TEST
  5802	037026	201 05 0 00 037031 		MOVEI	5,T.65		;GET NXT TEST #
  5803	037027	202 05 0 00 030051 		MOVEM	5,TESTPC	;SAVE ADRS FOR PC
  5804	037030	254 00 0 00 037031 		JRST	T.65		;GO TO NEXT TEST^
  5805
DSDUA DECSYSTEM 2020 DUP-11 DIAGNOSTIC VERSION 0,2	MACRO %53(1020) 08:16 15-Jun-79 Page 88
DSDUAM	MAC	14-Jun-79 16:28		*STATIC LOGIC TESTS -- .1-.155                                                     SEQ 0173

  5806						XLIST
  5807						LIST
  5808						S^;*********************************************************************^
  5809						COMMENT $
  5810						 TEST.65--*SYSTEM TEST MODE(TRANSMITTER INTERRUPT)TEST*
  5811							THIS TEST INITIALIZES THE UNIBUS ADAPTER STATUS REG'S
  5812						AND THE DUP-11REG'S TO ZEROS.SYSTEM TEST MODE IS SET IN TXCSR
  5813						(MMODEA BIT).BIT 1 IS SET IN UASTAT TO ENABLE TRANSMITTER
  5814						INTERRUPT.THIS TEST CALLS A ROUTINE WHICH SETS UP THE ADDRESSES
  5815						FOR INTERRUPT .DATA SET INTERR ENABLE IS SET IN TXSCR,INTFLG
  5816						IS TESTED IT SHOULD BE SET INDICATING THAT THE TRANSMITER
  5817						DID INTERRUPT.ANY DISCREPANCIES WILL YIELD AN ERROR PRINTOUT.
  5818						$
  5819						S^;*********************************************************************^
  5820						XLIST
  5821						LIST
  5822
  5823	037031	260 17 0 00 040241 	T.65:	UBACLR			;INIT ADAPTER & DUP LOGIC
  5824	037032	260 17 0 00 040234 		CSINIT			;PRE TEST INITIALIZATION
  5825
  5826	037033	201 03 0 00 004000 		MOVEI	3,MMODEA	;SYSTST BIT
  5827	037034	402 00 0 00 041017 		SETZM	MMFLG		;CLEAR HELP FLAG
  5828	037035	714 03 1 00 041235 		BSIO	3,@TXCSR	;SET THE MODE-START THE CLOCK
  5829	037036	201 03 0 00 000001 		MOVEI	3,PIA35		;PI LO FOR BR5
  5830	037037	714 03 1 00 041221 		BSIO	3,@UASTAT	;ENABLE INTERRUPT
  5831
  5832	037040	260 17 0 00 040360 		GO	TINTER		;GO SET UP INTERRUPT LOCATIONS
  5833	037041	201 03 0 00 000100 		MOVEI	3,TXINTE	;GETTRANS INTR BIT
  5834	037042	714 03 1 00 041235 		BSIO	3,@TXCSR	;ENABLE INTERRUPT
  5835	037043	336 00 0 00 041020 		SKIPN	INTFLG		;TEST FLAG
  5836						ERROR	(T.65,13,0,0,TEST.65,<STATIC TRMTR FCNS DUP FAILED TO INTERRUPT>PRTSTA)^
  5837	037044	036 13 0 00 046415
  5838	037045	035 00 0 00 037031 		ERLOOP	T.65		;IF ERROR, LOOP TO T.65
  5839						NXTTST	(65,66)^
  5840	037046	201 05 0 00 000065 		MOVEI	5,65		;GET CURRENT TEST #
  5841	037047	260 17 0 00 040245 		GO	$NXTST		;GO CHECK SWITCHES
  5842	037050	254 00 0 00 037031 		JRST	T.65		;REPEAT SAME TEST
  5843	037051	201 05 0 00 037054 		MOVEI	5,T.66		;GET NXT TEST #
  5844	037052	202 05 0 00 030051 		MOVEM	5,TESTPC	;SAVE ADRS FOR PC
  5845	037053	254 00 0 00 037054 		JRST	T.66		;GO TO NEXT TEST^
  5846
DSDUA DECSYSTEM 2020 DUP-11 DIAGNOSTIC VERSION 0,2	MACRO %53(1020) 08:16 15-Jun-79 Page 89
DSDUAM	MAC	14-Jun-79 16:28		*STATIC LOGIC TESTS -- .1-.155                                                     SEQ 0174

  5847						XLIST
  5848						LIST
  5849						S^;*********************************************************************^
  5850						COMMENT $
  5851						 TEST.66--*SYSTEM TEST MODE(TRANSMITER INTERRUPT)TEST*
  5852							THIS TEST INITIALIZES THE UNIBUS ADAPTER STATUS REG'S
  5853						AND THE DUP-11 REG'S TO ZEROS.TXCSR IS SET FOR SYSTEM TEST MODE
  5854						(BIT12=1).UASTAT IS SETTO ENABLE INTERUPT (BIT1=1).BIT 6 IN
  5855						TXCSR IS SET TO CAUSE THE INTERRUPT,THEN INTFLG IS TESTED IT
  5856						SHUOLD BE SET INDICATING THAT THE INTERRUPT OCCURED.THE FLAG IS
  5857						CLEARED AND WE WAIT ASECOND INTERRUPT SHOULD NOT OCCURE WITHOUT
  5858						TXCSR OR TXDBUF BIENG READ OR WRITTEN TO.ANY DISCREPANCIES WILL
  5859						YIELD AN ERROR PRINTOUT.
  5860						$
  5861						S^;*********************************************************************^
  5862						XLIST
  5863						LIST
  5864
  5865	037054	260 17 0 00 040241 	T.66:	UBACLR			;INIT ADAPTER AND DUP LOGIG
  5866	037055	260 17 0 00 040234 		CSINIT			;PRE TEST INITIALIZATION
  5867
  5868	037056	201 03 0 00 004000 		MOVEI	3,MMODEA	;SYSTST BIT
  5869	037057	402 00 0 00 041017 		SETZM	MMFLG		;CLEAR HELP FLAG
  5870	037060	714 03 1 00 041235 		BSIO	3,@TXCSR	;SET MODE START CLOCK
  5871	037061	201 03 0 00 000001 		MOVEI	3,PIA35		;PI LOW FOR DUP-11(BR5)
  5872	037062	714 03 1 00 041221 		BSIO	3,@UASTAT	;ENABLE INTERRUPT
  5873	037063	260 17 0 00 040360 		GO	TINTER		;GO SETUP FOR TRANSMITTER INTERRUPT
  5874	037064	201 03 0 00 000100 		MOVEI	3,TXINTE	;GET TRANS INTERR BIT
  5875	037065	714 03 1 00 041235 		BSIO	3,@TXCSR	;ENABLE
  5876	037066	336 00 0 00 041020 		SKIPN	INTFLG		;TEST FLAG
  5877						ERROR	(T.66,13,0,0,TEST.66,<STATIC TRNSMTR FCNS TRANSMITTER FAILED TO INTERRUPT>,
  5878					PRTSTA)^
  5879	037067	036 13 0 00 046433
  5880	037070	035 00 0 00 037054 		ERLOOP	T.66		;IF ERROR, LOOP TO T.66
  5881	037071	336 00 0 00 041020 		SKIPN	INTFLG		;SKIP IF WE DIDN'T HAVE AN ERROR
  5882	037072	254 00 0 00 037106 		JRST	T.66A		;ABORT TESTING
  5883
  5884	037073	402 00 0 00 041020 		SETZM	INTFLG		;CLEAR FAG
  5885	037074	255 00 0 00 000000 		JFCL
  5886	037075	332 00 0 00 041020 		SKIPE	INTFLG		;TEST FLAG
  5887						ERROR	(T.66,13,0,0,TEST.66,<STATIC TRNSMTR FCNS TRANSMITTER INTERRUPTED A SECOND
  5888					TIME>,PRTSTA)^
  5889	037076	036 13 0 00 046450
  5890	037077	035 00 0 00 037054 		ERLOOP	T.66		;IF ERROR, LOOP TO T.66
  5891	037100	336 00 0 00 041020 		SKIPN	INTFLG		;SKIP IF WE DIDN'T HAVE AN ERROR
  5892	037101	254 00 0 00 037106 		JRST	T.66A		;ABORT TESTING
  5893
  5894	037102	201 03 0 00 000200 		MOVEI	3,TXDONE	;GET DONE BIT
  5895	037103	711 03 1 00 041235 		TION	3,@TXCSR	;TEST THE BIT
  5896						ERROR	(T.66,13,0,0,TEST.66,<STATIC TRNMTR FCNS TXDONE NOT SET>,PRTSTA)^
  5897	037104	036 13 0 00 046461
  5898	037105	035 00 0 00 037054 		ERLOOP	T.66		;IF ERROR, LOOP TO T.66
  5899	037106				T.66A:	NXTTST	(66,67)^
  5900	037106	201 05 0 00 000066 		MOVEI	5,66		;GET CURRENT TEST #
  5901	037107	260 17 0 00 040245 		GO	$NXTST		;GO CHECK SWITCHES
DSDUA DECSYSTEM 2020 DUP-11 DIAGNOSTIC VERSION 0,2	MACRO %53(1020) 08:16 15-Jun-79 Page 89-1
DSDUAM	MAC	14-Jun-79 16:28		*STATIC LOGIC TESTS -- .1-.155                                                     SEQ 0175

  5902	037110	254 00 0 00 037054 		JRST	T.66		;REPEAT SAME TEST
  5903	037111	201 05 0 00 037114 		MOVEI	5,T.67		;GET NXT TEST #
  5904	037112	202 05 0 00 030051 		MOVEM	5,TESTPC	;SAVE ADRS FOR PC
  5905	037113	254 00 0 00 037114 		JRST	T.67		;GO TO NEXT TEST^
  5906
DSDUA DECSYSTEM 2020 DUP-11 DIAGNOSTIC VERSION 0,2	MACRO %53(1020) 08:16 15-Jun-79 Page 90
DSDUAM	MAC	14-Jun-79 16:28		*STATIC LOGIC TESTS -- .1-.155                                                     SEQ 0176

  5907						XLIST
  5908						LIST
  5909						S^;*********************************************************************^
  5910						COMMENT $
  5911						 TEST.67--*EXTERNAL MAINT MODE(RECIEVER INTERRUPT)TEST*
  5912							THIS TEST INITIALISEZ THE UNIBUS ADAPTER STATUS REG'S
  5913						AND THE DUP-11 REG'S TO ZEROS.EXTERNAL MAINT MODE BIT IS SET IN
  5914						TXCSR,UASTAT BIT 1 IS SET TO ENABLE INTERRUPTS.THIS TEST CALLS
  5915						A ROUTINE WHICH SETS UP ADDRESSES FOR RECIEVER INTERRUPTS.DATA
  5916						SET INTERR ENABLE BIT IS SET IN RXCSR TOENABLE INTERRUPT.
  5917						1'ST WE SET RTS IN RXCSR WHICH WILL CAUSE DSCB TO SET THIS WILL
  5918						CAUSE AN INTERRUPT IF IT DOES NOT WE WAIT FOR 5 CLOCKS AND THE
  5919						INTERRUPT SHOULD HAPPEN THEN.NEXT WE CLEAR RXCSR RESET THE BITS
  5920						AS BEFOR AND SET DTR WHICH WILL DSCA TO CHANGE AND WAIT FOR 110
  5921						CLOCKS THE INTERRUPT SHOULD OCCURE,DSCA IS TESTED IT SHOULD BE
  5922						SET INDICATING THAT IT CAUSED THE INTERRUPT.INTERRUPT IS
  5923						ALWAYS INDICATED WITH INTFLG SET.ANY DISCREPANCIES WILL YIELD AN
  5924						ERROR PRINTOUT.
  5925						$
  5926						S^;*********************************************************************^
  5927						XLIST
  5928						LIST
  5929
  5930
  5931	037114	260 17 0 00 040241 	T.67:	UBACLR			;INIT ADAPTER AND DUP LOGIC
  5932	037115	260 17 0 00 040234 		CSINIT			;PRE TEST INITIALIZATION
  5933
  5934	037116	201 03 0 00 010000 		MOVEI	3,MMODEB	;EXTERNAL MAINT BIT
  5935	037117	402 00 0 00 041017 		SETZM	MMFLG		;CLEAR HELP FLAG
  5936	037120	714 03 1 00 041235 		BSIO	3,@TXCSR	;SET MODE START CLOCK
  5937	037121	201 03 0 00 000001 		MOVEI	3,PIA35		;PI LOW FOR DUP-11(BR5)
  5938	037122	714 03 1 00 041221 		BSIO	3,@UASTAT	;ENABLE INTERRUPT
  5939	037123	260 17 0 00 040330 		GO	RINTER		;GO SETUP FOR RECIEVER INTERRUPT
  5940	037124	201 06 0 00 004000 		MOVEI	6,TIMER		;GET TIMER BIT
  5941	037125	201 07 0 00 000005 		MOVEI	7,5		;GET # TO DO
  5942	037126	201 03 0 00 000040 		MOVEI	3,DSINTE	;DATASET INTERRUPT BIT
  5943	037127	201 04 0 00 000004 		MOVEI	4,RTS		;GET RTS BIT
  5944	037130	714 03 1 00 041227 		BSIO	3,@RXCSR	;ENABLE INTERRUPT
  5945	037131	714 04 1 00 041227 		BSIO	4,@RXCSR	;CAUSE THE INTERRUPT
  5946	037132	332 00 0 00 041020 		SKIPE	INTFLG		;TEST FLAG
  5947	037133	254 00 0 00 037144 		JRST	T.67B		;FLAG OK CONTINUE
  5948	037134	710 06 1 00 041240 	T.67A:	TIOE	6,@TXDBUF	;CHECK TIMER & LOOP
  5949	037135	254 00 0 00 037134 		JRST	.-1		;IF SET
  5950	037136	711 06 1 00 041240 		TION	6,@TXDBUF	;CHECK TIMER & LOOP
  5951	037137	254 00 0 00 037136 		JRST	.-1		;IF CLEAR
  5952	037140	367 07 0 00 037134 		SOJG	7,T.67A		;DEC # TO DO & LOOP
  5953	037141	336 00 0 00 041020 		SKIPN	INTFLG		;TEST FLAG AGAIN
  5954						ERROR	(T.67,13,0,0,TEST.67,<STATIC RCVR FCNS RECIEVER FAILED TO INTERRUPT WITH DS
  5955					CB>,PRTSTA)^
  5956	037142	036 13 0 00 046500
  5957	037143	035 00 0 00 037114 		ERLOOP	T.67		;IF ERROR, LOOP TO T.67
DSDUA DECSYSTEM 2020 DUP-11 DIAGNOSTIC VERSION 0,2	MACRO %53(1020) 08:16 15-Jun-79 Page 91
DSDUAM	MAC	14-Jun-79 16:28		*STATIC LOGIC TESTS -- .1-.155                                                     SEQ 0177

  5958	037144	402 00 0 00 041020 	T.67B:	SETZM	INTFLG		;CLEAR FLAG
  5959						CLEAR	RXCSR		^
  5960	037145	403 01 0 00 000010 		SETZB	1,10
  5961	037146	713 10 1 00 041227 		WRIO	10,@RXCSR		;LOAD ZEROS INTO SELECTED REG.
  5962	037147	201 07 0 00 000110 		MOVEI	7,110		;GET # TO  DO
  5963	037150	201 03 0 00 000002 		MOVEI	3,DTR		;GET DTR BIT
  5964	037151	201 04 0 00 000040 		MOVEI	4,DSINTE	;GET INTER ENABLE BIT
  5965	037152	201 06 0 00 004000 		MOVEI	6,TIMER		;GET TIMER BIT
  5966	037153	714 04 1 00 041227 		BSIO	4,@RXCSR	;ENABLE INTERRUPT
  5967	037154	714 03 1 00 041227 		BSIO	3,@RXCSR	;CAUSE THE INTERRUPT
  5968	037155	332 00 0 00 041020 		SKIPE	INTFLG		;TEST FLAG
  5969	037156	254 00 0 00 037167 		JRST	T.67D		;FLAG OK CONTINUE
  5970	037157	710 06 1 00 041240 	T.67C:	TIOE	6,@TXDBUF	;CHECK TIMER & LOOP
  5971	037160	254 00 0 00 037157 		JRST	.-1		;IF SET
  5972	037161	711 06 1 00 041240 		TION	6,@TXDBUF	;CHECK TIMER & LOOP
  5973	037162	254 00 0 00 037161 		JRST	.-1		;IF CLEAR
  5974	037163	367 07 0 00 037157 		SOJG	7,T.67C		;DEC # TO DO & LOOP
  5975	037164	336 00 0 00 041020 		SKIPN	INTFLG		;TEST FLAG
  5976						ERROR	(T.67,13,0,0,TEST.67,<STATIC RCVR FCNS RECIEVER FAILED TO INTERRUPT WITH DS
  5977					CA>,PRTSTA)^
  5978	037165	036 13 0 00 046515
  5979	037166	035 00 0 00 037114 		ERLOOP	T.67		;IF ERROR, LOOP TO T.67
  5980	037167	201 03 0 00 100000 	T.67D:	MOVEI	3,DSCA		;GET DSCA
  5981	037170	711 03 1 00 041227 		TION	3,@RXCSR	;TEST THE BIT
  5982						ERROR	(T.67,13,0,0,TEST.67,<STATIC RCVR FCNS DSCA NOT SET RECIEVER INTERRUPTED FR
  5983					OM WRONG DSC>,PRTSTA)^
  5984	037171	036 13 0 00 046533
  5985	037172	035 00 0 00 037114 		ERLOOP	T.67		;IF ERROR, LOOP TO T.67
  5986						NXTTST	(67,70)^
  5987	037173	201 05 0 00 000067 		MOVEI	5,67		;GET CURRENT TEST #
  5988	037174	260 17 0 00 040245 		GO	$NXTST		;GO CHECK SWITCHES
  5989	037175	254 00 0 00 037114 		JRST	T.67		;REPEAT SAME TEST
  5990	037176	201 05 0 00 037201 		MOVEI	5,T.70		;GET NXT TEST #
  5991	037177	202 05 0 00 030051 		MOVEM	5,TESTPC	;SAVE ADRS FOR PC
  5992	037200	254 00 0 00 037201 		JRST	T.70		;GO TO NEXT TEST^
  5993
DSDUA DECSYSTEM 2020 DUP-11 DIAGNOSTIC VERSION 0,2	MACRO %53(1020) 08:16 15-Jun-79 Page 92
DSDUAM	MAC	14-Jun-79 16:28		*STATIC LOGIC TESTS -- .1-.155                                                     SEQ 0178

  5994						XLIST
  5995						LIST
  5996						S^;*********************************************************************^
  5997						COMMENT $
  5998						 TEST.70--*SYSTEM TEST MODE(RECIEVER INTERRUPT TEST)*
  5999							THIS TEST PROVES THAT SETTING RECIEVER INTERRUPT ENABLE
  6000						AND RECIEVER DONE CAUSES AN INTERRUPT TO THE RECIEVER VECTOR.
  6001						THIS TEST INITIALISEZ THE UNIBUS ADAPTER STATUS REG'S AND THE
  6002						DUP-11 REG'S TO ZEROS.BIT12 IS SET IN TXCSR TO SELECT SYSTST
  6003						MODE,SEND IS SET IN TXCSR.IN RXCSR BITS 4&6 ARE SET TO ENABLE
  6004						RECIEVER AND INTERRUPT,AMESSAGE IS LOADED INTO TXDBUF
  6005						THEN END OF MESSAGE IS SET .THIS SHOULD SET RXDDONE AND THE
  6006						RECIEVER SHOULD INTERRUPT.ANYN DISCREPANCIES WILL YIELD
  6007						AN ERROR PRINTOUT.(INTFLG DECLAIRES INTERRUPT STATES)
  6008						$
  6009						S^;*********************************************************************^
  6010						XLIST
  6011						LIST
  6012
  6013	037201	260 17 0 00 040241 	T.70:	UBACLR			;INIT ADAPTER AND DUP LOGIC
  6014	037202	260 17 0 00 040234 		CSINIT			;PRE TEST INITIALIZATION
  6015	037203	260 17 0 00 040330 		GO	RINTER		;GO SET UP FOR RECIEVER INTERRUPT
  6016	037204	201 03 0 00 000001 		MOVEI	3,PIA35		;LOW FOR DUP-11(BR5)
  6017	037205	714 03 1 00 041221 		BSIO	3,@UASTAT	;SET PI INTERRUPT ENABLE
  6018	037206	201 05 0 00 000200 		MOVEI	5,TXDONE	;GET DONE BIT
  6019	037207	201 03 0 00 004000 		MOVEI	3,MMODEA	;SYSTEM TEST MODE
  6020	037210	402 00 0 00 041017 		SETZM	MMFLG		;CLEAR HELP FLAG
  6021	037211	201 07 0 00 000005 		MOVEI	7,5		;GET # TO DO
  6022	037212	201 04 0 00 000020 		MOVEI	4,RCVEN		;RECIEVER ENABLE BIT
  6023	037213	201 06 0 00 000100 		MOVEI	6,RINTEN	;RECIEVER INTERR ENABLE BIT
  6024	037214	201 02 0 00 000020 		MOVEI	2,SEND		;GET SEND BIT
  6025	037215	714 03 1 00 041235 		BSIO	3,@TXCSR	;SET MODE START CLOCK
  6026	037216	714 04 1 00 041227 		BSIO	4,@RXCSR	;ENABLE RECIEVER
  6027	037217	714 06 1 00 041227 		BSIO	6,@RXCSR	;ENABLE INTERRUPT
  6028	037220	714 02 1 00 041235 		BSIO	2,@TXCSR	;SET SEND BIT
  6029	037221	201 06 0 00 004000 		MOVEI	6,TIMER		;GET TIMER BIT
  6030	037222	332 00 0 00 041020 		SKIPE	INTFLG		;TEST INTERRUPT FLAG
  6031	037223	254 00 0 00 037265 		JRST	T.70C		;OK EXIT
DSDUA DECSYSTEM 2020 DUP-11 DIAGNOSTIC VERSION 0,2	MACRO %53(1020) 08:16 15-Jun-79 Page 93
DSDUAM	MAC	14-Jun-79 16:28		*STATIC LOGIC TESTS -- .1-.155                                                     SEQ 0179

  6032	037224	710 06 1 00 041240 	T.70A:	TIOE	6,@TXDBUF	;CHECK TIMER & LOOP
  6033	037225	254 00 0 00 037224 		JRST	.-1		;IF SET
  6034	037226	711 06 1 00 041240 		TION	6,@TXDBUF	;CHECK TIMER & LOOP
  6035	037227	254 00 0 00 037226 		JRST	.-1		;IF CLEAR
  6036	037230	367 07 0 00 037224 		SOJG	7,T.70A		;DEC # TO DO & LOOP
  6037	037231	712 02 1 00 041235 		RDIO	2,@TXCSR	;READ XMIT REG
  6038	037232	606 02 0 00 000200 		TRNN	2,TXDONE	;SKIP IF DONE SET OKAY
  6039						ERROR	(T.70,13,0,0,TEST.70,<STATIC TRNSMTR FCNS TXDONE FAILED TO SET>,PRTSTA)^
  6040	037233	036 13 0 00 046547
  6041	037234	035 00 0 00 037201 		ERLOOP	T.70		;IF ERROR, LOOP TO T.70
  6042	037235	602 02 0 00 000200 		TRNE	2,TXDONE	;SKIP HAD ERROR, ABORT TEST
  6043	037236	332 00 0 00 041020 		SKIPE	INTFLG		;CHECK INTERRUPT FLAG AGAIN
  6044	037237	254 00 0 00 037265 		JRST	T.70C		;OK EXIT
  6045	037240	201 03 0 00 000400 		MOVEI	3,400		;GET DATA
  6046	037241	713 03 1 00 041240 		WRIO	3,@TXDBUF	;LOAD IT
  6047	037242	711 05 1 00 041235 		TION	5,@TXCSR	;WAIT FOR
  6048	037243	254 00 0 00 037242 		JRST	.-1		;DONE
  6049						CLEAR	TXDBUF	^
  6050	037244	403 01 0 00 000010 		SETZB	1,10
  6051	037245	713 10 1 00 041240 		WRIO	10,@TXDBUF		;LOAD ZEROS INTO SELECTED REG.
  6052	037246	711 05 1 00 041235 		TION	5,@TXCSR	;WAIT FOR
  6053	037247	254 00 0 00 037246 		JRST	.-1		;DONE AGAIN
  6054	037250	201 03 0 00 001000 		MOVEI	3,TEOM		;GET END OF MESSAGE
  6055	037251	713 03 1 00 041240 		WRIO	3,@TXDBUF	;SET THE BIT
  6056	037252	201 07 0 00 000040 		MOVEI	7,40		;GET # TO DO
  6057	037253	332 00 0 00 041020 		SKIPE	INTFLG		;CKECK INTERR FLAG
  6058	037254	254 00 0 00 037265 		JRST	T.70C
  6059	037255	710 06 1 00 041240 	T.70B:	TIOE	6,@TXDBUF	;CHECK TIMER & LOOP
  6060	037256	254 00 0 00 037255 		JRST	.-1		;IF SET
  6061	037257	711 06 1 00 041240 		TION	6,@TXDBUF	;CHECK TIMER & LOOP
  6062	037260	254 00 0 00 037257 		JRST	.-1		;IF CLEAR
  6063	037261	367 07 0 00 037255 		SOJG	7,T.70B		;DEC # TO DO & LOOP
  6064	037262	336 00 0 00 041020 		SKIPN	INTFLG		;CHECK FLAG
  6065						ERROR	(T.70,13,0,0,TEST.70,<STATIC RCVR FCNS RECIEVER FAILED TO INTERRUPT>,PRTSTA
  6066					)^
  6067	037263	036 13 0 00 046562
  6068	037264	035 00 0 00 037201 		ERLOOP	T.70		;IF ERROR, LOOP TO T.70
  6069	037265				T.70C:	NXTTST	(70,71)^
  6070	037265	201 05 0 00 000070 		MOVEI	5,70		;GET CURRENT TEST #
  6071	037266	260 17 0 00 040245 		GO	$NXTST		;GO CHECK SWITCHES
  6072	037267	254 00 0 00 037201 		JRST	T.70		;REPEAT SAME TEST
  6073	037270	201 05 0 00 037273 		MOVEI	5,T.71		;GET NXT TEST #
  6074	037271	202 05 0 00 030051 		MOVEM	5,TESTPC	;SAVE ADRS FOR PC
  6075	037272	254 00 0 00 037273 		JRST	T.71		;GO TO NEXT TEST^
  6076
DSDUA DECSYSTEM 2020 DUP-11 DIAGNOSTIC VERSION 0,2	MACRO %53(1020) 08:16 15-Jun-79 Page 94
DSDUAM	MAC	14-Jun-79 16:28		*STATIC LOGIC TESTS -- .1-.155                                                     SEQ 0180

  6077						XLIST
  6078						LIST
  6079						S^;*********************************************************************^
  6080						COMMENT $
  6081						 TEST.71--*SYSTEM TEST MODE(RECIEVER INTERRUPT) TEST*
  6082							THIS TEST PROVES THAT THE RECIEVER WILL INTERRUPT
  6083						ONCE ONLY IF THE RXCSR OR RXDBUF ARE NOT READ OR WRITTEN.
  6084						THIS TEST INITIALIZES THE UNIBUS ADAPTER STATUS REG'S AND
  6085						THE DUP-11 REG'S TO ZEROS.BIT 1 IS SET IN UASTAT TO ENABLE
  6086						INTERRUPTS.IN TXCSR WE SET BITS TO SELECT SYSTEM TEST MODE
  6087						AND ENABLE SEND.IN RXCSR WE SET BITS TO ENABLE RECIEVER AND
  6088						RECIEVER INTERRUPT.INTERRUPT FLAG IS CHECKED IF CLEAR WE LOAD
  6089						TXDBUF WITH DATA AND SEND OUT.AFTER TEOM IS SET RECIEVER SHOULD
  6090						INTERRUPT.FLAG IS CLEARED TO SET UP FOR SECIND PART,WE WAIT
  6091						CHECK FLAG SHOULD BE CLEAR.IF SET,RECIEVER INTERRUPTED SECOND
  6092						TIME.RXCSR IS TESTED IT SHOULD BE SET.ANY DISCREPANCIES WILL
  6093						YIELD AN ERROR PRINTOUT.
  6094						$
  6095						S^;*********************************************************************^
  6096						XLIST
  6097						LIST
  6098
  6099	037273	260 17 0 00 040241 	T.71:	UBACLR			;INIT ADAPTER & DUP LOGIC
  6100	037274	260 17 0 00 040234 		CSINIT			;PRE TEST INITIALIZATION
  6101	037275	260 17 0 00 040330 		GO	RINTER		;GO SET UP RECIEVER INTERRUPT ADDRESSES
  6102	037276	201 03 0 00 000001 		MOVEI	3,PIA35		;INTR BIT FOR LOW DUP-11(BR5)
  6103	037277	714 03 1 00 041221 		BSIO	3,@UASTAT	;ENABLE INTERRUPT
  6104	037300	201 03 0 00 000020 		MOVEI	3,SEND		;GET SEND BIT
  6105	037301	201 06 0 00 000100 		MOVEI	6,RINTEN	;GET RECIEVER INTERRUPT BIT
  6106	037302	201 07 0 00 000005 		MOVEI	7,5		;GET # TO DO
  6107	037303	201 02 0 00 004000 		MOVEI	2,MMODEA	;SYSTEM TEST MODE BIT
  6108	037304	402 00 0 00 041017 		SETZM	MMFLG		;CLEAR HELP FLAG
  6109	037305	201 05 0 00 000200 		MOVEI	5,TXDONE	;GET DONE BIT
  6110	037306	201 04 0 00 000020 		MOVEI	4,RCVEN		;GET RECIEVER ENABLE BIT
  6111	037307	714 02 1 00 041235 		BSIO	2,@TXCSR	;SET MODE START CLOCK
  6112	037310	714 04 1 00 041227 		BSIO	4,@RXCSR	;ENABLE RECIEVER
  6113	037311	714 06 1 00 041227 		BSIO	6,@RXCSR	;ENABLE INTERRUPT
  6114	037312	714 03 1 00 041235 		BSIO	3,@TXCSR	;ENABLE TRANS SEND
  6115	037313	201 06 0 00 004000 		MOVEI	6,TIMER		;GET TIMER BIT
  6116	037314	332 00 0 00 041020 		SKIPE	INTFLG		;TEST INTERRUPT FLAG
  6117	037315	254 00 0 00 037360 		JRST	T.71C		;OK EXIT
DSDUA DECSYSTEM 2020 DUP-11 DIAGNOSTIC VERSION 0,2	MACRO %53(1020) 08:16 15-Jun-79 Page 95
DSDUAM	MAC	14-Jun-79 16:28		*STATIC LOGIC TESTS -- .1-.155                                                     SEQ 0181

  6118	037316	710 06 1 00 041240 	T.71A:	TIOE	6,@TXDBUF	;TEST TIMER & LOOP
  6119	037317	254 00 0 00 037316 		JRST	.-1		;IF SET
  6120	037320	711 06 1 00 041240 		TION	6,@TXDBUF	;TEST TIMER & LOOP
  6121	037321	254 00 0 00 037320 		JRST	.-1		;IF CLEAR
  6122	037322	367 07 0 00 037316 		SOJG	7,T.71A		;DEC # TO DO & LOOP
  6123	037323	712 02 1 00 041235 		RDIO	2,@TXCSR	;READ XMIT REG
  6124	037324	606 02 0 00 000200 		TRNN	2,TXDONE	;SKIP IF DONE ASSERTED
  6125						ERROR	(T.71,13,0,0,TEST.71,<STATIC TRNSMTR FCNS TXDONE FAILED TO SET>,PRTSTA)^
  6126	037325	036 13 0 00 046567
  6127	037326	035 00 0 00 037273 		ERLOOP	T.71		;IF ERROR, LOOP TO T.71
  6128	037327	606 02 0 00 000200 		TRNN	2,TXDONE	;SKIP IF WE HAD NO ERROR
  6129	037330	254 00 0 00 037376 		JRST	T.71D		;ABORT TESTING
  6130
  6131	037331	201 03 0 00 000400 		MOVEI	3,TSOM		;GET TSOM BIT
  6132	037332	713 03 1 00 041240 		WRIO	3,@TXDBUF	;SET START OF MESSAGE
  6133	037333	711 05 1 00 041235 		TION	5,@TXCSR	;WAIT FOR
  6134	037334	254 00 0 00 037333 		JRST	.-1		;DONE
  6135						CLEAR	TXDBUF^
  6136	037335	403 01 0 00 000010 		SETZB	1,10
  6137	037336	713 10 1 00 041240 		WRIO	10,@TXDBUF		;LOAD ZEROS INTO SELECTED REG.
  6138	037337	711 05 1 00 041235 		TION	5,@TXCSR	;WAIT FOR
  6139	037340	254 00 0 00 037337 		JRST	.-1		;DONE AGAIN
  6140	037341	201 03 0 00 001000 		MOVEI	3,TEOM		;GET END OF MESSAGE BIT
  6141	037342	713 03 1 00 041240 		WRIO	3,@TXDBUF	;SET THE BIT
  6142	037343	201 07 0 00 000040 		MOVEI	7,40		;GET # TO DO
  6143	037344	332 00 0 00 041020 		SKIPE	INTFLG		;TEST FLAG AGAIN
  6144	037345	254 00 0 00 037360 		JRST	T.71C		;OK EXIT
  6145	037346	710 06 1 00 041240 	T.71B:	TIOE	6,@TXDBUF	;TEST TIMER & LOOP
  6146	037347	254 00 0 00 037346 		JRST	.-1		;IF SET
  6147	037350	711 06 1 00 041240 		TION	6,@TXDBUF	;TEST TIMER & LOOP
  6148	037351	254 00 0 00 037350 		JRST	.-1		;IF CLEAR
  6149	037352	367 07 0 00 037346 		SOJG	7,T.71B		;DEC # TO DO & LOOP
  6150	037353	336 00 0 00 041020 		SKIPN	INTFLG		;TEST FLAG
  6151						ERROR	(T.71,13,0,0,TEST.71,<STATIC RCVR FCNS RECIEVER FAILED TO INTERRUPT>,PRTSTA
  6152					)^
  6153	037354	036 13 0 00 046572
  6154	037355	035 00 0 00 037273 		ERLOOP	T.71		;IF ERROR, LOOP TO T.71
  6155	037356	336 00 0 00 041020 		SKIPN	INTFLG		;SKIP IF WE HAD NO ERROR
  6156	037357	254 00 0 00 037376 		JRST	T.71D		;ABORT TESTING
  6157
  6158	037360	402 00 0 00 041020 	T.71C:	SETZM	INTFLG		;SET UP FOR 2'ND PART
  6159	037361	255 00 0 00 000000 		JFCL
  6160	037362	332 00 0 00 041020 		SKIPE	INTFLG		;TEST FLAG
  6161						ERROR	(T.71,13,0,0,TEST.17,<STATICRECIEVER FCNS RECIEVER INTERRUPTED A SECOND TIM
  6162					E>,PRTSTA)^
  6163	037363	036 13 0 00 046607
  6164	037364	035 00 0 00 037273 		ERLOOP	T.71		;IF ERROR, LOOP TO T.71
  6165	037365	332 00 0 00 041020 		SKIPE	INTFLG		;SKIP IF WE HAD NO ERROR
  6166	037366	254 00 0 00 037376 		JRST	T.71D		;ABORT TESTING
  6167	037367	710 06 1 00 041240 		TIOE	6,@TXDBUF	;TEST TIMER & LOOP
  6168	037370	254 00 0 00 037367 		JRST	.-1		;IF SET
  6169	037371	711 06 1 00 041240 		TION	6,@TXDBUF	;TEST TIMER & LOOP
  6170	037372	254 00 0 00 037371 		JRST	.-1		;IF CLEAR
  6171	037373	711 05 1 00 041235 		TION	5,@TXCSR	;SKIP IF DONE ASSERTED
  6172						ERROR	(T.71,13,0,0,TEST.71,<STATIC RCVR FCNS RXDONE NOT SET>,PRTSTA)^
DSDUA DECSYSTEM 2020 DUP-11 DIAGNOSTIC VERSION 0,2	MACRO %53(1020) 08:16 15-Jun-79 Page 95-1
DSDUAM	MAC	14-Jun-79 16:28		*STATIC LOGIC TESTS -- .1-.155                                                     SEQ 0182

  6173	037374	036 13 0 00 046612
  6174	037375	035 00 0 00 037273 		ERLOOP	T.71		;IF ERROR, LOOP TO T.71
  6175	037376				T.71D:	NXTTST	(71,72)^
  6176	037376	201 05 0 00 000071 		MOVEI	5,71		;GET CURRENT TEST #
  6177	037377	260 17 0 00 040245 		GO	$NXTST		;GO CHECK SWITCHES
  6178	037400	254 00 0 00 037273 		JRST	T.71		;REPEAT SAME TEST
  6179	037401	201 05 0 00 037404 		MOVEI	5,T.72		;GET NXT TEST #
  6180	037402	202 05 0 00 030051 		MOVEM	5,TESTPC	;SAVE ADRS FOR PC
  6181	037403	254 00 0 00 037404 		JRST	T.72		;GO TO NEXT TEST^
  6182
  6183
DSDUA DECSYSTEM 2020 DUP-11 DIAGNOSTIC VERSION 0,2	MACRO %53(1020) 08:16 15-Jun-79 Page 96
DSDUAM	MAC	14-Jun-79 16:28		*STATIC LOGIC TESTS -- .1-.155                                                     SEQ 0183

  6184						XLIST
  6185						LIST
  6186						S^;*********************************************************************^
  6187						COMMENT $
  6188						 TEST.72--*SYSTEM TEST MODE(INTERRUPTS)TEST*
  6189							THIS TEST VERIFIES THAT RECIEVER VECTER INTERRUPT WILL
  6190						OCCURE BEFORE TRANSMITER INTERRUPT.
  6191						THIS TEST INITIALIZES THE UNIBUS ADAPTER STATUS REG'S AND DUP-11
  6192						REG'S TO ZEROS.'NOCRC' IS SET IN PARCSR TO INHIBIT RECEPTION OF
  6193						CRC CHARACTER.IN TXCSR BITS ARE SET FOR SYSTEM TEST MODE,AND
  6194						SEND.IN RXCSR BITS ARE SET FOR RECIEVER ENABLE,ENABLE INTERRUPTS
  6195						BIT 1 IS SET IN UASTAT TO ENABLE ALL INTERRUPTS.
  6196						A MESSAGE IS SEND THROUGH TXDBUF DONE BITS ARE TESTED THEN
  6197						TRANSMITTER INTERRUPT BIT IS SET IN TXCSR .INTFLG IS TESTED
  6198						IT SHOULD BE SET(RECIEVER INTERRUPTED).THIS TEST CALLS A ROUTINE
  6199						TO SET UP ADDRESSES FOR RECIEVER INTERRUPTS.ANY DISCREPANCIES
  6200						WILL YIELD AN ERROR MESSAGE.
  6201						$
  6202						S^;*********************************************************************^
  6203						XLIST
  6204						LIST
  6205
  6206	037404	260 17 0 00 040241 	T.72:	UBACLR			;INIT ADAPTER AND DUP LOGIC
  6207	037405	260 17 0 00 040234 		CSINIT			;PRE TEST INITIALIZATION
  6208	037406	260 17 0 00 040330 		GO	RINTER		;SET UP FOR RCVR INTERRUPTS
  6209	037407	201 03 0 00 000001 		MOVEI	3,PIA35		;LOW FOR DUP-11(BR5)
  6210	037410	714 03 1 00 041221 		BSIO	3,@UASTAT	;ENABLE INTERRUPTS
  6211	037411	201 03 0 00 004000 		MOVEI	3,MMODEA	;SYSTEM TEST MODE BIT
  6212	037412	402 00 0 00 041017 		SETZM	MMFLG		;CLEA HELP FLAG
  6213	037413	201 07 0 00 000005 		MOVEI	7,5		;GET # TO DO
  6214	037414	201 06 0 00 000020 		MOVEI	6,RCVEN		;GET THE BIT
  6215	037415	201 02 0 00 001000 		MOVEI	2,CRCEN		;BIT TO INHIBIT CRC
  6216	037416	201 05 0 00 000200 		MOVEI	5,TXDONE	;GET DONE BIT
  6217	037417	201 10 0 00 000100 		MOVEI	10,RINTEN	;BIT TO ENABLE INTERRUPTS
  6218	037420	201 04 0 00 000020 		MOVEI	4,SEND		;GET THE BIT
  6219	037421	714 03 1 00 041235 		BSIO	3,@TXCSR	;SET MODE START CLOCK
  6220	037422	714 06 1 00 041227 		BSIO	6,@RXCSR	;ENABLE RECIEVER
  6221	037423	714 10 1 00 041227 		BSIO	10,@RXCSR	;ENABLE INTERRUPT
  6222	037424	714 02 1 00 041233 		BSIO	2,@PARCSR	;SET 'NOCRC'
  6223	037425	714 04 1 00 041235 		BSIO	4,@TXCSR	;SET THE BIT
  6224	037426	201 06 0 00 004000 		MOVEI	6,TIMER		;GET TIMER BIT
  6225	037427	336 00 0 00 041020 		SKIPN	INTFLG		;TEST FLAG
  6226	037430	254 00 0 00 037437 		JRST	T.72A
  6227						NXTTST	(72,73)^		;OK EXIT
  6228	037431	201 05 0 00 000072 		MOVEI	5,72		;GET CURRENT TEST #
  6229	037432	260 17 0 00 040245 		GO	$NXTST		;GO CHECK SWITCHES
  6230	037433	254 00 0 00 037404 		JRST	T.72		;REPEAT SAME TEST
  6231	037434	201 05 0 00 037534 		MOVEI	5,T.73		;GET NXT TEST #
  6232	037435	202 05 0 00 030051 		MOVEM	5,TESTPC	;SAVE ADRS FOR PC
  6233	037436	254 00 0 00 037534 		JRST	T.73		;GO TO NEXT TEST
DSDUA DECSYSTEM 2020 DUP-11 DIAGNOSTIC VERSION 0,2	MACRO %53(1020) 08:16 15-Jun-79 Page 97
DSDUAM	MAC	14-Jun-79 16:28		*STATIC LOGIC TESTS -- .1-.155                                                     SEQ 0184

  6234	037437	710 06 1 00 041240 	T.72A:	TIOE	6,@TXDBUF	;TEST TIMER & LOOP
  6235	037440	254 00 0 00 037437 		JRST	.-1		;IF SET
  6236	037441	711 06 1 00 041240 		TION	6,@TXDBUF	;TESTN TIMER & LOOP
  6237	037442	254 00 0 00 037441 		JRST	.-1		;IF CLEAR
  6238	037443	367 07 0 00 037437 		SOJG	7,T.72A		;DEC # TO DO & LOOP
  6239	037444	711 05 1 00 041235 		TION	5,@TXCSR	;TEST TXDONE
  6240						ERROR	(T.72,13,0,0,TEST.72,<STATIC TRNSMTR FCNS TXDONE FAILED TO SET>,PRTSTA)^
  6241	037445	036 13 0 00 046617
  6242	037446	035 00 0 00 037404 		ERLOOP	T.72		;IF ERROR, LOOP TO T.72
  6243	037447	336 00 0 00 041020 		SKIPN	INTFLG		;TEST FLAG
  6244	037450	254 00 0 00 037457 		JRST	T.72A1
  6245						NXTTST	(72,73)^		;OK EXIT
  6246	037451	201 05 0 00 000072 		MOVEI	5,72		;GET CURRENT TEST #
  6247	037452	260 17 0 00 040245 		GO	$NXTST		;GO CHECK SWITCHES
  6248	037453	254 00 0 00 037404 		JRST	T.72		;REPEAT SAME TEST
  6249	037454	201 05 0 00 037534 		MOVEI	5,T.73		;GET NXT TEST #
  6250	037455	202 05 0 00 030051 		MOVEM	5,TESTPC	;SAVE ADRS FOR PC
  6251	037456	254 00 0 00 037534 		JRST	T.73		;GO TO NEXT TEST
  6252	037457	201 03 0 00 000400 	T.72A1:	MOVEI	3,400		;START OF MESSAGE
  6253	037460	713 03 1 00 041240 		WRIO	3,@TXDBUF	;SET THE BIT
  6254	037461	711 05 1 00 041235 		TION	5,@TXCSR	;WAIT FOR
  6255	037462	254 00 0 00 037461 		JRST	.-1		;DONE
  6256						CLEAR	TXDBUF^
  6257	037463	403 01 0 00 000010 		SETZB	1,10
  6258	037464	713 10 1 00 041240 		WRIO	10,@TXDBUF		;LOAD ZEROS INTO SELECTED REG.
  6259	037465	711 05 1 00 041235 		TION	5,@TXCSR	;WAIT FOR
  6260	037466	254 00 0 00 037465 		JRST	.-1		;DONE AGAIN
  6261	037467	201 03 0 00 001000 		MOVEI	3,TEOM		;GET THE BIT
  6262	037470	713 03 1 00 041240 		WRIO	3,@TXDBUF	;SET THE BIT
  6263	037471	201 07 0 00 000100 		MOVEI	7,100		;GET # TO DO
  6264	037472	710 06 1 00 041240 	T.72B:	TIOE	6,@TXDBUF	;TEST TIMER & LOOP
  6265	037473	254 00 0 00 037472 		JRST	.-1		;IF SET
  6266	037474	711 06 1 00 041240 		TION	6,@TXDBUF	;TEST TIMER & LOOP
  6267	037475	254 00 0 00 037474 		JRST	.-1		;IF CLEAR
  6268	037476	367 07 0 00 037472 		SOJG	7,T.72B		;DEC # TO DO & LOOP
  6269	037477	711 05 1 00 041227 		TION	5,@RXCSR	;TEST RXDONE
  6270						ERROR	(T.72,13,0,0,TEST.72,<STATIC RCVR FCNS RXDONE NOT SET>,PRTSTA)^
  6271	037500	036 13 0 00 046622
  6272	037501	035 00 0 00 037404 		ERLOOP	T.72		;IF ERROR, LOOP TO T.72
  6273	037502	711 05 1 00 041235 		TION	5,@TXCSR	;TEST TXDONE
  6274						ERROR	(T.72,13,0,0,TEST.72,<STATIC TRNSMTR FCNS TXDONE FAILED TO SET>,PRTSTA)^
  6275	037503	036 13 0 00 046617
  6276	037504	035 00 0 00 037404 		ERLOOP	T.72		;IF ERROR, LOOP TO T.72
  6277	037505	336 00 0 00 041020 		SKIPN	INTFLG
  6278	037506	254 00 0 00 037515 		JRST	T.72B1
  6279						NXTTST	(72,73)^
  6280	037507	201 05 0 00 000072 		MOVEI	5,72		;GET CURRENT TEST #
  6281	037510	260 17 0 00 040245 		GO	$NXTST		;GO CHECK SWITCHES
  6282	037511	254 00 0 00 037404 		JRST	T.72		;REPEAT SAME TEST
  6283	037512	201 05 0 00 037534 		MOVEI	5,T.73		;GET NXT TEST #
  6284	037513	202 05 0 00 030051 		MOVEM	5,TESTPC	;SAVE ADRS FOR PC
  6285	037514	254 00 0 00 037534 		JRST	T.73		;GO TO NEXT TEST^
  6286	037515	201 03 0 00 000100 	T.72B1:	MOVEI	3,TXINTE	;TRNSMTR INTERRUPT BIT
  6287	037516	714 03 1 00 041235 		BSIO	3,@TXCSR	;SET THE BIT
  6288	037517	710 06 1 00 041240 		TIOE	6,@TXDBUF	;TEST TIMER & LOOP
DSDUA DECSYSTEM 2020 DUP-11 DIAGNOSTIC VERSION 0,2	MACRO %53(1020) 08:16 15-Jun-79 Page 97-1
DSDUAM	MAC	14-Jun-79 16:28		*STATIC LOGIC TESTS -- .1-.155                                                     SEQ 0185

  6289	037520	254 00 0 00 037517 		JRST	.-1		;IF SET
  6290	037521	711 06 1 00 041240 		TION	6,@TXDBUF	;TEST TIMER & LOOP
  6291	037522	254 00 0 00 037521 		JRST	.-1		;IF CLEAR
  6292	037523	336 00 0 00 041020 		SKIPN	INTFLG		;TEST FLAG
  6293						ERROR	(T.72,13,0,0,TEST.72,<STATIC RCVR FCNS RECIEVER FAILED TO INTERRUPT>,PRTSTA
  6294					)^
  6295	037524	036 13 0 00 046625
  6296	037525	035 00 0 00 037404 		ERLOOP	T.72		;IF ERROR, LOOP TO T.72
  6297						NXTTST	(72,73)^
  6298	037526	201 05 0 00 000072 		MOVEI	5,72		;GET CURRENT TEST #
  6299	037527	260 17 0 00 040245 		GO	$NXTST		;GO CHECK SWITCHES
  6300	037530	254 00 0 00 037404 		JRST	T.72		;REPEAT SAME TEST
  6301	037531	201 05 0 00 037534 		MOVEI	5,T.73		;GET NXT TEST #
  6302	037532	202 05 0 00 030051 		MOVEM	5,TESTPC	;SAVE ADRS FOR PC
  6303	037533	254 00 0 00 037534 		JRST	T.73		;GO TO NEXT TEST^
  6304
DSDUA DECSYSTEM 2020 DUP-11 DIAGNOSTIC VERSION 0,2	MACRO %53(1020) 08:16 15-Jun-79 Page 98
DSDUAM	MAC	14-Jun-79 16:28		*STATIC LOGIC TESTS -- .1-.155                                                     SEQ 0186

  6305						XLIST
  6306						LIST
  6307						S^;*********************************************************************^
  6308						COMMENT $
  6309						 TEST.73--*SYSTEM TEST MODE(INTERRUPT)TEST*
  6310							THIS TEST VERIFIES THAT SERVICING TXDONE RE-ARMS
  6311						THE INTERRUPT LOGIG.THIS TEST INITIALIZES THE UNOBUS ADAPTER
  6312						STATUS REG'S AND THE DUP-11 REG'S TO ZEROS .BITS ARE SET TO
  6313						ENABLE INTERRUPTS INTERRUPT IS CAUSED TO THE TRANSMITER
  6314						INTERRUPT FLAG IS CLEARED,WE CAUSE ASECOND INTERRUPT BY
  6315						SETTING TEOM IN TXDBUF WHICH SETS TXDONE AGAIN,THIS SHOULD
  6316						CAUSE A SECOND INTERRUPT.ANY DISCREPANCIES WILL YIELD
  6317						AN ERROR PRINTOUT.
  6318						$
  6319						S^;*********************************************************************^
  6320						XLIST
  6321						LIST
  6322
  6323	037534	260 17 0 00 040241 	T.73:	UBACLR			;INIT ADAPTER AND DUP LOGIC
  6324	037535	260 17 0 00 040234 		CSINIT			;PRE TEST INITIALIZATION
  6325	037536	260 17 0 00 040360 		GO	TINTER		;GO SETUP ADDRESSES FOR TSNCMTR INTER'S
  6326	037537	201 03 0 00 000001 		MOVEI	3,PIA35		;LO FOR DUP-11(BR5)
  6327	037540	714 03 1 00 041221 		BSIO	3,@UASTAT	;ENABLE ALL INTERRUPTS
  6328	037541	201 07 0 00 000005 		MOVEI	7,5		;GET # TO DO
  6329	037542	201 04 0 00 000400 		MOVEI	4,TSOM		;GET THE BIT
  6330	037543	201 06 0 00 004000 		MOVEI	6,TIMER		;GET TIMER BIT
  6331	037544	201 05 0 00 000200 		MOVEI	5,TXDONE	;GET DONE BIT
  6332	037545	201 03 0 00 004120 		MOVEI	3,MMODEA!SEND!TXINTE	;GET THOSE BITS
  6333	037546	402 00 0 00 041017 		SETZM	MMFLG		;CLEAR HELP FLAG
  6334	037547	714 03 1 00 041235 		BSIO	3,@TXCSR	;TURN ON TRNSMTR CLOCK AND INTERRUPTS
  6335	037550	714 04 1 00 041240 		BSIO	4,@TXDBUF	;START MESSAGE
  6336	037551	332 00 0 00 041020 		SKIPE	INTFLG		;TEST FLAG
  6337	037552	254 00 0 00 037563 		JRST	T.73B		;OK CONTINUE
  6338	037553	710 06 1 00 041240 	T.73A:	TIOE	6,@TXDBUF	;TEST TIMER & LOOP
  6339	037554	254 00 0 00 037553 		JRST	.-1		;IF SET
  6340	037555	711 06 1 00 041240 		TION	6,@TXDBUF	;TEST TIMER & LOOP
  6341	037556	254 00 0 00 037555 		JRST	.-1		;IF CLEAR
  6342	037557	367 07 0 00 037553 		SOJG	7,T.73A		;DEC # TO DO & LOOP
  6343	037560	336 00 0 00 041020 		SKIPN	INTFLG		;TEST FLAG
  6344						ERROR	(T.73,13,0,0,TEST.73,<STATIC TRNSMTR FCNS TRANSMITER FAILED TO INTERRUPT TH
  6345					E FIRST TIME>,PRTSTA)^
  6346	037561	036 13 0 00 046645
  6347	037562	035 00 0 00 037534 		ERLOOP	T.73		;IF ERROR, LOOP TO T.73
  6348	037563	402 00 0 00 041020 	T.73B:	SETZM	INTFLG		;CLEAR FLAG
  6349	037564	201 03 0 00 001000 		MOVEI	3,TEOM		;GET THE BIT
  6350	037565	714 03 1 00 041240 		BSIO	3,@TXDBUF	;SET THE BIT
  6351	037566	201 07 0 00 000005 		MOVEI	7,5		;GET # TO DO
  6352	037567	336 00 0 00 041020 		SKIPN	INTFLG		;TEST FLAG
  6353	037570	254 00 0 00 037577 		JRST	T.73C		;CONTINUE IF FLAG NOT SET
  6354						NXTTST	(73,74)^
  6355	037571	201 05 0 00 000073 		MOVEI	5,73		;GET CURRENT TEST #
  6356	037572	260 17 0 00 040245 		GO	$NXTST		;GO CHECK SWITCHES
  6357	037573	254 00 0 00 037534 		JRST	T.73		;REPEAT SAME TEST
  6358	037574	201 05 0 00 037633 		MOVEI	5,T.74		;GET NXT TEST #
  6359	037575	202 05 0 00 030051 		MOVEM	5,TESTPC	;SAVE ADRS FOR PC
DSDUA DECSYSTEM 2020 DUP-11 DIAGNOSTIC VERSION 0,2	MACRO %53(1020) 08:16 15-Jun-79 Page 98-1
DSDUAM	MAC	14-Jun-79 16:28		*STATIC LOGIC TESTS -- .1-.155                                                     SEQ 0187

  6360	037576	254 00 0 00 037633 		JRST	T.74		;GO TO NEXT TEST^
DSDUA DECSYSTEM 2020 DUP-11 DIAGNOSTIC VERSION 0,2	MACRO %53(1020) 08:16 15-Jun-79 Page 99
DSDUAM	MAC	14-Jun-79 16:28		*STATIC LOGIC TESTS -- .1-.155                                                     SEQ 0188

  6361	037577	710 06 1 00 041240 	T.73C:	TIOE	6,@TXDBUF	;TEST TIMER & LOOP
  6362	037600	254 00 0 00 037577 		JRST	.-1		;IF SET
  6363	037601	711 06 1 00 041240 		TION	6,@TXDBUF	;TEST TIMER & LOOP
  6364	037602	254 00 0 00 037601 		JRST	.-1		;IF CLEAR
  6365	037603	367 07 0 00 037577 		SOJG	7,T.73C		;DEC # TO DO & LOOP
  6366	037604	336 00 0 00 041020 		SKIPN	INTFLG		;TEST FLAG
  6367	037605	254 00 0 00 037614 		JRST	T.73C1
  6368						NXTTST	(73,74)^		;EXIT IF SET
  6369	037606	201 05 0 00 000073 		MOVEI	5,73		;GET CURRENT TEST #
  6370	037607	260 17 0 00 040245 		GO	$NXTST		;GO CHECK SWITCHES
  6371	037610	254 00 0 00 037534 		JRST	T.73		;REPEAT SAME TEST
  6372	037611	201 05 0 00 037633 		MOVEI	5,T.74		;GET NXT TEST #
  6373	037612	202 05 0 00 030051 		MOVEM	5,TESTPC	;SAVE ADRS FOR PC
  6374	037613	254 00 0 00 037633 		JRST	T.74		;GO TO NEXT TEST
  6375	037614	201 07 0 00 000005 	T.73C1:	MOVEI	7,5		;GET # TO DO
  6376	037615	710 06 1 00 041240 	T.73D:	TIOE	6,@TXDBUF	;TEST TIMER & LOOP
  6377	037616	254 00 0 00 037615 		JRST	.-1		;IF SET
  6378	037617	711 06 1 00 041240 		TION	6,@TXDBUF	;TEST TIMER & LOOP
  6379	037620	254 00 0 00 037617 		JRST	.-1		;IF CLEAR
  6380	037621	367 07 0 00 037615 		SOJG	7,T.73D		;DEC # TO DO & LOOP
  6381	037622	336 00 0 00 041020 		SKIPN	INTFLG		;TEST FLAG
  6382						ERROR	(T.73,13,0,0,TEST.73,<STATIC TRNSMTR FCNS TRANSMITER FAILED TO INTERRUPT AF
  6383					TER SERVICING DONE>,PRTSTA)^
  6384	037623	036 13 0 00 046664
  6385	037624	035 00 0 00 037534 		ERLOOP	T.73		;IF ERROR, LOOP TO T.73
  6386						NXTTST	(73,74)^
  6387	037625	201 05 0 00 000073 		MOVEI	5,73		;GET CURRENT TEST #
  6388	037626	260 17 0 00 040245 		GO	$NXTST		;GO CHECK SWITCHES
  6389	037627	254 00 0 00 037534 		JRST	T.73		;REPEAT SAME TEST
  6390	037630	201 05 0 00 037633 		MOVEI	5,T.74		;GET NXT TEST #
  6391	037631	202 05 0 00 030051 		MOVEM	5,TESTPC	;SAVE ADRS FOR PC
  6392	037632	254 00 0 00 037633 		JRST	T.74		;GO TO NEXT TEST^
  6393
DSDUA DECSYSTEM 2020 DUP-11 DIAGNOSTIC VERSION 0,2	MACRO %53(1020) 08:16 15-Jun-79 Page 100
DSDUAM	MAC	14-Jun-79 16:28		*STATIC LOGIC TESTS -- .1-.155                                                     SEQ 0189

  6394						XLIST
  6395						LIST
  6396						S^;*********************************************************************^
  6397						COMMENT $
  6398						 TEST.74--*SYSTEM TEST MODE 'RXDONE//INTERRUPT' TEST*
  6399							THIS TEST VERIFIES THAT SERVICING RXDONE WILL CAUSE
  6400						ASECOND INTERRUPT FROM THE RECIEVER.THIS TEST INITIALIZES THE
  6401						UNIBUS ADAPTER STATUS REG'S AND THE DUP-11 REG'S TO ZEROS.BITS
  6402						ARE SET TO ENABLE RECIEVER INTERRUPT.1'ST INTERRUPT IS ACCEPTED
  6403						BY THE TEST,INTERRUPT FLAG IS CLEARED,AND RXDONE IS SERVICED BY
  6404						CAUSING IT TO SET.THIS SHOULD RE-ARM THE INTERRUPT LOGIC AND
  6405						CAUSE A SECOND INTERRUPT.ANY DISCREPANCIES WILL YIELD AN ERROR
  6406						PRINTOUT.(INTERRUPT IS DETECTED IN INTFLG=-1,SEE PREVIOS TESTS.
  6407						$
  6408						S^;*********************************************************************^
  6409						XLIST
  6410						LIST
  6411	037633	260 17 0 00 040241 	T.74:	UBACLR			;INIT ADAPTER AND DUP LOGIC
  6412	037634	260 17 0 00 040234 		CSINIT			;PRE TEST INITIALIZATION
  6413	037635	260 17 0 00 040330 		GO	RINTER		;SET UP ADDRESSES FOR RCVR INTERRUPT
  6414	037636	201 03 0 00 000001 		MOVEI	3,PIA35		;LOW FOR DUP-11(BR5)
  6415	037637	714 03 1 00 041221 		BSIO	3,@UASTAT	;INABLE ALL INTERRUPTS
  6416	037640	201 10 0 00 000100 		MOVEI	10,RINTEN	;GET THE BIT
  6417	037641	201 03 0 00 004000 		MOVEI	3,MMODEA	;SYSTAT MODE BIT
  6418	037642	402 00 0 00 041017 		SETZM	MMFLG		;CLEAR HELP FLAG
  6419	037643	201 04 0 00 000020 		MOVEI	4,RCVEN		;GET THE BIT
  6420	037644	201 07 0 00 000005 		MOVEI	7,5		;GET # TO DO
  6421	037645	201 06 0 00 004000 		MOVEI	6,TIMER		;GET TIMER BIT
  6422	037646	201 05 0 00 000200 		MOVEI	5,TXDONE	;GET DONE BIT
  6423	037647	201 02 0 00 000020 		MOVEI	2,SEND		;GET THE BIT
  6424	037650	714 03 1 00 041235 		BSIO	3,@TXCSR	;SET MODE START CLOCK
  6425	037651	714 04 1 00 041227 		BSIO	4,@RXCSR	;ENABLE RECIEVER
  6426	037652	714 10 1 00 041227 		BSIO	10,@RXCSR	;ENABLE RECIEVER INTERRUPT
  6427	037653	714 02 1 00 041235 		BSIO	2,@TXCSR	;SET THE BIT
  6428	037654	332 00 0 00 041020 		SKIPE	INTFLG		;TEST FLAG
  6429	037655	254 00 0 00 037713 		JRST	T.74C		;OK GO 2'ND PART
  6430	037656	710 06 1 00 041240 	T.74A:	TIOE	6,@TXDBUF	;TEST TIMER & LOOP
  6431	037657	254 00 0 00 037656 		JRST	.-1		;IF SET
  6432	037660	711 06 1 00 041240 		TION	6,@TXDBUF	;TEST TIMER & LOOP
  6433	037661	254 00 0 00 037660 		JRST	.-1		;IF CLEAR
  6434	037662	367 07 0 00 037656 		SOJG	7,T.74A		;DEC # TO DO & LOOP
  6435	037663	711 05 1 00 041235 		TION	5,@TXCSR	;TEST DONE
  6436						ERROR	(T.74,13,0,0,TEST.74,<STATIC RCVR FCNS RXDONE FAILED TO SET>,PRTSTA)^
  6437	037664	036 13 0 00 046700
  6438	037665	035 00 0 00 037633 		ERLOOP	T.74		;IF ERROR, LOOP TO T.74
  6439	037666	201 03 0 00 000400 		MOVEI	3,TSOM		;GET THE BIT
  6440	037667	713 03 1 00 041240 		WRIO	3,@TXDBUF	;SET START OF MESSAGE
  6441	037670	711 05 1 00 041235 		TION	5,@TXCSR	;WAIT FOR DONE
  6442	037671	254 00 0 00 037670 		JRST	.-1
  6443						CLEAR	TXDBUF		^
  6444	037672	403 01 0 00 000010 		SETZB	1,10
  6445	037673	713 10 1 00 041240 		WRIO	10,@TXDBUF		;LOAD ZEROS INTO SELECTED REG.
  6446	037674	711 05 1 00 041235 		TION	5,@TXCSR	;WAIT FOR DONE
  6447	037675	254 00 0 00 037674 		JRST	.-1
  6448	037676	201 03 0 00 001000 		MOVEI	3,TEOM		;GET THE BIT
DSDUA DECSYSTEM 2020 DUP-11 DIAGNOSTIC VERSION 0,2	MACRO %53(1020) 08:16 15-Jun-79 Page 100-1
DSDUAM	MAC	14-Jun-79 16:28		*STATIC LOGIC TESTS -- .1-.155                                                     SEQ 0190

  6449	037677	713 03 1 00 041240 		WRIO	3,@TXDBUF	;SET END OF MESSAGE
  6450	037700	201 07 0 00 000040 		MOVEI	7,40		;GET # TO DO
  6451	037701	332 00 0 00 041020 		SKIPE	INTFLG		;TEST FLAG
  6452	037702	254 00 0 00 037713 		JRST	T.74C		;OK GO
  6453	037703	710 06 1 00 041240 	T.74B:	TIOE	6,@TXDBUF	;TEST TIMER & LOOP
  6454	037704	254 00 0 00 037703 		JRST	.-1		;IF SET
  6455	037705	711 06 1 00 041240 		TION	6,@TXDBUF	;TEST TIMER & LOOP
  6456	037706	254 00 0 00 037705 		JRST	.-1		;IF CLEAR
  6457	037707	367 07 0 00 037703 		SOJG	7,T.74B		;DEC # TO DO & LOOP
  6458	037710	336 00 0 00 041020 		SKIPN	INTFLG		;TEST FLAG
  6459						ERROR	(T.74,13,0,0,TEST.74,<STATIC RCVR FCNS RECIEVER FAILED TO UNTERRUPT>,PRTSTA
  6460					)^
  6461	037711	036 13 0 00 046713
  6462	037712	035 00 0 00 037633 		ERLOOP	T.74		;IF ERROR, LOOP TO T.74
  6463	037713	402 00 0 00 041020 	T.74C:	SETZM	INTFLG		;CLEAR FLAG FOR 2'ND PART
  6464	037714	201 07 0 00 000005 		MOVEI	7,5		;GET # TO DO
  6465	037715	710 05 1 00 041227 		TIOE	5,@RXCSR	;CLEAR DONE
  6466	037716	710 06 1 00 041240 	T.74C1:	TIOE	6,@TXDBUF	;TEST TIMER & LOOP
  6467	037717	254 00 0 00 037716 		JRST	.-1		;IF SET
  6468	037720	711 06 1 00 041240 		TION	6,@TXDBUF	;TEST TIMER & LOOP
  6469	037721	254 00 0 00 037720 		JRST	.-1		;IF CLEAR
  6470	037722	367 07 0 00 037716 		SOJG	7,T.74C1	;DEC # TO DO & LOOP
  6471	037723	336 00 0 00 041020 		SKIPN	INTFLG		;TEST FLAG
  6472						ERROR	(T.74,13,0,0,TEST.74,<STATIC RCVR FCNS RECIEVER FAILED TO INTERRUPT AFTER S
  6473					ERVICING DONE>,PRTSTA)^
  6474	037724	036 13 0 00 046732
  6475	037725	035 00 0 00 037633 		ERLOOP	T.74		;IF ERROR, LOOP TO T.74
  6476						NXTTST	(74,75)^
  6477	037726	201 05 0 00 000074 		MOVEI	5,74		;GET CURRENT TEST #
  6478	037727	260 17 0 00 040245 		GO	$NXTST		;GO CHECK SWITCHES
  6479	037730	254 00 0 00 037633 		JRST	T.74		;REPEAT SAME TEST
  6480	037731	201 05 0 00 037734 		MOVEI	5,T.75		;GET NXT TEST #
  6481	037732	202 05 0 00 030051 		MOVEM	5,TESTPC	;SAVE ADRS FOR PC
  6482	037733	254 00 0 00 037734 		JRST	T.75		;GO TO NEXT TEST^
  6483
  6484
DSDUA DECSYSTEM 2020 DUP-11 DIAGNOSTIC VERSION 0,2	MACRO %53(1020) 08:16 15-Jun-79 Page 101
DSDUAM	MAC	14-Jun-79 16:28		*STATIC LOGIC TESTS -- .1-.155                                                     SEQ 0191

  6485						XLIST
  6486						LIST
  6487						S^;*********************************************************************^
  6488						COMMENT $
  6489						 TEST.75--*SYSTEM TEST MODE 'TABORT//INTERRUPT' TEST*
  6490							THIS TEST VERIFIES THAT SETTING TABORT WILL REQUEST
  6491						AN INTERRUPT.THIS TEST INITIALISEZ ALL REG'S TO ZEROS,BITS ARE
  6492						SET TO ENABLE INTERRUPT,WE WAIT FOR TXDONE (END OF FLAG)THEN WE
  6493						SET TABORT.THIS SHOULD REQUEST AND CAUSE AN INTERRUPT.ANY
  6494						DISCREPANCIES WILL YIELD AN ERROR PRINTOUT.
  6495						$
  6496						S^;*********************************************************************^
  6497						XLIST
  6498						LIST
  6499
  6500	037734	260 17 0 00 040241 	T.75:	UBACLR			;INIT ADAPTER & DUP LOGIC
  6501	037735	260 17 0 00 040234 		CSINIT			;PRE TEST INITIALIZATION
  6502	037736	201 03 0 00 000001 		MOVEI	3,PIA35		;LOW FO DUP-11(BR5)
  6503	037737	714 03 1 00 041221 		BSIO	3,@UASTAT	;ENABLE ALL INTERRUPTS
  6504	037740	260 17 0 00 040330 		GO	RINTER		;SET UP ADDRESSES
  6505	037741	201 07 0 00 000005 		MOVEI	7,5		;GET # TO DO
  6506	037742	201 03 0 00 000120 		MOVEI	3,RCVEN!RINTEN	;GET THE BITS
  6507	037743	201 04 0 00 000020 		MOVEI	4,SEND		;HERE TOO
  6508	037744	201 06 0 00 004000 		MOVEI	6,TIMER		;GET TIMER BIT
  6509	037745	201 05 0 00 000400 		MOVEI	5,TSOM		;GET THE BIT
  6510	037746	201 02 0 00 002000 		MOVEI	2,TABORT	;HERE TOO
  6511	037747	201 10 0 00 004000 		MOVEI	10,MMODEA	;SYSTST BIT
  6512	037750	714 10 1 00 041235 		BSIO	10,@TXCSR	;SET MODE START CLOCK
  6513	037751	714 03 1 00 041227 		BSIO	3,@RXCSR	;ENABLE RECIEVER & INTERRUPT
  6514	037752	714 04 1 00 041235 		BSIO	4,@TXCSR	;SET THE BIT
  6515	037753	710 06 1 00 041240 	T.75A:	TIOE	6,@TXDBUF	;TEST TIMER & LOOP
  6516	037754	254 00 0 00 037753 		JRST	.-1		;IF SET
  6517	037755	711 06 1 00 041240 		TION	6,@TXDBUF	;TEST TIMER & LOOP
  6518	037756	254 00 0 00 037755 		JRST	.-1		;IF CLEAR
  6519	037757	367 07 0 00 037753 		SOJG	7,T.75A		;DEC # TO DO & LOOP
  6520	037760	201 04 0 00 000200 		MOVEI	4,TXDONE	;GET DONE
  6521	037761	711 04 1 00 041235 		TION	4,@TXCSR	;TEST THE BIT
  6522						ERROR	(T.75,13,0,0,TEST.75,<STATIC TRNSMTR FCNS TXDONE NOT SET>,PRTSTA)^
  6523	037762	036 13 0 00 046745
  6524	037763	035 00 0 00 037734 		ERLOOP	T.75		;IF ERROR, LOOP TO T.75
  6525	037764	713 05 1 00 041240 		WRIO	5,@TXDBUF	;SET TSOM
  6526	037765	711 04 1 00 041235 		TION	4,@TXCSR	;WAIT FOR
  6527	037766	254 00 0 00 037765 		JRST	.-1		;DONE
  6528						CLEAR	TXDBUF^
  6529	037767	403 01 0 00 000010 		SETZB	1,10
  6530	037770	713 10 1 00 041240 		WRIO	10,@TXDBUF		;LOAD ZEROS INTO SELECTED REG.
  6531	037771	711 04 1 00 041235 		TION	4,@TXCSR	;WAIT FOR DONE
  6532	037772	254 00 0 00 037771 		JRST	.-1
  6533	037773	714 02 1 00 041240 		BSIO	2,@TXDBUF	;SET ABORT
  6534	037774	201 07 0 00 000075 		MOVEI	7,75		;GET # TO DO
DSDUA DECSYSTEM 2020 DUP-11 DIAGNOSTIC VERSION 0,2	MACRO %53(1020) 08:16 15-Jun-79 Page 102
DSDUAM	MAC	14-Jun-79 16:28		*STATIC LOGIC TESTS -- .1-.155                                                     SEQ 0192

  6535	037775	710 06 1 00 041240 	T.75B:	TIOE	6,@TXDBUF	;TEST TIMER & LOOP
  6536	037776	254 00 0 00 037775 		JRST	.-1		;IF SET
  6537	037777	711 06 1 00 041240 		TION	6,@TXDBUF	;TEST TIMER & LOOP
  6538	040000	254 00 0 00 037777 		JRST	.-1		;IF CLEAR
  6539	040001	367 07 0 00 037775 		SOJG	7,T.75B		;DEC # TO DO & LOOP
  6540	040002	336 00 0 00 041020 		SKIPN	INTFLG		;TEST FLAG
  6541						ERROR	(T.75,13,0,0,TEST.75,<STATIC RCVR FCNS FAILED TO INTERRUPT AFTER ABORT>,PRT
  6542					STA)^
  6543	040003	036 13 0 00 046761
  6544	040004	035 00 0 00 037734 		ERLOOP	T.75		;IF ERROR, LOOP TO T.75
  6545						NXTTST	(75,76)^
  6546	040005	201 05 0 00 000075 		MOVEI	5,75		;GET CURRENT TEST #
  6547	040006	260 17 0 00 040245 		GO	$NXTST		;GO CHECK SWITCHES
  6548	040007	254 00 0 00 037734 		JRST	T.75		;REPEAT SAME TEST
  6549	040010	201 05 0 00 040013 		MOVEI	5,T.76		;GET NXT TEST #
  6550	040011	202 05 0 00 030051 		MOVEM	5,TESTPC	;SAVE ADRS FOR PC
  6551	040012	254 00 0 00 040013 		JRST	T.76		;GO TO NEXT TEST^
  6552
  6553
  6554
  6555	040013	254 00 0 00 030057 	T.76:	JRST	BEGEND
  6556
  6557
  6558
DSDUA DECSYSTEM 2020 DUP-11 DIAGNOSTIC VERSION 0,2	MACRO %53(1020) 08:16 15-Jun-79 Page 103
DSDUAM	MAC	14-Jun-79 16:28		*STATIC LOGIC TESTS -- .1-.155                                                     SEQ 0193

  6559					S^;*********************************************************************^
  6560						SUBTTL	DUP-11 HELP AND ERROR INTERRUPT ROUTINES
  6561					S^;*********************************************************************^
  6562
  6563
  6564
  6565
  6566	040014	127 122 117 116 107 	WRFORM:	ASCIZ/WRONG COMMAND FORMAT. TYPE "?" FOR LISTING OF CORRECT FORMAT.
  6567	040015	040 103 117 115 115
  6568	040016	101 116 104 040 106
  6569	040017	117 122 115 101 124
  6570	040020	056 040 124 131 120
  6571	040021	105 040 042 077 042
  6572	040022	040 106 117 122 040
  6573	040023	114 111 123 124 111
  6574	040024	116 107 040 117 106
  6575	040025	040 103 117 122 122
  6576	040026	105 103 124 040 106
  6577	040027	117 122 115 101 124
  6578	040030	056 015 012 000 000 	/
  6579
  6580	040031	011 103 117 122 122 	CORFRM:	ASCIZ?	CORRECT COMMAND FORMAT:
  6581	040032	105 103 124 040 103
  6582	040033	117 115 115 101 116
  6583	040034	104 040 106 117 122
  6584	040035	115 101 124 072 015
  6585
  6586	040036	012 015 012 130 130 	XX-YY(CR)
  6587	040037	055 131 131 050 103
  6588	040040	122 051 015 012 015
  6589	040041	012 127 110 105 122 	WHERE	XX=NUMBER OF FIRST TEST
  6590	040042	105 011 130 130 075
  6591	040043	116 125 115 102 105
  6592	040044	122 040 117 106 040
  6593	040045	106 111 122 123 124
  6594	040046	040 124 105 123 124
  6595	040047	015 012 011 131 131 		YY=NUMBER OF FINAL TEST
  6596	040050	075 116 125 115 102
  6597	040051	105 122 040 117 106
  6598	040052	040 106 111 116 101
  6599	040053	114 040 124 105 123
  6600
  6601	040054	124 015 012 015 012 	IF ONLY ONE TEST IS TO BE PERFORMED, "-YY" MAY BE OMITTED.
  6602	040055	111 106 040 117 116
  6603	040056	114 131 040 117 116
  6604	040057	105 040 124 105 123
  6605	040060	124 040 111 123 040
  6606	040061	124 117 040 102 105
  6607	040062	040 120 105 122 106
  6608	040063	117 122 115 105 104
  6609	040064	054 040 042 055 131
  6610	040065	131 042 040 115 101
  6611	040066	131 040 102 105 040
  6612	040067	117 115 111 124 124
  6613	040070	105 104 056 015 012 	TYPING ONLY "(CR)" WILL REPEAT THE TESTS THAT WERE PREVIOUSLY PERFORMED.
DSDUA DECSYSTEM 2020 DUP-11 DIAGNOSTIC VERSION 0,2	MACRO %53(1020) 08:16 15-Jun-79 Page 103-1
DSDUAM	MAC	14-Jun-79 16:28		DUP-11 HELP AND ERROR INTERRUPT ROUTINES                                           SEQ 0194

  6614	040071	124 131 120 111 116
  6615	040072	107 040 117 116 114
  6616	040073	131 040 042 050 103
  6617	040074	122 051 042 040 127
  6618	040075	111 114 114 040 122
  6619	040076	105 120 105 101 124
  6620	040077	040 124 110 105 040
  6621	040100	124 105 123 124 123
  6622	040101	040 124 110 101 124
  6623	040102	040 127 105 122 105
  6624	040103	040 120 122 105 126
  6625	040104	111 117 125 123 114
  6626	040105	131 040 120 105 122
  6627	040106	106 117 122 115 105
  6628	040107	104 056 015 012 124 	TYPING "A (CR)" WILL EXECUTE TESTS .1 TO .XXX IN EXEC MODE.
  6629	040110	131 120 111 116 107
  6630	040111	040 042 101 040 050
  6631	040112	103 122 051 042 040
  6632	040113	127 111 114 114 040
  6633	040114	105 130 105 103 125
  6634	040115	124 105 040 124 105
  6635	040116	123 124 123 040 056
  6636	040117	061 040 124 117 040
  6637	040120	056 130 130 130 040
  6638	040121	111 116 040 105 130
  6639	040122	105 103 040 115 117
  6640	040123	104 105 056 015 012
  6641	040124	015 012 000 000 000 	?
  6642
DSDUA DECSYSTEM 2020 DUP-11 DIAGNOSTIC VERSION 0,2	MACRO %53(1020) 08:16 15-Jun-79 Page 104
DSDUAM	MAC	14-Jun-79 16:28		DUP-11 HELP AND ERROR INTERRUPT ROUTINES                                           SEQ 0195

  6643					;SUBROUTINE FOR DUP-11 OFF-LINE ERROR CHECKING
  6644					;WE GET HERE BY "JSR LPINTR" IN ROUTINE "ISO".
  6645					;THE ROUTINE RINGS THE BELL OF THE TTY AND
  6646					;WAITS UNTIL THE DUP-11 IS PLACED ON LINE AGAIN
  6647					;ONLINE FOR THE DUP-11 IS INDICATED BY DATA SET READY (1).
  6648
  6649	040125	000000	000000		LPINTR:	0
  6650	040126	202 00 0 00 043544 		MOVEM	0,INTSAV#
  6651	040127	261 17 0 00 000001 		PUT	1
  6652	040130	261 17 0 00 000002 		PUT	2
  6653	040131	261 17 0 00 000003 		PUT	3
  6654	040132	201 00 0 00 030256 		MOVEI	0,BELL
  6655	040133	037 00 0 00 000000 	RNGBLL:	PNTA
  6656						CHKCON^
  6657	040134	201 06 0 00 000002 		MOVEI	6,DTR		;DTR BIT
  6658	040135	714 06 1 00 041227 		BSIO	6,@RXCSR	;SET DTR (SETS DSR)
  6659	040136	400 01 0 00 000000 		SETZ	1,
  6660	040137	200 04 0 00 041227 		MOVE	4,RXCSR			;DUP-11 STATUS REG
  6661	040140	201 02 0 00 001000 		MOVEI	2,DSR			;DATA SET READY BIT
  6662	040141	711 02 0 04 000000 		TION	2,(4)			;TEST ON LINE CONDITION
  6663	040142	254 00 0 00 040134 		JRST	.-6
  6664	040143	201 00 0 00 046764 		MOVEI	0,[ASCIZ/DATA SET READY IS SET!/]
  6665	040144	037 17 0 00 000001 		PNTALF
  6666	040145	037 01 0 00 030242 		PCRLF
  6667	040146	200 00 0 00 043544 		MOVE	0,INTSAV
  6668	040147	262 17 0 00 000001 		GET	1
  6669	040150	262 17 0 00 000002 		GET	2
  6670	040151	262 17 0 00 000003 		GET	3
  6671	040152	254 00 0 00 040170 	NLSTORE:JRST	ISO1
  6672
  6673
  6674
DSDUA DECSYSTEM 2020 DUP-11 DIAGNOSTIC VERSION 0,2	MACRO %53(1020) 08:16 15-Jun-79 Page 105
DSDUAM	MAC	14-Jun-79 16:28		DUP-11 HELP AND ERROR INTERRUPT ROUTINES                                           SEQ 0196

  6675					;SUPPLEMENTAL ERROR PRINTOUT ROUTINE
  6676
  6677	040153				PRTSTA:	LPSTAT	^		;STATUS INFO
  6678	040153	264 00 0 00 040432 		JSR	STATUS		;PRINT STANDARD STATUS!
  6679	040154	264 00 0 00 040613 		JSR	XDPNT		;PRINT AC BLOCK LESS AC1
  6680	040155	264 00 0 00 040157 		JSR	ISO		;CALL ISOLATION
  6681	040156	263 17 0 00 000000 		RTN
  6682
  6683					;BASIC HELP ROUTINE BEGINS HERE
  6684
  6685	040157	000000	000000		ISO:	0
  6686						CHKCON^
  6687	040160	201 06 0 00 000002 		MOVEI	6,DTR		;DTR BIT
  6688	040161	714 06 1 00 041227 		BSIO	6,@RXCSR	;SET DTR (SETS DSR)
  6689	040162	403 01 0 00 000006 		SETZB	1,6		;INITIALIZE REGS
  6690	040163	200 03 0 00 041230 		MOVE	3,RXCSRL	;ADDRESS OF RXCSR REG
  6691	040164	712 06 0 03 000000 		RDIO	6,(3)		;READ RXCSR REGISTER
  6692	040165	620 06 0 00 600000 		TRZ	6,600000	;GET RID OF BITS 17-16
  6693	040166	606 06 0 00 001000 		TRNN	6,DSR		;TEST FOR DATA SET READY (RXCSR BIT 09)
  6694	040167	254 00 0 00 040203 		JRST	EP1		;DSR=0,PRINT HELP MSG 1
  6695
  6696
  6697					;THIS CHECK IS CONTROLLED BY FLAG 'MMFLG' IF MMFLG=0,SKIP THIS CHECK!
  6698
  6699	040170	200 00 0 00 041017 	ISO1:	MOVE	0,MMFLG		;GET HELP FLAG
  6700	040171	322 00 0 00 040202 		JUMPE	0,ISOEX		;EXIT IF FLAG=0
  6701	040172	200 03 0 00 041235 		MOVE	3,TXCSR		;ADDRESS OF TXCSR REG
  6702	040173	400 01 0 00 000006 		SETZ	1,6		;INITIALIZE REGS
  6703	040174	712 06 0 03 000000 		RDIO	6,(3)		;READ TXCSR REGISTER
  6704	040175	620 06 0 00 600000 		TRZ	6,600000	;GET RID OF BITS 17-16
  6705	040176	606 06 0 00 004000 		TRNN	6,MMODEA	;TEST FOR MAINT MODE SEL A
  6706	040177	254 00 0 00 040207 		JRST	EP2		;PRINT HELP MSG 2
  6707	040200	606 06 0 00 010000 		TRNN	6,MMODEB	;TEST FOR MAINT MODE SEL B
  6708	040201	254 00 0 00 040207 		JRST	EP2		;PRINT HELP MSG 2
  6709
  6710	040202	254 00 1 00 040157 	ISOEX:	JRST	@ISO		;EXIT
  6711
DSDUA DECSYSTEM 2020 DUP-11 DIAGNOSTIC VERSION 0,2	MACRO %53(1020) 08:16 15-Jun-79 Page 106
DSDUAM	MAC	14-Jun-79 16:28		DUP-11 HELP AND ERROR INTERRUPT ROUTINES                                           SEQ 0197

  6712					;HELP PRINTERS
  6713
  6714	040203	201 00 0 00 046771 	EP1:	MOVEI	0,[ASCIZ/DATA SET READY (BIT 09 IN RXCSR) CLEAR./]
  6715	040204	037 17 0 00 000000 		PNTAL
  6716	040205	037 01 0 00 030242 		PCRLF
  6717	040206	254 00 0 00 040213 		JRST	EP1A		;CONTINUE HELP
  6718
  6719	040207	201 00 0 00 047001 	EP2:	MOVEI	0,[ASCIZ/MAINT MODE SEL A AND B NOT BOTH SET IN TXCSR./]
  6720	040210	037 17 0 00 000000 		PNTAL
  6721	040211	037 01 0 00 030242 		PCRLF
  6722	040212	254 00 0 00 040220 		JRST	EP2A		;CONTINUE HELP
  6723
  6724
  6725
  6726					;ADDITIONAL HELP PRINTERS
  6727
  6728					EP1A:	MOVEI	0,[ASCIZ/ANALYSIS: ANY OF THE FOLLOWING CAN
  6729						CAUSE DSR TO BE CLEAR;
  6730							1.) BC05 CABLE NOT CONNECTED BETWEEN DUP-11 AND H325
  6731							2.) FAULTY BC05 CABLE CONNECTED BETWEEN DUP-11 AND H325
  6732							3.)FAULTY H325 CONNECTER AT END OF BC05 CABLE
  6733							4.) DUP-11 LOGIC FAULT
  6734	040213	201 00 0 00 047013 			5.) OTHER UNIDENTIFIED FAULT CONDITION/]
  6735	040214	037 17 0 00 000000 		PNTAL
  6736	040215	037 01 0 00 030242 		PCRLF
  6737	040216	264 00 0 00 040125 		JSR	LPINTR
  6738	040217	254 00 0 00 040170 		JRST	ISO1		;PERFORM NEXT CHECK
  6739
  6740					EP2A:	MOVEI	0,[ASCIZ/ANALYSIS: A FAULT CONDITION IS PRESENT
  6741						OR ASSOCIATED WITH THE TXCSR REGISTER-DUP-11 IS NOT IN
  6742	040220	201 00 0 00 047106 		'INTERNAL MAINT MODE'--IT SHOULD BE!!/]
  6743	040221	037 17 0 00 000000 		PNTAL
  6744	040222	037 01 0 00 030242 		PCRLF
  6745	040223	254 00 0 00 040202 		JRST	ISOEX		;EXIT THIS CODE
  6746
  6747
  6748					;END OF HELP ROUTINE
  6749
  6750
  6751					;SIMPLE PAGE FAULT TRAP HANDLER FOR THE CASE WHEN A DUP-11 REGISTER
  6752					;ACCESS TIMESOUT.
  6753
  6754	040224	200 00 0 00 043552 	T.1PF:	MOVE	0,SVPFPC	;GET READY TO RESTORE STD PF PC
  6755	040225	202 00 0 00 000502 		MOVEM	0,LPGFTR	;RESTORE STD
  6756	040226	200 00 0 00 000500 		MOVE	0,LEUPFW	;OBTAIN A COPY OF PF WORD
  6757	040227	242 00 0 00 000001 		LSH	0,1		;GET RID OF USER BIT
  6758	040230	242 00 0 00 777741 		LSH	0,-^D31		;RIGHT ALLIGN PF CODE IN AC0
  6759	040231	302 00 0 00 000020 		CAIE	0,20		;TEST FOR IO TIMEOUT CODE
  6760	040232	254 00 1 00 000502 		JRST	@LPGFTR		;NOT IO PF-JUMP TO STD HANDLER
  6761	040233	254 00 1 00 043550 		JRST	@PFRTN		;IT IS-REENTER TEST AT SPECIFIED ADR.
  6762
DSDUA DECSYSTEM 2020 DUP-11 DIAGNOSTIC VERSION 0,2	MACRO %53(1020) 08:16 15-Jun-79 Page 107
DSDUAM	MAC	14-Jun-79 16:28		DUP-11 HELP AND ERROR INTERRUPT ROUTINES                                           SEQ 0198

  6763					;THIS ROUTINE CLEARS ALL DUP-11 REGISTERS
  6764
  6765	040234	037 07 0 00 000003 	$CSINIT:TTALTM
  6766	040235	400 01 0 00 000000 		SETZ	1,		;CLEAR INDEX REG.
  6767	040236	201 06 0 00 000400 		MOVEI	6,MRESET	;INIT ALL REG.
  6768	040237	713 06 1 00 041235 		WRIO	6,@TXCSR	;WRITE REG WORD
  6769	040240	263 17 0 00 000000 		RTN
  6770
  6771					;THIS ROUTINE CLEARS UBA
  6772
  6773	040241	403 01 0 00 000006 	$UBACLR:SETZB	1,6
  6774	040242	201 06 0 00 740000 		MOVEI	6,740000	;MUST LOAD 1'S TO CLEAR BITS 18-21
  6775	040243	713 06 1 00 041221 		WRIO	6,@UASTAT	;CLEAR UNIBUS ADAPTER STATUS
  6776	040244	263 17 0 00 000000 		RTN
  6777
  6778					;ROUTINE TO SET UP NEXT TEST AT END OF EACH TEST
  6779
  6780	040245	037 10 0 00 000002 	$NXTST:	SWITCH
  6781	040246	607 00 0 00 000400 		TLNN	0,RELIAB	;TEST FOR RELIABILITY MODE
  6782	040247	254 00 0 00 040255 		JRST	$XTXS1		;NOT RELIABILITY MODE
  6783	040250	200 00 0 00 043540 		MOVE	0,ERRLOP	;GET -LOOP COUNT
  6784	040251	322 00 0 00 040255 		JUMPE	0,$XTXS1	;JUMP IF LOOP COUNT =0
  6785	040252	350 00 0 00 000000 		AOS	0,
  6786	040253	202 00 0 00 043540 		MOVEM	0,ERRLOP	;STORE ADJUSTED
  6787	040254	263 17 0 00 000000 		RTN			;RETURN TO SAME TEST
  6788	040255	571 00 0 00 777766 	$XTXS1:	HRREI	0,-^D10
  6789	040256	202 00 0 00 043540 		MOVEM	0,ERRLOP
  6790	040257	200 00 0 00 043537 		MOVE	0,ENDTST
  6791	040260	312 00 0 00 000005 		CAME	0,5		;TEST TO SEE IF LAST TEST
  6792	040261	254 00 0 00 030064 		JRST	CPOPJ1		;SKIP RETURN TO NXT TST
  6793	040262	262 17 0 00 043542 		GET 	GARBAGE#	;CLEAN STACK
  6794	040263	037 10 0 00 000002 		SWITCH
  6795	040264	602 00 0 00 000200 		TRNE	CONTU		;TEST TO SEE IF REPEAT SWITCH
  6796	040265	254 00 0 00 031052 		JRST	STARTA		;YES-GO REPEAT THIS TEST
  6797	040266	254 00 0 00 030755 		JRST	ASTRSK		;NO-GO ACCEPT COMMANDS
DSDUA DECSYSTEM 2020 DUP-11 DIAGNOSTIC VERSION 0,2	MACRO %53(1020) 08:16 15-Jun-79 Page 108
DSDUAM	MAC	14-Jun-79 16:28		DUP-11 HELP AND ERROR INTERRUPT ROUTINES                                           SEQ 0199

  6798					;HELP ROUTINE TO SIMULATE A SOFTWARE BCC (SEE T.43)
  6799					;FOR DUP-11 (SEE MANUAL)
  6800
  6801	040267	403 05 0 00 000006 	SBCC:	SETZB	5,6
  6802	040270	525 02 0 00 600000 		HRLOI	2,600000	;SET FOR CLEANING
  6803	040271	200 04 1 00 000013 		MOVE	4,@13		;GET DATA
  6804	040272	200 03 0 00 047142 		MOVE	3,[104020400]	;SET POLYNOMIAL ADJUSTED
  6805	040273	200 07 0 00 047143 		MOVE	7,[77777400]	;SET # TO ADD
  6806	040274	242 04 0 00 000017 		LSH	4,^D15		;SHIFT DATA BY #POL-1
  6807	040275	430 04 0 00 000007 		XOR	4,7		;ADD # TO DATA
  6808	040276	201 10 0 00 000010 		MOVEI	10,10		;SET # OF SHIFTS
  6809	040277	612 04 0 00 047144 	SBCC1:	TDNE	4,[1B11]	;TEST LAST BIT =0?
  6810	040300	430 04 0 00 000003 		XOR	4,3		;NO-XOR WITH POLY
  6811	040301	242 04 0 00 000001 		LSH	4,1		;YES-SHIFT FOR MORE
  6812	040302	365 10 0 00 040277 		SOJGE	10,SBCC1	;DONE 8. SHIFTS YET
  6813	040303	242 04 0 00 777770 		LSH	4,-10		;ADJUST BCC
  6814	040304	201 10 0 00 000020 		MOVEI	10,^D16		;GET #  OF SHIFTS
  6815	040305	245 04 0 00 777777 	SBCC2:	ROTC	4,-1		;GET BCC
  6816	040306	245 05 0 00 000001 		ROTC	5,1		;AND SWAP
  6817	040307	365 10 0 00 040305 		SOJGE	10,SBCC2	;ALL 16 BITS INTO AC6
  6818	040310	450 06 0 00 000000 		SETCA	6,		;COMPLEMENT BCC
  6819	040311	631 06 0 00 000002 		TSZ	6,2		;CLEAR EXTRA BITS
  6820	040312	202 06 0 00 034253 		MOVEM	6,CALBCC	;STORE IT
  6821	040313	263 17 0 00 000000 		RTN
  6822
  6823
  6824					;ROUTINE TO GET BCC FROM HRDWR
  6825
  6826	040314	525 02 0 00 600000 	ACC:	HRLOI	2,600000	;SET FOR CLEANING
  6827	040315	200 05 0 00 047145 		MOVE	5,[1B20]	;BUT 1 IN BIT 20
  6828	040316				ACC1:	PKCLK	2		^;PULSE CLOCK
  6829	040316	201 11 0 00 000002 		MOVEI	11,^D2		;CLOCK TICK ARGUMENT
  6830	040317	264 00 0 00 040560 		JSR	DUPCLK		;CALL PKCLK ROUTINE
  6831	040320	241 05 0 00 777777 		ROT	5,-1		;DEC # TO DO
  6832	040321	201 06 0 00 040000 		MOVEI	6,MTDATA	;CHECK MAINT
  6833	040322	710 06 1 00 041235 		TIOE	6,@TXCSR	;DATA?
  6834	040323	270 05 0 00 047145 		ADD	5,[1B20]	;MTDATA=1,PUSH IT INTO 5
  6835	040324	616 05 0 00 047146 		TDNN	5,[1B0]		;CHECK ALL DONE YET?
  6836	040325	254 00 0 00 040316 		JRST	ACC1		;NO GO GET ALL 16
  6837	040326	631 05 0 00 000002 		TSZ	5,2		;CLEAR EXTRA BITS
  6838	040327	263 17 0 00 000000 		RTN
  6839
DSDUA DECSYSTEM 2020 DUP-11 DIAGNOSTIC VERSION 0,2	MACRO %53(1020) 08:16 15-Jun-79 Page 109
DSDUAM	MAC	14-Jun-79 16:28		DUP-11 HELP AND ERROR INTERRUPT ROUTINES                                           SEQ 0200

  6840					;ROUTINES TO SETUP RECIEVER & TRANSMITTER VECTOR INTERRUPTS
  6841
  6842	040330	201 04 0 00 000177 	RINTER:	MOVEI	4,177		;GET TABLE SIZE
  6843	040331	200 05 0 00 047147 		MOVE	5,[JSR	WRGINT]	;WRONG INTERRUPT MESSAGE ADDRESS
  6844	040332	201 06 0 00 041021 		MOVEI	6,PITAB		;GET TABLE ADDRESS
  6845	040333	270 06 0 00 000004 		ADD	6,4		;ADD INDEX
  6846	040334	202 05 1 00 000006 		MOVEM	5,@6		;STORE MESSAGE IN TABLE
  6847	040335	365 04 0 00 040332 		SOJGE	4,.-3		;LOOP TO COMPLETE TABLE
  6848	040336	402 00 0 00 041020 		SETZM	INTFLG		;CLESR INTERRUPT FLAG
  6849	040337	260 17 0 00 040520 		GO	UNIT01		;GO GET UBA & DUP #'S
  6850	040340	200 04 0 00 041224 		MOVE	4,VECTOR	;LOAD AC4
  6851	040341	242 04 0 00 777776 		LSH	4,-2		;DIVID BY 4
  6852	040342	201 06 0 00 041021 		MOVEI	6,PITAB		;GET TABLE ADDRESS
  6853	040343	270 04 0 00 000006 		ADD	4,6		;ADD INDEX TOO
  6854	040344	200 05 0 00 047150 		MOVE	5,[JSR	IFLG]	;LAOD ADDRESS TO SET INTFLG
  6855	040345	202 05 1 00 000004 		MOVEM	5,@4		;STORE IN TABLE
  6856	040346	271 04 0 00 000001 		ADDI	4,1		;INCREMENT
  6857	040347	200 05 0 00 047151 		MOVE	5,[JSR	TIMSG]	;STORE WRONG INTERRUPT ROUTINE ADDRESS
  6858	040350	202 05 1 00 000004 		MOVEM	5,@4
  6859	040351	200 03 0 00 043554 		MOVE	3,XUBA		;GET UBA#
  6860	040352	606 03 0 00 000003 		TRNN	3,3		;IS IT # 3
  6861	040353	254 00 0 00 040356 		JRST	.+3		;NO
  6862	040354	202 06 0 00 000103 		MOVEM	6,103		;YES STORE TABLE ADDRESS
  6863	040355	254 00 0 00 040357 		JRST	.+2
  6864	040356	202 06 0 00 000101 		MOVEM	6,101		;STORE TABLE ADDRESS FOR UBA#1
  6865	040357	263 17 0 00 000000 		RTN
  6866
  6867	040360	201 04 0 00 000177 	TINTER:	MOVEI	4,177		;GET TABLE SIZE
  6868	040361	200 05 0 00 047147 		MOVE	5,[JSR	WRGINT]	;WRONG INTERRUPT MESSAGE ADDRESS
  6869	040362	201 06 0 00 041021 		MOVEI	6,PITAB		;GET TABLE ADDRESS
  6870	040363	270 06 0 00 000004 		ADD	6,4		;ADD INDEX
  6871	040364	202 05 1 00 000006 		MOVEM	5,@6		;STORE MESSAGE IN TABLE
  6872	040365	365 04 0 00 040362 		SOJGE	4,.-3		;LOOP FOR TO COMPLETE TABLE
  6873	040366	402 00 0 00 041020 		SETZM	INTFLG
  6874	040367	260 17 0 00 040520 		GO	UNIT01
  6875	040370	200 04 0 00 041224 		MOVE	4,VECTOR
  6876	040371	242 04 0 00 777776 		LSH	4,-2
  6877	040372	201 06 0 00 041021 		MOVEI	6,PITAB
  6878	040373	270 04 0 00 000006 		ADD	4,6
  6879	040374	200 05 0 00 047152 		MOVE	5,[JSR	RIMSG]
  6880	040375	202 05 1 00 000004 		MOVEM	5,@4
  6881	040376	200 05 0 00 047150 		MOVE	5,[JSR	IFLG]
  6882	040377	271 04 0 00 000001 		ADDI	4,1
  6883	040400	202 05 1 00 000004 		MOVEM	5,@4
  6884	040401	200 03 0 00 043554 		MOVE	3,XUBA
  6885	040402	606 03 0 00 000003 		TRNN	3,3
  6886	040403	254 00 0 00 040406 		JRST	.+3
  6887	040404	202 06 0 00 000103 		MOVEM	6,103
  6888	040405	254 00 0 00 040407 		JRST	.+2
  6889	040406	202 06 0 00 000101 		MOVEM	6,101
  6890	040407	263 17 0 00 000000 		RTN
  6891
  6892
DSDUA DECSYSTEM 2020 DUP-11 DIAGNOSTIC VERSION 0,2	MACRO %53(1020) 08:16 15-Jun-79 Page 110
DSDUAM	MAC	14-Jun-79 16:28		DUP-11 HELP AND ERROR INTERRUPT ROUTINES                                           SEQ 0201

  6893					;ROUTINES TO SETUP INTERRUPT FLAG AND OR PRINT UNEXPECTED
  6894					;INTERRUPT MESSAGES
  6895
  6896	040410	000000	000000		WRGINT:	0
  6897	040411	201 00 0 00 047153 		MOVEI	0,[ASCIZ/DUP-11 INTERRUPTED ON WRONG VECTOR/]
  6898	040412	037 17 0 00 000000 		PNTAL
  6899	040413	037 01 0 00 030242 		PCRLF
  6900	040414	254 12 1 00 040410 		JEN	@WRGINT
  6901
  6902	040415	000000	000000		IFLG:	0
  6903	040416	476 00 0 00 041020 		SETOM	INTFLG
  6904	040417	254 12 1 00 040415 		JEN	@IFLG
  6905
  6906	040420	000000	000000		TIMSG:	0
  6907	040421	201 00 0 00 047162 		MOVEI	0,[ASCIZ/ERROR....UNEXPECTED TRANSMITTER INTERRUPT/]
  6908	040422	037 17 0 00 000000 		PNTAL
  6909	040423	037 01 0 00 030242 		PCRLF
  6910	040424	254 12 1 00 040420 		JEN	@TIMSG
  6911
  6912	040425	000000	000000		RIMSG:	0
  6913	040426	201 00 0 00 047173 		MOVEI	0,[ASCIZ/ERROR....UNEXPECTED RECIEVER INTERRUPT/]
  6914	040427	037 17 0 00 000000 		PNTAL
  6915	040430	037 01 0 00 030242 		PCRLF
  6916	040431	254 12 1 00 040425 		JEN	@RIMSG
  6917
  6918
DSDUA DECSYSTEM 2020 DUP-11 DIAGNOSTIC VERSION 0,2	MACRO %53(1020) 08:16 15-Jun-79 Page 111
DSDUAM	MAC	14-Jun-79 16:28		DUP-11 HELP AND ERROR INTERRUPT ROUTINES                                           SEQ 0202

  6919					;ROUTINE TO OBTAIN STATUS INFORMATION FROM CSRA,CSRB,UASTAT.
  6920
  6921	040432	000000	000000		STATUS:	0
  6922						STATLP	^		;STATUS INFO
  6923	040433	037 01 0 00 030242 		PCRLF
  6924	040434	201 00 0 00 047203 		MOVEI	0,[ASCIZ/********************/]
  6925	040435	037 17 0 00 000000 		PNTAL
  6926	040436	037 01 0 00 030242 		PCRLF
  6927	040437	201 00 0 00 047210 		MOVEI	0,[ASCIZ/RXCSR :/]
  6928	040440	037 17 0 00 000000 		PNTAL
  6929	040441	403 15 0 00 000001 		SETZB	15,1		;INITIALIZE REGS
  6930	040442	712 00 1 00 041227 		RDIO	0,@RXCSR		;READ UNIBUS REG
  6931	040443	037 13 0 00 000000 		PNTHW
  6932	040444	037 01 0 00 030242 		PCRLF
  6933	040445	201 00 0 00 047212 		MOVEI	0,[ASCIZ/RXDBUF:/]
  6934	040446	037 17 0 00 000000 		PNTAL
  6935	040447	403 15 0 00 000001 		SETZB	15,1		;INITIALIZE REGS
  6936	040450	712 00 1 00 041232 		RDIO	0,@RXDBUF		;READ UNIBUS REG
  6937	040451	037 13 0 00 000000 		PNTHW
  6938	040452	037 01 0 00 030242 		PCRLF
  6939	040453	201 00 0 00 047214 		MOVEI	0,[ASCIZ/TXCSR :/]
  6940	040454	037 17 0 00 000000 		PNTAL
  6941	040455	403 15 0 00 000001 		SETZB	15,1		;INITIALIZE REGS
  6942	040456	712 00 1 00 041235 		RDIO	0,@TXCSR		;READ UNIBUS REG
  6943	040457	037 13 0 00 000000 		PNTHW
  6944	040460	037 01 0 00 030242 		PCRLF
  6945	040461	201 00 0 00 047216 		MOVEI	0,[ASCIZ/TXDBUF:/]
  6946	040462	037 17 0 00 000000 		PNTAL
  6947	040463	403 15 0 00 000001 		SETZB	15,1		;INITIALIZE REGS
  6948	040464	712 00 1 00 041240 		RDIO	0,@TXDBUF		;READ UNIBUS REG
  6949	040465	037 13 0 00 000000 		PNTHW
  6950	040466	037 01 0 00 030242 		PCRLF
  6951	040467	201 00 0 00 047220 		MOVEI	0,[ASCIZ/UASTAT:/]
  6952	040470	037 17 0 00 000000 		PNTAL
  6953	040471	403 15 0 00 000001 		SETZB	15,1		;INITIALIZE REGS
  6954	040472	712 00 1 00 041221 		RDIO	0,@UASTAT		;READ UNIBUS REG
  6955	040473	037 13 0 00 000000 		PNTHW
  6956	040474	037 01 0 00 030242 		PCRLF
  6957	040475	254 00 1 00 040432 		JRST	@STATUS
  6958
DSDUA DECSYSTEM 2020 DUP-11 DIAGNOSTIC VERSION 0,2	MACRO %53(1020) 08:16 15-Jun-79 Page 112
DSDUAM	MAC	14-Jun-79 16:28		DUP-11 HELP AND ERROR INTERRUPT ROUTINES                                           SEQ 0203

  6959					;ROUTINE TO PROVIDE STATUS MAP OF DUP-11
  6960
  6961	040476	201 00 0 00 047222 	MAPDU:	MOVEI	0,[ASCIZ/* INITIAL DUP STATUS MAP */]
  6962	040477	037 17 0 00 000000 		PNTAL
  6963	040500	037 01 0 00 030242 		PCRLF
  6964	040501	037 01 0 00 030242 		PCRLF
  6965	040502	260 17 0 00 040520 		GO	UNIT01		;FIND UNIT #'S
  6966	040503	201 00 0 00 047230 		MOVEI	0,[ASCIZ/UNIBUS ADAPTER IS #/]
  6967	040504	037 17 0 00 000000 		PNTAL
  6968	040505	200 00 0 00 043554 		MOVE	0,XUBA		;GET UBA#
  6969	040506	037 02 0 00 000001 		PNT2F			;PRINT IT
  6970	040507	037 01 0 00 030242 		PCRLF
  6971	040510	201 00 0 00 047234 		MOVEI	0,[ASCIZ/DUP11 IS          #/]
  6972	040511	037 17 0 00 000000 		PNTAL
  6973	040512	200 00 0 00 043553 		MOVE	0,XDUP		;GET DUP#
  6974	040513	037 02 0 00 000001 		PNT2F			;PRINT IT
  6975	040514	037 01 0 00 030242 		PCRLF
  6976	040515	037 01 0 00 030242 		PCRLF
  6977	040516	264 00 0 00 040432 		JSR	STATUS		;GET AND PRINT STATUS
  6978	040517	263 17 0 00 000000 		RTN
  6979
  6980
  6981					;ROUTINE TO GET UBA# AND DUP# FROM EXTBIT
  6982
  6983	040520	402 00 0 00 043554 	UNIT01:	SETZM	XUBA#		;STORAGE FOR UBA#
  6984	040521	402 00 0 00 043553 		SETZM	XDUP#		;STORAGE FOR DUP#
  6985	040522	200 00 0 00 043541 		MOVE	0,EXTBIT	;GET A COPY OF EXTBIT WORD
  6986	040523	607 00 0 00 000002 		TLNN	0,2		;TEST BIT 16
  6987	040524	254 00 0 00 040530 		JRST	UNIT12		;UNIT IS #1
  6988	040525	201 04 0 00 000003 		MOVEI	4,3		;UNIT IS #3
  6989	040526	202 04 0 00 043554 		MOVEM	4,XUBA		;INDICATE UNIT #3
  6990	040527	254 00 0 00 040532 		JRST	.+3
  6991	040530	201 04 0 00 000001 	UNIT12:	MOVEI	4,1
  6992	040531	202 04 0 00 043554 		MOVEM	4,XUBA		;INDICATE UNIT #1
  6993	040532	606 00 0 00 000070 		TRNN	0,70		;TEST BIT 30-32
  6994	040533	254 00 0 00 040537 		JRST	UNITX		;GET OUT UNIT IS #1
  6995	040534	201 04 0 00 000002 		MOVEI	4,2
  6996	040535	202 04 0 00 043553 		MOVEM	4,XDUP		;INDICATE DUP IS #2
  6997
  6998	040536	254 00 0 00 040541 		JRST	.+3
  6999	040537	201 04 0 00 000001 	UNITX:	MOVEI	4,1
  7000	040540	202 04 0 00 043553 		MOVEM	4,XDUP		;INDICATE DUP IS #1
  7001	040541	263 17 0 00 000000 		RTN
  7002
  7003
DSDUA DECSYSTEM 2020 DUP-11 DIAGNOSTIC VERSION 0,2	MACRO %53(1020) 08:16 15-Jun-79 Page 113
DSDUAM	MAC	14-Jun-79 16:28		DUP-11 HELP AND ERROR INTERRUPT ROUTINES                                           SEQ 0204

  7004					;ROUTINE TO PRINT SYNC FLAG INFO......
  7005
  7006	040542				FLGMSG:	MOVEI	0,[ASCIZ/
  7007	040542	201 00 0 00 047240 	OUT OF 64 DECIMAL FLAG CHARACTERS THIS IS #-/]
  7008	040543	037 17 0 00 000000 		PNTAL			;PRINT THE ASCII MSG
  7009	040544	200 00 0 00 000012 		MOVE	0,12		;AC12 CONTAINS THE FLAG CHAR COUNT
  7010	040545	452 00 0 00 000000 		SETCAM	0,0		;MAKE 1'S COMP
  7011	040546	271 00 0 00 000001 		ADDI	0,1		;MAKE 2'S COMP
  7012	040547	037 02 0 00 000001 		PNT2F			;PRINT FORCED 2 OCTAL DIGITS
  7013	040550	037 01 0 00 030242 		PCRLF			;GIVE A CR AND LF
  7014						MOVEI	0,[ASCIZ/
  7015	040551	201 00 0 00 047252 	FLAG BITS =1, SO FAR SUCCESSFULLY GENERATED FOR THIS FAILING CHAR-/]
  7016	040552	037 17 0 00 000000 		PNTAL			;PRINT THE ASCII MSG
  7017	040553	200 00 0 00 000016 		MOVE	0,16		;AC16 CONTAINS THE BIT COUNT
  7018	040554	037 01 0 00 000001 		PNT1F			;PRINT FORCED 1 OCTAL DIGIT
  7019	040555	037 01 0 00 030242 		PCRLF			;PRINT A CR AND LF
  7020	040556	037 01 0 00 030242 		PCRLF
  7021	040557	263 17 0 00 000000 		RTN
  7022
  7023
  7024
  7025
  7026	040560	000000	000000		DUPCLK:	0
  7027						CLKDUP			^;ASSEMBLE CODE HERE FOR PKCLK
  7028	040561	201 10 0 00 000040 	..0076:	MOVEI	10,1B30		;CLOCK BIT POSITIONED FOR BYTE REF.
  7029	040562	724 10 1 00 041237 		BSIOB	10,@TXCSRH	;BIT SET CLK BIT
  7030	040563	037 10 0 00 000002 		SWITCH
  7031	040564	602 00 0 00 000001 		TRNE	0,1B35		;DEBUGGING TOOL
  7032	040565	264 00 0 00 040432 		JSR	STATUS		;WHICH PRINTS TICK STATUS
  7033	040566	275 11 0 00 000001 		SUBI	11,1		;DECREMENT TICK COUNT
  7034	040567	322 11 0 00 040577 		JUMPE	11,..0077		;JUMP IF TICKS ALL DONE
  7035	040570	725 10 1 00 041237 		BCIOB	10,@TXCSRH	;BIT CLR CLK BIT
  7036	040571	037 10 0 00 000002 		SWITCH
  7037	040572	602 00 0 00 000001 		TRNE	0,1B35		;DEBUGGING TOOL
  7038	040573	264 00 0 00 040432 		JSR	STATUS		;WHICH PRINTS TICK STATUS
  7039	040574	275 11 0 00 000001 		SUBI	11,1		;DECREMENT TICK COUNT
  7040	040575	322 11 0 00 040577 		JUMPE	11,..0077		;JUMP IF TICKS ALL DONE
  7041	040576	254 00 0 00 040561 		JRST	..0076		;CONTINUE CLOCKING
  7042	040577	254 00 1 00 040560 		JRST	@DUPCLK		;EXIT
  7043
  7044
  7045	040600	000000	000000		RCVMT:	0
  7046						RCVBIT			^;ASSEMBLE CODE FOR RPOKE HERE
  7047	040601	201 06 0 00 000004 	..0100:	MOVEI	6,4		;RCVR BIT WINDOW INPUT BIT
  7048	040602	725 06 1 00 041237 		BCIOB	6,@TXCSRH	;CLEAR WINDOW BIT
  7049	040603	241 12 0 00 777777 		ROT	12,-^D1		;ROTATE CURRENT BIT INTO POSITION
  7050	040604	325 12 0 00 040606 		JUMPGE	12,..0101		;TEST BIT-JUMP IF =0
  7051	040605	724 06 1 00 041237 		BSIOB	6,@TXCSRH	;BIT IS A 0-SET BIT WINDOW
  7052	040606	201 11 0 00 000002 		MOVEI	11,^D2		;CLOCK TICK ARGUMENT
  7053	040607	264 00 0 00 040560 		JSR	DUPCLK		;CALL PKCLK ROUTINE
  7054	040610	275 16 0 00 000001 		SUBI	16,1		;DECREMENT # OF SHIFTS
  7055	040611	326 16 0 00 040601 		JUMPN	16,..0100		;KEEP SHIFTING DATA IF NOT=0
  7056	040612	254 00 1 00 040600 		JRST	@RCVMT		;EXIT
  7057
DSDUA DECSYSTEM 2020 DUP-11 DIAGNOSTIC VERSION 0,2	MACRO %53(1020) 08:16 15-Jun-79 Page 114
DSDUAM	MAC	14-Jun-79 16:28		DUP-11 HELP AND ERROR INTERRUPT ROUTINES                                           SEQ 0205

  7058	040613	000000	000000		XDPNT:	0
  7059	040614	037 01 0 00 030242 		PCRLF
  7060	040615	201 00 0 00 047270 		MOVEI	0,[ASCIZ/AC02=/]
  7061	040616	037 17 0 00 000000 		PNTAL
  7062	040617	200 00 0 00 000002 		MOVE	0,2
  7063	040620	037 13 0 00 000000 		PNTHW
  7064	040621	037 01 0 00 000040 		PSPF
  7065	040622	201 00 0 00 047272 		MOVEI	0,[ASCIZ/AC03=/]
  7066	040623	037 17 0 00 000000 		PNTAL
  7067	040624	200 00 0 00 000003 		MOVE	0,3
  7068	040625	037 13 0 00 000000 		PNTHW
  7069	040626	037 01 0 00 000040 		PSPF
  7070	040627	201 00 0 00 047274 		MOVEI	0,[ASCIZ/AC04=/]
  7071	040630	037 17 0 00 000000 		PNTAL
  7072	040631	200 00 0 00 000004 		MOVE	0,4
  7073	040632	037 13 0 00 000000 		PNTHW
  7074	040633	037 01 0 00 030242 		PCRLF
  7075	040634	201 00 0 00 047276 		MOVEI	0,[ASCIZ/AC05=/]
  7076	040635	037 17 0 00 000000 		PNTAL
  7077	040636	200 00 0 00 000005 		MOVE	0,5
  7078	040637	037 13 0 00 000000 		PNTHW
  7079	040640	037 01 0 00 000040 		PSPF
  7080	040641	201 00 0 00 047300 		MOVEI	0,[ASCIZ/AC06=/]
  7081	040642	037 17 0 00 000000 		PNTAL
  7082	040643	200 00 0 00 000006 		MOVE	0,6
  7083	040644	037 13 0 00 000000 		PNTHW
  7084	040645	037 01 0 00 000040 		PSPF
  7085	040646	201 00 0 00 047302 		MOVEI	0,[ASCIZ/AC07=/]
  7086	040647	037 17 0 00 000000 		PNTAL
  7087	040650	200 00 0 00 000007 		MOVE	0,7
  7088	040651	037 13 0 00 000000 		PNTHW
  7089	040652	037 01 0 00 030242 		PCRLF
DSDUA DECSYSTEM 2020 DUP-11 DIAGNOSTIC VERSION 0,2	MACRO %53(1020) 08:16 15-Jun-79 Page 115
DSDUAM	MAC	14-Jun-79 16:28		DUP-11 HELP AND ERROR INTERRUPT ROUTINES                                           SEQ 0206

  7090	040653	201 00 0 00 047304 		MOVEI	0,[ASCIZ/AC10=/]
  7091	040654	037 17 0 00 000000 		PNTAL
  7092	040655	200 00 0 00 000010 		MOVE	0,10
  7093	040656	037 13 0 00 000000 		PNTHW
  7094	040657	037 01 0 00 000040 		PSPF
  7095	040660	201 00 0 00 047306 		MOVEI	0,[ASCIZ/AC11=/]
  7096	040661	037 17 0 00 000000 		PNTAL
  7097	040662	200 00 0 00 000011 		MOVE	0,11
  7098	040663	037 13 0 00 000000 		PNTHW
  7099	040664	037 01 0 00 000040 		PSPF
  7100	040665	201 00 0 00 047310 		MOVEI	0,[ASCIZ/AC12=/]
  7101	040666	037 17 0 00 000000 		PNTAL
  7102	040667	200 00 0 00 000012 		MOVE	0,12
  7103	040670	037 13 0 00 000000 		PNTHW
  7104	040671	037 01 0 00 030242 		PCRLF
  7105	040672	201 00 0 00 047312 		MOVEI	0,[ASCIZ/AC13=/]
  7106	040673	037 17 0 00 000000 		PNTAL
  7107	040674	200 00 0 00 000013 		MOVE	0,13
  7108	040675	037 13 0 00 000000 		PNTHW
  7109	040676	037 01 0 00 000040 		PSPF
  7110	040677	201 00 0 00 047314 		MOVEI	0,[ASCIZ/AC14=/]
  7111	040700	037 17 0 00 000000 		PNTAL
  7112	040701	200 00 0 00 000014 		MOVE	0,14
  7113	040702	037 13 0 00 000000 		PNTHW
  7114	040703	037 01 0 00 000040 		PSPF
  7115	040704	201 00 0 00 047316 		MOVEI	0,[ASCIZ/AC15=/]
  7116	040705	037 17 0 00 000000 		PNTAL
  7117	040706	200 00 0 00 000015 		MOVE	0,15
  7118	040707	037 13 0 00 000000 		PNTHW
  7119	040710	037 01 0 00 030242 		PCRLF
  7120	040711	201 00 0 00 047320 		MOVEI	0,[ASCIZ/AC16=/]
  7121	040712	037 17 0 00 000000 		PNTAL
  7122	040713	200 00 0 00 000016 		MOVE	0,16
  7123	040714	037 13 0 00 000000 		PNTHW
  7124	040715	037 01 0 00 000040 		PSPF
  7125	040716	201 00 0 00 047322 		MOVEI	0,[ASCIZ/AC17=/]
  7126	040717	037 17 0 00 000000 		PNTAL
  7127	040720	200 00 0 00 000017 		MOVE	0,17
  7128	040721	037 13 0 00 000000 		PNTHW
  7129	040722	037 01 0 00 030242 		PCRLF
  7130	040723	037 01 0 00 030242 		PCRLF
  7131	040724	254 00 1 00 040613 		JRST	@XDPNT
DSDUA DECSYSTEM 2020 DUP-11 DIAGNOSTIC VERSION 0,2	MACRO %53(1020) 08:16 15-Jun-79 Page 116
DSDUAM	MAC	14-Jun-79 16:28		DUP-11 HELP AND ERROR INTERRUPT ROUTINES                                           SEQ 0207

  7132					;*MUBADR - MODIFY UNIBUS ADDRESSES FOR THE DUP-11
  7133					;*	CHANGES: EXTBIT LH - UNIBUS NUMBER
  7134					;*		 EXTBIT RH - DUP-11 BASE ADDRESS
  7135					;*		 VECTOR - DUP-11 VECTOR ADDRESS
  7136
  7137	040725	261 17 0 00 000000 	MUBADR:	PUT	AC0
  7138	040726	261 17 0 00 000001 		PUT	AC1
  7139
  7140						PNTMSF	[ASCIZ/
  7141					STANDARD DUP-11	#1
  7142						UBA = 3, DUP-11 BASE ADDRESS = 760300, VECTOR = 570
  7143					STANDARD DUP-11	#2
  7144						UBA = 3, DUP-11 BASE ADDRESS = 760310, VECTOR = 600
  7145	040727	037 01 0 00 047324 	/]
  7146						PMSGF	<^CHANGE UBA # FOR DUP-11 ?>^
  7147	040730	037 04 0 00 047363 		PSIXMF	[SIXBIT\^CHANGE UBA # FOR DUP-11 ?_\]^
  7148	040731	037 01 0 00 000003 		TTIYES
  7149	040732	254 00 0 00 040745 		JRST	MUBA3		;NO
  7150
  7151	040733				MUBA1:	PMSGF	<INPUT UBA # - >^
  7152	040733	037 04 0 00 047370 		PSIXMF	[SIXBIT\INPUT UBA # - _\]^
  7153	040734	037 03 0 00 000003 		TTIOCT
  7154	040735	254 00 0 00 040741 		JRST	MUBA1A
  7155	040736	321 00 0 00 040741 		JUMPL	MUBA1A
  7156	040737	307 00 0 00 000017 		CAIG	17
  7157	040740	254 00 0 00 040743 		JRST	MUBA2
  7158
  7159	040741				MUBA1A:	PMSGF	<^INVALID UBA # ? (0 TO 17) !!^>^
  7160	040741	037 04 0 00 047373 		PSIXMF	[SIXBIT\^INVALID UBA # ? (0 TO 17) !!^_\]^
  7161	040742	254 00 0 00 040733 		JRST	MUBA1
  7162
  7163	040743	137 00 0 00 047401 	MUBA2:	DPB	AC0,[POINT 4,UBADDR,17]
  7164	040744	137 00 0 00 047402 		DPB	AC0,[POINT 4,EXTBIT,17]
  7165
  7166	040745				MUBA3:	PMSGF	<CHANGE DUP-11 BASE ADDRESS ?>^
  7167	040745	037 04 0 00 047403 		PSIXMF	[SIXBIT\CHANGE DUP-11 BASE ADDRESS ?_\]^
  7168	040746	037 01 0 00 000003 		TTIYES
  7169	040747	254 00 0 00 040762 		JRST	MUBA6		;NO
  7170
  7171	040750				MUBA4:	PMSGF	<INPUT DUP-11 BASE ADDRESS - >^
  7172	040750	037 04 0 00 047410 		PSIXMF	[SIXBIT\INPUT DUP-11 BASE ADDRESS - _\]^
  7173	040751	037 03 0 00 000003 		TTIOCT
  7174	040752	254 00 0 00 040757 		JRST	MUBA4A
  7175	040753	323 00 0 00 040757 		JUMPLE	MUBA4A
  7176	040754	135 01 0 00 047415 		LDB	AC1,[POINT 3,AC0,20]
  7177	040755	306 01 0 00 000007 		CAIN	AC1,7
  7178	040756	254 00 0 00 040761 		JRST	MUBA5
  7179
  7180	040757				MUBA4A:	PMSGF	<^INVALID DUP-11 BASE ADDRESS (7XXXXX) !!^>^
  7181	040757	037 04 0 00 047416 		PSIXMF	[SIXBIT\^INVALID DUP-11 BASE ADDRESS (7XXXXX) !!^_\]^
  7182	040760	254 00 0 00 040750 		JRST	MUBA4
  7183
  7184	040761	542 00 0 00 043541 	MUBA5:	HRRM	AC0,EXTBIT
DSDUA DECSYSTEM 2020 DUP-11 DIAGNOSTIC VERSION 0,2	MACRO %53(1020) 08:16 15-Jun-79 Page 117
DSDUAM	MAC	14-Jun-79 16:28		DUP-11 HELP AND ERROR INTERRUPT ROUTINES                                           SEQ 0208

  7185
  7186	040762				MUBA6:	PMSGF	<CHANGE VECTOR ADDRESS FOR DUP-11 ?>^
  7187	040762	037 04 0 00 047425 		PSIXMF	[SIXBIT\CHANGE VECTOR ADDRESS FOR DUP-11 ?_\]^
  7188	040763	037 01 0 00 000003 		TTIYES
  7189	040764	254 00 0 00 040776 		JRST	MUBAX
  7190
  7191	040765				MUBA7:	PMSGF	<INPUT VECTOR ADDRESS - >^
  7192	040765	037 04 0 00 047433 		PSIXMF	[SIXBIT\INPUT VECTOR ADDRESS - _\]^
  7193	040766	037 03 0 00 000003 		TTIOCT
  7194	040767	254 00 0 00 040773 		JRST	MUBA7A
  7195	040770	323 00 0 00 040773 		JUMPLE	MUBA7A
  7196	040771	305 00 0 00 001000 		CAIGE	1000
  7197	040772	254 00 0 00 040775 		JRST	MUBA8
  7198
  7199	040773				MUBA7A:	PMSGF	<^INVALID VECTOR ADDRESS, MUST BE LT 1000 !!^>^
  7200	040773	037 04 0 00 047437 		PSIXMF	[SIXBIT\^INVALID VECTOR ADDRESS, MUST BE LT 1000 !!^_\]^
  7201	040774	254 00 0 00 040765 		JRST	MUBA7
  7202
  7203	040775	202 00 0 00 041224 	MUBA8:	MOVEM	VECTOR
  7204
  7205	040776	262 17 0 00 000001 	MUBAX:	GET	AC1
  7206	040777	262 17 0 00 000000 		GET	AC0
  7207	041000	263 17 0 00 000000 		RTN
  7208
DSDUA DECSYSTEM 2020 DUP-11 DIAGNOSTIC VERSION 0,2	MACRO %53(1020) 08:16 15-Jun-79 Page 118
DSDUAM	MAC	14-Jun-79 16:28		DUP-11 HELP AND ERROR INTERRUPT ROUTINES                                           SEQ 0209

  7209
  7210
  7211
  7212						SUBTTL	 SPECIAL DIAGNOSTIC PARAMETERS
  7213
  7214
  7215
  7216	041001	000000	000000		TEMP0:	0		;TEMPORARY STORAGE
  7217	041002	000000	000000		TEMP1:	0		;TEMPORARY STORAGE
  7218	041003	000000	000000		TEMP2:	0
  7219	041004	000000	000000		TEMP3:	0
  7220	041005	000000	000000		TEMP4:	0
  7221	041006	000000	000000		TEMP16:	0		;TEMPORARY STORAGE
  7222	041007	000000	000000		XTEMP1:	0		;TEMPORARY STORAGE
  7223	041010	000000	000000		XCHRNT:	0		;CHAR COUNT REG
  7224	041011	000000	000000		XLDCNT:	0		;LOAD COUNT REG
  7225	041012	777777	777777		XLDFLG:	-1		;ENABLE LOAD AC12
  7226	041013	000000	000000		XBUFLG:	0		;BACKUP BUFFER FLAG
  7227	041014	000000	000000		XBUFBK:	0		;BACKUP BUFFER (ONE WORD)
  7228	041015	000000	000000		XSHFLG:	0		;SHIFT FLAG
  7229	041016	000000	000000		XSYNCT:	0		;SYNC COUNT
  7230	041017	000000	000000		MMFLG:	0		;MAINT MODE HELP FLAG (SEE ROUTINE ISO)
  7231	041020	000000	000000		INTFLG:	0
  7232
  7233					;STORAGE FOR VECTER INTERRUPT TABLE
  7234	041021				PITAB:	BLOCK	^D128
  7235
  7236	041221	000000	000000		UASTAT:	0
  7237	041222	000000	000000		UAMAIN:	0
  7238	041223	000000	000000		UBADDR:	0
  7239	041224	000000	000000		VECTOR:	0
  7240
  7241					;UNIBUS ADAPTER STATUS REGISTER BIT ASSIGNMENTS
  7242			400000		TIMOUT=	400000		;R
  7243			200000		BMD=	200000		;R
  7244			100000		SMPE=	100000		;R
  7245			040000		NED=	40000		;R
  7246			004000		HIREQ=	4000		;R/W
  7247			002000		LOREQ=	2000		;R/W
  7248			001000		ACDCL=	1000		;R
  7249			000200		DISXFR=	200		;R/W
  7250			000100		UBINIT=	100		;W
  7251			000040		PIA30=	40		;R/W
  7252			000020		PIA31=	20		;R/W
  7253			000010		PIA32=	10		;R/W
  7254			000004		PIA33=	4		;R/W
  7255			000002		PIA34=	2		;R/W
  7256			000001		PIA35=	1		;R/W
  7257
  7258					;TEMPORARY STORAGE FOR GOOD AND BAD DATA
  7259
  7260	041225	000000	000000		GDDAT:	0
  7261	041226	000000	000000		BDDAT:	0
  7262
DSDUA DECSYSTEM 2020 DUP-11 DIAGNOSTIC VERSION 0,2	MACRO %53(1020) 08:16 15-Jun-79 Page 2
DSDUAS	MAC	15-Jun-79 08:15		SPECIAL DIAGNOSTIC PARAMETERS                                                      SEQ 0210

  7263					;PRIMARY REGISTER STORAGE
  7264	041227	000000	000000		RXCSR:	0
  7265	041230	000000	000000		RXCSRL:	0
  7266	041231	000000	000000		RXCSRH:	0
  7267	041232	000000	000000		RXDBUF:	0
  7268	041233	000000	000000		PARCSR:	0
  7269	041234	000000	000000		PARCSH:	0
  7270	041235	000000	000000		TXCSR:	0
  7271	041236	000000	000000		TXCSRL:	0
  7272	041237	000000	000000		TXCSRH:	0
  7273	041240	000000	000000		TXDBUF:	0
  7274	041241	000000	000000		TXDBUL:	0
  7275	041242	000000	000000		TXDBUH:	0
  7276
  7277
  7278					SUBTTL	TEST	LISTS
  7279
  7280	042000					LOC<<.+1000>&777000>
  7281
DSDUA DECSYSTEM 2020 DUP-11 DIAGNOSTIC VERSION 0,2	MACRO %53(1020) 08:16 15-Jun-79 Page 3
DSDUAS	MAC	15-Jun-79 08:15		TEST	LISTS                                                                      SEQ 0211

  7282					;TEST DATA LIST FOR R/W (TXCSR)
  7283
  7284	042000	000000	000030		T02L:	T02Z-T02L
  7285	042001	000000	000000			0
  7286	042002	000000	000010			10
  7287	042003	000000	000020			20
  7288	042004	000000	000100			100
  7289	042005	000000	002000			2000
  7290	042006	000000	004000			4000
  7291	042007	000000	010000			10000
  7292	042010	000000	020000			20000
  7293	042011	000000	036130			36130
  7294	042012	000000	036120			36120
  7295	042013	000000	036110			36110
  7296	042014	000000	036030			36030
  7297	042015	000000	036130			36130
  7298	042016	000000	034130			34130
  7299	042017	000000	032130			32130
  7300	042020	000000	026130			26130
  7301	042021	000000	016130			16130
  7302	042022	000000	000000			0
  7303	042023	000000	036130			36130
  7304	042024	000000	000000			0
  7305	042025	000000	036130			36130
  7306	042026	000000	000000			0
  7307	042027	000000	036130			36130
  7308	042030	000000	000000		T02Z:	0
  7309
  7310					;TEST DATA LIST FOR READ ONLY (TXCSR)
  7311
  7312	042031	000000	000005		T02AL:	T02AZ-T02AL
  7313	042032	000000	000200			200
  7314	042033	000000	001000			1000
  7315	042034	000000	040000			40000
  7316	042035	000000	100000			100000
  7317	042036	000000	000000		T02AZ:	0
  7318
DSDUA DECSYSTEM 2020 DUP-11 DIAGNOSTIC VERSION 0,2	MACRO %53(1020) 08:16 15-Jun-79 Page 4
DSDUAS	MAC	15-Jun-79 08:15		TEST	LISTS                                                                      SEQ 0212

  7319					;TEST DATA LIST FOR R/W (RXCSR)
  7320
  7321	042037	000000	000024		T07L:	T07Z-T07L
  7322	042040	000000	000000			0
  7323	042041	000000	000002			2
  7324	042042	000000	000004			4
  7325	042043	000000	000010			10
  7326	042044	000000	000020			20
  7327	042045	000000	000040			40
  7328	042046	000000	000100			100
  7329	042047	000000	000400			400
  7330	042050	000000	000574			574
  7331	042051	000000	000572			572
  7332	042052	000000	000566			566
  7333	042053	000000	000556			556
  7334	042054	000000	000536			536
  7335	042055	000000	000476			476
  7336	042056	000000	000176			176
  7337	042057	000000	000000			0
  7338	042060	000000	000576			576
  7339	042061	000000	000000			0
  7340	042062	000000	000576			576
  7341	042063	000000	000000		T07Z:	0
  7342
  7343
  7344					;TEST DATA LIST FOR READ ONLY (RXCSR)
  7345
  7346	042064	000000	000012		T07AL:	T07AZ-T07AL
  7347	042065	000000	000001			1
  7348	042066	000000	000200			200
  7349	042067	000000	001000			1000
  7350	042070	000000	002000			2000
  7351	042071	000000	004000			4000
  7352	042072	000000	010000			10000
  7353	042073	000000	020000			20000
  7354	042074	000000	040000			40000
  7355	042075	000000	100000			100000
  7356	042076	000000	000000		T07AZ:	0
  7357
  7358
  7359
DSDUA DECSYSTEM 2020 DUP-11 DIAGNOSTIC VERSION 0,2	MACRO %53(1020) 08:16 15-Jun-79 Page 5
DSDUAS	MAC	15-Jun-79 08:15		TEST	LISTS                                                                      SEQ 0213

  7360					;TEST DATA LIST FOR R/W (TXDBUF)
  7361
  7362	042077	000000	000045		T14L:	T14Z-T14L
  7363
  7364	042100	000000	000000			0
  7365	042101	000000	000001			1
  7366	042102	000000	000002			2
  7367	042103	000000	000004			4
  7368	042104	000000	000010			10
  7369	042105	000000	000020			20
  7370	042106	000000	000040			40
  7371	042107	000000	000100			100
  7372	042110	000000	000200			200
  7373	042111	000000	000400			400
  7374	042112	000000	001000			1000
  7375	042113	000000	002000			2000
  7376	042114	000000	003776			3776
  7377	042115	000000	003775			3775
  7378	042116	000000	003773			3773
  7379	042117	000000	003767			3767
  7380	042120	000000	003757			3757
  7381	042121	000000	003737			3737
  7382	042122	000000	003677			3677
  7383	042123	000000	003577			3577
  7384	042124	000000	003377			3377
  7385	042125	000000	002777			2777
  7386	042126	000000	001777			1777
  7387	042127	000000	000000			0
  7388	042130	000000	003777			3777
  7389	042131	000000	000000			0
  7390	042132	000000	003777			3777
  7391	042133	000000	000000			0
  7392	042134	000000	002525			2525
  7393	042135	000000	002252			2252
  7394	042136	000000	002525			2525
  7395	042137	000000	000000			0
  7396	042140	000000	002463			2463
  7397	042141	000000	002314			2314
  7398	042142	000000	002463			2463
  7399	042143	000000	002314			2314
  7400	042144	000000	000000		T14Z:	0
  7401
DSDUA DECSYSTEM 2020 DUP-11 DIAGNOSTIC VERSION 0,2	MACRO %53(1020) 08:16 15-Jun-79 Page 6
DSDUAS	MAC	15-Jun-79 08:15		TEST	LISTS                                                                      SEQ 0214

  7402					;TEST DATA LIST FOR (PARCSR/W-RXDBUF/R)
  7403	042145	000000	000035		T17L:	T17Z-T17L
  7404	042146	000000	000000			0
  7405	042147	000000	000001			1
  7406	042150	000000	000002			2
  7407	042151	000000	000004			4
  7408	042152	000000	000010			10
  7409	042153	000000	000020			20
  7410	042154	000000	000040			40
  7411	042155	000000	000100			100
  7412	042156	000000	000200			200
  7413	042157	000000	001000			1000
  7414	042160	000000	010000			10000
  7415	042161	000000	100000			100000
  7416	042162	000000	111377			111377
  7417	042163	000000	111376			111376
  7418	042164	000000	111375			111375
  7419	042165	000000	111373			111373
  7420	042166	000000	111367			111367
  7421	042167	000000	111357			111357
  7422	042170	000000	111337			111337
  7423	042171	000000	111277			111277
  7424	042172	000000	111177			111177
  7425	042173	000000	110377			110377
  7426	042174	000000	101377			101377
  7427	042175	000000	011377			011377
  7428	042176	000000	000000			0
  7429	042177	000000	111377			111377
  7430	042200	000000	000000			0
  7431	042201	000000	111377			111377
  7432	042202	000000	000000		T17Z:	0
  7433					;INTERFERENCE PATTERNS
  7434	042203	000000	000003		AL00:	AL00Z-AL00
  7435	042204	000000	041230			RXCSRL
  7436	042205	000000	041233			PARCSR
  7437	042206	000000	041240		AL00Z:	TXDBUF
  7438	042207	000000	000003		AL01:	AL01Z-AL01
  7439	042210	000000	041230			RXCSRL
  7440	042211	000000	041236			TXCSRL
  7441	042212	000000	041233		AL01Z:	PARCSR
  7442	042213	000000	000003		AL02:	AL02Z-AL02
  7443	042214	000000	041236			TXCSRL
  7444	042215	000000	041233			PARCSR
  7445	042216	000000	041240		AL02Z:	TXDBUF
  7446	042217	000000	000004		AL03:	AL03Z-AL03
  7447	042220	000000	041230			RXCSRL
  7448	042221	000000	041236			TXCSRL
  7449	042222	000000	041233			PARCSR
  7450	042223	000000	041240		AL03Z:	TXDBUF
DSDUA DECSYSTEM 2020 DUP-11 DIAGNOSTIC VERSION 0,2	MACRO %53(1020) 08:16 15-Jun-79 Page 7
DSDUAS	MAC	15-Jun-79 08:15		TEST	LISTS                                                                      SEQ 0215

  7451					;RXCSR BIT DEFINITIONS
  7452
  7453			100000		DSCA=	100000		;R
  7454			040000		RING=	040000		;R
  7455			020000		CTS=	020000		;R
  7456			010000		CARDET=	010000		;R
  7457			004000		RECACT=	004000		;R
  7458			002000		SRD=	002000		;R
  7459			001000		DSR=	001000		;R
  7460			000400		STPSYN=	000400		;R/W
  7461			000200		RXDONE=	000200		;R
  7462			000100		RINTEN=	000100		;R/W
  7463			000040		DSINTE=	000040		;R/W
  7464			000020		RCVEN=	000020		;R/W
  7465			000010		STD=	000010		;R/W
  7466			000004		RTS=	000004		;R/W
  7467			000002		DTR=	000002		;R/W
  7468			000001		DSCB=	000001		;R
  7469
  7470					;RXDBUF BIT DEFINITIONS
  7471
  7472			100000		RXDERR=	100000		;R
  7473			040000		OVRRUN=	040000		;R
  7474			010000		CRCERR=	010000		;R
  7475			002000		RABORT=	002000		;R
  7476			001000		REOM=	001000		;R
  7477			000400		RSOM=	000400		;R
  7478
  7479
  7480					;PARCSR BIT DEFINITIONS
  7481
  7482			100000		DECMOD=	100000		;W
  7483			001000		CRCEN=	001000		;W
  7484			010000		PRISEC=	010000		;W
  7485
DSDUA DECSYSTEM 2020 DUP-11 DIAGNOSTIC VERSION 0,2	MACRO %53(1020) 08:16 15-Jun-79 Page 8
DSDUAS	MAC	15-Jun-79 08:15		TEST	LISTS                                                                      SEQ 0216

  7486					;TXCSR BIT DEFINITIONS
  7487
  7488			100000		TXDLAT=	100000		;R
  7489			040000		MTDATA=	040000		;R
  7490			020000		CLK=	020000		;R/W
  7491			010000		MMODEB=	010000		;R/W
  7492			004000		MMODEA=	004000		;R/W
  7493			002000		BITW=	002000		;R/W
  7494			001000		TXACT=	001000		;R
  7495			000400		MRESET=	000400		;W
  7496			000200		TXDONE=	000200		;R
  7497			000100		TXINTE=	000100		;R/W
  7498			000020		SEND=	000020		;R/W
  7499			000010		HDXEN=	000010		;R/W
  7500
  7501					;TXCSR WORD DEFINITIONS
  7502
  7503			014000		MMODE=	014000
  7504			000000		XUSER=	000000
  7505			010000		MEXT=	010000
  7506			004000		SYSTST=	004000
  7507
  7508					;TXDBUF BIT DEFINITIONS
  7509
  7510			100000		RCRC7T=	100000
  7511			040000		RCRCIN=	040000		;R
  7512			020000		TCRC7T=	020000
  7513			010000		TCRIN=	010000		;R
  7514			004000		TIMER=	004000		;R
  7515			002000		TABORT=	002000		;R/W
  7516			001000		TEOM=	001000		;R/W
  7517			000400		TSOM=	000400		;R/W
  7518
  7519	042224	000000	000000		HELP:	0
  7520	042225	000000	000000			0
  7521	042226	000000	000000			0
  7522	042227	000000	000000			0
  7523	042230	000000	000000			0
  7524	042231	000000	000000			0
  7525	042232	000000	000000			0
  7526	042233	000000	000000			0
  7527	042234	000000	000000			0
  7528	042235	000000	000000			0
  7529	042236	000000	000000			0
  7530	042237	000000	000000			0
  7531	042240	54 60 44 41 64 41 		SIXBIT/LPDATA/		;LOOP ON DATA FOR TESTS 43 & 57
  7532	042241	43 57 56 64 65 00 		SIXBIT/CONTU/		;CONTINUE SAME SEQUENCE
  7533	042242	000000	000000			0
  7534	042243	000000	000000			0
  7535	042244	000000	000000			0
  7536						SIXBIT/DEBUG/		;DEBUGGING TOOL TO PRINT STATUS AT EACH CLOCK TICK (ONLY MM
  7537	042245	44 45 42 65 47 00 	ODE)
  7538
DSDUA DECSYSTEM 2020 DUP-11 DIAGNOSTIC VERSION 0,2	MACRO %53(1020) 08:16 15-Jun-79 Page 9
DSDUAS	MAC	15-Jun-79 08:15		TEST	LISTS                                                                      SEQ 0217

  7539
  7540
  7541	042246				TESTX:	ASCIZ	?
  7542
  7543	042246	015 012 015 012 015
  7544	042247	012 124 105 123 124 	TEST.1-- *REGISTER ACCESS TEST*
  7545	042250	056 061 055 055 040
  7546	042251	052 122 105 107 111
  7547	042252	123 124 105 122 040
  7548	042253	101 103 103 105 123
  7549	042254	123 040 124 105 123
  7550	042255	124 052 015 012 124 	TEST.2-- *TXCSR REGISTER R/W TEST*
  7551	042256	105 123 124 056 062
  7552	042257	055 055 040 052 124
  7553	042260	130 103 123 122 040
  7554	042261	122 105 107 111 123
  7555	042262	124 105 122 040 122
  7556	042263	057 127 040 124 105
  7557	042264	123 124 052 015 012 	TEST.3-- *TXCSR HI-BYTE TEST*
  7558	042265	124 105 123 124 056
  7559	042266	063 055 055 040 052
  7560	042267	124 130 103 123 122
  7561	042270	040 110 111 055 102
  7562	042271	131 124 105 040 124
  7563	042272	105 123 124 052 015
  7564	042273	012 124 105 123 124 	TEST.4-- *TXCSR LO-BYTE TEST*
  7565	042274	056 064 055 055 040
  7566	042275	052 124 130 103 123
  7567	042276	122 040 114 117 055
  7568	042277	102 131 124 105 040
  7569	042300	124 105 123 124 052
  7570	042301	015 012 124 105 123 	TEST.5-- *TXCSR CLEAR TEST (MRESET)*
  7571	042302	124 056 065 055 055
  7572	042303	040 052 124 130 103
  7573	042304	123 122 040 103 114
  7574	042305	105 101 122 040 124
  7575	042306	105 123 124 040 050
  7576	042307	115 122 105 123 105
  7577	042310	124 051 052 015 012 	TEST.6-- *TXCSR CLEAR TEST (UBINIT)*
  7578	042311	124 105 123 124 056
  7579	042312	066 055 055 040 052
  7580	042313	124 130 103 123 122
  7581	042314	040 103 114 105 101
  7582	042315	122 040 124 105 123
  7583	042316	124 040 050 125 102
  7584	042317	111 116 111 124 051
  7585	042320	052 015 012 124 105 	TEST.7-- *RXCSR REGISTER R/W TEST*
  7586	042321	123 124 056 067 055
  7587	042322	055 040 052 122 130
  7588	042323	103 123 122 040 122
  7589	042324	105 107 111 123 124
  7590	042325	105 122 040 122 057
  7591	042326	127 040 124 105 123
  7592	042327	124 052 015 012 124 	TEST.10-- *RXCSR HI-BYTE TEST*
  7593	042330	105 123 124 056 061
DSDUA DECSYSTEM 2020 DUP-11 DIAGNOSTIC VERSION 0,2	MACRO %53(1020) 08:16 15-Jun-79 Page 9-1
DSDUAS	MAC	15-Jun-79 08:15		TEST	LISTS                                                                      SEQ 0218

  7594	042331	060 055 055 040 052
  7595	042332	122 130 103 123 122
  7596	042333	040 110 111 055 102
  7597	042334	131 124 105 040 124
  7598	042335	105 123 124 052 015
  7599	042336	012 124 105 123 124 	TEST.11-- *RXCSR LO-BYTE TEST*
  7600	042337	056 061 061 055 055
  7601	042340	040 052 122 130 103
  7602	042341	123 122 040 114 117
  7603	042342	055 102 131 124 105
  7604	042343	040 124 105 123 124
  7605	042344	052 015 012 124 105 	TEST.12-- *RXCSR CLEAR TEST (MRESET)*
  7606	042345	123 124 056 061 062
  7607	042346	055 055 040 052 122
  7608	042347	130 103 123 122 040
  7609	042350	103 114 105 101 122
  7610	042351	040 124 105 123 124
  7611	042352	040 050 115 122 105
  7612	042353	123 105 124 051 052
  7613	042354	015 012 124 105 123 	TEST.13-- *RXCSR CLEAR TEST (UBINIT)*
  7614	042355	124 056 061 063 055
  7615	042356	055 040 052 122 130
  7616	042357	103 123 122 040 103
  7617	042360	114 105 101 122 040
  7618	042361	124 105 123 124 040
  7619	042362	050 125 102 111 116
  7620	042363	111 124 051 052 015
  7621	042364	012 124 105 123 124 	TEST.14-- *TXDBUF REGISTER R/W TEST*
  7622	042365	056 061 064 055 055
  7623	042366	040 052 124 130 104
  7624	042367	102 125 106 040 122
  7625	042370	105 107 111 123 124
  7626	042371	105 122 040 122 057
  7627	042372	127 040 124 105 123
  7628	042373	124 052 015 012 124 	TEST.15-- *TXDBUF CLEAR TEST (MRESET)*
  7629	042374	105 123 124 056 061
  7630	042375	065 055 055 040 052
  7631	042376	124 130 104 102 125
  7632	042377	106 040 103 114 105
  7633	042400	101 122 040 124 105
  7634	042401	123 124 040 050 115
  7635	042402	122 105 123 105 124
  7636	042403	051 052 015 012 124 	TEST.16-- *TXDBUF CLEAR TEST (UBINIT)*
  7637	042404	105 123 124 056 061
  7638	042405	066 055 055 040 052
  7639	042406	124 130 104 102 125
  7640	042407	106 040 103 114 105
  7641	042410	101 122 040 124 105
  7642	042411	123 124 040 050 125
  7643	042412	102 111 116 111 124
  7644	042413	051 052 015 012 124 	TEST.17-- *PARCSR/RXDBUF CLEAR TEST (MRESET)*
  7645	042414	105 123 124 056 061
  7646	042415	067 055 055 040 052
  7647	042416	120 101 122 103 123
  7648	042417	122 057 122 130 104
DSDUA DECSYSTEM 2020 DUP-11 DIAGNOSTIC VERSION 0,2	MACRO %53(1020) 08:16 15-Jun-79 Page 9-2
DSDUAS	MAC	15-Jun-79 08:15		TEST	LISTS                                                                      SEQ 0219

  7649	042420	102 125 106 040 103
  7650	042421	114 105 101 122 040
  7651	042422	124 105 123 124 040
  7652	042423	050 115 122 105 123
  7653	042424	105 124 051 052 015
  7654	042425	012 124 105 123 124 	TEST.20-- *PARCSR/RXDBUF CLEAR TEST (UBINIT)*
  7655	042426	056 062 060 055 055
  7656	042427	040 052 120 101 122
  7657	042430	103 123 122 057 122
  7658	042431	130 104 102 125 106
  7659	042432	040 103 114 105 101
  7660	042433	122 040 124 105 123
  7661	042434	124 040 050 125 102
  7662	042435	111 116 111 124 051
  7663	042436	052 015 012 124 105 	TEST.21-- *PARCSR REGISTER WRITE/RXDBUF READ TEST*
  7664	042437	123 124 056 062 061
  7665	042440	055 055 040 052 120
  7666	042441	101 122 103 123 122
  7667	042442	040 122 105 107 111
  7668	042443	123 124 105 122 040
  7669	042444	127 122 111 124 105
  7670	042445	057 122 130 104 102
  7671	042446	125 106 040 122 105
  7672	042447	101 104 040 124 105
  7673	042450	123 124 052 015 012 	TEST.22-- *TXCSR REGISTER READ ONLY TEST*
  7674	042451	124 105 123 124 056
  7675	042452	062 062 055 055 040
  7676	042453	052 124 130 103 123
  7677	042454	122 040 122 105 107
  7678	042455	111 123 124 105 122
  7679	042456	040 122 105 101 104
  7680	042457	040 117 116 114 131
  7681	042460	040 124 105 123 124
  7682	042461	052 015 012 124 105 	TEST.23-- *RXCSR REGISTER READ ONLY TEST*
  7683	042462	123 124 056 062 063
  7684	042463	055 055 040 052 122
  7685	042464	130 103 123 122 040
  7686	042465	122 105 107 111 123
  7687	042466	124 105 122 040 122
  7688	042467	105 101 104 040 117
  7689	042470	116 114 131 040 124
  7690	042471	105 123 124 052 015
  7691	042472	012 124 105 123 124 	TEST.24-- *TXCSR 0'S DISTURB TEST*
  7692	042473	056 062 064 055 055
  7693	042474	040 052 124 130 103
  7694	042475	123 122 040 060 047
  7695	042476	123 040 104 111 123
  7696	042477	124 125 122 102 040
  7697	042500	124 105 123 124 052
  7698	042501	015 012 124 105 123 	TEST.25-- *TXDBUF 0'S DISTURB TEST*
  7699	042502	124 056 062 065 055
  7700	042503	055 040 052 124 130
  7701	042504	104 102 125 106 040
  7702	042505	060 047 123 040 104
  7703	042506	111 123 124 125 122
DSDUA DECSYSTEM 2020 DUP-11 DIAGNOSTIC VERSION 0,2	MACRO %53(1020) 08:16 15-Jun-79 Page 9-3
DSDUAS	MAC	15-Jun-79 08:15		TEST	LISTS                                                                      SEQ 0220

  7704	042507	102 040 124 105 123
  7705	042510	124 052 015 012 124 	TEST.26-- *RXCSR 0'S DISTURB TEST*
  7706	042511	105 123 124 056 062
  7707	042512	066 055 055 040 052
  7708	042513	122 130 103 123 122
  7709	042514	040 060 047 123 040
  7710	042515	104 111 123 124 125
  7711	042516	122 102 040 124 105
  7712	042517	123 124 052 015 012 	TEST.27-- *RXDBUF 0'S DISTURB TEST*
  7713	042520	124 105 123 124 056
  7714	042521	062 067 055 055 040
  7715	042522	052 122 130 104 102
  7716	042523	125 106 040 060 047
  7717	042524	123 040 104 111 123
  7718	042525	124 125 122 102 040
  7719	042526	124 105 123 124 052
  7720	042527	015 012 124 105 123 	TEST.30-- *SYSTEM TEST MODE/FREE RUNNING CLOCK TEST*
  7721	042530	124 056 063 060 055
  7722	042531	055 040 052 123 131
  7723	042532	123 124 105 115 040
  7724	042533	124 105 123 124 040
  7725	042534	115 117 104 105 057
  7726	042535	106 122 105 105 040
  7727	042536	122 125 116 116 111
  7728	042537	116 107 040 103 114
  7729	042540	117 103 113 040 124
  7730	042541	105 123 124 052 015
  7731	042542	012 124 105 123 124 	TEST.31-- *INTERNAL MAINT MODE/STATIC XMITTER FCNS (SEND-TXDONE-TSOM)*
  7732	042543	056 063 061 055 055
  7733	042544	040 052 111 116 124
  7734	042545	105 122 116 101 114
  7735	042546	040 115 101 111 116
  7736	042547	124 040 115 117 104
  7737	042550	105 057 123 124 101
  7738	042551	124 111 103 040 130
  7739	042552	115 111 124 124 105
  7740	042553	122 040 106 103 116
  7741	042554	123 040 050 123 105
  7742	042555	116 104 055 124 130
  7743	042556	104 117 116 105 055
  7744	042557	124 123 117 115 051
  7745	042560	052 015 012 124 105 	TEST.32-- *INTERNAL MAINT MODE/STATIC XMITTER FCNS (TXDBUF-TXACT-
  7746	042561	123 124 056 063 062
  7747	042562	055 055 040 052 111
  7748	042563	116 124 105 122 116
  7749	042564	101 114 040 115 101
  7750	042565	111 116 124 040 115
  7751	042566	117 104 105 057 123
  7752	042567	124 101 124 111 103
  7753	042570	040 130 115 111 124
  7754	042571	124 105 122 040 106
  7755	042572	103 116 123 040 050
  7756	042573	124 130 104 102 125
  7757	042574	106 055 124 130 101
  7758	042575	103 124 055 015 012 		   TSOM-TRANSMITTED DATA-TXDONE)*
DSDUA DECSYSTEM 2020 DUP-11 DIAGNOSTIC VERSION 0,2	MACRO %53(1020) 08:16 15-Jun-79 Page 9-4
DSDUAS	MAC	15-Jun-79 08:15		TEST	LISTS                                                                      SEQ 0221

  7759	042576	011 040 040 040 124
  7760	042577	123 117 115 055 124
  7761	042600	122 101 116 123 115
  7762	042601	111 124 124 105 104
  7763	042602	040 104 101 124 101
  7764	042603	055 124 130 104 117
  7765	042604	116 105 051 052 015
  7766	042605	012 124 105 123 124 	TEST.33-- *INTERNAL MAINT MODE/IDLE FLAGS TEST*
  7767	042606	056 063 063 055 055
  7768	042607	040 052 111 116 124
  7769	042610	105 122 116 101 114
  7770	042611	040 115 101 111 116
  7771	042612	124 040 115 117 104
  7772	042613	105 057 111 104 114
  7773	042614	105 040 106 114 101
  7774	042615	107 123 040 124 105
  7775	042616	123 124 052 015 012 	TEST.34-- *INTERNAL MAINT MODE/BASIC XMITTER TEST*
  7776	042617	124 105 123 124 056
  7777	042620	063 064 055 055 040
  7778	042621	052 111 116 124 105
  7779	042622	122 116 101 114 040
  7780	042623	115 101 111 116 124
  7781	042624	040 115 117 104 105
  7782	042625	057 102 101 123 111
  7783	042626	103 040 130 115 111
  7784	042627	124 124 105 122 040
  7785	042630	124 105 123 124 052
  7786	042631	015 012 124 105 123 	TEST.35-- *INTERNAL MAINT MODE/ABORT SEQUENCE TEST*
  7787	042632	124 056 063 065 055
  7788	042633	055 040 052 111 116
  7789	042634	124 105 122 116 101
  7790	042635	114 040 115 101 111
  7791	042636	116 124 040 115 117
  7792	042637	104 105 057 101 102
  7793	042640	117 122 124 040 123
  7794	042641	105 121 125 105 116
  7795	042642	103 105 040 124 105
  7796	042643	123 124 052 015 012 	TEST.36-- *MAINT MODE/DATA UNDER-RUN TEST*
  7797	042644	124 105 123 124 056
  7798	042645	063 066 055 055 040
  7799	042646	052 115 101 111 116
  7800	042647	124 040 115 117 104
  7801	042650	105 057 104 101 124
  7802	042651	101 040 125 116 104
  7803	042652	105 122 055 122 125
  7804	042653	116 040 124 105 123
  7805	042654	124 052 015 012 124 	TEST.37-- *INTERNAL MAINT MODE/'SEND//TEOM' INTERACTION TEST
  7806	042655	105 123 124 056 063
  7807	042656	067 055 055 040 052
  7808	042657	111 116 124 105 122
  7809	042660	116 101 114 040 115
  7810	042661	101 111 116 124 040
  7811	042662	115 117 104 105 057
  7812	042663	047 123 105 116 104
  7813	042664	057 057 124 105 117
DSDUA DECSYSTEM 2020 DUP-11 DIAGNOSTIC VERSION 0,2	MACRO %53(1020) 08:16 15-Jun-79 Page 9-5
DSDUAS	MAC	15-Jun-79 08:15		TEST	LISTS                                                                      SEQ 0222

  7814	042665	115 047 040 111 116
  7815	042666	124 105 122 101 103
  7816	042667	124 111 117 116 040
  7817	042670	124 105 123 124 040
  7818	042671	015 012 011 040 040 		   (WITHOUT BIT STUFF)*
  7819	042672	040 050 127 111 124
  7820	042673	110 117 125 124 040
  7821	042674	102 111 124 040 123
  7822	042675	124 125 106 106 051
  7823	042676	052 015 012 124 105 	TEST.40-- *INTERNAL MAINT MODE/'SEND/TEOM' INTERACTION TEST
  7824	042677	123 124 056 064 060
  7825	042700	055 055 040 052 111
  7826	042701	116 124 105 122 116
  7827	042702	101 114 040 115 101
  7828	042703	111 116 124 040 115
  7829	042704	117 104 105 057 047
  7830	042705	123 105 116 104 057
  7831	042706	124 105 117 115 047
  7832	042707	040 111 116 124 105
  7833	042710	122 101 103 124 111
  7834	042711	117 116 040 124 105
  7835	042712	123 124 040 011 015
  7836	042713	012 011 040 040 040 		   (WITH BIT STUFF)*
  7837	042714	050 127 111 124 110
  7838	042715	040 102 111 124 040
  7839	042716	123 124 125 106 106
  7840	042717	051 052 015 012 124 	TEST.41-- *INTERNAL MAINT MODE/'DATA UNDER-RUN'TEST*
  7841	042720	105 123 124 056 064
  7842	042721	061 055 055 040 052
  7843	042722	111 116 124 105 122
  7844	042723	116 101 114 040 115
  7845	042724	101 111 116 124 040
  7846	042725	115 117 104 105 057
  7847	042726	047 104 101 124 101
  7848	042727	040 125 116 104 105
  7849	042730	122 055 122 125 116
  7850	042731	047 124 105 123 124
  7851	042732	052 015 012 124 105 	TEST.42-- *INTERNAL MAINT MODE/'TSOM//TEOM'TEST*
  7852	042733	123 124 056 064 062
  7853	042734	055 055 040 052 111
  7854	042735	116 124 105 122 116
  7855	042736	101 114 040 115 101
  7856	042737	111 116 124 040 115
  7857	042740	117 104 105 057 047
  7858	042741	124 123 117 115 057
  7859	042742	057 124 105 117 115
  7860	042743	047 124 105 123 124
  7861	042744	052 015 012 124 105 	TEST.43--*INTERNAL MAINT MODE (TEST OF THE BCC OPERATION
  7862	042745	123 124 056 064 063
  7863	042746	055 055 052 111 116
  7864	042747	124 105 122 116 101
  7865	042750	114 040 115 101 111
  7866	042751	116 124 040 115 117
  7867	042752	104 105 040 050 124
  7868	042753	105 123 124 040 117
DSDUA DECSYSTEM 2020 DUP-11 DIAGNOSTIC VERSION 0,2	MACRO %53(1020) 08:16 15-Jun-79 Page 9-6
DSDUAS	MAC	15-Jun-79 08:15		TEST	LISTS                                                                      SEQ 0223

  7869	042754	106 040 124 110 105
  7870	042755	040 102 103 103 040
  7871	042756	117 120 105 122 101
  7872	042757	124 111 117 116 040
  7873	042760	015 012 011 040 040 		  USING CRC.CCITT FOR THE POLYNOMIAL)TEST*
  7874	042761	125 123 111 116 107
  7875	042762	040 103 122 103 056
  7876	042763	103 103 111 124 124
  7877	042764	040 106 117 122 040
  7878	042765	124 110 105 040 120
  7879	042766	117 114 131 116 117
  7880	042767	115 111 101 114 051
  7881	042770	124 105 123 124 052
  7882	042771	015 012 124 105 123 	TEST.44-- *INTERNAL MAINT MODE/RCVR EN-RCVR ACTIVE-RSOM
  7883	042772	124 056 064 064 055
  7884	042773	055 040 052 111 116
  7885	042774	124 105 122 116 101
  7886	042775	114 040 115 101 111
  7887	042776	116 124 040 115 117
  7888	042777	104 105 057 122 103
  7889	043000	126 122 040 105 116
  7890	043001	055 122 103 126 122
  7891	043002	040 101 103 124 111
  7892	043003	126 105 055 122 123
  7893	043004	117 115 040 015 012 		   (PRIMARY MODE) TEST*
  7894	043005	011 040 040 040 050
  7895	043006	120 122 111 115 101
  7896	043007	122 131 040 115 117
  7897	043010	104 105 051 040 124
  7898	043011	105 123 124 052 015
  7899	043012	012 124 105 123 124 	TEST.45-- *INTERNAL MAINT MODE/RCVR EN-RCVR ACTIVE-RSOM
  7900	043013	056 064 065 055 055
  7901	043014	040 052 111 116 124
  7902	043015	105 122 116 101 114
  7903	043016	040 115 101 111 116
  7904	043017	124 040 115 117 104
  7905	043020	105 057 122 103 126
  7906	043021	122 040 105 116 055
  7907	043022	122 103 126 122 040
  7908	043023	101 103 124 111 126
  7909	043024	105 055 122 123 117
  7910	043025	115 040 015 012 011 		   (SECONDARY MODE) TEST*
  7911	043026	040 040 040 050 123
  7912	043027	105 103 117 116 104
  7913	043030	101 122 131 040 115
  7914	043031	117 104 105 051 040
  7915	043032	124 105 123 124 052
  7916	043033	015 012 124 105 123 	TEST.46-- *INTERNAL MAINT MODE/'REOMM//RXDONE' (PRIMARY MODE) TEST*
  7917	043034	124 056 064 066 055
  7918	043035	055 040 052 111 116
  7919	043036	124 105 122 116 101
  7920	043037	114 040 115 101 111
  7921	043040	116 124 040 115 117
  7922	043041	104 105 057 047 122
  7923	043042	105 117 115 115 057
DSDUA DECSYSTEM 2020 DUP-11 DIAGNOSTIC VERSION 0,2	MACRO %53(1020) 08:16 15-Jun-79 Page 9-7
DSDUAS	MAC	15-Jun-79 08:15		TEST	LISTS                                                                      SEQ 0224

  7924	043043	057 122 130 104 117
  7925	043044	116 105 047 040 050
  7926	043045	120 122 111 115 101
  7927	043046	122 131 040 115 117
  7928	043047	104 105 051 040 124
  7929	043050	105 123 124 052 015
  7930	043051	012 124 105 123 124 	TEST.47-- *INTERNAL MAINT MODE/'REOM//RXDONE'
  7931	043052	056 064 067 055 055
  7932	043053	040 052 111 116 124
  7933	043054	105 122 116 101 114
  7934	043055	040 115 101 111 116
  7935	043056	124 040 115 117 104
  7936	043057	105 057 047 122 105
  7937	043060	117 115 057 057 122
  7938	043061	130 104 117 116 105
  7939	043062	047 040 015 012 011 		   (SHARED ZERO BIT IN FLAG-PRIMARY MODE)TEST*
  7940	043063	040 040 040 050 123
  7941	043064	110 101 122 105 104
  7942	043065	040 132 105 122 117
  7943	043066	040 102 111 124 040
  7944	043067	111 116 040 106 114
  7945	043070	101 107 055 120 122
  7946	043071	111 115 101 122 131
  7947	043072	040 115 117 104 105
  7948	043073	051 124 105 123 124
  7949	043074	052 015 012 124 105 	TEST.50--*INTERNAL MAINT MODE/'REOM//RXDONE '(IN SECONDARY MODE) TEST *
  7950	043075	123 124 056 065 060
  7951	043076	055 055 052 111 116
  7952	043077	124 105 122 116 101
  7953	043100	114 040 115 101 111
  7954	043101	116 124 040 115 117
  7955	043102	104 105 057 047 122
  7956	043103	105 117 115 057 057
  7957	043104	122 130 104 117 116
  7958	043105	105 040 047 050 111
  7959	043106	116 040 123 105 103
  7960	043107	117 116 104 101 122
  7961	043110	131 040 115 117 104
  7962	043111	105 051 040 124 105
  7963	043112	123 124 040 052 015
  7964	043113	012 124 105 123 124 	TEST.51--*INTERNAL MAINT MODE /'ABORT//RXDONE' (PRIMARY MODE) TEST*
  7965	043114	056 065 061 055 055
  7966	043115	052 111 116 124 105
  7967	043116	122 116 101 114 040
  7968	043117	115 101 111 116 124
  7969	043120	040 115 117 104 105
  7970	043121	040 057 047 101 102
  7971	043122	117 122 124 057 057
  7972	043123	122 130 104 117 116
  7973	043124	105 047 040 050 120
  7974	043125	122 111 115 101 122
  7975	043126	131 040 115 117 104
  7976	043127	105 051 040 124 105
  7977	043130	123 124 052 015 012 	TEST.52--*INTERNAL MAINTNANCE MODE /'ABORT//RXDONE'
  7978	043131	124 105 123 124 056
DSDUA DECSYSTEM 2020 DUP-11 DIAGNOSTIC VERSION 0,2	MACRO %53(1020) 08:16 15-Jun-79 Page 9-8
DSDUAS	MAC	15-Jun-79 08:15		TEST	LISTS                                                                      SEQ 0225

  7979	043132	065 062 055 055 052
  7980	043133	111 116 124 105 122
  7981	043134	116 101 114 040 115
  7982	043135	101 111 116 124 116
  7983	043136	101 116 103 105 040
  7984	043137	115 117 104 105 040
  7985	043140	057 047 101 102 117
  7986	043141	122 124 057 057 122
  7987	043142	130 104 117 116 105
  7988	043143	047 040 015 012 011 		  (SECONDARY MODE) TEST*
  7989	043144	040 040 050 123 105
  7990	043145	103 117 116 104 101
  7991	043146	122 131 040 115 117
  7992	043147	104 105 051 040 124
  7993	043150	105 123 124 052 015
  7994	043151	012 124 105 123 124 	TEST.53--*INTERNAL MAINTNANCE MODE /'RXDERR/OVRRUN' (PRIMARY MODE)TEST*
  7995	043152	056 065 063 055 055
  7996	043153	052 111 116 124 105
  7997	043154	122 116 101 114 040
  7998	043155	115 101 111 116 124
  7999	043156	116 101 116 103 105
  8000	043157	040 115 117 104 105
  8001	043160	040 057 047 122 130
  8002	043161	104 105 122 122 057
  8003	043162	117 126 122 122 125
  8004	043163	116 047 040 050 120
  8005	043164	122 111 115 101 122
  8006	043165	131 040 115 117 104
  8007	043166	105 051 124 105 123
  8008	043167	124 052 015 012 124 	TEST.54--*INTERNAL MAINTNANCE MODE/'RXDERR//OVRRUN'(SECONDARY MODE)TEST*
  8009	043170	105 123 124 056 065
  8010	043171	064 055 055 052 111
  8011	043172	116 124 105 122 116
  8012	043173	101 114 040 115 101
  8013	043174	111 116 124 116 101
  8014	043175	116 103 105 040 115
  8015	043176	117 104 105 057 047
  8016	043177	122 130 104 105 122
  8017	043200	122 057 057 117 126
  8018	043201	122 122 125 116 047
  8019	043202	050 123 105 103 117
  8020	043203	116 104 101 122 131
  8021	043204	040 115 117 104 105
  8022	043205	051 124 105 123 124
  8023	043206	052 015 012 124 105 	TEST.55--*INTERNAL MAINT MODE/ 'TXDBUF//RXDBUF'
  8024	043207	123 124 056 065 065
  8025	043210	055 055 052 111 116
  8026	043211	124 105 122 116 101
  8027	043212	114 040 115 101 111
  8028	043213	116 124 040 115 117
  8029	043214	104 105 057 040 047
  8030	043215	124 130 104 102 125
  8031	043216	106 057 057 122 130
  8032	043217	104 102 125 106 047
  8033	043220	040 015 012 011 040 		   (SPECIFIC DATA PATERNS THRU RECIEVER IN PRIMARY MODE) TEST*
DSDUA DECSYSTEM 2020 DUP-11 DIAGNOSTIC VERSION 0,2	MACRO %53(1020) 08:16 15-Jun-79 Page 9-9
DSDUAS	MAC	15-Jun-79 08:15		TEST	LISTS                                                                      SEQ 0226

  8034	043221	040 040 050 123 120
  8035	043222	105 103 111 106 111
  8036	043223	103 040 104 101 124
  8037	043224	101 040 120 101 124
  8038	043225	105 122 116 123 040
  8039	043226	124 110 122 125 040
  8040	043227	122 105 103 111 105
  8041	043230	126 105 122 040 111
  8042	043231	116 040 120 122 111
  8043	043232	115 101 122 131 040
  8044	043233	115 117 104 105 051
  8045	043234	040 124 105 123 124
  8046	043235	052 015 012 124 105 	TEST.56--*SYSTEM TEST MODE (VERIFY THAT THE DEVICE WILL WORK WITH ALL
  8047	043236	123 124 056 065 066
  8048	043237	055 055 052 123 131
  8049	043240	123 124 105 115 040
  8050	043241	124 105 123 124 040
  8051	043242	115 117 104 105 040
  8052	043243	050 126 105 122 111
  8053	043244	106 131 040 124 110
  8054	043245	101 124 040 124 110
  8055	043246	105 040 104 105 126
  8056	043247	111 103 105 040 127
  8057	043250	111 114 114 040 127
  8058	043251	117 122 113 040 127
  8059	043252	111 124 110 040 101
  8060	043253	114 114 015 012 011 		  POSSIBLE SECONDARY STATION ADDRESSES)TEST*
  8061	043254	040 040 120 117 123
  8062	043255	123 111 102 114 105
  8063	043256	040 123 105 103 117
  8064	043257	116 104 101 122 131
  8065	043260	040 123 124 101 124
  8066	043261	111 117 116 040 101
  8067	043262	104 104 122 105 123
  8068	043263	123 105 123 051 124
  8069	043264	105 123 124 052 015
  8070	043265	012 124 105 123 124 	TEST.57--*INTERNAL MAINTNANCE MODE(TEST OF THE BCC OPERATION USING
  8071	043266	056 065 067 055 055
  8072	043267	052 111 116 124 105
  8073	043270	122 116 101 114 040
  8074	043271	115 101 111 116 124
  8075	043272	116 101 116 103 105
  8076	043273	040 115 117 104 105
  8077	043274	050 124 105 123 124
  8078	043275	040 117 106 040 124
  8079	043276	110 105 040 102 103
  8080	043277	103 040 117 120 105
  8081	043300	122 101 124 111 117
  8082	043301	116 040 125 123 111
  8083	043302	116 107 040 015 012 		  CRC.CCITT FOR THE POLYNOMIAL)TEST*
  8084	043303	011 040 040 103 122
  8085	043304	103 056 103 103 111
  8086	043305	124 124 040 106 117
  8087	043306	122 040 124 110 105
  8088	043307	040 120 117 114 131
DSDUA DECSYSTEM 2020 DUP-11 DIAGNOSTIC VERSION 0,2	MACRO %53(1020) 08:16 15-Jun-79 Page 9-10
DSDUAS	MAC	15-Jun-79 08:15		TEST	LISTS                                                                      SEQ 0227

  8089	043310	116 117 115 111 101
  8090	043311	114 051 124 105 123
  8091	043312	124 052 015 012 124 	TEST.60--*INTERNAL MAINT MODE (IDLE STATE) TEST*
  8092	043313	105 123 124 056 066
  8093	043314	060 055 055 052 111
  8094	043315	116 124 105 122 116
  8095	043316	101 114 040 115 101
  8096	043317	111 116 124 040 115
  8097	043320	117 104 105 040 050
  8098	043321	111 104 114 105 040
  8099	043322	123 124 101 124 105
  8100	043323	051 040 124 105 123
  8101	043324	124 052 015 012 124 	TEST.61--*EXTERNAL MAINT MODE 'DTR//DSR!RING' TEST*
  8102	043325	105 123 124 056 066
  8103	043326	061 055 055 052 105
  8104	043327	130 124 105 122 116
  8105	043330	101 114 040 115 101
  8106	043331	111 116 124 040 115
  8107	043332	117 104 105 040 047
  8108	043333	104 124 122 057 057
  8109	043334	104 123 122 041 122
  8110	043335	111 116 107 047 040
  8111	043336	124 105 123 124 052
  8112	043337	015 012 124 105 123 	TEST.62--*EXTERNAL MAINT MODE 'RTS//CTS!CARDET' TEST*
  8113	043340	124 056 066 062 055
  8114	043341	055 052 105 130 124
  8115	043342	105 122 116 101 114
  8116	043343	040 115 101 111 116
  8117	043344	124 040 115 117 104
  8118	043345	105 040 047 122 124
  8119	043346	123 057 057 103 124
  8120	043347	123 041 103 101 122
  8121	043350	104 105 124 047 040
  8122	043351	124 105 123 124 052
  8123	043352	015 012 124 105 123 	TEST.63--*EXTERNAL MAINT MODE 'STD//SRD' TEST*
  8124	043353	124 056 066 063 055
  8125	043354	055 052 105 130 124
  8126	043355	105 122 116 101 114
  8127	043356	040 115 101 111 116
  8128	043357	124 040 115 117 104
  8129	043360	105 040 047 123 124
  8130	043361	104 057 057 123 122
  8131	043362	104 047 040 124 105
  8132	043363	123 124 052 015 012 	TEST.64--*EXTERNAL MAINT MODE (RXCSR) TEST*
  8133	043364	124 105 123 124 056
  8134	043365	066 064 055 055 052
  8135	043366	105 130 124 105 122
  8136	043367	116 101 114 040 115
  8137	043370	101 111 116 124 040
  8138	043371	115 117 104 105 040
  8139	043372	050 122 130 103 123
  8140	043373	122 051 040 124 105
  8141	043374	123 124 052 015 012 	TEST.65--*SYSTEM TEST MODE(TRANSMITTER INTERRUPT)TEST*
  8142	043375	124 105 123 124 056
  8143	043376	066 065 055 055 052
DSDUA DECSYSTEM 2020 DUP-11 DIAGNOSTIC VERSION 0,2	MACRO %53(1020) 08:16 15-Jun-79 Page 9-11
DSDUAS	MAC	15-Jun-79 08:15		TEST	LISTS                                                                      SEQ 0228

  8144	043377	123 131 123 124 105
  8145	043400	115 040 124 105 123
  8146	043401	124 040 115 117 104
  8147	043402	105 050 124 122 101
  8148	043403	116 123 115 111 124
  8149	043404	124 105 122 040 111
  8150	043405	116 124 105 122 122
  8151	043406	125 120 124 051 124
  8152	043407	105 123 124 052 015
  8153	043410	012 124 105 123 124 	TEST.66--*SYSTEM TEST MODE(TRANSMITER INTERRUPT)TEST*
  8154	043411	056 066 066 055 055
  8155	043412	052 123 131 123 124
  8156	043413	105 115 040 124 105
  8157	043414	123 124 040 115 117
  8158	043415	104 105 050 124 122
  8159	043416	101 116 123 115 111
  8160	043417	124 105 122 040 111
  8161	043420	116 124 105 122 122
  8162	043421	125 120 124 051 124
  8163	043422	105 123 124 052 015
  8164	043423	012 124 105 123 124 	TEST.67--*EXTERNAL MAINT MODE(RECIEVER INTERRUPT)TEST*
  8165	043424	056 066 067 055 055
  8166	043425	052 105 130 124 105
  8167	043426	122 116 101 114 040
  8168	043427	115 101 111 116 124
  8169	043430	040 115 117 104 105
  8170	043431	050 122 105 103 111
  8171	043432	105 126 105 122 040
  8172	043433	111 116 124 105 122
  8173	043434	122 125 120 124 051
  8174	043435	124 105 123 124 052
  8175	043436	015 012 124 105 123 	TEST.70--*SYSTEM TEST MODE(RECIEVER INTERRUPT TEST)*
  8176	043437	124 056 067 060 055
  8177	043440	055 052 123 131 123
  8178	043441	124 105 115 040 124
  8179	043442	105 123 124 040 115
  8180	043443	117 104 105 050 122
  8181	043444	105 103 111 105 126
  8182	043445	105 122 040 111 116
  8183	043446	124 105 122 122 125
  8184	043447	120 124 040 124 105
  8185	043450	123 124 051 052 015
  8186	043451	012 124 105 123 124 	TEST.71--*SYSTEM TEST MODE(RECIEVER INTERRUPT) TEST*
  8187	043452	056 067 061 055 055
  8188	043453	052 123 131 123 124
  8189	043454	105 115 040 124 105
  8190	043455	123 124 040 115 117
  8191	043456	104 105 050 122 105
  8192	043457	103 111 105 126 105
  8193	043460	122 040 111 116 124
  8194	043461	105 122 122 125 120
  8195	043462	124 051 040 124 105
  8196	043463	123 124 052 015 012 	TEST.72--*SYSTEM TEST MODE(INTERRUPTS)TEST*
  8197	043464	124 105 123 124 056
  8198	043465	067 062 055 055 052
DSDUA DECSYSTEM 2020 DUP-11 DIAGNOSTIC VERSION 0,2	MACRO %53(1020) 08:16 15-Jun-79 Page 9-12
DSDUAS	MAC	15-Jun-79 08:15		TEST	LISTS                                                                      SEQ 0229

  8199	043466	123 131 123 124 105
  8200	043467	115 040 124 105 123
  8201	043470	124 040 115 117 104
  8202	043471	105 050 111 116 124
  8203	043472	105 122 122 125 120
  8204	043473	124 123 051 124 105
  8205	043474	123 124 052 015 012 	TEST.73--*SYSTEM TEST MODE(INTERRUPT)TEST*
  8206	043475	124 105 123 124 056
  8207	043476	067 063 055 055 052
  8208	043477	123 131 123 124 105
  8209	043500	115 040 124 105 123
  8210	043501	124 040 115 117 104
  8211	043502	105 050 111 116 124
  8212	043503	105 122 122 125 120
  8213	043504	124 051 124 105 123
  8214	043505	124 052 015 012 124 	TEST.74--*SYSTEM TEST MODE 'RXDONE//INTERRUPT' TEST*
  8215	043506	105 123 124 056 067
  8216	043507	064 055 055 052 123
  8217	043510	131 123 124 105 115
  8218	043511	040 124 105 123 124
  8219	043512	040 115 117 104 105
  8220	043513	040 047 122 130 104
  8221	043514	117 116 105 057 057
  8222	043515	111 116 124 105 122
  8223	043516	122 125 120 124 047
  8224	043517	040 124 105 123 124
  8225	043520	052 015 012 124 105 	TEST.75--*SYSTEM TEST MODE 'TABORT//INTERRUPT' TEST*
  8226	043521	123 124 056 067 065
  8227	043522	055 055 052 123 131
  8228	043523	123 124 105 115 040
  8229	043524	124 105 123 124 040
  8230	043525	115 117 104 105 040
  8231	043526	047 124 101 102 117
  8232	043527	122 124 057 057 111
  8233	043530	116 124 105 122 122
  8234	043531	125 120 124 047 040
  8235	043532	124 105 123 124 052
  8236
  8237	043533	015 012 015 012 015
  8238	043534	012 000 000 000 000 	?
  8239
  8240
  8241	043535	000000	000000		END:	0
  8242			030000			END	BEGIN

NO ERRORS DETECTED

PROGRAM BREAK IS 000000
ABSOLUTE BREAK IS 047447
CPU TIME USED 00:45.271

40P CORE USED

A.WRFR	  1072	  1084#
ABORT	   272#                                                                                                            SEQ 0230
AC	   222#
AC0	   223#	  7137	  7163	  7164	  7176	  7184	  7206
AC1	   224#	  7138	  7176	  7177	  7205
ACC	  3799	  6826#
ACC1	  6828#	  6836
ACCK	  1251	  1281#	  1287
ACDCL	  7248#
AL00	  2129	  2130	  7434#	  7434
AL00Z	  7434	  7437#
AL01	  2180	  2181	  7438#	  7438
AL01Z	  7438	  7441#
AL02	  2235	  2236	  7442#	  7442
AL02Z	  7442	  7445#
AL03	  2288	  2289	  7446#	  7446
AL03Z	  7446	  7450#
ALLEND	  1091#	  1097
ALTGO	   231#
ALTMGO	   622#
AROV	   536#
AROVTP	   536#
AROVU	   536#
AST	   737#	  1035
ASTRSK	  1018	  1029#	  1051	  1058	  1089	  1101	  1181	  1186	  6797
ATSIN	   738#
BDDAT	  7261#
BEGEND	   618#	  6555
BEGIN	   233	   234	   239	   240	   241	   242	   243	   487	   488	   549#	  8242
BEGIN1	   565#	   619
BEGTST	   898#	   898	  1079	  1096	  1111
BELL	   741#	  6654
BIS	   536#
BITW	  4686	  4730	  7493#
BMD	  7243#
CALBCC	  3792	  3800	  3802	  3842#	  5280	  6820
CARDET	  5526	  5556	  5754	  7456#
CCA	   536#
CHAIN	   292#
CHNOFF	   536#
CHNON	   536#
CLK	  7490#
CLKU	   536#
CLOCKF	   604#
CNTLC	   621#
CNTRP	   536#
COMIN2	  1048	  1054#
COMIN3	  1055	  1061#
COMINP	  1045#
COMMA	   730#
COMNRC	  1039	  1077	  1079#
COMREC	  1080#	  1188
CONSW	   605#
CONTU	   256#	  6795
CORFRM	  1049	  6580#                                                                                                    SEQ 0231
CPOPJ	   625#
CPOPJ1	   623#	  6792
CRCEN	  2404	  2508	  2644	  2779	  2967	  3152	  3278	  3391	  3524	  3647	  3871	  3968	  4100	  4218
	  4349	  4542	  4651	  4789	  4869	  4986	  5125	  5182	  5327	  6215	  7483#
CRCERR	  7474#
CRLF	   422	   423	   725#	  1033
CRLF2	   426	   427	   727#
CRSERV	  1066	  1104#
CRY0	   536#
CRY1	   536#
CSHFLG	   784#
CSHMEM	   785#
CTRP	   536#
CTS	  5526	  5556	  5754	  7455#
CYCL60	   778#
DCK	   536#
DDTLNK	   306#	   563
DDTSRT	   563#
DEBUG	   230#
DECMOD	  7482#
DECVER	    10#	    15	    26	   584
DF22F	   689#
DIAGMN	   552#
DING	   278#
DISXFR	  7249#
DOLLAR	   744#
DSCA	  5163	  5486	  5526	  5593	  5691	  5791	  5980	  7453#
DSCB	  5486	  5526	  5593	  5691	  5791	  7468#
DSINTE	  5942	  5964	  7463#
DSKUPD	   589
DSR	  5456	  5754	  6661	  6693	  7459#
DTBLE	  1114	  1116	  1118#
DTR	  5434	  5456	  5471	  5730	  5754	  5770	  5963	  6657	  6687	  7467#
DUPCLK	  2455	  2525	  2536	  2577	  2587	  2656	  2674	  2685	  2697	  2718	  2735	  2791	  2800	  2812
	  2815	  2844	  2908	  2979	  2988	  2995	  2998	  3009	  3027	  3042	  3048	  3053	  3057	  3060
	  3065	  3073	  3098	  3164	  3176	  3179	  3189	  3200	  3203	  3227	  3290	  3302	  3308	  3311
	  3339	  3403	  3415	  3421	  3431	  3440	  3469	  3536	  3551	  3554	  3564	  3573	  3598	  3659
	  3671	  3677	  3687	  3698	  3709	  3731	  3780	  3791	  3798	  3822	  3885	  3888	  3894	  3909
	  3986	  3989	  3995	  4016	  4047	  4115	  4118	  4124	  4136	  4157	  4164	  4167	  4233	  4236
	  4242	  4251	  4257	  4269	  4296	  4303	  4367	  4370	  4376	  4388	  4409	  4416	  4422	  4441
	  4444	  4450	  4466	  4485	  4492	  4495	  4557	  4560	  4566	  4578	  4596	  4669	  4672	  4678
	  4690	  4709	  4712	  4718	  4734	  4804	  4807	  4813	  4887	  4890	  4896	  4917	  4920	  4926
	  5004	  5021	  5028	  5046	  5073	  5230	  5241	  5246	  5261	  5271	  5335	  5341	  5350	  5360
	  5372	  5379	  5384	  6830	  7026#	  7042	  7053
EACCPT	  1042#	  1046	  1081	  1093	  1191
EBEG	  1087	  1095#
EBIT0	   536#
EBIT1	   536#
EBIT10	   536#
EBIT11	   536#
EBIT12	   536#
EBIT13	   536#
EBIT14	   536#                                                                                                            SEQ 0232
EBIT15	   536#
EBIT2	   536#
EBIT3	   536#
EBIT4	   536#
EBIT5	   536#
EBIT6	   536#
EBIT7	   536#
EBIT8	   536#
EBIT9	   536#
END	  8241#
ENDFIX	   864#
ENDTST	   899#	   899	  1080	  1092	  6790
EP1	  6694	  6714#
EP1A	  6717	  6728#
EP2	  6706	  6708	  6719#
EP2A	  6722	  6740#
ER30A	  2348	  2352#
ER30B	  2359	  2363#
ERMORE	   638#
EROLD	   498
ERRLOP	   894#	   894	  6783	  6786	  6789
ERRPC	   609#
ERRTLS	   610#
ERSTOP	   281#
ESTART	   955	   969#
EXCASB	   229#	   587
EXIOT	   536#
EXITS	   235	   868#
EXTBIT	   888#	   888	   906	   930	   932	   970	   974	   978	   981	  6985	  7164	  7184
FLGMSG	  2741	  7006#
FOV	   536#
FOVU	   536#
FRDLNK	   304#
FSELNK	   303#
FXU	   536#
GARBAG	  6793#	  6793
GDDAT	  1311	  1319	  1321	  1358	  1362	  1364	  1398	  1402	  1404	  1544	  1552	  1554	  1592	  1596
	  1598	  1632	  1636	  1638	  1764	  1772	  1774	  1992	  1999	  2001	  2037	  2045	  2047	  2083
	  2091	  2093	  2126	  2146	  2148	  2177	  2195	  2197	  2232	  2252	  2254	  2285	  2304	  2306
	  2416	  2419	  2422	  2425	  2429	  2432	  2440	  2442	  2443	  2446	  2458	  2461	  2462	  2465
	  2801	  2884	  2895	  2992	  3024	  3036	  3037	  3147	  3210	  3211	  3273	  3318	  3319	  3386
	  3447	  3448	  3519	  3642	  4216	  4288	  5014	  5037	  5039	  5041	  5055	  5058	  5153	  5171
	  5173	  5215	  5237	  5254	  5257	  7260#
GETSWT	   903	   953#
H325F	   896#	   896	   952
HDXEN	  7499#
HELP	   890	  7519#
HIREQ	  7246#
HYPEN	   735#
IFLG	  6854	  6881	  6902#	  6904
ILLEGL	  1113	  1118	  1184#
INHCSH	   289#
INHPAG	   286#                                                                                                            SEQ 0233
INTFLG	  5835	  5876	  5881	  5884	  5886	  5891	  5946	  5953	  5958	  5968	  5975	  6030	  6043	  6057
	  6064	  6116	  6143	  6150	  6155	  6158	  6160	  6165	  6225	  6243	  6277	  6292	  6336	  6343
	  6348	  6352	  6366	  6381	  6428	  6451	  6458	  6463	  6471	  6540	  6848	  6873	  6903	  7231#
INTSAV	  6650#	  6650	  6667
IOCLR	   536#	  1014
IRPTAC	   225#	   899	  1031
ISO	  1017	  2740	  6680	  6685#	  6710
ISO1	  6671	  6699#	  6738
ISOEX	  6700	  6710#	  6745
ITERAT	   232#	   582
ITRCH1	   642#
ITRCNT	   582#
JCONF	   895#	   895
JOB41	   536#
JOBAPR	   536#
JOBCNI	   536#
JOBDDT	   536#
JOBFF	   536#
JOBOPC	   536#
JOBREL	   536#
JOBREN	   536#
JOBSA	   536#
JOBSYM	   536#
JOBTPC	   536#
JOBUSY	   536#
JOBUUO	   536#
JOBVER	   536#
KAIFLG	   599#
KLFLG	   600#
KNTRP	   536#
KTRP	   536#
LACLK	   536#
LACLKE	   536#
LAPRAL	   536#
LAPRP1	   536#
LAPRP2	   536#
LAPRP3	   536#
LAPRP4	   536#
LAPRP5	   536#
LAPRP6	   536#
LAPRP7	   536#
LCHNOF	   536#
LCHNON	   536#
LCNTXT	   536#
LCNXER	   536#
LCPAER	   536#
LCPSFT	   536#
LCPWRF	   536#
LDATAF	   536#
LDLNK	   305#	   552	   554
LDNXER	   536#
LDPAER	   536#
LDPSFT	   536#                                                                                                            SEQ 0234
LDPWRF	   536#
LEBXMH	   536#
LEBXML	   536#
LENXER	   536#
LEPAER	   536#
LEPSFT	   536#
LEPWRF	   536#
LEUPFW	   536#	  6756
LEXCMP	   536#
LFLGCL	   536#
LFLGDS	   536#
LFLGEN	   536#
LFLGST	   536#
LFP	   739#
LINSTF	   536#
LINT	   536#
LIOCLR	   536#
LLACBL	   536#
LLDUSB	   536#
LMBXMH	   536#
LMBXML	   536#
LNXMEN	   536#
LNXMER	   536#
LOOPER	   280#
LOREQ	  7247#
LPAREN	   536#
LPARER	   536#
LPFWPC	   536#
LPGFTR	   536#	  1238	  1241	  6755	  6760
LPICH1	   536#
LPICH2	   536#
LPICH3	   536#
LPICH4	   536#
LPICH5	   536#
LPICH6	   536#
LPICH7	   536#
LPICHA	   536#
LPICLR	   536#
LPIIP1	   536#
LPIIP2	   536#
LPIIP3	   536#
LPIIP4	   536#
LPIIP5	   536#
LPIIP6	   536#
LPIIP7	   536#
LPINTR	  6649#	  6737
LPIOFF	   536#
LPION	   536#
LPRCH1	   536#
LPRCH2	   536#
LPRCH3	   536#
LPRCH4	   536#
LPRCH5	   536#                                                                                                            SEQ 0235
LPRCH6	   536#
LPRCH7	   536#
LPRFMH	   536#
LPRFML	   536#
LPSFT	   536#
LPSFTE	   536#
LPWRFE	   536#
LPWRFL	   536#
LREQSE	   536#
LRQCLR	   536#
LSECMO	   536#
LSMODE	   536#
LSNXER	   536#
LSPAER	   536#
LSPSFT	   536#
LSPWRF	   536#
LTBASH	   536#
LTBASL	   536#
LTRPAE	   536#
LTRPEN	   536#
LUSCMP	   536#
LUUO	   536#
LUUO1	   669	   670
LUUO10	   669	   674
LUUO11	   669	   674
LUUO12	   669	   675
LUUO13	   669	   675
LUUO14	   669	   676
LUUO15	   669	   676
LUUO16	   669	   677
LUUO17	   669	   677
LUUO2	   669	   671
LUUO20	   669	   678
LUUO21	   669	   678
LUUO22	   669	   679
LUUO23	   669	   679
LUUO24	   669	   680
LUUO25	   669	   680
LUUO26	   669	   681
LUUO27	   669	   681
LUUO3	   669	   671
LUUO30	   669	   682
LUUO31	   669	   682
LUUO32	   669	   683
LUUO33	   669	   683
LUUO4	   669	   672
LUUO5	   669	   672
LUUO6	   669	   673
LUUO7	   669	   673
LUUOI	   536#
LWRITE	   536#
MAPDU	  1013	  6961#
MAPNEW	   690#                                                                                                            SEQ 0236
MARGIN	   612#
MCNVER	     8#	    15	    26	   584
MEMLOW	   692#
MEMMAP	   590
MEMSIZ	   693#
MEMTOT	   691#
MEXT	  5431	  5484	  5532	  5585	  5632	  5683	  5732	  5783	  7505#
MINUS	   734#
MMFLG	   887	  1029	  1110	  2409	  2512	  2648	  2783	  2971	  3156	  3282	  3395	  3528	  3651	  3773
	  3877	  3978	  4107	  4225	  4359	  4549	  4661	  4796	  4879	  4990	  5133	  5219	  5324	  5430
	  5531	  5631	  5731	  5827	  5869	  5935	  6020	  6108	  6212	  6333	  6418	  6699	  7230#
MMODE	  2408	  2415	  2511	  2647	  2782	  2970	  3155	  3281	  3394	  3527	  3650	  3774	  3876	  3977
	  4106	  4224	  4358	  4548	  4660	  4795	  4878	  4989	  5220	  5325	  7503#
MMODEA	  5132	  5826	  5868	  6019	  6107	  6211	  6332	  6417	  6511	  6705	  7492#
MMODEB	  5934	  6707	  7491#
MODDVC	   288#	   910
MODDVL	   487	   487#	   585
MODDVU	   488	   488#	   586
MODLNK	   307#	   549
MONCTL	   602#
MONFLG	   601#
MONTEN	   603#
MONTYP	   816#
MPVU	   536#
MRESET	  1437	  1491	  1670	  1808	  1900	  6767	  7495#
MTDATA	  2604	  3002	  3012	  3031	  3076	  3206	  3314	  3424	  3433	  3443	  3580	  5342	  5361	  6832
	  7489#
MUBA1	  7151#	  7161
MUBA1A	  7154	  7155	  7159#
MUBA2	  7157	  7163#
MUBA3	  7149	  7166#
MUBA4	  7171#	  7182
MUBA4A	  7174	  7175	  7180#
MUBA5	  7178	  7184#
MUBA6	  7169	  7186#
MUBA7	  7191#	  7201
MUBA7A	  7194	  7195	  7199#
MUBA8	  7197	  7203#
MUBADR	   911	  7137#
MUBAX	  7189	  7205#
MUUO	   536#
MUUOPC	   536#
NED	  7245#
NLSTOR	  6671#
NOPNT	   276#
NXMU	   536#
OCTDIG	  1070#
ONCE	   886#	   886	   901	   953	  1063
OPRSEL	   290#
OPTIME	   704#
OUT	  5180	  5187#
OVRRUN	  4832	  4906	  4949	  7473#
P	   251	   252	   333	   334	   335	   336	   536#	   624                                                     SEQ 0237
PAG	   536#
PALERS	   282#
PARCSH	   993	  3974	  4352	  4657	  4874	  7269#
PARCSR	   990	  1895	  1903	  1941	  1985	  2283	  2405	  2509	  2645	  2780	  2968	  3153	  3279	  3392
	  3525	  3648	  3870	  3967	  4099	  4217	  4348	  4541	  4650	  4788	  4868	  4985	  5124	  5184
	  5328	  6222	  7268#	  7436	  7441	  7444	  7449
PAREA1	   244#	   580
PAREA2	   245#	   581
PAREA3	   246#	   578
PAREA4	   247#	   579
PAREA5	   248#	   591
PAREA6	   249#	   592
PAREA7	   591#
PAREA8	   592#
PARU	   536#
PASCNT	   606#
PCNTX	   889#	   889
PDISF	   701#
PDLOVU	   536#
PDOVTP	   536#
PERIOD	   731#
PFRTN	  1243#	  1243	  6761
PFSTRT	   558#
PGMNAM	   583	   872#
PIA30	  7251#
PIA31	  7252#
PIA32	  7253#
PIA33	  7254#
PIA34	  7255#
PIA35	  5829	  5871	  5937	  6016	  6102	  6209	  6326	  6414	  6502	  7256#
PICHN1	   536#
PICHN2	   536#
PICHN3	   536#
PICHN4	   536#
PICHN5	   536#
PICHN6	   536#
PICHN7	   536#
PICHNA	   536#
PICLR	   536#
PIOFF	   536#
PION	   536#
PITAB	  6844	  6852	  6869	  6877	  7234#
PLIST	   770#	   770
PLISTE	   770	   772#
PLISTS	   771#
PLUS	   736#
PNTENB	   700#
PNTEXT	   579#
PNTFLG	   699#
PNTINH	   702#
PNTLPT	   277#
PNTNAM	   578#
PNTRP	   536#                                                                                                            SEQ 0238
PNTSPC	   703#
PRISEC	  5125	  5182	  7484#
PRTMES	  1028#
PRTOUT	   226#	   900	  1032	  1044	  1045	  1047	  1054	  1061	  1065	  1067	  1070	  1071	  1073	  1074
	  1075	  1079	  1080	  1084	  1086	  1088	  1104	  1190
PRTSTA	  1261	  1321	  1364	  1404	  1448	  1452	  1507	  1511	  1554	  1598	  1638	  1684	  1730	  1774
	  1820	  1866	  1912	  1958	  2001	  2047	  2093	  2148	  2197	  2254	  2306	  2353	  2364	  2422
	  2432	  2446	  2465	  2532	  2543	  2551	  2562	  2570	  2583	  2593	  2600	  2608	  2670	  2680
	  2702	  2724	  2828	  2852	  2914	  3005	  3015	  3019	  3034	  3079	  3083	  3104	  3185	  3194
	  3208	  3233	  3316	  3325	  3345	  3427	  3436	  3445	  3454	  3475	  3560	  3569	  3577	  3583
	  3604	  3682	  3693	  3702	  3714	  3737	  3802	  3828	  3901	  3914	  3921	  3927	  4002	  4008
	  4021	  4027	  4033	  4052	  4058	  4064	  4141	  4172	  4178	  4274	  4288	  4308	  4314	  4393
	  4427	  4471	  4500	  4506	  4601	  4605	  4611	  4615	  4701	  4745	  4749	  4755	  4759	  4828
	  4835	  4909	  4945	  4952	  5033	  5039	  5051	  5058	  5079	  5165	  5169	  5173	  5234	  5251
	  5257	  5265	  5275	  5283	  5345	  5354	  5365	  5375	  5388	  5394	  5446	  5469	  5497	  5546
	  5569	  5598	  5644	  5667	  5696	  5744	  5767	  5796	  5879	  5889	  5897	  5956	  5978	  5984
	  6040	  6067	  6126	  6153	  6163	  6173	  6241	  6271	  6275	  6295	  6346	  6384	  6437	  6461
	  6474	  6523	  6543	  6677#
PTRP	   536#
PUTCON	   951	   956#
PVPAGI	   797#
QUEST	   742#
RABORT	  7475#
RADIX	   745#
RADLSC	   747#
RADLSP	   746#
RANDBS	   580#
RCRC7T	  7510#
RCRCIN	  7511#
RCVEN	  3873	  3971	  4103	  4221	  4355	  4545	  4654	  4792	  4872	  4994	  5129	  5222	  5329	  6022
	  6110	  6214	  6419	  6506	  7464#
RCVMT	  3906	  4013	  4044	  4130	  4263	  4382	  4456	  4460	  4572	  4590	  4684	  4696	  4724	  4728
	  4740	  4819	  4823	  4903	  4932	  4936	  4940	  7045#	  7056
RECACT	  3899	  3925	  4000	  4019	  4055	  4599	  4743	  4826	  4943	  7457#
REENTR	   560#
RELIAB	   284#	  3805	  5286	  6781
REOM	  4176	  4312	  4425	  4504	  7476#
REPT	   536#
REPT1	   536#
REPTU	   658#
REQSET	   536#
RESRT1	   635#
RESRT2	   636#
RETURN	   567#
RIMSG	  6879	  6912#	  6916
RING	  5456	  5754	  7454#
RINTEN	  6023	  6105	  6217	  6416	  6506	  7462#
RINTER	  5939	  6015	  6101	  6208	  6413	  6504	  6842#
RNGBLL	  6655#
RSOM	  3918	  4031	  4062	  5167	  7477#
RSTART	   273#
RTP	   740#
RTS	  5526	  5534	  5556	  5572	  5730	  5754	  5770	  5943	  7466#                                            SEQ 0239
RUNFLG	   607#
RXCSR	   982	  1246	  1537	  1585	  1627	  1665	  1673	  1711	  2076	  2230	  3910	  3923	  4017	  4048
	  4741	  4824	  4941	  4993	  5029	  5047	  5127	  5223	  5249	  5263	  5273	  5330	  5386	  5429
	  5437	  5443	  5459	  5466	  5473	  5482	  5493	  5494	  5530	  5536	  5543	  5559	  5566	  5573
	  5582	  5594	  5595	  5628	  5634	  5641	  5657	  5664	  5671	  5680	  5692	  5693	  5728	  5734
	  5741	  5757	  5764	  5771	  5780	  5792	  5793	  5944	  5945	  5961	  5966	  5967	  5981	  6026
	  6027	  6112	  6113	  6220	  6221	  6269	  6425	  6426	  6465	  6513	  6658	  6660	  6688	  6930
	  7264#
RXCSRH	   986	  1593	  7266#
RXCSRL	   983	  1633	  3872	  3897	  3970	  3998	  4102	  4137	  4168	  4220	  4270	  4304	  4354	  4389
	  4467	  4496	  4544	  4597	  4653	  4791	  4871	  6690	  7265#	  7435	  7439	  7447
RXDBUF	   989	  3916	  4029	  4060	  4149	  4174	  4282	  4310	  4401	  4423	  4502	  4579	  4607	  4691
	  4697	  4735	  4751	  4830	  4904	  4947	  5035	  5053	  5128	  5253	  5267	  5277	  5391	  6936
	  7267#
RXDERR	  4613	  4757	  4832	  4906	  4949	  7472#
RXDONE	  3912	  4005	  4024	  4050	  4139	  4170	  4272	  4306	  4391	  4469	  4498	  4603	  4747	  5031
	  5049	  5248	  5262	  5272	  5385	  7461#
SADR1	   233#	   556
SADR10	   242#	   572
SADR11	   243#	   573
SADR2	   234#	   558
SADR3	   235#	   560
SADR4	   236#
SADR5	   237#	   621
SADR6	   238#	   622
SADR7	   239#	   569
SADR8	   240#	   570
SADR9	   241#	   571
SBCC	  3793	  5217	  6801#
SBCC1	  6809#	  6812
SBCC2	  6815#	  6817
SBINIT	   346	   566#
SCOPE	   659#
SEND	  2412	  2415	  2515	  2538	  2573	  2647	  2782	  2970	  3069	  3155	  3196	  3281	  3304	  3394
	  3417	  3527	  3650	  3774	  4989	  5132	  5224	  5325	  6024	  6104	  6218	  6332	  6423	  6507
	  7498#
SENDIT	  1017#
SETFLG	   941	   947#
SETSW2	  1039#
SFSTRT	   556#
SLASH	   743#
SM10	   847#
SMPE	  7244#
SNTRP	   536#
SPACE	   732#
SRD	  5654	  5754	  7458#
SRTDDT	   236	   238	   562#
START	   550	   886#	   962	  1064
START1	   569#
START2	   570#
START3	   571#
START4	   572#
START5	   573#                                                                                                            SEQ 0240
STARTA	   565	  1105	  1110#	  6796
STARTX	   927	   937#
STATDU	   897#	   897	   942	  1011
STATUS	  2738	  4040	  4148	  4281	  4400	  4434	  4478	  4586	  6678	  6921#	  6957	  6977	  7032	  7038
STD	  5630	  5654	  5670	  5730	  5754	  5770	  7465#
STPSYN	  7460#
STRP	   536#
STRTX	   921#	   929
SUBLNK	   308#	   566
SVPFPC	  1239#	  1239	  6754
SW2	  1040	  1077#	  1189
SW2RES	  1068	  1188#
SWPTAB	   853#	   891
SWTEXR	   581#
SYSEXR	   554#
SYSTST	  2341	  7506#
T	  1196#	  1261	  1321	  1364	  1404	  1448	  1452	  1507	  1511	  1554	  1598	  1638	  1684	  1730
	  1774	  1820	  1866	  1912	  1958	  2001	  2047	  2093	  2148	  2197	  2254	  2306	  2353	  2364
	  2422	  2432	  2446	  2465	  2532	  2543	  2551	  2562	  2570	  2583	  2593	  2600	  2608	  2670
	  2680	  2690	  2702	  2724	  2828	  2852	  2914	  3005	  3015	  3019	  3034	  3079	  3083	  3104
	  3185	  3194	  3208	  3233	  3316	  3325	  3345	  3427	  3436	  3445	  3454	  3475	  3560	  3569
	  3577	  3583	  3604	  3682	  3693	  3702	  3714	  3737	  3802	  3828	  3901	  3914	  3921	  3927
	  4002	  4008	  4021	  4027	  4033	  4052	  4058	  4064	  4141	  4172	  4178	  4274	  4288	  4308
	  4314	  4393	  4427	  4471	  4500	  4506	  4601	  4605	  4611	  4615	  4701	  4745	  4749	  4755
	  4759	  4828	  4835	  4909	  4945	  4952	  5033	  5039	  5051	  5058	  5079	  5165	  5169	  5173
	  5234	  5251	  5257	  5265	  5275	  5283	  5345	  5354	  5365	  5375	  5388	  5394	  5446	  5469
	  5497	  5546	  5569	  5598	  5644	  5667	  5696	  5744	  5767	  5796	  5837	  5879	  5889	  5897
	  5956	  5978	  5984	  6040	  6067	  6126	  6153	  6163	  6173	  6241	  6271	  6275	  6295	  6346
	  6384	  6437	  6461	  6474	  6523	  6543
T.1	  1119	  1235#	  1262	  1276
T.10	  1126	  1561	  1563	  1584#	  1599	  1603
T.11	  1127	  1604	  1606	  1626#	  1639	  1643
T.12	  1128	  1644	  1646	  1665#	  1685	  1689
T.12B	  1676#	  1676
T.13	  1129	  1690	  1692	  1711#	  1731	  1735
T.13B	  1718#	  1718
T.14	  1130	  1736	  1738	  1757#	  1775	  1780
T.14A	  1761#	  1776
T.14B	  1768#	  1768
T.15	  1131	  1781	  1783	  1803#	  1821	  1825
T.15B	  1814#	  1814
T.16	  1132	  1826	  1828	  1849#	  1867	  1871
T.16B	  1856#	  1856
T.17	  1133	  1872	  1874	  1895#	  1913	  1917
T.17B	  1906#	  1906
T.1A	  1247#	  1266	  1269	  1272
T.1B	  1242	  1255#	  1255
T.1PF	  1240	  6754#
T.2	  1120	  1277	  1279	  1304#	  1322	  1327
T.20	  1134	  1918	  1920	  1941#	  1959	  1963
T.20B	  1948#	  1948
T.21	  1135	  1964	  1966	  1985#	  2002	  2007
T.21A	  1989#	  2003                                                                                                     SEQ 0241
T.21B	  1996#	  1996
T.22	  1136	  2008	  2010	  2030#	  2048	  2053
T.22A	  2034#	  2049
T.22B	  2041#	  2041
T.23	  1137	  2054	  2056	  2076#	  2094	  2099
T.23A	  2080#	  2095
T.23B	  2087#	  2087
T.24	  1138	  2100	  2102	  2121#	  2149	  2154
T.24A	  2132#	  2150
T.24B	  2142#	  2142
T.25	  1139	  2155	  2157	  2175#	  2198	  2203
T.25A	  2182#	  2199
T.25B	  2191#	  2191
T.26	  1140	  2204	  2206	  2230#	  2255	  2260
T.26A	  2238#	  2256
T.26B	  2248#	  2248
T.27	  1141	  2261	  2263	  2283#	  2307	  2312
T.27A	  2291#	  2308
T.27B	  2301#	  2301
T.2A	  1308#	  1323
T.2B	  1315#	  1315
T.3	  1121	  1328	  1330	  1350#	  1365	  1369
T.30	  1142	  2313	  2315	  2335#	  2354	  2365	  2369
T.30A	  2345#	  2351
T.30B1	  2356#	  2362
T.31	  1143	  2370	  2372	  2400#	  2423	  2433	  2447	  2466	  2471
T.32	  1144	  2472	  2474	  2504#	  2533	  2544	  2552	  2563	  2571	  2584	  2594	  2601	  2609	  2613
T.32A	  2517#
T.33	  1145	  2614	  2616	  2640#	  2671	  2681	  2691	  2703	  2709	  2725	  2729
T.33A	  2665#	  2736
T.33B	  2683#	  2694
T.33S	  2660	  2662	  2713#
T.33S1	  2657#	  2721
T.33X	  2705	  2733#
T.34	  1146	  2710	  2712	  2730	  2732	  2776#	  2829	  2853	  2867	  2915	  2919
T.34B	  2813#	  2856	  2875	  2883
T.34B2	  2809	  2836	  2878	  2879#
T.34D	  2831	  2899#
T.34E	  2838	  2854#
T.34F	  2841	  2855#
T.34F1	  2860#	  2902
T.34G	  2863	  2871#
T.34G1	  2874	  2876#
T.34S1	  2792#	  2911
T.35	  1147	  2868	  2870	  2920	  2922	  2961#	  3006	  3016	  3020	  3035	  3080	  3084	  3088	  3105
	  3109
T.35E	  3025#	  3039
T.35S	  2983	  2985	  3093#
T.35S1	  2980#	  3101
T.36	  1148	  3089	  3091	  3110	  3112	  3145#	  3186	  3195	  3209	  3217	  3234	  3238
T.36B1	  3201#	  3213
T.36S	  3168	  3170	  3222#
T.36S1	  3165#	  3230                                                                                                     SEQ 0242
T.37	  1149	  3218	  3220	  3239	  3241	  3271#	  3317	  3326	  3330	  3346	  3350
T.37A1	  3309#	  3321
T.37S	  3294	  3296	  3334#
T.37S1	  3291#	  3342
T.4	  1122	  1370	  1372	  1392#	  1405	  1409
T.40	  1150	  3331	  3333	  3351	  3353	  3384#	  3428	  3437	  3446	  3455	  3459	  3476	  3480
T.40A1	  3438#	  3450
T.40S	  3407	  3409	  3464#
T.40S1	  3404#	  3472
T.41	  1151	  3460	  3462	  3481	  3483	  3517#	  3561	  3570	  3578	  3584	  3588	  3605	  3609
T.41S	  3540	  3542	  3593#
T.41S1	  3537#	  3601
T.42	  1152	  3589	  3591	  3610	  3612	  3640#	  3683	  3694	  3703	  3715	  3721	  3738	  3742
T.42A1	  3685#	  3717
T.42B	  3696#	  3706
T.42S	  3663	  3665	  3726#
T.42S1	  3660#	  3734
T.43	  1153	  3722	  3724	  3743	  3745	  3764#	  3803	  3812	  3829	  3833
T.43A	  3767#	  3806	  3808
T.43S	  3784	  3786	  3817#
T.43S1	  3781#	  3825
T.44	  1154	  3813	  3815	  3834	  3836	  3865#	  3902	  3915	  3922	  3928	  3932
T.45	  1155	  3933	  3935	  3965#	  4003	  4009	  4022	  4028	  4034	  4053	  4059	  4065	  4069
T.46	  1156	  4070	  4072	  4097#	  4142	  4173	  4179	  4183
T.46A1	  4154#	  4160
T.47	  1157	  4184	  4186	  4213#	  4275	  4289	  4309	  4315	  4319
T.47B1	  4293#	  4299
T.5	  1123	  1410	  1412	  1431#	  1449	  1453	  1457
T.50	  1158	  4320	  4322	  4346#	  4394	  4428	  4472	  4501	  4507	  4511
T.50A1	  4406#	  4412
T.50C1	  4482#	  4488
T.51	  1159	  4512	  4514	  4539#	  4602	  4606	  4612	  4616	  4620
T.52	  1160	  4621	  4623	  4648#	  4702	  4746	  4750	  4756	  4760	  4764
T.53	  1161	  4765	  4767	  4786#	  4829	  4836	  4840
T.54	  1162	  4841	  4843	  4866#	  4910	  4946	  4953	  4957
T.55	  1163	  4958	  4960	  4983#	  5034	  5040	  5052	  5059	  5063	  5080	  5084
T.55A	  5022#	  5043
T.55S	  5008	  5010	  5068#
T.55S1	  5005#	  5076
T.56	  1164	  5064	  5066	  5085	  5087	  5120#	  5166	  5170	  5174	  5190
T.56A	  5127#	  5186
T.57	  1165	  5191	  5193	  5213#	  5235	  5252	  5258	  5266	  5276	  5284	  5293
T.57A	  5217#	  5287	  5289
T.5B	  1441#	  1441
T.6	  1124	  1458	  1460	  1484#	  1508	  1512	  1516
T.60	  1166	  5294	  5296	  5318#	  5346	  5355	  5366	  5376	  5389	  5395	  5399
T.60A	  5336#	  5347
T.60B	  5338	  5348#
T.60D	  5358#	  5369
T.61	  1167	  5400	  5402	  5421#	  5447	  5470	  5498	  5502
T.61A1	  5438#	  5442
T.61A3	  5451#	  5455
T.61B	  5449	  5456#                                                                                                    SEQ 0243
T.61B2	  5461#	  5465
T.61C2	  5474#	  5478
T.61D	  5488#	  5492
T.62	  1168	  5503	  5505	  5525#	  5547	  5570	  5599	  5603
T.62A1	  5538#	  5542
T.62A3	  5551#	  5555
T.62B	  5549	  5556#
T.62B2	  5561#	  5565
T.62C1	  5574#	  5578
T.62C2	  5588#	  5592
T.63	  1169	  5604	  5606	  5623#	  5645	  5668	  5697	  5701
T.63A	  5636#	  5640
T.63A2	  5649#	  5653
T.63B	  5647	  5654#
T.63B1	  5659#	  5663
T.63C1	  5672#	  5676
T.63C2	  5686#	  5690
T.64	  1170	  5702	  5704	  5723#	  5745	  5768	  5797	  5801
T.64A	  5736#	  5740
T.64A2	  5749#	  5753
T.64B	  5747	  5754#
T.64B1	  5759#	  5763
T.64C1	  5772#	  5776
T.64C2	  5786#	  5790
T.65	  1171	  5802	  5804	  5823#	  5838	  5842
T.66	  1172	  5843	  5845	  5865#	  5880	  5890	  5898	  5902
T.66A	  5882	  5892	  5899#
T.67	  1173	  5903	  5905	  5931#	  5957	  5979	  5985	  5989
T.67A	  5948#	  5952
T.67B	  5947	  5958#
T.67C	  5970#	  5974
T.67D	  5969	  5980#
T.6B	  1496#	  1496
T.7	  1125	  1517	  1519	  1537#	  1555	  1560
T.70	  1174	  5990	  5992	  6013#	  6041	  6068	  6072
T.70A	  6032#	  6036
T.70B	  6059#	  6063
T.70C	  6031	  6044	  6058	  6069#
T.71	  1175	  6073	  6075	  6099#	  6127	  6154	  6164	  6174	  6178
T.71A	  6118#	  6122
T.71B	  6145#	  6149
T.71C	  6117	  6144	  6158#
T.71D	  6129	  6156	  6166	  6175#
T.72	  1176	  6179	  6181	  6206#	  6230	  6242	  6248	  6272	  6276	  6282	  6296	  6300
T.72A	  6226	  6234#	  6238
T.72A1	  6244	  6252#
T.72B	  6264#	  6268
T.72B1	  6278	  6286#
T.73	  1177	  6231	  6233	  6249	  6251	  6283	  6285	  6301	  6303	  6323#	  6347	  6357	  6371	  6385
	  6389
T.73A	  6338#	  6342
T.73B	  6337	  6348#
T.73C	  6353	  6361#	  6365                                                                                             SEQ 0244
T.73C1	  6367	  6375#
T.73D	  6376#	  6380
T.74	  1178	  6358	  6360	  6372	  6374	  6390	  6392	  6411#	  6438	  6462	  6475	  6479
T.74A	  6430#	  6434
T.74B	  6453#	  6457
T.74C	  6429	  6452	  6463#
T.74C1	  6466#	  6470
T.75	  1179	  6480	  6482	  6500#	  6524	  6544	  6548
T.75A	  6515#	  6519
T.75B	  6535#	  6539
T.76	  1180	  6549	  6551	  6555#
T.7A	  1541#	  1556
T.7B	  1548#	  1548
T02AL	  2032	  2033	  7312#	  7312
T02AZ	  7312	  7317#
T02L	  1306	  1307	  7284#	  7284
T02Z	  7284	  7308#
T07AL	  2078	  2079	  7346#	  7346
T07AZ	  7346	  7356#
T07L	  1539	  1540	  7321#	  7321
T07Z	  7321	  7341#
T14L	  1759	  1760	  7362#	  7362
T14Z	  7362	  7400#
T17L	  1987	  1988	  7403#	  7403
T17Z	  7403	  7432#
TAB	   733#
TABLB	  3765	  3838#	  5213
TABORT	  2990	  3022	  4609	  4699	  4753	  6510	  7515#
TBLA	  5011	  5089#
TCRC7T	  7512#
TCRIN	  7513#
TEMP0	  5122	  5144	  5181	  5183	  7216#
TEMP1	  7217#
TEMP16	  5268	  5279	  5281	  5283	  7221#
TEMP2	  7218#
TEMP3	  7219#
TEMP4	  7220#
TEOM	  2861	  2900	  3049	  3672	  3794	  5242	  5331	  6054	  6140	  6261	  6349	  6448	  7516#
TESTPC	   608#	  1115	  1278	  1329	  1371	  1411	  1459	  1518	  1562	  1605	  1645	  1691	  1737	  1782
	  1827	  1873	  1919	  1965	  2009	  2055	  2101	  2156	  2205	  2262	  2314	  2371	  2473	  2615
	  2711	  2731	  2869	  2921	  3090	  3111	  3219	  3240	  3332	  3352	  3461	  3482	  3590	  3611
	  3723	  3744	  3814	  3835	  3934	  4071	  4185	  4321	  4513	  4622	  4766	  4842	  4959	  5065
	  5086	  5192	  5295	  5401	  5504	  5605	  5703	  5803	  5844	  5904	  5991	  6074	  6180	  6232
	  6250	  6284	  6302	  6359	  6373	  6391	  6481	  6550
TESTX	  1056	  7541#
TICKS	   611#
TIMER	  2346	  2357	  5154	  5436	  5537	  5584	  5635	  5682	  5735	  5782	  5940	  5965	  6029	  6115
	  6224	  6330	  6421	  6508	  7514#
TIMOUT	  1258	  7242#
TIMSG	  6857	  6906#	  6910
TINTER	  5832	  5873	  6325	  6867#
TN0	   536#
TN1	   536#                                                                                                            SEQ 0245
TOTALS	   274#
TREC	  1062	  1065#
TRP3TP	   536#
TSOM	  2450	  2520	  2546	  2651	  2786	  2974	  3159	  3285	  3398	  3531	  3654	  3672	  3776	  5000
	  5139	  5226	  5331	  6131	  6329	  6439	  6509	  7517#
TTNBRF	   791#
TTYFIL	   707#
TTYSPD	   708#
TXACT	  2526	  2530	  2590	  2661	  2796	  2984	  3017	  3169	  3295	  3323	  3408	  3452	  3541	  3664
	  3680	  3785	  5009	  5380	  7494#
TXCSR	   996	  1264	  1267	  1304	  1351	  1393	  1399	  1431	  1484	  1671	  1809	  1901	  2030	  2438
	  2459	  2527	  2556	  2817	  2832	  2845	  2871	  3000	  3029	  3875	  3976	  4105	  4223	  4357
	  4547	  4659	  4685	  4729	  4794	  4877	  4988	  5131	  5141	  5147	  5221	  5225	  5232	  5326
	  5343	  5351	  5362	  5373	  5381	  5432	  5487	  5535	  5587	  5633	  5685	  5733	  5785	  5828
	  5834	  5870	  5875	  5895	  5936	  6025	  6028	  6037	  6047	  6052	  6111	  6114	  6123	  6133
	  6138	  6171	  6219	  6223	  6239	  6254	  6259	  6273	  6287	  6334	  6424	  6427	  6435	  6441
	  6446	  6512	  6514	  6521	  6526	  6531	  6701	  6768	  6833	  6942	  7270#
TXCSRH	  1000	  1359	  2666	  2676	  3689	  3883	  3886	  3892	  3984	  3987	  3993	  4037	  4113	  4116
	  4122	  4132	  4145	  4153	  4231	  4234	  4240	  4249	  4255	  4265	  4278	  4292	  4365	  4368
	  4374	  4384	  4397	  4405	  4418	  4431	  4439	  4442	  4448	  4462	  4475	  4481	  4555	  4558
	  4564	  4574	  4583	  4592	  4667	  4670	  4676	  4707	  4710	  4716	  4802	  4805	  4811	  4885
	  4888	  4894	  4915	  4918	  4924	  7029	  7035	  7048	  7051	  7272#
TXCSRL	   997	  2124	  2343	  2410	  2513	  2537	  2541	  2572	  2649	  2657	  2784	  2792	  2972	  2980
	  3068	  3157	  3165	  3180	  3283	  3291	  3303	  3396	  3404	  3416	  3529	  3537	  3555	  3652
	  3660	  3678	  3775	  3781	  5005	  7271#	  7440	  7443	  7448
TXDBUF	  1003	  1270	  1757	  1803	  1811	  1849	  2175	  2345	  2356	  2402	  2426	  2437	  2449	  2506
	  2519	  2521	  2545	  2555	  2564	  2643	  2652	  2787	  2860	  2896	  2899	  2965	  2975	  2989
	  3021	  3043	  3150	  3160	  3173	  3276	  3286	  3298	  3389	  3399	  3411	  3522	  3532	  3645
	  3655	  3667	  3771	  3777	  3788	  3795	  4998	  4999	  5017	  5024	  5138	  5145	  5151	  5227
	  5238	  5243	  5323	  5332	  5357	  5438	  5440	  5451	  5453	  5461	  5463	  5474	  5476	  5488
	  5490	  5538	  5540	  5551	  5553	  5561	  5563	  5574	  5576	  5588	  5590	  5636	  5638	  5649
	  5651	  5659	  5661	  5672	  5674	  5686	  5688	  5736	  5738	  5749	  5751	  5759	  5761	  5772
	  5774	  5786	  5788	  5948	  5950	  5970	  5972	  6032	  6034	  6046	  6051	  6055	  6059	  6061
	  6118	  6120	  6132	  6137	  6141	  6145	  6147	  6167	  6169	  6234	  6236	  6253	  6258	  6262
	  6264	  6266	  6288	  6290	  6335	  6338	  6340	  6350	  6361	  6363	  6376	  6378	  6430	  6432
	  6440	  6445	  6449	  6453	  6455	  6466	  6468	  6515	  6517	  6525	  6530	  6533	  6535	  6537
	  6948	  7273#	  7437	  7445	  7450
TXDBUH	  1007	  3547	  3673	  7275#
TXDBUL	  1004	  3544	  7274#
TXDLAT	  3182	  3191	  3557	  3566	  3575	  7488#
TXDONE	  1443	  1498	  2415	  2457	  2559	  2580	  2595	  2598	  2659	  2794	  2835	  2873	  2982	  3081
	  3167	  3293	  3406	  3539	  3662	  3783	  5007	  5135	  5231	  5894	  6018	  6038	  6042	  6109
	  6124	  6128	  6216	  6331	  6422	  6520	  7496#
TXINTE	  5833	  5874	  6286	  6332	  7497#
TXTINH	   285#
UAMAIN	   975	  7237#
UASTAT	   971	  1257	  1500	  1722	  1860	  1952	  5830	  5872	  5938	  6017	  6103	  6210	  6327	  6415
	  6503	  6775	  6954	  7236#
UBADDR	   979	  7163	  7238#
UBAVEC	   536#
UBINIT	  1499	  1721	  1859	  1951	  7250#
UNIT01	  6849	  6874	  6965	  6983#
UNIT12	  6987	  6991#                                                                                                    SEQ 0246
UNITX	  6994	  6999#
USER	   598#
USERF	   536#
USRASB	   588
USRCRF	   717#
USRLFF	   716#
UUODIS	   670#
UUOEXT	   626#
UUORTN	   627#
UUOSKP	   624#
VECTOR	   908	   933	   935	  6850	  6875	  7203	  7239#
WRFORM	  1099	  6566#
WRGFRM	  1090	  1099#
WRGINT	  6843	  6868	  6896#	  6900
XBUFBK	  2858	  2893	  7227#
XBUFLG	  2807	  2834	  2876	  2891	  2894	  7226#
XCHRNT	  2805	  2830	  2859	  7223#
XDPNT	  2739	  6679	  7058#	  7131
XDUP	  6973	  6984#	  6984	  6996	  7000
XER33C	  2690	  2737#
XLDCNT	  2806	  2879	  2881	  7224#
XLDFLG	  2808	  2877	  2887	  2890	  7225#
XSHFLG	  7228#
XSYNCK	  2795	  2797	  2903#
XSYNCT	  2713	  2715	  2719	  2778	  2903	  2905	  2909	  2966	  3093	  3095	  3099	  3151	  3222	  3224
	  3228	  3277	  3334	  3336	  3340	  3390	  3464	  3466	  3470	  3523	  3593	  3595	  3599	  3646
	  3726	  3728	  3732	  3772	  3817	  3819	  3823	  5068	  5070	  5074	  7229#
XTEMP1	  2340	  2349	  2350	  2355	  2360	  2361	  7222#
XUBA	  6859	  6884	  6968	  6983#	  6983	  6989	  6992
XUSER	  7504#
Z.1	  1238#
Z.24	  2124#
Z.30	  2338#
Z.44	  3868#
Z.61	  5424#
$$MUUO	   822#
$$OUTE	   828#
$$TAX1	   840#
$$TAX2	   841#
$$TOGG	   834#
$$UUO	   811#
$ACC0	   649#
$BEND1	   619#
$BEND2	   237	   620#
$CHRIN	   710#
$CRLF	   712#
$CSINI	   251	  6765#
$DEVCH	   536#
$DSKUP	   589#
$DVOFF	   706#
$EMODE	   587#
$FFF	   714#
$IBUF	   762#                                                                                                            SEQ 0247
$INEXT	   764#
$INNM	   763#
$ITRHL	   630#
$ITRX1	   631#
$MMAP	   590#
$MODVL	   585#
$MODVU	   586#
$NXTST	  1275	  1326	  1368	  1408	  1456	  1515	  1559	  1602	  1642	  1688	  1734	  1779	  1824	  1870
	  1916	  1962	  2006	  2052	  2098	  2153	  2202	  2259	  2311	  2368	  2470	  2612	  2708	  2728
	  2866	  2918	  3087	  3108	  3216	  3237	  3329	  3349	  3458	  3479	  3587	  3608	  3720	  3741
	  3811	  3832	  3931	  4068	  4182	  4318	  4510	  4619	  4763	  4839	  4956	  5062	  5083	  5189
	  5292	  5398	  5501	  5602	  5700	  5800	  5841	  5901	  5988	  6071	  6177	  6229	  6247	  6281
	  6299	  6356	  6370	  6388	  6478	  6547	  6780#
$OBUF	   753#
$ONETM	   613#
$OUTEX	   755#
$OUTNM	   754#
$PAPER	   536
$PARER	   637#
$PNAME	   583#
$PSHER	   641#
$PVER	   584#
$RSRTX	   633#
$RSRTY	   634#
$SPAG1	   653#
$START	   550#
$SVAPR	   651#
$SVPAG	   652#
$SVPI	   650#
$SVUPC	   656#
$SVUUO	   655#
$TABF	   713#
$TTCHR	   709#
$TWCNT	   705#
$TYPNB	   711#
$UBACL	   252	  6773#
$UMODE	   588#
$UORTX	   628#
$USRHL	   632#
$UUOER	   629#	   670
$VTF	   715#
$XTXS1	  6782	  6784	  6788#
%ACTFL	   662#
%ACTUL	   663#
%COREC	   661#
%CORFL	   660#
%DISCR	   664#
%ERHI1	   803#
%ERHI2	   804#
%ERHI3	   805#
..0001	  3056#	  3067
..0002	  3058#	  3063
..0003	  3068#                                                                                                            SEQ 0248
..0004	  3881#	  3896
..0005	  3886#	  3891
..0006	  3897#
..0007	  3910#
..0010	  3982#	  3997
..0011	  3987#	  3992
..0012	  3998#
..0013	  4017#
..0014	  4041#
..0015	  4048#
..0016	  4111#	  4126
..0017	  4116#	  4121
..0020	  4127#
..0021	  4137#
..0022	  4149#
..0023	  4168#
..0024	  4229#	  4244
..0025	  4234#	  4239
..0026	  4245#
..0027	  4247#	  4259
..0030	  4249#	  4254
..0031	  4260#
..0032	  4270#
..0033	  4282#
..0034	  4363#	  4378
..0035	  4368#	  4373
..0036	  4379#
..0037	  4389#
..0040	  4401#
..0041	  4423#
..0042	  4435#
..0043	  4437#	  4452
..0044	  4442#	  4447
..0045	  4453#
..0046	  4467#
..0047	  4479#
..0050	  4496#
..0051	  4553#	  4568
..0052	  4558#	  4563
..0053	  4569#
..0054	  4579#
..0055	  4587#
..0056	  4597#
..0057	  4665#	  4680
..0060	  4670#	  4675
..0061	  4681#
..0062	  4705#	  4720
..0063	  4710#	  4715
..0064	  4721#
..0065	  4800#	  4815
..0066	  4805#	  4810
..0067	  4816#
..0070	  4883#	  4898                                                                                                     SEQ 0249
..0071	  4888#	  4893
..0072	  4899#
..0073	  4913#	  4928
..0074	  4918#	  4923
..0075	  4929#
..0076	  7028#	  7041
..0077	  7034	  7040	  7042#
..0100	  7047#	  7055
..0101	  7050	  7052#
..0102	  7056#
.JB41	   536#
.JBAPR	   536#
.JBCNI	   536#
.JBDDT	   536#
.JBFF	   536#
.JBOPC	   536#
.JBREL	   536#
.JBREN	   536#
.JBSA	   536#
.JBSYM	   536#
.JBTPC	   536#
.JBUSY	   536#
.JBUUO	   536#
.JBVER	   536#

APRID	   536#
BCIO	   536#	  3023	  3070	  3197	  3305	  3418	  5493	  5594	  5692	  5792                                     SEQ 0250
BCIOB	   536#	  2574	  3548	  3883	  3892	  3984	  3993	  4037	  4113	  4122	  4133	  4145	  4161	  4231
	  4240	  4255	  4266	  4278	  4300	  4365	  4374	  4385	  4397	  4413	  4419	  4431	  4439	  4448
	  4463	  4475	  4489	  4555	  4564	  4583	  4593	  4667	  4676	  4707	  4716	  4802	  4811	  4885
	  4894	  4915	  4924	  7035	  7048
BOX	    31#	  1198	  1289	  1333	  1375	  1415	  1463	  1522	  1566	  1609	  1649	  1695	  1741	  1786
	  1831	  1877	  1923	  1969	  2013	  2059	  2105	  2160	  2209	  2266	  2318	  2375	  2477	  2619
	  2745	  2925	  3115	  3244	  3356	  3486	  3614	  3748	  3845	  3938	  4075	  4189	  4324	  4517
	  4626	  4770	  4846	  4963	  5096	  5196	  5299	  5405	  5508	  5609	  5707	  5807	  5848	  5908
	  5995	  6078	  6185	  6306	  6395	  6486
BSIO	   536#	  1438	  1492	  1672	  1810	  1902	  2516	  2901	  2991	  3050	  3674	  4687	  4731	  4880
	  5221	  5223	  5225	  5227	  5243	  5326	  5328	  5330	  5332	  5381	  5432	  5437	  5473	  5487
	  5535	  5536	  5573	  5587	  5633	  5634	  5671	  5685	  5733	  5734	  5771	  5785	  5828	  5830
	  5834	  5870	  5872	  5875	  5936	  5938	  5944	  5945	  5966	  5967	  6017	  6025	  6026	  6027
	  6028	  6103	  6111	  6112	  6113	  6114	  6210	  6219	  6220	  6221	  6222	  6223	  6287	  6327
	  6334	  6335	  6350	  6415	  6424	  6425	  6426	  6427	  6503	  6512	  6513	  6514	  6533	  6658
	  6688
BSIOB	   536#	  2413	  3886	  3975	  3987	  4116	  4154	  4234	  4249	  4293	  4353	  4368	  4406	  4442
	  4482	  4558	  4575	  4658	  4670	  4710	  4805	  4876	  4888	  4918	  7029	  7051
CFLUSH	   458#
CHKCON	    87#	  6656	  6686
CINVAL	   457#
CLEAR	    93#	  2400	  2435	  2504	  2517	  2553	  2641	  2963	  3148	  3171	  3274	  3387	  3520	  3643
	  3769	  4996	  5321	  5427	  5457	  5480	  5528	  5557	  5580	  5626	  5655	  5678	  5726	  5755
	  5778	  5959	  6049	  6135	  6256	  6443	  6528
CLKDUP	   115#	  7027
CLKHI	    99#	  3907	  4014	  4045	  4134	  4165	  4267	  4386	  4420	  4464	  4493	  4576	  4594
CLKLO	   106#	  4035	  4143	  4276	  4395	  4429	  4473	  4581
CLOKOP	   452#
CLRPT	   536#
CSINIT	   251#	  1244	  1305	  1352	  1394	  1432	  1485	  1538	  1586	  1628	  1666	  1712	  1758	  1804
	  1850	  1896	  1942	  1986	  2031	  2077	  2128	  2179	  2234	  2287	  2338	  2403	  2507	  2640
	  2777	  2962	  3146	  3272	  3385	  3518	  3641	  3768	  3869	  3966	  4098	  4214	  4347	  4540
	  4649	  4787	  4867	  4984	  5121	  5175	  5218	  5319	  5426	  5483	  5527	  5583	  5625	  5681
	  5725	  5781	  5824	  5866	  5932	  6014	  6100	  6207	  6324	  6412	  6501
CWRTBI	   459#
D	    43#	   968
DROPDV	   419#	   868
DUP20	    13#	    15
ENDUUO	   465#	   618
EOPUUO	   466#	   620
ERLOOP	   506#	  1262	  1322	  1365	  1405	  1449	  1453	  1508	  1512	  1555	  1599	  1639	  1685	  1731
	  1775	  1821	  1867	  1913	  1959	  2002	  2048	  2094	  2149	  2198	  2255	  2307	  2354	  2365
	  2423	  2433	  2447	  2466	  2533	  2544	  2552	  2563	  2571	  2584	  2594	  2601	  2609	  2671
	  2681	  2691	  2703	  2725	  2829	  2853	  2915	  3006	  3016	  3020	  3035	  3080	  3084	  3105
	  3186	  3195	  3209	  3234	  3317	  3326	  3346	  3428	  3437	  3446	  3455	  3476	  3561	  3570
	  3578	  3584	  3605	  3683	  3694	  3703	  3715	  3738	  3803	  3829	  3902	  3915	  3922	  3928
	  4003	  4009	  4022	  4028	  4034	  4053	  4059	  4065	  4142	  4173	  4179	  4275	  4289	  4309
	  4315	  4394	  4428	  4472	  4501	  4507	  4602	  4606	  4612	  4616	  4702	  4746	  4750	  4756
	  4760	  4829	  4836	  4910	  4946	  4953	  5034	  5040	  5052	  5059	  5080	  5166	  5170	  5174
	  5235	  5252	  5258	  5266	  5276	  5284	  5346	  5355	  5366	  5376	  5389	  5395	  5447	  5470
	  5498	  5547	  5570	  5599	  5645	  5668	  5697	  5745	  5768	  5797	  5838	  5880	  5890	  5898
	  5957	  5979	  5985	  6041	  6068	  6127	  6154	  6164	  6174	  6242	  6272	  6276	  6296	  6347
	  6385	  6438	  6462	  6475	  6524	  6544                                                                     SEQ 0251
ERLP1	   507#
ERLP2	   508#
ERRHLT	   353#
ERROR	   515#	  1260	  1320	  1363	  1403	  1447	  1451	  1506	  1510	  1553	  1597	  1637	  1683	  1729
	  1773	  1819	  1865	  1911	  1957	  2000	  2046	  2092	  2147	  2196	  2253	  2305	  2352	  2363
	  2420	  2430	  2444	  2463	  2531	  2542	  2550	  2561	  2569	  2582	  2592	  2599	  2606	  2668
	  2678	  2688	  2700	  2722	  2826	  2850	  2912	  3003	  3013	  3018	  3032	  3077	  3082	  3102
	  3183	  3192	  3207	  3231	  3315	  3324	  3343	  3425	  3434	  3444	  3453	  3473	  3558	  3567
	  3576	  3581	  3602	  3681	  3691	  3701	  3712	  3735	  3801	  3826	  3900	  3913	  3919	  3926
	  4001	  4006	  4020	  4025	  4032	  4051	  4056	  4063	  4140	  4171	  4177	  4273	  4286	  4307
	  4313	  4392	  4426	  4470	  4499	  4505	  4600	  4604	  4610	  4614	  4700	  4744	  4748	  4754
	  4758	  4827	  4833	  4907	  4944	  4950	  5032	  5038	  5050	  5056	  5077	  5164	  5168	  5172
	  5233	  5250	  5255	  5264	  5274	  5282	  5344	  5352	  5363	  5374	  5387	  5393	  5445	  5468
	  5496	  5545	  5568	  5597	  5643	  5666	  5695	  5743	  5766	  5795	  5836	  5877	  5887	  5896
	  5954	  5976	  5982	  6039	  6065	  6125	  6151	  6161	  6172	  6240	  6270	  6274	  6293	  6344
	  6382	  6436	  6459	  6472	  6522	  6541
ERROR1	   526#
ERUUO	   505#	  1261	  1321	  1364	  1404	  1448	  1452	  1507	  1511	  1554	  1598	  1638	  1684	  1730
	  1774	  1820	  1866	  1912	  1958	  2001	  2047	  2093	  2148	  2197	  2254	  2306	  2353	  2364
	  2422	  2432	  2446	  2465	  2532	  2543	  2551	  2562	  2570	  2583	  2593	  2600	  2608	  2670
	  2680	  2690	  2702	  2724	  2828	  2852	  2914	  3005	  3015	  3019	  3034	  3079	  3083	  3104
	  3185	  3194	  3208	  3233	  3316	  3325	  3345	  3427	  3436	  3445	  3454	  3475	  3560	  3569
	  3577	  3583	  3604	  3682	  3693	  3702	  3714	  3737	  3802	  3828	  3901	  3914	  3921	  3927
	  4002	  4008	  4021	  4027	  4033	  4052	  4058	  4064	  4141	  4172	  4178	  4274	  4288	  4308
	  4314	  4393	  4427	  4471	  4500	  4506	  4601	  4605	  4611	  4615	  4701	  4745	  4749	  4755
	  4759	  4828	  4835	  4909	  4945	  4952	  5033	  5039	  5051	  5058	  5079	  5165	  5169	  5173
	  5234	  5251	  5257	  5265	  5275	  5283	  5345	  5354	  5365	  5375	  5388	  5394	  5446	  5469
	  5497	  5546	  5569	  5598	  5644	  5667	  5696	  5744	  5767	  5796	  5837	  5879	  5889	  5897
	  5956	  5978	  5984	  6040	  6067	  6126	  6153	  6163	  6173	  6241	  6271	  6275	  6295	  6346
	  6384	  6437	  6461	  6474	  6523	  6543
EXIT	   869
FATAL	   352#
FLG	   178#	  3054
FRD36	   494#
FRD8	   495#
FREAD	   493#
FSELEC	   492#
GET	   336#	  6668	  6669	  6670	  6793	  7205	  7206
GO	   333#	   911	  1013	  1275	  1326	  1368	  1408	  1456	  1515	  1559	  1602	  1642	  1688	  1734
	  1779	  1824	  1870	  1916	  1962	  2006	  2052	  2098	  2153	  2202	  2259	  2311	  2368	  2470
	  2612	  2708	  2728	  2741	  2809	  2836	  2866	  2874	  2918	  3087	  3108	  3216	  3237	  3329
	  3349	  3458	  3479	  3587	  3608	  3720	  3741	  3793	  3799	  3811	  3832	  3931	  4068	  4182
	  4318	  4510	  4619	  4763	  4839	  4956	  5062	  5083	  5189	  5217	  5292	  5398	  5501	  5602
	  5700	  5800	  5832	  5841	  5873	  5901	  5939	  5988	  6015	  6071	  6101	  6177	  6208	  6229
	  6247	  6281	  6299	  6325	  6356	  6370	  6388	  6413	  6478	  6504	  6547	  6849	  6874	  6965
HALT	   239	   240	   241	   242	   243	   338#	   639
JEN	   340#	  6900	  6904	  6910	  6916
JRSTF	   339#
LPSTAT	    81#	  2737	  6677
MAPADR	   475#
MAPCNK	   476#
MAPMEM	   472#
MAPPNT	   478#                                                                                                            SEQ 0252
MAPSET	   477#
MEMSEG	   474#
MEMZRO	   473#
MODPCP	   485#
MODPCU	   484#
MTROP	   453#
NXTTST	   210#	  1273	  1324	  1366	  1406	  1454	  1513	  1557	  1600	  1640	  1686	  1732	  1777	  1822
	  1868	  1914	  1960	  2004	  2050	  2096	  2151	  2200	  2257	  2309	  2366	  2468	  2610	  2706
	  2726	  2864	  2916	  3085	  3106	  3214	  3235	  3327	  3347	  3456	  3477	  3585	  3606	  3718
	  3739	  3809	  3830	  3929	  4066	  4180	  4316	  4508	  4617	  4761	  4837	  4954	  5060	  5081
	  5187	  5290	  5396	  5499	  5600	  5698	  5798	  5839	  5899	  5986	  6069	  6175	  6227	  6245
	  6279	  6297	  6354	  6368	  6386	  6476	  6545
PBELL	   428#
PCRL	   422#
PCRL2	   426#
PCRL2F	   427#
PCRLF	   423#	   913	   914	   947	   960	  1030	  1237	  1286	  2123	  2337	  3867	  5423	  6666	  6716
	  6721	  6736	  6744	  6899	  6909	  6915	  6923	  6926	  6932	  6938	  6944	  6950	  6956	  6963
	  6964	  6970	  6975	  6976	  7013	  7019	  7020	  7059	  7074	  7089	  7104	  7119	  7129	  7130
PFORCE	   430#
PGMINT	   346#	   892
PJRST	   337#
PKCLK	   133#	  2453	  2523	  2534	  2575	  2585	  2654	  2672	  2683	  2695	  2716	  2733	  2789	  2798
	  2810	  2813	  2842	  2906	  2977	  2986	  2993	  2996	  3007	  3025	  3040	  3046	  3051	  3056
	  3059	  3064	  3071	  3096	  3162	  3174	  3177	  3187	  3198	  3201	  3225	  3288	  3300	  3306
	  3309	  3337	  3401	  3413	  3419	  3429	  3438	  3467	  3534	  3549	  3552	  3562	  3571	  3596
	  3657	  3669	  3675	  3685	  3696	  3707	  3729	  3778	  3789	  3796	  3820	  3884	  3887	  3893
	  3908	  3985	  3988	  3994	  4015	  4046	  4114	  4117	  4123	  4135	  4155	  4162	  4166	  4232
	  4235	  4241	  4250	  4256	  4268	  4294	  4301	  4366	  4369	  4375	  4387	  4407	  4414	  4421
	  4440	  4443	  4449	  4465	  4483	  4490	  4494	  4556	  4559	  4565	  4577	  4595	  4668	  4671
	  4677	  4688	  4708	  4711	  4717	  4732	  4803	  4806	  4812	  4886	  4889	  4895	  4916	  4919
	  4925	  5002	  5019	  5026	  5044	  5071	  5228	  5239	  5244	  5259	  5269	  5333	  5339	  5348
	  5358	  5370	  5377	  5382	  6828	  7052
PMSG	   432#
PMSGF	   435#	  7146	  7151	  7159	  7166	  7171	  7180	  7186	  7191	  7199
PNT1	   388#
PNT11	   402#
PNT11F	   403#
PNT1F	   389#	  7018
PNT2	   390#
PNT2F	   391#	  6969	  6974	  7012
PNT3	   392#
PNT3F	   393#
PNT4	   394#
PNT4F	   395#
PNT5	   396#
PNT5F	   397#
PNT6	   398#
PNT6F	   399#
PNT7	   400#
PNT7F	   401#
PNTA	   374#	  6655
PNTADF	   405#                                                                                                            SEQ 0253
PNTADR	   404#
PNTAF	   375#	  1036
PNTAL	   376#	  1050	  1057	  1236	  1283	  2122	  2336	  3866	  5422	  6715	  6720	  6735	  6743	  6898
	  6908	  6914	  6925	  6928	  6934	  6940	  6946	  6952	  6962	  6967	  6972	  7008	  7016	  7061
	  7066	  7071	  7076	  7081	  7086	  7091	  7096	  7101	  7106	  7111	  7116	  7121	  7126
PNTALF	   377#	   919	   923	   939	   949	   959	  1028	  1034	  1100	  1185	  6665
PNTCHF	   387#
PNTCHR	   386#
PNTCI	   384#
PNTCIF	   385#
PNTCW	   420#
PNTCWF	   421#
PNTDCF	   413#
PNTDEC	   412#
PNTDS	   414#
PNTDSF	   415#
PNTHW	   408#	  6931	  6937	  6943	  6949	  6955	  7063	  7068	  7073	  7078	  7083	  7088	  7093	  7098
	  7103	  7108	  7113	  7118	  7123	  7128
PNTHWF	   409#
PNTMSF	   381#	  7140
PNTMSG	   380#
PNTNM	   416#
PNTOCF	   411#
PNTOCS	   410#
PNTOCT	   406#	  1285
PNTOTF	   407#
PNTSIX	   417#
PNTSXF	   418#
PSIXL	   378#
PSIXLF	   379#
PSIXM	   382#
PSIXMF	   383#	  7147	  7152	  7160	  7167	  7172	  7181	  7187	  7192	  7200
PSP	   424#
PSPF	   425#	  7064	  7069	  7079	  7084	  7094	  7099	  7109	  7114	  7124
PUT	   335#	  6651	  6652	  6653	  7137	  7138
RCVBIT	   146#	  7046
RDAPR	   536#
RDCSB	   536#
RDCSTM	   536#
RDEBR	   536#
RDHSB	   536#
RDINT	   536#
RDIO	   536#	  1248	  1317	  1354	  1396	  1444	  1503	  1550	  1588	  1630	  1679	  1725	  1770	  1817
	  1863	  1909	  1955	  1998	  2043	  2089	  2144	  2193	  2250	  2303	  2418	  2427	  2441	  2460
	  2528	  2539	  2547	  2557	  2566	  2578	  2588	  2596	  2602	  2658	  2793	  2818	  2833	  2846
	  2872	  2981	  3001	  3011	  3030	  3075	  3166	  3181	  3190	  3205	  3292	  3313	  3322	  3405
	  3423	  3432	  3442	  3451	  3538	  3556	  3565	  3574	  3579	  3661	  3679	  3782	  3898	  3911
	  3917	  3924	  3999	  4004	  4018	  4023	  4030	  4049	  4054	  4061	  4138	  4169	  4175	  4271
	  4283	  4305	  4311	  4390	  4424	  4468	  4497	  4503	  4598	  4608	  4698	  4742	  4752	  4825
	  4831	  4905	  4942	  4948	  5006	  5030	  5048	  5054	  5161	  5162	  5443	  5466	  5494	  5543
	  5566	  5595	  5641	  5664	  5693	  5741	  5764	  5793	  6037	  6123	  6691	  6703	  6930	  6936
	  6942	  6948	  6954
RDIOB	   536#	  1361	  1401	  1595	  1635	  4150	  4402	  4580	  4692	  4736	  5036	  5253	  5267	  5277     SEQ 0254
	  5391
RDPI	   536#
RDPUR	   536#
RDSPB	   536#
RDTIM	   536#
RDUBR	   536#
REPTUO	   509#
RFLG	   159#	  3879	  3980	  4109	  4227	  4361	  4435	  4551	  4663	  4703	  4798	  4881	  4911
RPOKE	   139#	  3903	  4010	  4041	  4127	  4260	  4379	  4453	  4457	  4569	  4587	  4681	  4693	  4721
	  4725	  4737	  4816	  4820	  4900	  4929	  4933	  4937
RTN	   334#	   626	  2742	  2898	  6681	  6769	  6776	  6787	  6821	  6838	  6865	  6890	  6978	  7001
	  7021	  7207
S	   264#	   266	   270	   299	   301	   310	   313	   328	   329	   331	   342	   344	   348	   350
	   355	   359	   501	   503	   536	   541	   547	   574	   576	   594	   596	   614	   616	   645
	   647	   665	   667	   685	   687	   695	   697	   718	   723	   749	   751	   758	   760	   766
	   768	   774	   776	   780	   782	   787	   789	   793	   795	   799	   801	   807	   809	   812
	   814	   818	   820	   824	   826	   830	   832	   836	   838	   843	   845	   849	   851	   855
	   857	   859	   861	   865	   867	  1106	  1108	  1193	  1195	  1199	  1231	  1290	  1300	  1334
	  1346	  1376	  1388	  1416	  1427	  1464	  1480	  1523	  1533	  1567	  1580	  1610	  1622	  1650
	  1661	  1696	  1707	  1742	  1753	  1787	  1799	  1832	  1845	  1878	  1891	  1924	  1937	  1970
	  1981	  2014	  2026	  2060	  2072	  2106	  2117	  2161	  2171	  2210	  2225	  2267	  2279	  2319
	  2332	  2376	  2395	  2478	  2501	  2620	  2636	  2746	  2772	  2926	  2958	  3116	  3141	  3245
	  3267	  3357	  3380	  3487	  3513	  3615	  3636	  3749	  3761	  3846	  3861	  3939	  3961	  4076
	  4093	  4190	  4209	  4325	  4342	  4518	  4535	  4627	  4644	  4771	  4783	  4847	  4862	  4964
	  4979	  5097	  5116	  5197	  5209	  5300	  5314	  5406	  5417	  5509	  5521	  5610	  5620	  5708
	  5719	  5808	  5819	  5849	  5861	  5909	  5926	  5996	  6009	  6079	  6095	  6186	  6202	  6307
	  6319	  6396	  6408	  6487	  6496	  6559	  6561
SFLG	   193#	  4245
SIXBTZ	   441#	  1196
STATLP	    53#	  6922
SWITCH	   447#	   909	  1249	  3804	  4038	  4146	  4279	  4398	  4432	  4476	  4584	  5285	  6780	  6794
	  7030	  7036
TIOE	   536#	  1259	  5155	  5343	  5351	  5373	  5438	  5451	  5461	  5474	  5488	  5538	  5551	  5561
	  5574	  5588	  5636	  5649	  5659	  5672	  5686	  5736	  5749	  5759	  5772	  5786	  5948	  5970
	  6032	  6059	  6118	  6145	  6167	  6234	  6264	  6288	  6338	  6361	  6376	  6430	  6453	  6465
	  6466	  6515	  6535	  6833
TIOEB	   536#	  2667	  2699	  3690	  3711
TION	   536#	  2347	  2358	  2862	  5136	  5142	  5148	  5157	  5159	  5232	  5249	  5263	  5273	  5362
	  5386	  5440	  5453	  5463	  5476	  5490	  5540	  5553	  5563	  5576	  5590	  5638	  5651	  5661
	  5674	  5688	  5738	  5751	  5761	  5774	  5788	  5895	  5950	  5972	  5981	  6034	  6047	  6052
	  6061	  6120	  6133	  6138	  6147	  6169	  6171	  6236	  6239	  6254	  6259	  6266	  6269	  6273
	  6290	  6340	  6363	  6378	  6432	  6435	  6441	  6446	  6455	  6468	  6517	  6521	  6526	  6531
	  6537	  6662
TIONB	   536#	  2677	  2687	  3700
TTALTM	   368#	  6765
TTICHR	   361#	  1042
TTICLR	   371#
TTICNV	   366#
TTIDEC	   365#
TTINO	   363#
TTIOCT	   364#	   924	  7153	  7173	  7193
TTIYES	   362#	   940	   950	  7148	  7168	  7188
TTLOOK	   367#                                                                                                            SEQ 0255
TTSIXB	   369#
TTYINP	   370#
UBACLR	   252#	  1247	  1309	  1353	  1395	  1433	  1486	  1542	  1587	  1629	  1667	  1713	  1762	  1805
	  1851	  1897	  1943	  1990	  2035	  2081	  2133	  2183	  2239	  2292	  2339	  2776	  2961	  3145
	  3271	  3384	  3517	  3640	  3767	  3868	  3965	  4097	  4213	  4346	  4539	  4648	  4786	  4866
	  4983	  5120	  5216	  5318	  5424	  5525	  5623	  5723	  5823	  5865	  5931	  6013	  6099	  6206
	  6323	  6411	  6500
UTYPER	    46#	  6929	  6935	  6941	  6947	  6953
WRAPR	   536#	  1014
WRCSB	   536#
WRCSTM	   536#
WREBR	   536#
WRHSB	   536#
WRINT	   536#
WRIO	   536#	  1312	  1435	  1489	  1501	  1545	  1669	  1715	  1723	  1765	  1807	  1853	  1861	  1899
	  1945	  1953	  1993	  2038	  2084	  2134	  2138	  2184	  2188	  2240	  2244	  2293	  2297	  2344
	  2402	  2406	  2411	  2437	  2451	  2506	  2510	  2514	  2519	  2522	  2555	  2643	  2646	  2650
	  2653	  2781	  2785	  2788	  2897	  2965	  2969	  2973	  2976	  3045	  3150	  3154	  3158	  3161
	  3173	  3276	  3280	  3284	  3287	  3299	  3389	  3393	  3397	  3400	  3412	  3522	  3526	  3530
	  3533	  3645	  3649	  3653	  3656	  3668	  3771	  3775	  3777	  3788	  3795	  3874	  3878	  3969
	  3972	  3979	  4101	  4104	  4108	  4219	  4222	  4226	  4350	  4356	  4360	  4543	  4546	  4550
	  4652	  4655	  4662	  4790	  4793	  4797	  4870	  4873	  4987	  4991	  4995	  4998	  5001	  5018
	  5025	  5126	  5130	  5134	  5140	  5146	  5152	  5185	  5238	  5323	  5357	  5429	  5459	  5482
	  5530	  5559	  5582	  5628	  5657	  5680	  5728	  5757	  5780	  5961	  6046	  6051	  6055	  6132
	  6137	  6141	  6253	  6258	  6262	  6440	  6445	  6449	  6525	  6530	  6768	  6775
WRIOB	   536#	  3545
WRPI	   536#	  1015
WRPUR	   536#
WRSPB	   536#
WRTIM	   536#
WRUBR	   536#
