DECSYSTEM 2020 DZ11 ASYNC. LINE MUX DIAGNOSTIC VERSION  0,2	MACRO %53(1020) 13:21 22-May-79 Page 1
DSDZAT	MAC	22-May-79 12:57		CONSOLE DATA SWITCH ASSIGNMENTS, MARCH 1978                                        SEQ 0021

     1						;MAINDEC-10-DSDZA
     2
     3						XLIST
     4						LIST
     5						LALL
     6						NAME	\MCNVER,\DECVER^
     7						TITLE	DECSYSTEM 2020 DZ11 ASYNC. LINE MUX DIAGNOSTIC VERSION  0,2
     8					^
     9						XALL
    10					;ASSEMBLE AS
    11					;DSDZAT,PARAM.KSM,FIXED.KSM,DSDZAM.MAC,STOR.KSM
    12	000137					LOC	137
    13	000137	000000	000002			MCNVER,,DECVER
    14						NOSYM
    15						COMMENT	%
    16
    17					                     COPYRIGHT (C) 1978,1979
    18
    19					       DIGITAL EQUIPMENT CORPORATION, MAYNARD, MASS.
    20
    21					THIS SOFTWARE IS FURNISHED UNDER A LICENSE FOR USE ONLY ON A
    22					SINGLE  COMPUTER  SYSTEM  AND  MAY  BE  COPIED ONLY WITH THE
    23					INCLUSION OF THE ABOVE COPYRIGHT NOTICE.  THIS SOFTWARE,  OR
    24					ANY  OTHER  COPIES THEREOF, MAY NOT BE PROVIDED OR OTHERWISE
    25					MADE AVAILABLE TO ANY OTHER PERSON EXCEPT FOR  USE  ON  SUCH
    26					SYSTEM  AND TO ONE WHO AGREES TO THESE LICENSE TERMS.  TITLE
    27					TO AND OWNERSHIP OF THE SOFTWARE SHALL AT ALL  TIMES  REMAIN
    28					IN DEC.
    29
    30					THE INFORMATION  IN  THIS  DOCUMENT  IS  SUBJECT  TO  CHANGE
    31					WITHOUT  NOTICE  AND SHOULD NOT BE CONSTRUED AS A COMMITMENT
    32					BY DIGITAL EQUIPMENT CORPORATION.
    33
    34					DEC ASSUMES NO RESPONSIBILITY FOR THE USE OR RELIABILITY  OF
    35					ITS SOFTWARE IN EQUIPMENT WHICH IS NOT SUPPLIED BY DEC.
    36
    37						%
    38
    39
DECSYSTEM 2020 DZ11 ASYNC. LINE MUX DIAGNOSTIC VERSION  0,2	MACRO %53(1020) 13:21 22-May-79 Page 2
DSDZAT	MAC	22-May-79 12:57		ASSEMBLY PARAMETERS                                                                SEQ 0022

    40						SUBTTL	ASSEMBLY PARAMETERS
    41
    42
    43						;	ASSEMBLY PARAMETERS
    44
    45			000001			EXCASB==1			;EXECUTIVE MODE
    46			000001			MEMMAP==1			;MEMORY MAPPING
    47			000001			ALTGO==1			;ALTMODE START
    48			000200			DEBUG==200			;PROGRAM DEBUG  AREA
    49			000001			PGMEND==1			;ASSEMBLE PROGRAM END ROUTINE
    50			000001			UUOS==1				;UUO DISPATCHER
    51		777777	777777			ITERAT==-1			;PROGRAM ITERATIONS (ALMOST FOREVER)
    52
    53						;	OPTIONAL STARTING ADDRESSES
    54
    55			030000			SADR1==BEGIN
    56			030000			SADR2==BEGIN
    57			030000			SADR3==BEGIN
    58			030007			SADR4==SRTDDT
    59			030061			SADR5==$BEND2
    60		254200	030000			SADR6==HALT BEGIN
    61		254200	030000			SADR7==HALT BEGIN
    62		254200	030000			SADR8==HALT BEGIN
    63		254200	030000			SADR9==HALT BEGIN
    64		254200	030000			SADR10==HALT BEGIN
    65		254200	030000			SADR11==HALT BEGIN
    66
    67			123457			PAREA1==123457			;RANDOM NUMBER BASE
    68			000000			PAREA2==0
    69		446344	724100			PAREA3==SIXBIT/DSDZA/
    70		605664	000000			PAREA4==SIXBIT/PNT/
    71			000000			PAREA5==0
    72			000000			PAREA6==0
    73
    74
DECSYSTEM 2020 DZ11 ASYNC. LINE MUX DIAGNOSTIC VERSION  0,2	MACRO %53(1020) 13:21 22-May-79 Page 3
DSDZAT	MAC	22-May-79 12:57		ASSEMBLY PARAMETERS                                                                SEQ 0023

    75
    76						;ACCUMULATOR DEFINITIONS
    77
    78			000000		AC0=0
    79			000001		AC1=1
    80			000002		AC2=2
    81			000003		AC3=3
    82			000004		AC4=4
    83			000005		AC5=5
    84			000006		AC6=6
    85			000007		AC7=7
    86			000010		AC10=10
    87			000011		AC11=11
    88			000012		AC12=12
    89			000013		AC13=13
    90			000014		AC14=14
    91			000015		AC15=15
    92			000016		AC16=16
    93			000017		AC17=17
    94			000007		IND=AC7
    95			000010		ACTFLG=AC10
    96			000011		RUN=AC11
    97			000012		ACT=AC12
    98
    99
   100
   101
   102						;UNIBUS ADAPTER STATUS REGISTER BIT ASSIGNMENTS
   103
   104			400000		TIMOUT=400000				;R
   105			200000		BMD=200000				;R
   106			100000		SMPE=100000				;R
   107			040000		NED=40000				;R
   108			004000		HIREQ=4000				;R/W
   109			002000		LOREQ=2000				;R/W
   110			001000		ACDCL=1000				;R
   111			000200		DISXFR=200				;R/W
   112			000100		UBINIT=100				;W
   113			000040		PIA30=40				;R/W
   114			000020		PIA31=20				;R/W
   115			000010		PIA32=10				;R/W
   116			000004		PIA33=4					;R/W
   117			000002		PIA34=2					;R/W
   118			000001		PIA35=1					;R/W
   119
   120
DECSYSTEM 2020 DZ11 ASYNC. LINE MUX DIAGNOSTIC VERSION  0,2	MACRO %53(1020) 13:21 22-May-79 Page 4
DSDZAT	MAC	22-May-79 12:57		ASSEMBLY PARAMETERS                                                                SEQ 0024

   121						;UNIBUS BIT DEFINITIONS
   122
   123			400000		BIT17=400000
   124			200000		BIT16=200000
   125			100000		BIT15=100000
   126			040000		BIT14=40000
   127			020000		BIT13=20000
   128			010000		BIT12=10000
   129			004000		BIT11=4000
   130			002000		BIT10=2000
   131			001000		BIT9=1000
   132			000400		BIT8=400
   133			000200		BIT7=200
   134			000100		BIT6=100
   135			000040		BIT5=40
   136			000020		BIT4=20
   137			000010		BIT3=10
   138			000004		BIT2=4
   139			000002		BIT1=2
   140			000001		BIT0=1
   141
DECSYSTEM 2020 DZ11 ASYNC. LINE MUX DIAGNOSTIC VERSION  0,2	MACRO %53(1020) 13:21 22-May-79 Page 5
DSDZAT	MAC	22-May-79 12:57		ASSEMBLY PARAMETERS                                                                SEQ 0025

   142						;DZ11 CONTROL AND STATUS REGISTER DEFINITIONS
   143
   144			000010		MAINT=BIT3			;MAINTENANCE MODE ENABLE
   145			000020		DCLR=BIT4			;DEVICE CLEAR
   146			000040		MSENAB=BIT5			;MASTER SCAN ENABLE
   147			000100		RIE=BIT6			;RECEIVER INTERRUPT ENABLE
   148			000200		RDONE=BIT7			;RECEIVER DONE
   149			010000		SILOEN=BIT12			;SILO ALARM ENABLE
   150			020000		SILOAL=BIT13			;SILO ALARM
   151			040000		TIE=BIT14			;TRANSMITTER INTERRUPT ENABLE
   152			100000		TRDY=BIT15			;TRANSMITTER READY
   153
   154			000000		TL0=0				;TRANSMIT LINE 0
   155			000400		TL1=BIT8			;TRANSMIT LINE 1
   156			001000		TL2=BIT9			;TRANSMIT LINE 2
   157			001400		TL3=BIT9!BIT8			;TRANSMIT LINE 3
   158			002000		TL4=BIT10			;TRANSMIT LINE 4
   159			002400		TL5=BIT10!BIT8			;TRANSMIT LINE 5
   160			003000		TL6=BIT10!BIT9			;TRANSMIT LINE 6
   161			003400		TL7=BIT10!BIT9!BIT8		;TRANSMIT LINE 7
   162
   163						;DZRBUF BIT DEFINITIONS
   164
   165			010000		PARER=BIT12			;PARITY ERROR
   166			020000		FRMERR=BIT13			;FRAME ERROR
   167			040000		OVRRUN=BIT14			;OVERRUN ERROR
   168			100000		DVALID=BIT15			;DATA VALID
   169
   170			000000		RL0=0				;RECEIVER LINE 0
   171			000400		RL1=BIT8			;RECEIVER LINE 1
   172			001000		RL2=BIT9			;RECEIVER LINE 2
   173			001400		RL3=BIT9!BIT8			;RECEIVER LINE 3
   174			002000		RL4=BIT10			;RECEIVER LINE 4
   175			002400		RL5=BIT10!BIT8			;RECEIVER LINE 5
   176			003000		RL6=BIT10!BIT9			;RECEIVER LINE 6
   177			003400		RL7=BIT10!BIT9!BIT8		;RECEIVER LINE 7
   178
DECSYSTEM 2020 DZ11 ASYNC. LINE MUX DIAGNOSTIC VERSION  0,2	MACRO %53(1020) 13:21 22-May-79 Page 6
DSDZAT	MAC	22-May-79 12:57		ASSEMBLY PARAMETERS                                                                SEQ 0026

   179						;DZLPR BIT DEFINITIONS
   180
   181			000000		LP0=0				;LINE PARAMETER 0
   182			000001		LP1=BIT0			;LINE PARAMETER 1
   183			000002		LP2=BIT1			;LINE PARAMETER 2
   184			000003		LP3=BIT1!BIT0			;LINE PARAMETER 3
   185			000004		LP4=BIT2			;LINE PARAMETER 4
   186			000005		LP5=BIT2!BIT0			;LINE PARAMETER 5
   187			000006		LP6=BIT2!BIT1			;LINE PARAMETER 6
   188			000007		LP7=BIT2!BIT1!BIT0		;LINE PARAMETER 7
   189
   190			000000		FIVE=0				;FIVE BITS/CHAR, 1 STOP BIT
   191			000010		SIX=BIT3			;SIX BITS/CHAR, 1 STOP BIT
   192			000020		SEVEN=BIT4			;SEVEN BITS/CHAR, 1STOP BIT
   193			000030		EIGHT=BIT4!BIT3			;EIGHT BITS/CHAR, 1 STOP BIT
   194			000040		FIVES=BIT5			;FIVE BITS/CHAR, 2 STOP BITS
   195			000060		SIXS=BIT5!BIT4			;SIX BITS/CHAR, 2 STOP BITS
   196			000060		SEVENS=BIT5!BIT4		;SEVEN BITS/CHAR, 2 STOP BITS
   197			000070		EIGHTS=BIT5!BIT4!BIT3		;EIGHT BITS/CHAR, 2 STOP BITS
   198
   199			000100		PARITY=BIT6			;PARITY ENABLED
   200			000200		ODDPAR=BIT7			;ODD PARITY ENABLED
   201			000000		ONESTOP=0			;ONE STOP BIT ENABLED
   202			000040		TWOSTOP=BIT5			;TWO STOP BITS ENABLED
   203			000000		EVEPAR=0			;EVEN PARITY ENABLED
   204			010000		RCVON=BIT12			;ENABLE RECEIVER (RECEIVER ON)
   205
   206			000000		S50=0				;SPEED 50 BAUD
   207			000400		S75=BIT8			;  "   75   "
   208			001000		S110=BIT9			;  "  110   "
   209			001400		S134=BIT9!BIT8			;  "  134.5 "
   210			002000		S150=BIT10			;  "  150   "
   211			002400		S300=BIT10!BIT8			;  "  300   "
   212			003000		S600=BIT10!BIT9!		;  "  600   "
   213			003400		S1200=BIT10!BIT9!BIT8		;  " 1200   "
   214			004000		S1800=BIT11			;  " 1800   "
   215			004400		S2000=BIT11!BIT8		;  " 2000   "
   216			005000		S2400=BIT11!BIT9		;  " 2400   "
   217			005400		S3600=BIT11!BIT9!BIT8		;  " 3600   "
   218			006000		S4800=BIT11!BIT10		;  " 4800   "
   219			006400		S7200=BIT11!BIT10!BIT8		;  " 7200   "
   220			007000		S9600=BIT11!BIT10!BIT9		;  " 9600   "
   221			007400		S19200=BIT11!BIT10!BIT9!BIT8	;  " 19200  "
   222
DECSYSTEM 2020 DZ11 ASYNC. LINE MUX DIAGNOSTIC VERSION  0,2	MACRO %53(1020) 13:21 22-May-79 Page 7
DSDZAT	MAC	22-May-79 12:57		ASSEMBLY PARAMETERS                                                                SEQ 0027

   223					;DZTCR BIT DEFINITIONS
   224
   225			000001		TCR=TCR0
   226			000001		TCR0=BIT0			;TCR0
   227			000002		TCR1=BIT1			;TCR1
   228			000004		TCR2=BIT2			;TCR2
   229			000010		TCR3=BIT3			;TCR3
   230			000020		TCR4=BIT4			;TCR4
   231			000040		TCR5=BIT5			;TCR5
   232			000100		TCR6=BIT6			;TCR6
   233			000200		TCR7=BIT7			;TCR7
   234			000400		DTR0=BIT8			;DTR0
   235			001000		DTR1=BIT9			;DTR1
   236			002000		DTR2=BIT10			;DTR2
   237			004000		DTR3=BIT11			;DTR3
   238			010000		DTR4=BIT12			;DTR4
   239			020000		DTR5=BIT13			;DTR5
   240			040000		DTR6=BIT14			;DTR6
   241			100000		DTR7=BIT15			;DTR7
   242
   243					;DZMSR BIT DEFINITIONS
   244
   245			000001		RING0=BIT0			;RING INDICATED ON LINE 0
   246			000002		RING1=BIT1			;  "	  "     "   "   1
   247			000004		RING2=BIT2			;  "	  "     "   "   2
   248			000010		RING3=BIT3			;  "      "     "   "   3
   249			000020		RING4=BIT4			;  "      "     "   "   4
   250			000040		RING5=BIT5			;  "      "     "   "   5
   251			000100		RING6=BIT6			;  "      "     "   "   6
   252			000200		RING7=BIT7			;  "      "     "   "   7
   253			000400		CO0=BIT8			;CARRIER PRESENT ON LINE O
   254			001000		CO1=BIT9			;    "       "    "   "  1
   255			002000		CO2=BIT10			;    "       "    "   "  2
   256			004000		CO3=BIT11			;    "       "    "   "  3
   257			010000		CO4=BIT12			;    "       "    "   "  4
   258			020000		CO5=BIT13			;    "       "    "   "  5
   259			040000		CO6=BIT14			;    "       "    "   "  6
   260			100000		CO7=BIT15			;    "       "    "   "  7
   261
   262						;DZTDR BIT DEFINITIONS
   263
   264			000400		BRK0=BIT8			;BREAK FOR LINE 0
   265			001000		BRK1=BIT9			;   "   "   "   1
   266			002000		BRK2=BIT10			;   "   "   "   2
   267			004000		BRK3=BIT11			;   "   "   "   3
   268			010000		BRK4=BIT12			;   "   "   "   4
   269			020000		BRK5=BIT13			;   "   "   "   5
   270			040000		BRK6=BIT14			;   "   "   "   6
   271			100000		BRK7=BIT15			;   "   "   "   7
DECSYSTEM 2020 DZ11 ASYNC. LINE MUX DIAGNOSTIC VERSION  0,2	MACRO %53(1020) 13:21 22-May-79 Page 8
DSDZAT	MAC	22-May-79 12:57		ASSEMBLY PARAMETERS                                                                SEQ 0028

   272						;MACRO DEFINITIONS
   273
   274						; THE CLEAR MACRO REQUIRES
   275						; A = ADDRESS OF THE 1ST LOC. TO BE CLEARED
   276						; B = SIZE OF TABLE-1
   277						; EXAMPLE:	CLEAR	(DZ.MAP,^D191)
   278						; WILL CLEAR 192 LOCATIONS STARTING WITH DZ.MAP
   279
   280					DEFINE	CLEAR	(A,B)<
   281						SETZM	A		;CLEAR 1ST LOC. OF TABLE
   282						MOVE	[A,,A+1]
   283						BLT	A+B	;CLEAR ENTIRE TABLE
   284					>
   285
   286
   287
   288					DEFINE	OR32	(A,B)<
   289						SETZM	ACTFLG		;INIT ACTIVE DEVICE FLAG
   290						MOVE	B,[-^D32,,0]	;GET POINTER
   291					A:	IOR	ACTFLG,DZACTV(B);OR THIS DZ11'S FLAG
   292						AOBJN	B,A		;UPDATE POINTER TO NEXT DZ11
   293					>
   294
   295
   296
   297					DEFINE	VCTMAP	(A,B)<
   298					VEC'A:	0
   299						MOVEI	0,A		;DISPATCH WAS THRU LOC. B IN VECTBL
   300						JEN	@VEC'A		;GO DISMISS THE INTERRUPT
   301					>
   302					;* XFER MACRO REQUIRES THE FOLLOWING
   303					;* A = AC TO USE
   304					;* B = SOURCE INFO
   305					;* C = DESTINATION
   306					;* D = END OF BLOCK
   307
   308
   309					DEFINE	XFER	(A,B,C,D)<
   310						MOVE	A,[B,,C]	;GET POINTER FOR BLT
   311						BLT	A,D		;TRANSFER THE BLOCK
   312					>
   313					DEFINE	LPTST	<
   314						MOVE	0,CONSW		;GET SWITCHES
   315						TRNE	TSTLP		;LOOP ON TEST ?
   316						JRST	@$TSTNM		;YES!
   317					>
   318
DECSYSTEM 2020 DZ11 ASYNC. LINE MUX DIAGNOSTIC VERSION  0,2	MACRO %53(1020) 13:21 22-May-79 Page 9
DSDZAT	MAC	22-May-79 12:57		ASSEMBLY PARAMETERS                                                                SEQ 0029

   319					; THE FOLLOWING MACRO REQUIRES
   320					; X= # OF TEST
   321					; Y= BIT TO TEST
   322					; Z= REGISTER TO TEST
   323					; Q= UBASR
   324
   325					DEFINE	BITEST	(X,Y,Z,Q)<
   326					S
   327					;* TEST'X VERIFIES THAT Y CAN BE SET, CAN BE WRITTEN TO 0, AND
   328					;* CAN BE CLEARED BY DEVICE CLEAR.
   329					S
   330
   331					TEST'X:	MOVE	4,Z		;GET REG. ADDR. FOR ERROR CALL
   332						MOVEI	0,TST'X'A		;GET RETURN ADDRESS
   333						MOVEM	TESTPC		;STOR IT
   334						MOVEM	0,$TSTNM	;STORE IT FOR TEST LOOPING
   335					TST'X'A:	MOVEI	5,Y		;GET Y
   336						BSIO	5,@Z	;SET IT IN DZ11 REG.
   337						RDIO	6,@Z	;GET ACTUAL DATA
   338						RDIO	3,@Q	;GET UNIBUS STATUS
   339						TION	5,@Z	;DID Y SET?
   340						ERROR	(TST'X'A,6,5,6,SETTING Y,BIT STUCK AT 0,STAT)
   341					TST'X'B:	BCIO	5,@Z	;CLEAR Y
   342						RDIO	6,@Z	;GET ACTUAL DATA
   343						RDIO	3,@Q	;GET UNIBUS ADAPTER STATUS
   344						TIOE	5,@Z	;DID Y CLEAR?
   345						ERROR	(TST'X'B,6,5,6,BIT CLEAR OF Y,STUCK ON 1,STAT)
   346					TST'X'C:	MOVEI	0,DCLR		;GET DEVICE CLEAR BIT
   347						BSIO	0,@Z	;ISSUE DEVICE CLEAR
   348						TIOE	0,@Z	;HAS CLEAR PULSE GONE
   349						JRST	.-1		;NO!  WAIT FOR DEVICE TO CLEAR
   350						RDIO	6,@Z	;GET ACTUAL DATA
   351						RDIO	3,@Q	;GET UNIBUS ADAPTER STATUS
   352						TIOE	5,@Z	;DID Y CLEAR?
   353						ERROR	(TST'X'C,6,5,6,DEVICE CLEAR OF Y,STUCK ON 1,STAT)
   354						LPTST
   355					>
   356
DECSYSTEM 2020 DZ11 ASYNC. LINE MUX DIAGNOSTIC VERSION  0,2	MACRO %53(1020) 13:21 22-May-79 Page 10
DSDZAT	MAC	22-May-79 12:57		ASSEMBLY PARAMETERS                                                                SEQ 0030

   357					; THE FOLLOWING MACRO REQUIRES
   358					; X= # OF TEST
   359					; Y= BIT TO TEST
   360					; Z= REGISTER TO TEST
   361					; Q= UBASR
   362
   363					DEFINE	MLTBIT	(X,Y,Z,Q)<
   364					S
   365					;* TEST'X VERIFIES THAT Y BITS CAN BE SET, CAN BE WRITTEN TO 0, AND
   366					;* CAN BE CLEARED BY DEVICE CLEAR.  IT TESTS EACH BIT IN THE LOW BYTE
   367					;* OF Z
   368					S
   369
   370					TEST'X:	MOVE	4,Z		;GET REG. ADDR. FOR ERROR CALL
   371						MOVEI	0,TST'X'A	;GET RETURN ADDRESS
   372						MOVEM	TESTPC		;STOR IT
   373						MOVEM	0,$TSTNM	;STORE IT FOR TEST LOOPING
   374					TST'X'A:	MOVEI	5,Y		;GET Y BIT
   375						BSIO	5,@Z	;SET IT IN DZ11 REG.
   376						RDIO	6,@Z	;GET ACTUAL DATA
   377						RDIO	3,@Q	;GET UNIBUS STATUS
   378						TION	5,@Z	;DID Y BIT SET?
   379						ERROR	(TST'X'A,6,5,6,SETTING Y,BIT STUCK AT 0,STAT)
   380					TST'X'B:	BCIO	5,@Z	;CLEAR Y BIT
   381						RDIO	6,@Z	;GET ACTUAL DATA
   382						RDIO	3,@Q	;GET UNIBUS ADAPTER STATUS
   383						TIOE	5,@Z	;DID Y BIT CLEAR?
   384						ERROR	(TST'X'B,6,5,6,BIT CLEAR OF Y,STUCK ON 1,STAT)
   385					TST'X'C:	BSIO	5,@Z	;SET THE BIT AGAIN
   386						MOVEI	0,DCLR		;GET DEVICE CLEAR BIT
   387						BSIO	0,@DZCSR	;ISSUE DEVICE CLEAR
   388						TIOE	0,@DZCSR	;HAS CLEAR PULSE GONE
   389						JRST	.-1		;NO!  WAIT FOR DEVICE TO CLEAR
   390						RDIO	6,@Z	;GET ACTUAL DATA
   391						RDIO	3,@Q	;GET UNIBUS ADAPTER STATUS
   392						TIOE	5,@Z	;DID Y BIT CLEAR?
   393						ERROR	(TST'X'C,6,5,6,DEVICE CLEAR OF Y,STUCK ON 1,STAT)
   394						LSH	5,1		;TEST NEXT HIGHER BIT
   395						CAIGE	5,400		;HAVE WE TESTED THE LOW BYTE
   396						JRST	TST'X'A+1	;NO! GO BACK FOR NEXT BIT
   397						LPTST
   398					>
   399
DECSYSTEM 2020 DZ11 ASYNC. LINE MUX DIAGNOSTIC VERSION  0,2	MACRO %53(1020) 13:21 22-May-79 Page 11
DSDZAT	MAC	22-May-79 12:57		ASSEMBLY PARAMETERS                                                                SEQ 0031

   400						;RIGHT HALF SWITCHES
   401			000001		INCLD2==000001			;INCLUDE TEST # 2
   402			000002		RSTRT==000002			;START AT SELECTED TEST
   403			000004		TSTLP==000004			;LOOP ON TEST
   404			000010		PARAM==000010			;SET BAUD RATE AND ACTIVE LINES
   405			000020		INHMAP==000020			;INHIBIT PRINTING THE SYSTEM MAP
   406			000040		SKTST==000040			;SKIP TEST 32 (SAVES TIME)
   407			000100		RESEL==000100			;RESELECT ACTIVE DZ11'S
   408			000200		TRACE==000200			;TYPE * FOR EACH LINE TESTED IN TEST 32
   409
DECSYSTEM 2020 DZ11 ASYNC. LINE MUX DIAGNOSTIC VERSION  0,2	MACRO %53(1020) 13:21 22-May-79 Page 12
DSDZAT	MAC	22-May-79 12:57		ASSEMBLY PARAMETERS                                                                SEQ 0032

   410
   411					SUBTTL	CONSOLE DATA SWITCH ASSIGNMENTS, MARCH 1978
   412
   413					DEFINE	S,<;*********************************************************************>
   414
   415					S^;*********************************************************************^
   416					;*DATA SWITCHES
   417					;*LEFT HALF SWITCHES ARE PRE-ASSIGNED FOR SUBROUTINE PACKAGE USE
   418					;*AND CONTROL LOOPING, PRINTING (TTY OR OTHER DEVICE) AND MISC. FUNCTIONS
   419					S^;*********************************************************************^
   420
   421			400000		ABORT==	400000			;ABORT PROGRAM ON PASS COMPLETION
   422			200000		RSTART==200000			;RESTART TEST, PRINT TOTALS
   423			100000		TOTALS==100000			;PRINT TOTALS, CONTINUE
   424
   425			040000		NOPNT==	040000			;INHIBIT ALL PRINT/TYPE OUT (EXCEPT FORCED)
   426			020000		PNTLPT==020000			;PRINT ALL DATA ON LPT (LOGICAL DEVICE, USER MODE)
   427			010000		DING==	010000			;RING BELL ON ERROR
   428
   429			004000		LOOPER==004000			;ENTER EXERCISE/CHECK LOOP ON ERROR
   430			002000		ERSTOP==002000			;HALT ON TEST ERROR
   431			001000		PALERS==001000			;PRINT ALL ERRORS
   432
   433			000400		RELIAB==000400			;RELIABILITY MODE
   434			000200		TXTINH==000200			;INHIBIT ERROR TEXT
   435			000100		INHPAG==000100			;INHIBIT PAGING
   436
   437			000040		MODDVC==000040			;MODIFY DEVICE CODE
   438			000020		INHCSH==000020			;INHIBIT CACHE
   439			000010		OPRSEL==000010			;OPERATOR SELECTION
   440
   441			000004		CHAIN==	000004			;CHAIN CONTROL SWITCH
   442
   443									;SWITCH 16 RESERVED
   444
   445									;SWITCH 17 RESERVED !!!
DECSYSTEM 2020 DZ11 ASYNC. LINE MUX DIAGNOSTIC VERSION  0,2	MACRO %53(1020) 13:21 22-May-79 Page 2
PARAM	KSM	28-Mar-78 11:27		PROGRAM/SUBROUTINE PARAMETERS                                                      SEQ 0033

   446					SUBTTL	PROGRAM/SUBROUTINE PARAMETERS
   447
   448					S^;*********************************************************************^
   449					;*SPECIAL SUBPROGRAM LINKAGES
   450					S^;*********************************************************************^
   451
   452			027772		FSELNK=	27772	;FILE SELECT LINK
   453			027773		FRDLNK=	27773	;FILE READ LINK
   454			027774		LDLNK=	27774	;LOAD LINKAGE ADDRESS
   455			027775		DDTLNK=	27775	;DDT LINKAGE ADDRESS
   456			027776		MODLNK=	27776	;OPERATIONAL MODE CHECK LINKAGE ADDRESS
   457			027777		SUBLNK=	27777	;SUBROUTINE LINKAGE ADDRESS
   458
   459					S^;*********************************************************************^
   460					;*SPECIAL SUBROUTINE FATAL HALTS
   461					;*USED TO REPORT ERRORS THAT CAUSE THE SUBROUTINES TO BE UNUSABLE
   462					S^;*********************************************************************^
   463
   464					;ADDRESS   TAG	REASON
   465					;---------------------
   466
   467					; 1010 	NOEXEC	;PROGRAM NOT CODED FOR EXEC MODE OPERATION
   468					; 1011  PLERR	;FATAL PUSH LIST POINTER ERROR
   469					; 1012  PLERR1	;INITIAL PUSH LIST POINTER ERROR
   470					; 1013  MUOERR	;MUUO WITH LUUO HANDLER WIPED OUT
   471					; 1014  SMBER	;KS-10 INTERRUPT WITHOUT DOORBELL
   472					; 1015  SMCER	;KS-10 CLOCK INTERRUPT WITHOUT FLAG SET
   473					; 1016  CPIERR	;CPU INITIALIZATION ERROR
   474					; 1017  EOPERR	;END OF PROGRAM ERROR
   475					; 1020  LUOERR	;INTERRUPT WITH LUUO HANDLER WIPED OUT
   476
   477					S^;*********************************************************************^
DECSYSTEM 2020 DZ11 ASYNC. LINE MUX DIAGNOSTIC VERSION  0,2	MACRO %53(1020) 13:21 22-May-79 Page 3
PARAM	KSM	28-Mar-78 11:27		PROGRAM/SUBROUTINE PARAMETERS                                                      SEQ 0034

   478					S^;*********************************************************************^
   479					;OPERATOR DEFINITIONS (NON-UUO'S)
   480					S^;*********************************************************************^
   481
   482		260740	000000		OPDEF	GO	[PUSHJ	P,]	;SUBROUTINE CALL
   483		263740	000000		OPDEF	RTN	[POPJ	P,]	;SUBROUTINE RETURN
   484		261740	000000		OPDEF	PUT	[PUSH	P,]	;PUT DATA ON PUSH LIST
   485		262740	000000		OPDEF	GET	[POP	P,]	;GET DATA FROM PUSH LIST
   486		254000	000000		OPDEF	PJRST	[JRST	]	;JRST TO ROUTINE THAT RTN'S
   487		254200	000000		OPDEF	HALT	[JRST	4,]	;DEFINITION FOR DDT
   488		254100	000000		OPDEF	JRSTF	[JRST	2,]	;DEFINITION FOR DDT
   489		254500	000000		OPDEF	JEN	[JRST	12,]	;DEFINITION FOR DDT
   490
   491					S^;*********************************************************************^
   492					;*SUBROUTINE INITIALIZATION CALL
   493					S^;*********************************************************************^
   494
   495		265000	030011		OPDEF	PGMINT	[JSP	0,SBINIT]	;SUBROUTINE INITIALIZATION
   496
   497					S^;*********************************************************************^
   498					;*HALTING UUO'S (A MORE GRACEFUL HALT THAN SIMPLY USING THE HALT INSTRUCTION).
   499					S^;*********************************************************************^
   500
   501		037640	000004		OPDEF	FATAL	[37B8!15B12!4]	;FATAL PROGRAMMING HALT
   502		037600	000004		OPDEF	ERRHLT	[37B8!14B12!4]	;PROGRAM ERROR HALT
   503
   504					S^;*********************************************************************^
   505					;*TERMINAL INPUT UUO'S
   506					;*ALWAYS COME FROM THE CONSOLE TERMINAL IN EXEC MODE OR THE
   507					;*CONTROLLING TERMINAL (REAL TERMINAL OR PTY) IN USER MODE.
   508					S^;*********************************************************************^
   509
   510		037000	000003		OPDEF	TTICHR 	[37B8!0B12!3]	;TTY, INPUT ANY CHARACTER
   511		037040	000003		OPDEF	TTIYES	[37B8!1B12!3]	;TTY, NORMAL RETURN Y
   512		037100	000003		OPDEF	TTINO	[37B8!2B12!3]	;TTY, NORMAL RETURN N
   513		037140	000003		OPDEF	TTIOCT	[37B8!3B12!3]	;TTY, INPUT OCTAL WORD
   514		037200	000003		OPDEF	TTIDEC	[37B8!4B12!3]	;TTY, INPUT DECIMAL WORD
   515		037240	000003		OPDEF	TTICNV	[37B8!5B12!3]	;TTY, INPUT CONVERTABLE WORD
   516		037300	000003		OPDEF	TTLOOK	[37B8!6B12!3]	;TTY, KEYBOARD CHECK
   517		037340	000003		OPDEF	TTALTM	[37B8!7B12!3]	;TTY, ALT-MODE CHECK
   518		037400	000003		OPDEF	TTSIXB	[37B8!10B12!3]	;TTY, INPUT SIXBIT WORD
   519		037440	000003		OPDEF	TTYINP	[37B8!11B12!3]	;TTY, IMAGE MODE INPUT
   520		037500	000003		OPDEF	TTICLR	[37B8!12B12!3]	;TTY, CLEAR INPUT
DECSYSTEM 2020 DZ11 ASYNC. LINE MUX DIAGNOSTIC VERSION  0,2	MACRO %53(1020) 13:21 22-May-79 Page 4
PARAM	KSM	28-Mar-78 11:27		PROGRAM/SUBROUTINE PARAMETERS                                                      SEQ 0035

   521					;*TERMINAL OUTPUT UUO'S.
   522
   523		037000	000000		OPDEF	PNTA	[37B8!0B12!0]	;PRINT ASCII WORD
   524		037000	000001		OPDEF	PNTAF	[37B8!0B12!1]	;PRINT ASCII WORD FORCED
   525		037740	000000		OPDEF	PNTAL	[37B8!17B12!0]	;PRINT ASCIZ LINE
   526		037740	000001		OPDEF	PNTALF	[37B8!17B12!1]	;PRINT ASCIZ LINE FORCED
   527		037600	000003		OPDEF	PSIXL	[37B8!14B12!3]	;PRINT SIXBIT'Z LINE
   528		037640	000003		OPDEF	PSIXLF	[37B8!15B12!3]	;PRINT SIXBIT'Z LINE FORCED
   529		037000	000000		OPDEF	PNTMSG	[37B8!0B12!0]	;PRINT MESSAGE IMMEDIATE
   530		037040	000000		OPDEF	PNTMSF	[37B8!1B12!0]	;PRINT MESSAGE IMMEDIATE FORCED
   531		037100	000000		OPDEF	PSIXM	[37B8!2B12!0]	;PRINT SIXBIT'Z MSG IMMEDIATE
   532		037200	000000		OPDEF	PSIXMF	[37B8!4B12!0]	;PRINT SIXBIT'Z MSG IMM FORCED
   533		037000	000000		OPDEF	PNTCI	[37B8!0B12!0]	;PRINT CHARACTER IMMEDIATE
   534		037040	000000		OPDEF	PNTCIF	[37B8!1B12!0]	;PRINT CHARACTER IMMEDIATE FORCED
   535		037500	000000		OPDEF	PNTCHR	[37B8!12B12!0]	;PRINT CHARACTER
   536		037500	000001		OPDEF	PNTCHF	[37B8!12B12!1]	;PRINT CHARACTER FORCED
   537		037040	000000		OPDEF	PNT1	[37B8!1B12!0]	;PRINT ONE OCTAL DIGIT
   538		037040	000001		OPDEF	PNT1F	[37B8!1B12!1]	;PRINT 1 OCTAL DIGIT FORCED
   539		037100	000000		OPDEF	PNT2	[37B8!2B12!0]	;PRINT TWO OCTAL DIGITS
   540		037100	000001		OPDEF	PNT2F	[37B8!2B12!1]	;PRINT 2 OCTAL DIGITS FORCED
   541		037140	000000		OPDEF	PNT3	[37B8!3B12!0]	;PRINT THREE OCTAL DIGITS
   542		037140	000001		OPDEF	PNT3F	[37B8!3B12!1]	;PRINT THREE OCTAL DIGITS FORCED
   543		037200	000000		OPDEF	PNT4	[37B8!4B12!0]	;PRINT FOUR OCTAL DIGITS
   544		037200	000001		OPDEF	PNT4F	[37B8!4B12!1]	;PRINT FOUR OCTAL DIGITS FORCED
   545		037240	000000		OPDEF	PNT5	[37B8!5B12!0]	;PRINT FIVE OCTAL DIGITS
   546		037240	000001		OPDEF	PNT5F	[37B8!5B12!1]	;PRINT FIVE OCTAL DIGITS FORCED
   547		037300	000000		OPDEF	PNT6	[37B8!6B12!0]	;PRINT SIX OCTAL DIGITS
   548		037300	000001		OPDEF	PNT6F	[37B8!6B12!1]	;PRINT SIX OCTAL DIGITS FORCED
   549		037340	000000		OPDEF	PNT7	[37B8!7B12!0]	;PRINT 7 OCTAL DIGITS
   550		037340	000001		OPDEF	PNT7F	[37B8!7B12!1]	;PRINT 7 OCTAL DIGITS FORCED
   551		037440	000000		OPDEF	PNT11	[37B8!11B12!0]	;PRINT 11 OCTAL DIGITS
   552		037440	000001		OPDEF	PNT11F	[37B8!11B12!1]	;PRINT 11 OCTAL DIGITS FORCED.
   553		037400	000000		OPDEF	PNTADR	[37B8!10B12!0]	;PRINT PHYSICAL ADDRESS
   554		037400	000001		OPDEF	PNTADF	[37B8!10B12!1]	;PRINT PHYSICAL ADDRESS FORCED
   555		037600	000000		OPDEF	PNTOCT  [37B8!14B12!0]	;PRINT FULL WORD OCTAL
   556		037600	000001		OPDEF	PNTOTF	[37B8!14B12!1]	;PRINT FULL WORD OCTAL FORCED
   557		037540	000000		OPDEF	PNTHW	[37B8!13B12!0]	;PRINT OCTAL HALF WORDS, 6 SP 6
   558		037540	000001		OPDEF	PNTHWF	[37B8!13B12!1]	;PRINT OCTAL HALF WORDS, 6 SP 6 FORCED
   559		037700	000003		OPDEF	PNTOCS	[37B8!16B12!3]	;PRINT OCTAL, SUPPRESS LEADING 0'S
   560		037740	000003		OPDEF	PNTOCF	[37B8!17B12!3]	;PRINT OCTAL, SUPPRESS LEADING 0'S FORCED
   561		037640	000000		OPDEF	PNTDEC	[37B8!15B12!0]	;PRINT DECIMAL, SUPRESS LEADING 0'S
   562		037640	000001		OPDEF	PNTDCF	[37B8!15B12!1]	;PRINT DECIMAL, SUPRESS LEADING 0'S FORCED
   563		037700	000000		OPDEF	PNTDS	[37B8!16B12!0]	;PRINT DECIMAL, SPACES FOR LD 0'S
   564		037700	000001		OPDEF	PNTDSF	[37B8!16B12!1]	;PRINT DECIMAL, SPACES FOR LD 0'S FORCED
DECSYSTEM 2020 DZ11 ASYNC. LINE MUX DIAGNOSTIC VERSION  0,2	MACRO %53(1020) 13:21 22-May-79 Page 5
PARAM	KSM	28-Mar-78 11:27		PROGRAM/SUBROUTINE PARAMETERS                                                      SEQ 0036

   565		037200	000002		OPDEF	PNTNM	[37B8!4B12!2]	;PRINT PROGRAM NAME
   566		037000	000002		OPDEF	PNTSIX	[37B8!0B12!2]	;PRINT SIXBIT WORD
   567		037040	000002		OPDEF	PNTSXF	[37B8!1B12!2]	;PRINT SIXBIT WORD FORCED
   568		037240	000002		OPDEF	DROPDV	[37B8!5B12!2]	;CLOSE LOGICAL FILE, USER MODE
   569		037100	000002		OPDEF	PNTCW	[37B8!2B12!2]	;PRINT DF10 CONTROL WORD
   570		037140	000002		OPDEF	PNTCWF	[37B8!3B12!2]	;PRINT DF10 CONTROL WORD FORCED
   571		037000	030242		OPDEF	PCRL	[37B8!0B12!CRLF] ;PRINT CARRIAGE RETURN/LINE FEED
   572		037040	030242		OPDEF	PCRLF	[37B8!1B12!CRLF] ;PRINT CARRIAGE RETURN/LINE FEED FORCED
   573		037000	000040		OPDEF	PSP	[37B8!0B12!40]	;PRINT SPACE
   574		037040	000040		OPDEF	PSPF	[37B8!1B12!40]	;PRINT SPACE FORCED
   575		037000	030243		OPDEF	PCRL2	[37B8!0B12!CRLF2] ;PRINT CARRIAGE RETURN/LINE FEED (TWICE)
   576		037040	030243		OPDEF	PCRL2F	[37B8!1B12!CRLF2] ;PRINT CARRIAGE RETURN/LINE FEED (TWICE) FORCED
   577		037040	000007		OPDEF	PBELL	[37B8!1B12!7]	;PRINT TTY BELL
   578
   579		037040	000026		OPDEF	PFORCE	[37B8!1B12!26]	;PRINT FORCE, CONTROL O OVERRIDE
   580
   581					DEFINE	PMSG	(ARG),<
   582						PSIXM	[SIXBIT\ARG'_\]>
   583
   584					DEFINE	PMSGF	(ARG),<
   585						PSIXMF	[SIXBIT\ARG'_\]>
   586
   587					;*SIXBTZ -- MACRO TO GENERATE SIXBIT DATA FOR PRINTING
   588					;*	CONSERVES CORE OVER ASCIZ
   589
   590					DEFINE	SIXBTZ	(ARG),<	[SIXBIT\ARG'_\]>
   591
   592					;*CONSOLE SWITCH INPUT UUO.
   593					;*READS CONSOLE SWITCHES IF IN EXEC MODE OR ASKS FOR THEM IF
   594					;* USER MODE.
   595
   596		037400	000002		OPDEF	SWITCH	[37B8!10B12!2]	;INPUT CONSOLE SWITCHES
   597
   598					;*CLOCK INITIALIZATION UUO - TO SET DESIRED CLOCK OPERATION
   599					;*EITHER IGNORE CLOCK, ONLY LET IT TICK OR CAUSE INTERRUPT TO OCCUR.
   600
   601		037540	000004		OPDEF	CLOKOP	[37B8!13B12!4]	;CLOCK OPERATION UUO - CLOCK
   602		037200	000004		OPDEF	MTROP	[37B8!4B12!4]	;CLOCK OPERATION UUO - METER
   603
   604					;*KS-10 CACHE OPERATION UUO'S
   605
   606		037040	000004		OPDEF	CINVAL	[37B8!1B12!4]	;CACHE INVALIDATE
   607		037100	000004		OPDEF	CFLUSH	[37B8!2B12!4]	;CACHE FLUSH
   608		037140	000004		OPDEF	CWRTBI	[37B8!3B12!4]	;CACHE WRITE-BACK & INVALIDATE
DECSYSTEM 2020 DZ11 ASYNC. LINE MUX DIAGNOSTIC VERSION  0,2	MACRO %53(1020) 13:21 22-May-79 Page 6
PARAM	KSM	28-Mar-78 11:27		PROGRAM/SUBROUTINE PARAMETERS                                                      SEQ 0037

   609					;*END OF PASS/PROGRAM UUOS
   610
   611					;PERFORMS THE END OF PASS FUNCTIONS. INCREMENT PASS COUNT,
   612					;*DECREMENT ITERATION COUNT, CHECK IF FINISHED WITH THIS PROGRAM ETC.
   613
   614		037500	000004		OPDEF	ENDUUO	[37B8!12B12!4]	;UUO TO DISPLAY LIGHTS
   615		037700	000004		OPDEF	EOPUUO	[37B8!16B12!4]	;END OF PROGRAM UUO
   616
   617					;*MEMORY MANAGEMENT UUO'S
   618					;*UUO'S TO PERFORM VARIOUS MEMORY FUNCTIONS. MAPPING, ZEROING, PAGING,
   619					;*ADDRESS CONVERSION, ETC...
   620
   621		037000	000004		OPDEF	MAPMEM	[37B8!0B12!4]	;MAP MEMORY
   622		037500	000002		OPDEF	MEMZRO	[37B8!12B12!2]	;ZERO MEMORY
   623		037440	000002		OPDEF	MEMSEG	[37B8!11B12!2]	;SETUP MEMORY SEGMENT
   624		037540	000002		OPDEF	MAPADR	[37B8!13B12!2]	;VIRTUAL TO PHYSICAL ADR CONVERT
   625		037640	000002		OPDEF	MAPCNK	[37B8!15B12!2]	;MAP MEMORY CHUNK
   626		037600	000002		OPDEF	MAPSET	[37B8!14B12!2]	;SET KI10 EXEC PAGE MAP
   627		037740	000002		OPDEF	MAPPNT	[37B8!17B12!2]	;PRINT MEMORY MAP
   628
   629					;*DEVICE CODE MODIFICATION UUO
   630					;*ALLOWS THE MODIFICATION OF IOT'S TO ONE DEVICE TO BE CHANGED TO
   631					;*IOT'S TO A DIFFERENT DEVICE CODE.
   632
   633		037340	000002		OPDEF	MODPCU	[37B8!7B12!2]	;MODIFY PERHIPERAL CODE, USER
   634		037300	000002		OPDEF	MODPCP	[37B8!6B12!2]	;MODIFY PERHIPERAL CODE, PROGRAM
   635
   636			030000			IFNDEF	MODDVL,<MODDVL==BEGIN>
   637			030000			IFNDEF	MODDVU,<MODDVU==BEGIN>
   638
   639					;*"DIAMON" FILE SELECTION AND READ UUOS
   640
   641		037240	000004		OPDEF	FSELECT	[37B8!5B12!4]	;FILE SELECTION
   642		037300	000004		OPDEF	FREAD	[37B8!6B12!4]	;FILE READ - ASCII DATA
   643		037340	000004		OPDEF	FRD36	[37B8!7B12!4]	;FILE READ - 36 BIT DATA
   644		037400	000004		OPDEF	FRD8	[37B8!10B12!4]	;FILE READ - 8 BIT DATA
   645
   646						XLIST
   647					IFNDEF	EROLD,<LIST
DECSYSTEM 2020 DZ11 ASYNC. LINE MUX DIAGNOSTIC VERSION  0,2	MACRO %53(1020) 13:21 22-May-79 Page 7
PARAM	KSM	28-Mar-78 11:27		ERROR HANDLING UUO DEFINITIONS                                                     SEQ 0038

   648					SUBTTL	ERROR HANDLING UUO DEFINITIONS
   649
   650					S^;*********************************************************************^
   651					;*ERROR HANDLER PARAMETERS
   652					S^;*********************************************************************^
   653
   654		036000	000000		OPDEF	ERUUO	[36B8]		;ERROR CALL UUO
   655		035000	000000		OPDEF	ERLOOP	[35B8]		;ERROR LOOP, CHECKS PC,REPT,REPT1,ERROR
   656		035040	000000		OPDEF	ERLP1	[35B8!1B12]	;ERROR LOOP IF PC'S MATCH
   657		035100	000000		OPDEF	ERLP2	[35B8!2B12]	;ERROR LOOP IF ANY ERROR
   658		034000	000000		OPDEF	REPTUO	[34B8]		;REPEAT LOOP UUO
   659
   660					;*THE ERROR HANDLER MACROS
   661
   662					;*A MACRO TO REPORT AN ERROR AND LOOP
   663
   664						DEFINE	ERROR	(ADR,FORMAT,CORECT,ACTUAL,F,D,ERR)<
   665												SALL
   666						ERUUO	FORMAT,[T,,[SIXBIT\F'_\]
   667							   CORECT,,ACTUAL
   668							   [SIXBIT\D'_\],,ERR]
   669												XALL
   670						ERLOOP	ADR		;IF ERROR, LOOP TO ADR
   671					>
   672
   673					;*A MACRO TO REPORT AN ERROR AND NOT LOOP
   674
   675						DEFINE	ERROR1	(FORMAT,CORECT,ACTUAL,F,D,ERR)<
   676												SALL
   677						ERUUO	FORMAT,[T,,[SIXBIT\F'_\]
   678							   CORECT,,ACTUAL
   679							   [SIXBIT\D'_\],,ERR]
   680												XALL>
   681
   682					>;END OF EROLD CONDITIONAL
   683
   684						XLIST
   685						LIST
DECSYSTEM 2020 DZ11 ASYNC. LINE MUX DIAGNOSTIC VERSION  0,2	MACRO %53(1020) 13:21 22-May-79 Page 1
FIXED	KSM	28-Mar-78 11:28		*FIXED* FIXED CONTROL AND DISPATCH STORAGE, MARCH 1978                             SEQ 0039

   686					SUBTTL	*FIXED* FIXED CONTROL AND DISPATCH STORAGE, MARCH 1978
   687
   688	030000					LOC	30000
   689
   690					S^;*********************************************************************^
   691					;*PROGRAM STARTING ADDRESSES
   692					;*THESE ADDRESSES CALL VARIOUS SPECIAL START ROUTINES AND OR OPTIONS
   693					;*NORMAL START ADDRESS IS 30000 ALL OTHERS ARE SPECIAL. INVOKED BECAUSE
   694					;*OF END OF PASS, POWER FAILURE, DDT START, RE-ENTERING(TYPICALLY USER
   695					;*MODE), OR ANY NUMBER OF SPECIAL FEATURE TESTS.
   696					S^;*********************************************************************^
   697
   698	030000	254 00 1 00 027776 	BEGIN:	JRST	@MODLNK		;STAND-ALONE START
   699	030001	254 00 0 00 030600 	$START:	JRST	START		;MODE CHECK STARTING ADDRESS
   700
   701	030002	254 00 1 00 027774 	DIAGMN:	JRST	@LDLNK		;DIAGNOSTIC MONITOR START
   702
   703	030003	254 00 1 00 027774 	SYSEXR:	JRST	@LDLNK		;SYSTEM EXERCISER START
   704
   705	030004	254 00 0 00 030000 	SFSTRT:	JRST	SADR1		;SPECIAL FEATURE START
   706
   707	030005	254 00 0 00 030000 	PFSTRT:	JRST	SADR2		;POWER FAIL RESTART
   708
   709	030006	254 00 0 00 030000 	REENTR:	JRST	SADR3		;REENTER START(USUALLY USER MODE ONLY)
   710
   711	030007				SRTDDT:				;COMMONLY MISTAKEN NAME FOR "DDTSRT"
   712	030007	254 00 1 00 027775 	DDTSRT:	JRST	@DDTLNK		;DDT START
   713
   714	030010	254 00 0 00 030653 	BEGIN1:	JRST	STARTA		;LOOP START(END OF PASS COMES HERE)
   715	030011	254 00 1 00 027777 	SBINIT:	JRST	@SUBLNK		;PMGINT LINKAGE
   716	030012	000000	000000		RETURN:	0			;RETURN ADDRESS STORAGE
   717
   718	030013	254200	030000		START1:	SADR7			;OPTIONAL STARTING ADR/INSTRUCTIONS
   719	030014	254200	030000		START2:	SADR8			; "
   720	030015	254200	030000		START3:	SADR9			; "
   721	030016	254200	030000		START4:	SADR10			; "
   722	030017	254200	030000		START5:	SADR11			; "
DECSYSTEM 2020 DZ11 ASYNC. LINE MUX DIAGNOSTIC VERSION  0,2	MACRO %53(1020) 13:21 22-May-79 Page 2
FIXED	KSM	28-Mar-78 11:28		*FIXED* FIXED CONTROL AND DISPATCH STORAGE, MARCH 1978                             SEQ 0040

   723					S^;*********************************************************************^
   724					;*PROGRAM FIXED PARAMETER AREA
   725					S^;*********************************************************************^
   726
   727	030020	446344	724100		PNTNAM:	PAREA3		;SIXBIT PROGRAM NAME
   728	030021	605664	000000		PNTEXT:	PAREA4		;SIXBIT PROGRAM EXTENSION
   729	030022	000000	123457		RANDBS:	PAREA1		;RANDOM BASE NUMBER
   730	030023	000000	000000		SWTEXR:	PAREA2		;SYSTEM EXERCISER SWITCHES
   731	030024	777777	777777		ITRCNT:	ITERAT		;PROGRAM ITERATIONS
   732	030025	000000	036715		$PNAME:	PGMNAM		;POINTER TO PROGRAMS NAME
   733	030026	000000	000002		$PVER:	MCNVER,,DECVER	;MCN & DEC VERSION LEVEL
   734	030027	000000	030000		$MODVL:	MODDVL		;DEVICE CODE CHANGE LOWER LIMIT
   735	030030	000000	030000		$MODVU:	MODDVU		;DEVICE CODE CHANGE UPPER LIMIT
   736	030031	777777	777777		$EMODE:	IFNDEF EXCASB,<0> IFDEF EXCASB,<-1>	;EXEC ALLOWED
   737	030032	000000	000000		$UMODE:	IFNDEF USRASB,<0> IFDEF USRASB,<-1>	;USER ALLOWED
   738	030033	000000	000000		$DSKUP:	IFNDEF DSKUPD,<0> IFDEF DSKUPD,<-1>	;DISK UPDATE MODE
   739	030034	777777	777777		$MMAP:	IFNDEF MEMMAP,<0> IFDEF MEMMAP,<-1>	;ALLOW MEMORY RTNS
   740	030035	000000	000000		PAREA7:	PAREA5		;OPTIONAL PARAMETER
   741	030036	000000	000000		PAREA8:	PAREA6		;OPTIONAL PARAMETER
   742
   743					S^;*********************************************************************^
   744					;*PROGRAM VARIABLE PARAMETER AREA
   745					S^;*********************************************************************^
   746
   747	030037	000000	000000		USER:	0		; 0 = EXEC, -1 = USER MODE FLAG
   748	030040	000000	000000		KAIFLG:	0		;PROCESSOR TYPE, 0 = KA10, -1 = KI10
   749	030041	000000	000000		KLFLG:	0		;PROCESSOR TYPE, 0 = KA/KI, -1 = KL10
   750	030042	777777	777777		MONFLG:	-1		;DIAG MONITOR SPECIAL USER FLAG
   751	030043	000000	000000		MONCTL:	0		;DIAG MON/SYS EXR FLAG
   752	030044	000000	000000		MONTEN:	0		;-1= LOADED BY 10
   753	030045	000000	000000		CLOCKF:	0		;CLOCK TICKED FLAG
   754	030046	000000	000000		CONSW:	0		;CONSOLE SWITCH SETTINGS
   755	030047	000000	000000		PASCNT:	0		;PROGRAM PASS COUNT
   756	030050	000000	000000		RUNFLG:	0		;PROGRAM RUN FLAG
   757	030051	000000	000000		TESTPC:	0		;SUBTEST PC
   758	030052	000000	000000		ERRPC:	0		;ERROR PC
   759	030053	000000	000000		ERRTLS:	0		;ERROR TOTALS
   760	030054	000000	000000		TICKS:	0		;PROGRAM RUNNING TIME
   761	030055	000000	000000		MARGIN:	0		;KI10 MARGIN WORD VALUE
   762	030056	000000	000000		$ONETM:	0		;SUBROUTINE INITIALIZATION FLAG
DECSYSTEM 2020 DZ11 ASYNC. LINE MUX DIAGNOSTIC VERSION  0,2	MACRO %53(1020) 13:21 22-May-79 Page 3
FIXED	KSM	28-Mar-78 11:28		*FIXED* FIXED CONTROL AND DISPATCH STORAGE, MARCH 1978                             SEQ 0041

   763					S^;*********************************************************************^
   764					;*SPECIAL PROGRAM DISPATCH ADDRESSES
   765					S^;*********************************************************************^
   766
   767	030057	037 12 0 00 000004 	BEGEND:	ENDUUO		;END OF PASS
   768	030060	254 00 0 00 030010 	$BEND1:	JRST	BEGIN1	;KEEP RUNNING PROGRAM
   769	030061	037 16 0 00 000004 	$BEND2:	EOPUUO		;END OF PROGRAM - NO RETURN
   770	030062	000000	030061		CNTLC:	SADR5		;CONTROL C XFER ADDRESS
   771	030063	254200	030000		ALTMGO:	SADR6		;ALTMODE XFER ADDRESS
   772	030064				CPOPJ1:			;SKIP RETURN
   773	030064	350 00 0 17 000000 	UUOSKP:	AOS	(P)	;SKIP RETURN FROM UUO
   774	030065				CPOPJ:			;NON-SKIP REGULAR RETURN
   775	030065	263 17 0 00 000000 	UUOEXT:	RTN		;UUO RETURN
   776	030066	255 00 0 00 000000 	UUORTN:	JFCL		;ADDITIONAL USERS UUO ROUTINE
   777	030067	255 00 0 00 000000 	$UORTX:	JFCL		;ADDITIONAL UUO LINKAGE
   778	030070	255 00 0 00 000000 	$UUOER:	JFCL		;INITED AS (JRST $UOERX)
   779	030071	255 00 0 00 000000 	$ITRHL:	JFCL		;ADDITIONAL INTERRUPT LINKAGE
   780	030072	255 00 0 00 000000 	$ITRX1:	JFCL		; "
   781	030073	255 00 0 00 000000 	$USRHL:	JFCL		; "
   782	030074	255 00 0 00 000000 	$RSRTX:	JFCL		;ADDITIONAL POWER FAIL LINKAGE
   783	030075	255 00 0 00 000000 	$RSRTY:	JFCL		; "
   784	030076	255 00 0 00 000000 	RESRT1:	JFCL		; INITED AS (JRST RESRTX)
   785	030077	255 00 0 00 000000 	RESRT2:	JFCL		; "
   786	030100	255 00 0 00 000000 	$PARER:	JFCL		;ADDITIONAL PARITY ERROR LINKAGE
   787	030101	255 00 0 00 000000 	ERMORE:	JFCL		;ADDITIONAL ERROR HANDLER LINKAGE
   788	030102	254 04 0 00 030102 		HALT	.	;IMPROPER TRANSFER HALT
   789
   790	030103	000000	000000		$PSHER:	0		;INITED AS (JRST PSHERR)
   791	030104	000000	000000		ITRCH1:	0		;PC & FLAGS OF CURRENT INTERRUPT
   792	030105	000000	000000			0		;INITED AS (JRST $ITRC1)
   793
   794					S^;*********************************************************************^
   795					;*PROCESSOR CONTROL STORAGE
   796					S^;*********************************************************************^
   797
   798	030106	000000	000000		$ACC0:	0		;INTERRUPT SAVED AC0
   799	030107	000000	000000		$SVPI:	0		;INTERRUPT SAVED PI
   800	030110	000000	000000		$SVAPR:	0		;INTERRUPT SAVED APR
   801	030111	000000	000000		$SVPAG:	0		;INTERRUPT SAVED PAG (DATAI)
   802	030112	000000	000000		$SPAG1:	0		;INTERRUPT SAVED PAG (CONI)
   803
   804	030113	000000	000000		$SVUUO:	0		;CURRENT USERS UUO
   805	030114	000000	000000		$SVUPC:	0		;PC OF CURRENT USERS UUO
   806
   807	030115	000000	000000		REPTU:	0		;REPEAT UUO ITERATIONS
   808	030116	000000	000000		SCOPE:	0		;ERROR HANDLER SCOPE LOOP FLAG
   809	030117	000000	000000		%CORFLG:0		; " CORRECT FLAG
   810	030120	000000	000000		%COREC:	0		; " CORRECT DATA
   811	030121	000000	000000		%ACTFL:	0		; " ACTUAL FLAG
   812	030122	000000	000000		%ACTUL:	0		; " ACTUAL DATA
   813	030123	000000	000000		%DISCR:	0		; " DISCREPENCY DATA
DECSYSTEM 2020 DZ11 ASYNC. LINE MUX DIAGNOSTIC VERSION  0,2	MACRO %53(1020) 13:21 22-May-79 Page 4
FIXED	KSM	28-Mar-78 11:28		*FIXED* FIXED CONTROL AND DISPATCH STORAGE, MARCH 1978                             SEQ 0042

   814					S^;*********************************************************************^
   815					;*UUO DISPATCH TABLE
   816					S^;*********************************************************************^
   817						XLIST
   818						LIST
   819	030124	030070	030070		UUODIS:	LUUO1,,$UUOER
   820	030125	030070	030070			LUUO3,,LUUO2
   821	030126	030070	030070			LUUO5,,LUUO4
   822	030127	030070	030070			LUUO7,,LUUO6
   823	030130	030070	030070			LUUO11,,LUUO10
   824	030131	030070	030070			LUUO13,,LUUO12
   825	030132	030070	030070			LUUO15,,LUUO14
   826	030133	030070	030070			LUUO17,,LUUO16
   827	030134	030070	030070			LUUO21,,LUUO20
   828	030135	030070	030070			LUUO23,,LUUO22
   829	030136	030070	030070			LUUO25,,LUUO24
   830	030137	030070	030070			LUUO27,,LUUO26
   831	030140	030070	030070			LUUO31,,LUUO30
   832	030141	030070	030070			LUUO33,,LUUO32
   833
   834					S^;*********************************************************************^
   835					;*MEMORY MANAGMENT STORAGE
   836					S^;*********************************************************************^
   837
   838	030142	000000	000000		DF22F:	0		;DF10 CONTROL FLAG, 0 = 18, -1 = 22 BIT
   839	030143	000000	000000		MAPNEW:	0		;MEMORY MAPPING CONTROL FLAG, -1 = 4096K MAPPING
   840	030144	000000	000000		MEMTOT:	0		;TOTAL MEMORY SIZE IN K (1024.)
   841	030145	000000	000000		MEMLOW:	0		;LOWEST USABLE MEMORY
   842	030146				MEMSIZ:	BLOCK ^D41	;MEMORY SEGMENT POINTER TABLE
   843
   844					S^;*********************************************************************^
   845					;*PRINT CONTROL STORAGE
   846					S^;*********************************************************************^
   847
   848	030217	000000	000000		PNTFLG:	0		;PRINT FLAG, -1 WHILE IN PRINT ROUTINE
   849	030220	000000	000000		PNTENB:	0		;PRINT ENABLE
   850	030221	000000	000000		PDISF:	0		;PRINT DISABLED FLAG
   851	030222	000000	000000		PNTINH:	0		;INHIBIT PRINT INPUT CHECKS
   852	030223	000000	000000		PNTSPC:	0		;PRINT SPACE CONTROL
   853	030224	000000	000000		OPTIME:	0		;TYPE-IN WAIT TIME
   854	030225	000000	000000		$TWCNT:	0		;TIME WAITED
   855	030226	000000	000000		$DVOFF:	0		;LOGICAL DEVICE INITED FLAG
   856	030227	000000	000000		TTYFIL:	0		;TTY EXEC FILLERS FLAG
   857	030230	000000	000000		TTYSPD:	0		;TTY EXEC BAUD RATE
   858	030231	000000	000000		$TTCHR:	0		;ACTUAL TYPED IN CHAR
   859	030232	000000	000000		$CHRIN:	0		;UPPER CASED & PARITY STRIPPED CHAR
   860	030233	000000	000000		$TYPNB:	0		;TYPED IN NUMBER
   861	030234	000000	000000		$CRLF:	0		;FREE CR/LF FLAG
   862	030235	000000	000000		$TABF:	0		;TAB CONVERSION FLAG
   863	030236	000000	000000		$FFF:	0		;FORM FEED CONVERSION FLAG
   864	030237	000000	000000		$VTF:	0		;VERTICAL TAB CONVERSION FLAG
   865	030240	000000	000000		USRLFF:	0		;USER LF FILLERS
   866	030241	000000	000000		USRCRF:	0		;USER CR FILLERS
DECSYSTEM 2020 DZ11 ASYNC. LINE MUX DIAGNOSTIC VERSION  0,2	MACRO %53(1020) 13:21 22-May-79 Page 5
FIXED	KSM	28-Mar-78 11:28		*FIXED* FIXED CONTROL AND DISPATCH STORAGE, MARCH 1978                             SEQ 0043

   867					S^;*********************************************************************^
   868					;*THE FOLLOWING MISCELLANEOUS PRINT CHARACTERS ARE INCLUDED
   869					;*TO FACILITATE PRINTING AND ARE CALLED AS FOLLOWS:
   870					;*	MOVEI	NAME
   871					;*	PNTA		;OR PNTAF
   872					S^;*********************************************************************^
   873
   874	030242				CRLF:	ASCII/
   875	030242	015 012 000 000 000 	/
   876	030243				CRLF2:	ASCII/
   877
   878	030243	015 012 015 012 000 	/
   879	030244	054 000 000 000 000 	COMMA:	ASCII/,/
   880	030245	056 000 000 000 000 	PERIOD:	ASCII/./
   881	030246	040 000 000 000 000 	SPACE:	ASCII/ /
   882	030247	011 000 000 000 000 	TAB:	ASCII/	/
   883	030250				MINUS:
   884	030250	055 000 000 000 000 	HYPEN:	ASCII/-/
   885	030251	053 000 000 000 000 	PLUS:	ASCII/+/
   886	030252	052 000 000 000 000 	AST:	ASCII/*/
   887	030253	100 000 000 000 000 	ATSIN:	ASCII/@/
   888	030254	050 000 000 000 000 	LFP:	ASCII/(/
   889	030255	051 000 000 000 000 	RTP:	ASCII/)/
   890	030256	007 0000000000 		BELL:	BYTE (7) 007
   891	030257	077 000 000 000 000 	QUEST:	ASCII/?/
   892	030260	057 000 000 000 000 	SLASH:	ASCII!/!
   893	030261	044 000 000 000 000 	DOLLAR:	ASCII/$/
   894	030262	000000	000012		RADIX:	^D10			;DECIMAL PRINT RADIX
   895	030263	000000	000040		RADLSP:	40			;DECIMAL PRINT LEADING CHAR
   896	030264	000000	000012		RADLSC:	^D10			;DECIMAL PRINT LEADING CHAR COUNT
   897
   898					S^;*********************************************************************^
   899					;*USER MODE OUTPUT FILE INFORMATION
   900					S^;*********************************************************************^
   901
   902	030265				$OBUF:	BLOCK	3		;LOGICAL FILE OUTPUT BUFFER HEADER
   903	030270	60 62 51 56 64 00 	$OUTNM:	SIXBIT	/PRINT/		;FILE NAME
   904	030271	60 56 64 00 00 00 	$OUTEX:	SIXBIT	/PNT/		;FILE NAME EXTENSION
   905	030272					BLOCK	2
   906
   907					S^;*********************************************************************^
   908					;*DISK UPDATE MODE FILE INFORMATION
   909					S^;*********************************************************************^
   910
   911	030274				$IBUF:	BLOCK	3
   912	030277	60 62 51 56 64 00 	$INNM:	SIXBIT	/PRINT/
   913	030300	60 56 64 00 00 00 	$INEXT:	SIXBIT	/PNT/
   914	030301					BLOCK	2
DECSYSTEM 2020 DZ11 ASYNC. LINE MUX DIAGNOSTIC VERSION  0,2	MACRO %53(1020) 13:21 22-May-79 Page 6
FIXED	KSM	28-Mar-78 11:28		*FIXED* FIXED CONTROL AND DISPATCH STORAGE, MARCH 1978                             SEQ 0044

   915					S^;*********************************************************************^
   916					;*PUSHDOWN LIST CONTROL INFORMATION
   917					S^;*********************************************************************^
   918
   919	030303	777577	030303		PLIST:	PLIST-PLISTE,,PLIST
   920	030304				PLISTS:	BLOCK	200
   921	030504	000000	000000		PLISTE:	0		;END OF PUSHDOWN LIST
   922
   923					S^;*********************************************************************^
   924					;*POWER LINE CLOCK FREQUENCY FLAG
   925					S^;*********************************************************************^
   926
   927	030505	000000	000000		CYCL60:	0	;0 = 60, -1 = 50 CYCLE
   928
   929					S^;*********************************************************************^
   930					;*KL10 CACHE CONTROL FLAGS
   931					S^;*********************************************************************^
   932
   933	030506	000000	000000		CSHFLG:	0	;ALLOW CACHE IF 0
   934	030507	000000	000000		CSHMEM:	0	;CACHE MEMORY SEGMENTS IF 0
   935
   936					S^;*********************************************************************^
   937					;*NUMBER INPUT DIGIT FLAG
   938					S^;*********************************************************************^
   939
   940	030510	000000	000000		TTNBRF:	0	;-1 IF ANY DIGIT TYPED
   941
   942					S^;*********************************************************************^
   943					;*KL10 & KI10 "INHPAG" SWITCH PAGING PREVENTION
   944					S^;*********************************************************************^
   945
   946	030511	000000	000000		PVPAGI:	0	;IF NON-ZERO, OVERRIDE "INHPAG" SWITCH ACTION
   947
   948					S^;*********************************************************************^
   949					;*ERROR REPORTING ROUTINE ADDITIONAL USERS CONTROL INSTRUCTIONS
   950					S^;*********************************************************************^
   951
   952	030512	000000	000000		%ERHI1:	0	;IF NON-ZERO, XCT'D AT START OF %ERUUO
   953	030513	000000	000000		%ERHI2:	0	;IF NON-ZERO, XCT'D AT END OF %ERUUO
   954	030514	000000	000000		%ERHI3:	0	;IF NON-ZERO, XCT'D AFTER "PC" OF %ERUUO
   955
   956					S^;*********************************************************************^
   957					;*SPECIAL USERS UUO INTERCEPT INSTRUCTION
   958					S^;*********************************************************************^
   959
   960	030515	000000	000000		$$UUO:	0	;IF NON-ZERO, XCT'D AT START OF $UORTN
DECSYSTEM 2020 DZ11 ASYNC. LINE MUX DIAGNOSTIC VERSION  0,2	MACRO %53(1020) 13:21 22-May-79 Page 7
FIXED	KSM	28-Mar-78 11:28		*FIXED* FIXED CONTROL AND DISPATCH STORAGE, MARCH 1978                             SEQ 0045

   961					S^;*********************************************************************^
   962					;*USER MODE MONITOR TYPE FLAG
   963					S^;*********************************************************************^
   964
   965	030516	000000	000000		MONTYP:	0	;0 = TOPS10, -1 = TOPS20
   966
   967					S^;*********************************************************************^
   968					;*SPECIAL USERS MUUO INTERCEPT INSTRUCTION
   969					S^;*********************************************************************^
   970
   971	030517	000000	000000		$$MUUO:	0	;IF NON-ZERO, XCT'D AT START OF MUUOER
   972
   973					S^;*********************************************************************^
   974					;*SPECIAL USERS USER MODE OUTPUT ERROR INTERCEPT INSTUCTION
   975					S^;*********************************************************************^
   976
   977	030520	000000	000000		$$OUTER:0	;IF NON-ZERO, XCT'D AT END OF USER MODE ERROR
   978
   979					S^;*********************************************************************^
   980					;*"SWITCH" CALL USAGE CONTROL
   981					S^;*********************************************************************^
   982
   983	030521	000000	000000		$$TOGGLE:0	;IF NON-ZERO, USE C(CONSW) FOR SWITCHES
   984
   985					S^;*********************************************************************^
   986					;*SPECIAL USERS ALTMODE SWITCH CALL INTERCEPT INSTRUCTIONS
   987					S^;*********************************************************************^
   988
   989	030522	000000	000000		$$TAX1:	0	;IF NON-ZERO, XCT'D AT START OF ALTMODE SWITCH CALL
   990	030523	000000	000000		$$TAX2:	0	;IF NON-ZERO, XCT'D AT END OF ALTMODE SWITCH CALL
   991
   992					S^;*********************************************************************^
   993					;*SM10 (KS-10) PROCESSOR TYPE FLAG
   994					S^;*********************************************************************^
   995
   996	030524	000000	000000		SM10:	0	;IF -1 THIS IS AN KS-10
   997
   998					S^;*********************************************************************^
   999					;*RIGHT HALF SWITCHES PROMPT TABLE ADDRESS
  1000					S^;*********************************************************************^
  1001
  1002	030525	000000	000000		SWPTAB:	0	;0 = NO PROMPT, ADR = ADR OF SIXBIT PROMPT TABLE
  1003
  1004					S^;*********************************************************************^
  1005					;*SPECIAL FUTURE EXPANSION ROOM
  1006					S^;*********************************************************************^
  1007
  1008					S^;*********************************************************************^
  1009					;*END OF FIXED STORAGE
  1010					S^;*********************************************************************^
  1011
  1012	030577					LOC	30577
  1013	030577	000000	000000		ENDFIX:	0		;END OF FIXED STORAGE
DECSYSTEM 2020 DZ11 ASYNC. LINE MUX DIAGNOSTIC VERSION  0,2	MACRO %53(1020) 13:21 22-May-79 Page 1
DSDZAM	MAC	22-May-79 13:21		PROGRAM INITIALIZATION                                                             SEQ 0046

  1014						SUBTTL	PROGRAM INITIALIZATION
  1015
  1016	030600	336 00 0 00 030056 	START:	SKIPN	$ONETM
  1017	030601	402 00 0 00 035241 		SETZM	INIFLG
  1018	030602	402 00 0 00 035674 		SETZM	$TSTNM		;INIT TEST NUMBER
  1019	030603	201 00 0 00 000001 		MOVEI	0,1		;GET INDEX TO TEST NUMBER TABLE
  1020	030604	202 00 0 00 034375 		MOVEM	0,TSTBL		;INIT THE TABLE TO TEST #1
  1021	030605	201 00 0 00 034476 		MOVEI	0,HELP		;GET PROMPT TABLE ADDRESS
  1022	030606	202 00 0 00 030525 		MOVEM	0,SWPTAB	;STORE IT FOR SMSUB
  1023	030607	402 00 0 00 030047 		SETZM	PASCNT		;CLEAR PASS COUNT
  1024	030610	402 00 0 00 035244 		SETZM	SLINE		;CLEAR SINGLE LINE FLAG FOR ECHO TEST
  1025	030611	402 00 0 00 030053 		SETZM	ERRTLS		;CLEAR ERROR TOTALS
  1026	030612	476 00 0 00 030143 		SETOM	MAPNEW		;INIT NEW TYPE MAPPER
  1027	030613	265 00 0 00 030011 		PGMINT			;INIT P REG, MEMSIZE, TRAPS, I/O, SWITCHES
  1028	030614	700 04 0 00 200000 		WRAPR	LIOCLR		;I/O RESET (INIT UNIBUS)
  1029	030615	700 04 0 00 200000 		WRAPR	LIOCLR		;DITTO
  1030	030616	201 00 0 00 035675 		MOVEI	0,VECTBL	;GET POINTER TO VECTOR TABLE
  1031	030617	202 00 0 00 000101 		MOVEM	0,101		;STORE FOR MICROCODE
  1032	030620	202 00 0 00 000103 		MOVEM	0,103		;AGAIN FOR 2'ND UNIBUS ADAPTER
  1033	030621	201 00 0 00 760010 		MOVEI	760010		;GET DEFAULT BASE ADDRESS
  1034	030622	661 00 0 00 000003 		TLO	3		;ADD DEFAULT BASE ADDRESS
  1035	030623	202 00 0 00 035270 		MOVEM	BASE		;STORE IT
  1036	030624	201 00 0 00 000340 		MOVEI	340		;GET DEFAULT VECTOR ADDRESS
  1037	030625	202 00 0 00 035271 		MOVEM	AROW		;STOR IT
  1038	030626	037 10 0 00 000002 		SWITCH			;GET SWITCHES
  1039	030627	603 00 0 00 000040 		TLNE	MODDVC		;INPUT PARAMETERS FROM CONSOLE ?
  1040	030630	260 17 0 00 034106 		GO	QUES		;YES!
  1041	030631	336 00 0 00 035241 		SKIPN	INIFLG		;PARAMETERS SET?
  1042	030632	260 17 0 00 033736 		GO	AUTSIZ		;GO AUTOSIZE (FIND AVAILABLE DEVICES)
  1043	030633	260 17 0 00 033673 		GO	HEADER		;PRINT THE DZ11 SYSTEM MAP
  1044	030634	200 11 0 00 036731 		MOVE	RUN,[-^D32,,0]	;INIT POINTER FOR CYCLE
  1045	030635	037 10 0 00 000002 		SWITCH			;GET SWITCHES
  1046	030636	602 00 0 00 000100 		TRNE	RESEL		;CHANGE ACTIVE DEVICE LIST?
  1047	030637	260 17 0 00 033651 		GO	RSLCT		;GO CHANGE IT
  1048	030640	037 10 0 00 000002 		SWITCH			;GET SWITCHES
  1049	030641	602 00 0 00 000002 		TRNE	RSTRT		;START AT OPERATOR SELECTED TEST?
  1050	030642	260 17 0 00 034361 		GO	TSTSEL		;YES!  FIND OUT WHICH ONE
DECSYSTEM 2020 DZ11 ASYNC. LINE MUX DIAGNOSTIC VERSION  0,2	MACRO %53(1020) 13:21 22-May-79 Page 2
DSDZAM	MAC	22-May-79 13:21		PROGRAM INITIALIZATION                                                             SEQ 0047

  1051						OR32	(OR1,IND)^
  1052	030643	402 00 0 00 000010 		SETZM	ACTFLG		;INIT ACTIVE DEVICE FLAG
  1053	030644	200 07 0 00 036731 		MOVE	IND,[-^D32,,0]	;GET POINTER
  1054	030645	434 10 0 07 035172 	OR1:	IOR	ACTFLG,DZACTV(IND);OR THIS DZ11'S FLAG
  1055	030646	253 07 0 00 030645 		AOBJN	IND,OR1		;UPDATE POINTER TO NEXT DZ11
  1056	030647	336 00 0 00 000010 		SKIPN	ACTFLG		;SKIP IF ANY DZ11'S TO BE TESTED
  1057	030650	254 00 0 00 034447 		JRST	MERR2		;NO! TYPE ERROR MESSAGE
  1058	030651	200 00 0 00 035232 		MOVE	0,DZNUM		;GET THE NUMBER OF DZ11'S IN THE SYSTEM
  1059	030652	202 00 0 00 035233 		MOVEM	0,SAVNUM	;PUT IT IN WORK LOCATION
  1060	030653	260 17 0 00 033616 	STARTA:	GO	CYCLE		;GO SELECT DEVICE TO RUN NEXT
  1061	030654	515 00 0 00 000002 		HRLZI	0,2		;GET MASK
  1062	030655	676 00 0 00 035606 		TDON	0,DZCSR		;IS THIS DZ11 ON UBA #3
  1063	030656	254 00 0 00 030662 		JRST	UBA0		;NO! GO DO SET UP UBA #1
  1064						XFER	(1,UBAPR1,UBAPR,UBAMT)^
  1065	030657	200 01 0 00 036732 		MOVE	1,[UBAPR1,,UBAPR]	;GET POINTER FOR BLT
  1066	030660	251 01 0 00 035302 		BLT	1,UBAMT		;TRANSFER THE BLOCK
  1067	030661	254 00 0 00 030664 		JRST	STST		;GO FIND STARTING TEST NUMBER
  1068	030662				UBA0:	XFER	(1,UBAPR0,UBAPR,UBAMT)^
  1069	030662	200 01 0 00 036733 		MOVE	1,[UBAPR0,,UBAPR]	;GET POINTER FOR BLT
  1070	030663	251 01 0 00 035302 		BLT	1,UBAMT		;TRANSFER THE BLOCK
  1071	030664	201 00 0 00 000100 	STST:	MOVEI	0,UBINIT	;GET UNIBUS CLEAR BIT
  1072	030665	714 00 1 00 035301 		BSIO	0,@UBASR	;CLEAR UNIBUS ADAPTER
  1073	030666	714 00 1 00 035301 		BSIO	0,@UBASR	;	DITTO
  1074	030667	200 07 0 00 034375 		MOVE	IND,TSTBL	;GET INDEX TO TEST TO BE RUN
  1075	030670	254 00 1 07 034375 		JRST	@TSTBL(IND)	;GO START TESTING
  1076
DECSYSTEM 2020 DZ11 ASYNC. LINE MUX DIAGNOSTIC VERSION  0,2	MACRO %53(1020) 13:21 22-May-79 Page 3
DSDZAM	MAC	22-May-79 13:21		DEVICE TESTS                                                                       SEQ 0048

  1077						SUBTTL	DEVICE TESTS
  1078
  1079					S^;*********************************************************************^
  1080					;* TEST1 VERIFIES THAT THE SLAVE SYNC RESPONSE WORKS WHILE
  1081					;* DOING A READ OR WRITE OF THE FOLLOWING REGISTERS.
  1082					;* DZCSR, DZRBUF, DZTCR, AND DZMSR
  1083					S^;*********************************************************************^
  1084
  1085			036734		T=SIXBTZ	<SLAVE SYNC. RESPONSE>^	[SIXBIT\SLAVE SYNC. RESPONSE_\]^
  1086
  1087
  1088
  1089	030671	201 00 0 00 030671 	TEST1:	MOVEI	0,.		;GET THE PC
  1090	030672	202 00 0 00 030051 		MOVEM	TESTPC		;STOR IT
  1091	030673	261 17 0 00 000502 		PUT	LPGFTR		;SAVE THE PAGE FAIL VECTOR
  1092	030674	201 00 0 00 034520 		MOVEI	0,PGTRAP	;GET NEW PAGE FAIL VECTOR
  1093	030675	202 00 0 00 000502 		MOVEM	0,LPGFTR	;STORE IT FOR MICROCODE
  1094	030676	201 00 0 00 030704 		MOVEI	0,TST1A		;GET LOOP ADDRESS
  1095	030677	202 00 0 00 035674 		MOVEM	0,$TSTNM	;STORE FOR LOOPING
  1096	030700	201 01 0 00 440000 		MOVEI	1,TIMOUT!NED	;PUT MASK BITS IN AC 1
  1097	030701	714 01 1 00 035301 		BSIO	1,@UBASR	;MAKE SURE THEY ARE OFF IN THIS TURKEY
  1098	030702	402 00 0 00 000002 		SETZM	2		;CLEAR AC 2
  1099	030703	200 04 0 00 035606 		MOVE	4,DZCSR		;PUT DZ11 ADDRESS IN AC 4 FOR ERROR CALL
  1100	030704	712 00 1 00 035606 	TST1A:	RDIO	0,@DZCSR	;READ DZ11 STATUS REG.  (TRAP IF NED)
  1101	030705	710 01 1 00 035301 		TIOE	1,@UBASR	;SKIP IF OK
  1102						ERROR	(TST1A,0,0,0,READING DZ11 STATUS REG.,NO SLAVE SYNC.,STAT)^
  1103	030706	036 00 0 00 036750
  1104	030707	035 00 0 00 030704 		ERLOOP	TST1A		;IF ERROR, LOOP TO TST1A
  1105	030710	713 02 1 00 035606 	TST1B:	WRIO	2,@DZCSR	;CLEAR DZ11 STATUS REG.  (TRAP IF NED)
  1106	030711	710 01 1 00 035301 		TIOE	1,@UBASR	;SKIP IF OK
  1107						ERROR	(TST1B,0,0,0,WRITING DZ11 STATUS REG.,NO SLAVE SYNC.,STAT)^
  1108	030712	036 00 0 00 036760
  1109	030713	035 00 0 00 030710 		ERLOOP	TST1B		;IF ERROR, LOOP TO TST1B
  1110	030714	271 04 0 00 000002 		ADDI	4,2		;UPDATE REG. ADDRESS
  1111	030715	712 00 1 00 035610 	TST1C:	RDIO	0,@DZRBUF	;READ DZ11 RX BUFFER (TRAP IF NED)
  1112	030716	710 01 1 00 035301 		TIOE	1,@UBASR	;SKIP IF OK
  1113						ERROR	(TST1C,0,0,0,READING RECEIVER BUFFER,NO SLAVE SYNC.,STAT)^
  1114	030717	036 00 0 00 036767
  1115	030720	035 00 0 00 030715 		ERLOOP	TST1C		;IF ERROR, LOOP TO TST1C
  1116	030721	713 02 1 00 035610 	TST1D:	WRIO	2,@DZRBUF	;CLEAR LPR REG.  (TRAP IF NED)
  1117	030722	710 01 1 00 035301 		TIOE	1,@UBASR	;SKIP IF OK
  1118						ERROR	(TST1D,0,0,0,WRITING THE LPR,NO SLAVE SYNC.,STAT)^
  1119	030723	036 00 0 00 036775
  1120	030724	035 00 0 00 030721 		ERLOOP	TST1D		;IF ERROR, LOOP TO TST1D
  1121	030725	271 04 0 00 000002 		ADDI	4,2		;UPDATE REG. ADDRESS FOR ERROR CALL
DECSYSTEM 2020 DZ11 ASYNC. LINE MUX DIAGNOSTIC VERSION  0,2	MACRO %53(1020) 13:21 22-May-79 Page 4
DSDZAM	MAC	22-May-79 13:21		DEVICE TESTS                                                                       SEQ 0049

  1122
  1123	030726	712 00 1 00 035614 	TST1E:	RDIO	0,@DZTCR	;READ THE TCR  (TRAP IF NED)
  1124	030727	710 01 1 00 035301 		TIOE	1,@UBASR	;SKIP IF OK
  1125						ERROR	(TST1D,0,0,0,READING THE TCR,NO SLAVE SYNC.,STAT)^
  1126	030730	036 00 0 00 037003
  1127	030731	035 00 0 00 030721 		ERLOOP	TST1D		;IF ERROR, LOOP TO TST1D
  1128	030732	713 02 1 00 035614 	TST1F:	WRIO	2,@DZTCR	;WRITE THE TCR  (TRAP IF NED)
  1129	030733	710 01 1 00 035301 		TIOE	1,@UBASR	;SKIP IF OK
  1130						ERROR	(TST1F,0,0,0,WRITING THE TCR,NO SLAVE SYNC.,STAT)^
  1131	030734	036 00 0 00 037011
  1132	030735	035 00 0 00 030732 		ERLOOP	TST1F		;IF ERROR, LOOP TO TST1F
  1133	030736	271 04 0 00 000002 		ADDI	4,2		;UPDATE REG. ADDR. FOR ERROR CALL
  1134	030737	712 00 1 00 035616 	TST1G:	RDIO	0,@DZMSR	;READ MODEM STATUS REG.  (TRAP IF NED)
  1135	030740	710 01 1 00 035301 		TIOE	1,@UBASR	;SKIP IF OK
  1136						ERROR	(TST1G,0,0,0,READING THE MSR,NO SLAVE SYNC,STAT)^
  1137	030741	036 00 0 00 037022
  1138	030742	035 00 0 00 030737 		ERLOOP	TST1G		;IF ERROR, LOOP TO TST1G
  1139	030743	713 02 1 00 035620 	TST1H:	WRIO	2,@DZTDR	;WRITE THE TX BUFFER REG.  (TRAP IF NED)
  1140	030744	710 01 1 00 035301 		TIOE	1,@UBASR	;SKIP IF OK
  1141						ERROR	(TST1H,0,0,0,WRITING THE TDR,NO SLAVE SYNC.,STAT)^
  1142	030745	036 00 0 00 037030
  1143	030746	035 00 0 00 030743 		ERLOOP	TST1H		;IF ERROR, LOOP TO TST1H
  1144						LPTST^
  1145	030747	200 00 0 00 030046 		MOVE	0,CONSW		;GET SWITCHES
  1146	030750	602 00 0 00 000004 		TRNE	TSTLP		;LOOP ON TEST ?
  1147	030751	254 00 1 00 035674 		JRST	@$TSTNM		;YES!
  1148	030752	262 17 0 00 000502 		GET	LPGFTR		;RESTORE TRAP VECTOR FOR SUBROUTINE PKG.
DECSYSTEM 2020 DZ11 ASYNC. LINE MUX DIAGNOSTIC VERSION  0,2	MACRO %53(1020) 13:21 22-May-79 Page 5
DSDZAM	MAC	22-May-79 13:21		DEVICE TESTS                                                                       SEQ 0050

  1149					S^;*********************************************************************^
  1150					;* TEST2 VERIFIES THAT THE DEVICE CLEAR BIT FUNCTIONS PROPERLY
  1151					;*THIS TEST WILL NOT RUN UNLESS SWITCH 1 (INCLD2) IS SET IN RH
  1152					S^;*********************************************************************^
  1153
  1154			037033		T=SIXBTZ	<DEVICE CLEAR TEST>^	[SIXBIT\DEVICE CLEAR TEST_\]^
  1155
  1156
  1157	030753	201 00 0 00 030753 	TEST2:	MOVEI	0,.		;GET THE PC
  1158	030754	202 00 0 00 030051 		MOVEM	TESTPC		;STOR IT
  1159	030755	200 04 0 00 035606 		MOVE	4,DZCSR		;GET DZ11 REG. ADDRESS
  1160	030756	201 00 0 00 030763 		MOVEI	0,TST2A		;GET LOOP ADDRESS
  1161	030757	202 00 0 00 035674 		MOVEM	0,$TSTNM	;STORE IT FOR LOOP ON TEST SWITCH
  1162	030760	037 10 0 00 000002 		SWITCH
  1163	030761	606 00 0 00 000001 		TRNN	0,INCLD2	;SEE IF SWITCH IS SET
  1164	030762	254 00 0 00 031012 		JRST	TST2B		;NOT SET ! EXIT THIS TEST
  1165	030763	201 05 0 00 000020 	TST2A:	MOVEI	5,DCLR		;GET BIT
  1166	030764	261 17 0 00 000001 		PUT	1		;SAVE AC
  1167	030765	261 17 0 00 000002 		PUT	2		;  "  "
  1168	030766	261 17 0 00 000003 		PUT	3		;  "  "
  1169	030767	200 01 0 00 037036 		MOVE	1,[WRIO 5,(4)]	;EXECUTE THIS CODE IN FAST MEM. (AC'S)
  1170	030770	200 02 0 00 037037 		MOVE	2,[RDIO 6,(4)]	;BECAUSE DCLR ONE SHOT IS 15 USEC. (20%)
  1171	030771	200 03 0 00 037040 		MOVE	3,[RTN]
  1172	030772	260 17 0 00 000001 		GO	1		;GO DO IT
  1173	030773	262 17 0 00 000003 		GET	3		;RESTORE AC
  1174	030774	262 17 0 00 000002 		GET	2		;   "    "
  1175	030775	262 17 0 00 000001 		GET	1		;   "    "
  1176	030776	712 03 1 00 035301 		RDIO	3,@UBASR	;GET UNIBUS ADAPTER STATUS
  1177	030777	606 06 0 00 000020 		TRNN	6,DCLR		;DID IT SET?
  1178						ERROR	(TST2A,6,5,6,SETTING DCLR,ONE SHOT TOO FAST (E78),STAT)^
  1179	031000	036 06 0 00 037050
  1180	031001	035 00 0 00 030763 		ERLOOP	TST2A		;IF ERROR, LOOP TO TST2A
  1181	031002	201 01 0 00 000003 		MOVEI	1,3		;PUT DELAY IN AC 1
  1182	031003	711 05 1 00 035606 		TION	5,@DZCSR	;HAS BIT CLEARED YET?
  1183	031004	254 00 0 00 031012 		JRST	TST2B		;TEST COMPLETE
  1184	031005	367 01 0 00 031003 		SOJG	1,.-2		;GO BACK TEST BIT AGAIN IF TIME LEFT
  1185	031006	712 06 1 00 035606 		RDIO	6,@DZCSR	;GET DZ11 STATUS
  1186	031007	712 03 1 00 035301 		RDIO	3,@UBASR	;GET UNIBUS ADAPTER STATUS
  1187						ERROR	(TST2A,6,5,6,WAITING FOR BIT TO CLEAR,STUCK ON 1,STAT)^
  1188	031010	036 06 0 00 037062
  1189	031011	035 00 0 00 030763 		ERLOOP	TST2A		;IF ERROR, LOOP TO TST2A
  1190	031012				TST2B:	LPTST^
  1191	031012	200 00 0 00 030046 		MOVE	0,CONSW		;GET SWITCHES
  1192	031013	602 00 0 00 000004 		TRNE	TSTLP		;LOOP ON TEST ?
  1193	031014	254 00 1 00 035674 		JRST	@$TSTNM		;YES!
  1194
DECSYSTEM 2020 DZ11 ASYNC. LINE MUX DIAGNOSTIC VERSION  0,2	MACRO %53(1020) 13:21 22-May-79 Page 6
DSDZAM	MAC	22-May-79 13:21		DEVICE TESTS                                                                       SEQ 0051

  1195			037065		T=SIXBTZ	<DZCSR BIT TEST>^	[SIXBIT\DZCSR BIT TEST_\]^
  1196					LALL
  1197					BITEST	(3,MAINT,DZCSR,UBASR)^
  1198					S^;*********************************************************************^
  1199					;* TEST3 VERIFIES THAT MAINT CAN BE SET, CAN BE WRITTEN TO 0, AND
  1200					;* CAN BE CLEARED BY DEVICE CLEAR.
  1201					S^;*********************************************************************^
  1202
  1203	031015	200 04 0 00 035606 	TEST3:	MOVE	4,DZCSR		;GET REG. ADDR. FOR ERROR CALL
  1204	031016	201 00 0 00 031021 		MOVEI	0,TST3A		;GET RETURN ADDRESS
  1205	031017	202 00 0 00 030051 		MOVEM	TESTPC		;STOR IT
  1206	031020	202 00 0 00 035674 		MOVEM	0,$TSTNM	;STORE IT FOR TEST LOOPING
  1207	031021	201 05 0 00 000010 	TST3A:	MOVEI	5,MAINT		;GET MAINT
  1208	031022	714 05 1 00 035606 		BSIO	5,@DZCSR	;SET IT IN DZ11 REG.
  1209	031023	712 06 1 00 035606 		RDIO	6,@DZCSR	;GET ACTUAL DATA
  1210	031024	712 03 1 00 035301 		RDIO	3,@UBASR	;GET UNIBUS STATUS
  1211	031025	711 05 1 00 035606 		TION	5,@DZCSR	;DID MAINT SET?
  1212						ERROR	(TST3A,6,5,6,SETTING MAINT,BIT STUCK AT 0,STAT)^
  1213												SALL
  1214	031026	036 06 0 00 037076
  1215	031027	035 00 0 00 031021 		ERLOOP	TST3A		;IF ERROR, LOOP TO TST3A
  1216	031030	715 05 1 00 035606 	TST3B:	BCIO	5,@DZCSR	;CLEAR MAINT
  1217	031031	712 06 1 00 035606 		RDIO	6,@DZCSR	;GET ACTUAL DATA
  1218	031032	712 03 1 00 035301 		RDIO	3,@UBASR	;GET UNIBUS ADAPTER STATUS
  1219	031033	710 05 1 00 035606 		TIOE	5,@DZCSR	;DID MAINT CLEAR?
  1220	031034	036 06 0 00 037105
  1221	031035	035 00 0 00 031030 		ERLOOP	TST3B		;IF ERROR, LOOP TO TST3B
  1222	031036	201 00 0 00 000020 	TST3C:	MOVEI	0,DCLR		;GET DEVICE CLEAR BIT
  1223	031037	714 00 1 00 035606 		BSIO	0,@DZCSR	;ISSUE DEVICE CLEAR
  1224	031040	710 00 1 00 035606 		TIOE	0,@DZCSR	;HAS CLEAR PULSE GONE
  1225	031041	254 00 0 00 031040 		JRST	.-1		;NO!  WAIT FOR DEVICE TO CLEAR
  1226	031042	712 06 1 00 035606 		RDIO	6,@DZCSR	;GET ACTUAL DATA
  1227	031043	712 03 1 00 035301 		RDIO	3,@UBASR	;GET UNIBUS ADAPTER STATUS
  1228	031044	710 05 1 00 035606 		TIOE	5,@DZCSR	;DID MAINT CLEAR?
  1229	031045	036 06 0 00 037114
  1230	031046	035 00 0 00 031036 		ERLOOP	TST3C		;IF ERROR, LOOP TO TST3C
  1231	031047	200 00 0 00 030046 		MOVE	0,CONSW		;GET SWITCHES
  1232	031050	602 00 0 00 000004 		TRNE	TSTLP		;LOOP ON TEST ?
  1233	031051	254 00 1 00 035674 		JRST	@$TSTNM		;YES!
DECSYSTEM 2020 DZ11 ASYNC. LINE MUX DIAGNOSTIC VERSION  0,2	MACRO %53(1020) 13:21 22-May-79 Page 7
DSDZAM	MAC	22-May-79 13:21		DEVICE TESTS                                                                       SEQ 0052

  1234					LALL
  1235					BITEST	(4,MSENAB,DZCSR,UBASR)^
  1236					S^;*********************************************************************^
  1237					;* TEST4 VERIFIES THAT MSENAB CAN BE SET, CAN BE WRITTEN TO 0, AND
  1238					;* CAN BE CLEARED BY DEVICE CLEAR.
  1239					S^;*********************************************************************^
  1240
  1241	031052	200 04 0 00 035606 	TEST4:	MOVE	4,DZCSR		;GET REG. ADDR. FOR ERROR CALL
  1242	031053	201 00 0 00 031056 		MOVEI	0,TST4A		;GET RETURN ADDRESS
  1243	031054	202 00 0 00 030051 		MOVEM	TESTPC		;STOR IT
  1244	031055	202 00 0 00 035674 		MOVEM	0,$TSTNM	;STORE IT FOR TEST LOOPING
  1245	031056	201 05 0 00 000040 	TST4A:	MOVEI	5,MSENAB		;GET MSENAB
  1246	031057	714 05 1 00 035606 		BSIO	5,@DZCSR	;SET IT IN DZ11 REG.
  1247	031060	712 06 1 00 035606 		RDIO	6,@DZCSR	;GET ACTUAL DATA
  1248	031061	712 03 1 00 035301 		RDIO	3,@UBASR	;GET UNIBUS STATUS
  1249	031062	711 05 1 00 035606 		TION	5,@DZCSR	;DID MSENAB SET?
  1250						ERROR	(TST4A,6,5,6,SETTING MSENAB,BIT STUCK AT 0,STAT)^
  1251												SALL
  1252	031063	036 06 0 00 037122
  1253	031064	035 00 0 00 031056 		ERLOOP	TST4A		;IF ERROR, LOOP TO TST4A
  1254	031065	715 05 1 00 035606 	TST4B:	BCIO	5,@DZCSR	;CLEAR MSENAB
  1255	031066	712 06 1 00 035606 		RDIO	6,@DZCSR	;GET ACTUAL DATA
  1256	031067	712 03 1 00 035301 		RDIO	3,@UBASR	;GET UNIBUS ADAPTER STATUS
  1257	031070	710 05 1 00 035606 		TIOE	5,@DZCSR	;DID MSENAB CLEAR?
  1258	031071	036 06 0 00 037131
  1259	031072	035 00 0 00 031065 		ERLOOP	TST4B		;IF ERROR, LOOP TO TST4B
  1260	031073	201 00 0 00 000020 	TST4C:	MOVEI	0,DCLR		;GET DEVICE CLEAR BIT
  1261	031074	714 00 1 00 035606 		BSIO	0,@DZCSR	;ISSUE DEVICE CLEAR
  1262	031075	710 00 1 00 035606 		TIOE	0,@DZCSR	;HAS CLEAR PULSE GONE
  1263	031076	254 00 0 00 031075 		JRST	.-1		;NO!  WAIT FOR DEVICE TO CLEAR
  1264	031077	712 06 1 00 035606 		RDIO	6,@DZCSR	;GET ACTUAL DATA
  1265	031100	712 03 1 00 035301 		RDIO	3,@UBASR	;GET UNIBUS ADAPTER STATUS
  1266	031101	710 05 1 00 035606 		TIOE	5,@DZCSR	;DID MSENAB CLEAR?
  1267	031102	036 06 0 00 037140
  1268	031103	035 00 0 00 031073 		ERLOOP	TST4C		;IF ERROR, LOOP TO TST4C
  1269	031104	200 00 0 00 030046 		MOVE	0,CONSW		;GET SWITCHES
  1270	031105	602 00 0 00 000004 		TRNE	TSTLP		;LOOP ON TEST ?
  1271	031106	254 00 1 00 035674 		JRST	@$TSTNM		;YES!
DECSYSTEM 2020 DZ11 ASYNC. LINE MUX DIAGNOSTIC VERSION  0,2	MACRO %53(1020) 13:21 22-May-79 Page 8
DSDZAM	MAC	22-May-79 13:21		DEVICE TESTS                                                                       SEQ 0053

  1272					LALL
  1273					BITEST	(5,SILOEN,DZCSR,UBASR)^
  1274					S^;*********************************************************************^
  1275					;* TEST5 VERIFIES THAT SILOEN CAN BE SET, CAN BE WRITTEN TO 0, AND
  1276					;* CAN BE CLEARED BY DEVICE CLEAR.
  1277					S^;*********************************************************************^
  1278
  1279	031107	200 04 0 00 035606 	TEST5:	MOVE	4,DZCSR		;GET REG. ADDR. FOR ERROR CALL
  1280	031110	201 00 0 00 031113 		MOVEI	0,TST5A		;GET RETURN ADDRESS
  1281	031111	202 00 0 00 030051 		MOVEM	TESTPC		;STOR IT
  1282	031112	202 00 0 00 035674 		MOVEM	0,$TSTNM	;STORE IT FOR TEST LOOPING
  1283	031113	201 05 0 00 010000 	TST5A:	MOVEI	5,SILOEN		;GET SILOEN
  1284	031114	714 05 1 00 035606 		BSIO	5,@DZCSR	;SET IT IN DZ11 REG.
  1285	031115	712 06 1 00 035606 		RDIO	6,@DZCSR	;GET ACTUAL DATA
  1286	031116	712 03 1 00 035301 		RDIO	3,@UBASR	;GET UNIBUS STATUS
  1287	031117	711 05 1 00 035606 		TION	5,@DZCSR	;DID SILOEN SET?
  1288						ERROR	(TST5A,6,5,6,SETTING SILOEN,BIT STUCK AT 0,STAT)^
  1289												SALL
  1290	031120	036 06 0 00 037146
  1291	031121	035 00 0 00 031113 		ERLOOP	TST5A		;IF ERROR, LOOP TO TST5A
  1292	031122	715 05 1 00 035606 	TST5B:	BCIO	5,@DZCSR	;CLEAR SILOEN
  1293	031123	712 06 1 00 035606 		RDIO	6,@DZCSR	;GET ACTUAL DATA
  1294	031124	712 03 1 00 035301 		RDIO	3,@UBASR	;GET UNIBUS ADAPTER STATUS
  1295	031125	710 05 1 00 035606 		TIOE	5,@DZCSR	;DID SILOEN CLEAR?
  1296	031126	036 06 0 00 037155
  1297	031127	035 00 0 00 031122 		ERLOOP	TST5B		;IF ERROR, LOOP TO TST5B
  1298	031130	201 00 0 00 000020 	TST5C:	MOVEI	0,DCLR		;GET DEVICE CLEAR BIT
  1299	031131	714 00 1 00 035606 		BSIO	0,@DZCSR	;ISSUE DEVICE CLEAR
  1300	031132	710 00 1 00 035606 		TIOE	0,@DZCSR	;HAS CLEAR PULSE GONE
  1301	031133	254 00 0 00 031132 		JRST	.-1		;NO!  WAIT FOR DEVICE TO CLEAR
  1302	031134	712 06 1 00 035606 		RDIO	6,@DZCSR	;GET ACTUAL DATA
  1303	031135	712 03 1 00 035301 		RDIO	3,@UBASR	;GET UNIBUS ADAPTER STATUS
  1304	031136	710 05 1 00 035606 		TIOE	5,@DZCSR	;DID SILOEN CLEAR?
  1305	031137	036 06 0 00 037164
  1306	031140	035 00 0 00 031130 		ERLOOP	TST5C		;IF ERROR, LOOP TO TST5C
  1307	031141	200 00 0 00 030046 		MOVE	0,CONSW		;GET SWITCHES
  1308	031142	602 00 0 00 000004 		TRNE	TSTLP		;LOOP ON TEST ?
  1309	031143	254 00 1 00 035674 		JRST	@$TSTNM		;YES!
DECSYSTEM 2020 DZ11 ASYNC. LINE MUX DIAGNOSTIC VERSION  0,2	MACRO %53(1020) 13:21 22-May-79 Page 9
DSDZAM	MAC	22-May-79 13:21		DEVICE TESTS                                                                       SEQ 0054

  1310					LALL
  1311					BITEST	(6,RIE,DZCSR,UBASR)^
  1312					S^;*********************************************************************^
  1313					;* TEST6 VERIFIES THAT RIE CAN BE SET, CAN BE WRITTEN TO 0, AND
  1314					;* CAN BE CLEARED BY DEVICE CLEAR.
  1315					S^;*********************************************************************^
  1316
  1317	031144	200 04 0 00 035606 	TEST6:	MOVE	4,DZCSR		;GET REG. ADDR. FOR ERROR CALL
  1318	031145	201 00 0 00 031150 		MOVEI	0,TST6A		;GET RETURN ADDRESS
  1319	031146	202 00 0 00 030051 		MOVEM	TESTPC		;STOR IT
  1320	031147	202 00 0 00 035674 		MOVEM	0,$TSTNM	;STORE IT FOR TEST LOOPING
  1321	031150	201 05 0 00 000100 	TST6A:	MOVEI	5,RIE		;GET RIE
  1322	031151	714 05 1 00 035606 		BSIO	5,@DZCSR	;SET IT IN DZ11 REG.
  1323	031152	712 06 1 00 035606 		RDIO	6,@DZCSR	;GET ACTUAL DATA
  1324	031153	712 03 1 00 035301 		RDIO	3,@UBASR	;GET UNIBUS STATUS
  1325	031154	711 05 1 00 035606 		TION	5,@DZCSR	;DID RIE SET?
  1326						ERROR	(TST6A,6,5,6,SETTING RIE,BIT STUCK AT 0,STAT)^
  1327												SALL
  1328	031155	036 06 0 00 037171
  1329	031156	035 00 0 00 031150 		ERLOOP	TST6A		;IF ERROR, LOOP TO TST6A
  1330	031157	715 05 1 00 035606 	TST6B:	BCIO	5,@DZCSR	;CLEAR RIE
  1331	031160	712 06 1 00 035606 		RDIO	6,@DZCSR	;GET ACTUAL DATA
  1332	031161	712 03 1 00 035301 		RDIO	3,@UBASR	;GET UNIBUS ADAPTER STATUS
  1333	031162	710 05 1 00 035606 		TIOE	5,@DZCSR	;DID RIE CLEAR?
  1334	031163	036 06 0 00 037177
  1335	031164	035 00 0 00 031157 		ERLOOP	TST6B		;IF ERROR, LOOP TO TST6B
  1336	031165	201 00 0 00 000020 	TST6C:	MOVEI	0,DCLR		;GET DEVICE CLEAR BIT
  1337	031166	714 00 1 00 035606 		BSIO	0,@DZCSR	;ISSUE DEVICE CLEAR
  1338	031167	710 00 1 00 035606 		TIOE	0,@DZCSR	;HAS CLEAR PULSE GONE
  1339	031170	254 00 0 00 031167 		JRST	.-1		;NO!  WAIT FOR DEVICE TO CLEAR
  1340	031171	712 06 1 00 035606 		RDIO	6,@DZCSR	;GET ACTUAL DATA
  1341	031172	712 03 1 00 035301 		RDIO	3,@UBASR	;GET UNIBUS ADAPTER STATUS
  1342	031173	710 05 1 00 035606 		TIOE	5,@DZCSR	;DID RIE CLEAR?
  1343	031174	036 06 0 00 037206
  1344	031175	035 00 0 00 031165 		ERLOOP	TST6C		;IF ERROR, LOOP TO TST6C
  1345	031176	200 00 0 00 030046 		MOVE	0,CONSW		;GET SWITCHES
  1346	031177	602 00 0 00 000004 		TRNE	TSTLP		;LOOP ON TEST ?
  1347	031200	254 00 1 00 035674 		JRST	@$TSTNM		;YES!
DECSYSTEM 2020 DZ11 ASYNC. LINE MUX DIAGNOSTIC VERSION  0,2	MACRO %53(1020) 13:21 22-May-79 Page 10
DSDZAM	MAC	22-May-79 13:21		DEVICE TESTS                                                                       SEQ 0055

  1348					LALL
  1349					BITEST	(7,TIE,DZCSR,UBASR)^
  1350					S^;*********************************************************************^
  1351					;* TEST7 VERIFIES THAT TIE CAN BE SET, CAN BE WRITTEN TO 0, AND
  1352					;* CAN BE CLEARED BY DEVICE CLEAR.
  1353					S^;*********************************************************************^
  1354
  1355	031201	200 04 0 00 035606 	TEST7:	MOVE	4,DZCSR		;GET REG. ADDR. FOR ERROR CALL
  1356	031202	201 00 0 00 031205 		MOVEI	0,TST7A		;GET RETURN ADDRESS
  1357	031203	202 00 0 00 030051 		MOVEM	TESTPC		;STOR IT
  1358	031204	202 00 0 00 035674 		MOVEM	0,$TSTNM	;STORE IT FOR TEST LOOPING
  1359	031205	201 05 0 00 040000 	TST7A:	MOVEI	5,TIE		;GET TIE
  1360	031206	714 05 1 00 035606 		BSIO	5,@DZCSR	;SET IT IN DZ11 REG.
  1361	031207	712 06 1 00 035606 		RDIO	6,@DZCSR	;GET ACTUAL DATA
  1362	031210	712 03 1 00 035301 		RDIO	3,@UBASR	;GET UNIBUS STATUS
  1363	031211	711 05 1 00 035606 		TION	5,@DZCSR	;DID TIE SET?
  1364						ERROR	(TST7A,6,5,6,SETTING TIE,BIT STUCK AT 0,STAT)^
  1365												SALL
  1366	031212	036 06 0 00 037213
  1367	031213	035 00 0 00 031205 		ERLOOP	TST7A		;IF ERROR, LOOP TO TST7A
  1368	031214	715 05 1 00 035606 	TST7B:	BCIO	5,@DZCSR	;CLEAR TIE
  1369	031215	712 06 1 00 035606 		RDIO	6,@DZCSR	;GET ACTUAL DATA
  1370	031216	712 03 1 00 035301 		RDIO	3,@UBASR	;GET UNIBUS ADAPTER STATUS
  1371	031217	710 05 1 00 035606 		TIOE	5,@DZCSR	;DID TIE CLEAR?
  1372	031220	036 06 0 00 037221
  1373	031221	035 00 0 00 031214 		ERLOOP	TST7B		;IF ERROR, LOOP TO TST7B
  1374	031222	201 00 0 00 000020 	TST7C:	MOVEI	0,DCLR		;GET DEVICE CLEAR BIT
  1375	031223	714 00 1 00 035606 		BSIO	0,@DZCSR	;ISSUE DEVICE CLEAR
  1376	031224	710 00 1 00 035606 		TIOE	0,@DZCSR	;HAS CLEAR PULSE GONE
  1377	031225	254 00 0 00 031224 		JRST	.-1		;NO!  WAIT FOR DEVICE TO CLEAR
  1378	031226	712 06 1 00 035606 		RDIO	6,@DZCSR	;GET ACTUAL DATA
  1379	031227	712 03 1 00 035301 		RDIO	3,@UBASR	;GET UNIBUS ADAPTER STATUS
  1380	031230	710 05 1 00 035606 		TIOE	5,@DZCSR	;DID TIE CLEAR?
  1381	031231	036 06 0 00 037230
  1382	031232	035 00 0 00 031222 		ERLOOP	TST7C		;IF ERROR, LOOP TO TST7C
  1383	031233	200 00 0 00 030046 		MOVE	0,CONSW		;GET SWITCHES
  1384	031234	602 00 0 00 000004 		TRNE	TSTLP		;LOOP ON TEST ?
  1385	031235	254 00 1 00 035674 		JRST	@$TSTNM		;YES!
DECSYSTEM 2020 DZ11 ASYNC. LINE MUX DIAGNOSTIC VERSION  0,2	MACRO %53(1020) 13:21 22-May-79 Page 11
DSDZAM	MAC	22-May-79 13:21		DEVICE TESTS                                                                       SEQ 0056

  1386			037233		T=SIXBTZ	<DZTCR BIT TEST>^	[SIXBIT\DZTCR BIT TEST_\]^
  1387					LALL
  1388					MLTBIT	(10,TCR,DZTCR,UBASR)^
  1389					S^;*********************************************************************^
  1390					;* TEST10 VERIFIES THAT TCR BITS CAN BE SET, CAN BE WRITTEN TO 0, AND
  1391					;* CAN BE CLEARED BY DEVICE CLEAR.  IT TESTS EACH BIT IN THE LOW BYTE
  1392					;* OF DZTCR
  1393					S^;*********************************************************************^
  1394
  1395	031236	200 04 0 00 035614 	TEST10:	MOVE	4,DZTCR		;GET REG. ADDR. FOR ERROR CALL
  1396	031237	201 00 0 00 031242 		MOVEI	0,TST10A	;GET RETURN ADDRESS
  1397	031240	202 00 0 00 030051 		MOVEM	TESTPC		;STOR IT
  1398	031241	202 00 0 00 035674 		MOVEM	0,$TSTNM	;STORE IT FOR TEST LOOPING
  1399	031242	201 05 0 00 000001 	TST10A:	MOVEI	5,TCR		;GET TCR BIT
  1400	031243	714 05 1 00 035614 		BSIO	5,@DZTCR	;SET IT IN DZ11 REG.
  1401	031244	712 06 1 00 035614 		RDIO	6,@DZTCR	;GET ACTUAL DATA
  1402	031245	712 03 1 00 035301 		RDIO	3,@UBASR	;GET UNIBUS STATUS
  1403	031246	711 05 1 00 035614 		TION	5,@DZTCR	;DID TCR BIT SET?
  1404						ERROR	(TST10A,6,5,6,SETTING TCR,BIT STUCK AT 0,STAT)^
  1405												SALL
  1406	031247	036 06 0 00 037240
  1407	031250	035 00 0 00 031242 		ERLOOP	TST10A		;IF ERROR, LOOP TO TST10A
  1408	031251	715 05 1 00 035614 	TST10B:	BCIO	5,@DZTCR	;CLEAR TCR BIT
  1409	031252	712 06 1 00 035614 		RDIO	6,@DZTCR	;GET ACTUAL DATA
  1410	031253	712 03 1 00 035301 		RDIO	3,@UBASR	;GET UNIBUS ADAPTER STATUS
  1411	031254	710 05 1 00 035614 		TIOE	5,@DZTCR	;DID TCR BIT CLEAR?
  1412	031255	036 06 0 00 037246
  1413	031256	035 00 0 00 031251 		ERLOOP	TST10B		;IF ERROR, LOOP TO TST10B
  1414	031257	714 05 1 00 035614 	TST10C:	BSIO	5,@DZTCR	;SET THE BIT AGAIN
  1415	031260	201 00 0 00 000020 		MOVEI	0,DCLR		;GET DEVICE CLEAR BIT
  1416	031261	714 00 1 00 035606 		BSIO	0,@DZCSR	;ISSUE DEVICE CLEAR
  1417	031262	710 00 1 00 035606 		TIOE	0,@DZCSR	;HAS CLEAR PULSE GONE
  1418	031263	254 00 0 00 031262 		JRST	.-1		;NO!  WAIT FOR DEVICE TO CLEAR
  1419	031264	712 06 1 00 035614 		RDIO	6,@DZTCR	;GET ACTUAL DATA
  1420	031265	712 03 1 00 035301 		RDIO	3,@UBASR	;GET UNIBUS ADAPTER STATUS
  1421	031266	710 05 1 00 035614 		TIOE	5,@DZTCR	;DID TCR BIT CLEAR?
  1422	031267	036 06 0 00 037255
  1423	031270	035 00 0 00 031257 		ERLOOP	TST10C		;IF ERROR, LOOP TO TST10C
  1424	031271	242 05 0 00 000001 		LSH	5,1		;TEST NEXT HIGHER BIT
  1425	031272	305 05 0 00 000400 		CAIGE	5,400		;HAVE WE TESTED THE LOW BYTE
  1426	031273	254 00 0 00 031243 		JRST	TST10A+1	;NO! GO BACK FOR NEXT BIT
  1427	031274	200 00 0 00 030046 		MOVE	0,CONSW		;GET SWITCHES
  1428	031275	602 00 0 00 000004 		TRNE	TSTLP		;LOOP ON TEST ?
  1429	031276	254 00 1 00 035674 		JRST	@$TSTNM		;YES!
DECSYSTEM 2020 DZ11 ASYNC. LINE MUX DIAGNOSTIC VERSION  0,2	MACRO %53(1020) 13:21 22-May-79 Page 12
DSDZAM	MAC	22-May-79 13:21		DEVICE TESTS                                                                       SEQ 0057

  1430					S^;*********************************************************************^
  1431					;* TEST11 VERIFIES THAT DTR BITS CAN BE SET, CAN BE WRITTEN TO 0, AND
  1432					;* CAN BE CLEARED BY UNIBUS RESET INSTRUCTION (UBINIT), BUT WILL NOT GET
  1433					;* CLEARED BY DEVICE CLEAR (DCLR).  IT TESTS EACH BIT IN THE HIGH BYTE
  1434					;* OF DZTCR.
  1435					;* THIS TEST WILL NOT BE EXECUTED IF THE MODULE IS THE 20MA VERSION.
  1436					S^;*********************************************************************^
  1437			037260		T=SIXBTZ <DZDTR BIT TEST>^	[SIXBIT\DZDTR BIT TEST_\]^
  1438
  1439
  1440	031277	201 00 0 00 100000 	TEST11:	MOVEI	0,1B20		;GET EIA FLAG BIT
  1441	031300	676 00 0 00 035163 		TDON	0,DZPRT		;IS THIS AN EIA DEVICE?
  1442	031301	254 00 0 00 031341 		JRST	TEST12		;NO!  SKIP THIS TEST
  1443	031302	200 04 0 00 035614 		MOVE	4,DZTCR		;GET REG. ADDR. FOR ERROR CALL
  1444	031303	201 00 0 00 031277 		MOVEI	0,TEST11	;GET RETURN ADDR.
  1445	031304	202 00 0 00 035674 		MOVEM	0,$TSTNM	;STORE IT FOR TEST LOOPING
  1446	031305	202 00 0 00 030051 		MOVEM	0,TESTPC	;STOR IT
  1447	031306	201 05 0 00 000400 		MOVEI	5,DTR0		;GET THE BIT TO TEST
  1448	031307	714 05 1 00 035614 	TST11A:	BSIO	5,@DZTCR	;SET THE BIT
  1449	031310	712 06 1 00 035614 		RDIO	6,@DZTCR	;GET ACTUAL DATA
  1450	031311	712 03 1 00 035301 		RDIO	3,@UBASR	;GET UNIBUS STATUS
  1451	031312	711 05 1 00 035614 		TION	5,@DZTCR	;DID THE BIT SET?
  1452						ERROR	(TST11A,6,5,6,SETTING DTR BIT,BIT STUCK AT 0,STAT)^
  1453	031313	036 06 0 00 037266
  1454	031314	035 00 0 00 031307 		ERLOOP	TST11A		;IF ERROR, LOOP TO TST11A
  1455	031315	715 05 1 00 035614 	TST11B:	BCIO	5,@DZTCR	;CLEAR THE BIT
  1456	031316	712 06 1 00 035614 		RDIO	6,@DZTCR	;GET THE ACTUAL DATA
  1457	031317	712 03 1 00 035301 		RDIO	3,@UBASR	;GET UNIBUS ADAPTER STATUS
  1458	031320	710 05 1 00 035614 		TIOE	5,@DZTCR	;DID DTR BIT CLEAR ?
  1459						ERROR	(TST11B,6,5,6,BIT CLEAR OF DTR,BIT STUCK ON 1,STAT)^
  1460	031321	036 06 0 00 037277
  1461	031322	035 00 0 00 031315 		ERLOOP	TST11B		;IF ERROR, LOOP TO TST11B
  1462	031323	714 05 1 00 035614 	TST11C:	BSIO	5,@DZTCR	;SET THE BIT AGAIN
  1463	031324	201 00 0 00 000100 		MOVEI	0,UBINIT	;GET UNIBUS RESET BIT
  1464	031325	713 00 1 00 035301 		WRIO	0,@UBASR	;ISSUE UNIBUS RESET
  1465	031326	712 06 1 00 035614 		RDIO	6,@DZTCR	;GET ACTUAL DATA
  1466	031327	712 03 1 00 035301 		RDIO	3,@UBASR	;GET UNIBUS ADAPTER STATUS
  1467	031330	710 05 1 00 035614 		TIOE	5,@DZTCR	;DID DTR BIT CLEAR?
  1468						ERROR	(TST11C,6,5,6,UNIBUS RESET,BIT STUCK ON 1,STAT)^
  1469	031331	036 06 0 00 037305
  1470	031332	035 00 0 00 031323 		ERLOOP	TST11C		;IF ERROR, LOOP TO TST11C
  1471	031333	242 05 0 00 000001 		LSH	5,1		;TEST NEXT HIGHER BIT
  1472	031334	305 05 0 00 200000 		CAIGE	5,200000	;HAVE WE TESTED THE HIGH BYTE?
  1473	031335	254 00 0 00 031307 		JRST	TST11A		;NO!  GO BACK FOR MORE
  1474						LPTST^
  1475	031336	200 00 0 00 030046 		MOVE	0,CONSW		;GET SWITCHES
  1476	031337	602 00 0 00 000004 		TRNE	TSTLP		;LOOP ON TEST ?
  1477	031340	254 00 1 00 035674 		JRST	@$TSTNM		;YES!
DECSYSTEM 2020 DZ11 ASYNC. LINE MUX DIAGNOSTIC VERSION  0,2	MACRO %53(1020) 13:21 22-May-79 Page 13
DSDZAM	MAC	22-May-79 13:21		DEVICE TESTS                                                                       SEQ 0058

  1478
  1479					S^;*********************************************************************^
  1480					;* TEST12 VERIFIES THAT THE READ ONLY BITS AND THE UNUSED BITS
  1481					;* IN THE DZ11 STATUS REG. FUNCTION PROPERLY.
  1482					S^;*********************************************************************^
  1483
  1484			037310		T=SIXBTZ	<DZCSR R/O BITS TEST>^	[SIXBIT\DZCSR R/O BITS TEST_\]^
  1485
  1486	031341	201 00 0 00 031341 	TEST12:	MOVEI	0,.		;GET THE PC
  1487	031342	202 00 0 00 030051 		MOVEM	TESTPC		;STOR IT
  1488	031343	200 04 0 00 035606 		MOVE	4,DZCSR		;GET DZ11 REG. ADDRESS
  1489	031344	201 00 0 00 031346 		MOVEI	0,TST12A	;GET RETURN ADDRESS
  1490	031345	202 00 0 00 035674 		MOVEM	0,$TSTNM	;STORE IT FOR TEST LOOPING
  1491	031346	402 00 0 00 000005 	TST12A:	SETZM	5		;GET CORRECT DATA
  1492	031347	201 00 0 00 027607 		MOVEI	0,27607		;GET R/O AND UNUSED BIT (EXCEPT TRDY)
  1493	031350	713 00 1 00 035606 		WRIO	0,@DZCSR	;TRY TO WRITE R/O BITS
  1494	031351	712 06 1 00 035606 		RDIO	6,@DZCSR	;GET ACTUAL DATA
  1495	031352	712 03 1 00 035301 		RDIO	3,@UBASR	;GET UNIBUS ADAPTER STATUS
  1496	031353	505 06 0 00 000000 		HRLI	6,0		;GET RID OF GARBAGE (ZERO BITS 0 - 17)
  1497	031354	602 06 0 00 027607 		TRNE	6,27607		;SKIP IF ALL BITS ARE ZERO
  1498						ERROR	(TST12A,6,5,6,WRITING R/O BITS,BITS SHOULD NOT BE SET,STAT)^
  1499	031355	036 06 0 00 037323
  1500	031356	035 00 0 00 031346 		ERLOOP	TST12A		;IF ERROR, LOOP TO TST12A
  1501	031357	201 05 0 00 100000 	TST12B:	MOVEI	5,TRDY		;GET TX READY BIT
  1502	031360	714 05 1 00 035606 		BSIO	5,@DZCSR	;TRY TO DIRECT SET TRDY
  1503	031361	712 06 1 00 035606 		RDIO	6,@DZCSR	;GET ACTUAL DATA
  1504	031362	712 03 1 00 035301 		RDIO	3,@UBASR	;GET UNIBUS ADAPTER STATUS
  1505	031363	710 05 1 00 035606 		TIOE	5,@DZCSR	;DID TRDY SET?
  1506						ERROR	(TST12B,6,5,6,WRITING TRDY BIT,SHOULD NOT BE SET,STAT)^
  1507	031364	036 06 0 00 037334
  1508	031365	035 00 0 00 031357 		ERLOOP	TST12B		;IF ERROR, LOOP TO TST12B
  1509	031366	402 00 0 00 000000 	TST12C:	SETZM			;CLEAR AC 0
  1510	031367	713 00 1 00 035612 		WRIO	0,@DZLPR	;LOAD LINE 0
  1511	031370	201 00 0 00 000001 		MOVEI	0,TCR0		;GET LINE 0 BIT FOR TCR
  1512	031371	714 00 1 00 035614 		BSIO	0,@DZTCR	;SET BIT IN DZ11 REG.
  1513	031372	242 00 0 00 000005 		LSH	0,5		;MAKE IT MSENAB (BIT 05)
  1514	031373	714 00 1 00 035606 		BSIO	0,@DZCSR	;SET BIT IN DZ11 REG.
  1515	031374	710 05 1 00 035606 		TIOE	5,@DZCSR	;IS TRDY SET?
  1516	031375	254 00 0 00 031401 		JRST	TST12D		;YES!  EXIT THIS TEST
  1517	031376	367 00 0 00 031374 		SOJG	0,.-2		;WAIT FOR TRDY TO SET
  1518						ERROR	(TST12C,6,5,6,SETTING TRDY BIT,TRDY DID NOT SET,STAT)^
  1519	031377	036 06 0 00 037345
  1520	031400	035 00 0 00 031366 		ERLOOP	TST12C		;IF ERROR, LOOP TO TST12C
  1521	031401	260 17 0 00 034565 	TST12D:	GO	DZCLR		;CLEAR THE DZ11
  1522						LPTST^
  1523	031402	200 00 0 00 030046 		MOVE	0,CONSW		;GET SWITCHES
  1524	031403	602 00 0 00 000004 		TRNE	TSTLP		;LOOP ON TEST ?
  1525	031404	254 00 1 00 035674 		JRST	@$TSTNM		;YES!
DECSYSTEM 2020 DZ11 ASYNC. LINE MUX DIAGNOSTIC VERSION  0,2	MACRO %53(1020) 13:21 22-May-79 Page 14
DSDZAM	MAC	22-May-79 13:21		DEVICE TESTS                                                                       SEQ 0059

  1526
  1527					S^;*********************************************************************^
  1528					;* TEST13 VERIFIES THAT R/W BITS ARE THE ONLY BITS WHICH CAN BE
  1529					;* WRITTEN IN THE DZ11 STATUS REG.
  1530					S^;*********************************************************************^
  1531			037350		T=SIXBTZ	<DZCSR R/W BITS TEST>^	[SIXBIT\DZCSR R/W BITS TEST_\]^
  1532
  1533	031405	260 17 0 00 034565 	TEST13:	GO	DZCLR		;CLEAR THE DZ11
  1534	031406	200 04 0 00 035606 		MOVE	4,DZCSR		;GET DZ11 REG. ADDRESS
  1535	031407	201 00 0 00 031405 		MOVEI	0,TEST13	;GET RETURN ADDRESS
  1536	031410	202 00 0 00 035674 		MOVEM	0,$TSTNM	;STORE IT FOR TEST LOOPING
  1537	031411	202 00 0 00 030051 		MOVEM	TESTPC		;STOR IT
  1538	031412	201 00 0 00 177757 	TST13A:	MOVEI	0,177757	;ALL BITS EXCEPT DCLR
  1539	031413	201 05 0 00 050150 		MOVEI	5,TIE!SILOEN!RIE!MSENAB!MAINT
  1540									;GET ALL THE R/W BITS EXCEPT DCLR
  1541	031414	713 00 1 00 035606 		WRIO	0,@DZCSR	;WRITE ALL BITS IN DZCSR
  1542	031415	712 06 1 00 035606 		RDIO	6,@DZCSR	;GET ACTUAL DATA
  1543	031416	712 03 1 00 035301 		RDIO	3,@UBASR	;GET UNIBUS STATUS
  1544	031417	550 06 0 00 000006 		HRRZ	6,6		;GET RID OF GARBAGE (ZERO BITS 0 - 17)
  1545	031420	312 06 0 00 000005 		CAME	6,5		;COMPARE CORRECT AND ACTUAL
  1546						ERROR	(TST13A,6,5,6,WRITING ALL BITS,IMPROPER BIT SELECTION,STAT)^
  1547	031421	036 06 0 00 037363
  1548	031422	035 00 0 00 031412 		ERLOOP	TST13A		;IF ERROR, LOOP TO TST13A
  1549	031423	402 00 0 00 000005 	TST13B:	SETZM	5		;GET CORRECT DATA
  1550	031424	260 17 0 00 034565 		GO	DZCLR		;CLEAR THE DZ11
  1551	031425	712 06 1 00 035606 		RDIO	6,@DZCSR	;GET ACTUAL DATA
  1552	031426	550 06 0 00 000006 		HRRZ	6,6		;GET RID OF GARBAGE (ZERO BITS 0 - 17)
  1553	031427	312 06 0 00 000005 		CAME	6,5		;COMPARE CORRECT AND ACTUAL
  1554						ERROR	(TST13B,6,5,6,CLEARING ALL BITS,SOME BITS STUCK ON 1,STAT)^
  1555	031430	036 06 0 00 037375
  1556	031431	035 00 0 00 031423 		ERLOOP	TST13B		;IF ERROR, LOOP TO TST13B
  1557						LPTST^
  1558	031432	200 00 0 00 030046 		MOVE	0,CONSW		;GET SWITCHES
  1559	031433	602 00 0 00 000004 		TRNE	TSTLP		;LOOP ON TEST ?
  1560	031434	254 00 1 00 035674 		JRST	@$TSTNM		;YES!
DECSYSTEM 2020 DZ11 ASYNC. LINE MUX DIAGNOSTIC VERSION  0,2	MACRO %53(1020) 13:21 22-May-79 Page 15
DSDZAM	MAC	22-May-79 13:21		DEVICE TESTS                                                                       SEQ 0060

  1561
  1562					S^;*********************************************************************^
  1563					;* TEST14 CHECKS FOR INTERACTION BETWEEN DZLPR W/O REG. AND DZRBUF
  1564					;* R/O REG.
  1565					S^;*********************************************************************^
  1566					T=SIXBTZ <DZLPR W/O & DZRBUF R/O BITS TEST>^	[SIXBIT\DZLPR W/O & DZRBUF R/O BITS TEST_\]
  1567			037400		^
  1568
  1569	031435	201 00 0 00 031435 	TEST14:	MOVEI	0,.		;GET THE PC
  1570	031436	202 00 0 00 030051 		MOVEM	TESTPC		;STOR IT
  1571	031437	200 04 0 00 035612 		MOVE	4,DZLPR		;ADDRESS OF DZ11 REG.
  1572	031440	201 00 0 00 031442 		MOVEI	0,TST14A	;GET RETURN ADDRESS
  1573	031441	202 00 0 00 035674 		MOVEM	0,$TSTNM	;STORE FOR TEST LOOPING
  1574	031442	201 01 0 00 177777 	TST14A:	MOVEI	1,177777	;GET ALL BITS FOR DZ11 REG.
  1575	031443	260 17 0 00 034565 		GO	DZCLR		;CLEAR THE DZ11 STATUS REG.
  1576	031444	712 05 1 00 035610 		RDIO	5,@DZRBUF	;GET CORRECT DATA
  1577	031445	505 05 0 00 000000 		HRLI	5,0		;GET RID OF THE GARBAGE
  1578	031446	713 01 1 00 035612 		WRIO	1,@DZLPR	;WRITE ALL 1'S TO DZLPR
  1579	031447	712 06 1 00 035610 		RDIO	6,@DZRBUF	;GET ACTUAL DATA
  1580	031450	712 03 1 00 035301 		RDIO	3,@UBASR	;GET UNIBUS ADAPTER STATUS
  1581	031451	620 05 0 00 104000 		TRZ	5,DVALID!BIT11	;CLEAR UNWANTED BITS
  1582	031452	505 06 0 00 000000 		HRLI	6,0		;GET RID OF GARBAGE (ZERO BITS 0 - 17)
  1583	031453	312 05 0 00 000006 		CAME	5,6		;COMPARE CORRECT AND ACTUAL
  1584						ERROR	(TST14A,6,5,6,WRITING 1'S TO DZLPR,DZRBUF PICKED UP BITS,STAT)^
  1585	031454	036 06 0 00 037416
  1586	031455	035 00 0 00 031442 		ERLOOP	TST14A		;IF ERROR, LOOP TO TST14A
  1587	031456	202 06 0 00 035670 		MOVEM	6,$TMP0		;GET COPY OF ACTUAL DATA
  1588	031457	200 01 0 00 035670 	TST14B:	MOVE	1,$TMP0		;PUT DATA IN AC 1
  1589	031460	450 01 0 00 000000 		SETCA	1,		;COMPLEMENT THE ACTUAL BITS
  1590	031461	620 01 0 00 600000 		TRZ	1,600000	;CLEAR UNUSED BITS (BITS 18 & 19)
  1591	031462	713 01 1 00 035612 		WRIO	1,@DZLPR	;WRITE THE REG.
  1592	031463	712 06 1 00 035610 		RDIO	6,@DZRBUF	;GET THE ACTUAL DATA
  1593	031464	712 03 1 00 035301 		RDIO	3,@UBASR	;GET UNIBUS ADAPTER STATUS
  1594	031465	505 06 0 00 000000 		HRLI	6,0		;GET RID OF GARBAGE (ZERO BITS 0 - 17)
  1595	031466	312 05 0 00 000006 		CAME	5,6		;COMPARE CORRECT AND ACTUAL
  1596						ERROR	(TST14B,6,5,6,WRITING COMPLEMENT OF ACTUAL BIT PATTERN,IMPROPER BITS SET,ST
  1597					AT)^
  1598	031467	036 06 0 00 037433
  1599	031470	035 00 0 00 031457 		ERLOOP	TST14B		;IF ERROR, LOOP TO TST14B
  1600						LPTST^
  1601	031471	200 00 0 00 030046 		MOVE	0,CONSW		;GET SWITCHES
  1602	031472	602 00 0 00 000004 		TRNE	TSTLP		;LOOP ON TEST ?
  1603	031473	254 00 1 00 035674 		JRST	@$TSTNM		;YES!
DECSYSTEM 2020 DZ11 ASYNC. LINE MUX DIAGNOSTIC VERSION  0,2	MACRO %53(1020) 13:21 22-May-79 Page 16
DSDZAM	MAC	22-May-79 13:21		DEVICE TESTS                                                                       SEQ 0061

  1604
  1605					S^;*********************************************************************^
  1606					;* TEST15 CHECKS FOR INTERACTION BETWEEN DZTDR W/0 AND DZMSR R/O REG.
  1607					S^;*********************************************************************^
  1608					T=SIXBTZ <DZTDR W/O & DZMSR R/O BITS TEST>^	[SIXBIT\DZTDR W/O & DZMSR R/O BITS TEST_\]^
  1609			037436
  1610
  1611	031474	201 00 0 00 031474 	TEST15:	MOVEI	0,.		;GET THE PC
  1612	031475	202 00 0 00 030051 		MOVEM	TESTPC		;STOR IT
  1613	031476	200 04 0 00 035620 		MOVE	4,DZTDR		;ADDRESS OF DZ11 REG.
  1614	031477	201 00 0 00 031501 		MOVEI	0,TST15A	;GET RETURN ADDRESS
  1615	031500	202 00 0 00 035674 		MOVEM	0,$TSTNM	;STORE FOR TEST LOOPING
  1616	031501	201 01 0 00 177777 	TST15A:	MOVEI	1,177777	;GET ALL BITS FOR DZ11 REG.
  1617	031502	260 17 0 00 034565 		GO	DZCLR		;CLEAR THE DZ11 STATUS REG.
  1618	031503	712 05 1 00 035616 		RDIO	5,@DZMSR	;GET CORRECT DATA
  1619	031504	505 05 0 00 000000 		HRLI	5,0		;GET RID OF THE GARBAGE
  1620	031505	713 01 1 00 035620 		WRIO	1,@DZTDR	;WRITE ALL 1' TO DZTDR
  1621	031506	712 06 1 00 035616 		RDIO	6,@DZMSR	;GET ACTUAL DATA
  1622	031507	712 03 1 00 035301 		RDIO	3,@UBASR	;GET UNIBUS ADAPTER STATUS
  1623	031510	505 06 0 00 000000 		HRLI	6,0		;GET RID OF GARBAGE
  1624	031511	312 05 0 00 000006 		CAME	5,6		;COMPARE CORRECT AND ACTUAL
  1625						ERROR	(TST15A,6,5,6,WRITING 1'S TO DZTDR,DZMSR PICKED UP BITS,STAT)^
  1626	031512	036 06 0 00 037454
  1627	031513	035 00 0 00 031501 		ERLOOP	TST15A		;IF ERROR, LOOP TO TST15A
  1628	031514	260 17 0 00 034565 		GO	DZCLR		;CLEAR THE DZ11 STATUS REG.
  1629	031515	202 06 0 00 035670 		MOVEM	6,$TMP0		;SAVE COPY OF ACTUAL DATA
  1630	031516	200 01 0 00 035670 	TST15B:	MOVE	1,$TMP0		;USE IT TO GENERATE BIT PATTERN
  1631	031517	450 01 0 00 000000 		SETCA	1,		;COMPLEMENT THE ACTUAL BITS
  1632	031520	620 01 0 00 600000 		TRZ	1,600000	;CLEAR THE UNUSED BITS (BITS 18 & 19)
  1633	031521	713 01 1 00 035620 		WRIO	1,@DZTDR	;WRITE THE REG.
  1634	031522	712 06 1 00 035616 		RDIO	6,@DZMSR	;GET THE ACTUAL DATA
  1635	031523	712 03 1 00 035301 		RDIO	3,@UBASR	;GET UNIBUS ADAPTER STATUS
  1636	031524	505 06 0 00 000000 		HRLI	6,0		;GET RID OF GARBAGE (BITS 0 - 17)
  1637	031525	312 05 0 00 000006 		CAME	5,6		;COMPARE CORRECT AND ACTUAL
  1638						ERROR	(TST15B,6,5,6,WRITING COMPLEMENT OF ACTUAL BIT PATTERN,IMPROPER BITS SET,ST
  1639					AT)^
  1640	031526	036 06 0 00 037457
  1641	031527	035 00 0 00 031516 		ERLOOP	TST15B		;IF ERROR, LOOP TO TST15B
  1642						LPTST^
  1643	031530	200 00 0 00 030046 		MOVE	0,CONSW		;GET SWITCHES
  1644	031531	602 00 0 00 000004 		TRNE	TSTLP		;LOOP ON TEST ?
  1645	031532	254 00 1 00 035674 		JRST	@$TSTNM		;YES!
DECSYSTEM 2020 DZ11 ASYNC. LINE MUX DIAGNOSTIC VERSION  0,2	MACRO %53(1020) 13:21 22-May-79 Page 17
DSDZAM	MAC	22-May-79 13:21		DEVICE TESTS                                                                       SEQ 0062

  1646
  1647					S^;*********************************************************************^
  1648					;* TEST16 (STAGGERED MODE) VERIFIES SETTING DTR FOR A LINE WILL CAUSE
  1649					;* RING AND CARRIER, FOR THE ASSOCIATED LINE, TO SET.
  1650					;* LINE 0 DTR = LINE 1 RING & CARRIER
  1651					;*  "   1  "  =   "  0   "  "    "
  1652					;*		ETC.
  1653					S^;*********************************************************************^
  1654			037462		T=SIXBTZ <DTR STAGGERED MODE TEST>^	[SIXBIT\DTR STAGGERED MODE TEST_\]^
  1655
  1656	031533	201 00 0 00 100000 	TEST16:	MOVEI	0,1B20		;GET EIA FLAG BIT
  1657	031534	676 00 0 00 035163 		TDON	0,DZPRT		;IS THIS AN EIA DEVICE
  1658	031535	254 00 0 00 031612 		JRST	TEST17		;NO!  SKIP THIS TEST
  1659	031536	331 00 0 00 035166 		SKIPL	MODE		;STAGGERED MODE?
  1660	031537	254 00 0 00 031612 		JRST	TEST17		;NO!  SKIP THIS TEST
  1661	031540	200 04 0 00 035616 		MOVE	4,DZMSR		;GET DZ11 REG. ADDRESS
  1662	031541	200 00 0 00 031533 		MOVE	0,TEST16	;GET RETURN ADDRESS
  1663	031542	202 00 0 00 035674 		MOVEM	0,$TSTNM	;STORE IT FOR TEST LOOPING
  1664	031543	202 00 0 00 030051 		MOVEM	TESTPC		;STOR IT
  1665	031544	260 17 0 00 034565 		GO	DZCLR		;CLEAR THE DZ11
  1666	031545	201 05 0 00 001002 	TST16A:	MOVEI	5,BIT9!BIT1	;GET CORRECT DATA (CARRIER & RING IND.)
  1667	031546	201 01 0 00 000001 		MOVEI	1,BIT0		;START WITH LINE 0
  1668	031547	612 01 0 00 035164 	TST16B:	TDNE	1,LINE		;IS IT THERE ?
  1669	031550	254 00 0 00 031556 		JRST	TST16C		;YES! TEST IT
  1670	031551	242 01 0 00 000002 		LSH	1,2		;NO!  TEST NEXT EVEN LINE #
  1671	031552	242 05 0 00 000002 		LSH	5,2		;UPDATE CORRECT DATA
  1672	031553	305 01 0 00 000400 		CAIGE	1,400		;HAVE WE TRIED ALL THE LINES
  1673	031554	254 00 0 00 031547 		JRST	TST16B		;NO!  GO BACK FOR NEXT PAIR
  1674	031555	254 00 0 00 031607 		JRST	TST16E		;YES!  EXIT TEST
  1675	031556	724 01 1 00 035615 	TST16C:	BSIOB	1,@HDZTCR	;SET DTR
  1676	031557	712 06 1 00 035616 		RDIO	6,@DZMSR	;GET ACTUAL DATA
  1677	031560	712 03 1 00 035301 		RDIO	3,@UBASR	;GET UNIBUS ADAPTER STATUS
  1678	031561	505 06 0 00 000000 		HRLI	6,0		;CLEAR THE GARBAGE
  1679	031562	312 06 0 00 000005 		CAME	6,5		;COMPARE CORRECT & ACTUAL
  1680						ERROR	(TST16C,6,5,6,SETTING DTR,CARRIER OR RING IND. MISSING,STAT)^
  1681	031563	036 06 0 00 037475
  1682	031564	035 00 0 00 031556 		ERLOOP	TST16C		;IF ERROR, LOOP TO TST16C
  1683	031565	402 00 0 00 000002 	TST16D:	SETZM	2		;GET CORRECT DATA
  1684	031566	725 01 1 00 035615 		BCIOB	1,@HDZTCR	;CLEAR DTR
  1685	031567	712 06 1 00 035616 		RDIO	6,@DZMSR	;GET ACTUAL DATA
  1686	031570	712 03 1 00 035301 		RDIO	3,@UBASR	;GET UNIBUS ADAPTER STATUS
  1687	031571	505 06 0 00 000000 		HRLI	6,0		;CLEAR THE GARBAGE
  1688	031572	312 06 0 00 000002 		CAME	6,2		;COMPARE CORRECT AND ACTUAL
DECSYSTEM 2020 DZ11 ASYNC. LINE MUX DIAGNOSTIC VERSION  0,2	MACRO %53(1020) 13:21 22-May-79 Page 18
DSDZAM	MAC	22-May-79 13:21		DEVICE TESTS                                                                       SEQ 0063

  1689						ERROR	(TST16D,6,2,6,CLEARING DTR,CARRIER OR RING IND. STUCK ON 1,STAT)^
  1690	031573	036 06 0 00 037511
  1691	031574	035 00 0 00 031565 		ERLOOP	TST16D		;IF ERROR, LOOP TO TST16D
  1692	031575	303 01 0 00 000100 		CAILE	1,100		;HAVE WE TESTED ALL THE LINES?
  1693	031576	254 00 0 00 031607 		JRST	TST16E		;YES! EXIT TEST
  1694	031577	606 01 0 00 000052 		TRNN	1,52		;IS IT AN ODD # LINE (BELOW 7)
  1695	031600	254 00 0 00 031604 		JRST	EVLNE		;NO!
  1696	031601	242 01 0 00 000001 		LSH	1,1		;UPDATE LINE TO EVEN #
  1697	031602	242 05 0 00 000003 		LSH	5,3		;UPDATE CORRECT DATA
  1698	031603	254 00 0 00 031547 		JRST	TST16B		;GO TEST NEXT LINE PAIR
  1699	031604	242 01 0 00 000001 	EVLNE:	LSH	1,1		;UPDATE LINE TO ODD #
  1700	031605	242 05 0 00 777777 		LSH	5,-1		;UPDATE CORRECT DATA
  1701	031606	254 00 0 00 031556 		JRST	TST16C
  1702	031607				TST16E:	LPTST^
  1703	031607	200 00 0 00 030046 		MOVE	0,CONSW		;GET SWITCHES
  1704	031610	602 00 0 00 000004 		TRNE	TSTLP		;LOOP ON TEST ?
  1705	031611	254 00 1 00 035674 		JRST	@$TSTNM		;YES!
DECSYSTEM 2020 DZ11 ASYNC. LINE MUX DIAGNOSTIC VERSION  0,2	MACRO %53(1020) 13:21 22-May-79 Page 19
DSDZAM	MAC	22-May-79 13:21		DEVICE TESTS                                                                       SEQ 0064

  1706
  1707					S^;*********************************************************************^
  1708					;* TEST17 (EXTERNAL MODE) VERIFIES THAT SETTING DTR FOR SELECTED LINES
  1709					;* WILL CAUSE CARRIER AND RING IND. TO SET FOR THAT LINE.
  1710					;* LINE 0 DTR = LINE 0 CARRIER AND RING IND.
  1711					;*		ETC.
  1712					S^;*********************************************************************^
  1713			037514		T=SIXBTZ <DTR EXTERNAL MODE TEST>^	[SIXBIT\DTR EXTERNAL MODE TEST_\]^
  1714
  1715	031612	201 00 0 00 100000 	TEST17:	MOVEI	0,1B20		;GET EIA FLAG BIT
  1716	031613	676 00 0 00 035163 		TDON	0,DZPRT		;IS THIS AN EIA DEVICE?
  1717	031614	254 00 0 00 031666 		JRST	TEST20		;NO!  SKIP THIS TEST
  1718	031615	337 00 0 00 035166 		SKIPG	MODE		;EXTERNAL MODE?  (H325 CONNECTOR)
  1719	031616	254 00 0 00 031666 		JRST	TEST20		;NO SKIP THIS TEST
  1720	031617	200 04 0 00 035616 		MOVE	4,DZMSR		;GET DZ11 REG. ADDRESS
  1721	031620	201 00 0 00 031612 		MOVEI	0,TEST17	;GET RETURN ADDRESS
  1722	031621	202 00 0 00 035674 		MOVEM	0,$TSTNM	;STORE IT FOR TEST LOOPING
  1723	031622	202 00 0 00 030051 		MOVEM	TESTPC		;STOR IT
  1724	031623	260 17 0 00 034565 		GO	DZCLR		;CLEAR THE DZ11
  1725	031624	201 01 0 00 000001 	TST17A:	MOVEI	1,BIT0		;START WITH LINE 0
  1726	031625	201 05 0 00 000401 		MOVEI	5,BIT8!BIT0	;GET CORRECT DATA
  1727	031626	612 01 0 00 035164 	TST17B:	TDNE	1,LINE		;IS IT THERE?
  1728	031627	254 00 0 00 031635 		JRST	TST17C		;YES!  TEST IT
  1729	031630	242 01 0 00 000001 		LSH	1,1		;NO!  UPDATE LINE #
  1730	031631	242 05 0 00 000001 		LSH	5,1		;UPDATE CORRECT DATA
  1731	031632	305 01 0 00 000400 		CAIGE	1,400		;HAVE WE TRIED ALL THE LINES?
  1732	031633	254 00 0 00 031626 		JRST	TST17B		;NO!  GO BACK FOR NEXT LINE
  1733	031634	254 00 0 00 031663 		JRST	TST17E		;YES!  EXIT TEST
  1734	031635	724 01 1 00 035615 	TST17C:	BSIOB	1,@HDZTCR	;SET DTA
  1735	031636	201 00 0 00 000010 		MOVEI	0,10		;GET A DELAY COUNT
  1736	031637	202 00 0 00 035236 		MOVEM	0,DLYCNT	;PUT IT WHERE DELAY ROUTINE CAN SEE IT
  1737	031640	260 17 0 00 034601 		GO	DELAY		;ALLOW FOR CABLE DELAY
  1738	031641	712 06 1 00 035616 		RDIO	6,@DZMSR	;GET ACTUAL DATA
  1739	031642	712 03 1 00 035301 		RDIO	3,@UBASR	;GET UNIBUS ADAPTER STATUS
  1740	031643	505 06 0 00 000000 		HRLI	6,0		;CLEAR GARBAGE
  1741	031644	312 06 0 00 000005 		CAME	6,5		;COMPARE CORRECT & ACTUAL
  1742						ERROR	(TST17C,6,5,6,SETTING DTR,CARRIER OR RING IND. MISSING,STAT)^
  1743	031645	036 06 0 00 037520
  1744	031646	035 00 0 00 031635 		ERLOOP	TST17C		;IF ERROR, LOOP TO TST17C
DECSYSTEM 2020 DZ11 ASYNC. LINE MUX DIAGNOSTIC VERSION  0,2	MACRO %53(1020) 13:21 22-May-79 Page 20
DSDZAM	MAC	22-May-79 13:21		DEVICE TESTS                                                                       SEQ 0065

  1745	031647	402 00 0 00 000002 	TST17D:	SETZM	2		;GET CORRECT DATA
  1746	031650	725 01 1 00 035615 		BCIOB	1,@HDZTCR	;CLEAR DTR
  1747	031651	201 00 0 00 000010 		MOVEI	0,10		;GET A DELAY COUNT
  1748	031652	202 00 0 00 035236 		MOVEM	0,DLYCNT	;PUT IT WHERE DELAY ROUTINE CAN SEE IT
  1749	031653	260 17 0 00 034601 		GO	DELAY		;ALLOW FOR CABLE DELAY
  1750	031654	712 06 1 00 035616 		RDIO	6,@DZMSR	;GET ACTUAL DATA
  1751	031655	712 03 1 00 035301 		RDIO	3,@UBASR	;GET UNIBUS ADAPTER STATUS
  1752	031656	505 06 0 00 000000 		HRLI	6,0		;CLEAR THE GARBAGE
  1753	031657	312 06 0 00 000002 		CAME	6,2		;COMPARE CORRECT & ACTUAL
  1754						ERROR	(TST17D,6,2,6,CLEARING DTR,CARRIER OR RING IND. STUCK ON 1,STAT)^
  1755	031660	036 06 0 00 037523
  1756	031661	035 00 0 00 031647 		ERLOOP	TST17D		;IF ERROR, LOOP TO TST17D
  1757	031662	254 00 0 00 031630 		JRST	TST17B+2	;NO!  GO BACK FOR NEXT ONE
  1758	031663				TST17E:	LPTST^
  1759	031663	200 00 0 00 030046 		MOVE	0,CONSW		;GET SWITCHES
  1760	031664	602 00 0 00 000004 		TRNE	TSTLP		;LOOP ON TEST ?
  1761	031665	254 00 1 00 035674 		JRST	@$TSTNM		;YES!
DECSYSTEM 2020 DZ11 ASYNC. LINE MUX DIAGNOSTIC VERSION  0,2	MACRO %53(1020) 13:21 22-May-79 Page 21
DSDZAM	MAC	22-May-79 13:21		DEVICE TESTS                                                                       SEQ 0066

  1762
  1763					S^;*********************************************************************^
  1764					;* TEST 20 VERIFIES THAT TRDY WILL SET WHEN A LINE IS READY TO BE LOADED
  1765					;* AND THAT THE LINE SPECIFIED BY BITS 8 - 10 OF DZCSR CORRESPOND TO THE
  1766					;* TO THE LINE SELECTED IN DZTCR.
  1767					S^;*********************************************************************^
  1768			037526		T=SIXBTZ <TCR FUNCTION TEST>^	[SIXBIT\TCR FUNCTION TEST_\]^
  1769
  1770	031666	200 04 0 00 035614 	TEST20:	MOVE	4,DZTCR		;GET DZ11 REG.ADDRESS
  1771	031667	201 00 0 00 031666 		MOVEI	0,TEST20	;GET RETURN ADDRESS
  1772	031670	202 00 0 00 035674 		MOVEM	0,$TSTNM	;STORE IT FOR LOOPING
  1773	031671	202 00 0 00 030051 		MOVEM	TESTPC		;STOR IT
  1774	031672	260 17 0 00 034565 		GO	DZCLR		;CLEAR DZ11
  1775	031673	402 00 0 00 035167 		SETZM	SAVLIN		;INIT. LINE # FOR ERROR PRINTOUTS
  1776	031674	201 05 0 00 100040 		MOVEI	5,MSENAB!TRDY	;GET CORRECT DATA
  1777	031675	201 02 0 00 000040 		MOVEI	2,MSENAB	;GET GO BIT FOR SCANNER
  1778	031676	201 01 0 00 000001 		MOVEI	1,BIT0		;START WITH LINE 0
  1779	031677	612 01 0 00 035164 	TST20A:	TDNE	1,LINE		;IS THIS LINE SELECTED
  1780	031700	254 00 0 00 031710 		JRST	TST20B		;YES!  TEST IT
  1781	031701	271 05 0 00 000400 		ADDI	5,400		;POINT TO THE NEXT LINE
  1782	031702	260 17 0 00 034565 		GO	DZCLR		;CLEAR DZ11
  1783	031703	350 00 0 00 035167 		AOS	SAVLIN		;UPDATE TO NEXT LINE FOR ERROR PRINTOUT
  1784	031704	242 01 0 00 000001 		LSH	1,1		;POINT TO NEXT LINE
  1785	031705	305 01 0 00 000400 		CAIGE	1,400		;HAVE WE TESTED ALL LINES?
  1786	031706	254 00 0 00 031677 		JRST	TST20A		;NO GO BACK FOR NEXT LINE
  1787	031707	254 00 0 00 031730 		JRST	TST20C		;YES!  EXIT TEST
  1788	031710	714 01 1 00 035614 	TST20B:	BSIO	1,@DZTCR	;SELECT TX LINE
  1789	031711	714 02 1 00 035606 		BSIO	2,@DZCSR	;START THE SCANNER
  1790	031712	201 13 0 00 100000 		MOVEI	13,TRDY		;GET TX READY BIT
  1791	031713	201 00 0 00 000010 		MOVEI	0,10		;GET DELAY COUNT
  1792	031714	202 00 0 00 035236 		MOVEM	0,DLYCNT	;PUT IT WHERE DELAY ROUTINE CAN FIND IT
  1793	031715	260 17 0 00 034601 		GO	DELAY		;GO WAIT FOR SCANNER TO FIND THE LINE
  1794	031716	711 13 1 00 035606 		TION	13,@DZCSR	;DID TX READY SET?
  1795						ERROR	(TST20B,6,5,6,SCANNING FOR SELECTED LINE,TX READY NOT SET,STAT1)^
  1796	031717	036 06 0 00 037541
  1797	031720	035 00 0 00 031710 		ERLOOP	TST20B		;IF ERROR, LOOP TO TST20B
  1798	031721	712 06 1 00 035606 		RDIO	6,@DZCSR	;GET ACTUAL DATA
  1799	031722	712 03 1 00 035301 		RDIO	3,@UBASR	;GET UNIBUS ADAPTER STATUS
  1800	031723	505 06 0 00 000000 		HRLI	6,0		;GET RID OF GARBAGE (ZERO BITS 0 - 17)
  1801	031724	312 06 0 00 000005 		CAME	6,5		;COMPARE CORRECT & ACTUAL
  1802						ERROR	(TST20B,6,5,6,SCANNING FOR SELECTED LINE,WRONG LINE #,STAT1)^
  1803	031725	036 06 0 00 037547
  1804	031726	035 00 0 00 031710 		ERLOOP	TST20B		;IF ERROR, LOOP TO TST20B
  1805	031727	254 00 0 00 031701 		JRST	TST20A+2	;GO BACK FOR NEXT LINE
  1806	031730				TST20C:	LPTST^
  1807	031730	200 00 0 00 030046 		MOVE	0,CONSW		;GET SWITCHES
  1808	031731	602 00 0 00 000004 		TRNE	TSTLP		;LOOP ON TEST ?
  1809	031732	254 00 1 00 035674 		JRST	@$TSTNM		;YES!
  1810
DECSYSTEM 2020 DZ11 ASYNC. LINE MUX DIAGNOSTIC VERSION  0,2	MACRO %53(1020) 13:21 22-May-79 Page 22
DSDZAM	MAC	22-May-79 13:21		DEVICE TESTS                                                                       SEQ 0067

  1811
  1812					S^;*********************************************************************^
  1813					;* TEST 21 VERIFIES THE ABILITY TO SEND AND RECEIVE A CHARACTER ON ALL
  1814					;* SELECTED LINES.  THE LINES ARE TURNED ON ONE AT A TIME AND THE CHAR.
  1815					;* "252" IS SENT AND RECEIVED OVER EACH LINE IN TURN.
  1816					S^;*********************************************************************^
  1817			037552		T=SIXBTZ <TX & RX SINGLE CHAR. TEST>^	[SIXBIT\TX & RX SINGLE CHAR. TEST_\]^
  1818
  1819	031733	201 00 0 00 031733 	TEST21:	MOVEI	0,TEST21	;GET RETURN ADDRESS
  1820	031734	202 00 0 00 035674 		MOVEM	0,$TSTNM	;STORE IT FOR LOOPING
  1821	031735	202 00 0 00 030051 		MOVEM	TESTPC		;STOR IT
  1822	031736	402 00 0 00 035167 		SETZM	SAVLIN		;INIT. LINE # FOR ERROR PRINTOUTS
  1823	031737	260 17 0 00 034604 		GO	SETMNT		;GO CLEAR DZ11 & SET MAINT. BIT (IF INTERNAL MODE)
  1824	031740	260 17 0 00 034550 		GO	LPREN		;SET PARAMETERS FOR ALL SELECTED LINES
  1825	031741	260 17 0 00 034612 		GO	MTSILO		;EMPTY THE SILO
  1826	031742	201 01 0 00 000001 		MOVEI	1,BIT0		;START WITH LINE 0
  1827	031743	201 00 0 00 000040 		MOVEI	0,MSENAB	;GET MASTER SCAN ENABLE BIT
  1828	031744	714 00 1 00 035606 		BSIO	0,@DZCSR	;START SCANNER
  1829	031745	612 01 0 00 035164 	TST21A:	TDNE	1,LINE		;IS THIS A VALID LINE
  1830	031746	254 00 0 00 031754 		JRST	TST21B		;YES! TEST IT
  1831	031747	350 00 0 00 035167 		AOS	SAVLIN		;UPDATE LINE # FOR ERROR PRINTOUT
  1832	031750	242 01 0 00 000001 		LSH	1,1		;SELECT NEXT TX. LINE
  1833	031751	305 01 0 00 000400 		CAIGE	1,400		;HAVE WE TESTED ALL LINES?
  1834	031752	254 00 0 00 031745 		JRST	TST21A		;NO!  GO BACK FOR MORE
  1835	031753	254 00 0 00 032021 		JRST	TST21E		;YES!  EXIT TEST
  1836	031754	713 01 1 00 035614 	TST21B:	WRIO	1,@DZTCR	;SELECT TX. LINE
  1837	031755	201 00 0 00 000010 		MOVEI	0,10		;GET DELAY COUNT
  1838	031756	202 00 0 00 035236 		MOVEM	0,DLYCNT	;PUT IT WHERE DELAY ROUTINE CAN FIND IT
  1839	031757	260 17 0 00 034601 		GO	DELAY		;GO WASTE A LITTLE TIME
  1840	031760	201 00 0 00 100000 		MOVEI	0,TRDY		;GET TX READY BIT
  1841	031761	200 04 0 00 035606 		MOVE	4,DZCSR		;GET REG. ADDRESS
  1842	031762	712 03 1 00 035301 		RDIO	3,@UBASR	;GET UNIBUS ADAPTER STATUS
  1843	031763	711 00 1 00 035606 		TION	0,@DZCSR	;IS TX READY SET?
  1844						ERROR	(TST21B,0,0,0,XMIT OF CHAR.,TRDY DID NOT SET,STAT1)^
  1845	031764	036 00 0 00 037562
  1846	031765	035 00 0 00 031754 		ERLOOP	TST21B		;IF ERROR, LOOP TO TST21B
  1847	031766	201 00 0 00 000252 		MOVEI	0,252		;GET CHAR TO XMIT
  1848	031767	713 00 1 00 035620 		WRIO	0,@DZTDR	;XMIT CHARACTER
  1849	031770	200 05 0 00 035167 		MOVE	5,SAVLIN	;GET LINE #
  1850	031771	242 05 0 00 000010 		LSH	5,10		;MOVE IT OVER
  1851	031772	660 05 0 00 100252 		TRO	5,100252	;ASSEMBLE CORRECT DATA IN AC 5
  1852									;LINE #,  VALID,  & CHARACTER
  1853	031773	335 00 0 00 035166 		SKIPGE	MODE		;IS DZ11 IN STAGGERED MODE?
  1854	031774	640 05 0 00 000400 		TRC	5,400		;YES! CHANGE RX LINE #
  1855	031775	135 07 0 00 037565 		LDB	IND,[POINT 4,PAR,27]
  1856	031776	200 00 0 07 035650 		MOVE	0,DLYTBL(IND)	;GET DELAY COUNT BASED ON LINE SPEED
  1857	031777	202 00 0 00 035236 		MOVEM	0,DLYCNT	;PUT IT WHERE DELAY ROUTINE CAN SEE IT
DECSYSTEM 2020 DZ11 ASYNC. LINE MUX DIAGNOSTIC VERSION  0,2	MACRO %53(1020) 13:21 22-May-79 Page 23
DSDZAM	MAC	22-May-79 13:21		DEVICE TESTS                                                                       SEQ 0068

  1858	032000	201 14 0 00 000200 	TST21C:	MOVEI	14,RDONE	;GET RX DONE BIT
  1859	032001	710 14 1 00 035606 		TIOE	14,@DZCSR	;IS CHAR. IN RX BUFFER
  1860	032002	254 00 0 00 032010 		JRST	TST21D		;YES! GO GET IT
  1861	032003	260 17 0 00 034601 		GO	DELAY		;NO! WAIT FOR IT
  1862	032004	712 03 1 00 035301 		RDIO	3,@UBASR	;GET UNIBUS ADAPTER STATUS
  1863	032005	711 14 1 00 035606 		TION	14,@DZCSR	;CHAR. ARRIVE YET?
  1864						ERROR	(TST21C,0,0,0,AFTER XMITTING CHAR,RDONE DID NOT SET,STAT1)^
  1865	032006	036 00 0 00 037575
  1866	032007	035 00 0 00 032000 		ERLOOP	TST21C		;IF ERROR, LOOP TO TST21C
  1867	032010	200 04 0 00 035610 	TST21D:	MOVE	4,DZRBUF	;GET THE REG. ADDRESS FOR ERROR PRINTOUT
  1868	032011	712 06 1 00 035610 		RDIO	6,@DZRBUF	;GET THE CHARACTER
  1869	032012	712 03 1 00 035301 		RDIO	3,@UBASR	;GET UNIBUS ADAPTER STATUS
  1870	032013	505 06 0 00 000000 		HRLI	6,0		;GET RID OF GARBAGE
  1871	032014	312 06 0 00 000005 		CAME	6,5		;COMPARE CORRECT & ACTUAL
  1872						ERROR	(TST21D,6,5,6,RX STATUS NOT CORRECT,0,STAT1)^
  1873	032015	036 06 0 00 037605
  1874	032016	035 00 0 00 032010 		ERLOOP	TST21D		;IF ERROR, LOOP TO TST21D
  1875	032017	715 01 1 00 035614 		BCIO	1,@DZTCR	;CLEAR THE LINE #
  1876	032020	254 00 0 00 031747 		JRST	TST21A+2	;GO CHECK FOR NEXT LINE
  1877	032021				TST21E:	LPTST^
  1878	032021	200 00 0 00 030046 		MOVE	0,CONSW		;GET SWITCHES
  1879	032022	602 00 0 00 000004 		TRNE	TSTLP		;LOOP ON TEST ?
  1880	032023	254 00 1 00 035674 		JRST	@$TSTNM		;YES!
DECSYSTEM 2020 DZ11 ASYNC. LINE MUX DIAGNOSTIC VERSION  0,2	MACRO %53(1020) 13:21 22-May-79 Page 24
DSDZAM	MAC	22-May-79 13:21		DEVICE TESTS                                                                       SEQ 0069

  1881
  1882					S^;*********************************************************************^
  1883					;* TEST 22 VERIFIES THAT ALL CHARACTERS CAN BE TRANSMITTED AND RECEIVED
  1884					;* IN FLAG MODE ON ALL SELECTED LINES.
  1885					S^;*********************************************************************^
  1886			037610		T=SIXBTZ <TX & RX ALL CHARACTERS TEST>^	[SIXBIT\TX & RX ALL CHARACTERS TEST_\]^
  1887
  1888	032024	201 00 0 00 032024 	TEST22:	MOVEI	0,TEST22	;GET RETURN ADDRESS
  1889	032025	202 00 0 00 035674 		MOVEM	0,$TSTNM	;STORE IT FOR LOOPING
  1890	032026	202 00 0 00 030051 		MOVEM	TESTPC		;STOR IT
  1891	032027	201 13 0 00 000377 		MOVEI	13,377		;GET 1ST CHAR. TO XMIT
  1892	032030	402 00 0 00 035167 		SETZM	SAVLIN		;INIT. LINE # FOR ERROR PRINTOUTS
  1893	032031	260 17 0 00 034604 		GO	SETMNT		;GO CLEAR DZ11 & SET MAINT. BIT (IF INTERNAL MODE)
  1894	032032	260 17 0 00 034550 		GO	LPREN		;SET PARAMETERS FOR ALL SELECTED LINES
  1895	032033	260 17 0 00 034612 		GO	MTSILO		;EMPTY THE SILO
  1896	032034	201 01 0 00 000001 		MOVEI	1,BIT0		;START WITH LINE 0
  1897	032035	201 00 0 00 000040 		MOVEI	0,MSENAB	;GET MASTER SCAN ENABLE BIT
  1898	032036	714 00 1 00 035606 		BSIO	0,@DZCSR	;START SCANNER
  1899	032037	612 01 0 00 035164 	TST22A:	TDNE	1,LINE		;IS THIS A VALID LINE?
  1900	032040	254 00 0 00 032047 		JRST	TST22B		;YES!  TEST IT
  1901	032041	350 00 0 00 035167 		AOS	SAVLIN		;UPDATE LINE # FOR ERROR PRINTOUT
  1902	032042	201 13 0 00 000377 		MOVEI	13,377		;PUT FIRST DATA BYTE IN AC 13
  1903	032043	242 01 0 00 000001 		LSH	1,1		;SELECT NEXT TX. LINE
  1904	032044	305 01 0 00 000400 		CAIGE	1,400		;HAVE WE TESTED ALL LINES?
  1905	032045	254 00 0 00 032037 		JRST	TST22A		;NO!  GO BACK FOR MORE
  1906	032046	254 00 0 00 032116 		JRST	TST22E		;YES!  EXIT TEST
  1907	032047	713 01 1 00 035614 	TST22B:	WRIO	1,@DZTCR	;SELECT TX. LINE
  1908	032050	201 00 0 00 000010 		MOVEI	0,10		;GET DELAY COUNT
  1909	032051	202 00 0 00 035236 		MOVEM	0,DLYCNT	;PUT IT WHERE DELAY ROUTINE CAN FIND IT
  1910	032052	260 17 0 00 034601 		GO	DELAY		;GO WASTE A LITTLE TIME
  1911	032053	201 00 0 00 100000 		MOVEI	0,TRDY		;GET TX. READY BIT
  1912	032054	200 04 0 00 035606 		MOVE	4,DZCSR		;GET REG. ADDRESS
  1913	032055	712 03 1 00 035301 		RDIO	3,@UBASR	;GET UNIBUS ADAPTER STATUS
  1914	032056	711 00 1 00 035606 		TION	0,@DZCSR	;IS TX. READY SET?
  1915						ERROR	(TST22B,0,0,0,XMIT OF CHAR.,TRDY DID NOT SET,STAT1)^
  1916	032057	036 00 0 00 037615
  1917	032060	035 00 0 00 032047 		ERLOOP	TST22B		;IF ERROR, LOOP TO TST22B
  1918	032061	713 13 1 00 035620 	NXTCH:	WRIO	13,@DZTDR	;XMIT CHARACTER
  1919	032062	200 05 0 00 035167 		MOVE	5,SAVLIN	;GET LINE #
  1920	032063	242 05 0 00 000010 		LSH	5,10		;PUT IT IN PROPER PLACE
  1921	032064	670 05 0 00 000013 		TDO	5,13		;LOAD CHAR. INTO AC 5
  1922	032065	660 05 0 00 100000 		TRO	5,100000	;SET DATA VALID BIT
  1923	032066	335 00 0 00 035166 		SKIPGE	MODE		;IS DZ11 IN STAGGERED MODE?
  1924	032067	640 05 0 00 000400 		TRC	5,400		;YES!  CHANGE RX. LINE #
  1925	032070	135 07 0 00 037565 		LDB	IND,[POINT 4,PAR,27]
  1926	032071	200 00 0 07 035650 		MOVE	0,DLYTBL(IND)	;GET DELAY COUNT BASED ON LINE SPEED
  1927	032072	202 00 0 00 035236 		MOVEM	0,DLYCNT	;PUT IT WHERE DELAY ROUTINE CAN SEE IT
DECSYSTEM 2020 DZ11 ASYNC. LINE MUX DIAGNOSTIC VERSION  0,2	MACRO %53(1020) 13:21 22-May-79 Page 25
DSDZAM	MAC	22-May-79 13:21		DEVICE TESTS                                                                       SEQ 0070

  1928	032073	201 14 0 00 000200 	TST22C:	MOVEI	14,RDONE	;GET RX DONE BIT
  1929	032074	710 14 1 00 035606 		TIOE	14,@DZCSR	;IS CHAR. IN RX. BUFFER
  1930	032075	254 00 0 00 032103 		JRST	TST22D		;YES!  GO GET IT
  1931	032076	260 17 0 00 034601 		GO	DELAY		;NO!  WAIT FOR IT
  1932	032077	712 03 1 00 035301 		RDIO	3,@UBASR	;GET UNIBUS ADAPTER STATUS
  1933	032100	711 14 1 00 035606 		TION	14,@DZCSR	;CHAR. ARRIVE YET?
  1934						ERROR	(TST22C,0,0,0,AFTER XMITTING CHAR,RDONE DID NOT SET,STAT1)^
  1935	032101	036 00 0 00 037620
  1936	032102	035 00 0 00 032073 		ERLOOP	TST22C		;IF ERROR, LOOP TO TST22C
  1937	032103	200 04 0 00 035610 	TST22D:	MOVE	4,DZRBUF	;GET REG. ADDRESS FOR ERROR PRINTOUT
  1938	032104	712 06 1 00 035610 		RDIO	6,@DZRBUF	;GET THE CHARACTER
  1939	032105	712 03 1 00 035301 		RDIO	3,@UBASR	;GET UNIBUS ADAPTER STATUS
  1940	032106	505 06 0 00 000000 		HRLI	6,0		;GET RID OF GARBAGE
  1941	032107	312 06 0 00 000005 		CAME	6,5		;COMPARE CORRECT & ACTUAL
  1942						ERROR	(TST22D,6,5,6,RX STATUS NOT CORRECT, ,STAT1)^
  1943	032110	036 06 0 00 037624
  1944	032111	035 00 0 00 032103 		ERLOOP	TST22D		;IF ERROR, LOOP TO TST22D
  1945	032112	361 13 0 00 032114 		SOJL	13,.+2		;GET NEXT CHAR. TO XMIT
  1946	032113	254 00 0 00 032061 		JRST	NXTCH		;GO SEND IT
  1947	032114	715 01 1 00 035614 		BCIO	1,@DZTCR	;CLEAR TX. LINE #
  1948	032115	254 00 0 00 032041 		JRST	TST22A+2	;GO CHECK FOR NEXT LINE
  1949	032116				TST22E:	LPTST^
  1950	032116	200 00 0 00 030046 		MOVE	0,CONSW		;GET SWITCHES
  1951	032117	602 00 0 00 000004 		TRNE	TSTLP		;LOOP ON TEST ?
  1952	032120	254 00 1 00 035674 		JRST	@$TSTNM		;YES!
DECSYSTEM 2020 DZ11 ASYNC. LINE MUX DIAGNOSTIC VERSION  0,2	MACRO %53(1020) 13:21 22-May-79 Page 26
DSDZAM	MAC	22-May-79 13:21		DEVICE TESTS                                                                       SEQ 0071

  1953
  1954					S^;*********************************************************************^
  1955					;* TEST 23 VERIFIES THE FOLLOWING:
  1956					;* 1) THE TRANSMITTER BREAK BIT WORKS
  1957					;* 2) THE RECEIVER CAN FLAG "FRAMING ERRORS"
  1958					;* 3) THE RECEIVER CAN FLAG "PARITY ERRORS"
  1959					;* THIS TEST WILL NOT BE EXECUTED IF DZ11 IS IN INTERNAL LOOPBACK MODE
  1960					S^;*********************************************************************^
  1961					T=SIXBTZ <BREAK, FRAME, PARITY ERRORS TEST>^	[SIXBIT\BREAK, FRAME, PARITY ERRORS TEST_\]
  1962			037627		^
  1963
  1964
  1965	032121	336 00 0 00 035166 	TEST23:	SKIPN	MODE		;IS DZ11 IN INTERNAL LOOPBACK MODE?
  1966	032122	254 00 0 00 032224 		JRST	TEST24		;YES! GO TO NEXT TEST.
  1967	032123	201 00 0 00 032121 		MOVEI	0,TEST23	;GET RETURN ADDRESS
  1968	032124	202 00 0 00 035674 		MOVEM	0,$TSTNM	;STORE IT FOR LOOPING
  1969	032125	202 00 0 00 030051 		MOVEM	TESTPC		;STOR IT
  1970	032126	260 17 0 00 034565 		GO	DZCLR		;GO CLEAR DZ11
  1971	032127	402 00 0 00 035167 		SETZM	SAVLIN		;INIT. LINE # FOR ERROR PRINTOUTS
  1972	032130	261 17 0 00 035165 		PUT	PAR		;SAVE  ORIGINAL PARAMETERS
  1973	032131	200 02 0 00 035165 		MOVE	2,PAR		;GET PARAMETERS
  1974	032132	660 02 0 00 000300 		TRO	2,ODDPAR!PARITY	;ENABLE ODD PARITY
  1975	032133	202 02 0 00 035165 		MOVEM	2,PAR		;SET NEW PARAMETERS FOR THIS TEST
  1976	032134	260 17 0 00 034550 		GO	LPREN		;SET PARAMETERS FOR ALL SELECTED LINES
  1977	032135	260 17 0 00 034612 		GO	MTSILO		;EMPTY THE SILO
  1978	032136	201 01 0 00 000001 		MOVEI	1,BIT0		;START WITH LINE 0
  1979	032137	201 00 0 00 000040 		MOVEI	0,MSENAB	;GET MASTER SCAN ENABLE BIT
  1980	032140	714 00 1 00 035606 		BSIO	0,@DZCSR	;START SCANNER
  1981	032141	612 01 0 00 035164 	TST23A:	TDNE	1,LINE		;IS THIS A VALID LINE?
  1982	032142	254 00 0 00 032150 		JRST	TST23B		;YES!  TEST IT
  1983	032143	350 00 0 00 035167 		AOS	SAVLIN		;UPDATE LINE # FOR ERROR PRINTOUT
  1984	032144	242 01 0 00 000001 		LSH	1,1		;SELECT NEXT TX. LINE
  1985	032145	305 01 0 00 000400 		CAIGE	1,400		;HAVE WE TESTED ALL LINES?
  1986	032146	254 00 0 00 032141 		JRST	TST23A		;NO  GO BACK FOR MORE
  1987	032147	254 00 0 00 032220 		JRST	TST23E		;YES!  EXIT TEST
  1988	032150	713 01 1 00 035614 	TST23B:	WRIO	1,@DZTCR	;SELECT TX. LINE
  1989	032151	201 00 0 00 000010 		MOVEI	0,10		;GET DELAY COUNT
  1990	032152	202 00 0 00 035236 		MOVEM	0,DLYCNT	;PUT IT WHERE DELAY ROUTINE CAN FIND IT
  1991	032153	260 17 0 00 034601 		GO	DELAY		;GO WASTE A LITTLE TIME
  1992	032154	201 00 0 00 100000 		MOVEI	0,TRDY		;GET TX. READY BIT
  1993	032155	200 04 0 00 035606 		MOVE	4,DZCSR		;GET REG. ADDRESS
  1994	032156	712 03 1 00 035301 		RDIO	3,@UBASR	;GET UNIBUS ADAPTER STATUS
  1995	032157	711 00 1 00 035606 		TION	0,@DZCSR	;IS TX. READY SET?
  1996						ERROR	(TST23B,0,0,0,XMIT OF CHAR.,TRDY DID NOT SET,STAT1)^
  1997	032160	036 00 0 00 037635
  1998	032161	035 00 0 00 032150 		ERLOOP	TST23B		;IF ERROR, LOOP TO TST23B
  1999	032162	201 13 0 00 000377 		MOVEI	13,377		;GET CHAR. TO XMIT
  2000	032163	723 01 1 00 035621 		WRIOB	1,@HDZTDR	;SET BREAK FOR THIS LINE
  2001	032164	723 13 1 00 035620 		WRIOB	13,@DZTDR	;TRY TO XMIT CHARACTER
  2002	032165	200 05 0 00 035167 		MOVE	5,SAVLIN	;GET LINE #
  2003	032166	242 05 0 00 000010 		LSH	5,10		;MOVE IT OVER
  2004	032167	660 05 0 00 130000 		TRO	5,DVALID!PARER!FRMERR
  2005									;ASSEMBLE CORRECT DATA IN AC 5.  VALID
  2006									;DATA, PARITY ERR, FRAM ERR, & LINE #
DECSYSTEM 2020 DZ11 ASYNC. LINE MUX DIAGNOSTIC VERSION  0,2	MACRO %53(1020) 13:21 22-May-79 Page 27
DSDZAM	MAC	22-May-79 13:21		DEVICE TESTS                                                                       SEQ 0072

  2007	032170	335 00 0 00 035166 		SKIPGE	MODE		;IS DZ11 IN STAGGERED MODE?
  2008	032171	640 05 0 00 000400 		TRC	5,400		;YES!  CHANGE RX LINE #
  2009	032172	135 07 0 00 037565 		LDB	IND,[POINT 4,PAR,27]
  2010	032173	200 00 0 07 035650 		MOVE	0,DLYTBL(IND)	;GET DELAY COUNT BASED ON LINE SPEED
  2011	032174	202 00 0 00 035236 		MOVEM	0,DLYCNT	;PUT IT WHERE DELAY ROUTINE CAN SEE IT
  2012	032175	201 14 0 00 000200 	TST23C:	MOVEI	14,RDONE	;GET RX DONE BIT
  2013	032176	710 14 1 00 035606 		TIOE	14,@DZCSR	;IS CHAR. IN RX BUFFER
  2014	032177	254 00 0 00 032205 		JRST	TST23D		;YES! GO GET IT
  2015	032200	260 17 0 00 034601 		GO	DELAY		;NO!  WAIT FOR IT
  2016	032201	712 03 1 00 035301 		RDIO	3,@UBASR	;GET UNIBUS ADAPTER STATUS
  2017	032202	711 14 1 00 035606 		TION	14,@DZCSR	;CHAR. ARRIVE YET?
  2018						ERROR	(TST23C,0,0,0,AFTER XMITTING CHAR,RDONE DID NOT SET,STAT1)^
  2019	032203	036 00 0 00 037640
  2020	032204	035 00 0 00 032175 		ERLOOP	TST23C		;IF ERROR, LOOP TO TST23C
  2021	032205	200 04 0 00 035610 	TST23D:	MOVE	4,DZRBUF	;GET THE REG. ADDRESS FOR ERROR PRINTOUT
  2022	032206	712 06 1 00 035610 		RDIO	6,@DZRBUF	;GET THE CHARACTER
  2023	032207	712 03 1 00 035301 		RDIO	3,@UBASR	;GET UNIBUS ADAPTER STATUS
  2024	032210	505 06 0 00 000000 		HRLI	6,0		;GET RID OF GARBAGE
  2025	032211	312 06 0 00 000005 		CAME	6,5		;COMPARE CORRECT & ACTUAL
  2026						ERROR	(TST23D,6,5,6,RX STATUS NOT CORRECT,0,STAT1)^
  2027	032212	036 06 0 00 037643
  2028	032213	035 00 0 00 032205 		ERLOOP	TST23D		;IF ERROR, LOOP TO TST23D
  2029	032214	402 00 0 00 000000 		SETZM			;CLEAR AC 0
  2030	032215	723 01 1 00 035621 		WRIOB	1,@HDZTDR	;CLEAR BREAK FOR ALL LINE
  2031	032216	715 01 1 00 035614 		BCIO	1,@DZTCR	;CLEAR THE LINE #
  2032	032217	254 00 0 00 032143 		JRST	TST23A+2	;GO CHECK FOR NEXT LINE
  2033	032220	262 17 0 00 035165 	TST23E:	GET	PAR		;RESTORE ORIGINAL PARAMETERS
  2034						LPTST^
  2035	032221	200 00 0 00 030046 		MOVE	0,CONSW		;GET SWITCHES
  2036	032222	602 00 0 00 000004 		TRNE	TSTLP		;LOOP ON TEST ?
  2037	032223	254 00 1 00 035674 		JRST	@$TSTNM		;YES!
DECSYSTEM 2020 DZ11 ASYNC. LINE MUX DIAGNOSTIC VERSION  0,2	MACRO %53(1020) 13:21 22-May-79 Page 28
DSDZAM	MAC	22-May-79 13:21		DEVICE TESTS                                                                       SEQ 0073

  2038
  2039					S^;*********************************************************************^
  2040					;* TEST 24 VERIFIES THAT THE DZ11 WILL INTERRUPT THROUGH THE PROPER
  2041					;* VECTOR & AT ASSIGNED BR LEVEL FOR ALL VALID LINES.
  2042					S^;*********************************************************************^
  2043			037646		T=SIXBTZ <INTERRUPT TEST>^	[SIXBIT\INTERRUPT TEST_\]^
  2044
  2045
  2046	032224	201 00 0 00 032224 	TEST24:	MOVEI	0,TEST24	;GET RETURN ADDRESS
  2047	032225	202 00 0 00 035674 		MOVEM	0,$TSTNM	;STORE IT FOR LOOPING
  2048	032226	202 00 0 00 030051 		MOVEM	TESTPC		;STOR IT
  2049	032227	201 00 0 00 400000 		MOVEI	0,TIMOUT!	;GET TIMEOUT BIT FOR UNIBUS ADAPTER
  2050	032230	714 00 1 00 035301 		BSIO	0,@UBASR	;MAKE SURE IT'S OFF
  2051	032231	260 17 0 00 034604 		GO	SETMNT		;CLEAR DZ11 & SET MAINT. BIT (IF INTERNAL MODE)
  2052	032232	200 04 0 00 035606 		MOVE	4,DZCSR		;GET DZ11 REG. ADDRESS
  2053	032233	402 00 0 00 035167 		SETZM	SAVLIN		;INIT LINE NUMBER FOR ERROR CALL
  2054	032234	260 17 0 00 034550 		GO	LPREN		;SET PARAMETERS FOR ALL SELECTED LINES
  2055	032235	260 17 0 00 034612 		GO	MTSILO		;EMPTY THE SILO
  2056	032236	201 01 0 00 000001 		MOVEI	1,BIT0		;START WITH LINE 0
  2057	032237	200 00 0 00 037651 		MOVE	[JSR WRGVEC]	;GET ERROR POINTER
  2058	032240	202 00 0 00 035675 		MOVEM	VECTBL		;PUT IT IN VECTOR TABLE
  2059	032241	200 00 0 00 037652 		MOVE	[VECTBL,,VECTBL+1]
  2060	032242	251 00 0 00 036074 		BLT	VECTBL+^D127	;FILL "THE WHOLE THING"
  2061	032243	200 07 0 00 035162 		MOVE	IND,DZRIV	;GET RX. VECTOR
  2062	032244	242 07 0 00 777776 		LSH	IND,-2		;MAKE IT PDP-10 STYLE
  2063	032245	200 00 0 00 037653 		MOVE	0,[JSR RXINT]	;GET INT. HANDLER POINTER
  2064	032246	202 00 0 07 035675 		MOVEM	0,VECTBL(IND)	;STORE IT IN VECTOR TABLE
  2065	032247	200 00 0 00 037654 		MOVE	0,[JSR TXINT]	;GET TX. VECTOR
  2066	032250	271 07 0 00 000001 		ADDI	IND,1		;INDEX TO TX. VECTOR FOR THIS DZ11
  2067	032251	202 00 0 07 035675 		MOVEM	0,VECTBL(IND)	;STORE IT IN VECTOR TABLE
  2068	032252	700 14 0 00 002377 		WRPI	LPION!LCHNON!LPICHA
  2069	032253	612 01 0 00 035164 	TST24A:	TDNE	1,LINE		;IS THIS A VALID LINE
  2070	032254	254 00 0 00 032262 		JRST	TST24B		;YES! TEST IT
  2071	032255	350 00 0 00 035167 		AOS	SAVLIN		;UPDATE LINE # FOR ERROR PRINTOUT
  2072	032256	242 01 0 00 000001 		LSH	1,1		;SELECT NEXT TX. LINE
  2073	032257	305 01 0 00 000400 		CAIGE	1,400		;HAVE WE TESTED ALL LINES?
  2074	032260	254 00 0 00 032253 		JRST	TST24A		;NO!  GO BACK FOR MORE
  2075	032261	254 00 0 00 032370 		JRST	TST24E		;YES! EXIT TEST
  2076	032262	201 14 0 00 000001 	TST24B:	MOVEI	14,1		;GET PI ASSIGNMENT FOR UBA
  2077	032263	713 14 1 00 035301 		WRIO	14,@UBASR	;PUT IT IN UBA STATUS REG.
  2078	032264	260 17 0 00 034635 		GO	ZSTAT		;CLEAR STATUS FLAGS
  2079	032265	713 01 1 00 035614 		WRIO	1,@DZTCR	;SELECT TX. LINE
  2080	032266	201 00 0 00 040040 		MOVEI	0,TIE!MSENAB	;ALLOW DZ11 TO INTERRUPT
  2081	032267	714 00 1 00 035606 		BSIO	0,@DZCSR	;CAUSE INTERRUPT
  2082	032270	201 00 0 00 000020 		MOVEI	0,20		;GET DELAY COUNT
  2083	032271	202 00 0 00 035236 		MOVEM	0,DLYCNT	;PUT IT WHERE DELAY ROUTINE CAN FIND IT
  2084	032272	260 17 0 00 034601 		GO	DELAY		;GO WASTE A LITTLE TIME
  2085	032273	201 00 0 00 040000 		MOVEI	0,TIE		;GET INT. ENABLE BIT
  2086	032274	715 00 1 00 035606 		BCIO	0,@DZCSR	;DON'T ALLOW INTERRUPTS
  2087	032275	332 00 0 00 035624 		SKIPE	VECERR		;WAS IT THE WRONG VECTOR ?
DECSYSTEM 2020 DZ11 ASYNC. LINE MUX DIAGNOSTIC VERSION  0,2	MACRO %53(1020) 13:21 22-May-79 Page 29
DSDZAM	MAC	22-May-79 13:21		DEVICE TESTS                                                                       SEQ 0074

  2088						ERROR	(TST24B+1,0,0,0,TX INTERRUPT,WRONG VECTOR,STAT1)^
  2089	032276	036 00 0 00 037663
  2090	032277	035 00 0 00 032263 		ERLOOP	TST24B+1		;IF ERROR, LOOP TO TST24B+1
  2091	032300	332 00 0 00 035622 		SKIPE	DZRIS		;DID RX. INT. ?
  2092						ERROR	(TST24B+1,0,0,0,TX INTERRUPT,INT. WAS THRU RX VECTOR,STAT1)^
  2093	032301	036 00 0 00 037672
  2094	032302	035 00 0 00 032263 		ERLOOP	TST24B+1		;IF ERROR, LOOP TO TST24B+1
  2095	032303	201 00 0 00 100000 		MOVEI	0,TRDY		;GET TX READY BIT
  2096	032304	200 04 0 00 035606 		MOVE	4,DZCSR		;GET REG. ADDRESS
  2097	032305	712 03 1 00 035301 		RDIO	3,@UBASR	;GET UNIBUS ADAPTER STATUS
  2098	032306	711 00 1 00 035606 		TION	0,@DZCSR	;IS TX READY SET?
  2099						ERROR	(TST24B+1,0,0,0,TX. INT.,TRDY DID NOT SET,STAT1)^
  2100	032307	036 00 0 00 037677
  2101	032310	035 00 0 00 032263 		ERLOOP	TST24B+1		;IF ERROR, LOOP TO TST24B+1
  2102	032311	336 00 0 00 035623 		SKIPN	DZTIS		;SKIP IF INTERRUPT FLAG SET
  2103						ERROR	(TST24B+1,0,0,0,TX. DID NOT INTERRUPT,STAT1)^
  2104	032312	036 00 0 00 037707
  2105	032313	035 00 0 00 032263 		ERLOOP	TST24B+1		;IF ERROR, LOOP TO TST24B+1
  2106	032314	260 17 0 00 034635 	T24BB:	GO	ZSTAT		;CLEAR STATUS FLAGS
  2107	032315	201 00 0 00 000100 		MOVEI	0,RIE		;GET RX INT ENABLE BIT
  2108	032316	714 00 1 00 035606 		BSIO	0,@DZCSR	;ALLOW DZ11 RX. TO INTERRUPT
  2109	032317	201 13 0 00 000252 		MOVEI	13,252		;GET CHARACTER TO XMIT
  2110	032320	713 13 1 00 035620 		WRIO	13,@DZTDR	;XMIT A CHARACTER
  2111	032321	200 05 0 00 035167 		MOVE	5,SAVLIN	;GET LINE #
  2112	032322	242 05 0 00 000010 		LSH	5,10		;MOVE IT OVER
  2113	032323	660 05 0 00 100252 		TRO	5,100252	;ASSEMBLE CORRECT DATA IN AC 5
  2114									;LINE #,  VALID,  & CHARACTER
  2115	032324	335 00 0 00 035166 		SKIPGE	MODE		;IS DZ11 IN STAGGERED MODE?
  2116	032325	640 05 0 00 000400 		TRC	5,400		;YES! CHANGE RX LINE #
  2117	032326	135 07 0 00 037565 		LDB	IND,[POINT 4,PAR,27]
  2118	032327	200 00 0 07 035650 		MOVE	0,DLYTBL(IND)	;GET DELAY COUNT BASED ON LINE SPEED
  2119	032330	202 00 0 00 035236 		MOVEM	0,DLYCNT	;PUT IT WHERE DELAY ROUTINE CAN SEE IT
  2120	032331	260 17 0 00 034601 	TST24C:	GO	DELAY		;NO! WAIT FOR IT
  2121	032332	201 00 0 00 000200 		MOVEI	0,RDONE		;GET RX DONE BIT
  2122	032333	710 00 1 00 035606 		TIOE	0,@DZCSR	;IS CHAR. IN RX BUFFER
  2123	032334	254 00 0 00 032344 		JRST	TST24D		;YES! GO GET IT
  2124	032335	712 03 1 00 035301 		RDIO	3,@UBASR	;GET UNIBUS ADAPTER STATUS
  2125	032336	711 00 1 00 035606 		TION	0,@DZCSR	;CHAR. ARRIVE YET?
  2126						ERROR	(T24BB,0,0,0,AFTER XMITTING CHAR,RDONE DID NOT SET,STAT1)^
  2127	032337	036 00 0 00 037712
  2128	032340	035 00 0 00 032314 		ERLOOP	T24BB		;IF ERROR, LOOP TO T24BB
  2129	032341	336 00 0 00 035622 		SKIPN	DZRIS		;SKIP IF INTERRUPT FLAG SET
  2130						ERROR	(T24BB,0,0,0,RX. DID NOT INTERRUPT,STAT1)^
  2131	032342	036 00 0 00 037721
  2132	032343	035 00 0 00 032314 		ERLOOP	T24BB		;IF ERROR, LOOP TO T24BB
DECSYSTEM 2020 DZ11 ASYNC. LINE MUX DIAGNOSTIC VERSION  0,2	MACRO %53(1020) 13:21 22-May-79 Page 30
DSDZAM	MAC	22-May-79 13:21		DEVICE TESTS                                                                       SEQ 0075

  2133	032344	201 00 0 00 000100 	TST24D:	MOVEI	0,RIE		;GET RX. INT ENABLE BIT
  2134	032345	715 00 1 00 035606 		BCIO	0,@DZCSR	;DON'T LET DZ11 INT.
  2135	032346	200 04 0 00 035610 		MOVE	4,DZRBUF	;GET THE REG. ADDRESS FOR ERROR PRINTOUT
  2136	032347	712 06 1 00 035610 		RDIO	6,@DZRBUF	;GET THE CHARACTER
  2137	032350	712 03 1 00 035301 		RDIO	3,@UBASR	;GET UNIBUS ADAPTER STATUS
  2138	032351	505 06 0 00 000000 		HRLI	6,0		;GET RID OF GARBAGE
  2139	032352	332 00 0 00 035623 		SKIPE	DZTIS		;DID TX. INT. ?
  2140						ERROR	(T24BB,6,5,6,RX. INT.,TX. CAUSED INT.,STAT1)^
  2141	032353	036 06 0 00 037731
  2142	032354	035 00 0 00 032314 		ERLOOP	T24BB		;IF ERROR, LOOP TO T24BB
  2143	032355	332 00 0 00 035624 		SKIPE	VECERR		;DID IT GO THRU WRONG VECTOR
  2144						ERROR	(T24BB,6,5,6,RX. INT.,VIA WRONG VECTOR,STAT1)^
  2145	032356	036 06 0 00 037737
  2146	032357	035 00 0 00 032314 		ERLOOP	T24BB		;IF ERROR, LOOP TO T24BB
  2147	032360	312 06 0 00 000005 		CAME	6,5		;COMPARE CORRECT & ACTUAL
  2148						ERROR	(T24BB,6,5,6,RX STATUS NOT CORRECT,0,STAT1)^
  2149	032361	036 06 0 00 037742
  2150	032362	035 00 0 00 032314 		ERLOOP	T24BB		;IF ERROR, LOOP TO T24BB
  2151	032363	271 14 0 00 000001 		ADDI	14,1		;UPDATE INTERRUPT LEVEL
  2152	032364	305 14 0 00 000010 		CAIGE	14,10		;HAVE WE TRIED ALL LEVELS ?
  2153	032365	254 00 0 00 032263 		JRST	TST24B+1	;NO!  GO BACK FOR NEXT ONE
  2154	032366	715 01 1 00 035614 		BCIO	1,@DZTCR	;CLEAR THE LINE #
  2155	032367	254 00 0 00 032255 		JRST	TST24A+2	;GO CHECK FOR NEXT LINE
  2156	032370	700 14 0 00 010000 	TST24E:	WRPI	LPICLR		;CLEAR PI SYSTEM
  2157						LPTST^
  2158	032371	200 00 0 00 030046 		MOVE	0,CONSW		;GET SWITCHES
  2159	032372	602 00 0 00 000004 		TRNE	TSTLP		;LOOP ON TEST ?
  2160	032373	254 00 1 00 035674 		JRST	@$TSTNM		;YES!
DECSYSTEM 2020 DZ11 ASYNC. LINE MUX DIAGNOSTIC VERSION  0,2	MACRO %53(1020) 13:21 22-May-79 Page 31
DSDZAM	MAC	22-May-79 13:21		DEVICE TESTS                                                                       SEQ 0076

  2161
  2162					S^;*********************************************************************^
  2163					;* TEST 25 VERIFIES THAT DZ11 WILL NOT INTERRUPT WITH THE WRONG
  2164					;* PI ASSIGNMENT OR BR LEVEL.
  2165					S^;*********************************************************************^
  2166			037745		T=SIXBTZ <WRONG PI ASSIGNMENT TEST>^	[SIXBIT\WRONG PI ASSIGNMENT TEST_\]^
  2167
  2168	032374	201 00 0 00 032374 	TEST25:	MOVEI	0,TEST25	;GET RETURN ADDRESS
  2169	032375	202 00 0 00 035674 		MOVEM	0,$TSTNM	;STORE IT FOR LOOPING
  2170	032376	202 00 0 00 030051 		MOVEM	TESTPC		;STOR IT
  2171	032377	201 00 0 00 400000 		MOVEI	0,TIMOUT!	;GET TIMEOUT BIT FOR UNIBUS ADAPTER
  2172	032400	714 00 1 00 035301 		BSIO	0,@UBASR	;MAKE SURE IT'S OFF
  2173	032401	260 17 0 00 034604 		GO	SETMNT		;CLEAR DZ11 & SET MAINT. BIT (IF INTERNAL MODE)
  2174	032402	200 04 0 00 035606 		MOVE	4,DZCSR		;GET DZ11 REG. ADDRESS
  2175	032403	402 00 0 00 035167 		SETZM	SAVLIN		;INIT LINE NUMBER FOR ERROR CALL
  2176	032404	402 00 0 00 035237 		SETZM	PIREQ		;INIT STORAGE LOC. FOR PI REQUEST
  2177	032405	260 17 0 00 034550 		GO	LPREN		;SET PARAMETERS FOR ALL SELECTED LINES
  2178	032406	260 17 0 00 034612 		GO	MTSILO		;EMPTY THE SILO
  2179	032407	201 01 0 00 000001 		MOVEI	1,BIT0		;START WITH LINE 0
  2180	032410	201 00 0 00 000002 		MOVEI	0,1B34		;GET BIT USED FOR BR 6 OR 7
  2181	032411	612 00 0 00 035163 		TDNE	0,DZPRT		;SKIP IF BR LEVEL IS 5 OR 4
  2182	032412	260 17 0 00 034641 		GO	HIPIA		;GO SET UP FOR BR 7 OR 6
  2183	032413	332 00 0 00 035237 		SKIPE	PIREQ		;SKIPE IF BR 5 OR 4
  2184	032414	254 00 0 00 032423 		JRST	T25AB		;JUMP OVER BR 5 OR 4 PIA SET UP
  2185	032415	201 14 0 00 000100 		MOVEI	14,100		;GET HILIM FOR LOREQ PIA BIT
  2186	032416	202 14 0 00 035235 		MOVEM	14,HILIM	;STORE LIMIT COUNT (100)
  2187	032417	242 14 0 00 777775 		LSH	14,-3		;GET STARTING PIA (10)
  2188	032420	202 14 0 00 035234 		MOVEM	14,LOLIM	;STORE IT
  2189	032421	201 00 0 00 002000 		MOVEI	0,LOREQ		;GET BIT TO TEST
  2190	032422	202 00 0 00 035237 		MOVEM	0,PIREQ		;STORE IT
  2191	032423	200 00 0 00 037651 	T25AB:	MOVE	[JSR WRGVEC]	;GET ERROR POINTER
  2192	032424	202 00 0 00 035675 		MOVEM	VECTBL		;PUT IT IN VECTOR TABLE
  2193	032425	200 00 0 00 037652 		MOVE	[VECTBL,,VECTBL+1]
  2194	032426	251 00 0 00 036074 		BLT	VECTBL+^D127	;FILL "THE WHOLE THING"
  2195	032427	200 07 0 00 035162 		MOVE	IND,DZRIV	;GET RX. VECTOR
  2196	032430	242 07 0 00 777776 		LSH	IND,-2		;MAKE IT PDP-10 STYLE
  2197	032431	200 00 0 00 037653 		MOVE	0,[JSR RXINT]	;GET INT. HANDLER POINTER
  2198	032432	202 00 0 07 035675 		MOVEM	0,VECTBL(IND)	;STORE IT IN VECTOR TABLE
  2199	032433	200 00 0 00 037654 		MOVE	0,[JSR TXINT]	;GET TX. VECTOR
  2200	032434	271 07 0 00 000001 		ADDI	IND,1		;INDEX TO TX. VECTOR FOR THIS DZ11
  2201	032435	202 00 0 07 035675 		MOVEM	0,VECTBL(IND)	;STORE IT IN VECTOR TABLE
  2202	032436	700 14 0 00 002377 		WRPI	LPION!LCHNON!LPICHA
DECSYSTEM 2020 DZ11 ASYNC. LINE MUX DIAGNOSTIC VERSION  0,2	MACRO %53(1020) 13:21 22-May-79 Page 32
DSDZAM	MAC	22-May-79 13:21		DEVICE TESTS                                                                       SEQ 0077

  2203	032437	612 01 0 00 035164 	TST25A:	TDNE	1,LINE		;IS THIS A VALID LINE
  2204	032440	254 00 0 00 032446 		JRST	TST25B		;YES! TEST IT
  2205	032441	350 00 0 00 035167 		AOS	SAVLIN		;UPDATE LINE # FOR ERROR PRINTOUT
  2206	032442	242 01 0 00 000001 		LSH	1,1		;SELECT NEXT TX. LINE
  2207	032443	305 01 0 00 000400 		CAIGE	1,400		;HAVE WE TESTED ALL LINES?
  2208	032444	254 00 0 00 032437 		JRST	TST25A		;NO!  GO BACK FOR MORE
  2209	032445	254 00 0 00 032563 		JRST	TST25E		;YES! EXIT TEST
  2210	032446	713 14 1 00 035301 	TST25B:	WRIO	14,@UBASR	;SET PIA IN UBA STATUS REG.
  2211	032447	260 17 0 00 034635 		GO	ZSTAT		;CLEAR STATUS FLAGS
  2212	032450	713 01 1 00 035614 		WRIO	1,@DZTCR	;SELECT TX. LINE
  2213	032451	201 00 0 00 040040 		MOVEI	0,TIE!MSENAB	;ALLOW DZ11 TO INTERRUPT
  2214	032452	714 00 1 00 035606 		BSIO	0,@DZCSR	;CAUSE INTERRUPT
  2215	032453	201 00 0 00 000020 		MOVEI	0,20		;GET DELAY COUNT
  2216	032454	202 00 0 00 035236 		MOVEM	0,DLYCNT	;PUT IT WHERE DELAY ROUTINE CAN FIND IT
  2217	032455	260 17 0 00 034601 		GO	DELAY		;GO WASTE A LITTLE TIME
  2218	032456	332 00 0 00 035624 		SKIPE	VECERR		;WAS IT THE WRONG VECTOR ?
  2219						ERROR	(TST25B+1,0,0,0,TX INTERRUPT,WRONG VECTOR,STAT1)^
  2220	032457	036 00 0 00 037752
  2221	032460	035 00 0 00 032447 		ERLOOP	TST25B+1		;IF ERROR, LOOP TO TST25B+1
  2222	032461	332 00 0 00 035622 		SKIPE	DZRIS		;DID RX. INT. ?
  2223						ERROR	(TST25B+1,0,0,0,TX INTERRUPT,INT. WAS THRU RX VECTOR,STAT1)^
  2224	032462	036 00 0 00 037755
  2225	032463	035 00 0 00 032447 		ERLOOP	TST25B+1		;IF ERROR, LOOP TO TST25B+1
  2226	032464	332 00 0 00 035623 		SKIPE	DZTIS		;SKIP IF INTERRUPT FLAG NOT SET
  2227						ERROR	(TST25B+1,0,0,0,TX.INT. OCCURRED,WRONG BR LEVEL,STAT1)^
  2228	032465	036 00 0 00 037766
  2229	032466	035 00 0 00 032447 		ERLOOP	TST25B+1		;IF ERROR, LOOP TO TST25B+1
  2230	032467	201 00 0 00 100000 		MOVEI	0,TRDY		;GET TX READY BIT
  2231	032470	200 04 0 00 035606 		MOVE	4,DZCSR		;GET REG. ADDRESS
  2232	032471	712 03 1 00 035301 		RDIO	3,@UBASR	;GET UNIBUS ADAPTER STATUS
  2233	032472	712 06 1 00 035606 		RDIO	6,@DZCSR	;GET DZ11 STATUS
  2234	032473	711 00 1 00 035606 		TION	0,@DZCSR	;IS TX READY SET?
  2235						ERROR	(TST25B+1,0,0,0,TX. INT.,TRDY DID NOT SET,STAT1)^
  2236	032474	036 00 0 00 037771
  2237	032475	035 00 0 00 032447 		ERLOOP	TST25B+1		;IF ERROR, LOOP TO TST25B+1
  2238	032476	616 03 0 00 035237 		TDNN	3,PIREQ		;IS PROPER REQ SET ?
  2239						ERROR	(TST25B+1,0,0,0,TX ENABLED,PI REQ NOT SET,STAT1)^
  2240	032477	036 00 0 00 040001
  2241	032500	035 00 0 00 032447 		ERLOOP	TST25B+1		;IF ERROR, LOOP TO TST25B+1
  2242	032501	201 00 0 00 040000 		MOVEI	0,TIE		;GET INT. ENABLE BIT
  2243	032502	715 00 1 00 035606 		BCIO	0,@DZCSR	;DISMISS TX. INT. REQ.
DECSYSTEM 2020 DZ11 ASYNC. LINE MUX DIAGNOSTIC VERSION  0,2	MACRO %53(1020) 13:21 22-May-79 Page 33
DSDZAM	MAC	22-May-79 13:21		DEVICE TESTS                                                                       SEQ 0078

  2244	032503	260 17 0 00 034635 	T25BB:	GO	ZSTAT		;CLEAR STATUS FLAGS
  2245	032504	201 00 0 00 000100 		MOVEI	0,RIE		;GET RX INT ENABLE BIT
  2246	032505	714 00 1 00 035606 		BSIO	0,@DZCSR	;ALLOW DZ11 RX. TO INTERRUPT
  2247	032506	201 13 0 00 000252 		MOVEI	13,252		;GET CHARACTER TO XMIT
  2248	032507	713 13 1 00 035620 		WRIO	13,@DZTDR	;XMIT A CHARACTER
  2249	032510	200 05 0 00 035167 		MOVE	5,SAVLIN	;GET LINE #
  2250	032511	242 05 0 00 000010 		LSH	5,10		;MOVE IT OVER
  2251	032512	660 05 0 00 100252 		TRO	5,100252	;ASSEMBLE CORRECT DATA IN AC 5
  2252									;LINE #,  VALID,  & CHARACTER
  2253	032513	335 00 0 00 035166 		SKIPGE	MODE		;IS DZ11 IN STAGGERED MODE?
  2254	032514	640 05 0 00 000400 		TRC	5,400		;YES! CHANGE RX LINE #
  2255	032515	135 07 0 00 037565 		LDB	IND,[POINT 4,PAR,27]
  2256	032516	200 00 0 07 035650 		MOVE	0,DLYTBL(IND)	;GET DELAY COUNT BASED ON LINE SPEED
  2257	032517	202 00 0 00 035236 		MOVEM	0,DLYCNT	;PUT IT WHERE DELAY ROUTINE CAN SEE IT
  2258	032520	260 17 0 00 034601 	TST25C:	GO	DELAY		;NO! WAIT FOR IT
  2259	032521	201 00 0 00 000200 		MOVEI	0,RDONE		;GET RX DONE BIT
  2260	032522	710 00 1 00 035606 		TIOE	0,@DZCSR	;IS CHAR. IN RX BUFFER
  2261	032523	254 00 0 00 032530 		JRST	TST25D		;YES! GO GET IT
  2262	032524	712 03 1 00 035301 		RDIO	3,@UBASR	;GET UNIBUS ADAPTER STATUS
  2263	032525	711 00 1 00 035606 		TION	0,@DZCSR	;CHAR. ARRIVE YET?
  2264						ERROR	(T25BB,0,0,0,AFTER XMITTING CHAR,RDONE DID NOT SET,STAT1)^
  2265	032526	036 00 0 00 040004
  2266	032527	035 00 0 00 032503 		ERLOOP	T25BB		;IF ERROR, LOOP TO T25BB
  2267	032530	200 04 0 00 035610 	TST25D:	MOVE	4,DZRBUF	;GET THE REG. ADDRESS FOR ERROR PRINTOUT
  2268	032531	712 03 1 00 035301 		RDIO	3,@UBASR	;GET UNIBUS ADAPTER STATUS
  2269	032532	332 00 0 00 035623 		SKIPE	DZTIS		;DID TX. INT. ?
  2270						ERROR	(T25BB,6,5,6,RX. INT.,TX. CAUSED INT.,STAT1)^
  2271	032533	036 06 0 00 040007
  2272	032534	035 00 0 00 032503 		ERLOOP	T25BB		;IF ERROR, LOOP TO T25BB
  2273	032535	332 00 0 00 035624 		SKIPE	VECERR		;DID IT GO THRU WRONG VECTOR
  2274						ERROR	(T25BB,6,5,6,RX. INT.,VIA WRONG VECTOR,STAT1)^
  2275	032536	036 06 0 00 040012
  2276	032537	035 00 0 00 032503 		ERLOOP	T25BB		;IF ERROR, LOOP TO T25BB
  2277	032540	332 00 0 00 035622 		SKIPE	DZRIS		;DID RX. CAUSE INTERRUPT ?
  2278						ERROR	(T25BB,0,0,0,RX. INT. OCCURRED,WRONG BR LEVEL,STAT1)^
  2279	032541	036 00 0 00 040020
  2280	032542	035 00 0 00 032503 		ERLOOP	T25BB		;IF ERROR, LOOP TO T25BB
  2281	032543	616 03 0 00 035237 		TDNN	3,PIREQ		;IS PROPER REQ SET ?
  2282						ERROR	(T25BB,0,0,0,RX ENABLED,PI REQ NOT SET,STAT1)^
  2283	032544	036 00 0 00 040025
  2284	032545	035 00 0 00 032503 		ERLOOP	T25BB		;IF ERROR, LOOP TO T25BB
  2285	032546	712 06 1 00 035610 		RDIO	6,@DZRBUF	;GET THE CHARACTER
  2286	032547	505 06 0 00 000000 		HRLI	6,0		;GET RID OF GARBAGE
  2287	032550	312 06 0 00 000005 		CAME	6,5		;COMPARE CORRECT & ACTUAL
DECSYSTEM 2020 DZ11 ASYNC. LINE MUX DIAGNOSTIC VERSION  0,2	MACRO %53(1020) 13:21 22-May-79 Page 34
DSDZAM	MAC	22-May-79 13:21		DEVICE TESTS                                                                       SEQ 0079

  2288						ERROR	(T25BB,6,5,6,RX STATUS NOT CORRECT,0,STAT1)^
  2289	032551	036 06 0 00 040030
  2290	032552	035 00 0 00 032503 		ERLOOP	T25BB		;IF ERROR, LOOP TO T25BB
  2291	032553	201 00 0 00 000100 		MOVEI	0,RIE		;GET RX. INT ENABLE BIT
  2292	032554	715 00 1 00 035606 		BCIO	0,@DZCSR	;DISMISS RX. INT. REQ.
  2293	032555	270 14 0 00 035234 		ADD	14,LOLIM	;UPDATE INTERRUPT LEVEL
  2294	032556	312 14 0 00 035235 		CAME	14,HILIM	;HAVE WE TRIED ALL LEVELS ?
  2295	032557	254 00 0 00 032446 		JRST	TST25B		;NO!  GO BACK FOR NEXT ONE
  2296	032560	200 14 0 00 035234 		MOVE	14,LOLIM	;INIT. TO STARTING PIA FOR NEXT LINE
  2297	032561	715 01 1 00 035614 		BCIO	1,@DZTCR	;CLEAR THE LINE #
  2298	032562	254 00 0 00 032441 		JRST	TST25A+2	;GO CHECK FOR NEXT LINE
  2299	032563	700 14 0 00 010000 	TST25E:	WRPI	LPICLR		;CLEAR PI SYSTEM
  2300						LPTST^
  2301	032564	200 00 0 00 030046 		MOVE	0,CONSW		;GET SWITCHES
  2302	032565	602 00 0 00 000004 		TRNE	TSTLP		;LOOP ON TEST ?
  2303	032566	254 00 1 00 035674 		JRST	@$TSTNM		;YES!
DECSYSTEM 2020 DZ11 ASYNC. LINE MUX DIAGNOSTIC VERSION  0,2	MACRO %53(1020) 13:21 22-May-79 Page 35
DSDZAM	MAC	22-May-79 13:21		DEVICE TESTS                                                                       SEQ 0080

  2304
  2305					S^;*********************************************************************^
  2306					;* TEST 26 VERIFIES THAT THE RECEIVER INTERRUPT HAS PRIORITY
  2307					;* OVER THE TRANSMITTER INTERRUPT IF BOTH OCCUR AT THE SAME TIME.
  2308					S^;*********************************************************************^
  2309			040033		T=SIXBTZ <RX. INT. PRIORITY TEST>^	[SIXBIT\RX. INT. PRIORITY TEST_\]^
  2310
  2311	032567	201 00 0 00 032567 	TEST26:	MOVEI	0,TEST26	;GET RETURN ADDRESS
  2312	032570	202 00 0 00 035674 		MOVEM	0,$TSTNM	;STORE IT FOR LOOPING
  2313	032571	202 00 0 00 030051 		MOVEM	TESTPC		;STOR IT
  2314	032572	201 00 0 00 400000 		MOVEI	0,TIMOUT!	;GET TIMEOUT BIT FOR UNIBUS ADAPTER
  2315	032573	714 00 1 00 035301 		BSIO	0,@UBASR	;MAKE SURE IT'S OFF
  2316	032574	260 17 0 00 034604 		GO	SETMNT		;CLEAR DZ11 & SET MAINT. BIT (IF INTERNAL MODE)
  2317	032575	200 04 0 00 035606 		MOVE	4,DZCSR		;GET DZ11 REG. ADDRESS
  2318	032576	402 00 0 00 035167 		SETZM	SAVLIN		;INIT LINE NUMBER FOR ERROR CALL
  2319	032577	260 17 0 00 034550 		GO	LPREN		;SET PARAMETERS FOR ALL SELECTED LINES
  2320	032600	260 17 0 00 034612 		GO	MTSILO		;EMPTY THE SILO
  2321	032601	201 01 0 00 000001 		MOVEI	1,BIT0		;START WITH LINE 0
  2322	032602	200 00 0 00 037651 		MOVE	[JSR WRGVEC]	;GET ERROR POINTER
  2323	032603	202 00 0 00 035675 		MOVEM	VECTBL		;PUT IT IN VECTOR TABLE
  2324	032604	200 00 0 00 037652 		MOVE	[VECTBL,,VECTBL+1]
  2325	032605	251 00 0 00 036074 		BLT	VECTBL+^D127	;FILL "THE WHOLE THING"
  2326	032606	200 07 0 00 035162 		MOVE	IND,DZRIV	;GET RX. VECTOR
  2327	032607	242 07 0 00 777776 		LSH	IND,-2		;MAKE IT PDP-10 STYLE
  2328	032610	200 00 0 00 040037 		MOVE	0,[JSR RXPRI]	;GET INT. HANDLER POINTER
  2329	032611	202 00 0 07 035675 		MOVEM	0,VECTBL(IND)	;STORE IT IN VECTOR TABLE
  2330	032612	200 00 0 00 037654 		MOVE	0,[JSR TXINT]	;GET TX. VECTOR
  2331	032613	271 07 0 00 000001 		ADDI	IND,1		;INDEX TO TX. VECTOR FOR THIS DZ11
  2332	032614	202 00 0 07 035675 		MOVEM	0,VECTBL(IND)	;STORE IT IN VECTOR TABLE
  2333	032615	700 14 0 00 002377 		WRPI	LPION!LCHNON!LPICHA
  2334	032616	612 01 0 00 035164 	TST26A:	TDNE	1,LINE		;IS THIS A VALID LINE
  2335	032617	254 00 0 00 032625 		JRST	TST26B		;YES! TEST IT
  2336	032620	350 00 0 00 035167 		AOS	SAVLIN		;UPDATE LINE # FOR ERROR PRINTOUT
  2337	032621	242 01 0 00 000001 		LSH	1,1		;SELECT NEXT TX. LINE
  2338	032622	305 01 0 00 000400 		CAIGE	1,400		;HAVE WE TESTED ALL LINES?
  2339	032623	254 00 0 00 032616 		JRST	TST26A		;NO!  GO BACK FOR MORE
  2340	032624	254 00 0 00 032715 		JRST	TST26E		;YES! EXIT TEST
  2341	032625	201 14 0 00 000001 	TST26B:	MOVEI	14,1		;GET PI ASSIGNMENT FOR UBA
  2342	032626	713 14 1 00 035301 		WRIO	14,@UBASR	;PUT IT IN UBA STATUS REG.
  2343	032627	260 17 0 00 034635 		GO	ZSTAT		;CLEAR STATUS FLAGS
  2344	032630	713 01 1 00 035614 		WRIO	1,@DZTCR	;SELECT TX. LINE
  2345	032631	201 00 0 00 000040 		MOVEI	0,MSENAB	;GET SCAN ENABLE BIT
  2346	032632	714 00 1 00 035606 		BSIO	0,@DZCSR	;START SCANNER
  2347	032633	201 00 0 00 000020 		MOVEI	0,20		;GET DELAY COUNT
  2348	032634	202 00 0 00 035236 		MOVEM	0,DLYCNT	;PUT IT WHERE DELAY ROUTINE CAN FIND IT
  2349	032635	260 17 0 00 034601 		GO	DELAY		;GO WASTE A LITTLE TIME
  2350	032636	201 00 0 00 100000 		MOVEI	0,TRDY		;GET TX READY BIT
  2351	032637	200 04 0 00 035606 		MOVE	4,DZCSR		;GET REG. ADDRESS
  2352	032640	712 03 1 00 035301 		RDIO	3,@UBASR	;GET UNIBUS ADAPTER STATUS
  2353	032641	711 00 1 00 035606 		TION	0,@DZCSR	;IS TX READY SET?
  2354						ERROR	(TST26B+1,0,0,0,TX. INT.,TRDY DID NOT SET,STAT1)^
  2355	032642	036 00 0 00 040040
  2356	032643	035 00 0 00 032626 		ERLOOP	TST26B+1		;IF ERROR, LOOP TO TST26B+1
DECSYSTEM 2020 DZ11 ASYNC. LINE MUX DIAGNOSTIC VERSION  0,2	MACRO %53(1020) 13:21 22-May-79 Page 36
DSDZAM	MAC	22-May-79 13:21		DEVICE TESTS                                                                       SEQ 0081

  2357	032644	201 13 0 00 000252 	T26BB:	MOVEI	13,252		;GET CHARACTER TO XMIT
  2358	032645	713 13 1 00 035620 		WRIO	13,@DZTDR	;XMIT A CHARACTER
  2359	032646	200 05 0 00 035167 		MOVE	5,SAVLIN	;GET LINE #
  2360	032647	242 05 0 00 000010 		LSH	5,10		;MOVE IT OVER
  2361	032650	660 05 0 00 100252 		TRO	5,100252	;ASSEMBLE CORRECT DATA IN AC 5
  2362									;LINE #,  VALID,  & CHARACTER
  2363	032651	335 00 0 00 035166 		SKIPGE	MODE		;IS DZ11 IN STAGGERED MODE?
  2364	032652	640 05 0 00 000400 		TRC	5,400		;YES! CHANGE RX LINE #
  2365	032653	135 07 0 00 037565 		LDB	IND,[POINT 4,PAR,27]
  2366	032654	200 00 0 07 035650 		MOVE	0,DLYTBL(IND)	;GET DELAY COUNT BASED ON LINE SPEED
  2367	032655	202 00 0 00 035236 		MOVEM	0,DLYCNT	;PUT IT WHERE DELAY ROUTINE CAN SEE IT
  2368	032656	260 17 0 00 034601 	TST26C:	GO	DELAY		;NO! WAIT FOR IT
  2369	032657	201 00 0 00 000200 		MOVEI	0,RDONE		;GET RX DONE BIT
  2370	032660	710 00 1 00 035606 		TIOE	0,@DZCSR	;IS CHAR. IN RX BUFFER
  2371	032661	254 00 0 00 032666 		JRST	TST26D		;YES! GO GET IT
  2372	032662	712 03 1 00 035301 		RDIO	3,@UBASR	;GET UNIBUS ADAPTER STATUS
  2373	032663	711 00 1 00 035606 		TION	0,@DZCSR	;CHAR. ARRIVE YET?
  2374						ERROR	(T26BB,0,0,0,AFTER XMITTING CHAR,RDONE DID NOT SET,STAT1)^
  2375	032664	036 00 0 00 040043
  2376	032665	035 00 0 00 032644 		ERLOOP	T26BB		;IF ERROR, LOOP TO T26BB
  2377	032666	201 00 0 00 040100 	TST26D:	MOVEI	0,RIE!TIE	;GET RX. TX. INT ENABLE BITS
  2378	032667	714 00 1 00 035606 		BSIO	0,@DZCSR	;LET THE DZ11 INT.
  2379	032670	200 04 0 00 035610 		MOVE	4,DZRBUF	;GET THE REG. ADDRESS FOR ERROR PRINTOUT
  2380	032671	201 00 0 00 000010 		MOVEI	0,10		;GET A DELAY COUNT
  2381	032672	202 00 0 00 035236 		MOVEM	0,DLYCNT	;PUT IT WHERE DELAY ROUTINE CAN SEE IT
  2382	032673	260 17 0 00 034601 		GO DELAY		;WAIT FOR INTERRUPT TO HAPPEN
  2383	032674	332 00 0 00 035623 		SKIPE	DZTIS		;DID TX. INT. ?
  2384						ERROR	(T26BB,0,0,0,RX. & TX. ENABLED,TX. CAUSED INT.,STAT1)^
  2385	032675	036 00 0 00 040051
  2386	032676	035 00 0 00 032644 		ERLOOP	T26BB		;IF ERROR, LOOP TO T26BB
  2387	032677	332 00 0 00 035624 		SKIPE	VECERR		;DID IT GO THRU WRONG VECTOR
  2388						ERROR	(T26BB,0,0,0,RX. & TX. ENABLED,INT. VIA WRONG VECTOR,STAT1)^
  2389	032700	036 00 0 00 040060
  2390	032701	035 00 0 00 032644 		ERLOOP	T26BB		;IF ERROR, LOOP TO T26BB
  2391	032702	505 06 0 00 000000 		HRLI	6,0		;CLEAR THE GARBAGE
  2392	032703	312 06 0 00 000005 		CAME	6,5		;COMPARE CORRECT & ACTUAL
  2393						ERROR	(T26BB,6,5,6,RX STATUS NOT CORRECT,0,STAT1)^
  2394	032704	036 06 0 00 040063
  2395	032705	035 00 0 00 032644 		ERLOOP	T26BB		;IF ERROR, LOOP TO T26BB
  2396	032706	201 00 0 00 040100 		MOVEI	0,RIE!TIE	;GET INT. ENABLE BITS
  2397	032707	715 00 1 00 035606 		BCIO	0,@DZCSR	;DON'T ALLOW DZ11 TO INTERRUPT
  2398	032710	271 14 0 00 000001 		ADDI	14,1		;UPDATE INTERRUPT LEVEL
  2399	032711	305 14 0 00 000010 		CAIGE	14,10		;HAVE WE TRIED ALL LEVELS ?
  2400	032712	254 00 0 00 032626 		JRST	TST26B+1	;NO!  GO BACK FOR NEXT ONE
  2401	032713	715 01 1 00 035614 		BCIO	1,@DZTCR	;CLEAR THE LINE #
  2402	032714	254 00 0 00 032620 		JRST	TST26A+2	;GO CHECK FOR NEXT LINE
  2403	032715	700 14 0 00 010000 	TST26E:	WRPI	LPICLR		;CLEAR PI SYSTEM
  2404						LPTST^
  2405	032716	200 00 0 00 030046 		MOVE	0,CONSW		;GET SWITCHES
  2406	032717	602 00 0 00 000004 		TRNE	TSTLP		;LOOP ON TEST ?
  2407	032720	254 00 1 00 035674 		JRST	@$TSTNM		;YES!
DECSYSTEM 2020 DZ11 ASYNC. LINE MUX DIAGNOSTIC VERSION  0,2	MACRO %53(1020) 13:21 22-May-79 Page 37
DSDZAM	MAC	22-May-79 13:21		DEVICE TESTS                                                                       SEQ 0082

  2408
  2409					S^;*********************************************************************^
  2410					;* TEST 27 VERIFIES SILO ALARM AND OVERRUN CONDITIONS WORK.  AS EACH OF
  2411					;* THE FIRST 16 CHARACTERS ARE SENT, SILO ALARM IS CHECKED TO BE OFF,
  2412					;* ON THE 16TH CHAR. SILO ALARM SHOULD SET.  THEN THE ENTIRE SILO IS
  2413					;* FILLED AND AN OVERRUN IS EXPECTED ON THE 65TH CHAR. READ FROM THE SILO
  2414					S^;*********************************************************************^
  2415			040066		T=SIXBTZ <OVERRUN/SILO ALARM TEST>^	[SIXBIT\OVERRUN/SILO ALARM TEST_\]^
  2416
  2417	032721	201 00 0 00 032721 	TEST27:	MOVEI	0,TEST27	;GET RETURN ADDRESS
  2418	032722	202 00 0 00 035674 		MOVEM	0,$TSTNM	;STORE IT FOR LOOPING
  2419	032723	202 00 0 00 030051 		MOVEM	TESTPC		;STOR IT
  2420	032724	260 17 0 00 034604 		GO	SETMNT		;GO CLEAR DZ11 & SET MAINT. BIT (IF INTERNAL MODE)
  2421	032725	260 17 0 00 034550 		GO	LPREN		;SET PARAMETERS FOR ALL SELECTED LINES
  2422	032726	260 17 0 00 034612 		GO	MTSILO		;EMPTY THE SILO
  2423	032727	402 00 0 00 035167 		SETZM	SAVLIN		;INIT. LINE # FOR ERROR PRINTOUTS
  2424	032730	201 01 0 00 000001 		MOVEI	1,BIT0		;START WITH LINE 0
  2425	032731	201 00 0 00 010040 		MOVEI	0,MSENAB!SILOEN	;GET MASTER SCAN ENABLE BIT
  2426	032732	714 00 1 00 035606 		BSIO	0,@DZCSR	;START SCANNER
  2427	032733	612 01 0 00 035164 	TST27A:	TDNE	1,LINE		;IS THIS A VALID LINE?
  2428	032734	254 00 0 00 032742 		JRST	TST27B		;YES!  TEST IT
  2429	032735	350 00 0 00 035167 		AOS	SAVLIN		;UPDATE LINE # FOR ERROR PRINTOUT
  2430	032736	242 01 0 00 000001 		LSH	1,1		;SELECT NEXT TX. LINE
  2431	032737	305 01 0 00 000400 		CAIGE	1,400		;HAVE WE TESTED ALL LINES?
  2432	032740	254 00 0 00 032733 		JRST	TST27A		;NO!  GO BACK FOR MORE
  2433	032741	254 00 0 00 033041 		JRST	TST27E		;YES!  EXIT TEST
  2434	032742	402 00 0 00 000013 	TST27B:	SETZM	13		;INIT AC FOR CHARACTER TRANSMISSION
  2435	032743	713 01 1 00 035614 		WRIO	1,@DZTCR	;SELECT TX. LINE
  2436	032744	201 00 0 00 000010 		MOVEI	0,10		;GET DELAY COUNT
  2437	032745	202 00 0 00 035236 		MOVEM	0,DLYCNT	;PUT IT WHERE DELAY ROUTINE CAN FIND IT
  2438	032746	260 17 0 00 034601 		GO	DELAY		;GO WASTE A LITTLE TIME
  2439	032747	201 00 0 00 100000 	TXCH:	MOVEI	0,TRDY		;GET TX. READY BIT
  2440	032750	200 04 0 00 035606 		MOVE	4,DZCSR		;GET REG. ADDRESS
  2441	032751	712 03 1 00 035301 		RDIO	3,@UBASR	;GET UNIBUS ADAPTER STATUS
  2442	032752	711 00 1 00 035606 		TION	0,@DZCSR	;IS TX. READY SET?
  2443						ERROR	(TST27B,0,0,0,XMIT OF CHAR.,TRDY DID NOT SET,STAT1)^
  2444	032753	036 00 0 00 040072
  2445	032754	035 00 0 00 032742 		ERLOOP	TST27B		;IF ERROR, LOOP TO TST27B
  2446	032755	271 13 0 00 000001 		ADDI	13,1		;START WITH THIS CHAR.
  2447	032756	713 13 1 00 035620 		WRIO	13,@DZTDR	;XMIT CHARACTER
  2448	032757	135 07 0 00 037565 		LDB	IND,[POINT 4,PAR,27]
  2449	032760	200 00 0 07 035650 		MOVE	0,DLYTBL(IND)	;GET DELAY COUNT BASED ON LINE SPEED
  2450	032761	202 00 0 00 035236 		MOVEM	0,DLYCNT	;PUT IT WHERE DELAY ROUTINE CAN SEE IT
  2451	032762	260 17 0 00 034601 		GO	DELAY		;WAIT FOR CHAR. TO REACH SILO
  2452	032763	301 13 0 00 000020 		CAIL	13,^D16		;HAVE WE REACHED 16TH CHAR.?
  2453	032764	254 00 0 00 032772 		JRST	TXCH1		;YES! SILO ALARM SHOULD BE SET
  2454	032765	201 00 0 00 020000 		MOVEI	0,SILOAL	;GET STATUS BIT
  2455	032766	710 00 1 00 035606 		TIOE	0,@DZCSR	;SKIP IF IT'S CLEAR
DECSYSTEM 2020 DZ11 ASYNC. LINE MUX DIAGNOSTIC VERSION  0,2	MACRO %53(1020) 13:21 22-May-79 Page 38
DSDZAM	MAC	22-May-79 13:21		DEVICE TESTS                                                                       SEQ 0083

  2456						ERROR	(TXCH,0,0,0,TX OF 1ST THRU 15TH CHAR.,SILO ALARM SET,STAT1)^
  2457	032767	036 00 0 00 040105
  2458	032770	035 00 0 00 032747 		ERLOOP	TXCH		;IF ERROR, LOOP TO TXCH
  2459	032771	254 00 0 00 032747 		JRST	TXCH		;SEND ANOTHER CHARACTER.
  2460	032772	201 00 0 00 020000 	TXCH1:	MOVEI	0,SILOAL	;GET STATUS BIT
  2461	032773	711 00 1 00 035606 		TION	0,@DZCSR	;SKIP IF IT'S SET
  2462						ERROR	(TXCH,0,0,0,TX OF 16TH THRU 65TH CHAR,SILO ALARM NOT SET,STAT1)^
  2463	032774	036 00 0 00 040121
  2464	032775	035 00 0 00 032747 		ERLOOP	TXCH		;IF ERROR, LOOP TO TXCH
  2465	032776	305 13 0 00 000102 		CAIGE	13,^D66		;HAVE WE REACHED OVERRUN YET?
  2466	032777	254 00 0 00 032747 		JRST	TXCH		;GO BACK FOR MORE
  2467	033000	200 05 0 00 035167 		MOVE	5,SAVLIN	;GET LINE #
  2468	033001	242 05 0 00 000010 		LSH	5,10		;PUT IT IN PROPER PLACE
  2469	033002	271 05 0 00 000001 		ADDI	5,1		;LOAD CHAR. INTO AC 5
  2470	033003	660 05 0 00 100000 		TRO	5,100000	;SET DATA VALID BIT
  2471	033004	335 00 0 00 035166 		SKIPGE	MODE		;IS DZ11 IN STAGGERED MODE?
  2472	033005	640 05 0 00 000400 		TRC	5,400		;YES!  CHANGE RX. LINE #
  2473	033006	200 04 0 00 035610 	TST27D:	MOVE	4,DZRBUF	;GET REG. ADDRESS FOR ERROR PRINTOUT
  2474	033007	712 06 1 00 035610 		RDIO	6,@DZRBUF	;GET THE CHARACTER
  2475	033010	712 03 1 00 035301 		RDIO	3,@UBASR	;GET UNIBUS ADAPTER STATUS
  2476	033011	505 06 0 00 000000 		HRLI	6,0		;GET RID OF GARBAGE
  2477	033012	312 06 0 00 000005 		CAME	6,5		;COMPARE CORRECT & ACTUAL
  2478						ERROR	(TST27D,6,5,6,RX STATUS NOT CORRECT, ,STAT1)^
  2479	033013	036 06 0 00 040124
  2480	033014	035 00 0 00 033006 		ERLOOP	TST27D		;IF ERROR, LOOP TO TST27D
  2481	033015	712 06 1 00 035606 		RDIO	6,@DZCSR	;GET THE DZ11 STATUS
  2482	033016	201 00 0 00 020000 		MOVEI	0,SILOAL	;GET STATUS BIT
  2483	033017	710 00 1 00 035606 		TIOE	0,@DZCSR	;SILO ALARM = 0 ?
  2484						ERROR	(TST27D,6,5,6,READING DZRBUF,SILO ALARM DID NOT CLEAR,STAT1)^
  2485	033020	036 06 0 00 040137
  2486	033021	035 00 0 00 033006 		ERLOOP	TST27D		;IF ERROR, LOOP TO TST27D
  2487	033022	271 05 0 00 000001 		ADDI	5,1		;NEXT CHARACTER
  2488	033023	360 13 0 00 000000 		SOJ	13,		;DOWNCOUNT THE XMITTED CHARACTERS
  2489	033024	303 13 0 00 000002 		CAILE	13,2		;64TH CHARACTER YET ?
  2490	033025	254 00 0 00 033006 		JRST	TST27D		;NO! GO GET ANOTHER
  2491	033026	302 13 0 00 000002 		CAIE	13,2		;IF 64TH ALLOW FOR CLOBBERED CHARACTER
  2492	033027	254 00 0 00 033033 		JRST	CH65		;IF 65TH GO GET IT
  2493	033030	271 05 0 00 000001 		ADDI	5,1		;NEXT CHARACTER
  2494	033031	660 05 0 00 040000 		TRO	5,OVRRUN	;SHOULD HAVE OVERRUN SET
  2495	033032	254 00 0 00 033006 		JRST	TST27D		;GO BACK AND GET IT
  2496	033033	712 06 1 00 035610 	CH65:	RDIO	6,@DZRBUF	;SILO SHOULD BE EMPTY
  2497	033034	602 06 0 00 100000 		TRNE	6,DVALID	;IS THIS A VALID CHARACTER?
  2498						ERROR	(CH65,6,0,6,READING TOO MANY CHARACTERS,DATA VALID DID NOT CLEAR,STAT1)^
  2499	033035	036 06 0 00 040154
  2500	033036	035 00 0 00 033033 		ERLOOP	CH65		;IF ERROR, LOOP TO CH65
  2501	033037	715 01 1 00 035614 		BCIO	1,@DZTCR	;CLEAR TX. LINE #
  2502	033040	254 00 0 00 032735 		JRST	TST27A+2	;GO CHECK FOR NEXT LINE
  2503	033041				TST27E:	LPTST^
  2504	033041	200 00 0 00 030046 		MOVE	0,CONSW		;GET SWITCHES
  2505	033042	602 00 0 00 000004 		TRNE	TSTLP		;LOOP ON TEST ?
  2506	033043	254 00 1 00 035674 		JRST	@$TSTNM		;YES!
DECSYSTEM 2020 DZ11 ASYNC. LINE MUX DIAGNOSTIC VERSION  0,2	MACRO %53(1020) 13:21 22-May-79 Page 39
DSDZAM	MAC	22-May-79 13:21		DEVICE TESTS                                                                       SEQ 0084

  2507
  2508					S^;*********************************************************************^
  2509					;* TEST30 VERIFIES THAT "SILO ENABLE" WILL INHIBIT RECEIVER INTERRUPTS
  2510					;* FOR THE FIRST 15 CHARACTERS  RECEIVED AND THAT THE 16TH CHARACTER
  2511					;* WILL CAUSE AN INTERRUPT.
  2512					S^;*********************************************************************^
  2513			040157		T=SIXBTZ <SILO ALARM INTERRUPT TEST>^	[SIXBIT\SILO ALARM INTERRUPT TEST_\]^
  2514
  2515	033044	201 00 0 00 033044 	TEST30:	MOVEI	0,TEST30	;GET RETURN ADDRESS
  2516	033045	202 00 0 00 030051 		MOVEM	TESTPC		;STOR IT
  2517	033046	202 00 0 00 035674 		MOVEM	0,$TSTNM	;STORE IT FOR LOOPING
  2518	033047	260 17 0 00 034635 		GO ZSTAT		;CLEAR STATUS FLAGS
  2519	033050	200 07 0 00 035162 		MOVE	IND,DZRIV	;GET RX. INT. VECTOR
  2520	033051	242 07 0 00 777776 		LSH	IND,-2		;MAKE IT PDP-10 STYLE
  2521	033052	200 00 0 00 037653 		MOVE	0,[JSR RXINT]	;GET INT. HANDLER DISPATCH
  2522	033053	202 00 0 07 035675 		MOVEM	0,VECTBL(IND)	;PUT IT IN DISPATCH TABLE
  2523	033054	201 01 0 00 000001 		MOVEI	1,1		;GET PIA FOR UNIBUS ADAPTER
  2524	033055	201 00 0 00 000002 		MOVEI	0,1B34		;GET BIT USED FOR BR 6 OR 7
  2525	033056	612 00 0 00 035163 		TDNE	0,DZPRT		;SKIP IF BR LEVEL 5 OR 4
  2526	033057	242 01 0 00 000003 		LSH	1,3		;MAKE IT HI PIA REQUEST
  2527	033060	713 01 1 00 035301 		WRIO	1,@UBASR	;ENABLE THE UNIBUS ADAPTER
  2528	033061	402 00 0 00 035167 		SETZM	SAVLIN		;INIT. LINE # FOR ERROR PRINTOUTS
  2529	033062	260 17 0 00 034604 		GO	SETMNT		;GO CLEAR DZ11 & SET MAINT. BIT (IF INTERNAL MODE)
  2530	033063	260 17 0 00 034550 		GO	LPREN		;SET PARAMETERS FOR ALL SELECTED LINES
  2531	033064	260 17 0 00 034612 		GO	MTSILO		;EMPTY THE SILO
  2532	033065	201 01 0 00 000001 		MOVEI	1,BIT0		;START WITH LINE 0
  2533	033066	700 14 0 00 002300 		WRPI	LPION!LCHNON!LPICH1
  2534	033067	201 00 0 00 010140 		MOVEI	0,MSENAB!SILOEN!RIE
  2535	033070	714 00 1 00 035606 		BSIO	0,@DZCSR	;START SCANNER
  2536	033071	612 01 0 00 035164 	TST30A:	TDNE	1,LINE		;IS THIS A VALID LINE?
  2537	033072	254 00 0 00 033100 		JRST	TST30B		;YES!  TEST IT
  2538	033073	350 00 0 00 035167 		AOS	SAVLIN		;UPDATE LINE # FOR ERROR PRINTOUT
  2539	033074	242 01 0 00 000001 		LSH	1,1		;SELECT NEXT TX. LINE
  2540	033075	305 01 0 00 000400 		CAIGE	1,400		;HAVE WE TESTED ALL LINES?
  2541	033076	254 00 0 00 033071 		JRST	TST30A		;NO!  GO BACK FOR MORE
  2542	033077	254 00 0 00 033145 		JRST	TST30E		;YES!  EXIT TEST
  2543	033100	712 06 1 00 035610 	TST30B:	RDIO	6,@DZRBUF	;READ THE SILO
  2544	033101	602 06 0 00 100000 		TRNE	6,DVALID	;IS IT A VALID CHARACTER ?
  2545	033102	254 00 0 00 033100 		JRST	TST30B		;GO BACK UNTIL IT'S EMPTY
  2546	033103	402 00 0 00 000013 		SETZM	13		;INIT AC FOR CHARACTER TRANSMISSION
  2547	033104	713 01 1 00 035614 		WRIO	1,@DZTCR	;SELECT TX. LINE
  2548	033105	201 00 0 00 000010 		MOVEI	0,10		;GET DELAY COUNT
  2549	033106	202 00 0 00 035236 		MOVEM	0,DLYCNT	;PUT IT WHERE DELAY ROUTINE CAN FIND IT
  2550	033107	260 17 0 00 034601 		GO	DELAY		;GO WASTE A LITTLE TIME
  2551	033110	201 00 0 00 100000 	SDCH:	MOVEI	0,TRDY		;GET TX. READY BIT
  2552	033111	200 04 0 00 035606 		MOVE	4,DZCSR		;GET REG. ADDRESS
  2553	033112	712 03 1 00 035301 		RDIO	3,@UBASR	;GET UNIBUS ADAPTER STATUS
  2554	033113	711 00 1 00 035606 		TION	0,@DZCSR	;IS TX. READY SET?
DECSYSTEM 2020 DZ11 ASYNC. LINE MUX DIAGNOSTIC VERSION  0,2	MACRO %53(1020) 13:21 22-May-79 Page 40
DSDZAM	MAC	22-May-79 13:21		DEVICE TESTS                                                                       SEQ 0085

  2555						ERROR	(TST30B,0,0,0,XMIT OF CHAR.,TRDY DID NOT SET,STAT1)^
  2556	033114	036 00 0 00 040164
  2557	033115	035 00 0 00 033100 		ERLOOP	TST30B		;IF ERROR, LOOP TO TST30B
  2558	033116	271 13 0 00 000001 		ADDI	13,1		;START WITH THIS CHAR.
  2559	033117	713 13 1 00 035620 		WRIO	13,@DZTDR	;XMIT CHARACTER
  2560	033120	135 07 0 00 037565 		LDB	IND,[POINT 4,PAR,27]
  2561	033121	200 00 0 07 035650 		MOVE	0,DLYTBL(IND)	;GET DELAY COUNT BASED ON LINE SPEED
  2562	033122	202 00 0 00 035236 		MOVEM	0,DLYCNT	;PUT IT WHERE DELAY ROUTINE CAN SEE IT
  2563	033123	260 17 0 00 034601 		GO	DELAY		;WAIT FOR CHAR. TO REACH SILO
  2564	033124	301 13 0 00 000020 		CAIL	13,^D16		;HAVE WE REACHED 16TH CHAR.?
  2565	033125	254 00 0 00 033133 		JRST	SDCH1		;YES!
  2566	033126	201 00 0 00 020000 		MOVEI	0,SILOAL	;GET STATUS BIT
  2567	033127	710 00 1 00 035606 		TIOE	0,@DZCSR	;SKIP IF IT'S CLEAR
  2568						ERROR	(TST30B,0,0,0,TX OF 1ST THRU 15TH CHAR.,SILO ALARM SET,STAT1)^
  2569	033130	036 00 0 00 040167
  2570	033131	035 00 0 00 033100 		ERLOOP	TST30B		;IF ERROR, LOOP TO TST30B
  2571	033132	254 00 0 00 033110 		JRST	SDCH		;SEND ANOTHER CHARACTER.
  2572	033133	201 00 0 00 020000 	SDCH1:	MOVEI	0,SILOAL	;GET STATUS BIT
  2573	033134	711 00 1 00 035606 		TION	0,@DZCSR	;SKIP IF IT'S SET
  2574						ERROR	(TST30B,0,0,0,TX OF 16TH CHAR,SILO ALARM NOT SET,STAT1)^
  2575	033135	036 00 0 00 040175
  2576	033136	035 00 0 00 033100 		ERLOOP	TST30B		;IF ERROR, LOOP TO TST30B
  2577	033137	336 00 0 00 035622 		SKIPN	DZRIS		;DID INT. OCCUR ?
  2578						ERROR	(TST30B,0,0,0,TX OF 16TH CHAR,INTERRUPT DID NOT OCCUR,STAT1)^
  2579	033140	036 00 0 00 040204
  2580	033141	035 00 0 00 033100 		ERLOOP	TST30B		;IF ERROR, LOOP TO TST30B
  2581	033142	402 00 0 00 035622 		SETZM	DZRIS		;CLEAR INT STATUS FLAG
  2582	033143	715 01 1 00 035614 		BCIO	1,@DZTCR	;CLEAR TX. LINE #
  2583	033144	254 00 0 00 033073 		JRST	TST30A+2	;GO CHECK FOR NEXT LINE
  2584	033145	700 14 0 00 010000 	TST30E:	WRPI	LPICLR		;CLEAR THE PI SYSTEM
  2585						LPTST^
  2586	033146	200 00 0 00 030046 		MOVE	0,CONSW		;GET SWITCHES
  2587	033147	602 00 0 00 000004 		TRNE	TSTLP		;LOOP ON TEST ?
  2588	033150	254 00 1 00 035674 		JRST	@$TSTNM		;YES!
DECSYSTEM 2020 DZ11 ASYNC. LINE MUX DIAGNOSTIC VERSION  0,2	MACRO %53(1020) 13:21 22-May-79 Page 41
DSDZAM	MAC	22-May-79 13:21		DEVICE TESTS                                                                       SEQ 0086

  2589
  2590					S^;*********************************************************************^
  2591					;* TEST 31 RUNS ALL SELECTED LINES FULL BORE.  THIS IS AN INTERRUPT
  2592					;* DRIVEN TEST FOR BOTH RECEIVER AND TRANSMITTER.
  2593					S^;*********************************************************************^
  2594			040207		T=SIXBTZ <TX. & RX. INT.TEST>^	[SIXBIT\TX. & RX. INT.TEST_\]^
  2595
  2596	033151	201 00 0 00 033151 	TEST31:	MOVEI	0,TEST31	;GET RETURN ADDRESS
  2597	033152	202 00 0 00 030051 		MOVEM	TESTPC		;STOR IT
  2598	033153	202 00 0 00 035674 		MOVEM	0,$TSTNM	;STORE IT FOR LOOPING ON TEST
  2599	033154	201 00 0 00 000031 		MOVEI	0,31		;GET TEST #
  2600	033155	202 00 0 00 035670 		MOVEM	0,$TMP0		;STORE IT FOR ERROR PRINTOUT
  2601	033156	260 17 0 00 034635 		GO ZSTAT		;CLEAR STATUS FLAGS
  2602						CLEAR	(RXCSR,^D15)^
  2603	033157	402 00 0 00 035141 		SETZM	RXCSR		;CLEAR 1ST LOC. OF TABLE
  2604	033160	200 00 0 00 040213 		MOVE	[RXCSR,,RXCSR+1]
  2605	033161	251 00 0 00 035160 		BLT	RXCSR+^D15	;CLEAR ENTIRE TABLE
  2606	033162	200 00 0 00 040214 		MOVE	0,[-^D4,,0]	;GET LONG COUNT
  2607	033163	202 00 0 00 035236 		MOVEM	DLYCNT		;STORE
  2608	033164	200 07 0 00 035162 		MOVE	IND,DZRIV	;GET RX. INT. VECTOR
  2609	033165	242 07 0 00 777776 		LSH	IND,-2		;MAKE IT PDP-10 STYLE
  2610	033166	200 00 0 00 040215 		MOVE	0,[JSR RXSER]	;GET INT. HANDLER DISPATCH
  2611	033167	202 00 0 07 035675 		MOVEM	0,VECTBL(IND)	;PUT IT IN DISPATCH TABLE
  2612	033170	200 00 0 00 040216 		MOVE	0,[JSR TXSER]	;GET TX. VECTOR
  2613	033171	271 07 0 00 000001 		ADDI	IND,1		;INDEX TO TX. VECTOR FOR THIS DZ11
  2614	033172	202 00 0 07 035675 		MOVEM	0,VECTBL(IND)	;STORE IT IN VECTOR TABLE
  2615	033173	201 01 0 00 000001 		MOVEI	1,1		;GET PIA FOR UNIBUS ADAPTER
  2616	033174	201 00 0 00 000002 		MOVEI	0,1B34		;GET BIT USED FOR BR 6 OR 7
  2617	033175	612 00 0 00 035163 		TDNE	0,DZPRT		;SKIP IF BR LEVEL 5 OR 4
  2618	033176	242 01 0 00 000003 		LSH	1,3		;MAKE IT HI PIA REQUEST
  2619	033177	713 01 1 00 035301 		WRIO	1,@UBASR	;ENABLE THE UNIBUS ADAPTER
  2620	033200	201 00 0 00 000377 		MOVEI	0,377		;GET STARTING CHARACTER
  2621	033201	202 00 0 00 035247 		MOVEM	0,TD0		;STORE IT
  2622						XFER	(0,TD0,TD1,TR7)^	;SPREAD IT THRU DATA TABLE
  2623	033202	200 00 0 00 040217 		MOVE	0,[TD0,,TD1]	;GET POINTER FOR BLT
  2624	033203	251 00 0 00 035266 		BLT	0,TR7		;TRANSFER THE BLOCK
  2625	033204	260 17 0 00 034604 		GO	SETMNT		;GO CLEAR DZ11 & SET MAINT. BIT (IF INTERNAL MODE)
  2626	033205	260 17 0 00 034550 		GO	LPREN		;SET PARAMETERS FOR ALL SELECTED LINES
  2627	033206	260 17 0 00 034612 		GO	MTSILO		;EMPTY THE SILO
  2628	033207	700 14 0 00 002300 		WRPI	LPION!LCHNON!LPICH1
  2629	033210	200 00 0 00 035164 		MOVE	0,LINE		;GET SELECTED LINES
  2630	033211	202 00 0 00 034756 		MOVEM	0,LNECNT	;STORE IT
  2631	033212	723 00 1 00 035614 		WRIOB	0,@DZTCR	;TURN ON ALL SELECTED LINES
  2632	033213	201 00 0 00 040140 		MOVEI	0,MSENAB!TIE!RIE
  2633	033214	714 00 1 00 035606 		BSIO	0,@DZCSR	;START SCANNER
  2634	033215	200 04 0 00 040220 	BKGRD:	MOVE	4,[-^D8,,0]	;GET POINTER
  2635	033216	336 00 0 00 034756 		SKIPN	LNECNT		;SKIP IF ALL LINES NOT DONE
  2636	033217	254 00 0 00 033227 		JRST	TST31A		;EXIT THIS TEST
  2637	033220	332 00 0 04 035151 		SKIPE	TXCSR(4)	;SKIPE IF NO ERROR FLAG
  2638	033221	260 17 0 00 033246 		GO	TXERR2		;GO TO TX. ERROR HANDLER
  2639	033222	332 00 0 04 035141 		SKIPE	RXCSR(4)	;SKIPE IF NO ERROR FLAG
  2640	033223	260 17 0 00 033252 		GO	RXERR2		;GO TO RX. ERROR HANDLER
  2641	033224	253 04 0 00 033216 		AOBJN	4,BKGRD+1	;LOOK FOR FLAGS ON OTHER LINES
  2642	033225	352 00 0 00 035236 		AOSE	DLYCNT		;SKIP IF DELAY HAS EXPIRED
  2643	033226	254 00 0 00 033215 		JRST	BKGRD		;KEEP WAITING ALL LINES TO FINISH
DECSYSTEM 2020 DZ11 ASYNC. LINE MUX DIAGNOSTIC VERSION  0,2	MACRO %53(1020) 13:21 22-May-79 Page 42
DSDZAM	MAC	22-May-79 13:21		DEVICE TESTS                                                                       SEQ 0087

  2644	033227	700 14 0 00 010000 	TST31A:	WRPI	LPICLR		;CLEAR THE PI SYSTEM
  2645	033230	402 00 0 00 000004 		SETZM	4		;CLEAR AC 4 FOR LINE #
  2646	033231	201 01 0 00 000001 		MOVEI	1,BIT0		;GET LINE 1 BIT
  2647	033232	616 01 0 00 035164 	T31A:	TDNN	1,LINE		;IS THIS A VALID LINE ?
  2648	033233	254 00 0 00 033236 		JRST	T31B		;NO! GET NEXT ONE
  2649	033234	331 00 0 04 035257 		SKIPL	TR0(4)		;WERE ALL THE CHARACTERS RECEIVED ?
  2650	033235	260 17 0 00 033256 		GO	DATER2		;GO ERROR HANDLER
  2651	033236	271 04 0 00 000001 	T31B:	ADDI	4,1		;UPDATE LINE #
  2652	033237	242 01 0 00 000001 		LSH	1,1		;MAKE IT NEXT HIGHER LINE #
  2653	033240	305 01 0 00 000400 		CAIGE	1,400		;SKIP IF ALL LINE CHECKED
  2654	033241	254 00 0 00 033232 		JRST	T31A		;GO BACK FOR NEXT LINE
  2655						LPTST^
  2656	033242	200 00 0 00 030046 		MOVE	0,CONSW		;GET SWITCHES
  2657	033243	602 00 0 00 000004 		TRNE	TSTLP		;LOOP ON TEST ?
  2658	033244	254 00 1 00 035674 		JRST	@$TSTNM		;YES!
  2659	033245	254 00 0 00 033260 		JRST	TEST32		;GO TO NEXT TEST
  2660	033246	700 14 0 00 001100 	TXERR2:	WRPI	LCHNOF!LPICH1	;DON'T ALLOW INTERRUPTS FOR DZ11
  2661						ERROR1	(0,0,0,TX. INT. ERROR,,TXERR1)^
  2662	033247	036 00 0 00 040224
  2663	033250	700 14 0 00 002100 		WRPI	LCHNON!LPICH1	;ALLOW DZ11 TO INTERRUPT AGAIN
  2664	033251	263 17 0 00 000000 		RTN
  2665
  2666	033252	700 14 0 00 001100 	RXERR2:	WRPI	LCHNOF!LPICH1	;DON'T ALLOW INTERRUPTS FROM DZ11
  2667						ERROR1	(0,0,0,RX. INT. ERROR,,RXERR1)^
  2668	033253	036 00 0 00 040232
  2669	033254	700 14 0 00 002100 		WRPI	LCHNON!LPICH1	;ALLOW DZ11 TO INTERRUPT AGAIN
  2670	033255	263 17 0 00 000000 		RTN
  2671
  2672	033256				DATER2:	ERROR1	(0,0,0,DATA XFER ERROR,,DATER1)^
  2673	033256	036 00 0 00 040240
  2674	033257	263 17 0 00 000000 		RTN
  2675
  2676
DECSYSTEM 2020 DZ11 ASYNC. LINE MUX DIAGNOSTIC VERSION  0,2	MACRO %53(1020) 13:21 22-May-79 Page 43
DSDZAM	MAC	22-May-79 13:21		DEVICE TESTS                                                                       SEQ 0088

  2677
  2678
  2679					S^;*********************************************************************^
  2680					;* TEST 32 RELATIVE TIMING TEST VERIFIES THAT LOWER BAUD RATES OR
  2681					;* LONGER CHARACTER LENGTHS CAUSE SLOWER TRANSFER RATES.  EACH LINE
  2682					;* WILL XFER 16 CHARACTERS AT ALL BAUD RATES AND THEN USING THE HIGHEST
  2683					;* BAUD RATE XFER ALL CHARACTER LENGTHS.  EACH NEW PARAMETER SHOULD
  2684					;* DECREASE IN TIME FROM THE PREVIOUSLY SELECTED ONE.
  2685					;* PARAMETERS ARE:
  2686					;*	EIGHT BITS/CHAR. - 2 STOP BITS AT
  2687					;*	50, 75, 110, 134.5, 150, 300, 600, 1200, 1800, 2000, 2400, 3600,
  2688					;*	4800, 7200, 9600, 19.2K BAUD.
  2689					;*	19.2KB - 2 STOP BITS AT SEVEN, SIX, AND FIVE BITS/CHAR.
  2690					;* THE LINES ARE SELECTED ONE AT TIME.
  2691					S^;*********************************************************************^
  2692			040243		T=SIXBTZ <RELATIVE TIMING TEST>^	[SIXBIT\RELATIVE TIMING TEST_\]^
  2693
  2694	033260	200 00 0 00 030046 	TEST32:	MOVE	0,CONSW		;GET SWITCHES
  2695	033261	602 00 0 00 000040 		TRNE	0,SKTST		;SKIP THIS TEST ?
  2696	033262	254 00 0 00 033424 		JRST	T32F		;YES!
  2697	033263	201 00 0 00 033260 		MOVEI	0,TEST32	;GET RETURN ADDRESS
  2698	033264	202 00 0 00 035674 		MOVEM	0,$TSTNM	;STORE IT FOR LOOPING ON TEST
  2699	033265	202 00 0 00 030051 		MOVEM	TESTPC		;STOR IT
  2700	033266	201 00 0 00 000032 		MOVEI	0,32		;GET TEST #
  2701	033267	202 00 0 00 035670 		MOVEM	0,$TMP0		;STORE IT FOR ERROR PRINTOUT
  2702	033270	261 17 0 00 035165 		PUT	PAR		;SAVE THE ORIGINAL PARAMETERS
  2703	033271	260 17 0 00 034635 		GO ZSTAT		;CLEAR STATUS FLAGS
  2704						CLEAR	(RXCSR,^D15)^
  2705	033272	402 00 0 00 035141 		SETZM	RXCSR		;CLEAR 1ST LOC. OF TABLE
  2706	033273	200 00 0 00 040213 		MOVE	[RXCSR,,RXCSR+1]
  2707	033274	251 00 0 00 035160 		BLT	RXCSR+^D15	;CLEAR ENTIRE TABLE
  2708	033275	402 00 0 00 035247 		SETZM	TD0		;CLEAR 1ST DATA BUFFER
  2709						XFER	(0,TD0,TD1,TR7)^	;SPREAD IT THRU DATA TABLE
  2710	033276	200 00 0 00 040217 		MOVE	0,[TD0,,TD1]	;GET POINTER FOR BLT
  2711	033277	251 00 0 00 035266 		BLT	0,TR7		;TRANSFER THE BLOCK
  2712	033300	200 07 0 00 035162 		MOVE	IND,DZRIV	;GET RX. INT. VECTOR
  2713	033301	242 07 0 00 777776 		LSH	IND,-2		;MAKE IT PDP-10 STYLE
  2714	033302	200 00 0 00 040215 		MOVE	0,[JSR RXSER]	;GET INT. HANDLER DISPATCH
  2715	033303	202 00 0 07 035675 		MOVEM	0,VECTBL(IND)	;PUT IT IN DISPATCH TABLE
  2716	033304	200 00 0 00 040216 		MOVE	0,[JSR TXSER]	;GET TX. VECTOR
  2717	033305	271 07 0 00 000001 		ADDI	IND,1		;INDEX TO TX. VECTOR FOR THIS DZ11
  2718	033306	202 00 0 07 035675 		MOVEM	0,VECTBL(IND)	;STORE IT IN VECTOR TABLE
  2719	033307	201 01 0 00 000001 		MOVEI	1,1		;GET PIA FOR UNIBUS ADAPTER
  2720	033310	201 00 0 00 000002 		MOVEI	0,1B34		;GET BIT USED FOR BR 6 OR 7
  2721	033311	612 00 0 00 035163 		TDNE	0,DZPRT		;SKIP IF BR LEVEL 5 OR 4
  2722	033312	242 01 0 00 000003 		LSH	1,3		;MAKE IT HI PIA REQUEST
  2723	033313	713 01 1 00 035301 		WRIO	1,@UBASR	;ENABLE THE UNIBUS ADAPTER
  2724	033314	402 00 0 00 000004 		SETZM	4		;CLEAR AC 4 FOR LINE #
  2725	033315	201 01 0 00 000001 		MOVEI	1,BIT0		;GET LINE 1 BIT
DECSYSTEM 2020 DZ11 ASYNC. LINE MUX DIAGNOSTIC VERSION  0,2	MACRO %53(1020) 13:21 22-May-79 Page 44
DSDZAM	MAC	22-May-79 13:21		DEVICE TESTS                                                                       SEQ 0089

  2726	033316	612 01 0 00 035164 	T32A:	TDNE	1,LINE		;IS THIS A VALID LINE ?
  2727	033317	254 00 0 00 033330 		JRST	T32B		;YES! GO TEST IT
  2728	033320	271 04 0 00 000001 		ADDI	4,1		;NO! UPDATE LINE #
  2729	033321	242 01 0 00 000001 		LSH	1,1		;SETUP NEXT HIGHER LINE
  2730	033322	305 01 0 00 000400 		CAIGE	1,400		;HAVE WE TESTED ALL LINES ?
  2731	033323	254 00 0 00 033316 		JRST	T32A		;NO! GO BACK FOR NEXT ONE
  2732	033324	200 00 0 00 030046 		MOVE	0,CONSW		;GET THE SWITCHES
  2733	033325	602 00 0 00 000200 		TRNE	TRACE		;ARE WE TRACING?
  2734	033326	037 00 0 00 030242 		PCRL			;YES! DO A CR LF
  2735	033327	254 00 0 00 033420 		JRST	T32E		;YES! EXIT TEST
  2736	033330	200 00 0 00 030046 	T32B:	MOVE	0,CONSW		;GET SWITCHES
  2737	033331	602 00 0 00 000200 		TRNE	TRACE		;ARE WE TRACING?
  2738	033332	037 00 0 00 000052 		PNTCI	"*"		;YES! TYPE AN ASTERISK
  2739	033333	201 00 0 00 000020 		MOVEI	0,20		;GET COUNT = 1+ AMT OF BAUD RATES
  2740	033334	202 00 0 00 035267 		MOVEM	0,STOP		;STORE IT
  2741	033335	402 00 0 00 035171 		SETZM	XMTCNT		;CLEAR LOC. FOR SAVING PREVIOUS TIME
  2742	033336	201 00 0 00 010070 		MOVEI	0,10070		;50 BAUD, 8 BITS/CHAR, & 2 STOP BITS
  2743	033337	202 00 0 00 035165 		MOVEM	0,PAR		;STORE INITIAL PARAMETERS
  2744	033340	200 00 0 00 040214 	T32C:	MOVE	0,[-^D4,,0]	;GET LONG COUNT
  2745	033341	202 00 0 00 035236 		MOVEM	DLYCNT		;STORE
  2746	033342	201 00 0 00 000017 		MOVEI	0,17		;GET STARTING CHARACTER
  2747	033343	202 00 0 04 035247 		MOVEM	0,TD0(4)	;STORE IT
  2748	033344	335 00 0 00 035166 		SKIPGE MODE		;ARE WE IN STAGGERED MODE?
  2749	033345	640 04 0 00 000001 		TRC	4,1		;YES!  CHANGE RX. LINE
  2750	033346	202 00 0 04 035257 		MOVEM	0,TR0(4)	;PUT IT IN RECEIVER LOC. ALSO
  2751	033347	260 17 0 00 034604 		GO	SETMNT		;GO CLEAR DZ11 & SET MAINT. BIT (IF INTERNAL MODE)
  2752	033350	260 17 0 00 034550 		GO	LPREN		;SET PARAMETERS FOR ALL SELECTED LINES
  2753	033351	260 17 0 00 034612 		GO	MTSILO		;EMPTY THE SILO
  2754	033352	700 14 0 00 002300 		WRPI	LPION!LCHNON!LPICH1
  2755	033353	202 01 0 00 034756 		MOVEM	1,LNECNT	;STORE SELECTED LINE
  2756	033354	723 01 1 00 035614 		WRIOB	1,@DZTCR	;TURN ON SELECTED LINE
  2757	033355	201 00 0 00 040140 		MOVEI	0,MSENAB!TIE!RIE
  2758	033356	714 00 1 00 035606 		BSIO	0,@DZCSR	;START SCANNER
  2759	033357	336 00 0 00 034756 	BKTIM:	SKIPN	LNECNT		;SKIP IF LINE NOT DONE
  2760	033360	254 00 0 00 033373 		JRST	TST32A		;EXIT THIS ROUTINE
  2761	033361	335 00 0 00 035166 		SKIPGE MODE		;ARE WE IN STAGGERED MODE?
  2762	033362	640 04 0 00 000001 		TRC	4,1		;YES!  CHANGE LINE #
  2763	033363	332 00 0 04 035151 		SKIPE	TXCSR(4)	;SKIPE IF NO ERROR FLAG
  2764	033364	260 17 0 00 033425 		GO	TXERR3		;GO TO TX. ERROR HANDLER
  2765	033365	335 00 0 00 035166 		SKIPGE MODE		;ARE WE IN STAGGERED MODE?
  2766	033366	640 04 0 00 000001 		TRC	4,1		;YES!  CHANGE LINE #
  2767	033367	332 00 0 04 035141 		SKIPE	RXCSR(4)	;SKIPE IF NO ERROR FLAG
  2768	033370	260 17 0 00 033431 		GO	RXERR3		;GO TO RX. ERROR HANDLER
  2769	033371	352 00 0 00 035236 		AOSE	DLYCNT		;SKIP IF DELAY HAS EXPIRED
  2770	033372	254 00 0 00 033357 		JRST	BKTIM		;KEEP WAITING ALL LINES TO FINISH
  2771	033373	700 14 0 00 010000 	TST32A:	WRPI	LPICLR		;CLEAR THE PI SYSTEM
  2772	033374	331 00 0 04 035257 		SKIPL	TR0(4)		;WERE ALL THE CHARACTERS RECEIVED ?
  2773	033375	260 17 0 00 033435 		GO	DATER3		;GO ERROR HANDLER
  2774	033376	335 00 0 00 035166 		SKIPGE MODE		;ARE WE IN STAGGERED MODE?
  2775	033377	640 04 0 00 000001 		TRC	4,1		;YES!  CHANGE LINE #
  2776	033400	200 02 0 00 035236 		MOVE	2,DLYCNT	;GET THE REMAINDER OF DELAY TIME
  2777	033401	311 02 0 00 035171 		CAML	2,XMTCNT	;IS IT LESS THAN THE PREVIOUS COUNT
DECSYSTEM 2020 DZ11 ASYNC. LINE MUX DIAGNOSTIC VERSION  0,2	MACRO %53(1020) 13:21 22-May-79 Page 45
DSDZAM	MAC	22-May-79 13:21		DEVICE TESTS                                                                       SEQ 0090

  2778						ERROR	(T32C,0,0,0,TRYING TO INCREASE LINE SPEED,INT.SERVICE TIME INCREASED,BAUDER
  2779					)^
  2780	033402	036 00 0 00 040261
  2781	033403	035 00 0 00 033340 		ERLOOP	T32C		;IF ERROR, LOOP TO T32C
  2782	033404	202 02 0 00 035171 		MOVEM	2,XMTCNT	;SAVE THE LAST PARAMETER'S TIME
  2783	033405	377 00 0 00 035267 		SOSG	STOP		;HAVE WE TRIED ALL BAUD RATES ?
  2784	033406	254 00 0 00 033412 		JRST	T32D		;YES! GO CHECK CHARACTER LENGTHS
  2785	033407	201 00 0 00 000400 		MOVEI	0,400		;GET LSB OF BAUD RATE FOR LPR
  2786	033410	272 00 0 00 035165 		ADDM	0,PAR		;ADD IT TO PARAMETERS
  2787	033411	254 00 0 00 033340 		JRST	T32C		;GO BACK FOR NEXT ONE
  2788	033412	200 00 0 00 035165 	T32D:	MOVE	0,PAR		;GET THE PARAMETERS
  2789	033413	275 00 0 00 000010 		SUBI	0,10		;MAKE LENGTH SHORTER
  2790	033414	202 00 0 00 035165 		MOVEM	0,PAR		;STORE THE NEW PARAMETERS
  2791	033415	301 00 0 00 017440 		CAIL	0,17440		;HAVE WE TRIED ALL CHARACTER LENGTHS ?
  2792	033416	254 00 0 00 033340 		JRST	T32C		;NO! GO BACK FOR NEXT ONE
  2793	033417	254 00 0 00 033320 		JRST	T32A+2		;GO BACK AND CHECK NEXT LINE
  2794	033420	262 17 0 00 035165 	T32E:	GET	PAR		;RESTORE ORIGINAL PARAMETERS
  2795						LPTST^
  2796	033421	200 00 0 00 030046 		MOVE	0,CONSW		;GET SWITCHES
  2797	033422	602 00 0 00 000004 		TRNE	TSTLP		;LOOP ON TEST ?
  2798	033423	254 00 1 00 035674 		JRST	@$TSTNM		;YES!
  2799	033424	254 00 0 00 033611 	T32F:	JRST FINI		;SKIP THE ECHO TEST
  2800
  2801	033425	700 14 0 00 001100 	TXERR3:	WRPI	LCHNOF!LPICH1	;DON'T ALLOW INTERRUPTS FOR DZ11
  2802						ERROR1	(0,0,0,TX. INT. ERROR,,TXERR1)^
  2803	033426	036 00 0 00 040264
  2804	033427	700 14 0 00 002100 		WRPI	LCHNON!LPICH1	;ALLOW DZ11 TO INTERRUPT AGAIN
  2805	033430	263 17 0 00 000000 		RTN
  2806
  2807	033431	700 14 0 00 001100 	RXERR3:	WRPI	LCHNOF!LPICH1	;DON'T ALLOW INTERRUPTS FROM DZ11
  2808						ERROR1	(0,0,0,RX. INT. ERROR,,RXERR1)^
  2809	033432	036 00 0 00 040267
  2810	033433	700 14 0 00 002100 		WRPI	LCHNON!LPICH1	;ALLOW DZ11 TO INTERRUPT AGAIN
  2811	033434	263 17 0 00 000000 		RTN
  2812
  2813
  2814	033435				DATER3:	ERROR1	(0,0,0,DATA XFER ERROR,,DATER1)^
  2815	033435	036 00 0 00 040272
  2816	033436	263 17 0 00 000000 		RTN
  2817
  2818
  2819
DECSYSTEM 2020 DZ11 ASYNC. LINE MUX DIAGNOSTIC VERSION  0,2	MACRO %53(1020) 13:21 22-May-79 Page 46
DSDZAM	MAC	22-May-79 13:21		DEVICE TESTS                                                                       SEQ 0091

  2820
  2821					S^;*********************************************************************^
  2822					;* TEST 33 THIS TEST WILL PRINT A MESSAGE ON ALL SELECTED LINES
  2823					;* (BAUD RATES MUST BE THE SAME FOR ALL LINES SELECTED).  IT THEN
  2824					;* ENABLES RECEIVER INTERRUPTS FOR ALL LINES AND ECHOES BACK TO THE
  2825					;* TERMINAL OF ORIGIN ANY CHARACTERS THAT ARE TYPED.  A CTRL C TYPED
  2826					;* AT THE REMOTE TERMINAL WILL TERMINATE THE TEST.
  2827					;* CAUTION	BREAK	- WILL CAUSE ERROR MESSAGE AT CTY
  2828					;*		DELETE	- DOES NOTHING
  2829					;*		COPY	- USE AT YOUR OWN RISK
  2830					;*
  2831					;* AN ALT-MODE TYPED AT THE CTY WILL ALLOW YOU TO TEST
  2832					;* THE NEXT LINE (IF IN SINGLE LINE MODE), THE NEXT DZ11,
  2833					;* OR TO EXIT THE ECHO TEST.
  2834					S^;*********************************************************************^
  2835			040275		T=SIXBTZ <ECHO TEST>^	[SIXBIT\ECHO TEST_\]^
  2836
  2837
  2838	033437	201 00 0 00 033437 	TEST33:	MOVEI	0,TEST33	;GET RETURN ADDRESS
  2839	033440	202 00 0 00 030051 		MOVEM	TESTPC		;STOR IT
  2840	033441	202 00 0 00 035674 		MOVEM	0,$TSTNM	;STORE IT FOR LOOPING
  2841	033442	201 00 0 00 000033 		MOVEI	0,33		;GET TEST #
  2842	033443	202 00 0 00 035670 		MOVEM	0,$TMP0		;STORE IT FOR ERROR PRINTOUT
  2843						CLEAR	(RXCSR,^D15)^
  2844	033444	402 00 0 00 035141 		SETZM	RXCSR		;CLEAR 1ST LOC. OF TABLE
  2845	033445	200 00 0 00 040213 		MOVE	[RXCSR,,RXCSR+1]
  2846	033446	251 00 0 00 035160 		BLT	RXCSR+^D15	;CLEAR ENTIRE TABLE
  2847	033447	260 17 0 00 034612 		GO	MTSILO		;EMPTY THE SILO
  2848	033450	332 00 0 00 035244 		SKIPE	SLINE		;SKIP IF 1ST TIME OR IN SINGLE LINE MODE
  2849	033451	254 00 0 00 033461 		JRST	T33A		;JUMP OVER MESSAGE
  2850						MOVEI	0,[ASCIZ/STARTING ECHO TEST IF BAUD WAS NOT
  2851					SPECIFIED THE DEFAULT WILL BE 9600
  2852	033452	201 00 0 00 040277 	/]
  2853	033453	037 17 0 00 000001 		PNTALF
  2854						MOVEI	0,[ASCIZ/DO YOU WANT TO SEQUENCE THROUGH
  2855	033454	201 00 0 00 040316 	THE LINES ONE AT A TIME./]
  2856	033455	037 17 0 00 000001 		PNTALF
  2857	033456	037 01 0 00 000003 		TTIYES
  2858	033457	334 00 0 00 000000 		SKIPA
  2859	033460	476 00 0 00 035244 		SETOM	SLINE		;SET SINGLE LINE MODE FLAG
  2860	033461	200 02 0 00 035165 	T33A:	MOVE	2,PAR		;GET PARAMETERS
  2861	033462	402 00 0 00 035167 		SETZM	SAVLIN		;INIT. LINE # FOR ERROR PRINTOUTS
  2862	033463	201 01 0 00 000001 		MOVEI	1,BIT0		;START WITH LINE 0
  2863	033464	260 17 0 00 034565 		GO	DZCLR		;CLEAR DZ11
  2864	033465	201 00 0 00 000040 		MOVEI	0,MSENAB	;GET MASTER SCAN ENABLE BIT
  2865	033466	714 00 1 00 035606 		BSIO	0,@DZCSR	;START SCANNER
DECSYSTEM 2020 DZ11 ASYNC. LINE MUX DIAGNOSTIC VERSION  0,2	MACRO %53(1020) 13:21 22-May-79 Page 47
DSDZAM	MAC	22-May-79 13:21		DEVICE TESTS                                                                       SEQ 0092

  2866	033467	612 01 0 00 035164 	TST33A:	TDNE	1,LINE		;IS THIS A VALID LINE
  2867	033470	254 00 0 00 033502 		JRST	TST33B		;YES! TEST IT
  2868	033471	715 01 1 00 035614 		BCIO	1,@DZTCR	;DESELECT THE PRESENT LINE
  2869	033472	271 02 0 00 000001 		ADDI	2,1		;INCREMENT LINE #
  2870	033473	350 00 0 00 035167 		AOS	SAVLIN		;UPDATE LINE # FOR ERROR PRINTOUT
  2871	033474	242 01 0 00 000001 		LSH	1,1		;SELECT NEXT TX. LINE
  2872	033475	305 01 0 00 000400 		CAIGE	1,400		;HAVE WE SENT MSG. TO ALL LINES?
  2873	033476	254 00 0 00 033467 		JRST	TST33A		;NO!  GO BACK FOR MORE
  2874	033477	336 00 0 00 035244 		SKIPN	SLINE		;SKIP IF IN SINGLE LINE MODE
  2875	033500	254 00 0 00 033525 		JRST	TST33C		;YES!  GO TO ECHO SERVICE
  2876	033501	254 00 0 00 033571 		JRST	T33E		;GO TO NEXT DZ11
  2877	033502	200 00 0 00 040332 	TST33B:	MOVE	0,[POINT 7,QMSG]
  2878	033503	202 00 0 00 034475 		MOVEM	0,BYTPT		;SET UP BYTE POINTER FOR MESSAGE
  2879	033504	713 02 1 00 035612 		WRIO	2,@DZLPR	;SET LINE PARAMETERS
  2880	033505	714 01 1 00 035614 		BSIO	1,@DZTCR	;SELECT TX. LINE
  2881	033506	135 07 0 00 037565 		LDB	IND,[POINT 4,PAR,27]
  2882	033507	200 00 0 07 035650 	T33B:	MOVE	0,DLYTBL(IND)	;GET DELAY COUNT BASED ON LINE SPEED
  2883	033510	202 00 0 00 035236 		MOVEM	0,DLYCNT	;PUT IT WHERE DELAY ROUTINE CAN SEE IT
  2884	033511	260 17 0 00 034601 		GO	DELAY		;GO WASTE A LITTLE TIME
  2885	033512	134 13 0 00 034475 		ILDB	13,BYTPT	;GET CHAR. TO XMIT
  2886	033513	336 00 0 00 000013 		SKIPN	13		;SKIP IF NOT AT END OF MESSAGE
  2887	033514	254 00 0 00 033576 		JRST	SSTP		;GO CHECK SINGLE LINE MODE FLAG
  2888	033515	201 00 0 00 100000 		MOVEI	0,TRDY		;GET TX READY BIT
  2889	033516	200 04 0 00 035606 		MOVE	4,DZCSR		;GET REG. ADDRESS
  2890	033517	712 03 1 00 035301 		RDIO	3,@UBASR	;GET UNIBUS ADAPTER STATUS
  2891	033520	711 00 1 00 035606 		TION	0,@DZCSR	;IS TX READY SET?
  2892						ERROR	(TST33B,0,0,0,XMIT OF CHAR.,TRDY DID NOT SET,STAT1)^
  2893	033521	036 00 0 00 040333
  2894	033522	035 00 0 00 033502 		ERLOOP	TST33B		;IF ERROR, LOOP TO TST33B
  2895	033523	723 13 1 00 035620 		WRIOB	13,@DZTDR	;XMIT CHARACTER
  2896	033524	254 00 0 00 033507 		JRST	T33B		;GO BACK FOR NEXT CHARACTER
  2897	033525	260 17 0 00 034635 	TST33C:	GO ZSTAT		;CLEAR STATUS FLAGS
  2898	033526	402 00 0 00 035247 		SETZM	TD0		;CLEAR 1ST DATA BUFFER
  2899						XFER	(0,TD0,TD1,TR7)^	;SPREAD IT THRU DATA TABLE
  2900	033527	200 00 0 00 040217 		MOVE	0,[TD0,,TD1]	;GET POINTER FOR BLT
  2901	033530	251 00 0 00 035266 		BLT	0,TR7		;TRANSFER THE BLOCK
  2902	033531	200 07 0 00 035162 		MOVE	IND,DZRIV	;GET RX. INT. VECTOR
  2903	033532	242 07 0 00 777776 		LSH	IND,-2		;MAKE IT PDP-10 STYLE
  2904	033533	200 00 0 00 040336 		MOVE	0,[JSR ECSER]	;GET INT. HANDLER DISPATCH
  2905	033534	202 00 0 07 035675 		MOVEM	0,VECTBL(IND)	;PUT IT IN DISPATCH TABLE
  2906	033535	201 01 0 00 000001 		MOVEI	1,1		;GET PIA FOR UNIBUS ADAPTER
  2907	033536	201 00 0 00 000002 		MOVEI	0,1B34		;GET BIT USED FOR BR 6 OR 7
  2908	033537	612 00 0 00 035163 		TDNE	0,DZPRT		;SKIP IF BR LEVEL 5 OR 4
  2909	033540	242 01 0 00 000003 		LSH	1,3		;MAKE IT HI PIA REQUEST
  2910	033541	713 01 1 00 035301 		WRIO	1,@UBASR	;ENABLE THE UNIBUS ADAPTER
  2911	033542	402 00 0 00 000004 		SETZM	4		;CLEAR AC 4 FOR LINE #
  2912	033543	402 00 0 00 000007 		SETZM	IND		;CLEAR INDEX REG.
  2913	033544	700 14 0 00 002300 		WRPI	LPION!LCHNON!LPICH1
  2914	033545	201 00 0 00 000140 		MOVEI	0,MSENAB!RIE	;START SCANNER & ENABLE RX. INT.
  2915
  2916	033546	714 00 1 00 035606 		BSIO	0,@DZCSR	;START SCANNER
DECSYSTEM 2020 DZ11 ASYNC. LINE MUX DIAGNOSTIC VERSION  0,2	MACRO %53(1020) 13:21 22-May-79 Page 48
DSDZAM	MAC	22-May-79 13:21		DEVICE TESTS                                                                       SEQ 0093

  2917	033547	200 04 0 00 040220 	IDLE:	MOVE	4,[-^D8,,0]	;GET LINE NUMBER POINTER
  2918	033550	332 00 0 04 035257 		SKIPE	TR0(4)		;SKIP IF NO CONTROL C FLAG
  2919	033551	254 00 0 00 033563 		JRST	T33D-1		;EXIT THIS TEST
  2920	033552	332 00 0 04 035151 		SKIPE	TXCSR(4)	;SKIP IF NO ERROR FLAG
  2921	033553	260 17 0 00 035006 		GO	TXERR1		;GO TO ERROR HANDLER
  2922	033554	332 00 0 04 035141 		SKIPE	RXCSR(4)	;SKIP IF NO ERROR FLAG
  2923	033555	260 17 0 00 034757 		GO	RXERR		;GO ERROR HANDLER
  2924	033556	037 07 0 00 000003 		TTALTM			;CHECK CTY FOR ALT-MODE
  2925	033557	334 00 0 00 000000 		SKIPA			;NO ALT-MODE!  KEEP GOING
  2926	033560	254 00 0 00 033564 		JRST	T33D		;OPERATOR WOULD LIKE TO QUIT
  2927	033561	253 04 0 00 033550 		AOBJN	4,IDLE+1	;GO BACK AND CHECK NEXT LINE
  2928	033562	254 00 0 00 033547 		JRST	IDLE		;GO BACK AND SCAN ALL LINES AGAIN
  2929	033563	402 00 0 00 035244 		SETZM	SLINE		;CLEAR THE SINGLE LINE MODE FLAG
  2930	033564	700 14 0 00 010000 	T33D:	WRPI	LPICLR		;CLEAR INT. SYSTEM
  2931	033565	260 17 0 00 034565 		GO	DZCLR		;CLEAR DZ11
  2932	033566	402 00 0 04 035257 		SETZM	TR0(4)		;CLEAR THE CTRL C FLAG
  2933	033567	332 00 0 00 035244 		SKIPE	SLINE		;ARE WE IN SINGLE LINE MODE?
  2934	033570	254 00 0 00 033603 		JRST	ADVLNE		;YES! GO ADVANCE TO NEXT LINE
  2935	033571				T33E:	MOVEI 0,[ASCIZ/
  2936	033571	201 00 0 00 040337 	DO YOU WISH TO ECHO TEST THE NEXT DZ11. /]
  2937	033572	037 17 0 00 000001 		PNTALF
  2938	033573	037 01 0 00 000003 		TTIYES
  2939	033574	254 00 0 00 030600 		JRST	START		;GO BEGINNING OF THE DIAGNOSTIC
  2940	033575	254 00 0 00 033611 		JRST	FINI		;END OF PASS
  2941
  2942	033576	336 00 0 00 035244 	SSTP:	SKIPN	SLINE		;SINGLE LINE MODE?
  2943	033577	254 00 0 00 033471 		JRST	TST33A+2	;NO! GO CHECK NEXT LINE
  2944	033600	202 01 0 00 035245 		MOVEM	1,ELINE		;SAVE THE PRESENT LINE BIT
  2945	033601	202 02 0 00 035246 		MOVEM	2,ELNEN		; "    "     "      "  PARAMETER
  2946	033602	254 00 0 00 033525 		JRST	TST33C		;GO ECHO TEST THIS LINE
  2947
  2948	033603	037 01 0 00 000052 	ADVLNE:	PNTCIF	"*"		;PRINT AN ASTERISK
  2949	033604	200 01 0 00 035245 		MOVE	1,ELINE		;GET THE LINE JUST COMPLETED
  2950	033605	200 02 0 00 035246 		MOVE	2,ELNEN		; "   "   "    "       "
  2951	033606	201 00 0 00 000040 		MOVEI	0,MSENAB	;GET MASTER SCAN ENABLE BIT
  2952	033607	714 00 1 00 035606 		BSIO	0,@DZCSR	;START SCANNER
  2953	033610	254 00 0 00 033471 		JRST	TST33A+2	;NO! GO CHECK NEXT LINE
  2954
  2955
DECSYSTEM 2020 DZ11 ASYNC. LINE MUX DIAGNOSTIC VERSION  0,2	MACRO %53(1020) 13:21 22-May-79 Page 49
DSDZAM	MAC	22-May-79 13:21		DEVICE TESTS                                                                       SEQ 0094

  2956
  2957					S^;*********************************************************************^
  2958					;* ROUTINE TO DETERMINE IF WE SHOULD TEST THE NEXT DZ11 IN THE SYSTEM
  2959					;* OR GO TO END OF PASS AND START OVER.
  2960					S^;*********************************************************************^
  2961
  2962	033611	372 00 0 00 035233 	FINI:	SOSE	SAVNUM		;DOWNCOUNT THE DZ11'S IN THE SYSTEM
  2963	033612	254 00 0 00 030653 		JRST	STARTA		;GO TEST NEXT DZ'11
  2964	033613	200 00 0 00 035232 		MOVE	DZNUM		;GET TOTAL # OF DZ11'S IN THE SYSTEM
  2965	033614	202 00 0 00 035233 		MOVEM	SAVNUM		;PUT IT IN WORK LOCATION
  2966	033615	254 00 0 00 030057 		JRST	BEGEND		;GO TO END OF PASS ROUTINE
  2967
  2968
  2969
DECSYSTEM 2020 DZ11 ASYNC. LINE MUX DIAGNOSTIC VERSION  0,2	MACRO %53(1020) 13:21 22-May-79 Page 50
DSDZAM	MAC	22-May-79 13:21		PROGRAM SUBROUTINES                                                                SEQ 0095

  2970						SUBTTL	PROGRAM SUBROUTINES
  2971
  2972					S^;*********************************************************************^
  2973					;* THIS ROUTINE DETERMINES WHICH DZ11 TO RUN NEXT AND MOVES IT'S
  2974					;* PARAMETERS, ADDRESS, AND VECTOR TO A WORK AREA. THIS ROUTINE
  2975					;* MUST BE ENTERED BEFORE ANY TESTING IS DONE.
  2976					S^;*********************************************************************^
  2977
  2978	033616	332 00 0 11 035172 	CYCLE:	SKIPE	DZACTV(RUN)	;SKIP IF THIS DZ11 IS NOT SELECTED
  2979	033617	254 00 0 00 033623 		JRST	C1		;GO SET IT UP FOR TESTING
  2980	033620	253 11 0 00 033616 		AOBJN	RUN,CYCLE	;POINT TO NEXT DZ11  FLAG
  2981	033621	200 11 0 00 036731 		MOVE	RUN,[-^D32,,0]	;RE-INIT THE POINTER
  2982	033622	254 00 0 00 033616 		JRST	CYCLE		;CHECK ACTIVE DEVICE LIST AGAIN
  2983	033623	550 00 0 00 000011 	C1:	HRRZ	0,RUN		;GET INDEX
  2984	033624	221 00 0 00 000006 		IMULI	0,6		;TIMES 6
  2985	033625	271 00 0 00 035305 		ADDI	0,DZ.MAP	;ADD THE TABLE ADDRESS
  2986	033626	507 00 0 00 000000 		HRLS			;BUILD BLOCK POINTER
  2987	033627	541 00 0 00 035161 		HRRI	0,$BASE		;XFER ADDRESS
  2988	033630	251 00 0 00 035166 		BLT	0,MODE		;TRANSFER TABLE ENTREES TO WORK AREA
  2989	033631	200 07 0 00 040214 		MOVE	IND,[-4,,0]	;GET INDEX AND COUNT
  2990	033632	200 00 0 00 035161 		MOVE	0,$BASE		;GET ADDRESS OF DZ11'S STATUS REG. (CSR)
  2991	033633	202 00 0 07 035606 	C2:	MOVEM 0,DZCSR(IND)	;STORE IT IN DEVICE REG. POINTER TABLE
  2992	033634	340 00 0 00 000000 		AOJ			;UPDATE ADDRESS
  2993	033635	253 07 0 00 033633 		AOBJN	IND,C2		;UPDATE INDEX
  2994	033636	275 00 0 00 000002 		SUBI	0,2		;REWIND THE ADDRESS COUNT
  2995	033637	505 07 0 00 777772 		HRLI	IND,-6		;RE-INIT THE LOOP COUNT
  2996	033640	606 07 0 00 000012 		TRNN	IND,^D10	;QUIT LOOPING ?
  2997	033641	254 00 0 00 033633 		JRST	C2		;NO!
  2998	033642	202 00 0 07 035606 		MOVEM	0,DZCSR(IND)	;YES! STORE THE LAST 2 ADDRESSES
  2999	033643	340 00 0 00 000000 		AOJ			;UPDATE ADDRESS
  3000	033644	340 07 0 00 000000 		AOJ	IND,		;UPDATE INDEX
  3001	033645	202 00 0 07 035606 		MOVEM	0,DZCSR(IND)	;STORE THE LAST ONE (HI BYTE DZTDR)
  3002	033646	253 11 0 00 033650 		AOBJN	RUN,C3		;UPDATE POINTER.  JUMP IF MORE TO GO
  3003	033647	200 11 0 00 036731 		MOVE	RUN,[-^D32,,0]	;RE-INIT THE POINTER
  3004	033650	263 17 0 00 000000 	C3:	RTN			;RETURN TO CALLING ROUTINE
DECSYSTEM 2020 DZ11 ASYNC. LINE MUX DIAGNOSTIC VERSION  0,2	MACRO %53(1020) 13:21 22-May-79 Page 51
DSDZAM	MAC	22-May-79 13:21		PROGRAM SUBROUTINES                                                                SEQ 0096

  3005					S^;*********************************************************************^
  3006					;* ROUTINE WHICH ALLOWS OPERATOR TO MODIFY ACTIVE DEVICE LIST.  ONLY
  3007					;* DEVICES WITH ACTIVE FLAG SET WILL BE TESTED.
  3008					S^;*********************************************************************^
  3009
  3010	033651	402 00 0 00 000012 	RSLCT:	SETZM	ACT		;INIT INDEX REG. FOR ACTIVE DEVICE LIST
  3011	033652	402 00 0 00 000007 		SETZM	IND		;INIT INDEX REG. FOR DZ11 MAP TABLE
  3012	033653	402 00 0 00 035232 		SETZM	DZNUM		;CLEAR THE # OF DZ11'S IN THE SYSTEM
  3013	033654				RSLCT1:	MOVEI	[ASCIZ/
  3014	033654	201 00 0 00 040350 	SELECT DZ11 AT ADDRESS	/]
  3015	033655	037 17 0 00 000001 		PNTALF
  3016	033656	200 00 0 07 035305 		MOVE	0,DZ.MAP(IND)	;GET ADDRESS OF DZ11
  3017	033657	037 17 0 00 000003 		PNTOCF			;PRINT IT
  3018	033660	037 01 0 00 000003 		TTIYES			;SELECT THIS DZ11 Y OR N
  3019	033661	254 00 0 00 033665 		JRST	RSLCT2		;NO!  CLEAR ACTIVE FLAG
  3020	033662	476 00 0 12 035172 		SETOM	DZACTV(ACT)	;YES!  SET FLAG
  3021	033663	350 00 0 00 035232 		AOS	DZNUM		;TOTAL UP THE # OF DZ11'S IN THE SYSTEM
  3022	033664	334 00 0 00 000000 		SKIPA			;SKIP NEXT INSTRUCTION
  3023	033665	402 00 0 12 035172 	RSLCT2:	SETZM	DZACTV(ACT)	;CLEAR THE DEVICE ACTIVE FLAG
  3024	033666	271 07 0 00 000006 		ADDI	IND,6		;UPDATE THE DZ11 MAP INDEX
  3025	033667	271 12 0 00 000001 		ADDI	ACT,1		;UPDATE THE ACTIVE DEVICE LIST INDEX
  3026	033670	332 00 0 07 035305 		SKIPE	DZ.MAP(IND)	;SKIP IF NO DEVICES LEFT
  3027	033671	254 00 0 00 033654 		JRST	RSLCT1		;GET NEXT DEVICE ADDRESS
  3028	033672	263 17 0 00 000000 		RTN
DECSYSTEM 2020 DZ11 ASYNC. LINE MUX DIAGNOSTIC VERSION  0,2	MACRO %53(1020) 13:21 22-May-79 Page 52
DSDZAM	MAC	22-May-79 13:21		PROGRAM SUBROUTINES                                                                SEQ 0097

  3029					S^;*********************************************************************^
  3030					;* ROUTINE TO PRINT DZ11 MAP TABLE PRIOR TO RUNNING TESTS.
  3031					;* THIS ALLOWS OPERATOR TO VERIFY THE SYSTEM CONFIGURATION.
  3032					S^;*********************************************************************^
  3033
  3034	033673	037 10 0 00 000002 	HEADER:	SWITCH			;GET SWITCHES
  3035	033674	602 00 0 00 000020 		TRNE	INHMAP		;PRINT SYSTEM MAP ?
  3036	033675	263 17 0 00 000000 		RTN			;NO!
  3037	033676	402 00 0 00 000007 		SETZM	IND		;CLEAR INDEX REG.
  3038	033677	201 00 0 00 040356 		MOVEI	[ASCIZ/	SYSTEM MAP/]
  3039	033700	037 17 0 00 000001 		PNTALF
  3040	033701				HDR1:	MOVEI	[ASCIZ/
  3041	033701	201 00 0 00 040361 	DEVICE ADDRESS		= /]
  3042	033702	037 17 0 00 000001 		PNTALF
  3043	033703	200 00 0 07 035305 		MOVE	0,DZ.MAP(IND)	;GET ADDR. OF DEVICE
  3044	033704	037 17 0 00 000003 		PNTOCF
  3045	033705	271 07 0 00 000001 		ADDI	IND,1		;INCREMENT POINTER
  3046						MOVEI	[ASCIZ/
  3047	033706	201 00 0 00 040366 	VECTOR			= /]
  3048	033707	037 17 0 00 000001 		PNTALF
  3049	033710	200 00 0 07 035305 		MOVE	0,DZ.MAP(IND)	;GET VECTOR FOR THIS DEVICE
  3050	033711	037 03 0 00 000001 		PNT3F			;PRINT IT
  3051	033712	271 07 0 00 000001 		ADDI IND,1		;INCREMENT POINTER
  3052						MOVEI	[ASCIZ/
  3053	033713	201 00 0 00 040371 	BR LEVEL		= /]
  3054	033714	037 17 0 00 000001 		PNTALF
  3055	033715	200 00 0 07 035305 		MOVE	0,DZ.MAP(IND)	;GET BR LEVEL
  3056	033716	037 01 0 00 000001 		PNT1F			;PRINT IT
  3057	033717	271 07 0 00 000001 		ADDI	IND,1		;INC. POINTER
  3058						MOVEI	[ASCIZ/
  3059	033720	201 00 0 00 040374 	ACTIVE LINES BY BIT	= /]
  3060	033721	037 17 0 00 000001 		PNTALF
  3061	033722	200 00 0 07 035305 		MOVE	0,DZ.MAP(IND)	;GET ACTIVE LINES
  3062	033723	037 03 0 00 000001 		PNT3F
  3063	033724	271 07 0 00 000001 		ADDI	IND,1		;INC. THE POINTER
  3064						MOVEI	[ASCIZ/
  3065	033725	201 00 0 00 040401 	LINE PARAMETERS		= /]
  3066	033726	037 17 0 00 000001 		PNTALF
  3067	033727	200 00 0 07 035305 		MOVE	0,DZ.MAP(IND)	;GET INFO FOR LPR
  3068	033730	037 06 0 00 000001 		PNT6F			;PRINT IT
  3069	033731	271 07 0 00 000002 		ADDI	IND,2		;SKIP OVER LOOP BACK FLAG IN TABLE
  3070	033732	037 01 0 00 030242 		PCRLF
  3071	033733	332 00 0 07 035305 		SKIPE	DZ.MAP(IND)	;SKIP IF NO MORE DZ11'S IN TABLE
  3072	033734	254 00 0 00 033701 		JRST	HDR1		;GO BACK FOR NEXT DEVICE'S PARAMETERS
  3073	033735	263 17 0 00 000000 		RTN
DECSYSTEM 2020 DZ11 ASYNC. LINE MUX DIAGNOSTIC VERSION  0,2	MACRO %53(1020) 13:21 22-May-79 Page 53
DSDZAM	MAC	22-May-79 13:21		PROGRAM SUBROUTINES                                                                SEQ 0098

  3074					S^;*********************************************************************^
  3075					;* AUTOSIZE ROUTINE TO FIND ALL THE AVAILABLE DZ11'S IN THE
  3076					;* SYSTEM WITHOUT OPERATOR INTERVENTION.
  3077					S^;*********************************************************************^
  3078
  3079
  3080	033736	261 17 0 00 000502 	AUTSIZ:	PUT	502		;SAVE PAGE FAIL ADDR. USED BY SUBRTN
  3081	033737	260 17 0 00 034100 		GO	FNDVEC		;SET UP VECTOR DISPATCH TABLE
  3082	033740	476 00 0 00 035241 		SETOM	INIFLG		;SET ONCE ONLY FLAG
  3083						CLEAR	(DZACTV,^D31)^
  3084	033741	402 00 0 00 035172 		SETZM	DZACTV		;CLEAR 1ST LOC. OF TABLE
  3085	033742	200 00 0 00 040406 		MOVE	[DZACTV,,DZACTV+1]
  3086	033743	251 00 0 00 035231 		BLT	DZACTV+^D31	;CLEAR ENTIRE TABLE
  3087						CLEAR	(DZ.MAP,^D191)^
  3088	033744	402 00 0 00 035305 		SETZM	DZ.MAP		;CLEAR 1ST LOC. OF TABLE
  3089	033745	200 00 0 00 040407 		MOVE	[DZ.MAP,,DZ.MAP+1]
  3090	033746	251 00 0 00 035604 		BLT	DZ.MAP+^D191	;CLEAR ENTIRE TABLE
  3091	033747	402 00 0 00 035232 		SETZM	DZNUM		;SET OCTAL NUMBER OF DZ11'S TO 0
  3092	033750	476 00 0 00 035304 		SETOM	UBAFG1		;INIT UNIBUS ADAPTER ONCE ONLY FLAG
  3093	033751	201 00 0 00 034033 		MOVEI	0,ADAPT		;GET TRAP ROUTINE ADDRESS
  3094	033752	202 00 0 00 000502 		MOVEM	0,502		;PUT IN TRAP VECTOR
  3095	033753	712 00 1 00 035276 		RDIO	@UBASR1		;TRY TO READ 2ND UNIBUS ADAPTER
  3096	033754	200 00 0 00 035273 	AS0:	MOVE	0,UBASR0	;GET ADDRESS OF 1ST UNIBUS ADAPTER
  3097	033755	202 00 0 00 035301 		MOVEM	0,UBASR		;PUT IT IN WORK AREA
  3098	033756	201 00 0 00 034035 		MOVEI	0,PGFAIL	;SET UP EPT FOR PAGE FAILURE
  3099	033757	202 00 0 00 000502 		MOVEM	0,502		;CAUSED BY DEVICE TIMEOUT
  3100	033760	402 00 0 00 000012 		SETZM	ACT		;CLEAR AC12
  3101	033761	402 00 0 00 000007 		SETZM	IND		;CLEAR AC7
  3102	033762	200 03 0 00 040410 		MOVE	3,[-^D16,,0]	;COUNT FOR NUMBER OF DEVICES
  3103	033763	200 00 0 00 035270 		MOVE	BASE		;GET 1ST FLOATING ADDRESS
  3104	033764	202 00 0 00 035606 	AS1:	MOVEM	DZCSR		;STORE IT IN WORK AREA
  3105	033765	271 00 0 00 000004 		ADDI	4		;GET ADDRESS FOR TCR
  3106	033766	202 00 0 00 035614 		MOVEM	DZTCR		;STORE IT IN WORK AREA
  3107	033767	201 00 0 00 000040 		MOVEI	MSENAB		;SET UP BIT TO TEST
  3108	033770	201 01 0 00 000200 		MOVEI	1,TCR7		;SET UP ANOTHER BIT TO TEST
  3109	033771	714 00 1 00 035606 		BSIO	0,@DZCSR	;TRY TO SET MASTER SCAN
  3110	033772	714 01 1 00 035614 		BSIO	1,@DZTCR	;TRY TO TRANSMIT ON LINE 7
  3111	033773	201 04 0 00 100000 		MOVEI	4,TRDY		;GET MASK BIT
  3112	033774	201 02 0 00 000020 		MOVEI	2,20		;PUT DELAY COUNT IN AC2
  3113	033775	710 04 1 00 035606 	AS2:	TIOE	4,@DZCSR	;TEST FOR TX RDY
  3114	033776	254 00 0 00 034001 		JRST	AS3
  3115	033777	367 02 0 00 033775 		SOJG	2,AS2		;IF TIME LEFT, GO TEST BIT AGAIN
  3116	034000	254 00 0 00 034040 		JRST	PG1		;GO TRY NEXT DEVICE ADDRESS
  3117	034001	711 01 1 00 035614 	AS3:	TION	1,@DZTCR	;IS LINE 7 ENABLE STILL SET?
  3118	034002	254 00 0 00 034040 		JRST	PG1		;IF IT'S NOT, ASSUME IT'S NOT A DZ11
  3119	034003	711 00 1 00 035606 		TION	0,@DZCSR	;IS MASTER SCAN ENABLE STILL SET?
  3120	034004	254 00 0 00 034040 		JRST	PG1		;IF NOT, ASSUME IT'S NOT A DZ11
DECSYSTEM 2020 DZ11 ASYNC. LINE MUX DIAGNOSTIC VERSION  0,2	MACRO %53(1020) 13:21 22-May-79 Page 54
DSDZAM	MAC	22-May-79 13:21		PROGRAM SUBROUTINES                                                                SEQ 0099

  3121	034005	402 00 0 00 000006 	AS5:	SETZM	6		;CLEAR AC6
  3122	034006	713 06 1 00 035606 		WRIO	6,@DZCSR	;GET RID OF MASTER SCAN ENABLE
  3123	034007	713 06 1 00 035614 		WRIO	6,@DZTCR	;GET RID OF LINE 7 ENABLE
  3124	034010	200 06 0 00 035606 		MOVE	6,DZCSR		;GET BASE ADDRESS
  3125	034011	202 06 0 07 035305 		MOVEM	6,DZ.MAP(IND)	;MOVE DEVICE ADDR. TO MAP TABLE
  3126	034012	201 06 0 00 000005 		MOVEI	6,5		;GET DEFAULT BUS LEVEL
  3127	034013	202 06 0 07 035307 		MOVEM	6,DZ.MAP+2(IND)	;STORE IT IN MAP TABLE
  3128	034014	201 06 0 00 177400 		MOVEI	6,177400	;GET ALL DTR BITS
  3129	034015	714 06 1 00 035614 		BSIO	6,@DZTCR	;TRY TO SET THEM
  3130	034016	710 06 1 00 035614 		TIOE	6,@DZTCR	;DID ANY SET ?
  3131	034017	254 00 0 00 034022 		JRST	AS6		;YES!  IT'S AN EIA BOARD
  3132	034020	201 06 0 00 100000 		MOVEI	6,BIT15		;GET 20 MA FLAG
  3133	034021	506 06 0 07 035307 		HRLM	6,DZ.MAP+2(IND)	;SET 20 MA FLAG IN MAP TABLE
  3134	034022	201 06 0 00 000377 	AS6:	MOVEI	6,377		;GET ALL LINE BITS
  3135	034023	202 06 0 07 035310 		MOVEM	6,DZ.MAP+3(IND)	;SET DEFAULT LINE SELECTION
  3136	034024	201 06 0 00 017070 		MOVEI	6,17070		;GET DEFAULT PARAMETERS
  3137	034025	202 06 0 07 035311 		MOVEM	6,DZ.MAP+4(IND)	;STORE THEM IN MAP TABLE
  3138	034026	402 00 0 07 035312 		SETZM	DZ.MAP+5(IND)	;SET DEFAULT MODE OF OPERATION (INTERNAL)
  3139	034027	271 07 0 00 000006 		ADDI	IND,6		;UPDATE MAP INDEX
  3140	034030	476 00 0 03 035172 		SETOM	DZACTV(3)	;SET DEVICE ACTIVE FLAG
  3141	034031	253 03 0 00 034040 		AOBJN	3,PG1		;HAVE MAX. NUM. OF DEVICES BEEN FOUND  ?
  3142	034032	254 00 0 00 034045 		JRST	PGEND		;YES!  DON'T LOOK FOR ANYMORE.
  3143
  3144	034033	402 00 0 00 035304 	ADAPT:	SETZM	UBAFG1		;CLEAR FLAG 2ND UBA IS NOT PRESENT
  3145	034034	254 00 0 00 033754 		JRST	AS0		;RETURN TO MAINLINE PROGRAM
  3146
  3147
  3148	034035	201 00 0 00 440000 	PGFAIL:	MOVEI	TIMOUT!NED	;GET EXPECTED STATUS BITS
  3149	034036	713 00 1 00 035301 		WRIO	@UBASR		;CLEAR UNIBUS ADAPTER STAT. REG
  3150	034037	254 00 0 00 034045 		JRST	PGEND		;EXIT
  3151	034040	271 12 0 00 000010 	PG1:	ADDI	ACT,10		;UPDATE POINTER TO NEXT DEVICE
  3152	034041	200 00 0 00 035606 		MOVE	0,DZCSR		;GET DZ11 STATUS REG. ADDRESS
  3153	034042	271 00 0 00 000010 		ADDI	0,10		;UPDATE TO NEXT DZ11 ADDRESS
  3154	034043	305 12 0 00 003000 		CAIGE	ACT,3000	;HAVE WE COME TO THE END OF THE FLOATING
  3155									;ADDRESS SPACE.
  3156	034044	254 00 0 00 033764 		JRST	AS1		;TRY NEXT POSSIBLE DEV. ADDR.
DECSYSTEM 2020 DZ11 ASYNC. LINE MUX DIAGNOSTIC VERSION  0,2	MACRO %53(1020) 13:21 22-May-79 Page 55
DSDZAM	MAC	22-May-79 13:21		PROGRAM SUBROUTINES                                                                SEQ 0100

  3157	034045	336 00 0 00 035304 	PGEND:	SKIPN	UBAFG1		;SKIP IF TWO UNIBUS ADAPTERS
  3158	034046	254 00 0 00 034060 		JRST	PGEND1		;QUIT IF ONLY ONE UBA
  3159	034047	402 00 0 00 035304 		SETZM	UBAFG1		;CLEAR ONCE ONLY FLAG
  3160	034050	476 00 0 00 035303 		SETOM	UBAFLG		;SET FLAG FOR 2ND UNIBUS ADAPTER
  3161	034051	402 00 0 00 000012 		SETZM	ACT		;CLEAR THE FLOATING DEVICE INDEX REG.
  3162	034052	200 00 0 00 035276 		MOVE	0,UBASR1	;GET 2ND UBA ADDRESS
  3163	034053	202 00 0 00 035301 		MOVEM	0,UBASR		;PUT IT IN WORK LOCATION
  3164	034054	505 03 0 00 777760 		HRLI	3,-^D16		;RE-INIT DEVICE COUNT
  3165	034055	201 00 0 00 760000 		MOVEI	0,760000	;GET DZ11 BASE ADDRESS
  3166	034056	505 00 0 00 000003 		HRLI	0,3		;ADD 2ND CONTROLLER ADDRESS BITS
  3167	034057	254 00 0 00 033764 		JRST	AS1		;GO AUTOSIZE 2ND UNIBUS
  3168
  3169	034060	552 03 0 00 035232 	PGEND1:	HRRZM	3,DZNUM		;STORE COUNT OF DEVICES FOUND
  3170	034061	336 00 0 00 035232 		SKIPN	DZNUM		;SKIP IF ANY DEVICES FOUND
  3171	034062	254 00 0 00 034447 		JRST	MERR2		;AUTOSIZER DIDN'T FIND ANY DZ11'S
  3172	034063	552 03 0 00 035233 		HRRZM	3,SAVNUM	;SAVE WORKING COPY OF THE NUMBER OF DEVICES
  3173	034064	402 00 0 00 000000 		SETZM			;CLEAR ACCUMULATOR FOR INT. SER. ROUTINE
  3174	034065	402 00 0 00 000007 		SETZM	IND		;CLEAR INDEX REG.
  3175	034066	200 00 0 00 035271 	VECTOR:	MOVE	AROW		;GET DEFAULTVECTOR ADDRESS
  3176	034067	336 00 0 07 035305 		SKIPN	DZ.MAP(IND)	;SKIP IF DEVICE IS AVAILABLE
  3177	034070	254 00 0 00 034075 		JRST	AS7		;ALL DONE AUTOSIZING
  3178	034071	202 00 0 07 035306 		MOVEM	DZVC0(IND)	;STOR IN TABLE
  3179	034072	271 07 0 00 000006 		ADDI	IND,6		;INCREMENT TABLE POINTER
  3180	034073	271 00 0 00 000010 		ADDI	10		;INCREMENT VECTOR ADDRESS
  3181	034074	254 00 0 00 034067 		JRST	VECTOR+1	;DO FOR ALL
  3182
  3183	034075	262 17 0 00 000502 	AS7:	GET	502		;RESTORE PAGE FAIL ADDRESS FOR SUBRTN
  3184	034076	700 14 0 00 010000 		WRPI	LPICLR		;CLEAR THE PI SYSTEM
  3185	034077	263 17 0 00 000000 		RTN
  3186
  3187
DECSYSTEM 2020 DZ11 ASYNC. LINE MUX DIAGNOSTIC VERSION  0,2	MACRO %53(1020) 13:21 22-May-79 Page 56
DSDZAM	MAC	22-May-79 13:21		PROGRAM SUBROUTINES                                                                SEQ 0101

  3188					S^;*********************************************************************^
  3189					;* SET UP VECTOR DISPATCH TABLE FOR FINDING VECTORS ASSIGNED
  3190					;* TO THE ACTIVE DZ11'S.
  3191					S^;*********************************************************************^
  3192
  3193	034100	200 07 0 00 040411 	FNDVEC:	MOVE	IND,[-^D128,,0]	;WORDCOUNT FOR VECTBL
  3194	034101	200 00 0 00 040412 		MOVE	0,[JSR VECMAP]	;GET INT. ROUTINE DISPATCH
  3195	034102	202 00 0 07 035675 	MORE:	MOVEM	0,VECTBL(IND)	;PUT IT INTO THE DISPATCH TABLE
  3196	034103	271 00 0 00 000003 		ADDI	0,3		;UPDATE DISPATCH ADDRESS
  3197	034104	253 07 0 00 034102 		AOBJN	IND,MORE	;UPDATE TABLE POINTER
  3198	034105	263 17 0 00 000000 		RTN
  3199
  3200
DECSYSTEM 2020 DZ11 ASYNC. LINE MUX DIAGNOSTIC VERSION  0,2	MACRO %53(1020) 13:21 22-May-79 Page 57
DSDZAM	MAC	22-May-79 13:21		PROGRAM SUBROUTINES                                                                SEQ 0102

  3201					S^;*********************************************************************^
  3202					;* ROUTINE TO ALLOW OPERATOR TO INPUT DZ11 PARAMETERS
  3203					S^;*********************************************************************^
  3204
  3205	034106	402 00 0 00 035232 	QUES:	SETZM	DZNUM		;INIT NUMBER OF DZ11'S IN SYSTEM
  3206	034107	402 00 0 00 000007 		SETZM	IND		;INIT THE INDEX REG.
  3207						CLEAR	(DZACTV,^D31)^
  3208	034110	402 00 0 00 035172 		SETZM	DZACTV		;CLEAR 1ST LOC. OF TABLE
  3209	034111	200 00 0 00 040406 		MOVE	[DZACTV,,DZACTV+1]
  3210	034112	251 00 0 00 035231 		BLT	DZACTV+^D31	;CLEAR ENTIRE TABLE
  3211
  3212					;* GET THE DEVICE ADDRESS
  3213						PNTMSG	[ASCIZ/
  3214					STANDARD DZ11 # 1
  3215						UBA # = 3 ,BASE ADDRESS = 760010 , VECTOR = 340
  3216	034113	037 00 0 00 040413 	/]
  3217						PMSGF	<^CHANGE UBA # OR BASE ADDRESS FOR DZ11 ? >^
  3218	034114	037 04 0 00 040432 		PSIXMF	[SIXBIT\^CHANGE UBA # OR BASE ADDRESS FOR DZ11 ? _\]^
  3219	034115	037 01 0 00 000003 		TTIYES
  3220	034116	254 00 0 00 034131 		JRST	MUBA3
  3221
  3222	034117				MUBA1:	MOVEI	[ASCIZ/
  3223	034117	201 00 0 00 040441 	INPUT UBA # - /]
  3224	034120	037 17 0 00 000001 		PNTALF
  3225	034121	037 03 0 00 000003 		TTIOCT
  3226	034122	254 00 0 00 034126 		JRST	MUBA1A
  3227	034123	321 00 0 00 034126 		JUMPL	MUBA1A
  3228	034124	307 00 0 00 000017 		CAIG	17
  3229	034125	254 00 0 00 034130 		JRST	MUBA2
  3230
  3231	034126				MUBA1A:	PMSGF	<^INVALID UBA # ! (0 TO 17 ) !! >^
  3232	034126	037 04 0 00 040445 		PSIXMF	[SIXBIT\^INVALID UBA # ! (0 TO 17 ) !! _\]^
  3233	034127	254 00 0 00 034117 		JRST	MUBA1
  3234
  3235	034130	137 00 0 00 040453 	MUBA2:	DPB	0,[POINT 4,BASE,17]
  3236	034131				MUBA3:	PMSGF	<CHANGE DZ11 BASE ADDRESS ? >^
  3237	034131	037 04 0 00 040454 		PSIXMF	[SIXBIT\CHANGE DZ11 BASE ADDRESS ? _\]^
  3238	034132	037 01 0 00 000003 		TTIYES
  3239	034133	254 00 0 00 034146 		JRST	MUBA6		;NO
  3240
DECSYSTEM 2020 DZ11 ASYNC. LINE MUX DIAGNOSTIC VERSION  0,2	MACRO %53(1020) 13:21 22-May-79 Page 58
DSDZAM	MAC	22-May-79 13:21		PROGRAM SUBROUTINES                                                                SEQ 0103

  3241	034134				MUBA4:	PMSGF	<INPUT DZ11 BASE ADDRESS - >^
  3242	034134	037 04 0 00 040461 		PSIXMF	[SIXBIT\INPUT DZ11 BASE ADDRESS - _\]^
  3243	034135	037 03 0 00 000003 		TTIOCT
  3244	034136	254 00 0 00 034143 		JRST	MUBA4A
  3245	034137	321 00 0 00 034143 		JUMPL	MUBA4A
  3246	034140	135 01 0 00 040466 		LDB	1,[POINT 3,0,20]
  3247	034141	306 01 0 00 000007 		CAIN	1,7
  3248	034142	254 00 0 00 034145 		JRST	MUBA5
  3249
  3250	034143				MUBA4A:	PMSGF	<^INVALID DZ11 ADDRESS (7XXXXX) !! ->^
  3251	034143	037 04 0 00 040467 		PSIXMF	[SIXBIT\^INVALID DZ11 ADDRESS (7XXXXX) !! -_\]^
  3252	034144	254 00 0 00 034134 		JRST	MUBA4
  3253
  3254	034145	542 00 0 00 035270 	MUBA5:	HRRM	0,BASE
  3255
  3256	034146				MUBA6:	PMSGF	<HOW MANY DZ ' THIS SYSTEM ( 1 - 4 ) ? >^
  3257	034146	037 04 0 00 040475 		PSIXMF	[SIXBIT\HOW MANY DZ ' THIS SYSTEM ( 1 - 4 ) ? _\]^
  3258	034147	037 03 0 00 000003 		TTIOCT
  3259	034150	254 00 0 00 034154 		JRST	MUBA9A
  3260	034151	323 00 0 00 034154 		JUMPLE	MUBA9A
  3261	034152	307 00 0 00 000004 		CAIG	4
  3262	034153	254 00 0 00 034156 		JRST	MUBA9
  3263
  3264	034154				MUBA9A:	PMSGF	<INVALID DZ # - >^
  3265	034154	037 04 0 00 040504 		PSIXMF	[SIXBIT\INVALID DZ # - _\]^
  3266	034155	254 00 0 00 034146 		JRST	MUBA6
  3267	034156	202 00 0 00 035232 	MUBA9:	MOVEM	0,DZNUM		;SAVE THE NUMBER
  3268	034157	202 00 0 00 035233 		MOVEM	0,SAVNUM	;HERE TOO
  3269	034160	200 12 0 00 035233 		MOVE	ACT,SAVNUM	;GET IT IN WORK AREA
  3270	034161	476 00 0 12 035171 		SETOM	DZACTV-1(ACT)	;SET DZ ACTIVE FLAG
  3271	034162	367 12 0 00 034161 		SOJG	ACT,.-1		;SET FLAG FOR EACH DZ
  3272	034163	200 12 0 00 035233 		MOVE	ACT,SAVNUM	;GET THE # AGAIN
  3273	034164	200 00 0 00 035270 		MOVE	0,BASE		;GET BASE ADDRESS
  3274	034165	202 00 0 07 035305 		MOVEM	0,DZCR0(IND)	;STORE IN TABLE
  3275	034166	271 00 0 00 000010 		ADDI	0,10		;INCREMENT ADDRESS
  3276	034167	271 07 0 00 000006 		ADDI	IND,6		;INCREMENT TABLE POINTER
  3277	034170	367 12 0 00 034165 		SOJG	ACT,.-3		;DO FOR ALL AVAILABLE DZ'S
  3278	034171	402 00 0 00 000007 		SETZM	IND
  3279
  3280						PMSGF	<CHANGE VECTOR ADDRESS FOR DZ11 ? >^
  3281	034172	037 04 0 00 040507 		PSIXMF	[SIXBIT\CHANGE VECTOR ADDRESS FOR DZ11 ? _\]^
  3282	034173	037 01 0 00 000003 		TTIYES
  3283	034174	254 00 0 00 034206 		JRST	MUBAX
  3284
DECSYSTEM 2020 DZ11 ASYNC. LINE MUX DIAGNOSTIC VERSION  0,2	MACRO %53(1020) 13:21 22-May-79 Page 59
DSDZAM	MAC	22-May-79 13:21		PROGRAM SUBROUTINES                                                                SEQ 0104

  3285	034175				MUBA7:	PMSGF	<INPUT VECTOR ADDRESS - >^
  3286	034175	037 04 0 00 040515 		PSIXMF	[SIXBIT\INPUT VECTOR ADDRESS - _\]^
  3287	034176	037 03 0 00 000003 		TTIOCT
  3288	034177	254 00 0 00 034203 		JRST	MUBA7A
  3289	034200	321 00 0 00 034203 		JUMPL	MUBA7A
  3290	034201	305 00 0 00 001750 		CAIGE	^D1000
  3291	034202	254 00 0 00 034205 		JRST	MUBA8
  3292
  3293	034203				MUBA7A:	PMSGF	<^INVALID VECTOR ADDRESS , MUST BE LT 1000 !! >^
  3294	034203	037 04 0 00 040521 		PSIXMF	[SIXBIT\^INVALID VECTOR ADDRESS , MUST BE LT 1000 !! _\]^
  3295	034204	254 00 0 00 034175 		JRST	MUBA7
  3296
  3297	034205	202 00 0 00 035271 	MUBA8:	MOVEM	AROW
  3298
  3299	034206	200 00 0 00 035271 	MUBAX:	MOVE	0,AROW		;GET THE BASE VECTOR
  3300	034207	200 12 0 00 035233 		MOVE	ACT,SAVNUM	;GET THE # OF DZ'S
  3301	034210	202 00 0 07 035306 		MOVEM	0,DZVC0(IND)	;STORE IN TABLE
  3302	034211	271 07 0 00 000006 		ADDI	IND,6		;INCREMENT TABLE POINTER
  3303	034212	271 00 0 00 000010 		ADDI	0,10		;INCREMENT VECTOR ADDRESS
  3304	034213	367 12 0 00 034210 		SOJG	ACT,.-3		;DO FOR ALL DZ'Z
  3305	034214	402 00 0 00 000007 		SETZM	IND
  3306
  3307	034215				MUBAA:	PMSGF	<BR LEVEL ( 4 - 7 ) ? >^
  3308	034215	037 04 0 00 040531 		PSIXMF	[SIXBIT\BR LEVEL ( 4 - 7 ) ? _\]^
  3309	034216	037 03 0 00 000003 		TTIOCT
  3310	034217	254 00 0 00 034232 		JRST	MUBX1
  3311	034220	305 00 0 00 000004 		CAIGE	0,4
  3312	034221	254 00 0 00 034232 		JRST	MUBX1
  3313	034222	301 00 0 00 000010 		CAIL	0,10
  3314	034223	254 00 0 00 034232 		JRST	MUBX1
  3315	034224	200 12 0 00 035233 		MOVE	ACT,SAVNUM	;GET THE # OF DZ'S
  3316	034225	202 00 0 07 035307 		MOVEM	0,DZLV0(IND)	;STORE BR IN TABLE
  3317	034226	271 07 0 00 000006 		ADDI	IND,6		;INCREMENT TABLE POINTER
  3318	034227	367 12 0 00 034225 		SOJG	ACT,.-2		;DO FOR ALL
  3319	034230	402 00 0 00 000007 		SETZM	IND
  3320	034231	254 00 0 00 034234 		JRST	MUBAB
  3321	034232				MUBX1:	PMSGF	<WRONG INPUT !!! >^
  3322	034232	037 04 0 00 040535 		PSIXMF	[SIXBIT\WRONG INPUT !!! _\]^
  3323	034233	254 00 0 00 034215 		JRST	MUBAA
  3324	034234				MUBAB:	PMSGF	<ARE THE DZ'S EIA MODULE (M7819) ? >^
  3325	034234	037 04 0 00 040540 		PSIXMF	[SIXBIT\ARE THE DZ'S EIA MODULE (M7819) ? _\]^
  3326	034235	037 01 0 00 000003 		TTIYES
  3327	034236	254 00 0 00 034245 		JRST	MUBX2		;"N" ANSWER = (20 AM)
  3328	034237	551 00 0 00 100000 		HRRZI	1B20		;"Y"   "    = EIA
  3329	034240	200 12 0 00 035233 		MOVE	ACT,SAVNUM	;GET THE # OF DZ'S
  3330	034241	272 00 0 07 035307 		ADDM	DZLV0(IND)	;SET EIA FLAG
  3331	034242	271 07 0 00 000006 		ADDI	IND,6		;INCREMENT POINTER TO TABLE
  3332	034243	367 12 0 00 034241 		SOJG	ACT,.-2		;DO FOR ALL
  3333	034244	402 00 0 00 000007 		SETZM	IND
  3334
DECSYSTEM 2020 DZ11 ASYNC. LINE MUX DIAGNOSTIC VERSION  0,2	MACRO %53(1020) 13:21 22-May-79 Page 60
DSDZAM	MAC	22-May-79 13:21		PROGRAM SUBROUTINES                                                                SEQ 0105

  3335	034245	201 01 0 00 000200 	MUBX2:	MOVEI	1,200
  3336						MOVEI	[ASCIZ/
  3337					SPECIFY MAINTNANCE MODE DESIRED:
  3338					EXTERNAL (H325) EIA ONLY	= E
  3339					INTERNAL (DZCSR) BIT 3=1 	= I
  3340	034246	201 00 0 00 040546 	STAGGERED (H3271 OR H3190) 	= S /]
  3341	034247	037 17 0 00 000001 		PNTALF
  3342	034250	037 00 0 00 000003 	MUBX3:	TTICHR			;GET CHARACTER
  3343	034251	254 00 0 00 034250 		JRST	.-1		;WAIT FOR CHARACTER TO BE INPUT
  3344	034252	306 00 0 00 000111 		CAIN	"I"		;WAS IT AN "I"
  3345	034253	254 00 0 00 034262 		JRST	MNTF		;SET INTER NAL MAINT MODE FLAG
  3346	034254	306 00 0 00 000105 		CAIN	"E"		;WAS IT AN E
  3347	034255	254 00 0 00 034265 		JRST	DEFLT		;GO STOR FLAG IN DEVICE TABLE
  3348	034256	306 00 0 00 000123 		CAIN	"S"		;WAS IT AN "S"
  3349	034257	254 00 0 00 034264 		JRST	MNTF1		;GO STOR FLAG IN DEVICE TABLE
  3350						PMSGF	<WRONG INPUT !! >^
  3351	034260	037 04 0 00 040600 		PSIXMF	[SIXBIT\WRONG INPUT !! _\]^
  3352	034261	254 00 0 00 034250 		JRST	MUBX3
  3353	034262	402 00 0 00 000001 	MNTF:	SETZM	1		;SET DEFAULT MODE INTERNAL
  3354	034263	254 00 0 00 034265 		JRST	.+2
  3355	034264	476 00 0 00 000001 	MNTF1:	SETOM	1		;MAKE FLAG = STAGGEREDMODE
  3356	034265	200 12 0 00 035233 	DEFLT:	MOVE	ACT,SAVNUM	;GET THE # OF DZ'S
  3357	034266	201 02 0 00 017070 		MOVEI	2,17070		;SET UP DEFAULT PARAMETERS
  3358	034267	201 00 0 00 000377 		MOVEI	377		;GET DEFAULT FOR ALL LINES
  3359	034270	202 01 0 07 035312 		MOVEM	1,MANT0(IND)	;MOVE INTO TABLE
  3360	034271	202 02 0 07 035311 		MOVEM	2,PAR0(IND)	;DEFAULT OF 9600 BAUD
  3361	034272	202 00 0 07 035310 		MOVEM	LINE0(IND)	;ALSO HERE
  3362	034273	271 07 0 00 000006 		ADDI	IND,6		;INCREMENT TABLE POINTER
  3363	034274	367 12 0 00 034270 		SOJG	ACT,.-4		;DO FOR ALL DZ'S
  3364	034275	402 00 0 07 035305 		SETZM	DZ.MAP(IND)	;TERMINATE MAP TABLE
  3365	034276	037 10 0 00 000002 		SWITCH
  3366	034277	602 00 0 00 000010 		TRNE	PARAM		;INPUT PARAMETERS ?
  3367	034300	260 17 0 00 034303 		GO 	PRMTR		;YES ASK OPERATOR
  3368	034301	476 00 0 00 035241 		SETOM	INIFLG		;SET FLAG PARAMETERS ARE SET UP
  3369	034302	263 17 0 00 000000 		RTN
DECSYSTEM 2020 DZ11 ASYNC. LINE MUX DIAGNOSTIC VERSION  0,2	MACRO %53(1020) 13:21 22-May-79 Page 61
DSDZAM	MAC	22-May-79 13:21		PROGRAM SUBROUTINES                                                                SEQ 0106

  3370					S^;*********************************************************************^
  3371					;* ROUTINE TO ALLOW OPERATOR TO INPUT THE LINES HE WANTS ACTIVE
  3372					;* AND THE LINE PARAMETERS.  (BAUD RATE, CHAR. LENGTH, STOP BITS ETC.
  3373					S^;*********************************************************************^
  3374
  3375	034303	201 02 0 00 034303 	PRMTR:	MOVEI	2,PRMTR		;GET RETURN ADDR.
  3376	034304	202 02 0 00 035671 		MOVEM	2,$TMP1		;STORE IT FOR MERR3 ROUTINE
  3377						MOVEI	[ASCIZ/
  3378					INPUT ACTIVE LINES BY BIT (1 - 377)
  3379	034305	201 00 0 00 040603 	LSB = LINE 0   MSB = LINE 7	   = /]
  3380	034306	037 17 0 00 000001 		PNTALF
  3381	034307	037 03 0 00 000003 		TTIOCT			;GET INPUT FROM OPERATOR
  3382	034310	254 00 0 00 034452 		JRST	MERR3		;INPUT ERROR.  TELL OPERATOR
  3383	034311	305 00 0 00 000001 		CAIGE	0,1		;LOWEST ACCEPTABLE VALUE
  3384	034312	254 00 0 00 034452 		JRST	MERR3		;TOO LOW!  TELL OPERATOR
  3385	034313	301 00 0 00 000400 		CAIL	0,400		;HIGHEST ACCEPTABLE VALUE +1
  3386	034314	254 00 0 00 034452 		JRST	MERR3		;TOO HIGH!  TELL OPERATOR
  3387	034315	402 00 0 00 000007 		SETZM	IND		;CLEAR INDEX
  3388	034316	200 12 0 00 035233 		MOVE	ACT,SAVNUM	;GET # OF DZ'S
  3389	034317	202 00 0 07 035310 		MOVEM	LINE0(IND)	;STORE IT IN DEVICE MAP TABLE
  3390	034320	271 07 0 00 000006 		ADDI	IND,6		;INCREMENT INDEX
  3391	034321	367 12 0 00 034317 		SOJG	ACT,.-2		;DO FOR ALL DZ'S
  3392
  3393					;* ROUTINE TO ASSURE LINE SELECTION IS CORRECT
  3394					;* IF STAGGERED MODE LOOPBACK WAS SPECIFIED
  3395
  3396	034322	331 00 0 07 035312 		SKIPL	MANT0(IND)	;IS FLAG = -1
  3397	034323	254 00 0 00 034337 		JRST	BAUDR		;NO! IT MUST BE INT. OR EXT. LOOPBACK
  3398	034324	606 00 0 00 000377 		TRNN	0,377		;ARE ALL LINES SELECTED ?
  3399	034325	254 00 0 00 034337 		JRST	BAUDR		;YES!
  3400	034326	201 01 0 00 000004 		MOVEI	1,4		;NO!  GET SHIFT COUNT
  3401	034327	606 00 0 00 000003 	PRMTR1:	TRNN	0,3B35		;TEST A PAIR OF LINES
  3402	034330	254 00 0 00 034335 		JRST	SHFT		;GO TEST NEXT PAIR
  3403	034331	606 00 0 00 000001 		TRNN	0,1B35		;SKIP IF EVEN # LINE IS NOT SELECTED
  3404	034332	254 00 0 00 034455 		JRST	MERR4		;ERROR GO TELL OPERATOR
  3405	034333	606 00 0 00 000002 		TRNN	0,1B34		;SKIP IF ODD # LINE IS NOT SELECTED
  3406	034334	254 00 0 00 034455 		JRST	MERR4		;ERROR GO TELL OPERATOR
  3407	034335	242 00 0 00 777776 	SHFT:	LSH	0,-2		;SET UP NEXT LINE PAIR
  3408	034336	367 01 0 00 034327 		SOJG	1,PRMTR1	;GO BACK IF MORE LINES LEFT
  3409
DECSYSTEM 2020 DZ11 ASYNC. LINE MUX DIAGNOSTIC VERSION  0,2	MACRO %53(1020) 13:21 22-May-79 Page 62
DSDZAM	MAC	22-May-79 13:21		PROGRAM SUBROUTINES                                                                SEQ 0107

  3410	034337	201 02 0 00 034341 	BAUDR:	MOVEI	2,BAUDR+2	;GET RETURN ADDRESS
  3411	034340	202 02 0 00 035671 		MOVEM	2,$TMP1		;STORE IT FOR MERR3 ROUTINE
  3412						MOVEI	[ASCIZ/
  3413					INPUT BAUD RATE (0 - 17 OCTAL)
  3414					REFER TO TEXT STARTING PROCEDURE FOR BAUD RATE SELECTION
  3415	034341	201 00 0 00 040622 	OR REFER TO LINE PARAMETER REGISTER BITS 8 - 11	= /]
  3416	034342	037 17 0 00 000001 		PNTALF
  3417	034343	037 03 0 00 000003 		TTIOCT			;WAIT FOR OPERATOR INPUT
  3418	034344	254 00 0 00 034452 		JRST	MERR3		;INPUT ERROR  TELL OPERATOR
  3419	034345	305 00 0 00 000000 		CAIGE	0,0		;LOWEST ACCEPTABLE VALUE
  3420	034346	254 00 0 00 034452 		JRST	MERR3		;NOT WITHIN RANGE OF ACCEPTABLE VALUES
  3421	034347	301 00 0 00 000020 		CAIL	0,20		;HIGHEST ACCEPTABLE VALUE +1
  3422	034350	254 00 0 00 034452 		JRST	MERR3		;TOO HIGH!  TELL OPERATOR
  3423	034351	402 00 0 00 000007 		SETZM	IND		;CLEAR INDEX
  3424	034352	200 12 0 00 035232 		MOVE	ACT,DZNUM	;GET # OF DZ'S
  3425	034353	201 02 0 00 010070 		MOVEI	2,10070		;GET DEFAULT PARAMETERS
  3426	034354	202 02 0 07 035311 		MOVEM	2,PAR0(IND)	;STORE THEM IN DZ.MAP TABLE
  3427	034355	137 00 0 00 040657 		DPB	0,[POINT 4,PAR0(IND),27] ;PUT BAUD RATE INTO DZ.MAP TABLE
  3428	034356	271 07 0 00 000006 		ADDI	IND,6		;INCREMENT INDEX
  3429	034357	367 12 0 00 034353 		SOJG	ACT,.-4		;ALL DONE ?
  3430	034360	263 17 0 00 000000 		RTN			;RETURN TO MAIN LINE PROG.
DECSYSTEM 2020 DZ11 ASYNC. LINE MUX DIAGNOSTIC VERSION  0,2	MACRO %53(1020) 13:21 22-May-79 Page 63
DSDZAM	MAC	22-May-79 13:21		PROGRAM SUBROUTINES                                                                SEQ 0108

  3431					S^;*********************************************************************^
  3432					;* ROUTINE TO ALLOW OPERATOR TO START AT A SPECIFIC TEST NUMBER
  3433					S^;*********************************************************************^
  3434
  3435
  3436	034361	201 01 0 00 034363 	TSTSEL:	MOVEI	1,TSTS1		;GET RETURN ADDRESS
  3437	034362	202 01 0 00 035671 		MOVEM	1,$TMP1		;STORE IT FOR MERR3
  3438	034363				TSTS1:	MOVEI	[ASCIZ/
  3439	034363	201 00 0 00 040660 	TEST NO. (1 - 33 OCTAL)	= /]
  3440	034364	037 17 0 00 000001 		PNTALF
  3441	034365	037 03 0 00 000003 		TTIOCT			;GET INPUT
  3442	034366	254 00 0 00 034452 		JRST	MERR3		;NOT AN OCTAL NUMBER
  3443	034367	305 00 0 00 000001 		CAIGE	0,1		;LOWEST ACCEPTABLE NUMBER
  3444	034370	254 00 0 00 034452 		JRST	MERR3		;NOT WITHIN RANGE
  3445	034371	301 00 0 00 000034 		CAIL	0,34		;HIGHEST ACCEPTABLE VALUE +1
  3446	034372	254 00 0 00 034452 		JRST	MERR3		;TOO HIGH!  TELL OPERATOR
  3447	034373	202 00 0 00 034375 		MOVEM	0,TSTBL		;STORE IT
  3448	034374	263 17 0 00 000000 		RTN
  3449
  3450	034375	000000	000001		TSTBL:	1			;STORE TABLE INDEX HERE
  3451	034376	000000	030671			TEST1
  3452	034377	000000	030753			TEST2
  3453	034400	000000	031015			TEST3
  3454	034401	000000	031052			TEST4
  3455	034402	000000	031107			TEST5
  3456	034403	000000	031144			TEST6
  3457	034404	000000	031201			TEST7
  3458	034405	000000	031236			TEST10
  3459	034406	000000	031277			TEST11
  3460	034407	000000	031341			TEST12
  3461	034410	000000	031405			TEST13
  3462	034411	000000	031435			TEST14
  3463	034412	000000	031474			TEST15
  3464	034413	000000	031533			TEST16
  3465	034414	000000	031612			TEST17
  3466	034415	000000	031666			TEST20
  3467	034416	000000	031733			TEST21
  3468	034417	000000	032024			TEST22
  3469	034420	000000	032121			TEST23
  3470	034421	000000	032224			TEST24
  3471	034422	000000	032374			TEST25
  3472	034423	000000	032567			TEST26
  3473	034424	000000	032721			TEST27
  3474	034425	000000	033044			TEST30
  3475	034426	000000	033151			TEST31
  3476	034427	000000	033260			TEST32
  3477	034430	000000	033437			TEST33
DECSYSTEM 2020 DZ11 ASYNC. LINE MUX DIAGNOSTIC VERSION  0,2	MACRO %53(1020) 13:21 22-May-79 Page 64
DSDZAM	MAC	22-May-79 13:21		OPERATOR INFORMATION MESSAGES                                                      SEQ 0109

  3478						SUBTTL	OPERATOR INFORMATION MESSAGES
  3479
  3480	034431	202 00 0 00 035670 	MERR1:	MOVEM	0,$TMP0		;SAVE AC0
  3481						MOVEI	[ASCIZ/
  3482					******  WRONG VECTOR  ******
  3483	034432	201 00 0 00 040666 	/]
  3484	034433	037 17 0 00 000001 		PNTALF
  3485	034434	201 00 0 00 040675 		MOVEI	[ASCIZ/DEVICE ADDRESS = /]
  3486	034435	037 17 0 00 000001 		PNTALF
  3487	034436	200 00 0 00 035606 		MOVE	0,DZCSR		;GET DEVICE ADDRESS
  3488	034437	037 07 0 00 000001 		PNT7F
  3489	034440	201 00 0 00 040701 		MOVEI	[ASCIZ/   VECTOR = /]
  3490	034441	037 17 0 00 000001 		PNTALF
  3491	034442	200 00 0 00 035670 		MOVE	0,$TMP0		;GET VECTOR ADDRESS
  3492	034443	242 00 0 00 000002 		LSH	0,2		;MAKE IT PDP-11 STYLE FOR PRINTING
  3493	034444	037 03 0 00 000001 		PNT3F
  3494	034445	200 00 0 00 035670 		MOVE	0,$TMP0		;RESTORE AC0
  3495	034446	263 17 0 00 000000 		RTN
  3496
  3497	034447				MERR2:	MOVEI	[ASCIZ/
  3498					NO DZ11'S SELECTED TO RUN.  PROGRAM ABORTED!
  3499	034447	201 00 0 00 040704 	/]
  3500	034450	037 17 0 00 000001 		PNTALF
  3501	034451	037 16 0 00 000004 		EOPUUO
  3502
  3503	034452	201 00 0 00 040716 	MERR3:	MOVEI	[ASCIZ/? WRONG RESPONSE/]
  3504	034453	037 17 0 00 000001 		PNTALF
  3505	034454	254 00 1 00 035671 		JRST	@$TMP1		;GO BACK AND ASK QUESTION AGAIN
  3506
  3507	034455				MERR4:	MOVEI	[ASCIZ/
  3508					ILLEGAL STAGGERED MODE LINE ASSIGNMENT
  3509	034455	201 00 0 00 040722 	/]
  3510	034456	037 17 0 00 000001 		PNTALF
  3511	034457	254 00 1 00 035671 		JRST	@$TMP1		;GO BACK ASK QUESTIONS AGAIN
  3512
  3513	034460				QMSG:	ASCIZ	/
  3514	034460	015 012 124 131 120 	TYPE ANY CHARACTER FOR ECHO
  3515	034461	105 040 101 116 131
  3516	034462	040 103 110 101 122
  3517	034463	101 103 124 105 122
  3518	034464	040 106 117 122 040
  3519	034465	105 103 110 117 015
  3520	034466	012 124 131 120 105 	TYPE CONTROL C TO EXIT TEST
  3521	034467	040 103 117 116 124
  3522	034470	122 117 114 040 103
  3523	034471	040 124 117 040 105
  3524	034472	130 111 124 040 124
  3525	034473	105 123 124 015 012 	/
  3526	034474	000 000 000 000 000
DECSYSTEM 2020 DZ11 ASYNC. LINE MUX DIAGNOSTIC VERSION  0,2	MACRO %53(1020) 13:21 22-May-79 Page 65
DSDZAM	MAC	22-May-79 13:21		OPERATOR INFORMATION MESSAGES                                                      SEQ 0110

  3527	034475	000000	000000		BYTPT:	0			;STORAGE LOC. FOR MESSAGE POINTER
  3528	034476	000000	000000		HELP:	0
  3529	034477	000000	000000			0
  3530	034500	000000	000000			0
  3531	034501	000000	000000			0
  3532	034502	000000	000000			0
  3533	034503	000000	000000			0
  3534	034504	000000	000000			0
  3535	034505	000000	000000			0
  3536	034506	000000	000000			0
  3537	034507	000000	000000			0
  3538	034510	64 62 41 43 45 00 		SIXBIT/TRACE/		;TYPE ASTERISK FOR EACH LINE TESTED IN TEST 32
  3539	034511	62 45 63 45 54 00 		SIXBIT/RESEL/		;RESELECT ACTIVE DZ11'S
  3540	034512	63 53 64 63 64 00 		SIXBIT/SKTST/		;SKIP TEST 32 (SAVES TIME)
  3541	034513	51 56 50 55 41 60 		SIXBIT/INHMAP/		;INHIBIT PRINTING THE SYSTEM MAP
  3542	034514	60 41 62 41 55 00 		SIXBIT/PARAM/		;SET BAUD RATE AND ACTIVE LINES
  3543	034515	64 63 64 54 60 00 		SIXBIT/TSTLP/		;LOOP ON TEST
  3544	034516	62 63 64 62 64 00 		SIXBIT/RSTRT/		;START AT SELECTED TEST
  3545	034517	51 56 43 54 44 22 		SIXBIT/INCLD2/		;INCLUDE TEST 2 (DCLR BIT)
  3546
DECSYSTEM 2020 DZ11 ASYNC. LINE MUX DIAGNOSTIC VERSION  0,2	MACRO %53(1020) 13:21 22-May-79 Page 66
DSDZAM	MAC	22-May-79 13:21		UTILITY ROUTINES AND INTERRUPT HANDLERS                                            SEQ 0111

  3547						SUBTTL	UTILITY ROUTINES AND INTERRUPT HANDLERS
  3548
  3549					S^;*********************************************************************^
  3550					;* ROUTINE TO DECIDE IF TRAP WAS CAUSED INTENTIONALLY BY THE PROGRAM
  3551					;* AND RETURN +2, OR LET SUBROUTINE PACKAGE HANDLE THE TRAP.
  3552					S^;*********************************************************************^
  3553
  3554	034520	711 01 1 00 035301 	PGTRAP:	TION	1,@UBASR	;SKIP IF IT'S AN I O TIMOUT
  3555	034521	254 00 0 00 034530 		JRST	PGTR1		;MUST BE SOME OTHER PAGE FAILURE
  3556	034522	712 03 1 00 035301 		RDIO	3,@UBASR	;GET UBA STATUS
  3557	034523	713 01 1 00 035301 		WRIO	1,@UBASR	;CLEAR UNIBUS ADAPTER STATUS BITS
  3558	034524	200 00 0 00 000501 		MOVE	0,LPFWPC	;GET PC OF INSTRUCTION THAT CAUSED TRAP
  3559	034525	271 00 0 00 000002 		ADDI	0,2		;ADD 2 TO IT
  3560	034526	202 00 0 00 035671 		MOVEM	0,$TMP1		;STORE IT
  3561	034527	254 00 1 00 035671 		JRST	@$TMP1		;RETURN TO ERROR CALL IN FAILING TEST
  3562
  3563	034530	262 17 0 00 000502 	PGTR1:	GET	LPGFTR		;RESTORE SUBROUTINE'S PGFAIL VECTOR
  3564	034531	254 00 1 00 000502 		JRST	@LPGFTR		;GIVE CONTROL TO SUBROUTINE
  3565					S^;*********************************************************************^
  3566					;* ROUTINE FOR PRINTING ADDITIONAL STATUS WITH ERROR CALL
  3567					;* AC 3 SHOULD CONTAIN UNIBUS ADAPTER STATUS
  3568					;* AC 4   "       "    ADDRESS OF DZ11 REGISTER
  3569					S^;*********************************************************************^
  3570
  3571	034532				STAT1:	MOVEI	[ASCIZ/
  3572	034532	201 00 0 00 040733 	SELECTED LINE		= /]
  3573	034533	037 17 0 00 000001 		PNTALF
  3574	034534	200 00 0 00 035167 		MOVE	0,SAVLIN	;GET LINE NUMBER
  3575	034535	037 01 0 00 000001 		PNT1F
  3576	034536				STAT:	MOVEI	[ASCIZ/
  3577	034536	201 00 0 00 040737 	DZ11 REG. ADDRESS	= /]
  3578	034537	037 17 0 00 000001 		PNTALF
  3579	034540	200 00 0 00 000004 		MOVE	0,4		;GET DEVICE ADDRESS FROM AC 4
  3580	034541	037 07 0 00 000001 		PNT7F
  3581						MOVEI	[ASCIZ/
  3582	034542	201 00 0 00 040744 	UNIBUS ADAPTER STATUS	= /]
  3583	034543	037 17 0 00 000001 		PNTALF
  3584	034544	200 00 0 00 000003 		MOVE	0,3		;GET UBA STATUS
  3585	034545	037 06 0 00 000001 		PNT6F
  3586	034546	037 01 0 00 030242 		PCRLF
  3587	034547	263 17 0 00 000000 		RTN
DECSYSTEM 2020 DZ11 ASYNC. LINE MUX DIAGNOSTIC VERSION  0,2	MACRO %53(1020) 13:21 22-May-79 Page 67
DSDZAM	MAC	22-May-79 13:21		UTILITY ROUTINES AND INTERRUPT HANDLERS                                            SEQ 0112

  3588
  3589					S^;*********************************************************************^
  3590					;* ROUTINE TO SET THE LINE PARAMETERS FOR ALL ACTIVE LINES.
  3591					S^;*********************************************************************^
  3592
  3593	034550	261 17 0 00 000001 	LPREN:	PUT	1		;SAVE AC 1
  3594	034551	261 17 0 00 000002 		PUT	2		; "   "  2
  3595	034552	200 02 0 00 035165 		MOVE	2,PAR		;GET THE PARAMETERS
  3596	034553	201 01 0 00 000001 		MOVEI	1,BIT0		;START WITH LINE 0
  3597	034554	612 01 0 00 035164 	LPR3:	TDNE	1,LINE		;IS THIS A VALID LINE?
  3598	034555	713 02 1 00 035612 		WRIO	2,@DZLPR	;YES! SET PARAMETERS
  3599	034556	271 02 0 00 000001 		ADDI	2,1		;INCREMENT LINE #
  3600	034557	242 01 0 00 000001 		LSH	1,1		;SELECT NEXT TX. LINE
  3601	034560	305 01 0 00 000400 		CAIGE	1,400		;HAVE WE TESTED ALL LINES?
  3602	034561	254 00 0 00 034554 		JRST	LPR3		;NO!  GO BACK FOR MORE
  3603	034562	262 17 0 00 000002 		GET	2		;RESTORE AC 2
  3604	034563	262 17 0 00 000001 		GET	1		;   "    "  1
  3605	034564	263 17 0 00 000000 		RTN
  3606
DECSYSTEM 2020 DZ11 ASYNC. LINE MUX DIAGNOSTIC VERSION  0,2	MACRO %53(1020) 13:21 22-May-79 Page 68
DSDZAM	MAC	22-May-79 13:21		UTILITY ROUTINES AND INTERRUPT HANDLERS                                            SEQ 0113

  3607
  3608					S^;*********************************************************************^
  3609					;* ROUTINE TO CLEAR THE DZ11
  3610					S^;*********************************************************************^
  3611
  3612	034565	261 17 0 00 000001 	DZCLR:	PUT	1		;SAVE AC 1
  3613	034566	201 01 0 00 000005 		MOVEI	1,5		;GET A DELAY COUNT
  3614	034567	201 00 0 00 000020 		MOVEI	0,DCLR		;GET DEVICE CLEAR BIT
  3615	034570	714 00 1 00 035606 		BSIO	0,@DZCSR	;SET IT IN DZ11 STATUS REG.
  3616	034571	363 01 0 00 034576 		SOJLE	1,CLRERR	;DECREMENT THE WAIT COUNT
  3617	034572	710 00 1 00 035606 		TIOE	0,@DZCSR	;IS IT STILL SET?
  3618	034573	254 00 0 00 034571 		JRST	.-2		;YES!  WAIT FOR IT TO DISAPPEAR
  3619	034574	262 17 0 00 000001 		GET	1		;RESTORE AC 1
  3620	034575	263 17 0 00 000000 		RTN			;RETURN TO CALLING ROUTINE
  3621
  3622	034576				CLRERR:	ERROR	(DZCLR,0,0,0,CLEARING DZ11,DCLR DIDN'T WORK)^
  3623	034576	036 00 0 00 040760
  3624	034577	035 00 0 00 034565 		ERLOOP	DZCLR		;IF ERROR, LOOP TO DZCLR
  3625	034600	263 17 0 00 000000 		RTN
  3626
  3627					S^;*********************************************************************^
  3628					;* DELAY ROUTINE TO ALLOW TIME FOR CABLE DELAY
  3629					S^;*********************************************************************^
  3630
  3631	034601	200 00 0 00 035236 	DELAY:	MOVE	0,DLYCNT	;GET DELAY TIME BASE
  3632	034602	365 00 0 00 034602 		SOJGE	0,.		;DOWNCOUNT IT
  3633	034603	263 17 0 00 000000 		RTN			;RETURN TO CALLING ROUTINE
  3634
  3635					S^;*********************************************************************^
  3636					;* ROUTINE TO CLEAR DZ11 AND SET MAINT. BIT IN CSR
  3637					S^;*********************************************************************^
  3638
  3639	034604	260 17 0 00 034565 	SETMNT:	GO	DZCLR		;GO CLEAR THE DZ11
  3640	034605	332 00 0 00 035166 		SKIPE	MODE		;SKIP IF IN INTERNAL MODE
  3641	034606	254 00 0 00 034611 		JRST	MNTEX		;NOT INTERNAL MODE RETURN TO MAINLINE
  3642	034607	201 00 0 00 000010 		MOVEI	0,MAINT		;GET MAINTENANCE BIT
  3643	034610	714 00 1 00 035606 		BSIO	0,@DZCSR	;PUT DZ11 IN INTERNAL LOOPBACK
  3644	034611	263 17 0 00 000000 	MNTEX:	RTN
  3645
  3646
  3647	034612	712 00 1 00 035610 	MTSILO:	RDIO	0,@DZRBUF	;READ THE DZ11 BUFFER
  3648	034613	602 00 0 00 100000 		TRNE	0,DVALID	;IS THIS A VALID CHARACTER ?
  3649	034614	254 00 0 00 034612 		JRST	MTSILO		;YES! GO BACK FOR MORE CHARACTERS
  3650	034615	263 17 0 00 000000 		RTN			;SILO IS EMPTY
DECSYSTEM 2020 DZ11 ASYNC. LINE MUX DIAGNOSTIC VERSION  0,2	MACRO %53(1020) 13:21 22-May-79 Page 69
DSDZAM	MAC	22-May-79 13:21		UTILITY ROUTINES AND INTERRUPT HANDLERS                                            SEQ 0114

  3651
  3652					S^;*********************************************************************^
  3653					;* INTERRUPT HANDLERS
  3654					S^;*********************************************************************^
  3655
  3656	034616	000000	000000		RXINT:	0
  3657	034617	712 03 1 00 035301 		RDIO	3,@UBASR	;GET UNIBUS ADAPTER STATUS
  3658	034620	712 06 1 00 035606 		RDIO	6,@DZCSR	;GET DZ11 STATUS
  3659	034621	202 03 0 00 035622 		MOVEM	3,DZRIS		;STORE STATUS
  3660	034622	254 12 1 00 034616 		JEN	@RXINT		;DISMISS INT. & RETURN TO MAINLINE
  3661
  3662	034623	000000	000000		TXINT:	0
  3663	034624	712 03 1 00 035301 		RDIO	3,@UBASR	;GET UNIBUS ADAPTER STATUS
  3664	034625	712 06 1 00 035606 		RDIO	6,@DZCSR	;GET DZ11 STATUS
  3665	034626	202 03 0 00 035623 		MOVEM	3,DZTIS		;STORE STATUS
  3666	034627	254 12 1 00 034623 		JEN	@TXINT		;DISMISS INT. & RETURN TO MAINLINE
  3667
  3668	034630	000000	000000		WRGVEC:	0
  3669	034631	712 03 1 00 035301 		RDIO	3,@UBASR	;GET UNIBUS ADAPTER STATUS
  3670	034632	712 06 1 00 035606 		RDIO	6,@DZCSR	;GET DZ11 STATUS
  3671	034633	476 00 0 00 035624 		SETOM	VECERR		;SET ERROR FLAG
  3672	034634	254 12 1 00 034630 		JEN	@WRGVEC		;DISMISS INT. & RETURN TO MAINLINE
  3673
  3674	034635	402 00 0 00 035624 	ZSTAT:	SETZM	VECERR		;INIT. FLAG FOR WRONG INTERRUPT VECTOR
  3675	034636	402 00 0 00 035622 		SETZM	DZRIS		;CLEAR RX INT. STATUS STORAGE LOC.
  3676	034637	402 00 0 00 035623 		SETZM	DZTIS		;  "   TX  "     "       "     "
  3677	034640	263 17 0 00 000000 		RTN
  3678
  3679	034641	201 14 0 00 000010 	HIPIA:	MOVEI	14,10		;GET HI LIMIT FOR PIA
  3680	034642	202 14 0 00 035235 		MOVEM	14,HILIM	;STORE IT
  3681	034643	242 14 0 00 777775 		LSH	14,-3		;GET STARTING PIA
  3682	034644	202 14 0 00 035234 		MOVEM	14,LOLIM	;STORE IT
  3683	034645	201 00 0 00 004000 		MOVEI	0,HIREQ		;GET BIT TO TEST
  3684	034646	202 00 0 00 035237 		MOVEM	0,PIREQ		;STORE IT
  3685	034647	263 17 0 00 000000 		RTN
  3686
  3687	034650	000000	000000		RXPRI:	0
  3688	034651	712 03 1 00 035301 		RDIO	3,@UBASR	;GET UNIBUS ADAPTER STATUS
  3689	034652	712 06 1 00 035610 		RDIO	6,@DZRBUF	;GET THE CHARACTER
  3690	034653	201 00 0 00 040100 		MOVEI	0,RIE!TIE	;GET THE INT. ENABLE BITS
  3691	034654	715 00 1 00 035606 		BCIO	0,@DZCSR	;DON'T ALLOW THE DZ11 TO INTERRUPT
  3692	034655	254 12 1 00 034650 		JEN	@RXPRI
DECSYSTEM 2020 DZ11 ASYNC. LINE MUX DIAGNOSTIC VERSION  0,2	MACRO %53(1020) 13:21 22-May-79 Page 70
DSDZAM	MAC	22-May-79 13:21		UTILITY ROUTINES AND INTERRUPT HANDLERS                                            SEQ 0115

  3693
  3694	034656	000000	000000		TXSER:	0
  3695	034657	261 17 0 00 000000 		PUT	0		;SAVE AC 0
  3696	034660	261 17 0 00 000006 		PUT	6		;  "  "  6
  3697	034661	261 17 0 00 000007 		PUT	7		;  "  "  7
  3698	034662	261 17 0 00 000013 		PUT	13		;  "  " 13
  3699	034663	712 06 1 00 035606 		RDIO	6,@DZCSR	;GET DZ11 STATUS
  3700	034664	202 06 0 00 035623 		MOVEM	6,DZTIS		;SAVE THE STATUS
  3701	034665	135 07 0 00 040763 		LDB	IND,[POINT 3,DZTIS,27]
  3702									;GET LINE #
  3703	034666	606 06 0 00 100000 		TRNN	6,TRDY		;IS IT READY TO XMIT ?
  3704	034667	254 00 0 00 034704 		JRST	TXS2		;GO FLAG THE ERROR
  3705	034670	200 13 0 07 035247 		MOVE	13,TD0(IND)	;GET CHAR. TO XMIT FOR THIS LINE
  3706	034671	723 13 1 00 035620 		WRIOB	13,@DZTDR	;TX. THE CHARACTER
  3707	034672	201 00 0 00 000001 	TXS1:	MOVEI	0,BIT0		;GET LINE 0 BIT
  3708	034673	240 00 1 00 000007 		ASH	0,@IND		;CHANGE OCTAL LINE # TO BIT POSITION
  3709	034674	602 06 0 00 100000 		TRNE	6,TRDY		;IS IT READY TO XMIT
  3710	034675	375 00 0 07 035247 		SOSGE	TD0(IND)	;HAVE WE SENT ALL CHARACTERS FOR THIS LINE
  3711	034676	715 00 1 00 035614 		BCIO	0,@DZTCR	;TURN OFF THIS LINE
  3712	034677	262 17 0 00 000013 		GET	13		;RESTORE AC 13
  3713	034700	262 17 0 00 000007 		GET	7		;   "    "   7
  3714	034701	262 17 0 00 000006 		GET	6		;   "    "   6
  3715	034702	262 17 0 00 000000 		GET	0		;   "    "   0
  3716	034703	254 12 1 00 034656 		JEN	@TXSER		;RETURN TO MAINLINE CODE
  3717
  3718	034704	202 06 0 07 035151 	TXS2:	MOVEM	6,TXCSR(IND)	;SAVE ERROR STATUS
  3719	034705	254 00 0 00 034672 		JRST	TXS1		;GO DISMISS THIS INT.
  3720
DECSYSTEM 2020 DZ11 ASYNC. LINE MUX DIAGNOSTIC VERSION  0,2	MACRO %53(1020) 13:21 22-May-79 Page 71
DSDZAM	MAC	22-May-79 13:21		UTILITY ROUTINES AND INTERRUPT HANDLERS                                            SEQ 0116

  3721
  3722
  3723	034706	000000	000000		RXSER:	0
  3724	034707	261 17 0 00 000000 		PUT	0		;SAVE AC 0
  3725	034710	261 17 0 00 000005 		PUT	5		;  "  "  5
  3726	034711	261 17 0 00 000006 		PUT	6		;  "  "  6
  3727	034712	261 17 0 00 000007 		PUT	7		;  "  "  7
  3728	034713	712 06 1 00 035606 		RDIO	6,@DZCSR	;GET DZ11 STATUS
  3729	034714	202 06 0 00 035622 		MOVEM	6,DZRIS		;SAVE THE STATUS
  3730	034715	606 06 0 00 000200 		TRNN	6,RDONE		;IS THERE A CHAR. IN THE BUFFER
  3731	034716	254 00 0 00 034751 		JRST	RXS2		;GO FLAG THE ERROR
  3732	034717	602 06 0 00 020000 		TRNE	6,SILOAL	;SKIPE IF SILO OK
  3733	034720	254 00 0 00 034751 		JRST	RXS2		;TX. GETTING AHEAD OF RX.
  3734	034721	712 05 1 00 035610 		RDIO	5,@DZRBUF	;GET THE CHARACTER
  3735	034722	506 05 0 00 035622 		HRLM	5,DZRIS		;STORE THE RBUF
  3736	034723	135 07 0 00 040764 		LDB	IND,[POINT 3,DZRIS,9]
  3737									;GET THE RX LINE #
  3738	034724	505 05 0 00 000000 		HRLI	5,0		;CLEAR THE GARBAGE
  3739	034725	606 05 0 00 100000 		TRNN	5,DVALID	;IS THE DATA VALID ?
  3740	034726	254 00 0 00 034753 		JRST	RXS3		;NO! FLAG THE ERROR
  3741	034727	602 05 0 00 070000 		TRNE	5,OVRRUN!FRMERR!PARER
  3742	034730	254 00 0 00 034753 		JRST	RXS3		;FLAG THIS ERROR
  3743	034731	405 05 0 00 000377 		ANDI	5,377		;MASK THE RECEIVED CHARACTER
  3744	034732	312 05 0 07 035257 		CAME	5,TR0(IND)	;CORRECT = ACTUAL ?
  3745	034733	254 00 0 00 034753 		JRST	RXS3		;GO FLAG ERROR
  3746	034734	371 00 0 07 035257 	RXS1:	SOSL	TR0(IND)	;HAVE WE RECEIVED ALL CHARACTERS FOR THIS LINE
  3747	034735	254 00 0 00 034744 		JRST	RXEX		;GO DISMISS INT.
  3748	034736	335 00 0 00 035166 		SKIPGE	MODE		;ARE WE IN STAGGERED MODE?
  3749	034737	640 07 0 00 000001 		TRC	IND,1		;YES! CHANGE THE LINE NUMBER
  3750	034740	201 00 0 00 000001 		MOVEI	0,BIT0		;GET LINE 0 BIT
  3751	034741	240 00 1 00 000007 		ASH	0,@IND		;CHANGE OCTAL LINE # TO BIT POSITION
  3752	034742	650 00 0 00 034756 		TDC	0,LNECNT	;GET THE LINES STILL BEING SERVICED
  3753	034743	202 00 0 00 034756 		MOVEM	0,LNECNT	;DISMISS THE PRESENT LINE
  3754	034744	262 17 0 00 000007 	RXEX:	GET	7		;RESTORE AC 7
  3755	034745	262 17 0 00 000006 		GET	6		;   "    "  6
  3756	034746	262 17 0 00 000005 		GET	5		;   "    "  5
  3757	034747	262 17 0 00 000000 		GET	0		;   "    "  0
  3758	034750	254 12 1 00 034706 		JEN	@RXSER		;RETURN TO MAINLINE CODE
DECSYSTEM 2020 DZ11 ASYNC. LINE MUX DIAGNOSTIC VERSION  0,2	MACRO %53(1020) 13:21 22-May-79 Page 72
DSDZAM	MAC	22-May-79 13:21		UTILITY ROUTINES AND INTERRUPT HANDLERS                                            SEQ 0117

  3759
  3760	034751	552 06 0 07 035141 	RXS2:	HRRZM	6,RXCSR(IND)	;SAVE ERROR STATUS
  3761	034752	254 00 0 00 034734 		JRST	RXS1		;GO DISMISS THIS INT.
  3762
  3763	034753	552 06 0 07 035141 	RXS3:	HRRZM	6,RXCSR(IND)	;SAVE THE DZ11 STATUS
  3764	034754	506 05 0 07 035141 		HRLM	5,RXCSR(IND)	;SAVE THE CHARACTER
  3765	034755	254 00 0 00 034734 		JRST	RXS1		;GO BACK AND DISMISS INT.
  3766
  3767	034756	000000	000000		LNECNT:	0			;SELECTED LINES WHICH STILL NEED SERVICE
  3768	034757	700 14 0 00 001100 	RXERR:	WRPI	LCHNOF!LPICH1	;DON'T ALLOW INTERRUPTS FROM DZ11
  3769						ERROR1	(0,0,0,RX. INT. ERROR,,RXERR1)^
  3770	034760	036 00 0 00 040765
  3771	034761	700 14 0 00 002100 		WRPI	LCHNON!LPICH1	;ALLOW DZ11 TO INTERRUPT AGAIN
  3772	034762	263 17 0 00 000000 		RTN
  3773	034763				RXERR1:	MOVEI	[ASCIZ/
  3774	034763	201 00 0 00 040770 	TEST /]
  3775	034764	037 17 0 00 000001 		PNTALF
  3776	034765	200 00 0 00 035670 		MOVE 0,$TMP0		;GET THE TEST NUMBER
  3777	034766	037 02 0 00 000001 		PNT2F
  3778						MOVEI	[ASCIZ/
  3779	034767	201 00 0 00 040772 	DZ11 STATUS		= /]
  3780	034770	037 17 0 00 000001 		PNTALF
  3781	034771	540 00 0 04 035141 		HRR	0,RXCSR(4)	;GET THE DZ11 STATUS FOR THIS LINE
  3782	034772	037 06 0 00 000001 		PNT6F
  3783					MOVEI	[ASCIZ/
  3784	034773	201 00 0 00 040776 	DZRBUF			= /]
  3785	034774	037 17 0 00 000001 		PNTALF
  3786	034775	544 00 0 04 035141 		HLR	0,RXCSR(4)	;GET CONTENTS OF RECEIVER BUFFER
  3787	034776	037 06 0 00 000001 		PNT6F
  3788	034777	402 00 0 04 035141 		SETZM	RXCSR(4)	;CLEAR ERROR FLAG FOR THIS LINE
  3789	035000	037 01 0 00 030242 		PCRLF
  3790	035001	263 17 0 00 000000 		RTN
  3791
  3792	035002	700 14 0 00 001100 	TXERR:	WRPI	LCHNOF!LPICH1	;DON'T ALLOW INTERRUPTS FOR DZ11
  3793						ERROR1	(0,0,0,TX. INT. ERROR,,TXERR1)^
  3794	035003	036 00 0 00 041001
  3795	035004	700 14 0 00 002100 		WRPI	LCHNON!LPICH1	;ALLOW DZ11 TO INTERRUPT AGAIN
  3796	035005	263 17 0 00 000000 		RTN
  3797	035006				TXERR1:	MOVEI	[ASCIZ/
  3798	035006	201 00 0 00 040770 	TEST /]
  3799	035007	037 17 0 00 000001 		PNTALF
  3800	035010	200 00 0 00 035670 		MOVE	0,$TMP0		;GET TEST NUMBER
  3801	035011	037 02 0 00 000001 		PNT2F
  3802						MOVEI	[ASCIZ/
  3803	035012	201 00 0 00 040772 	DZ11 STATUS		= /]
  3804	035013	037 17 0 00 000001 		PNTALF
  3805	035014	200 00 0 04 035151 		MOVE	0,TXCSR(4)	;GET THE STATUS FOR THIS LINE
  3806	035015	037 06 0 00 000001 		PNT6F
  3807	035016	402 00 0 04 035151 		SETZM	TXCSR(4)	;CLEAR ERROR FLAG FOR THIS LINE
  3808	035017	037 01 0 00 030242 		PCRLF
  3809	035020	263 17 0 00 000000 		RTN
DECSYSTEM 2020 DZ11 ASYNC. LINE MUX DIAGNOSTIC VERSION  0,2	MACRO %53(1020) 13:21 22-May-79 Page 73
DSDZAM	MAC	22-May-79 13:21		UTILITY ROUTINES AND INTERRUPT HANDLERS                                            SEQ 0118

  3810
  3811	035021				DATER:	ERROR1	(0,0,0,DATA XFER ERROR,,DATER1)^
  3812	035021	036 00 0 00 041004
  3813	035022	263 17 0 00 000000 		RTN
  3814	035023				DATER1:	MOVEI	[ASCIZ/
  3815	035023	201 00 0 00 040770 	TEST /]
  3816	035024	037 17 0 00 000001 		PNTALF
  3817	035025	200 00 0 00 035670 		MOVE	0,$TMP0		;GET LINE NUMBER
  3818	035026	037 02 0 00 000001 		PNT2F
  3819						MOVEI	[ASCIZ/
  3820					LINE FAILED TO RECEIVE A FULL CHARACTER COUNT
  3821	035027	201 00 0 00 041007 	LAST CHARACTER			= /]
  3822	035030	037 17 0 00 000001 		PNTALF
  3823	035031	540 00 0 04 035257 		HRR	0,TR0(4)	;GET THE RECEIVED CHAR. FOR THIS LINE
  3824	035032	037 06 0 00 000001 		PNT6F
  3825						MOVEI	[ASCIZ/
  3826	035033	201 00 0 00 041025 	LINE NUMBER			= /]
  3827	035034	037 17 0 00 000001 		PNTALF
  3828	035035	200 00 0 00 000004 		MOVE	0,4		;GET LINE NUMBER
  3829	035036	037 01 0 00 000001 		PNT1F
  3830	035037	402 00 0 04 035257 		SETZM	TR0(4)		;CLEAR THE CHARACTER COUNT FOR THIS LINE
  3831	035040	037 01 0 00 030242 		PCRLF
  3832	035041	263 17 0 00 000000 		RTN
  3833
  3834	035042				BAUDER:	MOVEI	[ASCIZ/
  3835	035042	201 00 0 00 041031 	DZ11 ADDRESS	= /]
  3836	035043	037 17 0 00 000001 		PNTALF
  3837	035044	200 00 0 00 035606 		MOVE	0,DZCSR
  3838	035045	037 07 0 00 000001 		PNT7F
  3839						MOVEI	[ASCIZ/
  3840	035046	201 00 0 00 041035 	PARAMETERS	= /]
  3841	035047	037 17 0 00 000001 		PNTALF
  3842	035050	200 00 0 00 035165 		MOVE	0,PAR
  3843	035051	037 05 0 00 000001 		PNT5F
  3844						MOVEI	[ASCIZ/
  3845	035052	201 00 0 00 041041 	PREVIOUS TIME	= /]
  3846	035053	037 17 0 00 000001 		PNTALF
  3847	035054	200 00 0 00 035171 		MOVE	0,XMTCNT
  3848	035055	037 13 0 00 000001 		PNTHWF
  3849						MOVEI	[ASCIZ/
  3850	035056	201 00 0 00 041045 	PRESENT TIME	= /]
  3851	035057	037 17 0 00 000001 		PNTALF
  3852	035060	200 00 0 00 035236 		MOVE	0,DLYCNT
  3853	035061	037 13 0 00 000001 		PNTHWF
  3854	035062	037 01 0 00 030242 		PCRLF
  3855	035063	263 17 0 00 000000 		RTN
DECSYSTEM 2020 DZ11 ASYNC. LINE MUX DIAGNOSTIC VERSION  0,2	MACRO %53(1020) 13:21 22-May-79 Page 74
DSDZAM	MAC	22-May-79 13:21		UTILITY ROUTINES AND INTERRUPT HANDLERS                                            SEQ 0119

  3856
  3857
  3858	035064	000000	000000		ECSER:	0
  3859	035065	261 17 0 00 000000 		PUT	0		;SAVE AC 0
  3860	035066	261 17 0 00 000001 		PUT	1		;SAVE AC 1
  3861	035067	261 17 0 00 000005 		PUT	5		;SAVE AC 5
  3862	035070	261 17 0 00 000006 		PUT	6		;SAVE AC 6
  3863	035071	261 17 0 00 000007 		PUT	7		;SAVE AC 7
  3864	035072	712 06 1 00 035606 		RDIO	6,@DZCSR	;GET DZ11 STATUS
  3865	035073	202 06 0 00 035622 		MOVEM	6,DZRIS		;SAVE THE STATUS
  3866	035074	712 05 1 00 035610 		RDIO	5,@DZRBUF	;GET THE CHARACTER
  3867	035075	506 05 0 00 035622 		HRLM	5,DZRIS		;STORE THE RBUF
  3868	035076	135 07 0 00 040764 		LDB	IND,[POINT 3,DZRIS,9]
  3869									;GET THE RX LINE #
  3870	035077	602 06 0 00 020000 		TRNE	6,SILOAL	;SKIP IF SILO OK
  3871	035100	260 17 0 00 035136 		GO	ECS3		;FLAG THIS ERROR
  3872	035101	505 05 0 00 000000 		HRLI	5,0		;CLEAR THE GARBAGE
  3873	035102	606 05 0 00 100000 		TRNN	5,DVALID	;IS THE DATA VALID ?
  3874	035103	260 17 0 00 035136 		GO	ECS3		;NO! FLAG THE ERROR
  3875	035104	602 05 0 00 070000 		TRNE	5,OVRRUN!FRMERR!PARER
  3876	035105	260 17 0 00 035136 		GO	ECS3		;FLAG THIS ERROR
  3877	035106	405 05 0 00 000377 		ANDI	5,377		;MASK THE RECEIVED CHARACTER
  3878	035107	306 05 0 00 000003 		CAIN	5,3		;IS IT A CTRL C
  3879	035110	254 00 0 00 035124 		JRST	ECEX		;YES!  QUIT THIS TEST
  3880	035111	201 01 0 00 000001 		MOVEI	1,BIT0		;GET LINE 0 BIT
  3881	035112	240 01 1 00 000007 		ASH	1,@IND		;CHANGE OCTAL LINE # TO BIT POSITION
  3882	035113	723 01 1 00 035614 		WRIOB	1,@DZTCR	;SELECT TX LINE
  3883	035114	201 00 0 00 000007 		MOVEI	0,7		;GET A SMALL COUNT
  3884	035115	202 00 0 00 035236 		MOVEM	0,DLYCNT	;STORE IT FOR DELAY ROUTINE
  3885	035116	260 17 0 00 034601 		GO	DELAY		;WAIT FOR SCANNER
  3886	035117	712 06 1 00 035606 		RDIO	6,@DZCSR	;GET THE STATUS
  3887	035120	606 06 0 00 100000 		TRNN	6,TRDY		;IS TX READY ?
  3888	035121	202 06 0 07 035151 		MOVEM	6,TXCSR(IND)	;SAVE ERROR STATUS AND FLAG IT
  3889	035122	713 05 1 00 035620 		WRIO	5,@DZTDR	;SEND THE CHARACTER BACK TO SENDER
  3890	035123	254 00 0 00 035130 		JRST	ECEX1		;PREPARE TO DEPART
  3891	035124	201 00 0 00 000100 	ECEX:	MOVEI	0,UBINIT	;GET UNIBUS CLEAR BIT
  3892	035125	714 00 1 00 035301 		BSIO	0,@UBASR	;CLEAR UNIBUS ADAPTER
  3893	035126	714 00 1 00 035301 		BSIO	0,@UBASR	;	DITTO
  3894	035127	476 00 0 07 035257 		SETOM	TR0(IND)	;FLAG CONTROL C
  3895	035130	262 17 0 00 000007 	ECEX1:	GET	7		;RESTORE AC 7
  3896	035131	262 17 0 00 000006 		GET	6		;RESTORE AC 6
  3897	035132	262 17 0 00 000005 		GET	5		;RESTORE AC 5
  3898	035133	262 17 0 00 000001 		GET	1		;RESTORE AC 1
  3899	035134	262 17 0 00 000000 		GET	0		;RESTORE AC 0
  3900	035135	254 12 1 00 035064 		JEN	@ECSER		;RETURN TO MAINLINE CODE
  3901
  3902
  3903	035136	552 06 0 07 035141 	ECS3:	HRRZM	6,RXCSR(IND)	;SAVE THE DZ11 STATUS
  3904	035137	506 05 0 07 035141 		HRLM	5,RXCSR(IND)	;SAVE THE CHARACTER
  3905	035140	263 17 0 00 000000 		RTN
  3906
  3907	035141				RXCSR:	BLOCK	^D8		;STORAGE FOR LINE STATUS & RBUF CONTENTS
  3908
  3909	035151				TXCSR:	BLOCK	^D8		;STORAGE FOR LINE STATUS
  3910
DECSYSTEM 2020 DZ11 ASYNC. LINE MUX DIAGNOSTIC VERSION  0,2	MACRO %53(1020) 13:21 22-May-79 Page 75
DSDZAM	MAC	22-May-79 13:21		FLAGS AND BUFFERS                                                                  SEQ 0120

  3911						SUBTTL	FLAGS AND BUFFERS
  3912
  3913									;PROGRAM VARIABLES
  3914
  3915	035161	000000	000000		$BASE:	0			;DZ11 STATUS REG. ADDR.
  3916	035162	000000	000000		DZRIV:	0			;REC. INTR VECTOR
  3917	035163	000000	000000		DZPRT:	0			;PRIORITY LEVEL & EIA FLAG
  3918
  3919	035164	000000	000377		LINE:	377			;DEFAULT ALL EIGHT LINES RUNNING
  3920	035165	000000	017470		PAR:	17470			;8 BITS/CHAR,2 STOP BITS,19200 BAUD, NO PARITY
  3921	035166	000000	000000		MODE:	0			;DEFAULT MAINTENANCE MODE
  3922	035167	000000	000000		SAVLIN:	0			;LINE NUMBER
  3923	035170	000000	000000		XMTLIN:	0			;TRANSMISSION LINE NUMBER
  3924	035171	000000	000000		XMTCNT:	0			;COUNT OF WORDS IN A TX PATTERN
  3925	035172				DZACTV:	BLOCK ^D32		;DZ11'S SELECTED ACTIVE
  3926	035232	000000	000001		DZNUM:	1			;OCTAL NUMBER OF DZ11'S
  3927	035233	000000	000001		SAVNUM:	1			;WORKABLE NUMBER
  3928	035234	000000	000000		LOLIM:	0			;MINIMUM ALLOWABLE VALUE
  3929	035235	000000	000000		HILIM:	0			;HIGHEST ALLOWABLE VALUE
  3930	035236	000000	000001		DLYCNT:	1			;DELAY TIME PATCHABLE FOR MORE TIME
  3931	035237	000000	000000		PIREQ:	0			;PI REQUEST BIT
  3932
  3933
  3934									;PROGRAM CONTROL FLAGS
  3935
  3936	035240	000000	000000		EIAFLG:	0			;0=EIA	100000=20 MA
  3937	035241	000000	000000		INIFLG:	0			;PROGRAM INITIALIZATION FLAG
  3938	035242	000000	000000		HDRFLG:	0			;INIT. FLAG FOR HEADER MAP
  3939	035243	000000	000000		MNTFLG:	0			;MAINTENANCE BIT SET FLAG
  3940	035244	000000	000000		SLINE:	0			;SINGLE LINE TESTING FLAG FOR ECHO TEST
  3941	035245	000000	000000		ELINE:	0
  3942	035246	000000	000000		ELNEN:	0
  3943
DECSYSTEM 2020 DZ11 ASYNC. LINE MUX DIAGNOSTIC VERSION  0,2	MACRO %53(1020) 13:21 22-May-79 Page 76
DSDZAM	MAC	22-May-79 13:21		FLAGS AND BUFFERS                                                                  SEQ 0121

  3944									;DATA VARIABLES
  3945
  3946	035247	000000	000000		TD0:	0
  3947	035250	000000	000000		TD1:	0
  3948	035251	000000	000000		TD2:	0
  3949	035252	000000	000000		TD3:	0
  3950	035253	000000	000000		TD4:	0
  3951	035254	000000	000000		TD5:	0
  3952	035255	000000	000000		TD6:	0
  3953	035256	000000	000000		TD7:	0
  3954
  3955	035257	000000	000000		TR0:	0
  3956	035260	000000	000000		TR1:	0
  3957	035261	000000	000000		TR2:	0
  3958	035262	000000	000000		TR3:	0
  3959	035263	000000	000000		TR4:	0
  3960	035264	000000	000000		TR5:	0
  3961	035265	000000	000000		TR6:	0
  3962	035266	000000	000000		TR7:	0
  3963	035267	000000	000000		STOP:	0
  3964
  3965	035270	000000	000000		BASE:	0
  3966	035271	000000	000000		AROW:	0
  3967									;UNIBUS ADAPTER DEVICE ADDRESSES
  3968
  3969	035272	000001	763000		UBAPR0:	1763000			;PAGING RAM BASE ADDRESS
  3970									;1763077 TOP ADDRESS
  3971	035273	000001	763100		UBASR0:	1763100			;STATUS REGISTER
  3972	035274	000001	763300		UBAMT0:	1763300			;MAINT. REGISTER
  3973
  3974	035275	000003	763000		UBAPR1:	3763000			;2ND UNIBUS ADAPTER ADDRESSES
  3975	035276	000003	763100		UBASR1:	3763100
  3976	035277	000003	763300		UBAMT1:	3763300
  3977
  3978	035300	000000	000000		UBAPR:	0			;WORK AREA FOR UNIBUS ADAPTER
  3979	035301	000000	000000		UBASR:	0
  3980	035302	000000	000000		UBAMT:	0
  3981	035303	000000	000000		UBAFLG:	0			;FLAG FOR 2ND UNIBUS ADAPTER
  3982	035304	000000	000000		UBAFG1:	0			;ONCE ONLY FLAG FOR 2ND UBA
  3983
DECSYSTEM 2020 DZ11 ASYNC. LINE MUX DIAGNOSTIC VERSION  0,2	MACRO %53(1020) 13:21 22-May-79 Page 77
DSDZAM	MAC	22-May-79 13:21		FLAGS AND BUFFERS                                                                  SEQ 0122

  3984
  3985
  3986	035305				DZ.MAP:
  3987	035305	000000	000000		DZCR0:	0			;CONTROL STATUS REGRISTER FOR DZ11 NO. 0
  3988	035306	000000	000000		DZVC0:	0			;RECEIVER AND BASE VECTOR FOR DZ11 NO. 0
  3989	035307	000000	000000		DZLV0:	0			;PRIORITY LEVEL AND EIA FLAG SELECTOR
  3990	035310	000000	000000		LINE0:	0			;ALL LINES SELECTED
  3991	035311	000000	000000		PAR0:	0			;PARAMETERS
  3992	035312	000000	000000		MANT0:	0			;MAINTENANCE MODE FOR THIS DEVICE
  3993
  3994	035313				DZCR1:	BLOCK 6
  3995
  3996	035321				DZCR2:	BLOCK 6
  3997
  3998	035327				DZCR3:	BLOCK 6
  3999
  4000	035335				DZCR4:	BLOCK 6
  4001
  4002	035343				DZCR5:	BLOCK 6
  4003
  4004	035351				DZCR6:	BLOCK 6
  4005
  4006	035357				DZCR7:	BLOCK 6
  4007
  4008	035365				DZCR10:	BLOCK 6
  4009
  4010	035373				DZCR11:	BLOCK 6
  4011
  4012	035401				DZCR12:	BLOCK 6
  4013
  4014	035407				DZCR13:	BLOCK 6
  4015
  4016	035415				DZCR14:	BLOCK 6
  4017
  4018	035423				DZCR15:	BLOCK 6
  4019
  4020	035431				DZCR16:	BLOCK 6
  4021
  4022	035437				DZCR17:	BLOCK 6
  4023
  4024	035445				DZCR20:	BLOCK 6
  4025
  4026	035453				DZCR21:	BLOCK 6
  4027
  4028	035461				DZCR22: BLOCK 6
  4029
  4030	035467				DZCR23: BLOCK 6
  4031
  4032	035475				DZCR24:	BLOCK 6
  4033
DECSYSTEM 2020 DZ11 ASYNC. LINE MUX DIAGNOSTIC VERSION  0,2	MACRO %53(1020) 13:21 22-May-79 Page 78
DSDZAM	MAC	22-May-79 13:21		FLAGS AND BUFFERS                                                                  SEQ 0123

  4034	035503				DZCR25:	BLOCK 6
  4035
  4036	035511				DZCR26:	BLOCK 6
  4037
  4038	035517				DZCR27:	BLOCK 6
  4039
  4040	035525				DZCR30:	BLOCK 6
  4041
  4042	035533				DZCR31:	BLOCK 6
  4043
  4044	035541				DZCR32:	BLOCK 6
  4045
  4046	035547				DZCR33:	BLOCK 6
  4047
  4048	035555				DZCR34:	BLOCK 6
  4049
  4050	035563				DZCR35:	BLOCK 6
  4051
  4052	035571				DZCR36:	BLOCK 6
  4053
  4054	035577				DZCR37:	BLOCK 6
  4055
  4056
  4057	035605	000000	035605		DZ.END:	.
DECSYSTEM 2020 DZ11 ASYNC. LINE MUX DIAGNOSTIC VERSION  0,2	MACRO %53(1020) 13:21 22-May-79 Page 79
DSDZAM	MAC	22-May-79 13:21		FLAGS AND BUFFERS                                                                  SEQ 0124

  4058
  4059									;DZ11 VECTOR AND REGISTER POINTER WORKING AREA
  4060
  4061	035606	000000	000000		DZCSR:	0			;R/W
  4062	035607	000000	000000		HDZCSR:	0			;R/W
  4063
  4064	035610	000000	000000		DZRBUF:	0			;READ ONLY
  4065	035611	000000	000000		HDZRBUF: 0			;READ ONLY
  4066
  4067	035612	000000	000000		DZLPR:	0			;WRITE ONLY
  4068	035613	000000	000000		HDZLPR:	0			;WRITE ONLY
  4069
  4070	035614	000000	000000		DZTCR:	0			;R/W
  4071	035615	000000	000000		HDZTCR:	0			;R/W
  4072
  4073	035616	000000	000000		DZMSR:	0			;READ ONLY
  4074	035617	000000	000000		HDZMSR:	0			;READ ONLY
  4075
  4076	035620	000000	000000		DZTDR:	0			;WRITE ONLY
  4077	035621	000000	000000		HDZTDR:	0			;WRITE ONLY
  4078
  4079									;DEFAULT VECTORS
  4080
  4081	035622	000000	000000		DZRIS:	0			;REC. INTR STATUS
  4082	035623	000000	000000		DZTIS:	0			;XMIT INTR STATUS
  4083	035624	000000	000000		VECERR:	0			;INTERRUPT VECTOR ERROR FLAG
  4084
  4085
DECSYSTEM 2020 DZ11 ASYNC. LINE MUX DIAGNOSTIC VERSION  0,2	MACRO %53(1020) 13:21 22-May-79 Page 80
DSDZAM	MAC	22-May-79 13:21		FLAGS AND BUFFERS                                                                  SEQ 0125

  4086									;TIME TABLE FOR RELATIVE TIMING TESTS
  4087
  4088	035625				TMTBL:
  4089	035625	000000	000000		T50:	0
  4090	035626	000000	000000		T75:	0
  4091	035627	000000	000000		T110:	0
  4092	035630	000000	000000		T134:	0
  4093	035631	000000	000000		T150:	0
  4094	035632	000000	000000		T300:	0
  4095	035633	000000	000000		T600:	0
  4096	035634	000000	000000		T1200:	0
  4097	035635	000000	000000		T1800:	0
  4098	035636	000000	000000		T2000:	0
  4099	035637	000000	000000		T2400:	0
  4100	035640	000000	000000		T3600:	0
  4101	035641	000000	000000		T4800:	0
  4102	035642	000000	000000		T7200:	0
  4103	035643	000000	000000		T9600:	0
  4104	035644	000000	000000		TEIGHT:	0
  4105	035645	000000	000000		TSEVEN:	0
  4106	035646	000000	000000		TSIX:	0
  4107	035647	000000	000000		TFIVE:	0
  4108									;TABLE OF DELAY TIMES FOR INDIVIDUAL BAUD RATES
  4109
  4110	035650	000000	320000		DLYTBL:	320000			;TIME FOR 50	BAUD
  4111	035651	000000	200000			200000			; "    "  75	  "
  4112	035652	000000	134000			134000			; "    "  110	  "
  4113	035653	000000	120000			120000			; "    "  134	  "
  4114	035654	000000	100000			100000			; "    "  150	  "
  4115	035655	000000	042000			42000			; "    "  300	  "
  4116	035656	000000	020000			20000			; "    "  600	  "
  4117	035657	000000	010000			10000			; "    "  1200	  "
  4118	035660	000000	006000			6000			; "    "  1800	  "
  4119	035661	000000	005000			5000			; "    "  2000	  "
  4120	035662	000000	004000			4000			; "    "  2400	  "
  4121	035663	000000	003000			3000			; "    "  3600	  "
  4122	035664	000000	002000			2000			; "    "  4800	  "
  4123	035665	000000	001500			1500			; "    "  7200	  "
  4124	035666	000000	001000			1000			; "    "  9600	  "
  4125	035667	000000	000400			400			; "    "  19.2K	  "
  4126
  4127	035670	000000	000000		$TMP0:	0			;TEMPORARY STORAGE
  4128	035671	000000	000000		$TMP1:	0
  4129	035672	000000	000000		$TMP2:	0
  4130	035673	000000	000000		$TMP3:	0
  4131
  4132	035674	000000	000000		$TSTNM:	0			;STORAGE FOR TEST NUMBER
  4133
  4134
  4135									;DEVICE VECTOR TABLE (UNIBUS DEVICES)
  4136
DECSYSTEM 2020 DZ11 ASYNC. LINE MUX DIAGNOSTIC VERSION  0,2	MACRO %53(1020) 13:21 22-May-79 Page 81
DSDZAM	MAC	22-May-79 13:21		FLAGS AND BUFFERS                                                                  SEQ 0126

  4137	035675				VECTBL:	BLOCK	^D128
  4138
  4139	036075				INBUF:	BLOCK 20
  4140			000001			A=1
  4141			000000			B=0
  4142	036115				VECMAP:
  4143						REPEAT 200, <VCTMAP (\A,\B)
  4144						A=A+1
  4145						B=A-1>
  4146					VCTMAP (\A,\B)^
  4147	036115	000000	000000		VEC1:	0
  4148	036116	201 00 0 00 000001 		MOVEI	0,1		;DISPATCH WAS THRU LOC. 0 IN VECTBL
  4149	036117	254 12 1 00 036115 		JEN	@VEC1		;GO DISMISS THE INTERRUPT
  4150			000002			A=A+1
  4151			000001			B=A-1
  4152					VCTMAP (\A,\B)^
  4153	036120	000000	000000		VEC2:	0
  4154	036121	201 00 0 00 000002 		MOVEI	0,2		;DISPATCH WAS THRU LOC. 1 IN VECTBL
  4155	036122	254 12 1 00 036120 		JEN	@VEC2		;GO DISMISS THE INTERRUPT
  4156			000003			A=A+1
  4157			000002			B=A-1
  4158					VCTMAP (\A,\B)^
  4159	036123	000000	000000		VEC3:	0
  4160	036124	201 00 0 00 000003 		MOVEI	0,3		;DISPATCH WAS THRU LOC. 2 IN VECTBL
  4161	036125	254 12 1 00 036123 		JEN	@VEC3		;GO DISMISS THE INTERRUPT
  4162			000004			A=A+1
  4163			000003			B=A-1
  4164					VCTMAP (\A,\B)^
  4165	036126	000000	000000		VEC4:	0
  4166	036127	201 00 0 00 000004 		MOVEI	0,4		;DISPATCH WAS THRU LOC. 3 IN VECTBL
  4167	036130	254 12 1 00 036126 		JEN	@VEC4		;GO DISMISS THE INTERRUPT
  4168			000005			A=A+1
  4169			000004			B=A-1
  4170					VCTMAP (\A,\B)^
  4171	036131	000000	000000		VEC5:	0
  4172	036132	201 00 0 00 000005 		MOVEI	0,5		;DISPATCH WAS THRU LOC. 4 IN VECTBL
  4173	036133	254 12 1 00 036131 		JEN	@VEC5		;GO DISMISS THE INTERRUPT
  4174			000006			A=A+1
  4175			000005			B=A-1
  4176					VCTMAP (\A,\B)^
  4177	036134	000000	000000		VEC6:	0
  4178	036135	201 00 0 00 000006 		MOVEI	0,6		;DISPATCH WAS THRU LOC. 5 IN VECTBL
  4179	036136	254 12 1 00 036134 		JEN	@VEC6		;GO DISMISS THE INTERRUPT
  4180			000007			A=A+1
  4181			000006			B=A-1
  4182					VCTMAP (\A,\B)^
  4183	036137	000000	000000		VEC7:	0
  4184	036140	201 00 0 00 000007 		MOVEI	0,7		;DISPATCH WAS THRU LOC. 6 IN VECTBL
  4185	036141	254 12 1 00 036137 		JEN	@VEC7		;GO DISMISS THE INTERRUPT
  4186			000010			A=A+1
  4187			000007			B=A-1
  4188					VCTMAP (\A,\B)^
  4189	036142	000000	000000		VEC10:	0
  4190	036143	201 00 0 00 000010 		MOVEI	0,10		;DISPATCH WAS THRU LOC. 7 IN VECTBL
  4191	036144	254 12 1 00 036142 		JEN	@VEC10		;GO DISMISS THE INTERRUPT
DECSYSTEM 2020 DZ11 ASYNC. LINE MUX DIAGNOSTIC VERSION  0,2	MACRO %53(1020) 13:21 22-May-79 Page 81-1
DSDZAM	MAC	22-May-79 13:21		FLAGS AND BUFFERS                                                                  SEQ 0127

  4192			000011			A=A+1
  4193			000010			B=A-1
  4194					VCTMAP (\A,\B)^
  4195	036145	000000	000000		VEC11:	0
  4196	036146	201 00 0 00 000011 		MOVEI	0,11		;DISPATCH WAS THRU LOC. 10 IN VECTBL
  4197	036147	254 12 1 00 036145 		JEN	@VEC11		;GO DISMISS THE INTERRUPT
  4198			000012			A=A+1
  4199			000011			B=A-1
  4200					VCTMAP (\A,\B)^
  4201	036150	000000	000000		VEC12:	0
  4202	036151	201 00 0 00 000012 		MOVEI	0,12		;DISPATCH WAS THRU LOC. 11 IN VECTBL
  4203	036152	254 12 1 00 036150 		JEN	@VEC12		;GO DISMISS THE INTERRUPT
  4204			000013			A=A+1
  4205			000012			B=A-1
  4206					VCTMAP (\A,\B)^
  4207	036153	000000	000000		VEC13:	0
  4208	036154	201 00 0 00 000013 		MOVEI	0,13		;DISPATCH WAS THRU LOC. 12 IN VECTBL
  4209	036155	254 12 1 00 036153 		JEN	@VEC13		;GO DISMISS THE INTERRUPT
  4210			000014			A=A+1
  4211			000013			B=A-1
  4212					VCTMAP (\A,\B)^
  4213	036156	000000	000000		VEC14:	0
  4214	036157	201 00 0 00 000014 		MOVEI	0,14		;DISPATCH WAS THRU LOC. 13 IN VECTBL
  4215	036160	254 12 1 00 036156 		JEN	@VEC14		;GO DISMISS THE INTERRUPT
  4216			000015			A=A+1
  4217			000014			B=A-1
  4218					VCTMAP (\A,\B)^
  4219	036161	000000	000000		VEC15:	0
  4220	036162	201 00 0 00 000015 		MOVEI	0,15		;DISPATCH WAS THRU LOC. 14 IN VECTBL
  4221	036163	254 12 1 00 036161 		JEN	@VEC15		;GO DISMISS THE INTERRUPT
  4222			000016			A=A+1
  4223			000015			B=A-1
  4224					VCTMAP (\A,\B)^
  4225	036164	000000	000000		VEC16:	0
  4226	036165	201 00 0 00 000016 		MOVEI	0,16		;DISPATCH WAS THRU LOC. 15 IN VECTBL
  4227	036166	254 12 1 00 036164 		JEN	@VEC16		;GO DISMISS THE INTERRUPT
  4228			000017			A=A+1
  4229			000016			B=A-1
  4230					VCTMAP (\A,\B)^
  4231	036167	000000	000000		VEC17:	0
  4232	036170	201 00 0 00 000017 		MOVEI	0,17		;DISPATCH WAS THRU LOC. 16 IN VECTBL
  4233	036171	254 12 1 00 036167 		JEN	@VEC17		;GO DISMISS THE INTERRUPT
  4234			000020			A=A+1
  4235			000017			B=A-1
  4236					VCTMAP (\A,\B)^
  4237	036172	000000	000000		VEC20:	0
  4238	036173	201 00 0 00 000020 		MOVEI	0,20		;DISPATCH WAS THRU LOC. 17 IN VECTBL
  4239	036174	254 12 1 00 036172 		JEN	@VEC20		;GO DISMISS THE INTERRUPT
  4240			000021			A=A+1
  4241			000020			B=A-1
  4242					VCTMAP (\A,\B)^
  4243	036175	000000	000000		VEC21:	0
  4244	036176	201 00 0 00 000021 		MOVEI	0,21		;DISPATCH WAS THRU LOC. 20 IN VECTBL
  4245	036177	254 12 1 00 036175 		JEN	@VEC21		;GO DISMISS THE INTERRUPT
  4246			000022			A=A+1
DECSYSTEM 2020 DZ11 ASYNC. LINE MUX DIAGNOSTIC VERSION  0,2	MACRO %53(1020) 13:21 22-May-79 Page 81-2
DSDZAM	MAC	22-May-79 13:21		FLAGS AND BUFFERS                                                                  SEQ 0128

  4247			000021			B=A-1
  4248					VCTMAP (\A,\B)^
  4249	036200	000000	000000		VEC22:	0
  4250	036201	201 00 0 00 000022 		MOVEI	0,22		;DISPATCH WAS THRU LOC. 21 IN VECTBL
  4251	036202	254 12 1 00 036200 		JEN	@VEC22		;GO DISMISS THE INTERRUPT
  4252			000023			A=A+1
  4253			000022			B=A-1
  4254					VCTMAP (\A,\B)^
  4255	036203	000000	000000		VEC23:	0
  4256	036204	201 00 0 00 000023 		MOVEI	0,23		;DISPATCH WAS THRU LOC. 22 IN VECTBL
  4257	036205	254 12 1 00 036203 		JEN	@VEC23		;GO DISMISS THE INTERRUPT
  4258			000024			A=A+1
  4259			000023			B=A-1
  4260					VCTMAP (\A,\B)^
  4261	036206	000000	000000		VEC24:	0
  4262	036207	201 00 0 00 000024 		MOVEI	0,24		;DISPATCH WAS THRU LOC. 23 IN VECTBL
  4263	036210	254 12 1 00 036206 		JEN	@VEC24		;GO DISMISS THE INTERRUPT
  4264			000025			A=A+1
  4265			000024			B=A-1
  4266					VCTMAP (\A,\B)^
  4267	036211	000000	000000		VEC25:	0
  4268	036212	201 00 0 00 000025 		MOVEI	0,25		;DISPATCH WAS THRU LOC. 24 IN VECTBL
  4269	036213	254 12 1 00 036211 		JEN	@VEC25		;GO DISMISS THE INTERRUPT
  4270			000026			A=A+1
  4271			000025			B=A-1
  4272					VCTMAP (\A,\B)^
  4273	036214	000000	000000		VEC26:	0
  4274	036215	201 00 0 00 000026 		MOVEI	0,26		;DISPATCH WAS THRU LOC. 25 IN VECTBL
  4275	036216	254 12 1 00 036214 		JEN	@VEC26		;GO DISMISS THE INTERRUPT
  4276			000027			A=A+1
  4277			000026			B=A-1
  4278					VCTMAP (\A,\B)^
  4279	036217	000000	000000		VEC27:	0
  4280	036220	201 00 0 00 000027 		MOVEI	0,27		;DISPATCH WAS THRU LOC. 26 IN VECTBL
  4281	036221	254 12 1 00 036217 		JEN	@VEC27		;GO DISMISS THE INTERRUPT
  4282			000030			A=A+1
  4283			000027			B=A-1
  4284					VCTMAP (\A,\B)^
  4285	036222	000000	000000		VEC30:	0
  4286	036223	201 00 0 00 000030 		MOVEI	0,30		;DISPATCH WAS THRU LOC. 27 IN VECTBL
  4287	036224	254 12 1 00 036222 		JEN	@VEC30		;GO DISMISS THE INTERRUPT
  4288			000031			A=A+1
  4289			000030			B=A-1
  4290					VCTMAP (\A,\B)^
  4291	036225	000000	000000		VEC31:	0
  4292	036226	201 00 0 00 000031 		MOVEI	0,31		;DISPATCH WAS THRU LOC. 30 IN VECTBL
  4293	036227	254 12 1 00 036225 		JEN	@VEC31		;GO DISMISS THE INTERRUPT
  4294			000032			A=A+1
  4295			000031			B=A-1
  4296					VCTMAP (\A,\B)^
  4297	036230	000000	000000		VEC32:	0
  4298	036231	201 00 0 00 000032 		MOVEI	0,32		;DISPATCH WAS THRU LOC. 31 IN VECTBL
  4299	036232	254 12 1 00 036230 		JEN	@VEC32		;GO DISMISS THE INTERRUPT
  4300			000033			A=A+1
  4301			000032			B=A-1
DECSYSTEM 2020 DZ11 ASYNC. LINE MUX DIAGNOSTIC VERSION  0,2	MACRO %53(1020) 13:21 22-May-79 Page 81-3
DSDZAM	MAC	22-May-79 13:21		FLAGS AND BUFFERS                                                                  SEQ 0129

  4302					VCTMAP (\A,\B)^
  4303	036233	000000	000000		VEC33:	0
  4304	036234	201 00 0 00 000033 		MOVEI	0,33		;DISPATCH WAS THRU LOC. 32 IN VECTBL
  4305	036235	254 12 1 00 036233 		JEN	@VEC33		;GO DISMISS THE INTERRUPT
  4306			000034			A=A+1
  4307			000033			B=A-1
  4308					VCTMAP (\A,\B)^
  4309	036236	000000	000000		VEC34:	0
  4310	036237	201 00 0 00 000034 		MOVEI	0,34		;DISPATCH WAS THRU LOC. 33 IN VECTBL
  4311	036240	254 12 1 00 036236 		JEN	@VEC34		;GO DISMISS THE INTERRUPT
  4312			000035			A=A+1
  4313			000034			B=A-1
  4314					VCTMAP (\A,\B)^
  4315	036241	000000	000000		VEC35:	0
  4316	036242	201 00 0 00 000035 		MOVEI	0,35		;DISPATCH WAS THRU LOC. 34 IN VECTBL
  4317	036243	254 12 1 00 036241 		JEN	@VEC35		;GO DISMISS THE INTERRUPT
  4318			000036			A=A+1
  4319			000035			B=A-1
  4320					VCTMAP (\A,\B)^
  4321	036244	000000	000000		VEC36:	0
  4322	036245	201 00 0 00 000036 		MOVEI	0,36		;DISPATCH WAS THRU LOC. 35 IN VECTBL
  4323	036246	254 12 1 00 036244 		JEN	@VEC36		;GO DISMISS THE INTERRUPT
  4324			000037			A=A+1
  4325			000036			B=A-1
  4326					VCTMAP (\A,\B)^
  4327	036247	000000	000000		VEC37:	0
  4328	036250	201 00 0 00 000037 		MOVEI	0,37		;DISPATCH WAS THRU LOC. 36 IN VECTBL
  4329	036251	254 12 1 00 036247 		JEN	@VEC37		;GO DISMISS THE INTERRUPT
  4330			000040			A=A+1
  4331			000037			B=A-1
  4332					VCTMAP (\A,\B)^
  4333	036252	000000	000000		VEC40:	0
  4334	036253	201 00 0 00 000040 		MOVEI	0,40		;DISPATCH WAS THRU LOC. 37 IN VECTBL
  4335	036254	254 12 1 00 036252 		JEN	@VEC40		;GO DISMISS THE INTERRUPT
  4336			000041			A=A+1
  4337			000040			B=A-1
  4338					VCTMAP (\A,\B)^
  4339	036255	000000	000000		VEC41:	0
  4340	036256	201 00 0 00 000041 		MOVEI	0,41		;DISPATCH WAS THRU LOC. 40 IN VECTBL
  4341	036257	254 12 1 00 036255 		JEN	@VEC41		;GO DISMISS THE INTERRUPT
  4342			000042			A=A+1
  4343			000041			B=A-1
  4344					VCTMAP (\A,\B)^
  4345	036260	000000	000000		VEC42:	0
  4346	036261	201 00 0 00 000042 		MOVEI	0,42		;DISPATCH WAS THRU LOC. 41 IN VECTBL
  4347	036262	254 12 1 00 036260 		JEN	@VEC42		;GO DISMISS THE INTERRUPT
  4348			000043			A=A+1
  4349			000042			B=A-1
  4350					VCTMAP (\A,\B)^
  4351	036263	000000	000000		VEC43:	0
  4352	036264	201 00 0 00 000043 		MOVEI	0,43		;DISPATCH WAS THRU LOC. 42 IN VECTBL
  4353	036265	254 12 1 00 036263 		JEN	@VEC43		;GO DISMISS THE INTERRUPT
  4354			000044			A=A+1
  4355			000043			B=A-1
  4356					VCTMAP (\A,\B)^
DECSYSTEM 2020 DZ11 ASYNC. LINE MUX DIAGNOSTIC VERSION  0,2	MACRO %53(1020) 13:21 22-May-79 Page 81-4
DSDZAM	MAC	22-May-79 13:21		FLAGS AND BUFFERS                                                                  SEQ 0130

  4357	036266	000000	000000		VEC44:	0
  4358	036267	201 00 0 00 000044 		MOVEI	0,44		;DISPATCH WAS THRU LOC. 43 IN VECTBL
  4359	036270	254 12 1 00 036266 		JEN	@VEC44		;GO DISMISS THE INTERRUPT
  4360			000045			A=A+1
  4361			000044			B=A-1
  4362					VCTMAP (\A,\B)^
  4363	036271	000000	000000		VEC45:	0
  4364	036272	201 00 0 00 000045 		MOVEI	0,45		;DISPATCH WAS THRU LOC. 44 IN VECTBL
  4365	036273	254 12 1 00 036271 		JEN	@VEC45		;GO DISMISS THE INTERRUPT
  4366			000046			A=A+1
  4367			000045			B=A-1
  4368					VCTMAP (\A,\B)^
  4369	036274	000000	000000		VEC46:	0
  4370	036275	201 00 0 00 000046 		MOVEI	0,46		;DISPATCH WAS THRU LOC. 45 IN VECTBL
  4371	036276	254 12 1 00 036274 		JEN	@VEC46		;GO DISMISS THE INTERRUPT
  4372			000047			A=A+1
  4373			000046			B=A-1
  4374					VCTMAP (\A,\B)^
  4375	036277	000000	000000		VEC47:	0
  4376	036300	201 00 0 00 000047 		MOVEI	0,47		;DISPATCH WAS THRU LOC. 46 IN VECTBL
  4377	036301	254 12 1 00 036277 		JEN	@VEC47		;GO DISMISS THE INTERRUPT
  4378			000050			A=A+1
  4379			000047			B=A-1
  4380					VCTMAP (\A,\B)^
  4381	036302	000000	000000		VEC50:	0
  4382	036303	201 00 0 00 000050 		MOVEI	0,50		;DISPATCH WAS THRU LOC. 47 IN VECTBL
  4383	036304	254 12 1 00 036302 		JEN	@VEC50		;GO DISMISS THE INTERRUPT
  4384			000051			A=A+1
  4385			000050			B=A-1
  4386					VCTMAP (\A,\B)^
  4387	036305	000000	000000		VEC51:	0
  4388	036306	201 00 0 00 000051 		MOVEI	0,51		;DISPATCH WAS THRU LOC. 50 IN VECTBL
  4389	036307	254 12 1 00 036305 		JEN	@VEC51		;GO DISMISS THE INTERRUPT
  4390			000052			A=A+1
  4391			000051			B=A-1
  4392					VCTMAP (\A,\B)^
  4393	036310	000000	000000		VEC52:	0
  4394	036311	201 00 0 00 000052 		MOVEI	0,52		;DISPATCH WAS THRU LOC. 51 IN VECTBL
  4395	036312	254 12 1 00 036310 		JEN	@VEC52		;GO DISMISS THE INTERRUPT
  4396			000053			A=A+1
  4397			000052			B=A-1
  4398					VCTMAP (\A,\B)^
  4399	036313	000000	000000		VEC53:	0
  4400	036314	201 00 0 00 000053 		MOVEI	0,53		;DISPATCH WAS THRU LOC. 52 IN VECTBL
  4401	036315	254 12 1 00 036313 		JEN	@VEC53		;GO DISMISS THE INTERRUPT
  4402			000054			A=A+1
  4403			000053			B=A-1
  4404					VCTMAP (\A,\B)^
  4405	036316	000000	000000		VEC54:	0
  4406	036317	201 00 0 00 000054 		MOVEI	0,54		;DISPATCH WAS THRU LOC. 53 IN VECTBL
  4407	036320	254 12 1 00 036316 		JEN	@VEC54		;GO DISMISS THE INTERRUPT
  4408			000055			A=A+1
  4409			000054			B=A-1
  4410					VCTMAP (\A,\B)^
  4411	036321	000000	000000		VEC55:	0
DECSYSTEM 2020 DZ11 ASYNC. LINE MUX DIAGNOSTIC VERSION  0,2	MACRO %53(1020) 13:21 22-May-79 Page 81-5
DSDZAM	MAC	22-May-79 13:21		FLAGS AND BUFFERS                                                                  SEQ 0131

  4412	036322	201 00 0 00 000055 		MOVEI	0,55		;DISPATCH WAS THRU LOC. 54 IN VECTBL
  4413	036323	254 12 1 00 036321 		JEN	@VEC55		;GO DISMISS THE INTERRUPT
  4414			000056			A=A+1
  4415			000055			B=A-1
  4416					VCTMAP (\A,\B)^
  4417	036324	000000	000000		VEC56:	0
  4418	036325	201 00 0 00 000056 		MOVEI	0,56		;DISPATCH WAS THRU LOC. 55 IN VECTBL
  4419	036326	254 12 1 00 036324 		JEN	@VEC56		;GO DISMISS THE INTERRUPT
  4420			000057			A=A+1
  4421			000056			B=A-1
  4422					VCTMAP (\A,\B)^
  4423	036327	000000	000000		VEC57:	0
  4424	036330	201 00 0 00 000057 		MOVEI	0,57		;DISPATCH WAS THRU LOC. 56 IN VECTBL
  4425	036331	254 12 1 00 036327 		JEN	@VEC57		;GO DISMISS THE INTERRUPT
  4426			000060			A=A+1
  4427			000057			B=A-1
  4428					VCTMAP (\A,\B)^
  4429	036332	000000	000000		VEC60:	0
  4430	036333	201 00 0 00 000060 		MOVEI	0,60		;DISPATCH WAS THRU LOC. 57 IN VECTBL
  4431	036334	254 12 1 00 036332 		JEN	@VEC60		;GO DISMISS THE INTERRUPT
  4432			000061			A=A+1
  4433			000060			B=A-1
  4434					VCTMAP (\A,\B)^
  4435	036335	000000	000000		VEC61:	0
  4436	036336	201 00 0 00 000061 		MOVEI	0,61		;DISPATCH WAS THRU LOC. 60 IN VECTBL
  4437	036337	254 12 1 00 036335 		JEN	@VEC61		;GO DISMISS THE INTERRUPT
  4438			000062			A=A+1
  4439			000061			B=A-1
  4440					VCTMAP (\A,\B)^
  4441	036340	000000	000000		VEC62:	0
  4442	036341	201 00 0 00 000062 		MOVEI	0,62		;DISPATCH WAS THRU LOC. 61 IN VECTBL
  4443	036342	254 12 1 00 036340 		JEN	@VEC62		;GO DISMISS THE INTERRUPT
  4444			000063			A=A+1
  4445			000062			B=A-1
  4446					VCTMAP (\A,\B)^
  4447	036343	000000	000000		VEC63:	0
  4448	036344	201 00 0 00 000063 		MOVEI	0,63		;DISPATCH WAS THRU LOC. 62 IN VECTBL
  4449	036345	254 12 1 00 036343 		JEN	@VEC63		;GO DISMISS THE INTERRUPT
  4450			000064			A=A+1
  4451			000063			B=A-1
  4452					VCTMAP (\A,\B)^
  4453	036346	000000	000000		VEC64:	0
  4454	036347	201 00 0 00 000064 		MOVEI	0,64		;DISPATCH WAS THRU LOC. 63 IN VECTBL
  4455	036350	254 12 1 00 036346 		JEN	@VEC64		;GO DISMISS THE INTERRUPT
  4456			000065			A=A+1
  4457			000064			B=A-1
  4458					VCTMAP (\A,\B)^
  4459	036351	000000	000000		VEC65:	0
  4460	036352	201 00 0 00 000065 		MOVEI	0,65		;DISPATCH WAS THRU LOC. 64 IN VECTBL
  4461	036353	254 12 1 00 036351 		JEN	@VEC65		;GO DISMISS THE INTERRUPT
  4462			000066			A=A+1
  4463			000065			B=A-1
  4464					VCTMAP (\A,\B)^
  4465	036354	000000	000000		VEC66:	0
  4466	036355	201 00 0 00 000066 		MOVEI	0,66		;DISPATCH WAS THRU LOC. 65 IN VECTBL
DECSYSTEM 2020 DZ11 ASYNC. LINE MUX DIAGNOSTIC VERSION  0,2	MACRO %53(1020) 13:21 22-May-79 Page 81-6
DSDZAM	MAC	22-May-79 13:21		FLAGS AND BUFFERS                                                                  SEQ 0132

  4467	036356	254 12 1 00 036354 		JEN	@VEC66		;GO DISMISS THE INTERRUPT
  4468			000067			A=A+1
  4469			000066			B=A-1
  4470					VCTMAP (\A,\B)^
  4471	036357	000000	000000		VEC67:	0
  4472	036360	201 00 0 00 000067 		MOVEI	0,67		;DISPATCH WAS THRU LOC. 66 IN VECTBL
  4473	036361	254 12 1 00 036357 		JEN	@VEC67		;GO DISMISS THE INTERRUPT
  4474			000070			A=A+1
  4475			000067			B=A-1
  4476					VCTMAP (\A,\B)^
  4477	036362	000000	000000		VEC70:	0
  4478	036363	201 00 0 00 000070 		MOVEI	0,70		;DISPATCH WAS THRU LOC. 67 IN VECTBL
  4479	036364	254 12 1 00 036362 		JEN	@VEC70		;GO DISMISS THE INTERRUPT
  4480			000071			A=A+1
  4481			000070			B=A-1
  4482					VCTMAP (\A,\B)^
  4483	036365	000000	000000		VEC71:	0
  4484	036366	201 00 0 00 000071 		MOVEI	0,71		;DISPATCH WAS THRU LOC. 70 IN VECTBL
  4485	036367	254 12 1 00 036365 		JEN	@VEC71		;GO DISMISS THE INTERRUPT
  4486			000072			A=A+1
  4487			000071			B=A-1
  4488					VCTMAP (\A,\B)^
  4489	036370	000000	000000		VEC72:	0
  4490	036371	201 00 0 00 000072 		MOVEI	0,72		;DISPATCH WAS THRU LOC. 71 IN VECTBL
  4491	036372	254 12 1 00 036370 		JEN	@VEC72		;GO DISMISS THE INTERRUPT
  4492			000073			A=A+1
  4493			000072			B=A-1
  4494					VCTMAP (\A,\B)^
  4495	036373	000000	000000		VEC73:	0
  4496	036374	201 00 0 00 000073 		MOVEI	0,73		;DISPATCH WAS THRU LOC. 72 IN VECTBL
  4497	036375	254 12 1 00 036373 		JEN	@VEC73		;GO DISMISS THE INTERRUPT
  4498			000074			A=A+1
  4499			000073			B=A-1
  4500					VCTMAP (\A,\B)^
  4501	036376	000000	000000		VEC74:	0
  4502	036377	201 00 0 00 000074 		MOVEI	0,74		;DISPATCH WAS THRU LOC. 73 IN VECTBL
  4503	036400	254 12 1 00 036376 		JEN	@VEC74		;GO DISMISS THE INTERRUPT
  4504			000075			A=A+1
  4505			000074			B=A-1
  4506					VCTMAP (\A,\B)^
  4507	036401	000000	000000		VEC75:	0
  4508	036402	201 00 0 00 000075 		MOVEI	0,75		;DISPATCH WAS THRU LOC. 74 IN VECTBL
  4509	036403	254 12 1 00 036401 		JEN	@VEC75		;GO DISMISS THE INTERRUPT
  4510			000076			A=A+1
  4511			000075			B=A-1
  4512					VCTMAP (\A,\B)^
  4513	036404	000000	000000		VEC76:	0
  4514	036405	201 00 0 00 000076 		MOVEI	0,76		;DISPATCH WAS THRU LOC. 75 IN VECTBL
  4515	036406	254 12 1 00 036404 		JEN	@VEC76		;GO DISMISS THE INTERRUPT
  4516			000077			A=A+1
  4517			000076			B=A-1
  4518					VCTMAP (\A,\B)^
  4519	036407	000000	000000		VEC77:	0
  4520	036410	201 00 0 00 000077 		MOVEI	0,77		;DISPATCH WAS THRU LOC. 76 IN VECTBL
  4521	036411	254 12 1 00 036407 		JEN	@VEC77		;GO DISMISS THE INTERRUPT
DECSYSTEM 2020 DZ11 ASYNC. LINE MUX DIAGNOSTIC VERSION  0,2	MACRO %53(1020) 13:21 22-May-79 Page 81-7
DSDZAM	MAC	22-May-79 13:21		FLAGS AND BUFFERS                                                                  SEQ 0133

  4522			000100			A=A+1
  4523			000077			B=A-1
  4524					VCTMAP (\A,\B)^
  4525	036412	000000	000000		VEC100:	0
  4526	036413	201 00 0 00 000100 		MOVEI	0,100		;DISPATCH WAS THRU LOC. 77 IN VECTBL
  4527	036414	254 12 1 00 036412 		JEN	@VEC100		;GO DISMISS THE INTERRUPT
  4528			000101			A=A+1
  4529			000100			B=A-1
  4530					VCTMAP (\A,\B)^
  4531	036415	000000	000000		VEC101:	0
  4532	036416	201 00 0 00 000101 		MOVEI	0,101		;DISPATCH WAS THRU LOC. 100 IN VECTBL
  4533	036417	254 12 1 00 036415 		JEN	@VEC101		;GO DISMISS THE INTERRUPT
  4534			000102			A=A+1
  4535			000101			B=A-1
  4536					VCTMAP (\A,\B)^
  4537	036420	000000	000000		VEC102:	0
  4538	036421	201 00 0 00 000102 		MOVEI	0,102		;DISPATCH WAS THRU LOC. 101 IN VECTBL
  4539	036422	254 12 1 00 036420 		JEN	@VEC102		;GO DISMISS THE INTERRUPT
  4540			000103			A=A+1
  4541			000102			B=A-1
  4542					VCTMAP (\A,\B)^
  4543	036423	000000	000000		VEC103:	0
  4544	036424	201 00 0 00 000103 		MOVEI	0,103		;DISPATCH WAS THRU LOC. 102 IN VECTBL
  4545	036425	254 12 1 00 036423 		JEN	@VEC103		;GO DISMISS THE INTERRUPT
  4546			000104			A=A+1
  4547			000103			B=A-1
  4548					VCTMAP (\A,\B)^
  4549	036426	000000	000000		VEC104:	0
  4550	036427	201 00 0 00 000104 		MOVEI	0,104		;DISPATCH WAS THRU LOC. 103 IN VECTBL
  4551	036430	254 12 1 00 036426 		JEN	@VEC104		;GO DISMISS THE INTERRUPT
  4552			000105			A=A+1
  4553			000104			B=A-1
  4554					VCTMAP (\A,\B)^
  4555	036431	000000	000000		VEC105:	0
  4556	036432	201 00 0 00 000105 		MOVEI	0,105		;DISPATCH WAS THRU LOC. 104 IN VECTBL
  4557	036433	254 12 1 00 036431 		JEN	@VEC105		;GO DISMISS THE INTERRUPT
  4558			000106			A=A+1
  4559			000105			B=A-1
  4560					VCTMAP (\A,\B)^
  4561	036434	000000	000000		VEC106:	0
  4562	036435	201 00 0 00 000106 		MOVEI	0,106		;DISPATCH WAS THRU LOC. 105 IN VECTBL
  4563	036436	254 12 1 00 036434 		JEN	@VEC106		;GO DISMISS THE INTERRUPT
  4564			000107			A=A+1
  4565			000106			B=A-1
  4566					VCTMAP (\A,\B)^
  4567	036437	000000	000000		VEC107:	0
  4568	036440	201 00 0 00 000107 		MOVEI	0,107		;DISPATCH WAS THRU LOC. 106 IN VECTBL
  4569	036441	254 12 1 00 036437 		JEN	@VEC107		;GO DISMISS THE INTERRUPT
  4570			000110			A=A+1
  4571			000107			B=A-1
  4572					VCTMAP (\A,\B)^
  4573	036442	000000	000000		VEC110:	0
  4574	036443	201 00 0 00 000110 		MOVEI	0,110		;DISPATCH WAS THRU LOC. 107 IN VECTBL
  4575	036444	254 12 1 00 036442 		JEN	@VEC110		;GO DISMISS THE INTERRUPT
  4576			000111			A=A+1
DECSYSTEM 2020 DZ11 ASYNC. LINE MUX DIAGNOSTIC VERSION  0,2	MACRO %53(1020) 13:21 22-May-79 Page 81-8
DSDZAM	MAC	22-May-79 13:21		FLAGS AND BUFFERS                                                                  SEQ 0134

  4577			000110			B=A-1
  4578					VCTMAP (\A,\B)^
  4579	036445	000000	000000		VEC111:	0
  4580	036446	201 00 0 00 000111 		MOVEI	0,111		;DISPATCH WAS THRU LOC. 110 IN VECTBL
  4581	036447	254 12 1 00 036445 		JEN	@VEC111		;GO DISMISS THE INTERRUPT
  4582			000112			A=A+1
  4583			000111			B=A-1
  4584					VCTMAP (\A,\B)^
  4585	036450	000000	000000		VEC112:	0
  4586	036451	201 00 0 00 000112 		MOVEI	0,112		;DISPATCH WAS THRU LOC. 111 IN VECTBL
  4587	036452	254 12 1 00 036450 		JEN	@VEC112		;GO DISMISS THE INTERRUPT
  4588			000113			A=A+1
  4589			000112			B=A-1
  4590					VCTMAP (\A,\B)^
  4591	036453	000000	000000		VEC113:	0
  4592	036454	201 00 0 00 000113 		MOVEI	0,113		;DISPATCH WAS THRU LOC. 112 IN VECTBL
  4593	036455	254 12 1 00 036453 		JEN	@VEC113		;GO DISMISS THE INTERRUPT
  4594			000114			A=A+1
  4595			000113			B=A-1
  4596					VCTMAP (\A,\B)^
  4597	036456	000000	000000		VEC114:	0
  4598	036457	201 00 0 00 000114 		MOVEI	0,114		;DISPATCH WAS THRU LOC. 113 IN VECTBL
  4599	036460	254 12 1 00 036456 		JEN	@VEC114		;GO DISMISS THE INTERRUPT
  4600			000115			A=A+1
  4601			000114			B=A-1
  4602					VCTMAP (\A,\B)^
  4603	036461	000000	000000		VEC115:	0
  4604	036462	201 00 0 00 000115 		MOVEI	0,115		;DISPATCH WAS THRU LOC. 114 IN VECTBL
  4605	036463	254 12 1 00 036461 		JEN	@VEC115		;GO DISMISS THE INTERRUPT
  4606			000116			A=A+1
  4607			000115			B=A-1
  4608					VCTMAP (\A,\B)^
  4609	036464	000000	000000		VEC116:	0
  4610	036465	201 00 0 00 000116 		MOVEI	0,116		;DISPATCH WAS THRU LOC. 115 IN VECTBL
  4611	036466	254 12 1 00 036464 		JEN	@VEC116		;GO DISMISS THE INTERRUPT
  4612			000117			A=A+1
  4613			000116			B=A-1
  4614					VCTMAP (\A,\B)^
  4615	036467	000000	000000		VEC117:	0
  4616	036470	201 00 0 00 000117 		MOVEI	0,117		;DISPATCH WAS THRU LOC. 116 IN VECTBL
  4617	036471	254 12 1 00 036467 		JEN	@VEC117		;GO DISMISS THE INTERRUPT
  4618			000120			A=A+1
  4619			000117			B=A-1
  4620					VCTMAP (\A,\B)^
  4621	036472	000000	000000		VEC120:	0
  4622	036473	201 00 0 00 000120 		MOVEI	0,120		;DISPATCH WAS THRU LOC. 117 IN VECTBL
  4623	036474	254 12 1 00 036472 		JEN	@VEC120		;GO DISMISS THE INTERRUPT
  4624			000121			A=A+1
  4625			000120			B=A-1
  4626					VCTMAP (\A,\B)^
  4627	036475	000000	000000		VEC121:	0
  4628	036476	201 00 0 00 000121 		MOVEI	0,121		;DISPATCH WAS THRU LOC. 120 IN VECTBL
  4629	036477	254 12 1 00 036475 		JEN	@VEC121		;GO DISMISS THE INTERRUPT
  4630			000122			A=A+1
  4631			000121			B=A-1
DECSYSTEM 2020 DZ11 ASYNC. LINE MUX DIAGNOSTIC VERSION  0,2	MACRO %53(1020) 13:21 22-May-79 Page 81-9
DSDZAM	MAC	22-May-79 13:21		FLAGS AND BUFFERS                                                                  SEQ 0135

  4632					VCTMAP (\A,\B)^
  4633	036500	000000	000000		VEC122:	0
  4634	036501	201 00 0 00 000122 		MOVEI	0,122		;DISPATCH WAS THRU LOC. 121 IN VECTBL
  4635	036502	254 12 1 00 036500 		JEN	@VEC122		;GO DISMISS THE INTERRUPT
  4636			000123			A=A+1
  4637			000122			B=A-1
  4638					VCTMAP (\A,\B)^
  4639	036503	000000	000000		VEC123:	0
  4640	036504	201 00 0 00 000123 		MOVEI	0,123		;DISPATCH WAS THRU LOC. 122 IN VECTBL
  4641	036505	254 12 1 00 036503 		JEN	@VEC123		;GO DISMISS THE INTERRUPT
  4642			000124			A=A+1
  4643			000123			B=A-1
  4644					VCTMAP (\A,\B)^
  4645	036506	000000	000000		VEC124:	0
  4646	036507	201 00 0 00 000124 		MOVEI	0,124		;DISPATCH WAS THRU LOC. 123 IN VECTBL
  4647	036510	254 12 1 00 036506 		JEN	@VEC124		;GO DISMISS THE INTERRUPT
  4648			000125			A=A+1
  4649			000124			B=A-1
  4650					VCTMAP (\A,\B)^
  4651	036511	000000	000000		VEC125:	0
  4652	036512	201 00 0 00 000125 		MOVEI	0,125		;DISPATCH WAS THRU LOC. 124 IN VECTBL
  4653	036513	254 12 1 00 036511 		JEN	@VEC125		;GO DISMISS THE INTERRUPT
  4654			000126			A=A+1
  4655			000125			B=A-1
  4656					VCTMAP (\A,\B)^
  4657	036514	000000	000000		VEC126:	0
  4658	036515	201 00 0 00 000126 		MOVEI	0,126		;DISPATCH WAS THRU LOC. 125 IN VECTBL
  4659	036516	254 12 1 00 036514 		JEN	@VEC126		;GO DISMISS THE INTERRUPT
  4660			000127			A=A+1
  4661			000126			B=A-1
  4662					VCTMAP (\A,\B)^
  4663	036517	000000	000000		VEC127:	0
  4664	036520	201 00 0 00 000127 		MOVEI	0,127		;DISPATCH WAS THRU LOC. 126 IN VECTBL
  4665	036521	254 12 1 00 036517 		JEN	@VEC127		;GO DISMISS THE INTERRUPT
  4666			000130			A=A+1
  4667			000127			B=A-1
  4668					VCTMAP (\A,\B)^
  4669	036522	000000	000000		VEC130:	0
  4670	036523	201 00 0 00 000130 		MOVEI	0,130		;DISPATCH WAS THRU LOC. 127 IN VECTBL
  4671	036524	254 12 1 00 036522 		JEN	@VEC130		;GO DISMISS THE INTERRUPT
  4672			000131			A=A+1
  4673			000130			B=A-1
  4674					VCTMAP (\A,\B)^
  4675	036525	000000	000000		VEC131:	0
  4676	036526	201 00 0 00 000131 		MOVEI	0,131		;DISPATCH WAS THRU LOC. 130 IN VECTBL
  4677	036527	254 12 1 00 036525 		JEN	@VEC131		;GO DISMISS THE INTERRUPT
  4678			000132			A=A+1
  4679			000131			B=A-1
  4680					VCTMAP (\A,\B)^
  4681	036530	000000	000000		VEC132:	0
  4682	036531	201 00 0 00 000132 		MOVEI	0,132		;DISPATCH WAS THRU LOC. 131 IN VECTBL
  4683	036532	254 12 1 00 036530 		JEN	@VEC132		;GO DISMISS THE INTERRUPT
  4684			000133			A=A+1
  4685			000132			B=A-1
  4686					VCTMAP (\A,\B)^
DECSYSTEM 2020 DZ11 ASYNC. LINE MUX DIAGNOSTIC VERSION  0,2	MACRO %53(1020) 13:21 22-May-79 Page 81-10
DSDZAM	MAC	22-May-79 13:21		FLAGS AND BUFFERS                                                                  SEQ 0136

  4687	036533	000000	000000		VEC133:	0
  4688	036534	201 00 0 00 000133 		MOVEI	0,133		;DISPATCH WAS THRU LOC. 132 IN VECTBL
  4689	036535	254 12 1 00 036533 		JEN	@VEC133		;GO DISMISS THE INTERRUPT
  4690			000134			A=A+1
  4691			000133			B=A-1
  4692					VCTMAP (\A,\B)^
  4693	036536	000000	000000		VEC134:	0
  4694	036537	201 00 0 00 000134 		MOVEI	0,134		;DISPATCH WAS THRU LOC. 133 IN VECTBL
  4695	036540	254 12 1 00 036536 		JEN	@VEC134		;GO DISMISS THE INTERRUPT
  4696			000135			A=A+1
  4697			000134			B=A-1
  4698					VCTMAP (\A,\B)^
  4699	036541	000000	000000		VEC135:	0
  4700	036542	201 00 0 00 000135 		MOVEI	0,135		;DISPATCH WAS THRU LOC. 134 IN VECTBL
  4701	036543	254 12 1 00 036541 		JEN	@VEC135		;GO DISMISS THE INTERRUPT
  4702			000136			A=A+1
  4703			000135			B=A-1
  4704					VCTMAP (\A,\B)^
  4705	036544	000000	000000		VEC136:	0
  4706	036545	201 00 0 00 000136 		MOVEI	0,136		;DISPATCH WAS THRU LOC. 135 IN VECTBL
  4707	036546	254 12 1 00 036544 		JEN	@VEC136		;GO DISMISS THE INTERRUPT
  4708			000137			A=A+1
  4709			000136			B=A-1
  4710					VCTMAP (\A,\B)^
  4711	036547	000000	000000		VEC137:	0
  4712	036550	201 00 0 00 000137 		MOVEI	0,137		;DISPATCH WAS THRU LOC. 136 IN VECTBL
  4713	036551	254 12 1 00 036547 		JEN	@VEC137		;GO DISMISS THE INTERRUPT
  4714			000140			A=A+1
  4715			000137			B=A-1
  4716					VCTMAP (\A,\B)^
  4717	036552	000000	000000		VEC140:	0
  4718	036553	201 00 0 00 000140 		MOVEI	0,140		;DISPATCH WAS THRU LOC. 137 IN VECTBL
  4719	036554	254 12 1 00 036552 		JEN	@VEC140		;GO DISMISS THE INTERRUPT
  4720			000141			A=A+1
  4721			000140			B=A-1
  4722					VCTMAP (\A,\B)^
  4723	036555	000000	000000		VEC141:	0
  4724	036556	201 00 0 00 000141 		MOVEI	0,141		;DISPATCH WAS THRU LOC. 140 IN VECTBL
  4725	036557	254 12 1 00 036555 		JEN	@VEC141		;GO DISMISS THE INTERRUPT
  4726			000142			A=A+1
  4727			000141			B=A-1
  4728					VCTMAP (\A,\B)^
  4729	036560	000000	000000		VEC142:	0
  4730	036561	201 00 0 00 000142 		MOVEI	0,142		;DISPATCH WAS THRU LOC. 141 IN VECTBL
  4731	036562	254 12 1 00 036560 		JEN	@VEC142		;GO DISMISS THE INTERRUPT
  4732			000143			A=A+1
  4733			000142			B=A-1
  4734					VCTMAP (\A,\B)^
  4735	036563	000000	000000		VEC143:	0
  4736	036564	201 00 0 00 000143 		MOVEI	0,143		;DISPATCH WAS THRU LOC. 142 IN VECTBL
  4737	036565	254 12 1 00 036563 		JEN	@VEC143		;GO DISMISS THE INTERRUPT
  4738			000144			A=A+1
  4739			000143			B=A-1
  4740					VCTMAP (\A,\B)^
  4741	036566	000000	000000		VEC144:	0
DECSYSTEM 2020 DZ11 ASYNC. LINE MUX DIAGNOSTIC VERSION  0,2	MACRO %53(1020) 13:21 22-May-79 Page 81-11
DSDZAM	MAC	22-May-79 13:21		FLAGS AND BUFFERS                                                                  SEQ 0137

  4742	036567	201 00 0 00 000144 		MOVEI	0,144		;DISPATCH WAS THRU LOC. 143 IN VECTBL
  4743	036570	254 12 1 00 036566 		JEN	@VEC144		;GO DISMISS THE INTERRUPT
  4744			000145			A=A+1
  4745			000144			B=A-1
  4746					VCTMAP (\A,\B)^
  4747	036571	000000	000000		VEC145:	0
  4748	036572	201 00 0 00 000145 		MOVEI	0,145		;DISPATCH WAS THRU LOC. 144 IN VECTBL
  4749	036573	254 12 1 00 036571 		JEN	@VEC145		;GO DISMISS THE INTERRUPT
  4750			000146			A=A+1
  4751			000145			B=A-1
  4752					VCTMAP (\A,\B)^
  4753	036574	000000	000000		VEC146:	0
  4754	036575	201 00 0 00 000146 		MOVEI	0,146		;DISPATCH WAS THRU LOC. 145 IN VECTBL
  4755	036576	254 12 1 00 036574 		JEN	@VEC146		;GO DISMISS THE INTERRUPT
  4756			000147			A=A+1
  4757			000146			B=A-1
  4758					VCTMAP (\A,\B)^
  4759	036577	000000	000000		VEC147:	0
  4760	036600	201 00 0 00 000147 		MOVEI	0,147		;DISPATCH WAS THRU LOC. 146 IN VECTBL
  4761	036601	254 12 1 00 036577 		JEN	@VEC147		;GO DISMISS THE INTERRUPT
  4762			000150			A=A+1
  4763			000147			B=A-1
  4764					VCTMAP (\A,\B)^
  4765	036602	000000	000000		VEC150:	0
  4766	036603	201 00 0 00 000150 		MOVEI	0,150		;DISPATCH WAS THRU LOC. 147 IN VECTBL
  4767	036604	254 12 1 00 036602 		JEN	@VEC150		;GO DISMISS THE INTERRUPT
  4768			000151			A=A+1
  4769			000150			B=A-1
  4770					VCTMAP (\A,\B)^
  4771	036605	000000	000000		VEC151:	0
  4772	036606	201 00 0 00 000151 		MOVEI	0,151		;DISPATCH WAS THRU LOC. 150 IN VECTBL
  4773	036607	254 12 1 00 036605 		JEN	@VEC151		;GO DISMISS THE INTERRUPT
  4774			000152			A=A+1
  4775			000151			B=A-1
  4776					VCTMAP (\A,\B)^
  4777	036610	000000	000000		VEC152:	0
  4778	036611	201 00 0 00 000152 		MOVEI	0,152		;DISPATCH WAS THRU LOC. 151 IN VECTBL
  4779	036612	254 12 1 00 036610 		JEN	@VEC152		;GO DISMISS THE INTERRUPT
  4780			000153			A=A+1
  4781			000152			B=A-1
  4782					VCTMAP (\A,\B)^
  4783	036613	000000	000000		VEC153:	0
  4784	036614	201 00 0 00 000153 		MOVEI	0,153		;DISPATCH WAS THRU LOC. 152 IN VECTBL
  4785	036615	254 12 1 00 036613 		JEN	@VEC153		;GO DISMISS THE INTERRUPT
  4786			000154			A=A+1
  4787			000153			B=A-1
  4788					VCTMAP (\A,\B)^
  4789	036616	000000	000000		VEC154:	0
  4790	036617	201 00 0 00 000154 		MOVEI	0,154		;DISPATCH WAS THRU LOC. 153 IN VECTBL
  4791	036620	254 12 1 00 036616 		JEN	@VEC154		;GO DISMISS THE INTERRUPT
  4792			000155			A=A+1
  4793			000154			B=A-1
  4794					VCTMAP (\A,\B)^
  4795	036621	000000	000000		VEC155:	0
  4796	036622	201 00 0 00 000155 		MOVEI	0,155		;DISPATCH WAS THRU LOC. 154 IN VECTBL
DECSYSTEM 2020 DZ11 ASYNC. LINE MUX DIAGNOSTIC VERSION  0,2	MACRO %53(1020) 13:21 22-May-79 Page 81-12
DSDZAM	MAC	22-May-79 13:21		FLAGS AND BUFFERS                                                                  SEQ 0138

  4797	036623	254 12 1 00 036621 		JEN	@VEC155		;GO DISMISS THE INTERRUPT
  4798			000156			A=A+1
  4799			000155			B=A-1
  4800					VCTMAP (\A,\B)^
  4801	036624	000000	000000		VEC156:	0
  4802	036625	201 00 0 00 000156 		MOVEI	0,156		;DISPATCH WAS THRU LOC. 155 IN VECTBL
  4803	036626	254 12 1 00 036624 		JEN	@VEC156		;GO DISMISS THE INTERRUPT
  4804			000157			A=A+1
  4805			000156			B=A-1
  4806					VCTMAP (\A,\B)^
  4807	036627	000000	000000		VEC157:	0
  4808	036630	201 00 0 00 000157 		MOVEI	0,157		;DISPATCH WAS THRU LOC. 156 IN VECTBL
  4809	036631	254 12 1 00 036627 		JEN	@VEC157		;GO DISMISS THE INTERRUPT
  4810			000160			A=A+1
  4811			000157			B=A-1
  4812					VCTMAP (\A,\B)^
  4813	036632	000000	000000		VEC160:	0
  4814	036633	201 00 0 00 000160 		MOVEI	0,160		;DISPATCH WAS THRU LOC. 157 IN VECTBL
  4815	036634	254 12 1 00 036632 		JEN	@VEC160		;GO DISMISS THE INTERRUPT
  4816			000161			A=A+1
  4817			000160			B=A-1
  4818					VCTMAP (\A,\B)^
  4819	036635	000000	000000		VEC161:	0
  4820	036636	201 00 0 00 000161 		MOVEI	0,161		;DISPATCH WAS THRU LOC. 160 IN VECTBL
  4821	036637	254 12 1 00 036635 		JEN	@VEC161		;GO DISMISS THE INTERRUPT
  4822			000162			A=A+1
  4823			000161			B=A-1
  4824					VCTMAP (\A,\B)^
  4825	036640	000000	000000		VEC162:	0
  4826	036641	201 00 0 00 000162 		MOVEI	0,162		;DISPATCH WAS THRU LOC. 161 IN VECTBL
  4827	036642	254 12 1 00 036640 		JEN	@VEC162		;GO DISMISS THE INTERRUPT
  4828			000163			A=A+1
  4829			000162			B=A-1
  4830					VCTMAP (\A,\B)^
  4831	036643	000000	000000		VEC163:	0
  4832	036644	201 00 0 00 000163 		MOVEI	0,163		;DISPATCH WAS THRU LOC. 162 IN VECTBL
  4833	036645	254 12 1 00 036643 		JEN	@VEC163		;GO DISMISS THE INTERRUPT
  4834			000164			A=A+1
  4835			000163			B=A-1
  4836					VCTMAP (\A,\B)^
  4837	036646	000000	000000		VEC164:	0
  4838	036647	201 00 0 00 000164 		MOVEI	0,164		;DISPATCH WAS THRU LOC. 163 IN VECTBL
  4839	036650	254 12 1 00 036646 		JEN	@VEC164		;GO DISMISS THE INTERRUPT
  4840			000165			A=A+1
  4841			000164			B=A-1
  4842					VCTMAP (\A,\B)^
  4843	036651	000000	000000		VEC165:	0
  4844	036652	201 00 0 00 000165 		MOVEI	0,165		;DISPATCH WAS THRU LOC. 164 IN VECTBL
  4845	036653	254 12 1 00 036651 		JEN	@VEC165		;GO DISMISS THE INTERRUPT
  4846			000166			A=A+1
  4847			000165			B=A-1
  4848					VCTMAP (\A,\B)^
  4849	036654	000000	000000		VEC166:	0
  4850	036655	201 00 0 00 000166 		MOVEI	0,166		;DISPATCH WAS THRU LOC. 165 IN VECTBL
  4851	036656	254 12 1 00 036654 		JEN	@VEC166		;GO DISMISS THE INTERRUPT
DECSYSTEM 2020 DZ11 ASYNC. LINE MUX DIAGNOSTIC VERSION  0,2	MACRO %53(1020) 13:21 22-May-79 Page 81-13
DSDZAM	MAC	22-May-79 13:21		FLAGS AND BUFFERS                                                                  SEQ 0139

  4852			000167			A=A+1
  4853			000166			B=A-1
  4854					VCTMAP (\A,\B)^
  4855	036657	000000	000000		VEC167:	0
  4856	036660	201 00 0 00 000167 		MOVEI	0,167		;DISPATCH WAS THRU LOC. 166 IN VECTBL
  4857	036661	254 12 1 00 036657 		JEN	@VEC167		;GO DISMISS THE INTERRUPT
  4858			000170			A=A+1
  4859			000167			B=A-1
  4860					VCTMAP (\A,\B)^
  4861	036662	000000	000000		VEC170:	0
  4862	036663	201 00 0 00 000170 		MOVEI	0,170		;DISPATCH WAS THRU LOC. 167 IN VECTBL
  4863	036664	254 12 1 00 036662 		JEN	@VEC170		;GO DISMISS THE INTERRUPT
  4864			000171			A=A+1
  4865			000170			B=A-1
  4866					VCTMAP (\A,\B)^
  4867	036665	000000	000000		VEC171:	0
  4868	036666	201 00 0 00 000171 		MOVEI	0,171		;DISPATCH WAS THRU LOC. 170 IN VECTBL
  4869	036667	254 12 1 00 036665 		JEN	@VEC171		;GO DISMISS THE INTERRUPT
  4870			000172			A=A+1
  4871			000171			B=A-1
  4872					VCTMAP (\A,\B)^
  4873	036670	000000	000000		VEC172:	0
  4874	036671	201 00 0 00 000172 		MOVEI	0,172		;DISPATCH WAS THRU LOC. 171 IN VECTBL
  4875	036672	254 12 1 00 036670 		JEN	@VEC172		;GO DISMISS THE INTERRUPT
  4876			000173			A=A+1
  4877			000172			B=A-1
  4878					VCTMAP (\A,\B)^
  4879	036673	000000	000000		VEC173:	0
  4880	036674	201 00 0 00 000173 		MOVEI	0,173		;DISPATCH WAS THRU LOC. 172 IN VECTBL
  4881	036675	254 12 1 00 036673 		JEN	@VEC173		;GO DISMISS THE INTERRUPT
  4882			000174			A=A+1
  4883			000173			B=A-1
  4884					VCTMAP (\A,\B)^
  4885	036676	000000	000000		VEC174:	0
  4886	036677	201 00 0 00 000174 		MOVEI	0,174		;DISPATCH WAS THRU LOC. 173 IN VECTBL
  4887	036700	254 12 1 00 036676 		JEN	@VEC174		;GO DISMISS THE INTERRUPT
  4888			000175			A=A+1
  4889			000174			B=A-1
  4890					VCTMAP (\A,\B)^
  4891	036701	000000	000000		VEC175:	0
  4892	036702	201 00 0 00 000175 		MOVEI	0,175		;DISPATCH WAS THRU LOC. 174 IN VECTBL
  4893	036703	254 12 1 00 036701 		JEN	@VEC175		;GO DISMISS THE INTERRUPT
  4894			000176			A=A+1
  4895			000175			B=A-1
  4896					VCTMAP (\A,\B)^
  4897	036704	000000	000000		VEC176:	0
  4898	036705	201 00 0 00 000176 		MOVEI	0,176		;DISPATCH WAS THRU LOC. 175 IN VECTBL
  4899	036706	254 12 1 00 036704 		JEN	@VEC176		;GO DISMISS THE INTERRUPT
  4900			000177			A=A+1
  4901			000176			B=A-1
  4902					VCTMAP (\A,\B)^
  4903	036707	000000	000000		VEC177:	0
  4904	036710	201 00 0 00 000177 		MOVEI	0,177		;DISPATCH WAS THRU LOC. 176 IN VECTBL
  4905	036711	254 12 1 00 036707 		JEN	@VEC177		;GO DISMISS THE INTERRUPT
  4906			000200			A=A+1
DECSYSTEM 2020 DZ11 ASYNC. LINE MUX DIAGNOSTIC VERSION  0,2	MACRO %53(1020) 13:21 22-May-79 Page 81-14
DSDZAM	MAC	22-May-79 13:21		FLAGS AND BUFFERS                                                                  SEQ 0140

  4907			000177			B=A-1
  4908					VCTMAP (\A,\B)^
  4909	036712	000000	000000		VEC200:	0
  4910	036713	201 00 0 00 000200 		MOVEI	0,200		;DISPATCH WAS THRU LOC. 177 IN VECTBL
  4911	036714	254 12 1 00 036712 		JEN	@VEC200		;GO DISMISS THE INTERRUPT
  4912			000201			A=A+1
  4913			000200			B=A-1
  4914
  4915
  4916	036715	104 105 103 123 131 	PGMNAM:	ASCIZ/DECSYSTEM 2020 DZ11 ASYNC. LINE MUX DIAGNOSTICS (DSDZA)
  4917	036716	123 124 105 115 040
  4918	036717	062 060 062 060 040
  4919	036720	104 132 061 061 040
  4920	036721	101 123 131 116 103
  4921	036722	056 040 114 111 116
  4922	036723	105 040 115 125 130
  4923	036724	040 104 111 101 107
  4924	036725	116 117 123 124 111
  4925	036726	103 123 040 050 104
  4926	036727	123 104 132 101 051
  4927	036730	015 012 000 000 000 	/
DECSYSTEM 2020 DZ11 ASYNC. LINE MUX DIAGNOSTIC VERSION  0,2	MACRO %53(1020) 13:21 22-May-79 Page 1
STOR	KSM	28-Mar-78 11:25		*STOR* RESERVED STORAGE, MARCH 1978                                                SEQ 0141

  4928					SUBTTL	*STOR* RESERVED STORAGE, MARCH 1978
  4929
  4930					;PROGRAM LITERALS
  4931
  4932						XLIST
  4933					IFNDEF	$LPAPER,<LIST>
  4934	036731					LIT
  4935	036731	777740	000000
  4936	036732	035275	035300
  4937	036733	035272	035300
  4938	036734	63 54 41 66 45 00
  4939	036735	63 71 56 43 16 00
  4940	036736	62 45 63 60 57 56
  4941	036737	63 45 77 00 00 00
  4942	036740	62 45 41 44 51 56
  4943	036741	47 00 44 72 21 21
  4944	036742	00 63 64 41 64 65
  4945	036743	63 00 62 45 47 16
  4946	036744	77 00 00 00 00 00
  4947	036745	56 57 00 63 54 41
  4948	036746	66 45 00 63 71 56
  4949	036747	43 16 77 00 00 00
  4950	036750	036734	036740
  4951	036751	000000	000000
  4952	036752	036745	034536
  4953	036753	67 62 51 64 51 56
  4954	036754	47 00 44 72 21 21
  4955	036755	00 63 64 41 64 65
  4956	036756	63 00 62 45 47 16
  4957	036757	77 00 00 00 00 00
  4958	036760	036734	036753
  4959	036761	000000	000000
  4960	036762	036745	034536
  4961	036763	62 45 41 44 51 56
  4962	036764	47 00 62 45 43 45
  4963	036765	51 66 45 62 00 42
  4964	036766	65 46 46 45 62 77
  4965	036767	036734	036763
  4966	036770	000000	000000
  4967	036771	036745	034536
  4968	036772	67 62 51 64 51 56
  4969	036773	47 00 64 50 45 00
  4970	036774	54 60 62 77 00 00
  4971	036775	036734	036772
  4972	036776	000000	000000
  4973	036777	036745	034536
  4974	037000	62 45 41 44 51 56
  4975	037001	47 00 64 50 45 00
  4976	037002	64 43 62 77 00 00
  4977	037003	036734	037000
  4978	037004	000000	000000
  4979	037005	036745	034536
  4980	037006	67 62 51 64 51 56
  4981	037007	47 00 64 50 45 00
  4982	037010	64 43 62 77 00 00
DECSYSTEM 2020 DZ11 ASYNC. LINE MUX DIAGNOSTIC VERSION  0,2	MACRO %53(1020) 13:21 22-May-79 Page 1-1
STOR	KSM	28-Mar-78 11:25		*STOR* RESERVED STORAGE, MARCH 1978                                                SEQ 0142

  4983	037011	036734	037006
  4984	037012	000000	000000
  4985	037013	036745	034536
  4986	037014	62 45 41 44 51 56
  4987	037015	47 00 64 50 45 00
  4988	037016	55 63 62 77 00 00
  4989	037017	56 57 00 63 54 41
  4990	037020	66 45 00 63 71 56
  4991	037021	43 77 00 00 00 00
  4992	037022	036734	037014
  4993	037023	000000	000000
  4994	037024	037017	034536
  4995	037025	67 62 51 64 51 56
  4996	037026	47 00 64 50 45 00
  4997	037027	64 44 62 77 00 00
  4998	037030	036734	037025
  4999	037031	000000	000000
  5000	037032	036745	034536
  5001	037033	44 45 66 51 43 45
  5002	037034	00 43 54 45 41 62
  5003	037035	00 64 45 63 64 77
  5004	037036	713 05 0 04 000000
  5005	037037	712 06 0 04 000000
  5006	037040	263 17 0 00 000000
  5007	037041	63 45 64 64 51 56
  5008	037042	47 00 44 43 54 62
  5009	037043	77 00 00 00 00 00
  5010	037044	57 56 45 00 63 50
  5011	037045	57 64 00 64 57 57
  5012	037046	00 46 41 63 64 00
  5013	037047	10 45 27 30 11 77
  5014	037050	037033	037041
  5015	037051	000005	000006
  5016	037052	037044	034536
  5017	037053	67 41 51 64 51 56
  5018	037054	47 00 46 57 62 00
  5019	037055	42 51 64 00 64 57
  5020	037056	00 43 54 45 41 62
  5021	037057	77 00 00 00 00 00
  5022	037060	63 64 65 43 53 00
  5023	037061	57 56 00 21 77 00
  5024	037062	037033	037053
  5025	037063	000005	000006
  5026	037064	037060	034536
  5027	037065	44 72 43 63 62 00
  5028	037066	42 51 64 00 64 45
  5029	037067	63 64 77 00 00 00
  5030	037070	63 45 64 64 51 56
  5031	037071	47 00 55 41 51 56
  5032	037072	64 77 00 00 00 00
  5033	037073	42 51 64 00 63 64
  5034	037074	65 43 53 00 41 64
  5035	037075	00 20 77 00 00 00
  5036	037076	037065	037070
  5037	037077	000005	000006
DECSYSTEM 2020 DZ11 ASYNC. LINE MUX DIAGNOSTIC VERSION  0,2	MACRO %53(1020) 13:21 22-May-79 Page 1-2
STOR	KSM	28-Mar-78 11:25		*STOR* RESERVED STORAGE, MARCH 1978                                                SEQ 0143

  5038	037100	037073	034536
  5039	037101	42 51 64 00 43 54
  5040	037102	45 41 62 00 57 46
  5041	037103	00 55 41 51 56 64
  5042	037104	77 00 00 00 00 00
  5043	037105	037065	037101
  5044	037106	000005	000006
  5045	037107	037060	034536
  5046	037110	44 45 66 51 43 45
  5047	037111	00 43 54 45 41 62
  5048	037112	00 57 46 00 55 41
  5049	037113	51 56 64 77 00 00
  5050	037114	037065	037110
  5051	037115	000005	000006
  5052	037116	037060	034536
  5053	037117	63 45 64 64 51 56
  5054	037120	47 00 55 63 45 56
  5055	037121	41 42 77 00 00 00
  5056	037122	037065	037117
  5057	037123	000005	000006
  5058	037124	037073	034536
  5059	037125	42 51 64 00 43 54
  5060	037126	45 41 62 00 57 46
  5061	037127	00 55 63 45 56 41
  5062	037130	42 77 00 00 00 00
  5063	037131	037065	037125
  5064	037132	000005	000006
  5065	037133	037060	034536
  5066	037134	44 45 66 51 43 45
  5067	037135	00 43 54 45 41 62
  5068	037136	00 57 46 00 55 63
  5069	037137	45 56 41 42 77 00
  5070	037140	037065	037134
  5071	037141	000005	000006
  5072	037142	037060	034536
  5073	037143	63 45 64 64 51 56
  5074	037144	47 00 63 51 54 57
  5075	037145	45 56 77 00 00 00
  5076	037146	037065	037143
  5077	037147	000005	000006
  5078	037150	037073	034536
  5079	037151	42 51 64 00 43 54
  5080	037152	45 41 62 00 57 46
  5081	037153	00 63 51 54 57 45
  5082	037154	56 77 00 00 00 00
  5083	037155	037065	037151
  5084	037156	000005	000006
  5085	037157	037060	034536
  5086	037160	44 45 66 51 43 45
  5087	037161	00 43 54 45 41 62
  5088	037162	00 57 46 00 63 51
  5089	037163	54 57 45 56 77 00
  5090	037164	037065	037160
  5091	037165	000005	000006
  5092	037166	037060	034536
DECSYSTEM 2020 DZ11 ASYNC. LINE MUX DIAGNOSTIC VERSION  0,2	MACRO %53(1020) 13:21 22-May-79 Page 1-3
STOR	KSM	28-Mar-78 11:25		*STOR* RESERVED STORAGE, MARCH 1978                                                SEQ 0144

  5093	037167	63 45 64 64 51 56
  5094	037170	47 00 62 51 45 77
  5095	037171	037065	037167
  5096	037172	000005	000006
  5097	037173	037073	034536
  5098	037174	42 51 64 00 43 54
  5099	037175	45 41 62 00 57 46
  5100	037176	00 62 51 45 77 00
  5101	037177	037065	037174
  5102	037200	000005	000006
  5103	037201	037060	034536
  5104	037202	44 45 66 51 43 45
  5105	037203	00 43 54 45 41 62
  5106	037204	00 57 46 00 62 51
  5107	037205	45 77 00 00 00 00
  5108	037206	037065	037202
  5109	037207	000005	000006
  5110	037210	037060	034536
  5111	037211	63 45 64 64 51 56
  5112	037212	47 00 64 51 45 77
  5113	037213	037065	037211
  5114	037214	000005	000006
  5115	037215	037073	034536
  5116	037216	42 51 64 00 43 54
  5117	037217	45 41 62 00 57 46
  5118	037220	00 64 51 45 77 00
  5119	037221	037065	037216
  5120	037222	000005	000006
  5121	037223	037060	034536
  5122	037224	44 45 66 51 43 45
  5123	037225	00 43 54 45 41 62
  5124	037226	00 57 46 00 64 51
  5125	037227	45 77 00 00 00 00
  5126	037230	037065	037224
  5127	037231	000005	000006
  5128	037232	037060	034536
  5129	037233	44 72 64 43 62 00
  5130	037234	42 51 64 00 64 45
  5131	037235	63 64 77 00 00 00
  5132	037236	63 45 64 64 51 56
  5133	037237	47 00 64 43 62 77
  5134	037240	037233	037236
  5135	037241	000005	000006
  5136	037242	037073	034536
  5137	037243	42 51 64 00 43 54
  5138	037244	45 41 62 00 57 46
  5139	037245	00 64 43 62 77 00
  5140	037246	037233	037243
  5141	037247	000005	000006
  5142	037250	037060	034536
  5143	037251	44 45 66 51 43 45
  5144	037252	00 43 54 45 41 62
  5145	037253	00 57 46 00 64 43
  5146	037254	62 77 00 00 00 00
  5147	037255	037233	037251
DECSYSTEM 2020 DZ11 ASYNC. LINE MUX DIAGNOSTIC VERSION  0,2	MACRO %53(1020) 13:21 22-May-79 Page 1-4
STOR	KSM	28-Mar-78 11:25		*STOR* RESERVED STORAGE, MARCH 1978                                                SEQ 0145

  5148	037256	000005	000006
  5149	037257	037060	034536
  5150	037260	44 72 44 64 62 00
  5151	037261	42 51 64 00 64 45
  5152	037262	63 64 77 00 00 00
  5153	037263	63 45 64 64 51 56
  5154	037264	47 00 44 64 62 00
  5155	037265	42 51 64 77 00 00
  5156	037266	037260	037263
  5157	037267	000005	000006
  5158	037270	037073	034536
  5159	037271	42 51 64 00 43 54
  5160	037272	45 41 62 00 57 46
  5161	037273	00 44 64 62 77 00
  5162	037274	42 51 64 00 63 64
  5163	037275	65 43 53 00 57 56
  5164	037276	00 21 77 00 00 00
  5165	037277	037260	037271
  5166	037300	000005	000006
  5167	037301	037274	034536
  5168	037302	65 56 51 42 65 63
  5169	037303	00 62 45 63 45 64
  5170	037304	77 00 00 00 00 00
  5171	037305	037260	037302
  5172	037306	000005	000006
  5173	037307	037274	034536
  5174	037310	44 72 43 63 62 00
  5175	037311	62 17 57 00 42 51
  5176	037312	64 63 00 64 45 63
  5177	037313	64 77 00 00 00 00
  5178	037314	67 62 51 64 51 56
  5179	037315	47 00 62 17 57 00
  5180	037316	42 51 64 63 77 00
  5181	037317	42 51 64 63 00 63
  5182	037320	50 57 65 54 44 00
  5183	037321	56 57 64 00 42 45
  5184	037322	00 63 45 64 77 00
  5185	037323	037310	037314
  5186	037324	000005	000006
  5187	037325	037317	034536
  5188	037326	67 62 51 64 51 56
  5189	037327	47 00 64 62 44 71
  5190	037330	00 42 51 64 77 00
  5191	037331	63 50 57 65 54 44
  5192	037332	00 56 57 64 00 42
  5193	037333	45 00 63 45 64 77
  5194	037334	037310	037326
  5195	037335	000005	000006
  5196	037336	037331	034536
  5197	037337	63 45 64 64 51 56
  5198	037340	47 00 64 62 44 71
  5199	037341	00 42 51 64 77 00
  5200	037342	64 62 44 71 00 44
  5201	037343	51 44 00 56 57 64
  5202	037344	00 63 45 64 77 00
DECSYSTEM 2020 DZ11 ASYNC. LINE MUX DIAGNOSTIC VERSION  0,2	MACRO %53(1020) 13:21 22-May-79 Page 1-5
STOR	KSM	28-Mar-78 11:25		*STOR* RESERVED STORAGE, MARCH 1978                                                SEQ 0146

  5203	037345	037310	037337
  5204	037346	000005	000006
  5205	037347	037342	034536
  5206	037350	44 72 43 63 62 00
  5207	037351	62 17 67 00 42 51
  5208	037352	64 63 00 64 45 63
  5209	037353	64 77 00 00 00 00
  5210	037354	67 62 51 64 51 56
  5211	037355	47 00 41 54 54 00
  5212	037356	42 51 64 63 77 00
  5213	037357	51 55 60 62 57 60
  5214	037360	45 62 00 42 51 64
  5215	037361	00 63 45 54 45 43
  5216	037362	64 51 57 56 77 00
  5217	037363	037350	037354
  5218	037364	000005	000006
  5219	037365	037357	034536
  5220	037366	43 54 45 41 62 51
  5221	037367	56 47 00 41 54 54
  5222	037370	00 42 51 64 63 77
  5223	037371	63 57 55 45 00 42
  5224	037372	51 64 63 00 63 64
  5225	037373	65 43 53 00 57 56
  5226	037374	00 21 77 00 00 00
  5227	037375	037350	037366
  5228	037376	000005	000006
  5229	037377	037371	034536
  5230	037400	44 72 54 60 62 00
  5231	037401	67 17 57 00 06 00
  5232	037402	44 72 62 42 65 46
  5233	037403	00 62 17 57 00 42
  5234	037404	51 64 63 00 64 45
  5235	037405	63 64 77 00 00 00
  5236	037406	67 62 51 64 51 56
  5237	037407	47 00 21 07 63 00
  5238	037410	64 57 00 44 72 54
  5239	037411	60 62 77 00 00 00
  5240	037412	44 72 62 42 65 46
  5241	037413	00 60 51 43 53 45
  5242	037414	44 00 65 60 00 42
  5243	037415	51 64 63 77 00 00
  5244	037416	037400	037406
  5245	037417	000005	000006
  5246	037420	037412	034536
  5247	037421	67 62 51 64 51 56
  5248	037422	47 00 43 57 55 60
  5249	037423	54 45 55 45 56 64
  5250	037424	00 57 46 00 41 43
  5251	037425	64 65 41 54 00 42
  5252	037426	51 64 00 60 41 64
  5253	037427	64 45 62 56 77 00
  5254	037430	51 55 60 62 57 60
  5255	037431	45 62 00 42 51 64
  5256	037432	63 00 63 45 64 77
  5257	037433	037400	037421
DECSYSTEM 2020 DZ11 ASYNC. LINE MUX DIAGNOSTIC VERSION  0,2	MACRO %53(1020) 13:21 22-May-79 Page 1-6
STOR	KSM	28-Mar-78 11:25		*STOR* RESERVED STORAGE, MARCH 1978                                                SEQ 0147

  5258	037434	000005	000006
  5259	037435	037430	034536
  5260	037436	44 72 64 44 62 00
  5261	037437	67 17 57 00 06 00
  5262	037440	44 72 55 63 62 00
  5263	037441	62 17 57 00 42 51
  5264	037442	64 63 00 64 45 63
  5265	037443	64 77 00 00 00 00
  5266	037444	67 62 51 64 51 56
  5267	037445	47 00 21 07 63 00
  5268	037446	64 57 00 44 72 64
  5269	037447	44 62 77 00 00 00
  5270	037450	44 72 55 63 62 00
  5271	037451	60 51 43 53 45 44
  5272	037452	00 65 60 00 42 51
  5273	037453	64 63 77 00 00 00
  5274	037454	037436	037444
  5275	037455	000005	000006
  5276	037456	037450	034536
  5277	037457	037436	037421
  5278	037460	000005	000006
  5279	037461	037430	034536
  5280	037462	44 64 62 00 63 64
  5281	037463	41 47 47 45 62 45
  5282	037464	44 00 55 57 44 45
  5283	037465	00 64 45 63 64 77
  5284	037466	63 45 64 64 51 56
  5285	037467	47 00 44 64 62 77
  5286	037470	43 41 62 62 51 45
  5287	037471	62 00 57 62 00 62
  5288	037472	51 56 47 00 51 56
  5289	037473	44 16 00 55 51 63
  5290	037474	63 51 56 47 77 00
  5291	037475	037462	037466
  5292	037476	000005	000006
  5293	037477	037470	034536
  5294	037500	43 54 45 41 62 51
  5295	037501	56 47 00 44 64 62
  5296	037502	77 00 00 00 00 00
  5297	037503	43 41 62 62 51 45
  5298	037504	62 00 57 62 00 62
  5299	037505	51 56 47 00 51 56
  5300	037506	44 16 00 63 64 65
  5301	037507	43 53 00 57 56 00
  5302	037510	21 77 00 00 00 00
  5303	037511	037462	037500
  5304	037512	000002	000006
  5305	037513	037503	034536
  5306	037514	44 64 62 00 45 70
  5307	037515	64 45 62 56 41 54
  5308	037516	00 55 57 44 45 00
  5309	037517	64 45 63 64 77 00
  5310	037520	037514	037466
  5311	037521	000005	000006
  5312	037522	037470	034536
DECSYSTEM 2020 DZ11 ASYNC. LINE MUX DIAGNOSTIC VERSION  0,2	MACRO %53(1020) 13:21 22-May-79 Page 1-7
STOR	KSM	28-Mar-78 11:25		*STOR* RESERVED STORAGE, MARCH 1978                                                SEQ 0148

  5313	037523	037514	037500
  5314	037524	000002	000006
  5315	037525	037503	034536
  5316	037526	64 43 62 00 46 65
  5317	037527	56 43 64 51 57 56
  5318	037530	00 64 45 63 64 77
  5319	037531	63 43 41 56 56 51
  5320	037532	56 47 00 46 57 62
  5321	037533	00 63 45 54 45 43
  5322	037534	64 45 44 00 54 51
  5323	037535	56 45 77 00 00 00
  5324	037536	64 70 00 62 45 41
  5325	037537	44 71 00 56 57 64
  5326	037540	00 63 45 64 77 00
  5327	037541	037526	037531
  5328	037542	000005	000006
  5329	037543	037536	034532
  5330	037544	67 62 57 56 47 00
  5331	037545	54 51 56 45 00 03
  5332	037546	77 00 00 00 00 00
  5333	037547	037526	037531
  5334	037550	000005	000006
  5335	037551	037544	034532
  5336	037552	64 70 00 06 00 62
  5337	037553	70 00 63 51 56 47
  5338	037554	54 45 00 43 50 41
  5339	037555	62 16 00 64 45 63
  5340	037556	64 77 00 00 00 00
  5341	037557	70 55 51 64 00 57
  5342	037560	46 00 43 50 41 62
  5343	037561	16 77 00 00 00 00
  5344	037562	037552	037557
  5345	037563	000000	000000
  5346	037564	037342	034532
  5347	037565	10 04 0 00 035165
  5348	037566	41 46 64 45 62 00
  5349	037567	70 55 51 64 64 51
  5350	037570	56 47 00 43 50 41
  5351	037571	62 77 00 00 00 00
  5352	037572	62 44 57 56 45 00
  5353	037573	44 51 44 00 56 57
  5354	037574	64 00 63 45 64 77
  5355	037575	037552	037566
  5356	037576	000000	000000
  5357	037577	037572	034532
  5358	037600	62 70 00 63 64 41
  5359	037601	64 65 63 00 56 57
  5360	037602	64 00 43 57 62 62
  5361	037603	45 43 64 77 00 00
  5362	037604	20 77 00 00 00 00
  5363	037605	037552	037600
  5364	037606	000005	000006
  5365	037607	037604	034532
  5366	037610	64 70 00 06 00 62
  5367	037611	70 00 41 54 54 00
DECSYSTEM 2020 DZ11 ASYNC. LINE MUX DIAGNOSTIC VERSION  0,2	MACRO %53(1020) 13:21 22-May-79 Page 1-8
STOR	KSM	28-Mar-78 11:25		*STOR* RESERVED STORAGE, MARCH 1978                                                SEQ 0149

  5368	037612	43 50 41 62 41 43
  5369	037613	64 45 62 63 00 64
  5370	037614	45 63 64 77 00 00
  5371	037615	037610	037557
  5372	037616	000000	000000
  5373	037617	037342	034532
  5374	037620	037610	037566
  5375	037621	000000	000000
  5376	037622	037572	034532
  5377	037623	00 77 00 00 00 00
  5378	037624	037610	037600
  5379	037625	000005	000006
  5380	037626	037623	034532
  5381	037627	42 62 45 41 53 14
  5382	037630	00 46 62 41 55 45
  5383	037631	14 00 60 41 62 51
  5384	037632	64 71 00 45 62 62
  5385	037633	57 62 63 00 64 45
  5386	037634	63 64 77 00 00 00
  5387	037635	037627	037557
  5388	037636	000000	000000
  5389	037637	037342	034532
  5390	037640	037627	037566
  5391	037641	000000	000000
  5392	037642	037572	034532
  5393	037643	037627	037600
  5394	037644	000005	000006
  5395	037645	037604	034532
  5396	037646	51 56 64 45 62 62
  5397	037647	65 60 64 00 64 45
  5398	037650	63 64 77 00 00 00
  5399	037651	264 00 0 00 034630
  5400	037652	035675	035676
  5401	037653	264 00 0 00 034616
  5402	037654	264 00 0 00 034623
  5403	037655	64 70 00 51 56 64
  5404	037656	45 62 62 65 60 64
  5405	037657	77 00 00 00 00 00
  5406	037660	67 62 57 56 47 00
  5407	037661	66 45 43 64 57 62
  5408	037662	77 00 00 00 00 00
  5409	037663	037646	037655
  5410	037664	000000	000000
  5411	037665	037660	034532
  5412	037666	51 56 64 16 00 67
  5413	037667	41 63 00 64 50 62
  5414	037670	65 00 62 70 00 66
  5415	037671	45 43 64 57 62 77
  5416	037672	037646	037655
  5417	037673	000000	000000
  5418	037674	037666	034532
  5419	037675	64 70 16 00 51 56
  5420	037676	64 16 77 00 00 00
  5421	037677	037646	037675
  5422	037700	000000	000000
DECSYSTEM 2020 DZ11 ASYNC. LINE MUX DIAGNOSTIC VERSION  0,2	MACRO %53(1020) 13:21 22-May-79 Page 1-9
STOR	KSM	28-Mar-78 11:25		*STOR* RESERVED STORAGE, MARCH 1978                                                SEQ 0150

  5423	037701	037342	034532
  5424	037702	64 70 16 00 44 51
  5425	037703	44 00 56 57 64 00
  5426	037704	51 56 64 45 62 62
  5427	037705	65 60 64 77 00 00
  5428	037706	63 64 41 64 21 77
  5429	037707	037646	037702
  5430	037710	000000	000000
  5431	037711	037706	000000
  5432	037712	037646	037566
  5433	037713	000000	000000
  5434	037714	037572	034532
  5435	037715	62 70 16 00 44 51
  5436	037716	44 00 56 57 64 00
  5437	037717	51 56 64 45 62 62
  5438	037720	65 60 64 77 00 00
  5439	037721	037646	037715
  5440	037722	000000	000000
  5441	037723	037706	000000
  5442	037724	62 70 16 00 51 56
  5443	037725	64 16 77 00 00 00
  5444	037726	64 70 16 00 43 41
  5445	037727	65 63 45 44 00 51
  5446	037730	56 64 16 77 00 00
  5447	037731	037646	037724
  5448	037732	000005	000006
  5449	037733	037726	034532
  5450	037734	66 51 41 00 67 62
  5451	037735	57 56 47 00 66 45
  5452	037736	43 64 57 62 77 00
  5453	037737	037646	037724
  5454	037740	000005	000006
  5455	037741	037734	034532
  5456	037742	037646	037600
  5457	037743	000005	000006
  5458	037744	037604	034532
  5459	037745	67 62 57 56 47 00
  5460	037746	60 51 00 41 63 63
  5461	037747	51 47 56 55 45 56
  5462	037750	64 00 64 45 63 64
  5463	037751	77 00 00 00 00 00
  5464	037752	037745	037655
  5465	037753	000000	000000
  5466	037754	037660	034532
  5467	037755	037745	037655
  5468	037756	000000	000000
  5469	037757	037666	034532
  5470	037760	64 70 16 51 56 64
  5471	037761	16 00 57 43 43 65
  5472	037762	62 62 45 44 77 00
  5473	037763	67 62 57 56 47 00
  5474	037764	42 62 00 54 45 66
  5475	037765	45 54 77 00 00 00
  5476	037766	037745	037760
  5477	037767	000000	000000
DECSYSTEM 2020 DZ11 ASYNC. LINE MUX DIAGNOSTIC VERSION  0,2	MACRO %53(1020) 13:21 22-May-79 Page 1-10
STOR	KSM	28-Mar-78 11:25		*STOR* RESERVED STORAGE, MARCH 1978                                                SEQ 0151

  5478	037770	037763	034532
  5479	037771	037745	037675
  5480	037772	000000	000000
  5481	037773	037342	034532
  5482	037774	64 70 00 45 56 41
  5483	037775	42 54 45 44 77 00
  5484	037776	60 51 00 62 45 61
  5485	037777	00 56 57 64 00 63
  5486	040000	45 64 77 00 00 00
  5487	040001	037745	037774
  5488	040002	000000	000000
  5489	040003	037776	034532
  5490	040004	037745	037566
  5491	040005	000000	000000
  5492	040006	037572	034532
  5493	040007	037745	037724
  5494	040010	000005	000006
  5495	040011	037726	034532
  5496	040012	037745	037724
  5497	040013	000005	000006
  5498	040014	037734	034532
  5499	040015	62 70 16 00 51 56
  5500	040016	64 16 00 57 43 43
  5501	040017	65 62 62 45 44 77
  5502	040020	037745	040015
  5503	040021	000000	000000
  5504	040022	037763	034532
  5505	040023	62 70 00 45 56 41
  5506	040024	42 54 45 44 77 00
  5507	040025	037745	040023
  5508	040026	000000	000000
  5509	040027	037776	034532
  5510	040030	037745	037600
  5511	040031	000005	000006
  5512	040032	037604	034532
  5513	040033	62 70 16 00 51 56
  5514	040034	64 16 00 60 62 51
  5515	040035	57 62 51 64 71 00
  5516	040036	64 45 63 64 77 00
  5517	040037	264 00 0 00 034650
  5518	040040	040033	037675
  5519	040041	000000	000000
  5520	040042	037342	034532
  5521	040043	040033	037566
  5522	040044	000000	000000
  5523	040045	037572	034532
  5524	040046	62 70 16 00 06 00
  5525	040047	64 70 16 00 45 56
  5526	040050	41 42 54 45 44 77
  5527	040051	040033	040046
  5528	040052	000000	000000
  5529	040053	037726	034532
  5530	040054	51 56 64 16 00 66
  5531	040055	51 41 00 67 62 57
  5532	040056	56 47 00 66 45 43
DECSYSTEM 2020 DZ11 ASYNC. LINE MUX DIAGNOSTIC VERSION  0,2	MACRO %53(1020) 13:21 22-May-79 Page 1-11
STOR	KSM	28-Mar-78 11:25		*STOR* RESERVED STORAGE, MARCH 1978                                                SEQ 0152

  5533	040057	64 57 62 77 00 00
  5534	040060	040033	040046
  5535	040061	000000	000000
  5536	040062	040054	034532
  5537	040063	040033	037600
  5538	040064	000005	000006
  5539	040065	037604	034532
  5540	040066	57 66 45 62 62 65
  5541	040067	56 17 63 51 54 57
  5542	040070	00 41 54 41 62 55
  5543	040071	00 64 45 63 64 77
  5544	040072	040066	037557
  5545	040073	000000	000000
  5546	040074	037342	034532
  5547	040075	64 70 00 57 46 00
  5548	040076	21 63 64 00 64 50
  5549	040077	62 65 00 21 25 64
  5550	040100	50 00 43 50 41 62
  5551	040101	16 77 00 00 00 00
  5552	040102	63 51 54 57 00 41
  5553	040103	54 41 62 55 00 63
  5554	040104	45 64 77 00 00 00
  5555	040105	040066	040075
  5556	040106	000000	000000
  5557	040107	040102	034532
  5558	040110	64 70 00 57 46 00
  5559	040111	21 26 64 50 00 64
  5560	040112	50 62 65 00 26 25
  5561	040113	64 50 00 43 50 41
  5562	040114	62 77 00 00 00 00
  5563	040115	63 51 54 57 00 41
  5564	040116	54 41 62 55 00 56
  5565	040117	57 64 00 63 45 64
  5566	040120	77 00 00 00 00 00
  5567	040121	040066	040110
  5568	040122	000000	000000
  5569	040123	040115	034532
  5570	040124	040066	037600
  5571	040125	000005	000006
  5572	040126	037623	034532
  5573	040127	62 45 41 44 51 56
  5574	040130	47 00 44 72 62 42
  5575	040131	65 46 77 00 00 00
  5576	040132	63 51 54 57 00 41
  5577	040133	54 41 62 55 00 44
  5578	040134	51 44 00 56 57 64
  5579	040135	00 43 54 45 41 62
  5580	040136	77 00 00 00 00 00
  5581	040137	040066	040127
  5582	040140	000005	000006
  5583	040141	040132	034532
  5584	040142	62 45 41 44 51 56
  5585	040143	47 00 64 57 57 00
  5586	040144	55 41 56 71 00 43
  5587	040145	50 41 62 41 43 64
DECSYSTEM 2020 DZ11 ASYNC. LINE MUX DIAGNOSTIC VERSION  0,2	MACRO %53(1020) 13:21 22-May-79 Page 1-12
STOR	KSM	28-Mar-78 11:25		*STOR* RESERVED STORAGE, MARCH 1978                                                SEQ 0153

  5588	040146	45 62 63 77 00 00
  5589	040147	44 41 64 41 00 66
  5590	040150	41 54 51 44 00 44
  5591	040151	51 44 00 56 57 64
  5592	040152	00 43 54 45 41 62
  5593	040153	77 00 00 00 00 00
  5594	040154	040066	040142
  5595	040155	000000	000006
  5596	040156	040147	034532
  5597	040157	63 51 54 57 00 41
  5598	040160	54 41 62 55 00 51
  5599	040161	56 64 45 62 62 65
  5600	040162	60 64 00 64 45 63
  5601	040163	64 77 00 00 00 00
  5602	040164	040157	037557
  5603	040165	000000	000000
  5604	040166	037342	034532
  5605	040167	040157	040075
  5606	040170	000000	000000
  5607	040171	040102	034532
  5608	040172	64 70 00 57 46 00
  5609	040173	21 26 64 50 00 43
  5610	040174	50 41 62 77 00 00
  5611	040175	040157	040172
  5612	040176	000000	000000
  5613	040177	040115	034532
  5614	040200	51 56 64 45 62 62
  5615	040201	65 60 64 00 44 51
  5616	040202	44 00 56 57 64 00
  5617	040203	57 43 43 65 62 77
  5618	040204	040157	040172
  5619	040205	000000	000000
  5620	040206	040200	034532
  5621	040207	64 70 16 00 06 00
  5622	040210	62 70 16 00 51 56
  5623	040211	64 16 64 45 63 64
  5624	040212	77 00 00 00 00 00
  5625	040213	035141	035142
  5626	040214	777774	000000
  5627	040215	264 00 0 00 034706
  5628	040216	264 00 0 00 034656
  5629	040217	035247	035250
  5630	040220	777770	000000
  5631	040221	64 70 16 00 51 56
  5632	040222	64 16 00 45 62 62
  5633	040223	57 62 77 00 00 00
  5634	040224	040207	040221
  5635	040225	000000	000000
  5636	040226	036744	035006
  5637	040227	62 70 16 00 51 56
  5638	040230	64 16 00 45 62 62
  5639	040231	57 62 77 00 00 00
  5640	040232	040207	040227
  5641	040233	000000	000000
  5642	040234	036744	034763
DECSYSTEM 2020 DZ11 ASYNC. LINE MUX DIAGNOSTIC VERSION  0,2	MACRO %53(1020) 13:21 22-May-79 Page 1-13
STOR	KSM	28-Mar-78 11:25		*STOR* RESERVED STORAGE, MARCH 1978                                                SEQ 0154

  5643	040235	44 41 64 41 00 70
  5644	040236	46 45 62 00 45 62
  5645	040237	62 57 62 77 00 00
  5646	040240	040207	040235
  5647	040241	000000	000000
  5648	040242	036744	035023
  5649	040243	62 45 54 41 64 51
  5650	040244	66 45 00 64 51 55
  5651	040245	51 56 47 00 64 45
  5652	040246	63 64 77 00 00 00
  5653	040247	64 62 71 51 56 47
  5654	040250	00 64 57 00 51 56
  5655	040251	43 62 45 41 63 45
  5656	040252	00 54 51 56 45 00
  5657	040253	63 60 45 45 44 77
  5658	040254	51 56 64 16 63 45
  5659	040255	62 66 51 43 45 00
  5660	040256	64 51 55 45 00 51
  5661	040257	56 43 62 45 41 63
  5662	040260	45 44 77 00 00 00
  5663	040261	040243	040247
  5664	040262	000000	000000
  5665	040263	040254	035042
  5666	040264	040243	040221
  5667	040265	000000	000000
  5668	040266	036744	035006
  5669	040267	040243	040227
  5670	040270	000000	000000
  5671	040271	036744	034763
  5672	040272	040243	040235
  5673	040273	000000	000000
  5674	040274	036744	035023
  5675	040275	45 43 50 57 00 64
  5676	040276	45 63 64 77 00 00
  5677	040277	123 124 101 122 124
  5678	040300	111 116 107 040 105
  5679	040301	103 110 117 040 124
  5680	040302	105 123 124 040 111
  5681	040303	106 040 102 101 125
  5682	040304	104 040 127 101 123
  5683	040305	040 116 117 124 040
  5684	040306	015 012 123 120 105
  5685	040307	103 111 106 111 105
  5686	040310	104 040 124 110 105
  5687	040311	040 104 105 106 101
  5688	040312	125 114 124 040 127
  5689	040313	111 114 114 040 102
  5690	040314	105 040 071 066 060
  5691	040315	060 015 012 000 000
  5692	040316	104 117 040 131 117
  5693	040317	125 040 127 101 116
  5694	040320	124 040 124 117 040
  5695	040321	123 105 121 125 105
  5696	040322	116 103 105 040 124
  5697	040323	110 122 117 125 107
DECSYSTEM 2020 DZ11 ASYNC. LINE MUX DIAGNOSTIC VERSION  0,2	MACRO %53(1020) 13:21 22-May-79 Page 1-14
STOR	KSM	28-Mar-78 11:25		*STOR* RESERVED STORAGE, MARCH 1978                                                SEQ 0155

  5698	040324	110 015 012 124 110
  5699	040325	105 040 114 111 116
  5700	040326	105 123 040 117 116
  5701	040327	105 040 101 124 040
  5702	040330	101 040 124 111 115
  5703	040331	105 056 000 000 000
  5704	040332	44 07 0 00 034460
  5705	040333	040275	037557
  5706	040334	000000	000000
  5707	040335	037342	034532
  5708	040336	264 00 0 00 035064
  5709	040337	015 012 104 117 040
  5710	040340	131 117 125 040 127
  5711	040341	111 123 110 040 124
  5712	040342	117 040 105 103 110
  5713	040343	117 040 124 105 123
  5714	040344	124 040 124 110 105
  5715	040345	040 116 105 130 124
  5716	040346	040 104 132 061 061
  5717	040347	056 040 000 000 000
  5718	040350	015 012 123 105 114
  5719	040351	105 103 124 040 104
  5720	040352	132 061 061 040 101
  5721	040353	124 040 101 104 104
  5722	040354	122 105 123 123 011
  5723	040355	000 000 000 000 000
  5724	040356	011 123 131 123 124
  5725	040357	105 115 040 115 101
  5726	040360	120 000 000 000 000
  5727	040361	015 012 104 105 126
  5728	040362	111 103 105 040 101
  5729	040363	104 104 122 105 123
  5730	040364	123 011 011 075 040
  5731	040365	000 000 000 000 000
  5732	040366	015 012 126 105 103
  5733	040367	124 117 122 011 011
  5734	040370	011 075 040 000 000
  5735	040371	015 012 102 122 040
  5736	040372	114 105 126 105 114
  5737	040373	011 011 075 040 000
  5738	040374	015 012 101 103 124
  5739	040375	111 126 105 040 114
  5740	040376	111 116 105 123 040
  5741	040377	102 131 040 102 111
  5742	040400	124 011 075 040 000
  5743	040401	015 012 114 111 116
  5744	040402	105 040 120 101 122
  5745	040403	101 115 105 124 105
  5746	040404	122 123 011 011 075
  5747	040405	040 000 000 000 000
  5748	040406	035172	035173
  5749	040407	035305	035306
  5750	040410	777760	000000
  5751	040411	777600	000000
  5752	040412	264 00 0 00 036115
DECSYSTEM 2020 DZ11 ASYNC. LINE MUX DIAGNOSTIC VERSION  0,2	MACRO %53(1020) 13:21 22-May-79 Page 1-15
STOR	KSM	28-Mar-78 11:25		*STOR* RESERVED STORAGE, MARCH 1978                                                SEQ 0156

  5753	040413	015 012 123 124 101
  5754	040414	116 104 101 122 104
  5755	040415	040 104 132 061 061
  5756	040416	040 043 040 061 015
  5757	040417	012 011 125 102 101
  5758	040420	040 043 040 075 040
  5759	040421	063 040 054 102 101
  5760	040422	123 105 040 101 104
  5761	040423	104 122 105 123 123
  5762	040424	040 075 040 067 066
  5763	040425	060 060 061 060 040
  5764	040426	054 040 126 105 103
  5765	040427	124 117 122 040 075
  5766	040430	040 063 064 060 015
  5767	040431	012 000 000 000 000
  5768	040432	76 43 50 41 56 47
  5769	040433	45 00 65 42 41 00
  5770	040434	03 00 57 62 00 42
  5771	040435	41 63 45 00 41 44
  5772	040436	44 62 45 63 63 00
  5773	040437	46 57 62 00 44 72
  5774	040440	21 21 00 37 00 77
  5775	040441	015 012 111 116 120
  5776	040442	125 124 040 125 102
  5777	040443	101 040 043 040 055
  5778	040444	040 000 000 000 000
  5779	040445	76 51 56 66 41 54
  5780	040446	51 44 00 65 42 41
  5781	040447	00 03 00 01 00 10
  5782	040450	20 00 64 57 00 21
  5783	040451	27 00 11 00 01 01
  5784	040452	00 77 00 00 00 00
  5785	040453	22 04 0 00 035270
  5786	040454	43 50 41 56 47 45
  5787	040455	00 44 72 21 21 00
  5788	040456	42 41 63 45 00 41
  5789	040457	44 44 62 45 63 63
  5790	040460	00 37 00 77 00 00
  5791	040461	51 56 60 65 64 00
  5792	040462	44 72 21 21 00 42
  5793	040463	41 63 45 00 41 44
  5794	040464	44 62 45 63 63 00
  5795	040465	15 00 77 00 00 00
  5796	040466	17 03 0 00 000000
  5797	040467	76 51 56 66 41 54
  5798	040470	51 44 00 44 72 21
  5799	040471	21 00 41 44 44 62
  5800	040472	45 63 63 00 10 27
  5801	040473	70 70 70 70 70 11
  5802	040474	00 01 01 00 15 77
  5803	040475	50 57 67 00 55 41
  5804	040476	56 71 00 44 72 00
  5805	040477	07 00 64 50 51 63
  5806	040500	00 63 71 63 64 45
  5807	040501	55 00 10 00 21 00
DECSYSTEM 2020 DZ11 ASYNC. LINE MUX DIAGNOSTIC VERSION  0,2	MACRO %53(1020) 13:21 22-May-79 Page 1-16
STOR	KSM	28-Mar-78 11:25		*STOR* RESERVED STORAGE, MARCH 1978                                                SEQ 0157

  5808	040502	15 00 24 00 11 00
  5809	040503	37 00 77 00 00 00
  5810	040504	51 56 66 41 54 51
  5811	040505	44 00 44 72 00 03
  5812	040506	00 15 00 77 00 00
  5813	040507	43 50 41 56 47 45
  5814	040510	00 66 45 43 64 57
  5815	040511	62 00 41 44 44 62
  5816	040512	45 63 63 00 46 57
  5817	040513	62 00 44 72 21 21
  5818	040514	00 37 00 77 00 00
  5819	040515	51 56 60 65 64 00
  5820	040516	66 45 43 64 57 62
  5821	040517	00 41 44 44 62 45
  5822	040520	63 63 00 15 00 77
  5823	040521	76 51 56 66 41 54
  5824	040522	51 44 00 66 45 43
  5825	040523	64 57 62 00 41 44
  5826	040524	44 62 45 63 63 00
  5827	040525	14 00 55 65 63 64
  5828	040526	00 42 45 00 54 64
  5829	040527	00 21 20 20 20 00
  5830	040530	01 01 00 77 00 00
  5831	040531	42 62 00 54 45 66
  5832	040532	45 54 00 10 00 24
  5833	040533	00 15 00 27 00 11
  5834	040534	00 37 00 77 00 00
  5835	040535	67 62 57 56 47 00
  5836	040536	51 56 60 65 64 00
  5837	040537	01 01 01 00 77 00
  5838	040540	41 62 45 00 64 50
  5839	040541	45 00 44 72 07 63
  5840	040542	00 45 51 41 00 55
  5841	040543	57 44 65 54 45 00
  5842	040544	10 55 27 30 21 31
  5843	040545	11 00 37 00 77 00
  5844	040546	015 012 123 120 105
  5845	040547	103 111 106 131 040
  5846	040550	115 101 111 116 124
  5847	040551	116 101 116 103 105
  5848	040552	040 115 117 104 105
  5849	040553	040 104 105 123 111
  5850	040554	122 105 104 072 015
  5851	040555	012 105 130 124 105
  5852	040556	122 116 101 114 040
  5853	040557	050 110 063 062 065
  5854	040560	051 040 105 111 101
  5855	040561	040 117 116 114 131
  5856	040562	011 075 040 105 015
  5857	040563	012 111 116 124 105
  5858	040564	122 116 101 114 040
  5859	040565	050 104 132 103 123
  5860	040566	122 051 040 102 111
  5861	040567	124 040 063 075 061
  5862	040570	040 011 075 040 111
DECSYSTEM 2020 DZ11 ASYNC. LINE MUX DIAGNOSTIC VERSION  0,2	MACRO %53(1020) 13:21 22-May-79 Page 1-17
STOR	KSM	28-Mar-78 11:25		*STOR* RESERVED STORAGE, MARCH 1978                                                SEQ 0158

  5863	040571	015 012 123 124 101
  5864	040572	107 107 105 122 105
  5865	040573	104 040 050 110 063
  5866	040574	062 067 061 040 117
  5867	040575	122 040 110 063 061
  5868	040576	071 060 051 040 011
  5869	040577	075 040 123 040 000
  5870	040600	67 62 57 56 47 00
  5871	040601	51 56 60 65 64 00
  5872	040602	01 01 00 77 00 00
  5873	040603	015 012 111 116 120
  5874	040604	125 124 040 101 103
  5875	040605	124 111 126 105 040
  5876	040606	114 111 116 105 123
  5877	040607	040 102 131 040 102
  5878	040610	111 124 040 050 061
  5879	040611	040 055 040 063 067
  5880	040612	067 051 015 012 114
  5881	040613	123 102 040 075 040
  5882	040614	114 111 116 105 040
  5883	040615	060 040 040 040 115
  5884	040616	123 102 040 075 040
  5885	040617	114 111 116 105 040
  5886	040620	067 011 040 040 040
  5887	040621	075 040 000 000 000
  5888	040622	015 012 111 116 120
  5889	040623	125 124 040 102 101
  5890	040624	125 104 040 122 101
  5891	040625	124 105 040 050 060
  5892	040626	040 055 040 061 067
  5893	040627	040 117 103 124 101
  5894	040630	114 051 015 012 122
  5895	040631	105 106 105 122 040
  5896	040632	124 117 040 124 105
  5897	040633	130 124 040 123 124
  5898	040634	101 122 124 111 116
  5899	040635	107 040 120 122 117
  5900	040636	103 105 104 125 122
  5901	040637	105 040 106 117 122
  5902	040640	040 102 101 125 104
  5903	040641	040 122 101 124 105
  5904	040642	040 123 105 114 105
  5905	040643	103 124 111 117 116
  5906	040644	015 012 117 122 040
  5907	040645	122 105 106 105 122
  5908	040646	040 124 117 040 114
  5909	040647	111 116 105 040 120
  5910	040650	101 122 101 115 105
  5911	040651	124 105 122 040 122
  5912	040652	105 107 111 123 124
  5913	040653	105 122 040 102 111
  5914	040654	124 123 040 070 040
  5915	040655	055 040 061 061 011
  5916	040656	075 040 000 000 000
  5917	040657	10 04 0 07 035311
DECSYSTEM 2020 DZ11 ASYNC. LINE MUX DIAGNOSTIC VERSION  0,2	MACRO %53(1020) 13:21 22-May-79 Page 1-18
STOR	KSM	28-Mar-78 11:25		*STOR* RESERVED STORAGE, MARCH 1978                                                SEQ 0159

  5918	040660	015 012 124 105 123
  5919	040661	124 040 116 117 056
  5920	040662	040 050 061 040 055
  5921	040663	040 063 063 040 117
  5922	040664	103 124 101 114 051
  5923	040665	011 075 040 000 000
  5924	040666	015 012 052 052 052
  5925	040667	052 052 052 040 040
  5926	040670	127 122 117 116 107
  5927	040671	040 126 105 103 124
  5928	040672	117 122 040 040 052
  5929	040673	052 052 052 052 052
  5930	040674	015 012 000 000 000
  5931	040675	104 105 126 111 103
  5932	040676	105 040 101 104 104
  5933	040677	122 105 123 123 040
  5934	040700	075 040 000 000 000
  5935	040701	040 040 040 126 105
  5936	040702	103 124 117 122 040
  5937	040703	075 040 000 000 000
  5938	040704	015 012 116 117 040
  5939	040705	104 132 061 061 047
  5940	040706	123 040 123 105 114
  5941	040707	105 103 124 105 104
  5942	040710	040 124 117 040 122
  5943	040711	125 116 056 040 040
  5944	040712	120 122 117 107 122
  5945	040713	101 115 040 101 102
  5946	040714	117 122 124 105 104
  5947	040715	041 015 012 000 000
  5948	040716	077 040 127 122 117
  5949	040717	116 107 040 122 105
  5950	040720	123 120 117 116 123
  5951	040721	105 000 000 000 000
  5952	040722	015 012 111 114 114
  5953	040723	105 107 101 114 040
  5954	040724	123 124 101 107 107
  5955	040725	105 122 105 104 040
  5956	040726	115 117 104 105 040
  5957	040727	114 111 116 105 040
  5958	040730	101 123 123 111 107
  5959	040731	116 115 105 116 124
  5960	040732	015 012 000 000 000
  5961	040733	015 012 123 105 114
  5962	040734	105 103 124 105 104
  5963	040735	040 114 111 116 105
  5964	040736	011 011 075 040 000
  5965	040737	015 012 104 132 061
  5966	040740	061 040 122 105 107
  5967	040741	056 040 101 104 104
  5968	040742	122 105 123 123 011
  5969	040743	075 040 000 000 000
  5970	040744	015 012 125 116 111
  5971	040745	102 125 123 040 101
  5972	040746	104 101 120 124 105
DECSYSTEM 2020 DZ11 ASYNC. LINE MUX DIAGNOSTIC VERSION  0,2	MACRO %53(1020) 13:21 22-May-79 Page 1-19
STOR	KSM	28-Mar-78 11:25		*STOR* RESERVED STORAGE, MARCH 1978                                                SEQ 0160

  5973	040747	122 040 123 124 101
  5974	040750	124 125 123 011 075
  5975	040751	040 000 000 000 000
  5976	040752	43 54 45 41 62 51
  5977	040753	56 47 00 44 72 21
  5978	040754	21 77 00 00 00 00
  5979	040755	44 43 54 62 00 44
  5980	040756	51 44 56 07 64 00
  5981	040757	67 57 62 53 77 00
  5982	040760	040275	040752
  5983	040761	000000	000000
  5984	040762	040755	000000
  5985	040763	10 03 0 00 035623
  5986	040764	32 03 0 00 035622
  5987	040765	040275	040227
  5988	040766	000000	000000
  5989	040767	036744	034763
  5990	040770	015 012 124 105 123
  5991	040771	124 040 000 000 000
  5992	040772	015 012 104 132 061
  5993	040773	061 040 123 124 101
  5994	040774	124 125 123 011 011
  5995	040775	075 040 000 000 000
  5996	040776	015 012 104 132 122
  5997	040777	102 125 106 011 011
  5998	041000	011 075 040 000 000
  5999	041001	040275	040221
  6000	041002	000000	000000
  6001	041003	036744	035006
  6002	041004	040275	040235
  6003	041005	000000	000000
  6004	041006	036744	035023
  6005	041007	015 012 114 111 116
  6006	041010	105 040 106 101 111
  6007	041011	114 105 104 040 124
  6008	041012	117 040 122 105 103
  6009	041013	105 111 126 105 040
  6010	041014	101 040 106 125 114
  6011	041015	114 040 103 110 101
  6012	041016	122 101 103 124 105
  6013	041017	122 040 103 117 125
  6014	041020	116 124 015 012 114
  6015	041021	101 123 124 040 103
  6016	041022	110 101 122 101 103
  6017	041023	124 105 122 011 011
  6018	041024	011 075 040 000 000
  6019	041025	015 012 114 111 116
  6020	041026	105 040 116 125 115
  6021	041027	102 105 122 011 011
  6022	041030	011 075 040 000 000
  6023	041031	015 012 104 132 061
  6024	041032	061 040 101 104 104
  6025	041033	122 105 123 123 011
  6026	041034	075 040 000 000 000
  6027	041035	015 012 120 101 122
DECSYSTEM 2020 DZ11 ASYNC. LINE MUX DIAGNOSTIC VERSION  0,2	MACRO %53(1020) 13:21 22-May-79 Page 1-20
STOR	KSM	28-Mar-78 11:25		*STOR* RESERVED STORAGE, MARCH 1978                                                SEQ 0161

  6028	041036	101 115 105 124 105
  6029	041037	122 123 011 075 040
  6030	041040	000 000 000 000 000
  6031	041041	015 012 120 122 105
  6032	041042	126 111 117 125 123
  6033	041043	040 124 111 115 105
  6034	041044	011 075 040 000 000
  6035	041045	015 012 120 122 105
  6036	041046	123 105 116 124 040
  6037	041047	124 111 115 105 011
  6038	041050	075 040 000 000 000
  6039						LIST
  6040	041266	000000	000000		ENDSLD:	0
  6041
  6042					IFDEF	DEBUG,<
  6043	041267				PATCH:	BLOCK DEBUG		;PATCHING AREA
  6044					>
  6045
  6046					;PROGRAM VARIABLES
  6047	041467					VAR
  6048
  6049					IFDEF	PGMEND,<
  6050	041467	000000	000000		END:	0
  6051			030000			END	BEGIN	>

NO ERRORS DETECTED

PROGRAM BREAK IS 000000
ABSOLUTE BREAK IS 041470
CPU TIME USED 00:27.606

32P CORE USED

A	  4140#	  4146	  4150	  4150#	  4151	  4152	  4156	  4156#	  4157	  4158	  4162	  4162#	  4163	  4164
	  4168	  4168#	  4169	  4170	  4174	  4174#	  4175	  4176	  4180	  4180#	  4181	  4182	  4186	  4186#    SEQ 0162
	  4187	  4188	  4192	  4192#	  4193	  4194	  4198	  4198#	  4199	  4200	  4204	  4204#	  4205	  4206
	  4210	  4210#	  4211	  4212	  4216	  4216#	  4217	  4218	  4222	  4222#	  4223	  4224	  4228	  4228#
	  4229	  4230	  4234	  4234#	  4235	  4236	  4240	  4240#	  4241	  4242	  4246	  4246#	  4247	  4248
	  4252	  4252#	  4253	  4254	  4258	  4258#	  4259	  4260	  4264	  4264#	  4265	  4266	  4270	  4270#
	  4271	  4272	  4276	  4276#	  4277	  4278	  4282	  4282#	  4283	  4284	  4288	  4288#	  4289	  4290
	  4294	  4294#	  4295	  4296	  4300	  4300#	  4301	  4302	  4306	  4306#	  4307	  4308	  4312	  4312#
	  4313	  4314	  4318	  4318#	  4319	  4320	  4324	  4324#	  4325	  4326	  4330	  4330#	  4331	  4332
	  4336	  4336#	  4337	  4338	  4342	  4342#	  4343	  4344	  4348	  4348#	  4349	  4350	  4354	  4354#
	  4355	  4356	  4360	  4360#	  4361	  4362	  4366	  4366#	  4367	  4368	  4372	  4372#	  4373	  4374
	  4378	  4378#	  4379	  4380	  4384	  4384#	  4385	  4386	  4390	  4390#	  4391	  4392	  4396	  4396#
	  4397	  4398	  4402	  4402#	  4403	  4404	  4408	  4408#	  4409	  4410	  4414	  4414#	  4415	  4416
	  4420	  4420#	  4421	  4422	  4426	  4426#	  4427	  4428	  4432	  4432#	  4433	  4434	  4438	  4438#
	  4439	  4440	  4444	  4444#	  4445	  4446	  4450	  4450#	  4451	  4452	  4456	  4456#	  4457	  4458
	  4462	  4462#	  4463	  4464	  4468	  4468#	  4469	  4470	  4474	  4474#	  4475	  4476	  4480	  4480#
	  4481	  4482	  4486	  4486#	  4487	  4488	  4492	  4492#	  4493	  4494	  4498	  4498#	  4499	  4500
	  4504	  4504#	  4505	  4506	  4510	  4510#	  4511	  4512	  4516	  4516#	  4517	  4518	  4522	  4522#
	  4523	  4524	  4528	  4528#	  4529	  4530	  4534	  4534#	  4535	  4536	  4540	  4540#	  4541	  4542
	  4546	  4546#	  4547	  4548	  4552	  4552#	  4553	  4554	  4558	  4558#	  4559	  4560	  4564	  4564#
	  4565	  4566	  4570	  4570#	  4571	  4572	  4576	  4576#	  4577	  4578	  4582	  4582#	  4583	  4584
	  4588	  4588#	  4589	  4590	  4594	  4594#	  4595	  4596	  4600	  4600#	  4601	  4602	  4606	  4606#
	  4607	  4608	  4612	  4612#	  4613	  4614	  4618	  4618#	  4619	  4620	  4624	  4624#	  4625	  4626
	  4630	  4630#	  4631	  4632	  4636	  4636#	  4637	  4638	  4642	  4642#	  4643	  4644	  4648	  4648#
	  4649	  4650	  4654	  4654#	  4655	  4656	  4660	  4660#	  4661	  4662	  4666	  4666#	  4667	  4668
	  4672	  4672#	  4673	  4674	  4678	  4678#	  4679	  4680	  4684	  4684#	  4685	  4686	  4690	  4690#
	  4691	  4692	  4696	  4696#	  4697	  4698	  4702	  4702#	  4703	  4704	  4708	  4708#	  4709	  4710
	  4714	  4714#	  4715	  4716	  4720	  4720#	  4721	  4722	  4726	  4726#	  4727	  4728	  4732	  4732#
	  4733	  4734	  4738	  4738#	  4739	  4740	  4744	  4744#	  4745	  4746	  4750	  4750#	  4751	  4752
	  4756	  4756#	  4757	  4758	  4762	  4762#	  4763	  4764	  4768	  4768#	  4769	  4770	  4774	  4774#
	  4775	  4776	  4780	  4780#	  4781	  4782	  4786	  4786#	  4787	  4788	  4792	  4792#	  4793	  4794
	  4798	  4798#	  4799	  4800	  4804	  4804#	  4805	  4806	  4810	  4810#	  4811	  4812	  4816	  4816#
	  4817	  4818	  4822	  4822#	  4823	  4824	  4828	  4828#	  4829	  4830	  4834	  4834#	  4835	  4836
	  4840	  4840#	  4841	  4842	  4846	  4846#	  4847	  4848	  4852	  4852#	  4853	  4854	  4858	  4858#
	  4859	  4860	  4864	  4864#	  4865	  4866	  4870	  4870#	  4871	  4872	  4876	  4876#	  4877	  4878
	  4882	  4882#	  4883	  4884	  4888	  4888#	  4889	  4890	  4894	  4894#	  4895	  4896	  4900	  4900#
	  4901	  4902	  4906	  4906#	  4907	  4908	  4912	  4912#	  4913
ABORT	   421#
AC0	    78#
AC1	    79#
AC10	    86#	    95
AC11	    87#	    96
AC12	    88#	    97
AC13	    89#
AC14	    90#
AC15	    91#
AC16	    92#
AC17	    93#
AC2	    80#
AC3	    81#
AC4	    82#
AC5	    83#
AC6	    84#
AC7	    85#	    94
ACDCL	   110#                                                                                                            SEQ 0163
ACT	    97#	  3010	  3020	  3023	  3025	  3100	  3151	  3154	  3161	  3269	  3270	  3271	  3272	  3277
	  3300	  3304	  3315	  3318	  3329	  3332	  3356	  3363	  3388	  3391	  3424	  3429
ACTFLG	    95#	  1052	  1054	  1056
ADAPT	  3093	  3144#
ADVLNE	  2934	  2948#
ALTGO	    47#
ALTMGO	   771#
AROV	   685#
AROVTP	   685#
AROVU	   685#
AROW	  1037	  3175	  3297	  3299	  3966#
AS0	  3096#	  3145
AS1	  3104#	  3156	  3167
AS2	  3113#	  3115
AS3	  3114	  3117#
AS5	  3121#
AS6	  3131	  3134#
AS7	  3177	  3183#
AST	   886#
ATSIN	   887#
AUTSIZ	  1042	  3080#
B	  4141#	  4146	  4151#	  4152	  4157#	  4158	  4163#	  4164	  4169#	  4170	  4175#	  4176	  4181#	  4182
	  4187#	  4188	  4193#	  4194	  4199#	  4200	  4205#	  4206	  4211#	  4212	  4217#	  4218	  4223#	  4224
	  4229#	  4230	  4235#	  4236	  4241#	  4242	  4247#	  4248	  4253#	  4254	  4259#	  4260	  4265#	  4266
	  4271#	  4272	  4277#	  4278	  4283#	  4284	  4289#	  4290	  4295#	  4296	  4301#	  4302	  4307#	  4308
	  4313#	  4314	  4319#	  4320	  4325#	  4326	  4331#	  4332	  4337#	  4338	  4343#	  4344	  4349#	  4350
	  4355#	  4356	  4361#	  4362	  4367#	  4368	  4373#	  4374	  4379#	  4380	  4385#	  4386	  4391#	  4392
	  4397#	  4398	  4403#	  4404	  4409#	  4410	  4415#	  4416	  4421#	  4422	  4427#	  4428	  4433#	  4434
	  4439#	  4440	  4445#	  4446	  4451#	  4452	  4457#	  4458	  4463#	  4464	  4469#	  4470	  4475#	  4476
	  4481#	  4482	  4487#	  4488	  4493#	  4494	  4499#	  4500	  4505#	  4506	  4511#	  4512	  4517#	  4518
	  4523#	  4524	  4529#	  4530	  4535#	  4536	  4541#	  4542	  4547#	  4548	  4553#	  4554	  4559#	  4560
	  4565#	  4566	  4571#	  4572	  4577#	  4578	  4583#	  4584	  4589#	  4590	  4595#	  4596	  4601#	  4602
	  4607#	  4608	  4613#	  4614	  4619#	  4620	  4625#	  4626	  4631#	  4632	  4637#	  4638	  4643#	  4644
	  4649#	  4650	  4655#	  4656	  4661#	  4662	  4667#	  4668	  4673#	  4674	  4679#	  4680	  4685#	  4686
	  4691#	  4692	  4697#	  4698	  4703#	  4704	  4709#	  4710	  4715#	  4716	  4721#	  4722	  4727#	  4728
	  4733#	  4734	  4739#	  4740	  4745#	  4746	  4751#	  4752	  4757#	  4758	  4763#	  4764	  4769#	  4770
	  4775#	  4776	  4781#	  4782	  4787#	  4788	  4793#	  4794	  4799#	  4800	  4805#	  4806	  4811#	  4812
	  4817#	  4818	  4823#	  4824	  4829#	  4830	  4835#	  4836	  4841#	  4842	  4847#	  4848	  4853#	  4854
	  4859#	  4860	  4865#	  4866	  4871#	  4872	  4877#	  4878	  4883#	  4884	  4889#	  4890	  4895#	  4896
	  4901#	  4902	  4907#	  4908	  4913#
BASE	  1035	  3103	  3235	  3254	  3273	  3965#
BAUDER	  2780	  3834#
BAUDR	  3397	  3399	  3410#	  3410
BEGEND	   767#	  2966
BEGIN	    55	    56	    57	    60	    61	    62	    63	    64	    65	   636	   637	   698#	  6051
BEGIN1	   714#	   768
BELL	   890#
BIS	   685#
BIT0	   140#	   182	   184	   186	   188	   226	   245	  1667	  1725	  1726	  1778	  1826	  1896	  1978
	  2056	  2179	  2321	  2424	  2532	  2646	  2725	  2862	  3596	  3707	  3750	  3880
BIT1	   139#	   183	   184	   187	   188	   227	   246	  1666
BIT10	   130#	   158	   159	   160	   161	   174	   175	   176	   177	   210	   211	   212	   213	   218
	   219	   220	   221	   236	   255	   266                                                                     SEQ 0164
BIT11	   129#	   214	   215	   216	   217	   218	   219	   220	   221	   237	   256	   267	  1581
BIT12	   128#	   149	   165	   204	   238	   257	   268
BIT13	   127#	   150	   166	   239	   258	   269
BIT14	   126#	   151	   167	   240	   259	   270
BIT15	   125#	   152	   168	   241	   260	   271	  3132
BIT16	   124#
BIT17	   123#
BIT2	   138#	   185	   186	   187	   188	   228	   247
BIT3	   137#	   144	   191	   193	   197	   229	   248
BIT4	   136#	   145	   192	   193	   195	   196	   197	   230	   249
BIT5	   135#	   146	   194	   195	   196	   197	   202	   231	   250
BIT6	   134#	   147	   199	   232	   251
BIT7	   133#	   148	   200	   233	   252
BIT8	   132#	   155	   157	   159	   161	   171	   173	   175	   177	   207	   209	   211	   213	   215
	   217	   219	   221	   234	   253	   264	  1726
BIT9	   131#	   156	   157	   160	   161	   172	   173	   176	   177	   208	   209	   212	   213	   216
	   217	   220	   221	   235	   254	   265	  1666
BKGRD	  2634#	  2641	  2643
BKTIM	  2759#	  2770
BMD	   105#
BRK0	   264#
BRK1	   265#
BRK2	   266#
BRK3	   267#
BRK4	   268#
BRK5	   269#
BRK6	   270#
BRK7	   271#
BYTPT	  2878	  2885	  3527#
C1	  2979	  2983#
C2	  2991#	  2993	  2997
C3	  3002	  3004#
CCA	   685#
CH65	  2492	  2496#	  2500
CHAIN	   441#
CHNOFF	   685#
CHNON	   685#
CLKU	   685#
CLOCKF	   753#
CLRERR	  3616	  3622#
CNTLC	   770#
CNTRP	   685#
CO0	   253#
CO1	   254#
CO2	   255#
CO3	   256#
CO4	   257#
CO5	   258#
CO6	   259#
CO7	   260#
COMMA	   879#
CONSW	   754#	  1145	  1191	  1231	  1269	  1307	  1345	  1383	  1427	  1475	  1523	  1558	  1601	  1643
	  1703	  1759	  1807	  1878	  1950	  2035	  2158	  2301	  2405	  2504	  2586	  2656	  2694	  2732     SEQ 0165
	  2736	  2796
CPOPJ	   774#
CPOPJ1	   772#
CRLF	   571	   572	   874#
CRLF2	   575	   576	   876#
CRY0	   685#
CRY1	   685#
CSHFLG	   933#
CSHMEM	   934#
CTRP	   685#
CYCL60	   927#
CYCLE	  1060	  2978#	  2980	  2982
DATER	  3811#
DATER1	  2673	  2815	  3812	  3814#
DATER2	  2650	  2672#
DATER3	  2773	  2814#
DCK	   685#
DCLR	   145#	  1165	  1177	  1222	  1260	  1298	  1336	  1374	  1415	  3614
DDTLNK	   455#	   712
DDTSRT	   712#
DEBUG	    48#	  6042	  6043
DECVER	     4#	     6	    13	   733
DEFLT	  3347	  3356#
DELAY	  1737	  1749	  1793	  1839	  1861	  1910	  1931	  1991	  2015	  2084	  2120	  2217	  2258	  2349
	  2368	  2382	  2438	  2451	  2550	  2563	  2884	  3631#	  3885
DF22F	   838#
DIAGMN	   701#
DING	   427#
DISXFR	   111#
DLYCNT	  1736	  1748	  1792	  1838	  1857	  1909	  1927	  1990	  2011	  2083	  2119	  2216	  2257	  2348
	  2367	  2381	  2437	  2450	  2549	  2562	  2607	  2642	  2745	  2769	  2776	  2883	  3631	  3852
	  3884	  3930#
DLYTBL	  1856	  1926	  2010	  2118	  2256	  2366	  2449	  2561	  2882	  4110#
DOLLAR	   893#
DSKUPD	   738
DTR0	   234#	  1447
DTR1	   235#
DTR2	   236#
DTR3	   237#
DTR4	   238#
DTR5	   239#
DTR6	   240#
DTR7	   241#
DVALID	   168#	  1581	  2004	  2497	  2544	  3648	  3739	  3873
DZ.END	  4057#
DZ.MAP	  2985	  3016	  3026	  3043	  3049	  3055	  3061	  3067	  3071	  3088	  3089	  3090	  3125	  3127
	  3133	  3135	  3137	  3138	  3176	  3364	  3986#
DZACTV	  1054	  2978	  3020	  3023	  3084	  3085	  3086	  3140	  3208	  3209	  3210	  3270	  3925#
DZCLR	  1521	  1533	  1550	  1575	  1617	  1628	  1665	  1724	  1774	  1782	  1970	  2863	  2931	  3612#
	  3624	  3639
DZCR0	  3274	  3987#
DZCR1	  3994#
DZCR10	  4008#                                                                                                            SEQ 0166
DZCR11	  4010#
DZCR12	  4012#
DZCR13	  4014#
DZCR14	  4016#
DZCR15	  4018#
DZCR16	  4020#
DZCR17	  4022#
DZCR2	  3996#
DZCR20	  4024#
DZCR21	  4026#
DZCR22	  4028#
DZCR23	  4030#
DZCR24	  4032#
DZCR25	  4034#
DZCR26	  4036#
DZCR27	  4038#
DZCR3	  3998#
DZCR30	  4040#
DZCR31	  4042#
DZCR32	  4044#
DZCR33	  4046#
DZCR34	  4048#
DZCR35	  4050#
DZCR36	  4052#
DZCR37	  4054#
DZCR4	  4000#
DZCR5	  4002#
DZCR6	  4004#
DZCR7	  4006#
DZCSR	  1062	  1099	  1100	  1105	  1159	  1182	  1185	  1203	  1208	  1209	  1211	  1216	  1217	  1219
	  1223	  1224	  1226	  1228	  1241	  1246	  1247	  1249	  1254	  1255	  1257	  1261	  1262	  1264
	  1266	  1279	  1284	  1285	  1287	  1292	  1293	  1295	  1299	  1300	  1302	  1304	  1317	  1322
	  1323	  1325	  1330	  1331	  1333	  1337	  1338	  1340	  1342	  1355	  1360	  1361	  1363	  1368
	  1369	  1371	  1375	  1376	  1378	  1380	  1416	  1417	  1488	  1493	  1494	  1502	  1503	  1505
	  1514	  1515	  1534	  1541	  1542	  1551	  1789	  1794	  1798	  1828	  1841	  1843	  1859	  1863
	  1898	  1912	  1914	  1929	  1933	  1980	  1993	  1995	  2013	  2017	  2052	  2081	  2086	  2096
	  2098	  2108	  2122	  2125	  2134	  2174	  2214	  2231	  2233	  2234	  2243	  2246	  2260	  2263
	  2292	  2317	  2346	  2351	  2353	  2370	  2373	  2378	  2397	  2426	  2440	  2442	  2455	  2461
	  2481	  2483	  2535	  2552	  2554	  2567	  2573	  2633	  2758	  2865	  2889	  2891	  2916	  2952
	  2991	  2998	  3001	  3104	  3109	  3113	  3119	  3122	  3124	  3152	  3487	  3615	  3617	  3643
	  3658	  3664	  3670	  3691	  3699	  3728	  3837	  3864	  3886	  4061#
DZLPR	  1510	  1571	  1578	  1591	  2879	  3598	  4067#
DZLV0	  3316	  3330	  3989#
DZMSR	  1134	  1618	  1621	  1634	  1661	  1676	  1685	  1720	  1738	  1750	  4073#
DZNUM	  1058	  2964	  3012	  3021	  3091	  3169	  3170	  3205	  3267	  3424	  3926#
DZPRT	  1441	  1657	  1716	  2181	  2525	  2617	  2721	  2908	  3917#
DZRBUF	  1111	  1116	  1576	  1579	  1592	  1867	  1868	  1937	  1938	  2021	  2022	  2135	  2136	  2267
	  2285	  2379	  2473	  2474	  2496	  2543	  3647	  3689	  3734	  3866	  4064#
DZRIS	  2091	  2129	  2222	  2277	  2577	  2581	  3659	  3675	  3729	  3735	  3736	  3865	  3867	  3868
	  4081#
DZRIV	  2061	  2195	  2326	  2519	  2608	  2712	  2902	  3916#
DZTCR	  1123	  1128	  1395	  1400	  1401	  1403	  1408	  1409	  1411	  1414	  1419	  1421	  1443	  1448
	  1449	  1451	  1455	  1456	  1458	  1462	  1465	  1467	  1512	  1770	  1788	  1836	  1875	  1907     SEQ 0167
	  1947	  1988	  2031	  2079	  2154	  2212	  2297	  2344	  2401	  2435	  2501	  2547	  2582	  2631
	  2756	  2868	  2880	  3106	  3110	  3117	  3123	  3129	  3130	  3711	  3882	  4070#
DZTDR	  1139	  1613	  1620	  1633	  1848	  1918	  2001	  2110	  2248	  2358	  2447	  2559	  2895	  3706
	  3889	  4076#
DZTIS	  2102	  2139	  2226	  2269	  2383	  3665	  3676	  3700	  3701	  4082#
DZVC0	  3178	  3301	  3988#
EBIT0	   685#
EBIT1	   685#
EBIT10	   685#
EBIT11	   685#
EBIT12	   685#
EBIT13	   685#
EBIT14	   685#
EBIT15	   685#
EBIT2	   685#
EBIT3	   685#
EBIT4	   685#
EBIT5	   685#
EBIT6	   685#
EBIT7	   685#
EBIT8	   685#
EBIT9	   685#
ECEX	  3879	  3891#
ECEX1	  3890	  3895#
ECS3	  3871	  3874	  3876	  3903#
ECSER	  2904	  3858#	  3900
EIAFLG	  3936#
EIGHT	   193#
EIGHTS	   197#
ELINE	  2944	  2949	  3941#
ELNEN	  2945	  2950	  3942#
END	  6050#
ENDFIX	  1013#
ENDSLD	  6040#
ERMORE	   787#
EROLD	   647
ERRPC	   758#
ERRTLS	   759#	  1025
ERSTOP	   430#
EVEPAR	   203#
EVLNE	  1695	  1699#
EXCASB	    45#	   736
EXIOT	   685#
FINI	  2799	  2940	  2962#
FIVE	   190#
FIVES	   194#
FNDVEC	  3081	  3193#
FOV	   685#
FOVU	   685#
FRDLNK	   453#
FRMERR	   166#	  2004	  3741	  3875
FSELNK	   452#
FXU	   685#                                                                                                            SEQ 0168
HDR1	  3040#	  3072
HDRFLG	  3938#
HDZCSR	  4062#
HDZLPR	  4068#
HDZMSR	  4074#
HDZRBU	  4065#
HDZTCR	  1675	  1684	  1734	  1746	  4071#
HDZTDR	  2000	  2030	  4077#
HEADER	  1043	  3034#
HELP	  1021	  3528#
HILIM	  2186	  2294	  3680	  3929#
HIPIA	  2182	  3679#
HIREQ	   108#	  3683
HYPEN	   884#
IDLE	  2917#	  2927	  2928
INBUF	  4139#
INCLD2	   401#	  1163
IND	    94#	  1053	  1054	  1055	  1074	  1075	  1855	  1856	  1925	  1926	  2009	  2010	  2061	  2062
	  2064	  2066	  2067	  2117	  2118	  2195	  2196	  2198	  2200	  2201	  2255	  2256	  2326	  2327
	  2329	  2331	  2332	  2365	  2366	  2448	  2449	  2519	  2520	  2522	  2560	  2561	  2608	  2609
	  2611	  2613	  2614	  2712	  2713	  2715	  2717	  2718	  2881	  2882	  2902	  2903	  2905	  2912
	  2989	  2991	  2993	  2995	  2996	  2998	  3000	  3001	  3011	  3016	  3024	  3026	  3037	  3043
	  3045	  3049	  3051	  3055	  3057	  3061	  3063	  3067	  3069	  3071	  3101	  3125	  3127	  3133
	  3135	  3137	  3138	  3139	  3174	  3176	  3178	  3179	  3193	  3195	  3197	  3206	  3274	  3276
	  3278	  3301	  3302	  3305	  3316	  3317	  3319	  3330	  3331	  3333	  3359	  3360	  3361	  3362
	  3364	  3387	  3389	  3390	  3396	  3423	  3426	  3427	  3428	  3701	  3705	  3708	  3710	  3718
	  3736	  3744	  3746	  3749	  3751	  3760	  3763	  3764	  3868	  3881	  3888	  3894	  3903	  3904
INHCSH	   438#
INHMAP	   405#	  3035
INHPAG	   435#
INIFLG	  1017	  1041	  3082	  3368	  3937#
IOCLR	   685#
ITERAT	    51#	   731
ITRCH1	   791#
ITRCNT	   731#
JOB41	   685#
JOBAPR	   685#
JOBCNI	   685#
JOBDDT	   685#
JOBFF	   685#
JOBOPC	   685#
JOBREL	   685#
JOBREN	   685#
JOBSA	   685#
JOBSYM	   685#
JOBTPC	   685#
JOBUSY	   685#
JOBUUO	   685#
JOBVER	   685#
KAIFLG	   748#
KLFLG	   749#
KNTRP	   685#
KTRP	   685#                                                                                                            SEQ 0169
LACLK	   685#
LACLKE	   685#
LAPRAL	   685#
LAPRP1	   685#
LAPRP2	   685#
LAPRP3	   685#
LAPRP4	   685#
LAPRP5	   685#
LAPRP6	   685#
LAPRP7	   685#
LCHNOF	   685#	  2660	  2666	  2801	  2807	  3768	  3792
LCHNON	   685#	  2068	  2202	  2333	  2533	  2628	  2663	  2669	  2754	  2804	  2810	  2913	  3771	  3795
LCNTXT	   685#
LCNXER	   685#
LCPAER	   685#
LCPSFT	   685#
LCPWRF	   685#
LDATAF	   685#
LDLNK	   454#	   701	   703
LDNXER	   685#
LDPAER	   685#
LDPSFT	   685#
LDPWRF	   685#
LEBXMH	   685#
LEBXML	   685#
LENXER	   685#
LEPAER	   685#
LEPSFT	   685#
LEPWRF	   685#
LEUPFW	   685#
LEXCMP	   685#
LFLGCL	   685#
LFLGDS	   685#
LFLGEN	   685#
LFLGST	   685#
LFP	   888#
LINE	  1668	  1727	  1779	  1829	  1899	  1981	  2069	  2203	  2334	  2427	  2536	  2629	  2647	  2726
	  2866	  3597	  3919#
LINE0	  3361	  3389	  3990#
LINSTF	   685#
LINT	   685#
LIOCLR	   685#	  1028	  1029
LLACBL	   685#
LLDUSB	   685#
LMBXMH	   685#
LMBXML	   685#
LNECNT	  2630	  2635	  2755	  2759	  3752	  3753	  3767#
LNXMEN	   685#
LNXMER	   685#
LOLIM	  2188	  2293	  2296	  3682	  3928#
LOOPER	   429#
LOREQ	   109#	  2189
LP0	   181#                                                                                                            SEQ 0170
LP1	   182#
LP2	   183#
LP3	   184#
LP4	   185#
LP5	   186#
LP6	   187#
LP7	   188#
LPAREN	   685#
LPARER	   685#
LPFWPC	   685#	  3558
LPGFTR	   685#	  1091	  1093	  1148	  3563	  3564
LPICH1	   685#	  2533	  2628	  2660	  2663	  2666	  2669	  2754	  2801	  2804	  2807	  2810	  2913	  3768
	  3771	  3792	  3795
LPICH2	   685#
LPICH3	   685#
LPICH4	   685#
LPICH5	   685#
LPICH6	   685#
LPICH7	   685#
LPICHA	   685#	  2068	  2202	  2333
LPICLR	   685#	  2156	  2299	  2403	  2584	  2644	  2771	  2930	  3184
LPIIP1	   685#
LPIIP2	   685#
LPIIP3	   685#
LPIIP4	   685#
LPIIP5	   685#
LPIIP6	   685#
LPIIP7	   685#
LPIOFF	   685#
LPION	   685#	  2068	  2202	  2333	  2533	  2628	  2754	  2913
LPR3	  3597#	  3602
LPRCH1	   685#
LPRCH2	   685#
LPRCH3	   685#
LPRCH4	   685#
LPRCH5	   685#
LPRCH6	   685#
LPRCH7	   685#
LPREN	  1824	  1894	  1976	  2054	  2177	  2319	  2421	  2530	  2626	  2752	  3593#
LPRFMH	   685#
LPRFML	   685#
LPSFT	   685#
LPSFTE	   685#
LPWRFE	   685#
LPWRFL	   685#
LREQSE	   685#
LRQCLR	   685#
LSECMO	   685#
LSMODE	   685#
LSNXER	   685#
LSPAER	   685#
LSPSFT	   685#
LSPWRF	   685#                                                                                                            SEQ 0171
LTBASH	   685#
LTBASL	   685#
LTRPAE	   685#
LTRPEN	   685#
LUSCMP	   685#
LUUO	   685#
LUUO1	   818	   819
LUUO10	   818	   823
LUUO11	   818	   823
LUUO12	   818	   824
LUUO13	   818	   824
LUUO14	   818	   825
LUUO15	   818	   825
LUUO16	   818	   826
LUUO17	   818	   826
LUUO2	   818	   820
LUUO20	   818	   827
LUUO21	   818	   827
LUUO22	   818	   828
LUUO23	   818	   828
LUUO24	   818	   829
LUUO25	   818	   829
LUUO26	   818	   830
LUUO27	   818	   830
LUUO3	   818	   820
LUUO30	   818	   831
LUUO31	   818	   831
LUUO32	   818	   832
LUUO33	   818	   832
LUUO4	   818	   821
LUUO5	   818	   821
LUUO6	   818	   822
LUUO7	   818	   822
LUUOI	   685#
LWRITE	   685#
MAINT	   144#	  1207	  1539	  3642
MANT0	  3359	  3396	  3992#
MAPNEW	   839#	  1026
MARGIN	   761#
MCNVER	     4#	     6	    13	   733
MEMLOW	   841#
MEMMAP	    46#	   739
MEMSIZ	   842#
MEMTOT	   840#
MERR1	  3480#
MERR2	  1057	  3171	  3497#
MERR3	  3382	  3384	  3386	  3418	  3420	  3422	  3442	  3444	  3446	  3503#
MERR4	  3404	  3406	  3507#
MINUS	   883#
MNTEX	  3641	  3644#
MNTF	  3345	  3353#
MNTF1	  3349	  3355#
MNTFLG	  3939#                                                                                                            SEQ 0172
MODDVC	   437#	  1039
MODDVL	   636	   636#	   734
MODDVU	   637	   637#	   735
MODE	  1659	  1718	  1853	  1923	  1965	  2007	  2115	  2253	  2363	  2471	  2748	  2761	  2765	  2774
	  2988	  3640	  3748	  3921#
MODLNK	   456#	   698
MONCTL	   751#
MONFLG	   750#
MONTEN	   752#
MONTYP	   965#
MORE	  3195#	  3197
MPVU	   685#
MSENAB	   146#	  1245	  1539	  1776	  1777	  1827	  1897	  1979	  2080	  2213	  2345	  2425	  2534	  2632
	  2757	  2864	  2914	  2951	  3107
MTSILO	  1825	  1895	  1977	  2055	  2178	  2320	  2422	  2531	  2627	  2753	  2847	  3647#	  3649
MUBA1	  3222#	  3233
MUBA1A	  3226	  3227	  3231#
MUBA2	  3229	  3235#
MUBA3	  3220	  3236#
MUBA4	  3241#	  3252
MUBA4A	  3244	  3245	  3250#
MUBA5	  3248	  3254#
MUBA6	  3239	  3256#	  3266
MUBA7	  3285#	  3295
MUBA7A	  3288	  3289	  3293#
MUBA8	  3291	  3297#
MUBA9	  3262	  3267#
MUBA9A	  3259	  3260	  3264#
MUBAA	  3307#	  3323
MUBAB	  3320	  3324#
MUBAX	  3283	  3299#
MUBX1	  3310	  3312	  3314	  3321#
MUBX2	  3327	  3335#
MUBX3	  3342#	  3352
MUUO	   685#
MUUOPC	   685#
NED	   107#	  1096	  3148
NOPNT	   425#
NXMU	   685#
NXTCH	  1918#	  1946
ODDPAR	   200#	  1974
ONESTO	   201#
OPRSEL	   439#
OPTIME	   853#
OR1	  1054#	  1055
OVRRUN	   167#	  2494	  3741	  3875
P	   482	   483	   484	   485	   685#	   773
PAG	   685#
PALERS	   431#
PAR	  1855	  1925	  1972	  1973	  1975	  2009	  2033	  2117	  2255	  2365	  2448	  2560	  2702	  2743
	  2786	  2788	  2790	  2794	  2860	  2881	  3595	  3842	  3920#
PAR0	  3360	  3426	  3427	  3991#
PARAM	   404#	  3366                                                                                                     SEQ 0173
PAREA1	    67#	   729
PAREA2	    68#	   730
PAREA3	    69#	   727
PAREA4	    70#	   728
PAREA5	    71#	   740
PAREA6	    72#	   741
PAREA7	   740#
PAREA8	   741#
PARER	   165#	  2004	  3741	  3875
PARITY	   199#	  1974
PARU	   685#
PASCNT	   755#	  1023
PATCH	  6043#
PDISF	   850#
PDLOVU	   685#
PDOVTP	   685#
PERIOD	   880#
PFSTRT	   707#
PG1	  3116	  3118	  3120	  3141	  3151#
PGEND	  3142	  3150	  3157#
PGEND1	  3158	  3169#
PGFAIL	  3098	  3148#
PGMEND	    49#	  6049
PGMNAM	   732	  4916#
PGTR1	  3555	  3563#
PGTRAP	  1092	  3554#
PIA30	   113#
PIA31	   114#
PIA32	   115#
PIA33	   116#
PIA34	   117#
PIA35	   118#
PICHN1	   685#
PICHN2	   685#
PICHN3	   685#
PICHN4	   685#
PICHN5	   685#
PICHN6	   685#
PICHN7	   685#
PICHNA	   685#
PICLR	   685#
PIOFF	   685#
PION	   685#
PIREQ	  2176	  2183	  2190	  2238	  2281	  3684	  3931#
PLIST	   919#	   919
PLISTE	   919	   921#
PLISTS	   920#
PLUS	   885#
PNTENB	   849#
PNTEXT	   728#
PNTFLG	   848#
PNTINH	   851#
PNTLPT	   426#                                                                                                            SEQ 0174
PNTNAM	   727#
PNTRP	   685#
PNTSPC	   852#
PRMTR	  3367	  3375#	  3375
PRMTR1	  3401#	  3408
PTRP	   685#
PVPAGI	   946#
QMSG	  2877	  3513#
QUES	  1040	  3205#
QUEST	   891#
RADIX	   894#
RADLSC	   896#
RADLSP	   895#
RANDBS	   729#
RCVON	   204#
RDONE	   148#	  1858	  1928	  2012	  2121	  2259	  2369	  3730
REENTR	   709#
RELIAB	   433#
REPT	   685#
REPT1	   685#
REPTU	   807#
REQSET	   685#
RESEL	   407#	  1046
RESRT1	   784#
RESRT2	   785#
RETURN	   716#
RIE	   147#	  1321	  1539	  2107	  2133	  2245	  2291	  2377	  2396	  2534	  2632	  2757	  2914	  3690
RING0	   245#
RING1	   246#
RING2	   247#
RING3	   248#
RING4	   249#
RING5	   250#
RING6	   251#
RING7	   252#
RL0	   170#
RL1	   171#
RL2	   172#
RL3	   173#
RL4	   174#
RL5	   175#
RL6	   176#
RL7	   177#
RSLCT	  1047	  3010#
RSLCT1	  3013#	  3027
RSLCT2	  3019	  3023#
RSTART	   422#
RSTRT	   402#	  1049
RTP	   889#
RUN	    96#	  1044	  2978	  2980	  2981	  2983	  3002	  3003
RUNFLG	   756#
RXCSR	  2603	  2604	  2605	  2639	  2705	  2706	  2707	  2767	  2844	  2845	  2846	  2922	  3760	  3763
	  3764	  3781	  3786	  3788	  3903	  3904	  3907#                                                            SEQ 0175
RXERR	  2923	  3768#
RXERR1	  2668	  2809	  3770	  3773#
RXERR2	  2640	  2666#
RXERR3	  2768	  2807#
RXEX	  3747	  3754#
RXINT	  2063	  2197	  2521	  3656#	  3660
RXPRI	  2328	  3687#	  3692
RXS1	  3746#	  3761	  3765
RXS2	  3731	  3733	  3760#
RXS3	  3740	  3742	  3745	  3763#
RXSER	  2610	  2714	  3723#	  3758
S110	   208#
S1200	   213#
S134	   209#
S150	   210#
S1800	   214#
S19200	   221#
S2000	   215#
S2400	   216#
S300	   211#
S3600	   217#
S4800	   218#
S50	   206#
S600	   212#
S7200	   219#
S75	   207#
S9600	   220#
SADR1	    55#	   705
SADR10	    64#	   721
SADR11	    65#	   722
SADR2	    56#	   707
SADR3	    57#	   709
SADR4	    58#
SADR5	    59#	   770
SADR6	    60#	   771
SADR7	    61#	   718
SADR8	    62#	   719
SADR9	    63#	   720
SAVLIN	  1775	  1783	  1822	  1831	  1849	  1892	  1901	  1919	  1971	  1983	  2002	  2053	  2071	  2111
	  2175	  2205	  2249	  2318	  2336	  2359	  2423	  2429	  2467	  2528	  2538	  2861	  2870	  3574
	  3922#
SAVNUM	  1059	  2962	  2965	  3172	  3268	  3269	  3272	  3300	  3315	  3329	  3356	  3388	  3927#
SBINIT	   495	   715#
SCOPE	   808#
SDCH	  2551#	  2571
SDCH1	  2565	  2572#
SETMNT	  1823	  1893	  2051	  2173	  2316	  2420	  2529	  2625	  2751	  3639#
SEVEN	   192#
SEVENS	   196#
SFSTRT	   705#
SHFT	  3402	  3407#
SILOAL	   150#	  2454	  2460	  2482	  2566	  2572	  3732	  3870
SILOEN	   149#	  1283	  1539	  2425	  2534                                                                             SEQ 0176
SIX	   191#
SIXS	   195#
SKTST	   406#	  2695
SLASH	   892#
SLINE	  1024	  2848	  2859	  2874	  2929	  2933	  2942	  3940#
SM10	   996#
SMPE	   106#
SNTRP	   685#
SPACE	   881#
SRTDDT	    58	   711#
SSTP	  2887	  2942#
START	   699	  1016#	  2939
START1	   718#
START2	   719#
START3	   720#
START4	   721#
START5	   722#
STARTA	   714	  1060#	  2963
STAT	  1103	  1108	  1114	  1119	  1126	  1131	  1137	  1142	  1179	  1188	  1214	  1220	  1229	  1252
	  1258	  1267	  1290	  1296	  1305	  1328	  1334	  1343	  1366	  1372	  1381	  1406	  1412	  1422
	  1453	  1460	  1469	  1499	  1507	  1519	  1547	  1555	  1585	  1598	  1626	  1640	  1681	  1690
	  1743	  1755	  3576#
STAT1	  1796	  1803	  1845	  1865	  1873	  1916	  1935	  1943	  1997	  2019	  2027	  2089	  2093	  2100
	  2127	  2141	  2145	  2149	  2220	  2224	  2228	  2236	  2240	  2265	  2271	  2275	  2279	  2283
	  2289	  2355	  2375	  2385	  2389	  2394	  2444	  2457	  2463	  2479	  2485	  2499	  2556	  2569
	  2575	  2579	  2893	  3571#
STOP	  2740	  2783	  3963#
STRP	   685#
STST	  1067	  1071#
SUBLNK	   457#	   715
SWPTAB	  1002#	  1022
SWTEXR	   730#
SYSEXR	   703#
T	  1085#	  1103	  1108	  1114	  1119	  1126	  1131	  1137	  1142	  1154#	  1179	  1188	  1195#	  1214
	  1220	  1229	  1252	  1258	  1267	  1290	  1296	  1305	  1328	  1334	  1343	  1366	  1372	  1381
	  1386#	  1406	  1412	  1422	  1437#	  1453	  1460	  1469	  1484#	  1499	  1507	  1519	  1531#	  1547
	  1555	  1567#	  1585	  1598	  1609#	  1626	  1640	  1654#	  1681	  1690	  1713#	  1743	  1755	  1768#
	  1796	  1803	  1817#	  1845	  1865	  1873	  1886#	  1916	  1935	  1943	  1962#	  1997	  2019	  2027
	  2043#	  2089	  2093	  2100	  2104	  2127	  2131	  2141	  2145	  2149	  2166#	  2220	  2224	  2228
	  2236	  2240	  2265	  2271	  2275	  2279	  2283	  2289	  2309#	  2355	  2375	  2385	  2389	  2394
	  2415#	  2444	  2457	  2463	  2479	  2485	  2499	  2513#	  2556	  2569	  2575	  2579	  2594#	  2662
	  2668	  2673	  2692#	  2780	  2803	  2809	  2815	  2835#	  2893	  3623	  3770	  3794	  3812
T110	  4091#
T1200	  4096#
T134	  4092#
T150	  4093#
T1800	  4097#
T2000	  4098#
T2400	  4099#
T24BB	  2106#	  2128	  2132	  2142	  2146	  2150
T25AB	  2184	  2191#
T25BB	  2244#	  2266	  2272	  2276	  2280	  2284	  2290
T26BB	  2357#	  2376	  2386	  2390	  2395                                                                             SEQ 0177
T300	  4094#
T31A	  2647#	  2654
T31B	  2648	  2651#
T32A	  2726#	  2731	  2793
T32B	  2727	  2736#
T32C	  2744#	  2781	  2787	  2792
T32D	  2784	  2788#
T32E	  2735	  2794#
T32F	  2696	  2799#
T33A	  2849	  2860#
T33B	  2882#	  2896
T33D	  2919	  2926	  2930#
T33E	  2876	  2935#
T3600	  4100#
T4800	  4101#
T50	  4089#
T600	  4095#
T7200	  4102#
T75	  4090#
T9600	  4103#
TAB	   882#
TCR	   225#	  1399
TCR0	   225	   226#	  1511
TCR1	   227#
TCR2	   228#
TCR3	   229#
TCR4	   230#
TCR5	   231#
TCR6	   232#
TCR7	   233#	  3108
TD0	  2621	  2623	  2708	  2710	  2747	  2898	  2900	  3705	  3710	  3946#
TD1	  2623	  2710	  2900	  3947#
TD2	  3948#
TD3	  3949#
TD4	  3950#
TD5	  3951#
TD6	  3952#
TD7	  3953#
TEIGHT	  4104#
TEST1	  1089#	  3451
TEST10	  1395#	  3458
TEST11	  1440#	  1444	  3459
TEST12	  1442	  1486#	  3460
TEST13	  1533#	  1535	  3461
TEST14	  1569#	  3462
TEST15	  1611#	  3463
TEST16	  1656#	  1662	  3464
TEST17	  1658	  1660	  1715#	  1721	  3465
TEST2	  1157#	  3452
TEST20	  1717	  1719	  1770#	  1771	  3466
TEST21	  1819#	  1819	  3467
TEST22	  1888#	  1888	  3468
TEST23	  1965#	  1967	  3469                                                                                             SEQ 0178
TEST24	  1966	  2046#	  2046	  3470
TEST25	  2168#	  2168	  3471
TEST26	  2311#	  2311	  3472
TEST27	  2417#	  2417	  3473
TEST3	  1203#	  3453
TEST30	  2515#	  2515	  3474
TEST31	  2596#	  2596	  3475
TEST32	  2659	  2694#	  2697	  3476
TEST33	  2838#	  2838	  3477
TEST4	  1241#	  3454
TEST5	  1279#	  3455
TEST6	  1317#	  3456
TEST7	  1355#	  3457
TESTPC	   757#	  1090	  1158	  1205	  1243	  1281	  1319	  1357	  1397	  1446	  1487	  1537	  1570	  1612
	  1664	  1723	  1773	  1821	  1890	  1969	  2048	  2170	  2313	  2419	  2516	  2597	  2699	  2839
TFIVE	  4107#
TICKS	   760#
TIE	   151#	  1359	  1539	  2080	  2085	  2213	  2242	  2377	  2396	  2632	  2757	  3690
TIMOUT	   104#	  1096	  2049	  2171	  2314	  3148
TL0	   154#
TL1	   155#
TL2	   156#
TL3	   157#
TL4	   158#
TL5	   159#
TL6	   160#
TL7	   161#
TMTBL	  4088#
TN0	   685#
TN1	   685#
TOTALS	   423#
TR0	  2649	  2750	  2772	  2918	  2932	  3744	  3746	  3823	  3830	  3894	  3955#
TR1	  3956#
TR2	  3957#
TR3	  3958#
TR4	  3959#
TR5	  3960#
TR6	  3961#
TR7	  2624	  2711	  2901	  3962#
TRACE	   408#	  2733	  2737
TRDY	   152#	  1501	  1776	  1790	  1840	  1911	  1992	  2095	  2230	  2350	  2439	  2551	  2888	  3111
	  3703	  3709	  3887
TRP3TP	   685#
TSEVEN	  4105#
TSIX	  4106#
TST10A	  1396	  1399#	  1407	  1426
TST10B	  1408#	  1413
TST10C	  1414#	  1423
TST11A	  1448#	  1454	  1473
TST11B	  1455#	  1461
TST11C	  1462#	  1470
TST12A	  1489	  1491#	  1500
TST12B	  1501#	  1508                                                                                                     SEQ 0179
TST12C	  1509#	  1520
TST12D	  1516	  1521#
TST13A	  1538#	  1548
TST13B	  1549#	  1556
TST14A	  1572	  1574#	  1586
TST14B	  1588#	  1599
TST15A	  1614	  1616#	  1627
TST15B	  1630#	  1641
TST16A	  1666#
TST16B	  1668#	  1673	  1698
TST16C	  1669	  1675#	  1682	  1701
TST16D	  1683#	  1691
TST16E	  1674	  1693	  1702#
TST17A	  1725#
TST17B	  1727#	  1732	  1757
TST17C	  1728	  1734#	  1744
TST17D	  1745#	  1756
TST17E	  1733	  1758#
TST1A	  1094	  1100#	  1104
TST1B	  1105#	  1109
TST1C	  1111#	  1115
TST1D	  1116#	  1120	  1127
TST1E	  1123#
TST1F	  1128#	  1132
TST1G	  1134#	  1138
TST1H	  1139#	  1143
TST20A	  1779#	  1786	  1805
TST20B	  1780	  1788#	  1797	  1804
TST20C	  1787	  1806#
TST21A	  1829#	  1834	  1876
TST21B	  1830	  1836#	  1846
TST21C	  1858#	  1866
TST21D	  1860	  1867#	  1874
TST21E	  1835	  1877#
TST22A	  1899#	  1905	  1948
TST22B	  1900	  1907#	  1917
TST22C	  1928#	  1936
TST22D	  1930	  1937#	  1944
TST22E	  1906	  1949#
TST23A	  1981#	  1986	  2032
TST23B	  1982	  1988#	  1998
TST23C	  2012#	  2020
TST23D	  2014	  2021#	  2028
TST23E	  1987	  2033#
TST24A	  2069#	  2074	  2155
TST24B	  2070	  2076#	  2090	  2094	  2101	  2105	  2153
TST24C	  2120#
TST24D	  2123	  2133#
TST24E	  2075	  2156#
TST25A	  2203#	  2208	  2298
TST25B	  2204	  2210#	  2221	  2225	  2229	  2237	  2241	  2295
TST25C	  2258#
TST25D	  2261	  2267#                                                                                                    SEQ 0180
TST25E	  2209	  2299#
TST26A	  2334#	  2339	  2402
TST26B	  2335	  2341#	  2356	  2400
TST26C	  2368#
TST26D	  2371	  2377#
TST26E	  2340	  2403#
TST27A	  2427#	  2432	  2502
TST27B	  2428	  2434#	  2445
TST27D	  2473#	  2480	  2486	  2490	  2495
TST27E	  2433	  2503#
TST2A	  1160	  1165#	  1180	  1189
TST2B	  1164	  1183	  1190#
TST30A	  2536#	  2541	  2583
TST30B	  2537	  2543#	  2545	  2557	  2570	  2576	  2580
TST30E	  2542	  2584#
TST31A	  2636	  2644#
TST32A	  2760	  2771#
TST33A	  2866#	  2873	  2943	  2953
TST33B	  2867	  2877#	  2894
TST33C	  2875	  2897#	  2946
TST3A	  1204	  1207#	  1215
TST3B	  1216#	  1221
TST3C	  1222#	  1230
TST4A	  1242	  1245#	  1253
TST4B	  1254#	  1259
TST4C	  1260#	  1268
TST5A	  1280	  1283#	  1291
TST5B	  1292#	  1297
TST5C	  1298#	  1306
TST6A	  1318	  1321#	  1329
TST6B	  1330#	  1335
TST6C	  1336#	  1344
TST7A	  1356	  1359#	  1367
TST7B	  1368#	  1373
TST7C	  1374#	  1382
TSTBL	  1020	  1074	  1075	  3447	  3450#
TSTLP	   403#	  1146	  1192	  1232	  1270	  1308	  1346	  1384	  1428	  1476	  1524	  1559	  1602	  1644
	  1704	  1760	  1808	  1879	  1951	  2036	  2159	  2302	  2406	  2505	  2587	  2657	  2797
TSTS1	  3436	  3438#
TSTSEL	  1050	  3436#
TTNBRF	   940#
TTYFIL	   856#
TTYSPD	   857#
TWOSTO	   202#
TXCH	  2439#	  2458	  2459	  2464	  2466
TXCH1	  2453	  2460#
TXCSR	  2637	  2763	  2920	  3718	  3805	  3807	  3888	  3909#
TXERR	  3792#
TXERR1	  2662	  2803	  2921	  3794	  3797#
TXERR2	  2638	  2660#
TXERR3	  2764	  2801#
TXINT	  2065	  2199	  2330	  3662#	  3666
TXS1	  3707#	  3719                                                                                                     SEQ 0181
TXS2	  3704	  3718#
TXSER	  2612	  2716	  3694#	  3716
TXTINH	   434#
UBA0	  1063	  1068#
UBAFG1	  3092	  3144	  3157	  3159	  3982#
UBAFLG	  3160	  3981#
UBAMT	  1066	  1070	  3980#
UBAMT0	  3972#
UBAMT1	  3976#
UBAPR	  1065	  1069	  3978#
UBAPR0	  1069	  3969#
UBAPR1	  1065	  3974#
UBASR	  1072	  1073	  1097	  1101	  1106	  1112	  1117	  1124	  1129	  1135	  1140	  1176	  1186	  1210
	  1218	  1227	  1248	  1256	  1265	  1286	  1294	  1303	  1324	  1332	  1341	  1362	  1370	  1379
	  1402	  1410	  1420	  1450	  1457	  1464	  1466	  1495	  1504	  1543	  1580	  1593	  1622	  1635
	  1677	  1686	  1739	  1751	  1799	  1842	  1862	  1869	  1913	  1932	  1939	  1994	  2016	  2023
	  2050	  2077	  2097	  2124	  2137	  2172	  2210	  2232	  2262	  2268	  2315	  2342	  2352	  2372
	  2441	  2475	  2527	  2553	  2619	  2723	  2890	  2910	  3097	  3149	  3163	  3554	  3556	  3557
	  3657	  3663	  3669	  3688	  3892	  3893	  3979#
UBASR0	  3096	  3971#
UBASR1	  3095	  3162	  3975#
UBAVEC	   685#
UBINIT	   112#	  1071	  1463	  3891
USER	   747#
USERF	   685#
USRASB	   737
USRCRF	   866#
USRLFF	   865#
UUODIS	   819#
UUOEXT	   775#
UUORTN	   776#
UUOS	    50#
UUOSKP	   773#
VEC1	  4147#	  4149
VEC10	  4189#	  4191
VEC100	  4525#	  4527
VEC101	  4531#	  4533
VEC102	  4537#	  4539
VEC103	  4543#	  4545
VEC104	  4549#	  4551
VEC105	  4555#	  4557
VEC106	  4561#	  4563
VEC107	  4567#	  4569
VEC11	  4195#	  4197
VEC110	  4573#	  4575
VEC111	  4579#	  4581
VEC112	  4585#	  4587
VEC113	  4591#	  4593
VEC114	  4597#	  4599
VEC115	  4603#	  4605
VEC116	  4609#	  4611
VEC117	  4615#	  4617
VEC12	  4201#	  4203                                                                                                     SEQ 0182
VEC120	  4621#	  4623
VEC121	  4627#	  4629
VEC122	  4633#	  4635
VEC123	  4639#	  4641
VEC124	  4645#	  4647
VEC125	  4651#	  4653
VEC126	  4657#	  4659
VEC127	  4663#	  4665
VEC13	  4207#	  4209
VEC130	  4669#	  4671
VEC131	  4675#	  4677
VEC132	  4681#	  4683
VEC133	  4687#	  4689
VEC134	  4693#	  4695
VEC135	  4699#	  4701
VEC136	  4705#	  4707
VEC137	  4711#	  4713
VEC14	  4213#	  4215
VEC140	  4717#	  4719
VEC141	  4723#	  4725
VEC142	  4729#	  4731
VEC143	  4735#	  4737
VEC144	  4741#	  4743
VEC145	  4747#	  4749
VEC146	  4753#	  4755
VEC147	  4759#	  4761
VEC15	  4219#	  4221
VEC150	  4765#	  4767
VEC151	  4771#	  4773
VEC152	  4777#	  4779
VEC153	  4783#	  4785
VEC154	  4789#	  4791
VEC155	  4795#	  4797
VEC156	  4801#	  4803
VEC157	  4807#	  4809
VEC16	  4225#	  4227
VEC160	  4813#	  4815
VEC161	  4819#	  4821
VEC162	  4825#	  4827
VEC163	  4831#	  4833
VEC164	  4837#	  4839
VEC165	  4843#	  4845
VEC166	  4849#	  4851
VEC167	  4855#	  4857
VEC17	  4231#	  4233
VEC170	  4861#	  4863
VEC171	  4867#	  4869
VEC172	  4873#	  4875
VEC173	  4879#	  4881
VEC174	  4885#	  4887
VEC175	  4891#	  4893
VEC176	  4897#	  4899
VEC177	  4903#	  4905                                                                                                     SEQ 0183
VEC2	  4153#	  4155
VEC20	  4237#	  4239
VEC200	  4909#	  4911
VEC21	  4243#	  4245
VEC22	  4249#	  4251
VEC23	  4255#	  4257
VEC24	  4261#	  4263
VEC25	  4267#	  4269
VEC26	  4273#	  4275
VEC27	  4279#	  4281
VEC3	  4159#	  4161
VEC30	  4285#	  4287
VEC31	  4291#	  4293
VEC32	  4297#	  4299
VEC33	  4303#	  4305
VEC34	  4309#	  4311
VEC35	  4315#	  4317
VEC36	  4321#	  4323
VEC37	  4327#	  4329
VEC4	  4165#	  4167
VEC40	  4333#	  4335
VEC41	  4339#	  4341
VEC42	  4345#	  4347
VEC43	  4351#	  4353
VEC44	  4357#	  4359
VEC45	  4363#	  4365
VEC46	  4369#	  4371
VEC47	  4375#	  4377
VEC5	  4171#	  4173
VEC50	  4381#	  4383
VEC51	  4387#	  4389
VEC52	  4393#	  4395
VEC53	  4399#	  4401
VEC54	  4405#	  4407
VEC55	  4411#	  4413
VEC56	  4417#	  4419
VEC57	  4423#	  4425
VEC6	  4177#	  4179
VEC60	  4429#	  4431
VEC61	  4435#	  4437
VEC62	  4441#	  4443
VEC63	  4447#	  4449
VEC64	  4453#	  4455
VEC65	  4459#	  4461
VEC66	  4465#	  4467
VEC67	  4471#	  4473
VEC7	  4183#	  4185
VEC70	  4477#	  4479
VEC71	  4483#	  4485
VEC72	  4489#	  4491
VEC73	  4495#	  4497
VEC74	  4501#	  4503
VEC75	  4507#	  4509                                                                                                     SEQ 0184
VEC76	  4513#	  4515
VEC77	  4519#	  4521
VECERR	  2087	  2143	  2218	  2273	  2387	  3671	  3674	  4083#
VECMAP	  3194	  4142#
VECTBL	  1030	  2058	  2059	  2060	  2064	  2067	  2192	  2193	  2194	  2198	  2201	  2323	  2324	  2325
	  2329	  2332	  2522	  2611	  2614	  2715	  2718	  2905	  3195	  4137#
VECTOR	  3175#	  3181
WRGVEC	  2057	  2191	  2322	  3668#	  3672
XMTCNT	  2741	  2777	  2782	  3847	  3924#
XMTLIN	  3923#
ZSTAT	  2078	  2106	  2211	  2244	  2343	  2518	  2601	  2703	  2897	  3674#
$$MUUO	   971#
$$OUTE	   977#
$$TAX1	   989#
$$TAX2	   990#
$$TOGG	   983#
$$UUO	   960#
$ACC0	   798#
$BASE	  2987	  2990	  3915#
$BEND1	   768#
$BEND2	    59	   769#
$CHRIN	   859#
$CRLF	   861#
$DEVCH	   685#
$DSKUP	   738#
$DVOFF	   855#
$EMODE	   736#
$FFF	   863#
$IBUF	   911#
$INEXT	   913#
$INNM	   912#
$ITRHL	   779#
$ITRX1	   780#
$LPAPE	  4933
$MMAP	   739#
$MODVL	   734#
$MODVU	   735#
$OBUF	   902#
$ONETM	   762#	  1016
$OUTEX	   904#
$OUTNM	   903#
$PAPER	   685
$PARER	   786#
$PNAME	   732#
$PSHER	   790#
$PVER	   733#
$RSRTX	   782#
$RSRTY	   783#
$SPAG1	   802#
$START	   699#
$SVAPR	   800#
$SVPAG	   801#
$SVPI	   799#                                                                                                            SEQ 0185
$SVUPC	   805#
$SVUUO	   804#
$TABF	   862#
$TMP0	  1587	  1588	  1629	  1630	  2600	  2701	  2842	  3480	  3491	  3494	  3776	  3800	  3817	  4127#
$TMP1	  3376	  3411	  3437	  3505	  3511	  3560	  3561	  4128#
$TMP2	  4129#
$TMP3	  4130#
$TSTNM	  1018	  1095	  1147	  1161	  1193	  1206	  1233	  1244	  1271	  1282	  1309	  1320	  1347	  1358
	  1385	  1398	  1429	  1445	  1477	  1490	  1525	  1536	  1560	  1573	  1603	  1615	  1645	  1663
	  1705	  1722	  1761	  1772	  1809	  1820	  1880	  1889	  1952	  1968	  2037	  2047	  2160	  2169
	  2303	  2312	  2407	  2418	  2506	  2517	  2588	  2598	  2658	  2698	  2798	  2840	  4132#
$TTCHR	   858#
$TWCNT	   854#
$TYPNB	   860#
$UMODE	   737#
$UORTX	   777#
$USRHL	   781#
$UUOER	   778#	   819
$VTF	   864#
%ACTFL	   811#
%ACTUL	   812#
%COREC	   810#
%CORFL	   809#
%DISCR	   813#
%ERHI1	   952#
%ERHI2	   953#
%ERHI3	   954#
.JB41	   685#
.JBAPR	   685#
.JBCNI	   685#
.JBDDT	   685#
.JBFF	   685#
.JBOPC	   685#
.JBREL	   685#
.JBREN	   685#
.JBSA	   685#
.JBSYM	   685#
.JBTPC	   685#
.JBUSY	   685#
.JBUUO	   685#
.JBVER	   685#

APRID	   685#
BCIO	   685#	  1216	  1254	  1292	  1330	  1368	  1408	  1455	  1875	  1947	  2031	  2086	  2134	  2154     SEQ 0186
	  2243	  2292	  2297	  2397	  2401	  2501	  2582	  2868	  3691	  3711
BCIOB	   685#	  1684	  1746
BITEST	   325#	  1197	  1235	  1273	  1311	  1349
BSIO	   685#	  1072	  1073	  1097	  1208	  1223	  1246	  1261	  1284	  1299	  1322	  1337	  1360	  1375
	  1400	  1414	  1416	  1448	  1462	  1502	  1512	  1514	  1788	  1789	  1828	  1898	  1980	  2050
	  2081	  2108	  2172	  2214	  2246	  2315	  2346	  2378	  2426	  2535	  2633	  2758	  2865	  2880
	  2916	  2952	  3109	  3110	  3129	  3615	  3643	  3892	  3893
BSIOB	   685#	  1675	  1734
CFLUSH	   607#
CINVAL	   606#
CLEAR	   280#	  2602	  2704	  2843	  3083	  3087	  3207
CLOKOP	   601#
CLRPT	   685#
CWRTBI	   608#
DROPDV	   568#
ENDUUO	   614#	   767
EOPUUO	   615#	   769	  3501
ERLOOP	   655#	  1104	  1109	  1115	  1120	  1127	  1132	  1138	  1143	  1180	  1189	  1215	  1221	  1230
	  1253	  1259	  1268	  1291	  1297	  1306	  1329	  1335	  1344	  1367	  1373	  1382	  1407	  1413
	  1423	  1454	  1461	  1470	  1500	  1508	  1520	  1548	  1556	  1586	  1599	  1627	  1641	  1682
	  1691	  1744	  1756	  1797	  1804	  1846	  1866	  1874	  1917	  1936	  1944	  1998	  2020	  2028
	  2090	  2094	  2101	  2105	  2128	  2132	  2142	  2146	  2150	  2221	  2225	  2229	  2237	  2241
	  2266	  2272	  2276	  2280	  2284	  2290	  2356	  2376	  2386	  2390	  2395	  2445	  2458	  2464
	  2480	  2486	  2500	  2557	  2570	  2576	  2580	  2781	  2894	  3624
ERLP1	   656#
ERLP2	   657#
ERRHLT	   502#
ERROR	   664#	  1102	  1107	  1113	  1118	  1125	  1130	  1136	  1141	  1178	  1187	  1212	  1220	  1229
	  1250	  1258	  1267	  1288	  1296	  1305	  1326	  1334	  1343	  1364	  1372	  1381	  1404	  1412
	  1422	  1452	  1459	  1468	  1498	  1506	  1518	  1546	  1554	  1584	  1596	  1625	  1638	  1680
	  1689	  1742	  1754	  1795	  1802	  1844	  1864	  1872	  1915	  1934	  1942	  1996	  2018	  2026
	  2088	  2092	  2099	  2103	  2126	  2130	  2140	  2144	  2148	  2219	  2223	  2227	  2235	  2239
	  2264	  2270	  2274	  2278	  2282	  2288	  2354	  2374	  2384	  2388	  2393	  2443	  2456	  2462
	  2478	  2484	  2498	  2555	  2568	  2574	  2578	  2778	  2892	  3622
ERROR1	   675#	  2661	  2667	  2672	  2802	  2808	  2814	  3769	  3793	  3811
ERUUO	   654#	  1103	  1108	  1114	  1119	  1126	  1131	  1137	  1142	  1179	  1188	  1214	  1220	  1229
	  1252	  1258	  1267	  1290	  1296	  1305	  1328	  1334	  1343	  1366	  1372	  1381	  1406	  1412
	  1422	  1453	  1460	  1469	  1499	  1507	  1519	  1547	  1555	  1585	  1598	  1626	  1640	  1681
	  1690	  1743	  1755	  1796	  1803	  1845	  1865	  1873	  1916	  1935	  1943	  1997	  2019	  2027
	  2089	  2093	  2100	  2104	  2127	  2131	  2141	  2145	  2149	  2220	  2224	  2228	  2236	  2240
	  2265	  2271	  2275	  2279	  2283	  2289	  2355	  2375	  2385	  2389	  2394	  2444	  2457	  2463
	  2479	  2485	  2499	  2556	  2569	  2575	  2579	  2662	  2668	  2673	  2780	  2803	  2809	  2815
	  2893	  3623	  3770	  3794	  3812
FATAL	   501#
FRD36	   643#
FRD8	   644#
FREAD	   642#
FSELEC	   641#
GET	   485#	  1148	  1173	  1174	  1175	  2033	  2794	  3183	  3563	  3603	  3604	  3619	  3712	  3713
	  3714	  3715	  3754	  3755	  3756	  3757	  3895	  3896	  3897	  3898	  3899
GO	   482#	  1040	  1042	  1043	  1047	  1050	  1060	  1172	  1521	  1533	  1550	  1575	  1617	  1628
	  1665	  1724	  1737	  1749	  1774	  1782	  1793	  1823	  1824	  1825	  1839	  1861	  1893	  1894
	  1895	  1910	  1931	  1970	  1976	  1977	  1991	  2015	  2051	  2054	  2055	  2078	  2084	  2106     SEQ 0187
	  2120	  2173	  2177	  2178	  2182	  2211	  2217	  2244	  2258	  2316	  2319	  2320	  2343	  2349
	  2368	  2382	  2420	  2421	  2422	  2438	  2451	  2518	  2529	  2530	  2531	  2550	  2563	  2601
	  2625	  2626	  2627	  2638	  2640	  2650	  2703	  2751	  2752	  2753	  2764	  2768	  2773	  2847
	  2863	  2884	  2897	  2921	  2923	  2931	  3081	  3367	  3639	  3871	  3874	  3876	  3885
HALT	    60	    61	    62	    63	    64	    65	   487#	   788
JEN	   489#	  3660	  3666	  3672	  3692	  3716	  3758	  3900	  4149	  4155	  4161	  4167	  4173	  4179
	  4185	  4191	  4197	  4203	  4209	  4215	  4221	  4227	  4233	  4239	  4245	  4251	  4257	  4263
	  4269	  4275	  4281	  4287	  4293	  4299	  4305	  4311	  4317	  4323	  4329	  4335	  4341	  4347
	  4353	  4359	  4365	  4371	  4377	  4383	  4389	  4395	  4401	  4407	  4413	  4419	  4425	  4431
	  4437	  4443	  4449	  4455	  4461	  4467	  4473	  4479	  4485	  4491	  4497	  4503	  4509	  4515
	  4521	  4527	  4533	  4539	  4545	  4551	  4557	  4563	  4569	  4575	  4581	  4587	  4593	  4599
	  4605	  4611	  4617	  4623	  4629	  4635	  4641	  4647	  4653	  4659	  4665	  4671	  4677	  4683
	  4689	  4695	  4701	  4707	  4713	  4719	  4725	  4731	  4737	  4743	  4749	  4755	  4761	  4767
	  4773	  4779	  4785	  4791	  4797	  4803	  4809	  4815	  4821	  4827	  4833	  4839	  4845	  4851
	  4857	  4863	  4869	  4875	  4881	  4887	  4893	  4899	  4905	  4911
JRSTF	   488#
LPTST	   313#	  1144	  1190	  1231	  1269	  1307	  1345	  1383	  1427	  1474	  1522	  1557	  1600	  1642
	  1702	  1758	  1806	  1877	  1949	  2034	  2157	  2300	  2404	  2503	  2585	  2655	  2795
MAPADR	   624#
MAPCNK	   625#
MAPMEM	   621#
MAPPNT	   627#
MAPSET	   626#
MEMSEG	   623#
MEMZRO	   622#
MLTBIT	   363#	  1388
MODPCP	   634#
MODPCU	   633#
MTROP	   602#
NAME	     4#	     6
OR32	   288#	  1051
PBELL	   577#
PCRL	   571#	  2734
PCRL2	   575#
PCRL2F	   576#
PCRLF	   572#	  3070	  3586	  3789	  3808	  3831	  3854
PFORCE	   579#
PGMINT	   495#	  1027
PJRST	   486#
PMSG	   581#
PMSGF	   584#	  3217	  3231	  3236	  3241	  3250	  3256	  3264	  3280	  3285	  3293	  3307	  3321	  3324
	  3350
PNT1	   537#
PNT11	   551#
PNT11F	   552#
PNT1F	   538#	  3056	  3575	  3829
PNT2	   539#
PNT2F	   540#	  3777	  3801	  3818
PNT3	   541#
PNT3F	   542#	  3050	  3062	  3493
PNT4	   543#
PNT4F	   544#
PNT5	   545#                                                                                                            SEQ 0188
PNT5F	   546#	  3843
PNT6	   547#
PNT6F	   548#	  3068	  3585	  3782	  3787	  3806	  3824
PNT7	   549#
PNT7F	   550#	  3488	  3580	  3838
PNTA	   523#
PNTADF	   554#
PNTADR	   553#
PNTAF	   524#
PNTAL	   525#
PNTALF	   526#	  2853	  2856	  2937	  3015	  3039	  3042	  3048	  3054	  3060	  3066	  3224	  3341	  3380
	  3416	  3440	  3484	  3486	  3490	  3500	  3504	  3510	  3573	  3578	  3583	  3775	  3780	  3785
	  3799	  3804	  3816	  3822	  3827	  3836	  3841	  3846	  3851
PNTCHF	   536#
PNTCHR	   535#
PNTCI	   533#	  2738
PNTCIF	   534#	  2948
PNTCW	   569#
PNTCWF	   570#
PNTDCF	   562#
PNTDEC	   561#
PNTDS	   563#
PNTDSF	   564#
PNTHW	   557#
PNTHWF	   558#	  3848	  3853
PNTMSF	   530#
PNTMSG	   529#	  3213
PNTNM	   565#
PNTOCF	   560#	  3017	  3044
PNTOCS	   559#
PNTOCT	   555#
PNTOTF	   556#
PNTSIX	   566#
PNTSXF	   567#
PSIXL	   527#
PSIXLF	   528#
PSIXM	   531#
PSIXMF	   532#	  3218	  3232	  3237	  3242	  3251	  3257	  3265	  3281	  3286	  3294	  3308	  3322	  3325
	  3351
PSP	   573#
PSPF	   574#
PUT	   484#	  1091	  1166	  1167	  1168	  1972	  2702	  3080	  3593	  3594	  3612	  3695	  3696	  3697
	  3698	  3724	  3725	  3726	  3727	  3859	  3860	  3861	  3862	  3863
RDAPR	   685#
RDCSB	   685#
RDCSTM	   685#
RDEBR	   685#
RDHSB	   685#
RDINT	   685#
RDIO	   685#	  1100	  1111	  1123	  1134	  1170	  1176	  1185	  1186	  1209	  1210	  1217	  1218	  1226
	  1227	  1247	  1248	  1255	  1256	  1264	  1265	  1285	  1286	  1293	  1294	  1302	  1303	  1323
	  1324	  1331	  1332	  1340	  1341	  1361	  1362	  1369	  1370	  1378	  1379	  1401	  1402	  1409
	  1410	  1419	  1420	  1449	  1450	  1456	  1457	  1465	  1466	  1494	  1495	  1503	  1504	  1542     SEQ 0189
	  1543	  1551	  1576	  1579	  1580	  1592	  1593	  1618	  1621	  1622	  1634	  1635	  1676	  1677
	  1685	  1686	  1738	  1739	  1750	  1751	  1798	  1799	  1842	  1862	  1868	  1869	  1913	  1932
	  1938	  1939	  1994	  2016	  2022	  2023	  2097	  2124	  2136	  2137	  2232	  2233	  2262	  2268
	  2285	  2352	  2372	  2441	  2474	  2475	  2481	  2496	  2543	  2553	  2890	  3095	  3556	  3647
	  3657	  3658	  3663	  3664	  3669	  3670	  3688	  3689	  3699	  3728	  3734	  3864	  3866	  3886
RDIOB	   685#
RDPI	   685#
RDPUR	   685#
RDSPB	   685#
RDTIM	   685#
RDUBR	   685#
REPTUO	   658#
RTN	   483#	   775	  1171	  2664	  2670	  2674	  2805	  2811	  2816	  3004	  3028	  3036	  3073	  3185
	  3198	  3369	  3430	  3448	  3495	  3587	  3605	  3620	  3625	  3633	  3644	  3650	  3677	  3685
	  3772	  3790	  3796	  3809	  3813	  3832	  3855	  3905
S	   413#	   415	   419	   448	   450	   459	   462	   477	   478	   480	   491	   493	   497	   499
	   504	   508	   650	   652	   685	   690	   696	   723	   725	   743	   745	   763	   765	   794
	   796	   814	   816	   834	   836	   844	   846	   867	   872	   898	   900	   907	   909	   915
	   917	   923	   925	   929	   931	   936	   938	   942	   944	   948	   950	   956	   958	   961
	   963	   967	   969	   973	   975	   979	   981	   985	   987	   992	   994	   998	  1000	  1004
	  1006	  1008	  1010	  1079	  1083	  1149	  1152	  1198	  1201	  1236	  1239	  1274	  1277	  1312
	  1315	  1350	  1353	  1389	  1393	  1430	  1436	  1479	  1482	  1527	  1530	  1562	  1565	  1605
	  1607	  1647	  1653	  1707	  1712	  1763	  1767	  1812	  1816	  1882	  1885	  1954	  1960	  2039
	  2042	  2162	  2165	  2305	  2308	  2409	  2414	  2508	  2512	  2590	  2593	  2679	  2691	  2821
	  2834	  2957	  2960	  2972	  2976	  3005	  3008	  3029	  3032	  3074	  3077	  3188	  3191	  3201
	  3203	  3370	  3373	  3431	  3433	  3549	  3552	  3565	  3569	  3589	  3591	  3608	  3610	  3627
	  3629	  3635	  3637	  3652	  3654
SIXBTZ	   590#	  1085	  1154	  1195	  1386	  1437	  1484	  1531	  1566	  1608	  1654	  1713	  1768	  1817
	  1886	  1961	  2043	  2166	  2309	  2415	  2513	  2594	  2692	  2835
SWITCH	   596#	  1038	  1045	  1048	  1162	  3034	  3365
TIOE	   685#	  1101	  1106	  1112	  1117	  1124	  1129	  1135	  1140	  1219	  1224	  1228	  1257	  1262
	  1266	  1295	  1300	  1304	  1333	  1338	  1342	  1371	  1376	  1380	  1411	  1417	  1421	  1458
	  1467	  1505	  1515	  1859	  1929	  2013	  2122	  2260	  2370	  2455	  2483	  2567	  3113	  3130
	  3617
TIOEB	   685#
TION	   685#	  1182	  1211	  1249	  1287	  1325	  1363	  1403	  1451	  1794	  1843	  1863	  1914	  1933
	  1995	  2017	  2098	  2125	  2234	  2263	  2353	  2373	  2442	  2461	  2554	  2573	  2891	  3117
	  3119	  3554
TIONB	   685#
TTALTM	   517#	  2924
TTICHR	   510#	  3342
TTICLR	   520#
TTICNV	   515#
TTIDEC	   514#
TTINO	   512#
TTIOCT	   513#	  3225	  3243	  3258	  3287	  3309	  3381	  3417	  3441
TTIYES	   511#	  2857	  2938	  3018	  3219	  3238	  3282	  3326
TTLOOK	   516#
TTSIXB	   518#
TTYINP	   519#
VCTMAP	   297#	  4146	  4152	  4158	  4164	  4170	  4176	  4182	  4188	  4194	  4200	  4206	  4212	  4218
	  4224	  4230	  4236	  4242	  4248	  4254	  4260	  4266	  4272	  4278	  4284	  4290	  4296	  4302
	  4308	  4314	  4320	  4326	  4332	  4338	  4344	  4350	  4356	  4362	  4368	  4374	  4380	  4386     SEQ 0190
	  4392	  4398	  4404	  4410	  4416	  4422	  4428	  4434	  4440	  4446	  4452	  4458	  4464	  4470
	  4476	  4482	  4488	  4494	  4500	  4506	  4512	  4518	  4524	  4530	  4536	  4542	  4548	  4554
	  4560	  4566	  4572	  4578	  4584	  4590	  4596	  4602	  4608	  4614	  4620	  4626	  4632	  4638
	  4644	  4650	  4656	  4662	  4668	  4674	  4680	  4686	  4692	  4698	  4704	  4710	  4716	  4722
	  4728	  4734	  4740	  4746	  4752	  4758	  4764	  4770	  4776	  4782	  4788	  4794	  4800	  4806
	  4812	  4818	  4824	  4830	  4836	  4842	  4848	  4854	  4860	  4866	  4872	  4878	  4884	  4890
	  4896	  4902	  4908
WRAPR	   685#	  1028	  1029
WRCSB	   685#
WRCSTM	   685#
WREBR	   685#
WRHSB	   685#
WRINT	   685#
WRIO	   685#	  1105	  1116	  1128	  1139	  1169	  1464	  1493	  1510	  1541	  1578	  1591	  1620	  1633
	  1836	  1848	  1907	  1918	  1988	  2077	  2079	  2110	  2210	  2212	  2248	  2342	  2344	  2358
	  2435	  2447	  2527	  2547	  2559	  2619	  2723	  2879	  2910	  3122	  3123	  3149	  3557	  3598
	  3889
WRIOB	   685#	  2000	  2001	  2030	  2631	  2756	  2895	  3706	  3882
WRPI	   685#	  2068	  2156	  2202	  2299	  2333	  2403	  2533	  2584	  2628	  2644	  2660	  2663	  2666
	  2669	  2754	  2771	  2801	  2804	  2807	  2810	  2913	  2930	  3184	  3768	  3771	  3792	  3795
WRPUR	   685#
WRSPB	   685#
WRTIM	   685#
WRUBR	   685#
XFER	   309#	  1064	  1068	  2622	  2709	  2899