	  2406	  2408	  2409	  2413	  2427	  2429	  2432	  2434	  2435	  2437	  2438	  2442	  2456	  2458
	  2461	  2463	  2464	  2466	  2467	  2471	  2485	  2487	  2490	  2492	  2493	  2495	  2496	  2500     SEQ 0352
	  2514	  2516	  2519	  2521	  2522	  2524	  2525	  2529	  2543	  2545	  2548	  2550	  2551	  2553
	  2554	  2558	  2572	  2574	  2577	  2579	  2580	  2582	  2583	  2587	  2601	  2603	  2606	  2608
	  2609	  2611	  2612	  2616	  2630	  2632	  2635	  2637	  2638	  2640	  2641	  2645	  2659	  2661
	  2664	  2666	  2667	  2669	  2670	  2674	  2688	  2690	  2693	  2695	  2696	  2698	  2699	  2703
	  2717	  2719	  2722	  2724	  2725	  2727	  2728	  2732	  2746	  2748	  2751	  2753	  2754	  2756
	  2757	  2761	  2775	  2777	  2780	  2782	  2783	  2785	  2786	  2790	  2804	  2806	  2809	  2811
	  2812	  2814	  2815	  2819	  2833	  2835	  2838	  2840	  2841	  2843	  2844	  2848	  2862	  2864
	  2867	  2869	  2870	  2872	  2873	  2877	  2891	  2893	  2896	  2898	  2899	  2901	  2902	  2906
	  2908#	  2909	  2911	  2912	  2913	  2914	  2924	  2926	  2929	  2931	  2932	  2934	  2935	  2939
	  2942#	  2943	  2945	  2946	  2947	  2948	  2992	  2994	  2997	  2999	  3000	  3002	  3003	  3007
	  3031	  3033	  3036	  3038	  3039	  3041	  3042	  3046	  3070	  3072	  3075	  3077	  3078	  3080
	  3081	  3085	  3109	  3111	  3114	  3116	  3117	  3119	  3120	  3124	  3148	  3150	  3153	  3155
	  3156	  3158	  3159	  3163	  3187	  3189	  3192	  3194	  3195	  3197	  3198	  3202	  3226	  3228
	  3231	  3233	  3234	  3236	  3237	  3241	  3265	  3267	  3270	  3272	  3273	  3275	  3276	  3280
	  3304	  3306	  3309	  3311	  3312	  3314	  3315	  3319	  3343	  3345	  3348	  3350	  3351	  3353
	  3354	  3358	  3382	  3384	  3387	  3389	  3390	  3392	  3393	  3397	  3421	  3423	  3426	  3428
	  3429	  3431	  3432	  3436	  3460	  3462	  3465	  3467	  3468	  3470	  3471	  3475	  3499	  3501
	  3504	  3506	  3507	  3509	  3510	  3514	  3538	  3540	  3543	  3545	  3546	  3548	  3549	  3553
	  3577	  3579	  3582	  3584	  3585	  3587	  3588	  3592	  3593#	  3594	  3596	  3597	  3598	  3599
	  3655	  3657	  3660	  3662	  3663	  3665	  3666	  3670	  3700	  3702	  3705	  3707	  3708	  3710
	  3711	  3715	  3745	  3747	  3750	  3752	  3753	  3755	  3756	  3760	  3790	  3792	  3795	  3797
	  3798	  3800	  3801	  3805	  3835	  3837	  3840	  3842	  3843	  3845	  3846	  3850	  3880	  3882
	  3885	  3887	  3888	  3890	  3891	  3895	  3925	  3927	  3930	  3932	  3933	  3935	  3936	  3940
	  3970	  3972	  3975	  3977	  3978	  3980	  3981	  3985	  4015	  4017	  4020	  4022	  4023	  4025
	  4026	  4030	  4060	  4062	  4065	  4067	  4068	  4070	  4071	  4075	  4105	  4107	  4110	  4112
	  4113	  4115	  4116	  4120	  4150	  4152	  4155	  4157	  4158	  4160	  4161	  4165	  4195	  4197
	  4200	  4202	  4203	  4205	  4206	  4210	  4240	  4242	  4245	  4247	  4248	  4250	  4251	  4255
	  4285	  4287	  4290	  4292	  4293	  4295	  4296	  4300	  4330	  4332	  4335	  4337	  4338	  4340
	  4341	  4345	  4348#	  4349	  4351	  4352	  4353	  4354	  4377	  4379	  4382	  4384	  4385	  4387
	  4388	  4392	  4406	  4408	  4411	  4413	  4414	  4416	  4417	  4421	  4435	  4437	  4440	  4442
	  4443	  4445	  4446	  4450	  4464	  4466	  4469	  4471	  4472	  4474	  4475	  4479	  4493	  4495
	  4498	  4500	  4501	  4503	  4504	  4508	  4522	  4524	  4527	  4529	  4530	  4532	  4533	  4537
	  4551	  4553	  4556	  4558	  4559	  4561	  4562	  4566	  4580	  4582	  4585	  4587	  4588	  4590
	  4591	  4595	  4609	  4611	  4614	  4616	  4617	  4619	  4620	  4624	  4638	  4640	  4643	  4645
	  4646	  4648	  4649	  4653	  4667	  4669	  4672	  4674	  4675	  4677	  4678	  4682	  4696	  4698
	  4701	  4703	  4704	  4706	  4707	  4711	  4725	  4727	  4730	  4732	  4733	  4735	  4736	  4740
	  4754	  4756	  4759	  4761	  4762	  4764	  4765	  4769	  4783	  4785	  4788	  4790	  4791	  4793
	  4794	  4798	  4812	  4814	  4817	  4819	  4820	  4822	  4823	  4827	  4841	  4843	  4846	  4848
	  4849	  4851	  4852	  4856	  4870	  4872	  4875	  4877	  4878	  4880	  4881	  4885	  4899	  4901
	  4904	  4906	  4907	  4909	  4910	  4914	  4928	  4930	  4933	  4935	  4936	  4938	  4939	  4943
	  4957	  4959	  4962	  4964	  4965	  4967	  4968	  4972	  4986	  4988	  4991	  4993	  4994	  4996
	  4997	  5001	  5015	  5017	  5020	  5022	  5023	  5025	  5026	  5030	  5044	  5046	  5049	  5051
	  5052	  5054	  5055	  5059	  5073	  5075	  5078	  5080	  5081	  5083	  5084	  5088	  5102	  5104
	  5107	  5109	  5110	  5112	  5113	  5117	  5131	  5133	  5136	  5138	  5139	  5141	  5142	  5146
	  5160	  5162	  5165	  5167	  5168	  5170	  5171	  5175	  5189	  5191	  5194	  5196	  5197	  5199
	  5200	  5204	  5218	  5220	  5223	  5225	  5226	  5228	  5229	  5233	  5247	  5249	  5252	  5254
	  5255	  5257	  5258	  5262	  5276	  5278	  5281	  5283	  5284	  5286	  5287	  5291	  5305	  5307
	  5310	  5312	  5313	  5315	  5316	  5320	  5334	  5336	  5339	  5341	  5342	  5344	  5345	  5349
	  5363	  5365	  5368	  5370	  5371	  5373	  5374	  5378	  5392	  5394	  5397	  5399	  5400	  5402
	  5403	  5407	  5408#	  5409	  5411	  5412	  5413	  5414	  5437	  5439	  5442	  5444	  5445	  5447
	  5448	  5452	  5466	  5468	  5471	  5473	  5474	  5476	  5477	  5481	  5495	  5497	  5500	  5502
	  5503	  5505	  5506	  5510	  5524	  5526	  5529	  5531	  5532	  5534	  5535	  5539	  5553	  5555
	  5558	  5560	  5561	  5563	  5564	  5568	  5582	  5584	  5587	  5589	  5590	  5592	  5593	  5597     SEQ 0353
	  5611	  5613	  5616	  5618	  5619	  5621	  5622	  5626	  5640	  5642	  5645	  5647	  5648	  5650
	  5651	  5655	  5669	  5671	  5674	  5676	  5677	  5679	  5680	  5684	  5698	  5700	  5703	  5705
	  5706	  5708	  5709	  5713	  5727	  5729	  5732	  5734	  5735	  5737	  5738	  5742	  5756	  5758
	  5761	  5763	  5764	  5766	  5767	  5771	  5785	  5787	  5790	  5792	  5793	  5795	  5796	  5800
	  5814	  5816	  5819	  5821	  5822	  5824	  5825	  5829	  5843	  5845	  5848	  5850	  5851	  5853
	  5854	  5858	  5872	  5874	  5877	  5879	  5880	  5882	  5883	  5887	  5901	  5903	  5906	  5908
	  5909	  5911	  5912	  5916	  5930	  5932	  5935	  5937	  5938	  5940	  5941	  5945	  5959	  5961
	  5964	  5966	  5967	  5969	  5970	  5974	  5988	  5990	  5993	  5995	  5996	  5998	  5999	  6003
	  6017	  6019	  6022	  6024	  6025	  6027	  6028	  6032	  6046	  6048	  6051	  6053	  6054	  6056
	  6057	  6061	  6075	  6077	  6080	  6082	  6083	  6085	  6086	  6090	  6104	  6106	  6109	  6111
	  6112	  6114	  6115	  6119	  6133	  6135	  6138	  6140	  6141	  6143	  6144	  6148	  6162	  6164
	  6167	  6169	  6170	  6172	  6173	  6177	  6191	  6193	  6196	  6198	  6199	  6201	  6202	  6206
	  6220	  6222	  6225	  6227	  6228	  6230	  6231	  6235	  6249	  6251	  6254	  6256	  6257	  6259
	  6260	  6264	  6278	  6280	  6283	  6285	  6286	  6288	  6289	  6293	  6307	  6309	  6312	  6314
	  6315	  6317	  6318	  6322	  6336	  6338	  6341	  6343	  6344	  6346	  6347	  6351	  6365	  6367
	  6370	  6372	  6373	  6375	  6376	  6380	  6394	  6396	  6399	  6401	  6402	  6404	  6405	  6409
	  6423	  6425	  6428	  6430	  6431	  6433	  6434	  6438	  6452	  6454	  6457	  6459	  6460	  6462
	  6463	  6467	  6468#	  6469	  6471	  6472	  6473	  6474	  6485	  6487	  6490	  6492	  6493	  6495
	  6496	  6500	  6503#	  6504	  6506	  6507	  6508	  6509	  6537	  6539	  6542	  6544	  6545	  6547
	  6548	  6552	  6568	  6570	  6573	  6575	  6576	  6578	  6579	  6583	  6599	  6601	  6604	  6606
	  6607	  6609	  6610	  6614	  6630	  6632	  6635	  6637	  6638	  6640	  6641	  6645	  6661	  6663
	  6666	  6668	  6669	  6671	  6672	  6676	  6692	  6694	  6697	  6699	  6700	  6702	  6703	  6707
	  6723	  6725	  6728	  6730	  6731	  6733	  6734	  6738	  6754	  6756	  6759	  6761	  6762	  6764
	  6765	  6769	  6785	  6787	  6790	  6792	  6793	  6795	  6796	  6800	  6816	  6818	  6821	  6823
	  6824	  6826	  6827	  6831	  6847	  6849	  6852	  6854	  6855	  6857	  6858	  6862	  6878	  6880
	  6883	  6885	  6886	  6888	  6889	  6893	  6909	  6911	  6914	  6916	  6917	  6919	  6920	  6924
	  6940	  6942	  6945	  6947	  6948	  6950	  6951	  6955	  6971	  6973	  6976	  6978	  6979	  6981
	  6982	  6986	  7002	  7004	  7007	  7009	  7010	  7012	  7013	  7017	  7033	  7035	  7038	  7040
	  7041	  7043	  7044	  7048	  7064	  7066	  7069	  7071	  7072	  7074	  7075	  7079	  7095	  7097
	  7100	  7102	  7103	  7105	  7106	  7110	  7126	  7128	  7131	  7133	  7134	  7136	  7137	  7141
	  7157	  7159	  7162	  7164	  7165	  7167	  7168	  7172	  7188	  7190	  7193	  7195	  7196	  7198
	  7199	  7203	  7219	  7221	  7224	  7226	  7227	  7229	  7230	  7234	  7250	  7252	  7255	  7257
	  7258	  7260	  7261	  7265	  7281	  7283	  7286	  7288	  7289	  7291	  7292	  7296	  7312	  7314
	  7317	  7319	  7320	  7322	  7323	  7327	  7343	  7345	  7348	  7350	  7351	  7353	  7354	  7358
	  7374	  7376	  7379	  7381	  7382	  7384	  7385	  7389	  7405	  7407	  7410	  7412	  7413	  7415
	  7416	  7420	  7436	  7438	  7441	  7443	  7444	  7446	  7447	  7451	  7467	  7469	  7472	  7474
	  7475	  7477	  7478	  7482	  7498	  7500	  7503	  7505	  7506	  7508	  7509	  7513	  7529	  7531
	  7534	  7536	  7537	  7539	  7540	  7544	  7560	  7562	  7565	  7567	  7568	  7570	  7571	  7575
	  7591	  7593	  7596	  7598	  7599	  7601	  7602	  7606	  7622	  7624	  7627	  7629	  7630	  7632
	  7633	  7637	  7638#	  7639	  7641	  7642	  7643	  7644	  7671	  7673	  7676	  7678	  7679	  7681
	  7682	  7686	  7702	  7704	  7707	  7709	  7710	  7712	  7713	  7717	  7733	  7735	  7738	  7740
	  7741	  7743	  7744	  7748	  7764	  7766	  7769	  7771	  7772	  7774	  7775	  7779	  7795	  7797
	  7800	  7802	  7803	  7805	  7806	  7810	  7826	  7828	  7831	  7833	  7834	  7836	  7837	  7841
	  7857	  7859	  7862	  7864	  7865	  7867	  7868	  7872	  7888	  7890	  7893	  7895	  7896	  7898
	  7899	  7903	  7919	  7921	  7924	  7926	  7927	  7929	  7930	  7934	  7950	  7952	  7955	  7957
	  7958	  7960	  7961	  7965	  7981	  7983	  7986	  7988	  7989	  7991	  7992	  7996	  8012	  8014
	  8017	  8019	  8020	  8022	  8023	  8027	  8043	  8045	  8048	  8050	  8051	  8053	  8054	  8058
	  8074	  8076	  8079	  8081	  8082	  8084	  8085	  8089	  8105	  8107	  8110	  8112	  8113	  8115
	  8116	  8120	  8136	  8138	  8141	  8143	  8144	  8146	  8147	  8151	  8167	  8169	  8172	  8174
	  8175	  8177	  8178	  8182	  8198	  8200	  8203	  8205	  8206	  8208	  8209	  8213	  8229	  8231
	  8234	  8236	  8237	  8239	  8240	  8244	  8260	  8262	  8265	  8267	  8268	  8270	  8271	  8275
	  8291	  8293	  8296	  8298	  8299	  8301	  8302	  8306	  8322	  8324	  8327	  8329	  8330	  8332
	  8333	  8337	  8353	  8355	  8358	  8360	  8361	  8363	  8364	  8368	  8384	  8386	  8389	  8391     SEQ 0354
	  8392	  8394	  8395	  8399	  8415	  8417	  8420	  8422	  8423	  8425	  8426	  8430	  8446	  8448
	  8451	  8453	  8454	  8456	  8457	  8461	  8477	  8479	  8482	  8484	  8485	  8487	  8488	  8492
	  8508	  8510	  8513	  8515	  8516	  8518	  8519	  8523	  8539	  8541	  8544	  8546	  8547	  8549
	  8550	  8554	  8570	  8572	  8575	  8577	  8578	  8580	  8581	  8585	  8601	  8603	  8606	  8608
	  8609	  8611	  8612	  8616	  8632	  8634	  8637	  8639	  8640	  8642	  8643	  8647	  8663	  8665
	  8668	  8670	  8671	  8673	  8674	  8678	  8694	  8696	  8699	  8701	  8702	  8704	  8705	  8709
	  8725	  8727	  8730	  8732	  8733	  8735	  8736	  8740	  8756	  8758	  8761	  8763	  8764	  8766
	  8767	  8771	  8772#	  8773	  8775	  8776	  8777	  8778	  8813	  8815	  8818	  8820	  8821	  8823
	  8824	  8828	  8848	  8850	  8853	  8855	  8856	  8858	  8859	  8863	  8883	  8885	  8888	  8890
	  8891	  8893	  8894	  8898	  8918	  8920	  8923	  8925	  8926	  8928	  8929	  8933	  8953	  8955
	  8958	  8960	  8961	  8963	  8964	  8968	  8988	  8990	  8993	  8995	  8996	  8998	  8999	  9003
	  9023	  9025	  9028	  9030	  9031	  9033	  9034	  9038	  9058	  9060	  9063	  9065	  9066	  9068
	  9069	  9073	  9093	  9095	  9098	  9100	  9101	  9103	  9104	  9108	  9128	  9130	  9133	  9135
	  9136	  9138	  9139	  9143	  9163	  9165	  9168	  9170	  9171	  9173	  9174	  9178	  9198	  9200
	  9203	  9205	  9206	  9208	  9209	  9213	  9233	  9235	  9238	  9240	  9241	  9243	  9244	  9248
	  9268	  9270	  9273	  9275	  9276	  9278	  9279	  9283	  9303	  9305	  9308	  9310	  9311	  9313
	  9314	  9318	  9338	  9340	  9343	  9345	  9346	  9348	  9349	  9353	  9373	  9375	  9378	  9380
	  9381	  9383	  9384	  9388	  9408	  9410	  9413	  9415	  9416	  9418	  9419	  9423	  9443	  9445
	  9448	  9450	  9451	  9453	  9454	  9458	  9478	  9480	  9483	  9485	  9486	  9488	  9489	  9493
	  9513	  9515	  9518	  9520	  9521	  9523	  9524	  9528	  9548	  9550	  9553	  9555	  9556	  9558
	  9559	  9563	  9583	  9585	  9588	  9590	  9591	  9593	  9594	  9598	  9618	  9620	  9623	  9625
	  9626	  9628	  9629	  9633	  9653	  9655	  9658	  9660	  9661	  9663	  9664	  9668	  9688	  9690
	  9693	  9695	  9696	  9698	  9699	  9703	  9723	  9725	  9728	  9730	  9731	  9733	  9734	  9738
	  9758	  9760	  9763	  9765	  9766	  9768	  9769	  9773	  9793	  9795	  9798	  9800	  9801	  9803
	  9804	  9808	  9828	  9830	  9833	  9835	  9836	  9838	  9839	  9843	  9863	  9865	  9868	  9870
	  9871	  9873	  9874	  9878	  9898	  9900	  9903	  9905	  9906	  9908	  9909	  9913	  9933	  9935
	  9938	  9940	  9941	  9943	  9944	  9948	  9968	  9970	  9973	  9975	  9976	  9978	  9979	  9983
	 10003	 10005	 10008	 10010	 10011	 10013	 10014	 10018	 10038	 10040	 10043	 10045	 10046	 10048
	 10049	 10053	 10054#	 10055	 10057	 10058	 10059	 10060	 10095	 10097	 10100	 10102	 10103	 10105
	 10106	 10110	 10130	 10132	 10135	 10137	 10138	 10140	 10141	 10145	 10165	 10167	 10170	 10172
	 10173	 10175	 10176	 10180	 10200	 10202	 10205	 10207	 10208	 10210	 10211	 10215	 10235	 10237
	 10240	 10242	 10243	 10245	 10246	 10250	 10270	 10272	 10275	 10277	 10278	 10280	 10281	 10285
	 10305	 10307	 10310	 10312	 10313	 10315	 10316	 10320	 10340	 10342	 10345	 10347	 10348	 10350
	 10351	 10355	 10375	 10377	 10380	 10382	 10383	 10385	 10386	 10390	 10410	 10412	 10415	 10417
	 10418	 10420	 10421	 10425	 10445	 10447	 10450	 10452	 10453	 10455	 10456	 10460	 10480	 10482
	 10485	 10487	 10488	 10490	 10491	 10495	 10515	 10517	 10520	 10522	 10523	 10525	 10526	 10530
	 10550	 10552	 10555	 10557	 10558	 10560	 10561	 10565	 10585	 10587	 10590	 10592	 10593	 10595
	 10596	 10600	 10620	 10622	 10625	 10627	 10628	 10630	 10631	 10635	 10655	 10657	 10660	 10662
	 10663	 10665	 10666	 10670	 10690	 10692	 10695	 10697	 10698	 10700	 10701	 10705	 10725	 10727
	 10730	 10732	 10733	 10735	 10736	 10740	 10760	 10762	 10765	 10767	 10768	 10770	 10771	 10775
	 10795	 10797	 10800	 10802	 10803	 10805	 10806	 10810	 10830	 10832	 10835	 10837	 10838	 10840
	 10841	 10845	 10865	 10867	 10870	 10872	 10873	 10875	 10876	 10880	 10900	 10902	 10905	 10907
	 10908	 10910	 10911	 10915	 10935	 10937	 10940	 10942	 10943	 10945	 10946	 10950	 10970	 10972
	 10975	 10977	 10978	 10980	 10981	 10985	 11005	 11007	 11010	 11012	 11013	 11015	 11016	 11020
	 11040	 11042	 11045	 11047	 11048	 11050	 11051	 11055	 11075	 11077	 11080	 11082	 11083	 11085
	 11086	 11090	 11110	 11112	 11115	 11117	 11118	 11120	 11121	 11125	 11145	 11147	 11150	 11152
	 11153	 11155	 11156	 11160	 11180	 11182	 11185	 11187	 11188	 11190	 11191	 11195	 11215	 11217
	 11220	 11222	 11223	 11225	 11226	 11230	 11250	 11252	 11255	 11257	 11258	 11260	 11261	 11265
	 11285	 11287	 11290	 11292	 11293	 11295	 11296	 11300	 11320	 11322	 11325	 11327	 11328	 11330
	 11331	 11335	 11336#	 11337	 11339	 11340	 11341	 11342	 11369	 11371	 11374	 11376	 11377	 11379
	 11380	 11384	 11400	 11402	 11405	 11407	 11408	 11410	 11411	 11415	 11431	 11433	 11436	 11438
	 11439	 11441	 11442	 11446	 11462	 11464	 11467	 11469	 11470	 11472	 11473	 11477	 11493	 11495
	 11498	 11500	 11501	 11503	 11504	 11508	 11524	 11526	 11529	 11531	 11532	 11534	 11535	 11539     SEQ 0355
	 11555	 11557	 11560	 11562	 11563	 11565	 11566	 11570	 11586	 11588	 11591	 11593	 11594	 11596
	 11597	 11601	 11617	 11619	 11622	 11624	 11625	 11627	 11628	 11632	 11648	 11650	 11653	 11655
	 11656	 11658	 11659	 11663	 11679	 11681	 11684	 11686	 11687	 11689	 11690	 11694	 11710	 11712
	 11715	 11717	 11718	 11720	 11721	 11725	 11741	 11743	 11746	 11748	 11749	 11751	 11752	 11756
	 11772	 11774	 11777	 11779	 11780	 11782	 11783	 11787	 11803	 11805	 11808	 11810	 11811	 11813
	 11814	 11818	 11834	 11836	 11839	 11841	 11842	 11844	 11845	 11849	 11865	 11867	 11870	 11872
	 11873	 11875	 11876	 11880	 11896	 11898	 11901	 11903	 11904	 11906	 11907	 11911	 11927	 11929
	 11932	 11934	 11935	 11937	 11938	 11942	 11958	 11960	 11963	 11965	 11966	 11968	 11969	 11973
	 11989	 11991	 11994	 11996	 11997	 11999	 12000	 12004	 12020	 12022	 12025	 12027	 12028	 12030
	 12031	 12035	 12051	 12053	 12056	 12058	 12059	 12061	 12062	 12066	 12082	 12084	 12087	 12089
	 12090	 12092	 12093	 12097	 12113	 12115	 12118	 12120	 12121	 12123	 12124	 12128	 12144	 12146
	 12149	 12151	 12152	 12154	 12155	 12159	 12175	 12177	 12180	 12182	 12183	 12185	 12186	 12190
	 12206	 12208	 12211	 12213	 12214	 12216	 12217	 12221	 12237	 12239	 12242	 12244	 12245	 12247
	 12248	 12252	 12268	 12270	 12273	 12275	 12276	 12278	 12279	 12283	 12299	 12301	 12304	 12306
	 12307	 12309	 12310	 12314	 12330	 12332	 12335	 12337	 12338	 12340	 12341	 12345	 12361	 12363
	 12366	 12368	 12369	 12371	 12372	 12376	 12392	 12394	 12397	 12399	 12400	 12402	 12403	 12407
	 12423	 12425	 12428	 12430	 12431	 12433	 12434	 12438	 12454	 12456	 12459	 12461	 12462	 12464
	 12465	 12469	 12470#	 12471	 12473	 12474	 12475	 12476	 12503	 12505	 12508	 12510	 12511	 12513
	 12514	 12518	 12534	 12536	 12539	 12541	 12542	 12544	 12545	 12549	 12565	 12567	 12570	 12572
	 12573	 12575	 12576	 12580	 12596	 12598	 12601	 12603	 12604	 12606	 12607	 12611	 12627	 12629
	 12632	 12634	 12635	 12637	 12638	 12642	 12658	 12660	 12663	 12665	 12666	 12668	 12669	 12673
	 12689	 12691	 12694	 12696	 12697	 12699	 12700	 12704	 12720	 12722	 12725	 12727	 12728	 12730
	 12731	 12735	 12751	 12753	 12756	 12758	 12759	 12761	 12762	 12766	 12782	 12784	 12787	 12789
	 12790	 12792	 12793	 12797	 12813	 12815	 12818	 12820	 12821	 12823	 12824	 12828	 12844	 12846
	 12849	 12851	 12852	 12854	 12855	 12859	 12875	 12877	 12880	 12882	 12883	 12885	 12886	 12890
	 12906	 12908	 12911	 12913	 12914	 12916	 12917	 12921	 12937	 12939	 12942	 12944	 12945	 12947
	 12948	 12952	 12968	 12970	 12973	 12975	 12976	 12978	 12979	 12983	 12999	 13001	 13004	 13006
	 13007	 13009	 13010	 13014	 13030	 13032	 13035	 13037	 13038	 13040	 13041	 13045	 13061	 13063
	 13066	 13068	 13069	 13071	 13072	 13076	 13092	 13094	 13097	 13099	 13100	 13102	 13103	 13107
	 13123	 13125	 13128	 13130	 13131	 13133	 13134	 13138	 13154	 13156	 13159	 13161	 13162	 13164
	 13165	 13169	 13185	 13187	 13190	 13192	 13193	 13195	 13196	 13200	 13216	 13218	 13221	 13223
	 13224	 13226	 13227	 13231	 13247	 13249	 13252	 13254	 13255	 13257	 13258	 13262	 13278	 13280
	 13283	 13285	 13286	 13288	 13289	 13293	 13309	 13311	 13314	 13316	 13317	 13319	 13320	 13324
	 13340	 13342	 13345	 13347	 13348	 13350	 13351	 13355	 13371	 13373	 13376	 13378	 13379	 13381
	 13382	 13386	 13402	 13404	 13407	 13409	 13410	 13412	 13413	 13417	 13433	 13435	 13438	 13440
	 13441	 13443	 13444	 13448	 13464	 13466	 13469	 13471	 13472	 13474	 13475	 13479	 13495	 13497
	 13500	 13502	 13503	 13505	 13506	 13510	 13526	 13528	 13531	 13533	 13534	 13536	 13537	 13541
	 13557	 13559	 13562	 13564	 13565	 13567	 13568	 13572	 13588	 13590	 13593	 13595	 13596	 13598
	 13599	 13603	 13604#	 13605	 13607	 13608	 13609	 13610	 13639	 13641	 13644	 13646	 13647	 13649
	 13650	 13654	 13671	 13673	 13676	 13678	 13679	 13681	 13682	 13686	 13703	 13705	 13708	 13710
	 13711	 13713	 13714	 13718	 13735	 13737	 13740	 13742	 13743	 13745	 13746	 13750	 13767	 13769
	 13772	 13774	 13775	 13777	 13778	 13782	 13799	 13801	 13804	 13806	 13807	 13809	 13810	 13814
	 13831	 13833	 13836	 13838	 13839	 13841	 13842	 13846	 13863	 13865	 13868	 13870	 13871	 13873
	 13874	 13878	 13895	 13897	 13900	 13902	 13903	 13905	 13906	 13910	 13927	 13929	 13932	 13934
	 13935	 13937	 13938	 13942	 13959	 13961	 13964	 13966	 13967	 13969	 13970	 13974	 13991	 13993
	 13996	 13998	 13999	 14001	 14002	 14006	 14023	 14025	 14028	 14030	 14031	 14033	 14034	 14038
	 14055	 14057	 14060	 14062	 14063	 14065	 14066	 14070	 14087	 14089	 14092	 14094	 14095	 14097
	 14098	 14102	 14119	 14121	 14124	 14126	 14127	 14129	 14130	 14134	 14151	 14153	 14156	 14158
	 14159	 14161	 14162	 14166	 14183	 14185	 14188	 14190	 14191	 14193	 14194	 14198	 14215	 14217
	 14220	 14222	 14223	 14225	 14226	 14230	 14247	 14249	 14252	 14254	 14255	 14257	 14258	 14262
	 14279	 14281	 14284	 14286	 14287	 14289	 14290	 14294	 14311	 14313	 14316	 14318	 14319	 14321
	 14322	 14326	 14343	 14345	 14348	 14350	 14351	 14353	 14354	 14358	 14375	 14377	 14380	 14382
	 14383	 14385	 14386	 14390	 14407	 14409	 14412	 14414	 14415	 14417	 14418	 14422	 14439	 14441     SEQ 0356
	 14444	 14446	 14447	 14449	 14450	 14454	 14471	 14473	 14476	 14478	 14479	 14481	 14482	 14486
	 14503	 14505	 14508	 14510	 14511	 14513	 14514	 14518	 14535	 14537	 14540	 14542	 14543	 14545
	 14546	 14550	 14567	 14569	 14572	 14574	 14575	 14577	 14578	 14582	 14599	 14601	 14604	 14606
	 14607	 14609	 14610	 14614	 14631	 14633	 14636	 14638	 14639	 14641	 14642	 14646	 14663	 14665
	 14668	 14670	 14671	 14673	 14674	 14678	 14695	 14697	 14700	 14702	 14703	 14705	 14706	 14710
	 14727	 14729	 14732	 14734	 14735	 14737	 14738	 14742	 14759	 14761	 14764	 14766	 14767	 14769
	 14770	 14774	 14775#	 14776	 14778	 14779	 14780	 14781	 14810	 14812	 14815	 14817	 14818	 14820
	 14821	 14825	 14842	 14844	 14847	 14849	 14850	 14852	 14853	 14857	 14874	 14876	 14879	 14881
	 14882	 14884	 14885	 14889	 14906	 14908	 14911	 14913	 14914	 14916	 14917	 14921	 14938	 14940
	 14943	 14945	 14946	 14948	 14949	 14953	 14970	 14972	 14975	 14977	 14978	 14980	 14981	 14985
	 15002	 15004	 15007	 15009	 15010	 15012	 15013	 15017	 15034	 15036	 15039	 15041	 15042	 15044
	 15045	 15049	 15066	 15068	 15071	 15073	 15074	 15076	 15077	 15081	 15098	 15100	 15103	 15105
	 15106	 15108	 15109	 15113	 15130	 15132	 15135	 15137	 15138	 15140	 15141	 15145	 15162	 15164
	 15167	 15169	 15170	 15172	 15173	 15177	 15194	 15196	 15199	 15201	 15202	 15204	 15205	 15209
	 15226	 15228	 15231	 15233	 15234	 15236	 15237	 15241	 15258	 15260	 15263	 15265	 15266	 15268
	 15269	 15273	 15290	 15292	 15295	 15297	 15298	 15300	 15301	 15305	 15322	 15324	 15327	 15329
	 15330	 15332	 15333	 15337	 15354	 15356	 15359	 15361	 15362	 15364	 15365	 15369	 15386	 15388
	 15391	 15393	 15394	 15396	 15397	 15401	 15418	 15420	 15423	 15425	 15426	 15428	 15429	 15433
	 15450	 15452	 15455	 15457	 15458	 15460	 15461	 15465	 15482	 15484	 15487	 15489	 15490	 15492
	 15493	 15497	 15514	 15516	 15519	 15521	 15522	 15524	 15525	 15529	 15546	 15548	 15551	 15553
	 15554	 15556	 15557	 15561	 15578	 15580	 15583	 15585	 15586	 15588	 15589	 15593	 15610	 15612
	 15615	 15617	 15618	 15620	 15621	 15625	 15642	 15644	 15647	 15649	 15650	 15652	 15653	 15657
	 15674	 15676	 15679	 15681	 15682	 15684	 15685	 15689	 15706	 15708	 15711	 15713	 15714	 15716
	 15717	 15721	 15738	 15740	 15743	 15745	 15746	 15748	 15749	 15753	 15770	 15772	 15775	 15777
	 15778	 15780	 15781	 15785	 15802	 15804	 15807	 15809	 15810	 15812	 15813	 15817	 15834	 15836
	 15839	 15841	 15842	 15844	 15845	 15849	 15866	 15868	 15871	 15873	 15874	 15876	 15877	 15881
	 15898	 15900	 15903	 15905	 15906	 15908	 15909	 15913	 15930	 15932	 15935	 15937	 15938	 15940
	 15941	 15945	 15948#	 15949	 15951	 15952	 15953	 15954	 15995	 15997	 16000	 16002	 16003	 16005
	 16006	 16010	 16032	 16034	 16037	 16039	 16040	 16042	 16043	 16047	 16069	 16071	 16074	 16076
	 16077	 16079	 16080	 16084	 16106	 16108	 16111	 16113	 16114	 16116	 16117	 16121	 16143	 16145
	 16148	 16150	 16151	 16153	 16154	 16158	 16180	 16182	 16185	 16187	 16188	 16190	 16191	 16195
	 16217	 16219	 16222	 16224	 16225	 16227	 16228	 16232	 16254	 16256	 16259	 16261	 16262	 16264
	 16265	 16269	 16291	 16293	 16296	 16298	 16299	 16301	 16302	 16306	 16328	 16330	 16333	 16335
	 16336	 16338	 16339	 16343	 16365	 16367	 16370	 16372	 16373	 16375	 16376	 16380	 16402	 16404
	 16407	 16409	 16410	 16412	 16413	 16417	 16439	 16441	 16444	 16446	 16447	 16449	 16450	 16454
	 16476	 16478	 16481	 16483	 16484	 16486	 16487	 16491	 16513	 16515	 16518	 16520	 16521	 16523
	 16524	 16528	 16550	 16552	 16555	 16557	 16558	 16560	 16561	 16565	 16587	 16589	 16592	 16594
	 16595	 16597	 16598	 16602	 16624	 16626	 16629	 16631	 16632	 16634	 16635	 16639	 16661	 16663
	 16666	 16668	 16669	 16671	 16672	 16676	 16698	 16700	 16703	 16705	 16706	 16708	 16709	 16713
	 16735	 16737	 16740	 16742	 16743	 16745	 16746	 16750	 16772	 16774	 16777	 16779	 16780	 16782
	 16783	 16787	 16809	 16811	 16814	 16816	 16817	 16819	 16820	 16824	 16846	 16848	 16851	 16853
	 16854	 16856	 16857	 16861	 16883	 16885	 16888	 16890	 16891	 16893	 16894	 16898	 16920	 16922
	 16925	 16927	 16928	 16930	 16931	 16935	 16957	 16959	 16962	 16964	 16965	 16967	 16968	 16972
	 16994	 16996	 16999	 17001	 17002	 17004	 17005	 17009	 17031	 17033	 17036	 17038	 17039	 17041
	 17042	 17046	 17068	 17070	 17073	 17075	 17076	 17078	 17079	 17083	 17105	 17107	 17110	 17112
	 17113	 17115	 17116	 17120	 17142	 17144	 17147	 17149	 17150	 17152	 17153	 17157	 17179	 17181
	 17184	 17186	 17187	 17189	 17190	 17194	 17216	 17218	 17221	 17223	 17224	 17226	 17227	 17231
	 17253	 17255	 17258	 17260	 17261	 17263	 17264	 17268	 17290	 17292	 17295	 17297	 17298	 17300
	 17301	 17305
ADR	   752#	   763	   804	   804#	   809	   833	   833#	   838	   862	   862#	   867	   891	   891#	   896
	   920	   920#	   925	   949	   949#	   954	   978	   978#	   983	  1007	  1007#	  1012	  1036	  1036#
	  1041	  1065	  1065#	  1070	  1094	  1094#	  1099	  1123	  1123#	  1128	  1152	  1152#	  1157	  1181
	  1181#	  1186	  1210	  1210#	  1215	  1239	  1239#	  1244	  1268	  1268#	  1273	  1297	  1297#	  1302     SEQ 0357
	  1326	  1326#	  1331	  1355	  1355#	  1360	  1384	  1384#	  1389	  1413	  1413#	  1418	  1442	  1442#
	  1447	  1471	  1471#	  1476	  1500	  1500#	  1505	  1529	  1529#	  1534	  1558	  1558#	  1563	  1587
	  1587#	  1592	  1616	  1616#	  1621	  1645	  1645#	  1650	  1674	  1674#	  1679	  1703	  1703#	  1708
	  1732	  1732#	  1737	  1761	  1761#	  1766	  1790	  1790#	  1795	  1819	  1819#	  1824	  1864	  1864#
	  1869	  1893	  1893#	  1898	  1922	  1922#	  1927	  1951	  1951#	  1956	  1980	  1980#	  1985	  2009
	  2009#	  2014	  2038	  2038#	  2043	  2067	  2067#	  2072	  2096	  2096#	  2101	  2125	  2125#	  2130
	  2154	  2154#	  2159	  2183	  2183#	  2188	  2212	  2212#	  2217	  2241	  2241#	  2246	  2270	  2270#
	  2275	  2299	  2299#	  2304	  2328	  2328#	  2333	  2357	  2357#	  2362	  2386	  2386#	  2391	  2415
	  2415#	  2420	  2444	  2444#	  2449	  2473	  2473#	  2478	  2502	  2502#	  2507	  2531	  2531#	  2536
	  2560	  2560#	  2565	  2589	  2589#	  2594	  2618	  2618#	  2623	  2647	  2647#	  2652	  2676	  2676#
	  2681	  2705	  2705#	  2710	  2734	  2734#	  2739	  2763	  2763#	  2768	  2792	  2792#	  2797	  2821
	  2821#	  2826	  2850	  2850#	  2855	  2879	  2879#	  2884	  2907	  2907#	  2917	  2982	  2982#	  2985
	  3021	  3021#	  3024	  3060	  3060#	  3063	  3099	  3099#	  3102	  3138	  3138#	  3141	  3177	  3177#
	  3180	  3216	  3216#	  3219	  3255	  3255#	  3258	  3294	  3294#	  3297	  3333	  3333#	  3336	  3372
	  3372#	  3375	  3411	  3411#	  3414	  3450	  3450#	  3453	  3489	  3489#	  3492	  3528	  3528#	  3531
	  3567	  3567#	  3570	  3639	  3639#	  3648	  3684	  3684#	  3693	  3729	  3729#	  3738	  3774	  3774#
	  3783	  3819	  3819#	  3828	  3864	  3864#	  3873	  3909	  3909#	  3918	  3954	  3954#	  3963	  3999
	  3999#	  4008	  4044	  4044#	  4053	  4089	  4089#	  4098	  4134	  4134#	  4143	  4179	  4179#	  4188
	  4224	  4224#	  4233	  4269	  4269#	  4278	  4314	  4314#	  4323	  4365	  4365#	  4370	  4394	  4394#
	  4399	  4423	  4423#	  4428	  4452	  4452#	  4457	  4481	  4481#	  4486	  4510	  4510#	  4515	  4539
	  4539#	  4544	  4568	  4568#	  4573	  4597	  4597#	  4602	  4626	  4626#	  4631	  4655	  4655#	  4660
	  4684	  4684#	  4689	  4713	  4713#	  4718	  4742	  4742#	  4747	  4771	  4771#	  4776	  4800	  4800#
	  4805	  4829	  4829#	  4834	  4858	  4858#	  4863	  4887	  4887#	  4892	  4916	  4916#	  4921	  4945
	  4945#	  4950	  4974	  4974#	  4979	  5003	  5003#	  5008	  5032	  5032#	  5037	  5061	  5061#	  5066
	  5090	  5090#	  5095	  5119	  5119#	  5124	  5148	  5148#	  5153	  5177	  5177#	  5182	  5206	  5206#
	  5211	  5235	  5235#	  5240	  5264	  5264#	  5269	  5293	  5293#	  5298	  5322	  5322#	  5327	  5351
	  5351#	  5356	  5380	  5380#	  5385	  5425	  5425#	  5430	  5454	  5454#	  5459	  5483	  5483#	  5488
	  5512	  5512#	  5517	  5541	  5541#	  5546	  5570	  5570#	  5575	  5599	  5599#	  5604	  5628	  5628#
	  5633	  5657	  5657#	  5662	  5686	  5686#	  5691	  5715	  5715#	  5720	  5744	  5744#	  5749	  5773
	  5773#	  5778	  5802	  5802#	  5807	  5831	  5831#	  5836	  5860	  5860#	  5865	  5889	  5889#	  5894
	  5918	  5918#	  5923	  5947	  5947#	  5952	  5976	  5976#	  5981	  6005	  6005#	  6010	  6034	  6034#
	  6039	  6063	  6063#	  6068	  6092	  6092#	  6097	  6121	  6121#	  6126	  6150	  6150#	  6155	  6179
	  6179#	  6184	  6208	  6208#	  6213	  6237	  6237#	  6242	  6266	  6266#	  6271	  6295	  6295#	  6300
	  6324	  6324#	  6329	  6353	  6353#	  6358	  6382	  6382#	  6387	  6411	  6411#	  6416	  6440	  6440#
	  6445	  6475	  6475#	  6478	  6523	  6523#	  6530	  6554	  6554#	  6561	  6585	  6585#	  6592	  6616
	  6616#	  6623	  6647	  6647#	  6654	  6678	  6678#	  6685	  6709	  6709#	  6716	  6740	  6740#	  6747
	  6771	  6771#	  6778	  6802	  6802#	  6809	  6833	  6833#	  6840	  6864	  6864#	  6871	  6895	  6895#
	  6902	  6926	  6926#	  6933	  6957	  6957#	  6964	  6988	  6988#	  6995	  7019	  7019#	  7026	  7050
	  7050#	  7057	  7081	  7081#	  7088	  7112	  7112#	  7119	  7143	  7143#	  7150	  7174	  7174#	  7181
	  7205	  7205#	  7212	  7236	  7236#	  7243	  7267	  7267#	  7274	  7298	  7298#	  7305	  7329	  7329#
	  7336	  7360	  7360#	  7367	  7391	  7391#	  7398	  7422	  7422#	  7429	  7453	  7453#	  7460	  7484
	  7484#	  7491	  7515	  7515#	  7522	  7546	  7546#	  7553	  7577	  7577#	  7584	  7608	  7608#	  7615
	  7657	  7657#	  7664	  7688	  7688#	  7695	  7719	  7719#	  7726	  7750	  7750#	  7757	  7781	  7781#
	  7788	  7812	  7812#	  7819	  7843	  7843#	  7850	  7874	  7874#	  7881	  7905	  7905#	  7912	  7936
	  7936#	  7943	  7967	  7967#	  7974	  7998	  7998#	  8005	  8029	  8029#	  8036	  8060	  8060#	  8067
	  8091	  8091#	  8098	  8122	  8122#	  8129	  8153	  8153#	  8160	  8184	  8184#	  8191	  8215	  8215#
	  8222	  8246	  8246#	  8253	  8277	  8277#	  8284	  8308	  8308#	  8315	  8339	  8339#	  8346	  8370
	  8370#	  8377	  8401	  8401#	  8408	  8432	  8432#	  8439	  8463	  8463#	  8470	  8494	  8494#	  8501
	  8525	  8525#	  8532	  8556	  8556#	  8563	  8587	  8587#	  8594	  8618	  8618#	  8625	  8649	  8649#
	  8656	  8680	  8680#	  8687	  8711	  8711#	  8718	  8742	  8742#	  8749	  8795	  8795#	  8806	  8830
	  8830#	  8841	  8865	  8865#	  8876	  8900	  8900#	  8911	  8935	  8935#	  8946	  8970	  8970#	  8981
	  9005	  9005#	  9016	  9040	  9040#	  9051	  9075	  9075#	  9086	  9110	  9110#	  9121	  9145	  9145#
	  9156	  9180	  9180#	  9191	  9215	  9215#	  9226	  9250	  9250#	  9261	  9285	  9285#	  9296	  9320     SEQ 0358
	  9320#	  9331	  9355	  9355#	  9366	  9390	  9390#	  9401	  9425	  9425#	  9436	  9460	  9460#	  9471
	  9495	  9495#	  9506	  9530	  9530#	  9541	  9565	  9565#	  9576	  9600	  9600#	  9611	  9635	  9635#
	  9646	  9670	  9670#	  9681	  9705	  9705#	  9716	  9740	  9740#	  9751	  9775	  9775#	  9786	  9810
	  9810#	  9821	  9845	  9845#	  9856	  9880	  9880#	  9891	  9915	  9915#	  9926	  9950	  9950#	  9961
	  9985	  9985#	  9996	 10020	 10020#	 10031	 10077	 10077#	 10088	 10112	 10112#	 10123	 10147	 10147#
	 10158	 10182	 10182#	 10193	 10217	 10217#	 10228	 10252	 10252#	 10263	 10287	 10287#	 10298	 10322
	 10322#	 10333	 10357	 10357#	 10368	 10392	 10392#	 10403	 10427	 10427#	 10438	 10462	 10462#	 10473
	 10497	 10497#	 10508	 10532	 10532#	 10543	 10567	 10567#	 10578	 10602	 10602#	 10613	 10637	 10637#
	 10648	 10672	 10672#	 10683	 10707	 10707#	 10718	 10742	 10742#	 10753	 10777	 10777#	 10788	 10812
	 10812#	 10823	 10847	 10847#	 10858	 10882	 10882#	 10893	 10917	 10917#	 10928	 10952	 10952#	 10963
	 10987	 10987#	 10998	 11022	 11022#	 11033	 11057	 11057#	 11068	 11092	 11092#	 11103	 11127	 11127#
	 11138	 11162	 11162#	 11173	 11197	 11197#	 11208	 11232	 11232#	 11243	 11267	 11267#	 11278	 11302
	 11302#	 11313	 11355	 11355#	 11362	 11386	 11386#	 11393	 11417	 11417#	 11424	 11448	 11448#	 11455
	 11479	 11479#	 11486	 11510	 11510#	 11517	 11541	 11541#	 11548	 11572	 11572#	 11579	 11603	 11603#
	 11610	 11634	 11634#	 11641	 11665	 11665#	 11672	 11696	 11696#	 11703	 11727	 11727#	 11734	 11758
	 11758#	 11765	 11789	 11789#	 11796	 11820	 11820#	 11827	 11851	 11851#	 11858	 11882	 11882#	 11889
	 11913	 11913#	 11920	 11944	 11944#	 11951	 11975	 11975#	 11982	 12006	 12006#	 12013	 12037	 12037#
	 12044	 12068	 12068#	 12075	 12099	 12099#	 12106	 12130	 12130#	 12137	 12161	 12161#	 12168	 12192
	 12192#	 12199	 12223	 12223#	 12230	 12254	 12254#	 12261	 12285	 12285#	 12292	 12316	 12316#	 12323
	 12347	 12347#	 12354	 12378	 12378#	 12385	 12409	 12409#	 12416	 12440	 12440#	 12447	 12489	 12489#
	 12496	 12520	 12520#	 12527	 12551	 12551#	 12558	 12582	 12582#	 12589	 12613	 12613#	 12620	 12644
	 12644#	 12651	 12675	 12675#	 12682	 12706	 12706#	 12713	 12737	 12737#	 12744	 12768	 12768#	 12775
	 12799	 12799#	 12806	 12830	 12830#	 12837	 12861	 12861#	 12868	 12892	 12892#	 12899	 12923	 12923#
	 12930	 12954	 12954#	 12961	 12985	 12985#	 12992	 13016	 13016#	 13023	 13047	 13047#	 13054	 13078
	 13078#	 13085	 13109	 13109#	 13116	 13140	 13140#	 13147	 13171	 13171#	 13178	 13202	 13202#	 13209
	 13233	 13233#	 13240	 13264	 13264#	 13271	 13295	 13295#	 13302	 13326	 13326#	 13333	 13357	 13357#
	 13364	 13388	 13388#	 13395	 13419	 13419#	 13426	 13450	 13450#	 13457	 13481	 13481#	 13488	 13512
	 13512#	 13519	 13543	 13543#	 13550	 13574	 13574#	 13581	 13624	 13624#	 13632	 13656	 13656#	 13664
	 13688	 13688#	 13696	 13720	 13720#	 13728	 13752	 13752#	 13760	 13784	 13784#	 13792	 13816	 13816#
	 13824	 13848	 13848#	 13856	 13880	 13880#	 13888	 13912	 13912#	 13920	 13944	 13944#	 13952	 13976
	 13976#	 13984	 14008	 14008#	 14016	 14040	 14040#	 14048	 14072	 14072#	 14080	 14104	 14104#	 14112
	 14136	 14136#	 14144	 14168	 14168#	 14176	 14200	 14200#	 14208	 14232	 14232#	 14240	 14264	 14264#
	 14272	 14296	 14296#	 14304	 14328	 14328#	 14336	 14360	 14360#	 14368	 14392	 14392#	 14400	 14424
	 14424#	 14432	 14456	 14456#	 14464	 14488	 14488#	 14496	 14520	 14520#	 14528	 14552	 14552#	 14560
	 14584	 14584#	 14592	 14616	 14616#	 14624	 14648	 14648#	 14656	 14680	 14680#	 14688	 14712	 14712#
	 14720	 14744	 14744#	 14752	 14795	 14795#	 14803	 14827	 14827#	 14835	 14859	 14859#	 14867	 14891
	 14891#	 14899	 14923	 14923#	 14931	 14955	 14955#	 14963	 14987	 14987#	 14995	 15019	 15019#	 15027
	 15051	 15051#	 15059	 15083	 15083#	 15091	 15115	 15115#	 15123	 15147	 15147#	 15155	 15179	 15179#
	 15187	 15211	 15211#	 15219	 15243	 15243#	 15251	 15275	 15275#	 15283	 15307	 15307#	 15315	 15339
	 15339#	 15347	 15371	 15371#	 15379	 15403	 15403#	 15411	 15435	 15435#	 15443	 15467	 15467#	 15475
	 15499	 15499#	 15507	 15531	 15531#	 15539	 15563	 15563#	 15571	 15595	 15595#	 15603	 15627	 15627#
	 15635	 15659	 15659#	 15667	 15691	 15691#	 15699	 15723	 15723#	 15731	 15755	 15755#	 15763	 15787
	 15787#	 15795	 15819	 15819#	 15827	 15851	 15851#	 15859	 15883	 15883#	 15891	 15915	 15915#	 15923
	 15975	 15975#	 15988	 16012	 16012#	 16025	 16049	 16049#	 16062	 16086	 16086#	 16099	 16123	 16123#
	 16136	 16160	 16160#	 16173	 16197	 16197#	 16210	 16234	 16234#	 16247	 16271	 16271#	 16284	 16308
	 16308#	 16321	 16345	 16345#	 16358	 16382	 16382#	 16395	 16419	 16419#	 16432	 16456	 16456#	 16469
	 16493	 16493#	 16506	 16530	 16530#	 16543	 16567	 16567#	 16580	 16604	 16604#	 16617	 16641	 16641#
	 16654	 16678	 16678#	 16691	 16715	 16715#	 16728	 16752	 16752#	 16765	 16789	 16789#	 16802	 16826
	 16826#	 16839	 16863	 16863#	 16876	 16900	 16900#	 16913	 16937	 16937#	 16950	 16974	 16974#	 16987
	 17011	 17011#	 17024	 17048	 17048#	 17061	 17085	 17085#	 17098	 17122	 17122#	 17135	 17159	 17159#
	 17172	 17196	 17196#	 17209	 17233	 17233#	 17246	 17270	 17270#	 17283
AEE	   773#	   782#	   819#	   828#	   848#	   857#	   877#	   886#	   906#	   915#	   935#	   944#	   964#	   973#
	   993#	  1002#	  1022#	  1031#	  1051#	  1060#	  1080#	  1089#	  1109#	  1118#	  1138#	  1147#	  1167#	  1176#    SEQ 0359
	  1196#	  1205#	  1225#	  1234#	  1254#	  1263#	  1283#	  1292#	  1312#	  1321#	  1341#	  1350#	  1370#	  1379#
	  1399#	  1408#	  1428#	  1437#	  1457#	  1466#	  1486#	  1495#	  1515#	  1524#	  1544#	  1553#	  1573#	  1582#
	  1602#	  1611#	  1631#	  1640#	  1660#	  1669#	  1689#	  1698#	  1718#	  1727#	  1747#	  1756#	  1776#	  1785#
	  1805#	  1814#	  1834#	  1843#	  1879#	  1888#	  1908#	  1917#	  1937#	  1946#	  1966#	  1975#	  1995#	  2004#
	  2024#	  2033#	  2053#	  2062#	  2082#	  2091#	  2111#	  2120#	  2140#	  2149#	  2169#	  2178#	  2198#	  2207#
	  2227#	  2236#	  2256#	  2265#	  2285#	  2294#	  2314#	  2323#	  2343#	  2352#	  2372#	  2381#	  2401#	  2410#
	  2430#	  2439#	  2459#	  2468#	  2488#	  2497#	  2517#	  2526#	  2546#	  2555#	  2575#	  2584#	  2604#	  2613#
	  2633#	  2642#	  2662#	  2671#	  2691#	  2700#	  2720#	  2729#	  2749#	  2758#	  2778#	  2787#	  2807#	  2816#
	  2836#	  2845#	  2865#	  2874#	  2894#	  2903#	  2927#	  2936#	  2995#	  3004#	  3034#	  3043#	  3073#	  3082#
	  3112#	  3121#	  3151#	  3160#	  3190#	  3199#	  3229#	  3238#	  3268#	  3277#	  3307#	  3316#	  3346#	  3355#
	  3385#	  3394#	  3424#	  3433#	  3463#	  3472#	  3502#	  3511#	  3541#	  3550#	  3580#	  3589#	  3658#	  3667#
	  3703#	  3712#	  3748#	  3757#	  3793#	  3802#	  3838#	  3847#	  3883#	  3892#	  3928#	  3937#	  3973#	  3982#
	  4018#	  4027#	  4063#	  4072#	  4108#	  4117#	  4153#	  4162#	  4198#	  4207#	  4243#	  4252#	  4288#	  4297#
	  4333#	  4342#	  4380#	  4389#	  4409#	  4418#	  4438#	  4447#	  4467#	  4476#	  4496#	  4505#	  4525#	  4534#
	  4554#	  4563#	  4583#	  4592#	  4612#	  4621#	  4641#	  4650#	  4670#	  4679#	  4699#	  4708#	  4728#	  4737#
	  4757#	  4766#	  4786#	  4795#	  4815#	  4824#	  4844#	  4853#	  4873#	  4882#	  4902#	  4911#	  4931#	  4940#
	  4960#	  4969#	  4989#	  4998#	  5018#	  5027#	  5047#	  5056#	  5076#	  5085#	  5105#	  5114#	  5134#	  5143#
	  5163#	  5172#	  5192#	  5201#	  5221#	  5230#	  5250#	  5259#	  5279#	  5288#	  5308#	  5317#	  5337#	  5346#
	  5366#	  5375#	  5395#	  5404#	  5440#	  5449#	  5469#	  5478#	  5498#	  5507#	  5527#	  5536#	  5556#	  5565#
	  5585#	  5594#	  5614#	  5623#	  5643#	  5652#	  5672#	  5681#	  5701#	  5710#	  5730#	  5739#	  5759#	  5768#
	  5788#	  5797#	  5817#	  5826#	  5846#	  5855#	  5875#	  5884#	  5904#	  5913#	  5933#	  5942#	  5962#	  5971#
	  5991#	  6000#	  6020#	  6029#	  6049#	  6058#	  6078#	  6087#	  6107#	  6116#	  6136#	  6145#	  6165#	  6174#
	  6194#	  6203#	  6223#	  6232#	  6252#	  6261#	  6281#	  6290#	  6310#	  6319#	  6339#	  6348#	  6368#	  6377#
	  6397#	  6406#	  6426#	  6435#	  6455#	  6464#	  6488#	  6497#	  6540#	  6549#	  6571#	  6580#	  6602#	  6611#
	  6633#	  6642#	  6664#	  6673#	  6695#	  6704#	  6726#	  6735#	  6757#	  6766#	  6788#	  6797#	  6819#	  6828#
	  6850#	  6859#	  6881#	  6890#	  6912#	  6921#	  6943#	  6952#	  6974#	  6983#	  7005#	  7014#	  7036#	  7045#
	  7067#	  7076#	  7098#	  7107#	  7129#	  7138#	  7160#	  7169#	  7191#	  7200#	  7222#	  7231#	  7253#	  7262#
	  7284#	  7293#	  7315#	  7324#	  7346#	  7355#	  7377#	  7386#	  7408#	  7417#	  7439#	  7448#	  7470#	  7479#
	  7501#	  7510#	  7532#	  7541#	  7563#	  7572#	  7594#	  7603#	  7625#	  7634#	  7674#	  7683#	  7705#	  7714#
	  7736#	  7745#	  7767#	  7776#	  7798#	  7807#	  7829#	  7838#	  7860#	  7869#	  7891#	  7900#	  7922#	  7931#
	  7953#	  7962#	  7984#	  7993#	  8015#	  8024#	  8046#	  8055#	  8077#	  8086#	  8108#	  8117#	  8139#	  8148#
	  8170#	  8179#	  8201#	  8210#	  8232#	  8241#	  8263#	  8272#	  8294#	  8303#	  8325#	  8334#	  8356#	  8365#
	  8387#	  8396#	  8418#	  8427#	  8449#	  8458#	  8480#	  8489#	  8511#	  8520#	  8542#	  8551#	  8573#	  8582#
	  8604#	  8613#	  8635#	  8644#	  8666#	  8675#	  8697#	  8706#	  8728#	  8737#	  8759#	  8768#	  8816#	  8825#
	  8851#	  8860#	  8886#	  8895#	  8921#	  8930#	  8956#	  8965#	  8991#	  9000#	  9026#	  9035#	  9061#	  9070#
	  9096#	  9105#	  9131#	  9140#	  9166#	  9175#	  9201#	  9210#	  9236#	  9245#	  9271#	  9280#	  9306#	  9315#
	  9341#	  9350#	  9376#	  9385#	  9411#	  9420#	  9446#	  9455#	  9481#	  9490#	  9516#	  9525#	  9551#	  9560#
	  9586#	  9595#	  9621#	  9630#	  9656#	  9665#	  9691#	  9700#	  9726#	  9735#	  9761#	  9770#	  9796#	  9805#
	  9831#	  9840#	  9866#	  9875#	  9901#	  9910#	  9936#	  9945#	  9971#	  9980#	 10006#	 10015#	 10041#	 10050#
	 10098#	 10107#	 10133#	 10142#	 10168#	 10177#	 10203#	 10212#	 10238#	 10247#	 10273#	 10282#	 10308#	 10317#
	 10343#	 10352#	 10378#	 10387#	 10413#	 10422#	 10448#	 10457#	 10483#	 10492#	 10518#	 10527#	 10553#	 10562#
	 10588#	 10597#	 10623#	 10632#	 10658#	 10667#	 10693#	 10702#	 10728#	 10737#	 10763#	 10772#	 10798#	 10807#
	 10833#	 10842#	 10868#	 10877#	 10903#	 10912#	 10938#	 10947#	 10973#	 10982#	 11008#	 11017#	 11043#	 11052#
	 11078#	 11087#	 11113#	 11122#	 11148#	 11157#	 11183#	 11192#	 11218#	 11227#	 11253#	 11262#	 11288#	 11297#
	 11323#	 11332#	 11372#	 11381#	 11403#	 11412#	 11434#	 11443#	 11465#	 11474#	 11496#	 11505#	 11527#	 11536#
	 11558#	 11567#	 11589#	 11598#	 11620#	 11629#	 11651#	 11660#	 11682#	 11691#	 11713#	 11722#	 11744#	 11753#
	 11775#	 11784#	 11806#	 11815#	 11837#	 11846#	 11868#	 11877#	 11899#	 11908#	 11930#	 11939#	 11961#	 11970#
	 11992#	 12001#	 12023#	 12032#	 12054#	 12063#	 12085#	 12094#	 12116#	 12125#	 12147#	 12156#	 12178#	 12187#
	 12209#	 12218#	 12240#	 12249#	 12271#	 12280#	 12302#	 12311#	 12333#	 12342#	 12364#	 12373#	 12395#	 12404#
	 12426#	 12435#	 12457#	 12466#	 12506#	 12515#	 12537#	 12546#	 12568#	 12577#	 12599#	 12608#	 12630#	 12639#
	 12661#	 12670#	 12692#	 12701#	 12723#	 12732#	 12754#	 12763#	 12785#	 12794#	 12816#	 12825#	 12847#	 12856#
	 12878#	 12887#	 12909#	 12918#	 12940#	 12949#	 12971#	 12980#	 13002#	 13011#	 13033#	 13042#	 13064#	 13073#
	 13095#	 13104#	 13126#	 13135#	 13157#	 13166#	 13188#	 13197#	 13219#	 13228#	 13250#	 13259#	 13281#	 13290#    SEQ 0360
	 13312#	 13321#	 13343#	 13352#	 13374#	 13383#	 13405#	 13414#	 13436#	 13445#	 13467#	 13476#	 13498#	 13507#
	 13529#	 13538#	 13560#	 13569#	 13591#	 13600#	 13642#	 13651#	 13674#	 13683#	 13706#	 13715#	 13738#	 13747#
	 13770#	 13779#	 13802#	 13811#	 13834#	 13843#	 13866#	 13875#	 13898#	 13907#	 13930#	 13939#	 13962#	 13971#
	 13994#	 14003#	 14026#	 14035#	 14058#	 14067#	 14090#	 14099#	 14122#	 14131#	 14154#	 14163#	 14186#	 14195#
	 14218#	 14227#	 14250#	 14259#	 14282#	 14291#	 14314#	 14323#	 14346#	 14355#	 14378#	 14387#	 14410#	 14419#
	 14442#	 14451#	 14474#	 14483#	 14506#	 14515#	 14538#	 14547#	 14570#	 14579#	 14602#	 14611#	 14634#	 14643#
	 14666#	 14675#	 14698#	 14707#	 14730#	 14739#	 14762#	 14771#	 14813#	 14822#	 14845#	 14854#	 14877#	 14886#
	 14909#	 14918#	 14941#	 14950#	 14973#	 14982#	 15005#	 15014#	 15037#	 15046#	 15069#	 15078#	 15101#	 15110#
	 15133#	 15142#	 15165#	 15174#	 15197#	 15206#	 15229#	 15238#	 15261#	 15270#	 15293#	 15302#	 15325#	 15334#
	 15357#	 15366#	 15389#	 15398#	 15421#	 15430#	 15453#	 15462#	 15485#	 15494#	 15517#	 15526#	 15549#	 15558#
	 15581#	 15590#	 15613#	 15622#	 15645#	 15654#	 15677#	 15686#	 15709#	 15718#	 15741#	 15750#	 15773#	 15782#
	 15805#	 15814#	 15837#	 15846#	 15869#	 15878#	 15901#	 15910#	 15933#	 15942#	 15998#	 16007#	 16035#	 16044#
	 16072#	 16081#	 16109#	 16118#	 16146#	 16155#	 16183#	 16192#	 16220#	 16229#	 16257#	 16266#	 16294#	 16303#
	 16331#	 16340#	 16368#	 16377#	 16405#	 16414#	 16442#	 16451#	 16479#	 16488#	 16516#	 16525#	 16553#	 16562#
	 16590#	 16599#	 16627#	 16636#	 16664#	 16673#	 16701#	 16710#	 16738#	 16747#	 16775#	 16784#	 16812#	 16821#
	 16849#	 16858#	 16886#	 16895#	 16923#	 16932#	 16960#	 16969#	 16997#	 17006#	 17034#	 17043#	 17071#	 17080#
	 17108#	 17117#	 17145#	 17154#	 17182#	 17191#	 17219#	 17228#	 17256#	 17265#	 17293#	 17302#
ALTMGO	   480#	 17430
AR1	   776#	   822#	   851#	   880#	   909#	   938#	   967#	   996#	  1025#	  1054#	  1083#	  1112#	  1141#	  1170#
	  1199#	  1228#	  1257#	  1286#	  1315#	  1344#	  1373#	  1402#	  1431#	  1460#	  1489#	  1518#	  1547#	  1576#
	  1605#	  1634#	  1663#	  1692#	  1721#	  1750#	  1779#	  1808#	  1837#	  1882#	  1911#	  1940#	  1969#	  1998#
	  2027#	  2056#	  2085#	  2114#	  2143#	  2172#	  2201#	  2230#	  2259#	  2288#	  2317#	  2346#	  2375#	  2404#
	  2433#	  2462#	  2491#	  2520#	  2549#	  2578#	  2607#	  2636#	  2665#	  2694#	  2723#	  2752#	  2781#	  2810#
	  2839#	  2868#	  2897#	  2930#	  2998#	  3037#	  3076#	  3115#	  3154#	  3193#	  3232#	  3271#	  3310#	  3349#
	  3388#	  3427#	  3466#	  3505#	  3544#	  3583#	  3661#	  3706#	  3751#	  3796#	  3841#	  3886#	  3931#	  3976#
	  4021#	  4066#	  4111#	  4156#	  4201#	  4246#	  4291#	  4336#	  4383#	  4412#	  4441#	  4470#	  4499#	  4528#
	  4557#	  4586#	  4615#	  4644#	  4673#	  4702#	  4731#	  4760#	  4789#	  4818#	  4847#	  4876#	  4905#	  4934#
	  4963#	  4992#	  5021#	  5050#	  5079#	  5108#	  5137#	  5166#	  5195#	  5224#	  5253#	  5282#	  5311#	  5340#
	  5369#	  5398#	  5443#	  5472#	  5501#	  5530#	  5559#	  5588#	  5617#	  5646#	  5675#	  5704#	  5733#	  5762#
	  5791#	  5820#	  5849#	  5878#	  5907#	  5936#	  5965#	  5994#	  6023#	  6052#	  6081#	  6110#	  6139#	  6168#
	  6197#	  6226#	  6255#	  6284#	  6313#	  6342#	  6371#	  6400#	  6429#	  6458#	  6491#	  6543#	  6574#	  6605#
	  6636#	  6667#	  6698#	  6729#	  6760#	  6791#	  6822#	  6853#	  6884#	  6915#	  6946#	  6977#	  7008#	  7039#
	  7070#	  7101#	  7132#	  7163#	  7194#	  7225#	  7256#	  7287#	  7318#	  7349#	  7380#	  7411#	  7442#	  7473#
	  7504#	  7535#	  7566#	  7597#	  7628#	  7677#	  7708#	  7739#	  7770#	  7801#	  7832#	  7863#	  7894#	  7925#
	  7956#	  7987#	  8018#	  8049#	  8080#	  8111#	  8142#	  8173#	  8204#	  8235#	  8266#	  8297#	  8328#	  8359#
	  8390#	  8421#	  8452#	  8483#	  8514#	  8545#	  8576#	  8607#	  8638#	  8669#	  8700#	  8731#	  8762#	  8819#
	  8854#	  8889#	  8924#	  8959#	  8994#	  9029#	  9064#	  9099#	  9134#	  9169#	  9204#	  9239#	  9274#	  9309#
	  9344#	  9379#	  9414#	  9449#	  9484#	  9519#	  9554#	  9589#	  9624#	  9659#	  9694#	  9729#	  9764#	  9799#
	  9834#	  9869#	  9904#	  9939#	  9974#	 10009#	 10044#	 10101#	 10136#	 10171#	 10206#	 10241#	 10276#	 10311#
	 10346#	 10381#	 10416#	 10451#	 10486#	 10521#	 10556#	 10591#	 10626#	 10661#	 10696#	 10731#	 10766#	 10801#
	 10836#	 10871#	 10906#	 10941#	 10976#	 11011#	 11046#	 11081#	 11116#	 11151#	 11186#	 11221#	 11256#	 11291#
	 11326#	 11375#	 11406#	 11437#	 11468#	 11499#	 11530#	 11561#	 11592#	 11623#	 11654#	 11685#	 11716#	 11747#
	 11778#	 11809#	 11840#	 11871#	 11902#	 11933#	 11964#	 11995#	 12026#	 12057#	 12088#	 12119#	 12150#	 12181#
	 12212#	 12243#	 12274#	 12305#	 12336#	 12367#	 12398#	 12429#	 12460#	 12509#	 12540#	 12571#	 12602#	 12633#
	 12664#	 12695#	 12726#	 12757#	 12788#	 12819#	 12850#	 12881#	 12912#	 12943#	 12974#	 13005#	 13036#	 13067#
	 13098#	 13129#	 13160#	 13191#	 13222#	 13253#	 13284#	 13315#	 13346#	 13377#	 13408#	 13439#	 13470#	 13501#
	 13532#	 13563#	 13594#	 13645#	 13677#	 13709#	 13741#	 13773#	 13805#	 13837#	 13869#	 13901#	 13933#	 13965#
	 13997#	 14029#	 14061#	 14093#	 14125#	 14157#	 14189#	 14221#	 14253#	 14285#	 14317#	 14349#	 14381#	 14413#
	 14445#	 14477#	 14509#	 14541#	 14573#	 14605#	 14637#	 14669#	 14701#	 14733#	 14765#	 14816#	 14848#	 14880#
	 14912#	 14944#	 14976#	 15008#	 15040#	 15072#	 15104#	 15136#	 15168#	 15200#	 15232#	 15264#	 15296#	 15328#
	 15360#	 15392#	 15424#	 15456#	 15488#	 15520#	 15552#	 15584#	 15616#	 15648#	 15680#	 15712#	 15744#	 15776#
	 15808#	 15840#	 15872#	 15904#	 15936#	 16001#	 16038#	 16075#	 16112#	 16149#	 16186#	 16223#	 16260#	 16297#
	 16334#	 16371#	 16408#	 16445#	 16482#	 16519#	 16556#	 16593#	 16630#	 16667#	 16704#	 16741#	 16778#	 16815#    SEQ 0361
	 16852#	 16889#	 16926#	 16963#	 17000#	 17037#	 17074#	 17111#	 17148#	 17185#	 17222#	 17259#	 17296#
AR2	   779#	   825#	   854#	   883#	   912#	   941#	   970#	   999#	  1028#	  1057#	  1086#	  1115#	  1144#	  1173#
	  1202#	  1231#	  1260#	  1289#	  1318#	  1347#	  1376#	  1405#	  1434#	  1463#	  1492#	  1521#	  1550#	  1579#
	  1608#	  1637#	  1666#	  1695#	  1724#	  1753#	  1782#	  1811#	  1840#	  1885#	  1914#	  1943#	  1972#	  2001#
	  2030#	  2059#	  2088#	  2117#	  2146#	  2175#	  2204#	  2233#	  2262#	  2291#	  2320#	  2349#	  2378#	  2407#
	  2436#	  2465#	  2494#	  2523#	  2552#	  2581#	  2610#	  2639#	  2668#	  2697#	  2726#	  2755#	  2784#	  2813#
	  2842#	  2871#	  2900#	  2933#	  3001#	  3040#	  3079#	  3118#	  3157#	  3196#	  3235#	  3274#	  3313#	  3352#
	  3391#	  3430#	  3469#	  3508#	  3547#	  3586#	  3664#	  3709#	  3754#	  3799#	  3844#	  3889#	  3934#	  3979#
	  4024#	  4069#	  4114#	  4159#	  4204#	  4249#	  4294#	  4339#	  4386#	  4415#	  4444#	  4473#	  4502#	  4531#
	  4560#	  4589#	  4618#	  4647#	  4676#	  4705#	  4734#	  4763#	  4792#	  4821#	  4850#	  4879#	  4908#	  4937#
	  4966#	  4995#	  5024#	  5053#	  5082#	  5111#	  5140#	  5169#	  5198#	  5227#	  5256#	  5285#	  5314#	  5343#
	  5372#	  5401#	  5446#	  5475#	  5504#	  5533#	  5562#	  5591#	  5620#	  5649#	  5678#	  5707#	  5736#	  5765#
	  5794#	  5823#	  5852#	  5881#	  5910#	  5939#	  5968#	  5997#	  6026#	  6055#	  6084#	  6113#	  6142#	  6171#
	  6200#	  6229#	  6258#	  6287#	  6316#	  6345#	  6374#	  6403#	  6432#	  6461#	  6494#	  6546#	  6577#	  6608#
	  6639#	  6670#	  6701#	  6732#	  6763#	  6794#	  6825#	  6856#	  6887#	  6918#	  6949#	  6980#	  7011#	  7042#
	  7073#	  7104#	  7135#	  7166#	  7197#	  7228#	  7259#	  7290#	  7321#	  7352#	  7383#	  7414#	  7445#	  7476#
	  7507#	  7538#	  7569#	  7600#	  7631#	  7680#	  7711#	  7742#	  7773#	  7804#	  7835#	  7866#	  7897#	  7928#
	  7959#	  7990#	  8021#	  8052#	  8083#	  8114#	  8145#	  8176#	  8207#	  8238#	  8269#	  8300#	  8331#	  8362#
	  8393#	  8424#	  8455#	  8486#	  8517#	  8548#	  8579#	  8610#	  8641#	  8672#	  8703#	  8734#	  8765#	  8822#
	  8857#	  8892#	  8927#	  8962#	  8997#	  9032#	  9067#	  9102#	  9137#	  9172#	  9207#	  9242#	  9277#	  9312#
	  9347#	  9382#	  9417#	  9452#	  9487#	  9522#	  9557#	  9592#	  9627#	  9662#	  9697#	  9732#	  9767#	  9802#
	  9837#	  9872#	  9907#	  9942#	  9977#	 10012#	 10047#	 10104#	 10139#	 10174#	 10209#	 10244#	 10279#	 10314#
	 10349#	 10384#	 10419#	 10454#	 10489#	 10524#	 10559#	 10594#	 10629#	 10664#	 10699#	 10734#	 10769#	 10804#
	 10839#	 10874#	 10909#	 10944#	 10979#	 11014#	 11049#	 11084#	 11119#	 11154#	 11189#	 11224#	 11259#	 11294#
	 11329#	 11378#	 11409#	 11440#	 11471#	 11502#	 11533#	 11564#	 11595#	 11626#	 11657#	 11688#	 11719#	 11750#
	 11781#	 11812#	 11843#	 11874#	 11905#	 11936#	 11967#	 11998#	 12029#	 12060#	 12091#	 12122#	 12153#	 12184#
	 12215#	 12246#	 12277#	 12308#	 12339#	 12370#	 12401#	 12432#	 12463#	 12512#	 12543#	 12574#	 12605#	 12636#
	 12667#	 12698#	 12729#	 12760#	 12791#	 12822#	 12853#	 12884#	 12915#	 12946#	 12977#	 13008#	 13039#	 13070#
	 13101#	 13132#	 13163#	 13194#	 13225#	 13256#	 13287#	 13318#	 13349#	 13380#	 13411#	 13442#	 13473#	 13504#
	 13535#	 13566#	 13597#	 13648#	 13680#	 13712#	 13744#	 13776#	 13808#	 13840#	 13872#	 13904#	 13936#	 13968#
	 14000#	 14032#	 14064#	 14096#	 14128#	 14160#	 14192#	 14224#	 14256#	 14288#	 14320#	 14352#	 14384#	 14416#
	 14448#	 14480#	 14512#	 14544#	 14576#	 14608#	 14640#	 14672#	 14704#	 14736#	 14768#	 14819#	 14851#	 14883#
	 14915#	 14947#	 14979#	 15011#	 15043#	 15075#	 15107#	 15139#	 15171#	 15203#	 15235#	 15267#	 15299#	 15331#
	 15363#	 15395#	 15427#	 15459#	 15491#	 15523#	 15555#	 15587#	 15619#	 15651#	 15683#	 15715#	 15747#	 15779#
	 15811#	 15843#	 15875#	 15907#	 15939#	 16004#	 16041#	 16078#	 16115#	 16152#	 16189#	 16226#	 16263#	 16300#
	 16337#	 16374#	 16411#	 16448#	 16485#	 16522#	 16559#	 16596#	 16633#	 16670#	 16707#	 16744#	 16781#	 16818#
	 16855#	 16892#	 16929#	 16966#	 17003#	 17040#	 17077#	 17114#	 17151#	 17188#	 17225#	 17262#	 17299#
AROV	   394#
AROVTP	   394#
AROVU	   394#
AST	   595#
ATSIN	   596#
BEGEND	   476#	 17307
BEGIN	    67	    68	    69	    72	    73	    74	    75	    76	    77	   345	   346	   407#	 17751
BEGIN1	   423#	   477
BELL	   599#
BIS	   394#
CCA	   394#
CHAIN	   150#
CHNOFF	   394#
CHNON	   394#
CLKU	   394#
CLOCKF	   462#                                                                                                            SEQ 0362
CNTLC	   479#
CNTRP	   394#
COMMA	   588#
CONSW	   463#	 17365	 17431	 17455
CPOPJ	   483#
CPOPJ1	   481#
CRLF	   280	   281	   583#
CRLF2	   284	   285	   585#
CRY0	   394#
CRY1	   394#
CSHFLG	   642#
CSHMEM	   643#
CTRP	   394#
CYCL60	   636#
DCK	   394#
DDTLNK	   164#	   421
DDTSRT	   421#
DEBUG	    59#	 17742	 17743
DECVER	     4#	    11	    26	   442
DF22F	   547#
DIAGMN	   410#
DING	   136#	 17436
DOLLAR	   602#
DSKUPD	   447
E	   754#	   774	   775	   783	   784	   788#	   820	   821	   829	   830	   849	   850	   858	   859
	   878	   879	   887	   888	   907	   908	   916	   917	   936	   937	   945	   946	   965	   966
	   974	   975	   994	   995	  1003	  1004	  1023	  1024	  1032	  1033	  1052	  1053	  1061	  1062
	  1081	  1082	  1090	  1091	  1110	  1111	  1119	  1120	  1139	  1140	  1148	  1149	  1168	  1169
	  1177	  1178	  1197	  1198	  1206	  1207	  1226	  1227	  1235	  1236	  1255	  1256	  1264	  1265
	  1284	  1285	  1293	  1294	  1313	  1314	  1322	  1323	  1342	  1343	  1351	  1352	  1371	  1372
	  1380	  1381	  1400	  1401	  1409	  1410	  1429	  1430	  1438	  1439	  1458	  1459	  1467	  1468
	  1487	  1488	  1496	  1497	  1516	  1517	  1525	  1526	  1545	  1546	  1554	  1555	  1574	  1575
	  1583	  1584	  1603	  1604	  1612	  1613	  1632	  1633	  1641	  1642	  1661	  1662	  1670	  1671
	  1690	  1691	  1699	  1700	  1719	  1720	  1728	  1729	  1748	  1749	  1757	  1758	  1777	  1778
	  1786	  1787	  1806	  1807	  1815	  1816	  1835	  1836	  1844	  1845	  1848#	  1880	  1881	  1889
	  1890	  1909	  1910	  1918	  1919	  1938	  1939	  1947	  1948	  1967	  1968	  1976	  1977	  1996
	  1997	  2005	  2006	  2025	  2026	  2034	  2035	  2054	  2055	  2063	  2064	  2083	  2084	  2092
	  2093	  2112	  2113	  2121	  2122	  2141	  2142	  2150	  2151	  2170	  2171	  2179	  2180	  2199
	  2200	  2208	  2209	  2228	  2229	  2237	  2238	  2257	  2258	  2266	  2267	  2286	  2287	  2295
	  2296	  2315	  2316	  2324	  2325	  2344	  2345	  2353	  2354	  2373	  2374	  2382	  2383	  2402
	  2403	  2411	  2412	  2431	  2432	  2440	  2441	  2460	  2461	  2469	  2470	  2489	  2490	  2498
	  2499	  2518	  2519	  2527	  2528	  2547	  2548	  2556	  2557	  2576	  2577	  2585	  2586	  2605
	  2606	  2614	  2615	  2634	  2635	  2643	  2644	  2663	  2664	  2672	  2673	  2692	  2693	  2701
	  2702	  2721	  2722	  2730	  2731	  2750	  2751	  2759	  2760	  2779	  2780	  2788	  2789	  2808
	  2809	  2817	  2818	  2837	  2838	  2846	  2847	  2866	  2867	  2875	  2876	  2895	  2896	  2904
	  2905	  2909#	  2928	  2929	  2937	  2938	  2943#	  2996	  2997	  3005	  3006	  3035	  3036	  3044
	  3045	  3074	  3075	  3083	  3084	  3113	  3114	  3122	  3123	  3152	  3153	  3161	  3162	  3191
	  3192	  3200	  3201	  3230	  3231	  3239	  3240	  3269	  3270	  3278	  3279	  3308	  3309	  3317
	  3318	  3347	  3348	  3356	  3357	  3386	  3387	  3395	  3396	  3425	  3426	  3434	  3435	  3464
	  3465	  3473	  3474	  3503	  3504	  3512	  3513	  3542	  3543	  3551	  3552	  3581	  3582	  3590
	  3591	  3594#	  3659	  3660	  3668	  3669	  3704	  3705	  3713	  3714	  3749	  3750	  3758	  3759
	  3794	  3795	  3803	  3804	  3839	  3840	  3848	  3849	  3884	  3885	  3893	  3894	  3929	  3930
	  3938	  3939	  3974	  3975	  3983	  3984	  4019	  4020	  4028	  4029	  4064	  4065	  4073	  4074     SEQ 0363
	  4109	  4110	  4118	  4119	  4154	  4155	  4163	  4164	  4199	  4200	  4208	  4209	  4244	  4245
	  4253	  4254	  4289	  4290	  4298	  4299	  4334	  4335	  4343	  4344	  4349#	  4381	  4382	  4390
	  4391	  4410	  4411	  4419	  4420	  4439	  4440	  4448	  4449	  4468	  4469	  4477	  4478	  4497
	  4498	  4506	  4507	  4526	  4527	  4535	  4536	  4555	  4556	  4564	  4565	  4584	  4585	  4593
	  4594	  4613	  4614	  4622	  4623	  4642	  4643	  4651	  4652	  4671	  4672	  4680	  4681	  4700
	  4701	  4709	  4710	  4729	  4730	  4738	  4739	  4758	  4759	  4767	  4768	  4787	  4788	  4796
	  4797	  4816	  4817	  4825	  4826	  4845	  4846	  4854	  4855	  4874	  4875	  4883	  4884	  4903
	  4904	  4912	  4913	  4932	  4933	  4941	  4942	  4961	  4962	  4970	  4971	  4990	  4991	  4999
	  5000	  5019	  5020	  5028	  5029	  5048	  5049	  5057	  5058	  5077	  5078	  5086	  5087	  5106
	  5107	  5115	  5116	  5135	  5136	  5144	  5145	  5164	  5165	  5173	  5174	  5193	  5194	  5202
	  5203	  5222	  5223	  5231	  5232	  5251	  5252	  5260	  5261	  5280	  5281	  5289	  5290	  5309
	  5310	  5318	  5319	  5338	  5339	  5347	  5348	  5367	  5368	  5376	  5377	  5396	  5397	  5405
	  5406	  5409#	  5441	  5442	  5450	  5451	  5470	  5471	  5479	  5480	  5499	  5500	  5508	  5509
	  5528	  5529	  5537	  5538	  5557	  5558	  5566	  5567	  5586	  5587	  5595	  5596	  5615	  5616
	  5624	  5625	  5644	  5645	  5653	  5654	  5673	  5674	  5682	  5683	  5702	  5703	  5711	  5712
	  5731	  5732	  5740	  5741	  5760	  5761	  5769	  5770	  5789	  5790	  5798	  5799	  5818	  5819
	  5827	  5828	  5847	  5848	  5856	  5857	  5876	  5877	  5885	  5886	  5905	  5906	  5914	  5915
	  5934	  5935	  5943	  5944	  5963	  5964	  5972	  5973	  5992	  5993	  6001	  6002	  6021	  6022
	  6030	  6031	  6050	  6051	  6059	  6060	  6079	  6080	  6088	  6089	  6108	  6109	  6117	  6118
	  6137	  6138	  6146	  6147	  6166	  6167	  6175	  6176	  6195	  6196	  6204	  6205	  6224	  6225
	  6233	  6234	  6253	  6254	  6262	  6263	  6282	  6283	  6291	  6292	  6311	  6312	  6320	  6321
	  6340	  6341	  6349	  6350	  6369	  6370	  6378	  6379	  6398	  6399	  6407	  6408	  6427	  6428
	  6436	  6437	  6456	  6457	  6465	  6466	  6469#	  6489	  6490	  6498	  6499	  6504#	  6541	  6542
	  6550	  6551	  6572	  6573	  6581	  6582	  6603	  6604	  6612	  6613	  6634	  6635	  6643	  6644
	  6665	  6666	  6674	  6675	  6696	  6697	  6705	  6706	  6727	  6728	  6736	  6737	  6758	  6759
	  6767	  6768	  6789	  6790	  6798	  6799	  6820	  6821	  6829	  6830	  6851	  6852	  6860	  6861
	  6882	  6883	  6891	  6892	  6913	  6914	  6922	  6923	  6944	  6945	  6953	  6954	  6975	  6976
	  6984	  6985	  7006	  7007	  7015	  7016	  7037	  7038	  7046	  7047	  7068	  7069	  7077	  7078
	  7099	  7100	  7108	  7109	  7130	  7131	  7139	  7140	  7161	  7162	  7170	  7171	  7192	  7193
	  7201	  7202	  7223	  7224	  7232	  7233	  7254	  7255	  7263	  7264	  7285	  7286	  7294	  7295
	  7316	  7317	  7325	  7326	  7347	  7348	  7356	  7357	  7378	  7379	  7387	  7388	  7409	  7410
	  7418	  7419	  7440	  7441	  7449	  7450	  7471	  7472	  7480	  7481	  7502	  7503	  7511	  7512
	  7533	  7534	  7542	  7543	  7564	  7565	  7573	  7574	  7595	  7596	  7604	  7605	  7626	  7627
	  7635	  7636	  7639#	  7675	  7676	  7684	  7685	  7706	  7707	  7715	  7716	  7737	  7738	  7746
	  7747	  7768	  7769	  7777	  7778	  7799	  7800	  7808	  7809	  7830	  7831	  7839	  7840	  7861
	  7862	  7870	  7871	  7892	  7893	  7901	  7902	  7923	  7924	  7932	  7933	  7954	  7955	  7963
	  7964	  7985	  7986	  7994	  7995	  8016	  8017	  8025	  8026	  8047	  8048	  8056	  8057	  8078
	  8079	  8087	  8088	  8109	  8110	  8118	  8119	  8140	  8141	  8149	  8150	  8171	  8172	  8180
	  8181	  8202	  8203	  8211	  8212	  8233	  8234	  8242	  8243	  8264	  8265	  8273	  8274	  8295
	  8296	  8304	  8305	  8326	  8327	  8335	  8336	  8357	  8358	  8366	  8367	  8388	  8389	  8397
	  8398	  8419	  8420	  8428	  8429	  8450	  8451	  8459	  8460	  8481	  8482	  8490	  8491	  8512
	  8513	  8521	  8522	  8543	  8544	  8552	  8553	  8574	  8575	  8583	  8584	  8605	  8606	  8614
	  8615	  8636	  8637	  8645	  8646	  8667	  8668	  8676	  8677	  8698	  8699	  8707	  8708	  8729
	  8730	  8738	  8739	  8760	  8761	  8769	  8770	  8773#	  8817	  8818	  8826	  8827	  8852	  8853
	  8861	  8862	  8887	  8888	  8896	  8897	  8922	  8923	  8931	  8932	  8957	  8958	  8966	  8967
	  8992	  8993	  9001	  9002	  9027	  9028	  9036	  9037	  9062	  9063	  9071	  9072	  9097	  9098
	  9106	  9107	  9132	  9133	  9141	  9142	  9167	  9168	  9176	  9177	  9202	  9203	  9211	  9212
	  9237	  9238	  9246	  9247	  9272	  9273	  9281	  9282	  9307	  9308	  9316	  9317	  9342	  9343
	  9351	  9352	  9377	  9378	  9386	  9387	  9412	  9413	  9421	  9422	  9447	  9448	  9456	  9457
	  9482	  9483	  9491	  9492	  9517	  9518	  9526	  9527	  9552	  9553	  9561	  9562	  9587	  9588
	  9596	  9597	  9622	  9623	  9631	  9632	  9657	  9658	  9666	  9667	  9692	  9693	  9701	  9702
	  9727	  9728	  9736	  9737	  9762	  9763	  9771	  9772	  9797	  9798	  9806	  9807	  9832	  9833
	  9841	  9842	  9867	  9868	  9876	  9877	  9902	  9903	  9911	  9912	  9937	  9938	  9946	  9947     SEQ 0364
	  9972	  9973	  9981	  9982	 10007	 10008	 10016	 10017	 10042	 10043	 10051	 10052	 10055#	 10099
	 10100	 10108	 10109	 10134	 10135	 10143	 10144	 10169	 10170	 10178	 10179	 10204	 10205	 10213
	 10214	 10239	 10240	 10248	 10249	 10274	 10275	 10283	 10284	 10309	 10310	 10318	 10319	 10344
	 10345	 10353	 10354	 10379	 10380	 10388	 10389	 10414	 10415	 10423	 10424	 10449	 10450	 10458
	 10459	 10484	 10485	 10493	 10494	 10519	 10520	 10528	 10529	 10554	 10555	 10563	 10564	 10589
	 10590	 10598	 10599	 10624	 10625	 10633	 10634	 10659	 10660	 10668	 10669	 10694	 10695	 10703
	 10704	 10729	 10730	 10738	 10739	 10764	 10765	 10773	 10774	 10799	 10800	 10808	 10809	 10834
	 10835	 10843	 10844	 10869	 10870	 10878	 10879	 10904	 10905	 10913	 10914	 10939	 10940	 10948
	 10949	 10974	 10975	 10983	 10984	 11009	 11010	 11018	 11019	 11044	 11045	 11053	 11054	 11079
	 11080	 11088	 11089	 11114	 11115	 11123	 11124	 11149	 11150	 11158	 11159	 11184	 11185	 11193
	 11194	 11219	 11220	 11228	 11229	 11254	 11255	 11263	 11264	 11289	 11290	 11298	 11299	 11324
	 11325	 11333	 11334	 11337#	 11373	 11374	 11382	 11383	 11404	 11405	 11413	 11414	 11435	 11436
	 11444	 11445	 11466	 11467	 11475	 11476	 11497	 11498	 11506	 11507	 11528	 11529	 11537	 11538
	 11559	 11560	 11568	 11569	 11590	 11591	 11599	 11600	 11621	 11622	 11630	 11631	 11652	 11653
	 11661	 11662	 11683	 11684	 11692	 11693	 11714	 11715	 11723	 11724	 11745	 11746	 11754	 11755
	 11776	 11777	 11785	 11786	 11807	 11808	 11816	 11817	 11838	 11839	 11847	 11848	 11869	 11870
	 11878	 11879	 11900	 11901	 11909	 11910	 11931	 11932	 11940	 11941	 11962	 11963	 11971	 11972
	 11993	 11994	 12002	 12003	 12024	 12025	 12033	 12034	 12055	 12056	 12064	 12065	 12086	 12087
	 12095	 12096	 12117	 12118	 12126	 12127	 12148	 12149	 12157	 12158	 12179	 12180	 12188	 12189
	 12210	 12211	 12219	 12220	 12241	 12242	 12250	 12251	 12272	 12273	 12281	 12282	 12303	 12304
	 12312	 12313	 12334	 12335	 12343	 12344	 12365	 12366	 12374	 12375	 12396	 12397	 12405	 12406
	 12427	 12428	 12436	 12437	 12458	 12459	 12467	 12468	 12471#	 12507	 12508	 12516	 12517	 12538
	 12539	 12547	 12548	 12569	 12570	 12578	 12579	 12600	 12601	 12609	 12610	 12631	 12632	 12640
	 12641	 12662	 12663	 12671	 12672	 12693	 12694	 12702	 12703	 12724	 12725	 12733	 12734	 12755
	 12756	 12764	 12765	 12786	 12787	 12795	 12796	 12817	 12818	 12826	 12827	 12848	 12849	 12857
	 12858	 12879	 12880	 12888	 12889	 12910	 12911	 12919	 12920	 12941	 12942	 12950	 12951	 12972
	 12973	 12981	 12982	 13003	 13004	 13012	 13013	 13034	 13035	 13043	 13044	 13065	 13066	 13074
	 13075	 13096	 13097	 13105	 13106	 13127	 13128	 13136	 13137	 13158	 13159	 13167	 13168	 13189
	 13190	 13198	 13199	 13220	 13221	 13229	 13230	 13251	 13252	 13260	 13261	 13282	 13283	 13291
	 13292	 13313	 13314	 13322	 13323	 13344	 13345	 13353	 13354	 13375	 13376	 13384	 13385	 13406
	 13407	 13415	 13416	 13437	 13438	 13446	 13447	 13468	 13469	 13477	 13478	 13499	 13500	 13508
	 13509	 13530	 13531	 13539	 13540	 13561	 13562	 13570	 13571	 13592	 13593	 13601	 13602	 13605#
	 13643	 13644	 13652	 13653	 13675	 13676	 13684	 13685	 13707	 13708	 13716	 13717	 13739	 13740
	 13748	 13749	 13771	 13772	 13780	 13781	 13803	 13804	 13812	 13813	 13835	 13836	 13844	 13845
	 13867	 13868	 13876	 13877	 13899	 13900	 13908	 13909	 13931	 13932	 13940	 13941	 13963	 13964
	 13972	 13973	 13995	 13996	 14004	 14005	 14027	 14028	 14036	 14037	 14059	 14060	 14068	 14069
	 14091	 14092	 14100	 14101	 14123	 14124	 14132	 14133	 14155	 14156	 14164	 14165	 14187	 14188
	 14196	 14197	 14219	 14220	 14228	 14229	 14251	 14252	 14260	 14261	 14283	 14284	 14292	 14293
	 14315	 14316	 14324	 14325	 14347	 14348	 14356	 14357	 14379	 14380	 14388	 14389	 14411	 14412
	 14420	 14421	 14443	 14444	 14452	 14453	 14475	 14476	 14484	 14485	 14507	 14508	 14516	 14517
	 14539	 14540	 14548	 14549	 14571	 14572	 14580	 14581	 14603	 14604	 14612	 14613	 14635	 14636
	 14644	 14645	 14667	 14668	 14676	 14677	 14699	 14700	 14708	 14709	 14731	 14732	 14740	 14741
	 14763	 14764	 14772	 14773	 14776#	 14814	 14815	 14823	 14824	 14846	 14847	 14855	 14856	 14878
	 14879	 14887	 14888	 14910	 14911	 14919	 14920	 14942	 14943	 14951	 14952	 14974	 14975	 14983
	 14984	 15006	 15007	 15015	 15016	 15038	 15039	 15047	 15048	 15070	 15071	 15079	 15080	 15102
	 15103	 15111	 15112	 15134	 15135	 15143	 15144	 15166	 15167	 15175	 15176	 15198	 15199	 15207
	 15208	 15230	 15231	 15239	 15240	 15262	 15263	 15271	 15272	 15294	 15295	 15303	 15304	 15326
	 15327	 15335	 15336	 15358	 15359	 15367	 15368	 15390	 15391	 15399	 15400	 15422	 15423	 15431
	 15432	 15454	 15455	 15463	 15464	 15486	 15487	 15495	 15496	 15518	 15519	 15527	 15528	 15550
	 15551	 15559	 15560	 15582	 15583	 15591	 15592	 15614	 15615	 15623	 15624	 15646	 15647	 15655
	 15656	 15678	 15679	 15687	 15688	 15710	 15711	 15719	 15720	 15742	 15743	 15751	 15752	 15774
	 15775	 15783	 15784	 15806	 15807	 15815	 15816	 15838	 15839	 15847	 15848	 15870	 15871	 15879
	 15880	 15902	 15903	 15911	 15912	 15934	 15935	 15943	 15944	 15949#	 15999	 16000	 16008	 16009     SEQ 0365
	 16036	 16037	 16045	 16046	 16073	 16074	 16082	 16083	 16110	 16111	 16119	 16120	 16147	 16148
	 16156	 16157	 16184	 16185	 16193	 16194	 16221	 16222	 16230	 16231	 16258	 16259	 16267	 16268
	 16295	 16296	 16304	 16305	 16332	 16333	 16341	 16342	 16369	 16370	 16378	 16379	 16406	 16407
	 16415	 16416	 16443	 16444	 16452	 16453	 16480	 16481	 16489	 16490	 16517	 16518	 16526	 16527
	 16554	 16555	 16563	 16564	 16591	 16592	 16600	 16601	 16628	 16629	 16637	 16638	 16665	 16666
	 16674	 16675	 16702	 16703	 16711	 16712	 16739	 16740	 16748	 16749	 16776	 16777	 16785	 16786
	 16813	 16814	 16822	 16823	 16850	 16851	 16859	 16860	 16887	 16888	 16896	 16897	 16924	 16925
	 16933	 16934	 16961	 16962	 16970	 16971	 16998	 16999	 17007	 17008	 17035	 17036	 17044	 17045
	 17072	 17073	 17081	 17082	 17109	 17110	 17118	 17119	 17146	 17147	 17155	 17156	 17183	 17184
	 17192	 17193	 17220	 17221	 17229	 17230	 17257	 17258	 17266	 17267	 17294	 17295	 17303	 17304
EBIT0	   394#
EBIT1	   394#
EBIT10	   394#
EBIT11	   394#
EBIT12	   394#
EBIT13	   394#
EBIT14	   394#
EBIT15	   394#
EBIT2	   394#
EBIT3	   394#
EBIT4	   394#
EBIT5	   394#
EBIT6	   394#
EBIT7	   394#
EBIT8	   394#
EBIT9	   394#
END	 17750#
ENDFIX	   722#
ENDSLD	 17740#
ERDIAG	    63#	 17350
ERMORE	   496#	 17423
EROLD	   356
ERRELB	 17420
ERRLOP	   760#	   760	   793#	   793	  1853#	  1853	  2914#	  2914	  2948#	  2948	  3599#	  3599	  4354#	  4354
	  5414#	  5414	  6474#	  6474	  6509#	  6509	  7644#	  7644	  8778#	  8778	 10060#	 10060	 11342#	 11342
	 12476#	 12476	 13610#	 13610	 14781#	 14781	 15954#	 15954	 17330	 17441	 17444	 17445
ERRMES	    46	    47	    48	    49	    50	    51	    52	    53	    54	    55	    56	 17312#
ERRPC	   467#	 17317	 17347
ERRTLS	   468#	 17315	 17448
ERSTOP	   139#	 17432
EXCASB	    60#	   445
EXIOT	   394#
EXIT	   723#	   724
F30000	   769#	   785
F30010	   815#	   831
F30020	   844#	   860
F30030	   873#	   889
F30040	   902#	   918
F30050	   931#	   947
F30060	   960#	   976
F30070	   989#	  1005
F30100	  1018#	  1034
F30110	  1047#	  1063                                                                                                     SEQ 0366
F30120	  1076#	  1092
F30130	  1105#	  1121
F30140	  1134#	  1150
F30150	  1163#	  1179
F30160	  1192#	  1208
F30170	  1221#	  1237
F30200	  1250#	  1266
F30210	  1279#	  1295
F30220	  1308#	  1324
F30230	  1337#	  1353
F30240	  1366#	  1382
F30250	  1395#	  1411
F30260	  1424#	  1440
F30270	  1453#	  1469
F30300	  1482#	  1498
F30310	  1511#	  1527
F30320	  1540#	  1556
F30330	  1569#	  1585
F30340	  1598#	  1614
F30350	  1627#	  1643
F30360	  1656#	  1672
F30370	  1685#	  1701
F30400	  1714#	  1730
F30410	  1743#	  1759
F30420	  1772#	  1788
F30430	  1801#	  1817
F30440	  1830#	  1846
F30450	  1875#	  1891
F30460	  1904#	  1920
F30470	  1933#	  1949
F30500	  1962#	  1978
F30510	  1991#	  2007
F30520	  2020#	  2036
F30530	  2049#	  2065
F30540	  2078#	  2094
F30550	  2107#	  2123
F30560	  2136#	  2152
F30570	  2165#	  2181
F30600	  2194#	  2210
F30610	  2223#	  2239
F30620	  2252#	  2268
F30630	  2281#	  2297
F30640	  2310#	  2326
F30650	  2339#	  2355
F30660	  2368#	  2384
F30670	  2397#	  2413
F30700	  2426#	  2442
F30710	  2455#	  2471
F30720	  2484#	  2500
F30730	  2513#	  2529
F30740	  2542#	  2558
F30750	  2571#	  2587
F30760	  2600#	  2616                                                                                                     SEQ 0367
F30770	  2629#	  2645
F31000	  2658#	  2674
F31010	  2687#	  2703
F31020	  2716#	  2732
F31030	  2745#	  2761
F31040	  2774#	  2790
F31050	  2803#	  2819
F31060	  2832#	  2848
F31070	  2861#	  2877
F31100	  2890#	  2906
F31110	  2923#	  2939
F31120	  2991#	  3007
F31130	  3030#	  3046
F31140	  3069#	  3085
F31150	  3108#	  3124
F31160	  3147#	  3163
F31170	  3186#	  3202
F31200	  3225#	  3241
F31210	  3264#	  3280
F31220	  3303#	  3319
F31230	  3342#	  3358
F31240	  3381#	  3397
F31250	  3420#	  3436
F31260	  3459#	  3475
F31270	  3498#	  3514
F31300	  3537#	  3553
F31310	  3576#	  3592
F31320	  3654#	  3670
F31330	  3699#	  3715
F31340	  3744#	  3760
F31350	  3789#	  3805
F31360	  3834#	  3850
F31370	  3879#	  3895
F31400	  3924#	  3940
F31410	  3969#	  3985
F31420	  4014#	  4030
F31430	  4059#	  4075
F31440	  4104#	  4120
F31450	  4149#	  4165
F31460	  4194#	  4210
F31470	  4239#	  4255
F31500	  4284#	  4300
F31510	  4329#	  4345
F31520	  4376#	  4392
F31530	  4405#	  4421
F31540	  4434#	  4450
F31550	  4463#	  4479
F31560	  4492#	  4508
F31570	  4521#	  4537
F31600	  4550#	  4566
F31610	  4579#	  4595
F31620	  4608#	  4624
F31630	  4637#	  4653                                                                                                     SEQ 0368
F31640	  4666#	  4682
F31650	  4695#	  4711
F31660	  4724#	  4740
F31670	  4753#	  4769
F31700	  4782#	  4798
F31710	  4811#	  4827
F31720	  4840#	  4856
F31730	  4869#	  4885
F31740	  4898#	  4914
F31750	  4927#	  4943
F31760	  4956#	  4972
F31770	  4985#	  5001
F32000	  5014#	  5030
F32010	  5043#	  5059
F32020	  5072#	  5088
F32030	  5101#	  5117
F32040	  5130#	  5146
F32050	  5159#	  5175
F32060	  5188#	  5204
F32070	  5217#	  5233
F32100	  5246#	  5262
F32110	  5275#	  5291
F32120	  5304#	  5320
F32130	  5333#	  5349
F32140	  5362#	  5378
F32150	  5391#	  5407
F32160	  5436#	  5452
F32170	  5465#	  5481
F32200	  5494#	  5510
F32210	  5523#	  5539
F32220	  5552#	  5568
F32230	  5581#	  5597
F32240	  5610#	  5626
F32250	  5639#	  5655
F32260	  5668#	  5684
F32270	  5697#	  5713
F32300	  5726#	  5742
F32310	  5755#	  5771
F32320	  5784#	  5800
F32330	  5813#	  5829
F32340	  5842#	  5858
F32350	  5871#	  5887
F32360	  5900#	  5916
F32370	  5929#	  5945
F32400	  5958#	  5974
F32410	  5987#	  6003
F32420	  6016#	  6032
F32430	  6045#	  6061
F32440	  6074#	  6090
F32450	  6103#	  6119
F32460	  6132#	  6148
F32470	  6161#	  6177
F32500	  6190#	  6206                                                                                                     SEQ 0369
F32510	  6219#	  6235
F32520	  6248#	  6264
F32530	  6277#	  6293
F32540	  6306#	  6322
F32550	  6335#	  6351
F32560	  6364#	  6380
F32570	  6393#	  6409
F32600	  6422#	  6438
F32610	  6451#	  6467
F32620	  6484#	  6500
F32630	  6536#	  6552
F32640	  6567#	  6583
F32650	  6598#	  6614
F32660	  6629#	  6645
F32670	  6660#	  6676
F32700	  6691#	  6707
F32710	  6722#	  6738
F32720	  6753#	  6769
F32730	  6784#	  6800
F32740	  6815#	  6831
F32750	  6846#	  6862
F32760	  6877#	  6893
F32770	  6908#	  6924
F33000	  6939#	  6955
F33010	  6970#	  6986
F33020	  7001#	  7017
F33030	  7032#	  7048
F33040	  7063#	  7079
F33050	  7094#	  7110
F33060	  7125#	  7141
F33070	  7156#	  7172
F33100	  7187#	  7203
F33110	  7218#	  7234
F33120	  7249#	  7265
F33130	  7280#	  7296
F33140	  7311#	  7327
F33150	  7342#	  7358
F33160	  7373#	  7389
F33170	  7404#	  7420
F33200	  7435#	  7451
F33210	  7466#	  7482
F33220	  7497#	  7513
F33230	  7528#	  7544
F33240	  7559#	  7575
F33250	  7590#	  7606
F33260	  7621#	  7637
F33270	  7670#	  7686
F33300	  7701#	  7717
F33310	  7732#	  7748
F33320	  7763#	  7779
F33330	  7794#	  7810
F33340	  7825#	  7841
F33350	  7856#	  7872                                                                                                     SEQ 0370
F33360	  7887#	  7903
F33370	  7918#	  7934
F33400	  7949#	  7965
F33410	  7980#	  7996
F33420	  8011#	  8027
F33430	  8042#	  8058
F33440	  8073#	  8089
F33450	  8104#	  8120
F33460	  8135#	  8151
F33470	  8166#	  8182
F33500	  8197#	  8213
F33510	  8228#	  8244
F33520	  8259#	  8275
F33530	  8290#	  8306
F33540	  8321#	  8337
F33550	  8352#	  8368
F33560	  8383#	  8399
F33570	  8414#	  8430
F33600	  8445#	  8461
F33610	  8476#	  8492
F33620	  8507#	  8523
F33630	  8538#	  8554
F33640	  8569#	  8585
F33650	  8600#	  8616
F33660	  8631#	  8647
F33670	  8662#	  8678
F33700	  8693#	  8709
F33710	  8724#	  8740
F33720	  8755#	  8771
F33730	  8812#	  8828
F33740	  8847#	  8863
F33750	  8882#	  8898
F33760	  8917#	  8933
F33770	  8952#	  8968
F34000	  8987#	  9003
F34010	  9022#	  9038
F34020	  9057#	  9073
F34030	  9092#	  9108
F34040	  9127#	  9143
F34050	  9162#	  9178
F34060	  9197#	  9213
F34070	  9232#	  9248
F34100	  9267#	  9283
F34110	  9302#	  9318
F34120	  9337#	  9353
F34130	  9372#	  9388
F34140	  9407#	  9423
F34150	  9442#	  9458
F34160	  9477#	  9493
F34170	  9512#	  9528
F34200	  9547#	  9563
F34210	  9582#	  9598
F34220	  9617#	  9633                                                                                                     SEQ 0371
F34230	  9652#	  9668
F34240	  9687#	  9703
F34250	  9722#	  9738
F34260	  9757#	  9773
F34270	  9792#	  9808
F34300	  9827#	  9843
F34310	  9862#	  9878
F34320	  9897#	  9913
F34330	  9932#	  9948
F34340	  9967#	  9983
F34350	 10002#	 10018
F34360	 10037#	 10053
F34370	 10094#	 10110
F34400	 10129#	 10145
F34410	 10164#	 10180
F34420	 10199#	 10215
F34430	 10234#	 10250
F34440	 10269#	 10285
F34450	 10304#	 10320
F34460	 10339#	 10355
F34470	 10374#	 10390
F34500	 10409#	 10425
F34510	 10444#	 10460
F34520	 10479#	 10495
F34530	 10514#	 10530
F34540	 10549#	 10565
F34550	 10584#	 10600
F34560	 10619#	 10635
F34570	 10654#	 10670
F34600	 10689#	 10705
F34610	 10724#	 10740
F34620	 10759#	 10775
F34630	 10794#	 10810
F34640	 10829#	 10845
F34650	 10864#	 10880
F34660	 10899#	 10915
F34670	 10934#	 10950
F34700	 10969#	 10985
F34710	 11004#	 11020
F34720	 11039#	 11055
F34730	 11074#	 11090
F34740	 11109#	 11125
F34750	 11144#	 11160
F34760	 11179#	 11195
F34770	 11214#	 11230
F35000	 11249#	 11265
F35010	 11284#	 11300
F35020	 11319#	 11335
F35030	 11368#	 11384
F35040	 11399#	 11415
F35050	 11430#	 11446
F35060	 11461#	 11477
F35070	 11492#	 11508                                                                                                     SEQ 0372
F35100	 11523#	 11539
F35110	 11554#	 11570
F35120	 11585#	 11601
F35130	 11616#	 11632
F35140	 11647#	 11663
F35150	 11678#	 11694
F35160	 11709#	 11725
F35170	 11740#	 11756
F35200	 11771#	 11787
F35210	 11802#	 11818
F35220	 11833#	 11849
F35230	 11864#	 11880
F35240	 11895#	 11911
F35250	 11926#	 11942
F35260	 11957#	 11973
F35270	 11988#	 12004
F35300	 12019#	 12035
F35310	 12050#	 12066
F35320	 12081#	 12097
F35330	 12112#	 12128
F35340	 12143#	 12159
F35350	 12174#	 12190
F35360	 12205#	 12221
F35370	 12236#	 12252
F35400	 12267#	 12283
F35410	 12298#	 12314
F35420	 12329#	 12345
F35430	 12360#	 12376
F35440	 12391#	 12407
F35450	 12422#	 12438
F35460	 12453#	 12469
F35470	 12502#	 12518
F35500	 12533#	 12549
F35510	 12564#	 12580
F35520	 12595#	 12611
F35530	 12626#	 12642
F35540	 12657#	 12673
F35550	 12688#	 12704
F35560	 12719#	 12735
F35570	 12750#	 12766
F35600	 12781#	 12797
F35610	 12812#	 12828
F35620	 12843#	 12859
F35630	 12874#	 12890
F35640	 12905#	 12921
F35650	 12936#	 12952
F35660	 12967#	 12983
F35670	 12998#	 13014
F35700	 13029#	 13045
F35710	 13060#	 13076
F35720	 13091#	 13107
F35730	 13122#	 13138
F35740	 13153#	 13169                                                                                                     SEQ 0373
F35750	 13184#	 13200
F35760	 13215#	 13231
F35770	 13246#	 13262
F36000	 13277#	 13293
F36010	 13308#	 13324
F36020	 13339#	 13355
F36030	 13370#	 13386
F36040	 13401#	 13417
F36050	 13432#	 13448
F36060	 13463#	 13479
F36070	 13494#	 13510
F36100	 13525#	 13541
F36110	 13556#	 13572
F36120	 13587#	 13603
F36130	 13638#	 13654
F36140	 13670#	 13686
F36150	 13702#	 13718
F36160	 13734#	 13750
F36170	 13766#	 13782
F36200	 13798#	 13814
F36210	 13830#	 13846
F36220	 13862#	 13878
F36230	 13894#	 13910
F36240	 13926#	 13942
F36250	 13958#	 13974
F36260	 13990#	 14006
F36270	 14022#	 14038
F36300	 14054#	 14070
F36310	 14086#	 14102
F36320	 14118#	 14134
F36330	 14150#	 14166
F36340	 14182#	 14198
F36350	 14214#	 14230
F36360	 14246#	 14262
F36370	 14278#	 14294
F36400	 14310#	 14326
F36410	 14342#	 14358
F36420	 14374#	 14390
F36430	 14406#	 14422
F36440	 14438#	 14454
F36450	 14470#	 14486
F36460	 14502#	 14518
F36470	 14534#	 14550
F36500	 14566#	 14582
F36510	 14598#	 14614
F36520	 14630#	 14646
F36530	 14662#	 14678
F36540	 14694#	 14710
F36550	 14726#	 14742
F36560	 14758#	 14774
F36570	 14809#	 14825
F36600	 14841#	 14857
F36610	 14873#	 14889                                                                                                     SEQ 0374
F36620	 14905#	 14921
F36630	 14937#	 14953
F36640	 14969#	 14985
F36650	 15001#	 15017
F36660	 15033#	 15049
F36670	 15065#	 15081
F36700	 15097#	 15113
F36710	 15129#	 15145
F36720	 15161#	 15177
F36730	 15193#	 15209
F36740	 15225#	 15241
F36750	 15257#	 15273
F36760	 15289#	 15305
F36770	 15321#	 15337
F37000	 15353#	 15369
F37010	 15385#	 15401
F37020	 15417#	 15433
F37030	 15449#	 15465
F37040	 15481#	 15497
F37050	 15513#	 15529
F37060	 15545#	 15561
F37070	 15577#	 15593
F37100	 15609#	 15625
F37110	 15641#	 15657
F37120	 15673#	 15689
F37130	 15705#	 15721
F37140	 15737#	 15753
F37150	 15769#	 15785
F37160	 15801#	 15817
F37170	 15833#	 15849
F37200	 15865#	 15881
F37210	 15897#	 15913
F37220	 15929#	 15945
F37230	 15994#	 16010
F37240	 16031#	 16047
F37250	 16068#	 16084
F37260	 16105#	 16121
F37270	 16142#	 16158
F37300	 16179#	 16195
F37310	 16216#	 16232
F37320	 16253#	 16269
F37330	 16290#	 16306
F37340	 16327#	 16343
F37350	 16364#	 16380
F37360	 16401#	 16417
F37370	 16438#	 16454
F37400	 16475#	 16491
F37410	 16512#	 16528
F37420	 16549#	 16565
F37430	 16586#	 16602
F37440	 16623#	 16639
F37450	 16660#	 16676
F37460	 16697#	 16713                                                                                                     SEQ 0375
F37470	 16734#	 16750
F37500	 16771#	 16787
F37510	 16808#	 16824
F37520	 16845#	 16861
F37530	 16882#	 16898
F37540	 16919#	 16935
F37550	 16956#	 16972
F37560	 16993#	 17009
F37570	 17030#	 17046
F37600	 17067#	 17083
F37610	 17104#	 17120
F37620	 17141#	 17157
F37630	 17178#	 17194
F37640	 17215#	 17231
F37650	 17252#	 17268
F37660	 17289#	 17305
FOV	   394#
FOVU	   394#
FRDLNK	   162#
FSELNK	   161#
FXU	   394#
HYPEN	   593#
INHCSH	   147#
INHPAG	   144#
IOCLR	   394#
ITERAT	    88#	   440
ITRCH1	   500#
ITRCNT	   440#
JOB41	   394#
JOBAPR	   394#
JOBCNI	   394#
JOBDDT	   394#
JOBFF	   394#
JOBOPC	   394#	 17429
JOBREL	   394#
JOBREN	   394#
JOBSA	   394#
JOBSYM	   394#
JOBTPC	   394#
JOBUSY	   394#
JOBUUO	   394#
JOBVER	   394#
KAIFLG	   457#
KLFLG	   458#
KNTRP	   394#
KTRP	   394#
LACLK	   394#
LACLKE	   394#
LAPRAL	   394#
LAPRP1	   394#
LAPRP2	   394#
LAPRP3	   394#
LAPRP4	   394#                                                                                                            SEQ 0376
LAPRP5	   394#
LAPRP6	   394#
LAPRP7	   394#
LCHNOF	   394#
LCHNON	   394#
LCNTXT	   394#
LCNXER	   394#
LCPAER	   394#
LCPSFT	   394#
LCPWRF	   394#
LDATAF	   394#
LDLNK	   163#	   410	   412
LDNXER	   394#
LDPAER	   394#
LDPSFT	   394#
LDPWRF	   394#
LEBXMH	   394#
LEBXML	   394#
LENXER	   394#
LEPAER	   394#
LEPSFT	   394#
LEPWRF	   394#
LEUPFW	   394#
LEXCMP	   394#
LFLGCL	   394#
LFLGDS	   394#
LFLGEN	   394#
LFLGST	   394#
LFP	   597#
LINSTF	   394#
LINT	   394#
LIOCLR	   394#
LLACBL	   394#
LLDUSB	   394#
LMBXMH	   394#
LMBXML	   394#
LNXMEN	   394#
LNXMER	   394#
LOOPER	   138#	 17434
LPAREN	   394#
LPARER	   394#
LPFWPC	   394#
LPGFTR	   394#
LPICH1	   394#
LPICH2	   394#
LPICH3	   394#
LPICH4	   394#
LPICH5	   394#
LPICH6	   394#
LPICH7	   394#
LPICHA	   394#
LPICLR	   394#
LPIIP1	   394#                                                                                                            SEQ 0377
LPIIP2	   394#
LPIIP3	   394#
LPIIP4	   394#
LPIIP5	   394#
LPIIP6	   394#
LPIIP7	   394#
LPIOFF	   394#
LPION	   394#
LPRCH1	   394#
LPRCH2	   394#
LPRCH3	   394#
LPRCH4	   394#
LPRCH5	   394#
LPRCH6	   394#
LPRCH7	   394#
LPRFMH	   394#
LPRFML	   394#
LPSFT	   394#
LPSFTE	   394#
LPWRFE	   394#
LPWRFL	   394#
LREQSE	   394#
LRQCLR	   394#
LSECMO	   394#
LSMODE	   394#
LSNXER	   394#
LSPAER	   394#
LSPSFT	   394#
LSPWRF	   394#
LTBASH	   394#
LTBASL	   394#
LTRPAE	   394#
LTRPEN	   394#
LUSCMP	   394#
LUUO	   394#
LUUO1	    46#	   527	   528
LUUO10	    53#	   527	   532
LUUO11	    54#	   527	   532
LUUO12	    55#	   527	   533
LUUO13	    56#	   527	   533
LUUO14	   527	   534
LUUO15	   527	   534
LUUO16	   527	   535
LUUO17	   527	   535
LUUO2	    47#	   527	   529
LUUO20	   527	   536
LUUO21	   527	   536
LUUO22	   527	   537
LUUO23	   527	   537
LUUO24	   527	   538
LUUO25	   527	   538
LUUO26	   527	   539
LUUO27	   527	   539                                                                                                     SEQ 0378
LUUO3	    48#	   527	   529
LUUO30	   527	   540
LUUO31	   527	   540
LUUO32	   527	   541
LUUO33	   527	   541
LUUO4	    49#	   527	   530
LUUO5	    50#	   527	   530
LUUO6	    51#	   527	   531
LUUO7	    52#	   527	   531
LUUOI	   394#
LWRITE	   394#
MAPNEW	   548#
MARGIN	   470#
MCNVER	     3#	    11	    26	   442
MEMLOW	   550#
MEMMAP	   448
MEMSIZ	   551#
MEMTOT	   549#
MICNT	 17318#	 17318	 17319	 17332
MINUS	   592#
MODDVC	   146#
MODDVL	   345	   345#	   443
MODDVU	   346	   346#	   444
MODLNK	   165#	   407
MONCTL	   460#	 17333	 17446
MONFLG	   459#
MONTEN	   461#
MONTYP	   674#
MPVU	   394#
MUUO	   394#
MUUOPC	   394#
MX	  3641#	  3664	  3665	  3686#	  3709	  3710	  3731#	  3754	  3755	  3776#	  3799	  3800	  3821#	  3844
	  3845	  3866#	  3889	  3890	  3911#	  3934	  3935	  3956#	  3979	  3980	  4001#	  4024	  4025	  4046#
	  4069	  4070	  4091#	  4114	  4115	  4136#	  4159	  4160	  4181#	  4204	  4205	  4226#	  4249	  4250
	  4271#	  4294	  4295	  4316#	  4339	  4340	 13629#	 13648	 13649	 13661#	 13680	 13681	 13693#	 13712
	 13713	 13725#	 13744	 13745	 13757#	 13776	 13777	 13789#	 13808	 13809	 13821#	 13840	 13841	 13853#
	 13872	 13873	 13885#	 13904	 13905	 13917#	 13936	 13937	 13949#	 13968	 13969	 13981#	 14000	 14001
	 14013#	 14032	 14033	 14045#	 14064	 14065	 14077#	 14096	 14097	 14109#	 14128	 14129	 14141#	 14160
	 14161	 14173#	 14192	 14193	 14205#	 14224	 14225	 14237#	 14256	 14257	 14269#	 14288	 14289	 14301#
	 14320	 14321	 14333#	 14352	 14353	 14365#	 14384	 14385	 14397#	 14416	 14417	 14429#	 14448	 14449
	 14461#	 14480	 14481	 14493#	 14512	 14513	 14525#	 14544	 14545	 14557#	 14576	 14577	 14589#	 14608
	 14609	 14621#	 14640	 14641	 14653#	 14672	 14673	 14685#	 14704	 14705	 14717#	 14736	 14737	 14749#
	 14768	 14769	 14800#	 14819	 14820	 14832#	 14851	 14852	 14864#	 14883	 14884	 14896#	 14915	 14916
	 14928#	 14947	 14948	 14960#	 14979	 14980	 14992#	 15011	 15012	 15024#	 15043	 15044	 15056#	 15075
	 15076	 15088#	 15107	 15108	 15120#	 15139	 15140	 15152#	 15171	 15172	 15184#	 15203	 15204	 15216#
	 15235	 15236	 15248#	 15267	 15268	 15280#	 15299	 15300	 15312#	 15331	 15332	 15344#	 15363	 15364
	 15376#	 15395	 15396	 15408#	 15427	 15428	 15440#	 15459	 15460	 15472#	 15491	 15492	 15504#	 15523
	 15524	 15536#	 15555	 15556	 15568#	 15587	 15588	 15600#	 15619	 15620	 15632#	 15651	 15652	 15664#
	 15683	 15684	 15696#	 15715	 15716	 15728#	 15747	 15748	 15760#	 15779	 15780	 15792#	 15811	 15812
	 15824#	 15843	 15844	 15856#	 15875	 15876	 15888#	 15907	 15908	 15920#	 15939	 15940
N1	 15946#	 15983	 15984	 15987	 16020	 16021	 16024	 16057	 16058	 16061	 16094	 16095	 16098	 16131
	 16132	 16135	 16168	 16169	 16172	 16205	 16206	 16209	 16242	 16243	 16246	 16279	 16280	 16283
	 16316	 16317	 16320	 16353	 16354	 16357	 16390	 16391	 16394	 16427	 16428	 16431	 16464	 16465     SEQ 0379
	 16468	 16501	 16502	 16505	 16538	 16539	 16542	 16575	 16576	 16579	 16612	 16613	 16616	 16649
	 16650	 16653	 16686	 16687	 16690	 16723	 16724	 16727	 16760	 16761	 16764	 16797	 16798	 16801
	 16834	 16835	 16838	 16871	 16872	 16875	 16908	 16909	 16912	 16945	 16946	 16949	 16982	 16983
	 16986	 17019	 17020	 17023	 17056	 17057	 17060	 17093	 17094	 17097	 17130	 17131	 17134	 17167
	 17168	 17171	 17204	 17205	 17208	 17241	 17242	 17245	 17278	 17279
N2	 15947#	 17281
NOPNT	   134#	 17323
NXMU	   394#
OPRSEL	   148#
OPTIME	   562#
P	   191	   192	   193	   194	   394#	   482
PAG	   394#
PALERS	   140#	 17456
PAREA0	    81#
PAREA1	    82#	   438
PAREA2	    83#	   439
PAREA3	    84#	   436
PAREA4	    85#	   437
PAREA5	    86#	   449
PAREA6	    87#	   450
PAREA7	   449#
PAREA8	   450#
PART1	   749	   756#
PARU	   394#
PASCNT	   464#	 17338	 17342
PATCH	 17743#
PDISF	   559#
PDLOVU	   394#
PDOVTP	   394#
PERIOD	   589#
PFSTRT	   416#
PGMEND	    62#	 17749
PGMNAM	   441	   726#
PICHN1	   394#
PICHN2	   394#
PICHN3	   394#
PICHN4	   394#
PICHN5	   394#
PICHN6	   394#
PICHN7	   394#
PICHNA	   394#
PICLR	   394#
PIOFF	   394#
PION	   394#
PLIST	   628#	   628
PLISTE	   628	   630#
PLISTS	   629#
PLUS	   594#
PNTENB	   558#
PNTEXT	   437#
PNTFLG	   557#
PNTINH	   560#
PNTLPT	   135#                                                                                                            SEQ 0380
PNTNAM	   436#
PNTRP	   394#
PNTSPC	   561#
PROCED	 17321#	 17321	 17435	 17442
PTRP	   394#
PVPAGI	   655#
QUEST	   600#
RADIX	   603#
RADLSC	   605#
RADLSP	   604#
RANDBS	   438#
REENTR	   418#
RELIAB	   142#
REPT	   394#
REPT1	   394#
REPTU	   516#
REQSET	   394#
RESRT1	   493#
RESRT2	   494#
RETURN	   425#
RSTART	   131#
RTP	   598#
RUNFLG	   465#
SADR1	    67#	   414
SADR10	    76#	   430
SADR11	    77#	   431
SADR2	    68#	   416
SADR3	    69#	   418
SADR4	    70#
SADR5	    71#	   479
SADR6	    72#	   480
SADR7	    73#	   427
SADR8	    74#	   428
SADR9	    75#	   429
SBINIT	   204	   424#
SCOPE	   517#
SFSTRT	   414#
SLASH	   601#
SM10	   705#
SNTRP	   394#
SPACE	   590#
SPDES	 17408#
SRTDDT	    70	   420#
START	   408	   745#
START1	   427#
START2	   428#
START3	   429#
START4	   430#
START5	   431#
STARTA	   423	   749#
STRP	   394#
SUBLNK	   166#	   424
SWPTAB	   711#                                                                                                            SEQ 0381
SWTEXR	   439#
SYSEXR	   412#
TAB	   591#
TESTPC	   466#	   758	   791	  1851	  2912	  2946	  3597	  4352	  5412	  6472	  6507	  7642	  8776	 10058
	 11340	 12474	 13608	 14779	 15952
TICKS	   469#
TLET	   747	 17382	 17405#
TN0	   394#
TN1	   394#
TOTALS	   132#
TRP3TP	   394#
TTNBRF	   649#
TTYFIL	   565#
TTYSPD	   566#
TXTINH	   143#	 17366
UBAVEC	   394#
USER	   456#
USERF	   394#
USRASB	    61#	   446
USRCRF	   575#
USRLFF	   574#
UUODIS	   528#
UUOEXT	   484#	 17453
UUORTN	   485#
UUOSKP	   482#
V1	  3643#	  3656	  3657	  3691#	  3701	  3702	  3736#	  3746	  3747	  3781#	  3791	  3792	  3826#	  3836
	  3837	  3871#	  3881	  3882	  3916#	  3926	  3927	  3961#	  3971	  3972	  4006#	  4016	  4017	  4051#
	  4061	  4062	  4096#	  4106	  4107	  4141#	  4151	  4152	  4186#	  4196	  4197	  4231#	  4241	  4242
	  4276#	  4286	  4287	  4321#	  4331	  4332	  6528#	  6543	  6544	  6559#	  6574	  6575	  6590#	  6605
	  6606	  6621#	  6636	  6637	  6652#	  6667	  6668	  6683#	  6698	  6699	  6714#	  6729	  6730	  6745#
	  6760	  6761	  6776#	  6791	  6792	  6807#	  6822	  6823	  6838#	  6853	  6854	  6869#	  6884	  6885
	  6900#	  6915	  6916	  6931#	  6946	  6947	  6962#	  6977	  6978	  6993#	  7008	  7009	  7024#	  7039
	  7040	  7055#	  7070	  7071	  7086#	  7101	  7102	  7117#	  7132	  7133	  7148#	  7163	  7164	  7179#
	  7194	  7195	  7210#	  7225	  7226	  7241#	  7256	  7257	  7272#	  7287	  7288	  7303#	  7318	  7319
	  7334#	  7349	  7350	  7365#	  7380	  7381	  7396#	  7411	  7412	  7427#	  7442	  7443	  7458#	  7473
	  7474	  7489#	  7504	  7505	  7520#	  7535	  7536	  7551#	  7566	  7567	  7582#	  7597	  7598	  7614#
	  7628	  7629	  7662#	  7677	  7678	  7693#	  7708	  7709	  7724#	  7739	  7740	  7755#	  7770	  7771
	  7786#	  7801	  7802	  7817#	  7832	  7833	  7848#	  7863	  7864	  7879#	  7894	  7895	  7910#	  7925
	  7926	  7941#	  7956	  7957	  7972#	  7987	  7988	  8003#	  8018	  8019	  8034#	  8049	  8050	  8065#
	  8080	  8081	  8096#	  8111	  8112	  8127#	  8142	  8143	  8158#	  8173	  8174	  8189#	  8204	  8205
	  8220#	  8235	  8236	  8251#	  8266	  8267	  8282#	  8297	  8298	  8313#	  8328	  8329	  8344#	  8359
	  8360	  8375#	  8390	  8391	  8406#	  8421	  8422	  8437#	  8452	  8453	  8468#	  8483	  8484	  8499#
	  8514	  8515	  8530#	  8545	  8546	  8561#	  8576	  8577	  8592#	  8607	  8608	  8623#	  8638	  8639
	  8654#	  8669	  8670	  8685#	  8700	  8701	  8716#	  8731	  8732	  8748#	  8762	  8763	  8801#	  8819
	  8820	  8836#	  8854	  8855	  8871#	  8889	  8890	  8906#	  8924	  8925	  8941#	  8959	  8960	  8976#
	  8994	  8995	  9011#	  9029	  9030	  9046#	  9064	  9065	  9081#	  9099	  9100	  9116#	  9134	  9135
	  9151#	  9169	  9170	  9186#	  9204	  9205	  9221#	  9239	  9240	  9256#	  9274	  9275	  9291#	  9309
	  9310	  9326#	  9344	  9345	  9361#	  9379	  9380	  9396#	  9414	  9415	  9431#	  9449	  9450	  9466#
	  9484	  9485	  9501#	  9519	  9520	  9536#	  9554	  9555	  9571#	  9589	  9590	  9606#	  9624	  9625
	  9641#	  9659	  9660	  9676#	  9694	  9695	  9711#	  9729	  9730	  9746#	  9764	  9765	  9781#	  9799
	  9800	  9816#	  9834	  9835	  9851#	  9869	  9870	  9886#	  9904	  9905	  9921#	  9939	  9940	  9956#
	  9974	  9975	  9991#	 10009	 10010	 10029#	 10044	 10045	 10083#	 10101	 10102	 10118#	 10136	 10137
	 10153#	 10171	 10172	 10188#	 10206	 10207	 10223#	 10241	 10242	 10258#	 10276	 10277	 10293#	 10311     SEQ 0382
	 10312	 10328#	 10346	 10347	 10363#	 10381	 10382	 10398#	 10416	 10417	 10433#	 10451	 10452	 10468#
	 10486	 10487	 10503#	 10521	 10522	 10538#	 10556	 10557	 10573#	 10591	 10592	 10608#	 10626	 10627
	 10643#	 10661	 10662	 10678#	 10696	 10697	 10713#	 10731	 10732	 10748#	 10766	 10767	 10783#	 10801
	 10802	 10818#	 10836	 10837	 10853#	 10871	 10872	 10888#	 10906	 10907	 10923#	 10941	 10942	 10958#
	 10976	 10977	 10993#	 11011	 11012	 11028#	 11046	 11047	 11063#	 11081	 11082	 11098#	 11116	 11117
	 11133#	 11151	 11152	 11168#	 11186	 11187	 11203#	 11221	 11222	 11238#	 11256	 11257	 11273#	 11291
	 11292	 11311#	 11326	 11327	 11360#	 11375	 11376	 11391#	 11406	 11407	 11422#	 11437	 11438	 11453#
	 11468	 11469	 11484#	 11499	 11500	 11515#	 11530	 11531	 11546#	 11561	 11562	 11577#	 11592	 11593
	 11608#	 11623	 11624	 11639#	 11654	 11655	 11670#	 11685	 11686	 11701#	 11716	 11717	 11732#	 11747
	 11748	 11763#	 11778	 11779	 11794#	 11809	 11810	 11825#	 11840	 11841	 11856#	 11871	 11872	 11887#
	 11902	 11903	 11918#	 11933	 11934	 11949#	 11964	 11965	 11980#	 11995	 11996	 12011#	 12026	 12027
	 12042#	 12057	 12058	 12073#	 12088	 12089	 12104#	 12119	 12120	 12135#	 12150	 12151	 12166#	 12181
	 12182	 12197#	 12212	 12213	 12228#	 12243	 12244	 12259#	 12274	 12275	 12290#	 12305	 12306	 12321#
	 12336	 12337	 12352#	 12367	 12368	 12383#	 12398	 12399	 12414#	 12429	 12430	 12446#	 12460	 12461
	 12494#	 12509	 12510	 12525#	 12540	 12541	 12556#	 12571	 12572	 12587#	 12602	 12603	 12618#	 12633
	 12634	 12649#	 12664	 12665	 12680#	 12695	 12696	 12711#	 12726	 12727	 12742#	 12757	 12758	 12773#
	 12788	 12789	 12804#	 12819	 12820	 12835#	 12850	 12851	 12866#	 12881	 12882	 12897#	 12912	 12913
	 12928#	 12943	 12944	 12959#	 12974	 12975	 12990#	 13005	 13006	 13021#	 13036	 13037	 13052#	 13067
	 13068	 13083#	 13098	 13099	 13114#	 13129	 13130	 13145#	 13160	 13161	 13176#	 13191	 13192	 13207#
	 13222	 13223	 13238#	 13253	 13254	 13269#	 13284	 13285	 13300#	 13315	 13316	 13331#	 13346	 13347
	 13362#	 13377	 13378	 13393#	 13408	 13409	 13424#	 13439	 13440	 13455#	 13470	 13471	 13486#	 13501
	 13502	 13517#	 13532	 13533	 13548#	 13563	 13564	 13580#	 13594	 13595	 13630#	 13645	 13646	 13662#
	 13677	 13678	 13694#	 13709	 13710	 13726#	 13741	 13742	 13758#	 13773	 13774	 13790#	 13805	 13806
	 13822#	 13837	 13838	 13854#	 13869	 13870	 13886#	 13901	 13902	 13918#	 13933	 13934	 13950#	 13965
	 13966	 13982#	 13997	 13998	 14014#	 14029	 14030	 14046#	 14061	 14062	 14078#	 14093	 14094	 14110#
	 14125	 14126	 14142#	 14157	 14158	 14174#	 14189	 14190	 14206#	 14221	 14222	 14238#	 14253	 14254
	 14270#	 14285	 14286	 14302#	 14317	 14318	 14334#	 14349	 14350	 14366#	 14381	 14382	 14398#	 14413
	 14414	 14430#	 14445	 14446	 14462#	 14477	 14478	 14494#	 14509	 14510	 14526#	 14541	 14542	 14558#
	 14573	 14574	 14590#	 14605	 14606	 14622#	 14637	 14638	 14654#	 14669	 14670	 14686#	 14701	 14702
	 14718#	 14733	 14734	 14751#	 14765	 14766	 14801#	 14816	 14817	 14833#	 14848	 14849	 14865#	 14880
	 14881	 14897#	 14912	 14913	 14929#	 14944	 14945	 14961#	 14976	 14977	 14993#	 15008	 15009	 15025#
	 15040	 15041	 15057#	 15072	 15073	 15089#	 15104	 15105	 15121#	 15136	 15137	 15153#	 15168	 15169
	 15185#	 15200	 15201	 15217#	 15232	 15233	 15249#	 15264	 15265	 15281#	 15296	 15297	 15313#	 15328
	 15329	 15345#	 15360	 15361	 15377#	 15392	 15393	 15409#	 15424	 15425	 15441#	 15456	 15457	 15473#
	 15488	 15489	 15505#	 15520	 15521	 15537#	 15552	 15553	 15569#	 15584	 15585	 15601#	 15616	 15617
	 15633#	 15648	 15649	 15665#	 15680	 15681	 15697#	 15712	 15713	 15729#	 15744	 15745	 15761#	 15776
	 15777	 15793#	 15808	 15809	 15825#	 15840	 15841	 15857#	 15872	 15873	 15889#	 15904	 15905	 15922#
	 15936	 15937	 15983#	 15998	 15999	 16007	 16008	 16020#	 16035	 16036	 16044	 16045	 16057#	 16072
	 16073	 16081	 16082	 16094#	 16109	 16110	 16118	 16119	 16131#	 16146	 16147	 16155	 16156	 16168#
	 16183	 16184	 16192	 16193	 16205#	 16220	 16221	 16229	 16230	 16242#	 16257	 16258	 16266	 16267
	 16279#	 16294	 16295	 16303	 16304	 16316#	 16331	 16332	 16340	 16341	 16353#	 16368	 16369	 16377
	 16378	 16390#	 16405	 16406	 16414	 16415	 16427#	 16442	 16443	 16451	 16452	 16464#	 16479	 16480
	 16488	 16489	 16501#	 16516	 16517	 16525	 16526	 16538#	 16553	 16554	 16562	 16563	 16575#	 16590
	 16591	 16599	 16600	 16612#	 16627	 16628	 16636	 16637	 16649#	 16664	 16665	 16673	 16674	 16686#
	 16701	 16702	 16710	 16711	 16723#	 16738	 16739	 16747	 16748	 16760#	 16775	 16776	 16784	 16785
	 16797#	 16812	 16813	 16821	 16822	 16834#	 16849	 16850	 16858	 16859	 16871#	 16886	 16887	 16895
	 16896	 16908#	 16923	 16924	 16932	 16933	 16945#	 16960	 16961	 16969	 16970	 16982#	 16997	 16998
	 17006	 17007	 17019#	 17034	 17035	 17043	 17044	 17056#	 17071	 17072	 17080	 17081	 17093#	 17108
	 17109	 17117	 17118	 17130#	 17145	 17146	 17154	 17155	 17167#	 17182	 17183	 17191	 17192	 17204#
	 17219	 17220	 17228	 17229	 17241#	 17256	 17257	 17265	 17266	 17278#	 17293	 17294	 17302	 17303
V2	  3644#	  3661	  3662	  3692#	  3706	  3707	  3737#	  3751	  3752	  3782#	  3796	  3797	  3827#	  3841
	  3842	  3872#	  3886	  3887	  3917#	  3931	  3932	  3962#	  3976	  3977	  4007#	  4021	  4022	  4052#
	  4066	  4067	  4097#	  4111	  4112	  4142#	  4156	  4157	  4187#	  4201	  4202	  4232#	  4246	  4247     SEQ 0383
	  4277#	  4291	  4292	  4322#	  4336	  4337	  8802#	  8822	  8823	  8837#	  8857	  8858	  8872#	  8892
	  8893	  8907#	  8927	  8928	  8942#	  8962	  8963	  8977#	  8997	  8998	  9012#	  9032	  9033	  9047#
	  9067	  9068	  9082#	  9102	  9103	  9117#	  9137	  9138	  9152#	  9172	  9173	  9187#	  9207	  9208
	  9222#	  9242	  9243	  9257#	  9277	  9278	  9292#	  9312	  9313	  9327#	  9347	  9348	  9362#	  9382
	  9383	  9397#	  9417	  9418	  9432#	  9452	  9453	  9467#	  9487	  9488	  9502#	  9522	  9523	  9537#
	  9557	  9558	  9572#	  9592	  9593	  9607#	  9627	  9628	  9642#	  9662	  9663	  9677#	  9697	  9698
	  9712#	  9732	  9733	  9747#	  9767	  9768	  9782#	  9802	  9803	  9817#	  9837	  9838	  9852#	  9872
	  9873	  9887#	  9907	  9908	  9922#	  9942	  9943	  9957#	  9977	  9978	  9992#	 10012	 10013	 10030#
	 10047	 10048	 10084#	 10104	 10105	 10119#	 10139	 10140	 10154#	 10174	 10175	 10189#	 10209	 10210
	 10224#	 10244	 10245	 10259#	 10279	 10280	 10294#	 10314	 10315	 10329#	 10349	 10350	 10364#	 10384
	 10385	 10399#	 10419	 10420	 10434#	 10454	 10455	 10469#	 10489	 10490	 10504#	 10524	 10525	 10539#
	 10559	 10560	 10574#	 10594	 10595	 10609#	 10629	 10630	 10644#	 10664	 10665	 10679#	 10699	 10700
	 10714#	 10734	 10735	 10749#	 10769	 10770	 10784#	 10804	 10805	 10819#	 10839	 10840	 10854#	 10874
	 10875	 10889#	 10909	 10910	 10924#	 10944	 10945	 10959#	 10979	 10980	 10994#	 11014	 11015	 11029#
	 11049	 11050	 11064#	 11084	 11085	 11099#	 11119	 11120	 11134#	 11154	 11155	 11169#	 11189	 11190
	 11204#	 11224	 11225	 11239#	 11259	 11260	 11274#	 11294	 11295	 11312#	 11329	 11330	 15984#	 16004
	 16005	 16021#	 16041	 16042	 16058#	 16078	 16079	 16095#	 16115	 16116	 16132#	 16152	 16153	 16169#
	 16189	 16190	 16206#	 16226	 16227	 16243#	 16263	 16264	 16280#	 16300	 16301	 16317#	 16337	 16338
	 16354#	 16374	 16375	 16391#	 16411	 16412	 16428#	 16448	 16449	 16465#	 16485	 16486	 16502#	 16522
	 16523	 16539#	 16559	 16560	 16576#	 16596	 16597	 16613#	 16633	 16634	 16650#	 16670	 16671	 16687#
	 16707	 16708	 16724#	 16744	 16745	 16761#	 16781	 16782	 16798#	 16818	 16819	 16835#	 16855	 16856
	 16872#	 16892	 16893	 16909#	 16929	 16930	 16946#	 16966	 16967	 16983#	 17003	 17004	 17020#	 17040
	 17041	 17057#	 17077	 17078	 17094#	 17114	 17115	 17131#	 17151	 17152	 17168#	 17188	 17189	 17205#
	 17225	 17226	 17242#	 17262	 17263	 17279#	 17280#	 17299	 17300
V3	 15987#	 16001	 16002	 16024#	 16038	 16039	 16061#	 16075	 16076	 16098#	 16112	 16113	 16135#	 16149
	 16150	 16172#	 16186	 16187	 16209#	 16223	 16224	 16246#	 16260	 16261	 16283#	 16297	 16298	 16320#
	 16334	 16335	 16357#	 16371	 16372	 16394#	 16408	 16409	 16431#	 16445	 16446	 16468#	 16482	 16483
	 16505#	 16519	 16520	 16542#	 16556	 16557	 16579#	 16593	 16594	 16616#	 16630	 16631	 16653#	 16667
	 16668	 16690#	 16704	 16705	 16727#	 16741	 16742	 16764#	 16778	 16779	 16801#	 16815	 16816	 16838#
	 16852	 16853	 16875#	 16889	 16890	 16912#	 16926	 16927	 16949#	 16963	 16964	 16986#	 17000	 17001
	 17023#	 17037	 17038	 17060#	 17074	 17075	 17097#	 17111	 17112	 17134#	 17148	 17149	 17171#	 17185
	 17186	 17208#	 17222	 17223	 17245#	 17259	 17260	 17281#	 17296	 17297
WW	 15955#	 15976	 15976#	 15985	 15987	 16013	 16013#	 16022	 16024	 16050	 16050#	 16059	 16061	 16087
	 16087#	 16096	 16098	 16124	 16124#	 16133	 16135	 16161	 16161#	 16170	 16172	 16198	 16198#	 16207
	 16209	 16235	 16235#	 16244	 16246	 16272	 16272#	 16281	 16283	 16309	 16309#	 16318	 16320	 16346
	 16346#	 16355	 16357	 16383	 16383#	 16392	 16394	 16420	 16420#	 16429	 16431	 16457	 16457#	 16466
	 16468	 16494	 16494#	 16503	 16505	 16531	 16531#	 16540	 16542	 16568	 16568#	 16577	 16579	 16605
	 16605#	 16614	 16616	 16642	 16642#	 16651	 16653	 16679	 16679#	 16688	 16690	 16716	 16716#	 16725
	 16727	 16753	 16753#	 16762	 16764	 16790	 16790#	 16799	 16801	 16827	 16827#	 16836	 16838	 16864
	 16864#	 16873	 16875	 16901	 16901#	 16910	 16912	 16938	 16938#	 16947	 16949	 16975	 16975#	 16984
	 16986	 17012	 17012#	 17021	 17023	 17049	 17049#	 17058	 17060	 17086	 17086#	 17095	 17097	 17123
	 17123#	 17132	 17134	 17160	 17160#	 17169	 17171	 17197	 17197#	 17206	 17208	 17234	 17234#	 17243
	 17245	 17271	 17271#	 17280
XX	   794#	   805	   805#	   806	   806#	   819	   820	   828	   829	   834	   834#	   835	   848	   849
	   857	   858	   863	   863#	   864	   877	   878	   886	   887	   892	   892#	   893	   906	   907
	   915	   916	   921	   921#	   922	   935	   936	   944	   945	   950	   950#	   951	   964	   965
	   973	   974	   979	   979#	   980	   993	   994	  1002	  1003	  1008	  1008#	  1009	  1022	  1023
	  1031	  1032	  1037	  1037#	  1038	  1051	  1052	  1060	  1061	  1066	  1066#	  1067	  1080	  1081
	  1089	  1090	  1095	  1095#	  1096	  1109	  1110	  1118	  1119	  1124	  1124#	  1125	  1138	  1139
	  1147	  1148	  1153	  1153#	  1154	  1167	  1168	  1176	  1177	  1182	  1182#	  1183	  1196	  1197
	  1205	  1206	  1211	  1211#	  1212	  1225	  1226	  1234	  1235	  1240	  1240#	  1241	  1254	  1255
	  1263	  1264	  1269	  1269#	  1270	  1283	  1284	  1292	  1293	  1298	  1298#	  1299	  1312	  1313
	  1321	  1322	  1327	  1327#	  1328	  1341	  1342	  1350	  1351	  1356	  1356#	  1357	  1370	  1371     SEQ 0384
	  1379	  1380	  1385	  1385#	  1386	  1399	  1400	  1408	  1409	  1414	  1414#	  1415	  1428	  1429
	  1437	  1438	  1443	  1443#	  1444	  1457	  1458	  1466	  1467	  1472	  1472#	  1473	  1486	  1487
	  1495	  1496	  1501	  1501#	  1502	  1515	  1516	  1524	  1525	  1530	  1530#	  1531	  1544	  1545
	  1553	  1554	  1559	  1559#	  1560	  1573	  1574	  1582	  1583	  1588	  1588#	  1589	  1602	  1603
	  1611	  1612	  1617	  1617#	  1618	  1631	  1632	  1640	  1641	  1646	  1646#	  1647	  1660	  1661
	  1669	  1670	  1675	  1675#	  1676	  1689	  1690	  1698	  1699	  1704	  1704#	  1705	  1718	  1719
	  1727	  1728	  1733	  1733#	  1734	  1747	  1748	  1756	  1757	  1762	  1762#	  1763	  1776	  1777
	  1785	  1786	  1791	  1791#	  1792	  1805	  1806	  1814	  1815	  1820	  1820#	  1821	  1834	  1835
	  1843	  1844	  1854#	  1865	  1865#	  1866	  1866#	  1879	  1880	  1888	  1889	  1894	  1894#	  1895
	  1908	  1909	  1917	  1918	  1923	  1923#	  1924	  1937	  1938	  1946	  1947	  1952	  1952#	  1953
	  1966	  1967	  1975	  1976	  1981	  1981#	  1982	  1995	  1996	  2004	  2005	  2010	  2010#	  2011
	  2024	  2025	  2033	  2034	  2039	  2039#	  2040	  2053	  2054	  2062	  2063	  2068	  2068#	  2069
	  2082	  2083	  2091	  2092	  2097	  2097#	  2098	  2111	  2112	  2120	  2121	  2126	  2126#	  2127
	  2140	  2141	  2149	  2150	  2155	  2155#	  2156	  2169	  2170	  2178	  2179	  2184	  2184#	  2185
	  2198	  2199	  2207	  2208	  2213	  2213#	  2214	  2227	  2228	  2236	  2237	  2242	  2242#	  2243
	  2256	  2257	  2265	  2266	  2271	  2271#	  2272	  2285	  2286	  2294	  2295	  2300	  2300#	  2301
	  2314	  2315	  2323	  2324	  2329	  2329#	  2330	  2343	  2344	  2352	  2353	  2358	  2358#	  2359
	  2372	  2373	  2381	  2382	  2387	  2387#	  2388	  2401	  2402	  2410	  2411	  2416	  2416#	  2417
	  2430	  2431	  2439	  2440	  2445	  2445#	  2446	  2459	  2460	  2468	  2469	  2474	  2474#	  2475
	  2488	  2489	  2497	  2498	  2503	  2503#	  2504	  2517	  2518	  2526	  2527	  2532	  2532#	  2533
	  2546	  2547	  2555	  2556	  2561	  2561#	  2562	  2575	  2576	  2584	  2585	  2590	  2590#	  2591
	  2604	  2605	  2613	  2614	  2619	  2619#	  2620	  2633	  2634	  2642	  2643	  2648	  2648#	  2649
	  2662	  2663	  2671	  2672	  2677	  2677#	  2678	  2691	  2692	  2700	  2701	  2706	  2706#	  2707
	  2720	  2721	  2729	  2730	  2735	  2735#	  2736	  2749	  2750	  2758	  2759	  2764	  2764#	  2765
	  2778	  2779	  2787	  2788	  2793	  2793#	  2794	  2807	  2808	  2816	  2817	  2822	  2822#	  2823
	  2836	  2837	  2845	  2846	  2851	  2851#	  2852	  2865	  2866	  2874	  2875	  2880	  2880#	  2881
	  2894	  2895	  2903	  2904	  2950#	  2983	  2983#	  2991	  2992	  3001	  3002	  3022	  3022#	  3030
	  3031	  3040	  3041	  3061	  3061#	  3069	  3070	  3079	  3080	  3100	  3100#	  3108	  3109	  3118
	  3119	  3139	  3139#	  3147	  3148	  3157	  3158	  3178	  3178#	  3186	  3187	  3196	  3197	  3217
	  3217#	  3225	  3226	  3235	  3236	  3256	  3256#	  3264	  3265	  3274	  3275	  3295	  3295#	  3303
	  3304	  3313	  3314	  3334	  3334#	  3342	  3343	  3352	  3353	  3373	  3373#	  3381	  3382	  3391
	  3392	  3412	  3412#	  3420	  3421	  3430	  3431	  3451	  3451#	  3459	  3460	  3469	  3470	  3490
	  3490#	  3498	  3499	  3508	  3509	  3529	  3529#	  3537	  3538	  3547	  3548	  3568	  3568#	  3576
	  3577	  3586	  3587	  3601#	  3640	  3640#	  3641	  3642	  3645	  3654	  3655	  3685	  3685#	  3686
	  3687	  3690	  3699	  3700	  3730	  3730#	  3731	  3732	  3735	  3744	  3745	  3775	  3775#	  3776
	  3777	  3780	  3789	  3790	  3820	  3820#	  3821	  3822	  3825	  3834	  3835	  3865	  3865#	  3866
	  3867	  3870	  3879	  3880	  3910	  3910#	  3911	  3912	  3915	  3924	  3925	  3955	  3955#	  3956
	  3957	  3960	  3969	  3970	  4000	  4000#	  4001	  4002	  4005	  4014	  4015	  4045	  4045#	  4046
	  4047	  4050	  4059	  4060	  4090	  4090#	  4091	  4092	  4095	  4104	  4105	  4135	  4135#	  4136
	  4137	  4140	  4149	  4150	  4180	  4180#	  4181	  4182	  4185	  4194	  4195	  4225	  4225#	  4226
	  4227	  4230	  4239	  4240	  4270	  4270#	  4271	  4272	  4275	  4284	  4285	  4315	  4315#	  4316
	  4317	  4320	  4329	  4330	  4355#	  4366	  4366#	  4367	  4367#	  4376	  4377	  4395	  4395#	  4396
	  4405	  4406	  4424	  4424#	  4425	  4434	  4435	  4453	  4453#	  4454	  4463	  4464	  4482	  4482#
	  4483	  4492	  4493	  4511	  4511#	  4512	  4521	  4522	  4540	  4540#	  4541	  4550	  4551	  4569
	  4569#	  4570	  4579	  4580	  4598	  4598#	  4599	  4608	  4609	  4627	  4627#	  4628	  4637	  4638
	  4656	  4656#	  4657	  4666	  4667	  4685	  4685#	  4686	  4695	  4696	  4714	  4714#	  4715	  4724
	  4725	  4743	  4743#	  4744	  4753	  4754	  4772	  4772#	  4773	  4782	  4783	  4801	  4801#	  4802
	  4811	  4812	  4830	  4830#	  4831	  4840	  4841	  4859	  4859#	  4860	  4869	  4870	  4888	  4888#
	  4889	  4898	  4899	  4917	  4917#	  4918	  4927	  4928	  4946	  4946#	  4947	  4956	  4957	  4975
	  4975#	  4976	  4985	  4986	  5004	  5004#	  5005	  5014	  5015	  5033	  5033#	  5034	  5043	  5044
	  5062	  5062#	  5063	  5072	  5073	  5091	  5091#	  5092	  5101	  5102	  5120	  5120#	  5121	  5130
	  5131	  5149	  5149#	  5150	  5159	  5160	  5178	  5178#	  5179	  5188	  5189	  5207	  5207#	  5208
	  5217	  5218	  5236	  5236#	  5237	  5246	  5247	  5265	  5265#	  5266	  5275	  5276	  5294	  5294#    SEQ 0385
	  5295	  5304	  5305	  5323	  5323#	  5324	  5333	  5334	  5352	  5352#	  5353	  5362	  5363	  5381
	  5381#	  5382	  5391	  5392	  5415#	  5426	  5426#	  5427	  5427#	  5436	  5437	  5455	  5455#	  5456
	  5465	  5466	  5484	  5484#	  5485	  5494	  5495	  5513	  5513#	  5514	  5523	  5524	  5542	  5542#
	  5543	  5552	  5553	  5571	  5571#	  5572	  5581	  5582	  5600	  5600#	  5601	  5610	  5611	  5629
	  5629#	  5630	  5639	  5640	  5658	  5658#	  5659	  5668	  5669	  5687	  5687#	  5688	  5697	  5698
	  5716	  5716#	  5717	  5726	  5727	  5745	  5745#	  5746	  5755	  5756	  5774	  5774#	  5775	  5784
	  5785	  5803	  5803#	  5804	  5813	  5814	  5832	  5832#	  5833	  5842	  5843	  5861	  5861#	  5862
	  5871	  5872	  5890	  5890#	  5891	  5900	  5901	  5919	  5919#	  5920	  5929	  5930	  5948	  5948#
	  5949	  5958	  5959	  5977	  5977#	  5978	  5987	  5988	  6006	  6006#	  6007	  6016	  6017	  6035
	  6035#	  6036	  6045	  6046	  6064	  6064#	  6065	  6074	  6075	  6093	  6093#	  6094	  6103	  6104
	  6122	  6122#	  6123	  6132	  6133	  6151	  6151#	  6152	  6161	  6162	  6180	  6180#	  6181	  6190
	  6191	  6209	  6209#	  6210	  6219	  6220	  6238	  6238#	  6239	  6248	  6249	  6267	  6267#	  6268
	  6277	  6278	  6296	  6296#	  6297	  6306	  6307	  6325	  6325#	  6326	  6335	  6336	  6354	  6354#
	  6355	  6364	  6365	  6383	  6383#	  6384	  6393	  6394	  6412	  6412#	  6413	  6422	  6423	  6441
	  6441#	  6442	  6451	  6452	  6511#	  6524	  6524#	  6525	  6525#	  6528	  6529	  6540	  6541	  6546
	  6547	  6549	  6550	  6555	  6555#	  6556	  6559	  6560	  6571	  6572	  6577	  6578	  6580	  6581
	  6586	  6586#	  6587	  6590	  6591	  6602	  6603	  6608	  6609	  6611	  6612	  6617	  6617#	  6618
	  6621	  6622	  6633	  6634	  6639	  6640	  6642	  6643	  6648	  6648#	  6649	  6652	  6653	  6664
	  6665	  6670	  6671	  6673	  6674	  6679	  6679#	  6680	  6683	  6684	  6695	  6696	  6701	  6702
	  6704	  6705	  6710	  6710#	  6711	  6714	  6715	  6726	  6727	  6732	  6733	  6735	  6736	  6741
	  6741#	  6742	  6745	  6746	  6757	  6758	  6763	  6764	  6766	  6767	  6772	  6772#	  6773	  6776
	  6777	  6788	  6789	  6794	  6795	  6797	  6798	  6803	  6803#	  6804	  6807	  6808	  6819	  6820
	  6825	  6826	  6828	  6829	  6834	  6834#	  6835	  6838	  6839	  6850	  6851	  6856	  6857	  6859
	  6860	  6865	  6865#	  6866	  6869	  6870	  6881	  6882	  6887	  6888	  6890	  6891	  6896	  6896#
	  6897	  6900	  6901	  6912	  6913	  6918	  6919	  6921	  6922	  6927	  6927#	  6928	  6931	  6932
	  6943	  6944	  6949	  6950	  6952	  6953	  6958	  6958#	  6959	  6962	  6963	  6974	  6975	  6980
	  6981	  6983	  6984	  6989	  6989#	  6990	  6993	  6994	  7005	  7006	  7011	  7012	  7014	  7015
	  7020	  7020#	  7021	  7024	  7025	  7036	  7037	  7042	  7043	  7045	  7046	  7051	  7051#	  7052
	  7055	  7056	  7067	  7068	  7073	  7074	  7076	  7077	  7082	  7082#	  7083	  7086	  7087	  7098
	  7099	  7104	  7105	  7107	  7108	  7113	  7113#	  7114	  7117	  7118	  7129	  7130	  7135	  7136
	  7138	  7139	  7144	  7144#	  7145	  7148	  7149	  7160	  7161	  7166	  7167	  7169	  7170	  7175
	  7175#	  7176	  7179	  7180	  7191	  7192	  7197	  7198	  7200	  7201	  7206	  7206#	  7207	  7210
	  7211	  7222	  7223	  7228	  7229	  7231	  7232	  7237	  7237#	  7238	  7241	  7242	  7253	  7254
	  7259	  7260	  7262	  7263	  7268	  7268#	  7269	  7272	  7273	  7284	  7285	  7290	  7291	  7293
	  7294	  7299	  7299#	  7300	  7303	  7304	  7315	  7316	  7321	  7322	  7324	  7325	  7330	  7330#
	  7331	  7334	  7335	  7346	  7347	  7352	  7353	  7355	  7356	  7361	  7361#	  7362	  7365	  7366
	  7377	  7378	  7383	  7384	  7386	  7387	  7392	  7392#	  7393	  7396	  7397	  7408	  7409	  7414
	  7415	  7417	  7418	  7423	  7423#	  7424	  7427	  7428	  7439	  7440	  7445	  7446	  7448	  7449
	  7454	  7454#	  7455	  7458	  7459	  7470	  7471	  7476	  7477	  7479	  7480	  7485	  7485#	  7486
	  7489	  7490	  7501	  7502	  7507	  7508	  7510	  7511	  7516	  7516#	  7517	  7520	  7521	  7532
	  7533	  7538	  7539	  7541	  7542	  7547	  7547#	  7548	  7551	  7552	  7563	  7564	  7569	  7570
	  7572	  7573	  7578	  7578#	  7579	  7582	  7583	  7594	  7595	  7600	  7601	  7603	  7604	  7609
	  7609#	  7610	  7613	  7614	  7625	  7626	  7631	  7632	  7634	  7635	  7645#	  7658	  7658#	  7659
	  7659#	  7662	  7663	  7670	  7671	  7680	  7681	  7689	  7689#	  7690	  7693	  7694	  7701	  7702
	  7711	  7712	  7720	  7720#	  7721	  7724	  7725	  7732	  7733	  7742	  7743	  7751	  7751#	  7752
	  7755	  7756	  7763	  7764	  7773	  7774	  7782	  7782#	  7783	  7786	  7787	  7794	  7795	  7804
	  7805	  7813	  7813#	  7814	  7817	  7818	  7825	  7826	  7835	  7836	  7844	  7844#	  7845	  7848
	  7849	  7856	  7857	  7866	  7867	  7875	  7875#	  7876	  7879	  7880	  7887	  7888	  7897	  7898
	  7906	  7906#	  7907	  7910	  7911	  7918	  7919	  7928	  7929	  7937	  7937#	  7938	  7941	  7942
	  7949	  7950	  7959	  7960	  7968	  7968#	  7969	  7972	  7973	  7980	  7981	  7990	  7991	  7999
	  7999#	  8000	  8003	  8004	  8011	  8012	  8021	  8022	  8030	  8030#	  8031	  8034	  8035	  8042
	  8043	  8052	  8053	  8061	  8061#	  8062	  8065	  8066	  8073	  8074	  8083	  8084	  8092	  8092#
	  8093	  8096	  8097	  8104	  8105	  8114	  8115	  8123	  8123#	  8124	  8127	  8128	  8135	  8136     SEQ 0386
	  8145	  8146	  8154	  8154#	  8155	  8158	  8159	  8166	  8167	  8176	  8177	  8185	  8185#	  8186
	  8189	  8190	  8197	  8198	  8207	  8208	  8216	  8216#	  8217	  8220	  8221	  8228	  8229	  8238
	  8239	  8247	  8247#	  8248	  8251	  8252	  8259	  8260	  8269	  8270	  8278	  8278#	  8279	  8282
	  8283	  8290	  8291	  8300	  8301	  8309	  8309#	  8310	  8313	  8314	  8321	  8322	  8331	  8332
	  8340	  8340#	  8341	  8344	  8345	  8352	  8353	  8362	  8363	  8371	  8371#	  8372	  8375	  8376
	  8383	  8384	  8393	  8394	  8402	  8402#	  8403	  8406	  8407	  8414	  8415	  8424	  8425	  8433
	  8433#	  8434	  8437	  8438	  8445	  8446	  8455	  8456	  8464	  8464#	  8465	  8468	  8469	  8476
	  8477	  8486	  8487	  8495	  8495#	  8496	  8499	  8500	  8507	  8508	  8517	  8518	  8526	  8526#
	  8527	  8530	  8531	  8538	  8539	  8548	  8549	  8557	  8557#	  8558	  8561	  8562	  8569	  8570
	  8579	  8580	  8588	  8588#	  8589	  8592	  8593	  8600	  8601	  8610	  8611	  8619	  8619#	  8620
	  8623	  8624	  8631	  8632	  8641	  8642	  8650	  8650#	  8651	  8654	  8655	  8662	  8663	  8672
	  8673	  8681	  8681#	  8682	  8685	  8686	  8693	  8694	  8703	  8704	  8712	  8712#	  8713	  8716
	  8717	  8724	  8725	  8734	  8735	  8743	  8743#	  8744	  8747	  8748	  8755	  8756	  8765	  8766
	  8779#	  8796	  8796#	  8797	  8797#	  8800	  8802	  8803	  8816	  8817	  8825	  8826	  8831	  8831#
	  8832	  8835	  8837	  8838	  8851	  8852	  8860	  8861	  8866	  8866#	  8867	  8870	  8872	  8873
	  8886	  8887	  8895	  8896	  8901	  8901#	  8902	  8905	  8907	  8908	  8921	  8922	  8930	  8931
	  8936	  8936#	  8937	  8940	  8942	  8943	  8956	  8957	  8965	  8966	  8971	  8971#	  8972	  8975
	  8977	  8978	  8991	  8992	  9000	  9001	  9006	  9006#	  9007	  9010	  9012	  9013	  9026	  9027
	  9035	  9036	  9041	  9041#	  9042	  9045	  9047	  9048	  9061	  9062	  9070	  9071	  9076	  9076#
	  9077	  9080	  9082	  9083	  9096	  9097	  9105	  9106	  9111	  9111#	  9112	  9115	  9117	  9118
	  9131	  9132	  9140	  9141	  9146	  9146#	  9147	  9150	  9152	  9153	  9166	  9167	  9175	  9176
	  9181	  9181#	  9182	  9185	  9187	  9188	  9201	  9202	  9210	  9211	  9216	  9216#	  9217	  9220
	  9222	  9223	  9236	  9237	  9245	  9246	  9251	  9251#	  9252	  9255	  9257	  9258	  9271	  9272
	  9280	  9281	  9286	  9286#	  9287	  9290	  9292	  9293	  9306	  9307	  9315	  9316	  9321	  9321#
	  9322	  9325	  9327	  9328	  9341	  9342	  9350	  9351	  9356	  9356#	  9357	  9360	  9362	  9363
	  9376	  9377	  9385	  9386	  9391	  9391#	  9392	  9395	  9397	  9398	  9411	  9412	  9420	  9421
	  9426	  9426#	  9427	  9430	  9432	  9433	  9446	  9447	  9455	  9456	  9461	  9461#	  9462	  9465
	  9467	  9468	  9481	  9482	  9490	  9491	  9496	  9496#	  9497	  9500	  9502	  9503	  9516	  9517
	  9525	  9526	  9531	  9531#	  9532	  9535	  9537	  9538	  9551	  9552	  9560	  9561	  9566	  9566#
	  9567	  9570	  9572	  9573	  9586	  9587	  9595	  9596	  9601	  9601#	  9602	  9605	  9607	  9608
	  9621	  9622	  9630	  9631	  9636	  9636#	  9637	  9640	  9642	  9643	  9656	  9657	  9665	  9666
	  9671	  9671#	  9672	  9675	  9677	  9678	  9691	  9692	  9700	  9701	  9706	  9706#	  9707	  9710
	  9712	  9713	  9726	  9727	  9735	  9736	  9741	  9741#	  9742	  9745	  9747	  9748	  9761	  9762
	  9770	  9771	  9776	  9776#	  9777	  9780	  9782	  9783	  9796	  9797	  9805	  9806	  9811	  9811#
	  9812	  9815	  9817	  9818	  9831	  9832	  9840	  9841	  9846	  9846#	  9847	  9850	  9852	  9853
	  9866	  9867	  9875	  9876	  9881	  9881#	  9882	  9885	  9887	  9888	  9901	  9902	  9910	  9911
	  9916	  9916#	  9917	  9920	  9922	  9923	  9936	  9937	  9945	  9946	  9951	  9951#	  9952	  9955
	  9957	  9958	  9971	  9972	  9980	  9981	  9986	  9986#	  9987	  9990	  9992	  9993	 10006	 10007
	 10015	 10016	 10021	 10021#	 10022	 10025	 10028	 10041	 10042	 10050	 10051	 10061#	 10078	 10078#
	 10079	 10079#	 10082	 10084	 10085	 10094	 10095	 10113	 10113#	 10114	 10117	 10119	 10120	 10129
	 10130	 10148	 10148#	 10149	 10152	 10154	 10155	 10164	 10165	 10183	 10183#	 10184	 10187	 10189
	 10190	 10199	 10200	 10218	 10218#	 10219	 10222	 10224	 10225	 10234	 10235	 10253	 10253#	 10254
	 10257	 10259	 10260	 10269	 10270	 10288	 10288#	 10289	 10292	 10294	 10295	 10304	 10305	 10323
	 10323#	 10324	 10327	 10329	 10330	 10339	 10340	 10358	 10358#	 10359	 10362	 10364	 10365	 10374
	 10375	 10393	 10393#	 10394	 10397	 10399	 10400	 10409	 10410	 10428	 10428#	 10429	 10432	 10434
	 10435	 10444	 10445	 10463	 10463#	 10464	 10467	 10469	 10470	 10479	 10480	 10498	 10498#	 10499
	 10502	 10504	 10505	 10514	 10515	 10533	 10533#	 10534	 10537	 10539	 10540	 10549	 10550	 10568
	 10568#	 10569	 10572	 10574	 10575	 10584	 10585	 10603	 10603#	 10604	 10607	 10609	 10610	 10619
	 10620	 10638	 10638#	 10639	 10642	 10644	 10645	 10654	 10655	 10673	 10673#	 10674	 10677	 10679
	 10680	 10689	 10690	 10708	 10708#	 10709	 10712	 10714	 10715	 10724	 10725	 10743	 10743#	 10744
	 10747	 10749	 10750	 10759	 10760	 10778	 10778#	 10779	 10782	 10784	 10785	 10794	 10795	 10813
	 10813#	 10814	 10817	 10819	 10820	 10829	 10830	 10848	 10848#	 10849	 10852	 10854	 10855	 10864
	 10865	 10883	 10883#	 10884	 10887	 10889	 10890	 10899	 10900	 10918	 10918#	 10919	 10922	 10924     SEQ 0387
	 10925	 10934	 10935	 10953	 10953#	 10954	 10957	 10959	 10960	 10969	 10970	 10988	 10988#	 10989
	 10992	 10994	 10995	 11004	 11005	 11023	 11023#	 11024	 11027	 11029	 11030	 11039	 11040	 11058
	 11058#	 11059	 11062	 11064	 11065	 11074	 11075	 11093	 11093#	 11094	 11097	 11099	 11100	 11109
	 11110	 11128	 11128#	 11129	 11132	 11134	 11135	 11144	 11145	 11163	 11163#	 11164	 11167	 11169
	 11170	 11179	 11180	 11198	 11198#	 11199	 11202	 11204	 11205	 11214	 11215	 11233	 11233#	 11234
	 11237	 11239	 11240	 11249	 11250	 11268	 11268#	 11269	 11272	 11274	 11275	 11284	 11285	 11303
	 11303#	 11304	 11307	 11310	 11319	 11320	 11343#	 11356	 11356#	 11357	 11357#	 11360	 11361	 11372
	 11373	 11378	 11379	 11381	 11382	 11387	 11387#	 11388	 11391	 11392	 11403	 11404	 11409	 11410
	 11412	 11413	 11418	 11418#	 11419	 11422	 11423	 11434	 11435	 11440	 11441	 11443	 11444	 11449
	 11449#	 11450	 11453	 11454	 11465	 11466	 11471	 11472	 11474	 11475	 11480	 11480#	 11481	 11484
	 11485	 11496	 11497	 11502	 11503	 11505	 11506	 11511	 11511#	 11512	 11515	 11516	 11527	 11528
	 11533	 11534	 11536	 11537	 11542	 11542#	 11543	 11546	 11547	 11558	 11559	 11564	 11565	 11567
	 11568	 11573	 11573#	 11574	 11577	 11578	 11589	 11590	 11595	 11596	 11598	 11599	 11604	 11604#
	 11605	 11608	 11609	 11620	 11621	 11626	 11627	 11629	 11630	 11635	 11635#	 11636	 11639	 11640
	 11651	 11652	 11657	 11658	 11660	 11661	 11666	 11666#	 11667	 11670	 11671	 11682	 11683	 11688
	 11689	 11691	 11692	 11697	 11697#	 11698	 11701	 11702	 11713	 11714	 11719	 11720	 11722	 11723
	 11728	 11728#	 11729	 11732	 11733	 11744	 11745	 11750	 11751	 11753	 11754	 11759	 11759#	 11760
	 11763	 11764	 11775	 11776	 11781	 11782	 11784	 11785	 11790	 11790#	 11791	 11794	 11795	 11806
	 11807	 11812	 11813	 11815	 11816	 11821	 11821#	 11822	 11825	 11826	 11837	 11838	 11843	 11844
	 11846	 11847	 11852	 11852#	 11853	 11856	 11857	 11868	 11869	 11874	 11875	 11877	 11878	 11883
	 11883#	 11884	 11887	 11888	 11899	 11900	 11905	 11906	 11908	 11909	 11914	 11914#	 11915	 11918
	 11919	 11930	 11931	 11936	 11937	 11939	 11940	 11945	 11945#	 11946	 11949	 11950	 11961	 11962
	 11967	 11968	 11970	 11971	 11976	 11976#	 11977	 11980	 11981	 11992	 11993	 11998	 11999	 12001
	 12002	 12007	 12007#	 12008	 12011	 12012	 12023	 12024	 12029	 12030	 12032	 12033	 12038	 12038#
	 12039	 12042	 12043	 12054	 12055	 12060	 12061	 12063	 12064	 12069	 12069#	 12070	 12073	 12074
	 12085	 12086	 12091	 12092	 12094	 12095	 12100	 12100#	 12101	 12104	 12105	 12116	 12117	 12122
	 12123	 12125	 12126	 12131	 12131#	 12132	 12135	 12136	 12147	 12148	 12153	 12154	 12156	 12157
	 12162	 12162#	 12163	 12166	 12167	 12178	 12179	 12184	 12185	 12187	 12188	 12193	 12193#	 12194
	 12197	 12198	 12209	 12210	 12215	 12216	 12218	 12219	 12224	 12224#	 12225	 12228	 12229	 12240
	 12241	 12246	 12247	 12249	 12250	 12255	 12255#	 12256	 12259	 12260	 12271	 12272	 12277	 12278
	 12280	 12281	 12286	 12286#	 12287	 12290	 12291	 12302	 12303	 12308	 12309	 12311	 12312	 12317
	 12317#	 12318	 12321	 12322	 12333	 12334	 12339	 12340	 12342	 12343	 12348	 12348#	 12349	 12352
	 12353	 12364	 12365	 12370	 12371	 12373	 12374	 12379	 12379#	 12380	 12383	 12384	 12395	 12396
	 12401	 12402	 12404	 12405	 12410	 12410#	 12411	 12414	 12415	 12426	 12427	 12432	 12433	 12435
	 12436	 12441	 12441#	 12442	 12445	 12446	 12457	 12458	 12463	 12464	 12466	 12467	 12477#	 12490
	 12490#	 12491	 12491#	 12494	 12495	 12502	 12503	 12512	 12513	 12521	 12521#	 12522	 12525	 12526
	 12533	 12534	 12543	 12544	 12552	 12552#	 12553	 12556	 12557	 12564	 12565	 12574	 12575	 12583
	 12583#	 12584	 12587	 12588	 12595	 12596	 12605	 12606	 12614	 12614#	 12615	 12618	 12619	 12626
	 12627	 12636	 12637	 12645	 12645#	 12646	 12649	 12650	 12657	 12658	 12667	 12668	 12676	 12676#
	 12677	 12680	 12681	 12688	 12689	 12698	 12699	 12707	 12707#	 12708	 12711	 12712	 12719	 12720
	 12729	 12730	 12738	 12738#	 12739	 12742	 12743	 12750	 12751	 12760	 12761	 12769	 12769#	 12770
	 12773	 12774	 12781	 12782	 12791	 12792	 12800	 12800#	 12801	 12804	 12805	 12812	 12813	 12822
	 12823	 12831	 12831#	 12832	 12835	 12836	 12843	 12844	 12853	 12854	 12862	 12862#	 12863	 12866
	 12867	 12874	 12875	 12884	 12885	 12893	 12893#	 12894	 12897	 12898	 12905	 12906	 12915	 12916
	 12924	 12924#	 12925	 12928	 12929	 12936	 12937	 12946	 12947	 12955	 12955#	 12956	 12959	 12960
	 12967	 12968	 12977	 12978	 12986	 12986#	 12987	 12990	 12991	 12998	 12999	 13008	 13009	 13017
	 13017#	 13018	 13021	 13022	 13029	 13030	 13039	 13040	 13048	 13048#	 13049	 13052	 13053	 13060
	 13061	 13070	 13071	 13079	 13079#	 13080	 13083	 13084	 13091	 13092	 13101	 13102	 13110	 13110#
	 13111	 13114	 13115	 13122	 13123	 13132	 13133	 13141	 13141#	 13142	 13145	 13146	 13153	 13154
	 13163	 13164	 13172	 13172#	 13173	 13176	 13177	 13184	 13185	 13194	 13195	 13203	 13203#	 13204
	 13207	 13208	 13215	 13216	 13225	 13226	 13234	 13234#	 13235	 13238	 13239	 13246	 13247	 13256
	 13257	 13265	 13265#	 13266	 13269	 13270	 13277	 13278	 13287	 13288	 13296	 13296#	 13297	 13300
	 13301	 13308	 13309	 13318	 13319	 13327	 13327#	 13328	 13331	 13332	 13339	 13340	 13349	 13350     SEQ 0388
	 13358	 13358#	 13359	 13362	 13363	 13370	 13371	 13380	 13381	 13389	 13389#	 13390	 13393	 13394
	 13401	 13402	 13411	 13412	 13420	 13420#	 13421	 13424	 13425	 13432	 13433	 13442	 13443	 13451
	 13451#	 13452	 13455	 13456	 13463	 13464	 13473	 13474	 13482	 13482#	 13483	 13486	 13487	 13494
	 13495	 13504	 13505	 13513	 13513#	 13514	 13517	 13518	 13525	 13526	 13535	 13536	 13544	 13544#
	 13545	 13548	 13549	 13556	 13557	 13566	 13567	 13575	 13575#	 13576	 13579	 13580	 13587	 13588
	 13597	 13598	 13611#	 13625	 13625#	 13626	 13626#	 13629	 13630	 13631	 13642	 13643	 13651	 13652
	 13657	 13657#	 13658	 13661	 13662	 13663	 13674	 13675	 13683	 13684	 13689	 13689#	 13690	 13693
	 13694	 13695	 13706	 13707	 13715	 13716	 13721	 13721#	 13722	 13725	 13726	 13727	 13738	 13739
	 13747	 13748	 13753	 13753#	 13754	 13757	 13758	 13759	 13770	 13771	 13779	 13780	 13785	 13785#
	 13786	 13789	 13790	 13791	 13802	 13803	 13811	 13812	 13817	 13817#	 13818	 13821	 13822	 13823
	 13834	 13835	 13843	 13844	 13849	 13849#	 13850	 13853	 13854	 13855	 13866	 13867	 13875	 13876
	 13881	 13881#	 13882	 13885	 13886	 13887	 13898	 13899	 13907	 13908	 13913	 13913#	 13914	 13917
	 13918	 13919	 13930	 13931	 13939	 13940	 13945	 13945#	 13946	 13949	 13950	 13951	 13962	 13963
	 13971	 13972	 13977	 13977#	 13978	 13981	 13982	 13983	 13994	 13995	 14003	 14004	 14009	 14009#
	 14010	 14013	 14014	 14015	 14026	 14027	 14035	 14036	 14041	 14041#	 14042	 14045	 14046	 14047
	 14058	 14059	 14067	 14068	 14073	 14073#	 14074	 14077	 14078	 14079	 14090	 14091	 14099	 14100
	 14105	 14105#	 14106	 14109	 14110	 14111	 14122	 14123	 14131	 14132	 14137	 14137#	 14138	 14141
	 14142	 14143	 14154	 14155	 14163	 14164	 14169	 14169#	 14170	 14173	 14174	 14175	 14186	 14187
	 14195	 14196	 14201	 14201#	 14202	 14205	 14206	 14207	 14218	 14219	 14227	 14228	 14233	 14233#
	 14234	 14237	 14238	 14239	 14250	 14251	 14259	 14260	 14265	 14265#	 14266	 14269	 14270	 14271
	 14282	 14283	 14291	 14292	 14297	 14297#	 14298	 14301	 14302	 14303	 14314	 14315	 14323	 14324
	 14329	 14329#	 14330	 14333	 14334	 14335	 14346	 14347	 14355	 14356	 14361	 14361#	 14362	 14365
	 14366	 14367	 14378	 14379	 14387	 14388	 14393	 14393#	 14394	 14397	 14398	 14399	 14410	 14411
	 14419	 14420	 14425	 14425#	 14426	 14429	 14430	 14431	 14442	 14443	 14451	 14452	 14457	 14457#
	 14458	 14461	 14462	 14463	 14474	 14475	 14483	 14484	 14489	 14489#	 14490	 14493	 14494	 14495
	 14506	 14507	 14515	 14516	 14521	 14521#	 14522	 14525	 14526	 14527	 14538	 14539	 14547	 14548
	 14553	 14553#	 14554	 14557	 14558	 14559	 14570	 14571	 14579	 14580	 14585	 14585#	 14586	 14589
	 14590	 14591	 14602	 14603	 14611	 14612	 14617	 14617#	 14618	 14621	 14622	 14623	 14634	 14635
	 14643	 14644	 14649	 14649#	 14650	 14653	 14654	 14655	 14666	 14667	 14675	 14676	 14681	 14681#
	 14682	 14685	 14686	 14687	 14698	 14699	 14707	 14708	 14713	 14713#	 14714	 14717	 14718	 14719
	 14730	 14731	 14739	 14740	 14745	 14745#	 14746	 14749	 14750	 14751	 14762	 14763	 14771	 14772
	 14782#	 14796	 14796#	 14797	 14797#	 14800	 14801	 14802	 14809	 14810	 14828	 14828#	 14829	 14832
	 14833	 14834	 14841	 14842	 14860	 14860#	 14861	 14864	 14865	 14866	 14873	 14874	 14892	 14892#
	 14893	 14896	 14897	 14898	 14905	 14906	 14924	 14924#	 14925	 14928	 14929	 14930	 14937	 14938
	 14956	 14956#	 14957	 14960	 14961	 14962	 14969	 14970	 14988	 14988#	 14989	 14992	 14993	 14994
	 15001	 15002	 15020	 15020#	 15021	 15024	 15025	 15026	 15033	 15034	 15052	 15052#	 15053	 15056
	 15057	 15058	 15065	 15066	 15084	 15084#	 15085	 15088	 15089	 15090	 15097	 15098	 15116	 15116#
	 15117	 15120	 15121	 15122	 15129	 15130	 15148	 15148#	 15149	 15152	 15153	 15154	 15161	 15162
	 15180	 15180#	 15181	 15184	 15185	 15186	 15193	 15194	 15212	 15212#	 15213	 15216	 15217	 15218
	 15225	 15226	 15244	 15244#	 15245	 15248	 15249	 15250	 15257	 15258	 15276	 15276#	 15277	 15280
	 15281	 15282	 15289	 15290	 15308	 15308#	 15309	 15312	 15313	 15314	 15321	 15322	 15340	 15340#
	 15341	 15344	 15345	 15346	 15353	 15354	 15372	 15372#	 15373	 15376	 15377	 15378	 15385	 15386
	 15404	 15404#	 15405	 15408	 15409	 15410	 15417	 15418	 15436	 15436#	 15437	 15440	 15441	 15442
	 15449	 15450	 15468	 15468#	 15469	 15472	 15473	 15474	 15481	 15482	 15500	 15500#	 15501	 15504
	 15505	 15506	 15513	 15514	 15532	 15532#	 15533	 15536	 15537	 15538	 15545	 15546	 15564	 15564#
	 15565	 15568	 15569	 15570	 15577	 15578	 15596	 15596#	 15597	 15600	 15601	 15602	 15609	 15610
	 15628	 15628#	 15629	 15632	 15633	 15634	 15641	 15642	 15660	 15660#	 15661	 15664	 15665	 15666
	 15673	 15674	 15692	 15692#	 15693	 15696	 15697	 15698	 15705	 15706	 15724	 15724#	 15725	 15728
	 15729	 15730	 15737	 15738	 15756	 15756#	 15757	 15760	 15761	 15762	 15769	 15770	 15788	 15788#
	 15789	 15792	 15793	 15794	 15801	 15802	 15820	 15820#	 15821	 15824	 15825	 15826	 15833	 15834
	 15852	 15852#	 15853	 15856	 15857	 15858	 15865	 15866	 15884	 15884#	 15885	 15888	 15889	 15890
	 15897	 15898	 15916	 15916#	 15917	 15920	 15921	 15922	 15929	 15930	 15956#	 15977	 15977#	 15979
	 15980	 15980#	 15986	 15987	 15994	 15995	 16014	 16014#	 16016	 16017	 16023	 16024	 16031	 16032     SEQ 0389
	 16051	 16051#	 16053	 16054	 16060	 16061	 16068	 16069	 16088	 16088#	 16090	 16091	 16097	 16098
	 16105	 16106	 16125	 16125#	 16127	 16128	 16134	 16135	 16142	 16143	 16162	 16162#	 16164	 16165
	 16171	 16172	 16179	 16180	 16199	 16199#	 16201	 16202	 16208	 16209	 16216	 16217	 16236	 16236#
	 16238	 16239	 16245	 16246	 16253	 16254	 16273	 16273#	 16275	 16276	 16282	 16283	 16290	 16291
	 16310	 16310#	 16312	 16313	 16319	 16320	 16327	 16328	 16347	 16347#	 16349	 16350	 16356	 16357
	 16364	 16365	 16384	 16384#	 16386	 16387	 16393	 16394	 16401	 16402	 16421	 16421#	 16423	 16424
	 16430	 16431	 16438	 16439	 16458	 16458#	 16460	 16461	 16467	 16468	 16475	 16476	 16495	 16495#
	 16497	 16498	 16504	 16505	 16512	 16513	 16532	 16532#	 16534	 16535	 16541	 16542	 16549	 16550
	 16569	 16569#	 16571	 16572	 16578	 16579	 16586	 16587	 16606	 16606#	 16608	 16609	 16615	 16616
	 16623	 16624	 16643	 16643#	 16645	 16646	 16652	 16653	 16660	 16661	 16680	 16680#	 16682	 16683
	 16689	 16690	 16697	 16698	 16717	 16717#	 16719	 16720	 16726	 16727	 16734	 16735	 16754	 16754#
	 16756	 16757	 16763	 16764	 16771	 16772	 16791	 16791#	 16793	 16794	 16800	 16801	 16808	 16809
	 16828	 16828#	 16830	 16831	 16837	 16838	 16845	 16846	 16865	 16865#	 16867	 16868	 16874	 16875
	 16882	 16883	 16902	 16902#	 16904	 16905	 16911	 16912	 16919	 16920	 16939	 16939#	 16941	 16942
	 16948	 16949	 16956	 16957	 16976	 16976#	 16978	 16979	 16985	 16986	 16993	 16994	 17013	 17013#
	 17015	 17016	 17022	 17023	 17030	 17031	 17050	 17050#	 17052	 17053	 17059	 17060	 17067	 17068
	 17087	 17087#	 17089	 17090	 17096	 17097	 17104	 17105	 17124	 17124#	 17126	 17127	 17133	 17134
	 17141	 17142	 17161	 17161#	 17163	 17164	 17170	 17171	 17178	 17179	 17198	 17198#	 17200	 17201
	 17207	 17208	 17215	 17216	 17235	 17235#	 17237	 17238	 17244	 17245	 17252	 17253	 17272	 17272#
	 17274	 17275	 17281	 17282	 17289	 17290
ZZ	 15957#	 15978	 15978#	 15979#	 15984	 16015	 16015#	 16021	 16052	 16052#	 16058	 16089	 16089#	 16095
	 16126	 16126#	 16132	 16163	 16163#	 16169	 16200	 16200#	 16206	 16237	 16237#	 16243	 16274	 16274#
	 16280	 16311	 16311#	 16317	 16348	 16348#	 16354	 16385	 16385#	 16391	 16422	 16422#	 16428	 16459
	 16459#	 16465	 16496	 16496#	 16502	 16533	 16533#	 16539	 16570	 16570#	 16576	 16607	 16607#	 16613
	 16644	 16644#	 16650	 16681	 16681#	 16687	 16718	 16718#	 16724	 16755	 16755#	 16761	 16792	 16792#
	 16798	 16829	 16829#	 16835	 16866	 16866#	 16872	 16903	 16903#	 16909	 16940	 16940#	 16946	 16977
	 16977#	 16983	 17014	 17014#	 17020	 17051	 17051#	 17057	 17088	 17088#	 17094	 17125	 17125#	 17131
	 17162	 17162#	 17168	 17199	 17199#	 17205	 17236	 17236#	 17242	 17273	 17273#	 17279
$$MUUO	   680#
$$OUTE	   686#
$$TAX1	   698#
$$TAX2	   699#
$$TOGG	   692#
$$UUO	   669#
$ACC0	   507#
$ACF	 17409#
$BEND1	   477#
$BEND2	    71	   478#	 17462
$CHRIN	   568#
$CRLF	   570#
$DEVCH	   394#
$DSKUP	   447#
$DVOFF	   564#
$EMODE	   445#
$FFF	   572#
$IBUF	   620#
$INEXT	   622#
$INNM	   621#
$ITRHL	   488#
$ITRX1	   489#
$LPAPE	 17468
$MMAP	   448#
$MODVL	   443#                                                                                                            SEQ 0390
$MODVU	   444#
$OBUF	   611#
$ONETM	   471#
$OUTEX	   613#
$OUTNM	   612#
$PAPER	   394
$PARER	   495#
$PNAME	   441#
$PSHER	   499#
$PVER	   442#
$RSRTX	   491#
$RSRTY	   492#
$SPAG1	   511#
$START	   408#
$SVAPR	   509#
$SVPAG	   510#
$SVPI	   508#
$SVUPC	   514#	 17316	 17320	 17346
$SVUUO	   513#	 17325	 17357	 17385
$TABF	   571#
$TTCHR	   567#
$TWCNT	   563#
$TYPNB	   569#
$UMODE	   446#
$UORTX	   486#
$USRHL	   490#
$UUOER	   487#	   528
$VTF	   573#
%AC1F	 17410#
%ACS1A	 17327#	 17327	 17371
%ACTFL	   520#
%ACTUL	   521#
%ALF	 17415#
%AR1F	 17414#
%ARF	 17413#
%COREC	   519#
%CORFL	   518#
%DISCR	   522#
%E1F	 17412#
%EEF	 17416#
%EF	 17411#
%ER4X	 17391	 17396#
%ER5X	 17389	 17398#
%ER6X	 17387	 17400#
%ER7X	 17393#	 17397	 17399	 17401
%ERAC0	 17312#	 17312	 17328	 17362	 17452
%ERAC1	 17313#	 17313	 17329	 17440
%ERAC2	 17314#	 17314	 17439
%ERFST	 17335#	 17335	 17337
%ERHI1	   661#
%ERHI2	   662#
%ERHI3	   663#
%ERMOR	 17367	 17394	 17423#                                                                                            SEQ 0391
%ERMS1	 17332#	 17458
%ERMS2	 17355#
%ERMS3	 17373	 17380#
%ERRS1	 17324	 17426#	 17457
%ERRS2	 17439#
%ERRS4	 17331	 17455#
%ERRS5	 17443	 17447	 17452#
%ERRS6	 17450	 17460#
%FF	 17417#
%FLTTB	 17375	 17406#
%NODES	 17407#
.JB41	   394#
.JBAPR	   394#
.JBCNI	   394#
.JBDDT	   394#
.JBFF	   394#
.JBOPC	   394#
.JBREL	   394#
.JBREN	   394#
.JBSA	   394#
.JBSYM	   394#
.JBTPC	   394#
.JBUSY	   394#
.JBUUO	   394#
.JBVER	   394#

APRID	   394#
BCIO	   394#                                                                                                            SEQ 0392
BCIOB	   394#
BSIO	   394#
BSIOB	   394#
CFLUSH	   316#
CINVAL	   315#
CLOKOP	   310#
CLRPT	   394#
CWRTBI	   317#
DROPDV	   277#	   723
ENDUUO	   323#	   476
EOPUUO	   324#	   478
ER1	    34#
ER10	    41#
ER11	    42#
ER12	    43#
ER13	    44#
ER2	    35#
ER3	    36#	   778	   824	   853	   882	   911	   940	   969	   998	  1027	  1056	  1085	  1114	  1143
	  1172	  1201	  1230	  1259	  1288	  1317	  1346	  1375	  1404	  1433	  1462	  1491	  1520	  1549
	  1578	  1607	  1636	  1665	  1694	  1723	  1752	  1781	  1810	  1839	  1884	  1913	  1942	  1971
	  2000	  2029	  2058	  2087	  2116	  2145	  2174	  2203	  2232	  2261	  2290	  2319	  2348	  2377
	  2406	  2435	  2464	  2493	  2522	  2551	  2580	  2609	  2638	  2667	  2696	  2725	  2754	  2783
	  2812	  2841	  2870	  2899	  2932	  3000	  3039	  3078	  3117	  3156	  3195	  3234	  3273	  3312
	  3351	  3390	  3429	  3468	  3507	  3546	  3585	  3663	  3708	  3753	  3798	  3843	  3888	  3933
	  3978	  4023	  4068	  4113	  4158	  4203	  4248	  4293	  4338	  4385	  4414	  4443	  4472	  4501
	  4530	  4559	  4588	  4617	  4646	  4675	  4704	  4733	  4762	  4791	  4820	  4849	  4878	  4907
	  4936	  4965	  4994	  5023	  5052	  5081	  5110	  5139	  5168	  5197	  5226	  5255	  5284	  5313
	  5342	  5371	  5400	  5445	  5474	  5503	  5532	  5561	  5590	  5619	  5648	  5677	  5706	  5735
	  5764	  5793	  5822	  5851	  5880	  5909	  5938	  5967	  5996	  6025	  6054	  6083	  6112	  6141
	  6170	  6199	  6228	  6257	  6286	  6315	  6344	  6373	  6402	  6431	  6460	  6493	  6545	  6576
	  6607	  6638	  6669	  6700	  6731	  6762	  6793	  6824	  6855	  6886	  6917	  6948	  6979	  7010
	  7041	  7072	  7103	  7134	  7165	  7196	  7227	  7258	  7289	  7320	  7351	  7382	  7413	  7444
	  7475	  7506	  7537	  7568	  7599	  7630	  7679	  7710	  7741	  7772	  7803	  7834	  7865	  7896
	  7927	  7958	  7989	  8020	  8051	  8082	  8113	  8144	  8175	  8206	  8237	  8268	  8299	  8330
	  8361	  8392	  8423	  8454	  8485	  8516	  8547	  8578	  8609	  8640	  8671	  8702	  8733	  8764
	  8821	  8856	  8891	  8926	  8961	  8996	  9031	  9066	  9101	  9136	  9171	  9206	  9241	  9276
	  9311	  9346	  9381	  9416	  9451	  9486	  9521	  9556	  9591	  9626	  9661	  9696	  9731	  9766
	  9801	  9836	  9871	  9906	  9941	  9976	 10011	 10046	 10103	 10138	 10173	 10208	 10243	 10278
	 10313	 10348	 10383	 10418	 10453	 10488	 10523	 10558	 10593	 10628	 10663	 10698	 10733	 10768
	 10803	 10838	 10873	 10908	 10943	 10978	 11013	 11048	 11083	 11118	 11153	 11188	 11223	 11258
	 11293	 11328	 11377	 11408	 11439	 11470	 11501	 11532	 11563	 11594	 11625	 11656	 11687	 11718
	 11749	 11780	 11811	 11842	 11873	 11904	 11935	 11966	 11997	 12028	 12059	 12090	 12121	 12152
	 12183	 12214	 12245	 12276	 12307	 12338	 12369	 12400	 12431	 12462	 12511	 12542	 12573	 12604
	 12635	 12666	 12697	 12728	 12759	 12790	 12821	 12852	 12883	 12914	 12945	 12976	 13007	 13038
	 13069	 13100	 13131	 13162	 13193	 13224	 13255	 13286	 13317	 13348	 13379	 13410	 13441	 13472
	 13503	 13534	 13565	 13596	 13647	 13679	 13711	 13743	 13775	 13807	 13839	 13871	 13903	 13935
	 13967	 13999	 14031	 14063	 14095	 14127	 14159	 14191	 14223	 14255	 14287	 14319	 14351	 14383
	 14415	 14447	 14479	 14511	 14543	 14575	 14607	 14639	 14671	 14703	 14735	 14767	 14818	 14850
	 14882	 14914	 14946	 14978	 15010	 15042	 15074	 15106	 15138	 15170	 15202	 15234	 15266	 15298
	 15330	 15362	 15394	 15426	 15458	 15490	 15522	 15554	 15586	 15618	 15650	 15682	 15714	 15746
	 15778	 15810	 15842	 15874	 15906	 15938	 16003	 16040	 16077	 16114	 16151	 16188	 16225	 16262
	 16299	 16336	 16373	 16410	 16447	 16484	 16521	 16558	 16595	 16632	 16669	 16706	 16743	 16780
	 16817	 16854	 16891	 16928	 16965	 17002	 17039	 17076	 17113	 17150	 17187	 17224	 17261	 17298     SEQ 0393
ER4	    37#	   781	   827	   856	   885	   914	   943	   972	  1001	  1030	  1059	  1088	  1117	  1146
	  1175	  1204	  1233	  1262	  1291	  1320	  1349	  1378	  1407	  1436	  1465	  1494	  1523	  1552
	  1581	  1610	  1639	  1668	  1697	  1726	  1755	  1784	  1813	  1842	  1887	  1916	  1945	  1974
	  2003	  2032	  2061	  2090	  2119	  2148	  2177	  2206	  2235	  2264	  2293	  2322	  2351	  2380
	  2409	  2438	  2467	  2496	  2525	  2554	  2583	  2612	  2641	  2670	  2699	  2728	  2757	  2786
	  2815	  2844	  2873	  2902	  2935	  3003	  3042	  3081	  3120	  3159	  3198	  3237	  3276	  3315
	  3354	  3393	  3432	  3471	  3510	  3549	  3588	  3666	  3711	  3756	  3801	  3846	  3891	  3936
	  3981	  4026	  4071	  4116	  4161	  4206	  4251	  4296	  4341	  4388	  4417	  4446	  4475	  4504
	  4533	  4562	  4591	  4620	  4649	  4678	  4707	  4736	  4765	  4794	  4823	  4852	  4881	  4910
	  4939	  4968	  4997	  5026	  5055	  5084	  5113	  5142	  5171	  5200	  5229	  5258	  5287	  5316
	  5345	  5374	  5403	  5448	  5477	  5506	  5535	  5564	  5593	  5622	  5651	  5680	  5709	  5738
	  5767	  5796	  5825	  5854	  5883	  5912	  5941	  5970	  5999	  6028	  6057	  6086	  6115	  6144
	  6173	  6202	  6231	  6260	  6289	  6318	  6347	  6376	  6405	  6434	  6463	  6496	  6548	  6579
	  6610	  6641	  6672	  6703	  6734	  6765	  6796	  6827	  6858	  6889	  6920	  6951	  6982	  7013
	  7044	  7075	  7106	  7137	  7168	  7199	  7230	  7261	  7292	  7323	  7354	  7385	  7416	  7447
	  7478	  7509	  7540	  7571	  7602	  7633	  7682	  7713	  7744	  7775	  7806	  7837	  7868	  7899
	  7930	  7961	  7992	  8023	  8054	  8085	  8116	  8147	  8178	  8209	  8240	  8271	  8302	  8333
	  8364	  8395	  8426	  8457	  8488	  8519	  8550	  8581	  8612	  8643	  8674	  8705	  8736	  8767
	  8824	  8859	  8894	  8929	  8964	  8999	  9034	  9069	  9104	  9139	  9174	  9209	  9244	  9279
	  9314	  9349	  9384	  9419	  9454	  9489	  9524	  9559	  9594	  9629	  9664	  9699	  9734	  9769
	  9804	  9839	  9874	  9909	  9944	  9979	 10014	 10049	 10106	 10141	 10176	 10211	 10246	 10281
	 10316	 10351	 10386	 10421	 10456	 10491	 10526	 10561	 10596	 10631	 10666	 10701	 10736	 10771
	 10806	 10841	 10876	 10911	 10946	 10981	 11016	 11051	 11086	 11121	 11156	 11191	 11226	 11261
	 11296	 11331	 11380	 11411	 11442	 11473	 11504	 11535	 11566	 11597	 11628	 11659	 11690	 11721
	 11752	 11783	 11814	 11845	 11876	 11907	 11938	 11969	 12000	 12031	 12062	 12093	 12124	 12155
	 12186	 12217	 12248	 12279	 12310	 12341	 12372	 12403	 12434	 12465	 12514	 12545	 12576	 12607
	 12638	 12669	 12700	 12731	 12762	 12793	 12824	 12855	 12886	 12917	 12948	 12979	 13010	 13041
	 13072	 13103	 13134	 13165	 13196	 13227	 13258	 13289	 13320	 13351	 13382	 13413	 13444	 13475
	 13506	 13537	 13568	 13599	 13650	 13682	 13714	 13746	 13778	 13810	 13842	 13874	 13906	 13938
	 13970	 14002	 14034	 14066	 14098	 14130	 14162	 14194	 14226	 14258	 14290	 14322	 14354	 14386
	 14418	 14450	 14482	 14514	 14546	 14578	 14610	 14642	 14674	 14706	 14738	 14770	 14821	 14853
	 14885	 14917	 14949	 14981	 15013	 15045	 15077	 15109	 15141	 15173	 15205	 15237	 15269	 15301
	 15333	 15365	 15397	 15429	 15461	 15493	 15525	 15557	 15589	 15621	 15653	 15685	 15717	 15749
	 15781	 15813	 15845	 15877	 15909	 15941	 16006	 16043	 16080	 16117	 16154	 16191	 16228	 16265
	 16302	 16339	 16376	 16413	 16450	 16487	 16524	 16561	 16598	 16635	 16672	 16709	 16746	 16783
	 16820	 16857	 16894	 16931	 16968	 17005	 17042	 17079	 17116	 17153	 17190	 17227	 17264	 17301
ER5	    38#	   784	   830	   859	   888	   917	   946	   975	  1004	  1033	  1062	  1091	  1120	  1149
	  1178	  1207	  1236	  1265	  1294	  1323	  1352	  1381	  1410	  1439	  1468	  1497	  1526	  1555
	  1584	  1613	  1642	  1671	  1700	  1729	  1758	  1787	  1816	  1845	  1890	  1919	  1948	  1977
	  2006	  2035	  2064	  2093	  2122	  2151	  2180	  2209	  2238	  2267	  2296	  2325	  2354	  2383
	  2412	  2441	  2470	  2499	  2528	  2557	  2586	  2615	  2644	  2673	  2702	  2731	  2760	  2789
	  2818	  2847	  2876	  2905	  2938	  3006	  3045	  3084	  3123	  3162	  3201	  3240	  3279	  3318
	  3357	  3396	  3435	  3474	  3513	  3552	  3591	  3669	  3714	  3759	  3804	  3849	  3894	  3939
	  3984	  4029	  4074	  4119	  4164	  4209	  4254	  4299	  4344	  4391	  4420	  4449	  4478	  4507
	  4536	  4565	  4594	  4623	  4652	  4681	  4710	  4739	  4768	  4797	  4826	  4855	  4884	  4913
	  4942	  4971	  5000	  5029	  5058	  5087	  5116	  5145	  5174	  5203	  5232	  5261	  5290	  5319
	  5348	  5377	  5406	  5451	  5480	  5509	  5538	  5567	  5596	  5625	  5654	  5683	  5712	  5741
	  5770	  5799	  5828	  5857	  5886	  5915	  5944	  5973	  6002	  6031	  6060	  6089	  6118	  6147
	  6176	  6205	  6234	  6263	  6292	  6321	  6350	  6379	  6408	  6437	  6466	  6499	  6551	  6582
	  6613	  6644	  6675	  6706	  6737	  6768	  6799	  6830	  6861	  6892	  6923	  6954	  6985	  7016
	  7047	  7078	  7109	  7140	  7171	  7202	  7233	  7264	  7295	  7326	  7357	  7388	  7419	  7450
	  7481	  7512	  7543	  7574	  7605	  7636	  7685	  7716	  7747	  7778	  7809	  7840	  7871	  7902
	  7933	  7964	  7995	  8026	  8057	  8088	  8119	  8150	  8181	  8212	  8243	  8274	  8305	  8336     SEQ 0394
	  8367	  8398	  8429	  8460	  8491	  8522	  8553	  8584	  8615	  8646	  8677	  8708	  8739	  8770
	  8827	  8862	  8897	  8932	  8967	  9002	  9037	  9072	  9107	  9142	  9177	  9212	  9247	  9282
	  9317	  9352	  9387	  9422	  9457	  9492	  9527	  9562	  9597	  9632	  9667	  9702	  9737	  9772
	  9807	  9842	  9877	  9912	  9947	  9982	 10017	 10052	 10109	 10144	 10179	 10214	 10249	 10284
	 10319	 10354	 10389	 10424	 10459	 10494	 10529	 10564	 10599	 10634	 10669	 10704	 10739	 10774
	 10809	 10844	 10879	 10914	 10949	 10984	 11019	 11054	 11089	 11124	 11159	 11194	 11229	 11264
	 11299	 11334	 11383	 11414	 11445	 11476	 11507	 11538	 11569	 11600	 11631	 11662	 11693	 11724
	 11755	 11786	 11817	 11848	 11879	 11910	 11941	 11972	 12003	 12034	 12065	 12096	 12127	 12158
	 12189	 12220	 12251	 12282	 12313	 12344	 12375	 12406	 12437	 12468	 12517	 12548	 12579	 12610
	 12641	 12672	 12703	 12734	 12765	 12796	 12827	 12858	 12889	 12920	 12951	 12982	 13013	 13044
	 13075	 13106	 13137	 13168	 13199	 13230	 13261	 13292	 13323	 13354	 13385	 13416	 13447	 13478
	 13509	 13540	 13571	 13602	 13653	 13685	 13717	 13749	 13781	 13813	 13845	 13877	 13909	 13941
	 13973	 14005	 14037	 14069	 14101	 14133	 14165	 14197	 14229	 14261	 14293	 14325	 14357	 14389
	 14421	 14453	 14485	 14517	 14549	 14581	 14613	 14645	 14677	 14709	 14741	 14773	 14824	 14856
	 14888	 14920	 14952	 14984	 15016	 15048	 15080	 15112	 15144	 15176	 15208	 15240	 15272	 15304
	 15336	 15368	 15400	 15432	 15464	 15496	 15528	 15560	 15592	 15624	 15656	 15688	 15720	 15752
	 15784	 15816	 15848	 15880	 15912	 15944	 16009	 16046	 16083	 16120	 16157	 16194	 16231	 16268
	 16305	 16342	 16379	 16416	 16453	 16490	 16527	 16564	 16601	 16638	 16675	 16712	 16749	 16786
	 16823	 16860	 16897	 16934	 16971	 17008	 17045	 17082	 17119	 17156	 17193	 17230	 17267	 17304
ER6	    39#
ER7	    40#
ERLOOP	   364#
ERLP1	   365#
ERLP2	   366#
ERRHLT	   211#	 17433
ERROR	   373#
ERROR1	   384#
ERUUO	   363#
FATAL	   210#
FRD36	   352#
FRD8	   353#
FREAD	   351#
FSELEC	   350#
GET	   194#
GO	   191#
HALT	   196#	   497
JEN	   198#
JRSTF	   197#
MAPADR	   333#
MAPCNK	   334#
MAPMEM	   330#
MAPPNT	   336#
MAPSET	   335#
MEMSEG	   332#
MEMZRO	   331#
MODPCP	   343#
MODPCU	   342#
MOP1	    97#	   763	   809	   838	   867	   896	   925	   954	   983	  1012	  1041	  1070	  1099	  1128
	  1157	  1186	  1215	  1244	  1273	  1302	  1331	  1360	  1389	  1418	  1447	  1476	  1505	  1534
	  1563	  1592	  1621	  1650	  1679	  1708	  1737	  1766	  1795	  1824	  1869	  1898	  1927	  1956
	  1985	  2014	  2043	  2072	  2101	  2130	  2159	  2188	  2217	  2246	  2275	  2304	  2333	  2362
	  2391	  2420	  2449	  2478	  2507	  2536	  2565	  2594	  2623	  2652	  2681	  2710	  2739	  2768
	  2797	  2826	  2855	  2884	  2917	  2985	  3024	  3063	  3102	  3141	  3180	  3219	  3258	  3297     SEQ 0395
	  3336	  3375	  3414	  3453	  3492	  3531	  3570	  3648	  3693	  3738	  3783	  3828	  3873	  3918
	  3963	  4008	  4053	  4098	  4143	  4188	  4233	  4278	  4323	  4370	  4399	  4428	  4457	  4486
	  4515	  4544	  4573	  4602	  4631	  4660	  4689	  4718	  4747	  4776	  4805	  4834	  4863	  4892
	  4921	  4950	  4979	  5008	  5037	  5066	  5095	  5124	  5153	  5182	  5211	  5240	  5269	  5298
	  5327	  5356	  5385	  5430	  5459	  5488	  5517	  5546	  5575	  5604	  5633	  5662	  5691	  5720
	  5749	  5778	  5807	  5836	  5865	  5894	  5923	  5952	  5981	  6010	  6039	  6068	  6097	  6126
	  6155	  6184	  6213	  6242	  6271	  6300	  6329	  6358	  6387	  6416	  6445	  6478	  6530	  6561
	  6592	  6623	  6654	  6685	  6716	  6747	  6778	  6809	  6840	  6871	  6902	  6933	  6964	  6995
	  7026	  7057	  7088	  7119	  7150	  7181	  7212	  7243	  7274	  7305	  7336	  7367	  7398	  7429
	  7460	  7491	  7522	  7553	  7584	  7615	  7664	  7695	  7726	  7757	  7788	  7819	  7850	  7881
	  7912	  7943	  7974	  8005	  8036	  8067	  8098	  8129	  8160	  8191	  8222	  8253	  8284	  8315
	  8346	  8377	  8408	  8439	  8470	  8501	  8532	  8563	  8594	  8625	  8656	  8687	  8718	  8749
	  8806	  8841	  8876	  8911	  8946	  8981	  9016	  9051	  9086	  9121	  9156	  9191	  9226	  9261
	  9296	  9331	  9366	  9401	  9436	  9471	  9506	  9541	  9576	  9611	  9646	  9681	  9716	  9751
	  9786	  9821	  9856	  9891	  9926	  9961	  9996	 10031	 10088	 10123	 10158	 10193	 10228	 10263
	 10298	 10333	 10368	 10403	 10438	 10473	 10508	 10543	 10578	 10613	 10648	 10683	 10718	 10753
	 10788	 10823	 10858	 10893	 10928	 10963	 10998	 11033	 11068	 11103	 11138	 11173	 11208	 11243
	 11278	 11313	 11362	 11393	 11424	 11455	 11486	 11517	 11548	 11579	 11610	 11641	 11672	 11703
	 11734	 11765	 11796	 11827	 11858	 11889	 11920	 11951	 11982	 12013	 12044	 12075	 12106	 12137
	 12168	 12199	 12230	 12261	 12292	 12323	 12354	 12385	 12416	 12447	 12496	 12527	 12558	 12589
	 12620	 12651	 12682	 12713	 12744	 12775	 12806	 12837	 12868	 12899	 12930	 12961	 12992	 13023
	 13054	 13085	 13116	 13147	 13178	 13209	 13240	 13271	 13302	 13333	 13364	 13395	 13426	 13457
	 13488	 13519	 13550	 13581	 13632	 13664	 13696	 13728	 13760	 13792	 13824	 13856	 13888	 13920
	 13952	 13984	 14016	 14048	 14080	 14112	 14144	 14176	 14208	 14240	 14272	 14304	 14336	 14368
	 14400	 14432	 14464	 14496	 14528	 14560	 14592	 14624	 14656	 14688	 14720	 14752	 14803	 14835
	 14867	 14899	 14931	 14963	 14995	 15027	 15059	 15091	 15123	 15155	 15187	 15219	 15251	 15283
	 15315	 15347	 15379	 15411	 15443	 15475	 15507	 15539	 15571	 15603	 15635	 15667	 15699	 15731
	 15763	 15795	 15827	 15859	 15891	 15923	 15988	 16025	 16062	 16099	 16136	 16173	 16210	 16247
	 16284	 16321	 16358	 16395	 16432	 16469	 16506	 16543	 16580	 16617	 16654	 16691	 16728	 16765
	 16802	 16839	 16876	 16913	 16950	 16987	 17024	 17061	 17098	 17135	 17172	 17209	 17246	 17283
MTROP	   311#
NAME	     8#	    11
PBELL	   286#	 17437
PCRL	   280#	 17374	 17393
PCRL2	   284#
PCRL2F	   285#
PCRLF	   281#
PFORCE	   288#
PGMINT	   204#	   745
PJRST	   195#
PMSG	   290#	 17340	 17344	 17355	 17380
PMSGF	   293#	 17460
PNT1	   246#
PNT11	   260#
PNT11F	   261#
PNT1F	   247#
PNT2	   248#
PNT2F	   249#
PNT3	   250#	 17392
PNT3F	   251#
PNT4	   252#	 17396
PNT4F	   253#
PNT5	   254#	 17398                                                                                                     SEQ 0396
PNT5F	   255#
PNT6	   256#	 17348	 17400
PNT6F	   257#
PNT7	   258#
PNT7F	   259#
PNTA	   232#	 17383
PNTADF	   263#
PNTADR	   262#
PNTAF	   233#
PNTAL	   234#	 17376
PNTALF	   235#
PNTCHF	   245#
PNTCHR	   244#
PNTCI	   242#
PNTCIF	   243#
PNTCW	   278#
PNTCWF	   279#
PNTDCF	   271#
PNTDEC	   270#	 17343
PNTDS	   272#
PNTDSF	   273#
PNTHW	   266#	 17363
PNTHWF	   267#
PNTMSF	   239#
PNTMSG	   238#
PNTNM	   274#	 17336
PNTOCF	   269#
PNTOCS	   268#
PNTOCT	   264#
PNTOTF	   265#
PNTSIX	   275#
PNTSXF	   276#
PSIXL	   236#
PSIXLF	   237#
PSIXM	   240#	 17341	 17345	 17356	 17381
PSIXMF	   241#	 17461
PSP	   282#
PSPF	   283#
PUT	   193#
RDAPR	   394#
RDCSB	   394#
RDCSTM	   394#
RDEBR	   394#
RDHSB	   394#
RDINT	   394#
RDIO	   394#
RDIOB	   394#
RDPI	   394#
RDPUR	   394#
RDSPB	   394#
RDTIM	   394#
RDUBR	   394#
REPTUO	   367#                                                                                                            SEQ 0397
RTN	   192#	   484
S	   122#	   124	   128	   157	   159	   168	   171	   186	   187	   189	   200	   202	   206	   208
	   213	   217	   359	   361	   394	   399	   405	   432	   434	   452	   454	   472	   474	   503
	   505	   523	   525	   543	   545	   553	   555	   576	   581	   607	   609	   616	   618	   624
	   626	   632	   634	   638	   640	   645	   647	   651	   653	   657	   659	   665	   667	   670
	   672	   676	   678	   682	   684	   688	   690	   694	   696	   701	   703	   707	   709	   713
	   715	   717	   719
SAVEAC	    92#	   756	   789	  1849	  2910	  2944	  3595	  4350	  5410	  6470	  6505	  7640	  8774	 10056
	 11338	 12472	 13606	 14777	 15950
SIXBTZ	   299#
SWITCH	   305#	 17322	 17424
TIOE	   394#
TIOEB	   394#
TION	   394#
TIONB	   394#
TTALTM	   226#	 17426
TTICHR	   219#
TTICLR	   229#
TTICNV	   224#
TTIDEC	   223#
TTINO	   221#
TTIOCT	   222#
TTIYES	   220#
TTLOOK	   225#
TTSIXB	   227#
TTYINP	   228#
WRAPR	   394#
WRCSB	   394#
WRCSTM	   394#
WREBR	   394#
WRHSB	   394#
WRINT	   394#
WRIO	   394#
WRIOB	   394#
WRPI	   394#
WRPUR	   394#
WRSPB	   394#
WRTIM	   394#
WRUBR	   394#

ANDI	 17359
AOS	   482	 17315	 17318	 17444	 17445                                                                             SEQ 0398
ASCII	   583	   585	   588	   589	   590	   591	   593	   594	   595	   596	   597	   598	   600	   601
	   602
ASCIZ	   726	   746	 17409	 17410	 17411	 17412	 17413	 17414	 17415	 17416	 17417
BLOCK	   551	   611	   614	   620	   623	   629	 17743
BYTE	   599
CAIG	 17361	 17372
CAIL	 17449
CAME	   777	   780	   783	   823	   826	   829	   852	   855	   858	   881	   884	   887	   910	   913
	   916	   939	   942	   945	   968	   971	   974	   997	  1000	  1003	  1026	  1029	  1032	  1055
	  1058	  1061	  1084	  1087	  1090	  1113	  1116	  1119	  1142	  1145	  1148	  1171	  1174	  1177
	  1200	  1203	  1206	  1229	  1232	  1235	  1258	  1261	  1264	  1287	  1290	  1293	  1316	  1319
	  1322	  1345	  1348	  1351	  1374	  1377	  1380	  1403	  1406	  1409	  1432	  1435	  1438	  1461
	  1464	  1467	  1490	  1493	  1496	  1519	  1522	  1525	  1548	  1551	  1554	  1577	  1580	  1583
	  1606	  1609	  1612	  1635	  1638	  1641	  1664	  1667	  1670	  1693	  1696	  1699	  1722	  1725
	  1728	  1751	  1754	  1757	  1780	  1783	  1786	  1809	  1812	  1815	  1838	  1841	  1844	  1883
	  1886	  1889	  1912	  1915	  1918	  1941	  1944	  1947	  1970	  1973	  1976	  1999	  2002	  2005
	  2028	  2031	  2034	  2057	  2060	  2063	  2086	  2089	  2092	  2115	  2118	  2121	  2144	  2147
	  2150	  2173	  2176	  2179	  2202	  2205	  2208	  2231	  2234	  2237	  2260	  2263	  2266	  2289
	  2292	  2295	  2318	  2321	  2324	  2347	  2350	  2353	  2376	  2379	  2382	  2405	  2408	  2411
	  2434	  2437	  2440	  2463	  2466	  2469	  2492	  2495	  2498	  2521	  2524	  2527	  2550	  2553
	  2556	  2579	  2582	  2585	  2608	  2611	  2614	  2637	  2640	  2643	  2666	  2669	  2672	  2695
	  2698	  2701	  2724	  2727	  2730	  2753	  2756	  2759	  2782	  2785	  2788	  2811	  2814	  2817
	  2840	  2843	  2846	  2869	  2872	  2875	  2898	  2901	  2904	  2931	  2934	  2937	  2999	  3002
	  3005	  3038	  3041	  3044	  3077	  3080	  3083	  3116	  3119	  3122	  3155	  3158	  3161	  3194
	  3197	  3200	  3233	  3236	  3239	  3272	  3275	  3278	  3311	  3314	  3317	  3350	  3353	  3356
	  3389	  3392	  3395	  3428	  3431	  3434	  3467	  3470	  3473	  3506	  3509	  3512	  3545	  3548
	  3551	  3584	  3587	  3590	  3662	  3665	  3668	  3707	  3710	  3713	  3752	  3755	  3758	  3797
	  3800	  3803	  3842	  3845	  3848	  3887	  3890	  3893	  3932	  3935	  3938	  3977	  3980	  3983
	  4022	  4025	  4028	  4067	  4070	  4073	  4112	  4115	  4118	  4157	  4160	  4163	  4202	  4205
	  4208	  4247	  4250	  4253	  4292	  4295	  4298	  4337	  4340	  4343	  4384	  4387	  4390	  4413
	  4416	  4419	  4442	  4445	  4448	  4471	  4474	  4477	  4500	  4503	  4506	  4529	  4532	  4535
	  4558	  4561	  4564	  4587	  4590	  4593	  4616	  4619	  4622	  4645	  4648	  4651	  4674	  4677
	  4680	  4703	  4706	  4709	  4732	  4735	  4738	  4761	  4764	  4767	  4790	  4793	  4796	  4819
	  4822	  4825	  4848	  4851	  4854	  4877	  4880	  4883	  4906	  4909	  4912	  4935	  4938	  4941
	  4964	  4967	  4970	  4993	  4996	  4999	  5022	  5025	  5028	  5051	  5054	  5057	  5080	  5083
	  5086	  5109	  5112	  5115	  5138	  5141	  5144	  5167	  5170	  5173	  5196	  5199	  5202	  5225
	  5228	  5231	  5254	  5257	  5260	  5283	  5286	  5289	  5312	  5315	  5318	  5341	  5344	  5347
	  5370	  5373	  5376	  5399	  5402	  5405	  5444	  5447	  5450	  5473	  5476	  5479	  5502	  5505
	  5508	  5531	  5534	  5537	  5560	  5563	  5566	  5589	  5592	  5595	  5618	  5621	  5624	  5647
	  5650	  5653	  5676	  5679	  5682	  5705	  5708	  5711	  5734	  5737	  5740	  5763	  5766	  5769
	  5792	  5795	  5798	  5821	  5824	  5827	  5850	  5853	  5856	  5879	  5882	  5885	  5908	  5911
	  5914	  5937	  5940	  5943	  5966	  5969	  5972	  5995	  5998	  6001	  6024	  6027	  6030	  6053
	  6056	  6059	  6082	  6085	  6088	  6111	  6114	  6117	  6140	  6143	  6146	  6169	  6172	  6175
	  6198	  6201	  6204	  6227	  6230	  6233	  6256	  6259	  6262	  6285	  6288	  6291	  6314	  6317
	  6320	  6343	  6346	  6349	  6372	  6375	  6378	  6401	  6404	  6407	  6430	  6433	  6436	  6459
	  6462	  6465	  6492	  6495	  6498	  6544	  6547	  6550	  6575	  6578	  6581	  6606	  6609	  6612
	  6637	  6640	  6643	  6668	  6671	  6674	  6699	  6702	  6705	  6730	  6733	  6736	  6761	  6764
	  6767	  6792	  6795	  6798	  6823	  6826	  6829	  6854	  6857	  6860	  6885	  6888	  6891	  6916
	  6919	  6922	  6947	  6950	  6953	  6978	  6981	  6984	  7009	  7012	  7015	  7040	  7043	  7046
	  7071	  7074	  7077	  7102	  7105	  7108	  7133	  7136	  7139	  7164	  7167	  7170	  7195	  7198
	  7201	  7226	  7229	  7232	  7257	  7260	  7263	  7288	  7291	  7294	  7319	  7322	  7325	  7350
	  7353	  7356	  7381	  7384	  7387	  7412	  7415	  7418	  7443	  7446	  7449	  7474	  7477	  7480
	  7505	  7508	  7511	  7536	  7539	  7542	  7567	  7570	  7573	  7598	  7601	  7604	  7629	  7632     SEQ 0399
	  7635	  7678	  7681	  7684	  7709	  7712	  7715	  7740	  7743	  7746	  7771	  7774	  7777	  7802
	  7805	  7808	  7833	  7836	  7839	  7864	  7867	  7870	  7895	  7898	  7901	  7926	  7929	  7932
	  7957	  7960	  7963	  7988	  7991	  7994	  8019	  8022	  8025	  8050	  8053	  8056	  8081	  8084
	  8087	  8112	  8115	  8118	  8143	  8146	  8149	  8174	  8177	  8180	  8205	  8208	  8211	  8236
	  8239	  8242	  8267	  8270	  8273	  8298	  8301	  8304	  8329	  8332	  8335	  8360	  8363	  8366
	  8391	  8394	  8397	  8422	  8425	  8428	  8453	  8456	  8459	  8484	  8487	  8490	  8515	  8518
	  8521	  8546	  8549	  8552	  8577	  8580	  8583	  8608	  8611	  8614	  8639	  8642	  8645	  8670
	  8673	  8676	  8701	  8704	  8707	  8732	  8735	  8738	  8763	  8766	  8769	  8820	  8823	  8826
	  8855	  8858	  8861	  8890	  8893	  8896	  8925	  8928	  8931	  8960	  8963	  8966	  8995	  8998
	  9001	  9030	  9033	  9036	  9065	  9068	  9071	  9100	  9103	  9106	  9135	  9138	  9141	  9170
	  9173	  9176	  9205	  9208	  9211	  9240	  9243	  9246	  9275	  9278	  9281	  9310	  9313	  9316
	  9345	  9348	  9351	  9380	  9383	  9386	  9415	  9418	  9421	  9450	  9453	  9456	  9485	  9488
	  9491	  9520	  9523	  9526	  9555	  9558	  9561	  9590	  9593	  9596	  9625	  9628	  9631	  9660
	  9663	  9666	  9695	  9698	  9701	  9730	  9733	  9736	  9765	  9768	  9771	  9800	  9803	  9806
	  9835	  9838	  9841	  9870	  9873	  9876	  9905	  9908	  9911	  9940	  9943	  9946	  9975	  9978
	  9981	 10010	 10013	 10016	 10045	 10048	 10051	 10102	 10105	 10108	 10137	 10140	 10143	 10172
	 10175	 10178	 10207	 10210	 10213	 10242	 10245	 10248	 10277	 10280	 10283	 10312	 10315	 10318
	 10347	 10350	 10353	 10382	 10385	 10388	 10417	 10420	 10423	 10452	 10455	 10458	 10487	 10490
	 10493	 10522	 10525	 10528	 10557	 10560	 10563	 10592	 10595	 10598	 10627	 10630	 10633	 10662
	 10665	 10668	 10697	 10700	 10703	 10732	 10735	 10738	 10767	 10770	 10773	 10802	 10805	 10808
	 10837	 10840	 10843	 10872	 10875	 10878	 10907	 10910	 10913	 10942	 10945	 10948	 10977	 10980
	 10983	 11012	 11015	 11018	 11047	 11050	 11053	 11082	 11085	 11088	 11117	 11120	 11123	 11152
	 11155	 11158	 11187	 11190	 11193	 11222	 11225	 11228	 11257	 11260	 11263	 11292	 11295	 11298
	 11327	 11330	 11333	 11376	 11379	 11382	 11407	 11410	 11413	 11438	 11441	 11444	 11469	 11472
	 11475	 11500	 11503	 11506	 11531	 11534	 11537	 11562	 11565	 11568	 11593	 11596	 11599	 11624
	 11627	 11630	 11655	 11658	 11661	 11686	 11689	 11692	 11717	 11720	 11723	 11748	 11751	 11754
	 11779	 11782	 11785	 11810	 11813	 11816	 11841	 11844	 11847	 11872	 11875	 11878	 11903	 11906
	 11909	 11934	 11937	 11940	 11965	 11968	 11971	 11996	 11999	 12002	 12027	 12030	 12033	 12058
	 12061	 12064	 12089	 12092	 12095	 12120	 12123	 12126	 12151	 12154	 12157	 12182	 12185	 12188
	 12213	 12216	 12219	 12244	 12247	 12250	 12275	 12278	 12281	 12306	 12309	 12312	 12337	 12340
	 12343	 12368	 12371	 12374	 12399	 12402	 12405	 12430	 12433	 12436	 12461	 12464	 12467	 12510
	 12513	 12516	 12541	 12544	 12547	 12572	 12575	 12578	 12603	 12606	 12609	 12634	 12637	 12640
	 12665	 12668	 12671	 12696	 12699	 12702	 12727	 12730	 12733	 12758	 12761	 12764	 12789	 12792
	 12795	 12820	 12823	 12826	 12851	 12854	 12857	 12882	 12885	 12888	 12913	 12916	 12919	 12944
	 12947	 12950	 12975	 12978	 12981	 13006	 13009	 13012	 13037	 13040	 13043	 13068	 13071	 13074
	 13099	 13102	 13105	 13130	 13133	 13136	 13161	 13164	 13167	 13192	 13195	 13198	 13223	 13226
	 13229	 13254	 13257	 13260	 13285	 13288	 13291	 13316	 13319	 13322	 13347	 13350	 13353	 13378
	 13381	 13384	 13409	 13412	 13415	 13440	 13443	 13446	 13471	 13474	 13477	 13502	 13505	 13508
	 13533	 13536	 13539	 13564	 13567	 13570	 13595	 13598	 13601	 13646	 13649	 13652	 13678	 13681
	 13684	 13710	 13713	 13716	 13742	 13745	 13748	 13774	 13777	 13780	 13806	 13809	 13812	 13838
	 13841	 13844	 13870	 13873	 13876	 13902	 13905	 13908	 13934	 13937	 13940	 13966	 13969	 13972
	 13998	 14001	 14004	 14030	 14033	 14036	 14062	 14065	 14068	 14094	 14097	 14100	 14126	 14129
	 14132	 14158	 14161	 14164	 14190	 14193	 14196	 14222	 14225	 14228	 14254	 14257	 14260	 14286
	 14289	 14292	 14318	 14321	 14324	 14350	 14353	 14356	 14382	 14385	 14388	 14414	 14417	 14420
	 14446	 14449	 14452	 14478	 14481	 14484	 14510	 14513	 14516	 14542	 14545	 14548	 14574	 14577
	 14580	 14606	 14609	 14612	 14638	 14641	 14644	 14670	 14673	 14676	 14702	 14705	 14708	 14734
	 14737	 14740	 14766	 14769	 14772	 14817	 14820	 14823	 14849	 14852	 14855	 14881	 14884	 14887
	 14913	 14916	 14919	 14945	 14948	 14951	 14977	 14980	 14983	 15009	 15012	 15015	 15041	 15044
	 15047	 15073	 15076	 15079	 15105	 15108	 15111	 15137	 15140	 15143	 15169	 15172	 15175	 15201
	 15204	 15207	 15233	 15236	 15239	 15265	 15268	 15271	 15297	 15300	 15303	 15329	 15332	 15335
	 15361	 15364	 15367	 15393	 15396	 15399	 15425	 15428	 15431	 15457	 15460	 15463	 15489	 15492
	 15495	 15521	 15524	 15527	 15553	 15556	 15559	 15585	 15588	 15591	 15617	 15620	 15623	 15649
	 15652	 15655	 15681	 15684	 15687	 15713	 15716	 15719	 15745	 15748	 15751	 15777	 15780	 15783     SEQ 0400
	 15809	 15812	 15815	 15841	 15844	 15847	 15873	 15876	 15879	 15905	 15908	 15911	 15937	 15940
	 15943	 16002	 16005	 16008	 16039	 16042	 16045	 16076	 16079	 16082	 16113	 16116	 16119	 16150
	 16153	 16156	 16187	 16190	 16193	 16224	 16227	 16230	 16261	 16264	 16267	 16298	 16301	 16304
	 16335	 16338	 16341	 16372	 16375	 16378	 16409	 16412	 16415	 16446	 16449	 16452	 16483	 16486
	 16489	 16520	 16523	 16526	 16557	 16560	 16563	 16594	 16597	 16600	 16631	 16634	 16637	 16668
	 16671	 16674	 16705	 16708	 16711	 16742	 16745	 16748	 16779	 16782	 16785	 16816	 16819	 16822
	 16853	 16856	 16859	 16890	 16893	 16896	 16927	 16930	 16933	 16964	 16967	 16970	 17001	 17004
	 17007	 17038	 17041	 17044	 17075	 17078	 17081	 17112	 17115	 17118	 17149	 17152	 17155	 17186
	 17189	 17192	 17223	 17226	 17229	 17260	 17263	 17266	 17297	 17300	 17303
CAMN	 17317
DEFINE	     8	    92	    97	   122	   290	   293	   299	   373	   384
END	 17751
HRL	 17320
HRRZ	 17316	 17346	 17385
IFDEF	   394	   445	   446	   447	   448	 17350	 17420	 17742	 17749
IFE	   806	   835	   864	   893	   922	   951	   980	  1009	  1038	  1067	  1096	  1125	  1154	  1183
	  1212	  1241	  1270	  1299	  1328	  1357	  1386	  1415	  1444	  1473	  1502	  1531	  1560	  1589
	  1618	  1647	  1676	  1705	  1734	  1763	  1792	  1821	  1866	  1895	  1924	  1953	  1982	  2011
	  2040	  2069	  2098	  2127	  2156	  2185	  2214	  2243	  2272	  2301	  2330	  2359	  2388	  2417
	  2446	  2475	  2504	  2533	  2562	  2591	  2620	  2649	  2678	  2707	  2736	  2765	  2794	  2823
	  2852	  2881	  3642	  3687	  3732	  3777	  3822	  3867	  3912	  3957	  4002	  4047	  4092	  4137
	  4182	  4227	  4272	  4317	  4367	  4396	  4425	  4454	  4483	  4512	  4541	  4570	  4599	  4628
	  4657	  4686	  4715	  4744	  4773	  4802	  4831	  4860	  4889	  4918	  4947	  4976	  5005	  5034
	  5063	  5092	  5121	  5150	  5179	  5208	  5237	  5266	  5295	  5324	  5353	  5382	  5427	  5456
	  5485	  5514	  5543	  5572	  5601	  5630	  5659	  5688	  5717	  5746	  5775	  5804	  5833	  5862
	  5891	  5920	  5949	  5978	  6007	  6036	  6065	  6094	  6123	  6152	  6181	  6210	  6239	  6268
	  6297	  6326	  6355	  6384	  6413	  6442	  6525	  6556	  6587	  6618	  6649	  6680	  6711	  6742
	  6773	  6804	  6835	  6866	  6897	  6928	  6959	  6990	  7021	  7052	  7083	  7114	  7145	  7176
	  7207	  7238	  7269	  7300	  7331	  7362	  7393	  7424	  7455	  7486	  7517	  7548	  7579	  7610
	  7659	  7690	  7721	  7752	  7783	  7814	  7845	  7876	  7907	  7938	  7969	  8000	  8031	  8062
	  8093	  8124	  8155	  8186	  8217	  8248	  8279	  8310	  8341	  8372	  8403	  8434	  8465	  8496
	  8527	  8558	  8589	  8620	  8651	  8682	  8713	  8744	  8797	  8832	  8867	  8902	  8937	  8972
	  9007	  9042	  9077	  9112	  9147	  9182	  9217	  9252	  9287	  9322	  9357	  9392	  9427	  9462
	  9497	  9532	  9567	  9602	  9637	  9672	  9707	  9742	  9777	  9812	  9847	  9882	  9917	  9952
	  9987	 10022	 10079	 10114	 10149	 10184	 10219	 10254	 10289	 10324	 10359	 10394	 10429	 10464
	 10499	 10534	 10569	 10604	 10639	 10674	 10709	 10744	 10779	 10814	 10849	 10884	 10919	 10954
	 10989	 11024	 11059	 11094	 11129	 11164	 11199	 11234	 11269	 11304	 11357	 11388	 11419	 11450
	 11481	 11512	 11543	 11574	 11605	 11636	 11667	 11698	 11729	 11760	 11791	 11822	 11853	 11884
	 11915	 11946	 11977	 12008	 12039	 12070	 12101	 12132	 12163	 12194	 12225	 12256	 12287	 12318
	 12349	 12380	 12411	 12442	 12491	 12522	 12553	 12584	 12615	 12646	 12677	 12708	 12739	 12770
	 12801	 12832	 12863	 12894	 12925	 12956	 12987	 13018	 13049	 13080	 13111	 13142	 13173	 13204
	 13235	 13266	 13297	 13328	 13359	 13390	 13421	 13452	 13483	 13514	 13545	 13576	 13626	 13658
	 13690	 13722	 13754	 13786	 13818	 13850	 13882	 13914	 13946	 13978	 14010	 14042	 14074	 14106
	 14138	 14170	 14202	 14234	 14266	 14298	 14330	 14362	 14394	 14426	 14458	 14490	 14522	 14554
	 14586	 14618	 14650	 14682	 14714	 14746	 14797	 14829	 14861	 14893	 14925	 14957	 14989	 15021
	 15053	 15085	 15117	 15149	 15181	 15213	 15245	 15277	 15309	 15341	 15373	 15405	 15437	 15469
	 15501	 15533	 15565	 15597	 15629	 15661	 15693	 15725	 15757	 15789	 15821	 15853	 15885	 15917
	 15979	 15980	 15985	 16016	 16017	 16022	 16053	 16054	 16059	 16090	 16091	 16096	 16127	 16128
	 16133	 16164	 16165	 16170	 16201	 16202	 16207	 16238	 16239	 16244	 16275	 16276	 16281	 16312
	 16313	 16318	 16349	 16350	 16355	 16386	 16387	 16392	 16423	 16424	 16429	 16460	 16461	 16466
	 16497	 16498	 16503	 16534	 16535	 16540	 16571	 16572	 16577	 16608	 16609	 16614	 16645	 16646
	 16651	 16682	 16683	 16688	 16719	 16720	 16725	 16756	 16757	 16762	 16793	 16794	 16799	 16830
	 16831	 16836	 16867	 16868	 16873	 16904	 16905	 16910	 16941	 16942	 16947	 16978	 16979	 16984     SEQ 0401
	 17015	 17016	 17021	 17052	 17053	 17058	 17089	 17090	 17095	 17126	 17127	 17132	 17163	 17164
	 17169	 17200	 17201	 17206	 17237	 17238	 17243	 17274	 17275	 17280
IFG	  6528	  6559	  6590	  6621	  6652	  6683	  6714	  6745	  6776	  6807	  6838	  6869	  6900	  6931
	  6962	  6993	  7024	  7055	  7086	  7117	  7148	  7179	  7210	  7241	  7272	  7303	  7334	  7365
	  7396	  7427	  7458	  7489	  7520	  7551	  7582	  7613	  7662	  7693	  7724	  7755	  7786	  7817
	  7848	  7879	  7910	  7941	  7972	  8003	  8034	  8065	  8096	  8127	  8158	  8189	  8220	  8251
	  8282	  8313	  8344	  8375	  8406	  8437	  8468	  8499	  8530	  8561	  8592	  8623	  8654	  8685
	  8716	  8747	  8800	  8835	  8870	  8905	  8940	  8975	  9010	  9045	  9080	  9115	  9150	  9185
	  9220	  9255	  9290	  9325	  9360	  9395	  9430	  9465	  9500	  9535	  9570	  9605	  9640	  9675
	  9710	  9745	  9780	  9815	  9850	  9885	  9920	  9955	  9990	 10025	 10082	 10117	 10152	 10187
	 10222	 10257	 10292	 10327	 10362	 10397	 10432	 10467	 10502	 10537	 10572	 10607	 10642	 10677
	 10712	 10747	 10782	 10817	 10852	 10887	 10922	 10957	 10992	 11027	 11062	 11097	 11132	 11167
	 11202	 11237	 11272	 11307	 11361	 11392	 11423	 11454	 11485	 11516	 11547	 11578	 11609	 11640
	 11671	 11702	 11733	 11764	 11795	 11826	 11857	 11888	 11919	 11950	 11981	 12012	 12043	 12074
	 12105	 12136	 12167	 12198	 12229	 12260	 12291	 12322	 12353	 12384	 12415	 12446	 12495	 12526
	 12557	 12588	 12619	 12650	 12681	 12712	 12743	 12774	 12805	 12836	 12867	 12898	 12929	 12960
	 12991	 13022	 13053	 13084	 13115	 13146	 13177	 13208	 13239	 13270	 13301	 13332	 13363	 13394
	 13425	 13456	 13487	 13518	 13549	 13580	 13631	 13663	 13695	 13727	 13759	 13791	 13823	 13855
	 13887	 13919	 13951	 13983	 14015	 14047	 14079	 14111	 14143	 14175	 14207	 14239	 14271	 14303
	 14335	 14367	 14399	 14431	 14463	 14495	 14527	 14559	 14591	 14623	 14655	 14687	 14719	 14751
	 14802	 14834	 14866	 14898	 14930	 14962	 14994	 15026	 15058	 15090	 15122	 15154	 15186	 15218
	 15250	 15282	 15314	 15346	 15378	 15410	 15442	 15474	 15506	 15538	 15570	 15602	 15634	 15666
	 15698	 15730	 15762	 15794	 15826	 15858	 15890	 15922	 15987	 16024	 16061	 16098	 16135	 16172
	 16209	 16246	 16283	 16320	 16357	 16394	 16431	 16468	 16505	 16542	 16579	 16616	 16653	 16690
	 16727	 16764	 16801	 16838	 16875	 16912	 16949	 16986	 17023	 17060	 17097	 17134	 17171	 17208
	 17245	 17282
IFL	  6529	  6560	  6591	  6622	  6653	  6684	  6715	  6746	  6777	  6808	  6839	  6870	  6901	  6932
	  6963	  6994	  7025	  7056	  7087	  7118	  7149	  7180	  7211	  7242	  7273	  7304	  7335	  7366
	  7397	  7428	  7459	  7490	  7521	  7552	  7583	  7614	  7663	  7694	  7725	  7756	  7787	  7818
	  7849	  7880	  7911	  7942	  7973	  8004	  8035	  8066	  8097	  8128	  8159	  8190	  8221	  8252
	  8283	  8314	  8345	  8376	  8407	  8438	  8469	  8500	  8531	  8562	  8593	  8624	  8655	  8686
	  8717	  8748	  8803	  8838	  8873	  8908	  8943	  8978	  9013	  9048	  9083	  9118	  9153	  9188
	  9223	  9258	  9293	  9328	  9363	  9398	  9433	  9468	  9503	  9538	  9573	  9608	  9643	  9678
	  9713	  9748	  9783	  9818	  9853	  9888	  9923	  9958	  9993	 10028	 10085	 10120	 10155	 10190
	 10225	 10260	 10295	 10330	 10365	 10400	 10435	 10470	 10505	 10540	 10575	 10610	 10645	 10680
	 10715	 10750	 10785	 10820	 10855	 10890	 10925	 10960	 10995	 11030	 11065	 11100	 11135	 11170
	 11205	 11240	 11275	 11310	 11360	 11391	 11422	 11453	 11484	 11515	 11546	 11577	 11608	 11639
	 11670	 11701	 11732	 11763	 11794	 11825	 11856	 11887	 11918	 11949	 11980	 12011	 12042	 12073
	 12104	 12135	 12166	 12197	 12228	 12259	 12290	 12321	 12352	 12383	 12414	 12445	 12494	 12525
	 12556	 12587	 12618	 12649	 12680	 12711	 12742	 12773	 12804	 12835	 12866	 12897	 12928	 12959
	 12990	 13021	 13052	 13083	 13114	 13145	 13176	 13207	 13238	 13269	 13300	 13331	 13362	 13393
	 13424	 13455	 13486	 13517	 13548	 13579	 13630	 13662	 13694	 13726	 13758	 13790	 13822	 13854
	 13886	 13918	 13950	 13982	 14014	 14046	 14078	 14110	 14142	 14174	 14206	 14238	 14270	 14302
	 14334	 14366	 14398	 14430	 14462	 14494	 14526	 14558	 14590	 14622	 14654	 14686	 14718	 14750
	 14801	 14833	 14865	 14897	 14929	 14961	 14993	 15025	 15057	 15089	 15121	 15153	 15185	 15217
	 15249	 15281	 15313	 15345	 15377	 15409	 15441	 15473	 15505	 15537	 15569	 15601	 15633	 15665
	 15697	 15729	 15761	 15793	 15825	 15857	 15889	 15921	 15986	 16023	 16060	 16097	 16134	 16171
	 16208	 16245	 16282	 16319	 16356	 16393	 16430	 16467	 16504	 16541	 16578	 16615	 16652	 16689
	 16726	 16763	 16800	 16837	 16874	 16911	 16948	 16985	 17022	 17059	 17096	 17133	 17170	 17207
	 17244	 17281
IFN	  3645	  3690	  3735	  3780	  3825	  3870	  3915	  3960	  4005	  4050	  4095	  4140	  4185	  4230
	  4275	  4320
IFNDEF	   345	   346	   356	   445	   446	   447	   448	   527	 17468                                             SEQ 0402
JFCL	   485	   486	   487	   488	   489	   490	   491	   492	   493	   494	   495	   496
JRST	    71	    72	    73	    74	    75	    76	    77	   195	   196	   197	   198	   407	   408	   410
	   412	   414	   416	   418	   421	   423	   424	   477	   749	 17307	 17324	 17331	 17334	 17339
	 17367	 17373	 17387	 17389	 17391	 17394	 17397	 17399	 17401	 17427	 17430	 17443	 17447	 17450
	 17453	 17457	 17458	 17462
JSP	   204
JUMPL	   785	   831	   860	   889	   918	   947	   976	  1005	  1034	  1063	  1092	  1121	  1150	  1179
	  1208	  1237	  1266	  1295	  1324	  1353	  1382	  1411	  1440	  1469	  1498	  1527	  1556	  1585
	  1614	  1643	  1672	  1701	  1730	  1759	  1788	  1817	  1846	  1891	  1920	  1949	  1978	  2007
	  2036	  2065	  2094	  2123	  2152	  2181	  2210	  2239	  2268	  2297	  2326	  2355	  2384	  2413
	  2442	  2471	  2500	  2529	  2558	  2587	  2616	  2645	  2674	  2703	  2732	  2761	  2790	  2819
	  2848	  2877	  2906	  2939	  3007	  3046	  3085	  3124	  3163	  3202	  3241	  3280	  3319	  3358
	  3397	  3436	  3475	  3514	  3553	  3592	  3670	  3715	  3760	  3805	  3850	  3895	  3940	  3985
	  4030	  4075	  4120	  4165	  4210	  4255	  4300	  4345	  4392	  4421	  4450	  4479	  4508	  4537
	  4566	  4595	  4624	  4653	  4682	  4711	  4740	  4769	  4798	  4827	  4856	  4885	  4914	  4943
	  4972	  5001	  5030	  5059	  5088	  5117	  5146	  5175	  5204	  5233	  5262	  5291	  5320	  5349
	  5378	  5407	  5452	  5481	  5510	  5539	  5568	  5597	  5626	  5655	  5684	  5713	  5742	  5771
	  5800	  5829	  5858	  5887	  5916	  5945	  5974	  6003	  6032	  6061	  6090	  6119	  6148	  6177
	  6206	  6235	  6264	  6293	  6322	  6351	  6380	  6409	  6438	  6467	  6500	  6552	  6583	  6614
	  6645	  6676	  6707	  6738	  6769	  6800	  6831	  6862	  6893	  6924	  6955	  6986	  7017	  7048
	  7079	  7110	  7141	  7172	  7203	  7234	  7265	  7296	  7327	  7358	  7389	  7420	  7451	  7482
	  7513	  7544	  7575	  7606	  7637	  7686	  7717	  7748	  7779	  7810	  7841	  7872	  7903	  7934
	  7965	  7996	  8027	  8058	  8089	  8120	  8151	  8182	  8213	  8244	  8275	  8306	  8337	  8368
	  8399	  8430	  8461	  8492	  8523	  8554	  8585	  8616	  8647	  8678	  8709	  8740	  8771	  8828
	  8863	  8898	  8933	  8968	  9003	  9038	  9073	  9108	  9143	  9178	  9213	  9248	  9283	  9318
	  9353	  9388	  9423	  9458	  9493	  9528	  9563	  9598	  9633	  9668	  9703	  9738	  9773	  9808
	  9843	  9878	  9913	  9948	  9983	 10018	 10053	 10110	 10145	 10180	 10215	 10250	 10285	 10320
	 10355	 10390	 10425	 10460	 10495	 10530	 10565	 10600	 10635	 10670	 10705	 10740	 10775	 10810
	 10845	 10880	 10915	 10950	 10985	 11020	 11055	 11090	 11125	 11160	 11195	 11230	 11265	 11300
	 11335	 11384	 11415	 11446	 11477	 11508	 11539	 11570	 11601	 11632	 11663	 11694	 11725	 11756
	 11787	 11818	 11849	 11880	 11911	 11942	 11973	 12004	 12035	 12066	 12097	 12128	 12159	 12190
	 12221	 12252	 12283	 12314	 12345	 12376	 12407	 12438	 12469	 12518	 12549	 12580	 12611	 12642
	 12673	 12704	 12735	 12766	 12797	 12828	 12859	 12890	 12921	 12952	 12983	 13014	 13045	 13076
	 13107	 13138	 13169	 13200	 13231	 13262	 13293	 13324	 13355	 13386	 13417	 13448	 13479	 13510
	 13541	 13572	 13603	 13654	 13686	 13718	 13750	 13782	 13814	 13846	 13878	 13910	 13942	 13974
	 14006	 14038	 14070	 14102	 14134	 14166	 14198	 14230	 14262	 14294	 14326	 14358	 14390	 14422
	 14454	 14486	 14518	 14550	 14582	 14614	 14646	 14678	 14710	 14742	 14774	 14825	 14857	 14889
	 14921	 14953	 14985	 15017	 15049	 15081	 15113	 15145	 15177	 15209	 15241	 15273	 15305	 15337
	 15369	 15401	 15433	 15465	 15497	 15529	 15561	 15593	 15625	 15657	 15689	 15721	 15753	 15785
	 15817	 15849	 15881	 15913	 15945	 16010	 16047	 16084	 16121	 16158	 16195	 16232	 16269	 16306
	 16343	 16380	 16417	 16454	 16491	 16528	 16565	 16602	 16639	 16676	 16713	 16750	 16787	 16824
	 16861	 16898	 16935	 16972	 17009	 17046	 17083	 17120	 17157	 17194	 17231	 17268	 17305
LALL	     9
LIST	     8	   356	   394	   527	 17350	 17420	 17468	 17739
LIT	 17469
LOC	    25	   397	   721
LSH	 17326	 17358
MOVE	   746	   770	   772	   774	   816	   818	   820	   845	   847	   849	   874	   876	   878	   903
	   905	   907	   932	   934	   936	   961	   963	   965	   990	   992	   994	  1019	  1021	  1023
	  1048	  1050	  1052	  1077	  1079	  1081	  1106	  1108	  1110	  1135	  1137	  1139	  1164	  1166
	  1168	  1193	  1195	  1197	  1222	  1224	  1226	  1251	  1253	  1255	  1280	  1282	  1284	  1309
	  1311	  1313	  1338	  1340	  1342	  1367	  1369	  1371	  1396	  1398	  1400	  1425	  1427	  1429
	  1454	  1456	  1458	  1483	  1485	  1487	  1512	  1514	  1516	  1541	  1543	  1545	  1570	  1572     SEQ 0403
	  1574	  1599	  1601	  1603	  1628	  1630	  1632	  1657	  1659	  1661	  1686	  1688	  1690	  1715
	  1717	  1719	  1744	  1746	  1748	  1773	  1775	  1777	  1802	  1804	  1806	  1831	  1833	  1835
	  1876	  1878	  1880	  1905	  1907	  1909	  1934	  1936	  1938	  1963	  1965	  1967	  1992	  1994
	  1996	  2021	  2023	  2025	  2050	  2052	  2054	  2079	  2081	  2083	  2108	  2110	  2112	  2137
	  2139	  2141	  2166	  2168	  2170	  2195	  2197	  2199	  2224	  2226	  2228	  2253	  2255	  2257
	  2282	  2284	  2286	  2311	  2313	  2315	  2340	  2342	  2344	  2369	  2371	  2373	  2398	  2400
	  2402	  2427	  2429	  2431	  2456	  2458	  2460	  2485	  2487	  2489	  2514	  2516	  2518	  2543
	  2545	  2547	  2572	  2574	  2576	  2601	  2603	  2605	  2630	  2632	  2634	  2659	  2661	  2663
	  2688	  2690	  2692	  2717	  2719	  2721	  2746	  2748	  2750	  2775	  2777	  2779	  2804	  2806
	  2808	  2833	  2835	  2837	  2862	  2864	  2866	  2891	  2893	  2895	  2924	  2926	  2928	  2992
	  2994	  2996	  3031	  3033	  3035	  3070	  3072	  3074	  3109	  3111	  3113	  3148	  3150	  3152
	  3187	  3189	  3191	  3226	  3228	  3230	  3265	  3267	  3269	  3304	  3306	  3308	  3343	  3345
	  3347	  3382	  3384	  3386	  3421	  3423	  3425	  3460	  3462	  3464	  3499	  3501	  3503	  3538
	  3540	  3542	  3577	  3579	  3581	  3655	  3657	  3659	  3700	  3702	  3704	  3745	  3747	  3749
	  3790	  3792	  3794	  3835	  3837	  3839	  3880	  3882	  3884	  3925	  3927	  3929	  3970	  3972
	  3974	  4015	  4017	  4019	  4060	  4062	  4064	  4105	  4107	  4109	  4150	  4152	  4154	  4195
	  4197	  4199	  4240	  4242	  4244	  4285	  4287	  4289	  4330	  4332	  4334	  4377	  4379	  4381
	  4406	  4408	  4410	  4435	  4437	  4439	  4464	  4466	  4468	  4493	  4495	  4497	  4522	  4524
	  4526	  4551	  4553	  4555	  4580	  4582	  4584	  4609	  4611	  4613	  4638	  4640	  4642	  4667
	  4669	  4671	  4696	  4698	  4700	  4725	  4727	  4729	  4754	  4756	  4758	  4783	  4785	  4787
	  4812	  4814	  4816	  4841	  4843	  4845	  4870	  4872	  4874	  4899	  4901	  4903	  4928	  4930
	  4932	  4957	  4959	  4961	  4986	  4988	  4990	  5015	  5017	  5019	  5044	  5046	  5048	  5073
	  5075	  5077	  5102	  5104	  5106	  5131	  5133	  5135	  5160	  5162	  5164	  5189	  5191	  5193
	  5218	  5220	  5222	  5247	  5249	  5251	  5276	  5278	  5280	  5305	  5307	  5309	  5334	  5336
	  5338	  5363	  5365	  5367	  5392	  5394	  5396	  5437	  5439	  5441	  5466	  5468	  5470	  5495
	  5497	  5499	  5524	  5526	  5528	  5553	  5555	  5557	  5582	  5584	  5586	  5611	  5613	  5615
	  5640	  5642	  5644	  5669	  5671	  5673	  5698	  5700	  5702	  5727	  5729	  5731	  5756	  5758
	  5760	  5785	  5787	  5789	  5814	  5816	  5818	  5843	  5845	  5847	  5872	  5874	  5876	  5901
	  5903	  5905	  5930	  5932	  5934	  5959	  5961	  5963	  5988	  5990	  5992	  6017	  6019	  6021
	  6046	  6048	  6050	  6075	  6077	  6079	  6104	  6106	  6108	  6133	  6135	  6137	  6162	  6164
	  6166	  6191	  6193	  6195	  6220	  6222	  6224	  6249	  6251	  6253	  6278	  6280	  6282	  6307
	  6309	  6311	  6336	  6338	  6340	  6365	  6367	  6369	  6394	  6396	  6398	  6423	  6425	  6427
	  6452	  6454	  6456	  6485	  6487	  6489	  6537	  6539	  6541	  6568	  6570	  6572	  6599	  6601
	  6603	  6630	  6632	  6634	  6661	  6663	  6665	  6692	  6694	  6696	  6723	  6725	  6727	  6754
	  6756	  6758	  6785	  6787	  6789	  6816	  6818	  6820	  6847	  6849	  6851	  6878	  6880	  6882
	  6909	  6911	  6913	  6940	  6942	  6944	  6971	  6973	  6975	  7002	  7004	  7006	  7033	  7035
	  7037	  7064	  7066	  7068	  7095	  7097	  7099	  7126	  7128	  7130	  7157	  7159	  7161	  7188
	  7190	  7192	  7219	  7221	  7223	  7250	  7252	  7254	  7281	  7283	  7285	  7312	  7314	  7316
	  7343	  7345	  7347	  7374	  7376	  7378	  7405	  7407	  7409	  7436	  7438	  7440	  7467	  7469
	  7471	  7498	  7500	  7502	  7529	  7531	  7533	  7560	  7562	  7564	  7591	  7593	  7595	  7622
	  7624	  7626	  7671	  7673	  7675	  7702	  7704	  7706	  7733	  7735	  7737	  7764	  7766	  7768
	  7795	  7797	  7799	  7826	  7828	  7830	  7857	  7859	  7861	  7888	  7890	  7892	  7919	  7921
	  7923	  7950	  7952	  7954	  7981	  7983	  7985	  8012	  8014	  8016	  8043	  8045	  8047	  8074
	  8076	  8078	  8105	  8107	  8109	  8136	  8138	  8140	  8167	  8169	  8171	  8198	  8200	  8202
	  8229	  8231	  8233	  8260	  8262	  8264	  8291	  8293	  8295	  8322	  8324	  8326	  8353	  8355
	  8357	  8384	  8386	  8388	  8415	  8417	  8419	  8446	  8448	  8450	  8477	  8479	  8481	  8508
	  8510	  8512	  8539	  8541	  8543	  8570	  8572	  8574	  8601	  8603	  8605	  8632	  8634	  8636
	  8663	  8665	  8667	  8694	  8696	  8698	  8725	  8727	  8729	  8756	  8758	  8760	  8813	  8815
	  8817	  8848	  8850	  8852	  8883	  8885	  8887	  8918	  8920	  8922	  8953	  8955	  8957	  8988
	  8990	  8992	  9023	  9025	  9027	  9058	  9060	  9062	  9093	  9095	  9097	  9128	  9130	  9132
	  9163	  9165	  9167	  9198	  9200	  9202	  9233	  9235	  9237	  9268	  9270	  9272	  9303	  9305
	  9307	  9338	  9340	  9342	  9373	  9375	  9377	  9408	  9410	  9412	  9443	  9445	  9447	  9478
	  9480	  9482	  9513	  9515	  9517	  9548	  9550	  9552	  9583	  9585	  9587	  9618	  9620	  9622     SEQ 0404
	  9653	  9655	  9657	  9688	  9690	  9692	  9723	  9725	  9727	  9758	  9760	  9762	  9793	  9795
	  9797	  9828	  9830	  9832	  9863	  9865	  9867	  9898	  9900	  9902	  9933	  9935	  9937	  9968
	  9970	  9972	 10003	 10005	 10007	 10038	 10040	 10042	 10095	 10097	 10099	 10130	 10132	 10134
	 10165	 10167	 10169	 10200	 10202	 10204	 10235	 10237	 10239	 10270	 10272	 10274	 10305	 10307
	 10309	 10340	 10342	 10344	 10375	 10377	 10379	 10410	 10412	 10414	 10445	 10447	 10449	 10480
	 10482	 10484	 10515	 10517	 10519	 10550	 10552	 10554	 10585	 10587	 10589	 10620	 10622	 10624
	 10655	 10657	 10659	 10690	 10692	 10694	 10725	 10727	 10729	 10760	 10762	 10764	 10795	 10797
	 10799	 10830	 10832	 10834	 10865	 10867	 10869	 10900	 10902	 10904	 10935	 10937	 10939	 10970
	 10972	 10974	 11005	 11007	 11009	 11040	 11042	 11044	 11075	 11077	 11079	 11110	 11112	 11114
	 11145	 11147	 11149	 11180	 11182	 11184	 11215	 11217	 11219	 11250	 11252	 11254	 11285	 11287
	 11289	 11320	 11322	 11324	 11369	 11371	 11373	 11400	 11402	 11404	 11431	 11433	 11435	 11462
	 11464	 11466	 11493	 11495	 11497	 11524	 11526	 11528	 11555	 11557	 11559	 11586	 11588	 11590
	 11617	 11619	 11621	 11648	 11650	 11652	 11679	 11681	 11683	 11710	 11712	 11714	 11741	 11743
	 11745	 11772	 11774	 11776	 11803	 11805	 11807	 11834	 11836	 11838	 11865	 11867	 11869	 11896
	 11898	 11900	 11927	 11929	 11931	 11958	 11960	 11962	 11989	 11991	 11993	 12020	 12022	 12024
	 12051	 12053	 12055	 12082	 12084	 12086	 12113	 12115	 12117	 12144	 12146	 12148	 12175	 12177
	 12179	 12206	 12208	 12210	 12237	 12239	 12241	 12268	 12270	 12272	 12299	 12301	 12303	 12330
	 12332	 12334	 12361	 12363	 12365	 12392	 12394	 12396	 12423	 12425	 12427	 12454	 12456	 12458
	 12503	 12505	 12507	 12534	 12536	 12538	 12565	 12567	 12569	 12596	 12598	 12600	 12627	 12629
	 12631	 12658	 12660	 12662	 12689	 12691	 12693	 12720	 12722	 12724	 12751	 12753	 12755	 12782
	 12784	 12786	 12813	 12815	 12817	 12844	 12846	 12848	 12875	 12877	 12879	 12906	 12908	 12910
	 12937	 12939	 12941	 12968	 12970	 12972	 12999	 13001	 13003	 13030	 13032	 13034	 13061	 13063
	 13065	 13092	 13094	 13096	 13123	 13125	 13127	 13154	 13156	 13158	 13185	 13187	 13189	 13216
	 13218	 13220	 13247	 13249	 13251	 13278	 13280	 13282	 13309	 13311	 13313	 13340	 13342	 13344
	 13371	 13373	 13375	 13402	 13404	 13406	 13433	 13435	 13437	 13464	 13466	 13468	 13495	 13497
	 13499	 13526	 13528	 13530	 13557	 13559	 13561	 13588	 13590	 13592	 13639	 13641	 13643	 13671
	 13673	 13675	 13703	 13705	 13707	 13735	 13737	 13739	 13767	 13769	 13771	 13799	 13801	 13803
	 13831	 13833	 13835	 13863	 13865	 13867	 13895	 13897	 13899	 13927	 13929	 13931	 13959	 13961
	 13963	 13991	 13993	 13995	 14023	 14025	 14027	 14055	 14057	 14059	 14087	 14089	 14091	 14119
	 14121	 14123	 14151	 14153	 14155	 14183	 14185	 14187	 14215	 14217	 14219	 14247	 14249	 14251
	 14279	 14281	 14283	 14311	 14313	 14315	 14343	 14345	 14347	 14375	 14377	 14379	 14407	 14409
	 14411	 14439	 14441	 14443	 14471	 14473	 14475	 14503	 14505	 14507	 14535	 14537	 14539	 14567
	 14569	 14571	 14599	 14601	 14603	 14631	 14633	 14635	 14663	 14665	 14667	 14695	 14697	 14699
	 14727	 14729	 14731	 14759	 14761	 14763	 14810	 14812	 14814	 14842	 14844	 14846	 14874	 14876
	 14878	 14906	 14908	 14910	 14938	 14940	 14942	 14970	 14972	 14974	 15002	 15004	 15006	 15034
	 15036	 15038	 15066	 15068	 15070	 15098	 15100	 15102	 15130	 15132	 15134	 15162	 15164	 15166
	 15194	 15196	 15198	 15226	 15228	 15230	 15258	 15260	 15262	 15290	 15292	 15294	 15322	 15324
	 15326	 15354	 15356	 15358	 15386	 15388	 15390	 15418	 15420	 15422	 15450	 15452	 15454	 15482
	 15484	 15486	 15514	 15516	 15518	 15546	 15548	 15550	 15578	 15580	 15582	 15610	 15612	 15614
	 15642	 15644	 15646	 15674	 15676	 15678	 15706	 15708	 15710	 15738	 15740	 15742	 15770	 15772
	 15774	 15802	 15804	 15806	 15834	 15836	 15838	 15866	 15868	 15870	 15898	 15900	 15902	 15930
	 15932	 15934	 15995	 15997	 15999	 16032	 16034	 16036	 16069	 16071	 16073	 16106	 16108	 16110
	 16143	 16145	 16147	 16180	 16182	 16184	 16217	 16219	 16221	 16254	 16256	 16258	 16291	 16293
	 16295	 16328	 16330	 16332	 16365	 16367	 16369	 16402	 16404	 16406	 16439	 16441	 16443	 16476
	 16478	 16480	 16513	 16515	 16517	 16550	 16552	 16554	 16587	 16589	 16591	 16624	 16626	 16628
	 16661	 16663	 16665	 16698	 16700	 16702	 16735	 16737	 16739	 16772	 16774	 16776	 16809	 16811
	 16813	 16846	 16848	 16850	 16883	 16885	 16887	 16920	 16922	 16924	 16957	 16959	 16961	 16994
	 16996	 16998	 17031	 17033	 17035	 17068	 17070	 17072	 17105	 17107	 17109	 17142	 17144	 17146
	 17179	 17181	 17183	 17216	 17218	 17220	 17253	 17255	 17257	 17290	 17292	 17294	 17319	 17325
	 17328	 17329	 17342	 17357	 17360	 17362	 17365	 17371	 17375	 17431	 17439	 17440	 17448	 17452
	 17455
MOVEI	   757	   759	   790	   792	  1850	  1852	  2911	  2913	  2945	  2947	  3596	  3598	  4351	  4353
	  5411	  5413	  6471	  6473	  6506	  6508	  7641	  7643	  8775	  8777	 10057	 10059	 11339	 11341     SEQ 0405
	 12473	 12475	 13607	 13609	 14778	 14780	 15951	 15953	 17382	 17428
MOVEM	   747	   758	   760	   791	   793	  1851	  1853	  2912	  2914	  2946	  2948	  3597	  3599	  4352
	  4354	  5412	  5414	  6472	  6474	  6507	  6509	  7642	  7644	  8776	  8778	 10058	 10060	 11340
	 11342	 12474	 12476	 13608	 13610	 14779	 14781	 15952	 15954	 17312	 17313	 17314	 17327	 17347
	 17429
MUL	   775	   821	   850	   879	   908	   937	   966	   995	  1024	  1053	  1082	  1111	  1140	  1169
	  1198	  1227	  1256	  1285	  1314	  1343	  1372	  1401	  1430	  1459	  1488	  1517	  1546	  1575
	  1604	  1633	  1662	  1691	  1720	  1749	  1778	  1807	  1836	  1881	  1910	  1939	  1968	  1997
	  2026	  2055	  2084	  2113	  2142	  2171	  2200	  2229	  2258	  2287	  2316	  2345	  2374	  2403
	  2432	  2461	  2490	  2519	  2548	  2577	  2606	  2635	  2664	  2693	  2722	  2751	  2780	  2809
	  2838	  2867	  2896	  2929	  2997	  3036	  3075	  3114	  3153	  3192	  3231	  3270	  3309	  3348
	  3387	  3426	  3465	  3504	  3543	  3582	  3660	  3705	  3750	  3795	  3840	  3885	  3930	  3975
	  4020	  4065	  4110	  4155	  4200	  4245	  4290	  4335	  4382	  4411	  4440	  4469	  4498	  4527
	  4556	  4585	  4614	  4643	  4672	  4701	  4730	  4759	  4788	  4817	  4846	  4875	  4904	  4933
	  4962	  4991	  5020	  5049	  5078	  5107	  5136	  5165	  5194	  5223	  5252	  5281	  5310	  5339
	  5368	  5397	  5442	  5471	  5500	  5529	  5558	  5587	  5616	  5645	  5674	  5703	  5732	  5761
	  5790	  5819	  5848	  5877	  5906	  5935	  5964	  5993	  6022	  6051	  6080	  6109	  6138	  6167
	  6196	  6225	  6254	  6283	  6312	  6341	  6370	  6399	  6428	  6457	  6490	  6542	  6573	  6604
	  6635	  6666	  6697	  6728	  6759	  6790	  6821	  6852	  6883	  6914	  6945	  6976	  7007	  7038
	  7069	  7100	  7131	  7162	  7193	  7224	  7255	  7286	  7317	  7348	  7379	  7410	  7441	  7472
	  7503	  7534	  7565	  7596	  7627	  7676	  7707	  7738	  7769	  7800	  7831	  7862	  7893	  7924
	  7955	  7986	  8017	  8048	  8079	  8110	  8141	  8172	  8203	  8234	  8265	  8296	  8327	  8358
	  8389	  8420	  8451	  8482	  8513	  8544	  8575	  8606	  8637	  8668	  8699	  8730	  8761	  8818
	  8853	  8888	  8923	  8958	  8993	  9028	  9063	  9098	  9133	  9168	  9203	  9238	  9273	  9308
	  9343	  9378	  9413	  9448	  9483	  9518	  9553	  9588	  9623	  9658	  9693	  9728	  9763	  9798
	  9833	  9868	  9903	  9938	  9973	 10008	 10043	 10100	 10135	 10170	 10205	 10240	 10275	 10310
	 10345	 10380	 10415	 10450	 10485	 10520	 10555	 10590	 10625	 10660	 10695	 10730	 10765	 10800
	 10835	 10870	 10905	 10940	 10975	 11010	 11045	 11080	 11115	 11150	 11185	 11220	 11255	 11290
	 11325	 11374	 11405	 11436	 11467	 11498	 11529	 11560	 11591	 11622	 11653	 11684	 11715	 11746
	 11777	 11808	 11839	 11870	 11901	 11932	 11963	 11994	 12025	 12056	 12087	 12118	 12149	 12180
	 12211	 12242	 12273	 12304	 12335	 12366	 12397	 12428	 12459	 12508	 12539	 12570	 12601	 12632
	 12663	 12694	 12725	 12756	 12787	 12818	 12849	 12880	 12911	 12942	 12973	 13004	 13035	 13066
	 13097	 13128	 13159	 13190	 13221	 13252	 13283	 13314	 13345	 13376	 13407	 13438	 13469	 13500
	 13531	 13562	 13593	 13644	 13676	 13708	 13740	 13772	 13804	 13836	 13868	 13900	 13932	 13964
	 13996	 14028	 14060	 14092	 14124	 14156	 14188	 14220	 14252	 14284	 14316	 14348	 14380	 14412
	 14444	 14476	 14508	 14540	 14572	 14604	 14636	 14668	 14700	 14732	 14764	 14815	 14847	 14879
	 14911	 14943	 14975	 15007	 15039	 15071	 15103	 15135	 15167	 15199	 15231	 15263	 15295	 15327
	 15359	 15391	 15423	 15455	 15487	 15519	 15551	 15583	 15615	 15647	 15679	 15711	 15743	 15775
	 15807	 15839	 15871	 15903	 15935	 16000	 16037	 16074	 16111	 16148	 16185	 16222	 16259	 16296
	 16333	 16370	 16407	 16444	 16481	 16518	 16555	 16592	 16629	 16666	 16703	 16740	 16777	 16814
	 16851	 16888	 16925	 16962	 16999	 17036	 17073	 17110	 17147	 17184	 17221	 17258	 17295
NOSYM	    29
OPDEF	    34	    35	    36	    37	    38	    39	    40	    41	    42	    43	    44	   191	   192	   193
	   194	   195	   196	   197	   198	   204	   210	   211	   219	   220	   221	   222	   223	   224
	   225	   226	   227	   228	   229	   232	   233	   234	   235	   236	   237	   238	   239	   240
	   241	   242	   243	   244	   245	   246	   247	   248	   249	   250	   251	   252	   253	   254
	   255	   256	   257	   258	   259	   260	   261	   262	   263	   264	   265	   266	   267	   268
	   269	   270	   271	   272	   273	   274	   275	   276	   277	   278	   279	   280	   281	   282
	   283	   284	   285	   286	   288	   305	   310	   311	   315	   316	   317	   323	   324	   330
	   331	   332	   333	   334	   335	   336	   342	   343	   350	   351	   352	   353	   363	   364
	   365	   366	   367	   394
POP	   194
POPJ	   192                                                                                                             SEQ 0406
PUSH	   193
PUSHJ	   191
REPEAT	   796	  1856	  2952	  3603	  4357	  5417	  6513	  7647	  8781	 10063	 11345	 12479	 13613	 14784
	 15959
SETOM	 17337	 17435	 17441
SETZM	 17321	 17332
SIXBIT	    84	    85	   612	   613	   621	   622	 17341	 17345	 17356	 17381	 17461
SKIPGE	 17330
SKIPL	 17333	 17446
SKIPN	 17335	 17338	 17442
SUBTTL	    30	   120	   155	   357	   394	   395	   750	  2940	  4346	  6501	 17308	 17463
TITLE	    13
TLNE	 17323	 17366	 17432	 17436
TLNN	 17434	 17456
TRNE	 17386	 17388	 17390
VAR	 17747
XCT	 17423
XLIST	     7	   355	   393	   526	 17349	 17419	 17467
.DIREC	    28
