DSQDF
                                                                                                                           SEQ 0001


				IDENTIFICATION
				--------------

	PRODUCT CODE:		AH-E522C-DD

	DIAGNOSTIC CODE:	DSQDF

	PRODUCT NAME:		DSQDFC0 DECSYSTEM 2020
				DIAGNOSTICS FE-FILE PROGRAM

	VERSION:		0.3

	DATE RELEASED:		FEBRUARY 1979

	MAINTAINED BY:		DIAGNOSTIC ENGINEERING

	AUTHOR:			JOHN R. KIRCHOFF

		        COPYRIGHT (C) 1978, 1979

	        DIGITAL EQUIPMENT CORPORATION, MAYNARD, MASS.

	THIS SOFTWARE IS FURNISHED UNDER A LICENSE FOR  USE  ONLY  ON  A
	SINGLE COMPUTER SYSTEM AND MAY BE COPIED ONLY WITH THE INCLUSION
	OF THE ABOVE COPYRIGHT NOTICE.   THIS  SOFTWARE,  OR  ANY  OTHER
	COPIES  THEREOF, MAY NOT BE PROVIDED OR OTHERWISE MADE AVAILABLE
	TO ANY OTHER PERSON EXCEPT FOR USE ON SUCH SYSTEM AND TO ONE WHO
	AGREES  TO  THESE  LICENSE TERMS.  TITLE TO AND OWNERSHIP OF THE
	SOFTWARE  SHALL  AT   ALL  TIMES  REMAIN  IN  DIGITAL  EQUIPMENT
	CORPORATION.

	THE INFORMATION IN THIS DOCUMENT IS SUBJECT  TO  CHANGE  WITHOUT
	NOTICE  AND  SHOULD  NOT BE CONSTRUED AS A COMMITMENT BY DIGITAL
	EQUIPMENT CORPORATION.

	DIGITAL EQUIPMENT CORPORATION ASSUMES NO  RESPONSIBILITY FOR THE
	USE  OR  RELIABILITY  OF  ITS SOFTWARE IN EQUIPMENT WHICH IS NOT
	SUPPLIED BY DIGITAL EQUIPMENT CORPORATION.
SMFILE - DECSYSTEM 2020 DIAGNOSTICS FE-FILE PROGRAM
                                                                                                                           SEQ 0002
DISK
----

	THE SYSTEM DISK WILL CONTAIN A RESERVED (CONTIGUOUS) FE-FILE
AREA FOR THE 8080 CONSOLE PROCESSOR'S USE.

  TOPS-20 -- <ROOT-DIRECTORY>BOOTSTRAP.BIN
  TOPS-10 -- [6,2020]KS10FE.BIN

	THIS FE-FILE AREA WILL CONTAIN THE KS-10 MICROCODE, THE SYSTEM
AND DIAGNOSTIC PRE-BOOTS AND BOOTSTRAPS, THE BOOTCHECK 1 MICROCODE,
THE BOOTCHECK 2 DIAGNOSTIC CODE, AND 247 [0-366(8)] FRONT-END
INDIRECT 8080 COMMAND FILES.

	THIS AREA WILL BE POINTER TO BY WORDS IN THE HOME BLOCK.  THERE
WILL BE THREE WORDS USED IN THE HOME BLOCK.  WORD 1 PROVIDES THE DISK
ADDRESS OF THE FE-FILE AREA.  WORD 2 PROVIDES THE LENGTH OF THE FE-FILE
AREA.  WORD 3 PROVIDES THE 8080 FORMAT TRACK/CYLINDER/SECTOR ADDRESS.

	HOME BLOCK
	----------
	I
	I---------
  101	I  DISK ADDRESS OF FE-FILE AREA (SECTOR #)
	I---------
  102	I  LENGTH (# OF SECTORS)
	I---------
  103	I  8080 TRACK/CYL/SECTOR
	I---------
	I
	----------


	THE 8080 TRACK/CYLINDER/SECTOR WORD WILL BE AS FOLLOWS:

	          3-11              23-27            31-35
	------------------------------------------------------
	I 000 I           I 0'S I           I 000 I          I
	------------------------------------------------------
		  ^		     ^			^
		  I                  I			I
	       CYLINDER            TRACK              SECTOR
SMFILE - DECSYSTEM 2020 DIAGNOSTICS FE-FILE PROGRAM
                                                                                                                           SEQ 0003
	THE FIRST PAGE IN THE FE-FILE AREA WILL BE USED AS AN 8080
DIRECTORY TO CONTAIN PHYSICAL DISK ADDRESSES AND LENGTHS FOR THE
ASSOCIATED FILES CONTAINED WITHIN THE REMAINDER OF THE FE-FILE AREA.

	THE POINTER WORDS WILL BE IN THE 8080 TRACK/CYL/SECTOR FORMAT
AND THE PAGE ##,,LENGTH WORD WILL BE IN THE STARTING PAGE NUMBER IN THE
FILE AND THE NUMBER OF 512 WORD PAGES.

THIS FILE WILL BE AS FOLLOWS:

	FE-FILE PAGE 0

		--------------
WORD	0	I  POINTER TO FREE SPACE
	1	I    PAGE #,,LENGTH
		I-------------
	2	I  POINTER TO MICROCODE
	3	I    PAGE #,,LENGTH
		I-------------
	4	I  POINTER TO MONITOR PRE-BOOT
	5	I    PAGE #,,LENGTH
		I-------------
	6	I  POINTER TO DIAGNOSTIC PRE-BOOT
	7	I    PAGE #,,LENGTH
		I-------------
	10	I  POINTER TO BOOTCHECK 1 MICROCODE
	11	I    PAGE #,,LENGTH
		I-------------
	12	I  POINTER TO BOOTCHECK 2 PRE-BOOT
	13	I    PAGE #,,LENGTH
		I-------------
	14	I  POINTER TO MONITOR BOOT
	15	I    PAGE #,,LENGTH
		I-------------
	16	I  POINTER TO DIAGNOSTIC BOOT
	17	I    PAGE #,,LENGTH
		I-------------
	20	I  POINTER TO BOOTCHECK 2
	21	I    PAGE #,,LENGTH
		I-------------
	22	I  POINTER TO INDIRECT FILE 0
	23	I    PAGE #,,LENGTH
		I-------------
	24	I  POINTER TO INDIRECT FILE 1
	25	I    PAGE #,,LENGTH
		I-------------
		/   ...
		I-------------
	776	I  POINTER TO INDIRECT FILE 366(8)
	777	I    PAGE #,,LENGTH
		--------------
SMFILE - DECSYSTEM 2020 DIAGNOSTICS FE-FILE PROGRAM
                                                                                                                           SEQ 0004
		--------------
PAGE 1		I
		I  MICROCODE - 12 PAGES
		I
		--------------

		--------------
PAGE 13		I
		I  MONITOR PRE-BOOT - 1 PAGE
		I
		--------------

		--------------
PAGE 14		I
		I  DIAGNOSTICS PRE-BOOT - 1 PAGE
		I
		--------------

		--------------
PAGE 15		I
		I  BOOTCHECK 1 MICROCODE - 12 PAGES
		I
		--------------

		--------------
PAGE 27		I
		I  BOOTCHECK 2 PRE-BOOT - 1 PAGE
		I
		--------------
		I
		/
		I
		--------------
LAST PAGE	I
		I
		I
		--------------

	FREE SPACE STARTS AT PAGE 28 ON "RESET" WITH THE BOOTS AND OTHER
FILES ASSIGNED SPACE AS APPROPRIATE.

	THE FREE SPACE POINTER STARTS WITH THE PAGE #,,LENGTH WORD EQUAL
TO (^D28,,<LENGTH FROM HOME BLOCK 102 - ^D28>).
SMFILE - DECSYSTEM 2020 DIAGNOSTICS FE-FILE PROGRAM
                                                                                                                           SEQ 0005
	THE SMFILE PROGRAM WILL HAVE THE FOLLOWING COMMANDS TO GENERATE
AND MAINTAIN THE FE-FILE SYSTEM:

	1.	DEPOSIT	(BC1,CRAM)

	2.	DEBUG	(CLEAR,SET)

	3.	ECHO	(YES,NO)

	4.	EXAMINE	(BC1,CRAM)

	5.	EXIT

	6.	HELP

	7.	INFORMATION	(DISK,FEFILE,FREE,INDIRECT)

	8.	OUTPUT	(BC1,CRAM,MTBOOT,RAM)

	9.	PUSH

	10.	RDBC1	("FILE.EXT")

	11.	READ	("FILE.EXT")

	12.	SERIAL	"NUMBER"

	13.	TAKE	("FILE.EXT")

	14.	TYPE	(INDIRECT) (0-366(8))

	15.	WRITE	(BC1,BC2,BOOT,CRAM,DIAGBT,DONE,INDIRECT,RESET,SETUP)
SMFILE - DECSYSTEM 2020 DIAGNOSTICS FE-FILE PROGRAM
                                                                                                                           SEQ 0006
	THE WRITE COMMAND WILL HAVE THE FOLLOWING ARGUMENTS:

	A.	BC1

	B.	BC2 "FILE"

	C.	BOOT "FILE"

	D.	CRAM

	E.	DIAGBT "FILE"

	F.	INDIRECT "0-366(8)" "FILE"

	G.	RESET

	H.	SETUP "DEV:"

	I.	DONE

	THE OUTPUT COMMAND WILL HAVE THE FOLLOWING ARGUMENTS:

	A.	BC1 "FILE".RAM

	B.	CRAM "FILE".RAM

	C.	RAM "FILE".RAM

	D.	MTBOOT "INPUT".EXE AS "MTBOOT".RDI
SMFILE - DECSYSTEM 2020 DIAGNOSTICS FE-FILE PROGRAM
                                                                                                                           SEQ 0007
	AN EXAMPLE SET OF COMMANDS NECESSARY TO CREAT THE FRONT-END
FILE SYSTEM ON DISK FOR THE DECSYSTEM 2020:

	@RUN SMFILE
	DECSYSTEM-2020 FE-FILE PROGRAM
	VERSION #.#
	[FOR HELP TYPE "HELP"]
	SMFILE>WRITE SETUP DEV:
	SMFILE>WRITE RESET
	SMFILE>READ KS10.ULD
	SMFILE>SERIAL ####
	SMFILE>WRITE CRAM
	SMFILE>WRITE BOOT SMBOOT.EXE
	SMFILE>WRITE DIAGBT SMMON.EXE
	SMFILE>WRITE BC2 SMBC2.EXE
	SMFILE>WRITE DONE
	SMFILE>EXIT

	AN EXAMPLE PROCEDURE FOR CREATING THE MICROCODE AND READ-IN
FILE TO BE THEN COPIED ONTO THE FRONT OF THE "SYSTEM" MAGTAPE FOR
MAGTAPE BOOTING:

	@RUN SMFILE
	DECSYSTEM-2020 FE-FILE PROGRAM
	VERSION #.#
	[FOR HELP TYPE "HELP"
	SMFILE>READ KS10.ULD
	SMFILE>OUTPUT CRAM KS10.RAM
	SMFILE>OUTPUT MTBOOT MTBOOT.EXE AS MTBOOT.RDI
	SMFILE>EXIT
SMFILE - DECSYSTEM 2020 DIAGNOSTICS FE-FILE PROGRAM
                                                                                                                           SEQ 0008
	THE FRONT-END INDIRECT FILES CONTAIN FRONT-END MICRO-PROCESSOR
COMMANDS THAT ARE USED AS IF THE USER HAD TYPED THEM DIRECTLY.  SEVERAL
COMMANDS MAY BE PUT ON A SINGLE LINE WITH COMMANDS SEPARATED BY COMMAS.
A COMMAND LINE MAY BE UP TO 80 CHARACTERS LONG.  THE INDIRECT FILE MAY
CONTAIN MANY LINES OF COMMANDS WITH THE FILE BEING LIMITED TO A MAXIMUM
OF 2047(10) CHARACTERS.  THE INPUT FILE USED TO CREATE THE FRONT-END
INDIRECT FILE WILL CONTAIN CR/LF PAIRS TO END LINES BUT THESE WILL BE
STRIPPED TO CR ONLY IN THE INDIRECT FILE.

	THE BYTES OF THE INDIRECT FILE WILL BE ARRANGED INTO THE
FOLLOWING FORMAT TO FACILIATE THEIR USE BY THE FRONT-END MICRO-
PROCESSOR:

	   0-3      4-11    12-19    20-27    28-35
	---------------------------------------------
	I 0000 I  CHAR 4 I CHAR 3 I CHAR 2 I CHAR 1 I
	---------------------------------------------
	I 0000 I  CHAR 8 I CHAR 7 I CHAR 6 I CHAR 5 I
	---------------------------------------------
	I		   /----/ 		    I
	---------------------------------------------
	I 0000 I  0 BYTE I CHAR Z I CHAR Y I CHAR X I
	---------------------------------------------

	THE FRONT-END INDIRECT FILE WILL TERMINATE WITH A ZERO BYTE.
SMFILE - DECSYSTEM 2020 DIAGNOSTICS FE-FILE PROGRAM
                                                                                                                           SEQ 0009
	THE FOLLOWING HALT ADDRESSES DURING THE DISK PRE-BOOT
OPERATION INDICATE THE FOLLOWING FAILURES:

	HALT 1001 - TRIED TO OVERLOAD PRE-BOOT
	HALT 1002 - DISK RETRY FAILURE
	HALT 1003 - NO RH-11 BASE ADDRESS

	THE FOLLOWING HALT STATUS BLOCK IS SAVED IF THE DISK
PRE-BOOT FAILS:

	LOC	100 - 8080 DISK ADDRESS
	LOC	101 - MEMORY PAGE ADDRESS
	LOC	102 - T3, SELECTION PICKUP POINTER
	LOC	103 - RPCS1, CONTROL AND STATUS 1 REG
	LOC	104 - RPCS10, CONTROL AND STATUS 2 REG
	LOC	105 - RPDS, DRIVE STATUS REG
	LOC	106 - RPER1, ERROR 1 REG
	LOC	107 - RPER2, ERROR 2 REG
	LOC	110 - RPER3, ERROR 3 REG
	LOC	111 - UBA PAGING RAM LOCATION 0
	LOC	112 - UBA STATUS REG
	LOC	113 - PRE-BOOT VERSION

	THE FOLLOWING HALT ADDRESSES DURING THE MAGTAPE PRE-BOOT
OPERATION INDICATE THE FOLLOWING FAILURES:

	HALT 1001 - TRIED TO OVERLOAD PRE-BOOT
	HALT 1002 - MAGTAPE READ ERROR
	HALT 1003 - NO RH-11 BASE ADDRESS
	HALT 1004 - MAGTAPE SKIP EOF ERROR

	THE FOLLOWING HALT STATUS BLOCK IS SAVED IF THE MAGTAPE
PRE-BOOT FAILS:

	LOC	100 - 0
	LOC	101 - MEMORY PAGE ADDRESS
	LOC	102 - T3, SLECECTION PICKUP POINTER
	LOC	103 - MTCS1, CONTROL AND STATUS 1 REG
	LOC	104 - MTCS2, CONTROL AND STATUS 2 REG
	LOC	105 - MTDS, DRIVE STATUS REG
	LOC	106 - MTER, ERROR REG
	LOC	107 - 0
	LOC	110 - 0
	LOC	111 - UBA PAGING RAM LOCATION 0
	LOC	112 - UBA STATUS REG
	LOC	113 - PRE-BOOT VERSION

[END]
[SMFILE.HLP 30-FEB-79]
                                                                                                                           SEQ 0010
	AN EXAMPLE SET OF COMMANDS NECESSARY TO CREAT THE FRONT-END
FILE SYSTEM ON DISK FOR THE DECSYSTEM 2020:

	@RUN SMFILE
	DECSYSTEM-2020 FE-FILE PROGRAM
	VERSION #.#
	[FOR HELP TYPE "HELP"]
	SMFILE>WRITE SETUP DEV:
	SMFILE>WRITE RESET
	SMFILE>READ KS10.ULD
	SMFILE>SERIAL ####
	SMFILE>WRITE CRAM
	SMFILE>WRITE BOOT SMBOOT.EXE
	SMFILE>WRITE DIAGBT SMMON.EXE
	SMFILE>WRITE BC2 SMBC2.EXE
	SMFILE>WRITE DONE
	SMFILE>EXIT

	AN EXAMPLE PROCEDURE FOR CREATING THE MICROCODE AND READ-IN
FILE TO BE THEN COPIED ONTO THE FRONT OF THE "SYSTEM" MAGTAPE FOR
MAGTAPE BOOTING:

	@RUN SMFILE
	DECSYSTEM-2020 FE-FILE PROGRAM
	VERSION #.#
	[FOR HELP TYPE "HELP"
	SMFILE>READ KS10.ULD
	SMFILE>OUTPUT CRAM KS10.RAM
	SMFILE>OUTPUT MTBOOT MTBOOT.EXE AS MTBOOT.RDI
	SMFILE>EXIT
		HISTORY FILE FOR SMFILE
		----------------------                                                                                     SEQ 0011
---------------------------------------------------------------

CODE:		MAINDEC-10-SMFILE

TITLE:		DECSYSTEM 2020 DIAGNOSTICS FE-FILE PROGRAM

VERSION:	0.3

DATE:		FEBRUARY 1979

REASON:		CORRECTED A PROBLEM DUE TO TOPS-20 RELEASE 4 CAUSING THE MONITOR
		PREBOOT PAGE TO NOT BE WRITTEN INTO THE BOOTSTRAP.BIN AREA.
		CHANGED THE TOPS-10 MONITOR BOOT SO THAT PAGE 0 DOES NOT GET
		WRITTEN INTO THE BOOTSTRAP FILE.
---------------------------------------------------------------

CODE:		MAINDEC-10-SMFILE

TITLE:		DECSYSTEM 2020 DIAGNOSTICS FE-FILE PROGRAM

VERSION:	0.2

DATE:		DECEMBER 1978

REASON:		ENHANCED DIAGNOSTIC AND BOOT CHECK 2 PRE-BOOTS TO PERFORM BASIC
		CPU CHECKING.
---------------------------------------------------------------

CODE:		MAINDEC-10-SMFILE

TITLE:		DECSYSTEM 2020 DIAGNOSTICS FE-FILE PROGRAM

VERSION:	0.1

DATE:		MAY 1978

REASON:		ORIGINAL RELEASE OF THIS PROGRAM FOR KS-10.
		STARTED KEEPING A HISTORY.
---------------------------------------------------------------
SMFILE DECSYSTEM 2020 DIAGNOSTICS FE-FILE PROGRAM, VER 0,3^             DECDOC VER  00.24   19-FEB-79 10:59:48   PAGE 1
                                                                                                                           SEQ 0012


				   DOCUMENT
				**************
         SMFILE DECSYSTEM 2020 DIAGNOSTICS FE-FILE PROGRAM, VER 0,3^
				**************


		    COPYRIGHT 1979
		    DIGITAL EQUIPMENT CORPORATION
		    MAYNARD, MASS. 01754

SMFILE DECSYSTEM 2020 DIAGNOSTICS FE-FILE PROGRAM, VER 0,3^             DECDOC VER  00.24   19-FEB-79 10:59:48   PAGE 2
                                                                                                                           SEQ 0013

				 TABLE OF CONTENTS
				*******************


	36	PARAMETERS

	252	STANDARD PROGRAM ASSIGNMENTS

	332	MACROS

	439	PROGRAM PARAMETERS

	577	FIXED DATABASE

	626	INIT PROGRAM

	695	MAIN LOOP

	850	COMMANDS -- INFORMATION

	970	COMMANDS -- PUSH

	1008	COMMANDS -- DEBUG

	1030	COMMANDS -- ECHO

	1044	COMMANDS -- DEPOSIT

	1071	COMMANDS -- SERIAL

	1097	COMMANDS -- EXAMINE

	1145	COMMANDS -- EXIT

	1154	COMMANDS -- HELP

	1208	COMMANDS -- WRITE

	3255	COMMANDS -- READ

	3371	TOPS-10 DISK ROUTINE DEFINITIONS

	3508	TOPS-10 DISK FILE PROCESS

	3740	TOPS-10 INDIRECT COMMAND FILE PROCESS

	3815	SPECIFY DEVICE FILE STRUCTURE FOR  DIRECTORY
SMFILE DECSYSTEM 2020 DIAGNOSTICS FE-FILE PROGRAM, VER 0,3^             DECDOC VER  00.24   19-FEB-79 10:59:48   PAGE 3
                                                                                                                           SEQ 0014

				 TABLE OF CONTENTS
				*******************


	4029	ROUTINE TO CREATE KS10FE.BIN FILE

	4121	PROCESS ".ULD" MICROCODE

	4449	COMMANDS -- OUTPUT

	4753	PROCESS TOPS-10 MAGTAPE BOOT EXE FILE

	5173	COMMANDS -- TAKE

	5206	COMMAND SUBROUTINES -- DPYFLD

	5548	COMMAND SUBROUTINES -- UPDFLD

	5623	DISPLAY CRAM BY FIELD BREAKDOWN -- CRMFLD

	5787	MISCELLANEOUS ROUTINES

	5824	PSI LOGIC -- LEVTAB & CHNTAB

	5870	PSI LOGIC -- CONTROL-C AND CONTROL-X

	5933	PSI LOGIC -- CONTROL T

	5954	STORAGE -- PRESERVED

	5998	 COMMAND PROCESSOR

	6026	MAIN SUBROUTINE PACKAGE CONTROL

	6081	UUO HANDLING SUBROUTINE

	6214	PROCESSOR TYPE DETERMINATION

	6250	PROGRAM HALTS

	6286	PROGRAM NAME PRINTER

	6326	*SUBRTN* END OF PASS/END OF PROGRAM ROUTINES

	6350	*SUBRTN* TELETYPE INPUT ROUTINES

	6518	*SUBRTN* TELETYPE  YES/NO TYPE-IN ROUTINE
SMFILE DECSYSTEM 2020 DIAGNOSTICS FE-FILE PROGRAM, VER 0,3^             DECDOC VER  00.24   19-FEB-79 10:59:48   PAGE 4
                                                                                                                           SEQ 0015

				 TABLE OF CONTENTS
				*******************


	6565	*SUBRTN* TELETYPE OCTAL-DECIMAL-CONVERT TYPE-IN ROUTINE

	6684	*SUBRTN*  TELETYPE SIXBIT INPUT ROUTINE

	6722	*SUBRTN* PRINT SUBROUTINES

	7093	*SUBRTN*  CHARACTER OUTPUT ROUTINES

	7378	*STOR* RESERVED STORAGE

	7515	STORAGE -- ZEROED ON STARTUP
SMFILE DECSYSTEM 2020 DIAGNOSTICS FE-FILE PROGRAM, VER 0,3^             DECDOC VER  00.24   19-FEB-79 10:59:48   PAGE 5
                                                                                                                           SEQ 0016
		18	COPYRIGHT 1978,1979
			DIGITAL EQUIPMENT CORPORATION
			MARLBORO, MASS. 01752

		22	JOHN R. KIRCHOFF

		*****************************************************************
	36	PARAMETERS
		*****************************************************************

		41	DATA SWITCHES

		47	AC USE

		85	FE-FILE DIRECTORY DEFINTIONS

		134	OPERATOR DEFINITIONS (NON-UUO'S)

		144	SUBROUTINE INITIALIZATION CALL

		150	HALTING UUO'S (A MORE GRACEFUL HALT THAN SIMPLY USING THE HALT INSTRUCTION).

		157	TERMINAL INPUT UUO'S

		172	TERMINAL OUTPUT UUO'S.

		241	SIXBTZ -- MACRO TO GENERATE SIXBIT DATA FOR PRINTING
				CONSERVES CORE OVER ASCIZ

		247	END OF PASS/PROGRAM UUOS

		*****************************************************************
	252	STANDARD PROGRAM ASSIGNMENTS
		*****************************************************************

		255	PDP-10 STANDARD PC CONTROL FLAGS (SAVED ON PUSHJ, JSR, ETC..)

		269	PDP-10 STANDARD ADDRESS ASSIGNMENTS

		276	JOB DATA AREA EXTERNALS (OLD DEFINITIONS)

		294	JOB DATA AREA EXTERNALS (NEW DEFINITIONS)

		313	USER MODE APR ASSIGNMENTS (FOR "APRENB" CALL)

		325	USER MODE PRINT OUTPUT CHANNEL ASSIGNMENTS (FOR SUBROUTINE PACKAGE)
			THE USER SHOULD BE CAUTIONED NOT TO USE THESE CHANNELS WHEN
			USING THE SUBROUTINE PACKAGE AND CODING USER MODE PROGRAMS.

SMFILE DECSYSTEM 2020 DIAGNOSTICS FE-FILE PROGRAM, VER 0,3^             DECDOC VER  00.24   19-FEB-79 10:59:48   PAGE 6
                                                                                                                           SEQ 0017
		*****************************************************************
	332	MACROS
		*****************************************************************

		*****************************************************************
	439	PROGRAM PARAMETERS
		*****************************************************************

		442	PROGRAM VARIABLE PARAMETER AREA

		461	SPECIAL PROGRAM DISPATCH ADDRESSES

		471	PROCESSOR CONTROL STORAGE

		479	UUO DISPATCH TABLE

		499	PRINT CONTROL STORAGE

		530	USER MODE OUTPUT FILE INFORMATION

		539	PUSHDOWN LIST CONTROL INFORMATION

		547	NUMBER INPUT DIGIT FLAG

		553	USER MODE MONITOR TYPE FLAG

		559	SPECIAL USERS USER MODE OUTPUT ERROR INTERCEPT INSTUCTION

		565	"SWITCH" CALL USAGE CONTROL

		571	SM10 (KS-10) PROCESSOR TYPE FLAG

		*****************************************************************
	577	FIXED DATABASE
		*****************************************************************

		*****************************************************************
	626	INIT PROGRAM
		*****************************************************************

SMFILE DECSYSTEM 2020 DIAGNOSTICS FE-FILE PROGRAM, VER 0,3^             DECDOC VER  00.24   19-FEB-79 10:59:48   PAGE 7
                                                                                                                           SEQ 0018
		*****************************************************************
	695	MAIN LOOP
		*****************************************************************

		807	HERE ON AN ERROR FROM COMMAND JSYS

		828	COMMAND PARSER SUBROUTINES

		*****************************************************************
	850	COMMANDS -- INFORMATION
		*****************************************************************

		*****************************************************************
	970	COMMANDS -- PUSH
		*****************************************************************

		*****************************************************************
	1008	COMMANDS -- DEBUG
		*****************************************************************

		*****************************************************************
	1030	COMMANDS -- ECHO
		*****************************************************************

		*****************************************************************
	1044	COMMANDS -- DEPOSIT
		*****************************************************************

		1055	HERE TO STORE INTO CRAM

		*****************************************************************
	1071	COMMANDS -- SERIAL
		*****************************************************************

		*****************************************************************
	1097	COMMANDS -- EXAMINE
		*****************************************************************

		1111	EXAMINE CRAM

SMFILE DECSYSTEM 2020 DIAGNOSTICS FE-FILE PROGRAM, VER 0,3^             DECDOC VER  00.24   19-FEB-79 10:59:48   PAGE 8
                                                                                                                           SEQ 0019
		*****************************************************************
	1145	COMMANDS -- EXIT
		*****************************************************************

		*****************************************************************
	1154	COMMANDS -- HELP
		*****************************************************************

		1187	TOPS-10 HELP

		*****************************************************************
	1208	COMMANDS -- WRITE
		*****************************************************************

		1225	WRTSET - READ FE-FILE DIRECTORY BLOCK INTO MEMORY

		1317	WRTRSET - RESET FE-DIRECTORY

		1357	FIND - FIND THE PHYSICAL DISK WITH THE GIVEN NAME

		1423	STRCMP - STRING COMPARE ROUTINE

		1432	FALIAS - FIND THE PHYSICAL DISK WITH THE GIVEN ALIAS

		1493	COMPUTE DIAGNOSTIC PRE-BOOT PAGE POINTER

		1570	WRTBOOT - WRITE MONITOR PRE-BOOT AND BOOT ON DISK

		1690	WRTDB - WRITE DIAGNOSTIC PRE-BOOT AND "SMMON" ON DISK

		1812	WRTBC2 - WRITE BOOTCHECK 2 PRE-BOOT AND "SMBC2" ON DISK

		2035	NOW READ EXE FILE

		2114	FIND 1ST PAGE OF FILE & PUT IN PRE-BOOT

		2123	COMPUTE 8080 ADDRESSES - PUT IN PRE-BOOT

		2188	NOW READ EXE FILE

		2267	FIND 1ST PAGE OF FILE & PUT IN PRE-BOOT

		2276	COMPUTE 8080 ADDRESSES - PUT IN PRE-BOOT

		2340	NOW READ EXE FILE

		2425	FIND 1ST PAGE OF FILE & PUT IN PRE-BOOT

		2434	COMPUTE 8080 ADDRESSES - PUT IN PRE-BOOT

SMFILE DECSYSTEM 2020 DIAGNOSTICS FE-FILE PROGRAM, VER 0,3^             DECDOC VER  00.24   19-FEB-79 10:59:48   PAGE 9
                                                                                                                           SEQ 0020
		2456	MONITOR BOOT STRAP PROGRAM TO BE WRITTEN ON THE DISK

		2667	WRITE MICRO-CODE ONTO DISK

		2721	WRTFEF, WRITE FRONT-END INDIRECT FILES
				COMMAND - [INDIRECT "0-366(8)" "FILE.EXT"
				CREATES - "FEF000.FI" TO "FEF366.FI" (TOPS-10)

		2810	FEF10, TOPS-10 WRITE FRONT-END INDIRECT FILES

		2886	FEIFMT, FORMAT FRONT-END INDIRECT FILES

		2929	TYPE, TYPE CONTENTS OF INDIRECT FILE

		3002	TYPF10, TOPS-10 TYPE CONTENTS OF INDIRECT FILE

		3039	FETELL, REPORT INDIRECT FILES IN USE & FREE SPACE

		3127	WRTDONE - WRITE FE-DIR FILE BLOCK

		3216	SUBROUTINE TO READ AND WRITE HOME BLOCKS
			CALL WITH:
				T1/ DISK ADDRESS
				STRDES/ DEVICE DESIGNATOR OF STRUCTURE
				GO	REDHOM/WRTHOM
				  ERROR
				OK

		3232		TXO	T1,<.DOPSR>B1!DOP%SN ;MONSYM IS BAD

		*****************************************************************
	3255	COMMANDS -- READ
		*****************************************************************

		3333	TOPS-10 MICROCODE READ PROCESS

		*****************************************************************
	3371	TOPS-10 DISK ROUTINE DEFINITIONS
		*****************************************************************

		3373	I/O CHANNELS

		3382	SYMBOL DEFINITIONS

		3452	ERROR INTERCEPT CONTROL BLOCK

SMFILE DECSYSTEM 2020 DIAGNOSTICS FE-FILE PROGRAM, VER 0,3^             DECDOC VER  00.24   19-FEB-79 10:59:48   PAGE 10
                                                                                                                           SEQ 0021
		*****************************************************************
	3508	TOPS-10 DISK FILE PROCESS
		*****************************************************************

		3510	GET A CHARACTER FROM -10 FILE

		3527	END OF INPUT FILE

		3539	PUT A CHARACTER TO -10 FILE

		3551	COMPLETE OUTPUT FILE

		3564	OPEN DEVICE/LOOKUP ON FILE

		3609	OPEN DEVICE/LOOKUP ON DATA FILE

		3642	OPEN DEVICE/ENTER ON FILE

		3690	ENTER FILE ON CHANNEL WC

		*****************************************************************
	3740	TOPS-10 INDIRECT COMMAND FILE PROCESS
		*****************************************************************

		*****************************************************************
	3815	SPECIFY DEVICE FILE STRUCTURE FOR  DIRECTORY
		*****************************************************************

		3926	OPNHOM - ROUTINE TO OPEN THE DISK ON CHANNEL 'HOM'

		3937	RADHOM - ROUTINE TO READ A BLOCK ON CHANNEL 'HOM'

		3952	WHOM10 - ROUTINE TO WRITE A BLOCK ON CHANNEL 'HOM'

		3966	OPWCDP - ROUTINE TO OPEN IN DUMP MODE TO WRITE

		3977	OPRCDP - ROUTINE TO OPEN IN DUMP MODE TO READ

		3987	GETBLK - ROUTINE TO GET THE LOGICAL BLOCK NUMBER OF THE
				   FIRST BLOCK OF A FILE IN THE TOPS-10 FILE SYSTEM.

			CALL:		GO	GETBK1
					OR
					GO	GETBK2
					RETURN WITH BLOCK # IN T1

SMFILE DECSYSTEM 2020 DIAGNOSTICS FE-FILE PROGRAM, VER 0,3^             DECDOC VER  00.24   19-FEB-79 10:59:48   PAGE 11
                                                                                                                           SEQ 0022
		*****************************************************************
	4029	ROUTINE TO CREATE KS10FE.BIN FILE
		*****************************************************************

		4060	GET DISK DIRECTORY ADDRESS, PUT IN HOME BLOCK

		4076	WRITE OUT HOME BLOCK #1

		4082	HERE TO UPDATE AND WRITE OUT HOME BLOCK # 10

		*****************************************************************
	4121	PROCESS ".ULD" MICROCODE
		*****************************************************************

		4195	KSXX, CRAM PARITY COMPUTE SUBROUTINE

		4396	SUBROUTINE TO FILE END OF LINE
			CALL WITH:
				GO	RDEOL
				RETURN HERE

		*****************************************************************
	4449	COMMANDS -- OUTPUT
		*****************************************************************

		4461	OUTRAM, OUTPUT MICROCODE ".RAM" FILE

		4509	TOPS-10 OUTPUT MICRO-CODE ".RAM" FILE

		4552	OUTMT, OUTPUT MAGTAPE ".RDI" FILE

		4714	TOPS-10 OUTPUT MAGTAPE ".RDI" FILE

		*****************************************************************
	4753	PROCESS TOPS-10 MAGTAPE BOOT EXE FILE
		*****************************************************************

		4880	SELECT NEXT EXE DATA PAGE

		4884	READ EXE DATA PAGE

		4888	READ EXE DIRECTORY PAGE

		4908	MONITOR BOOT STRAP PROGRAM TO BE WRITTEN ON THE MAGTAPE

SMFILE DECSYSTEM 2020 DIAGNOSTICS FE-FILE PROGRAM, VER 0,3^             DECDOC VER  00.24   19-FEB-79 10:59:48   PAGE 12
                                                                                                                           SEQ 0023
		*****************************************************************
	5173	COMMANDS -- TAKE
		*****************************************************************

		*****************************************************************
	5206	COMMAND SUBROUTINES -- DPYFLD
		*****************************************************************

		*****************************************************************
	5548	COMMAND SUBROUTINES -- UPDFLD
		*****************************************************************

		5550	SUBROUTINE TO GET NEW VALUE FOR FIELD
			CALL WITH:
				T2/	OLD VALUE
				GO	UPDFLD
				HERE IF "^" (UPARROW), BACKUP ONE FIELD
				HERE WITH NEW VALUE IN T2

		*****************************************************************
	5623	DISPLAY CRAM BY FIELD BREAKDOWN -- CRMFLD
		*****************************************************************

		*****************************************************************
	5787	MISCELLANEOUS ROUTINES
		*****************************************************************

		*****************************************************************
	5824	PSI LOGIC -- LEVTAB & CHNTAB
		*****************************************************************

		*****************************************************************
	5870	PSI LOGIC -- CONTROL-C AND CONTROL-X
		*****************************************************************

		5872	HERE ON A CONTROL-C INTERRUPT

		5880	HERE ON CONTROL-X INTERRUPT

		5891	HERE ON CONTROL-Z INTERRUPT

		5902	HERE ON A CONTROL-T INTERRUPT

		5910	here on control-o interrupt

		5915	*PSI LOGIC -- FORK TERMINATION

		5917	HERE WHEN A FORK TERMINATES

SMFILE DECSYSTEM 2020 DIAGNOSTICS FE-FILE PROGRAM, VER 0,3^             DECDOC VER  00.24   19-FEB-79 10:59:48   PAGE 13
                                                                                                                           SEQ 0024
		*****************************************************************
	5933	PSI LOGIC -- CONTROL T
		*****************************************************************

		*****************************************************************
	5954	STORAGE -- PRESERVED
		*****************************************************************

		5959	COMMAND STATUS BLOCK FOR COMND JSYS

		*****************************************************************
	5998	 COMMAND PROCESSOR
		*****************************************************************

		*****************************************************************
	6026	MAIN SUBROUTINE PACKAGE CONTROL
		*****************************************************************

		6029	INITIALIZE THE SUBROUTINE PACKAGE

		6038	CONTRL* SUBROUTINE PACKAGE INITIALIZATION

		6054	INITIALIZE PROCESSOR FLAGS AND PUSH LIST

		6072	INITIALIZE SUBROUTINES

		*****************************************************************
	6081	UUO HANDLING SUBROUTINE
		*****************************************************************

		6084	UUO INITIALIZATION

		6094	$UORTN - UUO PROCESSING

		6126	UUO ERROR EXIT ROUTINE

		6144	DECODE ROUTINE FOR SUBROUTINE UUO'S (037)

		*****************************************************************
	6214	PROCESSOR TYPE DETERMINATION
		*****************************************************************

SMFILE DECSYSTEM 2020 DIAGNOSTICS FE-FILE PROGRAM, VER 0,3^             DECDOC VER  00.24   19-FEB-79 10:59:48   PAGE 14
                                                                                                                           SEQ 0025
		*****************************************************************
	6250	PROGRAM HALTS
		*****************************************************************

		6252	SUBROUTINE ERROR HALT

		6274	FATAL PROGRAM ERROR HALT

		*****************************************************************
	6286	PROGRAM NAME PRINTER
		*****************************************************************

		6288	PRINT PROGRAM NAME IF NOT STAND-ALONE OR USER MODE

		*****************************************************************
	6326	*SUBRTN* END OF PASS/END OF PROGRAM ROUTINES
		*****************************************************************

		6328	END OF PASS ROUTINE

		6342	END OF PROGRAM ROUTINE

		*****************************************************************
	6350	*SUBRTN* TELETYPE INPUT ROUTINES
		*****************************************************************

		6353	CARRIAGE RETURN OR COMMA TERMINATES OCTAL, DECIMAL, OR CONVERT TYPE-IN.
			CHARACTER OR NUMBER RETURNED IN AC0.
			CALL SEQUENCE IS AS FOLLOWS:
				NAME
				NO/ERROR RESPONSE RETURN (+ 1)
				NORMAL RESPONSE RETURN (+ 2)
			$OPTLK =	INPUT ANY CHARACTER
			$YESNO =	ASK QUESTION, CORRECT RESPONSE Y
			$NOYES =	ASK QUESTION, CORRECT RESPONSE N
			$TPOCT =	INPUT UP TO 12 OCTALS
			$TPDEC =	INPUT UP TO 11 DECIMALS
			$TPCNV =	INPUT UP TO 9 CONVERT'S
			$TTLK  =	KEYBOARD CHECK, INPUT ANY CHARACTER (NO WAIT)
			$TALTM =	KEYBOARD, ALT-MODE CHECK
			$TISIX =	INPUT UP TO 6 SIXBIT CHARACTERS

		6370	TELETYPE INPUT INITIALIZATION

		6376	CHECKS FOR ANY KEY STRUCK, RETURNS IMMEDIATELY
			RETURNS +1 IF NO TYPEIN, RETURNS +2 IF CHAR TYPED

		6402	TELETYPE IMAGE MODE INPUT
			PROVIDES UNBUFFERED MODE INPUT
			WAITS FOREVER, RETURN WITH CHAR UPPER CASED & ECHOED

SMFILE DECSYSTEM 2020 DIAGNOSTICS FE-FILE PROGRAM, VER 0,3^             DECDOC VER  00.24   19-FEB-79 10:59:48   PAGE 15
                                                                                                                           SEQ 0026
		6429	TELETYPE ALT-MODE CHECK ROUTINE

		6445	TELETYPE INPUT CHARACTER

		6485	CHARACTER PROCESSING ROUTINE FOR INPUT
			CHARACTER RETURNED IN AC0 IS UPPER CASE
			ACTUAL CHARACTER IS IN $TTCHR

		*****************************************************************
	6518	*SUBRTN* TELETYPE  YES/NO TYPE-IN ROUTINE
		*****************************************************************

		6521	ACCEPTS Y OR N
			FOR YESNO, Y IS SKIP RETURN, N OR NO RESPONSE IS DIRECT RETURN
			FOR NOYES, N IS SKIP RETURN, Y OR NO RESPONSE IS DIRECT RETURN
			'Y OR N <CR> - ' ASKED UPON ENTRY

		*****************************************************************
	6565	*SUBRTN* TELETYPE OCTAL-DECIMAL-CONVERT TYPE-IN ROUTINE
		*****************************************************************

		6568	ACCEPTS 0 TO 12 OCTALS, 0 TO 11 DECIMALS, 0 TO 9 CONVERT CHARACTERS
			NUMBER RETURNED IN AC0.

		6589	INPUT AND COMPUTE NUMBER

		6612	CHECK FOR PROPER AMOUNT OF CHARACTERS

		6637	NUMBER COMPUTING CONSTANTS

		6660	CONVERT CONVERSION ROUTINE

		*****************************************************************
	6684	*SUBRTN*  TELETYPE SIXBIT INPUT ROUTINE
		*****************************************************************

		6687	INPUTS UP TO SIX CHARACTERS, TERMINATES WITH A CR OR COMMA.
			SIXBIT WORD RETURNED IN AC0

SMFILE DECSYSTEM 2020 DIAGNOSTICS FE-FILE PROGRAM, VER 0,3^             DECDOC VER  00.24   19-FEB-79 10:59:48   PAGE 16
                                                                                                                           SEQ 0027
		*****************************************************************
	6722	*SUBRTN* PRINT SUBROUTINES
		*****************************************************************

		6725		$PNTSX		PRINT SIXBIT NORMAL
				$PTSXF		PRINT SIXBIT FORCED
				$PNTCW		PRINT DF10 CONTROL WORD
				$PNTI1		PRINT OCTAL NUMBER
				$CHRPN		PRINT CHARACTER
				$ASCPN		PRINT ASCII CHARACTER/LINE
				$DECPN		PRINT DECIMAL NUMBER

		6735	PRINT SUBROUTINE INITIALIZATION
			INITIALIZES CONTROL WORDS, AND TTY IF IN USER MODE

		6773	PRINT SUBROUTINE ENTRY POINT
			EXIT VIA $PNTI4 BELOW

		6805	PRINT ROUTINE EXIT

		6818	PRINT LIMIT WARNING & ALTERNATE EXIT PATH

		6838	PRINT ROUTINE SELECTOR
			BASED ON "AC FIELD" = 12 - 17

		6868	SIXBIT PRINT SUBROUTINE
			PRINTS SIXBIT WORD IN AC0

		6872	NORMAL PRINTOUT

		6885	FORCED PRINTOUT

		6898	SIXBIT MESSAGE PRINT ROUTINE
			PRINTS THE SIXBIT MESSAGE THOSE ADDRESS IS IN AC0
			"BACKARROW" (77) SIGNIFIES END OF TEXT
			"UPARROW" (76) SIGNIFIES CR/LF
			"RIGHT SQUARE BRACKET" (75) SIGNIFIES TAB

		6948	OCTAL SUPPRESS LEADING ZEROS PRINT ROUTINE
			PRINTS NUMBER IN AC0, SUPPRESSING LEADING ZEROS
			PRINTS MINUS SIGN IF NUMBER IS NEGATIVE

		6997	OCTAL PRINTOUT ROUTINE
			PRINTS NUMBER IN AC0

		7029	ASCII/CHARACTER PRINTOUT ROUTINE
			PRINTS CHAR IN LOWER 7 BITS OF AC0

		7039	PRINTS ASCII WHOSE ADDRESS IS IN AC0

SMFILE DECSYSTEM 2020 DIAGNOSTICS FE-FILE PROGRAM, VER 0,3^             DECDOC VER  00.24   19-FEB-79 10:59:48   PAGE 17
                                                                                                                           SEQ 0028
		7058	DECIMAL PRINTOUT ROUTINE
			PRINTS NUMBER IN AC0

		*****************************************************************
	7093	*SUBRTN*  CHARACTER OUTPUT ROUTINES
		*****************************************************************

		7096	OUTPUT TERMINATION CONTROL ROUTINE

		7103	OVERALL CHARACTER OUTPUT CONTROL ROUTINE

		7130	USER MODE LF & CR FILLERS

		7146	RETURN BACK TO PRINTING ROUTINE FROM CHAR OUTPUT

		7151	USER MODE CHARACTER OUTPUT

		7183	USER MODE LOGICAL DEVICE OUTPUT

		7192	 LOGICAL DEVICE OUTPUT ROUTINES

		7221	LOGICAL DEVICE INITIALIZATION
			PHY DEV ASSIGNED AT RUN TIME

		7265	USER MODE CLOSE FILE

		7312	TOPS10, LOGICAL DEVICE OUTPUT

		7323	$INT10, TOPS10 INITIALIZE LOGICAL OUTPUT

		7352	USER MODE CLOSE FILE

		*****************************************************************
	7378	*STOR* RESERVED STORAGE
		*****************************************************************

		*****************************************************************
	7515	STORAGE -- ZEROED ON STARTUP
		*****************************************************************
SMPREB DECSYSTEM 2020 DIAGNOSTICS PRE-BOOT PROGRAM, VER 0,2^            DECDOC VER  00.24   19-FEB-79 11:02:49   PAGE 1
                                                                                                                           SEQ 0029


				   DOCUMENT
				**************
         SMPREB DECSYSTEM 2020 DIAGNOSTICS PRE-BOOT PROGRAM, VER 0,2^
				**************


		    COPYRIGHT 1979
		    DIGITAL EQUIPMENT CORPORATION
		    MAYNARD, MASS. 01754

SMPREB DECSYSTEM 2020 DIAGNOSTICS PRE-BOOT PROGRAM, VER 0,2^            DECDOC VER  00.24   19-FEB-79 11:02:49   PAGE 2
                                                                                                                           SEQ 0030

				 TABLE OF CONTENTS
				*******************


	23	PARAMETERS

	94	PRE-BOOT PROGRAM TO BE WRITTEN ON THE DISK
SMPREB DECSYSTEM 2020 DIAGNOSTICS PRE-BOOT PROGRAM, VER 0,2^            DECDOC VER  00.24   19-FEB-79 11:02:49   PAGE 3
                                                                                                                           SEQ 0031
		14	JOHN R. KIRCHOFF

		*****************************************************************
	23	PARAMETERS
		*****************************************************************

		*****************************************************************
	94	PRE-BOOT PROGRAM TO BE WRITTEN ON THE DISK
		*****************************************************************
GSCN  --  C/--!.$ S#!..%2 I.4%2&!#% &/2 DIAGNOSTICS                     DECDOC VER  00.24   19-FEB-79 11:01:47   PAGE 1
                                                                                                                           SEQ 0032


				   DOCUMENT
				**************
             GSCN  --  Command Scanner Interface for DIAGNOSTICS
				**************


		    COPYRIGHT 1979
		    DIGITAL EQUIPMENT CORPORATION
		    MAYNARD, MASS. 01754

GSCN  --  C/--!.$ S#!..%2 I.4%2&!#% &/2 DIAGNOSTICS                     DECDOC VER  00.24   19-FEB-79 11:01:47   PAGE 2
                                                                                                                           SEQ 0033

				 TABLE OF CONTENTS
				*******************


	29	Table of Contents

	51	Revision History

	84	Local Definitions

	133	Module Storage

	167	S%INIT  --  Initialize the GLXSCN Module

	180	S%ERR - ERROR TYPEOUT ROUTINE

	201	S%CMND  --  Scan a command

	2118	S%SCMP  --  String Comparison Routine

	2170	S%TBLK  --  Table lookup routine

	2297	KEYBOARD INTERFACE

	2303	Table of Contents

	2329	Revision History

	2356	Local Definitions

	2370	Module Storage

	2389	K%INIT  --  Initialization of the Scanning Module

	2430	K%RCOC  --  Read Character Output Control Table

	2462	K%WCOC  --  Write Character  Output Control table

	2485	K%SUET  --  Set User Escape Table

	2515	K%STYP  --  Set terminal type

	2614	K%TXTI  --  Handle Terminal Input

	2671	TXTL  --  Loop for inputting text

	2758	TTYCHR  --  Here to receive 1 character from the TTY
GSCN  --  C/--!.$ S#!..%2 I.4%2&!#% &/2 DIAGNOSTICS                     DECDOC VER  00.24   19-FEB-79 11:01:47   PAGE 3
                                                                                                                           SEQ 0034

				 TABLE OF CONTENTS
				*******************


	2776	Utilities for text handling

	2970	SPCHK  --  Check for special characters

	3000	 CCU  --  Handle ^U (Rubout entire line)

	3028	CCR  --  Handle ^R (Re-type the line)

	3048	CCDEL  --  Handle Rubout (Delete one character)

	3079	CCW  --  Handle ^W (Delete back to punctuation character)

	3103	BEGBUF  --  Handle rubouts to beginning of buffer

	3116	TYPEBP  --  Type a string according to a byte-pointer

	3138	GLXCOM  --  Common module for Sub-Systems Components

	3166	Table of contents

	3183	Revision History

	3197	Global Storage

	3213	.INIT  - Initialize the common code

	3234	.ZPAGA - .ZPAGN - .ZCHNK  --  Zero out memory

	3263	.SAVEx Routines -- Save permanent ACS

	3311	.SAVET -- Routine to save the temporary ACS

	3327	.SVxx  --  Routines for saving random ACS

	3368	.POPJ, .RETE,.RETT & .RETF -- Common return routines

	3389	.AOS, .SOS and .ZERO - Support for INCR,DECR, ZERO

	3416	STOP CODE Processor
GSCN  --  C/--!.$ S#!..%2 I.4%2&!#% &/2 DIAGNOSTICS                     DECDOC VER  00.24   19-FEB-79 11:01:47   PAGE 4
                                                                                                                           SEQ 0035
		*****************************************************************
	29	Table of Contents
		*****************************************************************

		*****************************************************************
	51	Revision History
		*****************************************************************

		*****************************************************************
	84	Local Definitions
		*****************************************************************

		*****************************************************************
	133	Module Storage
		*****************************************************************

		*****************************************************************
	167	S%INIT  --  Initialize the GLXSCN Module
		*****************************************************************

		*****************************************************************
	180	S%ERR - ERROR TYPEOUT ROUTINE
		*****************************************************************

		*****************************************************************
	201	S%CMND  --  Scan a command
		*****************************************************************

		572	*	RFPOS
			*	HRRZ	T2,T2
			*	JUMPE	T2,CMRTY2	;JUMP IF AT LEFT MARGIN

		653	***************************************
			***************************************

		1120	***********************
			***********************

		1606	*	IMCALL .IDTNC

		1616	*		ODCNV			;GET TODAY
			*		UMOVEM	T3,T3

		1619	*	IMCALL	.IDCNV		;CONVERT TO INTERNAL

GSCN  --  C/--!.$ S#!..%2 I.4%2&!#% &/2 DIAGNOSTICS                     DECDOC VER  00.24   19-FEB-79 11:01:47   PAGE 5
                                                                                                                           SEQ 0036
		*****************************************************************
	2118	S%SCMP  --  String Comparison Routine
		*****************************************************************

		*****************************************************************
	2170	S%TBLK  --  Table lookup routine
		*****************************************************************

		*****************************************************************
	2297	KEYBOARD INTERFACE
		*****************************************************************

		*****************************************************************
	2303	Table of Contents
		*****************************************************************

		*****************************************************************
	2329	Revision History
		*****************************************************************

		*****************************************************************
	2356	Local Definitions
		*****************************************************************

		*****************************************************************
	2370	Module Storage
		*****************************************************************

		*****************************************************************
	2389	K%INIT  --  Initialization of the Scanning Module
		*****************************************************************

		*****************************************************************
	2430	K%RCOC  --  Read Character Output Control Table
		*****************************************************************

		*****************************************************************
	2462	K%WCOC  --  Write Character  Output Control table
		*****************************************************************

GSCN  --  C/--!.$ S#!..%2 I.4%2&!#% &/2 DIAGNOSTICS                     DECDOC VER  00.24   19-FEB-79 11:01:47   PAGE 6
                                                                                                                           SEQ 0037
		*****************************************************************
	2485	K%SUET  --  Set User Escape Table
		*****************************************************************

		*****************************************************************
	2515	K%STYP  --  Set terminal type
		*****************************************************************

		*****************************************************************
	2614	K%TXTI  --  Handle Terminal Input
		*****************************************************************

		*****************************************************************
	2671	TXTL  --  Loop for inputting text
		*****************************************************************

		*****************************************************************
	2758	TTYCHR  --  Here to receive 1 character from the TTY
		*****************************************************************

		*****************************************************************
	2776	Utilities for text handling
		*****************************************************************

		*****************************************************************
	2970	SPCHK  --  Check for special characters
		*****************************************************************

		*****************************************************************
	3000	 CCU  --  Handle ^U (Rubout entire line)
		*****************************************************************

		*****************************************************************
	3028	CCR  --  Handle ^R (Re-type the line)
		*****************************************************************

		*****************************************************************
	3048	CCDEL  --  Handle Rubout (Delete one character)
		*****************************************************************

GSCN  --  C/--!.$ S#!..%2 I.4%2&!#% &/2 DIAGNOSTICS                     DECDOC VER  00.24   19-FEB-79 11:01:47   PAGE 7
                                                                                                                           SEQ 0038
		*****************************************************************
	3079	CCW  --  Handle ^W (Delete back to punctuation character)
		*****************************************************************

		*****************************************************************
	3103	BEGBUF  --  Handle rubouts to beginning of buffer
		*****************************************************************

		*****************************************************************
	3116	TYPEBP  --  Type a string according to a byte-pointer
		*****************************************************************

		*****************************************************************
	3138	GLXCOM  --  Common module for Sub-Systems Components
		*****************************************************************

		*****************************************************************
	3166	Table of contents
		*****************************************************************

		*****************************************************************
	3183	Revision History
		*****************************************************************

		*****************************************************************
	3197	Global Storage
		*****************************************************************

		*****************************************************************
	3213	.INIT  - Initialize the common code
		*****************************************************************

		*****************************************************************
	3234	.ZPAGA - .ZPAGN - .ZCHNK  --  Zero out memory
		*****************************************************************

		*****************************************************************
	3263	.SAVEx Routines -- Save permanent ACS
		*****************************************************************

GSCN  --  C/--!.$ S#!..%2 I.4%2&!#% &/2 DIAGNOSTICS                     DECDOC VER  00.24   19-FEB-79 11:01:47   PAGE 8
                                                                                                                           SEQ 0039
		*****************************************************************
	3311	.SAVET -- Routine to save the temporary ACS
		*****************************************************************

		*****************************************************************
	3327	.SVxx  --  Routines for saving random ACS
		*****************************************************************

		*****************************************************************
	3368	.POPJ, .RETE,.RETT & .RETF -- Common return routines
		*****************************************************************

		*****************************************************************
	3389	.AOS, .SOS and .ZERO - Support for INCR,DECR, ZERO
		*****************************************************************

		*****************************************************************
	3416	STOP CODE Processor
		*****************************************************************
SMFILE	DECSYSTEM 2020 DIAGNOSTICS FE-FILE PROGRAM, VER 0,3	MACRO %53(1020) 10:47 19-Feb-79 Page 1
SMFILE	MAC	19-Feb-79 10:46	                                                                                           SEQ 0040

     1					;MAINDEC-10-SMFILE
     2
     3			000000		MCNVER=0
     4			000003		DECVER=3
     5
     6						XLIST
     7						LIST
     8						LALL
     9
    10					NAME	\MCNVER,\DECVER^
    11
    12					TITLE	SMFILE	DECSYSTEM 2020 DIAGNOSTICS FE-FILE PROGRAM, VER 0,3^
    13
    14	000137					LOC	137
    15	000137	000000	000003		MCNVER,,DECVER
    16	000000'					RELOC
    17
    18					;*COPYRIGHT 1978,1979
    19					;*DIGITAL EQUIPMENT CORPORATION
    20					;*MARLBORO, MASS. 01752
    21
    22					;*JOHN R. KIRCHOFF
    23
    24						NOSYM
    25						SEARCH	MONSYM,MACSYM
    26						.REQUI	SYS:MACREL
    27						.REQUI	SYS:MONSYM	;FOR DDT
    28
    29					INTERN	$CCLIN
    30					EXTERN	K%INIT,S%INIT,S%CMND,S%ERR
    31
    32					EXTERN	SMPREB	;START ADDRESS OF DIAGNOSTIC PRE-BOOT
    33					EXTERN	SMPEND	;END ADDRESS OF DIAGNOSTIC PRE-BOOT
    34
    35					IF2,<PRINTX	[STARTING PASS 2]>
SMFILE	DECSYSTEM 2020 DIAGNOSTICS FE-FILE PROGRAM, VER 0,3	MACRO %53(1020) 10:47 19-Feb-79 Page 2
SMFILE	MAC	19-Feb-79 10:46		PARAMETERS                                                                         SEQ 0041

    36					SUBTTL	PARAMETERS
    37
    38					DEFINE	S,<;*********************************************************************>
    39
    40					S^;*********************************************************************^
    41					;*DATA SWITCHES
    42					S^;*********************************************************************^
    43
    44			040000		NOPNT==	040000		;INHIBIT ALL PRINT/TYPE OUT (EXCEPT FORCED)
    45			020000		PNTLPT==020000		;PRINT ALL DATA ON LPT (DSK IN USER MODE)
    46
    47					;*AC USE
    48
    49			000001		T1=1			;TEMPS
    50			000002		T2=2
    51			000003		T3=3
    52			000004		T4=4
    53			000005		T5=5
    54			000006		T6=6
    55			000007		T7=7
    56			000010		AC10=10
    57			000011		AC11=11
    58			000012		AC12=12
    59			000013		AC13=13
    60			000014		STPNTR=14		;STBUF STORE POINTER
    61			000015		FP=15			;STACK FRAME POINTER
    62			000016		CX=16			;CALL/RETURN TEMP
    63			000016		T16=16
    64			000017		P=17
    65
    66			000001		A=	1
    67			000002		B=	2
    68			000003		C=	3
    69			000004		D=	4
    70
    71			000000		AC0=	0
    72			000001		AC1=	1
    73			000002		AC2=	2
    74			000003		AC3=	3
    75			000004		AC4=	4
    76			000005		AC=	5
    77			000006		CHR=	6
    78			000007		CHR1=	7
    79			000010		LP=	10	;LINE CHAR POINTER
    80			000015		CNT=	15
    81			000016		INDX=	16
    82			000001		BYTE=	1
    83			000013		P1=	13
    84			000014		P2=	14
SMFILE	DECSYSTEM 2020 DIAGNOSTICS FE-FILE PROGRAM, VER 0,3	MACRO %53(1020) 10:47 19-Feb-79 Page 3
SMFILE	MAC	19-Feb-79 10:46		PARAMETERS                                                                         SEQ 0042

    85					;*FE-FILE DIRECTORY DEFINTIONS
    86
    87			400000		FEDIR=400000		;FE-DIR PAGE
    88
    89			000000		FSP=	0		;FREE SPACE POINTER
    90			000001		FSL=	1		;FREE SPACE PAGE #,,LENGTH
    91
    92			000002		MCP=	2		;MICROCODE POINTER
    93			000003		MCL=	3		;MICROCODE PAGE #,,LENGTH
    94
    95			000004		MPBP=	4		;MONITOR PRE-BOOT POINTER
    96			000005		MPBL=	5		;MONITOR PRE-BOOT PAGE #,,LENGTH
    97
    98			000006		DPBP=	6		;DIAGNOSTIC PRE-BOOT POINTER
    99			000007		DPBL=	7		;DIAGNOSTIC PRE-BOOT PAGE #,,LENGTH
   100
   101			000010		BC1P=	10		;BOOTCHECK 1 POINTER
   102			000011		BC1L=	11		;BOOTCHECK 1 PAGE #,,LENGTH
   103
   104			000012		BCKP=	12		;BOOTCHECK 2 PRE-BOOT POINTER
   105			000013		BCKL=	13		;BOOTCHECK 2 PRE-BOOT PAGE #,,LENGTH
   106
   107			000014		MBOOTP=	14		;MONITOR BOOT POINTER
   108			000015		MBOOTL=	15		;MONITOR BOOT PAGE #,,LENGTH
   109
   110			000016		DBP=	16		;DIAGNOSTIC BOOT POINTER
   111			000017		DBOOTL=	17		;DIAGNOSTIC BOOT PAGE #,,LENGTH
   112
   113			000020		BCHKP=	20		;BOOTCHECK 2 POINTER
   114			000021		BCHKL=	21		;BOOTCHECK 2 PAGE #,,LENGTH
   115
   116			000022		IFP0=	22		;INDIRECT FILE 0 POINTER
   117			000023		IFL0=	23		;INDIRECT FILE 0 PAGE #,,LENGTH
   118
   119			401000		CRAM=	401000		;CRAM STORAGE, 12 PAGES WORTH
   120
   121			415000		MPREBP=	415000		;MONITOR PRE-BOOT PAGE
   122			416000		DPREBP=	416000		;DIAGNOSTIC PRE-BOOT PAGE
   123
   124			417000		CRMBC1=	417000		;BOOTCHECK 1 STORAGE, 12 PAGES WORTH
   125
   126			433000		BCPREBP=433000		;BOOTCHECK 2 PRE-BOOT PAGE
   127
   128			434000		WINDOW=	434000		;WINDOW PAGE
   129
   130			435000		GENPAG=	435000		;
   131
   132			436000		HOMPAG=	436000		;HOME BLOCKS READ INTO HERE
SMFILE	DECSYSTEM 2020 DIAGNOSTICS FE-FILE PROGRAM, VER 0,3	MACRO %53(1020) 10:47 19-Feb-79 Page 4
SMFILE	MAC	19-Feb-79 10:46		PARAMETERS                                                                         SEQ 0043

   133					S^;*********************************************************************^
   134					;*OPERATOR DEFINITIONS (NON-UUO'S)
   135					S^;*********************************************************************^
   136
   137		260740	000000		OPDEF	GO	[PUSHJ	P,]	;SUBROUTINE CALL
   138		263740	000000		OPDEF	RTN	[POPJ	P,]	;SUBROUTINE RETURN
   139		261740	000000		OPDEF	PUT	[PUSH	P,]	;PUT DATA ON PUSH LIST
   140		262740	000000		OPDEF	GETIT	[POP	P,]	;GET DATA FROM PUSH LIST
   141		254000	000000		OPDEF	PJRST	[JRST	]	;JRST TO ROUTINE THAT RTN'S
   142
   143					S^;*********************************************************************^
   144					;*SUBROUTINE INITIALIZATION CALL
   145					S^;*********************************************************************^
   146
   147		265000	016626'		OPDEF	PGMINT	[JSP	0,SBINIT]	;SUBROUTINE INITIALIZATION
   148
   149					S^;*********************************************************************^
   150					;*HALTING UUO'S (A MORE GRACEFUL HALT THAN SIMPLY USING THE HALT INSTRUCTION).
   151					S^;*********************************************************************^
   152
   153		037640	000004		OPDEF	FATAL	[37B8!15B12!4]	;FATAL PROGRAMMING HALT
   154		037600	000004		OPDEF	ERRHLT	[37B8!14B12!4]	;PROGRAM ERROR HALT
   155
   156					S^;*********************************************************************^
   157					;*TERMINAL INPUT UUO'S
   158					S^;*********************************************************************^
   159
   160		037000	000003		OPDEF	TTICHR 	[37B8!0B12!3]	;TTY, INPUT ANY CHARACTER
   161		037040	000003		OPDEF	TTIYES	[37B8!1B12!3]	;TTY, NORMAL RETURN Y
   162		037100	000003		OPDEF	TTINO	[37B8!2B12!3]	;TTY, NORMAL RETURN N
   163		037140	000003		OPDEF	TTIOCT	[37B8!3B12!3]	;TTY, INPUT OCTAL WORD
   164		037200	000003		OPDEF	TTIDEC	[37B8!4B12!3]	;TTY, INPUT DECIMAL WORD
   165		037240	000003		OPDEF	TTICNV	[37B8!5B12!3]	;TTY, INPUT CONVERTABLE WORD
   166		037300	000003		OPDEF	TTLOOK	[37B8!6B12!3]	;TTY, KEYBOARD CHECK
   167		037340	000003		OPDEF	TTALTM	[37B8!7B12!3]	;TTY, ALT-MODE CHECK
   168		037400	000003		OPDEF	TTSIXB	[37B8!10B12!3]	;TTY, INPUT SIXBIT WORD
   169		037440	000003		OPDEF	TTYINP	[37B8!11B12!3]	;TTY, IMAGE MODE INPUT
   170		037500	000003		OPDEF	TTICLR	[37B8!12B12!3]	;TTY, CLEAR INPUT
SMFILE	DECSYSTEM 2020 DIAGNOSTICS FE-FILE PROGRAM, VER 0,3	MACRO %53(1020) 10:47 19-Feb-79 Page 5
SMFILE	MAC	19-Feb-79 10:46		PARAMETERS                                                                         SEQ 0044

   171					S^;*********************************************************************^
   172					;*TERMINAL OUTPUT UUO'S.
   173					S^;*********************************************************************^
   174
   175		037000	000000		OPDEF	PNTA	[37B8!0B12!0]	;PRINT ASCII WORD
   176		037000	000001		OPDEF	PNTAF	[37B8!0B12!1]	;PRINT ASCII WORD FORCED
   177		037740	000000		OPDEF	PNTAL	[37B8!17B12!0]	;PRINT ASCIZ LINE
   178		037740	000001		OPDEF	PNTALF	[37B8!17B12!1]	;PRINT ASCIZ LINE FORCED
   179		037600	000003		OPDEF	PSIXL	[37B8!14B12!3]	;PRINT SIXBIT'Z LINE
   180		037640	000003		OPDEF	PSIXLF	[37B8!15B12!3]	;PRINT SIXBIT'Z LINE FORCED
   181		037000	000000		OPDEF	PNTMSG	[37B8!0B12!0]	;PRINT MESSAGE IMMEDIATE
   182		037040	000000		OPDEF	PNTMSF	[37B8!1B12!0]	;PRINT MESSAGE IMMEDIATE FORCED
   183		037100	000000		OPDEF	PSIXM	[37B8!2B12!0]	;PRINT SIXBIT'Z MSG IMMEDIATE
   184		037200	000000		OPDEF	PSIXMF	[37B8!4B12!0]	;PRINT SIXBIT'Z MSG IMM FORCED
   185		037000	000000		OPDEF	PNTCI	[37B8!0B12!0]	;PRINT CHARACTER IMMEDIATE
   186		037040	000000		OPDEF	PNTCIF	[37B8!1B12!0]	;PRINT CHARACTER IMMEDIATE FORCED
   187		037500	000000		OPDEF	PNTCHR	[37B8!12B12!0]	;PRINT CHARACTER
   188		037500	000001		OPDEF	PNTCHF	[37B8!12B12!1]	;PRINT CHARACTER FORCED
   189		037040	000000		OPDEF	PNT1	[37B8!1B12!0]	;PRINT ONE OCTAL DIGIT
   190		037040	000001		OPDEF	PNT1F	[37B8!1B12!1]	;PRINT 1 OCTAL DIGIT FORCED
   191		037100	000000		OPDEF	PNT2	[37B8!2B12!0]	;PRINT TWO OCTAL DIGITS
   192		037100	000001		OPDEF	PNT2F	[37B8!2B12!1]	;PRINT 2 OCTAL DIGITS FORCED
   193		037140	000000		OPDEF	PNT3	[37B8!3B12!0]	;PRINT THREE OCTAL DIGITS
   194		037140	000001		OPDEF	PNT3F	[37B8!3B12!1]	;PRINT THREE OCTAL DIGITS FORCED
   195		037200	000000		OPDEF	PNT4	[37B8!4B12!0]	;PRINT FOUR OCTAL DIGITS
   196		037200	000001		OPDEF	PNT4F	[37B8!4B12!1]	;PRINT FOUR OCTAL DIGITS FORCED
   197		037240	000000		OPDEF	PNT5	[37B8!5B12!0]	;PRINT FIVE OCTAL DIGITS
   198		037240	000001		OPDEF	PNT5F	[37B8!5B12!1]	;PRINT FIVE OCTAL DIGITS FORCED
   199		037300	000000		OPDEF	PNT6	[37B8!6B12!0]	;PRINT SIX OCTAL DIGITS
   200		037300	000001		OPDEF	PNT6F	[37B8!6B12!1]	;PRINT SIX OCTAL DIGITS FORCED
   201		037340	000000		OPDEF	PNT7	[37B8!7B12!0]	;PRINT 7 OCTAL DIGITS
   202		037340	000001		OPDEF	PNT7F	[37B8!7B12!1]	;PRINT 7 OCTAL DIGITS FORCED
   203		037400	000000		OPDEF	PNT8	[37B8!10B12!0]	;PRINT 8 OCTAL DIGITS
   204		037400	000001		OPDEF	PNT8F	[37B8!10B12!1]	;PRINT 8 OCTAL DIGITS FORCED
   205		037440	000000		OPDEF	PNT11	[37B8!11B12!0]	;PRINT 11 OCTAL DIGITS
   206		037440	000001		OPDEF	PNT11F	[37B8!11B12!1]	;PRINT 11 OCTAL DIGITS FORCED.
   207		037400	000000		OPDEF	PNTADR	[37B8!10B12!0]	;PRINT PHYSICAL ADDRESS
   208		037400	000001		OPDEF	PNTADF	[37B8!10B12!1]	;PRINT PHYSICAL ADDRESS FORCED
   209		037600	000000		OPDEF	PNTOCT  [37B8!14B12!0]	;PRINT FULL WORD OCTAL
   210		037600	000001		OPDEF	PNTOTF	[37B8!14B12!1]	;PRINT FULL WORD OCTAL FORCED
   211		037540	000000		OPDEF	PNTHW	[37B8!13B12!0]	;PRINT OCTAL HALF WORDS, 6 SP 6
   212		037540	000001		OPDEF	PNTHWF	[37B8!13B12!1]	;PRINT OCTAL HALF WORDS, 6 SP 6 FORCED
   213		037700	000003		OPDEF	PNTOCS	[37B8!16B12!3]	;PRINT OCTAL, SUPPRESS LEADING 0'S
   214		037740	000003		OPDEF	PNTOCF	[37B8!17B12!3]	;PRINT OCTAL, SUPPRESS LEADING 0'S FORCED
   215		037640	000000		OPDEF	PNTDEC	[37B8!15B12!0]	;PRINT DECIMAL, SUPRESS LEADING 0'S
   216		037640	000001		OPDEF	PNTDCF	[37B8!15B12!1]	;PRINT DECIMAL, SUPRESS LEADING 0'S FORCED
   217		037700	000000		OPDEF	PNTDS	[37B8!16B12!0]	;PRINT DECIMAL, SPACES FOR LD 0'S
   218		037700	000001		OPDEF	PNTDSF	[37B8!16B12!1]	;PRINT DECIMAL, SPACES FOR LD 0'S FORCED
SMFILE	DECSYSTEM 2020 DIAGNOSTICS FE-FILE PROGRAM, VER 0,3	MACRO %53(1020) 10:47 19-Feb-79 Page 6
SMFILE	MAC	19-Feb-79 10:46		PARAMETERS                                                                         SEQ 0045

   219		037200	000002		OPDEF	PNTNM	[37B8!4B12!2]	;PRINT PROGRAM NAME
   220		037000	000002		OPDEF	PNTSIX	[37B8!0B12!2]	;PRINT SIXBIT WORD
   221		037040	000002		OPDEF	PNTSXF	[37B8!1B12!2]	;PRINT SIXBIT WORD FORCED
   222		037240	000002		OPDEF	DROPDV	[37B8!5B12!2]	;CLOSE LOGICAL FILE, USER MODE
   223		037000	000063'		OPDEF	PCRL	[37B8!0B12!CRLF] ;PRINT CARRIAGE RETURN/LINE FEED
   224		037040	000063'		OPDEF	PCRLF	[37B8!1B12!CRLF] ;PRINT CARRIAGE RETURN/LINE FEED FORCED
   225		037000	000040		OPDEF	PSP	[37B8!0B12!40]	;PRINT SPACE
   226		037040	000040		OPDEF	PSPF	[37B8!1B12!40]	;PRINT SPACE FORCED
   227		037040	000040		OPDEF	PSPACE	[37B8!1B12!40]	;PRINT SPACE FORCED
   228		037040	000011		OPDEF	PTAB	[37B8!1B12!11]	;PRINT TAB FORCED
   229		037000	000064'		OPDEF	PCRL2	[37B8!0B12!CRLF2] ;PRINT CARRIAGE RETURN/LINE FEED (TWICE)
   230		037040	000064'		OPDEF	PCRL2F	[37B8!1B12!CRLF2] ;PRINT CARRIAGE RETURN/LINE FEED (TWICE) FORCED
   231		037040	000007		OPDEF	PBELL	[37B8!1B12!7]	;PRINT TTY BELL
   232
   233		037040	000026		OPDEF	PFORCE	[37B8!1B12!26]	;PRINT FORCE, CONTROL O OVERRIDE
   234
   235					DEFINE	PMSG	(ARG),<
   236						PSIXM	[SIXBIT\ARG'_\]>
   237
   238					DEFINE	PMSGF	(ARG),<
   239						PSIXMF	[SIXBIT\ARG'_\]>
   240
   241					;*SIXBTZ -- MACRO TO GENERATE SIXBIT DATA FOR PRINTING
   242					;*	CONSERVES CORE OVER ASCIZ
   243
   244					DEFINE	SIXBTZ	(ARG),<	[SIXBIT\ARG'_\]>
   245
   246					S^;*********************************************************************^
   247					;*END OF PASS/PROGRAM UUOS
   248					S^;*********************************************************************^
   249
   250		037500	000004		OPDEF	ENDUUO	[37B8!12B12!4]	;UUO TO DISPLAY LIGHTS
   251		037700	000004		OPDEF	EOPUUO	[37B8!16B12!4]	;END OF PROGRAM UUO
SMFILE	DECSYSTEM 2020 DIAGNOSTICS FE-FILE PROGRAM, VER 0,3	MACRO %53(1020) 10:47 19-Feb-79 Page 7
SMFILE	MAC	19-Feb-79 10:46		STANDARD PROGRAM ASSIGNMENTS                                                       SEQ 0046

   252					SUBTTL	STANDARD PROGRAM ASSIGNMENTS
   253
   254					S^;*********************************************************************^
   255					;*PDP-10 STANDARD PC CONTROL FLAGS (SAVED ON PUSHJ, JSR, ETC..)
   256					S^;*********************************************************************^
   257
   258			400000		AROV==	400000			;ARITHMETIC OVERFLOW
   259			200000		CRY0==	200000			;CARRY 0
   260			100000		CRY1==	100000			;CARRY 1
   261			040000		FOV==	40000			;FLOATING POINT OVERFLOW
   262			020000		BIS==	20000			;BYTE INTERRUPT
   263			010000		USERF==	10000			;USER MODE
   264			004000		EXIOT==	4000			;USER PRIV I/O
   265			000100		FXU==	100			;FLOATING POINT UNDERFLOW
   266			000040		DCK==	40			;DIVIDE CHECK
   267
   268					S^;*********************************************************************^
   269					;*PDP-10 STANDARD ADDRESS ASSIGNMENTS
   270					S^;*********************************************************************^
   271
   272			000040		LUUO==	40			;UUO STORAGE, UUO 1-37
   273			000041		LUUOI==	41			;UUO SERVICE INSTRUCTION
   274
   275					S^;*********************************************************************^
   276					;*JOB DATA AREA EXTERNALS (OLD DEFINITIONS)
   277					S^;*********************************************************************^
   278
   279			000040		JOBUUO==40
   280			000041		JOB41==	41
   281			000044		JOBREL==44
   282			000074		JOBDDT==74
   283			000116		JOBSYM==116
   284			000117		JOBUSY==117
   285			000120		JOBSA==	120
   286			000121		JOBFF==	121
   287			000124		JOBREN==124
   288			000125		JOBAPR==125
   289			000126		JOBCNI==126
   290			000127		JOBTPC==127
   291			000130		JOBOPC==130
   292			000137		JOBVER==137
SMFILE	DECSYSTEM 2020 DIAGNOSTICS FE-FILE PROGRAM, VER 0,3	MACRO %53(1020) 10:47 19-Feb-79 Page 8
SMFILE	MAC	19-Feb-79 10:46		STANDARD PROGRAM ASSIGNMENTS                                                       SEQ 0047

   293					S^;*********************************************************************^
   294					;*JOB DATA AREA EXTERNALS (NEW DEFINITIONS)
   295					S^;*********************************************************************^
   296
   297			000040		.JBUUO==40
   298			000041		.JB41==	41
   299			000044		.JBREL==44
   300			000074		.JBDDT==74
   301			000116		.JBSYM==116
   302			000117		.JBUSY==117
   303			000120		.JBSA==	120
   304			000121		.JBFF==	121
   305			000124		.JBREN==124
   306			000125		.JBAPR==125
   307			000126		.JBCNI==126
   308			000127		.JBTPC==127
   309			000130		.JBOPC==130
   310			000137		.JBVER==137
   311
   312					S^;*********************************************************************^
   313					;*USER MODE APR ASSIGNMENTS (FOR "APRENB" CALL)
   314					S^;*********************************************************************^
   315
   316			200000		PDLOVU==200000			;PUSHDOWN LIST OVERFLOW
   317			020000		MPVU==	20000			;MEMORY PROTECTION VIOLATION
   318			010000		NXMU==	10000			;NON-X-MEMORY
   319			004000		PARU==	4000			;PARITY ERROR
   320			001000		CLKU==	1000			;CLOCK
   321			000100		FOVU==	100			;FLOATING OVERFLOW
   322			000010		AROVU==	10			;ARITHMETIC OVERFLOW
   323
   324					S^;*********************************************************************^
   325					;*USER MODE PRINT OUTPUT CHANNEL ASSIGNMENTS (FOR SUBROUTINE PACKAGE)
   326					;*THE USER SHOULD BE CAUTIONED NOT TO USE THESE CHANNELS WHEN
   327					;*USING THE SUBROUTINE PACKAGE AND CODING USER MODE PROGRAMS.
   328					S^;*********************************************************************^
   329
   330			000017		$DEVCH==17			;LOGICAL DEVICE CHANNEL
   331
SMFILE	DECSYSTEM 2020 DIAGNOSTICS FE-FILE PROGRAM, VER 0,3	MACRO %53(1020) 10:47 19-Feb-79 Page 9
SMFILE	MAC	19-Feb-79 10:46		MACROS                                                                             SEQ 0048

   332					SUBTTL	MACROS
   333
   334					DEFINE	SCMTAB(NAME),<
   335					NAME:	XWD	L.'NAME,L.'NAME
   336
   337					DEFINE	ECMTAB,<
   338						L.'NAME==.-NAME-1
   339					>
   340					>
   341
   342					DEFINE	CMTAB(CMD,ADR),<
   343						[ASCIZ "CMD"],,ADR
   344					>
   345
   346					DEFINE	CMABR(ABBR,REST,ADDR),<
   347						[ASCIZ "ABBR"],,[ TLNN T1,(CM%ESC)
   348								  JRST ADDR
   349								  HRROI	T1,[ASCIZ "REST "]
   350								  SKIPN MONTYP
   351									JRST [HRRZ 1,1
   352									OUTSTR @1
   353									JRST ADDR]
   354								  PSOUT
   355								  JRST ADDR]
   356					>
   357
   358					DEFINE	CMD(FUNC,ERR,%A),<
   359					%A:!	XLIST
   360					IFNB <ERR>,<
   361						MOVEI	T1,[ASCIZ "ERR"]
   362						MOVEM	T1,CMDMSG
   363					>
   364					IFB <ERR>,<
   365						SETZM	CMDMSG
   366					>
   367						MOVEI	T1,CSB
   368						MOVEI	T2,FUNC
   369						SKIPN	MONTYP
   370						JRST	[GO 	S%CMND
   371							 JRST	.+3]
   372						COMND
   373						ERJMP	[PUSH P,[%A]
   374							 JRST CMJERR]
   375						TLNE	T1,(CM%NOP)
   376						GO	CMDERR
   377						LIST
   378					>
SMFILE	DECSYSTEM 2020 DIAGNOSTICS FE-FILE PROGRAM, VER 0,3	MACRO %53(1020) 10:47 19-Feb-79 Page 10
SMFILE	MAC	19-Feb-79 10:46		MACROS                                                                             SEQ 0049

   379					DEFINE	NOISE(TEXT),<
   380						CMD	[FLDDB.(.CMNOI,,<-1,,[ASCIZ "TEXT"]>)],<EXPECTING TEXT>
   381					>
   382					DEFINE	CMDNOP(FUNC,ERR,%A),<
   383					%A:!	XLIST
   384					IFNB <ERR>,<
   385						MOVEI	T1,[ASCIZ "ERR"]
   386						MOVEM	T1,CMDMSG
   387					>
   388					IFB <ERR>,<
   389						SETZM	CMDMSG
   390					>
   391						MOVEI	T1,CSB
   392						MOVEI	T2,FUNC
   393						SKIPN	MONTYP
   394						JRST	[GO 	S%CMND
   395							 JRST	.+3]
   396						COMND
   397						ERJMP	[PUSH P,[%A]
   398							 JRST CMJERR]
   399						TLNE	T1,(CM%NOP)
   400						LIST
   401					>
   402
   403					DEFINE	ERR(TEXT),<
   404						GO	[HRROI	T1,[ASCIZ "TEXT"]
   405							 JRST	ERR%]
   406					>
   407
   408					DEFINE	WARN(TEXT),<
   409						MOVEI	[ASCIZ "
   410					% TEXT
   411					"]
   412						PNTALF
   413					>
SMFILE	DECSYSTEM 2020 DIAGNOSTICS FE-FILE PROGRAM, VER 0,3	MACRO %53(1020) 10:47 19-Feb-79 Page 11
SMFILE	MAC	19-Feb-79 10:46		MACROS                                                                             SEQ 0050

   414					DEFINE	MOVSLJ(AC,E),<
   415						EXTEND	AC,[EXP <016B8+<Z E>>]
   416					>
   417
   418					DEFINE	MOVST(AC,E),<
   419						EXTEND	AC,[EXP <015B8+<Z E>>]
   420					>
   421
   422		260740	000623'		OPDEF	CONFIRM	[GO	CFMCMD]
   423
   424					DEFINE	OP$$AC(OP,ACLST),<
   425						XLIST
   426					IRP ACLST,<
   427						OP	P,ACLST
   428					>
   429						LIST
   430					>
   431
   432					DEFINE	SAVEAC,<
   433						OP$$AC	PUSH,<T1,T2,T3,T4,T5,T6,FP,CX>
   434					>
   435
   436					DEFINE	RESTAC,<
   437						OP$$AC	POP,<CX,FP,T6,T5,T4,T3,T2,T1>
   438					>
SMFILE	DECSYSTEM 2020 DIAGNOSTICS FE-FILE PROGRAM, VER 0,3	MACRO %53(1020) 10:47 19-Feb-79 Page 12
SMFILE	MAC	19-Feb-79 10:46		PROGRAM PARAMETERS                                                                 SEQ 0051

   439					SUBTTL	PROGRAM PARAMETERS
   440
   441					S^;*********************************************************************^
   442					;*PROGRAM VARIABLE PARAMETER AREA
   443					S^;*********************************************************************^
   444
   445	000000'	000000	000000		USER:	0		; 0 = EXEC, -1 = USER MODE FLAG
   446	000001'	000000	000000		KAIFLG:	0		;PROCESSOR TYPE, 0 = KA10, -1 = KI10
   447	000002'	000000	000000		KLFLG:	0		;PROCESSOR TYPE, 0 = KA/KI, -1 = KL10
   448	000003'	777777	777777		MONFLG:	-1		;DIAG MONITOR SPECIAL USER FLAG
   449	000004'	000000	000000		MONCTL:	0		;DIAG MON/SYS EXR FLAG
   450	000005'	000000	000000		MONTEN:	0		;-1= LOADED BY 10
   451	000006'	000000	000000		CONSW:	0		;CONSOLE SWITCH SETTINGS
   452	000007'	000000	000000		PASCNT:	0		;PROGRAM PASS COUNT
   453	000010'	000000	000000		ITRCNT:	0		;PROGRAM ITERATION COUNT
   454	000011'	000000	000000		RUNFLG:	0		;PROGRAM RUN FLAG
   455	000012'	000000	000000		TESTPC:	0		;SUBTEST PC
   456	000013'	000000	000000		ERRPC:	0		;ERROR PC
   457	000014'	000000	000000		ERRTLS:	0		;ERROR TOTALS
   458	000015'	000000	000000		$ONETM:	0		;SUBROUTINE INITIALIZATION FLAG
   459
   460					S^;*********************************************************************^
   461					;*SPECIAL PROGRAM DISPATCH ADDRESSES
   462					S^;*********************************************************************^
   463
   464	000016'				CPOPJ1:			;SKIP RETURN
   465	000016'	350 00 0 17 000000 	UUOSKP:	AOS	(P)	;SKIP RETURN FROM UUO
   466	000017'				CPOPJ:			;NON-SKIP REGULAR RETURN
   467	000017'	263 17 0 00 000000 	UUOEXT:	RTN		;UUO RETURN
   468	000020'	255 00 0 00 000000 	$UUOER:	JFCL		;INITED AS (JRST $UOERX)
   469
   470					S^;*********************************************************************^
   471					;*PROCESSOR CONTROL STORAGE
   472					S^;*********************************************************************^
   473
   474	000021'	000000	000000		$ACC0:	0		;INTERRUPT SAVED AC0
   475
   476	000022'	000000	000000		$SVUUO:	0		;CURRENT USERS UUO
   477	000023'	000000	000000		$SVUPC:	0		;PC OF CURRENT USERS UUO
SMFILE	DECSYSTEM 2020 DIAGNOSTICS FE-FILE PROGRAM, VER 0,3	MACRO %53(1020) 10:47 19-Feb-79 Page 13
SMFILE	MAC	19-Feb-79 10:46		PROGRAM PARAMETERS                                                                 SEQ 0052

   478					S^;*********************************************************************^
   479					;*UUO DISPATCH TABLE
   480					S^;*********************************************************************^
   481						XLIST
   482						LIST
   483	000024'	000020'	000020'		UUODIS:	LUUO1,,$UUOER
   484	000025'	000020'	000020'			LUUO3,,LUUO2
   485	000026'	000020'	000020'			LUUO5,,LUUO4
   486	000027'	000020'	000020'			LUUO7,,LUUO6
   487	000030'	000020'	000020'			LUUO11,,LUUO10
   488	000031'	000020'	000020'			LUUO13,,LUUO12
   489	000032'	000020'	000020'			LUUO15,,LUUO14
   490	000033'	000020'	000020'			LUUO17,,LUUO16
   491	000034'	000020'	000020'			LUUO21,,LUUO20
   492	000035'	000020'	000020'			LUUO23,,LUUO22
   493	000036'	000020'	000020'			LUUO25,,LUUO24
   494	000037'	000020'	000020'			LUUO27,,LUUO26
   495	000040'	000020'	000020'			LUUO31,,LUUO30
   496	000041'	000020'	000020'			LUUO33,,LUUO32
   497
   498					S^;*********************************************************************^
   499					;*PRINT CONTROL STORAGE
   500					S^;*********************************************************************^
   501
   502	000042'	000000	000000		PNTFLG:	0		;PRINT FLAG, -1 WHILE IN PRINT ROUTINE
   503	000043'	000000	000000		PNTENB:	0		;PRINT ENABLE
   504	000044'	000000	000000		PDISF:	0		;PRINT DISABLED FLAG
   505	000045'	000000	000000		PNTINH:	0		;INHIBIT PRINT INPUT CHECKS
   506	000046'	000000	000000		PNTSPC:	0		;PRINT SPACE CONTROL
   507	000047'	000000	000000		OPTIME:	0		;TYPE-IN WAIT TIME
   508	000050'	000000	000000		$TWCNT:	0		;TIME WAITED
   509	000051'	000000	000000		$DVOFF:	0		;LOGICAL DEVICE INITED FLAG
   510	000052'	000000	000000		$TTCHR:	0		;ACTUAL TYPED IN CHAR
   511	000053'	000000	000000		$CHRIN:	0		;UPPER CASED & PARITY STRIPPED CHAR
   512	000054'	000000	000000		$TYPNB:	0		;TYPED IN NUMBER
   513	000055'	000000	000000		$CRLF:	0		;FREE CR/LF FLAG
   514	000056'	000000	000000		$TABF:	0		;TAB CONVERSION FLAG
   515	000057'	000000	000000		$FFF:	0		;FORM FEED CONVERSION FLAG
   516	000060'	000000	000000		$VTF:	0		;VERTICAL TAB CONVERSION FLAG
   517	000061'	000000	000000		USRLFF:	0		;USER LF FILLERS
   518	000062'	000000	000000		USRCRF:	0		;USER CR FILLERS
SMFILE	DECSYSTEM 2020 DIAGNOSTICS FE-FILE PROGRAM, VER 0,3	MACRO %53(1020) 10:47 19-Feb-79 Page 14
SMFILE	MAC	19-Feb-79 10:46		PROGRAM PARAMETERS                                                                 SEQ 0053

   519
   520	000063'				CRLF:	ASCII/
   521	000063'	015 012 000 000 000 	/
   522	000064'				CRLF2:	ASCII/
   523
   524	000064'	015 012 015 012 000 	/
   525	000065'	000000	000012		RADIX:	^D10			;DECIMAL PRINT RADIX
   526	000066'	000000	000040		RADLSP:	40			;DECIMAL PRINT LEADING CHAR
   527	000067'	000000	000012		RADLSC:	^D10			;DECIMAL PRINT LEADING CHAR COUNT
   528
   529					S^;*********************************************************************^
   530					;*USER MODE OUTPUT FILE INFORMATION
   531					S^;*********************************************************************^
   532
   533	000070'				$OBUF:	BLOCK	3		;LOGICAL FILE OUTPUT BUFFER HEADER
   534	000073'	60 62 51 56 64 00 	$OUTNM:	SIXBIT	/PRINT/		;FILE NAME
   535	000074'	60 56 64 00 00 00 	$OUTEX:	SIXBIT	/PNT/		;FILE NAME EXTENSION
   536	000075'					BLOCK	2
   537
   538					S^;*********************************************************************^
   539					;*PUSHDOWN LIST CONTROL INFORMATION
   540					S^;*********************************************************************^
   541
   542	000077'	777577	000077'		PLIST:	PLIST-PLISTE,,PLIST
   543	000100'				PLISTS:	BLOCK	200
   544	000300'	000000	000000		PLISTE:	0		;END OF PUSHDOWN LIST
   545
   546					S^;*********************************************************************^
   547					;*NUMBER INPUT DIGIT FLAG
   548					S^;*********************************************************************^
   549
   550	000301'	000000	000000		TTNBRF:	0	;-1 IF ANY DIGIT TYPED
   551
SMFILE	DECSYSTEM 2020 DIAGNOSTICS FE-FILE PROGRAM, VER 0,3	MACRO %53(1020) 10:47 19-Feb-79 Page 15
SMFILE	MAC	19-Feb-79 10:46		PROGRAM PARAMETERS                                                                 SEQ 0054

   552					S^;*********************************************************************^
   553					;*USER MODE MONITOR TYPE FLAG
   554					S^;*********************************************************************^
   555
   556	000302'	000000	000000		MONTYP:	0	;0 = TOPS10, -1 = TOPS20
   557
   558					S^;*********************************************************************^
   559					;*SPECIAL USERS USER MODE OUTPUT ERROR INTERCEPT INSTUCTION
   560					S^;*********************************************************************^
   561
   562	000303'	000000	000000		$$OUTER:0	;IF NON-ZERO, XCT'D AT END OF USER MODE ERROR
   563
   564					S^;*********************************************************************^
   565					;*"SWITCH" CALL USAGE CONTROL
   566					S^;*********************************************************************^
   567
   568	000304'	000000	000000		$$TOGGLE:0	;IF NON-ZERO, USE C(CONSW) FOR SWITCHES
   569
   570					S^;*********************************************************************^
   571					;*SM10 (KS-10) PROCESSOR TYPE FLAG
   572					S^;*********************************************************************^
   573
   574	000305'	000000	000000		SM10:	0	;IF -1 THIS IS A KS-10
   575
   576					SALL
SMFILE	DECSYSTEM 2020 DIAGNOSTICS FE-FILE PROGRAM, VER 0,3	MACRO %53(1020) 10:47 19-Feb-79 Page 16
SMFILE	MAC	19-Feb-79 10:46		FIXED DATABASE                                                                     SEQ 0055

   577					SUBTTL	FIXED DATABASE
   578
   579	000306'	254 00 0 00 000345'	EV:	JRST START
   580	000307'	254 00 0 00 000537'		JRST REEN
   581	000310'	000000	000003			MCNVER,,DECVER
   582
   583	000311'	123 115 106 111 114 	PROMPT:	ASCIZ	"SMFILE>"
   584	000312'	105 076 000 000 000
   585
   586	000313'	000000	000000		CMDFNC:	FLDDB.	(.CMKEY,,MAINCM)
   587	000314'	000000	000315'
   588	000315'	000023	000023			SCMTAB	MAINCM
   589
   590	000316'	012650'	012656'			CMABR	D,EPOSIT,DEP
   591	000317'	012665'	012670'			CMABR	DE,OSIT,DEP
   592	000320'	012677'	001074'			CMTAB	DEBUG,SETDEB
   593	000321'	012701'	001176'			CMTAB	DEPOSIT,DEP
   594
   595	000322'	012703'	012711'			CMABR	E,XAMINE,EXAM
   596	000323'	012720'	001143'			CMTAB	ECHO,ECHO
   597	000324'	012721'	012726'			CMABR	EX,IT,.EXIT
   598	000325'	012735'	001324'			CMTAB	EXAMINE,EXAM
   599	000326'	012737'	001421'			CMTAB	EXIT,.EXIT
   600
   601	000327'	012740'	001440'			CMTAB	HELP,HELP
   602
   603	000330'	012741'	000664'			CMTAB	INFORMATION,INFORM
   604
   605	000331'	012744'	010230'			CMTAB	OUTPUT,OUTX
   606
   607	000332'	012746'	001022'			CMTAB	PUSH,PUSHCM
   608
   609	000333'	012747'	005215'			CMTAB	RDBC1,RDBC1
   610	000334'	012751'	005217'			CMTAB	READ,READ
   611
   612	000335'	012752'	001252'			CMTAB	SERIAL,SERIAL
   613
   614	000336'	012754'	011405'			CMTAB	TAKE,TAKE
   615	000337'	012755'	004621'			CMTAB	TYPE,.TYPE
   616
   617	000340'	012756'	001526'			CMTAB	WRITE,WRITE
   618
   619						ECMTAB
   620
   621	000341'	014000	000000		INIT:	FLDDB.	.CMINI
   622	000342'	000000	000000
   623	000343'	010000	000000		CFM:	FLDDB.	.CMCFM
   624	000344'	000000	000000
   625
SMFILE	DECSYSTEM 2020 DIAGNOSTICS FE-FILE PROGRAM, VER 0,3	MACRO %53(1020) 10:47 19-Feb-79 Page 17
SMFILE	MAC	19-Feb-79 10:46		INIT PROGRAM                                                                       SEQ 0056

   626					SUBTTL	INIT PROGRAM
   627
   628	000345'	265 00 0 00 016626'	START:	PGMINT
   629
   630	000346'	402 00 0 00 000046'		SETZM	PNTSPC		;NO SPACES AFTER NUMBERS
   631	000347'	201 16 0 00 000001 		MOVEI	16,1		;CLEAR AC'S
   632	000350'	403 00 0 00 021144'		SETZB	0,FIRZER	;AND LOW CORE
   633	000351'	251 16 0 00 000016 		BLT	16,16
   634	000352'	200 01 0 00 012760'		MOVE	T1,[FIRZER,,FIRZER+1]
   635	000353'	251 01 0 00 021433'		BLT	T1,ENDZER	;ZAP!
   636
   637	000354'	200 01 0 00 012761'		MOVE	T1,[.PRIIN,,.PRIOU]
   638	000355'	202 01 0 00 016373'		MOVEM	T1,CSB+.CMIOJ
   639
   640	000356'	332 00 0 00 000302'		SKIPE	MONTYP
   641	000357'	254 00 0 00 000367'		JRST	START1
   642
   643						OUTSTR	[ASCIZ/[FOR HELP TYPE "HELP"]
   644	000360'	051 03 0 00 012762'	/]
   645	000361'	260 17 0 00 012465'		GO	CONCIN		;INIT ^C INTERRUPT
   646	000362'	260 17 0 00 000000*		GO	S%INIT		;INIT SCANNING MODULE
   647	000363'	260 17 0 00 000000*		GO	K%INIT		;INIT KEYBOARD MODULE
   648	000364'	260 17 0 00 000522'		GO	T$INT		;INIT SPECIAL SUBRTN INPUT
   649	000365'	260 17 0 00 012444'		GO	INTCOR		;INIT CORE FOR CRAM STORE
   650	000366'	254 00 0 00 000541'		JRST	NEXT
SMFILE	DECSYSTEM 2020 DIAGNOSTICS FE-FILE PROGRAM, VER 0,3	MACRO %53(1020) 10:47 19-Feb-79 Page 18
SMFILE	MAC	19-Feb-79 10:46		INIT PROGRAM                                                                       SEQ 0057

   651					START1:	TMSG	<[FOR HELP TYPE "HELP"]
   652	000367'	561 01 0 00 012762'	>
   653	000370'	104 00 0 00 000076
   654	000371'	201 01 0 00 400000 		MOVEI	T1,.FHSLF
   655	000372'	104 00 0 00 000150 		RPCAP			;GET CURRENT CAPABILITIES
   656	000373'	320 16 0 00 012772'		ERMSG	<RPCAP FAILED>
   657	000374'	661 03 0 00 600000 		TLO	T3,(SC%CTC+SC%GTB)
   658	000375'	104 00 0 00 000151 		EPCAP
   659	000376'	320 16 0 00 013000'		ERMSG	<EPCAP FAILED>
   660
   661	000377'	201 01 0 00 400000 		MOVEI	T1,.FHSLF	;THIS FORK
   662	000400'	200 02 0 00 013003'		MOVE	T2,[LEVTAB,,CHNTAB]
   663	000401'	104 00 0 00 000125 		SIR
   664	000402'	320 16 0 00 013015'		ERMSG	<CAN NOT SET ADDRESS OF LEVTAB AND CHNTAB>
   665
   666	000403'	200 01 0 00 013020'		MOVE	T1,[.TICCX,,^D30]
   667	000404'	104 00 0 00 000137 		ATI
   668	000405'	320 16 0 00 013027'		ERMSG	<CAN NOT ENABLE CONTROL-X>
   669
   670	000406'	200 01 0 00 013032'		MOVE	T1,[.TICCC,,^D31]
   671	000407'	104 00 0 00 000137 		ATI
   672	000410'	320 16 0 00 013041'		ERMSG	<CAN NOT ENABLE CONTROL-C>
   673
   674	000411'	200 01 0 00 013044'		MOVE	T1,[.TICCZ,,^D32]
   675	000412'	104 00 0 00 000137 		ATI
   676	000413'	320 16 0 00 013053'		ERMSG	<CAN NOT ENABLE CONTROL-Z>
   677
   678	000414'	200 01 0 00 013056'		MOVE	T1,[.TICCT,,^D33]
   679	000415'	104 00 0 00 000137 		ATI
   680	000416'	320 16 0 00 013065'		ERMSG	<CAN NOT ENABLE CONTROL-T>
   681
   682	000417'	200 01 0 00 013070'		MOVE	T1,[.TICCo,,^D34]
   683	000420'	104 00 0 00 000137 		ATI
   684	000421'	320 16 0 00 013077'		ERMSG	<CAN NOT ENABLE CONTROL-o>
   685
   686	000422'	201 01 0 00 400000 		MOVEI	T1,.FHSLF
   687	000423'	201 02 0 00 200076 		MOVEI	T2,1B19+1B30+1B31+1B32+1B33+1b34
   688	000424'	104 00 0 00 000131 		AIC
   689	000425'	320 16 0 00 013105'		ERMSG	<AIC FAILED>
   690
   691	000426'	104 00 0 00 000126 		EIR
   692	000427'	320 16 0 00 013113'		ERMSG	<EIR FAILED>
   693
   694	000430'	254 00 0 00 000541'		JRST	NEXT		;JOIN MAIN LOOP
SMFILE	DECSYSTEM 2020 DIAGNOSTICS FE-FILE PROGRAM, VER 0,3	MACRO %53(1020) 10:47 19-Feb-79 Page 19
SMFILE	MAC	19-Feb-79 10:46		MAIN LOOP                                                                          SEQ 0058

   695					SUBTTL	MAIN LOOP
   696
   697	000431'	336 00 0 00 000302'	CMDERR:	SKIPN	MONTYP
   698	000432'	254 00 0 00 000462'		JRST	CMDE10
   699	000433'	261 17 0 00 000002 		PUSH	P,T2
   700	000434'	201 01 0 00 400000 		MOVEI	T1,.FHSLF
   701	000435'	104 00 0 00 000012 		GETER
   702	000436'	320 16 0 00 013123'		ERMSG	<CMDERR: GETER FAILED>
   703	000437'	621 02 0 00 777777 		TLZ	T2,-1
   704	000440'	306 02 0 00 600416 		CAIN	T2,IFIXX3
   705						JRST   [POP P,T2
   706	000441'	254 00 0 00 013126'			RET]
   707
   708	000442'	336 00 0 00 021155'		SKIPN	CMDMSG
   709	000443'	254 00 0 00 000451'		JRST	.+6
   710
   711						HRROI	T1,[ASCIZ "
   712	000444'	561 01 0 00 013130'	?COMMAND ERROR: "]
   713	000445'	104 00 0 00 000076 		PSOUT
   714	000446'	560 01 0 00 021155'		HRRO	T1,CMDMSG
   715	000447'	104 00 0 00 000076 		PSOUT
   716	000450'	254 00 0 00 000537'		JRST	REEN
   717
   718						HRROI	T1,[ASCIZ "
   719	000451'	561 01 0 00 013134'	?JSYS ERROR: "]
   720	000452'	104 00 0 00 000076 		PSOUT
   721	000453'	201 01 0 00 000101 		MOVEI	T1,.PRIOU
   722	000454'	525 02 0 00 400000 		HRLOI	T2,.FHSLF
   723	000455'	201 03 0 00 000000 		MOVEI	T3,0
   724	000456'	104 00 0 00 000011 		ERSTR
   725	000457'	320 16 0 00 000457'		  ERJMP	.
   726	000460'	320 16 0 00 000460'		  ERJMP	.
   727	000461'	254 00 0 00 000537'		JRST	REEN
SMFILE	DECSYSTEM 2020 DIAGNOSTICS FE-FILE PROGRAM, VER 0,3	MACRO %53(1020) 10:47 19-Feb-79 Page 20
SMFILE	MAC	19-Feb-79 10:46		MAIN LOOP                                                                          SEQ 0059

   728
   729	000462'	336 00 0 00 021155'	CMDE10:	SKIPN	CMDMSG
   730	000463'	254 00 0 00 000470'		JRST	.+5
   731	000464'	051 03 0 00 013140'		OUTSTR	[ASCIZ/?COMMAND ERROR: /]
   732	000465'	051 03 1 00 021155'		OUTSTR	@CMDMSG
   733						OUTSTR	[ASCIZ/
   734	000466'	051 03 0 00 013144'	/]
   735	000467'	254 00 0 00 000537'		JRST	REEN
   736	000470'	260 17 0 00 000000*		GO	S%ERR		;REPORT SCANNER ERROR
   737	000471'	254 00 0 00 000537'		JRST	REEN
   738
   739	000472'	336 00 0 00 000302'	ERR%:	SKIPN	MONTYP
   740	000473'	254 00 0 00 000505'		JRST	ERR%10
   741	000474'	104 00 0 00 000313 		ESOUT
   742	000475'	561 01 0 00 013145'		TMSG	< - ERROR AT PC >
   743	000476'	104 00 0 00 000076
   744	000477'	550 00 0 17 000000 		HRRZ	(P)
   745	000500'	370 00 0 00 000000 		SOS
   746	000501'	037 17 0 00 000003 		PNTOCF
   747						TMSG	<
   748	000502'	561 01 0 00 013144'	>
   749	000503'	104 00 0 00 000076
   750	000504'	254 00 0 00 000537'		JRST	REEN
   751	000505'	051 13 0 00 000000 	ERR%10:	TTCALL	13,0
   752	000506'	255 00 0 00 000000 		JFCL
   753	000507'	550 01 0 00 000001 		HRRZ	1,1
   754	000510'	051 03 0 00 013151'		OUTSTR	[ASCIZ/?/]
   755	000511'	051 03 1 00 000001 		OUTSTR	@1
   756	000512'	051 03 0 00 013145'		OUTSTR	[ASCIZ/ - ERROR AT PC /]
   757	000513'	550 00 0 17 000000 		HRRZ	(P)
   758	000514'	370 00 0 00 000000 		SOS
   759	000515'	037 17 0 00 000003 		PNTOCF
   760						OUTSTR	[ASCIZ/
   761	000516'	051 03 0 00 013144'	/]
   762	000517'	051 11 0 00 000000 		CLRBFI
   763	000520'	402 00 0 00 005403'		SETZM	CCBLK+2
   764	000521'	254 00 0 00 000537'		JRST	REEN
   765
   766	000522'	200 00 0 00 013152'	T$INT:	MOVE	[GO	$$TT0]
   767	000523'	202 00 0 00 017246'		MOVEM	$$$TT0
   768	000524'	200 00 0 00 013153'		MOVE	[GO	$$TT1]
   769	000525'	202 00 0 00 017317'		MOVEM	$$$TT1
   770	000526'	263 17 0 00 000000 		RTN
   771
   772	000527'	051 00 0 00 000052'	$$TT0:	INCHRW	$TTCHR
   773	000530'	200 00 0 00 000052'		MOVE	$TTCHR
   774	000531'	302 00 0 00 000032 		CAIE	"Z"-100
   775	000532'	037 12 0 00 000000 		PNTCHR
   776	000533'	263 17 0 00 000000 		RTN
   777
   778	000534'	051 00 0 00 000000 	$$TT1:	INCHRW
   779	000535'	037 12 0 00 000000 		PNTCHR
   780	000536'	263 17 0 00 000000 		RTN
SMFILE	DECSYSTEM 2020 DIAGNOSTICS FE-FILE PROGRAM, VER 0,3	MACRO %53(1020) 10:47 19-Feb-79 Page 21
SMFILE	MAC	19-Feb-79 10:46		MAIN LOOP                                                                          SEQ 0060

   781	000537'	200 01 0 00 012761'	REEN:	MOVE	T1,[.PRIIN,,.PRIOU]
   782	000540'	202 01 0 00 016373'		MOVEM	T1,CSB+.CMIOJ
   783
   784	000541'	402 00 0 00 021160'	NEXT:	SETZM	CTADR
   785	000542'	561 01 0 00 016423'		HRROI	T1,CMDBUF
   786	000543'	202 01 0 00 016375'		MOVEM	T1,CSB+.CMBFP
   787	000544'	202 01 0 00 016376'		MOVEM	T1,CSB+.CMPTR
   788	000545'	201 01 0 00 000372 		MOVEI	T1,^D250
   789	000546'	202 01 0 00 016377'		MOVEM	T1,CSB+.CMCNT
   790	000547'	202 01 0 00 016402'		MOVEM	T1,CSB+.CMABC
   791	000550'	561 01 0 00 016505'		HRROI	T1,ATOM
   792	000551'	202 01 0 00 016401'		MOVEM	T1,CSB+.CMABP
   793
   794	000552'					CMD	INIT
   795
   796	000563'	200 17 0 00 000077'	PARSE:	MOVE	P,PLIST
   797	000564'	201 01 0 00 012645'		MOVEI	T1,PARSET
   798	000565'	202 01 0 00 021160'		MOVEM	T1,CTADR
   799
   800	000566'					CMD	CMDFNC,<NOT A VALID COMMAND>
   801
   802	000600'	402 00 0 00 021160'		SETZM	CTADR
   803	000601'	550 04 0 02 000000 		HRRZ	T4,(T2)		;GET DISPATCH ADDRESS
   804	000602'	260 17 0 04 000000 		GO	(T4)		;PROCESS COMMAND
   805
   806	000603'	254 00 0 00 000541'		JRST	NEXT
SMFILE	DECSYSTEM 2020 DIAGNOSTICS FE-FILE PROGRAM, VER 0,3	MACRO %53(1020) 10:47 19-Feb-79 Page 22
SMFILE	MAC	19-Feb-79 10:46		MAIN LOOP                                                                          SEQ 0061

   807					;*HERE ON AN ERROR FROM COMMAND JSYS
   808
   809	000604'	201 01 0 00 400000 	CMJERR:	MOVEI	T1,.FHSLF
   810	000605'	104 00 0 00 000012 		GETER
   811	000606'	320 16 0 00 013175'		ERMSG	<GETER FAILED>
   812	000607'	621 02 0 00 777777 		TLZ	T2,-1
   813	000610'	302 02 0 00 600220 		CAIE	T2,IOX4
   814	000611'	260 17 0 00 000000*		CALL	JSHLT0
   815
   816	000612'				EOCF:	MOVEI	[ASCIZ "
   817						[END OF COMMAND FILE]
   818	000612'	201 00 0 00 013200'	SMFILE>"]
   819	000613'	037 17 0 00 000001 		PNTALF
   820	000614'	554 01 0 00 016373'		HLRZ	T1,CSB+.CMIOJ
   821	000615'	104 00 0 00 000022 		CLOSF
   822	000616'	260 17 0 00 013215'		ERR	<CAN NOT CLOSE COMMAND FILE>
   823	000617'	200 01 0 00 012761'		MOVE	T1,[.PRIIN,,.PRIOU]
   824	000620'	202 01 0 00 016373'		MOVEM	T1,CSB+.CMIOJ
   825	000621'	402 00 0 00 021165'		SETZM	INTAKE
   826	000622'	263 17 0 00 000000 		RTN
   827
   828					;*COMMAND PARSER SUBROUTINES
   829
   830	000623'				CFMCMD:	CMD	CFM,<MUST END LINE WITH RETURN>
   831	000635'	554 01 0 00 016373'		HLRZ	T1,CSB+.CMIOJ
   832	000636'	306 01 0 00 000100 		CAIN	T1,.PRIIN
   833	000637'	254 00 0 00 000644'		JRST	CFMCM1
   834	000640'	201 00 0 00 016423'		MOVEI	CMDBUF
   835	000641'	335 00 0 00 016573'		SKIPGE	ECOFLG
   836	000642'	037 17 0 00 000001 		PNTALF
   837	000643'	263 17 0 00 000000 		RET
   838	000644'	201 00 0 00 016423'	CFMCM1:	MOVEI	CMDBUF
   839	000645'	332 00 0 00 000051'		SKIPE	$DVOFF		;LOGGING ?
   840	000646'	037 17 0 00 000000 		PNTAL
   841	000647'	263 17 0 00 000000 		RTN
   842
   843	000650'	200 12 0 00 013232'	SIXOUT:	MOVE	AC12,[POINT 6,AC11]
   844	000651'	201 13 0 00 000006 		MOVEI	AC13,6
   845	000652'	134 00 0 00 000012 		ILDB	AC12
   846	000653'	271 00 0 00 000040 		ADDI	40
   847	000654'	037 12 0 00 000001 		PNTCHF
   848	000655'	367 13 0 00 000652'		SOJG	AC13,.-3
   849	000656'	263 17 0 00 000000 		RTN
SMFILE	DECSYSTEM 2020 DIAGNOSTICS FE-FILE PROGRAM, VER 0,3	MACRO %53(1020) 10:47 19-Feb-79 Page 23
SMFILE	MAC	19-Feb-79 10:46		COMMANDS -- INFORMATION                                                            SEQ 0062

   850					SUBTTL	COMMANDS -- INFORMATION
   851
   852	000657'	000004	000004			SCMTAB	INFO
   853	000660'	013233'	000753'			CMTAB	DISK,IDISK
   854	000661'	013234'	000717'			CMTAB	FEFILE,IFEFILE
   855	000662'	013236'	000703'			CMTAB	FREE,IFREE
   856	000663'	013237'	004760'			CMTAB	INDIRECT,FETELL
   857						ECMTAB
   858
   859	000664'				INFORM:	CMD	[FLDDB.(.CMKEY,,INFO)],<NO INFORMATION ABOUT THAT>
   860	000676'	550 01 0 02 000000 		HRRZ	T1,(T2)
   861	000677'	261 17 0 00 000001 		PUT	T1
   862	000700'	260 17 0 00 000623'		CONFIRM
   863	000701'	262 17 0 00 000001 		GETIT T1
   864	000702'	254 00 0 01 000000 		JRST	(T1)
   865
   866	000703'	336 00 0 00 000302'	IFREE:	SKIPN	MONTYP
   867	000704'	254 00 0 00 000715'		JRST	IFREE10
   868	000705'	336 00 0 00 021046'		SKIPN	FESETF
   869	000706'	260 17 0 00 013262'		ERR	<FE-FILE SYSTEM NOT SETUP>
   870
   871	000707'	037 02 0 00 013264'		PMSG	<^FRONT-END FREE PAGES = >
   872
   873	000710'	550 00 0 00 400001 		HRRZ	FEDIR+FSL
   874	000711'	037 15 0 00 000001 		PNTDCF
   875
   876	000712'	037 01 0 00 000063'		PCRLF
   877	000713'	037 01 0 00 000063'		PCRLF
   878	000714'	263 17 0 00 000000 		RTN
   879
   880	000715'	037 04 0 00 013271'	IFREE10:PMSGF	<N/A - TOPS-10^>
   881	000716'	263 17 0 00 000000 		RTN
SMFILE	DECSYSTEM 2020 DIAGNOSTICS FE-FILE PROGRAM, VER 0,3	MACRO %53(1020) 10:47 19-Feb-79 Page 24
SMFILE	MAC	19-Feb-79 10:46		COMMANDS -- INFORMATION                                                            SEQ 0063

   882
   883	000717'	336 00 0 00 021046'	IFEFILE:SKIPN	FESETF
   884	000720'	260 17 0 00 013262'		ERR	<FE-FILE SYSTEM NOT SETUP>
   885
   886	000721'	336 00 0 00 000302'		SKIPN	MONTYP
   887	000722'	254 00 0 00 000737'		JRST	IFEF10
   888
   889	000723'	037 04 0 00 013274'		PMSGF	<^DISK ADDRESS IN HOME BLOCK = >
   890	000724'	200 00 0 00 436301 		MOVE 	HOMPAG+200+101
   891	000725'	037 13 0 00 000001 		PNTHWF
   892
   893	000726'	037 04 0 00 013302'		PMSGF	<^LENGTH IN HOME BLOCK =       >
   894	000727'	200 00 0 00 436302 		MOVE	HOMPAG+200+102
   895	000730'	037 13 0 00 000001 		PNTHWF
   896
   897	000731'	037 04 0 00 013310'		PMSGF	<^8080 POINTER IN HOME BLOCK = >
   898	000732'	200 00 0 00 436303 		MOVE	HOMPAG+200+103
   899	000733'	037 13 0 00 000001 		PNTHWF
   900
   901	000734'	037 01 0 00 000063'		PCRLF
   902	000735'	037 01 0 00 000063'		PCRLF
   903	000736'	263 17 0 00 000000 		RTN
   904
   905	000737'	037 04 0 00 013274'	IFEF10:	PMSGF	<^DISK ADDRESS IN HOME BLOCK = >
   906	000740'	200 00 0 00 005542'		MOVE 	HOMBUF+101
   907	000741'	037 13 0 00 000001 		PNTHWF
   908
   909	000742'	037 04 0 00 013316'		PMSGF	<^LENGTH IN HOME BLOCK =        >
   910	000743'	200 00 0 00 005543'		MOVE	HOMBUF+102
   911	000744'	037 13 0 00 000001 		PNTHWF
   912
   913	000745'	037 04 0 00 013310'		PMSGF	<^8080 POINTER IN HOME BLOCK = >
   914	000746'	200 00 0 00 005544'		MOVE	HOMBUF+103
   915	000747'	037 13 0 00 000001 		PNTHWF
   916
   917	000750'	037 01 0 00 000063'		PCRLF
   918	000751'	037 01 0 00 000063'		PCRLF
   919	000752'	263 17 0 00 000000 		RTN
SMFILE	DECSYSTEM 2020 DIAGNOSTICS FE-FILE PROGRAM, VER 0,3	MACRO %53(1020) 10:47 19-Feb-79 Page 25
SMFILE	MAC	19-Feb-79 10:46		COMMANDS -- INFORMATION                                                            SEQ 0064

   920
   921	000753'	336 00 0 00 021046'	IDISK:	SKIPN	FESETF
   922	000754'	260 17 0 00 013262'		ERR	<FE-FILE SYSTEM NOT SETUP>
   923
   924	000755'	336 00 0 00 000302'		SKIPN	MONTYP
   925	000756'	254 00 0 00 001004'		JRST	IDSK10		;TOPS-10
   926
   927	000757'	561 01 0 00 021274'		HRROI	T1,STBUF
   928	000760'	550 02 0 00 002523'		HRRZ	T2,FEJFN
   929	000761'	205 03 0 00 100000 		MOVSI	T3,(1B2)
   930	000762'	104 00 0 00 000030 		JFNS
   931	000763'	320 16 0 00 013332'		ERMSG	<CAN NOT GET STRUCTURE NAME>
   932
   933	000764'	037 04 0 00 013335'		PMSGF	<^USING >
   934	000765'	201 00 0 00 021274'		MOVEI	STBUF
   935	000766'	037 17 0 00 000001 		PNTALF			;PRINT STRUCTURE
   936
   937	000767'	037 01 0 00 000011 		PTAB
   938
   939	000770'	200 01 0 00 021037'		MOVE	T1,DSKTYP
   940	000771'	306 01 0 00 000001 		CAIN	T1,.MSRP4
   941	000772'	037 04 0 00 013337'		PMSGF	<RP04>
   942	000773'	306 01 0 00 000005 		CAIN	T1,.MSRP5
   943	000774'	037 04 0 00 013340'		PMSGF	<RP05>
   944	000775'	306 01 0 00 000006 		CAIN	T1,.MSRP6
   945	000776'	037 04 0 00 013341'		PMSGF	<RP06>
   946	000777'	306 01 0 00 000011 		CAIN	T1,11
   947	001000'	037 04 0 00 013342'		PMSGF	<RM03>
   948
   949	001001'	037 01 0 00 000063'		PCRLF
   950	001002'	037 01 0 00 000063'		PCRLF
   951	001003'	263 17 0 00 000000 		RTN
   952
   953	001004'	037 04 0 00 013335'	IDSK10:	PMSGF	<^USING >
   954	001005'	200 00 0 00 005405'		MOVE	DIRDEV
   955	001006'	037 01 0 00 000002 		PNTSXF			;PRINT STRUCTURE
   956
   957	001007'	037 01 0 00 000011 		PTAB
   958
   959	001010'	200 01 0 00 021037'		MOVE	T1,DSKTYP
   960	001011'	306 01 0 00 000000 		CAIN	T1,.DCUR4
   961	001012'	037 04 0 00 013337'		PMSGF	<RP04>
   962	001013'	306 01 0 00 000001 		CAIN	T1,.DCUR6
   963	001014'	037 04 0 00 013341'		PMSGF	<RP06>
   964	001015'	306 01 0 00 000002 		CAIN	T1,.DCUR3
   965	001016'	037 04 0 00 013342'		PMSGF	<RM03>
   966
   967	001017'	037 01 0 00 000063'		PCRLF
   968	001020'	037 01 0 00 000063'		PCRLF
   969	001021'	263 17 0 00 000000 		RTN
SMFILE	DECSYSTEM 2020 DIAGNOSTICS FE-FILE PROGRAM, VER 0,3	MACRO %53(1020) 10:47 19-Feb-79 Page 26
SMFILE	MAC	19-Feb-79 10:46		COMMANDS -- PUSH                                                                   SEQ 0065

   970					SUBTTL	COMMANDS -- PUSH
   971
   972	001022'				PUSHCM:	NOISE	<COMMAND LEVEL>
   973	001034'	260 17 0 00 000623'		CONFIRM
   974	001035'	336 00 0 00 000302'		SKIPN	MONTYP
   975	001036'	254 00 0 00 001065'		JRST	PUSH10
   976
   977	001037'	205 01 0 00 000001 		MOVSI	T1,(GJ%SHT)
   978	001040'	561 02 0 00 013357'		HRROI	T2,[ASCIZ "PS:<SYSTEM>EXEC.EXE.0"]
   979	001041'	104 00 0 00 000020 		GTJFN
   980	001042'	320 16 0 00 013372'		ERMSG	<CAN NOT GET JFN ON EXEC>
   981
   982	001043'	552 01 0 00 021042'		HRRZM	T1,EXJFN#
   983	001044'	205 02 0 00 200000 		MOVSI	T2,(CR%CAP)
   984	001045'	104 00 0 00 000152 		CFORK
   985	001046'	320 16 0 00 013403'		ERMSG	<CAN NOT CREATE AN EXEC FORK>
   986
   987	001047'	552 01 0 00 021041'		HRRZM	T1,EXFORK#
   988	001050'	514 01 0 00 000001 		HRLZ	T1,T1
   989	001051'	540 01 0 00 021042'		HRR	T1,EXJFN
   990	001052'	104 00 0 00 000200 		GET
   991	001053'	320 16 0 00 013412'		ERMSG	<CAN NOT GET EXEC>
   992
   993	001054'	550 01 0 00 021041'		HRRZ	T1,EXFORK
   994	001055'	201 02 0 00 000000 		MOVEI	T2,0
   995	001056'	104 00 0 00 000201 		SFRKV
   996	001057'	320 16 0 00 013422'		ERMSG	<CAN NOT START EXEC>
   997
   998	001060'	104 00 0 00 000163 		WFORK
   999	001061'	320 16 0 00 013431'	pushpc:	ERMSG	<PUSH: WFORK ERROR>
  1000
  1001	001062'	104 00 0 00 000153 		KFORK
  1002	001063'	320 16 0 00 013441'		ERMSG	<CAN NOT KILL EXEC FORK>
  1003
  1004	001064'	263 17 0 00 000000 		RTN
  1005
  1006	001065'	037 04 0 00 013444'	PUSH10:	PMSGF	<NO TOPS-10 FUNCTIONALITY^>
  1007	001066'	263 17 0 00 000000 		RTN
SMFILE	DECSYSTEM 2020 DIAGNOSTICS FE-FILE PROGRAM, VER 0,3	MACRO %53(1020) 10:47 19-Feb-79 Page 27
SMFILE	MAC	19-Feb-79 10:46		COMMANDS -- DEBUG                                                                  SEQ 0066

  1008					SUBTTL	COMMANDS -- DEBUG
  1009
  1010	001067'	000002	000002			SCMTAB	SETCLR
  1011	001070'	013451'	012667'			CMTAB	CLEAR,[0]
  1012	001071'	013453'	013454'			CMTAB	SET,[-1]
  1013						ECMTAB
  1014
  1015	001072'	000001	000001			SCMTAB	DBFLGS
  1016	001073'	012677'	016567'			CMTAB	DEBUG,DEBUGF
  1017						ECMTAB
  1018
  1019
  1020	001074'				SETDEB:	CMD	[FLDDB.(.CMKEY,,SETCLR)],<MUST BE 'SET' OR 'CLEAR'>
  1021	001106'	550 01 0 02 000000 		HRRZ	T1,(T2)		;GET POINTER
  1022	001107'	200 06 0 01 000000 		MOVE	T6,(T1)		;GET FLAG
  1023	001110'					CMD	[FLDDB.(.CMKEY,,DBFLGS)],<NOT A DEBUG FLAG>
  1024	001122'	550 05 0 02 000000 		HRRZ	T5,(T2)		;PLACE TO STORE ANSWER
  1025	001123'					NOISE	<FLAG>
  1026	001135'	260 17 0 00 000623'		CONFIRM
  1027	001136'	202 06 0 05 000000 		MOVEM	T6,(T5)		;SET/CLEAR FLAG
  1028	001137'	263 17 0 00 000000 		RTN
  1029
  1030					SUBTTL	COMMANDS -- ECHO
  1031
  1032	001140'	000002	000002			SCMTAB	YESNO
  1033	001141'	013516'	000000			CMTAB	NO,0
  1034	001142'	013517'	777777			CMTAB	YES,777777
  1035						ECMTAB
  1036
  1037	001143'				ECHO:	NOISE	<COMMAND FILES>
  1038	001155'					CMD	[FLDDB.(.CMKEY,,YESNO,<YES OR NO>,<YES>)]
  1039	001166'	570 01 0 02 000000 		HRRE	T1,(T2)
  1040	001167'	261 17 0 00 000001 		PUT	T1
  1041	001170'	260 17 0 00 000623'		CONFIRM
  1042	001171'	262 17 0 00 016573'		GETIT	ECOFLG
  1043	001172'	263 17 0 00 000000 		RTN
SMFILE	DECSYSTEM 2020 DIAGNOSTICS FE-FILE PROGRAM, VER 0,3	MACRO %53(1020) 10:47 19-Feb-79 Page 28
SMFILE	MAC	19-Feb-79 10:46		COMMANDS -- DEPOSIT                                                                SEQ 0067

  1044					SUBTTL	COMMANDS -- DEPOSIT
  1045
  1046	001173'	000002	000002			SCMTAB	DEPCMD
  1047	001174'	013547'	001212'			CMTAB	BC1,DPBC1
  1048	001175'	013550'	001214'			CMTAB	CRAM,DPCRAM
  1049						ECMTAB
  1050
  1051	001176'				DEP:	CMD	[FLDDB.(.CMKEY,,DEPCMD)],<CAN NOT DEPOSIT THAT>
  1052	001210'	550 01 0 02 000000 		HRRZ	T1,(T2)
  1053	001211'	254 00 0 01 000000 		JRST	(T1)
  1054
  1055					;*HERE TO STORE INTO CRAM
  1056
  1057	001212'	476 00 0 00 021027'	DPBC1:	SETOM	BC1FLG#
  1058	001213'	254 00 0 00 001215'		JRST	DPCRAM+1
  1059	001214'	402 00 0 00 021027'	DPCRAM:	SETZM	BC1FLG
  1060	001215'					NOISE	<LOCATION>
  1061	001227'					CMD	[FLDDB.(.CMNUM,,^D8)],<NOT A VALID CRAM ADDRESS>
  1062	001241'	331 00 0 00 000002 		SKIPL	T2
  1063	001242'	301 02 0 00 004000 		CAIL	T2,4000
  1064	001243'	260 17 0 00 013621'		ERR	<ADDRESS MUST BE 0 TO 3777>
  1065	001244'	202 02 0 00 021152'		MOVEM	T2,EXMADR
  1066	001245'	260 17 0 00 000623'		CONFIRM
  1067	001246'	200 06 0 00 021152'		MOVE	T6,EXMADR
  1068	001247'	476 00 0 00 021163'		SETOM	DEPFLG
  1069	001250'	260 17 0 00 011465'		GO	DPYFLD
  1070	001251'	263 17 0 00 000000 		RTN
SMFILE	DECSYSTEM 2020 DIAGNOSTICS FE-FILE PROGRAM, VER 0,3	MACRO %53(1020) 10:47 19-Feb-79 Page 29
SMFILE	MAC	19-Feb-79 10:46		COMMANDS -- SERIAL                                                                 SEQ 0068

  1071					SUBTTL	COMMANDS -- SERIAL
  1072
  1073	001252'				SERIAL:	NOISE	<CPU SERIAL NUMBER (4097 TO 32767) INTO MICROCODE>
  1074	001264'					CMD	[FLDDB.(.CMNUM,,^D10)],<NOT A VALID SERIAL NUMBER>
  1075	001276'	202 02 0 00 021071'		MOVEM	T2,SNBR#
  1076	001277'	260 17 0 00 000623'		CONFIRM
  1077
  1078	001300'	200 02 0 00 021071'		MOVE	T2,SNBR
  1079	001301'	331 00 0 00 000002 		SKIPL	T2
  1080	001302'	305 02 0 00 010001 		CAIGE	T2,^D4097
  1081	001303'	260 17 0 00 013663'		ERR	<NOT A VALID SERIAL NUMBER>
  1082	001304'	303 02 0 00 077777 		CAILE	T2,^D32767
  1083	001305'	260 17 0 00 013663'		ERR	<NOT A VALID SERIAL NUMBER>
  1084
  1085	001306'	336 00 0 00 016572'		SKIPN	RDFLAG
  1086	001307'	260 17 0 00 013676'		ERR	<MUST FIRST READ MICROCODE WITH READ COMMAND>
  1087
  1088	001310'	201 06 0 00 001700 		MOVEI	T6,1700		;SERIAL # AT APRID: (1700) OF MICROCODE
  1089	001311'	221 06 0 00 000003 		IMULI	T6,3
  1090	001312'	271 06 0 00 401000 		ADDI	T6,CRAM
  1091
  1092	001313'	137 02 0 00 013700'		DPB	T2,[POINT 12,1(T6),23]
  1093	001314'	242 02 0 00 777764 		LSH	T2,-^D12
  1094	001315'	137 02 0 00 013701'		DPB	T2,[POINT 6,1(T6),35]
  1095
  1096	001316'	254 00 0 00 012121'		JRST	ENDDPY+2	;RECOMPUTE CRAM PARITY
SMFILE	DECSYSTEM 2020 DIAGNOSTICS FE-FILE PROGRAM, VER 0,3	MACRO %53(1020) 10:47 19-Feb-79 Page 30
SMFILE	MAC	19-Feb-79 10:46		COMMANDS -- EXAMINE                                                                SEQ 0069

  1097					SUBTTL	COMMANDS -- EXAMINE
  1098
  1099	001317'	000002	000002			SCMTAB	EXCMDS
  1100	001320'	013547'	001340'			CMTAB	BC1,EXBC1
  1101	001321'	013550'	001342'			CMTAB	CRAM,EXCRAM
  1102						ECMTAB
  1103
  1104	001322'	000000	000000		EMDFNC:	FLDDB.	(.CMKEY,,EXCMDS)
  1105	001323'	000000	001317'
  1106
  1107	001324'				EXAM:	CMD	EMDFNC,<CAN NOT EXAMINE THAT>
  1108	001336'	550 01 0 02 000000 		HRRZ	T1,(T2)
  1109	001337'	254 00 0 01 000000 		JRST	(T1)
  1110
  1111					;*EXAMINE CRAM
  1112
  1113	001340'	476 00 0 00 021027'	EXBC1:	SETOM	BC1FLG
  1114	001341'	254 00 0 00 001343'		JRST	EXCRAM+1
  1115	001342'	402 00 0 00 021027'	EXCRAM:	SETZM	BC1FLG
  1116	001343'					NOISE	<LOCATION>
  1117	001355'					CMD	[FLDDB.(.CMNUM,,^D8)],<NOT A VALID CRAM LOCATION>
  1118	001367'	261 17 0 00 000002 		PUSH	P,T2
  1119	001370'	260 17 0 00 000623'		CONFIRM
  1120	001371'	262 17 0 00 000002 		POP	P,T2
  1121	001372'	331 00 0 00 000002 		SKIPL	T2
  1122	001373'	301 02 0 00 004000 		CAIL	T2,4000
  1123	001374'	260 17 0 00 013621'		ERR	ADDRESS MUST BE 0 TO 3777
  1124	001375'	202 02 0 00 021152'		MOVEM	T2,EXMADR
  1125	001376'	037 01 0 00 013734'	EXCRM:	PNTMSF	[ASCIZ/SHOULD BE:	/]
  1126	001377'	200 00 0 00 021152'		MOVE	EXMADR
  1127	001400'	037 06 0 00 000001 		PNT6F
  1128	001401'	037 01 0 00 000057 		PNTCIF	"/"
  1129	001402'	200 06 0 00 021152'		MOVE	T6,EXMADR
  1130	001403'	221 06 0 00 000003 		IMULI	T6,3
  1131	001404'	336 00 0 00 021027'		SKIPN	BC1FLG
  1132	001405'	271 06 0 00 401000 		ADDI	T6,CRAM
  1133	001406'	332 00 0 00 021027'		SKIPE	BC1FLG
  1134	001407'	271 06 0 00 417000 		ADDI	T6,CRMBC1
  1135	001410'	200 00 0 06 000002 		MOVE	2(T6)
  1136	001411'	037 10 0 00 000001 		PNT8F
  1137	001412'	200 00 0 06 000001 		MOVE	1(T6)
  1138	001413'	037 14 0 00 000001 		PNTOTF
  1139	001414'	200 00 0 06 000000 		MOVE	(T6)
  1140	001415'	037 14 0 00 000001 		PNTOTF
  1141
  1142	001416'	260 17 0 00 012227'		GO	CRMFLD
  1143	001417'	037 01 0 00 000063'		PCRLF
  1144	001420'	263 17 0 00 000000 		RET
SMFILE	DECSYSTEM 2020 DIAGNOSTICS FE-FILE PROGRAM, VER 0,3	MACRO %53(1020) 10:47 19-Feb-79 Page 31
SMFILE	MAC	19-Feb-79 10:46		COMMANDS -- EXIT                                                                   SEQ 0070

  1145					SUBTTL	COMMANDS -- EXIT
  1146
  1147	001421'				.EXIT:	NOISE	<TO MONITOR>
  1148	001433'	260 17 0 00 000623'		CONFIRM
  1149	001434'	336 00 0 00 000302'		SKIPN	MONTYP
  1150	001435'	047 00 0 00 000012 		EXIT
  1151	001436'	104 00 0 00 000170 		HALTF
  1152	001437'	254 00 0 00 000345'		JRST	START
  1153
  1154					SUBTTL	COMMANDS -- HELP
  1155
  1156	001440'	260 17 0 00 000623'	HELP:	CONFIRM
  1157	001441'	336 00 0 00 000302'		SKIPN	MONTYP
  1158	001442'	254 00 0 00 001474'		JRST	HELP10
  1159	001443'	205 01 0 00 100011 		MOVSI	T1,(GJ%OLD!GJ%PHY!GJ%SHT)
  1160	001444'	561 02 0 00 001471'		HRROI	T2,HLPFIL
  1161	001445'	104 00 0 00 000020 		GTJFN
  1162	001446'	254 00 0 00 001464'		JRST	NOHELP
  1163	001447'	200 02 0 00 013753'		MOVE	T2,[7B5!OF%RD!OF%NWT]
  1164	001450'	104 00 0 00 000021 		OPENF
  1165	001451'	254 00 0 00 001464'		JRST	NOHELP
  1166	001452'	201 06 0 00 000101 		MOVEI	T6,.PRIOU
  1167	001453'	104 00 0 00 000050 	HELPLP:	BIN
  1168	001454'	320 16 0 00 001461'		ERJMP	HELPEX
  1169	001455'	250 01 0 00 000006 		EXCH	T1,T6
  1170	001456'	104 00 0 00 000051 		BOUT
  1171	001457'	250 01 0 00 000006 		EXCH	T1,T6
  1172	001460'	254 00 0 00 001453'		JRST	HELPLP
  1173
  1174	001461'	104 00 0 00 000022 	HELPEX:	CLOSF
  1175	001462'	260 17 0 00 013762'		ERR	<HELP: CAN NOT CLOSE HELP FILE>
  1176	001463'	263 17 0 00 000000 		RTN
  1177
  1178	001464'	037 04 0 00 013764'	NOHELP:	PMSGF	<?CAN NOT READ >
  1179	001465'	201 00 0 00 001471'		MOVEI	HLPFIL
  1180	001466'	037 17 0 00 000001 		PNTALF
  1181	001467'	037 01 0 00 000063'		PCRLF
  1182	001470'	263 17 0 00 000000 		RTN
  1183
  1184	001471'	123 115 106 111 114 	HLPFIL:	ASCIZ	"SMFILE.HLP"
  1185	001472'	105 056 110 114 120
  1186	001473'	000 000 000 000 000
SMFILE	DECSYSTEM 2020 DIAGNOSTICS FE-FILE PROGRAM, VER 0,3	MACRO %53(1020) 10:47 19-Feb-79 Page 32
SMFILE	MAC	19-Feb-79 10:46		COMMANDS -- HELP                                                                   SEQ 0071

  1187					;*TOPS-10 HELP
  1188
  1189	001474'	200 00 0 00 013767'	HELP10:	MOVE	[SIXBIT/DSK/]
  1190	001475'	202 00 0 00 016406'		MOVEM	GTJDEV
  1191	001476'	402 00 0 00 016407'		SETZM	GTJDIR
  1192	001477'	200 00 0 00 013770'		MOVE	[SIXBIT/SMFILE/]
  1193	001500'	202 00 0 00 016410'		MOVEM	GTJFIL
  1194	001501'	200 00 0 00 013771'		MOVE	[SIXBIT/HLP/]
  1195	001502'	202 00 0 00 016411'		MOVEM	GTJEXT
  1196
  1197	001503'	260 17 0 00 007027'		GO	OPNTEN		;FIND FILE
  1198	001504'	260 17 0 00 013777'		ERR	<SMFILE.HLP NOT FOUND>
  1199
  1200	001505'	260 17 0 00 006764'	HLP10A:	GO	GET10
  1201	001506'	335 00 0 00 021040'		SKIPGE	EOFSW
  1202	001507'	254 00 0 00 007015'		JRST	R10EOF
  1203
  1204	001510'	202 03 0 00 021047'		MOVEM	T3,HLP10X#
  1205	001511'	201 00 0 00 021047'		MOVEI	HLP10X
  1206	001512'	037 00 0 00 000000 		PNTA
  1207	001513'	254 00 0 00 001505'		JRST	HLP10A
SMFILE	DECSYSTEM 2020 DIAGNOSTICS FE-FILE PROGRAM, VER 0,3	MACRO %53(1020) 10:47 19-Feb-79 Page 33
SMFILE	MAC	19-Feb-79 10:46		COMMANDS -- WRITE                                                                  SEQ 0072

  1208					SUBTTL	COMMANDS -- WRITE
  1209
  1210	001514'	000011	000011			SCMTAB	WRTCMD
  1211	001515'	013547'	004265'			CMTAB	BC1,WRTBC1
  1212	001516'	014001'	003021'			CMTAB	BC2,WRTBC2
  1213	001517'	014002'	002526'			CMTAB	BOOT,WRTBOOT
  1214	001520'	013550'	004267'			CMTAB	CRAM,WRTCRM
  1215	001521'	014003'	002663'			CMTAB	DIAGBT,WRTDB
  1216	001522'	014005'	005064'			CMTAB	DONE,WRTDONE
  1217	001523'	013237'	004352'			CMTAB	INDIRECT,WRTFEF
  1218	001524'	014006'	001657'			CMTAB	RESET,WRTRSET
  1219	001525'	014010'	001542'			CMTAB	SETUP,WRTSET
  1220						ECMTAB
  1221
  1222	001526'				WRITE:	CMD	[FLDDB.(.CMKEY,,WRTCMD)],<CAN NOT WRITE THAT>
  1223	001540'	550 01 0 02 000000 		HRRZ	T1,(T2)
  1224	001541'	254 00 0 01 000000 		JRST	(T1)
SMFILE	DECSYSTEM 2020 DIAGNOSTICS FE-FILE PROGRAM, VER 0,3	MACRO %53(1020) 10:47 19-Feb-79 Page 34
SMFILE	MAC	19-Feb-79 10:46		COMMANDS -- WRITE                                                                  SEQ 0073

  1225					;*WRTSET - READ FE-FILE DIRECTORY BLOCK INTO MEMORY
  1226
  1227	001542'	561 01 0 00 014025'	WRTSET:	HRROI	T1,[ASCIZ "BOOTSTRAP"]
  1228	001543'	332 00 0 00 016567'		SKIPE	DEBUGF
  1229	001544'	561 01 0 00 014027'		HRROI	T1,[ASCIZ "BOOTST"]
  1230	001545'	336 00 0 00 000302'		SKIPN	MONTYP
  1231	001546'	561 01 0 00 014031'		HRROI	T1,[ASCIZ "KS10FE"]
  1232	001547'	202 01 0 00 016410'		MOVEM	T1,GTJFIL
  1233
  1234	001550'	561 01 0 00 014033'		HRROI	T1,[ASCIZ "BIN"]
  1235	001551'	202 01 0 00 016411'		MOVEM	T1,GTJEXT
  1236
  1237	001552'	561 01 0 00 014034'		HRROI	T1,[ASCIZ "ROOT-DIRECTORY"]
  1238	001553'	332 00 0 00 016567'		SKIPE	DEBUGF
  1239	001554'	561 01 0 00 014037'		HRROI	T1,[ASCIZ "KIRCHOFF"]
  1240	001555'	336 00 0 00 000302'		SKIPN	MONTYP
  1241	001556'	561 01 0 00 014041'		HRROI	T1,[ASCIZ "[6,2020]"]
  1242	001557'	202 01 0 00 016407'		MOVEM	T1,GTJDIR
  1243
  1244	001560'	561 01 0 00 014043'		HRROI	T1,[ASCIZ "XXX:"]
  1245	001561'	202 01 0 00 016406'		MOVEM	T1,GTJDEV
  1246
  1247	001562'	205 01 0 00 100000 		MOVSI	T1,(GJ%OLD)
  1248	001563'	202 01 0 00 016404'		MOVEM	T1,GTJFLG
  1249
  1250	001564'					CMD	[FLDDB.(.CMFIL)]
  1251	001575'	552 02 0 00 002523'		HRRZM	T2,FEJFN
  1252
  1253	001576'	260 17 0 00 000623'		CONFIRM
  1254
  1255	001577'	336 00 0 00 000302'		SKIPN	MONTYP
  1256	001600'	254 00 0 00 007315'		JRST	DEVSTR		;TOPS-10
  1257
  1258	001601'	561 01 0 00 021274'		HRROI	T1,STBUF
  1259	001602'	550 02 0 00 002523'		HRRZ	T2,FEJFN
  1260	001603'	205 03 0 00 100000 		MOVSI	T3,(1B2)
  1261	001604'	104 00 0 00 000030 		JFNS
  1262	001605'	320 16 0 00 013332'		ERMSG	<CAN NOT GET STRUCTURE NAME>
  1263
  1264	001606'	336 00 0 00 016567'		SKIPN	DEBUGF
  1265	001607'	260 17 0 00 001713'		GO	FIND		;FIND PHYSICAL DISK
SMFILE	DECSYSTEM 2020 DIAGNOSTICS FE-FILE PROGRAM, VER 0,3	MACRO %53(1020) 10:47 19-Feb-79 Page 35
SMFILE	MAC	19-Feb-79 10:46		COMMANDS -- WRITE                                                                  SEQ 0074

  1266
  1267	001610'	561 01 0 00 021274'		HRROI	T1,STBUF
  1268	001611'	104 00 0 00 000120 		STDEV
  1269	001612'	260 17 0 00 014061'		ERR	<STDEV FAILED FOR STRUCTURE>
  1270	001613'	202 02 0 00 021072'		MOVEM	T2,STRDES#
  1271
  1272	001614'	550 01 0 00 002523'		HRRZ	T1,FEJFN
  1273	001615'	200 02 0 00 014063'		MOVE	T2,[1,,.FBCTL]
  1274	001616'	201 03 0 00 000003 		MOVEI	T3,T3
  1275	001617'	104 00 0 00 000063 		GTFDB
  1276	001620'	320 16 0 00 014071'		ERMSG	<WRTSETUP: GTFDB FAILED>
  1277	001621'	603 03 0 00 020000 		TLNE	T3,(FB%NXF)	;DOES FILE EXIST
  1278	001622'	260 17 0 00 014102'		ERR	<FRONT-END FILE DOES NOT EXIST>
  1279
  1280	001623'	200 02 0 00 014104'		MOVE	T2,[1,,.FBBYV]
  1281	001624'	201 03 0 00 000003 		MOVEI	T3,T3
  1282	001625'	104 00 0 00 000063 		GTFDB
  1283	001626'	320 16 0 00 014114'		ERMSG	<WRITE: GTFBD FOR SIZE FAILED>
  1284	001627'	621 03 0 00 777777 		TLZ	T3,FB%PGC	;JUST PAGE COUNT
  1285	001630'	305 03 0 00 000060 		CAIGE	T3,^D48
  1286	001631'	260 17 0 00 014125'		 ERR	<BOOTSTRAP.BIN FILE TOO SMALL>
  1287
  1288	001632'	200 01 0 00 002523'		MOVE	T1,FEJFN
  1289	001633'	201 02 0 00 300000 		MOVEI	T2,OF%RD!OF%WR
  1290	001634'	104 00 0 00 000021 		OPENF			;OPEN THE FILE
  1291						JRST	[JSERR		;CAN'T OPEN THE FRONT-END FILE SYSTEM?
  1292	001635'	254 00 0 00 014127'			JRST START]
  1293
  1294	001636'	514 01 0 00 002523'		HRLZ	T1,FEJFN
  1295	001637'	200 02 0 00 014131'		MOVE	T2,[.FHSLF,,<FEDIR_-^D9>]
  1296	001640'	200 03 0 00 014132'		MOVE	T3,[PM%RD+PM%WR+PM%PLD]
  1297	001641'	104 00 0 00 000056 		PMAP			;READ FE DIRECTORY BLOCK
  1298						 ERJMP	[JSERR
  1299	001642'	320 16 0 00 014127'			 JRST	START]
  1300
  1301	001643'	332 00 0 00 016567'		SKIPE	DEBUGF
  1302	001644'	254 00 0 00 001654'		JRST	WRTSEX
  1303
  1304	001645'	201 01 0 00 000000 		MOVEI	T1,0
  1305	001646'	260 17 0 00 005166'		GO	REDHOM		;READ HOME BLOCK
  1306	001647'	263 17 0 00 000000 		 RTN
  1307
  1308	001650'	336 00 0 00 436301 		SKIPN	HOMPAG+200+101
  1309	001651'	260 17 0 00 014141'		 ERR	<NO DISK ADDRESS IN HOME BLOCK>
  1310
  1311	001652'	336 00 0 00 436302 		SKIPN	HOMPAG+200+102
  1312	001653'	260 17 0 00 014150'		 ERR	<NO LENGTH IN HOME BLOCK>
  1313
  1314	001654'	476 00 0 00 021046'	WRTSEX:	SETOM	FESETF#
  1315	001655'	402 00 0 00 021045'		SETZM	FERSETF#
  1316	001656'	263 17 0 00 000000 		RTN
SMFILE	DECSYSTEM 2020 DIAGNOSTICS FE-FILE PROGRAM, VER 0,3	MACRO %53(1020) 10:47 19-Feb-79 Page 36
SMFILE	MAC	19-Feb-79 10:46		COMMANDS -- WRITE                                                                  SEQ 0075

  1317					;*WRTRSET - RESET FE-DIRECTORY
  1318
  1319	001657'	260 17 0 00 000623'	WRTRSET:CONFIRM
  1320	001660'	336 00 0 00 021046'		SKIPN	FESETF		;FE-DIR  IN CODE ?
  1321	001661'	260 17 0 00 013262'		 ERR	<FE-FILE SYSTEM NOT SETUP>
  1322
  1323	001662'	402 00 0 00 400000 		SETZM	FEDIR		;CLEAR FE-DIR PAGE
  1324	001663'	200 00 0 00 014152'		MOVE	[FEDIR,,FEDIR+1]
  1325	001664'	251 00 0 00 400777 		BLT	FEDIR+777
  1326
  1327	001665'	332 00 0 00 000302'		SKIPE	MONTYP
  1328	001666'	200 01 0 00 436302 		MOVE	T1,HOMPAG+200+102	;GET LENGTH IN SECTORS
  1329	001667'	336 00 0 00 000302'		SKIPN	MONTYP
  1330	001670'	200 01 0 00 005543'		MOVE	T1,HOMBUF+102
  1331	001671'	332 00 0 00 016567'		SKIPE	DEBUGF
  1332	001672'	201 01 0 00 000400 		MOVEI	T1,^D64*4
  1333
  1334	001673'	231 01 0 00 000004 		IDIVI	T1,^D4		;CONVERT TO PAGES
  1335	001674'	275 01 0 00 000034 		SUBI	T1,^D28		;SUB FIXED FILES
  1336	001675'	505 01 0 00 000034 		HRLI	T1,^D28		;FIRST FREE PAGE STARTS AT PAGE 28
  1337	001676'	202 01 0 00 400001 		MOVEM	T1,FEDIR+FSL	;SET RESET PAGE #,,LENGTH
  1338
  1339	001677'	200 01 0 00 014153'		MOVE	T1,[^D1,,^D12]
  1340	001700'	202 01 0 00 400003 		MOVEM	T1,FEDIR+MCL	;SETUP MCODE PAGE #,,LENGTH
  1341
  1342	001701'	200 01 0 00 014154'		MOVE	T1,[^D13,,^D1]
  1343	001702'	202 01 0 00 400005 		MOVEM	T1,FEDIR+MPBL	;SETUP M-PRE-BOOT PAGE #,,LENGTH
  1344
  1345	001703'	200 01 0 00 014155'		MOVE	T1,[^D14,,^D1]
  1346	001704'	202 01 0 00 400007 		MOVEM	T1,FEDIR+DPBL	;SETUP D-PRE-BOOT PAGE #,,LENGTH
  1347
  1348	001705'	200 01 0 00 014156'		MOVE	T1,[^D15,,^D12]
  1349	001706'	202 01 0 00 400011 		MOVEM	T1,FEDIR+BC1L	;SETUP BOOTCHECK 1 PAGE #,,LENGTH
  1350
  1351	001707'	200 01 0 00 014157'		MOVE	T1,[^D27,,^D1]
  1352	001710'	202 01 0 00 400013 		MOVEM	T1,FEDIR+BCKL	;SETUP BC2-PRE-BOOT PAGE #,,LENGTH
  1353
  1354	001711'	476 00 0 00 021045'		SETOM	FERSETF		;INDICATE RESET
  1355
  1356	001712'	263 17 0 00 000000 		RTN
SMFILE	DECSYSTEM 2020 DIAGNOSTICS FE-FILE PROGRAM, VER 0,3	MACRO %53(1020) 10:47 19-Feb-79 Page 37
SMFILE	MAC	19-Feb-79 10:46		COMMANDS -- WRITE                                                                  SEQ 0076

  1357					;*FIND - FIND THE PHYSICAL DISK WITH THE GIVEN NAME
  1358
  1359	001713'	201 06 0 00 001761'	FIND:	MOVEI	T6,ARGBLK	;SET ARG BLOCK INDEX
  1360	001714'	476 00 0 06 000000 		SETOM	.MSRCH(T6)	;-1 TO CHAN ENTRY OF BLOCK
  1361	001715'	476 00 0 06 000001 		SETOM	.MSRCT(T6)	;-1 TO CONTROLLER ENTRY OF BLOCK
  1362	001716'	476 00 0 06 000002 		SETOM	.MSRUN(T6)	;-1 TO UNIT ENTRY OF BLOCK
  1363
  1364	001717'	402 00 0 06 000003 	FINDN:	SETZM	.MSRST(T6)	;CLEAR STATUS ENTRY OF BLOCK
  1365	001720'	200 01 0 00 014160'		MOVE	T1,[ARGBLK+.MSRST,,ARGBLK+.MSRST+1]
  1366	001721'	251 01 0 00 002007'		BLT	T1,ARGBLK+ARGLN-1	;CLEAR REST OF BLOCK
  1367
  1368	001722'	561 01 0 00 002122'		HRROI	T1,BUFFER
  1369	001723'	202 01 0 06 000004 		MOVEM	T1,.MSRSN(T6)	;USE BUFFER TO SAVE PACK NAME
  1370
  1371	001724'	200 01 0 00 014161'		MOVE	T1,[.MSRLN,,.MSRNU]
  1372	001725'	201 02 0 00 001761'		MOVEI	T2,ARGBLK
  1373	001726'	104 00 0 00 000555 	MS:	MSTR			;GET STATUS OF NEXT DISK UNIT
  1374	001727'	320 17 0 00 002010'		 ERCAL	FINDER		;  ERROR
  1375
  1376	001730'	306 02 0 00 601757 		CAIN	T2,MSTX27	;ERROR, IS THE UNIT A DISK ?
  1377	001731'	254 00 0 00 001717'		JRST	FINDN		;NO, NOT A DISK, TRY FOR ANOTHER
  1378
  1379	001732'	200 01 0 06 000003 		MOVE	T1,.MSRST(T6)	;GET UNIT STATUS
  1380	001733'	607 01 0 00 400000 		TLNN	T1,(MS%MNT)	;MOUNTED ?
  1381	001734'	254 00 0 00 001717'		JRST	FINDN		;NO, TRY ANOTHER
  1382	001735'	603 01 0 00 040000 		TLNE	T1,(MS%OFL)	;IS THE UNIT OFF-LINE ?
  1383	001736'	254 00 0 00 001717'		JRST FINDN		;YES, TRY ANOTHER
  1384
  1385	001737'	200 02 0 00 014162'		MOVE	T2,[POINT 7,STBUF]
  1386	001740'	200 03 0 00 014163'		MOVE	T3,[POINT 7,BUFFER]
  1387	001741'	260 17 0 00 002021'		GO	STRCMP		;COMPARE REQUESTED/DISK NAME
  1388	001742'	254 00 0 00 001717'		JRST	FINDN		;NO MATCH
  1389
SMFILE	DECSYSTEM 2020 DIAGNOSTICS FE-FILE PROGRAM, VER 0,3	MACRO %53(1020) 10:47 19-Feb-79 Page 38
SMFILE	MAC	19-Feb-79 10:46		COMMANDS -- WRITE                                                                  SEQ 0077

  1390	001743'	200 01 0 06 000003 		MOVE	T1,.MSRST(T6)	;GET MONITORS DRIVE TYPE
  1391	001744'	135 01 0 00 014164'		LDB	T1,[POINT 9,T1,17]
  1392	001745'	202 01 0 00 021037'		MOVEM	T1,DSKTYP#	;SAVE
  1393
  1394	001746'	402 00 0 00 021064'		SETZM	RM03F#
  1395	001747'	306 01 0 00 000001 		CAIN	T1,.MSRP4	;RP04 ?
  1396	001750'	254 00 0 00 001760'		JRST	FINDX		;YES
  1397	001751'	306 01 0 00 000005 		CAIN	T1,.MSRP5	;RP05 ?
  1398	001752'	254 00 0 00 001760'		JRST	FINDX		;YES
  1399	001753'	306 01 0 00 000006 		CAIN	T1,.MSRP6	;RP06 ?
  1400	001754'	254 00 0 00 001760'		JRST	FINDX		;YES
  1401	001755'	302 01 0 00 000011 		CAIE	T1,11		;.MSRM3 RM03 ?
  1402	001756'	260 17 0 00 014172'		ERR	<DISK IS NOT A VALID TYPE>
  1403	001757'	476 00 0 00 021064'		SETOM	RM03F		;YES
  1404
  1405	001760'	263 17 0 00 000000 	FINDX:	RTN
  1406
  1407			000027			ARGLN=.MSRLN
  1408	001761'				ARGBLK:	BLOCK	ARGLN
  1409
  1410					;ERROR HANDLER FOR THE GET NEXT UNIT JSYS
  1411
  1412	002010'	201 01 0 00 400000 	FINDER:	MOVEI	T1,400000	;SET PROCESS HANDLE
  1413	002011'	104 00 0 00 000012 		GETER			;GET ERROR CODE
  1414	002012'	550 02 0 00 000002 		HRRZ	T2,T2		;ERROR CODE ONLY
  1415	002013'	306 02 0 00 601757 		CAIN	T2,MSTX27	;IS THE UNIT A DISK ?
  1416	002014'	263 17 0 00 000000 		RTN			;NO, GO BACK AND LOOK FURTHER
  1417	002015'	302 02 0 00 601422 		CAIE	T2,MSTX18	;NO MORE UNITS FOUND ?
  1418						JRST	[JSERR
  1419	002016'	254 00 0 00 014127'			 JRST	START]
  1420	002017'	262 17 0 00 000006 		GETIT	T6
  1421	002020'	254 00 0 00 002027'		JRST	FALIAS		;CAN'T FIND PHYSICAL, TRY ALIAS
  1422
  1423					;*STRCMP - STRING COMPARE ROUTINE
  1424
  1425	002021'	134 00 0 00 000002 	STRCMP:	ILDB	0,T2
  1426	002022'	134 01 0 00 000003 		ILDB	T1,T3
  1427	002023'	312 00 0 00 000001 		CAME	0,T1		;EQUAL ?
  1428	002024'	263 17 0 00 000000 		RTN			;NO, LOSE
  1429
  1430	002025'	326 00 0 00 002021'		JUMPN	0,STRCMP	;YES, END OF STRING ?
  1431	002026'	254 00 0 00 000016'		JRST	CPOPJ1		;YES, SKIP RETURN
SMFILE	DECSYSTEM 2020 DIAGNOSTICS FE-FILE PROGRAM, VER 0,3	MACRO %53(1020) 10:47 19-Feb-79 Page 39
SMFILE	MAC	19-Feb-79 10:46		COMMANDS -- WRITE                                                                  SEQ 0078

  1432					;*FALIAS - FIND THE PHYSICAL DISK WITH THE GIVEN ALIAS
  1433
  1434	002027'	201 06 0 00 001761'	FALIAS:	MOVEI	T6,ARGBLK	;SET ARG BLOCK INDEX
  1435	002030'	476 00 0 06 000000 		SETOM	.MSRCH(T6)	;-1 TO CHAN ENTRY OF BLOCK
  1436	002031'	476 00 0 06 000001 		SETOM	.MSRCT(T6)	;-1 TO CONTROLLER ENTRY OF BLOCK
  1437	002032'	476 00 0 06 000002 		SETOM	.MSRUN(T6)	;-1 TO UNIT ENTRY OF BLOCK
  1438
  1439	002033'	402 00 0 06 000003 	FADN:	SETZM	.MSRST(T6)	;CLEAR STATUS ENTRY OF BLOCK
  1440	002034'	200 01 0 00 014160'		MOVE	T1,[ARGBLK+.MSRST,,ARGBLK+.MSRST+1]
  1441	002035'	251 01 0 00 002007'		BLT	T1,ARGBLK+ARGLN-1	;CLEAR REST OF BLOCK
  1442
  1443	002036'	561 01 0 00 002122'		HRROI	T1,BUFFER
  1444	002037'	202 01 0 06 000005 		MOVEM	T1,.MSRSA(T6)	;USE BUFFER TO SAVE PACK ALIAS
  1445
  1446	002040'	200 01 0 00 014161'		MOVE	T1,[.MSRLN,,.MSRNU]
  1447	002041'	201 02 0 00 001761'		MOVEI	T2,ARGBLK
  1448	002042'	104 00 0 00 000555 	FAMS:	MSTR			;GET STATUS OF NEXT DISK UNIT
  1449	002043'	320 17 0 00 002075'		 ERCAL	FADER		;  ERROR
  1450
  1451	002044'	306 02 0 00 601757 		CAIN	T2,MSTX27	;ERROR, IS THE UNIT A DISK ?
  1452	002045'	254 00 0 00 002033'		JRST	FADN		;NO, NOT A DISK, TRY FOR ANOTHER
  1453
  1454	002046'	200 01 0 06 000003 		MOVE	T1,.MSRST(T6)	;GET UNIT STATUS
  1455	002047'	607 01 0 00 400000 		TLNN	T1,(MS%MNT)	;MOUNTED ?
  1456	002050'	254 00 0 00 002033'		JRST	FADN		;NO, TRY ANOTHER
  1457	002051'	603 01 0 00 040000 		TLNE	T1,(MS%OFL)	;IS THE UNIT OFF-LINE ?
  1458	002052'	254 00 0 00 002033'		JRST	FADN		;YES, TRY ANOTHER
  1459
  1460	002053'	200 02 0 00 014162'		MOVE	T2,[POINT 7,STBUF]
  1461	002054'	200 03 0 00 014163'		MOVE	T3,[POINT 7,BUFFER]
  1462	002055'	260 17 0 00 002021'		GO	STRCMP		;COMPARE REQUESTED/DISK NAME
  1463	002056'	254 00 0 00 002033'		JRST	FADN		;NO MATCH
SMFILE	DECSYSTEM 2020 DIAGNOSTICS FE-FILE PROGRAM, VER 0,3	MACRO %53(1020) 10:47 19-Feb-79 Page 40
SMFILE	MAC	19-Feb-79 10:46		COMMANDS -- WRITE                                                                  SEQ 0079

  1464	002057'	200 01 0 06 000003 		MOVE	T1,.MSRST(T6)	;GET MONITORS DRIVE TYPE
  1465	002060'	135 01 0 00 014164'		LDB	T1,[POINT 9,T1,17]
  1466	002061'	202 01 0 00 021037'		MOVEM	T1,DSKTYP#	;SAVE
  1467
  1468	002062'	402 00 0 00 021064'		SETZM	RM03F#
  1469	002063'	306 01 0 00 000001 		CAIN	T1,.MSRP4	;RP04 ?
  1470	002064'	254 00 0 00 002074'		JRST	FINDAX		;YES
  1471	002065'	306 01 0 00 000005 		CAIN	T1,.MSRP5	;RP05 ?
  1472	002066'	254 00 0 00 002074'		JRST	FINDAX		;YES
  1473	002067'	306 01 0 00 000006 		CAIN	T1,.MSRP6	;RP06 ?
  1474	002070'	254 00 0 00 002074'		JRST	FINDAX		;YES
  1475	002071'	302 01 0 00 000011 		CAIE	T1,11		;.MSRM3 RM03 ?
  1476	002072'	260 17 0 00 014172'		ERR	<DISK IS NOT A VALID TYPE>
  1477	002073'	476 00 0 00 021064'		SETOM	RM03F		;YES
  1478
  1479	002074'	263 17 0 00 000000 	FINDAX:	RTN
  1480
  1481					;ERROR HANDLER FOR THE GET NEXT UNIT JSYS
  1482
  1483	002075'	201 01 0 00 400000 	FADER:	MOVEI	T1,400000	;SET PROCESS HANDLE
  1484	002076'	104 00 0 00 000012 		GETER			;GET ERROR CODE
  1485	002077'	550 02 0 00 000002 		HRRZ	T2,T2		;ERROR CODE ONLY
  1486	002100'	306 02 0 00 601757 		CAIN	T2,MSTX27	;IS THE UNIT A DISK ?
  1487	002101'	263 17 0 00 000000 		RTN			;NO, GO BACK AND LOOK FURTHER
  1488	002102'	306 02 0 00 601422 		CAIN	T2,MSTX18	;NO MORE UNITS FOUND ?
  1489	002103'	260 17 0 00 014200'		 ERR	<CAN'T FIND DISK>
  1490						JRST	[JSERR
  1491	002104'	254 00 0 00 014127'			 JRST	START]
  1492
  1493					;*COMPUTE DIAGNOSTIC PRE-BOOT PAGE POINTER
  1494
  1495	002105'	201 00 0 00 000000*	CPBPNTR:MOVEI	SMPREB		;GET START ADR OF PRE-BOOT
  1496	002106'	271 00 0 00 000005 		ADDI	5		;ADD OFFSET TO POINTER
  1497	002107'	200 00 1 00 000000 		MOVE	0,@0		;GET POINTER TO POINTER BLOCK
  1498	002110'	554 01 0 00 000000 		HLRZ	1,0		;GET LH CODE WORD
  1499	002111'	302 01 0 00 123456 		CAIE	1,123456	;IS IT CORRECT ?
  1500	002112'	260 17 0 00 014212'		ERR	<DIAGNOSTIC PRE-BOOT CODE WORD INCORRECT>
  1501	002113'	275 00 0 00 001000 		SUBI	0,1000		;REMOVE OFFSET
  1502	002114'	271 00 0 00 002105*		ADDI	0,SMPREB	;ADD ACTUAL LOCATION
  1503	002115'	552 00 0 00 021070'		HRRZM	0,SMPBPG#	;SAVE
  1504	002116'	504 00 0 00 000000 		HRL	0,0		;FORM BLT POINTER
  1505	002117'	271 00 0 00 000001 		ADDI	0,1
  1506	002120'	202 00 0 00 021067'		MOVEM	0,SMPBBLT#	;SAVE
  1507	002121'	263 17 0 00 000000 		RTN
SMFILE	DECSYSTEM 2020 DIAGNOSTICS FE-FILE PROGRAM, VER 0,3	MACRO %53(1020) 10:47 19-Feb-79 Page 41
SMFILE	MAC	19-Feb-79 10:46		COMMANDS -- WRITE                                                                  SEQ 0080

  1508
  1509					;DEFINITIONS FOR SM10
  1510
  1511			001000		BOORG=1000	;START OF HARDWARE BOOT
  1512			000101		FEADR=101	;ADDRESS OF BOOTSTRAP
  1513			000102		FEMAX=102	;ADDRESS OF LENGTH POINTER
  1514
  1515		701140	000000		OPDEF	WRUBR	[701B8+3B12]	;WRITE USER BASE REGISTER
  1516		712000	000000		OPDEF	RDIO	[712B8]		;READ I/O
  1517		711000	000000		OPDEF	TION	[711B8]		;TEST I/O
  1518		713000	000000		OPDEF	WRIO	[713B8]		;WRITE I/O
  1519
  1520			763000		UBAP0=	763000	;ADDRESS OF UNIBUS MAP
  1521			763100		UBSTAT=	763100	;ADDRESS OF UNIBUS STATUS
  1522
  1523			000031		KPALIVE=31	;KEEP-ALIVE & STATUS WORD
  1524			000036		MSRH=	36	;RH-11 BASE ADDRESS
  1525			000037		MSDRIVE=37	;DRIVE NUMBER
  1526			000040		MSSLAVE=40	;SLAVE & FORMAT
  1527
  1528			000021		RIPST=21	;READ IN PRESET
  1529			000071		RDATA=71	;READ DATA
  1530			000200		RDY=200		;READY
  1531			020000		MCPE=20000	;MASS I/O CONTROL BUS PARITY ERROR
  1532			040000		TRE=40000	;TRANSFER ERROR
  1533			100000		SC=100000	;SPECIAL CONDITION
  1534			010000		FMT22=10000	;FORMAT 22 (FORMAT BIT)
  1535
  1536			000040		RHCLR=	40	;CONTROLLER CLEAR
  1537
  1538			000071		MT.RF=	71	;READ FORWARD
  1539			000031		MT.SF=	31	;SPACE FILE FORWARD
  1540			000033		MT.SR=	33	;SPACE REVERSE
  1541			000004		MTTM=	4	;TAPE MARK
  1542			020000		MTPIP=	20000	;POSITIONING IN PROGRESS
  1543			000200		MTDRY=	200	;DRIVE READY
  1544			001000		MTFCE=	1000	;FRAME COUNT ERROR
  1545
SMFILE	DECSYSTEM 2020 DIAGNOSTICS FE-FILE PROGRAM, VER 0,3	MACRO %53(1020) 10:47 19-Feb-79 Page 42
SMFILE	MAC	19-Feb-79 10:46		COMMANDS -- WRITE                                                                  SEQ 0081

  1546					;REGISTER DEFINITIONS
  1547
  1548			000000		RPCS1=	00	;CONTROL AND STATUS 1
  1549			000002		RPWC=	02	;WORD COUNT REGISTER
  1550			000004		RPBA=	04	;UNIBUS ADDRESS REGISTER
  1551			000006		RPDA=	06	;DESIRED SECTOR/TRACK ADDRESS REGISTER
  1552			000010		RPCS2=	10	;CONTROL AND STATUS 2
  1553			000012		RPDS=	12	;DRIVE STATUS
  1554			000014		RPER1=	14	;ERROR 1
  1555			000040		RPER2=	40	;ERROR 2
  1556			000042		RPER3=	42	;ERROR 3
  1557			000032		RPOF=	32	;OFFSET REGISTER
  1558			000034		RPDC=	34	;DESIRED CYLINDER REGISTER
  1559			000006		RPFC=	6	;MAGTAPE FRAME COUNTER
  1560			000032		RPTC=	32	;MAGTAPE TAPE CONTROL
  1561
  1562			100000		UNV36X=100000	;UNIBUS 36 BIT TRANSFER BIT
  1563			040000		UBVBIT==40000	;UNIBUS VALID BIT
  1564
  1565	002122'				BUFFER:	BLOCK	<BUFSIZ==400>
  1566	002522'				BTJFN:	BLOCK	1		;BOOT JFN
  1567	002523'				FEJFN:	BLOCK	1		;JFN FOR THE FRONT-END FILE SYSTEM
  1568	002524'				BOOTEV:	BLOCK	1		;ENTRY VECTOR FOR BOOT
  1569	002525'				FORKN:	BLOCK	1
SMFILE	DECSYSTEM 2020 DIAGNOSTICS FE-FILE PROGRAM, VER 0,3	MACRO %53(1020) 10:47 19-Feb-79 Page 43
SMFILE	MAC	19-Feb-79 10:46		COMMANDS -- WRITE                                                                  SEQ 0082

  1570					;*WRTBOOT - WRITE MONITOR PRE-BOOT AND BOOT ON DISK
  1571
  1572	002526'	561 01 0 00 014214'	WRTBOOT:HRROI	T1,[ASCIZ "SMBOOT"]
  1573	002527'	202 01 0 00 016410'		MOVEM	T1,GTJFIL
  1574
  1575	002530'	561 01 0 00 014216'		HRROI	T1,[ASCIZ "EXE"]
  1576	002531'	202 01 0 00 016411'		MOVEM	T1,GTJEXT
  1577
  1578	002532'	402 00 0 00 016406'		SETZM	GTJDEV
  1579	002533'	402 00 0 00 016407'		SETZM	GTJDIR
  1580
  1581	002534'	205 01 0 00 100000 		MOVSI	T1,(GJ%OLD)
  1582	002535'	202 01 0 00 016404'		MOVEM	T1,GTJFLG
  1583
  1584	002536'					CMD	[FLDDB.(.CMFIL)]
  1585	002547'	202 02 0 00 002522'		MOVEM	T2,BTJFN	;SAVE THE JFN OF THE BOOT FILE
  1586
  1587	002550'	260 17 0 00 000623'		CONFIRM
  1588
  1589	002551'	336 00 0 00 021046'		SKIPN	FESETF		;FE-DIR  IN CORE ?
  1590	002552'	260 17 0 00 013262'		 ERR	<FE-FILE SYSTEM NOT SETUP>
  1591	002553'	336 00 0 00 021045'		SKIPN	FERSETF
  1592	002554'	260 17 0 00 014231'		ERR	<FE-FILE SYSTEM NOT RESET>
  1593
  1594	002555'	402 00 0 00 004164'		SETZM	RPPAGD
  1595	002556'	200 00 0 00 014233'		MOVE	[RPPAGD,,RPPAGD+1]
  1596	002557'	251 00 0 00 004264'		BLT	RPPAGX		;CLEAR PRE-BOOT POINTER STORAGE
  1597
  1598	002560'	336 00 0 00 000302'		SKIPN	MONTYP
  1599	002561'	254 00 0 00 003232'		JRST	WB10		;TOPS-10
  1600
  1601	002562'	403 01 0 00 000002 		SETZB	T1,T2		;CREATE A BLANK FORK
  1602	002563'	104 00 0 00 000152 		CFORK
  1603						ERJMP	[JSERR		;ERROR ON CFORK
  1604	002564'	320 16 0 00 014234'			HALTF]
  1605	002565'	202 01 0 00 002525'		MOVEM	T1,FORKN	;SAVE FORK
  1606
  1607	002566'	550 01 0 00 002522'		HRRZ	T1,BTJFN	;GET THE JFN OF THE BOOT
  1608	002567'	504 01 0 00 002525'		HRL	T1,FORKN	;GET PROCESS HANDLE
  1609	002570'	400 02 0 00 000000 		SETZ	T2,0
  1610	002571'	104 00 0 00 000200 		GET
  1611						ERJMP	[JSERR		;ERROR ON GET
  1612	002572'	320 16 0 00 014127'			JRST START]
SMFILE	DECSYSTEM 2020 DIAGNOSTICS FE-FILE PROGRAM, VER 0,3	MACRO %53(1020) 10:47 19-Feb-79 Page 44
SMFILE	MAC	19-Feb-79 10:46		COMMANDS -- WRITE                                                                  SEQ 0083

  1613
  1614	002573'	200 01 0 00 002525'		MOVE	T1,FORKN
  1615	002574'	104 00 0 00 000205 		GEVEC			;GET THE VECTOR OF BOOT
  1616	002575'	202 02 0 00 002524'		MOVEM	T2,BOOTEV	;SAVE BOOT ENTRY VECTOR ADDRESS
  1617
  1618	002576'	400 03 0 00 000000 		SETZ	T3,		;CLEAR PAGE COUNTER
  1619	002577'	200 04 0 00 014236'		MOVE	T4,[-1000,,0]	;ALLOW FOR 1000 PAGES
  1620	002600'	514 01 0 00 002525'		HRLZ	T1,FORKN	;GET PROCESS HANDLE
  1621	002601'	540 01 0 00 000004 		HRR	T1,T4		;GET PAGE NUMBER
  1622
  1623	002602'	104 00 0 00 000057 		RPACS			;READ PAGE ACCESS
  1624	002603'	612 02 0 00 014237'		TDNE	T2,[PA%RD!PA%PEX]
  1625	002604'	350 00 0 00 000003 		AOS	T3		;IT'S THERE, COUNT IT
  1626	002605'	253 04 0 00 002600'		AOBJN	T4,.-5
  1627
  1628	002606'	550 01 0 00 400001 		HRRZ	T1,FEDIR+FSL	;GET PRESENT FREE SPACE LENGTH
  1629	002607'	315 01 0 00 000003 		CAMGE	T1,T3		;ENOUGH ROOM ?
  1630	002610'	260 17 0 00 014245'		ERR	<NOT ENOUGH FREE SPACE>
  1631
  1632	002611'	402 00 0 00 434000 		SETZM	WINDOW
  1633	002612'	200 00 0 00 014247'		MOVE	[WINDOW,,WINDOW+1]
  1634	002613'	251 00 0 00 434777 		BLT	WINDOW+777	;CLEAR MONITOR PRE-BOOT PAGE
  1635
  1636	002614'	200 04 0 00 014236'		MOVE	T4,[-1000,,0]	;ALLOW FOR 1000 PAGES
  1637	002615'	514 13 0 00 002523'		HRLZ	P1,FEJFN	;GET JFN OF FRONT-END-FILE SYSTEM
  1638	002616'	544 13 0 00 400001 		HLR	P1,FEDIR+FSL	;GET FREE SPACE PAGE #
  1639	002617'	516 13 0 00 400015 		HRLZM	P1,FEDIR+MBOOTL	;SET MBOOT START PAGE
  1640
  1641	002620'	201 14 0 00 004164'		MOVEI	P2,RPPAGD
  1642	002621'	402 00 0 00 021061'		SETZM	PBCNT#
  1643	002622'	554 07 0 00 400015 		HLRZ	T7,FEDIR+MBOOTL
SMFILE	DECSYSTEM 2020 DIAGNOSTICS FE-FILE PROGRAM, VER 0,3	MACRO %53(1020) 10:47 19-Feb-79 Page 45
SMFILE	MAC	19-Feb-79 10:46		COMMANDS -- WRITE                                                                  SEQ 0084

  1644
  1645	002623'	514 01 0 00 002525'	PAGELP:	HRLZ	T1,FORKN	;GET PROCESS HANDLE
  1646	002624'	540 01 0 00 000004 		HRR	T1,T4		;GET PAGE NUMBER
  1647	002625'	104 00 0 00 000057 		RPACS			;READ PAGE ACCESS
  1648	002626'	612 02 0 00 014237'		TDNE	T2,[PA%RD!PA%PEX]
  1649	002627'	260 17 0 00 003157'		GO	COPPAG		;COPY PAGE
  1650
  1651	002630'	253 04 0 00 002623'		AOBJN	T4,PAGELP	;TRY ANOTHER PAGE
  1652
  1653	002631'	405 13 0 00 777777 		ANDI	P1,-1
  1654	002632'	506 13 0 00 400001 		HRLM	P1,FEDIR+FSL	;RESET FREE SPACE START PAGE
  1655	002633'	550 00 0 00 400001 		HRRZ	0,FEDIR+FSL	;FREE SPACE NOW SMALLER BY BOOT
  1656	002634'	274 00 0 00 021061'		SUB	0,PBCNT
  1657	002635'	542 00 0 00 400001 		HRRM	0,FEDIR+FSL
  1658
  1659	002636'	200 13 0 00 021061'		MOVE	P1,PBCNT
  1660	002637'	542 13 0 00 400015 		HRRM	P1,FEDIR+MBOOTL	;SET MBOOT LENGTH
  1661
  1662	002640'	476 00 0 14 000000 		SETOM	(P2)		;INDICATE END OF SPACE
  1663
  1664	002641'	200 01 0 00 002524'		MOVE	T1,BOOTEV	;FIND ENTRY VECTOR
  1665	002642'	552 01 0 14 000001 		HRRZM	T1,1(P2)	;SET ENTRY VECTOR
  1666
  1667	002643'	514 01 0 00 002523'		HRLZ	T1,FEJFN
  1668	002644'	541 01 0 00 000015 		HRRI	T1,^D13
  1669	002645'	200 02 0 00 014250'		MOVE	T2,[.FHSLF,,<WINDOW_-^D9>]
  1670	002646'	200 03 0 00 014251'		MOVE	T3,[PM%WR!PM%RD]
  1671	002647'	104 00 0 00 000056 		PMAP			;GET MONITOR PRE-BOOT IN FE-FILE
  1672						 ERJMP	[JSERR
  1673	002650'	320 16 0 00 014127'			 JRST	START]
  1674
  1675	002651'	200 00 0 00 014252'		MOVE	[BTSTR1,,WINDOW]
  1676	002652'	251 00 0 00 434335 		BLT	WINDOW+<RPPAGX-BTSTR1>
  1677
  1678	002653'	474 01 0 00 000000 		SETO	T1,
  1679	002654'	400 03 0 00 000000 		SETZ	T3,
  1680	002655'	104 00 0 00 000056 		PMAP			;PUT MONITOR PRE-BOOT IN FE-FILE
  1681						 ERJMP	[JSERR
  1682	002656'	320 16 0 00 014127'			 JRST	START]
  1683
  1684	002657'	200 01 0 00 002525'		MOVE	T1,FORKN
  1685	002660'	104 00 0 00 000153 		KFORK			;KILL "GET" FORK
  1686						 ERJMP	[JSERR
  1687	002661'	320 16 0 00 014127'			 JRST	START]
  1688
  1689	002662'	263 17 0 00 000000 		RTN
SMFILE	DECSYSTEM 2020 DIAGNOSTICS FE-FILE PROGRAM, VER 0,3	MACRO %53(1020) 10:47 19-Feb-79 Page 46
SMFILE	MAC	19-Feb-79 10:46		COMMANDS -- WRITE                                                                  SEQ 0085

  1690					;*WRTDB - WRITE DIAGNOSTIC PRE-BOOT AND "SMMON" ON DISK
  1691
  1692	002663'	561 01 0 00 014253'	WRTDB:	HRROI	T1,[ASCIZ "SMMON"]
  1693	002664'	202 01 0 00 016410'		MOVEM	T1,GTJFIL
  1694
  1695	002665'	561 01 0 00 014216'		HRROI	T1,[ASCIZ "EXE"]
  1696	002666'	202 01 0 00 016411'		MOVEM	T1,GTJEXT
  1697
  1698	002667'	402 00 0 00 016406'		SETZM	GTJDEV
  1699	002670'	402 00 0 00 016407'		SETZM	GTJDIR
  1700
  1701	002671'	205 01 0 00 100000 		MOVSI	T1,(GJ%OLD)
  1702	002672'	202 01 0 00 016404'		MOVEM	T1,GTJFLG
  1703
  1704	002673'					CMD	[FLDDB.(.CMFIL)]
  1705	002704'	202 02 0 00 002522'		MOVEM	T2,BTJFN	;SAVE THE JFN OF THE BOOT FILE
  1706
  1707	002705'	260 17 0 00 000623'		CONFIRM
  1708
  1709	002706'	336 00 0 00 021046'		SKIPN	FESETF		;FE-DIR  IN CODE ?
  1710	002707'	260 17 0 00 013262'		 ERR	<FE-FILE SYSTEM NOT SETUP>
  1711	002710'	336 00 0 00 021045'		SKIPN	FERSETF
  1712	002711'	260 17 0 00 014231'		ERR	<FE-FILE SYSTEM NOT RESET>
  1713
  1714	002712'	260 17 0 00 002105'		GO	CPBPNTR		;COMPUTE DIAGNOSTIC PRE-BOOT POINTER
  1715
  1716	002713'	402 00 1 00 021070'		SETZM	@SMPBPG
  1717	002714'	200 00 0 00 021067'		MOVE	SMPBBLT
  1718	002715'	251 00 0 00 000000*		BLT	SMPEND		;CLEAR PRE-BOOT POINTER STORAGE
  1719
  1720	002716'	336 00 0 00 000302'		SKIPN	MONTYP
  1721	002717'	254 00 0 00 003402'		JRST	WDB10		;TOPS-10
  1722
  1723	002720'	403 01 0 00 000002 		SETZB	T1,T2		;CREATE A BLANK FORK
  1724	002721'	104 00 0 00 000152 		CFORK
  1725						ERJMP	[JSERR		;ERROR ON CFORK
  1726	002722'	320 16 0 00 014234'			HALTF]
  1727	002723'	202 01 0 00 002525'		MOVEM	T1,FORKN	;SAVE FORK
  1728
  1729	002724'	550 01 0 00 002522'		HRRZ	T1,BTJFN	;GET THE JFN OF THE BOOT
  1730	002725'	504 01 0 00 002525'		HRL	T1,FORKN	;GET PROCESS HANDLE
  1731	002726'	400 02 0 00 000000 		SETZ	T2,0
  1732	002727'	104 00 0 00 000200 		GET
  1733						ERJMP	[JSERR		;ERROR ON GET
  1734	002730'	320 16 0 00 014127'			JRST START]
SMFILE	DECSYSTEM 2020 DIAGNOSTICS FE-FILE PROGRAM, VER 0,3	MACRO %53(1020) 10:47 19-Feb-79 Page 47
SMFILE	MAC	19-Feb-79 10:46		COMMANDS -- WRITE                                                                  SEQ 0086

  1735
  1736	002731'	200 01 0 00 002525'		MOVE	T1,FORKN
  1737	002732'	104 00 0 00 000205 		GEVEC			;GET THE VECTOR OF BOOT
  1738	002733'	202 02 0 00 002524'		MOVEM	T2,BOOTEV	;SAVE BOOT ENTRY VECTOR ADDRESS
  1739
  1740	002734'	400 03 0 00 000000 		SETZ	T3,		;CLEAR PAGE COUNTER
  1741	002735'	200 04 0 00 014236'		MOVE	T4,[-1000,,0]	;ALLOW FOR 1000 PAGES
  1742	002736'	514 01 0 00 002525'		HRLZ	T1,FORKN	;GET PROCESS HANDLE
  1743	002737'	540 01 0 00 000004 		HRR	T1,T4		;GET PAGE NUMBER
  1744
  1745	002740'	104 00 0 00 000057 		RPACS			;READ PAGE ACCESS
  1746	002741'	612 02 0 00 014237'		TDNE	T2,[PA%RD!PA%PEX]
  1747	002742'	350 00 0 00 000003 		AOS	T3		;IT'S THERE, COUNT IT
  1748	002743'	253 04 0 00 002736'		AOBJN	T4,.-5
  1749
  1750	002744'	550 01 0 00 400001 		HRRZ	T1,FEDIR+FSL	;GET PRESENT FREE SPACE LENGTH
  1751	002745'	315 01 0 00 000003 		CAMGE	T1,T3		;ENOUGH ROOM ?
  1752	002746'	260 17 0 00 014245'		ERR	<NOT ENOUGH FREE SPACE>
  1753
  1754	002747'	402 00 0 00 434000 		SETZM	WINDOW
  1755	002750'	200 00 0 00 014247'		MOVE	[WINDOW,,WINDOW+1]
  1756	002751'	251 00 0 00 434777 		BLT	WINDOW+777	;CLEAR DIAG PRE-BOOT PAGE
  1757
  1758	002752'	200 04 0 00 014236'		MOVE	T4,[-1000,,0]	;ALLOW FOR 1000 PAGES
  1759	002753'	514 13 0 00 002523'		HRLZ	P1,FEJFN	;GET JFN OF FRONT-END-FILE SYSTEM
  1760	002754'	544 13 0 00 400001 		HLR	P1,FEDIR+FSL	;GET FREE SPACE PAGE #
  1761	002755'	516 13 0 00 400017 		HRLZM	P1,FEDIR+DBOOTL	;SET DBOOT START PAGE
  1762
  1763	002756'	200 14 0 00 021070'		MOVE	P2,SMPBPG
  1764	002757'	402 00 0 00 021061'		SETZM	PBCNT
  1765	002760'	554 07 0 00 400017 		HLRZ	T7,FEDIR+DBOOTL
SMFILE	DECSYSTEM 2020 DIAGNOSTICS FE-FILE PROGRAM, VER 0,3	MACRO %53(1020) 10:47 19-Feb-79 Page 48
SMFILE	MAC	19-Feb-79 10:46		COMMANDS -- WRITE                                                                  SEQ 0087

  1766
  1767	002761'	514 01 0 00 002525'	WRTDBLP:HRLZ	T1,FORKN	;GET PROCESS HANDLE
  1768	002762'	540 01 0 00 000004 		HRR	T1,T4		;GET PAGE NUMBER
  1769	002763'	104 00 0 00 000057 		RPACS			;READ PAGE ACCESS
  1770	002764'	612 02 0 00 014237'		TDNE	T2,[PA%RD!PA%PEX]
  1771	002765'	260 17 0 00 003157'		GO	COPPAG		;COPY PAGE
  1772
  1773	002766'	253 04 0 00 002761'		AOBJN	T4,WRTDBLP	;TRY ANOTHER PAGE
  1774
  1775	002767'	405 13 0 00 777777 		ANDI	P1,-1
  1776	002770'	506 13 0 00 400001 		HRLM	P1,FEDIR+FSL	;RESET FREE SPACE START PAGE
  1777	002771'	550 00 0 00 400001 		HRRZ	0,FEDIR+FSL	;FREE SPACE NOW SMALLER BY BOOT
  1778	002772'	274 00 0 00 021061'		SUB	0,PBCNT
  1779	002773'	542 00 0 00 400001 		HRRM	0,FEDIR+FSL
  1780
  1781	002774'	200 13 0 00 021061'		MOVE	P1,PBCNT
  1782	002775'	542 13 0 00 400017 		HRRM	P1,FEDIR+DBOOTL	;SET DBOOT LENGTH
  1783
  1784	002776'	476 00 0 14 000000 		SETOM	(P2)		;INDICATE END OF SPACE
  1785
  1786	002777'	200 01 0 00 002524'		MOVE	T1,BOOTEV	;FIND ENTRY VECTOR
  1787	003000'	552 01 0 14 000001 		HRRZM	T1,1(P2)	;SET ENTRY VECTOR
  1788
  1789	003001'	514 01 0 00 002523'		HRLZ	T1,FEJFN
  1790	003002'	541 01 0 00 000016 		HRRI	T1,^D14
  1791	003003'	200 02 0 00 014250'		MOVE	T2,[.FHSLF,,<WINDOW_-^D9>]
  1792	003004'	200 03 0 00 014251'		MOVE	T3,[PM%WR!PM%RD]
  1793	003005'	104 00 0 00 000056 		PMAP			;GET DIAG PRE-BOOT IN FE-FILE
  1794						 ERJMP	[JSERR
  1795	003006'	320 16 0 00 014127'			 JRST	START]
  1796
  1797	003007'	200 00 0 00 014262'		MOVE	[SMPREB,,WINDOW]
  1798	003010'	251 00 0 00 434777 		BLT	WINDOW+777
  1799
  1800	003011'	474 01 0 00 000000 		SETO	T1,
  1801	003012'	400 03 0 00 000000 		SETZ	T3,
  1802	003013'	104 00 0 00 000056 		PMAP			;PUT DIAG PRE-BOOT IN FE-FILE
  1803						 ERJMP	[JSERR
  1804	003014'	320 16 0 00 014127'			 JRST	START]
  1805
  1806	003015'	200 01 0 00 002525'		MOVE	T1,FORKN
  1807	003016'	104 00 0 00 000153 		KFORK			;KILL "GET" FORK
  1808						 ERJMP	[JSERR
  1809	003017'	320 16 0 00 014127'			 JRST	START]
  1810
  1811	003020'	263 17 0 00 000000 		RTN
SMFILE	DECSYSTEM 2020 DIAGNOSTICS FE-FILE PROGRAM, VER 0,3	MACRO %53(1020) 10:47 19-Feb-79 Page 49
SMFILE	MAC	19-Feb-79 10:46		COMMANDS -- WRITE                                                                  SEQ 0088

  1812					;*WRTBC2 - WRITE BOOTCHECK 2 PRE-BOOT AND "SMBC2" ON DISK
  1813
  1814	003021'	561 01 0 00 014263'	WRTBC2:HRROI	T1,[ASCIZ "SMBC2"]
  1815	003022'	202 01 0 00 016410'		MOVEM	T1,GTJFIL
  1816
  1817	003023'	561 01 0 00 014216'		HRROI	T1,[ASCIZ "EXE"]
  1818	003024'	202 01 0 00 016411'		MOVEM	T1,GTJEXT
  1819
  1820	003025'	402 00 0 00 016406'		SETZM	GTJDEV
  1821	003026'	402 00 0 00 016407'		SETZM	GTJDIR
  1822
  1823	003027'	205 01 0 00 100000 		MOVSI	T1,(GJ%OLD)
  1824	003030'	202 01 0 00 016404'		MOVEM	T1,GTJFLG
  1825
  1826	003031'					CMD	[FLDDB.(.CMFIL)]
  1827	003042'	202 02 0 00 002522'		MOVEM	T2,BTJFN	;SAVE THE JFN OF THE BC2 FILE
  1828
  1829	003043'	260 17 0 00 000623'		CONFIRM
  1830
  1831	003044'	336 00 0 00 021046'		SKIPN	FESETF		;FE-DIR  IN CODE ?
  1832	003045'	260 17 0 00 013262'		 ERR	<FE-FILE SYSTEM NOT SETUP>
  1833	003046'	336 00 0 00 021045'		SKIPN	FERSETF
  1834	003047'	260 17 0 00 014231'		ERR	<FE-FILE SYSTEM NOT RESET>
  1835
  1836	003050'	260 17 0 00 002105'		GO	CPBPNTR		;COMPUTE DIAGNOSTIC PRE-BOOT POINTER
  1837
  1838	003051'	402 00 1 00 021070'		SETZM	@SMPBPG
  1839	003052'	200 00 0 00 021067'		MOVE	SMPBBLT
  1840	003053'	251 00 0 00 002715*		BLT	SMPEND		;CLEAR PRE-BOOT POINTER STORAGE
  1841
  1842	003054'	336 00 0 00 000302'		SKIPN	MONTYP
  1843	003055'	254 00 0 00 003552'		JRST	BC210		;TOPS-10
  1844
  1845	003056'	403 01 0 00 000002 		SETZB	T1,T2		;CREATE A BLANK FORK
  1846	003057'	104 00 0 00 000152 		CFORK
  1847						ERJMP	[JSERR		;ERROR ON CFORK
  1848	003060'	320 16 0 00 014234'			HALTF]
  1849	003061'	202 01 0 00 002525'		MOVEM	T1,FORKN	;SAVE FORK
  1850
  1851	003062'	550 01 0 00 002522'		HRRZ	T1,BTJFN	;GET THE JFN OF THE BOOT
  1852	003063'	504 01 0 00 002525'		HRL	T1,FORKN	;GET PROCESS HANDLE
  1853	003064'	400 02 0 00 000000 		SETZ	T2,0
  1854	003065'	104 00 0 00 000200 		GET
  1855						ERJMP	[JSERR		;ERROR ON GET
  1856	003066'	320 16 0 00 014127'			JRST START]
SMFILE	DECSYSTEM 2020 DIAGNOSTICS FE-FILE PROGRAM, VER 0,3	MACRO %53(1020) 10:47 19-Feb-79 Page 50
SMFILE	MAC	19-Feb-79 10:46		COMMANDS -- WRITE                                                                  SEQ 0089

  1857
  1858	003067'	200 01 0 00 002525'		MOVE	T1,FORKN
  1859	003070'	104 00 0 00 000205 		GEVEC			;GET THE VECTOR OF BOOT
  1860	003071'	202 02 0 00 002524'		MOVEM	T2,BOOTEV	;SAVE BOOT ENTRY VECTOR ADDRESS
  1861
  1862	003072'	400 03 0 00 000000 		SETZ	T3,		;CLEAR PAGE COUNTER
  1863	003073'	200 04 0 00 014236'		MOVE	T4,[-1000,,0]	;ALLOW FOR 1000 PAGES
  1864	003074'	514 01 0 00 002525'		HRLZ	T1,FORKN	;GET PROCESS HANDLE
  1865	003075'	540 01 0 00 000004 		HRR	T1,T4		;GET PAGE NUMBER
  1866
  1867	003076'	104 00 0 00 000057 		RPACS			;READ PAGE ACCESS
  1868	003077'	612 02 0 00 014237'		TDNE	T2,[PA%RD!PA%PEX]
  1869	003100'	350 00 0 00 000003 		AOS	T3		;IT'S THERE, COUNT IT
  1870	003101'	253 04 0 00 003074'		AOBJN	T4,.-5
  1871
  1872	003102'	550 01 0 00 400001 		HRRZ	T1,FEDIR+FSL	;GET PRESENT FREE SPACE LENGTH
  1873	003103'	315 01 0 00 000003 		CAMGE	T1,T3		;ENOUGH ROOM ?
  1874	003104'	260 17 0 00 014245'		ERR	<NOT ENOUGH FREE SPACE>
  1875
  1876	003105'	402 00 0 00 434000 		SETZM	WINDOW
  1877	003106'	200 00 0 00 014247'		MOVE	[WINDOW,,WINDOW+1]
  1878	003107'	251 00 0 00 434777 		BLT	WINDOW+777	;CLEAR BC2 PRE-BOOT PAGE
  1879
  1880	003110'	200 04 0 00 014236'		MOVE	T4,[-1000,,0]	;ALLOW FOR 1000 PAGES
  1881	003111'	514 13 0 00 002523'		HRLZ	P1,FEJFN	;GET JFN OF FRONT-END-FILE SYSTEM
  1882	003112'	544 13 0 00 400001 		HLR	P1,FEDIR+FSL	;GET FREE SPACE PAGE #
  1883	003113'	516 13 0 00 400021 		HRLZM	P1,FEDIR+BCHKL	;SET BC2 START PAGE
  1884
  1885	003114'	200 14 0 00 021070'		MOVE	P2,SMPBPG
  1886	003115'	402 00 0 00 021061'		SETZM	PBCNT
  1887	003116'	554 07 0 00 400021 		HLRZ	T7,FEDIR+BCHKL
SMFILE	DECSYSTEM 2020 DIAGNOSTICS FE-FILE PROGRAM, VER 0,3	MACRO %53(1020) 10:47 19-Feb-79 Page 51
SMFILE	MAC	19-Feb-79 10:46		COMMANDS -- WRITE                                                                  SEQ 0090

  1888
  1889	003117'	514 01 0 00 002525'	BC2LP:	HRLZ	T1,FORKN	;GET PROCESS HANDLE
  1890	003120'	540 01 0 00 000004 		HRR	T1,T4		;GET PAGE NUMBER
  1891	003121'	104 00 0 00 000057 		RPACS			;READ PAGE ACCESS
  1892	003122'	612 02 0 00 014237'		TDNE	T2,[PA%RD!PA%PEX]
  1893	003123'	260 17 0 00 003157'		GO	COPPAG		;COPY PAGE
  1894
  1895	003124'	253 04 0 00 003117'		AOBJN	T4,BC2LP	;TRY ANOTHER PAGE
  1896
  1897	003125'	405 13 0 00 777777 		ANDI	P1,-1
  1898	003126'	506 13 0 00 400001 		HRLM	P1,FEDIR+FSL	;RESET FREE SPACE START PAGE
  1899	003127'	550 00 0 00 400001 		HRRZ	0,FEDIR+FSL	;FREE SPACE NOW SMALLER BY BC2
  1900	003130'	274 00 0 00 021061'		SUB	0,PBCNT
  1901	003131'	542 00 0 00 400001 		HRRM	0,FEDIR+FSL
  1902
  1903	003132'	200 13 0 00 021061'		MOVE	P1,PBCNT
  1904	003133'	542 13 0 00 400021 		HRRM	P1,FEDIR+BCHKL	;SET BC2 LENGTH
  1905
  1906	003134'	476 00 0 14 000000 		SETOM	(P2)		;INDICATE END OF SPACE
  1907
  1908	003135'	200 01 0 00 002524'		MOVE	T1,BOOTEV	;FIND ENTRY VECTOR
  1909	003136'	552 01 0 14 000001 		HRRZM	T1,1(P2)	;SET ENTRY VECTOR
  1910
  1911	003137'	514 01 0 00 002523'		HRLZ	T1,FEJFN
  1912	003140'	541 01 0 00 000033 		HRRI	T1,^D27
  1913	003141'	200 02 0 00 014250'		MOVE	T2,[.FHSLF,,<WINDOW_-^D9>]
  1914	003142'	200 03 0 00 014251'		MOVE	T3,[PM%WR!PM%RD]
  1915	003143'	104 00 0 00 000056 		PMAP			;GET BC2 PRE-BOOT IN FE-FILE
  1916						 ERJMP	[JSERR
  1917	003144'	320 16 0 00 014127'			 JRST	START]
  1918
  1919	003145'	200 00 0 00 014262'		MOVE	[SMPREB,,WINDOW]
  1920	003146'	251 00 0 00 434777 		BLT	WINDOW+777
  1921
  1922	003147'	474 01 0 00 000000 		SETO	T1,
  1923	003150'	400 03 0 00 000000 		SETZ	T3,
  1924	003151'	104 00 0 00 000056 		PMAP			;PUT BC2 PRE-BOOT IN FE-FILE
  1925						 ERJMP	[JSERR
  1926	003152'	320 16 0 00 014127'			 JRST	START]
  1927
  1928	003153'	200 01 0 00 002525'		MOVE	T1,FORKN
  1929	003154'	104 00 0 00 000153 		KFORK			;KILL "GET" FORK
  1930						 ERJMP	[JSERR
  1931	003155'	320 16 0 00 014127'			 JRST	START]
  1932
  1933	003156'	263 17 0 00 000000 		RTN
SMFILE	DECSYSTEM 2020 DIAGNOSTICS FE-FILE PROGRAM, VER 0,3	MACRO %53(1020) 10:47 19-Feb-79 Page 52
SMFILE	MAC	19-Feb-79 10:46		COMMANDS -- WRITE                                                                  SEQ 0091

  1934
  1935	003157'	261 17 0 00 000001 	COPPAG:	PUT	T1
  1936	003160'	261 17 0 00 000003 		PUT	T3
  1937
  1938	003161'	402 00 0 00 021060'		SETZM	PAG0FLG#
  1939	003162'	550 03 0 00 000001 		HRRZ	T3,T1
  1940	003163'	306 03 0 00 000001 		CAIN	T3,1		;IS THIS PAGE 1 ?
  1941	003164'	260 17 0 00 014300'		ERR	<CAN'T OVERLOAD PRE-BOOT PAGE>
  1942
  1943	003165'	306 03 0 00 000000 		CAIN	T3,0		;IS THIS PAGE 0 ?
  1944	003166'	476 00 0 00 021060'		SETOM	PAG0FLG		;IF PAGE 0 OF FILE, SET FLAG
  1945	003167'	262 17 0 00 000003 		GETIT	T3
  1946	003170'	262 17 0 00 000001 		GETIT	T1
  1947
  1948	003171'	332 00 0 00 021060'		SKIPE	PAG0FLG		;IF PAGE 0, IGNORE IT
  1949	003172'	263 17 0 00 000000 		RTN
  1950
  1951	003173'	261 17 0 00 000001 		PUT	T1
  1952	003174'	200 06 0 00 000014 		MOVE	T6,P2
  1953	003175'	260 17 0 00 005041'		GO	SBOOTP		;SET 8080 POINTER
  1954	003176'	350 00 0 00 000014 		AOS	P2
  1955
  1956	003177'	262 17 0 00 000001 		GETIT	T1
  1957	003200'	552 01 0 14 000000 		HRRZM	T1,0(P2)	;SET A POINTER TO PAGE NUMBER
  1958	003201'	350 00 0 00 000014 		AOS	P2		;POINT TO NEXT
  1959
  1960	003202'	261 17 0 00 000001 		PUT	T1
  1961	003203'	550 03 0 00 000001 		HRRZ	T3,T1		;FIND THE PAGE
SMFILE	DECSYSTEM 2020 DIAGNOSTICS FE-FILE PROGRAM, VER 0,3	MACRO %53(1020) 10:47 19-Feb-79 Page 53
SMFILE	MAC	19-Feb-79 10:46		COMMANDS -- WRITE                                                                  SEQ 0092

  1962
  1963	003204'	504 01 0 00 002525'		HRL	T1,FORKN	;GET FORK NUMBER
  1964	003205'	540 01 0 00 000003 		HRR	T1,T3		;GET PAGE NUMBER
  1965	003206'	200 02 0 00 014302'		MOVE	T2,[.FHSLF,,<GENPAG_-^D9>]
  1966	003207'	200 03 0 00 014303'		MOVE	T3,[PM%RD]
  1967	003210'	104 00 0 00 000056 		PMAP			;GET PAGE IN SELF
  1968						ERJMP	[JSERR
  1969	003211'	320 16 0 00 014127'			JRST START]
  1970
  1971	003212'	200 01 0 00 000013 		MOVE	T1,P1		;SET UP PMAP ARGUMENTS
  1972	003213'	200 02 0 00 014304'		MOVE	T2,[.FHSLF,,<IPAG_-^D9>]
  1973	003214'	205 03 0 00 140000 		MOVSI	T3,(PM%WR!PM%RD)
  1974	003215'	104 00 0 00 000056 		PMAP
  1975						ERJMP	[JSERR
  1976	003216'	320 16 0 00 014127'			JRST START]	;JSYS ERROR
  1977
  1978	003217'	200 03 0 00 014305'		MOVE	T3,[GENPAG,,IPAG]
  1979	003220'	251 03 0 00 022637'		BLT	T3,IPAG+777
  1980
  1981	003221'	474 01 0 00 000000 		SETO	T1,
  1982	003222'	400 03 0 00 000000 		SETZ	T3,
  1983	003223'	104 00 0 00 000056 		PMAP
  1984						ERJMP	[JSERR
  1985	003224'	320 16 0 00 014127'			JRST START]	;JSYS ERROR
  1986
  1987	003225'	262 17 0 00 000003 		GETIT	T3		;REMOVE PAGE NUMBER
  1988	003226'	350 00 0 00 000013 		AOS	P1		;UPDATE P1 ARGUMENTS
  1989	003227'	350 00 0 00 021061'		AOS	PBCNT		;COUNT PAGES
  1990	003230'	271 07 0 00 000001 		ADDI	T7,1		;UPDATE DISK ADDRESS
  1991	003231'	263 17 0 00 000000 		RTN			;RETURN
SMFILE	DECSYSTEM 2020 DIAGNOSTICS FE-FILE PROGRAM, VER 0,3	MACRO %53(1020) 10:47 19-Feb-79 Page 54
SMFILE	MAC	19-Feb-79 10:46		COMMANDS -- WRITE                                                                  SEQ 0093

  1992					;HERE TO READ MONITOR BOOT EXE FILE
  1993
  1994	003232'	260 17 0 00 007027'	WB10:	GO	OPNTEN		;OPEN INPUT FILE
  1995	003233'	260 17 0 00 014311'		ERR	<FILE NOT FOUND>
  1996
  1997	003234'	200 01 0 00 006663'		MOVE	T1,LOOK10+.RBNAM
  1998	003235'	202 01 0 00 006043'		MOVEM	T1,O.NAM1	;SAME NAME AS INPUT
  1999
  2000	003236'	205 01 0 00 625155 		MOVSI	T1,(SIXBIT/RIM/)
  2001	003237'	202 01 0 00 006044'		MOVEM	T1,O.EXT	;OUTPUT EXT IS ".RIM"
  2002
  2003	003240'	200 01 0 00 006667'		MOVE	T1,LOOK10+.RBVER
  2004	003241'	202 01 0 00 006051'		MOVEM	T1,O.VER	;USE INPUT VERSION AS OUTPUT VERSION
  2005
  2006	003242'	135 01 0 00 014313'		LDB	T1,[POINT 11,LOOK10+.RBPRV,23]
  2007	003243'	202 01 0 00 006050'		MOVEM	T1,O.TIME	;USE INPUT TIME AND DATE AS OUTPUT
  2008
  2009	003244'	135 01 0 00 014314'		LDB	T1,[POINT 3,LOOK10+.RBEXT,20]
  2010	003245'	137 01 0 00 014315'		DPB	T1,[POINT 3,O.DATE,23]
  2011	003246'	135 01 0 00 014316'		LDB	T1,[POINT 12,LOOK10+.RBPRV,35]
  2012	003247'	137 01 0 00 014317'		DPB	T1,[POINT 12,O.DATE,35]
  2013
  2014	003250'	200 01 0 00 021036'		MOVE	T1,DIRDIR	;USE WRTSET'S PPN
  2015	003251'	202 01 0 00 006046'		MOVEM	T1,O.PPN
  2016
  2017	003252'	200 01 0 00 005405'		MOVE	T1,DIRDEV	;USE WRTSET'S DEVICE
  2018	003253'	202 01 0 00 006042'		MOVEM	T1,O.DEV
  2019
  2020	003254'	201 01 0 00 000577 		MOVEI	T1,577		;SET PROTECTION TO 577
  2021	003255'	202 01 0 00 006045'		MOVEM	T1,O.PRT
  2022
  2023	003256'	200 01 0 00 006666'		MOVE	T1,LOOK10+.RBSIZ ;GET FILE SIZE IN WORDS
  2024	003257'	602 01 0 00 000777 		TRNE	T1,777
  2025	003260'	260 17 0 00 014327'		ERR	<FILE NOT EVEN MULTIPLE OF PAGES>
  2026	003261'	370 00 0 00 000001 		SOS	T1		;MINUS EXE DIR PAGE
  2027	003262'	231 01 0 00 001000 		IDIVI	T1,^D512	;CONVERT TO PAGES
  2028	003263'	202 01 0 00 400015 		MOVEM	T1,FEDIR+MBOOTL	;SET MONITOR BOOT LENGTH
  2029	003264'	221 01 0 00 000004 		IMULI	T1,4		;CONVERT TO BLOCKS
  2030	003265'	202 01 0 00 021065'		MOVEM	T1,S.ALO	;SET FOR ALLOCATION
  2031
  2032	003266'	260 17 0 00 007160'		GO	ETER10		;ENTER OUTPUT FILE
  2033	003267'	260 17 0 00 014335'		ERR	<FILE ENTER FAILURE>
  2034
SMFILE	DECSYSTEM 2020 DIAGNOSTICS FE-FILE PROGRAM, VER 0,3	MACRO %53(1020) 10:47 19-Feb-79 Page 55
SMFILE	MAC	19-Feb-79 10:46		COMMANDS -- WRITE                                                                  SEQ 0094

  2035					;*NOW READ EXE FILE
  2036
  2037	003270'	402 00 0 00 021066'		SETZM	SELPAG#
  2038	003271'	260 17 0 00 010762'		GO	REDDIR		;READ THE DIRECTORY PAGE
  2039
  2040	003272'	554 01 0 00 434000 		HLRZ	A,DBUF		;DIRECTORY DESCRIPTOR
  2041	003273'	550 06 0 00 434000 		HRRZ	T6,DBUF		;LENGTH OF THE DIRECTORY
  2042	003274'	306 01 0 00 001776 		CAIN	A,SV.DIR	;IS THIS A DIRECTORY?
  2043	003275'	301 06 0 00 000200 		CAIL	T6,^D128	; WHICH IS LESS THAN OR EQUAL TO 128 WORDS LONG?
  2044	003276'	260 17 0 00 014347'		ERR	<NOT A DIRECTORY OR ONE WE CAN'T HANDLE>
  2045
  2046	003277'	211 06 0 06 777777 		MOVNI	T6,-1(T6)	;MAKE AN AOBJN POINTER TO THE DIRECTORY
  2047	003300'	505 06 0 00 434001 		HRLI	T6,DBUF+1	; ..
  2048	003301'	207 00 0 00 000006 		MOVSS	T6		; ..
  2049
  2050	003302'	201 14 0 00 004164'		MOVEI	P2,RPPAGD
  2051	003303'	271 14 0 00 000001 		ADDI	P2,1
  2052
  2053	003304'	200 13 0 06 000000 	WB10A:	MOVE	M,(T6)		;BITS,,FILE PAGE NUMBER
  2054	003305'	321 13 0 00 003312'		JUMPL	M,WB10C		;JUMP IF HI SEG PAGE, READ IT IMMEDIATELY
  2055									; ABOVE THE LOW SEGMENT
  2056
  2057	003306'	550 05 0 06 000001 		HRRZ	T5,1(T6)	;CORE PAGE NUMBER
  2058	003307'	242 05 0 00 000011 		LSH	T5,P2WLSH	;CORE ADDRESS
  2059	003310'	336 00 0 00 000005 		SKIPN	T5		;PAGE 0?
  2060	003311'	561 05 0 00 000000 		HRROI	T5,0		;YES, READ IT AND REMEMBER ITS PAGE 0
  2061
  2062	003312'	135 07 0 00 014351'	WB10C:	LDB	T7,[POINT 9,1(T6),8]
  2063
  2064	003313'	606 13 0 00 777777 	WB10D:	TRNN	M,-1		;AN ALLOCATED BUT ZERO PAGE?
  2065	003314'	364 13 0 00 003346'		SOJA	M,WB10H		;YES, COUNT DOWN REPEAT COUNT AND UPDATE CORE ADDRESS
  2066	003315'	550 04 0 00 000013 		HRRZ	T4,M		;FILE PAGE NUMBER
  2067	003316'	242 04 0 00 000002 		LSH	T4,P2BLSH	;CONVERT TO BLOCK WITHIN THE FILE
  2068	003317'	315 04 0 00 021066'		CAMGE	T4,SELPAG	;FILE PAGE NUMBERS MUST BE MONOTONICALLY INCREASING
  2069	003320'	260 17 0 00 014364'		ERR	<PAGES IN EXE DIR AREN'T MONOTONICALLY INCREASING>
  2070
  2071	003321'	316 04 0 00 021066'	WB10E:	CAMN	T4,SELPAG	;AT THE RIGHT BLOCK WITHIN THE FILE?
  2072	003322'	254 00 0 00 003325'		JRST	WB10G		;YES
  2073
  2074	003323'	260 17 0 00 010761'	WB10F:	GO	SELBLK		;BYPASS FILE PAGE
  2075	003324'	254 00 0 00 003321'		JRST	WB10E		;SEE IF THERE YET
SMFILE	DECSYSTEM 2020 DIAGNOSTICS FE-FILE PROGRAM, VER 0,3	MACRO %53(1020) 10:47 19-Feb-79 Page 56
SMFILE	MAC	19-Feb-79 10:46		COMMANDS -- WRITE                                                                  SEQ 0095

  2076
  2077	003325'	306 05 0 00 001000 	WB10G:	CAIN	T5,1000
  2078	003326'	260 17 0 00 014300'		ERR	<CAN'T OVERLOAD PRE-BOOT PAGE>
  2079
  2080	003327'	260 17 0 00 010761'		GO	REDPAG		;READ EXE DATA PAGE
  2081
  2082	003330'	321 05 0 00 003343'		JUMPL	T5,WB10X	;PAGE 0 ?
  2083
  2084	003331'	261 17 0 00 000005 		PUT	T5
  2085	003332'	405 05 0 00 777777 		ANDI	T5,-1
  2086	003333'	242 05 0 00 777767 		LSH	T5,W2PLSH
  2087	003334'	552 05 0 14 000000 		HRRZM	T5,(P2)		;SET A POINTER TO PAGE NUMBER
  2088	003335'	262 17 0 00 000005 		GETIT	T5
  2089	003336'	271 14 0 00 000002 		ADDI	P2,2		;POINT TO NEXT
  2090
  2091						OUT	WC,[IOWD ^D512,IPAG
  2092	003337'	057 03 0 00 014366'			    0]
  2093	003340'	334 00 0 00 000000 		SKIPA
  2094	003341'	260 17 0 00 014373'		ERR	<WRITE ERROR>
  2095
  2096	003342'	325 05 0 00 003346'		JUMPGE	T5,WB10H	;PAGE 0 JUST READ?
  2097
  2098	003343'	200 00 0 00 021760'	WB10X:	MOVE	IPAG+.JBSA
  2099	003344'	202 00 0 00 002524'		MOVEM	BOOTEV		;SAVE STARTING ADDRESS
  2100
  2101	003345'	201 05 0 00 000000 		MOVEI	T5,0		;READ NEXT PAGE INTO PAGE 1
  2102
  2103	003346'	271 05 0 00 001000 	WB10H:	ADDI	T5,PAGSIZ	;NEXT PAGE
  2104	003347'	371 00 0 00 000007 	WB10I:	SOSL	T7		;READ ALL THE PAGES DESCRIBED BY THIS ENTRY?
  2105	003350'	344 13 0 00 003313'		AOJA	M,WB10D		;NO, READ THE NEXT PAGE
  2106
  2107	003351'	253 06 0 00 003352'		AOBJN	T6,.+1		;BUMP PAST THIS DIRECTORY ENTRY, AND
  2108	003352'	253 06 0 00 003304'		AOBJN	T6,WB10A	; GO GET THE NEXT DIRECTORY ENTRY
  2109
  2110	003353'	476 00 0 14 777777 		SETOM	-1(P2)		;INDICATE END OF SPACE
  2111
  2112	003354'	200 01 0 00 002524'		MOVE	T1,BOOTEV
  2113	003355'	552 01 0 14 000000 		HRRZM	T1,(P2)		;SET ENTRY VECTOR
SMFILE	DECSYSTEM 2020 DIAGNOSTICS FE-FILE PROGRAM, VER 0,3	MACRO %53(1020) 10:47 19-Feb-79 Page 57
SMFILE	MAC	19-Feb-79 10:46		COMMANDS -- WRITE                                                                  SEQ 0096

  2114					;*FIND 1ST PAGE OF FILE & PUT IN PRE-BOOT
  2115
  2116	003356'	070 03 0 00 000004 		CLOSE	WC,CL.DLL	;CLOSE FILE
  2117	003357'	071 03 0 00 000000 		RELEAS	WC,
  2118
  2119	003360'	260 17 0 00 007507'		GO	GETBK2		;GET DISK ADDRESS
  2120	003361'	202 01 0 00 400014 		MOVEM	T1,FEDIR+MBOOTP
  2121	003362'	202 01 0 00 000005 		MOVEM	T1,T5
  2122
  2123					;*COMPUTE 8080 ADDRESSES - PUT IN PRE-BOOT
  2124
  2125	003363'	201 06 0 00 004164'		MOVEI	T6,RPPAGD
  2126
  2127	003364'	200 00 0 06 000000 	WB10J:	MOVE	(T6)		;GET ADDRESS POINTER
  2128	003365'	316 00 0 00 013454'		CAMN	[-1]		;TERMINATOR ?
  2129	003366'	254 00 0 00 003374'		JRST	WB10K		;YES
  2130
  2131	003367'	200 01 0 00 000005 		MOVE	T1,T5
  2132	003370'	260 17 0 00 005044'		GO	TBOOTP		;SET DISK ADDRESS
  2133	003371'	271 05 0 00 000004 		ADDI	T5,4
  2134	003372'	271 06 0 00 000002 		ADDI	T6,2
  2135	003373'	254 00 0 00 003364'		JRST	WB10J
  2136
  2137	003374'	402 00 0 00 415000 	WB10K:	SETZM	MPREBP
  2138	003375'	200 00 0 00 014375'		MOVE	[MPREBP,,MPREBP+1]
  2139	003376'	251 00 0 00 415777 		BLT	MPREBP+777
  2140
  2141	003377'	200 00 0 00 014376'		MOVE	[BTSTR1,,MPREBP]	;PUT MONITOR PRE-BOOT IN PLACE
  2142	003400'	251 00 0 00 415335 		BLT	MPREBP+<RPPAGX-BTSTR1>
  2143
  2144	003401'	263 17 0 00 000000 		RTN			;DONE
SMFILE	DECSYSTEM 2020 DIAGNOSTICS FE-FILE PROGRAM, VER 0,3	MACRO %53(1020) 10:47 19-Feb-79 Page 58
SMFILE	MAC	19-Feb-79 10:46		COMMANDS -- WRITE                                                                  SEQ 0097

  2145					;HERE TO READ DIAGNOSTIC BOOT EXE FILE
  2146
  2147	003402'	260 17 0 00 007027'	WDB10:	GO	OPNTEN		;OPEN INPUT FILE
  2148	003403'	260 17 0 00 014311'		ERR	<FILE NOT FOUND>
  2149
  2150	003404'	200 01 0 00 006663'		MOVE	T1,LOOK10+.RBNAM
  2151	003405'	202 01 0 00 006043'		MOVEM	T1,O.NAM1	;SAME NAME AS INPUT
  2152
  2153	003406'	205 01 0 00 625155 		MOVSI	T1,(SIXBIT/RIM/)
  2154	003407'	202 01 0 00 006044'		MOVEM	T1,O.EXT	;OUTPUT EXT IS ".RIM"
  2155
  2156	003410'	200 01 0 00 006667'		MOVE	T1,LOOK10+.RBVER
  2157	003411'	202 01 0 00 006051'		MOVEM	T1,O.VER	;USE INPUT VERSION AS OUTPUT VERSION
  2158
  2159	003412'	135 01 0 00 014313'		LDB	T1,[POINT 11,LOOK10+.RBPRV,23]
  2160	003413'	202 01 0 00 006050'		MOVEM	T1,O.TIME	;USE INPUT TIME AND DATE AS OUTPUT
  2161
  2162	003414'	135 01 0 00 014314'		LDB	T1,[POINT 3,LOOK10+.RBEXT,20]
  2163	003415'	137 01 0 00 014315'		DPB	T1,[POINT 3,O.DATE,23]
  2164	003416'	135 01 0 00 014316'		LDB	T1,[POINT 12,LOOK10+.RBPRV,35]
  2165	003417'	137 01 0 00 014317'		DPB	T1,[POINT 12,O.DATE,35]
  2166
  2167	003420'	200 01 0 00 021036'		MOVE	T1,DIRDIR	;USE WRTSET'S PPN
  2168	003421'	202 01 0 00 006046'		MOVEM	T1,O.PPN
  2169
  2170	003422'	200 01 0 00 005405'		MOVE	T1,DIRDEV	;USE WRTSET'S DEVICE
  2171	003423'	202 01 0 00 006042'		MOVEM	T1,O.DEV
  2172
  2173	003424'	201 01 0 00 000577 		MOVEI	T1,577		;SET PROTECTION TO 577
  2174	003425'	202 01 0 00 006045'		MOVEM	T1,O.PRT
  2175
  2176	003426'	200 01 0 00 006666'		MOVE	T1,LOOK10+.RBSIZ ;GET FILE SIZE IN WORDS
  2177	003427'	602 01 0 00 000777 		TRNE	T1,777
  2178	003430'	260 17 0 00 014327'		ERR	<FILE NOT EVEN MULTIPLE OF PAGES>
  2179	003431'	370 00 0 00 000001 		SOS	T1		;MINUS EXE DIR PAGE
  2180	003432'	231 01 0 00 001000 		IDIVI	T1,^D512	;CONVERT TO PAGES
  2181	003433'	202 01 0 00 400017 		MOVEM	T1,FEDIR+DBOOTL	;SET MONITOR BOOT LENGTH
  2182	003434'	221 01 0 00 000004 		IMULI	T1,4		;CONVERT TO BLOCKS
  2183	003435'	202 01 0 00 021065'		MOVEM	T1,S.ALO	;SET FOR ALLOCATION
  2184
  2185	003436'	260 17 0 00 007160'		GO	ETER10		;ENTER OUTPUT FILE
  2186	003437'	260 17 0 00 014335'		ERR	<FILE ENTER FAILURE>
  2187
SMFILE	DECSYSTEM 2020 DIAGNOSTICS FE-FILE PROGRAM, VER 0,3	MACRO %53(1020) 10:47 19-Feb-79 Page 59
SMFILE	MAC	19-Feb-79 10:46		COMMANDS -- WRITE                                                                  SEQ 0098

  2188					;*NOW READ EXE FILE
  2189
  2190	003440'	402 00 0 00 021066'		SETZM	SELPAG#
  2191	003441'	260 17 0 00 010762'		GO	REDDIR		;READ THE DIRECTORY PAGE
  2192
  2193	003442'	554 01 0 00 434000 		HLRZ	A,DBUF		;DIRECTORY DESCRIPTOR
  2194	003443'	550 06 0 00 434000 		HRRZ	T6,DBUF		;LENGTH OF THE DIRECTORY
  2195	003444'	306 01 0 00 001776 		CAIN	A,SV.DIR	;IS THIS A DIRECTORY?
  2196	003445'	301 06 0 00 000200 		CAIL	T6,^D128	; WHICH IS LESS THAN OR EQUAL TO 128 WORDS LONG?
  2197	003446'	260 17 0 00 014347'		ERR	<NOT A DIRECTORY OR ONE WE CAN'T HANDLE>
  2198
  2199	003447'	211 06 0 06 777777 		MOVNI	T6,-1(T6)	;MAKE AN AOBJN POINTER TO THE DIRECTORY
  2200	003450'	505 06 0 00 434001 		HRLI	T6,DBUF+1	; ..
  2201	003451'	207 00 0 00 000006 		MOVSS	T6		; ..
  2202
  2203	003452'	200 14 0 00 021070'		MOVE	P2,SMPBPG
  2204	003453'	271 14 0 00 000001 		ADDI	P2,1
  2205
  2206	003454'	200 13 0 06 000000 	WDB10A:	MOVE	M,(T6)		;BITS,,FILE PAGE NUMBER
  2207	003455'	321 13 0 00 003462'		JUMPL	M,WDB10C		;JUMP IF HI SEG PAGE, READ IT IMMEDIATELY
  2208									; ABOVE THE LOW SEGMENT
  2209
  2210	003456'	550 05 0 06 000001 		HRRZ	T5,1(T6)	;CORE PAGE NUMBER
  2211	003457'	242 05 0 00 000011 		LSH	T5,P2WLSH	;CORE ADDRESS
  2212	003460'	336 00 0 00 000005 		SKIPN	T5		;PAGE 0?
  2213	003461'	561 05 0 00 000000 		HRROI	T5,0		;YES, READ IT AND REMEMBER ITS PAGE 0
  2214
  2215	003462'	135 07 0 00 014351'	WDB10C:	LDB	T7,[POINT 9,1(T6),8]
  2216
  2217	003463'	606 13 0 00 777777 	WDB10D:	TRNN	M,-1		;AN ALLOCATED BUT ZERO PAGE?
  2218	003464'	364 13 0 00 003516'		SOJA	M,WDB10H	;YES, COUNT DOWN REPEAT COUNT AND UPDATE CORE ADDRESS
  2219	003465'	550 04 0 00 000013 		HRRZ	T4,M		;FILE PAGE NUMBER
  2220	003466'	242 04 0 00 000002 		LSH	T4,P2BLSH	;CONVERT TO BLOCK WITHIN THE FILE
  2221	003467'	315 04 0 00 021066'		CAMGE	T4,SELPAG	;FILE PAGE NUMBERS MUST BE MONOTONICALLY INCREASING
  2222	003470'	260 17 0 00 014364'		ERR	<PAGES IN EXE DIR AREN'T MONOTONICALLY INCREASING>
  2223
  2224	003471'	316 04 0 00 021066'	WDB10E:	CAMN	T4,SELPAG	;AT THE RIGHT BLOCK WITHIN THE FILE?
  2225	003472'	254 00 0 00 003475'		JRST	WDB10G		;YES
  2226
  2227	003473'	260 17 0 00 010761'	WDB10F:	GO	SELBLK		;BYPASS FILE PAGE
  2228	003474'	254 00 0 00 003471'		JRST	WDB10E		;SEE IF THERE YET
SMFILE	DECSYSTEM 2020 DIAGNOSTICS FE-FILE PROGRAM, VER 0,3	MACRO %53(1020) 10:47 19-Feb-79 Page 60
SMFILE	MAC	19-Feb-79 10:46		COMMANDS -- WRITE                                                                  SEQ 0099

  2229
  2230	003475'	306 05 0 00 001000 	WDB10G:	CAIN	T5,1000
  2231	003476'	260 17 0 00 014300'		ERR	<CAN'T OVERLOAD PRE-BOOT PAGE>
  2232
  2233	003477'	260 17 0 00 010761'		GO	REDPAG		;READ EXE DATA PAGE
  2234
  2235	003500'	321 05 0 00 003513'		JUMPL	T5,WDB10X	;PAGE 0 ?
  2236
  2237	003501'	261 17 0 00 000005 		PUT	T5
  2238	003502'	405 05 0 00 777777 		ANDI	T5,-1
  2239	003503'	242 05 0 00 777767 		LSH	T5,W2PLSH
  2240	003504'	552 05 0 14 000000 		HRRZM	T5,(P2)		;SET A POINTER TO PAGE NUMBER
  2241	003505'	262 17 0 00 000005 		GETIT	T5
  2242	003506'	271 14 0 00 000002 		ADDI	P2,2		;POINT TO NEXT
  2243
  2244						OUT	WC,[IOWD ^D512,IPAG
  2245	003507'	057 03 0 00 014366'			    0]
  2246	003510'	334 00 0 00 000000 		SKIPA
  2247	003511'	260 17 0 00 014373'		ERR	<WRITE ERROR>
  2248
  2249	003512'	325 05 0 00 003516'		JUMPGE	T5,WDB10H	;PAGE 0 JUST READ?
  2250
  2251	003513'	200 00 0 00 021760'	WDB10X:	MOVE	IPAG+.JBSA
  2252	003514'	202 00 0 00 002524'		MOVEM	BOOTEV		;SAVE STARTING ADDRESS
  2253
  2254	003515'	201 05 0 00 000000 		MOVEI	T5,0		;READ NEXT PAGE INTO PAGE 1
  2255
  2256	003516'	271 05 0 00 001000 	WDB10H:	ADDI	T5,PAGSIZ	;NEXT PAGE
  2257	003517'	371 00 0 00 000007 	WDB10I:	SOSL	T7		;READ ALL THE PAGES DESCRIBED BY THIS ENTRY?
  2258	003520'	344 13 0 00 003463'		AOJA	M,WDB10D	;NO, READ THE NEXT PAGE
  2259
  2260	003521'	253 06 0 00 003522'		AOBJN	T6,.+1		;BUMP PAST THIS DIRECTORY ENTRY, AND
  2261	003522'	253 06 0 00 003454'		AOBJN	T6,WDB10A	; GO GET THE NEXT DIRECTORY ENTRY
  2262
  2263	003523'	476 00 0 14 777777 		SETOM	-1(P2)		;INDICATE END OF SPACE
  2264
  2265	003524'	200 01 0 00 002524'		MOVE	T1,BOOTEV
  2266	003525'	552 01 0 14 000000 		HRRZM	T1,(P2)	;SET ENTRY VECTOR
SMFILE	DECSYSTEM 2020 DIAGNOSTICS FE-FILE PROGRAM, VER 0,3	MACRO %53(1020) 10:47 19-Feb-79 Page 61
SMFILE	MAC	19-Feb-79 10:46		COMMANDS -- WRITE                                                                  SEQ 0100

  2267					;*FIND 1ST PAGE OF FILE & PUT IN PRE-BOOT
  2268
  2269	003526'	070 03 0 00 000004 		CLOSE	WC,CL.DLL	;CLOSE FILE
  2270	003527'	071 03 0 00 000000 		RELEAS	WC,
  2271
  2272	003530'	260 17 0 00 007507'		GO	GETBK2		;GET DISK ADDRESS
  2273	003531'	202 01 0 00 400016 		MOVEM	T1,FEDIR+DBP
  2274	003532'	202 01 0 00 000005 		MOVEM	T1,T5
  2275
  2276					;*COMPUTE 8080 ADDRESSES - PUT IN PRE-BOOT
  2277
  2278	003533'	200 06 0 00 021070'		MOVE	T6,SMPBPG
  2279
  2280	003534'	200 00 0 06 000000 	WDB10J:	MOVE	(T6)		;GET ADDRESS POINTER
  2281	003535'	316 00 0 00 013454'		CAMN	[-1]		;TERMINATOR ?
  2282	003536'	254 00 0 00 003544'		JRST	WDB10K		;YES
  2283
  2284	003537'	200 01 0 00 000005 		MOVE	T1,T5
  2285	003540'	260 17 0 00 005044'		GO	TBOOTP		;SET DISK ADDRESS
  2286	003541'	271 05 0 00 000004 		ADDI	T5,4
  2287	003542'	271 06 0 00 000002 		ADDI	T6,2
  2288	003543'	254 00 0 00 003534'		JRST	WDB10J
  2289
  2290	003544'	402 00 0 00 416000 	WDB10K:	SETZM	DPREBP
  2291	003545'	200 00 0 00 014377'		MOVE	[DPREBP,,DPREBP+1]
  2292	003546'	251 00 0 00 416777 		BLT	DPREBP+777
  2293
  2294	003547'	200 00 0 00 014400'		MOVE	[SMPREB,,DPREBP]	;PUT DIAGNOSTIC PRE-BOOT IN PLACE
  2295	003550'	251 00 0 00 416777 		BLT	DPREBP+777
  2296
  2297	003551'	263 17 0 00 000000 		RTN			;DONE
SMFILE	DECSYSTEM 2020 DIAGNOSTICS FE-FILE PROGRAM, VER 0,3	MACRO %53(1020) 10:47 19-Feb-79 Page 62
SMFILE	MAC	19-Feb-79 10:46		COMMANDS -- WRITE                                                                  SEQ 0101

  2298					;HERE TO READ DIAGNOSTIC BC2 EXE FILE
  2299
  2300	003552'	260 17 0 00 007027'	BC210:	GO	OPNTEN		;OPEN INPUT FILE
  2301	003553'	260 17 0 00 014311'		ERR	<FILE NOT FOUND>
  2302
  2303	003554'	200 01 0 00 006663'		MOVE	T1,LOOK10+.RBNAM
  2304	003555'	202 01 0 00 006043'		MOVEM	T1,O.NAM1	;SAME NAME AS INPUT
  2305
  2306	003556'	205 01 0 00 625155 		MOVSI	T1,(SIXBIT/RIM/)
  2307	003557'	202 01 0 00 006044'		MOVEM	T1,O.EXT	;OUTPUT EXT IS ".RIM"
  2308
  2309	003560'	200 01 0 00 006667'		MOVE	T1,LOOK10+.RBVER
  2310	003561'	202 01 0 00 006051'		MOVEM	T1,O.VER	;USE INPUT VERSION AS OUTPUT VERSION
  2311
  2312	003562'	135 01 0 00 014313'		LDB	T1,[POINT 11,LOOK10+.RBPRV,23]
  2313	003563'	202 01 0 00 006050'		MOVEM	T1,O.TIME	;USE INPUT TIME AND DATE AS OUTPUT
  2314
  2315	003564'	135 01 0 00 014314'		LDB	T1,[POINT 3,LOOK10+.RBEXT,20]
  2316	003565'	137 01 0 00 014315'		DPB	T1,[POINT 3,O.DATE,23]
  2317	003566'	135 01 0 00 014316'		LDB	T1,[POINT 12,LOOK10+.RBPRV,35]
  2318	003567'	137 01 0 00 014317'		DPB	T1,[POINT 12,O.DATE,35]
  2319
  2320	003570'	200 01 0 00 021036'		MOVE	T1,DIRDIR	;USE WRTSET'S PPN
  2321	003571'	202 01 0 00 006046'		MOVEM	T1,O.PPN
  2322
  2323	003572'	200 01 0 00 005405'		MOVE	T1,DIRDEV	;USE WRTSET'S DEVICE
  2324	003573'	202 01 0 00 006042'		MOVEM	T1,O.DEV
  2325
  2326	003574'	201 01 0 00 000577 		MOVEI	T1,577		;SET PROTECTION TO 577
  2327	003575'	202 01 0 00 006045'		MOVEM	T1,O.PRT
  2328
  2329	003576'	200 01 0 00 006666'		MOVE	T1,LOOK10+.RBSIZ ;GET FILE SIZE IN WORDS
  2330	003577'	602 01 0 00 000777 		TRNE	T1,777
  2331	003600'	260 17 0 00 014327'		ERR	<FILE NOT EVEN MULTIPLE OF PAGES>
  2332	003601'	370 00 0 00 000001 		SOS	T1		;MINUS EXE DIR PAGE
  2333	003602'	231 01 0 00 001000 		IDIVI	T1,^D512	;CONVERT TO PAGES
  2334	003603'	202 01 0 00 400021 		MOVEM	T1,FEDIR+BCHKL	;SET BC2 LENGTH
  2335	003604'	221 01 0 00 000004 		IMULI	T1,4		;CONVERT TO BLOCKS
  2336	003605'	202 01 0 00 021065'		MOVEM	T1,S.ALO	;SET FOR ALLOCATION
  2337
  2338	003606'	260 17 0 00 007160'		GO	ETER10		;ENTER OUTPUT FILE
  2339	003607'	260 17 0 00 014335'		ERR	<FILE ENTER FAILURE>
SMFILE	DECSYSTEM 2020 DIAGNOSTICS FE-FILE PROGRAM, VER 0,3	MACRO %53(1020) 10:47 19-Feb-79 Page 63
SMFILE	MAC	19-Feb-79 10:46		COMMANDS -- WRITE                                                                  SEQ 0102

  2340					;*NOW READ EXE FILE
  2341
  2342	003610'	402 00 0 00 021066'		SETZM	SELPAG#
  2343	003611'	260 17 0 00 010762'		GO	REDDIR		;READ THE DIRECTORY PAGE
  2344
  2345	003612'	554 01 0 00 434000 		HLRZ	A,DBUF		;DIRECTORY DESCRIPTOR
  2346	003613'	550 06 0 00 434000 		HRRZ	T6,DBUF		;LENGTH OF THE DIRECTORY
  2347	003614'	306 01 0 00 001776 		CAIN	A,SV.DIR	;IS THIS A DIRECTORY?
  2348	003615'	301 06 0 00 000200 		CAIL	T6,^D128	; WHICH IS LESS THAN OR EQUAL TO 128 WORDS LONG?
  2349	003616'	260 17 0 00 014347'		ERR	<NOT A DIRECTORY OR ONE WE CAN'T HANDLE>
  2350
  2351	003617'	211 06 0 06 777777 		MOVNI	T6,-1(T6)	;MAKE AN AOBJN POINTER TO THE DIRECTORY
  2352	003620'	505 06 0 00 434001 		HRLI	T6,DBUF+1	; ..
  2353	003621'	207 00 0 00 000006 		MOVSS	T6		; ..
  2354
  2355	003622'	200 14 0 00 021070'		MOVE	P2,SMPBPG
  2356	003623'	271 14 0 00 000001 		ADDI	P2,1
  2357
  2358	003624'	200 13 0 06 000000 	BC210A:	MOVE	M,(T6)		;BITS,,FILE PAGE NUMBER
  2359	003625'	321 13 0 00 003632'		JUMPL	M,BC210C	;JUMP IF HI SEG PAGE, READ IT IMMEDIATELY
  2360									; ABOVE THE LOW SEGMENT
  2361
  2362	003626'	550 05 0 06 000001 		HRRZ	T5,1(T6)	;CORE PAGE NUMBER
  2363	003627'	242 05 0 00 000011 		LSH	T5,P2WLSH	;CORE ADDRESS
  2364	003630'	336 00 0 00 000005 		SKIPN	T5		;PAGE 0?
  2365	003631'	561 05 0 00 000000 		HRROI	T5,0		;YES, READ IT AND REMEMBER ITS PAGE 0
  2366
  2367	003632'	135 07 0 00 014351'	BC210C:	LDB	T7,[POINT 9,1(T6),8]
  2368
  2369	003633'	606 13 0 00 777777 	BC210D:	TRNN	M,-1		;AN ALLOCATED BUT ZERO PAGE?
  2370	003634'	364 13 0 00 003673'		SOJA	M,BC210H	;YES, COUNT DOWN REPEAT COUNT AND UPDATE CORE ADDRESS
  2371	003635'	550 04 0 00 000013 		HRRZ	T4,M		;FILE PAGE NUMBER
  2372	003636'	242 04 0 00 000002 		LSH	T4,P2BLSH	;CONVERT TO BLOCK WITHIN THE FILE
  2373	003637'	315 04 0 00 021066'		CAMGE	T4,SELPAG	;FILE PAGE NUMBERS MUST BE MONOTONICALLY INCREASING
  2374	003640'	260 17 0 00 014364'		ERR	<PAGES IN EXE DIR AREN'T MONOTONICALLY INCREASING>
  2375
  2376	003641'	316 04 0 00 021066'	BC210E:	CAMN	T4,SELPAG	;AT THE RIGHT BLOCK WITHIN THE FILE?
  2377	003642'	254 00 0 00 003645'		JRST	BC210G		;YES
  2378
  2379	003643'	260 17 0 00 010761'	BC210F:	GO	SELBLK		;BYPASS FILE PAGE
  2380	003644'	254 00 0 00 003641'		JRST	BC210E		;SEE IF THERE YET
SMFILE	DECSYSTEM 2020 DIAGNOSTICS FE-FILE PROGRAM, VER 0,3	MACRO %53(1020) 10:47 19-Feb-79 Page 64
SMFILE	MAC	19-Feb-79 10:46		COMMANDS -- WRITE                                                                  SEQ 0103

  2381
  2382	003645'	306 05 0 00 001000 	BC210G:	CAIN	T5,1000
  2383	003646'	260 17 0 00 014300'		ERR	<CAN'T OVERLOAD PRE-BOOT PAGE>
  2384
  2385	003647'	260 17 0 00 010761'		GO	REDPAG		;READ EXE DATA PAGE
  2386
  2387	003650'	325 05 0 00 003656'		JUMPGE	T5,.+6		;PAGE 0 ?
  2388
  2389	003651'	261 17 0 00 000001 		PUT	T1
  2390	003652'	402 00 0 00 021671'		SETZM	IPAG+KPALIVE	;YES, ZERO 8080 COMM AREA
  2391	003653'	200 01 0 00 014401'		MOVE	T1,[IPAG+KPALIVE,,IPAG+KPALIVE+1]
  2392	003654'	251 01 0 00 021700'		BLT	T1,IPAG+MSSLAVE
  2393	003655'	262 17 0 00 000001 		GETIT	T1
  2394
  2395	003656'	261 17 0 00 000005 		PUT	T5
  2396	003657'	405 05 0 00 777777 		ANDI	T5,-1
  2397	003660'	242 05 0 00 777767 		LSH	T5,W2PLSH
  2398	003661'	552 05 0 14 000000 		HRRZM	T5,(P2)		;SET A POINTER TO PAGE NUMBER
  2399	003662'	262 17 0 00 000005 		GETIT	T5
  2400	003663'	271 14 0 00 000002 		ADDI	P2,2		;POINT TO NEXT
  2401
  2402						OUT	WC,[IOWD ^D512,IPAG
  2403	003664'	057 03 0 00 014366'			    0]
  2404	003665'	334 00 0 00 000000 		SKIPA
  2405	003666'	260 17 0 00 014373'		ERR	<WRITE ERROR>
  2406
  2407	003667'	325 05 0 00 003673'		JUMPGE	T5,BC210H	;PAGE 0 JUST READ?
  2408
  2409	003670'	200 00 0 00 021760'		MOVE	IPAG+.JBSA
  2410	003671'	202 00 0 00 002524'		MOVEM	BOOTEV		;SAVE STARTING ADDRESS
  2411
  2412	003672'	201 05 0 00 000000 		MOVEI	T5,0		;READ NEXT PAGE INTO PAGE 1
  2413
  2414	003673'	271 05 0 00 001000 	BC210H:	ADDI	T5,PAGSIZ	;NEXT PAGE
  2415	003674'	371 00 0 00 000007 	BC210I:	SOSL	T7		;READ ALL THE PAGES DESCRIBED BY THIS ENTRY?
  2416	003675'	344 13 0 00 003633'		AOJA	M,BC210D	;NO, READ THE NEXT PAGE
  2417
  2418	003676'	253 06 0 00 003677'		AOBJN	T6,.+1		;BUMP PAST THIS DIRECTORY ENTRY, AND
  2419	003677'	253 06 0 00 003624'		AOBJN	T6,BC210A	; GO GET THE NEXT DIRECTORY ENTRY
  2420
  2421	003700'	476 00 0 14 777777 		SETOM	-1(P2)		;INDICATE END OF SPACE
  2422
  2423	003701'	200 01 0 00 002524'		MOVE	T1,BOOTEV
  2424	003702'	552 01 0 14 000000 		HRRZM	T1,(P2)	;SET ENTRY VECTOR
SMFILE	DECSYSTEM 2020 DIAGNOSTICS FE-FILE PROGRAM, VER 0,3	MACRO %53(1020) 10:47 19-Feb-79 Page 65
SMFILE	MAC	19-Feb-79 10:46		COMMANDS -- WRITE                                                                  SEQ 0104

  2425					;*FIND 1ST PAGE OF FILE & PUT IN PRE-BOOT
  2426
  2427	003703'	070 03 0 00 000004 		CLOSE	WC,CL.DLL	;CLOSE FILE
  2428	003704'	071 03 0 00 000000 		RELEAS	WC,
  2429
  2430	003705'	260 17 0 00 007507'		GO	GETBK2		;GET DISK ADDRESS
  2431	003706'	202 01 0 00 400020 		MOVEM	T1,FEDIR+BCHKP
  2432	003707'	202 01 0 00 000005 		MOVEM	T1,T5
  2433
  2434					;*COMPUTE 8080 ADDRESSES - PUT IN PRE-BOOT
  2435
  2436	003710'	200 06 0 00 021070'		MOVE	T6,SMPBPG
  2437
  2438	003711'	200 00 0 06 000000 	BC210J:	MOVE	(T6)		;GET ADDRESS POINTER
  2439	003712'	316 00 0 00 013454'		CAMN	[-1]		;TERMINATOR ?
  2440	003713'	254 00 0 00 003721'		JRST	BC210K		;YES
  2441
  2442	003714'	200 01 0 00 000005 		MOVE	T1,T5
  2443	003715'	260 17 0 00 005044'		GO	TBOOTP		;SET DISK ADDRESS
  2444	003716'	271 05 0 00 000004 		ADDI	T5,4
  2445	003717'	271 06 0 00 000002 		ADDI	T6,2
  2446	003720'	254 00 0 00 003711'		JRST	BC210J
  2447
  2448	003721'	402 00 0 00 433000 	BC210K:	SETZM	BCPREBP
  2449	003722'	200 00 0 00 014402'		MOVE	[BCPREBP,,BCPREBP+1]
  2450	003723'	251 00 0 00 433777 		BLT	BCPREBP+777
  2451
  2452	003724'	200 00 0 00 014403'		MOVE	[SMPREB,,BCPREBP]	;PUT DIAGNOSTIC PRE-BOOT IN PLACE
  2453	003725'	251 00 0 00 433777 		BLT	BCPREBP+777
  2454
  2455	003726'	263 17 0 00 000000 		RTN			;DONE
SMFILE	DECSYSTEM 2020 DIAGNOSTICS FE-FILE PROGRAM, VER 0,3	MACRO %53(1020) 10:47 19-Feb-79 Page 66
SMFILE	MAC	19-Feb-79 10:46		COMMANDS -- WRITE                                                                  SEQ 0105

  2456					;*MONITOR BOOT STRAP PROGRAM TO BE WRITTEN ON THE DISK
  2457
  2458	003727'				BTSTR1:
  2459	001000					PHASE	BOORG
  2460
  2461	001000	254 00 0 00 001005 	BTSTRT:!JRST	BTSTAR
  2462
  2463	001001	254 04 0 00 001001 	BTHLT0:!HALT	.		;TRIED TO OVERLOAD PRE-BOOT
  2464	001002	254 04 0 00 001002 	BTHLT1:!HALT	.		;DISK RETRY FAILURE
  2465	001003	254 04 0 00 001003 	BTHLT2:!HALT	.		;NO RH-11 BASE ADDRESS
  2466	001004	254 04 0 00 001004 	BTHLT3:!HALT	.		;RESERVED
  2467
  2468	001005	205 17 0 00 777761 	BTSTAR:!MOVSI	17,-17
  2469	001006	402 00 0 17 000000 		SETZM	(17)		;ZERO AC'S
  2470	001007	253 17 0 00 001006 		AOBJN	17,.-1
  2471	001010	402 00 0 00 000017 		SETZM	17
  2472
  2473	001011	200 13 0 00 000036 		MOVE	P1,MSRH		;GET DISK ADDRESS
  2474	001012	202 13 0 00 001230 		MOVEM	P1,MSRHSV
  2475	001013	336 00 0 00 000013 		SKIPN	P1
  2476	001014	254 00 0 00 001003 		JRST	BTHLT2		;NO RH-11 BASE ADDRESS ?
  2477	001015	502 13 0 00 001233 		HLLM	P1,BTUBP0	;SETUP UBA MAP POINTER
  2478	001016	502 13 0 00 001234 		HLLM	P1,BTUBST	;SETUP UBA STATUS POINTER
  2479
  2480	001017	200 01 0 00 000031 		MOVE	T1,KPALIVE
  2481	001020	202 01 0 00 001227 		MOVEM	T1,MSKPAL	;SAVE KEEP-ALIVE WORD
  2482
  2483	001021	201 01 0 00 000040 		MOVEI	T1,RHCLR
  2484	001022	713 01 0 13 000010 		WRIO	T1,RPCS2(P1)	;CLEAR CONTROLLER
  2485
  2486	001023	200 01 0 00 000037 		MOVE	T1,MSDRIVE
  2487	001024	202 01 0 00 001231 		MOVEM	T1,MSDRSV
  2488	001025	713 01 0 13 000010 		WRIO	T1,RPCS2(P1)	;SELECT DRIVE
  2489
  2490	001026	201 01 0 00 000021 		MOVEI	T1,RIPST	;DO READIN PRESET
  2491	001027	713 01 0 13 000000 		WRIO	T1,RPCS1(P1)	;WRITE REGISTER
  2492	001030	201 02 0 00 000200 		MOVEI	T2,RDY		;WAIT FOR READY
  2493	001031	711 02 0 13 000012 		TION	T2,RPDS(P1)	;CHECK READY?
  2494	001032	254 00 0 00 001031 		JRST	.-1		;NO -- CONTINUE WAIT
  2495
  2496	001033	201 03 0 00 001235 		MOVEI	T3,RPPAG	;FIND THE OFFSET STUFF
  2497	001034	201 05 0 00 000012 		MOVEI	T5,^D10		;SET RETRY COUNT
SMFILE	DECSYSTEM 2020 DIAGNOSTICS FE-FILE PROGRAM, VER 0,3	MACRO %53(1020) 10:47 19-Feb-79 Page 67
SMFILE	MAC	19-Feb-79 10:46		COMMANDS -- WRITE                                                                  SEQ 0106

  2498
  2499	001035	200 04 0 03 000000 	RDABLK:!MOVE	T4,0(T3)	;FIND THE DISK ADDRESS
  2500	001036	321 04 0 00 001135 		JUMPL	T4,RDADON	;QUIT IF ALL DONE WITH PAGES
  2501
  2502	001037	350 00 0 00 000003 		AOS	T3		;POINT TO BLOCK ENTRIES
  2503	001040	713 04 0 13 000006 		WRIO	T4,RPDA(P1)	;SET DISK ADDRESS
  2504	001041	207 00 0 00 000004 		MOVSS	T4		;FIND CYL ADDRESS
  2505	001042	713 04 0 13 000034 		WRIO	T4,RPDC(P1)	;SET CYL ADDRESS
  2506
  2507	001043	211 04 0 00 002000 		MOVNI	T4,2000		;READ A PAGE (WORD COUNT)
  2508	001044	713 04 0 13 000002 		WRIO	T4,RPWC(P1)	;SET WORD COUNT
  2509
  2510	001045	400 04 0 00 000000 		SETZ	T4,		;CLEAR CURRENT ADDRESS REGISTER
  2511	001046	713 04 0 13 000004 		WRIO	T4,RPBA(P1)	;SET UNIBUS ADDRESS TO 0
  2512
  2513	001047	200 04 0 03 000000 		MOVE	T4,0(T3)	;FIND THE CORE ADDRESS
  2514	001050	350 00 0 00 000003 		AOS	T3		;POINT TO NEXT ENTRY
  2515	001051	306 04 0 00 000001 		CAIN	T4,1		;CAN'T OVERLOAD PRE-BOOT
  2516	001052	254 00 0 00 001073 		JRST	RDBADR		;PAGE 1 REQUESTED TO BE LOADED ?
  2517
  2518	001053	435 04 0 00 140000 		IORI	T4,UBVBIT!UNV36X
  2519	001054	713 04 1 00 001233 		WRIO	T4,@BTUBP0	;SET UP UNIBUS ADAPTOR PAGE 0
  2520
  2521	001055	201 04 0 00 000071 		MOVEI	T4,RDATA	;SET GO
  2522	001056	713 04 0 13 000000 		WRIO	T4,RPCS1(P1)	;WAIT FOR GO
  2523	001057	712 04 0 13 000000 		RDIO	T4,RPCS1(P1)
  2524	001060	606 04 0 00 000200 		TRNN	T4,RDY
  2525	001061	254 00 0 00 001057 		JRST	.-2		;HO HUM WAIT
  2526
  2527	001062	606 04 0 00 060000 		TRNN	T4,TRE!MCPE	;CHECK ERROR CONDITION SUMMARY
  2528	001063	254 00 0 00 001035 		JRST	RDABLK		;DO NEXT PAGE
  2529
  2530	001064	275 03 0 00 000002 		SUBI	T3,2		;BACKUP TO SAME ENTRY
  2531	001065	363 05 0 00 001076 		SOJLE	T5,RDFAIL	;TRY AGAIN TILL RETRY RUNS OUT
  2532
  2533	001066	201 01 0 00 000040 	RDRTRY:!MOVEI	T1,RHCLR	;ERROR, CLEAR & TRY AGAIN
  2534	001067	713 01 0 13 000010 		WRIO	T1,RPCS2(P1)	;CLEAR CONTROLLER
  2535
  2536	001070	200 01 0 00 000037 		MOVE	T1,MSDRIVE
  2537	001071	713 01 0 13 000010 		WRIO	T1,RPCS2(P1)	;SELECT DRIVE
  2538
  2539	001072	254 00 0 00 001035 		JRST	RDABLK		;TRY AGAIN
SMFILE	DECSYSTEM 2020 DIAGNOSTICS FE-FILE PROGRAM, VER 0,3	MACRO %53(1020) 10:47 19-Feb-79 Page 68
SMFILE	MAC	19-Feb-79 10:46		COMMANDS -- WRITE                                                                  SEQ 0107

  2540
  2541	001073	201 17 0 00 001001 	RDBADR:!MOVEI	17,BTHLT0	;SET HALT ADDRESS
  2542	001074	275 03 0 00 000002 		SUBI	T3,2		;POINT TO FAILING ENTRY
  2543	001075	254 00 0 00 001077 		JRST	.+2
  2544
  2545	001076	201 17 0 00 001002 	RDFAIL:!MOVEI	17,BTHLT1	;SET HALT ADDRESS
  2546	001077	200 00 0 03 000000 		MOVE	(T3)
  2547	001100	202 00 0 00 000100 		MOVEM	100		;SAVE 8080 DISK ADDRESS
  2548	001101	200 00 0 03 000001 		MOVE	1(T3)
  2549	001102	202 00 0 00 000101 		MOVEM	101		;SAVE MEMORY PAGE ADDRESS
  2550
  2551	001103	202 03 0 00 000102 		MOVEM	T3,102		;SAVE SELECTION PICKUP POINTER
  2552
  2553	001104	712 00 0 13 000000 		RDIO	RPCS1(P1)
  2554	001105	202 00 0 00 000103 		MOVEM	103		;SAVE CONTROL AND STATUS 1
  2555	001106	712 00 0 13 000010 		RDIO	RPCS2(P1)
  2556	001107	202 00 0 00 000104 		MOVEM	104		;SAVE CONTROL AND STATUS 2
  2557	001110	712 00 0 13 000012 		RDIO	RPDS(P1)
  2558	001111	202 00 0 00 000105 		MOVEM	105		;SAVE DRIVE STATUS
  2559	001112	712 00 0 13 000014 		RDIO	RPER1(P1)
  2560	001113	202 00 0 00 000106 		MOVEM	106		;SAVE ERROR 1
  2561	001114	712 00 0 13 000040 		RDIO	RPER2(P1)
  2562	001115	202 00 0 00 000107 		MOVEM	107		;SAVE ERROR 2
  2563	001116	712 00 0 13 000042 		RDIO	RPER3(P1)
  2564	001117	202 00 0 00 000110 		MOVEM	110		;SAVE ERROR 3
  2565
  2566	001120	712 00 1 00 001233 		RDIO	@BTUBP0
  2567	001121	202 00 0 00 000111 		MOVEM	111		;SAVE UBA PAGING RAM LOC 0
  2568	001122	712 00 1 00 001234 		RDIO	@BTUBST
  2569	001123	202 00 0 00 000112 		MOVEM	112		;SAVE UBA STATUS REG
  2570
  2571	001124	200 00 0 00 001232 		MOVE	BTVER
  2572	001125	202 00 0 00 000113 		MOVEM	113		;SAVE PRE-BOOT VERSION
  2573
  2574	001126	200 00 0 00 001230 		MOVE	MSRHSV
  2575	001127	202 00 0 00 000036 		MOVEM	MSRH		;REINSTALL RH-11 BASE ADDRESS
  2576	001130	200 00 0 00 001231 		MOVE	MSDRSV
  2577	001131	202 00 0 00 000037 		MOVEM	MSDRIVE		;REINSTALL DRIVE NUMBER
  2578	001132	200 00 0 00 001227 		MOVE	MSKPAL
  2579	001133	202 00 0 00 000031 		MOVEM	KPALIVE		;REINSTALL KEEP-ALIVE
  2580
  2581	001134	254 00 1 00 000017 		JRST	@17		;HALT AT APPROPRIATE HALT
SMFILE	DECSYSTEM 2020 DIAGNOSTICS FE-FILE PROGRAM, VER 0,3	MACRO %53(1020) 10:47 19-Feb-79 Page 69
SMFILE	MAC	19-Feb-79 10:46		COMMANDS -- WRITE                                                                  SEQ 0108

  2582
  2583	001135	200 00 0 03 000001 	RDADON:!MOVE	1(T3)		;GET START ADDRESS
  2584	001136	202 00 0 00 000020 		MOVEM	20		;SAVE
  2585
  2586	001137	701 03 0 00 001217 		WRUBR	ACBLK7
  2587	001140	205 17 0 00 777761 		MOVSI	17,-17
  2588	001141	402 00 0 17 000000 		SETZM	(17)		;ZERO AC'S
  2589	001142	253 17 0 00 001141 		AOBJN	17,.-1
  2590	001143	402 00 0 00 000017 		SETZM	17
  2591
  2592	001144	701 03 0 00 001220 		WRUBR	ACBLK6
  2593	001145	205 17 0 00 777761 		MOVSI	17,-17
  2594	001146	402 00 0 17 000000 		SETZM	(17)		;ZERO AC'S
  2595	001147	253 17 0 00 001146 		AOBJN	17,.-1
  2596	001150	402 00 0 00 000017 		SETZM	17
  2597
  2598	001151	701 03 0 00 001221 		WRUBR	ACBLK5
  2599	001152	205 17 0 00 777761 		MOVSI	17,-17
  2600	001153	402 00 0 17 000000 		SETZM	(17)		;ZERO AC'S
  2601	001154	253 17 0 00 001153 		AOBJN	17,.-1
  2602	001155	402 00 0 00 000017 		SETZM	17
  2603
  2604	001156	701 03 0 00 001222 		WRUBR	ACBLK4
  2605	001157	205 17 0 00 777761 		MOVSI	17,-17
  2606	001160	402 00 0 17 000000 		SETZM	(17)		;ZERO AC'S
  2607	001161	253 17 0 00 001160 		AOBJN	17,.-1
  2608	001162	402 00 0 00 000017 		SETZM	17
  2609
  2610	001163	701 03 0 00 001223 		WRUBR	ACBLK3
  2611	001164	205 17 0 00 777761 		MOVSI	17,-17
  2612	001165	402 00 0 17 000000 		SETZM	(17)		;ZERO AC'S
  2613	001166	253 17 0 00 001165 		AOBJN	17,.-1
  2614	001167	402 00 0 00 000017 		SETZM	17
  2615
  2616	001170	701 03 0 00 001224 		WRUBR	ACBLK2
  2617	001171	205 17 0 00 777761 		MOVSI	17,-17
  2618	001172	402 00 0 17 000000 		SETZM	(17)		;ZERO AC'S
  2619	001173	253 17 0 00 001172 		AOBJN	17,.-1
  2620	001174	402 00 0 00 000017 		SETZM	17
  2621
  2622	001175	701 03 0 00 001225 		WRUBR	ACBLK1
  2623	001176	205 17 0 00 777761 		MOVSI	17,-17
  2624	001177	402 00 0 17 000000 		SETZM	(17)		;ZERO AC'S
  2625	001200	253 17 0 00 001177 		AOBJN	17,.-1
  2626	001201	402 00 0 00 000017 		SETZM	17
  2627
  2628	001202	701 03 0 00 001226 		WRUBR	ACBLK0
  2629	001203	205 17 0 00 777761 		MOVSI	17,-17
  2630	001204	402 00 0 17 000000 		SETZM	(17)		;ZERO AC'S
  2631	001205	253 17 0 00 001204 		AOBJN	17,.-1
  2632	001206	402 00 0 00 000017 		SETZM	17
SMFILE	DECSYSTEM 2020 DIAGNOSTICS FE-FILE PROGRAM, VER 0,3	MACRO %53(1020) 10:47 19-Feb-79 Page 70
SMFILE	MAC	19-Feb-79 10:46		COMMANDS -- WRITE                                                                  SEQ 0109

  2633
  2634	001207	200 00 0 00 001230 		MOVE	MSRHSV
  2635	001210	202 00 0 00 000036 		MOVEM	MSRH		;REINSTALL RH-11 BASE ADDRESS
  2636	001211	200 00 0 00 001231 		MOVE	MSDRSV
  2637	001212	202 00 0 00 000037 		MOVEM	MSDRIVE		;REINSTALL DRIVE NUMBER
  2638	001213	200 00 0 00 001227 		MOVE	MSKPAL
  2639	001214	202 00 0 00 000031 		MOVEM	KPALIVE		;REINSTALL KEEP-ALIVE
  2640
  2641	001215	400 00 0 00 000000 		SETZ
  2642	001216	254 00 1 00 000020 		JRST	@20		;NOW START BOOT
  2643
  2644	001217	407000	000000		ACBLK7:!	1B0!7B8		;WRUBR ARGUMENTS
  2645	001220	406000	000000		ACBLK6:!	1B0!6B8
  2646	001221	405000	000000		ACBLK5:!	1B0!5B8
  2647	001222	404000	000000		ACBLK4:!	1B0!4B8
  2648	001223	403000	000000		ACBLK3:!	1B0!3B8
  2649	001224	402000	000000		ACBLK2:!	1B0!2B8
  2650	001225	401000	000000		ACBLK1:!	1B0!1B8
  2651	001226	400000	000000		ACBLK0:!	1B0!0B8
  2652
  2653	001227	000000	000000		MSKPAL:!	0		;KEEP-ALIVE & STATUS WORD
  2654	001230	000000	000000		MSRHSV:!	0		;RH-11 BASE ADDRESS
  2655	001231	000000	000000		MSDRSV:!	0		;DRIVE NUMBER
  2656
  2657	001232	000000	000003		BTVER:!	MCNVER,,DECVER		;PRE-BOOT VERSION
  2658
  2659	001233	000001	763000		BTUBP0:!	1,,763000	;ADDRESS OF FIRST WINDOW
  2660	001234	000001	763100		BTUBST:!	1,,763100	;ADDRESS OF UBA STATUS
  2661
  2662	001235				RPPAG:!				;NEXT TWO INSTRUCTIONS MUST FOLLOW!!DO NOT MOVE
  2663	004164'					DEPHASE
  2664
  2665	004164'				RPPAGD:	BLOCK	100
  2666	004264'	000000	000000		RPPAGX:	0
SMFILE	DECSYSTEM 2020 DIAGNOSTICS FE-FILE PROGRAM, VER 0,3	MACRO %53(1020) 10:47 19-Feb-79 Page 71
SMFILE	MAC	19-Feb-79 10:46		COMMANDS -- WRITE                                                                  SEQ 0110

  2667					;*WRITE MICRO-CODE ONTO DISK
  2668
  2669	004265'	476 00 0 00 021027'	WRTBC1:	SETOM	BC1FLG
  2670	004266'	254 00 0 00 004270'		JRST	WRTCRM+1
  2671	004267'	402 00 0 00 021027'	WRTCRM:	SETZM	BC1FLG
  2672	004270'					NOISE	<MICROCODE ONTO DISK>
  2673	004302'	260 17 0 00 000623'		CONFIRM
  2674
  2675	004303'	336 00 0 00 021046'		SKIPN	FESETF		;FE-DIR  IN CODE ?
  2676	004304'	260 17 0 00 013262'		 ERR	<FE-FILE SYSTEM NOT SETUP>
  2677	004305'	336 00 0 00 016572'		SKIPN	RDFLAG
  2678	004306'	260 17 0 00 013676'		ERR	<MUST FIRST READ MICROCODE WITH READ COMMAND>
  2679
  2680	004307'	336 00 0 00 000302'		SKIPN	MONTYP
  2681	004310'	254 00 0 00 004342'		JRST	WRTC10		;TOPS-10
  2682
  2683	004311'	554 03 0 00 400003 		HLRZ	T3,FEDIR+MCL	;GET MICROCODE START PAGE
  2684	004312'	332 00 0 00 021027'		SKIPE	BC1FLG
  2685	004313'	554 03 0 00 400011 		HLRZ	T3,FEDIR+BC1L
  2686	004314'	242 03 0 00 000011 		LSH	T3,^D9		;MAKE WORD POINTER INTO FILE
  2687	004315'	202 03 0 00 021075'		MOVEM	T3,WTPTR#	;SAVE
  2688
  2689	004316'	200 01 0 00 002523'		MOVE	T1,FEJFN
  2690	004317'	200 02 0 00 021075'		MOVE	T2,WTPTR
  2691	004320'	104 00 0 00 000027 		SFPTR
  2692	004321'	320 16 0 00 014427'		ERMSG	<CAN NOT SET FILE POINTER>
  2693
  2694	004322'	201 06 0 00 401000 		MOVEI	T6,CRAM
  2695	004323'	332 00 0 00 021027'		SKIPE	BC1FLG
  2696	004324'	201 06 0 00 417000 		MOVEI	T6,CRMBC1
  2697	004325'	201 05 0 00 004000 		MOVEI	T5,4000
  2698	004326'	200 02 0 06 000000 	WTLOOP:	MOVE	T2,(T6)
  2699	004327'	104 00 0 00 000051 		BOUT
  2700	004330'	200 02 0 06 000001 		MOVE	T2,1(T6)
  2701	004331'	104 00 0 00 000051 		BOUT
  2702	004332'	200 02 0 06 000002 		MOVE	T2,2(T6)
  2703	004333'	104 00 0 00 000051 		BOUT
  2704	004334'	271 06 0 00 000003 		ADDI	T6,3
  2705	004335'	367 05 0 00 004326'		SOJG	T5,WTLOOP
  2706
  2707	004336'	200 01 0 00 002523'		MOVE	T1,FEJFN
  2708	004337'	201 02 0 00 000000 		MOVEI	T2,0		;SET FILE POINTER TO 0
  2709	004340'	104 00 0 00 000027 		SFPTR
  2710	004341'	320 16 0 00 014427'		ERMSG	<CAN NOT SET FILE POINTER>
  2711
  2712	004342'	201 06 0 00 400002 	WRTC10:	MOVEI	T6,FEDIR+MCP
  2713	004343'	554 07 0 00 400003 		HLRZ	T7,FEDIR+MCL
  2714	004344'	336 00 0 00 021027'		SKIPN	BC1FLG
  2715	004345'	254 00 0 00 004350'		JRST	.+3
  2716	004346'	201 06 0 00 400010 		MOVEI	T6,FEDIR+BC1P
  2717	004347'	554 07 0 00 400011 		HLRZ	T7,FEDIR+BC1L
  2718	004350'	260 17 0 00 005012'		GO	S8080P		;SETUP 8080 POINTER
  2719
  2720	004351'	263 17 0 00 000000 		RTN
SMFILE	DECSYSTEM 2020 DIAGNOSTICS FE-FILE PROGRAM, VER 0,3	MACRO %53(1020) 10:47 19-Feb-79 Page 72
SMFILE	MAC	19-Feb-79 10:46		COMMANDS -- WRITE                                                                  SEQ 0111

  2721					;*WRTFEF, WRITE FRONT-END INDIRECT FILES
  2722					;*	COMMAND - [INDIRECT "0-366(8)" "FILE.EXT"
  2723					;*	CREATES - "FEF000.FI" TO "FEF366.FI" (TOPS-10)
  2724
  2725	004352'				WRTFEF:	CMD	[FLDDB.(.CMNUM,,^D8)],<NOT A VALID FILE NUMBER>
  2726
  2727	004364'	331 00 0 00 000002 		SKIPL	T2
  2728	004365'	303 02 0 00 000366 		CAILE	T2,366
  2729	004366'	260 17 0 00 014444'		ERR	<NOT A VALID FILE NUMBER>
  2730	004367'	202 02 0 00 021044'		MOVEM	T2,FEFNBR#
  2731
  2732	004370'	402 00 0 00 016410'		SETZM	GTJFIL		;NO DEFAULTS ALLOWED
  2733	004371'	402 00 0 00 016411'		SETZM	GTJEXT
  2734	004372'	402 00 0 00 016406'		SETZM	GTJDEV
  2735	004373'	402 00 0 00 016407'		SETZM	GTJDIR
  2736
  2737	004374'	205 01 0 00 100000 		MOVSI	T1,(GJ%OLD)
  2738	004375'	202 01 0 00 016404'		MOVEM	T1,GTJFLG
  2739
  2740	004376'					CMD	[FLDDB.(.CMFIL)]
  2741	004407'	516 02 0 00 021043'		HRLZM	T2,FEFJFN#	;SAVE THE JFN OF THE FILE
  2742
  2743	004410'	260 17 0 00 000623'		CONFIRM
  2744
  2745	004411'	336 00 0 00 021046'		SKIPN	FESETF
  2746	004412'	260 17 0 00 013262'		ERR	<FE-FILE SYSTEM NOT SETUP>
  2747
  2748	004413'	336 00 0 00 000302'		SKIPN	MONTYP
  2749	004414'	254 00 0 00 004472'		JRST	FEF10		;TOPS-10
  2750
  2751	004415'	550 01 0 00 400001 		HRRZ	T1,FEDIR+FSL	;GET FREE SPACE LENGTH
  2752	004416'	305 01 0 00 000001 		CAIGE	T1,1		;THIS NEEDS ONE PAGE
  2753	004417'	260 17 0 00 014245'		ERR	<NOT ENOUGH FREE SPACE>
SMFILE	DECSYSTEM 2020 DIAGNOSTICS FE-FILE PROGRAM, VER 0,3	MACRO %53(1020) 10:47 19-Feb-79 Page 73
SMFILE	MAC	19-Feb-79 10:46		COMMANDS -- WRITE                                                                  SEQ 0112

  2754
  2755	004420'	554 01 0 00 021043'		HLRZ	T1,FEFJFN
  2756	004421'	201 02 0 00 200000 		MOVEI	T2,OF%RD
  2757	004422'	104 00 0 00 000021 		OPENF			;OPEN FILE
  2758	004423'	260 17 0 00 014457'		ERR	<INDIRECT OPEN ERROR>
  2759
  2760	004424'	554 01 0 00 021043'		HLRZ	T1,FEFJFN
  2761	004425'	200 02 0 00 014104'		MOVE	T2,[1,,.FBBYV]
  2762	004426'	201 03 0 00 000004 		MOVEI	T3,T4
  2763	004427'	104 00 0 00 000063 		GTFDB			;GET FILE PAGE COUNT
  2764	004430'	405 04 0 00 777777 		ANDI	T4,-1
  2765	004431'	302 04 0 00 000001 		CAIE	T4,^D1		;CAN ONLY BE ONE PAGE
  2766	004432'	254 00 0 00 004466'		 JRST	FEFERR		;WRONG LENGTH
  2767
  2768	004433'	200 01 0 00 021043'		MOVE	T1,FEFJFN
  2769	004434'	200 02 0 00 014302'		MOVE	T2,[.FHSLF,,<GENPAG_-^D9>]
  2770	004435'	200 03 0 00 014461'		MOVE	T3,[PM%RD+PM%PLD+PM%CPY]
  2771	004436'	104 00 0 00 000056 		PMAP			;GET FILE
  2772						ERJMP	[JSERR
  2773	004437'	320 16 0 00 014127'			 JRST	START]
  2774
  2775	004440'	416 00 0 00 435000 		SETMM	GENPAG		;MAKE PRIVATE
  2776
  2777	004441'	554 01 0 00 021043'		HLRZ	T1,FEFJFN
  2778	004442'	104 00 0 00 000022 		CLOSF			;CLOSE FILE
  2779	004443'	260 17 0 00 014467'		ERR	<INDIRECT CLOSE ERROR>
  2780
  2781	004444'	260 17 0 00 004560'		GO	FEIFMT		;FORMAT INDIRECT FILE
  2782
  2783	004445'	200 01 0 00 014471'		MOVE	T1,[.FHSLF,,<IPAG_-^D9>]
  2784	004446'	514 02 0 00 002523'		HRLZ	T2,FEJFN
  2785	004447'	544 02 0 00 400001 		HLR	T2,FEDIR+FSL	;GET FREE-SPACE PAGE
  2786	004450'	200 03 0 00 014472'		MOVE	T3,[PM%WR]
  2787	004451'	104 00 0 00 000056 		PMAP			;PUT INDIRECT INTO FE-FILE
  2788						 ERJMP	[JSERR
  2789	004452'	320 16 0 00 014127'			 JRST	START]
SMFILE	DECSYSTEM 2020 DIAGNOSTICS FE-FILE PROGRAM, VER 0,3	MACRO %53(1020) 10:47 19-Feb-79 Page 74
SMFILE	MAC	19-Feb-79 10:46		COMMANDS -- WRITE                                                                  SEQ 0113

  2790
  2791	004453'	200 01 0 00 400001 		MOVE	T1,FEDIR+FSL	;GET FREE-SPACE PAGE #,,LENGTH
  2792	004454'	200 02 0 00 000001 		MOVE	T2,T1
  2793	004455'	275 01 0 00 000001 		SUBI	T1,1		;MINUS ONE IN LENGTH
  2794	004456'	270 01 0 00 014473'		ADD	T1,[1,,0]	;PLUS ONE TO PAGE #
  2795	004457'	202 01 0 00 400001 		MOVEM	T1,FEDIR+FSL	;RESAVE
  2796
  2797	004460'	200 01 0 00 021044'		MOVE	T1,FEFNBR	;GET INDIRECT NUMBER
  2798	004461'	221 01 0 00 000002 		IMULI	T1,2		;DOUBLE IT
  2799	004462'	271 01 0 00 400023 		ADDI	T1,FEDIR+IFL0	;ADD FEDIR START POSITION
  2800
  2801	004463'	541 02 0 00 000001 		HRRI	T2,^D1		;MAKE POINTER PAGE #,,1
  2802	004464'	202 02 0 01 000000 		MOVEM	T2,(T1)		;SETUP FE-DIR POINTER
  2803
  2804	004465'	263 17 0 00 000000 		RTN
  2805
  2806	004466'	554 01 0 00 021043'	FEFERR:	HLRZ	T1,FEFJFN
  2807	004467'	104 00 0 00 000022 		CLOSF			;CLOSE OUT BAD INDIRECT
  2808	004470'	260 17 0 00 014467'		ERR	<INDIRECT CLOSE ERROR>
  2809	004471'	260 17 0 00 014501'		ERR	<INDIRECT WRONG LENGTH>
SMFILE	DECSYSTEM 2020 DIAGNOSTICS FE-FILE PROGRAM, VER 0,3	MACRO %53(1020) 10:47 19-Feb-79 Page 75
SMFILE	MAC	19-Feb-79 10:46		COMMANDS -- WRITE                                                                  SEQ 0114

  2810					;*FEF10, TOPS-10 WRITE FRONT-END INDIRECT FILES
  2811
  2812	004472'	260 17 0 00 007027'	FEF10:	GO	OPNTEN		;OPEN INPUT FILE
  2813	004473'	260 17 0 00 014311'		ERR	<FILE NOT FOUND>
  2814
  2815	004474'	200 01 0 00 006666'		MOVE	T1,LOOK10+.RBSIZ ;GET FILE SIZE IN WORDS
  2816	004475'	303 01 0 00 001000 		CAILE	T1,^D512	;MUST BE ONE PAGE OR LESS
  2817	004476'	260 17 0 00 014501'		ERR	<INDIRECT WRONG LENGTH>
  2818
  2819	004477'	402 00 0 00 435000 		SETZM	GENPAG
  2820	004500'	200 01 0 00 014503'		MOVE	T1,[GENPAG,,GENPAG+1]
  2821	004501'	251 01 0 00 435777 		BLT	T1,GENPAG+777
  2822
  2823	004502'	201 07 0 00 435000 		MOVEI	T7,GENPAG		;READ IN INDIRECT
  2824	004503'	260 17 0 00 006764'		GO	GET10
  2825	004504'	335 00 0 00 021040'		SKIPGE	EOFSW
  2826	004505'	254 00 0 00 004510'		JRST	.+3
  2827	004506'	202 03 0 07 000000 		MOVEM	T3,(T7)
  2828	004507'	344 07 0 00 004503'		AOJA	T7,.-4
  2829
  2830	004510'	260 17 0 00 007015'		GO	R10EOF		;CLOSE INPUT FILE
  2831
  2832	004511'	260 17 0 00 004560'		GO	FEIFMT		;FORMAT INDIRECT FILE
  2833
  2834	004512'	400 01 0 00 000000 		SETZ	T1,		;COOK UP OUTPUT FILE NAME
  2835	004513'	135 00 0 00 014504'		LDB	[POINT 3,FEFNBR,29]
  2836	004514'	137 00 0 00 014505'		DPB	[POINT 3,T1,23]
  2837	004515'	135 00 0 00 014506'		LDB	[POINT 3,FEFNBR,32]
  2838	004516'	137 00 0 00 014507'		DPB	[POINT 3,T1,29]
  2839	004517'	135 00 0 00 014510'		LDB	[POINT 3,FEFNBR,35]
  2840	004520'	137 00 0 00 014511'		DPB	[POINT 3,T1,35]
  2841	004521'	270 01 0 00 014512'		ADD	T1,[SIXBIT/FEF000/]
  2842	004522'	202 01 0 00 006043'		MOVEM	T1,O.NAM1
  2843
  2844	004523'	205 01 0 00 465100 		MOVSI	T1,(SIXBIT/FI/)
  2845	004524'	202 01 0 00 006044'		MOVEM	T1,O.EXT
  2846
  2847	004525'	200 01 0 00 021036'		MOVE	T1,DIRDIR	;USE WRTSET'S PPN
  2848	004526'	202 01 0 00 006046'		MOVEM	T1,O.PPN
  2849
  2850	004527'	200 01 0 00 005405'		MOVE	T1,DIRDEV	;USE WRTSET'S DEVICE
  2851	004530'	202 01 0 00 006042'		MOVEM	T1,O.DEV
  2852
  2853	004531'	201 01 0 00 000577 		MOVEI	T1,577		;SET PROTECTION 577
  2854	004532'	202 01 0 00 006045'		MOVEM	T1,O.PRT
SMFILE	DECSYSTEM 2020 DIAGNOSTICS FE-FILE PROGRAM, VER 0,3	MACRO %53(1020) 10:47 19-Feb-79 Page 76
SMFILE	MAC	19-Feb-79 10:46		COMMANDS -- WRITE                                                                  SEQ 0115

  2855
  2856	004533'	402 00 0 00 006051'		SETZM	O.VER
  2857	004534'	402 00 0 00 006050'		SETZM	O.TIME
  2858	004535'	402 00 0 00 006047'		SETZM	O.DATE
  2859
  2860	004536'	201 01 0 00 000004 		MOVEI	T1,4		;MAKE FILE ONE PAGE
  2861	004537'	202 01 0 00 021065'		MOVEM	T1,S.ALO
  2862
  2863	004540'	260 17 0 00 007160'		GO	ETER10		;CREATE FILE
  2864	004541'	260 17 0 00 014517'		ERR	<FILE ENTER ERROR>
  2865
  2866						OUT	WC,[IOWD ^D512,IPAG
  2867	004542'	057 03 0 00 014366'			    0]
  2868	004543'	334 00 0 00 000000 		SKIPA
  2869	004544'	260 17 0 00 014373'		ERR	<WRITE ERROR>
  2870
  2871	004545'	070 03 0 00 000004 		CLOSE	WC,CL.DLL	;CLOSE FILE
  2872	004546'	071 03 0 00 000000 		RELEAS	WC,
  2873
  2874	004547'	260 17 0 00 007507'		GO	GETBK2		;GET DISK ADDRESS
  2875	004550'	202 01 0 00 000007 		MOVEM	T1,T7
  2876	004551'	200 06 0 00 021044'		MOVE	T6,FEFNBR	;POINT TO FEDIR POSITION
  2877	004552'	221 06 0 00 000002 		IMULI	T6,2
  2878	004553'	271 06 0 00 400022 		ADDI	T6,FEDIR+IFP0
  2879
  2880	004554'	201 02 0 00 000001 		MOVEI	T2,1
  2881	004555'	202 02 0 06 000001 		MOVEM	T2,1(T6)	;MARK IN USE
  2882
  2883	004556'	260 17 0 00 005020'		GO	T8080P		;COMPUTE 8080 POINTER
  2884
  2885	004557'	263 17 0 00 000000 		RTN
SMFILE	DECSYSTEM 2020 DIAGNOSTICS FE-FILE PROGRAM, VER 0,3	MACRO %53(1020) 10:47 19-Feb-79 Page 77
SMFILE	MAC	19-Feb-79 10:46		COMMANDS -- WRITE                                                                  SEQ 0116

  2886					;*FEIFMT, FORMAT FRONT-END INDIRECT FILES
  2887
  2888	004560'	402 00 0 00 021640'	FEIFMT:	SETZM	IPAG		;CLEAR STORAGE
  2889	004561'	200 01 0 00 014521'		MOVE	T1,[IPAG,,IPAG+1]
  2890	004562'	251 01 0 00 022637'		BLT	T1,IPAG+777
  2891
  2892	004563'	200 06 0 00 014522'		MOVE	T6,[POINT 7,GENPAG]
  2893	004564'	201 05 0 00 021640'		MOVEI	T5,IPAG
  2894	004565'	201 04 0 00 003777 		MOVEI	T4,<^D512*^D4>-1
  2895
  2896	004566'	400 02 0 00 000000 	FEILP:	SETZ	T2,
  2897	004567'	260 17 0 00 004607'		GO	FEICHR		;FIRST CHAR
  2898	004570'	254 00 0 00 004606'		JRST	FEILP2		;EOF
  2899	004571'	137 03 0 00 014523'		DPB	T3,[POINT 8,T2,35]
  2900
  2901	004572'	260 17 0 00 004607'		GO	FEICHR		;SECOND CHAR
  2902	004573'	254 00 0 00 004605'		JRST	FEILP1		;EOF
  2903	004574'	137 03 0 00 014524'		DPB	T3,[POINT 8,T2,27]
  2904
  2905	004575'	260 17 0 00 004607'		GO	FEICHR		;FIRST CHAR
  2906	004576'	254 00 0 00 004605'		JRST	FEILP1		;EOF
  2907	004577'	137 03 0 00 014525'		DPB	T3,[POINT 8,T2,19]
  2908
  2909	004600'	260 17 0 00 004607'		GO	FEICHR		;FIRST CHAR
  2910	004601'	254 00 0 00 004605'		JRST	FEILP1		;EOF
  2911	004602'	137 03 0 00 014526'		DPB	T3,[POINT 8,T2,11]
  2912
  2913	004603'	202 02 0 05 000000 		MOVEM	T2,(T5)		;STORE WORD
  2914	004604'	344 05 0 00 004566'		AOJA	T5,FEILP	;LOOP TILL EOF
  2915
  2916	004605'	202 02 0 05 000000 	FEILP1:	MOVEM	T2,(T5)		;SAVE FINAL WORD
  2917	004606'	263 17 0 00 000000 	FEILP2:	RTN			;DONE
  2918
  2919	004607'	316 06 0 00 014527'	FEICHR:	CAMN	T6,[POINT 7,GENPAG+777,34]
  2920	004610'	254 00 0 00 004616'		JRST	FEIBIG		;INPUT FILE TOO BIG
  2921
  2922	004611'	134 03 0 00 000006 		ILDB	T3,T6		;GET INPUT CHAR
  2923	004612'	326 03 0 00 004614'		JUMPN	T3,.+2
  2924	004613'	263 17 0 00 000000 		RTN			;NULL, END-OF-FILE
  2925	004614'	363 04 0 00 004616'		SOJLE	T4,FEIBIG	;COUNT CHAR, JUMP IF TOO MANY
  2926	004615'	254 00 0 00 000016'		JRST	CPOPJ1		;SKIP RETURN WITH CHAR
  2927
  2928	004616'	260 17 0 00 014535'	FEIBIG:	ERR	<INDIRECT FILE TOO BIG>
SMFILE	DECSYSTEM 2020 DIAGNOSTICS FE-FILE PROGRAM, VER 0,3	MACRO %53(1020) 10:47 19-Feb-79 Page 78
SMFILE	MAC	19-Feb-79 10:46		COMMANDS -- WRITE                                                                  SEQ 0117

  2929					;*TYPE, TYPE CONTENTS OF INDIRECT FILE
  2930
  2931	004617'	000001	000001			SCMTAB	..TYPE
  2932	004620'	013237'	004635'			CMTAB	INDIRECT,TYPEFI
  2933						ECMTAB
  2934
  2935	004621'				.TYPE:	CMD	[FLDDB.(.CMKEY,,..TYPE)],<CAN NOT TYPE THAT>
  2936	004633'	550 01 0 02 000000 		HRRZ	T1,(T2)
  2937	004634'	254 00 0 01 000000 		JRST	(T1)
  2938
  2939	004635'				TYPEFI:	CMD	[FLDDB.(.CMNUM,,^D8)],<NOT A VALID FILE NUMBER>
  2940	004647'	331 00 0 00 000002 		SKIPL	T2
  2941	004650'	303 02 0 00 000366 		CAILE	T2,366
  2942	004651'	260 17 0 00 014444'		ERR	<NOT A VALID FILE NUMBER>
  2943	004652'	202 02 0 00 021044'		MOVEM	T2,FEFNBR
  2944
  2945	004653'	260 17 0 00 000623'		CONFIRM
  2946
  2947	004654'	336 00 0 00 021046'		SKIPN	FESETF
  2948	004655'	260 17 0 00 013262'		ERR	<FE-FILE SYSTEM NOT SETUP>
  2949
  2950	004656'	200 01 0 00 021044'		MOVE	T1,FEFNBR	;GET INDIRECT FILE NUMBER
  2951	004657'	221 01 0 00 000002 		IMULI	T1,2		;DOUBLE IT
  2952	004660'	271 01 0 00 400023 		ADDI	T1,FEDIR+IFL0	;ADD FEDIR START POSITION
  2953
  2954	004661'	336 00 0 00 000302'		SKIPN	MONTYP
  2955	004662'	254 00 0 00 004725'		JRST	TYPF10		;TOPS-10
  2956
  2957	004663'	554 01 0 01 000000 		HLRZ	T1,(T1)		;GET FE-DIR POINTER
  2958
  2959	004664'	336 00 0 00 000001 		SKIPN	T1
  2960	004665'	260 17 0 00 014565'		ERR	<INDIRECT FILE DOES NOT EXIST>
  2961
  2962	004666'	504 01 0 00 002523'		HRL	T1,FEJFN
  2963	004667'	200 02 0 00 014567'		MOVE	T2,[.FHSLF,,<IPAG_-^D9>]
  2964	004670'	200 03 0 00 014303'		MOVE	T3,[PM%RD]
  2965	004671'	104 00 0 00 000056 		PMAP			;GET INDIRECT FILE
  2966						ERJMP	[JSERR
  2967	004672'	320 16 0 00 014127'			 JRST	START]
  2968
  2969	004673'	037 01 0 00 000063'		PCRLF
  2970	004674'	201 06 0 00 021640'		MOVEI	T6,IPAG
  2971	004675'	200 03 0 06 000000 		MOVE	T3,(T6)
  2972	004676'	260 17 0 00 004702'		GO	FEITYP		;PRINT IT
  2973	004677'	344 06 0 00 004675'		AOJA	T6,.-2
  2974	004700'	037 01 0 00 000063'		PCRLF
  2975
  2976	004701'	263 17 0 00 000000 		RTN
SMFILE	DECSYSTEM 2020 DIAGNOSTICS FE-FILE PROGRAM, VER 0,3	MACRO %53(1020) 10:47 19-Feb-79 Page 79
SMFILE	MAC	19-Feb-79 10:46		COMMANDS -- WRITE                                                                  SEQ 0118

  2977
  2978	004702'	135 00 0 00 014570'	FEITYP:	LDB	0,[POINT 8,T3,35]
  2979	004703'	322 00 0 00 000016'		JUMPE	0,CPOPJ1
  2980	004704'	260 17 0 00 004717'		GO	FEIPNT
  2981
  2982	004705'	135 00 0 00 014571'		LDB	0,[POINT 8,T3,27]
  2983	004706'	322 00 0 00 000016'		JUMPE	0,CPOPJ1
  2984	004707'	260 17 0 00 004717'		GO	FEIPNT
  2985
  2986	004710'	135 00 0 00 014572'		LDB	0,[POINT 8,T3,19]
  2987	004711'	322 00 0 00 000016'		JUMPE	0,CPOPJ1
  2988	004712'	260 17 0 00 004717'		GO	FEIPNT
  2989
  2990	004713'	135 00 0 00 014573'		LDB	0,[POINT 8,T3,11]
  2991	004714'	322 00 0 00 000016'		JUMPE	0,CPOPJ1
  2992	004715'	260 17 0 00 004717'		GO	FEIPNT
  2993
  2994	004716'	263 17 0 00 000000 		RTN
  2995
  2996	004717'	302 00 0 00 000015 	FEIPNT:	CAIE	0,15		;CR ?
  2997	004720'	254 00 0 00 004723'		JRST	.+3		;NO
  2998	004721'	037 12 0 00 000001 		PNTCHF			;YES, PRINT CR/LF
  2999	004722'	201 00 0 00 000012 		MOVEI	0,12
  3000	004723'	037 12 0 00 000001 		PNTCHF
  3001	004724'	263 17 0 00 000000 		RTN
SMFILE	DECSYSTEM 2020 DIAGNOSTICS FE-FILE PROGRAM, VER 0,3	MACRO %53(1020) 10:47 19-Feb-79 Page 80
SMFILE	MAC	19-Feb-79 10:46		COMMANDS -- WRITE                                                                  SEQ 0119

  3002					;*TYPF10, TOPS-10 TYPE CONTENTS OF INDIRECT FILE
  3003
  3004	004725'	336 00 0 01 000000 	TYPF10:	SKIPN	(T1)
  3005	004726'	260 17 0 00 014565'		ERR	<INDIRECT FILE DOES NOT EXIST>
  3006
  3007	004727'	400 01 0 00 000000 		SETZ	T1,		;COOK UP INPUT FILE NAME
  3008	004730'	135 00 0 00 014504'		LDB	[POINT 3,FEFNBR,29]
  3009	004731'	137 00 0 00 014505'		DPB	[POINT 3,T1,23]
  3010	004732'	135 00 0 00 014506'		LDB	[POINT 3,FEFNBR,32]
  3011	004733'	137 00 0 00 014507'		DPB	[POINT 3,T1,29]
  3012	004734'	135 00 0 00 014510'		LDB	[POINT 3,FEFNBR,35]
  3013	004735'	137 00 0 00 014511'		DPB	[POINT 3,T1,35]
  3014	004736'	270 01 0 00 014512'		ADD	T1,[SIXBIT/FEF000/]
  3015	004737'	202 01 0 00 016410'		MOVEM	T1,GTJFIL
  3016
  3017	004740'	205 01 0 00 465100 		MOVSI	T1,(SIXBIT/FI/)
  3018	004741'	202 01 0 00 016411'		MOVEM	T1,GTJEXT
  3019
  3020	004742'	200 01 0 00 021036'		MOVE	T1,DIRDIR
  3021	004743'	202 01 0 00 016407'		MOVEM	T1,GTJDIR
  3022
  3023	004744'	200 01 0 00 005405'		MOVE	T1,DIRDEV
  3024	004745'	202 01 0 00 016406'		MOVEM	T1,GTJDEV
  3025
  3026	004746'	260 17 0 00 007027'		GO	OPNTEN		;FIND INPUT FILE
  3027	004747'	260 17 0 00 014565'		ERR	<INDIRECT FILE DOES NOT EXIST>
  3028
  3029	004750'	037 01 0 00 000063'		PCRLF
  3030	004751'	260 17 0 00 006764'	TF10LP:	GO	GET10		;GET INPUT WORD
  3031	004752'	335 00 0 00 021040'		SKIPGE	EOFSW
  3032	004753'	254 00 0 00 004756'		JRST	.+3		;END-OF-FILE
  3033
  3034	004754'	260 17 0 00 004702'		GO	FEITYP		;PRINT IT
  3035	004755'	254 00 0 00 004751'		JRST	TF10LP
  3036
  3037	004756'	037 01 0 00 000063'		PCRLF
  3038	004757'	254 00 0 00 007015'		JRST	R10EOF
SMFILE	DECSYSTEM 2020 DIAGNOSTICS FE-FILE PROGRAM, VER 0,3	MACRO %53(1020) 10:47 19-Feb-79 Page 81
SMFILE	MAC	19-Feb-79 10:46		COMMANDS -- WRITE                                                                  SEQ 0120

  3039					;*FETELL, REPORT INDIRECT FILES IN USE & FREE SPACE
  3040
  3041	004760'	037 04 0 00 014574'	FETELL:	PMSGF	<^THE FOLLOWING FRONT-END INDIRECT FILES EXIST:^>
  3042
  3043	004761'	201 06 0 00 400023 		MOVEI	T6,FEDIR+IFL0	;GET START ADDRESS
  3044	004762'	400 07 0 00 000000 		SETZ	T7,		;ZERO FORMAT COUNTER
  3045
  3046	004763'	200 00 0 06 000000 	FETEL0:	MOVE	(T6)		;GET ENTRY
  3047	004764'	322 00 0 00 004777'		JUMPE	FETEL1		;NOT USED
  3048
  3049	004765'	200 00 0 00 000006 		MOVE T6
  3050	004766'	275 00 0 00 400023 		SUBI	FEDIR+IFL0
  3051	004767'	231 00 0 00 000002 		IDIVI	2
  3052	004770'	037 17 0 00 000003 		PNTOCF			;PRINT IT
  3053
  3054	004771'	350 00 0 00 000007 		AOS	T7
  3055	004772'	602 07 0 00 000003 		TRNE	T7,3
  3056	004773'	254 00 0 00 004776'		JRST	.+3
  3057	004774'	037 01 0 00 000063'		PCRLF
  3058	004775'	254 00 0 00 004777'		JRST	.+2
  3059	004776'	037 01 0 00 000011 		PTAB
  3060
  3061	004777'	271 06 0 00 000002 	FETEL1:	ADDI	T6,2		;STEP TO NEXT ENTRY
  3062	005000'	302 06 0 00 401001 		CAIE	T6,FEDIR+1001	;DONE ?
  3063	005001'	254 00 0 00 004763'		JRST	FETEL0		;NOT YET
  3064
  3065	005002'	336 00 0 00 000302'		SKIPN	MONTYP
  3066	005003'	254 00 0 00 005007'		JRST	FETEL2
  3067
  3068	005004'	037 04 0 00 013264'		PMSGF	<^FRONT-END FREE PAGES = >
  3069	005005'	550 00 0 00 400001 		HRRZ	FEDIR+FSL
  3070	005006'	037 15 0 00 000001 		PNTDCF
  3071
  3072	005007'	037 01 0 00 000063'	FETEL2:	PCRLF
  3073	005010'	037 01 0 00 000063'		PCRLF
  3074	005011'	263 17 0 00 000000 		RTN
SMFILE	DECSYSTEM 2020 DIAGNOSTICS FE-FILE PROGRAM, VER 0,3	MACRO %53(1020) 10:47 19-Feb-79 Page 82
SMFILE	MAC	19-Feb-79 10:46		COMMANDS -- WRITE                                                                  SEQ 0121

  3075
  3076					;ADDR DIVIDED BY SECTOR/CYL = CYL
  3077					;REM DIVIDED BY SECTOR/TRACK = TRACK
  3078					;REM = SECTOR
  3079
  3080	005012'	200 01 0 00 000007 	S8080P:	MOVE	T1,T7
  3081	005013'	221 01 0 00 000004 		IMULI	T1,4		;CHANGE PAGES TO SECTORS
  3082	005014'	332 00 0 00 000302'		SKIPE	MONTYP
  3083	005015'	270 01 0 00 436301 		ADD	T1,HOMPAG+200+101
  3084	005016'	336 00 0 00 000302'		SKIPN	MONTYP
  3085	005017'	270 01 0 00 005542'		ADD	T1,HOMBUF+101
  3086	005020'	404 01 0 00 014604'	T8080P:	AND	T1,[37,,-1]	;MASK ADDRESS BITS ONLY
  3087	005021'	332 00 0 00 021064'		SKIPE	RM03F
  3088	005022'	260 17 0 00 005210'		GO	TRM03P		;RM03 DISK
  3089	005023'	231 01 0 00 000574 		IDIVI	T1,<^D20*^D19>	;FIND CYL
  3090
  3091	005024'	261 17 0 00 000001 		PUT	T1
  3092	005025'	200 01 0 00 000002 		MOVE	T1,T2
  3093	005026'	336 00 0 00 021064'		SKIPN	RM03F
  3094	005027'	231 01 0 00 000024 		IDIVI	T1,^D20		;FIND SECTOR
  3095	005030'	332 00 0 00 021064'		SKIPE	RM03F
  3096	005031'	231 01 0 00 000036 		IDIVI	T1,^D30
  3097	005032'	242 01 0 00 000010 		LSH	T1,8
  3098	005033'	434 01 0 00 000002 		IOR	T1,T2
  3099	005034'	262 17 0 00 000002 		GETIT	T2
  3100
  3101	005035'	242 02 0 00 000006 		LSH	T2,6
  3102	005036'	504 01 0 00 000002 		HRL	T1,T2
  3103	005037'	202 01 0 06 000000 		MOVEM	T1,(T6)		;STORE 8080 POINTER
  3104	005040'	263 17 0 00 000000 		RTN
  3105
  3106	005041'	200 01 0 00 000007 	SBOOTP:	MOVE	T1,T7
  3107	005042'	221 01 0 00 000004 		IMULI	T1,4		;CHANGE PAGES TO SECTORS
  3108	005043'	270 01 0 00 436301 		ADD	T1,HOMPAG+200+101
  3109	005044'	404 01 0 00 014604'	TBOOTP:	AND	T1,[37,,-1]	;MASK ADDRESS BITS ONLY
  3110	005045'	332 00 0 00 021064'		SKIPE	RM03F
  3111	005046'	260 17 0 00 005210'		GO	TRM03P		;RM03 DISK
  3112	005047'	231 01 0 00 000574 		IDIVI	T1,<^D20*^D19>	;FIND CYL
  3113
  3114	005050'	261 17 0 00 000001 		PUT	T1
  3115	005051'	200 01 0 00 000002 		MOVE	T1,T2
  3116	005052'	336 00 0 00 021064'		SKIPN	RM03F
  3117	005053'	231 01 0 00 000024 		IDIVI	T1,^D20		;FIND SECTOR
  3118	005054'	332 00 0 00 021064'		SKIPE	RM03F
  3119	005055'	231 01 0 00 000036 		IDIVI	T1,^D30
  3120	005056'	242 01 0 00 000010 		LSH	T1,8
  3121	005057'	434 01 0 00 000002 		IOR	T1,T2
  3122	005060'	262 17 0 00 000002 		GETIT	T2
  3123
  3124	005061'	504 01 0 00 000002 		HRL	T1,T2
  3125	005062'	202 01 0 06 000000 		MOVEM	T1,(T6)		;STORE 8080 POINTER
  3126	005063'	263 17 0 00 000000 		RTN
SMFILE	DECSYSTEM 2020 DIAGNOSTICS FE-FILE PROGRAM, VER 0,3	MACRO %53(1020) 10:47 19-Feb-79 Page 83
SMFILE	MAC	19-Feb-79 10:46		COMMANDS -- WRITE                                                                  SEQ 0122

  3127					;*WRTDONE - WRITE FE-DIR FILE BLOCK
  3128
  3129	005064'	260 17 0 00 000623'	WRTDONE:CONFIRM
  3130	005065'	336 00 0 00 021046'		SKIPN	FESETF		;FE-DIR  IN CODE ?
  3131	005066'	260 17 0 00 013262'		 ERR	<FE-FILE SYSTEM NOT SETUP>
  3132
  3133	005067'	201 05 0 00 000400 		MOVEI	T5,^D512/2
  3134	005070'	336 00 0 00 000302'		SKIPN	MONTYP
  3135	005071'	201 05 0 00 000011 		MOVEI	T5,^D18/2
  3136	005072'	201 04 0 00 400000 		MOVEI	T4,FEDIR
  3137
  3138	005073'	200 06 0 00 000004 		MOVE	T6,T4		;POSITION TO T6
  3139	005074'	554 07 0 04 000001 		HLRZ	T7,1(T4)	;PAGE # TO T7
  3140	005075'	322 07 0 00 005077'		JUMPE	T7,.+2		;POSITION NOT USED
  3141	005076'	260 17 0 00 005012'		GO	S8080P		;SET 8080 DISK POINTER
  3142	005077'	271 04 0 00 000002 		ADDI	T4,2
  3143	005100'	367 05 0 00 005073'		SOJG	T5,.-5
  3144
  3145	005101'	336 00 0 00 000302'		SKIPN	MONTYP
  3146	005102'	254 00 0 00 005145'		JRST	WRTD10		;TOPS-10
  3147
  3148	005103'	474 01 0 00 000000 		SETO	T1,
  3149	005104'	200 02 0 00 014131'		MOVE	T2,[.FHSLF,,<FEDIR_-^D9>]
  3150	005105'	400 03 0 00 000000 		SETZ	T3,
  3151	005106'	104 00 0 00 000056 		PMAP			;UNMAP FE-DIR PAGE
  3152						 ERJMP	[JSERR
  3153	005107'	320 16 0 00 014127'			 JRST	START]
  3154
  3155	005110'	200 01 0 00 002523'		MOVE	T1,FEJFN
  3156	005111'	104 00 0 00 000022 		CLOSF
  3157	005112'	260 17 0 00 014613'		 ERR	<CAN NOT CLOSE BOOTSTRAP.BIN>
  3158
  3159	005113'	201 01 0 00 000000 		MOVEI	T1,0		;UPDATE HOME BLOCKS
  3160	005114'	260 17 0 00 005166'		GO	REDHOM
  3161	005115'	263 17 0 00 000000 		  RET
  3162
  3163	005116'	260 17 0 00 005141'		GO	SHOMEP		;COMPUTE 8080 POINTER
  3164
  3165	005117'	200 01 0 00 021030'		MOVE	T1,BTADDR#	;SAME AS ON DISK ?
  3166	005120'	316 01 0 00 436303 		CAMN	T1,HOMPAG+200+103
  3167	005121'	263 17 0 00 000000 		RTN			;YES, LEAVE HOME BLOCKS ALONE THEN
SMFILE	DECSYSTEM 2020 DIAGNOSTICS FE-FILE PROGRAM, VER 0,3	MACRO %53(1020) 10:47 19-Feb-79 Page 84
SMFILE	MAC	19-Feb-79 10:46		COMMANDS -- WRITE                                                                  SEQ 0123

  3168
  3169	005122'	200 01 0 00 021030'		MOVE	T1,BTADDR
  3170	005123'	202 01 0 00 436303 		MOVEM	T1,HOMPAG+200+103
  3171	005124'	201 01 0 00 000000 		MOVEI	T1,0
  3172	005125'	260 17 0 00 005165'		GO	WRTHOM		;NO, UPDATE HOME BLOCKS
  3173	005126'	263 17 0 00 000000 		  RET
  3174
  3175	005127'	201 01 0 00 000010 		MOVEI	T1,10
  3176	005130'	260 17 0 00 005166'		GO	REDHOM
  3177	005131'	263 17 0 00 000000 		  RET
  3178
  3179	005132'	200 01 0 00 021030'		MOVE	T1,BTADDR
  3180	005133'	202 01 0 00 436503 		MOVEM	T1,HOMPAG+400+103
  3181	005134'	201 01 0 00 000010 		MOVEI	T1,10
  3182	005135'	260 17 0 00 005165'		GO	WRTHOM
  3183	005136'	263 17 0 00 000000 		  RET
  3184
  3185	005137'				HOMSET:	PNTMSF	[ASCIZ/
  3186					[HOME BLOCKS SET]
  3187	005137'	037 01 0 00 014615'	/]
  3188	005140'	263 17 0 00 000000 		RET
  3189
  3190	005141'	201 06 0 00 021030'	SHOMEP:	MOVEI	T6,BTADDR
  3191	005142'	400 07 0 00 000000 		SETZ	T7,
  3192	005143'	260 17 0 00 005012'		GO	S8080P
  3193	005144'	263 17 0 00 000000 		RTN
  3194
  3195	005145'	077 01 0 00 006735'	WRTD10:	ENTER	DAT,ODAT10	;SET FOR OUTPUT
  3196	005146'	260 17 0 00 014627'		ERR	<KS10FE.BIN ENTER ERROR>
  3197
  3198	005147'	075 01 0 00 000001 		USETO	DAT,1
  3199
  3200	005150'	201 02 0 00 000034 		MOVEI	T2,^D28
  3201	005151'	200 03 0 00 014631'		MOVE	T3,[FEDIR,,IPAG]
  3202	005152'	200 01 0 00 000003 	WRTD11:	MOVE	T1,T3
  3203	005153'	251 01 0 00 022637'		BLT	T1,IPAG+777
  3204	005154'	205 01 0 00 001000 		MOVSI	T1,^D512
  3205	005155'	270 03 0 00 000001 		ADD	T3,T1
  3206
  3207						OUT	DAT,[IOWD ^D512,IPAG
  3208	005156'	057 01 0 00 014366'			     0]
  3209	005157'	334 00 0 00 000000 		SKIPA
  3210	005160'	260 17 0 00 014637'		ERR	<KS10FE.BIN OUTPUT ERROR>
  3211	005161'	367 02 0 00 005152'		SOJG	T2,WRTD11
  3212
  3213	005162'	070 01 0 00 000000 		CLOSE	DAT,
  3214	005163'	071 01 0 00 000000 		RELEAS	DAT,
  3215	005164'	263 17 0 00 000000 		RTN
SMFILE	DECSYSTEM 2020 DIAGNOSTICS FE-FILE PROGRAM, VER 0,3	MACRO %53(1020) 10:47 19-Feb-79 Page 85
SMFILE	MAC	19-Feb-79 10:46		COMMANDS -- WRITE                                                                  SEQ 0124

  3216					;*SUBROUTINE TO READ AND WRITE HOME BLOCKS
  3217					;*CALL WITH:
  3218					;*	T1/ DISK ADDRESS
  3219					;*	STRDES/ DEVICE DESIGNATOR OF STRUCTURE
  3220					;*	GO	REDHOM/WRTHOM
  3221					;*	  ERROR
  3222					;*	OK
  3223
  3224	005165'	334 02 0 00 014641'	WRTHOM:	SKIPA	T2,[DOP%WR+1000]
  3225	005166'	201 02 0 00 001000 	REDHOM:	MOVEI	T2,1000
  3226
  3227	005167'	332 00 0 00 016567'		SKIPE	DEBUGF
  3228	005170'	254 00 0 00 000016'		JRST	CPOPJ1		;DON'T DO HOME IF DEBUG
  3229
  3230	005171'	201 03 0 00 436000 		MOVEI	T3,HOMPAG
  3231	005172'	200 04 0 00 021072'		MOVE	T4,STRDES
  3232					;*	TXO	T1,<.DOPSR>B1!DOP%SN ;MONSYM IS BAD
  3233	005173'	661 01 0 00 577600 		TLO	T1,577600
  3234	005174'	104 00 0 00 000242 		DSKOP
  3235	005175'	320 16 0 00 005200'		ERJMP	BADHOM
  3236	005176'	322 01 0 00 000000*		JUMPE	T1,RSKP
  3237	005177'	260 17 0 00 014650'		ERR	ERROR UPDATING HOME BLOCKS
  3238
  3239	005200'	201 01 0 00 400000 	BADHOM:	MOVEI	T1,.FHSLF
  3240	005201'	104 00 0 00 000012 		GETER
  3241	005202'	320 16 0 00 014657'		ERMSG	<BADHOM: GETER FAILED>
  3242	005203'	621 02 0 00 777777 		TLZ	T2,-1
  3243	005204'	302 02 0 00 600614 		CAIE	T2,WHELX1
  3244	005205'	260 17 0 00 014650'		ERR	ERROR UPDATING HOME BLOCKS
  3245						PNTMSF	[ASCIZ/
  3246					%HOME BLOCKS NOT UPDATED -- MUST BE WHEEL OR OPERATOR
  3247	005206'	037 01 0 00 014662'	/]
  3248	005207'	263 17 0 00 000000 		RET
  3249
  3250	005210'	332 00 0 00 000302'	TRM03P:	SKIPE	MONTYP		;TOPS-20
  3251	005211'	231 01 0 00 000224 		IDIVI	T1,<^D30*^D5>-2
  3252	005212'	336 00 0 00 000302'		SKIPN	MONTYP		;TOPS-10
  3253	005213'	231 01 0 00 000226 		IDIVI	T1,<^D30*^D5>
  3254	005214'	254 00 0 00 000016'		JRST	CPOPJ1
SMFILE	DECSYSTEM 2020 DIAGNOSTICS FE-FILE PROGRAM, VER 0,3	MACRO %53(1020) 10:47 19-Feb-79 Page 86
SMFILE	MAC	19-Feb-79 10:46		COMMANDS -- READ                                                                   SEQ 0125

  3255					SUBTTL	COMMANDS -- READ
  3256
  3257	005215'	476 00 0 00 021027'	RDBC1:	SETOM	BC1FLG
  3258	005216'	254 00 0 00 005220'		JRST	READ+1
  3259	005217'	402 00 0 00 021027'	READ:	SETZM	BC1FLG
  3260	005220'					NOISE	<MICROCODE FROM FILE>
  3261	005232'	561 01 0 00 014713'		HRROI	T1,[ASCIZ "KS10"]
  3262	005233'	332 00 0 00 021027'		SKIPE	BC1FLG
  3263	005234'	561 01 0 00 014714'		HRROI	T1,[ASCIZ "KSBC1"]
  3264	005235'	202 01 0 00 016410'		MOVEM	T1,GTJFIL
  3265	005236'	561 01 0 00 014716'		HRROI	T1,[ASCIZ "ULD"]	;MAKE THIS "RAM" FOR PRODUCTION
  3266	005237'	202 01 0 00 016411'		MOVEM	T1,GTJEXT
  3267	005240'	402 00 0 00 016406'		SETZM	GTJDEV
  3268	005241'	402 00 0 00 016407'		SETZM	GTJDIR
  3269	005242'	205 01 0 00 100000 		MOVSI	T1,(GJ%OLD)
  3270	005243'	202 01 0 00 016404'		MOVEM	T1,GTJFLG
  3271	005244'					CMD	[FLDDB.(.CMFIL)]
  3272	005255'	516 02 0 00 021162'		HRLZM	T2,UCFILE
  3273	005256'	260 17 0 00 000623'		CONFIRM
  3274	005257'	336 00 0 00 000302'		SKIPN	MONTYP
  3275	005260'	254 00 0 00 005336'		JRST	READ10
  3276
  3277	005261'	554 01 0 00 021162'		HLRZ	T1,UCFILE
  3278	005262'	201 02 0 00 200000 		MOVEI	T2,OF%RD
  3279	005263'	104 00 0 00 000021 		OPENF
  3280	005264'	260 17 0 00 014732'		ERR	<CAN NOT OPEN MICROCODE FILE>
  3281
  3282	005265'	402 00 0 00 021274'		SETZM	STBUF
  3283	005266'	561 01 0 00 021274'		HRROI	T1,STBUF
  3284	005267'	554 02 0 00 021162'		HLRZ	T2,UCFILE
  3285	005270'	205 03 0 00 000200 		MOVSI	T3,200
  3286	005271'	104 00 0 00 000030 		JFNS			;GET FILE ".EXT" STRING
  3287	005272'	200 00 0 00 021274'		MOVE	STBUF
  3288	005273'	312 00 0 00 014734'		CAME	[ASCIZ/RAM/]
  3289	005274'	254 00 0 00 007626'		JRST	RDULD		;OLD STYLE ".ULD" MICROCODE
  3290
  3291	005275'	554 01 0 00 021162'		HLRZ	T1,UCFILE
  3292	005276'	200 02 0 00 014104'		MOVE	T2,[1,,.FBBYV]
  3293	005277'	201 03 0 00 000004 		MOVEI	T3,T4
  3294
  3295	005300'	104 00 0 00 000063 		GTFDB			;GET FILE PAGE COUNT
  3296
  3297	005301'	405 04 0 00 777777 		ANDI	T4,-1
  3298	005302'	302 04 0 00 000014 		CAIE	T4,^D12
  3299	005303'	254 00 0 00 005331'		 JRST	READF		;WRONG LENGTH
SMFILE	DECSYSTEM 2020 DIAGNOSTICS FE-FILE PROGRAM, VER 0,3	MACRO %53(1020) 10:47 19-Feb-79 Page 87
SMFILE	MAC	19-Feb-79 10:46		COMMANDS -- READ                                                                   SEQ 0126

  3300
  3301	005304'	200 01 0 00 021162'		MOVE	T1,UCFILE
  3302	005305'	336 00 0 00 021027'		SKIPN	BC1FLG
  3303	005306'	200 02 0 00 014735'		MOVE	T2,[.FHSLF,,<CRAM_-^D9>]
  3304	005307'	332 00 0 00 021027'		SKIPE	BC1FLG
  3305	005310'	200 02 0 00 014736'		MOVE	T2,[.FHSLF,,<CRMBC1_-^D9>]
  3306	005311'	200 03 0 00 014737'		MOVE	T3,[PM%CNT+PM%RD+PM%WR+PM%PLD+PM%CPY+^D12]
  3307
  3308	005312'	104 00 0 00 000056 		PMAP			;READ CRAM INTO MEMORY
  3309						ERJMP	[JSERR
  3310	005313'	320 16 0 00 014127'			 JRST	START]
  3311
  3312	005314'	336 00 0 00 021027'		SKIPN	BC1FLG
  3313	005315'	201 01 0 00 401000 		MOVEI	T1,CRAM
  3314	005316'	332 00 0 00 021027'		SKIPE	BC1FLG
  3315	005317'	201 01 0 00 417000 		MOVEI	T1,CRMBC1
  3316	005320'	201 02 0 00 000014 		MOVEI	T2,^D12
  3317	005321'	416 00 0 01 000000 		SETMM	(T1)		;TOUCH EACH CRAM PAGE
  3318	005322'	271 01 0 00 001000 		ADDI	T1,1000		; TO MAKE IT PRIVATE
  3319	005323'	367 02 0 00 005321'		SOJG	T2,.-2
  3320
  3321	005324'	554 01 0 00 021162'		HLRZ	T1,UCFILE
  3322	005325'	104 00 0 00 000022 		CLOSF			;CLOSE OUT CRAM FILE
  3323	005326'	260 17 0 00 014746'		 ERR	<CAN NOT CLOSE MICROCODE FILE>
  3324
  3325	005327'	476 00 0 00 016572'		SETOM	RDFLAG
  3326	005330'	263 17 0 00 000000 		RTN
  3327
  3328	005331'	554 01 0 00 021162'	READF:	HLRZ	T1,UCFILE
  3329	005332'	104 00 0 00 000022 		CLOSF			;CLOSE OUT BAD FILE
  3330	005333'	260 17 0 00 014746'		 ERR	<CAN NOT CLOSE MICROCODE FILE>
  3331	005334'	260 17 0 00 014756'		 ERR	<MICROCODE FILE WRONG LENGTH>
  3332	005335'	263 17 0 00 000000 		RTN
SMFILE	DECSYSTEM 2020 DIAGNOSTICS FE-FILE PROGRAM, VER 0,3	MACRO %53(1020) 10:47 19-Feb-79 Page 88
SMFILE	MAC	19-Feb-79 10:46		COMMANDS -- READ                                                                   SEQ 0127

  3333					;*TOPS-10 MICROCODE READ PROCESS
  3334
  3335	005336'	260 17 0 00 007027'	READ10:	GO	OPNTEN		;OPEN INPUT FILE
  3336	005337'	260 17 0 00 014311'		ERR	<FILE NOT FOUND>
  3337
  3338	005340'	200 01 0 00 006667'		MOVE	T1,LOOK10+.RBVER ;USE INPUT VERSION AS OUTPUT VERSION
  3339	005341'	202 01 0 00 006755'		MOVEM	T1,MC.VER
  3340
  3341	005342'	135 01 0 00 014313'		LDB	T1,[POINT 11,LOOK10+.RBPRV,23]
  3342	005343'	202 01 0 00 006756'		MOVEM	T1,MC.TIME	;USE INPUT TIME AND DATE AS OUTPUT
  3343
  3344	005344'	135 01 0 00 014314'		LDB	T1,[POINT 3,LOOK10+.RBEXT,20]
  3345	005345'	137 01 0 00 014760'		DPB	T1,[POINT 3,MC.DATE,23]
  3346	005346'	135 01 0 00 014316'		LDB	T1,[POINT 12,LOOK10+.RBPRV,35]
  3347	005347'	137 01 0 00 014761'		DPB	T1,[POINT 12,MC.DATE,35]
  3348
  3349	005350'	200 01 0 00 006666'		MOVE	T1,LOOK10+.RBSIZ ;GET FILE SIZE IN WORDS
  3350
  3351	005351'	200 00 0 00 016411'		MOVE	0,GTJEXT
  3352	005352'	312 00 0 00 014762'		CAME	0,[SIXBIT/RAM/]
  3353	005353'	254 00 0 00 007626'		JRST	RDULD
  3354
  3355	005354'	302 01 0 00 014000 		CAIE	T1,^D12*^D512
  3356	005355'	260 17 0 00 014763'		ERR	<FILE WRONG LENGTH>
  3357
  3358	005356'	336 00 0 00 021027'		SKIPN	BC1FLG
  3359	005357'	201 07 0 00 401000 		MOVEI	T7,CRAM		;SETUP CRAM STORAGE POINTER
  3360	005360'	332 00 0 00 021027'		SKIPE	BC1FLG
  3361	005361'	201 07 0 00 417000 		MOVEI	T7,CRMBC1
  3362
  3363	005362'	260 17 0 00 006764'	LOOP1:	GO	GET10		;GET WORD FROM FILE
  3364	005363'	335 00 0 00 021040'		SKIPGE	EOFSW
  3365	005364'	254 00 0 00 005367'		JRST	LOOP2
  3366	005365'	202 03 0 07 000000 		MOVEM	T3,(T7)		;STORE IT
  3367	005366'	344 07 0 00 005362'		AOJA	T7,LOOP1
  3368
  3369	005367'	476 00 0 00 016572'	LOOP2:	SETOM	RDFLAG
  3370	005370'	254 00 0 00 007015'		JRST	R10EOF		;DONE
SMFILE	DECSYSTEM 2020 DIAGNOSTICS FE-FILE PROGRAM, VER 0,3	MACRO %53(1020) 10:47 19-Feb-79 Page 89
SMFILE	MAC	19-Feb-79 10:46		TOPS-10 DISK ROUTINE DEFINITIONS                                                   SEQ 0128

  3371					SUBTTL	TOPS-10 DISK ROUTINE DEFINITIONS
  3372
  3373					;*I/O CHANNELS
  3374
  3375			000001		DAT=1	;GENERAL DATA CHANNEL
  3376			000002		RC=2	;READ CHANNEL
  3377			000003		WC=3	;WRITE CHANNEL
  3378			000004		DIR=4	;DIRECTORY CHANNEL
  3379			000005		HOM=5	;HOME BLOCK CHANNEL
  3380			000006		$CHN=6	;COMMAND FILE CHANNEL
  3381
  3382					;*SYMBOL DEFINITIONS
  3383
  3384			000020		BLKSIZ==20			;SIZE OF LOOKUP/ENTER BLOCKS
  3385
  3386					RADIX	10
  3387			000001		HMBK01==1+20*0+380*0		;HOME BLOCK #1
  3388									;1=SECTOR NUMBER
  3389									;0=TRACK NUMBER
  3390									;0=CYLINDER NUMBER
  3391			000012		HMBK10==10+20*0+380*0		;HOME BLOCK #10
  3392
  3393					RADIX	8
  3394			000001		.BFPTR=1
  3395			000002		.BFCTR=2
  3396			000015		.DCUPN=15
  3397			006703'		TO10IC==HEAD10+.BFCTR		;-10 INPUT RING BUF BYTE COUNT
  3398			006702'		TO10IP==HEAD10+.BFPTR		;-10 INPUT RING BUF BYTE PTR
  3399			006731'		TO10OC==HEDBLK+.BFCTR		;-10 OUTPUT RING BUF BYTE COUNT
  3400			006730'		TO10OP==HEDBLK+.BFPTR		;-10 OUTPUT RING BUF BYTE PTR
  3401			005440'		PHYDEV==DATDEV+.DCUPN		;PHY UNIT FOR DATA FILE(0-399)
  3402			005422'		DSKUPN==DIRDEV+.DCUPN		;PHY UNIT FOR FILE IN 406-409
  3403			006720'		E10ALC==ENTBLK+.RBALC		;# OF BLOCKS TO ALLOCATE
  3404			006726'		E10STS==ENTBLK+.RBSTS		;FILE STATUS WORD
  3405			006672'		E20ALC==LOOK10+.RBALC		;# OF BLOCKS TO ALLOCATE
  3406			006700'		E20STS==LOOK10+.RBSTS		;FILE STATUS WORD
  3407
  3408			200000		SU.SOT=200000			;SUSET. OUTPUT BIT
  3409			010000		CTYPF=10000			;SET IF ANY CHARS TYPED FOR A COMMAND
  3410			000014		.IOBIN=14
  3411			000017		.IODMP=17
  3412			040000		RP.NFS=1B21
  3413			020000		RP.ABC=1B22
  3414			000004		CL.DLL=4
  3415			000000		.DCUR4=0	;RP04
  3416			000001		.DCUR6=1	;RP06
  3417			000002		.DCUR3=2	;RM03
SMFILE	DECSYSTEM 2020 DIAGNOSTICS FE-FILE PROGRAM, VER 0,3	MACRO %53(1020) 10:47 19-Feb-79 Page 90
SMFILE	MAC	19-Feb-79 10:46		TOPS-10 DISK ROUTINE DEFINITIONS                                                   SEQ 0129

  3418
  3419					;EXTENDED ENTER BLOCK
  3420
  3421			000000		.RBCNT=0	;0,,COUNT OF ENTRIES
  3422			000001		.RBPPN=1	;PROJ,PROG #
  3423			000002		.RBNAM=2	;SIXBIT FILE NAME
  3424			000003		.RBEXT=3	;SIXBIT EXT,,18-20 HI DATE,21-35 ACCESS DATE
  3425			000004		.RBPRV=4	;0-8 PROT,9-12 DATA MODE,13-23 CREATE TIME,24-35 CREATE DATE
  3426			000005		.RBSIZ=5
  3427			000006		.RBVER=6
  3428			000007		.RBSPL=7
  3429			000010		.RBEST=10	;0 - EST BLOCKS
  3430			000011		.RBALC=11	;# OF CONTIGUOUS BLOCKS
  3431			000012		.RBPOS=12
  3432			000013		.RBTF1=13
  3433			000014		.RBNCA=14
  3434			000015		.RBMTA=15
  3435			000016		.RBDEV=16
  3436			000017		.RBSTS=17	;FILE STATUS, UFD,,FILE - BIT 22 RP.ABC
  3437
  3438			000100		HOLD==^D64		;DEFAULT PAGE COUNT FOR KS-10 AREA
  3439			000000		PRIME==0		;RELATIVE BLOCK OF PRIME RIB FOR USETI
  3440			005461'		HOMCLP== HOMBUF+20	;ADDRESS POINTER FOR RETRIEVAL PTRS
  3441			005462'		HOMBPC== HOMBUF+21	;BLOCKS PER CLUSTER
  3442
  3443	005371'	777600	005440'		HOMLST:	IOWD ^D128,HOMBUF	;COMMAND LIST FOR HOME BLOCK
  3444	005372'	000000	000000			0
  3445	005373'	777600	006455'		DIRLST:	IOWD ^D128,DIRBUF	;COMMAND LIST FOR DIRECTORY BLOCK
  3446	005374'	000000	000000			0
  3447	005375'	777600	006255'		DATLST:	IOWD ^D128,DATBUF	;COMMAND LIST FOR DATA BLOCK
  3448	005376'	000000	000000			0
  3449	005377'	777600	005640'		H10LST:	IOWD ^D128,HOMB10	;COMMAND LIST FOR HOME BLK #10
  3450	005400'	000000	000000			0
SMFILE	DECSYSTEM 2020 DIAGNOSTICS FE-FILE PROGRAM, VER 0,3	MACRO %53(1020) 10:47 19-Feb-79 Page 91
SMFILE	MAC	19-Feb-79 10:46		TOPS-10 DISK ROUTINE DEFINITIONS                                                   SEQ 0130

  3451
  3452					;*ERROR INTERCEPT CONTROL BLOCK
  3453
  3454	005401'	000004	012471'		CCBLK:	4,,CCINT
  3455	005402'	000000	000002			0,,2
  3456	005403'					BLOCK	2
  3457
  3458	005405'				DIRDEV:	BLOCK	16	;DEVICE INFORMATION FOR DIR FILE
  3459
  3460	005423'				DATDEV:	BLOCK	16	;DEVICE INFORMATION FOR DATA FILE
  3461
  3462	005441'				HOMBUF:	BLOCK	200	;BUFFER CONTAINS HOME BLOCK # 1
  3463
  3464	005641'				HOMB10:	BLOCK	200	;BUFFER CONTAINS HOME BLOCK # 10
  3465
  3466	006041'				CMDCNT:	BLOCK	1	;COMMAND LINE COUNT
SMFILE	DECSYSTEM 2020 DIAGNOSTICS FE-FILE PROGRAM, VER 0,3	MACRO %53(1020) 10:47 19-Feb-79 Page 92
SMFILE	MAC	19-Feb-79 10:46		TOPS-10 DISK ROUTINE DEFINITIONS                                                   SEQ 0131

  3467
  3468	006042'				O.STR:			;START OF OUTPUT SPEC STORAGE
  3469	006042'				O.DEV:	BLOCK	1	;DEVICE
  3470	006043'				O.NAM1:	BLOCK	1	;NAME
  3471	006044'				O.EXT:	BLOCK	1	;EXT
  3472	006045'				O.PRT:	BLOCK	1	;PROTECTION
  3473	006046'				O.PPN:	BLOCK	1	;PROJ,PROG #
  3474	006047'				O.DATE:	BLOCK	1	;CREATION DATE
  3475	006050'				O.TIME:	BLOCK	1	;CREATION TIME
  3476	006051'				O.VER:	BLOCK	1	;VERSION NUMBER
  3477
  3478	006052'				I.STR:			;START OF INPUT SPEC STORAGE
  3479	006052'				I.DEV:	BLOCK	1	;DEVICE
  3480	006053'				I.NAM1:	BLOCK	1	;NAME
  3481	006054'				I.EXT:	BLOCK	1	;EXT
  3482	006055'				I.PPN:	BLOCK	1	;PROJ,PROG #
  3483
  3484	006056'				GETBUF:	BLOCK	^D128	;A DEDICATED BUFFER
  3485
  3486	006256'				DATBUF:	BLOCK	^D128	;BUFFER CONTAINING REGULAR DATA BLOCK
  3487			006455'		DATEND=.-1
  3488
  3489	006456'				DIRBUF:	BLOCK	^D128	;BUFFER CONTAINING DIRECTORY BLOCK
  3490			006655'		ENDBLK=.-1
  3491
  3492	006656'				OPEN10:	BLOCK	3	;-10 OPEN BLOCK
  3493	006661'				LOOK10:	BLOCK	BLKSIZ	;-10 LOOKUP BLOCK
  3494	006701'				HEAD10:	BLOCK	3	;-10 BUFFER HEADER
  3495	006704'				OPNBLK:	BLOCK	3	;-10 OUTPUT OPEN BLOCK
  3496	006707'				ENTBLK:	BLOCK	BLKSIZ	;-10 ENTER BLOCK
  3497	006727'				HEDBLK:	BLOCK	3	;-10 OUTPUT BUFFER HEADER
  3498	006732'				OPND10:	BLOCK	3	;-10 DAT OPEN BLOCK
  3499	006735'				ODAT10:	BLOCK	BLKSIZ	;-10 DAT LOOKUP BLOCK
  3500
  3501	006755'				MC.VER:	BLOCK	1	;MICROCODE VERSION
  3502	006756'				MC.TIME:BLOCK	1	;MICROCODE TIME
  3503	006757'				MC.DATE:BLOCK	1	;MICROCODE DATE
  3504	006760'				MT.VER:	BLOCK	1	;MAGTAPE VERSION
  3505	006761'				MT.TIME:BLOCK	1	;MAGTAPE TIME
  3506	006762'				MT.DATE:BLOCK	1	;MAGTAPE DATE
  3507	006763'				MT.SADR:BLOCK	1	;MAGTAPE START ADDRESS
SMFILE	DECSYSTEM 2020 DIAGNOSTICS FE-FILE PROGRAM, VER 0,3	MACRO %53(1020) 10:47 19-Feb-79 Page 93
SMFILE	MAC	19-Feb-79 10:46		TOPS-10 DISK FILE PROCESS                                                          SEQ 0132

  3508					SUBTTL	TOPS-10 DISK FILE PROCESS
  3509
  3510					;*GET A CHARACTER FROM -10 FILE
  3511
  3512	006764'	332 00 0 00 021040'	GET10:	SKIPE	EOFSW		;HAVE WE HIT EOF YET ?
  3513	006765'	254 00 0 00 006772'		JRST	GET10Z		;YES, CLEAR CHARACTER
  3514
  3515	006766'	375 00 0 00 006703'	CHKCNT:	SOSGE	TO10IC		;BYTE COUNT=0?
  3516	006767'	254 00 0 00 006774'		JRST	IN10		;YES
  3517
  3518	006770'	134 03 0 00 006702'		ILDB	T3,TO10IP	;GET BUFFER PTR
  3519	006771'	263 17 0 00 000000 		RTN			;RETURN, BUFFER FULL
  3520
  3521	006772'	400 03 0 00 000000 	GET10Z:	SETZ	T3,
  3522	006773'	263 17 0 00 000000 		RTN
  3523
  3524	006774'	056 02 0 00 000000 	IN10:	IN	RC,
  3525	006775'	254 00 0 00 006764'		JRST	GET10
  3526
  3527					;*END OF INPUT FILE
  3528
  3529	006776'	062 02 0 00 000003 	COMEND:	GETSTS	RC,C		;GET ERROR STATUS
  3530	006777'	602 03 0 00 740000 		TRNE	C,74B23		;SEE IF ANY ERRORS
  3531	007000'	260 17 0 00 014770'		ERR	<READ ERROR>
  3532
  3533	007001'	606 03 0 00 020000 		TRNN	C,1B22		;SEE IF END OF FILE
  3534	007002'	260 17 0 00 014776'		ERR	<SHOULD NEVER HAPPEN>
  3535
  3536	007003'	476 00 0 00 021040'		SETOM	EOFSW		;INDICATE EOF IS DETECTED
  3537	007004'	402 00 0 00 000003 		SETZM	T3		;ZERO THE CHARACTER
  3538	007005'	263 17 0 00 000000 		RTN			;RETURN
SMFILE	DECSYSTEM 2020 DIAGNOSTICS FE-FILE PROGRAM, VER 0,3	MACRO %53(1020) 10:47 19-Feb-79 Page 94
SMFILE	MAC	19-Feb-79 10:46		TOPS-10 DISK FILE PROCESS                                                          SEQ 0133

  3539					;*PUT A CHARACTER TO -10 FILE
  3540
  3541	007006'	377 00 0 00 006731'	PUT10:	SOSG	TO10OC		;DECREMENT BYTE COUNT
  3542	007007'	254 00 0 00 007012'		JRST	PUTBUF
  3543
  3544	007010'	136 03 0 00 006730'	PUTNXT:	IDPB	T3,TO10OP	;PUT WORD IN BUFFER
  3545	007011'	263 17 0 00 000000 		RTN
  3546
  3547	007012'	057 03 0 00 000000 	PUTBUF:	OUT	WC,		;EMPTY BUFFER
  3548	007013'	254 00 0 00 007010'		JRST	PUTNXT
  3549	007014'	260 17 0 00 014373'		ERR	<WRITE ERROR>
  3550
  3551					;*COMPLETE OUTPUT FILE
  3552
  3553	007015'	070 02 0 00 000000 	R10EOF:	CLOSE	RC,		;CLOSE READ CHANNEL
  3554	007016'	071 02 0 00 000000 		RELEAS	RC,
  3555	007017'	200 01 0 00 021053'		MOVE	T1,JBFFRC
  3556	007020'	202 01 0 00 000121 		MOVEM	T1,.JBFF	;RECLAIM BUF SPACE
  3557
  3558	007021'	263 17 0 00 000000 		RTN
  3559
  3560	007022'	070 03 0 00 000000 	W10EOF:	CLOSE	WC,		;CLOSE WRITE CHANNEL
  3561	007023'	071 03 0 00 000000 		RELEAS	WC,
  3562
  3563	007024'	263 17 0 00 000000 		RTN
SMFILE	DECSYSTEM 2020 DIAGNOSTICS FE-FILE PROGRAM, VER 0,3	MACRO %53(1020) 10:47 19-Feb-79 Page 95
SMFILE	MAC	19-Feb-79 10:46		TOPS-10 DISK FILE PROCESS                                                          SEQ 0134

  3564					;*OPEN DEVICE/LOOKUP ON FILE
  3565
  3566	007025'	476 00 0 00 021056'		SETOM	OPNTDMP
  3567	007026'	334 00 0 00 000000 		SKIPA
  3568	007027'	402 00 0 00 021056'	OPNTEN:	SETZM	OPNTDMP#
  3569	007030'	402 00 0 00 006701'		SETZM	HEAD10
  3570	007031'	402 00 0 00 006702'		SETZM	HEAD10+1
  3571	007032'	402 00 0 00 006703'		SETZM	HEAD10+2
  3572	007033'	201 01 0 00 006701'		MOVEI	T1,HEAD10	;SETUP BUFFER HEADER
  3573	007034'	202 01 0 00 006660'		MOVEM	T1,OPEN10+2
  3574	007035'	402 00 0 00 021040'		SETZM	EOFSW#
  3575
  3576	007036'	200 01 0 00 016406'		MOVE	T1,GTJDEV	;SETUP DEVICE
  3577	007037'	202 01 0 00 006657'		MOVEM	T1,OPEN10+1
  3578
  3579	007040'	201 01 0 00 000014 		MOVEI	T1,.IOBIN	;SET BINARY MODE
  3580	007041'	332 00 0 00 021056'		SKIPE	OPNTDMP
  3581	007042'	201 01 0 00 000017 		MOVEI	T1,.IODMP	;SET DUMP MODE
  3582	007043'	202 01 0 00 006656'		MOVEM	T1,OPEN10
  3583
  3584	007044'	050 02 0 00 006656'		OPEN	RC,OPEN10	;OPEN READ CHANNEL
  3585	007045'	260 17 0 00 015004'		ERR	<TOPS-10 OPEN ERROR>
  3586
  3587	007046'	200 01 0 00 000121 		MOVE	T1,.JBFF	;SAVE RING BUFFER ADDRESS
  3588	007047'	202 01 0 00 021053'		MOVEM	T1,JBFFRC#
  3589
  3590	007050'	336 00 0 00 021056'		SKIPN	OPNTDMP
  3591	007051'	064 02 0 00 000002 		INBUF	RC,2		;TWO BUFFERS
  3592
  3593	007052'	200 01 0 00 016410'		MOVE	T1,GTJFIL	;SETUP FILE NAME
  3594	007053'	202 01 0 00 006663'		MOVEM	T1,LOOK10+.RBNAM
  3595
  3596	007054'	200 01 0 00 016411'		MOVE	T1,GTJEXT	;SETUP FILE EXT
  3597	007055'	202 01 0 00 006664'		MOVEM	T1,LOOK10+.RBEXT
  3598
  3599	007056'	200 01 0 00 016407'		MOVE	T1,GTJDIR	;SETUP PPN
  3600	007057'	202 01 0 00 006662'		MOVEM	T1,LOOK10+.RBPPN
  3601
  3602	007060'	201 01 0 00 000017 		MOVEI	T1,17
  3603	007061'	202 01 0 00 006661'		MOVEM	T1,LOOK10
  3604
  3605	007062'	076 02 0 00 006661'		LOOKUP	RC,LOOK10	;FIND FILE
  3606	007063'	263 17 0 00 000000 		RTN			;NOT FOUND
  3607
  3608	007064'	254 00 0 00 000016'		JRST	CPOPJ1		;FOUND
SMFILE	DECSYSTEM 2020 DIAGNOSTICS FE-FILE PROGRAM, VER 0,3	MACRO %53(1020) 10:47 19-Feb-79 Page 96
SMFILE	MAC	19-Feb-79 10:46		TOPS-10 DISK FILE PROCESS                                                          SEQ 0135

  3609					;*OPEN DEVICE/LOOKUP ON DATA FILE
  3610
  3611	007065'	402 00 0 00 006732'	OPNDAT:	SETZM	OPND10
  3612	007066'	402 00 0 00 006733'		SETZM	OPND10+1
  3613	007067'	402 00 0 00 006734'		SETZM	OPND10+2
  3614	007070'	201 01 0 00 006732'		MOVEI	T1,OPND10	;SETUP BUFFER HEADER
  3615	007071'	202 01 0 00 006734'		MOVEM	T1,OPND10+2
  3616
  3617	007072'	200 01 0 00 016406'		MOVE	T1,GTJDEV	;SETUP DEVICE
  3618	007073'	202 01 0 00 006733'		MOVEM	T1,OPND10+1
  3619
  3620	007074'	201 01 0 00 000017 		MOVEI	T1,.IODMP	;SET DUMP MODE
  3621	007075'	202 01 0 00 006732'		MOVEM	T1,OPND10
  3622
  3623	007076'	050 01 0 00 006732'		OPEN	DAT,OPND10	;OPEN READ CHANNEL
  3624	007077'	260 17 0 00 015004'		ERR	<TOPS-10 OPEN ERROR>
  3625
  3626	007100'	200 01 0 00 016410'		MOVE	T1,GTJFIL	;SETUP FILE NAME
  3627	007101'	202 01 0 00 006737'		MOVEM	T1,ODAT10+.RBNAM
  3628
  3629	007102'	200 01 0 00 016411'		MOVE	T1,GTJEXT	;SETUP FILE EXT
  3630	007103'	202 01 0 00 006740'		MOVEM	T1,ODAT10+.RBEXT
  3631
  3632	007104'	200 01 0 00 016407'		MOVE	T1,GTJDIR	;SETUP PPN
  3633	007105'	202 01 0 00 006736'		MOVEM	T1,ODAT10+.RBPPN
  3634
  3635	007106'	201 01 0 00 000017 		MOVEI	T1,17
  3636	007107'	202 01 0 00 006735'		MOVEM	T1,ODAT10
  3637
  3638	007110'	076 01 0 00 006735'		LOOKUP	DAT,ODAT10	;FIND FILE
  3639	007111'	263 17 0 00 000000 		RTN			;NOT FOUND
  3640
  3641	007112'	254 00 0 00 000016'		JRST	CPOPJ1		;FOUND
SMFILE	DECSYSTEM 2020 DIAGNOSTICS FE-FILE PROGRAM, VER 0,3	MACRO %53(1020) 10:47 19-Feb-79 Page 97
SMFILE	MAC	19-Feb-79 10:46		TOPS-10 DISK FILE PROCESS                                                          SEQ 0136

  3642					;*OPEN DEVICE/ENTER ON FILE
  3643
  3644	007113'	402 00 0 00 006727'	OPNWRT:	SETZM	HEDBLK
  3645	007114'	402 00 0 00 006730'		SETZM	HEDBLK+1
  3646	007115'	402 00 0 00 006731'		SETZM	HEDBLK+2
  3647	007116'	205 01 0 00 006727'		MOVSI	T1,HEDBLK	;SETUP BUFFER HEADER
  3648	007117'	202 01 0 00 006706'		MOVEM	T1,OPNBLK+2
  3649
  3650	007120'	200 01 0 00 006042'		MOVE	T1,O.DEV	;SETUP DEVICE
  3651	007121'	336 00 0 00 000001 		SKIPN	T1
  3652	007122'	205 01 0 00 446353 		MOVSI	T1,(SIXBIT/DSK/)
  3653	007123'	202 01 0 00 006705'		MOVEM	T1,OPNBLK+1
  3654	007124'	201 01 0 00 000017 		MOVEI	T1,.IODMP	;SET DUMP MODE
  3655	007125'	202 01 0 00 006704'		MOVEM	T1,OPNBLK
  3656	007126'	050 03 0 00 006704'		OPEN	WC,OPNBLK	;OPEN WRITE CHANNEL
  3657	007127'	260 17 0 00 015004'		ERR	<TOPS-10 OPEN ERROR>
  3658
  3659	007130'	402 00 0 00 006707'		SETZM	ENTBLK
  3660	007131'	200 01 0 00 015006'		MOVE	T1,[ENTBLK,,ENTBLK+1]
  3661	007132'	251 01 0 00 006726'		BLT	T1,ENTBLK+17
  3662
  3663	007133'	200 01 0 00 006043'		MOVE	T1,O.NAM1	;SETUP FILE NAME
  3664	007134'	202 01 0 00 006711'		MOVEM	T1,ENTBLK+.RBNAM
  3665
  3666	007135'	200 01 0 00 006044'		MOVE	T1,O.EXT	;SETUP FILE EXT
  3667	007136'	202 01 0 00 006712'		MOVEM	T1,ENTBLK+.RBEXT
  3668
  3669	007137'	200 01 0 00 006046'		MOVE	T1,O.PPN	;SETUP PPN
  3670	007140'	202 01 0 00 006710'		MOVEM	T1,ENTBLK+.RBPPN
  3671
  3672	007141'	200 01 0 00 006045'		MOVE	T1,O.PRT	;SETUP PROTECTION
  3673	007142'	137 01 0 00 015007'		DPB	T1,[POINT 9,ENTBLK+.RBPRV,8]
  3674
  3675	007143'	135 01 0 00 014315'		LDB	T1,[POINT 3,O.DATE,23] ;SETUP TIME AND DATE
  3676	007144'	137 01 0 00 015010'		DPB	T1,[POINT 3,ENTBLK+.RBEXT,20]
  3677	007145'	135 01 0 00 014317'		LDB	T1,[POINT 12,O.DATE,35]
  3678	007146'	137 01 0 00 015011'		DPB	T1,[POINT 12,ENTBLK+.RBPRV,35]
  3679	007147'	200 01 0 00 006050'		MOVE	T1,O.TIME
  3680	007150'	137 01 0 00 015012'		DPB	T1,[POINT 11,ENTBLK+.RBPRV,23]
  3681
  3682	007151'	200 01 0 00 006051'		MOVE	T1,O.VER	;SETUP VERSION
  3683	007152'	202 01 0 00 006715'		MOVEM	T1,ENTBLK+.RBVER
  3684
  3685	007153'	201 01 0 00 000017 		MOVEI	T1,17
  3686	007154'	202 01 0 00 006707'		MOVEM	T1,ENTBLK
  3687	007155'	077 03 0 00 006707'		ENTER	WC,ENTBLK	;ENTER FILE
  3688	007156'	263 17 0 00 000000 		RTN
  3689	007157'	254 00 0 00 000016'		JRST	CPOPJ1
SMFILE	DECSYSTEM 2020 DIAGNOSTICS FE-FILE PROGRAM, VER 0,3	MACRO %53(1020) 10:47 19-Feb-79 Page 98
SMFILE	MAC	19-Feb-79 10:46		TOPS-10 DISK FILE PROCESS                                                          SEQ 0137

  3690					;*ENTER FILE ON CHANNEL WC
  3691
  3692	007160'	402 00 0 00 006727'	ETER10:	SETZM	HEDBLK
  3693	007161'	402 00 0 00 006730'		SETZM	HEDBLK+1
  3694	007162'	402 00 0 00 006731'		SETZM	HEDBLK+2
  3695	007163'	205 01 0 00 006727'		MOVSI	T1,HEDBLK	;SETUP BUFFER HEADER
  3696	007164'	202 01 0 00 006706'		MOVEM	T1,OPNBLK+2
  3697	007165'	200 01 0 00 006042'		MOVE	T1,O.DEV	;SETUP DEVICE
  3698	007166'	336 00 0 00 000001 		SKIPN	T1
  3699	007167'	205 01 0 00 446353 		MOVSI	T1,(SIXBIT/DSK/)
  3700	007170'	202 01 0 00 006705'		MOVEM	T1,OPNBLK+1
  3701	007171'	201 01 0 00 000017 		MOVEI	T1,.IODMP	;DUMP MODE
  3702	007172'	202 01 0 00 006704'		MOVEM	T1,OPNBLK
  3703
  3704	007173'	050 03 0 00 006704'		OPEN	WC,OPNBLK	;OPEN WRITE CHANNEL
  3705	007174'	260 17 0 00 015004'		ERR	<TOPS-10 OPEN ERROR>
  3706
  3707	007175'	402 00 0 00 006707'		SETZM	ENTBLK
  3708	007176'	200 01 0 00 015006'		MOVE	T1,[ENTBLK,,ENTBLK+1]
  3709	007177'	251 01 0 00 006726'		BLT	T1,ENTBLK+17
  3710
  3711	007200'	200 01 0 00 006043'		MOVE	T1,O.NAM1	;SETUP FILE NAME
  3712	007201'	202 01 0 00 006711'		MOVEM	T1,ENTBLK+.RBNAM
  3713	007202'	200 01 0 00 006044'		MOVE	T1,O.EXT	;SETUP FILE EXT
  3714	007203'	202 01 0 00 006712'		MOVEM	T1,ENTBLK+.RBEXT
  3715	007204'	200 01 0 00 006046'		MOVE	T1,O.PPN	;SETUP PROJ,PROG #
  3716	007205'	336 00 0 00 000001 		SKIPN	T1
  3717	007206'	200 01 0 00 015013'		MOVE	T1,[6,,2020]	;DEFAULT PPN IS 6,20
  3718	007207'	202 01 0 00 006710'		MOVEM	T1,ENTBLK+.RBPPN
  3719	007210'	200 01 0 00 006045'		MOVE	T1,O.PRT	;SETUP PROTECTION
  3720	007211'	137 01 0 00 015007'		DPB	T1,[POINT 9,ENTBLK+.RBPRV,8]
  3721	007212'	135 01 0 00 014315'		LDB	T1,[POINT 3,O.DATE,23]	;SETUP TIME AND DATE
  3722	007213'	137 01 0 00 015010'		DPB	T1,[POINT 3,ENTBLK+.RBEXT,20]
  3723	007214'	135 01 0 00 014317'		LDB	T1,[POINT 12,O.DATE,35]
  3724	007215'	137 01 0 00 015011'		DPB	T1,[POINT 12,ENTBLK+.RBPRV,35]
  3725	007216'	200 01 0 00 006050'		MOVE	T1,O.TIME
  3726	007217'	137 01 0 00 015012'		DPB	T1,[POINT 11,ENTBLK+.RBPRV,23]
  3727	007220'	200 01 0 00 006051'		MOVE	T1,O.VER	;SETUP VERSION
  3728	007221'	202 01 0 00 006715'		MOVEM	T1,ENTBLK+.RBVER
  3729
  3730	007222'	201 01 0 00 000017 		MOVEI	T1,17		;SET # OF WORDS IN EXTENDED ENTER
  3731	007223'	202 01 0 00 006707'		MOVEM	T1,ENTBLK
  3732	007224'	201 01 0 00 060000 		MOVEI	T1,RP.NFS!RP.ABC ;BIT 22 FOR BAD CHECKSUM
  3733	007225'	202 01 0 00 006726'		MOVEM	T1,E10STS	;TELL MON NOT TO CHECK IT
  3734	007226'	200 01 0 00 021065'		MOVE	T1,S.ALO	;SET BLOCKS ALLOCATED
  3735	007227'	202 01 0 00 006720'		MOVEM	T1,E10ALC
  3736
  3737	007230'	077 03 0 00 006707'		ENTER	WC,ENTBLK
  3738	007231'	263 17 0 00 000000 		  RTN			;ERROR RETURN
  3739	007232'	254 00 0 00 000016'		JRST	CPOPJ1		;GIVE SKIP (GOOD) RETURN
SMFILE	DECSYSTEM 2020 DIAGNOSTICS FE-FILE PROGRAM, VER 0,3	MACRO %53(1020) 10:47 19-Feb-79 Page 99
SMFILE	MAC	19-Feb-79 10:46		TOPS-10 INDIRECT COMMAND FILE PROCESS                                              SEQ 0138

  3740					SUBTTL	TOPS-10 INDIRECT COMMAND FILE PROCESS
  3741
  3742	007233'	332 00 0 00 021244'	$CCL:	SKIPE	$CCLF		;ALREADY DOING INDIRECT ?
  3743	007234'	260 17 0 00 015020'		ERR	<CCL COMMAND ERROR>
  3744
  3745	007235'	476 00 0 00 021244'		SETOM	$CCLF		;SET COMMAND FILE PROCESS FLAG
  3746
  3747	007236'	200 01 0 00 016406'		MOVE	T1,GTJDEV
  3748	007237'	336 00 0 00 000001 		SKIPN	T1		;ANY DEVICE SPECIFIED ?
  3749	007240'	205 01 0 00 446353 		MOVSI	T1,'DSK'	;NO, ASSUME "DSK"
  3750	007241'	202 01 0 00 007304'		MOVEM	T1,CCLBLK+1
  3751
  3752	007242'	200 01 0 00 016410'		MOVE	T1,GTJFIL
  3753	007243'	202 01 0 00 007311'		MOVEM	T1,CCLDIR	;SETUP FILE NAME
  3754
  3755	007244'	200 01 0 00 016411'		MOVE	T1,GTJEXT
  3756	007245'	336 00 0 00 000001 		SKIPN	T1		;ANY EXTENSION SPECIFIED ?
  3757	007246'	205 01 0 00 435544 		MOVSI	T1,'CMD'	;NO, ASSUME "CMD"
  3758	007247'	202 01 0 00 007312'		MOVEM	T1,CCLDIR+1
  3759
  3760	007250'	200 01 0 00 016407'		MOVE	T1,GTJDIR
  3761	007251'	202 01 0 00 007314'		MOVEM	T1,CCLDIR+3	;SETUP PPN
  3762
  3763	007252'	201 00 0 00 007306'		MOVEI	$IBF
  3764	007253'	202 00 0 00 007305'		MOVEM	CCLBLK+2
  3765
  3766	007254'	050 06 0 00 007303'		OPEN	$CHN,CCLBLK	;OPEN COMMAND CHANNEL
  3767	007255'	260 17 0 00 015025'		ERR	<CCL OPEN ERROR>
  3768
  3769	007256'	064 06 0 00 000001 		INBUF	$CHN,1		;ONE BUFFER
  3770
  3771	007257'	076 06 0 00 007311'		LOOKUP	$CHN,CCLDIR	;FIND COMMAND FILE
  3772	007260'	260 17 0 00 015033'		ERR	<CCL FILE NOT FOUND>
  3773
  3774	007261'	200 00 0 00 000121 		MOVE	.JBFF		;SAVE FIRST FREE FOR RECLAIM
  3775	007262'	202 00 0 00 021127'		MOVEM	$SJBFF#
  3776
  3777	007263'	200 01 0 00 015035'		MOVE	T1,[.NULIO,,.PRIOU]
  3778	007264'	202 01 0 00 016373'		MOVEM	T1,CSB+.CMIOJ
  3779	007265'	331 00 0 00 016573'		SKIPL	ECOFLG
  3780	007266'	476 00 0 00 021165'		SETOM	INTAKE
  3781	007267'	263 17 0 00 000000 		RTN
SMFILE	DECSYSTEM 2020 DIAGNOSTICS FE-FILE PROGRAM, VER 0,3	MACRO %53(1020) 10:47 19-Feb-79 Page 100
SMFILE	MAC	19-Feb-79 10:46		TOPS-10 INDIRECT COMMAND FILE PROCESS                                              SEQ 0139

  3782	007270'	373 00 0 00 007310'	$CCLIN:	SOSLE	$IBF+2		;ANY CHARS AVAILABLE ?
  3783	007271'	254 00 0 00 007301'		JRST	$CCLI1		;YES
  3784
  3785	007272'	056 06 0 00 000000 		IN	$CHN,		;NO, INPUT A BUFFER
  3786	007273'	254 00 0 00 007301'		 JRST	$CCLI1		;OK
  3787
  3788	007274'	063 06 0 00 740000 		STATZ	$CHN,740000	;NO, CHECK STATUS
  3789	007275'	260 17 0 00 015042'		ERR	<CCL FILE READ ERROR>
  3790
  3791						MOVEI	[ASCIZ/
  3792						[END OF COMMAND FILE]
  3793	007276'	201 00 0 00 015044'	/]
  3794	007277'	037 17 0 00 000001 		PNTALF
  3795	007300'	254 00 0 00 000537'		JRST	REEN
  3796
  3797	007301'	134 02 0 00 007307'	$CCLI1:	ILDB	T2,$IBF+1	;GET CHAR
  3798
  3799					;	CAIN	T2,12		;LF, CLEAR COMMENT FLAG
  3800					;	SETZM	$CMNTF
  3801					;	CAIN	T2,14		;F/F, CLEAR COMMENT FLAG
  3802					;	SETZM	$CMNTF
  3803					;
  3804					;	CAIN	T2,";"		;SEMICOLON, SET COMMENT FLAG
  3805					;	SETOM	$CMNTF
  3806					;
  3807					;	SKIPE	$CMNTF		;PROCESSING COMMENT ?
  3808					;	JRST	$CCLIN		;YES
  3809
  3810	007302'	263 17 0 00 000000 		RTN			;RETURN TO CHAR PROCESS
  3811
  3812	007303'				CCLBLK:	BLOCK	3
  3813	007306'				$IBF:	BLOCK	3
  3814	007311'				CCLDIR:	BLOCK	4
SMFILE	DECSYSTEM 2020 DIAGNOSTICS FE-FILE PROGRAM, VER 0,3	MACRO %53(1020) 10:47 19-Feb-79 Page 101
SMFILE	MAC	19-Feb-79 10:46		SPECIFY DEVICE FILE STRUCTURE FOR  DIRECTORY                                       SEQ 0140

  3815					SUBTTL	SPECIFY DEVICE FILE STRUCTURE FOR  DIRECTORY
  3816					;	===============================================
  3817
  3818	007315'	200 02 0 00 016407'	DEVSTR:	MOVE	T2,GTJDIR
  3819	007316'	202 02 0 00 021036'		MOVEM	T2,DIRDIR#	;SAVE STRUCTURE PPN
  3820	007317'	200 02 0 00 016406'		MOVE	T2,GTJDEV	;GET STRUCTURE NAME
  3821	007320'	202 02 0 00 005405'		MOVEM	T2,DIRDEV
  3822	007321'	202 02 0 00 005423'		MOVEM	T2,DATDEV	;SAVE IT
  3823	007322'	200 01 0 00 015052'		MOVE	T1,[0,,DIRDEV]	;STATUS AT LOC+0
  3824
  3825	007323'	047 01 0 00 000045 		DSKCHR	T1,
  3826	007324'	260 17 0 00 015060'		ERR	<DEVICE SELECTION ERROR>
  3827
  3828	007325'	135 02 0 00 015062'		LDB	T2,[POINT 6,T1,26];GET BITS 21-26
  3829	007326'	275 02 0 00 000005 		SUBI	T2,5		;5=RH10/RH20 CTR
  3830	007327'	322 02 0 00 007331'		JUMPE	T2,.+2		;IT'S RH10/RH20 CTR
  3831	007330'	260 17 0 00 015071'		ERR	<NOT AN RH10/RH20 CONTROLLER>
  3832
  3833	007331'	402 00 0 00 021064'		SETZM	RM03F
  3834	007332'	135 02 0 00 015073'		LDB	T2,[POINT 3,T1,32]
  3835	007333'	202 02 0 00 021037'		MOVEM	T2,DSKTYP
  3836	007334'	306 02 0 00 000000 		CAIN	T2,.DCUR4
  3837	007335'	254 00 0 00 007343'		JRST	CTLROK
  3838	007336'	306 02 0 00 000001 		CAIN	T2,.DCUR6
  3839	007337'	254 00 0 00 007343'		JRST	CTLROK
  3840	007340'	306 02 0 00 000002 		CAIN	T2,.DCUR3
  3841						JRST	[SETOM	RM03F
  3842	007341'	254 00 0 00 015074'			 JRST CTLROK]
  3843	007342'	260 17 0 00 015104'		ERR	<NOT AN RP04/RP06/RM03 DISK>
  3844
  3845	007343'	200 01 0 00 015106'	CTLROK:	MOVE	T1,[16,,DIRDEV]	;PHYNAME AT LOC+15
  3846
  3847	007344'	047 01 0 00 000045 		DSKCHR	T1,		;GET PHY DEVICE NAME
  3848	007345'	260 17 0 00 015060'		ERR	<DEVICE SELECTION ERROR>
  3849
  3850	007346'	200 01 0 00 015107'		MOVE	T1,[16,,DATDEV]
  3851
  3852	007347'	047 01 0 00 000045 		DSKCHR	T1,
  3853	007350'	260 17 0 00 015060'		ERR	<DEVICE SELECTION ERROR>
  3854
  3855	007351'	201 00 0 00 000001 	USRHPQ:	MOVEI	1
  3856	007352'	047 00 0 00 000071 		HPQ			;SET HI-PRI RUN Q
  3857	007353'	255 00 0 00 000000 		 JFCL
  3858
  3859	007354'	201 00 0 00 007360'	USRHDQ:	MOVEI	HDQ		;SET HI-PRI DISK Q
  3860	007355'	047 00 0 00 000121 		DISK.
  3861	007356'	255 00 0 00 000000 		 JFCL
  3862	007357'	254 00 0 00 007361'		JRST	.+2
  3863	007360'	000003	777777		HDQ:	3,,-1
SMFILE	DECSYSTEM 2020 DIAGNOSTICS FE-FILE PROGRAM, VER 0,3	MACRO %53(1020) 10:47 19-Feb-79 Page 102
SMFILE	MAC	19-Feb-79 10:46		SPECIFY DEVICE FILE STRUCTURE FOR  DIRECTORY                                       SEQ 0141

  3864	007361'	260 17 0 00 007434'		GO	OPNHOM		;OPEN WITH HOM CHANNEL
  3865	007362'	260 17 0 00 015114'		ERR	<HOM CHN OPEN ERROR>
  3866
  3867	007363'	201 03 0 00 000001 		MOVEI	T3,HMBK01	;GET HOME BLK #1
  3868	007364'	260 17 0 00 007442'		GO	RADHOM
  3869	007365'	260 17 0 00 015123'		ERR	<HOME BLOCK #1 READ ERROR>
  3870
  3871	007366'	200 01 0 00 005544'		MOVE	T1,HOMBUF+103
  3872	007367'	202 01 0 00 021030'		MOVEM	T1,BTADDR	;SAVE ORIGINAL 8080 POINTER
  3873
  3874	007370'	200 02 0 00 005542'		MOVE	B,HOMBUF+101	;GET DISK ADDRESS
  3875	007371'	202 02 0 00 021031'		MOVEM	B,BTLADR#
  3876
  3877	007372'	200 03 0 00 005543'		MOVE	C,HOMBUF+102	;GET LENGTH IN SECTORS
  3878	007373'	202 03 0 00 021032'		MOVEM	C,BTLPAG#
  3879
  3880	007374'	322 02 0 00 007530'		JUMPE	B,CRESTR	;NO CURRENT KS10FE.BIN
  3881
  3882	007375'	260 17 0 00 007065'	CREST1:	GO	OPNDAT
  3883	007376'	254 00 0 00 007530'		JRST	CRESTR		;REALLY NOT THERE
  3884
  3885	007377'	200 01 0 00 006746'		MOVE	T1,ODAT10+.RBALC
  3886	007400'	305 01 0 00 000161 		CAIGE	T1,<^D28*^D4>+1
  3887	007401'	260 17 0 00 015132'		ERR	<KS10FE.BIN WRONG SIZE>
  3888
  3889	007402'	074 01 0 00 000000 		USETI	DAT,PRIME	;GET LOGICAL BLK # OF 1ST BLK
  3890
  3891						IN	DAT,[IOWD 200,GETBUF
  3892	007403'	056 01 0 00 015134'			     0]
  3893	007404'	334 00 0 00 000000 		SKIPA
  3894	007405'	260 17 0 00 015143'		ERR	<PRIME RIB READ ERROR>
  3895	007406'	260 17 0 00 007521'		GO	GOARND+4
  3896
  3897	007407'	312 01 0 00 021031'		CAME	T1,BTLADR	;HOME BLOCK & FILE AGREE ?
  3898	007410'	260 17 0 00 015157'		ERR	<KS10FE.BIN HOME BLOCK & FILE ADDRESSES DIFFER>
SMFILE	DECSYSTEM 2020 DIAGNOSTICS FE-FILE PROGRAM, VER 0,3	MACRO %53(1020) 10:47 19-Feb-79 Page 103
SMFILE	MAC	19-Feb-79 10:46		SPECIFY DEVICE FILE STRUCTURE FOR  DIRECTORY                                       SEQ 0142

  3899
  3900	007411'	074 01 0 00 000001 		USETI	DAT,1		;SELECT 1ST PAGE
  3901
  3902	007412'	201 05 0 00 000034 		MOVEI	T5,^D28
  3903	007413'	200 04 0 00 015161'		MOVE	T4,[IPAG,,FEDIR]
  3904	007414'	201 03 0 00 400777 		MOVEI	T3,FEDIR+777
  3905
  3906					CREST2:	IN	DAT,[IOWD ^D512,IPAG
  3907	007415'	056 01 0 00 014366'			    0]
  3908	007416'	254 00 0 00 007425'		JRST	CREST3
  3909
  3910	007417'	062 01 0 00 000001 		GETSTS	DAT,T1
  3911	007420'	602 01 0 00 740000 		TRNE	T1,74B23	;ANY ERRORS
  3912	007421'	260 17 0 00 015167'		ERR	<KS10FE.BIN READ ERROR>
  3913	007422'	606 01 0 00 020000 		TRNN	T1,1B22		;END OF FILE ?
  3914	007423'	260 17 0 00 014776'		ERR	<SHOULD NEVER HAPPEN>
  3915	007424'	254 00 0 00 001654'		JRST	WRTSEX
  3916
  3917	007425'	200 01 0 00 000004 	CREST3:	MOVE	T1,T4
  3918	007426'	200 02 0 00 000003 		MOVE	T2,T3
  3919	007427'	251 01 0 02 000000 		BLT	T1,(T2)		;TRANSFER TO HI-CORE
  3920
  3921	007430'	271 04 0 00 001000 		ADDI	T4,^D512
  3922	007431'	271 03 0 00 001000 		ADDI	T3,^D512
  3923	007432'	367 05 0 00 007415'		SOJG	T5,CREST2
  3924
  3925	007433'	254 00 0 00 001654'		JRST	WRTSEX
SMFILE	DECSYSTEM 2020 DIAGNOSTICS FE-FILE PROGRAM, VER 0,3	MACRO %53(1020) 10:47 19-Feb-79 Page 104
SMFILE	MAC	19-Feb-79 10:46		SPECIFY DEVICE FILE STRUCTURE FOR  DIRECTORY                                       SEQ 0143

  3926					;*OPNHOM - ROUTINE TO OPEN THE DISK ON CHANNEL 'HOM'
  3927
  3928	007434'	201 05 0 00 000017 	OPNHOM:	MOVEI	T5,.IODMP	;OPEN IN DUMP MODE
  3929	007435'	200 06 0 00 005422'		MOVE	T6,DSKUPN	;GET DEVICE NAME
  3930	007436'	201 07 0 00 000000 		MOVEI	T7,0
  3931
  3932	007437'	050 05 0 00 000005 		OPEN	HOM,T5
  3933	007440'	263 17 0 00 000000 		  RTN			;ERROR RETURN
  3934
  3935	007441'	254 00 0 00 000016'		JRST	CPOPJ1		;GOOD RETURN
  3936
  3937					;*RADHOM - ROUTINE TO READ A BLOCK ON CHANNEL 'HOM'
  3938
  3939	007442'	400 01 0 00 000000 	RADHOM:	SETZ	T1,
  3940	007443'	201 02 0 00 000005 		MOVEI	T2,HOM
  3941	007444'	137 02 0 00 015171'		DPB	T2,[POINT 4,T1,12]	;PUT CHANNEL IN ARG REG.
  3942	007445'	137 03 0 00 015172'		DPB	T3,[POINT 23,T1,35]	;PUT BLK NO IN ARG REG
  3943
  3944	007446'	047 01 0 00 000146 		SUSET.	T1,		;INSERT BLOCK NUMBER
  3945	007447'	260 17 0 00 015177'		ERR	<SUSET. UUO FAILURE>
  3946
  3947	007450'	056 05 0 00 005371'		IN	HOM,HOMLST	;BRING IN THE DIRECTORY BLOCK
  3948	007451'	254 00 0 00 000016'		  JRST	CPOPJ1		;GOOD RETURN
  3949
  3950	007452'	263 17 0 00 000000 		RTN			;BAD RETURN
  3951
  3952					;*WHOM10 - ROUTINE TO WRITE A BLOCK ON CHANNEL 'HOM'
  3953
  3954	007453'	205 01 0 00 200000 	WHOM10:	MOVSI	T1,SU.SOT	;OUTPUT BIT
  3955	007454'	201 02 0 00 000005 		MOVEI	T2,HOM
  3956	007455'	137 02 0 00 015171'		DPB	T2,[POINT 4,T1,12]	;PUT CHANNEL IN ARG REG.
  3957	007456'	137 03 0 00 015172'		DPB	T3,[POINT 23,T1,35]	;PUT BLK NO IN ARG REG
  3958
  3959	007457'	047 01 0 00 000146 		SUSET.	T1,
  3960	007460'	260 17 0 00 015177'		ERR	<SUSET. UUO FAILURE>
  3961
  3962	007461'	057 05 0 00 005371'		OUT	HOM,HOMLST	;OUTPUT HOME BLOCK
  3963	007462'	254 00 0 00 000016'		  JRST	CPOPJ1		;GOOD RETURN
  3964
  3965	007463'	263 17 0 00 000000 		RTN			;ERROR RETURN
SMFILE	DECSYSTEM 2020 DIAGNOSTICS FE-FILE PROGRAM, VER 0,3	MACRO %53(1020) 10:47 19-Feb-79 Page 105
SMFILE	MAC	19-Feb-79 10:46		SPECIFY DEVICE FILE STRUCTURE FOR  DIRECTORY                                       SEQ 0144

  3966					;*OPWCDP - ROUTINE TO OPEN IN DUMP MODE TO WRITE
  3967
  3968	007464'	201 01 0 00 000017 	OPWCDP:	MOVEI	T1,.IODMP	;DUMP MODE
  3969	007465'	200 02 0 00 005422'		MOVE	T2,DSKUPN	;DEVICE NAME
  3970	007466'	402 00 0 00 000003 		SETZM	T3
  3971
  3972	007467'	050 03 0 00 000001 		OPEN	WC,T1		;OPEN FOR  OUTPUT
  3973	007470'	263 17 0 00 000000 		  RTN			;ERROR RETURN
  3974
  3975	007471'	254 00 0 00 000016'		JRST	CPOPJ1		;GOOD RETURN
  3976
  3977					;*OPRCDP - ROUTINE TO OPEN IN DUMP MODE TO READ
  3978
  3979	007472'	201 01 0 00 000017 	OPRCDP:	MOVEI	T1,.IODMP	;USE DUMP MODE INPUT
  3980	007473'	200 02 0 00 005422'		MOVE	T2,DSKUPN	;GET DEVICE NAME
  3981	007474'	402 00 0 00 000003 		SETZM	T3		;NO BUFFER
  3982
  3983	007475'	050 02 0 00 000001 		OPEN	RC,T1
  3984	007476'	263 17 0 00 000000 		  RTN			;ERROR RETURN
  3985
  3986	007477'	254 00 0 00 000016'		JRST	CPOPJ1		;GOOD RETURN
SMFILE	DECSYSTEM 2020 DIAGNOSTICS FE-FILE PROGRAM, VER 0,3	MACRO %53(1020) 10:47 19-Feb-79 Page 106
SMFILE	MAC	19-Feb-79 10:46		SPECIFY DEVICE FILE STRUCTURE FOR  DIRECTORY                                       SEQ 0145

  3987					;*GETBLK - ROUTINE TO GET THE LOGICAL BLOCK NUMBER OF THE
  3988					;*	   FIRST BLOCK OF A FILE IN THE TOPS-10 FILE SYSTEM.
  3989					;*
  3990					;*CALL:		GO	GETBK1
  3991					;*		OR
  3992					;*		GO	GETBK2
  3993					;*		RETURN WITH BLOCK # IN T1
  3994
  3995	007500'	260 17 0 00 007472'	GETBK1:	GO	OPRCDP		;USE DUMP MODE INPUT
  3996	007501'	260 17 0 00 015206'		ERR	<DUMP MODE OPEN ERROR>
  3997
  3998	007502'	201 01 0 00 000017 		MOVEI	T1,17		;GET # OF ARGUMENTS
  3999	007503'	202 01 0 00 006661'		MOVEM	T1,LOOK10	;SAVE # OF ARGS IN LOOKUP BLK
  4000
  4001	007504'	076 02 0 00 006661'		LOOKUP	RC,LOOK10	;LOOKUP THE FILE
  4002	007505'	260 17 0 00 015214'		ERR	<CAN'T FIND FILE>
  4003
  4004	007506'	254 00 0 00 007515'		JRST	GOARND		;GO AROUND
  4005
  4006	007507'	260 17 0 00 007472'	GETBK2:	GO	OPRCDP		;USE DUMP MODE INPUT
  4007	007510'	260 17 0 00 015206'		ERR	<DUMP MODE OPEN ERROR>
  4008
  4009	007511'	201 01 0 00 000017 		MOVEI	T1,17		;GET # OF ARGUMENTS
  4010	007512'	202 01 0 00 006707'		MOVEM	T1,ENTBLK	;SAVE IT
  4011
  4012	007513'	076 02 0 00 006707'		LOOKUP	RC,ENTBLK	;LOOKUP THE OUTPUT FILE
  4013	007514'	260 17 0 00 015214'		ERR	<CAN'T FIND FILE>
  4014
  4015	007515'	074 02 0 00 000000 	GOARND:	USETI	RC,PRIME	;SET UP TO READ PRIME RIB
  4016
  4017						IN	RC,[IOWD 200,GETBUF
  4018	007516'	056 02 0 00 015134'			    0 ]		;READ THE PRIME RIB
  4019	007517'	334 00 0 00 000000 		SKIPA
  4020	007520'	260 17 0 00 015143'		ERR	<PRIME RIB READ ERROR>
  4021
  4022	007521'	550 01 0 00 006056'		HRRZ	T1,GETBUF	;GET ADDRESS OF 1ST POINTER
  4023	007522'	201 01 0 01 006057'		MOVEI	T1,GETBUF+1(T1)	;GET SECOND POINTER
  4024	007523'	500 01 0 00 005461'		HLL	T1,HOMCLP	;FORM BYTE POINTER
  4025	007524'	135 01 0 00 000001 		LDB	T1,T1		;GET ADDRESS POINTER
  4026	007525'	220 01 0 00 005462'		IMUL	T1,HOMBPC	;COMPUTE RIB LOGICAL BLOCK #
  4027	007526'	271 01 0 00 000001 		ADDI	T1,1		;COMPUTE # OF DATA BLOCK 1
  4028	007527'	263 17 0 00 000000 		RTN			;RETURN
SMFILE	DECSYSTEM 2020 DIAGNOSTICS FE-FILE PROGRAM, VER 0,3	MACRO %53(1020) 10:47 19-Feb-79 Page 107
SMFILE	MAC	19-Feb-79 10:46		ROUTINE TO CREATE KS10FE.BIN FILE                                                  SEQ 0146

  4029					SUBTTL	ROUTINE TO CREATE KS10FE.BIN FILE
  4030					;	===========================================
  4031
  4032	007530'	200 01 0 00 016406'	CRESTR:	MOVE	T1,GTJDEV
  4033	007531'	202 01 0 00 006042'		MOVEM	T1,O.DEV
  4034
  4035	007532'	200 01 0 00 016410'		MOVE	T1,GTJFIL
  4036	007533'	202 01 0 00 006043'		MOVEM	T1,O.NAM1
  4037
  4038	007534'	200 01 0 00 016411'		MOVE	T1,GTJEXT
  4039	007535'	202 01 0 00 006044'		MOVEM	T1,O.EXT
  4040
  4041	007536'	200 01 0 00 016407'		MOVE	T1,GTJDIR
  4042	007537'	202 01 0 00 006046'		MOVEM	T1,O.PPN
  4043
  4044	007540'	201 01 0 00 000577 		MOVEI	T1,577		;SET PROTECTION 577
  4045	007541'	202 01 0 00 006045'		MOVEM	T1,O.PRT
  4046
  4047	007542'	402 00 0 00 006047'		SETZM	O.DATE
  4048	007543'	402 00 0 00 006050'		SETZM	O.TIME
  4049	007544'	402 00 0 00 006051'		SETZM	O.VER
  4050
  4051	007545'	201 01 0 00 000160 		MOVEI	T1,^D28*^D4
  4052	007546'	202 01 0 00 021065'		MOVEM	T1,S.ALO#
  4053
  4054	007547'	260 17 0 00 007160'		GO	ETER10		;ENTER FILE
  4055	007550'	260 17 0 00 015224'		ERR	<ERROR CREATING KS10FE.BIN>
  4056
  4057	007551'	070 03 0 00 000004 		CLOSE	WC,CL.DLL	;CLOSE WRITE CHANNEL
  4058	007552'	071 03 0 00 000000 		RELEAS	WC,
  4059
  4060					;*GET DISK DIRECTORY ADDRESS, PUT IN HOME BLOCK
  4061
  4062	007553'	260 17 0 00 007507'		GO	GETBK2		;GET 1ST BLOCK FROM -10
  4063	007554'	202 01 0 00 021031'		MOVEM	T1,BTLADR
  4064
  4065	007555'	200 07 0 00 021031'		MOVE	T7,BTLADR
  4066	007556'	201 06 0 00 021030'		MOVEI	T6,BTADDR
  4067	007557'	260 17 0 00 005020'		GO	T8080P		;COMPUTE 8080 POINTER
  4068
  4069	007560'	200 00 0 00 021031'		MOVE	BTLADR		;SET LOGICAL ADDRESS
  4070	007561'	202 00 0 00 005542'		MOVEM	HOMBUF+101
  4071	007562'	201 00 0 00 000160 		MOVEI	^D28*^D4	;SET LENGTH IN SECTORS
  4072	007563'	202 00 0 00 021032'		MOVEM	BTLPAG
  4073	007564'	202 00 0 00 005543'		MOVEM	HOMBUF+102
  4074	007565'	200 00 0 00 021030'		MOVE	BTADDR		;SET 8080 ADDRESS
  4075	007566'	202 00 0 00 005544'		MOVEM	HOMBUF+103
SMFILE	DECSYSTEM 2020 DIAGNOSTICS FE-FILE PROGRAM, VER 0,3	MACRO %53(1020) 10:47 19-Feb-79 Page 108
SMFILE	MAC	19-Feb-79 10:46		ROUTINE TO CREATE KS10FE.BIN FILE                                                  SEQ 0147

  4076					;*WRITE OUT HOME BLOCK #1
  4077
  4078	007567'	201 03 0 00 000001 		MOVEI	T3,HMBK01		;HOME BLOCK # 1
  4079	007570'	260 17 0 00 007453'		GO	WHOM10			;WRITE IT
  4080	007571'	260 17 0 00 015234'		ERR	<HOME BLOCK #1 WRITE ERROR>
  4081
  4082					;*HERE TO UPDATE AND WRITE OUT HOME BLOCK # 10
  4083
  4084	007572'	201 03 0 00 000012 		MOVEI	T3,HMBK10		;GET BLOCK # FOR HOBK10
  4085	007573'	400 01 0 00 000000 		SETZ	T1,
  4086	007574'	201 02 0 00 000005 		MOVEI	T2,HOM
  4087	007575'	137 02 0 00 015171'		DPB	T2,[POINT 4,T1,12]	;PUT CHANNEL IN ARG REG.
  4088	007576'	137 03 0 00 015172'		DPB	T3,[POINT 23,T1,35]	;PUT BLK NO IN ARG REG
  4089
  4090	007577'	047 01 0 00 000146 		SUSET.	T1,
  4091	007600'	260 17 0 00 015177'		ERR	<SUSET. UUO FAILURE>
  4092
  4093	007601'	056 05 0 00 005377'		IN	HOM,H10LST		;BRING IN HOME BLK #10
  4094	007602'	254 00 0 00 007604'		JRST	.+2			;READ OK
  4095
  4096	007603'	260 17 0 00 015244'		ERR	<HOME BLOCK #10 READ ERROR>
  4097
  4098	007604'	200 00 0 00 021031'		MOVE	BTLADR		;SET LOGICAL ADDRESS
  4099	007605'	202 00 0 00 005742'		MOVEM	HOMB10+101
  4100	007606'	200 00 0 00 021032'		MOVE	BTLPAG		;SET LENGTH IN PAGES
  4101	007607'	202 00 0 00 005743'		MOVEM	HOMB10+102
  4102	007610'	200 00 0 00 021030'		MOVE	BTADDR		;SET 8080 ADDRESS
  4103	007611'	202 00 0 00 005744'		MOVEM	HOMB10+103
  4104
  4105	007612'	205 01 0 00 200000 		MOVSI	T1,SU.SOT		;SET OUTPUT BIT
  4106	007613'	201 02 0 00 000005 		MOVEI	T2,HOM
  4107	007614'	137 02 0 00 015171'		DPB	T2,[POINT 4,T1,12]	;PUT CHANNEL IN ARG REG.
  4108	007615'	137 03 0 00 015172'		DPB	T3,[POINT 23,T1,35]	;PUT BLK NO IN ARG REG
  4109
  4110	007616'	047 01 0 00 000146 		SUSET.	T1,
  4111	007617'	260 17 0 00 015177'		ERR	<SUSET. UUO FAILURE>
  4112
  4113	007620'	057 05 0 00 005377'		OUT	HOM,H10LST		;OUTPUT HMBK10
  4114	007621'	334 00 0 00 000000 		SKIPA
  4115
  4116	007622'	260 17 0 00 015254'		ERR	<HOME BLOCK #10 WRITE ERROR>
  4117
  4118	007623'	070 04 0 00 000000 		CLOSE	DIR,			;CLOSE DIR CHANNEL
  4119	007624'	070 05 0 00 000000 		CLOSE	HOM,			;CLOSE HOM CHANNEL
  4120	007625'	254 00 0 00 007375'		JRST	CREST1
SMFILE	DECSYSTEM 2020 DIAGNOSTICS FE-FILE PROGRAM, VER 0,3	MACRO %53(1020) 10:47 19-Feb-79 Page 109
SMFILE	MAC	19-Feb-79 10:46		PROCESS ".ULD" MICROCODE                                                           SEQ 0148

  4121					SUBTTL	PROCESS ".ULD" MICROCODE
  4122
  4123	007626'	201 01 0 00 012633'	RDULD:	MOVEI	T1,RDULDT
  4124	007627'	202 01 0 00 021160'		MOVEM	T1,CTADR
  4125	007630'	332 00 0 00 021027'		SKIPE	BC1FLG
  4126	007631'	254 00 0 00 007636'		JRST	.+5
  4127	007632'	402 00 0 00 401000 		SETZM	CRAM
  4128	007633'	200 00 0 00 015256'		MOVE	[CRAM,,CRAM+1]
  4129	007634'	251 00 0 00 414777 		BLT	CRAM+13777	;CLEAR MICROCODE STORE
  4130	007635'	254 00 0 00 007641'		JRST	.+4
  4131	007636'	402 00 0 00 417000 		SETZM	CRMBC1
  4132	007637'	200 00 0 00 015257'		MOVE	[CRMBC1,,CRMBC1+1]
  4133	007640'	251 00 0 00 432777 		BLT	CRMBC1+13777
  4134
  4135	007641'	402 00 0 00 021173'		SETZM	IBF+1
  4136	007642'	336 00 0 00 000302'		SKIPN	MONTYP
  4137	007643'	254 00 0 00 007651'		JRST	READ.1
  4138
  4139	007644'	554 01 0 00 021162'		HLRZ	T1,UCFILE
  4140	007645'	200 02 0 00 014104'		MOVE	T2,[1,,.FBBYV]
  4141	007646'	201 03 0 00 021051'		MOVEI	T3,INCNT#
  4142	007647'	104 00 0 00 000063 		GTFDB			;GET FILE PAGE COUNT
  4143	007650'	553 00 0 00 021051'		HRRZS	INCNT
  4144
  4145	007651'	260 17 0 00 010156'	READ.1:	GO	RDEOL
  4146	007652'	260 17 0 00 010162'		GO	RDBYTE
  4147	007653'	306 01 0 00 000105 		CAIN	T1,"E"
  4148	007654'	254 00 0 00 007756'		JRST	READ.5
  4149	007655'	302 01 0 00 000133 		CAIE	T1,"["
  4150	007656'	254 00 0 00 007651'		JRST	READ.1
  4151	007657'	201 06 0 00 000000 		MOVEI	T6,0
  4152
  4153	007660'	260 17 0 00 010162'	READ.2:	GO	RDBYTE
  4154	007661'	306 01 0 00 000135 		CAIN	T1,"]"
  4155	007662'	254 00 0 00 007667'		JRST	READ.3
  4156	007663'	275 01 0 00 000060 		SUBI	T1,"0"
  4157	007664'	242 06 0 00 000003 		LSH	T6,3
  4158	007665'	270 06 0 00 000001 		ADD	T6,T1
  4159	007666'	254 00 0 00 007660'		JRST	READ.2
SMFILE	DECSYSTEM 2020 DIAGNOSTICS FE-FILE PROGRAM, VER 0,3	MACRO %53(1020) 10:47 19-Feb-79 Page 110
SMFILE	MAC	19-Feb-79 10:46		PROCESS ".ULD" MICROCODE                                                           SEQ 0149

  4160
  4161	007667'	260 17 0 00 010162'	READ.3:	GO	RDBYTE
  4162	007670'	302 01 0 00 000075 		CAIE	T1,"="
  4163	007671'	260 17 0 00 015267'		ERR	<MICROCODE IS NOT IN CORRECT FORMAT>
  4164	007672'	202 06 0 00 021063'		MOVEM	T6,RDULT6#
  4165	007673'	221 06 0 00 000003 		IMULI	T6,3
  4166	007674'	336 00 0 00 021027'		SKIPN	BC1FLG
  4167	007675'	271 06 0 00 401000 		ADDI	T6,CRAM
  4168	007676'	332 00 0 00 021027'		SKIPE	BC1FLG
  4169	007677'	271 06 0 00 417000 		ADDI	T6,CRMBC1
  4170	007700'	202 06 0 00 021033'		MOVEM	T6,CRAMT6#
  4171
  4172	007701'	200 04 0 00 015271'	RDULIN:	MOVE	T4,[POINT 3,ULDSTR]
  4173	007702'	201 05 0 00 000044 		MOVEI	T5,^D36
  4174
  4175	007703'	260 17 0 00 010162'		GO	RDBYTE
  4176	007704'	136 01 0 00 000004 		IDPB	T1,T4
  4177
  4178	007705'	367 05 0 00 007703'		SOJG	T5,RDULIN+2
  4179
  4180	007706'	400 10 0 00 000000 	KSSHF3:	SETZ	AC10,
  4181	007707'	403 11 0 00 000012 		SETZB	AC11,AC12
  4182
  4183	007710'	200 07 0 00 015272'		MOVE	T7,[-^D108,,KSCRMP]
  4184
  4185	007711'	200 14 0 00 015273'		MOVE	STPNTR,[POINT 1,ULDSTR]
  4186	007712'	200 00 0 00 015274'		MOVE	0,[ILDB	T6,STPNTR]
  4187	007713'	200 01 0 00 015275'		MOVE	T1,[DPB	T6,(T7)]
  4188	007714'	200 02 0 00 015276'		MOVE	T2,[AOBJN T7,0]
  4189	007715'	200 03 0 00 015277'		MOVE	T3,[JRST KSSHF4]
  4190	007716'	254 00 0 00 000000 		JRST	0
  4191
  4192	007717'	260 17 0 00 007721'	KSSHF4:	GO	KSXX		;COMPUTE PARITY
  4193
  4194	007720'	254 00 0 00 007651'		JRST	READ.1
SMFILE	DECSYSTEM 2020 DIAGNOSTICS FE-FILE PROGRAM, VER 0,3	MACRO %53(1020) 10:47 19-Feb-79 Page 111
SMFILE	MAC	19-Feb-79 10:46		PROCESS ".ULD" MICROCODE                                                           SEQ 0150

  4195					;*KSXX, CRAM PARITY COMPUTE SUBROUTINE
  4196
  4197	007721'	200 14 0 00 015300'	KSXX:	MOVE	STPNTR,[POINT 1,AC10]
  4198	007722'	201 00 0 00 000044 		MOVEI	0,^D36
  4199	007723'	400 01 0 00 000000 		SETZ	T1,
  4200	007724'	200 02 0 00 015274'		MOVE	T2,[ILDB T6,STPNTR]
  4201	007725'	200 03 0 00 015301'		MOVE	T3,[ADD T1,T6]
  4202	007726'	200 04 0 00 015302'		MOVE	T4,[SOJG 0,T2]
  4203	007727'	200 05 0 00 015303'		MOVE	T5,[JRST KSXX1]
  4204	007730'	254 00 0 00 000002 		JRST	T2		;COMPUTE CRAM PARITY "CRA"
  4205
  4206	007731'	650 01 0 00 016570'	KSXX1:	TDC	T1,PARFLG
  4207	007732'	137 01 0 00 010154'		DPB	T1,PB.CRA
  4208
  4209	007733'	201 00 0 00 000074 		MOVEI	0,^D60
  4210	007734'	400 01 0 00 000000 		SETZ	T1,
  4211	007735'	200 05 0 00 015304'		MOVE	T5,[JRST KSXX2]
  4212	007736'	254 00 0 00 000002 		JRST	T2		;COMPUTE CRAM PARITY "CRM"
  4213
  4214	007737'	650 01 0 00 016570'	KSXX2:	TDC	T1,PARFLG
  4215	007740'	137 01 0 00 010155'		DPB	T1,PB.CRM
  4216
  4217	007741'	200 06 0 00 021033'		MOVE	T6,CRAMT6
  4218	007742'	200 01 0 00 000011 		MOVE	T1,AC11
  4219	007743'	200 02 0 00 000012 		MOVE	T2,AC12
  4220	007744'	246 01 0 00 777764 		LSHC	T1,-^D12
  4221	007745'	202 02 0 06 000000 		MOVEM	T2,(T6)		;STORE BITS 60-95
  4222
  4223	007746'	200 01 0 00 000010 		MOVE	T1,AC10
  4224	007747'	200 02 0 00 000011 		MOVE	T2,AC11
  4225	007750'	246 01 0 00 777764 		LSHC	T1,-^D12
  4226	007751'	202 02 0 06 000001 		MOVEM	T2,1(T6)	;STORE BITS 24-59
  4227
  4228	007752'	200 02 0 00 000010 		MOVE	T2,AC10
  4229	007753'	242 02 0 00 777764 		LSH	T2,-^D12
  4230	007754'	202 02 0 06 000002 		MOVEM	T2,2(T6)	;STORE BITS 0-23
  4231
  4232	007755'	263 17 0 00 000000 		RTN
SMFILE	DECSYSTEM 2020 DIAGNOSTICS FE-FILE PROGRAM, VER 0,3	MACRO %53(1020) 10:47 19-Feb-79 Page 112
SMFILE	MAC	19-Feb-79 10:46		PROCESS ".ULD" MICROCODE                                                           SEQ 0151

  4233
  4234	007756'	260 17 0 00 010162'	READ.5:	GO	RDBYTE
  4235	007757'	302 01 0 00 000116 		CAIE	T1,"N"
  4236	007760'	254 00 0 00 007651'		JRST	READ.1
  4237	007761'	260 17 0 00 010162'		GO	RDBYTE
  4238	007762'	302 01 0 00 000104 		CAIE	T1,"D"
  4239	007763'	254 00 0 00 007651'		JRST	READ.1
  4240
  4241	007764'	476 00 0 00 016572'		SETOM	RDFLAG
  4242
  4243	007765'	336 00 0 00 000302'		SKIPN	MONTYP
  4244	007766'	254 00 0 00 007015'		JRST	R10EOF
  4245
  4246	007767'	474 01 0 00 000000 		SETO	T1,
  4247	007770'	200 02 0 00 015305'		MOVE	T2,[.FHSLF,,<IPAG_-^D9>]
  4248	007771'	400 03 0 00 000000 		SETZ	T3,
  4249
  4250	007772'	104 00 0 00 000056 		PMAP			;RELEASE LAST INPUT PAGE
  4251						ERJMP	[JSERR
  4252	007773'	320 16 0 00 014127'			 JRST	START]
  4253
  4254	007774'	554 01 0 00 021162'		HLRZ	T1,UCFILE
  4255	007775'	104 00 0 00 000022 		CLOSF
  4256	007776'	260 17 0 00 014746'		ERR	<CAN NOT CLOSE MICROCODE FILE>
  4257
  4258	007777'	263 17 0 00 000000 		RTN
SMFILE	DECSYSTEM 2020 DIAGNOSTICS FE-FILE PROGRAM, VER 0,3	MACRO %53(1020) 10:47 19-Feb-79 Page 113
SMFILE	MAC	19-Feb-79 10:46		PROCESS ".ULD" MICROCODE                                                           SEQ 0152

  4259					DEFINE	CRMBIT(BIT),<
  4260					  IFL BIT-^D36,<
  4261						POINT	1,AC10,BIT
  4262					  >
  4263					  IFGE BIT-^D36,<
  4264					    IFL BIT-^D72,<
  4265						POINT	1,AC11,BIT-^D36
  4266					    >
  4267					    IFGE BIT-^D72,<
  4268						POINT	1,AC12,BIT-^D72
  4269					    >
  4270					  >
  4271					>
  4272
  4273					DEFINE	CRMRNG(FROM,TO),<
  4274						ZZ..==FROM
  4275					  REPEAT TO-FROM+1,<
  4276						CRMBIT	\ZZ..
  4277						ZZ..==ZZ..+1
  4278					  >
  4279					>
  4280
  4281						RADIX	10
  4282	010000'	43 01 0 00 000010 	KSCRMP:	CRMRNG	0,11	;J
  4283	010001'	42 01 0 00 000010
  4284	010002'	41 01 0 00 000010
  4285	010003'	40 01 0 00 000010
  4286	010004'	37 01 0 00 000010
  4287	010005'	36 01 0 00 000010
  4288	010006'	35 01 0 00 000010
  4289	010007'	34 01 0 00 000010
  4290	010010'	33 01 0 00 000010
  4291	010011'	32 01 0 00 000010
  4292	010012'	31 01 0 00 000010
  4293	010013'	30 01 0 00 000010
  4294	010014'	13 01 0 00 000011 		CRMRNG	60,68	;ALU LSRC RSRC
  4295	010015'	12 01 0 00 000011
  4296	010016'	11 01 0 00 000011
  4297	010017'	10 01 0 00 000011
  4298	010020'	07 01 0 00 000011
  4299	010021'	06 01 0 00 000011
  4300	010022'	05 01 0 00 000011
  4301	010023'	04 01 0 00 000011
  4302	010024'	03 01 0 00 000011
  4303	010025'	24 01 0 00 000012 		CRMRNG	87,89	;DEST
  4304	010026'	23 01 0 00 000012
  4305	010027'	22 01 0 00 000012
  4306	010030'	00 01 0 00 000012 		CRMBIT	107
  4307	010031'	00 01 0 00 000012 		CRMBIT	107
  4308	010032'	41 01 0 00 000012 		CRMRNG	74,77	;A
  4309	010033'	40 01 0 00 000012
  4310	010034'	37 01 0 00 000012
  4311	010035'	36 01 0 00 000012
  4312
SMFILE	DECSYSTEM 2020 DIAGNOSTICS FE-FILE PROGRAM, VER 0,3	MACRO %53(1020) 10:47 19-Feb-79 Page 114
SMFILE	MAC	19-Feb-79 10:46		PROCESS ".ULD" MICROCODE                                                           SEQ 0153

  4313	010036'	00 01 0 00 000012 		CRMBIT	107
  4314	010037'	00 01 0 00 000012 		CRMBIT	107
  4315	010040'	33 01 0 00 000012 		CRMRNG	80,83	;B
  4316	010041'	32 01 0 00 000012
  4317	010042'	31 01 0 00 000012
  4318	010043'	30 01 0 00 000012
  4319	010044'	27 01 0 00 000012 		CRMRNG	84,86	;RAMADR
  4320	010045'	26 01 0 00 000012
  4321	010046'	25 01 0 00 000012
  4322	010047'	00 01 0 00 000012 		CRMBIT	107
  4323	010050'	43 01 0 00 000012 		CRMRNG	72,73	;DBUS
  4324	010051'	42 01 0 00 000012
  4325	010052'	02 01 0 00 000011 		CRMRNG	69,71	;DBM
  4326	010053'	01 01 0 00 000011
  4327	010054'	00 01 0 00 000011
  4328	010055'	35 01 0 00 000012 		CRMBIT	78	;DP CLOCK L
  4329	010056'	25 01 0 00 000011 		CRMBIT	50	;PAR EN L
  4330	010057'	17 01 0 00 000012 		CRMBIT	92	;PAR CK L
  4331	010060'	34 01 0 00 000012 		CRMBIT	79	;DP CLOCK R
  4332	010061'	24 01 0 00 000011 		CRMBIT	51	;PAR EN R
  4333	010062'	16 01 0 00 000012 		CRMBIT	93	;PAR CK R
  4334	010063'	21 01 0 00 000010 		CRMRNG	18,20	;SPEC
  4335	010064'	20 01 0 00 000010
  4336	010065'	17 01 0 00 000010
  4337	010066'	05 01 0 00 000010 		CRMRNG	30,32
  4338	010067'	04 01 0 00 000010
  4339	010070'	03 01 0 00 000010
  4340	010071'	16 01 0 00 000010 		CRMRNG	21,23	;DISP
  4341	010072'	15 01 0 00 000010
  4342	010073'	14 01 0 00 000010
  4343	010074'	10 01 0 00 000010 		CRMRNG	27,29
  4344	010075'	07 01 0 00 000010
  4345	010076'	06 01 0 00 000010
  4346	010077'	24 01 0 00 000010 		CRMRNG	15,17	;SKIP
  4347	010100'	23 01 0 00 000010
  4348	010101'	22 01 0 00 000010
  4349	010102'	02 01 0 00 000010 		CRMRNG	33,35
  4350	010103'	01 01 0 00 000010
  4351	010104'	00 01 0 00 000010
  4352	010105'	00 01 0 00 000012 		CRMBIT	107
  4353	010106'	27 01 0 00 000010 		CRMRNG	12,13	;T
  4354	010107'	26 01 0 00 000010
  4355	010110'	12 01 0 00 000010 		CRMBIT	25	;CRY 38
  4356	010111'	21 01 0 00 000012 		CRMRNG	90,91	;SC & FE
  4357	010112'	20 01 0 00 000012
  4358	010113'	27 01 0 00 000011 		CRMBIT	48	;FM WRITE
  4359	010114'	11 01 0 00 000010 		CRMBIT	26	;MEM
  4360	010115'	23 01 0 00 000011 		CRMRNG	52,53	;DIVIDE AND MULTI PREC
  4361	010116'	22 01 0 00 000011
  4362	010117'	26 01 0 00 000011 		CRMBIT	49	;MULTI SHIFT
  4363	010120'	25 01 0 00 000010 		CRMBIT	14	;CALL
  4364
SMFILE	DECSYSTEM 2020 DIAGNOSTICS FE-FILE PROGRAM, VER 0,3	MACRO %53(1020) 10:47 19-Feb-79 Page 115
SMFILE	MAC	19-Feb-79 10:46		PROCESS ".ULD" MICROCODE                                                           SEQ 0154

  4365	010121'	00 01 0 00 000012 		CRMBIT	107
  4366	010122'	00 01 0 00 000012 		CRMBIT	107
  4367	010123'	00 01 0 00 000012 		CRMBIT	107
  4368	010124'	00 01 0 00 000012 		CRMBIT	107
  4369	010125'	00 01 0 00 000012 		CRMBIT	107
  4370	010126'	00 01 0 00 000012 		CRMBIT	107
  4371	010127'	00 01 0 00 000012 		CRMBIT	107
  4372	010130'	00 01 0 00 000012 		CRMBIT	107
  4373	010131'	00 01 0 00 000012 		CRMBIT	107
  4374	010132'	21 01 0 00 000011 		CRMRNG	54,59	; #
  4375	010133'	20 01 0 00 000011
  4376	010134'	17 01 0 00 000011
  4377	010135'	16 01 0 00 000011
  4378	010136'	15 01 0 00 000011
  4379	010137'	14 01 0 00 000011
  4380	010140'	43 01 0 00 000011 		CRMRNG	36,47
  4381	010141'	42 01 0 00 000011
  4382	010142'	41 01 0 00 000011
  4383	010143'	40 01 0 00 000011
  4384	010144'	37 01 0 00 000011
  4385	010145'	36 01 0 00 000011
  4386	010146'	35 01 0 00 000011
  4387	010147'	34 01 0 00 000011
  4388	010150'	33 01 0 00 000011
  4389	010151'	32 01 0 00 000011
  4390	010152'	31 01 0 00 000011
  4391	010153'	30 01 0 00 000011
  4392
  4393	010154'	13 01 0 00 000010 	PB.CRA:	CRMBIT	24
  4394	010155'	15 01 0 00 000012 	PB.CRM:	CRMBIT	94
  4395						RADIX	8
SMFILE	DECSYSTEM 2020 DIAGNOSTICS FE-FILE PROGRAM, VER 0,3	MACRO %53(1020) 10:47 19-Feb-79 Page 116
SMFILE	MAC	19-Feb-79 10:46		PROCESS ".ULD" MICROCODE                                                           SEQ 0155

  4396					;*SUBROUTINE TO FILE END OF LINE
  4397					;*CALL WITH:
  4398					;*	GO	RDEOL
  4399					;*	RETURN HERE
  4400
  4401	010156'	260 17 0 00 010162'	RDEOL:	GO	RDBYTE
  4402	010157'	306 01 0 00 000012 		CAIN	T1,12
  4403	010160'	263 17 0 00 000000 		RTN
  4404	010161'	254 00 0 00 010156'		JRST	RDEOL
  4405
  4406	010162'	373 00 0 00 021173'	RDBYTE:	SOSLE	IBF+1
  4407	010163'	254 00 0 00 010166'		JRST	.+3
  4408	010164'	260 17 0 00 010171'		GO	RDUINP		;GET NEXT FILE PAGE
  4409	010165'	260 17 0 00 015312'		ERR	<MICROCODE ERROR EOF>
  4410
  4411	010166'	134 01 0 00 021172'		ILDB	T1,IBF		;GET FILE BYTE
  4412	010167'	322 01 0 00 010162'		JUMPE	T1,RDBYTE	;IGNORE NULLS
  4413
  4414	010170'	263 17 0 00 000000 		RTN
  4415
  4416	010171'	336 00 0 00 000302'	RDUINP:	SKIPN	MONTYP
  4417	010172'	254 00 0 00 010211'		JRST	RDUI10
  4418	010173'	375 00 0 00 021051'		SOSGE	INCNT		;COUNT DOWN PAGE COUNT
  4419	010174'	263 17 0 00 000000 		RTN			;NONE LEFT, EOF
  4420
  4421	010175'	200 01 0 00 021162'		MOVE	T1,UCFILE
  4422	010176'	200 02 0 00 015314'		MOVE	T2,[.FHSLF,,<IPAG_-^D9>]
  4423	010177'	400 03 0 00 000000 		SETZ	T3,
  4424
  4425	010200'	104 00 0 00 000056 		PMAP			;GET NEXT FILE PAGE
  4426						ERJMP	[JSERR
  4427	010201'	320 16 0 00 014127'			 JRST	START]
  4428
  4429	010202'	201 00 0 00 005000 		MOVEI	1000*5
  4430	010203'	202 00 0 00 021173'		MOVEM	IBF+1		;SET BYTE COUNT
  4431
  4432	010204'	200 00 0 00 015315'		MOVE	[POINT 7,IPAG]
  4433	010205'	202 00 0 00 021172'		MOVEM	IBF		;SET BYTE POINTER
  4434
  4435	010206'	350 00 0 00 021162'		AOS	UCFILE		;INCREMENT FILE PAGE NUMBER
  4436	010207'	350 00 0 17 000000 		AOS	(P)
  4437	010210'	263 17 0 00 000000 		RTN
  4438
  4439	010211'	260 17 0 00 006764'	RDUI10:	GO	GET10
  4440	010212'	202 03 0 00 021062'		MOVEM	T3,RDUIBF#
  4441	010213'	335 00 0 00 021040'		SKIPGE	EOFSW
  4442	010214'	263 17 0 00 000000 		RTN
  4443	010215'	201 00 0 00 000005 		MOVEI	5
  4444	010216'	202 00 0 00 021173'		MOVEM	IBF+1
  4445	010217'	200 00 0 00 015316'		MOVE	[POINT 7,RDUIBF]
  4446	010220'	202 00 0 00 021172'		MOVEM	IBF
  4447	010221'	350 00 0 17 000000 		AOS	(P)
  4448	010222'	263 17 0 00 000000 		RTN
SMFILE	DECSYSTEM 2020 DIAGNOSTICS FE-FILE PROGRAM, VER 0,3	MACRO %53(1020) 10:47 19-Feb-79 Page 117
SMFILE	MAC	19-Feb-79 10:46		COMMANDS -- OUTPUT                                                                 SEQ 0156

  4449					SUBTTL	COMMANDS -- OUTPUT
  4450
  4451	010223'	000004	000004			SCMTAB	OUTCMD
  4452	010224'	013547'	010244'			CMTAB	BC1,OUTBC1
  4453	010225'	013550'	010246'			CMTAB	CRAM,OUTRAM
  4454	010226'	015317'	010373'			CMTAB	MTBOOT,OUTMT
  4455	010227'	014734'	010246'			CMTAB	RAM,OUTRAM
  4456						ECMTAB
  4457
  4458	010230'				OUTX:	CMD	[FLDDB.(.CMKEY,,OUTCMD)],<CAN NOT OUTPUT THAT>
  4459	010242'	550 01 0 02 000000 		HRRZ	T1,(T2)
  4460	010243'	254 00 0 01 000000 		JRST	(T1)
SMFILE	DECSYSTEM 2020 DIAGNOSTICS FE-FILE PROGRAM, VER 0,3	MACRO %53(1020) 10:47 19-Feb-79 Page 118
SMFILE	MAC	19-Feb-79 10:46		COMMANDS -- OUTPUT                                                                 SEQ 0157

  4461					;*OUTRAM, OUTPUT MICROCODE ".RAM" FILE
  4462
  4463	010244'	476 00 0 00 021027'	OUTBC1:	SETOM	BC1FLG
  4464	010245'	254 00 0 00 010247'		JRST	OUTRAM+1
  4465	010246'	402 00 0 00 021027'	OUTRAM:	SETZM	BC1FLG
  4466	010247'					NOISE	<MICROCODE INTO .RAM FILE>
  4467	010261'	561 01 0 00 014713'		HRROI	T1,[ASCIZ "KS10"]
  4468	010262'	202 01 0 00 016410'		MOVEM	T1,GTJFIL
  4469	010263'	561 01 0 00 014734'		HRROI	T1,[ASCIZ "RAM"]
  4470	010264'	202 01 0 00 016411'		MOVEM	T1,GTJEXT
  4471	010265'	402 00 0 00 016406'		SETZM	GTJDEV
  4472	010266'	402 00 0 00 016407'		SETZM	GTJDIR
  4473	010267'	205 01 0 00 400000 		MOVSI	T1,(GJ%FOU)
  4474	010270'	202 01 0 00 016404'		MOVEM	T1,GTJFLG
  4475
  4476	010271'					CMD	[FLDDB.(.CMFIL)]
  4477	010302'	202 02 0 00 021057'		MOVEM	T2,OUTJFN#
  4478
  4479	010303'	260 17 0 00 000623'		CONFIRM
  4480
  4481	010304'	336 00 0 00 000302'		SKIPN	MONTYP
  4482	010305'	254 00 0 00 010333'		JRST	ORAM10		;TOPS-10
  4483
  4484	010306'	200 01 0 00 021057'		MOVE	T1,OUTJFN
  4485	010307'	201 02 0 00 100000 		MOVEI	T2,OF%WR
  4486	010310'	104 00 0 00 000021 		OPENF
  4487	010311'	260 17 0 00 015366'		 ERR	<CAN NOT OPEN MICROCODE OUTPUT FILE>
  4488
  4489	010312'	336 00 0 00 021027'		SKIPN	BC1FLG
  4490	010313'	201 06 0 00 401000 		MOVEI	T6,CRAM
  4491	010314'	332 00 0 00 021027'		SKIPE	BC1FLG
  4492	010315'	201 06 0 00 417000 		MOVEI	T6,CRMBC1
  4493	010316'	201 05 0 00 004000 		MOVEI	T5,4000
  4494	010317'	200 02 0 06 000000 	OUTLP:	MOVE	T2,(T6)
  4495	010320'	104 00 0 00 000051 		BOUT
  4496	010321'	200 02 0 06 000001 		MOVE	T2,1(T6)
  4497	010322'	104 00 0 00 000051 		BOUT
  4498	010323'	200 02 0 06 000002 		MOVE	T2,2(T6)
  4499	010324'	104 00 0 00 000051 		BOUT
  4500
  4501	010325'	271 06 0 00 000003 		ADDI	T6,3
  4502	010326'	367 05 0 00 010317'		SOJG	T5,OUTLP
  4503
  4504	010327'	200 01 0 00 021057'		MOVE	T1,OUTJFN
  4505	010330'	104 00 0 00 000022 		CLOSF
  4506	010331'	260 17 0 00 015400'		 ERR	<CAN NOT CLOSE MICROCODE OUTPUT FILE>
  4507
  4508	010332'	263 17 0 00 000000 		RTN
SMFILE	DECSYSTEM 2020 DIAGNOSTICS FE-FILE PROGRAM, VER 0,3	MACRO %53(1020) 10:47 19-Feb-79 Page 119
SMFILE	MAC	19-Feb-79 10:46		COMMANDS -- OUTPUT                                                                 SEQ 0158

  4509					;*TOPS-10 OUTPUT MICRO-CODE ".RAM" FILE
  4510
  4511	010333'	200 01 0 00 006755'	ORAM10:	MOVE	T1,MC.VER
  4512	010334'	202 01 0 00 006051'		MOVEM	T1,O.VER
  4513	010335'	200 01 0 00 006756'		MOVE	T1,MC.TIME
  4514	010336'	202 01 0 00 006050'		MOVEM	T1,O.TIME
  4515	010337'	200 01 0 00 006757'		MOVE	T1,MC.DATE
  4516	010340'	202 01 0 00 006047'		MOVEM	T1,O.DATE
  4517	010341'	402 00 0 00 006045'		SETZM	O.PRT
  4518
  4519	010342'	200 01 0 00 016406'		MOVE	T1,GTJDEV
  4520	010343'	202 01 0 00 006042'		MOVEM	T1,O.DEV
  4521	010344'	200 01 0 00 016410'		MOVE	T1,GTJFIL
  4522	010345'	202 01 0 00 006043'		MOVEM	T1,O.NAM1
  4523	010346'	200 01 0 00 016411'		MOVE	T1,GTJEXT
  4524	010347'	202 01 0 00 006044'		MOVEM	T1,O.EXT
  4525	010350'	200 01 0 00 016407'		MOVE	T1,GTJDIR
  4526	010351'	202 01 0 00 006046'		MOVEM	T1,O.PPN
  4527
  4528	010352'	260 17 0 00 007113'		GO	OPNWRT		;OPEN OUTPUT
  4529	010353'	260 17 0 00 015406'		ERR	<OUTPUT OPEN FAILURE>
  4530
  4531	010354'	201 02 0 00 000014 		MOVEI	T2,^D12
  4532	010355'	336 00 0 00 021027'		SKIPN	BC1FLG
  4533	010356'	200 03 0 00 015410'		MOVE	T3,[CRAM,,IPAG]
  4534	010357'	332 00 0 00 021027'		SKIPE	BC1FLG
  4535	010360'	200 03 0 00 015411'		MOVE	T3,[CRMBC1,,IPAG]
  4536
  4537	010361'	200 01 0 00 000003 	ORAM11:	MOVE	T1,T3
  4538	010362'	251 01 0 00 022637'		BLT	T1,IPAG+777
  4539	010363'	205 01 0 00 001000 		MOVSI	T1,^D512
  4540	010364'	270 03 0 00 000001 		ADD	T3,T1
  4541
  4542						OUT	WC,[IOWD ^D512,IPAG
  4543	010365'	057 03 0 00 014366'			    0]
  4544	010366'	334 00 0 00 000000 		SKIPA
  4545	010367'	260 17 0 00 015417'		ERR	<MICROCODE OUTPUT ERROR>
  4546
  4547	010370'	367 02 0 00 010361'		SOJG	T2,ORAM11
  4548
  4549	010371'	260 17 0 00 007022'		GO	W10EOF
  4550
  4551	010372'	263 17 0 00 000000 		RTN
SMFILE	DECSYSTEM 2020 DIAGNOSTICS FE-FILE PROGRAM, VER 0,3	MACRO %53(1020) 10:47 19-Feb-79 Page 120
SMFILE	MAC	19-Feb-79 10:46		COMMANDS -- OUTPUT                                                                 SEQ 0159

  4552					;*OUTMT, OUTPUT MAGTAPE ".RDI" FILE
  4553
  4554	010373'	561 01 0 00 015317'	OUTMT:HRROI	T1,[ASCIZ "MTBOOT"]
  4555	010374'	202 01 0 00 016410'		MOVEM	T1,GTJFIL
  4556
  4557	010375'	561 01 0 00 014216'		HRROI	T1,[ASCIZ "EXE"]
  4558	010376'	202 01 0 00 016411'		MOVEM	T1,GTJEXT
  4559
  4560	010377'	402 00 0 00 016406'		SETZM	GTJDEV
  4561	010400'	402 00 0 00 016407'		SETZM	GTJDIR
  4562
  4563	010401'	205 01 0 00 100000 		MOVSI	T1,(GJ%OLD)
  4564	010402'	202 01 0 00 016404'		MOVEM	T1,GTJFLG
  4565
  4566	010403'					CMD	[FLDDB.(.CMFIL)]
  4567	010414'	202 02 0 00 002522'		MOVEM	T2,BTJFN	;SAVE THE JFN OF THE BOOT FILE
  4568
  4569	010415'	336 00 0 00 000302'		SKIPN	MONTYP
  4570	010416'	260 17 0 00 010615'		GO	OMT10		;TOPS-10
  4571
  4572	010417'					NOISE	<AS>
  4573	010431'	561 01 0 00 015317'		HRROI	T1,[ASCIZ "MTBOOT"]
  4574	010432'	202 01 0 00 016410'		MOVEM	T1,GTJFIL
  4575	010433'	561 01 0 00 015440'		HRROI	T1,[ASCIZ "RDI"]
  4576	010434'	202 01 0 00 016411'		MOVEM	T1,GTJEXT
  4577	010435'	402 00 0 00 016406'		SETZM	GTJDEV
  4578	010436'	402 00 0 00 016407'		SETZM	GTJDIR
  4579	010437'	205 01 0 00 400000 		MOVSI	T1,(GJ%FOU)
  4580	010440'	202 01 0 00 016404'		MOVEM	T1,GTJFLG
  4581
  4582	010441'					CMD	[FLDDB.(.CMFIL)]
  4583	010452'	202 02 0 00 021054'		MOVEM	T2,MTJFN#
  4584
  4585	010453'	260 17 0 00 000623'		CONFIRM
  4586
  4587	010454'	336 00 0 00 000302'		SKIPN	MONTYP
  4588	010455'	254 00 0 00 010630'		JRST	OMT10A		;TOPS-10
  4589
  4590	010456'	200 01 0 00 021054'		MOVE	T1,MTJFN
  4591	010457'	201 02 0 00 100000 		MOVEI	T2,OF%WR
  4592	010460'	104 00 0 00 000021 		OPENF
  4593	010461'	260 17 0 00 015456'		 ERR	<CAN NOT OPEN MAGTAPE RDI OUTPUT FILE>
SMFILE	DECSYSTEM 2020 DIAGNOSTICS FE-FILE PROGRAM, VER 0,3	MACRO %53(1020) 10:47 19-Feb-79 Page 121
SMFILE	MAC	19-Feb-79 10:46		COMMANDS -- OUTPUT                                                                 SEQ 0160

  4594	010462'	403 01 0 00 000002 		SETZB	T1,T2		;CREATE A BLANK FORK
  4595	010463'	104 00 0 00 000152 		CFORK
  4596						ERJMP	[JSERR		;ERROR ON CFORK
  4597	010464'	320 16 0 00 014234'			HALTF]
  4598	010465'	202 01 0 00 002525'		MOVEM	T1,FORKN	;SAVE FORK
  4599
  4600	010466'	550 01 0 00 002522'		HRRZ	T1,BTJFN	;GET THE JFN OF THE BOOT
  4601	010467'	504 01 0 00 002525'		HRL	T1,FORKN	;GET PROCESS HANDLE
  4602	010470'	400 02 0 00 000000 		SETZ	T2,0
  4603	010471'	104 00 0 00 000200 		GET
  4604						ERJMP	[JSERR		;ERROR ON GET
  4605	010472'	320 16 0 00 014127'			JRST START]
  4606
  4607	010473'	200 01 0 00 002525'		MOVE	T1,FORKN
  4608	010474'	104 00 0 00 000205 		GEVEC			;GET THE VECTOR OF BOOT
  4609	010475'	202 02 0 00 002524'		MOVEM	T2,BOOTEV	;SAVE BOOT ENTRY VECTOR ADDRESS
  4610
  4611	010476'	402 00 0 00 434000 		SETZM	WINDOW
  4612	010477'	200 00 0 00 014247'		MOVE	[WINDOW,,WINDOW+1]
  4613	010500'	251 00 0 00 434777 		BLT	WINDOW+777	;CLEAR DIAG PRE-BOOT PAGE
  4614
  4615	010501'	402 00 0 00 011304'		SETZM	MTPAGD
  4616	010502'	200 00 0 00 015460'		MOVE	[MTPAGD,,MTPAGD+1]
  4617	010503'	251 00 0 00 011404'		BLT	MTPAGX		;CLEAR PRE-BOOT POINTER STORAGE
  4618
  4619	010504'	200 04 0 00 014236'		MOVE	T4,[-1000,,0]	;ALLOW FOR 1000 PAGES
  4620
  4621	010505'	514 13 0 00 021054'		HRLZ	P1,MTJFN	;GET JFN OF .RDI FILE
  4622	010506'	541 13 0 00 000001 		HRRI	P1,1		;GET MTBOOT START PAGE
  4623
  4624	010507'	201 14 0 00 011305'		MOVEI	P2,MTPAGD+1
SMFILE	DECSYSTEM 2020 DIAGNOSTICS FE-FILE PROGRAM, VER 0,3	MACRO %53(1020) 10:47 19-Feb-79 Page 122
SMFILE	MAC	19-Feb-79 10:46		COMMANDS -- OUTPUT                                                                 SEQ 0161

  4625	010510'	514 01 0 00 002525'	MTPGLP:	HRLZ	T1,FORKN	;GET PROCESS HANDLE
  4626	010511'	540 01 0 00 000004 		HRR	T1,T4		;GET PAGE NUMBER
  4627	010512'	104 00 0 00 000057 		RPACS			;READ PAGE ACCESS
  4628	010513'	612 02 0 00 014237'		TDNE	T2,[PA%RD!PA%PEX]
  4629	010514'	260 17 0 00 010557'		GO	MTCOPPG		;COPY PAGE
  4630
  4631	010515'	253 04 0 00 010510'		AOBJN	T4,MTPGLP	;TRY ANOTHER PAGE
  4632
  4633	010516'	476 00 0 14 000000 		SETOM	(P2)		;INDICATE END OF SPACE
  4634
  4635	010517'	200 01 0 00 002524'		MOVE	T1,BOOTEV	;FIND ENTRY VECTOR
  4636	010520'	552 01 0 14 000001 		HRRZM	T1,1(P2)	;SET ENTRY VECTOR
  4637
  4638	010521'	200 00 0 00 015461'		MOVE	[MTSTR1,,WINDOW]
  4639	010522'	251 00 0 00 434406 		BLT	WINDOW+<MTPAGX-MTSTR1>
  4640
  4641	010523'	200 01 0 00 014250'		MOVE	T1,[.FHSLF,,<WINDOW_-^D9>]
  4642	010524'	514 02 0 00 021054'		HRLZ	T2,MTJFN
  4643	010525'	541 02 0 00 000000 		HRRI	T2,0
  4644	010526'	200 03 0 00 014472'		MOVE	T3,[PM%WR]
  4645	010527'	104 00 0 00 000056 		PMAP			;PUT MAGTAPE PRE-BOOT IN .RDI FILE
  4646						 ERJMP	[JSERR
  4647	010530'	320 16 0 00 014127'			 JRST	START]
  4648
  4649	010531'	200 01 0 00 002525'		MOVE	T1,FORKN
  4650	010532'	104 00 0 00 000153 		KFORK			;KILL "GET" FORK
  4651						 ERJMP	[JSERR
  4652	010533'	320 16 0 00 014127'			 JRST	START]
  4653
  4654	010534'	200 01 0 00 021054'		MOVE	T1,MTJFN
  4655	010535'	661 01 0 00 400000 		TLO	T1,(CO%NRJ)
  4656	010536'	104 00 0 00 000022 		CLOSF			;CLOSE FILE, KEEP JFN
  4657	010537'	260 17 0 00 015471'		 ERR	<CAN NOT CLOSE MAGTAPE RDI FILE>
SMFILE	DECSYSTEM 2020 DIAGNOSTICS FE-FILE PROGRAM, VER 0,3	MACRO %53(1020) 10:47 19-Feb-79 Page 123
SMFILE	MAC	19-Feb-79 10:46		COMMANDS -- OUTPUT                                                                 SEQ 0162

  4658	010540'	200 01 0 00 021054'		MOVE	T1,MTJFN
  4659	010541'	661 01 0 00 400011 		TLO	T1,(CF%NUD!<.FBBYV>B17)
  4660	010542'	200 02 0 00 013323'		MOVE	T2,[FB%BSZ]
  4661	010543'	205 03 0 00 004400 		MOVSI	T3,(^D36B11)
  4662	010544'	104 00 0 00 000064 		CHFDB			;UPDATE BYTE SIZE IN FDB
  4663
  4664	010545'	200 01 0 00 021054'		MOVE	T1,MTJFN
  4665	010546'	661 01 0 00 000012 		TLO	T1,(<.FBSIZ>B17)
  4666	010547'	200 02 0 00 013454'		MOVE	T2,[-1]
  4667	010550'	550 03 0 00 000013 		HRRZ	T3,P1
  4668	010551'	221 03 0 00 001000 		IMULI	T3,^D512
  4669	010552'	104 00 0 00 000064 		CHFDB			;UPDATE EOF POINTER IN FDB
  4670
  4671	010553'	200 01 0 00 021054'		MOVE	T1,MTJFN
  4672	010554'	104 00 0 00 000023 		RLJFN
  4673	010555'	260 17 0 00 015502'		 ERR	<CAN NOT RELEASE MAGTAPE RDI JFN>
  4674
  4675	010556'	263 17 0 00 000000 		RTN
SMFILE	DECSYSTEM 2020 DIAGNOSTICS FE-FILE PROGRAM, VER 0,3	MACRO %53(1020) 10:47 19-Feb-79 Page 124
SMFILE	MAC	19-Feb-79 10:46		COMMANDS -- OUTPUT                                                                 SEQ 0163

  4676	010557'	552 01 0 14 000000 	MTCOPPG:HRRZM	T1,0(P2)	;SET A POINTER TO PAGE NUMBER
  4677	010560'	350 00 0 00 000014 		AOS	P2		;POINT TO NEXT
  4678	010561'	261 17 0 00 000001 		PUT	T1
  4679	010562'	550 03 0 00 000001 		HRRZ	T3,T1		;FIND THE PAGE
  4680
  4681	010563'	402 00 0 00 021060'		SETZM	PAG0FLG#
  4682	010564'	306 03 0 00 000001 		CAIN	T3,1		;IS THIS PAGE 1 ?
  4683	010565'	260 17 0 00 014300'		ERR	<CAN'T OVERLOAD PRE-BOOT PAGE>
  4684	010566'	306 03 0 00 000000 		CAIN	T3,0		;IS THIS PAGE 0 ?
  4685	010567'	476 00 0 00 021060'		SETOM	PAG0FLG		;IF PAGE 0 OF FILE, SET FLAG
  4686
  4687	010570'	504 01 0 00 002525'		HRL	T1,FORKN	;GET FORK NUMBER
  4688	010571'	540 01 0 00 000003 		HRR	T1,T3		;GET PAGE NUMBER
  4689	010572'	200 02 0 00 014302'		MOVE	T2,[.FHSLF,,<GENPAG_-^D9>]
  4690	010573'	200 03 0 00 014303'		MOVE	T3,[PM%RD]
  4691	010574'	104 00 0 00 000056 		PMAP			;GET PAGE IN SELF
  4692						ERJMP	[JSERR
  4693	010575'	320 16 0 00 014127'			JRST START]
  4694
  4695	010576'	200 03 0 00 014305'		MOVE	T3,[GENPAG,,IPAG]
  4696	010577'	251 03 0 00 022637'		BLT	T3,IPAG+777
  4697
  4698	010600'	336 00 0 00 021060'		SKIPN	PAG0FLG		;IS THIS PAGE 0 ?
  4699	010601'	254 00 0 00 010605'		JRST	.+4		;NO
  4700	010602'	402 00 0 00 021671'		SETZM	IPAG+KPALIVE	;YES, ZERO 8080 COMM AREA
  4701	010603'	200 01 0 00 014401'		MOVE	T1,[IPAG+KPALIVE,,IPAG+KPALIVE+1]
  4702	010604'	251 01 0 00 021700'		BLT	T1,IPAG+MSSLAVE
  4703
  4704	010605'	200 01 0 00 015504'		MOVE	T1,[.FHSLF,,<IPAG_-^D9>]
  4705	010606'	200 02 0 00 000013 		MOVE	T2,P1		;SET UP PMAP ARGUMENTS
  4706	010607'	205 03 0 00 040000 		MOVSI	T3,(PM%WR)
  4707	010610'	104 00 0 00 000056 		PMAP
  4708						ERJMP	[JSERR
  4709	010611'	320 16 0 00 014127'			JRST START]	;JSYS ERROR
  4710
  4711	010612'	262 17 0 00 000003 		GETIT	T3		;REMOVE PAGE NUMBER
  4712	010613'	350 00 0 00 000013 		AOS	P1		;UPDATE P1 ARGUMENTS
  4713	010614'	263 17 0 00 000000 		RTN			;RETURN
SMFILE	DECSYSTEM 2020 DIAGNOSTICS FE-FILE PROGRAM, VER 0,3	MACRO %53(1020) 10:47 19-Feb-79 Page 125
SMFILE	MAC	19-Feb-79 10:46		COMMANDS -- OUTPUT                                                                 SEQ 0164

  4714					;*TOPS-10 OUTPUT MAGTAPE ".RDI" FILE
  4715
  4716	010615'	260 17 0 00 007027'	OMT10:	GO	OPNTEN		;OPEN INPUT FILE
  4717	010616'	260 17 0 00 014311'		ERR	<FILE NOT FOUND>
  4718
  4719	010617'	200 01 0 00 006667'		MOVE	T1,LOOK10+.RBVER ;USE INPUT VERSION AS OUTPUT VERSION
  4720	010620'	202 01 0 00 006760'		MOVEM	T1,MT.VER
  4721
  4722	010621'	135 01 0 00 014313'		LDB	T1,[POINT 11,LOOK10+.RBPRV,23]
  4723	010622'	202 01 0 00 006761'		MOVEM	T1,MT.TIME	;USE INPUT TIME AND DATE AS OUTPUT
  4724
  4725	010623'	135 01 0 00 014314'		LDB	T1,[POINT 3,LOOK10+.RBEXT,20]
  4726	010624'	137 01 0 00 015505'		DPB	T1,[POINT 3,MT.DATE,23]
  4727	010625'	135 01 0 00 014316'		LDB	T1,[POINT 12,LOOK10+.RBPRV,35]
  4728	010626'	137 01 0 00 015506'		DPB	T1,[POINT 12,MT.DATE,35]
  4729
  4730	010627'	263 17 0 00 000000 		RTN
  4731
  4732	010630'	200 01 0 00 006760'	OMT10A:	MOVE	T1,MT.VER
  4733	010631'	202 01 0 00 006051'		MOVEM	T1,O.VER
  4734	010632'	200 01 0 00 006761'		MOVE	T1,MT.TIME
  4735	010633'	202 01 0 00 006050'		MOVEM	T1,O.TIME
  4736	010634'	200 01 0 00 006762'		MOVE	T1,MT.DATE
  4737	010635'	202 01 0 00 006047'		MOVEM	T1,O.DATE
  4738	010636'	402 00 0 00 006045'		SETZM	O.PRT
  4739
  4740	010637'	200 01 0 00 016406'		MOVE	T1,GTJDEV
  4741	010640'	202 01 0 00 006042'		MOVEM	T1,O.DEV
  4742	010641'	200 01 0 00 016410'		MOVE	T1,GTJFIL
  4743	010642'	202 01 0 00 006043'		MOVEM	T1,O.NAM1
  4744	010643'	200 01 0 00 016411'		MOVE	T1,GTJEXT
  4745	010644'	202 01 0 00 006044'		MOVEM	T1,O.EXT
  4746	010645'	200 01 0 00 016407'		MOVE	T1,GTJDIR
  4747	010646'	202 01 0 00 006046'		MOVEM	T1,O.PPN
  4748
  4749	010647'	260 17 0 00 007113'		GO	OPNWRT		;OPEN OUTPUT
  4750	010650'	260 17 0 00 015406'		ERR	<OUTPUT OPEN FAILURE>
  4751
  4752	010651'	254 00 0 00 010652'		JRST	REDEXE
SMFILE	DECSYSTEM 2020 DIAGNOSTICS FE-FILE PROGRAM, VER 0,3	MACRO %53(1020) 10:47 19-Feb-79 Page 126
SMFILE	MAC	19-Feb-79 10:46		PROCESS TOPS-10 MAGTAPE BOOT EXE FILE                                              SEQ 0165

  4753					SUBTTL	PROCESS TOPS-10 MAGTAPE BOOT EXE FILE
  4754
  4755					;MISCELLANEOUS EQUATES
  4756
  4757			400000		PM.ACC==400000		;ALLOW ACCESS TO A PAGE
  4758			100000		PM.WRT==100000		;ALLOW A PAGE TO BE WRITTEN
  4759			400000		PG.LEB==400000		;LOAD THE EXEC BASE REGISTER
  4760			020000		PG.EAT==20000		;TURN ON THE PAGING HARDWARE (ENABLE TRAPS)
  4761			001000		PAGSIZ==^D512		;NUMBER OF WORDS IN A PAGE
  4762			000200		BLKSIZ==^D128		;NUMBER OF WORDS IN A BLOCK
  4763			000002		P2BLSH==2		;SHIFT AMOUNT TO CONVERT PAGES TO BLOCKS
  4764		777777	777776		B2PLSH==-2		;SHIFT AMOUNT TO CONVERT BLOCKS TO PAGES
  4765			000011		P2WLSH==^D9		;SHIFT AMOUNT TO CONVERT PAGES TO WORDS
  4766		777777	777767		W2PLSH==-^D9		;SHIFT AMOUNT TO CONVERT WORDS TO PAGES
  4767			001776		SV.DIR==1776		;DIRECTORY BLOCK CODE
  4768			001777		SV.END==1777		;END DIRECTORY BLOCK CODE
  4769
  4770			434000		DBUF=WINDOW		;EXE DIRECTORY PAGE
  4771
  4772			000010		Q=10
  4773			000012		N=12
  4774			000013		M=13
  4775			000014		K=14
SMFILE	DECSYSTEM 2020 DIAGNOSTICS FE-FILE PROGRAM, VER 0,3	MACRO %53(1020) 10:47 19-Feb-79 Page 127
SMFILE	MAC	19-Feb-79 10:46		PROCESS TOPS-10 MAGTAPE BOOT EXE FILE                                              SEQ 0166

  4776					;HERE TO READ AN EXE FILE
  4777
  4778	010652'	402 00 0 00 021066'	REDEXE:	SETZM	SELPAG#
  4779	010653'	260 17 0 00 010762'		GO	REDDIR		;READ THE DIRECTORY PAGE
  4780
  4781	010654'	554 01 0 00 434000 		HLRZ	A,DBUF		;DIRECTORY DESCRIPTOR
  4782	010655'	550 06 0 00 434000 		HRRZ	T6,DBUF		;LENGTH OF THE DIRECTORY
  4783	010656'	306 01 0 00 001776 		CAIN	A,SV.DIR	;IS THIS A DIRECTORY?
  4784	010657'	301 06 0 00 000200 		CAIL	T6,^D128	; WHICH IS LESS THAN OR EQUAL TO 128 WORDS LONG?
  4785	010660'	260 17 0 00 014347'		ERR	<NOT A DIRECTORY OR ONE WE CAN'T HANDLE>
  4786
  4787	010661'	211 06 0 06 777777 		MOVNI	T6,-1(T6)	;MAKE AN AOBJN POINTER TO THE DIRECTORY
  4788	010662'	505 06 0 00 434001 		HRLI	T6,DBUF+1	; ..
  4789	010663'	207 00 0 00 000006 		MOVSS	T6		; ..
  4790
  4791						OUT	WC,[IOWD ^D512,IPAG
  4792	010664'	057 03 0 00 014366'			    0]		;MAKE DUMMY FIRST PAGE FOR NOW
  4793	010665'	334 00 0 00 000000 		SKIPA
  4794	010666'	260 17 0 00 014373'		ERR	<WRITE ERROR>
  4795
  4796	010667'	201 14 0 00 011305'		MOVEI	P2,MTPAGD+1
  4797
  4798	010670'	200 13 0 06 000000 	REDEX2:	MOVE	M,(T6)		;BITS,,FILE PAGE NUMBER
  4799	010671'	321 13 0 00 010676'		JUMPL	M,REDEX3	;JUMP IF HI SEG PAGE, READ IT IMMEDIATELY
  4800									; ABOVE THE LOW SEGMENT
  4801
  4802	010672'	550 05 0 06 000001 		HRRZ	T5,1(T6)	;CORE PAGE NUMBER
  4803	010673'	242 05 0 00 000011 		LSH	T5,P2WLSH	;CORE ADDRESS
  4804	010674'	336 00 0 00 000005 		SKIPN	T5		;PAGE 0?
  4805	010675'	561 05 0 00 000000 		HRROI	T5,0		;YES, READ IT AND REMEMBER ITS PAGE 0
  4806
  4807	010676'	135 07 0 00 014351'	REDEX3:	LDB	T7,[POINT 9,1(T6),8]
  4808
  4809	010677'	606 13 0 00 777777 	REDEX4:	TRNN	M,-1		;AN ALLOCATED BUT ZERO PAGE?
  4810	010700'	364 13 0 00 010740'		SOJA	M,REDEX8	;YES, COUNT DOWN REPEAT COUNT AND UPDATE CORE ADDRESS
  4811	010701'	550 04 0 00 000013 		HRRZ	T4,M		;FILE PAGE NUMBER
  4812	010702'	242 04 0 00 000002 		LSH	T4,P2BLSH	;CONVERT TO BLOCK WITHIN THE FILE
  4813	010703'	315 04 0 00 021066'		CAMGE	T4,SELPAG	;FILE PAGE NUMBERS MUST BE MONOTONICALLY INCREASING
  4814	010704'	260 17 0 00 014364'		ERR	<PAGES IN EXE DIR AREN'T MONOTONICALLY INCREASING>
  4815
  4816	010705'	316 04 0 00 021066'	REDEX5:	CAMN	T4,SELPAG	;AT THE RIGHT BLOCK WITHIN THE FILE?
  4817	010706'	254 00 0 00 010711'		JRST	REDEX7		;YES
  4818
  4819	010707'	260 17 0 00 010761'	REDEX6:	GO	SELBLK		;BYPASS FILE PAGE
  4820	010710'	254 00 0 00 010705'		JRST	REDEX5		;SEE IF THERE YET
SMFILE	DECSYSTEM 2020 DIAGNOSTICS FE-FILE PROGRAM, VER 0,3	MACRO %53(1020) 10:47 19-Feb-79 Page 128
SMFILE	MAC	19-Feb-79 10:46		PROCESS TOPS-10 MAGTAPE BOOT EXE FILE                                              SEQ 0167

  4821
  4822	010711'	306 05 0 00 001000 	REDEX7:	CAIN	T5,1000
  4823	010712'	260 17 0 00 014300'		ERR	<CAN'T OVERLOAD PRE-BOOT PAGE>
  4824
  4825	010713'	260 17 0 00 010761'		GO	REDPAG		;READ EXE DATA PAGE
  4826
  4827	010714'	302 05 0 00 000000 		CAIE	T5,0		;PAGE 0 ?
  4828	010715'	254 00 0 00 010723'		JRST	.+6		;NO
  4829	010716'	261 17 0 00 000001 		PUT	T1
  4830	010717'	402 00 0 00 021671'		SETZM	IPAG+KPALIVE	;YES, ZERO 8080 COMM AREA
  4831	010720'	200 01 0 00 014401'		MOVE	T1,[IPAG+KPALIVE,,IPAG+KPALIVE+1]
  4832	010721'	251 01 0 00 021700'		BLT	T1,IPAG+MSSLAVE
  4833	010722'	262 17 0 00 000001 		GETIT	T1
  4834
  4835	010723'	261 17 0 00 000005 		PUT	T5
  4836	010724'	405 05 0 00 777777 		ANDI	T5,-1
  4837	010725'	242 05 0 00 777767 		LSH	T5,W2PLSH
  4838	010726'	552 05 0 14 000000 		HRRZM	T5,(P2)		;SET A POINTER TO PAGE NUMBER
  4839	010727'	262 17 0 00 000005 		GETIT	T5
  4840	010730'	350 00 0 00 000014 		AOS	P2		;POINT TO NEXT
  4841
  4842						OUT	WC,[IOWD ^D512,IPAG
  4843	010731'	057 03 0 00 014366'			    0]
  4844	010732'	334 00 0 00 000000 		SKIPA
  4845	010733'	260 17 0 00 014373'		ERR	<WRITE ERROR>
  4846
  4847	010734'	325 05 0 00 010740'		JUMPGE	T5,REDEX8	;PAGE 0 JUST READ?
  4848
  4849	010735'	200 00 0 00 021760'		MOVE	IPAG+.JBSA
  4850	010736'	202 00 0 00 006763'		MOVEM	MT.SADR		;SAVE STARTING ADDRESS
  4851
