  4852	010737'	201 05 0 00 000000 		MOVEI	T5,0		;READ NEXT PAGE INTO PAGE 1
SMFILE	DECSYSTEM 2020 DIAGNOSTICS FE-FILE PROGRAM, VER 0,3	MACRO %53(1020) 10:47 19-Feb-79 Page 129
SMFILE	MAC	19-Feb-79 10:46		PROCESS TOPS-10 MAGTAPE BOOT EXE FILE                                              SEQ 0168

  4853
  4854	010740'	271 05 0 00 001000 	REDEX8:	ADDI	T5,PAGSIZ	;NEXT PAGE
  4855	010741'	371 00 0 00 000007 	REDEX9:	SOSL	T7		;READ ALL THE PAGES DESCRIBED BY THIS ENTRY?
  4856	010742'	344 13 0 00 010677'		AOJA	M,REDEX4	;NO, READ THE NEXT PAGE
  4857
  4858	010743'	253 06 0 00 010744'		AOBJN	T6,.+1		;BUMP PAST THIS DIRECTORY ENTRY, AND
  4859	010744'	253 06 0 00 010670'		AOBJN	T6,REDEX2	; GO GET THE NEXT DIRECTORY ENTRY
  4860
  4861	010745'	476 00 0 14 000000 		SETOM	(P2)		;INDICATE END OF SPACE
  4862
  4863	010746'	200 01 0 00 006763'		MOVE	T1,MT.SADR
  4864	010747'	552 01 0 14 000001 		HRRZM	T1,1(P2)	;SET ENTRY VECTOR
  4865
  4866	010750'	402 00 0 00 021640'		SETZM	IPAG
  4867	010751'	200 00 0 00 014521'		MOVE	[IPAG,,IPAG+1]
  4868	010752'	251 00 0 00 022637'		BLT	IPAG+777
  4869
  4870	010753'	200 00 0 00 015507'		MOVE	[MTSTR1,,IPAG]
  4871	010754'	251 00 0 00 022246'		BLT	IPAG+<MTPAGX-MTSTR1>
  4872
  4873	010755'	260 17 0 00 010771'		GO	RDEX10		;PUT MAGTAPE PRE-BOOT IN ".RDI" FILE
  4874
  4875	010756'	260 17 0 00 007022'		GO	W10EOF		;CLOSE OUTPUT
  4876	010757'	260 17 0 00 007015'		GO	R10EOF		;CLOSE INPUT
  4877
  4878	010760'	263 17 0 00 000000 		RTN			;DONE
SMFILE	DECSYSTEM 2020 DIAGNOSTICS FE-FILE PROGRAM, VER 0,3	MACRO %53(1020) 10:47 19-Feb-79 Page 130
SMFILE	MAC	19-Feb-79 10:46		PROCESS TOPS-10 MAGTAPE BOOT EXE FILE                                              SEQ 0169

  4879
  4880					;*SELECT NEXT EXE DATA PAGE
  4881
  4882	010761'				SELBLK:
  4883
  4884					;*READ EXE DATA PAGE
  4885
  4886	010761'	334 10 0 00 015510'	REDPAG:	SKIPA	AC10,[-^D512,,IPAG]
  4887
  4888					;*READ EXE DIRECTORY PAGE
  4889
  4890	010762'	200 10 0 00 015511'	REDDIR:	MOVE	AC10,[-^D512,,WINDOW]
  4891
  4892	010763'	260 17 0 00 006764'		GO	GET10
  4893	010764'	202 03 0 10 000000 		MOVEM	T3,(AC10)
  4894	010765'	253 10 0 00 010763'		AOBJN	AC10,.-2
  4895
  4896	010766'	201 00 0 00 000004 		MOVEI	4
  4897	010767'	272 00 0 00 021066'		ADDM	SELPAG		;INDICATE NEXT SELECTED PAGE
  4898
  4899	010770'	263 17 0 00 000000 		RTN
  4900
  4901	010771'	075 03 0 00 000001 	RDEX10:	USETO	WC,1		;SELECT 1ST PAGE
  4902
  4903						OUT	WC,[IOWD ^D512,IPAG
  4904	010772'	057 03 0 00 014366'			    0]
  4905	010773'	334 00 0 00 000000 		SKIPA
  4906	010774'	260 17 0 00 014373'		ERR	<WRITE ERROR>
  4907	010775'	263 17 0 00 000000 		RTN
SMFILE	DECSYSTEM 2020 DIAGNOSTICS FE-FILE PROGRAM, VER 0,3	MACRO %53(1020) 10:47 19-Feb-79 Page 131
SMFILE	MAC	19-Feb-79 10:46		PROCESS TOPS-10 MAGTAPE BOOT EXE FILE                                              SEQ 0170

  4908					;*MONITOR BOOT STRAP PROGRAM TO BE WRITTEN ON THE MAGTAPE
  4909
  4910	010776'				MTSTR1:
  4911	001000					PHASE	BOORG
  4912
  4913	001000	254 00 0 00 001005 	MTSTRT:!JRST	MTSTAR
  4914	001001	254 04 0 00 001001 	MTHLT0:!HALT	.		;TRIED TO OVERLOAD PRE-BOOT PAGE
  4915	001002	254 04 0 00 001002 	MTHLT1:!HALT	.		;MAGTAPE READ ERROR
  4916	001003	254 04 0 00 001003 	MTHLT2:!HALT	.		;NO RH-11 BASE ADDRESS
  4917	001004	254 04 0 00 001004 	MTHLT3:!HALT	.		;MAGTAPE SKIP EOF ERROR
  4918
  4919	001005	205 17 0 00 777761 	MTSTAR:!MOVSI	17,-17
  4920	001006	402 00 0 17 000000 		SETZM	(17)		;ZERO AC'S
  4921	001007	253 17 0 00 001006 		AOBJN	17,.-1
  4922	001010	402 00 0 00 000017 		SETZM	17
  4923
  4924	001011	200 00 0 00 000036 		MOVE	MSRH		;GET MAGTAPE ADDRESS
  4925	001012	202 00 0 00 001261 		MOVEM	MTRHSV
  4926	001013	336 00 0 00 000000 		SKIPN
  4927	001014	254 00 0 00 001003 		JRST	MTHLT2		;NO RH-11 BASE ADDRESS ?
  4928
  4929	001015	200 00 0 00 000037 		MOVE	MSDRIVE
  4930	001016	202 00 0 00 001262 		MOVEM	MTDRSV		;SAVE DRIVE
  4931	001017	200 00 0 00 000040 		MOVE	MSSLAVE
  4932	001020	202 00 0 00 001263 		MOVEM	MTSLSV		;SAVE SLAVE & FORMAT
  4933	001021	200 00 0 00 000031 		MOVE	KPALIVE
  4934	001022	202 00 0 00 001260 		MOVEM	MTKPAL		;SAVE KEEP-ALIVE WORD
  4935
  4936	001023	200 00 0 00 001261 		MOVE	MTRHSV		;SETUP RH-11 TABLE
  4937	001024	200 01 0 00 001265 		MOVE	T1,MTPNTR
  4938	001025	202 00 0 01 000000 		MOVEM	(T1)
  4939	001026	271 00 0 00 000002 		ADDI	2
  4940	001027	253 01 0 00 001025 		AOBJN	T1,.-2
  4941	001030	201 00 0 00 763000 		MOVEI	UBAP0		;SETUP UBA MAP POINTER
  4942	001031	542 00 0 00 001304 		HRRM	MTUBP0
  4943	001032	201 00 0 00 763100 		MOVEI	UBSTAT		;SETUP UBA STATUS POINTER
  4944	001033	542 00 0 00 001305 		HRRM	MTUBST
SMFILE	DECSYSTEM 2020 DIAGNOSTICS FE-FILE PROGRAM, VER 0,3	MACRO %53(1020) 10:47 19-Feb-79 Page 132
SMFILE	MAC	19-Feb-79 10:46		PROCESS TOPS-10 MAGTAPE BOOT EXE FILE                                              SEQ 0171

  4945
  4946	001034	201 13 0 00 000144 		MOVEI	P1,^D100	;RETRY 100 TIMES
  4947	001035	201 03 0 00 001307 		MOVEI	T3,MTPAG+1	;FIND THE OFFSET STUFF
  4948
  4949	001036	265 17 0 00 001070 	RDMT:!	JSP	P,MTSRH		;SETUP RH-11
  4950
  4951	001037	200 04 0 03 000000 		MOVE	T4,(T3)		;FIND THE CORE ADDRESS
  4952	001040	306 04 0 00 000001 		CAIN	T4,1		;CAN'T OVERLOAD PRE-BOOT
  4953	001041	254 00 0 00 001113 		JRST	MTBADR		;PAGE 1 REQUESTED TO BE LOADED ?
  4954
  4955	001042	321 04 0 00 001156 		JUMPL	T4,RDMTDN	;QUIT IF ALL DONE WITH PAGES
  4956
  4957	001043	435 04 0 00 040000 		IORI	T4,UBVBIT
  4958	001044	713 04 1 00 001304 		WRIO	T4,@MTUBP0	;SET UP UNIBUS ADAPTOR PAGE 0
  4959
  4960	001045	400 01 0 00 000000 		SETZ	T1,		;CLEAR CURRENT ADDRESS REGISTER
  4961	001046	713 01 1 00 001270 		WRIO	T1,@MTBA	;SET UNIBUS ADDRESS TO 0
  4962
  4963	001047	211 01 0 00 002000 		MOVNI	T1,2000		;READ A PAGE (WORD COUNT)
  4964	001050	713 01 1 00 001267 		WRIO	T1,@MTWC	;SET WORD COUNT
  4965
  4966	001051	201 01 0 00 000071 		MOVEI	T1,MT.RF
  4967	001052	713 01 1 00 001266 		WRIO	T1,@MTCS1	;READ FORWARD
  4968
  4969	001053	265 17 0 00 001063 		JSP	P,MTRDY		;WAIT FOR READY
  4970	001054	602 01 0 00 000004 		TRNE	T1,MTTM
  4971	001055	254 00 0 00 001115 		JRST	MTFAIL		;READ ERROR, EOF DETECTED
  4972
  4973	001056	712 01 1 00 001274 		RDIO	T1,@MTER
  4974	001057	602 01 0 00 176777 		TRNE	T1,177777-MTFCE
  4975	001060	254 00 0 00 001101 		JRST	MTRTRX		;ERROR OTHER THAN LENGTH ERROR
  4976
  4977	001061	350 00 0 00 000003 		AOS	T3		;POINT TO NEXT ENTRY
  4978	001062	254 00 0 00 001036 		JRST	RDMT		;DO NEXT PAGE
  4979
  4980	001063	712 01 1 00 001273 	MTRDY:	RDIO	T1,@MTDS	;READ DRIVE STATUS
  4981	001064	606 01 0 00 020000 		TRNN	T1,MTPIP	;IS DRIVE STOPPED ?
  4982	001065	606 01 0 00 000200 		TRNN	T1,MTDRY	;DRIVE READY ?
  4983	001066	254 00 0 00 001063 		JRST	MTRDY		;NO, WAIT
  4984	001067	254 00 1 00 000017 		JRST	@P		;YES, RETURN
SMFILE	DECSYSTEM 2020 DIAGNOSTICS FE-FILE PROGRAM, VER 0,3	MACRO %53(1020) 10:47 19-Feb-79 Page 133
SMFILE	MAC	19-Feb-79 10:46		PROCESS TOPS-10 MAGTAPE BOOT EXE FILE                                              SEQ 0172

  4985
  4986	001070	201 01 0 00 000040 	MTSRH:!	MOVEI	T1,RHCLR
  4987	001071	713 01 1 00 001272 		WRIO	T1,@MTCS2	;CLEAR MAGTAPE
  4988
  4989	001072	200 01 0 00 001262 		MOVE	T1,MTDRSV
  4990	001073	713 01 1 00 001272 		WRIO	T1,@MTCS2	;SELECT DRIVE
  4991
  4992	001074	200 01 0 00 001263 		MOVE	T1,MTSLSV
  4993	001075	713 01 1 00 001303 		WRIO	T1,@MTTC	;LOAD TAPE CONTROL REGISTER
  4994
  4995	001076	400 01 0 00 000000 		SETZ	T1,
  4996	001077	713 01 1 00 001271 		WRIO	T1,@MTFC	;CLEAR FRAME COUNTER
  4997
  4998	001100	254 00 1 00 000017 		JRST	@P		;RETURN
  4999
  5000	001101	361 13 0 00 001115 	MTRTRX:! SOJL	P1,MTFAIL	;DONE ALL RETRIES ?
  5001
  5002	001102	265 17 0 00 001070 		JSP	P,MTSRH		;NO, SETUP RH-11
  5003
  5004	001103	211 01 0 00 000001 		MOVNI	T1,1
  5005	001104	713 01 1 00 001271 		WRIO	T1,@MTFC	;SET FRAME COUNT TO -1
  5006
  5007	001105	201 01 0 00 000033 		MOVEI	T1,MT.SR
  5008	001106	713 01 1 00 001266 		WRIO	T1,@MTCS1	;BACKSPACE THE TAPE
  5009
  5010	001107	265 17 0 00 001063 		JSP	P,MTRDY		;WAIT FOR TAPE TO STOP
  5011
  5012	001110	254 00 0 00 001036 		JRST	RDMT		;NOW TRY AGAIN
SMFILE	DECSYSTEM 2020 DIAGNOSTICS FE-FILE PROGRAM, VER 0,3	MACRO %53(1020) 10:47 19-Feb-79 Page 134
SMFILE	MAC	19-Feb-79 10:46		PROCESS TOPS-10 MAGTAPE BOOT EXE FILE                                              SEQ 0173

  5013
  5014	001111	201 17 0 00 001004 	MTSERR:!MOVEI	17,MTHLT3	;SET HALT ADDRESS
  5015	001112	254 00 0 00 001117 		JRST	.+5
  5016
  5017	001113	201 17 0 00 001001 	MTBADR:!MOVEI	17,MTHLT0	;SET HALT ADDRESS
  5018	001114	254 00 0 00 001116 		JRST	.+2
  5019
  5020	001115	201 17 0 00 001002 	MTFAIL:!MOVEI	17,MTHLT1	;SET HALT ADDRESS
  5021	001116	370 00 0 00 000003 		SOS	T3		;POINT TO FAILING ENTRY
  5022
  5023	001117	402 00 0 00 000100 		SETZM	100
  5024	001120	200 00 0 03 000000 		MOVE	(T3)
  5025	001121	202 00 0 00 000101 		MOVEM	101		;SAVE MEMORY PAGE ADDRESS
  5026
  5027	001122	202 03 0 00 000102 		MOVEM	T3,102		;SAVE SELECTION PICKUP POINTER
  5028
  5029	001123	712 00 1 00 001266 		RDIO	@MTCS1
  5030	001124	202 00 0 00 000103 		MOVEM	103		;SAVE CONTROL AND STATUS 1
  5031	001125	712 00 1 00 001272 		RDIO	@MTCS2
  5032	001126	202 00 0 00 000104 		MOVEM	104		;SAVE CONTROL AND STATUS 2
  5033	001127	712 00 1 00 001273 		RDIO	@MTDS
  5034	001130	202 00 0 00 000105 		MOVEM	105		;SAVE DRIVE STATUS
  5035	001131	712 00 1 00 001274 		RDIO	@MTER
  5036	001132	202 00 0 00 000106 		MOVEM	106		;SAVE ERROR 1
  5037	001133	400 00 0 00 000000 		SETZ
  5038	001134	202 00 0 00 000107 		MOVEM	107		;NO ERROR 2
  5039	001135	400 00 0 00 000000 		SETZ
  5040	001136	202 00 0 00 000110 		MOVEM	110		;NO ERROR 3
  5041
  5042	001137	712 00 1 00 001304 		RDIO	@MTUBP0
  5043	001140	202 00 0 00 000111 		MOVEM	111		;SAVE UBA PAGING RAM LOC 0
  5044	001141	712 00 1 00 001305 		RDIO	@MTUBST
  5045	001142	202 00 0 00 000112 		MOVEM	112		;SAVE UBA STATUS REG
  5046
  5047	001143	200 00 0 00 001264 		MOVE	MTVER
  5048	001144	202 00 0 00 000113 		MOVEM	113		;SAVE PRE-BOOT VERSION
  5049
  5050	001145	200 00 0 00 001261 		MOVE	MTRHSV
  5051	001146	202 00 0 00 000036 		MOVEM	MSRH		;REINSTALL RH-11 BASE ADDRESS
  5052	001147	200 00 0 00 001262 		MOVE	MTDRSV
  5053	001150	202 00 0 00 000037 		MOVEM	MSDRIVE		;REINSTALL DRIVE NUMBER
  5054	001151	200 00 0 00 001263 		MOVE	MTSLSV
  5055	001152	202 00 0 00 000040 		MOVEM	MSSLAVE		;REINSTALL SLAVE NUMBER
  5056	001153	200 00 0 00 001260 		MOVE	MTKPAL
  5057	001154	202 00 0 00 000031 		MOVEM	KPALIVE		;REINSTALL KEEP-ALIVE
  5058
  5059	001155	254 00 1 00 000017 		JRST	@17		;HALT AT APPROPRIATE HALT
SMFILE	DECSYSTEM 2020 DIAGNOSTICS FE-FILE PROGRAM, VER 0,3	MACRO %53(1020) 10:47 19-Feb-79 Page 135
SMFILE	MAC	19-Feb-79 10:46		PROCESS TOPS-10 MAGTAPE BOOT EXE FILE                                              SEQ 0174

  5060
  5061	001156	350 00 0 00 000003 	RDMTDN:! AOS	T3
  5062	001157	200 00 0 03 000000 		MOVE	(T3)		;SETUP START ADDRESS
  5063	001160	202 00 0 00 000020 		MOVEM	20
  5064
  5065	001161	265 17 0 00 001070 		JSP	P,MTSRH		;SETUP RH-11
  5066
  5067	001162	201 01 0 00 000031 		MOVEI	T1,MT.SF	;SPACE FORWARD OVER EOF MARKER
  5068	001163	713 01 1 00 001266 		WRIO	T1,@MTCS1
  5069
  5070	001164	265 17 0 00 001063 		JSP	P,MTRDY		;WAIT FOR TAPE TO STOP
  5071	001165	606 01 0 00 000004 		TRNN	T1,MTTM		;TAPE MARK DETECTED ?
  5072	001166	254 00 0 00 001111 		JRST	MTSERR		;NO, SPACE FORWARD ERROR
  5073
  5074	001167	200 00 0 00 001261 		MOVE	MTRHSV
  5075	001170	202 00 0 00 000036 		MOVEM	MSRH		;REINSTALL RH-11 ADDRESS
  5076	001171	200 00 0 00 001262 		MOVE	MTDRSV
  5077	001172	202 00 0 00 000037 		MOVEM	MSDRIVE		;REINSTALL DRIVE NUMBER
  5078	001173	200 00 0 00 001263 		MOVE	MTSLSV
  5079	001174	202 00 0 00 000040 		MOVEM	MSSLAVE		;REINSTALL SLAVE NUMBER
  5080	001175	200 00 0 00 001260 		MOVE	MTKPAL
  5081	001176	202 00 0 00 000031 		MOVEM	KPALIVE		;REINSTALL KEEP-ALIVE
SMFILE	DECSYSTEM 2020 DIAGNOSTICS FE-FILE PROGRAM, VER 0,3	MACRO %53(1020) 10:47 19-Feb-79 Page 136
SMFILE	MAC	19-Feb-79 10:46		PROCESS TOPS-10 MAGTAPE BOOT EXE FILE                                              SEQ 0175

  5082
  5083	001177	701 03 0 00 001250 		WRUBR	MTBLK7
  5084	001200	205 17 0 00 777761 		MOVSI	17,-17
  5085	001201	402 00 0 17 000000 		SETZM	(17)		;ZERO AC'S
  5086	001202	253 17 0 00 001201 		AOBJN	17,.-1
  5087	001203	402 00 0 00 000017 		SETZM	17
  5088
  5089	001204	701 03 0 00 001251 		WRUBR	MTBLK6
  5090	001205	205 17 0 00 777761 		MOVSI	17,-17
  5091	001206	402 00 0 17 000000 		SETZM	(17)		;ZERO AC'S
  5092	001207	253 17 0 00 001206 		AOBJN	17,.-1
  5093	001210	402 00 0 00 000017 		SETZM	17
  5094
  5095	001211	701 03 0 00 001252 		WRUBR	MTBLK5
  5096	001212	205 17 0 00 777761 		MOVSI	17,-17
  5097	001213	402 00 0 17 000000 		SETZM	(17)		;ZERO AC'S
  5098	001214	253 17 0 00 001213 		AOBJN	17,.-1
  5099	001215	402 00 0 00 000017 		SETZM	17
  5100
  5101	001216	701 03 0 00 001253 		WRUBR	MTBLK4
  5102	001217	205 17 0 00 777761 		MOVSI	17,-17
  5103	001220	402 00 0 17 000000 		SETZM	(17)		;ZERO AC'S
  5104	001221	253 17 0 00 001220 		AOBJN	17,.-1
  5105	001222	402 00 0 00 000017 		SETZM	17
  5106
  5107	001223	701 03 0 00 001254 		WRUBR	MTBLK3
  5108	001224	205 17 0 00 777761 		MOVSI	17,-17
  5109	001225	402 00 0 17 000000 		SETZM	(17)		;ZERO AC'S
  5110	001226	253 17 0 00 001225 		AOBJN	17,.-1
  5111	001227	402 00 0 00 000017 		SETZM	17
  5112
  5113	001230	701 03 0 00 001255 		WRUBR	MTBLK2
  5114	001231	205 17 0 00 777761 		MOVSI	17,-17
  5115	001232	402 00 0 17 000000 		SETZM	(17)		;ZERO AC'S
  5116	001233	253 17 0 00 001232 		AOBJN	17,.-1
  5117	001234	402 00 0 00 000017 		SETZM	17
  5118
  5119	001235	701 03 0 00 001256 		WRUBR	MTBLK1
  5120	001236	205 17 0 00 777761 		MOVSI	17,-17
  5121	001237	402 00 0 17 000000 		SETZM	(17)		;ZERO AC'S
  5122	001240	253 17 0 00 001237 		AOBJN	17,.-1
  5123	001241	402 00 0 00 000017 		SETZM	17
  5124
  5125	001242	701 03 0 00 001257 		WRUBR	MTBLK0
  5126	001243	205 17 0 00 777761 		MOVSI	17,-17
  5127	001244	402 00 0 17 000000 		SETZM	(17)		;ZERO AC'S
  5128	001245	253 17 0 00 001244 		AOBJN	17,.-1
  5129	001246	402 00 0 00 000017 		SETZM	17
  5130
  5131	001247	254 00 1 00 000020 		JRST	@20		;START BOOT
SMFILE	DECSYSTEM 2020 DIAGNOSTICS FE-FILE PROGRAM, VER 0,3	MACRO %53(1020) 10:47 19-Feb-79 Page 137
SMFILE	MAC	19-Feb-79 10:46		PROCESS TOPS-10 MAGTAPE BOOT EXE FILE                                              SEQ 0176

  5132
  5133
  5134	001250	407000	000000		MTBLK7:!	1B0!7B8		;WRUBR ARGUMENTS
  5135	001251	406000	000000		MTBLK6:!	1B0!6B8
  5136	001252	405000	000000		MTBLK5:!	1B0!5B8
  5137	001253	404000	000000		MTBLK4:!	1B0!4B8
  5138	001254	403000	000000		MTBLK3:!	1B0!3B8
  5139	001255	402000	000000		MTBLK2:!	1B0!2B8
  5140	001256	401000	000000		MTBLK1:!	1B0!1B8
  5141	001257	400000	000000		MTBLK0:!	1B0!0B8
  5142
  5143	001260	000000	000000		MTKPAL:!	0		;KEEP-ALIVE & STATUS WORD
  5144	001261	000000	000000		MTRHSV:!	0		;RH-11 BASE ADDRESS
  5145	001262	000000	000000		MTDRSV:!	0		;DRIVE NUMBER
  5146	001263	000000	000000		MTSLSV:!	0		;SLAVE NUMBER
  5147
  5148	001264	000000	000003		MTVER:!	MCNVER,,DECVER		;PRE-BOOT VERSION
  5149
  5150	001265	777760	001266		MTPNTR:!	-^D16,,MTCS1
  5151	001266	000000	000000		MTCS1:!	0
  5152	001267	000000	000000		MTWC:!	0
  5153	001270	000000	000000		MTBA:!	0
  5154	001271	000000	000000		MTFC:!	0
  5155	001272	000000	000000		MTCS2:!	0
  5156	001273	000000	000000		MTDS:!	0
  5157	001274	000000	000000		MTER:!	0
  5158	001275	000000	000000		MTAS:!	0
  5159	001276	000000	000000		MTCC:!	0
  5160	001277	000000	000000		MTDB:!	0
  5161	001300	000000	000000		MTMR:!	0
  5162	001301	000000	000000		MTDT:!	0
  5163	001302	000000	000000		MTSN:!	0
  5164	001303	000000	000000		MTTC:!	0
  5165	001304	000000	000000		MTUBP0:! 0	;ADDRESS OF FIRST WINDOW
  5166	001305	000000	000000		MTUBST:! 0	;ADDRESS OF UBA STATUS REGISTER
  5167
  5168	001306				MTPAG:!			;NEXT TWO INSTRUCTIONS MUST FOLLOW!!DO NOT MOVE
  5169	011304'					DEPHASE
  5170
  5171	011304'				MTPAGD:	BLOCK	100
  5172	011404'	000000	000000		MTPAGX:	0
SMFILE	DECSYSTEM 2020 DIAGNOSTICS FE-FILE PROGRAM, VER 0,3	MACRO %53(1020) 10:47 19-Feb-79 Page 138
SMFILE	MAC	19-Feb-79 10:46		COMMANDS -- TAKE                                                                   SEQ 0177

  5173					SUBTTL	COMMANDS -- TAKE
  5174
  5175	011405'				TAKE:	NOISE	<COMMANDS FROM FILE>
  5176	011417'	561 01 0 00 015527'		HRROI	T1,[ASCIZ "SMFILE"]
  5177	011420'	202 01 0 00 016410'		MOVEM	T1,GTJFIL
  5178	011421'	561 01 0 00 015531'		HRROI	T1,[ASCIZ "CMD"]
  5179	011422'	202 01 0 00 016411'		MOVEM	T1,GTJEXT
  5180	011423'	402 00 0 00 016406'		SETZM	GTJDEV
  5181	011424'	402 00 0 00 016407'		SETZM	GTJDIR
  5182	011425'	205 01 0 00 100000 		MOVSI	T1,(GJ%OLD)
  5183	011426'	202 01 0 00 016404'		MOVEM	T1,GTJFLG
  5184	011427'					CMD	[FLDDB.(.CMFIL)]
  5185	011440'	552 02 0 00 021161'		HRRZM	T2,CMFILE
  5186	011441'	260 17 0 00 000623'		CONFIRM
  5187
  5188	011442'	336 00 0 00 000302'		SKIPN	MONTYP
  5189	011443'	254 00 0 00 007233'		JRST	$CCL		;TOPS-10
  5190
  5191	011444'	554 01 0 00 016373'		HLRZ	T1,CSB+.CMIOJ
  5192	011445'	306 01 0 00 000100 		CAIn	T1,.PRIIN
  5193	011446'	254 00 0 00 011451'		jrst	.+3
  5194	011447'	104 00 0 00 000022 		CLOSF
  5195	011450'	260 17 0 00 015546'		ERR	<CAN NOT CLOSE OLD COMMAND FILE>
  5196	011451'	550 01 0 00 021161'		HRRZ	T1,CMFILE
  5197	011452'	200 02 0 00 015550'		MOVE	T2,[7B5+OF%RD]
  5198	011453'	104 00 0 00 000021 		OPENF
  5199	011454'	260 17 0 00 015555'		ERR	<CAN NOT OPEN FILE>
  5200	011455'	514 01 0 00 000001 		HRLZ	T1,T1
  5201	011456'	541 01 0 00 377777 		HRRI	T1,.NULIO
  5202	011457'	202 01 0 00 016373'		MOVEM	T1,CSB+.CMIOJ
  5203	011460'	331 00 0 00 016573'		SKIPL	ECOFLG
  5204	011461'	476 00 0 00 021165'		SETOM	INTAKE
  5205	011462'	263 17 0 00 000000 		RTN
SMFILE	DECSYSTEM 2020 DIAGNOSTICS FE-FILE PROGRAM, VER 0,3	MACRO %53(1020) 10:47 19-Feb-79 Page 139
SMFILE	MAC	19-Feb-79 10:46		COMMAND SUBROUTINES -- DPYFLD                                                      SEQ 0178

  5206					SUBTTL	COMMAND SUBROUTINES -- DPYFLD
  5207
  5208		260740	011463'		OPDEF	DPYNOF	[GO	$DPYNOF]
  5209
  5210					$DPYNOF:PNTMSF	[ASCIZ/%VALUE DID NOT FIT IN FIELD
  5211	011463'	037 01 0 00 015557'	/]
  5212	011464'	263 17 0 00 000000 		RET
  5213
  5214	011465'	201 01 0 00 012117'	DPYFLD:	MOVEI	T1,ENDDPY
  5215	011466'	202 01 0 00 021156'		MOVEM	T1,CZADR
  5216	011467'	202 17 0 00 021157'		MOVEM	P,CZSP
  5217	011470'	037 01 0 00 000064'		PCRL2F
  5218
  5219	011471'	200 06 0 00 021152'		MOVE	T6,EXMADR
  5220	011472'	221 06 0 00 000003 		IMULI	T6,3
  5221	011473'	336 00 0 00 021027'		SKIPN	BC1FLG
  5222	011474'	271 06 0 00 401000 		ADDI	T6,CRAM
  5223	011475'	332 00 0 00 021027'		SKIPE	BC1FLG
  5224	011476'	271 06 0 00 417000 		ADDI	T6,CRMBC1
SMFILE	DECSYSTEM 2020 DIAGNOSTICS FE-FILE PROGRAM, VER 0,3	MACRO %53(1020) 10:47 19-Feb-79 Page 140
SMFILE	MAC	19-Feb-79 10:46		COMMAND SUBROUTINES -- DPYFLD                                                      SEQ 0179

  5225
  5226	011477'	037 04 0 00 015565'	DPYCALL:PMSGF	< CALL/>
  5227	011500'	135 02 0 00 015567'		LDB	T2,[POINT 1,2(T6),26]
  5228	011501'	260 17 0 00 012141'		GO	UPDFLD
  5229	011502'	254 00 0 00 011477'		 JRST	DPYCALL
  5230	011503'	137 02 0 00 015567'		DPB	T2,[POINT 1,2(T6),26]
  5231	011504'	242 02 0 00 777777 		LSH	T2,-1
  5232	011505'	322 02 0 00 011507'		JUMPE	T2,.+2
  5233	011506'	260 17 0 00 011463'		DPYNOF
  5234
  5235	011507'	037 04 0 00 015570'	DPYJ:	PMSGF	< J/>
  5236	011510'	135 02 0 00 015571'		LDB	T2,[POINT 12,2(T6),23]
  5237	011511'	260 17 0 00 012141'		GO	UPDFLD
  5238	011512'	254 00 0 00 011477'		 JRST	DPYCALL
  5239	011513'	137 02 0 00 015571'		DPB	T2,[POINT 12,2(T6),23]
  5240	011514'	242 02 0 00 777764 		LSH	T2,-^D12
  5241	011515'	322 02 0 00 011517'		JUMPE	T2,.+2
  5242	011516'	260 17 0 00 011463'		DPYNOF
  5243
  5244	011517'	037 04 0 00 015572'	DPYNBR:	PMSGF	< #/>
  5245	011520'	135 02 0 00 013701'		LDB	T2,[POINT 6,1(T6),35]
  5246	011521'	242 02 0 00 000014 		LSH	T2,^D12
  5247	011522'	135 01 0 00 013700'		LDB	T1,[POINT 12,1(T6),23]
  5248	011523'	434 02 0 00 000001 		OR	T2,T1
  5249	011524'	260 17 0 00 012141'		GO	UPDFLD
  5250	011525'	254 00 0 00 011507'		 JRST	DPYJ
  5251	011526'	137 02 0 00 013700'		DPB	T2,[POINT 12,1(T6),23]
  5252	011527'	242 02 0 00 777764 		LSH	T2,-^D12
  5253	011530'	137 02 0 00 013701'		DPB	T2,[POINT 6,1(T6),35]
  5254	011531'	242 02 0 00 777772 		LSH	T2,-6
  5255	011532'	322 02 0 00 011534'		JUMPE	T2,.+2
  5256	011533'	260 17 0 00 011463'		DPYNOF
  5257
SMFILE	DECSYSTEM 2020 DIAGNOSTICS FE-FILE PROGRAM, VER 0,3	MACRO %53(1020) 10:47 19-Feb-79 Page 141
SMFILE	MAC	19-Feb-79 10:46		COMMAND SUBROUTINES -- DPYFLD                                                      SEQ 0180

  5258	011534'	037 04 0 00 015573'	DPYALU:	PMSGF	< ALU/>
  5259	011535'	135 02 0 00 015574'		LDB	T2,[POINT 3,(T6),2]
  5260	011536'	260 17 0 00 012141'		GO	UPDFLD
  5261	011537'	254 00 0 00 011517'		 JRST	DPYNBR
  5262	011540'	137 02 0 00 015574'		DPB	T2,[POINT 3,(T6),2]
  5263	011541'	242 02 0 00 777775 		LSH	T2,-3
  5264	011542'	322 02 0 00 011544'		JUMPE	T2,.+2
  5265	011543'	260 17 0 00 011463'		DPYNOF
  5266
  5267	011544'	037 04 0 00 015575'		PMSGF	<S/D^>
  5268	011545'	037 04 0 00 015576'	DPYLSRC:PMSGF	<  LSRC/>
  5269	011546'	135 02 0 00 015600'		LDB	T2,[POINT 3,(T6),5]
  5270	011547'	260 17 0 00 012141'		GO	UPDFLD
  5271	011550'	254 00 0 00 011534'		 JRST	DPYALU
  5272	011551'	137 02 0 00 015600'		DPB	T2,[POINT 3,(T6),5]
  5273	011552'	242 02 0 00 777775 		LSH	T2,-3
  5274	011553'	322 02 0 00 011555'		JUMPE	T2,.+2
  5275	011554'	260 17 0 00 011463'		DPYNOF
  5276
  5277	011555'	037 04 0 00 015601'	DPYRSRC:PMSGF	<  RSRC/>
  5278	011556'	135 02 0 00 015603'		LDB	T2,[POINT 3,(T6),8]
  5279	011557'	260 17 0 00 012141'		GO	UPDFLD
  5280	011560'	254 00 0 00 011545'		 JRST	DPYLSRC
  5281	011561'	137 02 0 00 015603'		DPB	T2,[POINT 3,(T6),8]
  5282	011562'	242 02 0 00 777775 		LSH	T2,-3
  5283	011563'	322 02 0 00 011565'		JUMPE	T2,.+2
  5284	011564'	260 17 0 00 011463'		DPYNOF
  5285
  5286	011565'	037 04 0 00 015604'	DPYDEST:PMSGF	<  DEST/>
  5287	011566'	135 02 0 00 015606'		LDB	T2,[POINT 3,(T6),29]
  5288	011567'	260 17 0 00 012141'		GO	UPDFLD
  5289	011570'	254 00 0 00 011555'		 JRST	DPYRSRC
  5290	011571'	137 02 0 00 015606'		DPB	T2,[POINT 3,(T6),29]
  5291	011572'	242 02 0 00 777775 		LSH	T2,-3
  5292	011573'	322 02 0 00 011575'		JUMPE	T2,.+2
  5293	011574'	260 17 0 00 011463'		DPYNOF
SMFILE	DECSYSTEM 2020 DIAGNOSTICS FE-FILE PROGRAM, VER 0,3	MACRO %53(1020) 10:47 19-Feb-79 Page 142
SMFILE	MAC	19-Feb-79 10:46		COMMAND SUBROUTINES -- DPYFLD                                                      SEQ 0181

  5294
  5295	011575'	037 04 0 00 015607'		PMSGF	<A/B^>
  5296	011576'	037 04 0 00 015610'	DPYA:	PMSGF	<  A/>
  5297	011577'	135 02 0 00 015611'		LDB	T2,[POINT 4,(T6),17]
  5298	011600'	260 17 0 00 012141'		GO	UPDFLD
  5299	011601'	254 00 0 00 011565'		 JRST	DPYDEST
  5300	011602'	137 02 0 00 015611'		DPB	T2,[POINT 4,(T6),17]
  5301	011603'	242 02 0 00 777774 		LSH	T2,-4
  5302	011604'	322 02 0 00 011606'		JUMPE	T2,.+2
  5303	011605'	260 17 0 00 011463'		DPYNOF
  5304
  5305	011606'	037 04 0 00 015612'	DPYB:	PMSGF	<  B/>
  5306	011607'	135 02 0 00 015613'		LDB	T2,[POINT 4,(T6),23]
  5307	011610'	260 17 0 00 012141'		GO	UPDFLD
  5308	011611'	254 00 0 00 011576'		 JRST	DPYA
  5309	011612'	137 02 0 00 015613'		DPB	T2,[POINT 4,(T6),23]
  5310	011613'	242 02 0 00 777774 		LSH	T2,-4
  5311	011614'	322 02 0 00 011616'		JUMPE	T2,.+2
  5312	011615'	260 17 0 00 011463'		DPYNOF
  5313
  5314	011616'	037 04 0 00 015614'		PMSGF	<RBM^>
  5315	011617'	037 04 0 00 015615'	DPYRAM:	PMSGF	<  RAMADR/>
  5316	011620'	135 02 0 00 015617'		LDB	T2,[POINT 3,(T6),26]
  5317	011621'	260 17 0 00 012141'		GO	UPDFLD
  5318	011622'	254 00 0 00 011606'		 JRST	DPYB
  5319	011623'	137 02 0 00 015617'		DPB	T2,[POINT 3,(T6),26]
  5320	011624'	242 02 0 00 777775 		LSH	T2,-3
  5321	011625'	322 02 0 00 011627'		JUMPE	T2,.+2
  5322	011626'	260 17 0 00 011463'		DPYNOF
  5323
  5324	011627'	037 04 0 00 015620'	DPYDBUS:PMSGF	<  DBUS/>
  5325	011630'	135 02 0 00 015622'		LDB	T2,[POINT 2,(T6),13]
  5326	011631'	260 17 0 00 012141'		GO	UPDFLD
  5327	011632'	254 00 0 00 011617'		 JRST	DPYRAM
  5328	011633'	137 02 0 00 015622'		DPB	T2,[POINT 2,(T6),13]
  5329	011634'	242 02 0 00 777776 		LSH	T2,-2
  5330	011635'	322 02 0 00 011637'		JUMPE	T2,.+2
  5331	011636'	260 17 0 00 011463'		DPYNOF
SMFILE	DECSYSTEM 2020 DIAGNOSTICS FE-FILE PROGRAM, VER 0,3	MACRO %53(1020) 10:47 19-Feb-79 Page 143
SMFILE	MAC	19-Feb-79 10:46		COMMAND SUBROUTINES -- DPYFLD                                                      SEQ 0182

  5332	011637'	037 04 0 00 015623'	DPYDBM:	PMSGF	<  DBM/>
  5333	011640'	135 02 0 00 015625'		LDB	T2,[POINT 3,(T6),11]
  5334	011641'	260 17 0 00 012141'		GO	UPDFLD
  5335	011642'	254 00 0 00 011627'		 JRST	DPYDBUS
  5336	011643'	137 02 0 00 015625'		DPB	T2,[POINT 3,(T6),11]
  5337	011644'	242 02 0 00 777775 		LSH	T2,-3
  5338	011645'	322 02 0 00 011647'		JUMPE	T2,.+2
  5339	011646'	260 17 0 00 011463'		DPYNOF
  5340
  5341	011647'	037 04 0 00 015626'	DPYSPEC:PMSGF	< SPEC/>
  5342	011650'	135 02 0 00 015630'		LDB	T2,[POINT 3,2(T6),32]
  5343	011651'	242 02 0 00 000003 		LSH	T2,3
  5344	011652'	135 01 0 00 015631'		LDB	T1,[POINT 3,1(T6),8]
  5345	011653'	434 02 0 00 000001 		OR	T2,T1
  5346	011654'	260 17 0 00 012141'		GO	UPDFLD
  5347	011655'	254 00 0 00 011637'		 JRST	DPYDBM
  5348	011656'	137 02 0 00 015631'		DPB	T2,[POINT 3,1(T6),8]
  5349	011657'	242 02 0 00 777775 		LSH	T2,-3
  5350	011660'	137 02 0 00 015630'		DPB	T2,[POINT 3,2(T6),32]
  5351	011661'	242 02 0 00 777775 		LSH	T2,-3
  5352	011662'	322 02 0 00 011664'		JUMPE	T2,.+2
  5353	011663'	260 17 0 00 011463'		DPYNOF
  5354
  5355	011664'	037 04 0 00 015632'	DPYDISP:PMSGF	< DISP/>
  5356	011665'	135 02 0 00 015634'		LDB	T2,[POINT 3,2(T6),35]
  5357	011666'	242 02 0 00 000003 		LSH	T2,3
  5358	011667'	135 01 0 00 015635'		LDB	T1,[POINT 3,1(T6),5]
  5359	011670'	434 02 0 00 000001 		OR	T2,T1
  5360	011671'	260 17 0 00 012141'		GO	UPDFLD
  5361	011672'	254 00 0 00 011647'		 JRST	DPYSPEC
  5362	011673'	137 02 0 00 015635'		DPB	T2,[POINT 3,1(T6),5]
  5363	011674'	242 02 0 00 777775 		LSH	T2,-3
  5364	011675'	137 02 0 00 015634'		DPB	T2,[POINT 3,2(T6),35]
  5365	011676'	242 02 0 00 777775 		LSH	T2,-3
  5366	011677'	322 02 0 00 011701'		JUMPE	T2,.+2
  5367	011700'	260 17 0 00 011463'		DPYNOF
  5368
  5369	011701'	037 04 0 00 015636'	DPYSKIP:PMSGF	< SKIP/>
  5370	011702'	135 02 0 00 015640'		LDB	T2,[POINT 4,2(T6),29]
  5371	011703'	242 02 0 00 000003 		LSH	T2,3
  5372	011704'	135 01 0 00 015641'		LDB	T1,[POINT 3,1(T6),11]
  5373	011705'	434 02 0 00 000001 		OR	T2,T1
  5374	011706'	260 17 0 00 012141'		GO	UPDFLD
  5375	011707'	254 00 0 00 011664'		 JRST	DPYDISP
  5376	011710'	137 02 0 00 015641'		DPB	T2,[POINT 3,1(T6),11]
  5377	011711'	242 02 0 00 777775 		LSH	T2,-3
  5378	011712'	137 02 0 00 015640'		DPB	T2,[POINT 4,2(T6),29]
  5379	011713'	242 02 0 00 777774 		LSH	T2,-4
  5380	011714'	322 02 0 00 011716'		JUMPE	T2,.+2
  5381	011715'	260 17 0 00 011463'		DPYNOF
SMFILE	DECSYSTEM 2020 DIAGNOSTICS FE-FILE PROGRAM, VER 0,3	MACRO %53(1020) 10:47 19-Feb-79 Page 144
SMFILE	MAC	19-Feb-79 10:46		COMMAND SUBROUTINES -- DPYFLD                                                      SEQ 0183

  5382	011716'	037 04 0 00 015642'	DPYT:	PMSGF	< T/>
  5383	011717'	135 02 0 00 015643'		LDB	T2,[POINT 2,2(T6),25]
  5384	011720'	260 17 0 00 012141'		GO	UPDFLD
  5385	011721'	254 00 0 00 011701'		 JRST	DPYSKIP
  5386	011722'	137 02 0 00 015643'		DPB	T2,[POINT 2,2(T6),25]
  5387	011723'	242 02 0 00 777776 		LSH	T2,-2
  5388	011724'	322 02 0 00 011726'		JUMPE	T2,.+2
  5389	011725'	260 17 0 00 011463'		DPYNOF
  5390
  5391	011726'	037 04 0 00 015644'	DPYCRY:	PMSGF	< CARRY IN/>
  5392	011727'	135 02 0 00 015646'		LDB	T2,[POINT 1,1(T6),1]
  5393	011730'	260 17 0 00 012141'		GO	UPDFLD
  5394	011731'	254 00 0 00 011716'		 JRST	DPYT
  5395	011732'	137 02 0 00 015646'		DPB	T2,[POINT 1,1(T6),1]
  5396	011733'	242 02 0 00 777777 		LSH	T2,-1
  5397	011734'	322 02 0 00 011736'		JUMPE	T2,.+2
  5398	011735'	260 17 0 00 011463'		DPYNOF
  5399
  5400	011736'	037 04 0 00 015647'	DPYLSC:	PMSGF	< LOAD SC/>
  5401	011737'	135 02 0 00 015651'		LDB	T2,[POINT 1,(T6),30]
  5402	011740'	260 17 0 00 012141'		GO	UPDFLD
  5403	011741'	254 00 0 00 011726'		 JRST	DPYCRY
  5404	011742'	137 02 0 00 015651'		DPB	T2,[POINT 1,(T6),30]
  5405	011743'	242 02 0 00 777777 		LSH	T2,-1
  5406	011744'	322 02 0 00 011746'		JUMPE	T2,.+2
  5407	011745'	260 17 0 00 011463'		DPYNOF
  5408
  5409	011746'	037 04 0 00 015652'	DPYLFE:	PMSGF	< LOAD FE/>
  5410	011747'	135 02 0 00 015654'		LDB	T2,[POINT 1,(T6),31]
  5411	011750'	260 17 0 00 012141'		GO	UPDFLD
  5412	011751'	254 00 0 00 011736'		 JRST	DPYLSC
  5413	011752'	137 02 0 00 015654'		DPB	T2,[POINT 1,(T6),31]
  5414	011753'	242 02 0 00 777777 		LSH	T2,-1
  5415	011754'	322 02 0 00 011756'		JUMPE	T2,.+2
  5416	011755'	260 17 0 00 011463'		DPYNOF
SMFILE	DECSYSTEM 2020 DIAGNOSTICS FE-FILE PROGRAM, VER 0,3	MACRO %53(1020) 10:47 19-Feb-79 Page 145
SMFILE	MAC	19-Feb-79 10:46		COMMAND SUBROUTINES -- DPYFLD                                                      SEQ 0184

  5417	011756'	037 04 0 00 015655'	DPYFMW:	PMSGF	< FM WRITE/>
  5418	011757'	135 02 0 00 015657'		LDB	T2,[POINT 1,1(T6),24]
  5419	011760'	260 17 0 00 012141'		GO	UPDFLD
  5420	011761'	254 00 0 00 011746'		 JRST	DPYLFE
  5421	011762'	137 02 0 00 015657'		DPB	T2,[POINT 1,1(T6),24]
  5422	011763'	242 02 0 00 777777 		LSH	T2,-1
  5423	011764'	322 02 0 00 011766'		JUMPE	T2,.+2
  5424	011765'	260 17 0 00 011463'		DPYNOF
  5425
  5426	011766'	037 04 0 00 015660'	DPYMEM:	PMSGF	< MEM CYCLE/>
  5427	011767'	135 02 0 00 015662'		LDB	T2,[POINT 1,1(T6),2]
  5428	011770'	260 17 0 00 012141'		GO	UPDFLD
  5429	011771'	254 00 0 00 011756'		 JRST	DPYFMW
  5430	011772'	137 02 0 00 015662'		DPB	T2,[POINT 1,1(T6),2]
  5431	011773'	242 02 0 00 777777 		LSH	T2,-1
  5432	011774'	322 02 0 00 011776'		JUMPE	T2,.+2
  5433	011775'	260 17 0 00 011463'		DPYNOF
  5434
  5435	011776'	037 04 0 00 015663'	DPYDIV:	PMSGF	< DIVIDE/>
  5436	011777'	135 02 0 00 015665'		LDB	T2,[POINT 1,1(T6),28]
  5437	012000'	260 17 0 00 012141'		GO	UPDFLD
  5438	012001'	254 00 0 00 011766'		 JRST	DPYMEM
  5439	012002'	137 02 0 00 015665'		DPB	T2,[POINT 1,1(T6),28]
  5440	012003'	242 02 0 00 777777 		LSH	T2,-1
  5441	012004'	322 02 0 00 012006'		JUMPE	T2,.+2
  5442	012005'	260 17 0 00 011463'		DPYNOF
  5443
  5444	012006'	037 04 0 00 015666'	DPYMP:	PMSGF	< MULTI PREC/>
  5445	012007'	135 02 0 00 015671'		LDB	T2,[POINT 1,1(T6),29]
  5446	012010'	260 17 0 00 012141'		GO	UPDFLD
  5447	012011'	254 00 0 00 011776'		 JRST	DPYDIV
  5448	012012'	137 02 0 00 015671'		DPB	T2,[POINT 1,1(T6),29]
  5449	012013'	242 02 0 00 777777 		LSH	T2,-1
  5450	012014'	322 02 0 00 012016'		JUMPE	T2,.+2
  5451	012015'	260 17 0 00 011463'		DPYNOF
  5452
  5453	012016'	037 04 0 00 015672'	DPYMS:	PMSGF	< MULTI SHIFT/>
  5454	012017'	135 02 0 00 015675'		LDB	T2,[POINT 1,1(T6),25]
  5455	012020'	260 17 0 00 012141'		GO	UPDFLD
  5456	012021'	254 00 0 00 012006'		 JRST	DPYMP
  5457	012022'	137 02 0 00 015675'		DPB	T2,[POINT 1,1(T6),25]
  5458	012023'	242 02 0 00 777777 		LSH	T2,-1
  5459	012024'	322 02 0 00 012026'		JUMPE	T2,.+2
  5460	012025'	260 17 0 00 011463'		DPYNOF
SMFILE	DECSYSTEM 2020 DIAGNOSTICS FE-FILE PROGRAM, VER 0,3	MACRO %53(1020) 10:47 19-Feb-79 Page 146
SMFILE	MAC	19-Feb-79 10:46		COMMAND SUBROUTINES -- DPYFLD                                                      SEQ 0185

  5461	012026'	037 04 0 00 015676'		PMSGF	<C/LR^>
  5462	012027'	037 04 0 00 015677'	DPYCLL:	PMSGF	<  DP CLOCK L/>
  5463	012030'	135 02 0 00 015702'		LDB	T2,[POINT 1,(T6),18]
  5464	012031'	260 17 0 00 012141'		GO	UPDFLD
  5465	012032'	254 00 0 00 012006'		 JRST	DPYMP
  5466	012033'	137 02 0 00 015702'		DPB	T2,[POINT 1,(T6),18]
  5467	012034'	242 02 0 00 777777 		LSH	T2,-1
  5468	012035'	322 02 0 00 012037'		JUMPE	T2,.+2
  5469	012036'	260 17 0 00 011463'		DPYNOF
  5470
  5471	012037'	037 04 0 00 015703'	DPYGEL:	PMSGF	<  PAR EN L/>
  5472	012040'	135 02 0 00 015705'		LDB	T2,[POINT 1,1(T6),26]
  5473	012041'	260 17 0 00 012141'		GO	UPDFLD
  5474	012042'	254 00 0 00 012027'		 JRST	DPYCLL
  5475	012043'	137 02 0 00 015705'		DPB	T2,[POINT 1,1(T6),26]
  5476	012044'	242 02 0 00 777777 		LSH	T2,-1
  5477	012045'	322 02 0 00 012047'		JUMPE	T2,.+2
  5478	012046'	260 17 0 00 011463'		DPYNOF
  5479
  5480	012047'	037 04 0 00 015706'	DPYCHL:	PMSGF	<  CHKL/>
  5481	012050'	135 02 0 00 015710'		LDB	T2,[POINT 1,(T6),32]
  5482	012051'	260 17 0 00 012141'		GO	UPDFLD
  5483	012052'	254 00 0 00 012037'		 JRST	DPYGEL
  5484	012053'	137 02 0 00 015710'		DPB	T2,[POINT 1,(T6),32]
  5485	012054'	242 02 0 00 777777 		LSH	T2,-1
  5486	012055'	322 02 0 00 012057'		JUMPE	T2,.+2
  5487	012056'	260 17 0 00 011463'		DPYNOF
  5488
  5489	012057'	037 04 0 00 015711'	DPYCLR:	PMSGF	<  DP CLOCK R/>
  5490	012060'	135 02 0 00 015714'		LDB	T2,[POINT 1,(T6),19]
  5491	012061'	260 17 0 00 012141'		GO	UPDFLD
  5492	012062'	254 00 0 00 012047'		 JRST	DPYCHL
  5493	012063'	137 02 0 00 015714'		DPB	T2,[POINT 1,(T6),19]
  5494	012064'	242 02 0 00 777777 		LSH	T2,-1
  5495	012065'	322 02 0 00 012067'		JUMPE	T2,.+2
  5496	012066'	260 17 0 00 011463'		DPYNOF
SMFILE	DECSYSTEM 2020 DIAGNOSTICS FE-FILE PROGRAM, VER 0,3	MACRO %53(1020) 10:47 19-Feb-79 Page 147
SMFILE	MAC	19-Feb-79 10:46		COMMAND SUBROUTINES -- DPYFLD                                                      SEQ 0186

  5497	012067'	037 04 0 00 015715'	DPYGER:	PMSGF	<  PAR EN R/>
  5498	012070'	135 02 0 00 015717'		LDB	T2,[POINT 1,1(T6),27]
  5499	012071'	260 17 0 00 012141'		GO	UPDFLD
  5500	012072'	254 00 0 00 012057'		 JRST	DPYCLR
  5501	012073'	137 02 0 00 015717'		DPB	T2,[POINT 1,1(T6),27]
  5502	012074'	242 02 0 00 777777 		LSH	T2,-1
  5503	012075'	322 02 0 00 012077'		JUMPE	T2,.+2
  5504	012076'	260 17 0 00 011463'		DPYNOF
  5505
  5506	012077'	037 04 0 00 015720'	DPYCHR:	PMSGF	<  CHKR/>
  5507	012100'	135 02 0 00 015722'		LDB	T2,[POINT 1,(T6),33]
  5508	012101'	260 17 0 00 012141'		GO	UPDFLD
  5509	012102'	254 00 0 00 012067'		 JRST	DPYGER
  5510	012103'	137 02 0 00 015722'		DPB	T2,[POINT 1,(T6),33]
  5511	012104'	242 02 0 00 777777 		LSH	T2,-1
  5512	012105'	322 02 0 00 012107'		JUMPE	T2,.+2
  5513	012106'	260 17 0 00 011463'		DPYNOF
  5514
  5515	012107'	037 04 0 00 015723'	DPYMK:	PMSGF	< MARK/>
  5516	012110'	135 02 0 00 015725'		LDB	T2,[POINT 1,(T6),35]
  5517	012111'	260 17 0 00 012141'		GO	UPDFLD
  5518	012112'	254 00 0 00 012077'		 JRST	DPYCHR
  5519	012113'	137 02 0 00 015725'		DPB	T2,[POINT 1,(T6),35]
  5520	012114'	242 02 0 00 777777 		LSH	T2,-1
  5521	012115'	322 02 0 00 012117'		JUMPE	T2,.+2
  5522	012116'	260 17 0 00 011463'		DPYNOF
SMFILE	DECSYSTEM 2020 DIAGNOSTICS FE-FILE PROGRAM, VER 0,3	MACRO %53(1020) 10:47 19-Feb-79 Page 148
SMFILE	MAC	19-Feb-79 10:46		COMMAND SUBROUTINES -- DPYFLD                                                      SEQ 0187

  5523
  5524	012117'	402 00 0 00 021156'	ENDDPY:	SETZM	CZADR
  5525	012120'	200 17 0 00 021157'		MOVE	P,CZSP
  5526	012121'	202 06 0 00 021033'		MOVEM	T6,CRAMT6
  5527
  5528	012122'	200 01 0 06 000002 		MOVE	T1,2(T6)		;RECREATE SHUFFLE FORMAT
  5529	012123'	200 02 0 06 000001 		MOVE	T2,1(T6)		;MICROCODE WORD
  5530	012124'	245 01 0 00 000014 		ROTC	T1,^D12
  5531	012125'	202 01 0 00 000010 		MOVEM	T1,AC10
  5532
  5533	012126'	200 01 0 06 000000 		MOVE	T1,(T6)
  5534	012127'	200 02 0 06 000001 		MOVE	T2,1(T6)
  5535	012130'	245 01 0 00 000014 		ROTC	T1,^D12
  5536	012131'	202 02 0 00 000011 		MOVEM	T2,AC11
  5537
  5538	012132'	200 12 0 06 000000 		MOVE	AC12,(T6)
  5539	012133'	242 12 0 00 000014 		LSH	AC12,^D12
  5540
  5541	012134'	400 01 0 00 000000 		SETZ	T1,
  5542	012135'	137 01 0 00 010154'		DPB	T1,PB.CRA		;CLEAR PRESENT PARITY BITS
  5543	012136'	137 01 0 00 010155'		DPB	T1,PB.CRM
  5544
  5545	012137'	260 17 0 00 007721'		GO	KSXX			;COMPUTE PARITY & RESTORE
  5546
  5547	012140'	263 17 0 00 000000 		RTN
SMFILE	DECSYSTEM 2020 DIAGNOSTICS FE-FILE PROGRAM, VER 0,3	MACRO %53(1020) 10:47 19-Feb-79 Page 149
SMFILE	MAC	19-Feb-79 10:46		COMMAND SUBROUTINES -- UPDFLD                                                      SEQ 0188

  5548					SUBTTL	COMMAND SUBROUTINES -- UPDFLD
  5549
  5550					;*SUBROUTINE TO GET NEW VALUE FOR FIELD
  5551					;*CALL WITH:
  5552					;*	T2/	OLD VALUE
  5553					;*	GO	UPDFLD
  5554					;*	HERE IF "^" (UPARROW), BACKUP ONE FIELD
  5555					;*	HERE WITH NEW VALUE IN T2
  5556
  5557	012141'	200 00 0 00 000002 	UPDFLD:	MOVE	T2
  5558	012142'	037 17 0 00 000003 		PNTOCf
  5559	012143'	336 00 0 00 021163'		SKIPN	DEPFLG
  5560	012144'	254 00 0 00 005176*		RETSKP
  5561	012145'	202 02 0 00 021074'		MOVEM	T2,VALUE#
  5562	012146'	037 01 0 00 000011 		PTAB
  5563	012147'	336 00 0 00 000302'		SKIPN	MONTYP
  5564	012150'	254 00 0 00 012177'		JRST	UPDFL1
  5565	012151'	554 01 0 00 016373'		HLRZ	T1,CSB+.CMIOJ
  5566	012152'	104 00 0 00 000050 		BIN
  5567	012153'	306 02 0 00 000015 		CAIN	T2,15
  5568	012154'	254 00 0 00 012167'		JRST	GTFLD1
  5569	012155'	306 02 0 00 000136 		CAIN	T2,"^"
  5570	012156'	254 00 0 00 012175'		JRST	CRPOPJ		;UPARROW
  5571	012157'	104 00 0 00 000042 		BKJFN			;BACKUP INPUT POINTER 1 BYTE
  5572	012160'	260 17 0 00 015733'		ERR	<UPDFLD: BKJFN FAILED>
  5573	012161'	554 01 0 00 016373'	UPFLD2:	HLRZ	T1,CSB+.CMIOJ
  5574	012162'	201 03 0 00 000010 		MOVEI	T3,10
  5575	012163'	104 00 0 00 000225 		NIN
  5576						JRST   [PNTMSF [ASCIZ/
  5577					TRY AGAIN: /]
  5578	012164'	254 00 0 00 015740'			JRST UPFLD2]
  5579	012165'	350 00 0 17 000000 		AOS	(P)
  5580	012166'	263 17 0 00 000000 		RTN
  5581
  5582	012167'	104 00 0 00 000050 	GTFLD1:	BIN
  5583	012170'	302 02 0 00 000012 		CAIE	T2,12
  5584	012171'	260 17 0 00 015753'		ERR	<CARRIAGE RETURN NOT FOLLOWED BY LINE FEED>
  5585	012172'	200 02 0 00 021074'		MOVE	T2,VALUE
  5586	012173'	350 00 0 17 000000 		AOS	(P)
  5587	012174'	263 17 0 00 000000 		RTN
  5588
  5589	012175'	037 01 0 00 000063'	CRPOPJ:	PCRLF
  5590	012176'	263 17 0 00 000000 		RTN
SMFILE	DECSYSTEM 2020 DIAGNOSTICS FE-FILE PROGRAM, VER 0,3	MACRO %53(1020) 10:47 19-Feb-79 Page 150
SMFILE	MAC	19-Feb-79 10:46		COMMAND SUBROUTINES -- UPDFLD                                                      SEQ 0189

  5591
  5592	012177'	037 03 0 00 000003 	UPDFL1:	TTIOCT
  5593	012200'	254 00 0 00 012217'		JRST	UPDFL3
  5594	012201'	336 00 0 00 000301'		SKIPN	TTNBRF
  5595	012202'	254 00 0 00 012211'		JRST	UPDFL2
  5596	012203'	200 02 0 00 000000 		MOVE	T2,0
  5597	012204'	200 00 0 00 000053'		MOVE	0,$CHRIN
  5598	012205'	302 00 0 00 000015 		CAIE	0,15
  5599						JRST	[PNTMSF	[ASCIZ/
  5600					TRY AGAIN: /]
  5601	012206'	254 00 0 00 015755'			JRST	UPDFL1]
  5602	012207'	350 00 0 17 000000 		AOS	(P)
  5603	012210'	263 17 0 00 000000 		RTN
  5604
  5605	012211'	200 00 0 00 000053'	UPDFL2:	MOVE	0,$CHRIN
  5606	012212'	302 00 0 00 000015 		CAIE	0,15
  5607	012213'	254 00 0 00 012223'		JRST	UPDFL4
  5608	012214'	200 02 0 00 021074'		MOVE	T2,VALUE
  5609	012215'	350 00 0 17 000000 		AOS	(P)
  5610	012216'	263 17 0 00 000000 		RTN
  5611
  5612	012217'	306 00 0 00 000136 	UPDFL3:	CAIN	0,"^"
  5613	012220'	254 00 0 00 012175'		JRST	CRPOPJ
  5614	012221'	306 00 0 00 000032 		CAIN	0,"Z"-100
  5615	012222'	254 00 0 00 012225'		JRST	UPDFL5
  5616
  5617	012223'				UPDFL4:	PNTMSF	[ASCIZ/
  5618	012223'	037 01 0 00 015735'	TRY AGAIN: /]
  5619	012224'	254 00 0 00 012177'		JRST	UPDFL1
  5620
  5621	012225'	037 01 0 00 000063'	UPDFL5:	PCRLF
  5622	012226'	254 00 0 00 012117'		JRST	ENDDPY
SMFILE	DECSYSTEM 2020 DIAGNOSTICS FE-FILE PROGRAM, VER 0,3	MACRO %53(1020) 10:47 19-Feb-79 Page 151
SMFILE	MAC	19-Feb-79 10:46		DISPLAY CRAM BY FIELD BREAKDOWN -- CRMFLD                                          SEQ 0190

  5623					SUBTTL	DISPLAY CRAM BY FIELD BREAKDOWN -- CRMFLD
  5624
  5625	012227'				CRMFLD:	PNTMSF	[ASCIZ	%
  5626
  5627					C    J   #  ALU S/D  A/B RBM SPEC DISP SKIP T C SC FE FM MC DV MP C/LR M
  5628	012227'	037 01 0 00 015757'	%]
  5629	012230'	135 00 0 00 015567'		LDB	[POINT 1,2(T6),26]
  5630	012231'	202 00 0 00 021247'		MOVEM	CFCALL
  5631	012232'	037 01 0 00 000001 		PNT1F			;PRINT "CALL"
  5632	012233'	037 01 0 00 000040 		PSPACE
  5633
  5634	012234'	135 00 0 00 015571'		LDB	[POINT 12,2(T6),23]
  5635	012235'	202 00 0 00 021250'		MOVEM	CFJ
  5636	012236'	037 04 0 00 000001 		PNT4F			;PRINT "J"
  5637	012237'	037 01 0 00 000040 		PSPACE
  5638
  5639	012240'	135 00 0 00 013701'		LDB	[POINT 6,1(T6),35]
  5640	012241'	242 00 0 00 000014 		LSH	^D12
  5641	012242'	135 01 0 00 013700'		LDB	T1,[POINT 12,1(T6),23]
  5642	012243'	434 00 0 00 000001 		OR	T1
  5643	012244'	202 00 0 00 021251'		MOVEM	CFNBR
  5644	012245'	037 06 0 00 000001 		PNT6F			;PRINT "#"
  5645	012246'	037 01 0 00 000040 		PSPACE
  5646
  5647	012247'	135 00 0 00 015574'		LDB	[POINT 3,(T6),2]
  5648	012250'	202 00 0 00 021252'		MOVEM	CFALU
  5649	012251'	037 01 0 00 000001 		PNT1F			;PRINT "ALU"
  5650	012252'	037 01 0 00 000040 		PSPACE
  5651
  5652	012253'	135 00 0 00 015600'		LDB	[POINT 3,(T6),5]
  5653	012254'	242 00 0 00 000003 		LSH	3		;"LSRC"
  5654	012255'	135 01 0 00 015603'		LDB	T1,[POINT 3,(T6),8]
  5655	012256'	434 00 0 00 000001 		OR	T1
  5656	012257'	242 00 0 00 000003 		LSH	3		;"RSRC"
  5657	012260'	135 01 0 00 015606'		LDB	T1,[POINT 3,(T6),29]
  5658	012261'	434 00 0 00 000001 		OR	T1		;"DEST"
  5659	012262'	202 00 0 00 021253'		MOVEM	CFSD
  5660	012263'	037 03 0 00 000001 		PNT3F			;PRINT "S/D"
  5661	012264'	037 01 0 00 000040 		PSPACE
SMFILE	DECSYSTEM 2020 DIAGNOSTICS FE-FILE PROGRAM, VER 0,3	MACRO %53(1020) 10:47 19-Feb-79 Page 152
SMFILE	MAC	19-Feb-79 10:46		DISPLAY CRAM BY FIELD BREAKDOWN -- CRMFLD                                          SEQ 0191

  5662	012265'	135 00 0 00 015611'		LDB	[POINT 4,(T6),17]
  5663	012266'	242 00 0 00 000006 		LSH	6		;"A"
  5664	012267'	135 01 0 00 015613'		LDB	T1,[POINT 4,(T6),23]
  5665	012270'	434 00 0 00 000001 		OR	T1		;"B"
  5666	012271'	202 00 0 00 021254'		MOVEM	CFAB
  5667	012272'	037 04 0 00 000001 		PNT4F			;PRINT "A/B"
  5668	012273'	037 01 0 00 000040 		PSPACE
  5669
  5670	012274'	135 00 0 00 015617'		LDB	[POINT 3,(T6),26]
  5671	012275'	242 00 0 00 000003 		LSH	3		;PRINT "R"
  5672	012276'	135 01 0 00 015622'		LDB	T1,[POINT 2,(T6),13]
  5673	012277'	434 00 0 00 000001 		OR	T1		;PRINT "B"
  5674	012300'	242 00 0 00 000003 		LSH	3
  5675	012301'	135 01 0 00 015625'		LDB	T1,[POINT 3,(T6),11]
  5676	012302'	434 00 0 00 000001 		OR	T1		;PRINT "M"
  5677	012303'	202 00 0 00 021255'		MOVEM	CFRBM
  5678	012304'	037 03 0 00 000001 		PNT3F			;PRINT "RBM"
  5679	012305'	037 01 0 00 000040 		PSPACE
  5680	012306'	037 01 0 00 000040 		PSPACE
  5681	012307'	037 01 0 00 000040 		PSPACE
  5682
  5683	012310'	135 00 0 00 015630'		LDB	[POINT 3,2(T6),32]
  5684	012311'	242 00 0 00 000003 		LSH	3
  5685	012312'	135 01 0 00 015631'		LDB	T1,[POINT 3,1(T6),8]
  5686	012313'	434 00 0 00 000001 		OR	T1
  5687	012314'	202 00 0 00 021256'		MOVEM	CFSPEC
  5688	012315'	037 02 0 00 000001 		PNT2F			;PRINT "SPEC"
  5689	012316'	037 01 0 00 000040 		PSPACE
  5690	012317'	037 01 0 00 000040 		PSPACE
  5691	012320'	037 01 0 00 000040 		PSPACE
  5692
  5693	012321'	135 00 0 00 015634'		LDB	[POINT 3,2(T6),35]
  5694	012322'	242 00 0 00 000003 		LSH	3
  5695	012323'	135 01 0 00 015635'		LDB	T1,[POINT 3,1(T6),5]
  5696	012324'	434 00 0 00 000001 		OR	T1
  5697	012325'	202 00 0 00 021257'		MOVEM	CFDISP
  5698	012326'	037 02 0 00 000001 		PNT2F			;PRINT "DISP"
  5699	012327'	037 01 0 00 000040 		PSPACE
  5700	012330'	037 01 0 00 000040 		PSPACE
SMFILE	DECSYSTEM 2020 DIAGNOSTICS FE-FILE PROGRAM, VER 0,3	MACRO %53(1020) 10:47 19-Feb-79 Page 153
SMFILE	MAC	19-Feb-79 10:46		DISPLAY CRAM BY FIELD BREAKDOWN -- CRMFLD                                          SEQ 0192

  5701	012331'	037 01 0 00 000040 		PSPACE
  5702	012332'	135 00 0 00 015777'		LDB	[POINT 3,2(T6),29]
  5703	012333'	242 00 0 00 000003 		LSH	3
  5704	012334'	135 01 0 00 015641'		LDB	T1,[POINT 3,1(T6),11]
  5705	012335'	434 00 0 00 000001 		OR	T1
  5706	012336'	202 00 0 00 021260'		MOVEM	CFSKIP
  5707	012337'	037 02 0 00 000001 		PNT2F			;PRINT "SKIP"
  5708	012340'	037 01 0 00 000040 		PSPACE
  5709
  5710	012341'	135 00 0 00 015643'		LDB	[POINT 2,2(T6),25]
  5711	012342'	202 00 0 00 021261'		MOVEM	CFT
  5712	012343'	037 01 0 00 000001 		PNT1F			;PRINT "T"
  5713	012344'	037 01 0 00 000040 		PSPACE
  5714
  5715	012345'	135 00 0 00 015646'		LDB	[POINT 1,1(T6),1]
  5716	012346'	202 00 0 00 021262'		MOVEM	CFC
  5717	012347'	037 01 0 00 000001 		PNT1F			;PRINT "C"
  5718	012350'	037 01 0 00 000040 		PSPACE
  5719	012351'	037 01 0 00 000040 		PSPACE
  5720
  5721	012352'	135 00 0 00 015651'		LDB	[POINT 1,(T6),30]
  5722	012353'	202 00 0 00 021263'		MOVEM	CFSC
  5723	012354'	037 01 0 00 000001 		PNT1F			;PRINT "SC"
  5724	012355'	037 01 0 00 000040 		PSPACE
  5725	012356'	037 01 0 00 000040 		PSPACE
SMFILE	DECSYSTEM 2020 DIAGNOSTICS FE-FILE PROGRAM, VER 0,3	MACRO %53(1020) 10:47 19-Feb-79 Page 154
SMFILE	MAC	19-Feb-79 10:46		DISPLAY CRAM BY FIELD BREAKDOWN -- CRMFLD                                          SEQ 0193

  5726	012357'	135 00 0 00 015654'		LDB	[POINT 1,(T6),31]
  5727	012360'	202 00 0 00 021264'		MOVEM	CFFE
  5728	012361'	037 01 0 00 000001 		PNT1F			;PRINT "FE"
  5729	012362'	037 01 0 00 000040 		PSPACE
  5730	012363'	037 01 0 00 000040 		PSPACE
  5731
  5732	012364'	135 00 0 00 015657'		LDB	[POINT 1,1(T6),24]
  5733	012365'	202 00 0 00 021265'		MOVEM	CFFM
  5734	012366'	037 01 0 00 000001 		PNT1F			;PRINT "FM"
  5735	012367'	037 01 0 00 000040 		PSPACE
  5736	012370'	037 01 0 00 000040 		PSPACE
  5737
  5738	012371'	135 00 0 00 015662'		LDB	[POINT 1,1(T6),2]
  5739	012372'	202 00 0 00 021266'		MOVEM	CFMC
  5740	012373'	037 01 0 00 000001 		PNT1F			;PRINT "MC"
  5741	012374'	037 01 0 00 000040 		PSPACE
  5742	012375'	037 01 0 00 000040 		PSPACE
  5743
  5744	012376'	135 00 0 00 015665'		LDB	[POINT 1,1(T6),28]
  5745	012377'	202 00 0 00 021267'		MOVEM	CFDV
  5746	012400'	037 01 0 00 000001 		PNT1F			;PRINT "DV"
  5747	012401'	037 01 0 00 000040 		PSPACE
  5748	012402'	037 01 0 00 000040 		PSPACE
  5749
  5750	012403'	135 00 0 00 015671'		LDB	[POINT 1,1(T6),29]
  5751	012404'	242 00 0 00 000001 		LSH	1
  5752	012405'	135 01 0 00 015675'		LDB	T1,[POINT 1,1(T6),25]
  5753	012406'	434 00 0 00 000001 		OR	T1
  5754	012407'	202 00 0 00 021270'		MOVEM	CFMP
  5755	012410'	037 01 0 00 000001 		PNT1F			;PRINT "MP"
  5756	012411'	037 01 0 00 000040 		PSPACE
  5757	012412'	037 01 0 00 000040 		PSPACE
SMFILE	DECSYSTEM 2020 DIAGNOSTICS FE-FILE PROGRAM, VER 0,3	MACRO %53(1020) 10:47 19-Feb-79 Page 155
SMFILE	MAC	19-Feb-79 10:46		DISPLAY CRAM BY FIELD BREAKDOWN -- CRMFLD                                          SEQ 0194

  5758
  5759	012413'	135 00 0 00 015702'		LDB	[POINT 1,(T6),18]
  5760	012414'	242 00 0 00 000001 		LSH	1		;"CLKL"
  5761	012415'	135 01 0 00 015705'		LDB	T1,[POINT 1,1(T6),26]
  5762	012416'	434 00 0 00 000001 		OR	T1		;"GENL"
  5763	012417'	242 00 0 00 000001 		LSH	1
  5764	012420'	135 01 0 00 015710'		LDB	T1,[POINT 1,(T6),32]
  5765	012421'	434 00 0 00 000001 		OR	T1		;"CHKL"
  5766	012422'	202 00 0 00 021271'		MOVEM	CFCL
  5767	012423'	037 01 0 00 000001 		PNT1F			;PRINT "CL"
  5768	012424'	037 01 0 00 000040 		PSPACE
  5769
  5770	012425'	135 00 0 00 015714'		LDB	[POINT 1,(T6),19]
  5771	012426'	242 00 0 00 000001 		LSH	1		;"CLKR"
  5772	012427'	135 01 0 00 015717'		LDB	T1,[POINT 1,1(T6),27]
  5773	012430'	434 00 0 00 000001 		OR	T1		;"GENR"
  5774	012431'	242 00 0 00 000001 		LSH	1
  5775	012432'	135 01 0 00 015722'		LDB	T1,[POINT 1,(T6),33]
  5776	012433'	434 00 0 00 000001 		OR	T1		;"CHKR"
  5777	012434'	202 00 0 00 021272'		MOVEM	CFCR
  5778	012435'	037 01 0 00 000001 		PNT1F			;PRINT "CR"
  5779	012436'	037 01 0 00 000040 		PSPACE
  5780
  5781	012437'	135 00 0 00 015725'		LDB	[POINT 1,(T6),35]
  5782	012440'	202 00 0 00 021273'		MOVEM	CFMARK
  5783	012441'	037 01 0 00 000001 		PNT1F			;PRINT "M"
  5784
  5785	012442'	037 01 0 00 000063'		PCRLF
  5786	012443'	263 17 0 00 000000 		RET
SMFILE	DECSYSTEM 2020 DIAGNOSTICS FE-FILE PROGRAM, VER 0,3	MACRO %53(1020) 10:47 19-Feb-79 Page 156
SMFILE	MAC	19-Feb-79 10:46		MISCELLANEOUS ROUTINES                                                             SEQ 0195

  5787					SUBTTL	MISCELLANEOUS ROUTINES
  5788
  5789	012444'	332 00 0 00 021050'	INTCOR:	SKIPE	IC1TIM#
  5790	012445'	254 00 0 00 012461'		JRST	INTCR1
  5791
  5792	012446'	205 01 0 00 436777 		MOVSI	T1,400000+<^D31*^D512>-1
  5793	012447'	047 01 0 00 000011 		CORE	T1,
  5794	012450'	260 17 0 00 016004'		ERR	<CAN'T GET HI-CORE>
  5795
  5796	012451'	402 00 0 00 000000 		SETZM			;MAKE IT WRITABLE
  5797	012452'	047 00 0 00 000036 		SETUWP
  5798	012453'	260 17 0 00 016014'		ERR	<CAN'T MAKE HI-CORE WRITABLE>
  5799
  5800	012454'	402 00 0 00 400000 		SETZM	400000
  5801	012455'	200 01 0 00 014152'		MOVE	T1,[400000,,400001]
  5802	012456'	251 01 0 00 436777 		BLT	T1,400000+<^D31*^D512>-1
  5803	012457'	476 00 0 00 021050'		SETOM	IC1TIM
  5804	012460'	263 17 0 00 000000 		RTN
  5805
  5806	012461'	402 00 0 00 000000 	INTCR1:	SETZM			;MAKE IT WRITABLE
  5807	012462'	047 00 0 00 000036 		SETUWP
  5808	012463'	260 17 0 00 016014'		ERR	<CAN'T MAKE HI-CORE WRITABLE>
  5809	012464'	263 17 0 00 000000 		RTN
  5810
  5811	012465'	201 00 0 00 005401'	CONCIN:	MOVEI	CCBLK		;SETUP ^C INTERRUPT BLOCK
  5812	012466'	202 00 0 00 000134 		MOVEM	134
  5813	012467'	402 00 0 00 005403'		SETZM	CCBLK+2
  5814	012470'	263 17 0 00 000000 		RTN
  5815
  5816	012471'	060 16 0 00 000000 	CCINT:	SETSTS	16,0		;RESET TTY
  5817	012472'	554 00 0 00 005404'		HLRZ	CCBLK+3		;GET INTERRUPT REASON
  5818	012473'	302 00 0 00 000002 		CAIE	2		;^C ?
  5819	012474'	254 04 0 00 012474'		HALT .
  5820	012475'	047 00 0 00 000012 		EXIT
  5821
  5822		060700	000000		RTTY=	SETSTS	16,0		;RESET TTY
  5823		060700	000700		STTY=	SETSTS	16,700		;SET TTY, IO.LEM+IO.SUP+IO.TEC,+.IOASC
SMFILE	DECSYSTEM 2020 DIAGNOSTICS FE-FILE PROGRAM, VER 0,3	MACRO %53(1020) 10:47 19-Feb-79 Page 157
SMFILE	MAC	19-Feb-79 10:46		PSI LOGIC -- LEVTAB & CHNTAB                                                       SEQ 0196

  5824					SUBTTL	PSI LOGIC -- LEVTAB & CHNTAB
  5825
  5826	012476'	000000	021144'		LEVTAB:	LEV1PC
  5827	012477'	000000	021145'			LEV2PC
  5828	012500'	000000	021146'			LEV3PC
  5829
  5830	012501'	000000	021147'		LFLVTB:	LF1PC
  5831	012502'	000000	021150'			LF2PC
  5832	012503'	000000	021151'			LF3PC
  5833
  5834	012504'	000000	000000		CHNTAB:	0			;00 UNUSED
  5835	012505'	000000	000000			0			;01 UNUSED
  5836	012506'	000000	000000			0			;02 UNUSED
  5837	012507'	000000	000000			0			;03 UNUSED
  5838	012510'	000000	000000			0			;04 UNUSED
  5839	012511'	000000	000000			0			;05 UNUSED
  5840	012512'	000000	000000			0			;06 ARITHMETIC OVERFLOW
  5841	012513'	000000	000000			0			;07 FLOATING POINT OVERFLOW
  5842	012514'	000000	000000			0			;08 RESERVED
  5843	012515'	000000	000000			0			;09 PDL OV
  5844	012516'	000000	000000			0			;10 END OF FILE
  5845	012517'	000000	000000			0			;11 DATA ERROR
  5846	012520'	000000	000000			0			;12 RESERVED
  5847	012521'	000000	000000			0			;13 RESERVED
  5848	012522'	000000	000000			0			;14 RESERVED
  5849	012523'	000000	000000			0			;15 ILLEGAL INSTRUCTION
  5850	012524'	000000	000000			0			;16 ILLEGAL MEMORY READ
  5851	012525'	000000	000000			0			;17 ILLEGAL MEMORY WRITE
  5852	012526'	000000	000000			0			;18 RESERVED
  5853	012527'	000002	012621'			2,,FRKERR		;19 INFERIOR PROCESS TERMINATION
  5854	012530'	000000	000000			0			;20 SYSTEM RESOURCES EXHAUSTED
  5855	012531'	000000	000000			0			;21 RESERVED
  5856	012532'	000000	000000			0			;22 NON-X-PAGE
  5857	012533'	000000	000000			0			;23 UNUSED
  5858	012534'	000000	000000			0			;24 UNUSED
  5859	012535'	000000	000000			0			;25 UNUSED
  5860	012536'	000000	000000			0			;26 UNUSED
  5861	012537'	000000	000000			0			;27 UNUSED
  5862	012540'	000000	000000			0			;28 UNUSED
  5863	012541'	000000	000000			0			;29 UNUSED
  5864	012542'	000001	012555'			1,,CTLX			;30 CONTROL-X
  5865	012543'	000001	012550'			1,,CTLC			;31 CONTROL-C
  5866	012544'	000001	012563'			1,,CTLZ			;32 CONTROL-Z
  5867	012545'	000001	012573'			1,,CTLT			;33 CONTROL-T
  5868	012546'	000001	012617'			1,,ctlo			;34 control-o
  5869	012547'	000000	000000			0			;35 UNUSED
SMFILE	DECSYSTEM 2020 DIAGNOSTICS FE-FILE PROGRAM, VER 0,3	MACRO %53(1020) 10:47 19-Feb-79 Page 158
SMFILE	MAC	19-Feb-79 10:46		PSI LOGIC -- CONTROL-C AND CONTROL-X                                               SEQ 0197

  5870					SUBTTL PSI LOGIC -- CONTROL-C AND CONTROL-X
  5871
  5872					;*HERE ON A CONTROL-C INTERRUPT
  5873
  5874	012550'	200 00 0 00 016016'	CTLC:	MOVE	[1B5+.+3]
  5875	012551'	202 00 0 00 021144'		MOVEM	LEV1PC
  5876	012552'	104 00 0 00 000136 		DEBRK
  5877	012553'	104 00 0 00 000170 		HALTF			;EXIT TO MONITOR
  5878	012554'	254 00 0 00 000345'		JRST	START
  5879
  5880					;*HERE ON CONTROL-X INTERRUPT
  5881
  5882					CTLX:	TMSG	<
  5883					ABORTED
  5884	012555'	561 01 0 00 016017'	>
  5885	012556'	104 00 0 00 000076
  5886	012557'	200 01 0 00 016022'		MOVE	T1,[1B5+REEN]	;WHERE TO GO
  5887	012560'	202 01 0 00 021144'		MOVEM	T1,LEV1PC	;STORE IT
  5888	012561'	104 00 0 00 000136 		DEBRK			;GO REENTER
  5889	012562'	254 00 0 00 000537'		JRST	REEN		;INTERNAL CONFUSION
  5890
  5891					;*HERE ON CONTROL-Z INTERRUPT
  5892
  5893	012563'	336 00 0 00 021156'	CTLZ:	SKIPN	CZADR
  5894	012564'	104 00 0 00 000136 		DEBRK
  5895	012565'	261 17 0 00 000001 		PUSH	P,T1
  5896	012566'	200 01 0 00 021156'		MOVE	T1,CZADR
  5897	012567'	661 01 0 00 010000 		TLO	T1,(1B5)
  5898	012570'	202 01 0 00 021144'		MOVEM	T1,LEV1PC
  5899	012571'	262 17 0 00 000001 		POP	P,T1
  5900	012572'	104 00 0 00 000136 		DEBRK
  5901
  5902					;*HERE ON A CONTROL-T INTERRUPT
  5903
  5904	012573'	336 00 0 00 021160'	CTLT:	SKIPN	CTADR
  5905	012574'	104 00 0 00 000136 		DEBRK
  5906						SAVEAC
  5907	012605'	260 17 1 00 021160'		GO	@CTADR
  5908						RESTAC
  5909	012616'	104 00 0 00 000136 		DEBRK
SMFILE	DECSYSTEM 2020 DIAGNOSTICS FE-FILE PROGRAM, VER 0,3	MACRO %53(1020) 10:47 19-Feb-79 Page 159
SMFILE	MAC	19-Feb-79 10:46		PSI LOGIC -- CONTROL-C AND CONTROL-X                                               SEQ 0198

  5910					;*here on control-o interrupt
  5911
  5912	012617'	462 00 0 00 021055'	ctlo:	SETCMM	NOTYPE#
  5913	012620'	104 00 0 00 000136 		debrk
  5914
  5915					;**PSI LOGIC -- FORK TERMINATION
  5916
  5917					;*HERE WHEN A FORK TERMINATES
  5918	012621'	261 17 0 00 000001 	FRKERR:	put	t1
  5919	012622'	550 01 0 00 021145'		hrrz	t1,lev2pc
  5920	012623'	306 01 0 00 001061'		cain	t1,pushpc
  5921						jrst	[getit	t1
  5922	012624'	254 00 0 00 016023'			 debrk]
  5923	012625'	201 01 0 00 000101 		MOVEI	T1,.PRIOU
  5924	012626'	104 00 0 00 000104 		DOBE
  5925	012627'	104 00 0 00 000100 		CFIBF
  5926						TMSG	<
  5927					?UNEXPECTED INFERIOR PROCESS TERMINATION
  5928					PROGRAM RESTARTING...
  5929	012630'	561 01 0 00 016025'	>
  5930	012631'	104 00 0 00 000076
  5931	012632'	254 00 0 00 000345'		JRST	START
  5932
  5933					SUBTTL	PSI LOGIC -- CONTROL T
  5934
  5935					RDULDT:	TMSG	<
  5936	012633'	561 01 0 00 016043'	READING CRAM ADDRESS - >
  5937	012634'	104 00 0 00 000076
  5938	012635'	200 02 0 00 021063'		MOVE	T2,RDULT6
  5939	012636'	201 01 0 00 000101 		MOVEI	T1,.PRIOU
  5940	012637'	201 03 0 00 000010 		MOVEI	T3,^D8
  5941	012640'	104 00 0 00 000224 		NOUT
  5942	012641'	260 17 0 00 016056'		ERR	<CONTROL-T NOUT FAILED>
  5943						TMSG	<
  5944	012642'	561 01 0 00 013144'	>
  5945	012643'	104 00 0 00 000076
  5946	012644'	263 17 0 00 000000 		RTN
  5947
  5948
  5949	012645'				PARSET:	HRROI	T1,[ASCIZ "
  5950					WAITING FOR A COMMAND
  5951	012645'	561 01 0 00 016060'	SMFILE>"]
  5952	012646'	104 00 0 00 000076 		PSOUT
  5953	012647'	263 17 0 00 000000 		RTN
SMFILE	DECSYSTEM 2020 DIAGNOSTICS FE-FILE PROGRAM, VER 0,3	MACRO %53(1020) 10:47 19-Feb-79 Page 160
SMFILE	MAC	19-Feb-79 10:46		STORAGE -- PRESERVED                                                               SEQ 0199

  5954					SUBTTL	STORAGE -- PRESERVED
  5955
  5956						XLIST			;LITERAL POOL
  5957						LIST			;LITERAL POOL
  5958
  5959					;*COMMAND STATUS BLOCK FOR COMND JSYS
  5960	016372'	000000	000563'		CSB:	PARSE
  5961	016373'	000100	000101			.PRIIN,,.PRIOU
  5962	016374'	777777	000311'			-1,,PROMPT
  5963	016375'	777777	016423'			-1,,CMDBUF
  5964	016376'	777777	016423'			-1,,CMDBUF
  5965	016377'	000000	000372			^D250
  5966	016400'	000000	000000			0
  5967	016401'	777777	016505'			-1,,ATOM
  5968	016402'	000000	000372			^D250
  5969	016403'	000000	016404'			GTJFNB
  5970
  5971	016404'				GTJFNB:
  5972	016404'	100000	000000		GTJFLG:	EXP	GJ%OLD
  5973	016405'	000100	000101			.PRIIN,,.PRIOU
  5974	016406'	000000	000000		GTJDEV:	0
  5975	016407'	777777	020476'		GTJDIR:	-1,,[ASCIZ "SMFILE"]
  5976	016410'	777777	020500'		GTJFIL:	-1,,[ASCIZ "DECSYSTEM-2020"]
  5977	016411'	777777	020503'		GTJEXT:	-1,,[ASCIZ "RAM"]
  5978	016412'	000000	000000			0
  5979	016413'	000000	000000			0
  5980	016414'	000000	000000			0
  5981	016415'	000000	000000			0
  5982	016416'	000000	000000			0
  5983	016417'	000000	000000			0
  5984	016420'	000000	000000			0
  5985	016421'	000000	000000			0
  5986	016422'	000000	000000			0
  5987
  5988	016423'				CMDBUF:	BLOCK	^D50
  5989	016505'				ATOM:	BLOCK	^D50
  5990	016567'	000000	000000		DEBUGF:	0			;0 = PRODUCTION, -1 = DEBUG
  5991	016570'	000000	000000		PARFLG:	0			;EVEN/ODD CRAM PARITY SWITCH
  5992	016571'	000000	000000		LOGFLG:	0			;-1 = LOG, 0 = NO LOG
  5993	016572'				RDFLAG:	BLOCK	1		;INDICATES MICROCODE READ IN
  5994	016573'	777777	777777		ECOFLG:	-1			;-1=ECHO, 0=DON'T ECHO TAKE FILES
  5995
  5996	016574'	63 55 46 51 54 45 	LOGNAM:	SIXBIT/SMFILE/		;LOG FILE NAME & EXT
  5997	016575'	54 57 47 00 00 00 	LOGEXT:	SIXBIT/LOG/
SMFILE	DECSYSTEM 2020 DIAGNOSTICS FE-FILE PROGRAM, VER 0,3	MACRO %53(1020) 10:47 19-Feb-79 Page 161
SMFILE	MAC	19-Feb-79 10:46		COMMAND PROCESSOR                                                                  SEQ 0200

  5998					SUBTTL	 COMMAND PROCESSOR
  5999
  6000						LALL
  6001
  6002	016576'	000000	016600'		$PNAME:	PGMNAM
  6003	016577'	000000	000003		$PVER:	MCNVER,,DECVER
  6004
  6005	016600'				PGMNAM:	ASCIZ	%
  6006	016600'	015 012 104 105 103 	DECSYSTEM 2020 DIAGNOSTICS FE-FILE PROGRAM
  6007	016601'	123 131 123 124 105
  6008	016602'	115 040 062 060 062
  6009	016603'	060 040 104 111 101
  6010	016604'	107 116 117 123 124
  6011	016605'	111 103 123 040 106
  6012	016606'	105 055 106 111 114
  6013	016607'	105 040 120 122 117
  6014	016610'	107 122 101 115 015
  6015	016611'	012 000 000 000 000 	%
  6016
  6017	016612'	037 05 0 00 000002 	REENTR:	DROPDV			;CLOSE LOG FILE
  6018	016613'	332 00 0 00 000302'		SKIPE	MONTYP
  6019	016614'	254 00 0 00 016617'		JRST	REEN20
  6020	016615'	047 00 0 00 000000 		CALLI	0
  6021	016616'	047 00 0 00 000012 		CALLI	12
  6022
  6023	016617'	104 00 0 00 000147 	REEN20:	RESET
  6024	016620'	104 00 0 00 000170 		HALTF
  6025	016621'	254 00 0 00 000345'		JRST	START
SMFILE	DECSYSTEM 2020 DIAGNOSTICS FE-FILE PROGRAM, VER 0,3	MACRO %53(1020) 10:47 19-Feb-79 Page 162
SMFILE	MAC	19-Feb-79 10:46		MAIN SUBROUTINE PACKAGE CONTROL                                                    SEQ 0201

  6026					SUBTTL	MAIN SUBROUTINE PACKAGE CONTROL
  6027
  6028					S^;*********************************************************************^
  6029					;*INITIALIZE THE SUBROUTINE PACKAGE
  6030					S^;*********************************************************************^
  6031
  6032	016622'	63 65 42 62 64 56 	SUBRTN:	SIXBIT/SUBRTN/		;"SUBRTN" IDENTIFICATION WORD
  6033	016623'	000000	000003		SUBVER:	MCNVER,,DECVER		;"SUBRTN" VERSION INFORMATION
  6034	016624'	63 55 46 51 54 45 	PNTNAM:	SIXBIT/SMFILE/
  6035	016625'	54 57 47 00 00 00 	PNTEXT:	SIXBIT/LOG/
  6036
  6037					S^;*********************************************************************^
  6038					;*CONTRL* SUBROUTINE PACKAGE INITIALIZATION
  6039					S^;*********************************************************************^
  6040
  6041	016626'				SBINIT:
  6042	016626'	202 00 0 00 021077'	$PGMIN:	MOVEM	0,$$PAC0
  6043	016627'	476 00 0 00 000000'		SETOM	USER
  6044	016630'	265 00 0 00 016631'		JSP	0,.+1		;LOAD FLAGS INTO AC0
  6045	016631'	607 00 0 00 010000 		TLNN	0,USERF		;USER MODE ?
  6046	016632'	254 04 0 00 016632'		HALT	.		;EXEC MODE
  6047	016633'	402 00 0 00 000302'		SETZM	MONTYP
  6048	016634'	200 00 0 00 020504'		MOVE	[112,,11]
  6049	016635'	047 00 0 00 000041 		GETTAB			;GET MONITOR TYPE ID
  6050	016636'	310 00 0 00 000000 		CAM
  6051	016637'	306 00 0 00 040000 		CAIN	40000		;TOPS20 ?
  6052	016640'	476 00 0 00 000302'		SETOM	MONTYP		;YES
SMFILE	DECSYSTEM 2020 DIAGNOSTICS FE-FILE PROGRAM, VER 0,3	MACRO %53(1020) 10:47 19-Feb-79 Page 163
SMFILE	MAC	19-Feb-79 10:46		MAIN SUBROUTINE PACKAGE CONTROL                                                    SEQ 0202

  6053					S^;*********************************************************************^
  6054					;*INITIALIZE PROCESSOR FLAGS AND PUSH LIST
  6055					S^;*********************************************************************^
  6056
  6057	016641'	554 00 0 00 000120 	$PGMN1:	HLRZ	JOBSA		;RESET JOB FIRST FREE TO
  6058	016642'	202 00 0 00 000121 		MOVEM	JOBFF		;END OF LOW SEGMENT
  6059	016643'	336 00 0 00 000302'		SKIPN	MONTYP
  6060	016644'	047 00 0 00 000000 		CALLI	0		;TOPS10 RESET
  6061	016645'	332 00 0 00 000302'		SKIPE	MONTYP
  6062	016646'	104 00 0 00 000147 		RESET			;CLEAR USER I/O
  6063	016647'	254 02 1 00 016650'		JRST	2,@.+1		;CLEAR PC FLAGS
  6064	016650'	000000	016651'				0,,.+1
  6065	016651'	200 00 0 00 000006'		MOVE	CONSW
  6066	016652'	202 00 0 00 021130'		MOVEM	$SVCSW#		;SAVE PREVIOUS SWITCHES
  6067	016653'	402 00 0 00 000006'		SETZM	CONSW#		;CLEAR SWITCH REGISTER
  6068	016654'	402 00 0 00 021131'		SETZM	$SWFLG#		;DISALLOW SWITCHES TILL INITED
  6069	016655'	200 17 0 00 000077'		MOVE	P,PLIST		;INIT PUSH POINTER
  6070
  6071					S^;*********************************************************************^
  6072					;*INITIALIZE SUBROUTINES
  6073					S^;*********************************************************************^
  6074
  6075	016656'	260 17 0 00 017027'	PGINGO:	GO	$CPUTP		;DETERMINE CPU TYPE (KL/KI/KA)
  6076	016657'	260 17 0 00 016664'		GO	$UUOIN		;INIT UUO TRAP TRANSFER LOCATION
  6077	016660'	260 17 0 00 017562'		GO	$PNTIN		;INIT PRINT SUBROUTINE
  6078	016661'	260 17 0 00 017161'		GO	$TYPIN		;INIT TTY INPUT SUBROUTINE
  6079	016662'	476 00 0 00 000015'		SETOM	$ONETM		;SET ONE TIME FLAG
  6080	016663'	254 00 1 00 021077'		JRST	@$$PAC0#
SMFILE	DECSYSTEM 2020 DIAGNOSTICS FE-FILE PROGRAM, VER 0,3	MACRO %53(1020) 10:47 19-Feb-79 Page 164
SMFILE	MAC	19-Feb-79 10:46		UUO HANDLING SUBROUTINE                                                            SEQ 0203

  6081					SUBTTL	UUO HANDLING SUBROUTINE
  6082
  6083					S^;*********************************************************************^
  6084					;*UUO INITIALIZATION
  6085					S^;*********************************************************************^
  6086
  6087	016664'	200 00 0 00 020505'	$UUOIN:	MOVE	[GO  $UORTN]	;BRING IN UUORTN ENTRY INSTR.
  6088	016665'	202 00 0 00 000041 		MOVEM	JOB41		;SETUP UUO TRAP AT JOB41
  6089	016666'	200 00 0 00 020506'		MOVE	[JRST $UOERX]
  6090	016667'	202 00 0 00 000020'		MOVEM	$UUOER		;SET UUO ERROR IN "FIXED"
  6091	016670'	402 00 0 00 021142'		SETZM	$UPLER#
  6092	016671'	263 17 0 00 000000 		RTN			;EXIT
  6093
  6094					;*$UORTN - UUO PROCESSING
  6095
  6096	016672'	261 17 0 00 000000 	$UORTN:	PUT	AC0		;SAVE AC0 ON PUSH LIST
  6097	016673'	200 00 0 00 000040 		MOVE	AC0,JOBUUO	;GET THE UUO
  6098	016674'	242 00 0 00 777745 		LSH	AC0,-^D27	;ISOLATE INSTRUCTION FIELD FOR UUO (RT 27 PLACES)
  6099	016675'	303 00 0 00 000036 		CAILE	AC0,36		;IS IT 36 OR LESS? (LOW)
  6100	016676'	254 00 0 00 016720'		JRST	$SUBUO		;DECODE 37 @ $SUBUO
SMFILE	DECSYSTEM 2020 DIAGNOSTICS FE-FILE PROGRAM, VER 0,3	MACRO %53(1020) 10:47 19-Feb-79 Page 165
SMFILE	MAC	19-Feb-79 10:46		UUO HANDLING SUBROUTINE                                                            SEQ 0204

  6101	016677'	200 00 0 17 777777 	$USRUO:	MOVE	AC0,-1(P)	;GET USRPC + 1 (AC0 IS ALSO ON THE STACK)
  6102	016700'	275 00 0 00 000001 		SUBI	1		; - 1
  6103	016701'	202 00 0 00 000023'		MOVEM	$SVUPC		;SAVE FOR USER UUO ROUTINE (IF NEEDED)
  6104	016702'	200 00 0 00 000040 		MOVE	AC0,JOBUUO	;GET UUO FROM LOCATION 40 IN JDA
  6105	016703'	202 00 0 00 000022'		MOVEM	$SVUUO		;SAVE FOR USER UUO ROUTINE
  6106	016704'	200 00 0 00 000022'		MOVE	AC0,$SVUUO
  6107	016705'	242 00 0 00 777745 		LSH	AC0,-^D27	;RIGHT SHIFT FOR INDEX INTO UUO TABLE
  6108	016706'	261 17 0 00 000001 		PUT	1
  6109	016707'	246 00 0 00 777777 		LSHC	0,-1
  6110	016710'	271 00 0 00 000024'		ADDI	UUODIS		;ADD USER UUO TABLE START TO THE UUO
  6111	016711'	607 01 0 00 400000 	$XUUO:	TLNN	1,400000
  6112	016712'	550 00 1 00 000000 		HRRZ	@0		;EVEN UUO
  6113	016713'	603 01 0 00 400000 		TLNE	1,400000
  6114	016714'	554 00 1 00 000000 		HLRZ	@0		;ODD UUO
  6115	016715'	262 17 0 00 000001 		GETIT	1
  6116	016716'	250 00 0 17 000000 		EXCH	AC0,(P)		;PUT ADR ON STACK, AC0 BACK IN AC0
  6117	016717'	263 17 0 00 000000 		RTN			;SPECIAL XFER TO ROUTINE USING ADR ON STACK
  6118
  6119	016720'	275 00 0 00 000037 	$SUBUO:	SUBI	AC0,37		;NORMALIZE TO MAKE LOWEST UUO = 0
  6120	016721'	271 00 0 00 016723'		ADDI	AC0,TABLE0	;ADDR OF TABLE + NORM. UUO (0-3)
  6121	016722'	254 00 1 00 000000 		JRST	@0		;SELECT THE CORRECT ERROR UUO VIA TABLE
  6122
  6123	016723'	254 00 0 00 016737'	TABLE0:	JRST	$UUO37		;UUO = 37 .......DECODE SUBROUTINE UUO
  6124
  6125					S^;*********************************************************************^
  6126					;*UUO ERROR EXIT ROUTINE
  6127					S^;*********************************************************************^
  6128						SALL
  6129
  6130	016724'	262 17 0 00 000000 		GETIT	AC0		;POP OFF AC0 (KA MUUO'S)
  6131	016725'	261 17 0 00 000040 	$UOERX:	PUT	JOBUUO		;SAVE BAD UUO WHILE PRINTING VIA AC0 (P + 1)
  6132	016726'	037 02 0 00 020507'		PMSG	<^ILLEGAL UUO^UUO]]FLAGS]  PC^>
  6133	016727'	262 17 0 00 000000 		GETIT	AC0		;GET BAD UUO FROM THE STACK (P - 1)
  6134	016730'	037 13 0 00 000000 		PNTHW			;PRINT IT
  6135	016731'	037 00 0 00 000040 		PSP			;PRINT SPACE
  6136	016732'	262 17 0 00 000000 		GETIT	AC0		;GET FLAGS & UUO PC + 1 FROM STACK (P - 1)
  6137	016733'	275 00 0 00 000001 		SUBI	AC0,1		;SUBTRACT 1
  6138	016734'	037 13 0 00 000000 		PNTHW			;PRINT FLAGS & UUO PC
  6139	016735'	037 00 0 00 000063'		PCRL			;PRINT C/R & L/F
  6140	016736'	037 15 0 00 000004 		FATAL
  6141
  6142						LALL
SMFILE	DECSYSTEM 2020 DIAGNOSTICS FE-FILE PROGRAM, VER 0,3	MACRO %53(1020) 10:47 19-Feb-79 Page 166
SMFILE	MAC	19-Feb-79 10:46		UUO HANDLING SUBROUTINE                                                            SEQ 0205

  6143					S^;*********************************************************************^
  6144					;*DECODE ROUTINE FOR SUBROUTINE UUO'S (037)
  6145					S^;*********************************************************************^
  6146
  6147	016737'	550 00 0 00 000040 	$UUO37:	HRRZ	JOBUUO		;GET CALLING UUO
  6148	016740'	322 00 0 00 017641'		JUMPE	$PNTIT		;PRINT UUO
  6149	016741'	306 00 0 00 000001 		CAIN	0,1
  6150	016742'	254 00 0 00 017617'		JRST	$PNTIF		;PRINT FORCED UUO
  6151	016743'	602 00 0 00 777600 		TRNE	777600
  6152	016744'	254 00 0 00 017015'		JRST	$EG177		;PRINT MESSAGE UUO
  6153	016745'	301 00 0 00 000005 		CAIL	5
  6154	016746'	254 00 0 00 017010'		JRST	$EG4		;PRINT CHAR IMMEDIATE UUO
  6155	016747'	261 17 0 00 000001 		PUT	1
  6156	016750'	200 01 0 00 000040 		MOVE	1,JOBUUO
  6157	016751'	242 01 0 00 777751 		LSH	1,-^D23		;EXTRACT UUO AC FIELD
  6158	016752'	405 01 0 00 000017 		ANDI	1,17
  6159	016753'	242 00 0 00 000004 		LSH	0,4		;POSITION E FIELD
  6160	016754'	434 00 0 00 000001 		IOR	0,1		;COMBINE E & AC FIELD
  6161	016755'	246 00 0 00 777777 		LSHC	0,-1		;SET ODD/EVEN
  6162	016756'	271 00 0 00 016740'		ADDI	$UOTAB-20	;COMPUTE TABLE ENTRY OFFSET
  6163	016757'	254 00 0 00 016711'		JRST	$XUUO
  6164
  6165	016760'				$UOTAB:				;E FIELD = 2
  6166	016760'	017735'	017724'			$PTSXF,,$PNTSX
  6167	016761'	016725'	016725'			$UOERX,,$UOERX
  6168	016762'	020350'	017113'			$DRPDV,,$PNTNM
  6169	016763'	016725'	016725'			$UOERX,,$UOERX
  6170	016764'	016725'	016725'			$UOERX,,$UOERX
  6171	016765'	016725'	016725'			$UOERX,,$UOERX
  6172	016766'	016725'	016725'			$UOERX,,$UOERX
  6173	016767'	016725'	016725'			$UOERX,,$UOERX
  6174									;E FIELD = 3
  6175	016770'	017341'	017223'			$YESNO,,$OPTLK
  6176	016771'	017405'	017337'			$TPOCT,,$NOYES
  6177	016772'	017401'	017403'			$TPCNV,,$TPDEC
  6178	016773'	017233'	017163'			$TALTM,,$TTLK
  6179	016774'	017210'	017527'			$TTYIN,,$TISIX
  6180	016775'	016725'	017273'			$UOERX,,$TPCLR
  6181	016776'	017746'	017751'			$PSIXF,,$PSIX
  6182	016777'	020010'	020013'			$POCSF,,$POCS
SMFILE	DECSYSTEM 2020 DIAGNOSTICS FE-FILE PROGRAM, VER 0,3	MACRO %53(1020) 10:47 19-Feb-79 Page 167
SMFILE	MAC	19-Feb-79 10:46		UUO HANDLING SUBROUTINE                                                            SEQ 0206

  6183									;E FIELD = 4
  6184	017000'	016725'	016725'			$UOERX,,$UOERX
  6185	017001'	016725'	016725'			$UOERX,,$UOERX
  6186	017002'	016725'	016725'			$UOERX,,$UOERX
  6187	017003'	016725'	016725'			$UOERX,,$UOERX
  6188	017004'	016725'	016725'			$UOERX,,$UOERX
  6189	017005'	016725'	017144'			$UOERX,,$END
  6190	017006'	017104'	017065'			$FATAL,,$ERHLT
  6191	017007'	016725'	017155'			$UOERX,,$EOP
  6192
  6193	017010'	200 00 0 00 000040 	$EG4:	MOVE	JOBUUO		;IMMEDIATE CHARACTER PRINT
  6194	017011'	603 00 0 00 000040 		TLNE	(1B12)
  6195						JRST	[PNTCHF
  6196	017012'	254 00 0 00 020514'			JRST	$EGX]
  6197	017013'	037 12 0 00 000000 		PNTCHR
  6198	017014'	254 00 0 00 017025'		JRST	$EGX
  6199
  6200	017015'	200 00 0 00 000040 	$EG177:	MOVE	JOBUUO		;IMMEDIATE MESSAGE PRINT
  6201	017016'	603 00 0 00 000200 		TLNE	(4B12)
  6202						JRST	[PSIXLF
  6203	017017'	254 00 0 00 020516'			JRST	$EGX]
  6204	017020'	603 00 0 00 000100 		TLNE	(2B12)
  6205						JRST	[PSIXL
  6206	017021'	254 00 0 00 020520'			JRST	$EGX]
  6207	017022'	603 00 0 00 000040 		TLNE	(1B12)
  6208						JRST	[PNTALF
  6209	017023'	254 00 0 00 020522'			JRST	$EGX]
  6210	017024'	037 17 0 00 000000 		PNTAL
  6211	017025'	262 17 0 00 000000 	$EGX:	GETIT	0
  6212	017026'	263 17 0 00 000000 		RTN
  6213
SMFILE	DECSYSTEM 2020 DIAGNOSTICS FE-FILE PROGRAM, VER 0,3	MACRO %53(1020) 10:47 19-Feb-79 Page 168
SMFILE	MAC	19-Feb-79 10:46		PROCESSOR TYPE DETERMINATION                                                       SEQ 0207

  6214					SUBTTL	PROCESSOR TYPE DETERMINATION
  6215					S^;*********************************************************************^
  6216
  6217	017027'	402 00 0 00 021034'	$CPUTP:	SETZM	CYCL60#
  6218	017030'	402 00 0 00 000305'		SETZM	SM10
  6219	017031'	402 00 0 00 000002'		SETZM	KLFLG
  6220	017032'	402 00 0 00 000001'		SETZM	KAIFLG
  6221	017033'	200 01 0 00 020524'	$CPKL:	MOVE	1,[1,,1]	;IF KL10, AC1 AFTER BLT WILL CHANGE
  6222	017034'	251 01 0 00 000001 		BLT	1,1
  6223	017035'	316 01 0 00 020524'		CAMN	1,[1,,1]
  6224	017036'	254 00 0 00 017057'		JRST	$CPKAI
  6225	017037'	476 00 0 00 000002'		SETOM	KLFLG		;KL10 - SET FLAG
  6226
  6227	017040'	336 00 0 00 000302'	$CPINI:	SKIPN	MONTYP
  6228	017041'	254 00 0 00 017046'		JRST	.+5		;TOPS-10
  6229	017042'	200 01 0 00 020525'		MOVE	1,[SIXBIT/APRID/]
  6230	017043'	104 00 0 00 000016 		SYSGT			;GET SERIAL NUMBER
  6231	017044'	200 00 0 00 000001 		MOVE	0,1
  6232	017045'	254 00 0 00 017051'		JRST	.+4
  6233	017046'	200 00 0 00 020526'		MOVE	0,[20,,11]
  6234	017047'	047 00 0 00 000041 		GETTAB
  6235	017050'	400 00 0 00 000000 		SETZ	0,
  6236	017051'	202 00 0 00 021100'		MOVEM	0,$$SNX#	;SAVE IT
  6237	017052'	336 00 0 00 000002'		SKIPN	KLFLG
  6238	017053'	263 17 0 00 000000 		RTN
  6239	017054'	303 00 0 00 010000 		CAILE	0,^D4096	;IS THIS A KS10 ?
  6240	017055'	476 00 0 00 000305'		SETOM	SM10		;YES, SERIAL # GT 4096.
  6241	017056'	263 17 0 00 000000 		RTN
  6242
  6243	017057'	476 00 0 00 000001'	$CPKAI:	SETOM	KAIFLG
  6244	017060'	211 00 0 00 000001 		MOVNI	0,1
  6245	017061'	253 00 0 00 017062'		AOBJN	0,.+1
  6246	017062'	332 00 0 00 000000 		SKIPE
  6247	017063'	402 00 0 00 000001'		SETZM	KAIFLG		;KA10
  6248
  6249	017064'	254 00 0 00 017040'		JRST	$CPINI
SMFILE	DECSYSTEM 2020 DIAGNOSTICS FE-FILE PROGRAM, VER 0,3	MACRO %53(1020) 10:47 19-Feb-79 Page 169
SMFILE	MAC	19-Feb-79 10:46		PROGRAM HALTS                                                                      SEQ 0208

  6250					SUBTTL	PROGRAM HALTS
  6251
  6252					;*SUBROUTINE ERROR HALT
  6253					S^;*********************************************************************^
  6254						SALL
  6255
  6256	017065'	037 04 0 00 000002 	$ERHLT:	PNTNM			;PRINT PROGRAM NAME
  6257	017066'	037 04 0 00 020527'		PMSGF	<ERROR HALT AT >
  6258	017067'	262 17 0 00 021104'		GETIT	$ERH0
  6259	017070'	261 17 0 00 000000 		PUT	0
  6260	017071'	200 00 0 00 021104'		MOVE	AC0,$ERH0#	;LOAD HALT LOC WITH USRPC + 1 FOR RESTART
  6261	017072'	370 00 0 00 000000 		SOS			;SUBTRACT ONE FOR USRPC OF ERROR
  6262	017073'	037 06 0 00 000001 		PNT6F			;PRINT USRPC FORCED
  6263	017074'	037 01 0 00 000063'		PCRLF
  6264
  6265	017075'	262 17 0 00 000000 	$ERHL4:	GETIT	AC0
  6266	017076'	332 00 0 00 000302'		SKIPE	MONTYP
  6267	017077'	254 00 0 00 017102'		JRST	.+3
  6268	017100'	047 01 0 00 000012 		CALLI	1,12
  6269	017101'	254 00 1 00 021104'		JRST	@$ERH0
  6270	017102'	104 00 0 00 000170 		HALTF			;RETURN TO MONITOR
  6271	017103'	254 00 1 00 021104'		JRST	@$ERH0		;IF CONTINUED
  6272						LALL
  6273
  6274					;*FATAL PROGRAM ERROR HALT
  6275					S^;*********************************************************************^
  6276						SALL
  6277
  6278	017104'	037 04 0 00 000002 	$FATAL:	PNTNM
  6279	017105'	037 04 0 00 020532'		PMSGF	<FATAL PROGRAM ERROR AT >
  6280	017106'	200 00 0 17 000000 		MOVE	AC0,(P)		;RETRIEVE USRPC + 1 FROM THE STACK
  6281	017107'	370 00 0 00 000000 		SOS			;- 1
  6282	017110'	037 06 0 00 000001 		PNT6F			;PRINT IT
  6283	017111'	037 01 0 00 000063'		PCRLF
  6284	017112'	254 00 0 00 017155'		JRST	$EOP		;END PROGRAM
  6285						LALL
SMFILE	DECSYSTEM 2020 DIAGNOSTICS FE-FILE PROGRAM, VER 0,3	MACRO %53(1020) 10:47 19-Feb-79 Page 170
SMFILE	MAC	19-Feb-79 10:46		PROGRAM NAME PRINTER                                                               SEQ 0209

  6286					SUBTTL	PROGRAM NAME PRINTER
  6287
  6288					;*PRINT PROGRAM NAME IF NOT STAND-ALONE OR USER MODE
  6289					S^;*********************************************************************^
  6290						SALL
  6291	017113'	331 00 0 00 000004'	$PNTNM:	SKIPL	MONCTL		;DIAG MON / SYS EXR ?
  6292	017114'	254 00 0 00 017142'		JRST	$PNM2		;NO
  6293	017115'	037 00 1 00 016576'		PNTMSG	@$PNAME		;PRINT PROGRAM NAME
  6294	017116'	037 02 0 00 020536'		PMSG	<VERSION >
  6295	017117'	554 00 0 00 000137 		HLRZ	JOBVER
  6296	017120'	037 16 0 00 000003 		PNTOCS			;PRINT MCN LEVEL
  6297	017121'	037 00 0 00 000056 		PNTCI	"."
  6298	017122'	550 00 0 00 000137 		HRRZ	JOBVER
  6299	017123'	037 16 0 00 000003 		PNTOCS			;PRINT DEC VERSION
  6300	017124'	336 00 0 00 000302'		SKIPN	MONTYP
  6301	017125'	037 02 0 00 020540'		PMSG	<, TOPS-10>
  6302	017126'	332 00 0 00 000302'		SKIPE	MONTYP
  6303	017127'	037 02 0 00 020542'		PMSG	<, TOPS-20>
  6304
  6305	017130'	332 00 0 00 000002'		SKIPE	KLFLG
  6306						JRST	[SKIPE	SM10
  6307							 JRST	[PMSG	<, KS10>
  6308								 JRST	$PNM3]
  6309							 PMSG	<, KL10>
  6310	017131'	254 00 0 00 020552'			 JRST	$PNM3]
  6311	017132'	336 00 0 00 000001'		SKIPN	KAIFLG
  6312						JRST	[PMSG	<, KA10>
  6313	017133'	254 00 0 00 020560'			 JRST	$PNM3]
  6314	017134'	037 02 0 00 020562'		PMSG	<, KI10>
  6315
  6316	017135'	336 00 0 00 021100'	$PNM3:	SKIPN	$$SNX
  6317	017136'	254 00 0 00 017142'		JRST	$PNM2
  6318	017137'	037 02 0 00 020564'		PMSG	<, CPU#=>
  6319	017140'	200 00 0 00 021100'		MOVE	$$SNX
  6320	017141'	037 15 0 00 000000 		PNTDEC
  6321
  6322	017142'	037 00 0 00 000063'	$PNM2:	PCRL
  6323	017143'	263 17 0 00 000000 		RTN			;EXIT
  6324
  6325						LALL
SMFILE	DECSYSTEM 2020 DIAGNOSTICS FE-FILE PROGRAM, VER 0,3	MACRO %53(1020) 10:47 19-Feb-79 Page 171
SMFILE	MAC	19-Feb-79 10:46		*SUBRTN* END OF PASS/END OF PROGRAM ROUTINES                                       SEQ 0210

  6326					SUBTTL	*SUBRTN* END OF PASS/END OF PROGRAM ROUTINES
  6327						LALL
  6328					;*END OF PASS ROUTINE
  6329					S^;*********************************************************************^
  6330						SALL
  6331	017144'	350 00 0 00 000007'	$END:	AOS	PASCNT		;INCREMENT PASS COUNTER
  6332	017145'	370 00 0 00 000010'		SOS	ITRCNT
  6333	017146'	037 04 0 00 020566'	$END2:	PMSGF	<END PASS >
  6334	017147'	200 00 0 00 000007'		MOVE	PASCNT		;PRINT END OF PASS COUNT
  6335	017150'	037 15 0 00 000001 		PNTDCF
  6336	017151'	037 01 0 00 000056 		PNTCIF	"."
  6337	017152'	037 01 0 00 000063'		PCRLF
  6338	017153'	350 00 0 17 000000 	$END3:	AOS	(P)
  6339	017154'	263 17 0 00 000000 		RTN
  6340						LALL
  6341
  6342					;*END OF PROGRAM ROUTINE
  6343					S^;*********************************************************************^
  6344
  6345	017155'	336 00 0 00 000302'	$EOP:	SKIPN	MONTYP
  6346	017156'	047 00 0 00 000012 		CALLI	12
  6347	017157'	104 00 0 00 000170 		HALTF			;YES, EXIT
  6348	017160'	254 00 0 00 000345'		JRST	START
  6349						LALL
SMFILE	DECSYSTEM 2020 DIAGNOSTICS FE-FILE PROGRAM, VER 0,3	MACRO %53(1020) 10:47 19-Feb-79 Page 172
SMFILE	MAC	19-Feb-79 10:46		*SUBRTN* TELETYPE INPUT ROUTINES                                                   SEQ 0211

  6350					SUBTTL	*SUBRTN* TELETYPE INPUT ROUTINES
  6351
  6352					S^;*********************************************************************^
  6353					;*CARRIAGE RETURN OR COMMA TERMINATES OCTAL, DECIMAL, OR CONVERT TYPE-IN.
  6354					;*CHARACTER OR NUMBER RETURNED IN AC0.
  6355					;*CALL SEQUENCE IS AS FOLLOWS:
  6356					;*	NAME
  6357					;*	NO/ERROR RESPONSE RETURN (+ 1)
  6358					;*	NORMAL RESPONSE RETURN (+ 2)
  6359					;*$OPTLK =	INPUT ANY CHARACTER
  6360					;*$YESNO =	ASK QUESTION, CORRECT RESPONSE Y
  6361					;*$NOYES =	ASK QUESTION, CORRECT RESPONSE N
  6362					;*$TPOCT =	INPUT UP TO 12 OCTALS
  6363					;*$TPDEC =	INPUT UP TO 11 DECIMALS
  6364					;*$TPCNV =	INPUT UP TO 9 CONVERT'S
  6365					;*$TTLK  =	KEYBOARD CHECK, INPUT ANY CHARACTER (NO WAIT)
  6366					;*$TALTM =	KEYBOARD, ALT-MODE CHECK
  6367					;*$TISIX =	INPUT UP TO 6 SIXBIT CHARACTERS
  6368					S^;*********************************************************************^
  6369
  6370					;*TELETYPE INPUT INITIALIZATION
  6371					S^;*********************************************************************^
  6372	017161'	402 00 0 00 021052'	$TYPIN:	SETZM	INUPTR		;CLEAR INPUT POINTER
  6373	017162'	263 17 0 00 000000 		RTN			;NO TYPE-IN AVAILABLE
  6374
  6375					S^;*********************************************************************^
  6376					;*CHECKS FOR ANY KEY STRUCK, RETURNS IMMEDIATELY
  6377					;*RETURNS +1 IF NO TYPEIN, RETURNS +2 IF CHAR TYPED
  6378					S^;*********************************************************************^
  6379
  6380	017163'	400 00 0 00 000000 	$TTLK:	SETZ	AC0,
  6381	017164'	335 00 0 00 000004'		SKIPGE	MONCTL		;NO CHECK IF "MONITOR"
  6382	017165'	263 17 0 00 000000 		RTN
  6383	017166'	332 00 0 00 000302'		SKIPE	MONTYP
  6384	017167'	254 00 0 00 017173'		JRST	.+4
  6385	017170'	051 02 0 00 000052'		INCHRS	$TTCHR		;TOPS10 INPUT CHAR AND SKIP
  6386	017171'	263 17 0 00 000000 		RTN			;NONE AVAILABLE
  6387	017172'	254 00 0 00 017304'		JRST	$HEAR4		;GO PROCESS
  6388	017173'	261 17 0 00 000001 		PUT	1
  6389	017174'	261 17 0 00 000002 		PUT	2
  6390	017175'	201 01 0 00 000100 		MOVEI	1,.PRIIN
  6391	017176'	104 00 0 00 000102 		SIBE			;ANY INPUT AVAILABLE ?
  6392	017177'	254 00 0 00 017203'		 JRST	.+4		;YES
  6393	017200'	262 17 0 00 000002 		GETIT	2
  6394	017201'	262 17 0 00 000001 		GETIT	1
  6395	017202'	263 17 0 00 000000 		RTN
  6396	017203'	104 00 0 00 000073 		PBIN			;GET INPUT CHAR
  6397	017204'	202 01 0 00 000052'		MOVEM	1,$TTCHR
  6398	017205'	262 17 0 00 000002 		GETIT	2
  6399	017206'	262 17 0 00 000001 		GETIT	1
  6400	017207'	254 00 0 00 017304'		JRST	$HEAR4		;CHAR TYPED, GO PROCESS
SMFILE	DECSYSTEM 2020 DIAGNOSTICS FE-FILE PROGRAM, VER 0,3	MACRO %53(1020) 10:47 19-Feb-79 Page 173
SMFILE	MAC	19-Feb-79 10:46		*SUBRTN* TELETYPE INPUT ROUTINES                                                   SEQ 0212

  6401					S^;*********************************************************************^
  6402					;*TELETYPE IMAGE MODE INPUT
  6403					;*PROVIDES UNBUFFERED MODE INPUT
  6404					;*WAITS FOREVER, RETURN WITH CHAR UPPER CASED & ECHOED
  6405					S^;*********************************************************************^
  6406
  6407	017210'	332 00 0 00 000302'	$TTYIN:	SKIPE	MONTYP
  6408	017211'	254 00 0 00 017214'		JRST	.+3
  6409	017212'	051 00 0 00 000000 		INCHRW			;TOPS10 INPUT CHAR AND WAIT
  6410	017213'	254 00 0 00 017220'		JRST	.+5
  6411	017214'	261 17 0 00 000001 		PUT	1
  6412	017215'	104 00 0 00 000073 		PBIN
  6413	017216'	202 01 0 00 000052'		MOVEM	1,$TTCHR
  6414	017217'	262 17 0 00 000001 		GETIT	1
  6415	017220'	260 17 0 00 017304'		GO	$HEAR4		;PROCESS IT
  6416	017221'	254 00 0 00 017220'		JRST	.-1
  6417	017222'	263 17 0 00 000000 		RTN
  6418
  6419	017223'	202 04 0 00 021132'	$OPTLK:	MOVEM	4,$TACB4#
  6420	017224'	260 17 0 00 017244'		GO	$HEAR
  6421	017225'	254 00 0 00 017224'		JRST	.-1
  6422	017226'	350 00 0 17 000000 		AOS	(P)
  6423	017227'	201 04 0 00 000001 		MOVEI	4,1
  6424	017230'	202 04 0 00 000050'		MOVEM	4,$TWCNT	;INDICATE NO TIMEOUT
  6425	017231'	200 04 0 00 021132'		MOVE	4,$TACB4
  6426	017232'	263 17 0 00 000000 		RTN
  6427
  6428					S^;*********************************************************************^
  6429					;*TELETYPE ALT-MODE CHECK ROUTINE
  6430					S^;*********************************************************************^
  6431
  6432	017233'	260 17 0 00 017163'	$TALTM:	GO	$TTLK
  6433	017234'	263 17 0 00 000000 		RTN			;NO TYPE-IN  ...EXIT
  6434
  6435	017235'	302 00 0 00 000175 	$TALT2:	CAIE	175
  6436	017236'	306 00 0 00 000176 		CAIN	176
  6437	017237'	254 00 0 00 017242'		JRST	$TALT1		;ALT-MODE WAS TYPED
  6438	017240'	302 00 0 00 000033 		CAIE	33
  6439	017241'	254 00 0 00 017243'		JRST	.+2		;NO ALT-MODE
  6440
  6441	017242'	254 00 0 00 000016'	$TALT1:	JRST	CPOPJ1		;ALT-MODE, RETURN +2
  6442
  6443	017243'	263 17 0 00 000000 		RTN
SMFILE	DECSYSTEM 2020 DIAGNOSTICS FE-FILE PROGRAM, VER 0,3	MACRO %53(1020) 10:47 19-Feb-79 Page 174
SMFILE	MAC	19-Feb-79 10:46		*SUBRTN* TELETYPE INPUT ROUTINES                                                   SEQ 0213

  6444					S^;*********************************************************************^
  6445					;*TELETYPE INPUT CHARACTER
  6446					S^;*********************************************************************^
  6447
  6448	017244'	332 00 0 00 000302'	$HEAR:	SKIPE	MONTYP
  6449	017245'	254 00 0 00 017250'		JRST	.+3
  6450	017246'	051 04 0 00 000052'	$$$TT0:	INCHWL	$TTCHR		;TOPS10 INPUT CHAR LINE MODE
  6451	017247'	254 00 0 00 017304'		JRST	$HEAR4
  6452	017250'	336 00 0 00 021052'		SKIPN	INUPTR		;ANY INPUT POINTER ?
  6453	017251'	254 00 0 00 017256'		JRST	.+5		;NO, INPUT CLEARED
  6454	017252'	134 00 0 00 021052'		ILDB	0,INUPTR	;GET CHAR FROM STORE
  6455	017253'	322 00 0 00 017256'		JUMPE	0,.+3		;USED IT ALL, GET NEW INPUT
  6456	017254'	202 00 0 00 000052'		MOVEM	0,$TTCHR	;SAVE IT
  6457	017255'	254 00 0 00 017304'		JRST	$HEAR4		;GO PROCESS
  6458
  6459	017256'	261 17 0 00 000001 		PUT	1
  6460	017257'	261 17 0 00 000002 		PUT	2
  6461	017260'	261 17 0 00 000003 		PUT	3
  6462	017261'	200 01 0 00 020570'		MOVE	1,[POINT 7,D$ISTR]
  6463	017262'	202 01 0 00 021052'		MOVEM	1,INUPTR#	;SETUP INPUT POINTER
  6464	017263'	200 02 0 00 020571'		MOVE	2,[RD%BRK!RD%TOP!^D132]
  6465	017264'	400 03 0 00 000000 		SETZ	3,
  6466
  6467	017265'	104 00 0 00 000523 		RDTTY			;GET TTY INPUT FROM MONITOR
  6468	017266'	254 00 0 00 020363'		 JRST	T20ERR
  6469
  6470	017267'	262 17 0 00 000003 		GETIT	3
  6471	017270'	262 17 0 00 000002 		GETIT	2
  6472	017271'	262 17 0 00 000001 		GETIT	1
  6473	017272'	254 00 0 00 017244'		JRST	$HEAR		;NOW GO PROCESS
  6474
  6475	017273'	261 17 0 00 000001 	$TPCLR:	PUT	1
  6476	017274'	402 00 0 00 021052'		SETZM	INUPTR		;CLEAR INPUT POINTER
  6477	017275'	201 01 0 00 000100 		MOVEI	1,.PRIIN
  6478	017276'	336 00 0 00 000302'		SKIPN	MONTYP
  6479	017277'	051 11 0 00 000000 		CLRBFI			;TOPS10 CLEAR BUFFER
  6480	017300'	332 00 0 00 000302'		SKIPE	MONTYP
  6481	017301'	104 00 0 00 000100 		CFIBF			;ERROR, CLEAR TYPE-IN BUFFER
  6482	017302'	262 17 0 00 000001 		GETIT	1
  6483	017303'	263 17 0 00 000000 		RTN
SMFILE	DECSYSTEM 2020 DIAGNOSTICS FE-FILE PROGRAM, VER 0,3	MACRO %53(1020) 10:47 19-Feb-79 Page 175
SMFILE	MAC	19-Feb-79 10:46		*SUBRTN* TELETYPE INPUT ROUTINES                                                   SEQ 0214

  6484					S^;*********************************************************************^
  6485					;*CHARACTER PROCESSING ROUTINE FOR INPUT
  6486					;*CHARACTER RETURNED IN AC0 IS UPPER CASE
  6487					;*ACTUAL CHARACTER IS IN $TTCHR
  6488					S^;*********************************************************************^
  6489
  6490	017304'	200 00 0 00 000052'	$HEAR4:	MOVE	0,$TTCHR	;GET ACTUAL CHARACTER
  6491	017305'	405 00 0 00 000177 		ANDI	0,177		;CLEAR PARITY BIT
  6492	017306'	301 00 0 00 000141 		CAIL	0,"A"+40	;CONVERT TO UPPER CASE
  6493	017307'	303 00 0 00 000172 		CAILE	0,"Z"+40
  6494	017310'	254 00 0 00 017312'		JRST	.+2
  6495	017311'	275 00 0 00 000040 		SUBI	0,40
  6496	017312'	202 00 0 00 000053'		MOVEM	0,$CHRIN#	;SAVE CHARACTER
  6497	017313'	302 00 0 00 000015 		CAIE	0,15		;IS IT CR ?
  6498	017314'	254 00 0 00 017331'		JRST	$HEAR3		;NO
  6499	017315'	402 00 0 00 021101'		SETZM	$CARCT		;CLEAR CHARACTER COUNTER
  6500	017316'	336 00 0 00 000302'		SKIPN	MONTYP
  6501	017317'	051 00 0 00 000000 	$$$TT1:	INCHRW			;TOPS10 FLUSH LF
  6502	017320'	332 00 0 00 000302'		SKIPE	MONTYP
  6503	017321'	133 00 0 00 021052'		IBP	INUPTR		;GET RID OF LF
  6504	017322'	200 00 0 00 000006'		MOVE	0,CONSW
  6505	017323'	607 00 0 00 020000 		TLNN	0,PNTLPT	;LPT/LOGICAL DEVICE OUTPUT ?
  6506	017324'	254 00 0 00 017326'		JRST	$HEAR2		;NO
  6507	017325'	037 00 0 00 000063'		PCRL			;YES-ADD CRLF
  6508	017326'	200 00 0 00 000053'	$HEAR2:	MOVE	0,$CHRIN	;PUT INPUT CHAR IN AC0
  6509	017327'	350 00 0 17 000000 		AOS	(P)		;SKIP RETURN +2
  6510	017330'	263 17 0 00 000000 		RTN			;NORMAL RETURN +1
  6511
  6512	017331'	200 00 0 00 000006'	$HEAR3:	MOVE	0,CONSW		;GET DATA SWITCHES
  6513	017332'	607 00 0 00 020000 		TLNN	0,PNTLPT	;PRINT ON LPT?
  6514	017333'	254 00 0 00 017326'		JRST	$HEAR2		;NO-EXIT
  6515	017334'	200 00 0 00 000053'		MOVE	0,$CHRIN	;YES
  6516	017335'	037 12 0 00 000000 		PNTCHR			;SEND CHAR TO LPT/LOGICAL DEV
  6517	017336'	254 00 0 00 017326'		JRST	$HEAR2		;EXIT
SMFILE	DECSYSTEM 2020 DIAGNOSTICS FE-FILE PROGRAM, VER 0,3	MACRO %53(1020) 10:47 19-Feb-79 Page 176
SMFILE	MAC	19-Feb-79 10:46		*SUBRTN* TELETYPE  YES/NO TYPE-IN ROUTINE                                          SEQ 0215

  6518					SUBTTL	*SUBRTN* TELETYPE  YES/NO TYPE-IN ROUTINE
  6519
  6520					S^;*********************************************************************^
  6521					;*ACCEPTS Y OR N
  6522					;*FOR YESNO, Y IS SKIP RETURN, N OR NO RESPONSE IS DIRECT RETURN
  6523					;*FOR NOYES, N IS SKIP RETURN, Y OR NO RESPONSE IS DIRECT RETURN
  6524					;*'Y OR N <CR> - ' ASKED UPON ENTRY
  6525					S^;*********************************************************************^
  6526
  6527	017337'	201 00 0 00 000001 	$NOYES:	MOVEI	0,1		;INIT FOR N ANSWER
  6528	017340'	254 00 0 00 017342'		JRST	.+2
  6529	017341'	201 00 0 00 000000 	$YESNO:	MOVEI	0,0		;INIT FOR Y ANSWER
  6530	017342'	202 01 0 00 021133'		MOVEM	1,$TACC1#	;SAVE AC'S
  6531	017343'	202 02 0 00 021134'		MOVEM	2,$TACC2#
  6532	017344'	200 02 0 00 000000 		MOVE	2,0
  6533
  6534	017345'				$YN1:	PMSGF	< Y OR N <CR> - >^
  6535	017345'	037 04 0 00 020572'		PSIXMF	[SIXBIT\ Y OR N <CR> - _\]^
  6536	017346'	260 17 0 00 017223'		GO	$OPTLK
  6537	017347'	254 00 0 00 017367'		JRST	$YN2		;NO RESPONSE
  6538	017350'	302 00 0 00 000131 		CAIE	0,"Y"		;IS IT A 'Y' ?
  6539	017351'	306 00 0 00 000116 		CAIN	0,"N"		;OR AN 'N' ?
  6540	017352'	254 00 0 00 017354'		JRST	.+2		;YES
  6541	017353'	254 00 0 00 017373'		JRST	$YN3		;NEITHER, ERROR
  6542	017354'	200 01 0 00 000000 		MOVE	1,0
  6543	017355'	242 01 0 00 000007 		LSH	1,7		;POSITION 1ST CHAR
  6544	017356'	260 17 0 00 017223'		GO	$OPTLK
  6545	017357'	254 00 0 00 017367'		JRST	$YN2		;NO RESPONSE
  6546	017360'	434 01 0 00 000000 		OR	1,0		;MERGE 2ND CHAR
  6547	017361'	316 01 0 02 017376'		CAMN	1,$YN4(2)	;COMPARE FOR REQUESTED
  6548	017362'	254 00 0 00 017366'		JRST	.+4		;YES, RETURN +2
  6549	017363'	316 01 0 02 017377'		CAMN	1,$YN4+1(2)	;COMPARE FOR OPPOSITE
  6550	017364'	254 00 0 00 017367'		JRST	.+3		;YES, RETURN +1
  6551	017365'	254 00 0 00 017373'		JRST	$YN3		;ERROR, REPEAT
  6552	017366'	350 00 0 17 000000 		AOS	(P)		;YES, RETURN +2
  6553	017367'	200 02 0 00 021134'	$YN2:	MOVE	2,$TACC2	;RESTORE AC2
  6554	017370'	200 00 0 00 000001 		MOVE	0,1
  6555	017371'	200 01 0 00 021133'		MOVE	1,$TACC1	;RESTORE AC1
  6556	017372'	263 17 0 00 000000 		RTN			;RETURN +1
  6557
  6558	017373'	037 01 0 00 000063'	$YN3:	PCRLF
  6559	017374'	260 17 0 00 017273'		GO	$TPCLR		;CLEAR INPUT
  6560	017375'	254 00 0 00 017345'		JRST	$YN1
  6561
  6562	017376'	000000	026215		$YN4:	EXP	26215		;'Y' (CR)
  6563	017377'	000000	023415			EXP	23415		;'N' (CR)
  6564	017400'	000000	026215			EXP	26215		;'Y' (CR)
SMFILE	DECSYSTEM 2020 DIAGNOSTICS FE-FILE PROGRAM, VER 0,3	MACRO %53(1020) 10:47 19-Feb-79 Page 177
SMFILE	MAC	19-Feb-79 10:46		*SUBRTN* TELETYPE OCTAL-DECIMAL-CONVERT TYPE-IN ROUTINE                            SEQ 0216

  6565					SUBTTL	*SUBRTN* TELETYPE OCTAL-DECIMAL-CONVERT TYPE-IN ROUTINE
  6566
  6567					S^;*********************************************************************^
  6568					;*ACCEPTS 0 TO 12 OCTALS, 0 TO 11 DECIMALS, 0 TO 9 CONVERT CHARACTERS
  6569					;*NUMBER RETURNED IN AC0.
  6570					S^;*********************************************************************^
  6571
  6572	017401'	201 00 0 00 000002 	$TPCNV:	MOVEI	AC0,2		;SET INDEX TO CONVERT
  6573	017402'	254 00 0 00 017406'		JRST	$TPCV1
  6574	017403'	201 00 0 00 000001 	$TPDEC:	MOVEI	AC0,1		;SET INDEX TO DECIMAL
  6575	017404'	254 00 0 00 017406'		JRST	$TPCV1
  6576	017405'	201 00 0 00 000000 	$TPOCT:	MOVEI	AC0,0		;SET INDEX TO OCTAL
  6577
  6578	017406'	202 01 0 00 021135'	$TPCV1:	MOVEM	1,$TACD1#	;SAVE AC'S 1-3
  6579	017407'	202 02 0 00 021136'		MOVEM	2,$TACD2#
  6580	017410'	202 03 0 00 021137'		MOVEM	3,$TACD3#
  6581	017411'	200 03 0 00 000000 		MOVE	3,0		;LOAD AC3 WITH THE INDEX
  6582	017412'	403 01 0 00 000002 		SETZB	1,2		;CLEAR DATA REG, CHAR COUNTER
  6583	017413'	402 00 0 00 000054'		SETZM	$TYPNB#		;CLEAR ERR NUMBER
  6584	017414'	402 00 0 00 021107'		SETZM	$NEGF#		;CLEAR NEGATE FLAG
  6585	017415'	402 00 0 00 021102'		SETZM	$CNVD#		;CLEAR DECIMAL CONVERT FLAG
  6586	017416'	402 00 0 00 000301'		SETZM	TTNBRF		;CLEAR DIGIT TYPED FLAG
  6587
  6588
  6589					;*INPUT AND COMPUTE NUMBER
  6590					S^;*********************************************************************^
  6591
  6592	017417'	260 17 0 00 017223'	$TYPLP:	GO	$OPTLK
  6593	017420'	254 00 0 00 017456'		JRST	$TPERR		;NO RESPONSE, GO TO ERROR EXIT
  6594	017421'	306 00 0 00 000055 		CAIN	0,"-"		;IS IT MINUS ?
  6595	017422'	254 00 0 00 017474'		JRST	$NEGX		;YES
  6596	017423'	306 00 0 00 000056 		CAIN	0,"."		;IS IT PERIOD ?
  6597	017424'	254 00 0 00 017500'		JRST	$CNVX		;YES
  6598	017425'	306 00 0 00 000015 		CAIN	0,15		;IS IT CR ?
  6599	017426'	254 00 0 00 017442'		JRST	$TPEXT		;YES
  6600	017427'	306 00 0 00 000054 		CAIN	0,","		;IS IT COMMA ?
  6601	017430'	254 00 0 00 017442'		JRST	$TPEXT		;YES
  6602	017431'	301 00 0 00 000060 		CAIL	0,"0"		;A VALID DIGIT ?
  6603	017432'	256 00 0 03 017463'		XCT	$TPCK(3)	;YES
  6604	017433'	254 00 0 00 017456'		JRST	$TPERR		;NO ...ERROR EXIT
  6605
  6606	017434'	476 00 0 00 000301'	$TYPL1:	SETOM	TTNBRF		;SET DIGIT TYPED FLAG
  6607	017435'	350 00 0 00 000002 		AOS	2		;INCREMENT CHARACTER COUNTER
  6608	017436'	256 00 0 03 017466'		XCT	$TPMUL(3)	;MULT BY OCTAL/DECIMAL BASE, SHIFT CONVERT
  6609	017437'	275 00 0 00 000060 		SUBI	60		;ADD IN NEW CHAR
  6610	017440'	270 01 0 00 000000 		ADD	1,0
  6611	017441'	254 00 0 00 017417'		JRST	$TYPLP		;REPEAT TILL CR OR COMMA
SMFILE	DECSYSTEM 2020 DIAGNOSTICS FE-FILE PROGRAM, VER 0,3	MACRO %53(1020) 10:47 19-Feb-79 Page 178
SMFILE	MAC	19-Feb-79 10:46		*SUBRTN* TELETYPE OCTAL-DECIMAL-CONVERT TYPE-IN ROUTINE                            SEQ 0217

  6612					;*CHECK FOR PROPER AMOUNT OF CHARACTERS
  6613					S^;*********************************************************************^
  6614
  6615	017442'	256 00 0 03 017471'	$TPEXT:	XCT	$TPNBR(3)	;PROPER NUMBER OF CHARACTERS
  6616	017443'	254 00 0 00 017456'		JRST	$TPERR		;NO ...ERROR EXIT
  6617	017444'	306 03 0 00 000002 		CAIN	3,2		;CONVERT ? (INDEX = 2)
  6618	017445'	254 00 0 00 017504'		JRST	$CNVX1		;YES
  6619									;NO, EXIT
  6620
  6621	017446'	200 03 0 00 021137'	$TPEX1:	MOVE	3,$TACD3	;RESTORE AC'S 3 & 2
  6622	017447'	200 02 0 00 021136'		MOVE	2,$TACD2
  6623	017450'	200 00 0 00 000001 		MOVE	0,1		;PUT NUMBER IN AC0
  6624	017451'	332 00 0 00 021107'		SKIPE	$NEGF		;NEGATE ?
  6625	017452'	210 00 0 00 000001 		MOVN	0,1		;YES
  6626	017453'	200 01 0 00 021135'		MOVE	1,$TACD1	;RESTORE AC1
  6627	017454'	350 00 0 17 000000 		AOS	(P)		;RETURN +2
  6628	017455'	263 17 0 00 000000 		RTN			;RETURN +1
  6629
  6630	017456'	202 01 0 00 000054'	$TPERR:	MOVEM	1,$TYPNB	;SAVE NUMBER - ERROR EXIT
  6631	017457'	200 03 0 00 021137'		MOVE	3,$TACD3	;RESTORE AC'S
  6632	017460'	200 02 0 00 021136'		MOVE	2,$TACD2
  6633	017461'	200 01 0 00 021135'		MOVE	1,$TACD1
  6634	017462'	263 17 0 00 000000 		RTN			;ERROR EXIT )
  6635
  6636
  6637					;*NUMBER COMPUTING CONSTANTS
  6638					S^;*********************************************************************^
  6639
  6640	017463'	303 00 0 00 000067 	$TPCK:	CAILE	0,"7"		;OCTAL NUMBER CHECK
  6641	017464'	303 00 0 00 000071 		CAILE	0,"9"		;DECIMAL NUMBER CHECK
  6642	017465'	303 00 0 00 000071 		CAILE	0,"9"		;CONVERT NUMBER CHECK
  6643	017466'	242 01 0 00 000003 	$TPMUL:	LSH	1,3		;OCTAL BASE SHIFT
  6644	017467'	221 01 0 00 000012 		IMULI	1,^D10		;DECIMAL BASE MULTIPLIER
  6645	017470'	242 01 0 00 000004 		LSH	1,4		;CONVERT SHIFT
  6646	017471'	303 02 0 00 000014 	$TPNBR:	CAILE	2,^D12		;ACCEPT UP TO 12 OCTALS
  6647	017472'	303 02 0 00 000013 		CAILE	2,^D11		;ACCEPT UP TO 11 DECIMALS
  6648	017473'	303 02 0 00 000011 		CAILE	2,^D9		;ACCEPT UP TO 9 CONVERT
SMFILE	DECSYSTEM 2020 DIAGNOSTICS FE-FILE PROGRAM, VER 0,3	MACRO %53(1020) 10:47 19-Feb-79 Page 179
SMFILE	MAC	19-Feb-79 10:46		*SUBRTN* TELETYPE OCTAL-DECIMAL-CONVERT TYPE-IN ROUTINE                            SEQ 0218

  6649	017474'	332 00 0 00 000002 	$NEGX:	SKIPE	2		;1ST CHAR ?
  6650	017475'	254 00 0 00 017456'		JRST	$TPERR		;NO, ERROR EXIT )
  6651	017476'	476 00 0 00 021107'		SETOM	$NEGF		;YES, SET NEGATE FLAG
  6652	017477'	254 00 0 00 017417'		JRST	$TYPLP		;GET NEXT CHAR
  6653
  6654	017500'	302 03 0 00 000002 	$CNVX:	CAIE	3,2		;PERIOD, IN CONVERT ?
  6655	017501'	254 00 0 00 017456'		JRST	$TPERR		;NO, ERROR EXIT )
  6656	017502'	476 00 0 00 021102'		SETOM	$CNVD		;YES, SET DECIMAL FLAG
  6657	017503'	254 00 0 00 017417'		JRST	$TYPLP		;GET NEXT CHAR
  6658
  6659
  6660					;*CONVERT CONVERSION ROUTINE
  6661					S^;*********************************************************************^
  6662
  6663	017504'	201 02 0 00 000011 	$CNVX1:	MOVEI	2,^D9		;NINE DIGITS
  6664	017505'	402 00 0 00 000000 		SETZM	0
  6665	017506'	332 00 0 00 021102'		SKIPE	$CNVD		;OCTAL OR DECIMAL ?
  6666	017507'	254 00 0 00 017517'		JRST	$CNVX2		;DECIMAL
  6667	017510'	612 01 0 00 020575'		TDNE	1,[421042104210]	;OCTAL
  6668	017511'	254 00 0 00 017456'		JRST	$TPERR		;OCTAL ERROR, 8 OR 9 INPUT
  6669	017512'	242 01 0 00 000001 		LSH	1,1		;SQUEEZE OUT 4TH BIT
  6670	017513'	246 00 0 00 000003 		LSHC	0,3		;COMPACT INTO OCTAL
  6671	017514'	366 02 0 00 017512'		SOJN	2,.-2		;COMPLETED ?
  6672	017515'	200 01 0 00 000000 		MOVE	1,0		;YES
  6673	017516'	254 00 0 00 017446'		JRST	$TPEX1		;RETURN
  6674
  6675	017517'	402 00 0 00 000003 	$CNVX2:	SETZM	3		;DECIMAL
  6676	017520'	402 00 0 00 000000 		SETZM	0
  6677	017521'	221 03 0 00 000012 		IMULI	3,^D10		;MULTIPLY BY DECIMAL BASE
  6678	017522'	246 00 0 00 000004 		LSHC	0,4		;UNPACK NEXT DIGIT
  6679	017523'	270 03 0 00 000000 		ADD	3,0		;ADD IN
  6680	017524'	366 02 0 00 017520'		SOJN	2,.-4		;COMPLETED ?
  6681	017525'	200 01 0 00 000003 		MOVE	1,3		;YES
  6682	017526'	254 00 0 00 017446'		JRST	$TPEX1		;RETURN )
  6683
SMFILE	DECSYSTEM 2020 DIAGNOSTICS FE-FILE PROGRAM, VER 0,3	MACRO %53(1020) 10:47 19-Feb-79 Page 180
SMFILE	MAC	19-Feb-79 10:46		*SUBRTN*  TELETYPE SIXBIT INPUT ROUTINE                                            SEQ 0219

  6684					SUBTTL	*SUBRTN*  TELETYPE SIXBIT INPUT ROUTINE
  6685
  6686					S^;*********************************************************************^
  6687					;*INPUTS UP TO SIX CHARACTERS, TERMINATES WITH A CR OR COMMA.
  6688					;*SIXBIT WORD RETURNED IN AC0
  6689					S^;*********************************************************************^
  6690
  6691	017527'	202 01 0 00 021140'	$TISIX:	MOVEM	1,$TSX1#	;SAVE AC'S
  6692	017530'	202 02 0 00 021141'		MOVEM	2,$TSX2#
  6693	017531'	200 02 0 00 020576'		MOVE	2,[POINT 6,1]
  6694	017532'	201 01 0 00 000000 		MOVEI	1,0
  6695
  6696	017533'	260 17 0 00 017223'	$TSXB1:	GO	$OPTLK
  6697	017534'	254 00 0 00 017556'		JRST	$TSXB3		;NO RESPONSE, RTN + 1
  6698	017535'	306 00 0 00 000015 		CAIN	0,15
  6699	017536'	254 00 0 00 017555'		JRST	$TSXB2		;CR, TERMINATE, RTN + 2
  6700	017537'	306 00 0 00 000054 		CAIN	0,","
  6701	017540'	254 00 0 00 017555'		JRST	$TSXB2		;COMMA, TERMINATE, RTN + 2
  6702	017541'	301 00 0 00 000060 		CAIL	0,"0"
  6703	017542'	303 00 0 00 000132 		CAILE	0,"Z"
  6704	017543'	254 00 0 00 017556'		JRST	$TSXB3		;ERROR, RTN + 1
  6705	017544'	303 00 0 00 000071 		CAILE	0,"9"
  6706	017545'	301 00 0 00 000101 		CAIL	0,"A"
  6707	017546'	254 00 0 00 017550'		JRST	$TSXB4		;ALPHA-NUMERIC
  6708	017547'	254 00 0 00 017556'		JRST	$TSXB3		;ERROR, RTN + 1
  6709
  6710	017550'	640 00 0 00 000040 	$TSXB4:	TRC	0,40		;CONVERT TO SIX-BIT
  6711	017551'	602 01 0 00 000077 		TRNE	1,77
  6712	017552'	254 00 0 00 017556'		JRST	$TSXB3		;TOO MANY CHAR'S, RTN + 1
  6713	017553'	136 00 0 00 000002 		IDPB	0,2		;PUT INTO WORD
  6714	017554'	254 00 0 00 017533'		JRST	$TSXB1		;GET NEXT CHARACTER
  6715
  6716	017555'	350 00 0 17 000000 	$TSXB2:	AOS	(P)		;INCR USRPC FOR RTN + 2 (NORMAL)
  6717
  6718	017556'	200 00 0 00 000001 	$TSXB3:	MOVE	0,1		;SIXBIT WORD IN AC0
  6719	017557'	200 01 0 00 021140'		MOVE	1,$TSX1		;RESTORE AC'S
  6720	017560'	200 02 0 00 021141'		MOVE	2,$TSX2
  6721	017561'	263 17 0 00 000000 		RTN			;EXIT + 1/+2
SMFILE	DECSYSTEM 2020 DIAGNOSTICS FE-FILE PROGRAM, VER 0,3	MACRO %53(1020) 10:47 19-Feb-79 Page 181
SMFILE	MAC	19-Feb-79 10:46		*SUBRTN* PRINT SUBROUTINES                                                         SEQ 0220

  6722					SUBTTL	*SUBRTN* PRINT SUBROUTINES
  6723
  6724					S^;*********************************************************************^
  6725					;*	$PNTSX		PRINT SIXBIT NORMAL
  6726					;*	$PTSXF		PRINT SIXBIT FORCED
  6727					;*	$PNTCW		PRINT DF10 CONTROL WORD
  6728					;*	$PNTI1		PRINT OCTAL NUMBER
  6729					;*	$CHRPN		PRINT CHARACTER
  6730					;*	$ASCPN		PRINT ASCII CHARACTER/LINE
  6731					;*	$DECPN		PRINT DECIMAL NUMBER
  6732					S^;*********************************************************************^
  6733
  6734					S^;*********************************************************************^
  6735					;*PRINT SUBROUTINE INITIALIZATION
  6736					;*INITIALIZES CONTROL WORDS, AND TTY IF IN USER MODE
  6737					S^;*********************************************************************^
  6738
  6739	017562'	402 00 0 00 021106'	$PNTIN:	SETZM	$INTDF#		;CLEAR DEVICE DEFAULT FLAG
  6740	017563'	402 00 0 00 000051'		SETZM	$DVOFF#		;CLEAR DEVICE INITED FLAG
  6741	017564'	402 00 0 00 000044'		SETZM	PDISF#		;CLEAR PRINT DISABLED FLAG
  6742	017565'	402 00 0 00 021126'		SETZM	$PTINH#		;CLEAR PRINT 'TYPE-IN INHIBIT' FLAG
  6743	017566'	402 00 0 00 000045'		SETZM	PNTINH#		;ALLOW EXEC PRINT TYPE IN INHIBIT
  6744	017567'	402 00 0 00 021076'		SETZM	XOFFLAG#	;CLEAR XOFF FLAG
  6745	017570'	402 00 0 00 000042'		SETZM	PNTFLG#		;CLEAR IN PRINT FLAG
  6746	017571'	476 00 0 00 000046'		SETOM	PNTSPC#		;SET PRINT SPACE FLAG
  6747	017572'	211 00 0 00 011610 		MOVNI	0,^D5000	;SET PRINT ENABLE TO 5000 LINES
  6748	017573'	202 00 0 00 000043'		MOVEM	0,PNTENB
  6749	017574'	402 00 0 00 021073'		SETZM	TTYFIL#		;ALLOW EXEC FILLERS
  6750	017575'	402 00 0 00 000055'		SETZM	$CRLF#		;ALLOW FREE CR/LF
  6751	017576'	402 00 0 00 000056'		SETZM	$TABF		;ALLOW TAB CONVERSION
  6752	017577'	402 00 0 00 000057'		SETZM	$FFF		;ALLOW FORM FEED CONVERSION
  6753	017600'	402 00 0 00 000060'		SETZM	$VTF		;ALLOW VERTICAL TAB CONVERSION
  6754
  6755	017601'	336 00 0 00 000302'		SKIPN	MONTYP
  6756	017602'	254 00 0 00 017610'		JRST	$PNTIX
  6757
  6758	017603'	201 01 0 00 000101 		movei	1,.priou
  6759	017604'	104 00 0 00 000107 		rfmod			;don't translate print output
  6760	017605'	620 02 0 00 000300 		trz	2,tt%dam
  6761	017606'	660 02 0 00 000300 		tro	2,3b29
  6762	017607'	104 00 0 00 000110 		sfmod
  6763
  6764	017610'	201 00 0 00 016612'	$PNTIX:	MOVEI	REENTR		;SETUP REENTER ADDRESS
  6765	017611'	202 00 0 00 000124 		MOVEM	JOBREN
  6766	017612'	335 00 0 00 000004'		SKIPGE	MONCTL		;MONITOR CONTROL ?
  6767	017613'	263 17 0 00 000000 		RTN			;YES, DON'T PRINT TITLE
  6768	017614'	332 00 0 00 000015'		SKIPE	$ONETM		;FIRST TIME?
  6769	017615'	263 17 0 00 000000 		RTN			;NO .....EXIT
  6770	017616'	254 00 0 00 017115'		JRST	$PNTNM+2	;YES ...PRINT PROGRAM NAME
  6771									;AND EXIT
SMFILE	DECSYSTEM 2020 DIAGNOSTICS FE-FILE PROGRAM, VER 0,3	MACRO %53(1020) 10:47 19-Feb-79 Page 182
SMFILE	MAC	19-Feb-79 10:46		*SUBRTN* PRINT SUBROUTINES                                                         SEQ 0221

  6772					S^;*********************************************************************^
  6773					;*PRINT SUBROUTINE ENTRY POINT
  6774					;*EXIT VIA $PNTI4 BELOW
  6775					S^;*********************************************************************^
  6776
  6777	017617'	476 00 0 00 000042'	$PNTIF:	SETOM	PNTFLG		;SET IN PRINT FLAG
  6778	017620'	476 00 0 00 021123'		SETOM	$PNTTY#		;FORCE TO TTY
  6779	017621'	402 00 0 00 021126'		SETZM	$PTINH
  6780	017622'	332 00 0 00 000302'		SKIPE	MONTYP
  6781	017623'	254 00 0 00 017627'		JRST	.+4
  6782	017624'	051 13 0 00 000000 		TTCALL	13,0		;TOPS10 CLEAR CONTROL O
  6783	017625'	255 00 0 00 000000 		JFCL
  6784	017626'	254 00 0 00 017676'		JRST	$PNTIA
  6785	017627'	261 17 0 00 000001 		PUT	1
  6786	017630'	261 17 0 00 000002 		PUT	2
  6787	017631'	201 01 0 00 000101 		MOVEI	1,.PRIOU
  6788	017632'	104 00 0 00 000107 		RFMOD
  6789	017633'	621 02 0 00 400000 		TLZ	2,(TT%OSP)	;CLEAR CONTROL O
  6790	017634'	104 00 0 00 000110 		SFMOD
  6791	017635'	262 17 0 00 000002 		GETIT	2
  6792	017636'	262 17 0 00 000001 		GETIT	1
  6793	017637'	402 00 0 00 021052'		SETZM	INUPTR		;CLEAR TTY INPUT BUFFER
  6794	017640'	254 00 0 00 017676'		JRST	$PNTIA
  6795
  6796	017641'	476 00 0 00 000042'	$PNTIT:	SETOM	PNTFLG		;SET IN PRINT FLAG
  6797	017642'	402 00 0 00 021123'		SETZM	$PNTTY		;NOT FORCED TO TTY
  6798	017643'	331 00 0 00 000043'		SKIPL	PNTENB#		;PRINT LIMIT REACHED YET?
  6799	017644'	254 00 0 00 017662'		JRST	$PNTIB		;YES ..DON'T PRINT
  6800	017645'	200 00 0 00 000006'		MOVE	CONSW		;READ DATA SWITCHES INTO AC0
  6801	017646'	607 00 0 00 040000 		TLNN	0,NOPNT		;NO PRINT SWITCH SET?
  6802	017647'	254 00 0 00 017676'		JRST	$PNTIA
  6803	017650'	262 17 0 00 000000 		GETIT	AC0		;YES ...RESTORE AC0 FROM STACK (P - 1)
  6804	017651'	254 00 0 00 017660'		JRST	$PRNTX		;EXIT, DON'T PRINT
SMFILE	DECSYSTEM 2020 DIAGNOSTICS FE-FILE PROGRAM, VER 0,3	MACRO %53(1020) 10:47 19-Feb-79 Page 183
SMFILE	MAC	19-Feb-79 10:46		*SUBRTN* PRINT SUBROUTINES                                                         SEQ 0222

  6805					;*PRINT ROUTINE EXIT
  6806					S^;*********************************************************************^
  6807
  6808	017652'	402 00 0 00 021123'	$PNTI4:	SETZM	$PNTTY		;CLEAR FORCE TO TTY FLAG
  6809
  6810	017653'	200 01 0 00 021110'		MOVE	1,$PACA1	;RESTORE AC'S
  6811	017654'	200 02 0 00 021111'		MOVE	2,$PACA2
  6812	017655'	200 03 0 00 021112'		MOVE	3,$PACA3
  6813	017656'	200 04 0 00 021113'		MOVE	4,$PACA4
  6814	017657'	200 05 0 00 021114'		MOVE	5,$PACA5
  6815	017660'	402 00 0 00 000042'	$PRNTX:	SETZM	PNTFLG		;CLEAR IN PRINT FLAG
  6816	017661'	263 17 0 00 000000 		RTN			;RETURN
  6817
  6818					;*PRINT LIMIT WARNING & ALTERNATE EXIT PATH
  6819					S^;*********************************************************************^
  6820
  6821	017662'	262 17 0 00 000000 	$PNTIB:	GETIT	AC0		;RESTORE THE STACK (P - 1)
  6822	017663'	332 00 0 00 000044'		SKIPE	PDISF#		;FIRST TIME PRINT DISABLED?
  6823	017664'	254 00 0 00 017660'		JRST	$PRNTX		;YES	...EXIT )
  6824
  6825	017665'	476 00 0 00 000044'	$PNTB1:	SETOM	PDISF		;NO ........SET IT
  6826	017666'	202 01 0 00 021110'		MOVEM	1,$PACA1	;SAVE AC'S 1 - 5
  6827	017667'	202 02 0 00 021111'		MOVEM	2,$PACA2
  6828	017670'	202 03 0 00 021112'		MOVEM	3,$PACA3
  6829	017671'	202 04 0 00 021113'		MOVEM	4,$PACA4
  6830	017672'	202 05 0 00 021114'		MOVEM	5,$PACA5
  6831	017673'	476 00 0 00 021123'		SETOM	$PNTTY		;SET FORCE TO TTY FLAG
  6832						MOVEI	[ASCIZ/
  6833					******
  6834					EXCEEDED ALLOWED PRINTOUTS
  6835	017674'	201 00 0 00 020577'	/]
  6836	017675'	254 00 0 00 020107'		JRST	$ASCPN-1	;PRINT THE WARNING & EXIT
SMFILE	DECSYSTEM 2020 DIAGNOSTICS FE-FILE PROGRAM, VER 0,3	MACRO %53(1020) 10:47 19-Feb-79 Page 184
SMFILE	MAC	19-Feb-79 10:46		*SUBRTN* PRINT SUBROUTINES                                                         SEQ 0223

  6837					S^;*********************************************************************^
  6838					;*PRINT ROUTINE SELECTOR
  6839					;*BASED ON "AC FIELD" = 12 - 17
  6840					S^;*********************************************************************^
  6841
  6842	017676'	202 01 0 00 021110'	$PNTIA:	MOVEM	1,$PACA1#	;SAVE AC1.
  6843	017677'	202 02 0 00 021111'		MOVEM	2,$PACA2#	;SAVE AC2.
  6844	017700'	202 03 0 00 021112'		MOVEM	3,$PACA3#	;SAVE AC3.
  6845	017701'	202 04 0 00 021113'		MOVEM	4,$PACA4#	;SAVE AC4.
  6846	017702'	202 05 0 00 021114'		MOVEM	5,$PACA5#	;SAVE AC5.
  6847	017703'	262 17 0 00 000000 		GETIT	AC0		;RESTORE AC0 FROM STACK (P - 1)
  6848	017704'	402 00 0 00 021121'		SETZM	$PNT#		;CLEAR PRINT HALF WORDS FLAG
  6849	017705'	200 02 0 00 000040 		MOVE	2,LUUO
  6850	017706'	241 02 0 00 000015 		ROT	2,15		;GET X (AC FIELD)
  6851	017707'	405 02 0 00 000017 		ANDI	2,17		;OUT OF THE UUO
  6852
  6853	017710'	306 02 0 00 000017 	$PNTIC:	CAIN	2,17		;X=17?
  6854	017711'	254 00 0 00 020107'		JRST	$PNTLN		;YES. PRINT ASCII LINE
  6855	017712'	322 02 0 00 020110'		JUMPE	2,$ASCPN	;X=0? YES. GO PRINT 1 WORD ASCII
  6856	017713'	306 02 0 00 000015 		CAIN	2,15		;X=15?
  6857	017714'	254 00 0 00 020125'		JRST	$DECPN		;YES, PRINT DECIMALS )
  6858	017715'	306 02 0 00 000016 		CAIN	2,16		;X=16?
  6859	017716'	254 00 0 00 020124'		JRST	$DECSP		;YES, PRINT DECIMALS, LEADING SPACES
  6860	017717'	306 02 0 00 000013 		CAIN	2,13		;X=13?
  6861	017720'	254 00 0 00 020075'		JRST	$PNTI3		;YES, PRINT OCTALS, 6 SP 6
  6862	017721'	306 02 0 00 000012 		CAIN	2,12		;X=12?
  6863	017722'	254 00 0 00 020103'		JRST	$CHRPN		;YES, PRINT CHARACTER )
  6864
  6865	017723'	254 00 0 00 020053'		JRST	$PNTI1		;NONE OF THE ABOVE, PRINT OCTAL
  6866									;(AC FIELD <12 OR = TO 14)
SMFILE	DECSYSTEM 2020 DIAGNOSTICS FE-FILE PROGRAM, VER 0,3	MACRO %53(1020) 10:47 19-Feb-79 Page 185
SMFILE	MAC	19-Feb-79 10:46		*SUBRTN* PRINT SUBROUTINES                                                         SEQ 0224

  6867					S^;*********************************************************************^
  6868					;*SIXBIT PRINT SUBROUTINE
  6869					;*PRINTS SIXBIT WORD IN AC0
  6870					S^;*********************************************************************^
  6871
  6872					;*NORMAL PRINTOUT
  6873					S^;*********************************************************************^
  6874
  6875	017724'	261 17 0 00 000001 	$PNTSX:	PUT	1		;SAVE AC1 ON STACK (P + 1)
  6876	017725'	200 01 0 00 000000 		MOVE	1,0		;PUT SIXBIT WORD IN AC1
  6877	017726'	201 00 0 00 000000 		MOVEI	0,0
  6878	017727'	246 00 0 00 000006 		LSHC	0,6		;GET NEXT CHAR INTO AC0
  6879	017730'	271 00 0 00 000040 		ADDI	0,40		;CONVERT TO ASCII
  6880	017731'	037 12 0 00 000000 		PNTCHR			;PRINT IT
  6881	017732'	326 01 0 00 017726'		JUMPN	1,.-4		;LOOP TILL ALL PRINTED
  6882	017733'	262 17 0 00 000001 		GETIT	1		;RESTORE AC1 FROM THE STACK (P - 1)
  6883	017734'	263 17 0 00 000000 		RTN			;EXIT
  6884
  6885					;*FORCED PRINTOUT
  6886					S^;*********************************************************************^
  6887
  6888	017735'	261 17 0 00 000001 	$PTSXF:	PUT	1		;SAVE AC1 ON THE STACK (P + 1)
  6889	017736'	200 01 0 00 000000 		MOVE	1,0		;PUT SIXBIT WORD IN AC1
  6890	017737'	201 00 0 00 000000 		MOVEI	0,0
  6891	017740'	246 00 0 00 000006 		LSHC	0,6		;GET NEXT CHAR INTO AC0
  6892	017741'	271 00 0 00 000040 		ADDI	0,40		;CONVERT TO ASCII
  6893	017742'	037 12 0 00 000001 		PNTCHF			;PRINT
  6894	017743'	326 01 0 00 017737'		JUMPN	1,.-4		;LOOP TILL ALL PRINTED
  6895	017744'	262 17 0 00 000001 		GETIT	1		;FROM THE STACK (P - 1)
  6896	017745'	263 17 0 00 000000 		RTN			;EXIT
SMFILE	DECSYSTEM 2020 DIAGNOSTICS FE-FILE PROGRAM, VER 0,3	MACRO %53(1020) 10:47 19-Feb-79 Page 186
SMFILE	MAC	19-Feb-79 10:46		*SUBRTN* PRINT SUBROUTINES                                                         SEQ 0225

  6897					S^;*********************************************************************^
  6898					;*SIXBIT MESSAGE PRINT ROUTINE
  6899					;*PRINTS THE SIXBIT MESSAGE THOSE ADDRESS IS IN AC0
  6900					;*"BACKARROW" (77) SIGNIFIES END OF TEXT
  6901					;*"UPARROW" (76) SIGNIFIES CR/LF
  6902					;*"RIGHT SQUARE BRACKET" (75) SIGNIFIES TAB
  6903					S^;*********************************************************************^
  6904
  6905	017746'	261 17 0 00 000005 	$PSIXF:	PUT	5
  6906	017747'	474 05 0 00 000000 		SETO	5,		;SET FORCED PRINTING FLAG
  6907	017750'	254 00 0 00 017753'		JRST	.+3
  6908
  6909	017751'	261 17 0 00 000005 	$PSIX:	PUT	5
  6910	017752'	400 05 0 00 000000 		SETZ	5,		;NORMAL PRINTING
  6911	017753'	261 17 0 00 000001 		PUT	1
  6912	017754'	261 17 0 00 000002 		PUT	2
  6913	017755'	261 17 0 00 000003 		PUT	3
  6914	017756'	261 17 0 00 000004 		PUT	4
  6915
  6916	017757'	550 04 0 00 000000 		HRRZ	4,0		;MESSAGE ADDRESS TO AC4
  6917
  6918	017760'	201 03 0 00 000006 	$PSIX1:	MOVEI	3,6		;6 = NUM OF 6BIT CHAR PER WORD
  6919	017761'	200 01 0 04 000000 		MOVE	1,(4)		;GET FIRST/NEXT WORD OF MESSAGE
  6920
  6921	017762'	400 02 0 00 000000 	$PSIX2:	SETZ	2,
  6922	017763'	245 01 0 00 000006 		ROTC	1,6		;C(AC1) = CHAR TO BE PRINTED
  6923	017764'	306 02 0 00 000077 		CAIN	2,77
  6924	017765'	254 00 0 00 020002'		JRST	$PSIX5		;"BACKARROW", DONE
  6925	017766'	306 02 0 00 000076 		CAIN	2,76
  6926	017767'	254 00 0 00 017777'		JRST	$PSIX4		;"UPARROW", CR/LF
  6927	017770'	306 02 0 00 000075 		CAIN	2,75
  6928	017771'	201 02 0 00 000151 		MOVEI	2,151		;"BRACKET", CHANGE TO TAB (151+40=11)
  6929	017772'	201 00 0 02 000040 		MOVEI	0,40(2)		;CHANGE TO ASCII
  6930						JUMPN	5,[PNTCHF
  6931	017773'	326 05 0 00 020607'			JRST	.+2]	;FORCED PRINT
  6932	017774'	037 12 0 00 000000 		PNTCHR
  6933	017775'	366 03 0 00 017762'	$PSIX3:	SOJN	3,$PSIX2	;PRINTED ALL CHARS FROM THIS WORD ?
  6934	017776'	344 04 0 00 017760'		AOJA	4,$PSIX1	;YES, DO NEXT WORD
  6935
  6936					$PSIX4:	JUMPN	5,[PCRLF
  6937	017777'	326 05 0 00 020611'			JRST	.+2]
  6938	020000'	037 00 0 00 000063'		PCRL			;PRINT CR/LF
  6939	020001'	254 00 0 00 017775'		JRST	$PSIX3
  6940
  6941	020002'	262 17 0 00 000004 	$PSIX5:	GETIT	4
  6942	020003'	262 17 0 00 000003 		GETIT	3
  6943	020004'	262 17 0 00 000002 		GETIT	2
  6944	020005'	262 17 0 00 000001 		GETIT	1
  6945	020006'	262 17 0 00 000005 		GETIT	5
  6946	020007'	263 17 0 00 000000 		RTN
SMFILE	DECSYSTEM 2020 DIAGNOSTICS FE-FILE PROGRAM, VER 0,3	MACRO %53(1020) 10:47 19-Feb-79 Page 187
SMFILE	MAC	19-Feb-79 10:46		*SUBRTN* PRINT SUBROUTINES                                                         SEQ 0226

  6947					S^;*********************************************************************^
  6948					;*OCTAL SUPPRESS LEADING ZEROS PRINT ROUTINE
  6949					;*PRINTS NUMBER IN AC0, SUPPRESSING LEADING ZEROS
  6950					;*PRINTS MINUS SIGN IF NUMBER IS NEGATIVE
  6951					S^;*********************************************************************^
  6952
  6953	020010'	261 17 0 00 000005 	$POCSF:	PUT	5
  6954	020011'	474 05 0 00 000000 		SETO	5,		;FORCED PRINTOUT
  6955	020012'	254 00 0 00 020015'		JRST	.+3
  6956
  6957	020013'	261 17 0 00 000005 	$POCS:	PUT	5
  6958	020014'	400 05 0 00 000000 		SETZ	5,		;NORMAL PRINTOUT
  6959	020015'	261 17 0 00 000001 		PUT	1
  6960	020016'	261 17 0 00 000002 		PUT	2
  6961	020017'	261 17 0 00 000003 		PUT	3
  6962	020020'	261 17 0 00 000004 		PUT	4
  6963
  6964	020021'	200 02 0 00 000000 		MOVE	2,0
  6965	020022'	325 02 0 00 020027'		JUMPGE	2,$POCS1	;IS NUMBER NEGATIVE ?
  6966	020023'	201 00 0 00 000055 		MOVEI	"-"
  6967						JUMPN	5,[PNTCHF
  6968	020024'	326 05 0 00 020613'			JRST	.+2]
  6969	020025'	037 12 0 00 000000 		PNTCHR			;YES, PRINT MINUS SIGN
  6970	020026'	210 02 0 00 000002 		MOVN	2,2		;MAKE NUMBER POSITIVE
  6971
  6972	020027'	400 04 0 00 000000 	$POCS1:	SETZ	4,
  6973	020030'	403 03 0 00 000001 		SETZB	3,1
  6974	020031'	322 02 0 00 020037'		JUMPE	2,$POCS3	;IF NUMBER 0, PRINT 1 ZERO
  6975
  6976	020032'	201 03 0 00 000014 		MOVEI	3,^D12		;PRINT UP TO 12 DIGITS
  6977	020033'	400 01 0 00 000000 	$POCS2:	SETZ	1,
  6978	020034'	246 01 0 00 000003 		LSHC	1,3
  6979	020035'	322 01 0 00 020051'		JUMPE	1,$POCS5	;IS THIS DIGIT ZERO ?
  6980	020036'	474 04 0 00 000000 		SETO	4,		;NO, SET NON-ZERO DIGIT FLAG
  6981	020037'	201 00 0 01 000060 	$POCS3:	MOVEI	"0"(1)		;MAKE ASCII NUMBER
  6982						JUMPN	5,[PNTCHF
  6983	020040'	326 05 0 00 020615'			JRST	.+2]
  6984	020041'	037 12 0 00 000000 		PNTCHR			;PRINT DIGIT
  6985
  6986	020042'	367 03 0 00 020033'	$POCS4:	SOJG	3,$POCS2	;ALL DONE ?
  6987	020043'	262 17 0 00 000004 		GETIT	4
  6988	020044'	262 17 0 00 000003 		GETIT	3
  6989	020045'	262 17 0 00 000002 		GETIT	2
  6990	020046'	262 17 0 00 000001 		GETIT	1
  6991	020047'	262 17 0 00 000005 		GETIT	5
  6992	020050'	263 17 0 00 000000 		RTN
  6993
  6994	020051'	322 04 0 00 020042'	$POCS5:	JUMPE	4,$POCS4	;PRINTED NON-ZERO DIGIT ?
  6995	020052'	254 00 0 00 020037'		JRST	$POCS3		;YES, PRINT ZEROS
SMFILE	DECSYSTEM 2020 DIAGNOSTICS FE-FILE PROGRAM, VER 0,3	MACRO %53(1020) 10:47 19-Feb-79 Page 188
SMFILE	MAC	19-Feb-79 10:46		*SUBRTN* PRINT SUBROUTINES                                                         SEQ 0227

  6996					S^;*********************************************************************^
  6997					;*OCTAL PRINTOUT ROUTINE
  6998					;*PRINTS NUMBER IN AC0
  6999					S^;*********************************************************************^
  7000
  7001	020053'	200 03 0 00 000002 	$PNTI1:	MOVE	3,2		;MOVE X INTO AC3.
  7002	020054'	241 00 0 00 777775 		ROT	0,-3		;ROT OCTAL NUM 3 PLACES
  7003	020055'	366 03 0 00 020054'		SOJN	3,.-1		;X AMOUNT OF TIMES.
  7004
  7005	020056'	201 01 0 00 000006 	$PNTI2:	MOVEI	1,6		;PUT 6 INTO AC1 SO THAT
  7006	020057'	245 00 0 00 000003 		ROTC	0,3		;C(AC1) AFTER THE ROTC WILL BE 60
  7007	020060'	265 03 0 00 020155'		JSP	3,$TOUT		;PLUS NUMBER TO BE PRINTED
  7008	020061'	366 02 0 00 020056'		SOJN	2,$PNTI2	;SUB 1 FROM X...PRINT UNTIL X=0.
  7009	020062'	202 01 0 00 021122'		MOVEM	1,$PNTSV#	;SAVE NUMBER
  7010	020063'	336 00 0 00 000046'		SKIPN	PNTSPC
  7011	020064'	254 00 0 00 020067'		JRST	.+3
  7012	020065'	201 01 0 00 000040 		MOVEI	1,40		;AT THIS POINT WE HAVE PRINTED
  7013	020066'	265 03 0 00 020155'		JSP	3,$TOUT		;X AMOUNT OF NUMBER(S) AND NOW A SPACE
  7014	020067'	336 00 0 00 021121'		SKIPN	$PNT#		;PRINT 6 SP 6 FLAG SET?
  7015	020070'	254 00 0 00 017652'		JRST	$PNTI4		;NO, EXIT )
  7016	020071'	200 01 0 00 021122'		MOVE	1,$PNTSV	;RESTORE NUMBER
  7017	020072'	201 02 0 00 000006 		MOVEI	2,6		;SETUP FOR 2ND HALF
  7018	020073'	402 00 0 00 021121'		SETZM	$PNT		;CLEAR PRINT SPACE FLAG
  7019	020074'	254 00 0 00 020056'		JRST	$PNTI2		;PRINT REST OF NUMBER
  7020
  7021	020075'	201 03 0 00 000014 	$PNTI3:	MOVEI	3,14		;SETUP FOR LH WORD
  7022	020076'	201 02 0 00 000006 		MOVEI	2,6		;SETUP FOR FIRST HALF
  7023	020077'	476 00 0 00 021121'		SETOM	$PNT		;SET PRINT 6 SP 6 FLAG
  7024	020100'	476 00 0 00 000046'		SETOM	PNTSPC		;SET THE PRINT SPACE FLAG
  7025	020101'	254 00 0 00 020054'		JRST	$PNTI1+1	;PRINT FIRST HALF NUMBER
  7026	020102'	254 00 0 00 017652'		JRST	$PNTI4		;EXIT
  7027
SMFILE	DECSYSTEM 2020 DIAGNOSTICS FE-FILE PROGRAM, VER 0,3	MACRO %53(1020) 10:47 19-Feb-79 Page 189
SMFILE	MAC	19-Feb-79 10:46		*SUBRTN* PRINT SUBROUTINES                                                         SEQ 0228

  7028					S^;*********************************************************************^
  7029					;*ASCII/CHARACTER PRINTOUT ROUTINE
  7030					;*PRINTS CHAR IN LOWER 7 BITS OF AC0
  7031					S^;*********************************************************************^
  7032
  7033	020103'	405 00 0 00 000177 	$CHRPN:	ANDI	0,177		;STRIP CHAR TO 7 BITS
  7034	020104'	200 01 0 00 000000 		MOVE	1,0
  7035	020105'	265 03 0 00 020155'		JSP	3,$TOUT		;PRINT A CHARACTER
  7036	020106'	254 00 0 00 017652'		JRST	$PNTI4		;LEAVE
  7037
  7038					S^;*********************************************************************^
  7039					;*PRINTS ASCII WHOSE ADDRESS IS IN AC0
  7040					S^;*********************************************************************^
  7041
  7042	020107'	476 00 0 00 021121'	$PNTLN:	SETOM	$PNT#		;SET PRINT MORE THAN 1 WORD FLAG.
  7043
  7044	020110'	202 00 0 00 021125'	$ASCPN:	MOVEM	0,$POINT#	;SAVE ADDRESS OF ASCII MESSAGE.
  7045	020111'	201 02 0 00 000005 	$ASCP1:	MOVEI	2,5		;5 = NUM OF ASCII CHAR. IN A WORD.
  7046	020112'	200 00 1 00 021125'		MOVE	0,@$POINT	;C(AC0) = FIRST/NEXT WORD OF ASCII MESS
  7047
  7048	020113'	400 01 0 00 000000 	$ASCP2:	SETZ	1,		;CLEAR AC1.
  7049	020114'	245 00 0 00 000007 		ROTC	0,7		;C(AC1) = CHAR TO BE PRINTED.
  7050	020115'	322 01 0 00 017652'		JUMPE	1,$PNTI4	;CHAR = NULL?..NO MORE CHAR..EXIT
  7051	020116'	265 03 0 00 020155'		JSP	3,$TOUT		;PRINT A CHAR
  7052	020117'	366 02 0 00 020113'		SOJN	2,$ASCP2	;PNT ALL CHAR FROM THIS WORD?
  7053	020120'	350 00 0 00 021125'		AOS	$POINT		;YES. INC TO GET NEXT WORD.
  7054	020121'	336 00 0 00 021121'		SKIPN	$PNT		;PNT MORE THAN ONE WORD FLAG SET?
  7055	020122'	254 00 0 00 017652'		JRST	$PNTI4		;NO..LEAVE
  7056	020123'	254 00 0 00 020111'		JRST	$ASCP1		;YES...RETURN TO PNT NEXT WORD.
SMFILE	DECSYSTEM 2020 DIAGNOSTICS FE-FILE PROGRAM, VER 0,3	MACRO %53(1020) 10:47 19-Feb-79 Page 190
SMFILE	MAC	19-Feb-79 10:46		*SUBRTN* PRINT SUBROUTINES                                                         SEQ 0229

  7057					S^;*********************************************************************^
  7058					;*DECIMAL PRINTOUT ROUTINE
  7059					;*PRINTS NUMBER IN AC0
  7060					S^;*********************************************************************^
  7061
  7062	020124'	476 00 0 00 021121'	$DECSP:	SETOM	$PNT		;SET LEADING SPACES PRINT CONTROL
  7063
  7064	020125'	325 00 0 00 020131'	$DECPN:	JUMPGE	0,.+4		;IS NUMBER NEGATIVE ?
  7065	020126'	201 01 0 00 000055 		MOVEI	1,"-"		;YES, PRINT MINUS SIGN
  7066	020127'	265 03 0 00 020155'		JSP	3,$TOUT
  7067	020130'	210 00 0 00 000000 		MOVN	0,0		;MAKE NUMBER POSITIVE
  7068	020131'	260 17 0 00 020133'		GO	$RADIX		;DECIMAL-ASCII CONVERSION & PRINT CHARS
  7069	020132'	254 00 0 00 017652'		JRST	$PNTI4		;EXIT
  7070
  7071	020133'	200 02 0 00 000067'	$RADIX:	MOVE	2,RADLSC	;SETUP DIGIT COUNTER
  7072	020134'	246 00 0 00 777735 		LSHC	0,-^D35		;SHIFT RIGHT 35 BITS INTO AC1
  7073	020135'	242 01 0 00 777777 		LSH	1,-1		;VACATE AC1 SIGN BIT
  7074
  7075	020136'	234 00 0 00 000065'	$DCCMP:	DIV	0,RADIX		;DIVIDE DOUBLE LENGTH INTERGER BY 10
  7076	020137'	506 01 0 17 000000 		HRLM	1,(17)		;SAVE DIGIT
  7077	020140'	370 00 0 00 000002 		SOS	2		;COUNT DIGIT
  7078	020141'	322 00 0 00 020147'		JUMPE	0,$LDSPS	;ALL DIGITS FORMED?
  7079	020142'	260 17 0 00 020134'		GO	$RADIX+1	;NO, COMPUTE NEXT ONE
  7080
  7081	020143'	554 01 0 17 000000 	$DECP1:	HLRZ	1,(17)		;YES, RETRIEVE DIGIT
  7082	020144'	271 01 0 00 000060 		ADDI	1,60		;CONVERT TO ASCII
  7083	020145'	265 03 0 00 020155'		JSP	3,$TOUT		;TYPE-OUT A DIGIT
  7084	020146'	263 17 0 00 000000 		RTN			;GET NEXT/EXIT
  7085
  7086	020147'	336 00 0 00 021121'	$LDSPS:	SKIPN	$PNT		;LEADING SPACES PRINT SET?
  7087	020150'	254 00 0 00 020143'		JRST	$DECP1		;NO ...GO PRINT
  7088									;YES ...DO IT
  7089	020151'	361 02 0 00 020143'	$DCSPS:	SOJL	2,$DECP1	;SPACES COMPLETE ?  YES
  7090	020152'	200 01 0 00 000066'		MOVE	1,RADLSP	;NO, PRINT LEADING SPACE
  7091	020153'	265 03 0 00 020155'		JSP	3,$TOUT		;TYPE OUT THE SPACE
  7092	020154'	254 00 0 00 020151'		JRST	.-3		;CHECK FOR NEXT
SMFILE	DECSYSTEM 2020 DIAGNOSTICS FE-FILE PROGRAM, VER 0,3	MACRO %53(1020) 10:47 19-Feb-79 Page 193
SMFILE	MAC	19-Feb-79 10:46		*SUBRTN*  CHARACTER OUTPUT ROUTINES                                                SEQ 0230

  7093					SUBTTL	*SUBRTN*  CHARACTER OUTPUT ROUTINES
  7094
  7095					S^;*********************************************************************^
  7096					;*OUTPUT TERMINATION CONTROL ROUTINE
  7097					S^;*********************************************************************^
  7098
  7099	020155'	202 00 0 00 021115'	$TOUT:	MOVEM	0,$PACB0#	;SAVE AC0.
  7100	020156'	202 01 0 00 021124'		MOVEM	1,$PNTYC#	;SAVE CHARACTER TO BE PRINTED
  7101
  7102					S^;*********************************************************************^
  7103					;*OVERALL CHARACTER OUTPUT CONTROL ROUTINE
  7104					S^;*********************************************************************^
  7105
  7106	020157'	200 00 0 00 000006'	$TOUTB:	MOVE	AC0,CONSW	;DATA SWITCHES INTO AC0
  7107	020160'	350 00 0 00 021101'		AOS	$CARCT#		;INC CHAR CNTR.
  7108	020161'	306 01 0 00 000007 		CAIN	1,7		;CHAR A BELL ?
  7109	020162'	402 00 0 00 021126'		SETZM	$PTINH		;YES, CLEAR PRINT INHIBIT
  7110	020163'	302 01 0 00 000015 		CAIE	1,15		;CHAR A CR?
  7111	020164'	254 00 0 00 020170'		JRST	$TOUB1		;NO-CHK FOR LF
  7112	020165'	336 00 0 00 021126'		SKIPN	$PTINH		;DON'T COUNT ^O'ED LINES
  7113	020166'	350 00 0 00 000043'		AOS	PNTENB		;COUNT LINES, TILL NO MORE
  7114	020167'	402 00 0 00 021101'		SETZM	$CARCT		;CLR CHAR CNTR.
  7115
  7116	020170'	306 01 0 00 000012 	$TOUB1:	CAIN	1,12		;IS CHAR A LF?
  7117	020171'	402 00 0 00 021101'		SETZM	$CARCT		;YES-CLR CHAR CNTR.
  7118	020172'	332 00 0 00 021123'		SKIPE	$PNTTY		;NO-IS PRINT FORCED ON?
  7119	020173'	254 00 0 00 020176'		JRST	$TOUB2		;YES-DON'T CHECK NON-PNT SW
  7120	020174'	603 00 0 00 040000 		TLNE	0,NOPNT		;IS NON PNT SWITCH ON?
  7121	020175'	254 00 0 03 000000 		JRST	(3)		;YES, RETURN
  7122
  7123	020176'	265 04 0 00 020221'	$TOUB2:	JSP	4,$TOUT2	;SEND CHARACTER USER MODE
  7124
  7125	020177'	332 00 0 00 000061'	$TOUB3:	SKIPE	USRLFF#		;NEED USER LF FILLERS ?
  7126	020200'	254 00 0 00 020210'		JRST	$USRFL		;YES
  7127	020201'	332 00 0 00 000062'		SKIPE	USRCRF#		;NEED USER CR FILLERS ?
  7128	020202'	254 00 0 00 020204'		JRST	$USRFC		;YES
  7129	020203'	254 00 0 00 020217'		JRST	$TOUTA		;NO-BACK TO PRINT ROUTINE
SMFILE	DECSYSTEM 2020 DIAGNOSTICS FE-FILE PROGRAM, VER 0,3	MACRO %53(1020) 10:47 19-Feb-79 Page 194
SMFILE	MAC	19-Feb-79 10:46		*SUBRTN*  CHARACTER OUTPUT ROUTINES                                                SEQ 0231

  7130					;*USER MODE LF & CR FILLERS
  7131					S^;*********************************************************************^
  7132
  7133	020204'	302 01 0 00 000015 	$USRFC:	CAIE	1,15		;CR ?
  7134	020205'	254 00 0 00 020217'		JRST	$TOUTA		;NO-RETURN TO PRINT ROUTINE
  7135	020206'	200 05 0 00 000062'		MOVE	5,USRCRF	;SEND FILLERS FOR CR
  7136	020207'	254 00 0 00 020213'		JRST	$USRF1		;DEPENDING ON 'USRCRF'
  7137
  7138	020210'	302 01 0 00 000012 	$USRFL:	CAIE	1,12		;LF ?
  7139	020211'	254 00 0 00 020217'		JRST	$TOUTA		;NO-RETURN TO PRINT
  7140	020212'	200 05 0 00 000061'		MOVE	5,USRLFF	;SEND FILLERS FOR LF
  7141	020213'	361 05 0 00 020217'	$USRF1:	SOJL	5,$TOUTA	;DEPENDING ON 'USRLFF'
  7142	020214'	201 01 0 00 000001 		MOVEI	1,001		;^A
  7143	020215'	265 04 0 00 020221'		JSP	4,$TOUT2	;SEND CHARACTER
  7144	020216'	254 00 0 00 020213'		JRST	$USRF1
  7145
  7146					;*RETURN BACK TO PRINTING ROUTINE FROM CHAR OUTPUT
  7147					S^;*********************************************************************^
  7148	020217'	200 00 0 00 021115'	$TOUTA:	MOVE	AC0,$PACB0	;RESTORE AC0
  7149	020220'	254 00 0 03 000000 		JRST	(3)		;RETURN TO PRINT ROUTINE
SMFILE	DECSYSTEM 2020 DIAGNOSTICS FE-FILE PROGRAM, VER 0,3	MACRO %53(1020) 10:47 19-Feb-79 Page 195
SMFILE	MAC	19-Feb-79 10:46		*SUBRTN*  CHARACTER OUTPUT ROUTINES                                                SEQ 0232

  7150					S^;*********************************************************************^
  7151					;*USER MODE CHARACTER OUTPUT
  7152					S^;*********************************************************************^
  7153
  7154	020221'	202 04 0 00 021116'	$TOUT2:	MOVEM	4,$PACC4#
  7155	020222'	306 01 0 00 000026 		CAIN	1,26		;DON'T PRINT NULLS
  7156	020223'	254 00 1 00 021116'		JRST	@$PACC4
  7157	020224'	200 00 0 00 000006'		MOVE	0,CONSW
  7158	020225'	603 00 0 00 020000 		TLNE	0,PNTLPT	;IS LPT PRINT SWITCH UP ?
  7159	020226'	254 00 0 00 020254'		JRST	$TOUT3		;YES, GO PRINT ON LOGICAL DEVICE
  7160	020227'	037 05 0 00 000002 		DROPDV			;CLOSE DEV IF SWITCH CHANGED
  7161	020230'	200 00 0 00 021101'	$TOUT6:	MOVE	0,$CARCT	;CHARACTER NUMBER
  7162	020231'	306 00 0 00 000001 		CAIN	0,1		;FIRST CHAR IN LINE ?
  7163	020232'	254 00 0 00 020242'		JRST	$TOUT4		;YES
  7164	020233'	332 00 0 00 021055'	$TOUT5:	SKIPE	NOTYPE		;TYPEOUT INHIBITED ?
  7165	020234'	254 00 1 00 021116'		JRST	@$PACC4		;YES
  7166	020235'	336 00 0 00 000302'		SKIPN	MONTYP
  7167	020236'	051 01 0 00 000001 		OUTCHR	1
  7168	020237'	332 00 0 00 000302'		SKIPE	MONTYP
  7169	020240'	104 00 0 00 000074 		PBOUT			;OUTPUT VIA MONITOR TTCALL
  7170	020241'	254 00 1 00 021116'		JRST	@$PACC4		;GO RESTORE AC0 AND RETURN
  7171
  7172	020242'	331 00 0 00 000004'	$TOUT4:	SKIPL	MONCTL		;SYSTEM EXERCISER
  7173	020243'	254 00 0 00 020233'		JRST	$TOUT5		;NO
  7174	020244'	261 17 0 00 000001 		PUT	1
  7175	020245'	201 01 0 00 000077 		MOVEI	1,"?"		;PRECEDE LINE WITH ?
  7176	020246'	336 00 0 00 000302'		SKIPN	MONTYP
  7177	020247'	051 01 0 00 000001 		OUTCHR	1
  7178	020250'	332 00 0 00 000302'		SKIPE	MONTYP
  7179	020251'	104 00 0 00 000074 		PBOUT
  7180	020252'	262 17 0 00 000001 		GETIT	1
  7181	020253'	254 00 0 00 020233'		JRST	$TOUT5
  7182
  7183					;*USER MODE LOGICAL DEVICE OUTPUT
  7184					S^;*********************************************************************^
  7185
  7186	020254'	336 00 0 00 000051'	$TOUT3:	SKIPN	$DVOFF		;DEVICE BEEN INITED YET ?
  7187	020255'	260 17 0 00 020305'		GO	$INTDV		;NO, GO DO IT
  7188	020256'	260 17 0 00 020262'		GO	$PUTCR		;GO OUTPUT CHAR
  7189	020257'	336 00 0 00 021123'		SKIPN	$PNTTY		;SKIP IF MESSAGE ALSO FORCED TO TTY
  7190	020260'	254 00 1 00 021116'		JRST	@$PACC4
  7191	020261'	254 00 0 00 020230'		JRST	$TOUT6		;OUTPUT
SMFILE	DECSYSTEM 2020 DIAGNOSTICS FE-FILE PROGRAM, VER 0,3	MACRO %53(1020) 10:47 19-Feb-79 Page 196
SMFILE	MAC	19-Feb-79 10:46		*SUBRTN*  CHARACTER OUTPUT ROUTINES                                                SEQ 0233

  7192					;* LOGICAL DEVICE OUTPUT ROUTINES
  7193					S^;*********************************************************************^
  7194
  7195	020262'	336 00 0 00 000302'	$PUTCR:	SKIPN	MONTYP
  7196	020263'	254 00 0 00 020421'		JRST	$PUT10
  7197	020264'	261 17 0 00 000001 		PUT	1
  7198	020265'	261 17 0 00 000002 		PUT	2
  7199	020266'	200 02 0 00 000001 		MOVE	2,1
  7200	020267'	200 01 0 00 021035'		MOVE	1,DEVJFN
  7201	020270'	104 00 0 00 000051 		BOUT
  7202	020271'	320 16 0 00 020275'		ERJMP	$PUTER
  7203	020272'	262 17 0 00 000002 		GETIT	2
  7204	020273'	262 17 0 00 000001 		GETIT	1
  7205	020274'	263 17 0 00 000000 		RTN
  7206
  7207					$PUTER:	TMSG	<
  7208					LOG OUTPUT ERROR - LOGGING STOPPED
  7209					>^
  7210						HRROI .AC1,[ASCIZ \
  7211					LOG OUTPUT ERROR - LOGGING STOPPED
  7212	020275'	561 01 0 00 020617'	\]
  7213	020276'	104 00 0 00 000076 		PSOUT^
  7214	020277'	402 00 0 00 016571'		SETZM	LOGFLG
  7215	020300'	402 00 0 00 000006'		SETZM	CONSW
  7216	020301'	260 17 0 00 020350'		GO	$DRPDV
  7217	020302'	262 17 0 00 000002 		GETIT	2
  7218	020303'	262 17 0 00 000001 		GETIT	1
  7219	020304'	263 17 0 00 000000 		RTN
SMFILE	DECSYSTEM 2020 DIAGNOSTICS FE-FILE PROGRAM, VER 0,3	MACRO %53(1020) 10:47 19-Feb-79 Page 197
SMFILE	MAC	19-Feb-79 10:46		*SUBRTN*  CHARACTER OUTPUT ROUTINES                                                SEQ 0234

  7220					S^;*********************************************************************^
  7221					;*LOGICAL DEVICE INITIALIZATION
  7222					;*PHY DEV ASSIGNED AT RUN TIME
  7223					S^;*********************************************************************^
  7224
  7225	020305'	200 00 0 00 016625'	$INTDV:	MOVE	0,PNTEXT
  7226	020306'	202 00 0 00 000074'		MOVEM	0,$OUTEX
  7227	020307'	200 00 0 00 016624'		MOVE	0,PNTNAM	;SETUP LOGICAL OUTPUT FILE NAME
  7228	020310'	202 00 0 00 000073'		MOVEM	0,$OUTNM
  7229	020311'	202 01 0 00 021117'		MOVEM	1,$PACF1#
  7230	020312'	202 02 0 00 021120'		MOVEM	2,$PACF2#
  7231	020313'	402 00 0 00 021105'		SETZM	$INTD3#
  7232	020314'	336 00 0 00 000302'		SKIPN	MONTYP
  7233	020315'	254 00 0 00 020431'		JRST	$INT10		;TOPS10
  7234	020316'	200 00 0 00 020627'		MOVE	[POINT 7,FILASC,27]
  7235	020317'	200 01 0 00 020630'		MOVE	1,[ASCII/DEV:/]
  7236	020320'	202 01 0 00 020666'		MOVEM	1,FILASC
  7237	020321'	201 01 0 00 000073'	$INT21:	MOVEI	1,$OUTNM
  7238	020322'	260 17 0 00 020372'		GO	SIXASC		;CONVERT SIXBIT TO ASCII
  7239	020323'	515 01 0 00 000001 		HRLZI	1,(GJ%SHT)	;IF FILE EXISTS, APPEND TO IT
  7240	020324'	561 02 0 00 020666'		HRROI	2,FILASC
  7241	020325'	104 00 0 00 000020 		GTJFN
  7242	020326'	320 16 0 00 020337'		 ERJMP	$INT22		;DEVICE NOT AVAILABLE, DEFAULT TO DSK
  7243	020327'	202 01 0 00 021035'		MOVEM	1,DEVJFN#
  7244	020330'	200 02 0 00 020631'		MOVE	2,[7B5!OF%APP]
  7245	020331'	104 00 0 00 000021 		OPENF
  7246	020332'	254 00 0 00 020363'		 JRST	T20ERR
  7247	020333'	476 00 0 00 000051'	$INT12:	SETOM	$DVOFF
  7248	020334'	200 02 0 00 021120'		MOVE	2,$PACF2
  7249	020335'	200 01 0 00 021117'		MOVE	1,$PACF1
  7250	020336'	263 17 0 00 000000 		RTN
  7251
  7252	020337'	332 00 0 00 021105'	$INT22:	SKIPE	$INTD3
  7253	020340'	254 00 0 00 020363'		 JRST	T20ERR
  7254						HRROI	1,[ASCIZ/
  7255					****
  7256					USING 'DSK' PRINT FILE
  7257					****
  7258	020341'	561 01 0 00 020632'	/]
  7259	020342'	104 00 0 00 000076 		PSOUT
  7260	020343'	200 00 0 00 020627'		MOVE	[POINT 7,FILASC,27]
  7261	020344'	200 01 0 00 020642'		MOVE	1,[ASCII/DSK:/]
  7262	020345'	202 01 0 00 020666'		MOVEM	1,FILASC
  7263	020346'	476 00 0 00 021105'		SETOM	$INTD3
  7264	020347'	254 00 0 00 020321'		JRST	$INT21
SMFILE	DECSYSTEM 2020 DIAGNOSTICS FE-FILE PROGRAM, VER 0,3	MACRO %53(1020) 10:47 19-Feb-79 Page 198
SMFILE	MAC	19-Feb-79 10:46		*SUBRTN*  CHARACTER OUTPUT ROUTINES                                                SEQ 0235

  7265					;*USER MODE CLOSE FILE
  7266					S^;*********************************************************************^
  7267
  7268	020350'	336 00 0 00 000051'	$DRPDV:	SKIPN	$DVOFF		;DEVICE INITED?
  7269	020351'	263 17 0 00 000000 		RTN			;NO, DON'T BOTHER
  7270	020352'	336 00 0 00 000302'		SKIPN	MONTYP
  7271	020353'	254 00 0 00 020457'		JRST	$DRP10		;TOPS10
  7272	020354'	261 17 0 00 000001 		PUT	1
  7273	020355'	200 01 0 00 021035'		MOVE	1,DEVJFN
  7274	020356'	104 00 0 00 000022 		CLOSF
  7275	020357'	254 00 0 00 020363'		 JRST	T20ERR
  7276	020360'	262 17 0 00 000001 		GETIT	1
  7277	020361'	402 00 0 00 000051'		SETZM	$DVOFF
  7278	020362'	263 17 0 00 000000 		RTN			;EXIT
  7279
  7280	020363'	201 01 0 00 000101 	T20ERR:	MOVEI	1,.PRIOU
  7281	020364'	525 02 0 00 400000 		HRLOI	2,.FHSLF
  7282	020365'	400 03 0 00 000000 		SETZ	3,
  7283	020366'	104 00 0 00 000011 		ERSTR
  7284	020367'	104 00 0 00 000170 		 HALTF
  7285	020370'	104 00 0 00 000170 		 HALTF
  7286	020371'	104 00 0 00 000170 		HALTF
  7287
  7288	020372'	261 17 0 00 000002 	SIXASC:	PUT	2
  7289	020373'	261 17 0 00 000003 		PUT	3
  7290	020374'	261 17 0 00 000004 		PUT	4
  7291	020375'	200 03 0 00 000000 		MOVE	3,0
  7292	020376'	200 04 0 00 000001 		MOVE	4,1
  7293	020377'	200 01 0 04 000000 		MOVE	1,(4)
  7294	020400'	260 17 0 00 020413'		GO	SIXSTR
  7295	020401'	201 00 0 00 000056 		MOVEI	"."
  7296	020402'	136 00 0 00 000003 		IDPB	0,3
  7297	020403'	510 01 0 04 000001 		HLLZ	1,1(4)
  7298	020404'	332 00 0 00 000001 		SKIPE	1
  7299	020405'	260 17 0 00 020413'		GO	SIXSTR
  7300	020406'	136 01 0 00 000003 		IDPB	1,3
  7301	020407'	262 17 0 00 000004 		GETIT	4
  7302	020410'	262 17 0 00 000003 		GETIT	3
  7303	020411'	262 17 0 00 000002 		GETIT	2
  7304	020412'	263 17 0 00 000000 		RTN
  7305
  7306	020413'	403 00 0 00 000002 	SIXSTR:	SETZB	0,2
  7307	020414'	246 00 0 00 000006 		LSHC	0,6
  7308	020415'	271 00 0 00 000040 		ADDI	0,40
  7309	020416'	136 00 0 00 000003 		IDPB	0,3
  7310	020417'	326 01 0 00 020413'		JUMPN	1,.-4
  7311	020420'	263 17 0 00 000000 		RTN
SMFILE	DECSYSTEM 2020 DIAGNOSTICS FE-FILE PROGRAM, VER 0,3	MACRO %53(1020) 10:47 19-Feb-79 Page 199
SMFILE	MAC	19-Feb-79 10:46		*SUBRTN*  CHARACTER OUTPUT ROUTINES                                                SEQ 0236

  7312					;*TOPS10, LOGICAL DEVICE OUTPUT
  7313
  7314	020421'	332 00 0 00 021103'	$PUT10:	SKIPE	$DVTTY#		;IF DEVICE IS TTY
  7315	020422'	254 00 0 00 020427'		JRST	.+5		;EMPTY BUFFER AFTER EACH CHAR
  7316	020423'	377 00 0 00 000072'		SOSG	$OBUF+2		;INCREMENT BYTE COUNT
  7317	020424'	254 00 0 00 020427'		JRST	.+3
  7318	020425'	136 01 0 00 000071'		IDPB	1,$OBUF+1	;STORE CHAR
  7319	020426'	263 17 0 00 000000 		RTN
  7320	020427'	057 17 0 00 000000 		OUT	$DEVCH,		;EMPTY BUFFER
  7321	020430'	254 00 0 00 020425'		JRST	.-3
  7322
  7323					;*$INT10, TOPS10 INITIALIZE LOGICAL OUTPUT
  7324
  7325	020431'	202 00 0 00 000073'	$INT10:	MOVEM	0,$OUTNM
  7326	020432'	041 17 0 00 000000 		INIT	$DEVCH,0	;ASCII MODE, DEV CHANNEL
  7327	020433'	44 45 66 00 00 00 		SIXBIT	/DEV/		;LOGICAL DEVICE, LPT,DSK,DTAX
  7328	020434'	000070'	000000			XWD	$OBUF,		;OUTPUT ONLY
  7329	020435'	254 00 0 00 020447'		JRST	$INT13		;DEV NOT AVAIL, DEFAULT TO DISK
  7330	020436'	065 17 0 00 000001 	$INT11:	OUTBUF	$DEVCH,1	;SETUP OUTPUT BUFFER
  7331	020437'	077 17 0 00 000073'		ENTER	$DEVCH,$OUTNM	;INIT OUTPUT FILE
  7332	020440'	254 00 0 00 020474'		JRST	$OERR2		;NO DIR ROOM, ERROR
  7333	020441'	476 00 0 00 000051'		SETOM	$DVOFF		;SET DEVICE INITED FLAG
  7334	020442'	201 00 0 00 000017 		MOVEI	0,$DEVCH
  7335	020443'	047 00 0 00 000004 		DEVCHR			;GET DEVICE CHARACTERISTICS
  7336	020444'	603 00 0 00 000010 		TLNE	0,10
  7337	020445'	476 00 0 00 021103'		SETOM	$DVTTY		;DEVICE IS TTY
  7338	020446'	254 00 0 00 020333'		JRST	$INT12		;EXIT
SMFILE	DECSYSTEM 2020 DIAGNOSTICS FE-FILE PROGRAM, VER 0,3	MACRO %53(1020) 10:47 19-Feb-79 Page 200
SMFILE	MAC	19-Feb-79 10:46		*SUBRTN*  CHARACTER OUTPUT ROUTINES                                                SEQ 0237

  7339	020447'	336 00 0 00 021106'	$INT13:	SKIPN	$INTDF		;FIRST DEFAULT INIT ?
  7340						OUTSTR	[ASCIZ/
  7341					****
  7342					USING 'DSK' PRINT FILE
  7343					****
  7344	020450'	051 03 0 00 020632'	/]
  7345	020451'	476 00 0 00 021106'		SETOM	$INTDF
  7346	020452'	041 17 0 00 000000 		INIT	$DEVCH,0
  7347	020453'	44 63 53 00 00 00 		SIXBIT	/DSK/
  7348	020454'	000070'	000000			XWD	$OBUF,
  7349	020455'	254 00 0 00 020472'		JRST	$OERR1
  7350	020456'	254 00 0 00 020436'		JRST	$INT11
  7351
  7352					;*USER MODE CLOSE FILE
  7353
  7354	020457'	070 17 0 00 000000 	$DRP10:	CLOSE	$DEVCH,		;CLOSE FILE
  7355	020460'	063 17 0 00 740000 		STATZ	$DEVCH,740000	;RECHECK FINAL ERROR BITS
  7356						OUTSTR	[ASCIZ/
  7357					%PRINT CLOSE ERROR
  7358	020461'	051 03 0 00 020643'	/]
  7359	020462'	071 17 0 00 000000 		RELEAS	$DEVCH,		;RELINQUISH DEVICE, WRITE DIRECTORY
  7360	020463'	402 00 0 00 000051'		SETZM	$DVOFF
  7361	020464'	263 17 0 00 000000 		RTN			;EXIT
  7362
  7363	020465'				$OUTER:	OUTSTR	[ASCIZ/
  7364					%PRINT OUTPUT ERROR
  7365	020465'	051 03 0 00 020650'	/]
  7366	020466'	332 00 0 00 000303'		SKIPE	$$OUTER
  7367	020467'	256 00 0 00 000303'		XCT	$$OUTER		;EXECUTE USERS ERROR RTN, IF PROV.
  7368	020470'	047 01 0 00 000012 		EXIT	1,		;ERROR, QUIT
  7369	020471'	254 00 0 00 000345'		JRST	START		;RESTART USER SEGMENT
  7370
  7371	020472'				$OERR1:	OUTSTR	[ASCIZ/
  7372	020472'	051 03 0 00 020655'	DSK INIT ERROR/]
  7373	020473'	254 00 0 00 020465'		JRST	$OUTER		;DISK PRINT OUTPUT ERROR
  7374
  7375	020474'				$OERR2:	OUTSTR	[ASCIZ/
  7376	020474'	051 03 0 00 020661'	NO DIR ROOM/]
  7377	020475'	254 00 0 00 020465'		JRST	$OUTER		;DISK PRINT OUTPUT ERROR
SMFILE	DECSYSTEM 2020 DIAGNOSTICS FE-FILE PROGRAM, VER 0,3	MACRO %53(1020) 10:47 19-Feb-79 Page 201
SMFILE	MAC	19-Feb-79 10:46		*STOR* RESERVED STORAGE                                                            SEQ 0238

  7378					SUBTTL	*STOR* RESERVED STORAGE
  7379
  7380					;PROGRAM LITERALS
  7381	020476'					LIT
  7382	020476'	123 115 106 111 114
  7383	020477'	105 000 000 000 000
  7384	020500'	104 105 103 123 131
  7385	020501'	123 124 105 115 055
  7386	020502'	062 060 062 060 000
  7387	020503'	122 101 115 000 000
  7388	020504'	000112	000011
  7389	020505'	260 17 0 00 016672'
  7390	020506'	254 00 0 00 016725'
  7391	020507'	76 51 54 54 45 47
  7392	020510'	41 54 00 65 65 57
  7393	020511'	76 65 65 57 75 75
  7394	020512'	46 54 41 47 63 75
  7395	020513'	00 00 60 43 76 77
  7396	020514'	037 12 0 00 000001
  7397	020515'	254 00 0 00 017025'
  7398	020516'	037 15 0 00 000003
  7399	020517'	254 00 0 00 017025'
  7400	020520'	037 14 0 00 000003
  7401	020521'	254 00 0 00 017025'
  7402	020522'	037 17 0 00 000001
  7403	020523'	254 00 0 00 017025'
  7404	020524'	000001	000001
  7405	020525'	41 60 62 51 44 00
  7406	020526'	000020	000011
  7407	020527'	45 62 62 57 62 00
  7408	020530'	50 41 54 64 00 41
  7409	020531'	64 00 77 00 00 00
  7410	020532'	46 41 64 41 54 00
  7411	020533'	60 62 57 47 62 41
  7412	020534'	55 00 45 62 62 57
  7413	020535'	62 00 41 64 00 77
  7414	020536'	66 45 62 63 51 57
  7415	020537'	56 00 77 00 00 00
  7416	020540'	14 00 64 57 60 63
  7417	020541'	15 21 20 77 00 00
  7418	020542'	14 00 64 57 60 63
  7419	020543'	15 22 20 77 00 00
  7420	020544'	14 00 53 63 21 20
  7421	020545'	77 00 00 00 00 00
  7422	020546'	037 02 0 00 020544'
  7423	020547'	254 00 0 00 017135'
  7424	020550'	14 00 53 54 21 20
  7425	020551'	77 00 00 00 00 00
  7426	020552'	332 00 0 00 000305'
  7427	020553'	254 00 0 00 020546'
  7428	020554'	037 02 0 00 020550'
  7429	020555'	254 00 0 00 017135'
  7430	020556'	14 00 53 41 21 20
  7431	020557'	77 00 00 00 00 00
  7432	020560'	037 02 0 00 020556'
SMFILE	DECSYSTEM 2020 DIAGNOSTICS FE-FILE PROGRAM, VER 0,3	MACRO %53(1020) 10:47 19-Feb-79 Page 201-1
SMFILE	MAC	19-Feb-79 10:46		*STOR* RESERVED STORAGE                                                            SEQ 0239

  7433	020561'	254 00 0 00 017135'
  7434	020562'	14 00 53 51 21 20
  7435	020563'	77 00 00 00 00 00
  7436	020564'	14 00 43 60 65 03
  7437	020565'	35 77 00 00 00 00
  7438	020566'	45 56 44 00 60 41
  7439	020567'	63 63 00 77 00 00
  7440	020570'	44 07 0 00 020671'
  7441	020571'	600000	000204
  7442	020572'	00 71 00 57 62 00
  7443	020573'	56 00 34 43 62 36
  7444	020574'	00 15 00 77 00 00
  7445	020575'	421042	104210
  7446	020576'	44 06 0 00 000001
  7447	020577'	015 012 052 052 052
  7448	020600'	052 052 052 015 012
  7449	020601'	105 130 103 105 105
  7450	020602'	104 105 104 040 101
  7451	020603'	114 114 117 127 105
  7452	020604'	104 040 120 122 111
  7453	020605'	116 124 117 125 124
  7454	020606'	123 015 012 000 000
  7455	020607'	037 12 0 00 000001
  7456	020610'	254 00 0 00 017775'
  7457	020611'	037 01 0 00 000063'
  7458	020612'	254 00 0 00 020001'
  7459	020613'	037 12 0 00 000001
  7460	020614'	254 00 0 00 020026'
  7461	020615'	037 12 0 00 000001
  7462	020616'	254 00 0 00 020042'
  7463	020617'	015 012 114 117 107
  7464	020620'	040 117 125 124 120
  7465	020621'	125 124 040 105 122
  7466	020622'	122 117 122 040 055
  7467	020623'	040 114 117 107 107
  7468	020624'	111 116 107 040 123
  7469	020625'	124 117 120 120 105
  7470	020626'	104 015 012 000 000
  7471	020627'	10 07 0 00 020666'
  7472	020630'	104 105 126 072 000
  7473	020631'	070000	020000
  7474	020632'	015 012 052 052 052
  7475	020633'	052 015 012 125 123
  7476	020634'	111 116 107 040 047
  7477	020635'	104 123 113 047 040
  7478	020636'	120 122 111 116 124
  7479	020637'	040 106 111 114 105
  7480	020640'	015 012 052 052 052
  7481	020641'	052 015 012 000 000
  7482	020642'	104 123 113 072 000
  7483	020643'	015 012 045 120 122
  7484	020644'	111 116 124 040 103
  7485	020645'	114 117 123 105 040
  7486	020646'	105 122 122 117 122
  7487	020647'	015 012 000 000 000
SMFILE	DECSYSTEM 2020 DIAGNOSTICS FE-FILE PROGRAM, VER 0,3	MACRO %53(1020) 10:47 19-Feb-79 Page 201-2
SMFILE	MAC	19-Feb-79 10:46		*STOR* RESERVED STORAGE                                                            SEQ 0240

  7488	020650'	015 012 045 120 122
  7489	020651'	111 116 124 040 117
  7490	020652'	125 124 120 125 124
  7491	020653'	040 105 122 122 117
  7492	020654'	122 015 012 000 000
  7493	020655'	015 012 104 123 113
  7494	020656'	040 111 116 111 124
  7495	020657'	040 105 122 122 117
  7496	020660'	122 000 000 000 000
  7497	020661'	015 012 116 117 040
  7498	020662'	104 111 122 040 122
  7499	020663'	117 117 115 000 000
SMFILE	DECSYSTEM 2020 DIAGNOSTICS FE-FILE PROGRAM, VER 0,3	MACRO %53(1020) 10:47 19-Feb-79 Page 202
SMFILE	MAC	19-Feb-79 10:46		*STOR* RESERVED STORAGE                                                            SEQ 0241

  7500	020665'	000000	000000		ENDSLD:	0
  7501
  7502					;END OF PROGRAM VARIABLES
  7503
  7504	020666'				FILASC:	BLOCK	3
  7505
  7506	020671'				D$ISTR:	BLOCK	^D30		;INPUT STORAGE
  7507
  7508	020727'				PATCH:	BLOCK	100		;DEBUGGING AREA
  7509
  7510					;PROGRAM VARIABLE WORDS
  7511
  7512	021027'					VAR
  7513
  7514	021143'	000000	000000		END:	0
SMFILE	DECSYSTEM 2020 DIAGNOSTICS FE-FILE PROGRAM, VER 0,3	MACRO %53(1020) 10:47 19-Feb-79 Page 203
SMFILE	MAC	19-Feb-79 10:46		STORAGE -- ZEROED ON STARTUP                                                       SEQ 0242

  7515					SUBTTL	STORAGE -- ZEROED ON STARTUP
  7516	021144'				FIRZER:!
  7517
  7518	021144'				LEV1PC:	BLOCK	1		;RETURN PC FOR PSI'S
  7519	021145'				LEV2PC:	BLOCK	1		; ..
  7520	021146'				LEV3PC:	BLOCK	1		; ..
  7521	021147'				LF1PC:	BLOCK	1		;RETURN PC FOR PSI'S
  7522	021150'				LF2PC:	BLOCK	1		; ..
  7523	021151'				LF3PC:	BLOCK	1		; ..
  7524	021152'				EXMADR:	BLOCK	1		;ADDRESS OF LAST EXAMINE COMMAND
  7525	021153'				BITPTR:	BLOCK	1		;BYTE POINTER TO INPUT BIT
  7526	021154'				BITBYT:	BLOCK	1		;INPUT BYTE
  7527	021155'				CMDMSG:	BLOCK	1		;POINTER TO ERROR MESSAGE
  7528	021156'				CZADR:	BLOCK	1		;WHERE TO GO ON CONTROL-Z
  7529	021157'				CZSP:	BLOCK	1		;CONTROL-Z STACK POINTER
  7530	021160'				CTADR:	BLOCK	1		;WHERE TO GO ON CONTROL-T
  7531	021161'				CMFILE:	BLOCK	1		;COMMAND JFN
  7532	021162'				UCFILE:	BLOCK	1		;INPUT JFN
  7533	021163'				DEPFLG:	BLOCK	1		;0=EXAMINE, -1=DEPOSIT
  7534	021164'				LASTCA:	BLOCK	1		;LAST CRAM ADDRESS
  7535	021165'				INTAKE:	BLOCK	1		;-1 DON'T TYPE DATA BECAUSE OF TAKE CMD
  7536	021166'				ULDSTR:	BLOCK	4		;".ULD" LINE STORAGE
  7537	021172'				IBF:	BLOCK	2		;INPUT FILE POINTERS
  7538	021174'				DSKBF:	BLOCK	3
  7539	021177'				GSBF:	BLOCK	3
  7540	021202'				DSKLIN:	BLOCK	^D30
  7541	021240'				DSKNAM:	BLOCK	1
  7542	021241'				DSKEXT:	BLOCK	3
  7543	021244'				$CCLF:	BLOCK	1
  7544	021245'				$CMNTF:	BLOCK	1
  7545	021246'				$LISTF:	BLOCK	1
SMFILE	DECSYSTEM 2020 DIAGNOSTICS FE-FILE PROGRAM, VER 0,3	MACRO %53(1020) 10:47 19-Feb-79 Page 204
SMFILE	MAC	19-Feb-79 10:46		STORAGE -- ZEROED ON STARTUP                                                       SEQ 0243

  7546	021247'				CFCALL:	BLOCK	1
  7547	021250'				CFJ:	BLOCK	1
  7548	021251'				CFNBR:	BLOCK	1
  7549	021252'				CFALU:	BLOCK	1
  7550	021253'				CFSD:	BLOCK	1
  7551	021254'				CFAB:	BLOCK	1
  7552	021255'				CFRBM:	BLOCK	1
  7553	021256'				CFSPEC:	BLOCK	1
  7554	021257'				CFDISP:	BLOCK	1
  7555	021260'				CFSKIP:	BLOCK	1
  7556	021261'				CFT:	BLOCK	1
  7557	021262'				CFC:	BLOCK	1
  7558	021263'				CFSC:	BLOCK	1
  7559	021264'				CFFE:	BLOCK	1
  7560	021265'				CFFM:	BLOCK	1
  7561	021266'				CFMC:	BLOCK	1
  7562	021267'				CFDV:	BLOCK	1
  7563	021270'				CFMP:	BLOCK	1
  7564	021271'				CFCL:	BLOCK	1
  7565	021272'				CFCR:	BLOCK	1
  7566	021273'				CFMARK:	BLOCK	1
  7567	021274'				STBUF:	BLOCK	40		;STRING BUFFER
  7568	021334'				LFPDL:	BLOCK	100
  7569			021433'		ENDZER==.-1
  7570
  7571	021640'					RELOC	<<.+1140>&777000>-140
  7572	021640'				IPAG:	BLOCK	^D512
  7573
  7574		000003	000306'			END	<3,,EV>

NO ERRORS DETECTED

PROGRAM BREAK IS 022640
CPU TIME USED 00:54.339

78P CORE USED

A	    66#	  2040	  2042	  2193	  2195	  2345	  2347	  4781	  4783
AC	    76#                                                                                                            SEQ 0244
AC0	    71#	  6096	  6097	  6098	  6099	  6101	  6104	  6106	  6107	  6116	  6119	  6120	  6130	  6133
	  6136	  6137	  6260	  6265	  6280	  6380	  6572	  6574	  6576	  6803	  6821	  6847	  7106	  7148
AC1	    72#
AC10	    56#	  4180	  4197	  4223	  4228	  4282	  4283	  4284	  4285	  4286	  4287	  4288	  4289	  4290
	  4291	  4292	  4293	  4334	  4335	  4336	  4337	  4338	  4339	  4340	  4341	  4342	  4343	  4344
	  4345	  4346	  4347	  4348	  4349	  4350	  4351	  4353	  4354	  4355	  4359	  4363	  4393	  4886
	  4890	  4893	  4894	  5531
AC11	    57#	   843	  4181	  4218	  4224	  4294	  4295	  4296	  4297	  4298	  4299	  4300	  4301	  4302
	  4325	  4326	  4327	  4329	  4332	  4358	  4360	  4361	  4362	  4374	  4375	  4376	  4377	  4378
	  4379	  4380	  4381	  4382	  4383	  4384	  4385	  4386	  4387	  4388	  4389	  4390	  4391	  5536
AC12	    58#	   843	   845	  4181	  4219	  4303	  4304	  4305	  4306	  4307	  4308	  4309	  4310	  4311
	  4313	  4314	  4315	  4316	  4317	  4318	  4319	  4320	  4321	  4322	  4323	  4324	  4328	  4330
	  4331	  4333	  4352	  4356	  4357	  4365	  4366	  4367	  4368	  4369	  4370	  4371	  4372	  4373
	  4394	  5538	  5539
AC13	    59#	   844	   848
AC2	    73#
AC3	    74#
AC4	    75#
ACBLK0	  2628	  2651#
ACBLK1	  2622	  2650#
ACBLK2	  2616	  2649#
ACBLK3	  2610	  2648#
ACBLK4	  2604	  2647#
ACBLK5	  2598	  2646#
ACBLK6	  2592	  2645#
ACBLK7	  2586	  2644#
ARGBLK	  1359	  1365	  1366	  1372	  1408#	  1434	  1440	  1441	  1447
ARGLN	  1366	  1407#	  1408	  1441
AROV	   258#
AROVU	   322#
ATOM	   791	  5967	  5989#
B	    67#	  3874	  3875	  3880
B2PLSH	  4764#
BADHOM	  3235	  3239#
BC1FLG	  1057#	  1057	  1059	  1113	  1115	  1131	  1133	  2669	  2671	  2684	  2695	  2714	  3257	  3259
	  3262	  3302	  3304	  3312	  3314	  3358	  3360	  4125	  4166	  4168	  4463	  4465	  4489	  4491
	  4532	  4534	  5221	  5223
BC1L	   102#	  1349	  2685	  2717
BC1P	   101#	  2716
BC210	  1843	  2300#
BC210A	  2358#	  2419
BC210C	  2359	  2367#
BC210D	  2369#	  2416
BC210E	  2376#	  2380
BC210F	  2379#
BC210G	  2377	  2382#
BC210H	  2370	  2407	  2414#
BC210I	  2415#
BC210J	  2438#	  2446
BC210K	  2440	  2448#
BC2LP	  1889#	  1895
BCHKL	   114#	  1883	  1887	  1904	  2334
BCHKP	   113#	  2431                                                                                                     SEQ 0245
BCKL	   105#	  1352
BCKP	   104#
BCPREB	   126#	  2448	  2449	  2450	  2452	  2453
BIS	   262#
BITBYT	  7526#
BITPTR	  7525#
BLKSIZ	  3384#	  3493	  3496	  3499	  4762#
BOORG	  1511#	  2459	  4911
BOOTEV	  1568#	  1616	  1664	  1738	  1786	  1860	  1908	  2099	  2112	  2252	  2265	  2410	  2423	  4609
	  4635
BTADDR	  3165#	  3165	  3169	  3179	  3190	  3872	  4066	  4074	  4102
BTHLT0	  2463#	  2541
BTHLT1	  2464#	  2545
BTHLT2	  2465#	  2476
BTHLT3	  2466#
BTJFN	  1566#	  1585	  1607	  1705	  1729	  1827	  1851	  4567	  4600
BTLADR	  3875#	  3875	  3897	  4063	  4065	  4069	  4098
BTLPAG	  3878#	  3878	  4072	  4100
BTSTAR	  2461	  2468#
BTSTR1	  1675	  1676	  2141	  2142	  2458#
BTSTRT	  2461#
BTUBP0	  2477	  2519	  2566	  2659#
BTUBST	  2478	  2568	  2660#
BTVER	  2571	  2657#
BUFFER	  1368	  1386	  1443	  1461	  1565#
BUFSIZ	  1565#
BYTE	    82#
C	    68#	  3529	  3530	  3533	  3877	  3878
CCBLK	   763	  3454#	  5811	  5813	  5817
CCINT	  3454	  5816#
CCLBLK	  3750	  3764	  3766	  3812#
CCLDIR	  3753	  3758	  3761	  3771	  3814#
CF%NUD	  4659
CFAB	  5666	  7551#
CFALU	  5648	  7549#
CFC	  5716	  7557#
CFCALL	  5630	  7546#
CFCL	  5766	  7564#
CFCR	  5777	  7565#
CFDISP	  5697	  7554#
CFDV	  5745	  7562#
CFFE	  5727	  7559#
CFFM	  5733	  7560#
CFJ	  5635	  7547#
CFM	   623#	   831
CFMARK	  5782	  7566#
CFMC	  5739	  7561#
CFMCM1	   833	   838#
CFMCMD	   422	   830#
CFMP	  5754	  7563#
CFNBR	  5643	  7548#
CFRBM	  5677	  7552#
CFSC	  5722	  7558#                                                                                                    SEQ 0246
CFSD	  5659	  7550#
CFSKIP	  5706	  7555#
CFSPEC	  5687	  7553#
CFT	  5711	  7556#
CHKCNT	  3515#
CHNTAB	   662	  5834#
CHR	    77#
CHR1	    78#
CL.DLL	  2116	  2269	  2427	  2871	  3414#	  4057
CLKU	   320#
CM%DPP	  1039
CM%ESC	   590	   591	   595	   597
CM%FNC	   586	   621	   623	   860	   973	  1021	  1024	  1026	  1038	  1039	  1052	  1061	  1062	  1074
	  1075	  1104	  1117	  1118	  1148	  1223	  1251	  1585	  1705	  1827	  2673	  2726	  2741	  2936
	  2940	  3261	  3272	  4459	  4467	  4477	  4567	  4573	  4583	  5176	  5185
CM%HPP	  1039
CM%NOP	   795	   801	   831	   860	   973	  1021	  1024	  1026	  1038	  1039	  1052	  1061	  1062	  1074
	  1075	  1108	  1117	  1118	  1148	  1223	  1251	  1585	  1705	  1827	  2673	  2726	  2741	  2936
	  2940	  3261	  3272	  4459	  4467	  4477	  4567	  4573	  4583	  5176	  5185
CMDBUF	   785	   834	   838	  5963	  5964	  5988#
CMDCNT	  3466#
CMDE10	   698	   729#
CMDERR	   697#	   795	   801	   831	   860	   973	  1021	  1024	  1026	  1038	  1039	  1052	  1061	  1062
	  1074	  1075	  1108	  1117	  1118	  1148	  1223	  1251	  1585	  1705	  1827	  2673	  2726	  2741
	  2936	  2940	  3261	  3272	  4459	  4467	  4477	  4567	  4573	  4583	  5176	  5185
CMDFNC	   586#	   801
CMDMSG	   708	   714	   729	   732	   795	   801	   831	   860	   973	  1021	  1024	  1026	  1038	  1039
	  1052	  1061	  1062	  1074	  1075	  1108	  1117	  1118	  1148	  1223	  1251	  1585	  1705	  1827
	  2673	  2726	  2741	  2936	  2940	  3261	  3272	  4459	  4467	  4477	  4567	  4573	  4583	  5176
	  5185	  7527#
CMFILE	  5185	  5196	  7531#
CMJERR	   795	   801	   809#	   831	   860	   973	  1021	  1024	  1026	  1038	  1039	  1052	  1061	  1062
	  1074	  1075	  1108	  1117	  1118	  1148	  1223	  1251	  1585	  1705	  1827	  2673	  2726	  2741
	  2936	  2940	  3261	  3272	  4459	  4467	  4477	  4567	  4573	  4583	  5176	  5185
CNT	    80#
CO%NRJ	  4655
COMEND	  3529#
CONCIN	   645	  5811#
CONSW	   451#	  6065	  6067#	  6067	  6504	  6512	  6800	  7106	  7157	  7215
COPPAG	  1649	  1771	  1893	  1935#
CPBPNT	  1495#	  1714	  1836
CPOPJ	   466#
CPOPJ1	   464#	  1431	  2926	  2979	  2983	  2987	  2991	  3228	  3254	  3608	  3641	  3689	  3739	  3935
	  3948	  3963	  3975	  3986	  6441
CR%CAP	   983
CRAM	   119#	  1090	  1132	  2694	  3303	  3313	  3359	  4127	  4128	  4129	  4167	  4490	  4533	  5222
CRAMT6	  4170#	  4170	  4217	  5526
CREST1	  3882#	  4120
CREST2	  3906#	  3923
CREST3	  3908	  3917#
CRESTR	  3880	  3883	  4032#
CRLF	   223	   224	   520#
CRLF2	   229	   230	   522#                                                                                            SEQ 0247
CRMBC1	   124#	  1134	  2696	  3305	  3315	  3361	  4131	  4132	  4133	  4169	  4492	  4535	  5224
CRMFLD	  1142	  5625#
CRPOPJ	  5570	  5589#	  5613
CRY0	   259#
CRY1	   260#
CSB	   638	   782	   786	   787	   789	   790	   792	   795	   801	   820	   824	   831	   860	   973
	  1021	  1024	  1026	  1038	  1039	  1052	  1061	  1062	  1074	  1075	  1108	  1117	  1118	  1148
	  1223	  1251	  1585	  1705	  1827	  2673	  2726	  2741	  2936	  2940	  3261	  3272	  3778	  4459
	  4467	  4477	  4567	  4573	  4583	  5176	  5185	  5191	  5202	  5565	  5573	  5960#
CTADR	   784	   798	   802	  4124	  5904	  5907	  7530#
CTLC	  5865	  5874#
CTLO	  5868	  5912#
CTLROK	  3837	  3839	  3842	  3845#
CTLT	  5867	  5904#
CTLX	  5864	  5882#
CTLZ	  5866	  5893#
CTYPF	  3409#
CX	    62#	  5907	  5909
CYCL60	  6217#	  6217
CZADR	  5215	  5524	  5893	  5896	  7528#
CZSP	  5216	  5525	  7529#
D	    69#
D$ISTR	  6462	  7506#
DAT	  3195	  3198	  3207	  3213	  3214	  3375#	  3623	  3638	  3889	  3891	  3900	  3906	  3910
DATBUF	  3447	  3486#
DATDEV	  3401	  3460#	  3822	  3850
DATEND	  3487#
DATLST	  3447#
DBFLGS	  1015#	  1017	  1024
DBOOTL	   111#	  1761	  1765	  1782	  2181
DBP	   110#	  2273
DBUF	  2040	  2041	  2047	  2193	  2194	  2200	  2345	  2346	  2352	  4770#	  4781	  4782	  4788
DCK	   266#
DEBUGF	  1016	  1228	  1238	  1264	  1301	  1331	  3227	  5990#
DECVER	     4#	    10	    15	   581	  2657	  5148	  6003	  6033
DEP	   590	   591	   593	  1051#
DEPCMD	  1046#	  1049	  1052
DEPFLG	  1068	  5559	  7533#
DEVJFN	  7200	  7243#	  7243	  7273
DEVSTR	  1256	  3818#
DIR	  3378#	  4118
DIRBUF	  3445	  3489#
DIRDEV	   954	  2017	  2170	  2323	  2850	  3023	  3402	  3458#	  3821	  3823	  3845
DIRDIR	  2014	  2167	  2320	  2847	  3020	  3819#	  3819
DIRLST	  3445#
DOP%WR	  3224
DPBC1	  1047	  1057#
DPBL	    99#	  1346
DPBP	    98#
DPCRAM	  1048	  1058	  1059#
DPREBP	   122#	  2290	  2291	  2292	  2294	  2295
DPYA	  5296#	  5308
DPYALU	  5258#	  5271                                                                                                     SEQ 0248
DPYB	  5305#	  5318
DPYCAL	  5226#	  5229	  5238
DPYCHL	  5480#	  5492
DPYCHR	  5506#	  5518
DPYCLL	  5462#	  5474
DPYCLR	  5489#	  5500
DPYCRY	  5391#	  5403
DPYDBM	  5332#	  5347
DPYDBU	  5324#	  5335
DPYDES	  5286#	  5299
DPYDIS	  5355#	  5375
DPYDIV	  5435#	  5447
DPYFLD	  1069	  5214#
DPYFMW	  5417#	  5429
DPYGEL	  5471#	  5483
DPYGER	  5497#	  5509
DPYJ	  5235#	  5250
DPYLFE	  5409#	  5420
DPYLSC	  5400#	  5412
DPYLSR	  5268#	  5280
DPYMEM	  5426#	  5438
DPYMK	  5515#
DPYMP	  5444#	  5456	  5465
DPYMS	  5453#
DPYNBR	  5244#	  5261
DPYRAM	  5315#	  5327
DPYRSR	  5277#	  5289
DPYSKI	  5369#	  5385
DPYSPE	  5341#	  5361
DPYT	  5382#	  5394
DSKBF	  7538#
DSKEXT	  7542#
DSKLIN	  7540#
DSKNAM	  7541#
DSKTYP	   939	   959	  1392#	  1392	  1466#	  1466	  3835
DSKUPN	  3402#	  3929	  3969	  3980
E10ALC	  3403#	  3735
E10STS	  3404#	  3733
E20ALC	  3405#
E20STS	  3406#
ECHO	   596	  1037#
ECOFLG	   835	  1042	  3779	  5203	  5994#
EMDFNC	  1104#	  1108
END	  7514#
ENDBLK	  3490#
ENDDPY	  1096	  5214	  5524#	  5622
ENDLIT	  5957#
ENDSLD	  7500#
ENDZER	   635	  7569#
ENTBLK	  3403	  3404	  3496#	  3659	  3660	  3661	  3664	  3667	  3670	  3673	  3676	  3678	  3680	  3683
	  3686	  3687	  3707	  3708	  3709	  3712	  3714	  3718	  3720	  3722	  3724	  3726	  3728	  3731
	  3737	  4010	  4012
EOCF	   816#                                                                                                            SEQ 0249
EOFSW	  1201	  2825	  3031	  3364	  3512	  3536	  3574#	  3574	  4441
ERR%	   739#	   822	   869	   884	   922	  1064	  1081	  1083	  1086	  1123	  1175	  1198	  1269	  1278
	  1286	  1309	  1312	  1321	  1402	  1476	  1489	  1500	  1590	  1592	  1630	  1710	  1712	  1752
	  1832	  1834	  1874	  1941	  1995	  2025	  2033	  2044	  2069	  2078	  2094	  2148	  2178	  2186
	  2197	  2222	  2231	  2247	  2301	  2331	  2339	  2349	  2374	  2383	  2405	  2676	  2678	  2729
	  2746	  2753	  2758	  2779	  2808	  2809	  2813	  2817	  2864	  2869	  2928	  2942	  2948	  2960
	  3005	  3027	  3131	  3157	  3196	  3210	  3237	  3244	  3280	  3323	  3330	  3331	  3336	  3356
	  3531	  3534	  3549	  3585	  3624	  3657	  3705	  3743	  3767	  3772	  3789	  3826	  3831	  3843
	  3848	  3853	  3865	  3869	  3887	  3894	  3898	  3912	  3914	  3945	  3960	  3996	  4002	  4007
	  4013	  4020	  4055	  4080	  4091	  4096	  4111	  4116	  4163	  4256	  4409	  4487	  4506	  4529
	  4545	  4593	  4657	  4673	  4683	  4717	  4750	  4785	  4794	  4814	  4823	  4845	  4906	  5195
	  5199	  5572	  5584	  5794	  5798	  5808	  5942
ERR%10	   740	   751#
ERRPC	   456#
ERRTLS	   457#
ETER10	  2032	  2185	  2338	  2863	  3692#	  4054
EV	   579#	  7574
EXAM	   595	   598	  1107#
EXBC1	  1100	  1113#
EXCMDS	  1099#	  1102	  1105
EXCRAM	  1101	  1114	  1115#
EXCRM	  1125#
EXFORK	   987#	   987	   993
EXIOT	   264#
EXJFN	   982#	   982	   989
EXMADR	  1065	  1067	  1124	  1126	  1129	  5219	  7524#
FADER	  1449	  1483#
FADN	  1439#	  1452	  1456	  1458	  1463
FALIAS	  1421	  1434#
FAMS	  1448#
FB%BSZ	  4660
FB%NXF	  1277
FB%PGC	  1284
FEADR	  1512#
FEDIR	    87#	   873	  1295	  1323	  1324	  1325	  1337	  1340	  1343	  1346	  1349	  1352	  1628	  1638
	  1639	  1643	  1654	  1655	  1657	  1660	  1750	  1760	  1761	  1765	  1776	  1777	  1779	  1782
	  1872	  1882	  1883	  1887	  1898	  1899	  1901	  1904	  2028	  2120	  2181	  2273	  2334	  2431
	  2683	  2685	  2712	  2713	  2716	  2717	  2751	  2785	  2791	  2795	  2799	  2878	  2952	  3043
	  3050	  3062	  3069	  3136	  3149	  3201	  3903	  3904
FEF10	  2749	  2812#
FEFERR	  2766	  2806#
FEFJFN	  2741#	  2741	  2755	  2760	  2768	  2777	  2806
FEFNBR	  2730#	  2730	  2797	  2835	  2837	  2839	  2876	  2943	  2950	  3008	  3010	  3012
FEIBIG	  2920	  2925	  2928#
FEICHR	  2897	  2901	  2905	  2909	  2919#
FEIFMT	  2781	  2832	  2888#
FEILP	  2896#	  2914
FEILP1	  2902	  2906	  2910	  2916#
FEILP2	  2898	  2917#
FEIPNT	  2980	  2984	  2988	  2992	  2996#
FEITYP	  2972	  2978#	  3034
FEJFN	   928	  1251	  1259	  1272	  1288	  1294	  1567#	  1637	  1667	  1759	  1789	  1881	  1911	  2689
	  2707	  2784	  2962	  3155                                                                                     SEQ 0250
FEMAX	  1513#
FERSET	  1315#	  1315	  1354	  1591	  1711	  1833
FESETF	   868	   883	   921	  1314#	  1314	  1320	  1589	  1709	  1831	  2675	  2745	  2947	  3130
FETEL0	  3046#	  3063
FETEL1	  3047	  3061#
FETEL2	  3066	  3072#
FETELL	   856	  3041#
FILASC	  7234	  7236	  7240	  7260	  7262	  7504#
FIND	  1265	  1359#
FINDAX	  1470	  1472	  1474	  1479#
FINDER	  1374	  1412#
FINDN	  1364#	  1377	  1381	  1383	  1388
FINDX	  1396	  1398	  1400	  1405#
FIRZER	   632	   634	  7516#
FMT22	  1534#
FORKN	  1569#	  1605	  1608	  1614	  1620	  1645	  1684	  1727	  1730	  1736	  1742	  1767	  1806	  1849
	  1852	  1858	  1864	  1889	  1928	  1963	  4598	  4601	  4607	  4625	  4649	  4687
FOV	   261#
FOVU	   321#
FP	    61#	  5907	  5909
FRKERR	  5853	  5918#
FSL	    90#	   873	  1337	  1628	  1638	  1654	  1655	  1657	  1750	  1760	  1776	  1777	  1779	  1872
	  1882	  1898	  1899	  1901	  2751	  2785	  2791	  2795	  3069
FSP	    89#
FXU	   265#
GENPAG	   130#	  1965	  1978	  2769	  2775	  2819	  2820	  2821	  2823	  2892	  2919	  4689	  4695
GET10	  1200	  2824	  3030	  3363	  3512#	  3525	  4439	  4892
GET10Z	  3513	  3521#
GETBK1	  3995#
GETBK2	  2119	  2272	  2430	  2874	  4006#	  4062
GETBUF	  3484#	  3891	  4017	  4022	  4023
GJ%FOU	  4473	  4579
GJ%OLD	  1159	  1247	  1581	  1701	  1823	  2737	  3269	  4563	  5182	  5972
GJ%PHY	  1159
GJ%SHT	   977	  1159	  7239
GOARND	  3895	  4004	  4015#
GSBF	  7539#
GTFLD1	  5568	  5582#
GTJDEV	  1190	  1245	  1578	  1698	  1820	  2734	  3024	  3267	  3576	  3617	  3747	  3820	  4032	  4471
	  4519	  4560	  4577	  4740	  5180	  5974#
GTJDIR	  1191	  1242	  1579	  1699	  1821	  2735	  3021	  3268	  3599	  3632	  3760	  3818	  4041	  4472
	  4525	  4561	  4578	  4746	  5181	  5975#
GTJEXT	  1195	  1235	  1576	  1696	  1818	  2733	  3018	  3266	  3351	  3596	  3629	  3755	  4038	  4470
	  4523	  4558	  4576	  4744	  5179	  5977#
GTJFIL	  1193	  1232	  1573	  1693	  1815	  2732	  3015	  3264	  3593	  3626	  3752	  4035	  4468	  4521
	  4555	  4574	  4742	  5177	  5976#
GTJFLG	  1248	  1582	  1702	  1824	  2738	  3270	  4474	  4564	  4580	  5183	  5972#
GTJFNB	  5969	  5971#
H10LST	  3449#	  4093	  4113
HDQ	  3859	  3863#
HEAD10	  3397	  3398	  3494#	  3569	  3570	  3571	  3572
HEDBLK	  3399	  3400	  3497#	  3644	  3645	  3646	  3647	  3692	  3693	  3694	  3695
HELP	   601	  1156#                                                                                                    SEQ 0251
HELP10	  1158	  1189#
HELPEX	  1168	  1174#
HELPLP	  1167#	  1172
HLP10A	  1200#	  1207
HLP10X	  1204#	  1204	  1205
HLPFIL	  1160	  1179	  1184#
HMBK01	  3387#	  3867	  4078
HMBK10	  3391#	  4084
HOLD	  3438#
HOM	  3379#	  3932	  3940	  3947	  3955	  3962	  4086	  4093	  4106	  4113	  4119
HOMB10	  3449	  3464#	  4099	  4101	  4103
HOMBPC	  3441#	  4026
HOMBUF	   906	   910	   914	  1330	  3085	  3440	  3441	  3443	  3462#	  3871	  3874	  3877	  4070	  4073
	  4075
HOMCLP	  3440#	  4024
HOMLST	  3443#	  3947	  3962
HOMPAG	   132#	   890	   894	   898	  1308	  1311	  1328	  3083	  3108	  3166	  3170	  3180	  3230
HOMSET	  3185#
I.DEV	  3479#
I.EXT	  3481#
I.NAM1	  3480#
I.PPN	  3482#
I.STR	  3478#
IBF	  4135	  4406	  4411	  4430	  4433	  4444	  4446	  7537#
IC1TIM	  5789#	  5789	  5803
IDISK	   853	   921#
IDSK10	   925	   953#
IFEF10	   887	   905#
IFEFIL	   854	   883#
IFIXX3	   704
IFL0	   117#	  2799	  2952	  3043	  3050
IFP0	   116#	  2878
IFREE	   855	   866#
IFREE1	   867	   880#
IN10	  3516	  3524#
INCNT	  4141#	  4141	  4143	  4418
INDX	    81#
INFO	   852#	   857	   860
INFORM	   603	   859#
INIT	   621#	   795
INTAKE	   825	  3780	  5204	  7535#
INTCOR	   649	  5789#
INTCR1	  5790	  5806#
INUPTR	  6372	  6452	  6454	  6463#	  6463	  6476	  6503	  6793
IOX4	   813
IPAG	  1972	  1978	  1979	  2091	  2098	  2244	  2251	  2390	  2391	  2392	  2402	  2409	  2783	  2866
	  2888	  2889	  2890	  2893	  2963	  2970	  3201	  3203	  3207	  3903	  3906	  4247	  4422	  4432
	  4533	  4535	  4538	  4542	  4695	  4696	  4700	  4701	  4702	  4704	  4791	  4830	  4831	  4832
	  4842	  4849	  4866	  4867	  4868	  4870	  4871	  4886	  4903	  7572#
ITRCNT	   453#	  6332
JBFFRC	  3555	  3588#	  3588
JOB41	   280#	  6088
JOBAPR	   288#                                                                                                            SEQ 0252
JOBCNI	   289#
JOBDDT	   282#
JOBFF	   286#	  6058
JOBOPC	   291#
JOBREL	   281#
JOBREN	   287#	  6765
JOBSA	   285#	  6057
JOBSYM	   283#
JOBTPC	   290#
JOBUSY	   284#
JOBUUO	   279#	  6097	  6104	  6131	  6147	  6156	  6193	  6200
JOBVER	   292#	  6295	  6298
JSERR0	  1291	  1298	  1418	  1490	  1603	  1611	  1672	  1681	  1686	  1725	  1733	  1794	  1803	  1808
	  1847	  1855	  1916	  1925	  1930	  1968	  1975	  1984	  2772	  2788	  2966	  3152	  3309	  4251
	  4426	  4596	  4604	  4646	  4651	  4692	  4708
JSHLT0	   656	   659	   664	   668	   672	   676	   680	   684	   689	   692	   702	   811	   814	   931
	   980	   985	   991	   996	   999	  1002	  1262	  1276	  1283	  2692	  2710	  3241
K	  4775#
K%INIT	    30#	   647
KAIFLG	   446#	  6220	  6243	  6247	  6311
KLFLG	   447#	  6219	  6225	  6237	  6305
KPALIV	  1523#	  2390	  2391	  2480	  2579	  2639	  4700	  4701	  4830	  4831	  4933	  5057	  5081
KSCRMP	  4183	  4282#
KSSHF3	  4180#
KSSHF4	  4189	  4192#
KSXX	  4192	  4197#	  5545
KSXX1	  4203	  4206#
KSXX2	  4211	  4214#
L	  5957#
L...TY	  2931	  2933#
L.DBFL	  1015	  1017#
L.DEPC	  1046	  1049#
L.EXCM	  1099	  1102#
L.INFO	   852	   857#
L.MAIN	   588	   619#
L.OUTC	  4451	  4456#
L.SETC	  1010	  1013#
L.WRTC	  1210	  1220#
L.YESN	  1032	  1035#
LASTCA	  7534#
LEV1PC	  5826	  5875	  5887	  5898	  7518#
LEV2PC	  5827	  5919	  7519#
LEV3PC	  5828	  7520#
LEVTAB	   662	  5826#
LF1PC	  5830	  7521#
LF2PC	  5831	  7522#
LF3PC	  5832	  7523#
LFLVTB	  5830#
LFPDL	  7568#
LOGEXT	  5997#
LOGFLG	  5992#	  7214
LOGNAM	  5996#
LOOK10	  1997	  2003	  2006	  2009	  2011	  2023	  2150	  2156	  2159	  2162	  2164	  2176	  2303	  2309     SEQ 0253
	  2312	  2315	  2317	  2329	  2815	  3338	  3341	  3344	  3346	  3349	  3405	  3406	  3493#	  3594
	  3597	  3600	  3603	  3605	  3999	  4001	  4719	  4722	  4725	  4727
LOOP1	  3363#	  3367
LOOP2	  3365	  3369#
LP	    79#
LUUO	   272#	  6849
LUUO1	   482	   483
LUUO10	   482	   487
LUUO11	   482	   487
LUUO12	   482	   488
LUUO13	   482	   488
LUUO14	   482	   489
LUUO15	   482	   489
LUUO16	   482	   490
LUUO17	   482	   490
LUUO2	   482	   484
LUUO20	   482	   491
LUUO21	   482	   491
LUUO22	   482	   492
LUUO23	   482	   492
LUUO24	   482	   493
LUUO25	   482	   493
LUUO26	   482	   494
LUUO27	   482	   494
LUUO3	   482	   484
LUUO30	   482	   495
LUUO31	   482	   495
LUUO32	   482	   496
LUUO33	   482	   496
LUUO4	   482	   485
LUUO5	   482	   485
LUUO6	   482	   486
LUUO7	   482	   486
LUUOI	   273#
M	  2053	  2054	  2064	  2065	  2066	  2105	  2206	  2207	  2217	  2218	  2219	  2258	  2358	  2359
	  2369	  2370	  2371	  2416	  4774#	  4798	  4799	  4809	  4810	  4811	  4856
MAINCM	   587	   588#	   619
MBOOTL	   108#	  1639	  1643	  1660	  2028
MBOOTP	   107#	  2120
MC.DAT	  3345	  3347	  3503#	  4515
MC.TIM	  3342	  3502#	  4513
MC.VER	  3339	  3501#	  4511
MCL	    93#	  1340	  2683	  2713
MCNVER	     3#	    10	    15	   581	  2657	  5148	  6003	  6033
MCP	    92#	  2712
MCPE	  1531#	  2527
MONCTL	   449#	  6291	  6381	  6766	  7172
MONFLG	   448#
MONTEN	   450#
MONTYP	   556#	   590	   591	   595	   597	   640	   697	   739	   795	   801	   831	   860	   866	   886
	   924	   973	   974	  1021	  1024	  1026	  1038	  1039	  1052	  1061	  1062	  1074	  1075	  1108
	  1117	  1118	  1148	  1149	  1157	  1223	  1230	  1240	  1251	  1255	  1327	  1329	  1585	  1598
	  1705	  1720	  1827	  1842	  2673	  2680	  2726	  2741	  2748	  2936	  2940	  2954	  3065	  3082     SEQ 0254
	  3084	  3134	  3145	  3250	  3252	  3261	  3272	  3274	  4136	  4243	  4416	  4459	  4467	  4477
	  4481	  4567	  4569	  4573	  4583	  4587	  5176	  5185	  5188	  5563	  6018	  6047	  6052	  6059
	  6061	  6227	  6266	  6300	  6302	  6345	  6383	  6407	  6448	  6478	  6480	  6500	  6502	  6755
	  6780	  7166	  7168	  7176	  7178	  7195	  7232	  7270
MPBL	    96#	  1343
MPBP	    95#
MPREBP	   121#	  2137	  2138	  2139	  2141	  2142
MPVU	   317#
MS	  1373#
MS%MNT	  1380	  1455
MS%OFL	  1382	  1457
MSDRIV	  1525#	  2486	  2536	  2577	  2637	  4929	  5053	  5077
MSDRSV	  2487	  2576	  2636	  2655#
MSKPAL	  2481	  2578	  2638	  2653#
MSRH	  1524#	  2473	  2575	  2635	  4924	  5051	  5075
MSRHSV	  2474	  2574	  2634	  2654#
MSSLAV	  1526#	  2392	  4702	  4832	  4931	  5055	  5079
MSTX18	  1417	  1488
MSTX27	  1376	  1415	  1451	  1486
MT.DAT	  3506#	  4726	  4728	  4736
MT.RF	  1538#	  4966
MT.SAD	  3507#	  4850	  4863
MT.SF	  1539#	  5067
MT.SR	  1540#	  5007
MT.TIM	  3505#	  4723	  4734
MT.VER	  3504#	  4720	  4732
MTAS	  5158#
MTBA	  4961	  5153#
MTBADR	  4953	  5017#
MTBLK0	  5125	  5141#
MTBLK1	  5119	  5140#
MTBLK2	  5113	  5139#
MTBLK3	  5107	  5138#
MTBLK4	  5101	  5137#
MTBLK5	  5095	  5136#
MTBLK6	  5089	  5135#
MTBLK7	  5083	  5134#
MTCC	  5159#
MTCOPP	  4629	  4676#
MTCS1	  4967	  5008	  5029	  5068	  5150	  5151#
MTCS2	  4987	  4990	  5031	  5155#
MTDB	  5160#
MTDRSV	  4930	  4989	  5052	  5076	  5145#
MTDRY	  1543#	  4982
MTDS	  4980	  5033	  5156#
MTDT	  5162#
MTER	  4973	  5035	  5157#
MTFAIL	  4971	  5000	  5020#
MTFC	  4996	  5005	  5154#
MTFCE	  1544#	  4974
MTHLT0	  4914#	  5017
MTHLT1	  4915#	  5020
MTHLT2	  4916#	  4927                                                                                                     SEQ 0255
MTHLT3	  4917#	  5014
MTJFN	  4583#	  4583	  4590	  4621	  4642	  4654	  4658	  4664	  4671
MTKPAL	  4934	  5056	  5080	  5143#
MTMR	  5161#
MTPAG	  4947	  5168#
MTPAGD	  4615	  4616	  4624	  4796	  5171#
MTPAGX	  4617	  4639	  4871	  5172#
MTPGLP	  4625#	  4631
MTPIP	  1542#	  4981
MTPNTR	  4937	  5150#
MTRDY	  4969	  4980#	  4983	  5010	  5070
MTRHSV	  4925	  4936	  5050	  5074	  5144#
MTRTRX	  4975	  5000#
MTSERR	  5014#	  5072
MTSLSV	  4932	  4992	  5054	  5078	  5146#
MTSN	  5163#
MTSRH	  4949	  4986#	  5002	  5065
MTSTAR	  4913	  4919#
MTSTR1	  4638	  4639	  4870	  4871	  4910#
MTSTRT	  4913#
MTTC	  4993	  5164#
MTTM	  1541#	  4970	  5071
MTUBP0	  4942	  4958	  5042	  5165#
MTUBST	  4944	  5044	  5166#
MTVER	  5047	  5148#
MTWC	  4964	  5152#
N	  4773#
NEXT	   650	   694	   784#	   806
NOHELP	  1162	  1165	  1178#
NOPNT	    44#	  6801	  7120
NOTYPE	  5912#	  5912	  7164
NXMU	   318#
O.DATE	  2010	  2012	  2163	  2165	  2316	  2318	  2858	  3474#	  3675	  3677	  3721	  3723	  4047	  4516
	  4737
O.DEV	  2018	  2171	  2324	  2851	  3469#	  3650	  3697	  4033	  4520	  4741
O.EXT	  2001	  2154	  2307	  2845	  3471#	  3666	  3713	  4039	  4524	  4745
O.NAM1	  1998	  2151	  2304	  2842	  3470#	  3663	  3711	  4036	  4522	  4743
O.PPN	  2015	  2168	  2321	  2848	  3473#	  3669	  3715	  4042	  4526	  4747
O.PRT	  2021	  2174	  2327	  2854	  3472#	  3672	  3719	  4045	  4517	  4738
O.STR	  3468#
O.TIME	  2007	  2160	  2313	  2857	  3475#	  3679	  3725	  4048	  4514	  4735
O.VER	  2004	  2157	  2310	  2856	  3476#	  3682	  3727	  4049	  4512	  4733
ODAT10	  3195	  3499#	  3627	  3630	  3633	  3636	  3638	  3885
OF%APP	  7244
OF%NWT	  1163
OF%RD	  1163	  1289	  2756	  3278	  5197
OF%WR	  1289	  4485	  4591
OMT10	  4570	  4716#
OMT10A	  4588	  4732#
OPEN10	  3492#	  3573	  3577	  3582	  3584
OPNBLK	  3495#	  3648	  3653	  3655	  3656	  3696	  3700	  3702	  3704
OPND10	  3498#	  3611	  3612	  3613	  3614	  3615	  3618	  3621	  3623
OPNDAT	  3611#	  3882                                                                                                     SEQ 0256
OPNHOM	  3864	  3928#
OPNTDM	  3566	  3568#	  3568	  3580	  3590
OPNTEN	  1197	  1994	  2147	  2300	  2812	  3026	  3335	  3568#	  4716
OPNWRT	  3644#	  4528	  4749
OPRCDP	  3979#	  3995	  4006
OPTIME	   507#
OPWCDP	  3968#
ORAM10	  4482	  4511#
ORAM11	  4537#	  4547
OUTBC1	  4452	  4463#
OUTCMD	  4451#	  4456	  4459
OUTJFN	  4477#	  4477	  4484	  4504
OUTLP	  4494#	  4502
OUTMT	  4454	  4554#
OUTRAM	  4453	  4455	  4464	  4465#
OUTX	   605	  4458#
P	    64#	   137	   138	   139	   140	   465	   699	   705	   744	   757	   795	   796	   801	   831
	   860	   973	  1021	  1024	  1026	  1038	  1039	  1052	  1061	  1062	  1074	  1075	  1108	  1117
	  1118	  1120	  1148	  1223	  1251	  1585	  1705	  1827	  2673	  2726	  2741	  2936	  2940	  3261
	  3272	  4436	  4447	  4459	  4467	  4477	  4567	  4573	  4583	  4949	  4969	  4984	  4998	  5002
	  5010	  5065	  5070	  5176	  5185	  5216	  5525	  5579	  5586	  5602	  5609	  5895	  5899	  5907
	  5909	  6069	  6101	  6116	  6280	  6338	  6422	  6509	  6552	  6627	  6716
P1	    83#	  1637	  1638	  1639	  1653	  1654	  1659	  1660	  1759	  1760	  1761	  1775	  1776	  1781
	  1782	  1881	  1882	  1883	  1897	  1898	  1903	  1904	  1971	  1988	  2473	  2474	  2475	  2477
	  2478	  2484	  2488	  2491	  2493	  2503	  2505	  2508	  2511	  2522	  2523	  2534	  2537	  2553
	  2555	  2557	  2559	  2561	  2563	  4621	  4622	  4667	  4705	  4712	  4946	  5000
P2	    84#	  1641	  1662	  1665	  1763	  1784	  1787	  1885	  1906	  1909	  1952	  1954	  1957	  1958
	  2050	  2051	  2087	  2089	  2110	  2113	  2203	  2204	  2240	  2242	  2263	  2266	  2355	  2356
	  2398	  2400	  2421	  2424	  4624	  4633	  4636	  4676	  4677	  4796	  4838	  4840	  4861	  4864
P2BLSH	  2067	  2220	  2372	  4763#	  4812
P2WLSH	  2058	  2211	  2363	  4765#	  4803
PA%PEX	  1624	  1648	  1746	  1770	  1868	  1892	  4628
PA%RD	  1624	  1648	  1746	  1770	  1868	  1892	  4628
PAG0FL	  1938#	  1938	  1944	  1948	  4681#	  4681	  4685	  4698
PAGELP	  1645#	  1651
PAGSIZ	  2103	  2256	  2414	  4761#	  4854
PARFLG	  4206	  4214	  5991#
PARSE	   796#	  5960
PARSET	   797	  5949#
PARU	   319#
PASCNT	   452#	  6331	  6334
PATCH	  7508#
PB.CRA	  4207	  4393#	  5542
PB.CRM	  4215	  4394#	  5543
PBCNT	  1642#	  1642	  1656	  1659	  1764	  1778	  1781	  1886	  1900	  1903	  1989
PDISF	   504#	  6741#	  6741	  6822#	  6822	  6825
PDLOVU	   316#
PG.EAT	  4760#
PG.LEB	  4759#
PGINGO	  6075#
PGMNAM	  6002	  6005#
PHYDEV	  3401#
PLIST	   542#	   542	   796	  6069                                                                                     SEQ 0257
PLISTE	   542	   544#
PLISTS	   543#
PM%CNT	  3306
PM%CPY	  2770	  3306
PM%PLD	  1296	  2770	  3306
PM%RD	  1296	  1670	  1792	  1914	  1966	  1973	  2770	  2964	  3306	  4690
PM%WR	  1296	  1670	  1792	  1914	  1973	  2786	  3306	  4644	  4706
PM.ACC	  4757#
PM.WRT	  4758#
PNTENB	   503#	  6748	  6798#	  6798	  7113
PNTEXT	  6035#	  7225
PNTFLG	   502#	  6745#	  6745	  6777	  6796	  6815
PNTINH	   505#	  6743#	  6743
PNTLPT	    45#	  6505	  6513	  7158
PNTNAM	  6034#	  7227
PNTSPC	   506#	   630	  6746#	  6746	  7010	  7024
PRIME	  3439#	  3889	  4015
PROMPT	   583#	  5962
PUSH10	   975	  1006#
PUSHCM	   607	   972#
PUSHPC	   999#	  5920
PUT10	  3541#
PUTBUF	  3542	  3547#
PUTNXT	  3544#	  3548
Q	  4772#
R10EOF	  1202	  2830	  3038	  3370	  3553#	  4244	  4876
RADHOM	  3868	  3939#
RADIX	   525#	  7075
RADLSC	   527#	  7071
RADLSP	   526#	  7090
RC	  3376#	  3524	  3529	  3553	  3554	  3584	  3591	  3605	  3983	  4001	  4012	  4015	  4017
RD%BRK	  6464
RD%TOP	  6464
RDABLK	  2499#	  2528	  2539
RDADON	  2500	  2583#
RDATA	  1529#	  2521
RDBADR	  2516	  2541#
RDBC1	   609	  3257#
RDBYTE	  4146	  4153	  4161	  4175	  4234	  4237	  4401	  4406#	  4412
RDEOL	  4145	  4401#	  4404
RDEX10	  4873	  4901#
RDFAIL	  2531	  2545#
RDFLAG	  1085	  2677	  3325	  3369	  4241	  5993#
RDMT	  4949#	  4978	  5012
RDMTDN	  4955	  5061#
RDRTRY	  2533#
RDUI10	  4417	  4439#
RDUIBF	  4440#	  4440	  4445
RDUINP	  4408	  4416#
RDULD	  3289	  3353	  4123#
RDULDT	  4123	  5935#
RDULIN	  4172#	  4178
RDULT6	  4164#	  4164	  5938                                                                                             SEQ 0258
RDY	  1530#	  2492	  2524
READ	   610	  3258	  3259#
READ.1	  4137	  4145#	  4150	  4194	  4236	  4239
READ.2	  4153#	  4159
READ.3	  4155	  4161#
READ.5	  4148	  4234#
READ10	  3275	  3335#
READF	  3299	  3328#
REDDIR	  2038	  2191	  2343	  4779	  4890#
REDEX2	  4798#	  4859
REDEX3	  4799	  4807#
REDEX4	  4809#	  4856
REDEX5	  4816#	  4820
REDEX6	  4819#
REDEX7	  4817	  4822#
REDEX8	  4810	  4847	  4854#
REDEX9	  4855#
REDEXE	  4752	  4778#
REDHOM	  1305	  3160	  3176	  3225#
REDPAG	  2080	  2233	  2385	  4825	  4886#
REEN	   580	   716	   727	   735	   737	   750	   764	   781#	  3795	  5886	  5889
REEN20	  6019	  6023#
REENTR	  6017#	  6764
RHCLR	  1536#	  2483	  2533	  4986
RIPST	  1528#	  2490
RM03F	  1394#	  1394	  1403	  1468#	  1468	  1477	  3087	  3093	  3095	  3110	  3116	  3118	  3833	  3841
RP.ABC	  3413#	  3732
RP.NFS	  3412#	  3732
RPBA	  1550#	  2511
RPCS1	  1548#	  2491	  2522	  2523	  2553
RPCS2	  1552#	  2484	  2488	  2534	  2537	  2555
RPDA	  1551#	  2503
RPDC	  1558#	  2505
RPDS	  1553#	  2493	  2557
RPER1	  1554#	  2559
RPER2	  1555#	  2561
RPER3	  1556#	  2563
RPFC	  1559#
RPOF	  1557#
RPPAG	  2496	  2662#
RPPAGD	  1594	  1595	  1641	  2050	  2125	  2665#
RPPAGX	  1596	  1676	  2142	  2666#
RPTC	  1560#
RPWC	  1549#	  2508
RSKP	  3236	  5560
RTTY	  5822#
RUNFLG	   454#
S%CMND	    30#	   795	   801	   831	   860	   973	  1021	  1024	  1026	  1038	  1039	  1052	  1061	  1062
	  1074	  1075	  1108	  1117	  1118	  1148	  1223	  1251	  1585	  1705	  1827	  2673	  2726	  2741
	  2936	  2940	  3261	  3272	  4459	  4467	  4477	  4567	  4573	  4583	  5176	  5185
S%ERR	    30#	   736
S%INIT	    30#	   646
S.ALO	  2030	  2183	  2336	  2861	  3734	  4052#	  4052                                                             SEQ 0259
S8080P	  2718	  3080#	  3141	  3192
SBINIT	   147	  6041#
SBOOTP	  1953	  3106#
SC	  1533#
SC%CTC	   657
SC%GTB	   657
SELBLK	  2074	  2227	  2379	  4819	  4882#
SELPAG	  2037#	  2037	  2068	  2071	  2190#	  2190	  2221	  2224	  2342#	  2342	  2373	  2376	  4778#	  4778
	  4813	  4816	  4897
SERIAL	   612	  1073#
SETCLR	  1010#	  1013	  1021
SETDEB	   592	  1020#
SHOMEP	  3163	  3190#
SIXASC	  7238	  7288#
SIXOUT	   843#
SIXSTR	  7294	  7299	  7306#
SM10	   574#	  6218	  6240	  6306
SMPBBL	  1506#	  1506	  1717	  1839
SMPBPG	  1503#	  1503	  1716	  1763	  1838	  1885	  2203	  2278	  2355	  2436
SMPEND	    33#	  1718	  1840
SMPREB	    32#	  1495	  1502	  1797	  1919	  2294	  2452
SNBR	  1075#	  1075	  1078
START	   579	   628#	  1152	  1292	  1299	  1419	  1491	  1612	  1673	  1682	  1687	  1734	  1795	  1804
	  1809	  1856	  1917	  1926	  1931	  1969	  1976	  1985	  2773	  2789	  2967	  3153	  3310	  4252
	  4427	  4605	  4647	  4652	  4693	  4709	  5878	  5931	  6025	  6348	  7369
START1	   641	   651#
STBUF	   927	   934	  1258	  1267	  1385	  1460	  3282	  3283	  3287	  7567#
STPNTR	    60#	  4185	  4186	  4197	  4200
STRCMP	  1387	  1425#	  1430	  1462
STRDES	  1270#	  1270	  3231
STTY	  5823#
SU.SOT	  3408#	  3954	  4105
SUBRTN	  6032#
SUBVER	  6033#
SV.DIR	  2042	  2195	  2347	  4767#	  4783
SV.END	  4768#
T$INT	   648	   766#
T1	    49#	   590	   591	   595	   597	   634	   635	   637	   638	   654	   661	   666	   670	   674
	   678	   682	   686	   700	   711	   714	   718	   721	   781	   782	   785	   786	   787	   788
	   789	   790	   791	   792	   795	   797	   798	   801	   809	   820	   822	   823	   824	   831
	   832	   860	   861	   863	   864	   869	   884	   922	   927	   939	   940	   942	   944	   946
	   959	   960	   962	   964	   973	   977	   982	   987	   988	   989	   993	  1021	  1022	  1024
	  1026	  1038	  1039	  1040	  1052	  1053	  1061	  1062	  1064	  1074	  1075	  1081	  1083	  1086
	  1108	  1109	  1117	  1118	  1123	  1148	  1159	  1169	  1171	  1175	  1198	  1223	  1224	  1227
	  1229	  1231	  1232	  1234	  1235	  1237	  1239	  1241	  1242	  1244	  1245	  1247	  1248	  1251
	  1258	  1267	  1269	  1272	  1278	  1286	  1288	  1294	  1304	  1309	  1312	  1321	  1328	  1330
	  1332	  1334	  1335	  1336	  1337	  1339	  1340	  1342	  1343	  1345	  1346	  1348	  1349	  1351
	  1352	  1365	  1366	  1368	  1369	  1371	  1379	  1380	  1382	  1390	  1391	  1392	  1395	  1397
	  1399	  1401	  1402	  1412	  1426	  1427	  1440	  1441	  1443	  1444	  1446	  1454	  1455	  1457
	  1464	  1465	  1466	  1469	  1471	  1473	  1475	  1476	  1483	  1489	  1500	  1572	  1573	  1575
	  1576	  1581	  1582	  1585	  1590	  1592	  1601	  1605	  1607	  1608	  1614	  1620	  1621	  1628
	  1629	  1630	  1645	  1646	  1664	  1665	  1667	  1668	  1678	  1684	  1692	  1693	  1695	  1696
	  1701	  1702	  1705	  1710	  1712	  1723	  1727	  1729	  1730	  1736	  1742	  1743	  1750	  1751     SEQ 0260
	  1752	  1767	  1768	  1786	  1787	  1789	  1790	  1800	  1806	  1814	  1815	  1817	  1818	  1823
	  1824	  1827	  1832	  1834	  1845	  1849	  1851	  1852	  1858	  1864	  1865	  1872	  1873	  1874
	  1889	  1890	  1908	  1909	  1911	  1912	  1922	  1928	  1935	  1939	  1941	  1946	  1951	  1956
	  1957	  1960	  1961	  1963	  1964	  1971	  1981	  1995	  1997	  1998	  2000	  2001	  2003	  2004
	  2006	  2007	  2009	  2010	  2011	  2012	  2014	  2015	  2017	  2018	  2020	  2021	  2023	  2024
	  2025	  2026	  2027	  2028	  2029	  2030	  2033	  2044	  2069	  2078	  2094	  2112	  2113	  2120
	  2121	  2131	  2148	  2150	  2151	  2153	  2154	  2156	  2157	  2159	  2160	  2162	  2163	  2164
	  2165	  2167	  2168	  2170	  2171	  2173	  2174	  2176	  2177	  2178	  2179	  2180	  2181	  2182
	  2183	  2186	  2197	  2222	  2231	  2247	  2265	  2266	  2273	  2274	  2284	  2301	  2303	  2304
	  2306	  2307	  2309	  2310	  2312	  2313	  2315	  2316	  2317	  2318	  2320	  2321	  2323	  2324
	  2326	  2327	  2329	  2330	  2331	  2332	  2333	  2334	  2335	  2336	  2339	  2349	  2374	  2383
	  2389	  2391	  2392	  2393	  2405	  2423	  2424	  2431	  2432	  2442	  2480	  2481	  2483	  2484
	  2486	  2487	  2488	  2490	  2491	  2533	  2534	  2536	  2537	  2673	  2676	  2678	  2689	  2707
	  2726	  2729	  2737	  2738	  2741	  2746	  2751	  2752	  2753	  2755	  2758	  2760	  2768	  2777
	  2779	  2783	  2791	  2792	  2793	  2794	  2795	  2797	  2798	  2799	  2802	  2806	  2808	  2809
	  2813	  2815	  2816	  2817	  2820	  2821	  2834	  2836	  2838	  2840	  2841	  2842	  2844	  2845
	  2847	  2848	  2850	  2851	  2853	  2854	  2860	  2861	  2864	  2869	  2875	  2889	  2890	  2928
	  2936	  2937	  2940	  2942	  2948	  2950	  2951	  2952	  2957	  2959	  2960	  2962	  3004	  3005
	  3007	  3009	  3011	  3013	  3014	  3015	  3017	  3018	  3020	  3021	  3023	  3024	  3027	  3080
	  3081	  3083	  3085	  3086	  3089	  3091	  3092	  3094	  3096	  3097	  3098	  3102	  3103	  3106
	  3107	  3108	  3109	  3112	  3114	  3115	  3117	  3119	  3120	  3121	  3124	  3125	  3131	  3148
	  3155	  3157	  3159	  3165	  3166	  3169	  3170	  3171	  3175	  3179	  3180	  3181	  3196	  3202
	  3203	  3204	  3205	  3210	  3233	  3236	  3237	  3239	  3244	  3251	  3253	  3261	  3263	  3264
	  3265	  3266	  3269	  3270	  3272	  3277	  3280	  3283	  3291	  3301	  3313	  3315	  3317	  3318
	  3321	  3323	  3328	  3330	  3331	  3336	  3338	  3339	  3341	  3342	  3344	  3345	  3346	  3347
	  3349	  3355	  3356	  3531	  3534	  3549	  3555	  3556	  3572	  3573	  3576	  3577	  3579	  3581
	  3582	  3585	  3587	  3588	  3593	  3594	  3596	  3597	  3599	  3600	  3602	  3603	  3614	  3615
	  3617	  3618	  3620	  3621	  3624	  3626	  3627	  3629	  3630	  3632	  3633	  3635	  3636	  3647
	  3648	  3650	  3651	  3652	  3653	  3654	  3655	  3657	  3660	  3661	  3663	  3664	  3666	  3667
	  3669	  3670	  3672	  3673	  3675	  3676	  3677	  3678	  3679	  3680	  3682	  3683	  3685	  3686
	  3695	  3696	  3697	  3698	  3699	  3700	  3701	  3702	  3705	  3708	  3709	  3711	  3712	  3713
	  3714	  3715	  3716	  3717	  3718	  3719	  3720	  3721	  3722	  3723	  3724	  3725	  3726	  3727
	  3728	  3730	  3731	  3732	  3733	  3734	  3735	  3743	  3747	  3748	  3749	  3750	  3752	  3753
	  3755	  3756	  3757	  3758	  3760	  3761	  3767	  3772	  3777	  3778	  3789	  3823	  3825	  3826
	  3828	  3831	  3834	  3843	  3845	  3847	  3848	  3850	  3852	  3853	  3865	  3869	  3871	  3872
	  3885	  3886	  3887	  3894	  3897	  3898	  3910	  3911	  3912	  3913	  3914	  3917	  3919	  3939
	  3941	  3942	  3944	  3945	  3954	  3956	  3957	  3959	  3960	  3968	  3972	  3979	  3983	  3996
	  3998	  3999	  4002	  4007	  4009	  4010	  4013	  4020	  4022	  4023	  4024	  4025	  4026	  4027
	  4032	  4033	  4035	  4036	  4038	  4039	  4041	  4042	  4044	  4045	  4051	  4052	  4055	  4063
	  4080	  4085	  4087	  4088	  4090	  4091	  4096	  4105	  4107	  4108	  4110	  4111	  4116	  4123
	  4124	  4139	  4147	  4149	  4154	  4156	  4158	  4162	  4163	  4176	  4187	  4199	  4201	  4206
	  4207	  4210	  4214	  4215	  4218	  4220	  4223	  4225	  4235	  4238	  4246	  4254	  4256	  4402
	  4409	  4411	  4412	  4421	  4459	  4460	  4467	  4468	  4469	  4470	  4473	  4474	  4477	  4484
	  4487	  4504	  4506	  4511	  4512	  4513	  4514	  4515	  4516	  4519	  4520	  4521	  4522	  4523
	  4524	  4525	  4526	  4529	  4537	  4538	  4539	  4540	  4545	  4554	  4555	  4557	  4558	  4563
	  4564	  4567	  4573	  4574	  4575	  4576	  4579	  4580	  4583	  4590	  4593	  4594	  4598	  4600
	  4601	  4607	  4625	  4626	  4635	  4636	  4641	  4649	  4654	  4655	  4657	  4658	  4659	  4664
	  4665	  4671	  4673	  4676	  4678	  4679	  4683	  4687	  4688	  4701	  4702	  4704	  4717	  4719
	  4720	  4722	  4723	  4725	  4726	  4727	  4728	  4732	  4733	  4734	  4735	  4736	  4737	  4740
	  4741	  4742	  4743	  4744	  4745	  4746	  4747	  4750	  4785	  4794	  4814	  4823	  4829	  4831
	  4832	  4833	  4845	  4863	  4864	  4906	  4937	  4938	  4940	  4960	  4961	  4963	  4964	  4966
	  4967	  4970	  4973	  4974	  4980	  4981	  4982	  4986	  4987	  4989	  4990	  4992	  4993	  4995
	  4996	  5004	  5005	  5007	  5008	  5067	  5068	  5071	  5176	  5177	  5178	  5179	  5182	  5183     SEQ 0261
	  5185	  5191	  5192	  5195	  5196	  5199	  5200	  5201	  5202	  5214	  5215	  5247	  5248	  5344
	  5345	  5358	  5359	  5372	  5373	  5528	  5530	  5531	  5533	  5535	  5541	  5542	  5543	  5565
	  5572	  5573	  5584	  5641	  5642	  5654	  5655	  5657	  5658	  5664	  5665	  5672	  5673	  5675
	  5676	  5685	  5686	  5695	  5696	  5704	  5705	  5752	  5753	  5761	  5762	  5764	  5765	  5772
	  5773	  5775	  5776	  5792	  5793	  5794	  5798	  5801	  5802	  5808	  5886	  5887	  5895	  5896
	  5897	  5898	  5899	  5907	  5909	  5918	  5919	  5920	  5921	  5923	  5939	  5942	  5949
T16	    63#
T2	    50#	   662	   687	   699	   703	   704	   705	   722	   795	   801	   803	   812	   813	   831
	   860	   928	   973	   978	   983	   994	  1021	  1024	  1026	  1038	  1039	  1052	  1061	  1062
	  1063	  1065	  1074	  1075	  1078	  1079	  1080	  1082	  1092	  1093	  1094	  1108	  1117	  1118
	  1120	  1121	  1122	  1124	  1148	  1160	  1163	  1223	  1251	  1259	  1270	  1273	  1280	  1289
	  1295	  1372	  1376	  1385	  1414	  1415	  1417	  1425	  1447	  1451	  1460	  1485	  1486	  1488
	  1585	  1601	  1609	  1616	  1624	  1648	  1669	  1705	  1723	  1731	  1738	  1746	  1770	  1791
	  1827	  1845	  1853	  1860	  1868	  1892	  1913	  1965	  1972	  2492	  2493	  2673	  2690	  2698
	  2700	  2702	  2708	  2726	  2727	  2728	  2730	  2741	  2756	  2761	  2769	  2784	  2785	  2792
	  2801	  2802	  2880	  2881	  2896	  2899	  2903	  2907	  2911	  2913	  2916	  2936	  2940	  2941
	  2943	  2963	  3092	  3098	  3099	  3101	  3102	  3115	  3121	  3122	  3124	  3149	  3200	  3211
	  3224	  3225	  3242	  3243	  3261	  3272	  3278	  3284	  3292	  3303	  3305	  3316	  3319	  3797
	  3818	  3819	  3820	  3821	  3822	  3828	  3829	  3830	  3834	  3835	  3836	  3838	  3840	  3918
	  3919	  3940	  3941	  3955	  3956	  3969	  3980	  4086	  4087	  4106	  4107	  4140	  4188	  4200
	  4202	  4204	  4212	  4219	  4221	  4224	  4226	  4228	  4229	  4230	  4247	  4422	  4459	  4467
	  4477	  4485	  4494	  4496	  4498	  4531	  4547	  4567	  4573	  4583	  4591	  4594	  4602	  4609
	  4628	  4642	  4643	  4660	  4666	  4689	  4705	  5176	  5185	  5197	  5227	  5230	  5231	  5232
	  5236	  5239	  5240	  5241	  5245	  5246	  5248	  5251	  5252	  5253	  5254	  5255	  5259	  5262
	  5263	  5264	  5269	  5272	  5273	  5274	  5278	  5281	  5282	  5283	  5287	  5290	  5291	  5292
	  5297	  5300	  5301	  5302	  5306	  5309	  5310	  5311	  5316	  5319	  5320	  5321	  5325	  5328
	  5329	  5330	  5333	  5336	  5337	  5338	  5342	  5343	  5345	  5348	  5349	  5350	  5351	  5352
	  5356	  5357	  5359	  5362	  5363	  5364	  5365	  5366	  5370	  5371	  5373	  5376	  5377	  5378
	  5379	  5380	  5383	  5386	  5387	  5388	  5392	  5395	  5396	  5397	  5401	  5404	  5405	  5406
	  5410	  5413	  5414	  5415	  5418	  5421	  5422	  5423	  5427	  5430	  5431	  5432	  5436	  5439
	  5440	  5441	  5445	  5448	  5449	  5450	  5454	  5457	  5458	  5459	  5463	  5466	  5467	  5468
	  5472	  5475	  5476	  5477	  5481	  5484	  5485	  5486	  5490	  5493	  5494	  5495	  5498	  5501
	  5502	  5503	  5507	  5510	  5511	  5512	  5516	  5519	  5520	  5521	  5529	  5534	  5536	  5557
	  5561	  5567	  5569	  5583	  5585	  5596	  5608	  5907	  5909	  5938
T20ERR	  6468	  7246	  7253	  7275	  7280#
T3	    51#	   657	   723	   929	  1204	  1260	  1274	  1277	  1281	  1284	  1285	  1296	  1386	  1426
	  1461	  1618	  1625	  1629	  1670	  1679	  1740	  1747	  1751	  1792	  1801	  1862	  1869	  1873
	  1914	  1923	  1936	  1939	  1940	  1943	  1945	  1961	  1964	  1966	  1973	  1978	  1979	  1982
	  1987	  2496	  2499	  2502	  2513	  2514	  2530	  2542	  2546	  2548	  2551	  2583	  2683	  2685
	  2686	  2687	  2762	  2770	  2786	  2827	  2899	  2903	  2907	  2911	  2922	  2923	  2964	  2971
	  2978	  2982	  2986	  2990	  3150	  3201	  3202	  3205	  3230	  3285	  3293	  3306	  3366	  3518
	  3521	  3537	  3544	  3867	  3904	  3918	  3922	  3942	  3957	  3970	  3981	  4078	  4084	  4088
	  4108	  4141	  4189	  4201	  4248	  4423	  4440	  4533	  4535	  4537	  4540	  4644	  4661	  4667
	  4668	  4679	  4682	  4684	  4688	  4690	  4695	  4696	  4706	  4711	  4893	  4947	  4951	  4977
	  5021	  5024	  5027	  5061	  5062	  5574	  5907	  5909	  5940
T4	    52#	   803	   804	  1619	  1621	  1626	  1636	  1646	  1651	  1741	  1743	  1748	  1758	  1768
	  1773	  1863	  1865	  1870	  1880	  1890	  1895	  2066	  2067	  2068	  2071	  2219	  2220	  2221
	  2224	  2371	  2372	  2373	  2376	  2499	  2500	  2503	  2504	  2505	  2507	  2508	  2510	  2511
	  2513	  2515	  2518	  2519	  2521	  2522	  2523	  2524	  2527	  2762	  2764	  2765	  2894	  2925
	  3136	  3138	  3139	  3142	  3231	  3293	  3297	  3298	  3903	  3917	  3921	  4172	  4176	  4202
	  4619	  4626	  4631	  4811	  4812	  4813	  4816	  4951	  4952	  4955	  4957	  4958	  5907	  5909
T5	    53#	  1024	  1027	  2057	  2058	  2059	  2060	  2077	  2082	  2084	  2085	  2086	  2087	  2088
	  2096	  2101	  2103	  2121	  2131	  2133	  2210	  2211	  2212	  2213	  2230	  2235	  2237	  2238     SEQ 0262
	  2239	  2240	  2241	  2249	  2254	  2256	  2274	  2284	  2286	  2362	  2363	  2364	  2365	  2382
	  2387	  2395	  2396	  2397	  2398	  2399	  2407	  2412	  2414	  2432	  2442	  2444	  2497	  2531
	  2697	  2705	  2893	  2913	  2914	  2916	  3133	  3135	  3143	  3902	  3923	  3928	  3932	  4173
	  4178	  4203	  4211	  4493	  4502	  4802	  4803	  4804	  4805	  4822	  4827	  4835	  4836	  4837
	  4838	  4839	  4847	  4852	  4854	  5907	  5909
T6	    54#	  1022	  1027	  1067	  1088	  1089	  1090	  1092	  1094	  1129	  1130	  1132	  1134	  1135
	  1137	  1139	  1166	  1169	  1171	  1359	  1360	  1361	  1362	  1364	  1369	  1379	  1390	  1420
	  1434	  1435	  1436	  1437	  1439	  1444	  1454	  1464	  1952	  2041	  2043	  2046	  2047	  2048
	  2053	  2057	  2062	  2107	  2108	  2125	  2127	  2134	  2194	  2196	  2199	  2200	  2201	  2206
	  2210	  2215	  2260	  2261	  2278	  2280	  2287	  2346	  2348	  2351	  2352	  2353	  2358	  2362
	  2367	  2418	  2419	  2436	  2438	  2445	  2694	  2696	  2698	  2700	  2702	  2704	  2712	  2716
	  2876	  2877	  2878	  2881	  2892	  2919	  2922	  2970	  2971	  2973	  3043	  3046	  3049	  3061
	  3062	  3103	  3125	  3138	  3190	  3929	  4066	  4151	  4157	  4158	  4164	  4165	  4167	  4169
	  4170	  4186	  4187	  4200	  4201	  4217	  4221	  4226	  4230	  4490	  4492	  4494	  4496	  4498
	  4501	  4782	  4784	  4787	  4788	  4789	  4798	  4802	  4807	  4858	  4859	  5219	  5220	  5222
	  5224	  5227	  5230	  5236	  5239	  5245	  5247	  5251	  5253	  5259	  5262	  5269	  5272	  5278
	  5281	  5287	  5290	  5297	  5300	  5306	  5309	  5316	  5319	  5325	  5328	  5333	  5336	  5342
	  5344	  5348	  5350	  5356	  5358	  5362	  5364	  5370	  5372	  5376	  5378	  5383	  5386	  5392
	  5395	  5401	  5404	  5410	  5413	  5418	  5421	  5427	  5430	  5436	  5439	  5445	  5448	  5454
	  5457	  5463	  5466	  5472	  5475	  5481	  5484	  5490	  5493	  5498	  5501	  5507	  5510	  5516
	  5519	  5526	  5528	  5529	  5533	  5534	  5538	  5629	  5634	  5639	  5641	  5647	  5652	  5654
	  5657	  5662	  5664	  5670	  5672	  5675	  5683	  5685	  5693	  5695	  5702	  5704	  5710	  5715
	  5721	  5726	  5732	  5738	  5744	  5750	  5752	  5759	  5761	  5764	  5770	  5772	  5775	  5781
	  5907	  5909
T7	    55#	  1643	  1765	  1887	  1990	  2062	  2104	  2215	  2257	  2367	  2415	  2713	  2717	  2823
	  2827	  2828	  2875	  3044	  3054	  3055	  3080	  3106	  3139	  3140	  3191	  3359	  3361	  3366
	  3367	  3930	  4065	  4183	  4187	  4188	  4807	  4855
T8080P	  2883	  3086#	  4067
TABLE0	  6120	  6123#
TAKE	   614	  5175#
TBOOTP	  2132	  2285	  2443	  3109#
TESTPC	   455#
TF10LP	  3030#	  3035
TO10IC	  3397#	  3515
TO10IP	  3398#	  3518
TO10OC	  3399#	  3541
TO10OP	  3400#	  3544
TRE	  1532#	  2527
TRM03P	  3088	  3111	  3250#
TT%DAM	  6760
TT%OSP	  6789
TTNBRF	   550#	  5594	  6586	  6606
TTYFIL	  6749#	  6749
TYPEFI	  2932	  2939#
TYPF10	  2955	  3004#
UBAP0	  1520#	  4941
UBSTAT	  1521#	  4943
UBVBIT	  1563#	  2518	  4957
UCFILE	  3272	  3277	  3284	  3291	  3301	  3321	  3328	  4139	  4254	  4421	  4435	  7532#
ULDSTR	  4172	  4185	  7536#
UNV36X	  1562#	  2518
UPDFL1	  5564	  5592#	  5601	  5619
UPDFL2	  5595	  5605#                                                                                                    SEQ 0263
UPDFL3	  5593	  5612#
UPDFL4	  5607	  5617#
UPDFL5	  5615	  5621#
UPDFLD	  5228	  5237	  5249	  5260	  5270	  5279	  5288	  5298	  5307	  5317	  5326	  5334	  5346	  5360
	  5374	  5384	  5393	  5402	  5411	  5419	  5428	  5437	  5446	  5455	  5464	  5473	  5482	  5491
	  5499	  5508	  5517	  5557#
UPFLD2	  5573#	  5578
USER	   445#	  6043
USERF	   263#	  6045
USRCRF	   518#	  7127#	  7127	  7135
USRHDQ	  3859#
USRHPQ	  3855#
USRLFF	   517#	  7125#	  7125	  7140
UUODIS	   483#	  6110
UUOEXT	   467#
UUOSKP	   465#
VALUE	  5561#	  5561	  5585	  5608
W10EOF	  3560#	  4549	  4875
W2PLSH	  2086	  2239	  2397	  4766#	  4837
WB10	  1599	  1994#
WB10A	  2053#	  2108
WB10C	  2054	  2062#
WB10D	  2064#	  2105
WB10E	  2071#	  2075
WB10F	  2074#
WB10G	  2072	  2077#
WB10H	  2065	  2096	  2103#
WB10I	  2104#
WB10J	  2127#	  2135
WB10K	  2129	  2137#
WB10X	  2082	  2098#
WC	  2091	  2116	  2117	  2244	  2269	  2270	  2402	  2427	  2428	  2866	  2871	  2872	  3377#	  3547
	  3560	  3561	  3656	  3687	  3704	  3737	  3972	  4057	  4058	  4542	  4791	  4842	  4901	  4903
WDB10	  1721	  2147#
WDB10A	  2206#	  2261
WDB10C	  2207	  2215#
WDB10D	  2217#	  2258
WDB10E	  2224#	  2228
WDB10F	  2227#
WDB10G	  2225	  2230#
WDB10H	  2218	  2249	  2256#
WDB10I	  2257#
WDB10J	  2280#	  2288
WDB10K	  2282	  2290#
WDB10X	  2235	  2251#
WHELX1	  3243
WHOM10	  3954#	  4079
WINDOW	   128#	  1632	  1633	  1634	  1669	  1675	  1676	  1754	  1755	  1756	  1791	  1797	  1798	  1876
	  1877	  1878	  1913	  1919	  1920	  4611	  4612	  4613	  4638	  4639	  4641	  4770	  4890
WRITE	   617	  1222#
WRTBC1	  1211	  2669#
WRTBC2	  1212	  1814#
WRTBOO	  1213	  1572#                                                                                                    SEQ 0264
WRTC10	  2681	  2712#
WRTCMD	  1210#	  1220	  1223
WRTCRM	  1214	  2670	  2671#
WRTD10	  3146	  3195#
WRTD11	  3202#	  3211
WRTDB	  1215	  1692#
WRTDBL	  1767#	  1773
WRTDON	  1216	  3129#
WRTFEF	  1217	  2725#
WRTHOM	  3172	  3182	  3224#
WRTRSE	  1218	  1319#
WRTSET	  1219	  1227#
WRTSEX	  1302	  1314#	  3915	  3925
WTLOOP	  2698#	  2705
WTPTR	  2687#	  2687	  2690
XOFFLA	  6744#	  6744
YESNO	  1032#	  1035	  1039
ZZ..	  4282#	  4282	  4283	  4283#	  4284	  4284#	  4285	  4285#	  4286	  4286#	  4287	  4287#	  4288	  4288#
	  4289	  4289#	  4290	  4290#	  4291	  4291#	  4292	  4292#	  4293	  4293#	  4294	  4294#	  4295	  4295#
	  4296	  4296#	  4297	  4297#	  4298	  4298#	  4299	  4299#	  4300	  4300#	  4301	  4301#	  4302	  4302#
	  4303	  4303#	  4304	  4304#	  4305	  4305#	  4306	  4306#	  4308#	  4308	  4309	  4309#	  4310	  4310#
	  4311	  4311#	  4312	  4312#	  4315#	  4315	  4316	  4316#	  4317	  4317#	  4318	  4318#	  4319	  4319#
	  4320	  4320#	  4321	  4321#	  4322	  4322#	  4323#	  4323	  4324	  4324#	  4325	  4325#	  4326	  4326#
	  4327	  4327#	  4328	  4328#	  4334#	  4334	  4335	  4335#	  4336	  4336#	  4337	  4337#	  4338	  4338#
	  4339	  4339#	  4340	  4340#	  4341	  4341#	  4342	  4342#	  4343	  4343#	  4344	  4344#	  4345	  4345#
	  4346	  4346#	  4347	  4347#	  4348	  4348#	  4349	  4349#	  4350	  4350#	  4351	  4351#	  4352	  4352#
	  4353#	  4353	  4354	  4354#	  4355	  4355#	  4356#	  4356	  4357	  4357#	  4358	  4358#	  4360#	  4360
	  4361	  4361#	  4362	  4362#	  4374#	  4374	  4375	  4375#	  4376	  4376#	  4377	  4377#	  4378	  4378#
	  4379	  4379#	  4380	  4380#	  4381	  4381#	  4382	  4382#	  4383	  4383#	  4384	  4384#	  4385	  4385#
	  4386	  4386#	  4387	  4387#	  4388	  4388#	  4389	  4389#	  4390	  4390#	  4391	  4391#	  4392	  4392#
$$$TT0	   767	  6450#
$$$TT1	   769	  6501#
$$OUTE	   562#	  7366	  7367
$$PAC0	  6042	  6080#	  6080
$$SNX	  6236#	  6236	  6316	  6319
$$TOGG	   568#
$$TT0	   766	   772#
$$TT1	   768	   778#
$ACC0	   474#
$ASCP1	  7045#	  7056
$ASCP2	  7048#	  7052
$ASCPN	  6836	  6855	  7044#
$CARCT	  6499	  7107#	  7107	  7114	  7117	  7161
$CCL	  3742#	  5189
$CCLF	  3742	  3745	  7543#
$CCLI1	  3783	  3786	  3797#
$CCLIN	    29	  3782#
$CHN	  3380#	  3766	  3769	  3771	  3785	  3788
$CHRIN	   511#	  5597	  5605	  6496#	  6496	  6508	  6515
$CHRPN	  6863	  7033#
$CMNTF	  7544#
$CNVD	  6585#	  6585	  6656	  6665
$CNVX	  6597	  6654#                                                                                                    SEQ 0265
$CNVX1	  6618	  6663#
$CNVX2	  6666	  6675#
$CPINI	  6227#	  6249
$CPKAI	  6224	  6243#
$CPKL	  6221#
$CPUTP	  6075	  6217#
$CRLF	   513#	  6750#	  6750
$DCCMP	  7075#
$DCSPS	  7089#
$DECP1	  7081#	  7087	  7089
$DECPN	  6857	  7064#
$DECSP	  6859	  7062#
$DEVCH	   330#	  7320	  7326	  7330	  7331	  7334	  7346	  7354	  7355	  7359
$DPYNO	  5208	  5210#
$DRP10	  7271	  7354#
$DRPDV	  6168	  7216	  7268#
$DVOFF	   509#	   839	  6740#	  6740	  7186	  7247	  7268	  7277	  7333	  7360
$DVTTY	  7314#	  7314	  7337
$EG177	  6152	  6200#
$EG4	  6154	  6193#
$EGX	  6196	  6198	  6203	  6206	  6209	  6211#
$END	  6189	  6331#
$END2	  6333#
$END3	  6338#
$EOP	  6191	  6284	  6345#
$ERH0	  6258	  6260#	  6260	  6269	  6271
$ERHL4	  6265#
$ERHLT	  6190	  6256#
$FATAL	  6190	  6278#
$FFF	   515#	  6752
$HEAR	  6420	  6448#	  6473
$HEAR2	  6506	  6508#	  6514	  6517
$HEAR3	  6498	  6512#
$HEAR4	  6387	  6400	  6415	  6451	  6457	  6490#
$IBF	  3763	  3782	  3797	  3813#
$INT10	  7233	  7325#
$INT11	  7330#	  7350
$INT12	  7247#	  7338
$INT13	  7329	  7339#
$INT21	  7237#	  7264
$INT22	  7242	  7252#
$INTD3	  7231#	  7231	  7252	  7263
$INTDF	  6739#	  6739	  7339	  7345
$INTDV	  7187	  7225#
$LDSPS	  7078	  7086#
$LISTF	  7545#
$NEGF	  6584#	  6584	  6624	  6651
$NEGX	  6595	  6649#
$NOYES	  6176	  6527#
$OBUF	   533#	  7316	  7318	  7328	  7348
$OERR1	  7349	  7371#
$OERR2	  7332	  7375#
$ONETM	   458#	  6079	  6768                                                                                             SEQ 0266
$OPTLK	  6175	  6419#	  6536	  6544	  6592	  6696
$OUTER	  7363#	  7373	  7377
$OUTEX	   535#	  7226
$OUTNM	   534#	  7228	  7237	  7325	  7331
$PACA1	  6810	  6826	  6842#	  6842
$PACA2	  6811	  6827	  6843#	  6843
$PACA3	  6812	  6828	  6844#	  6844
$PACA4	  6813	  6829	  6845#	  6845
$PACA5	  6814	  6830	  6846#	  6846
$PACB0	  7099#	  7099	  7148
$PACC4	  7154#	  7154	  7156	  7165	  7170	  7190
$PACF1	  7229#	  7229	  7249
$PACF2	  7230#	  7230	  7248
$PGMIN	  6042#
$PGMN1	  6057#
$PNAME	  6002#	  6293
$PNM2	  6292	  6317	  6322#
$PNM3	  6308	  6310	  6313	  6316#
$PNT	  6848#	  6848	  7014#	  7014	  7018	  7023	  7042#	  7042	  7054	  7062	  7086
$PNTB1	  6825#
$PNTI1	  6865	  7001#	  7025
$PNTI2	  7005#	  7008	  7019
$PNTI3	  6861	  7021#
$PNTI4	  6808#	  7015	  7026	  7036	  7050	  7055	  7069
$PNTIA	  6784	  6794	  6802	  6842#
$PNTIB	  6799	  6821#
$PNTIC	  6853#
$PNTIF	  6150	  6777#
$PNTIN	  6077	  6739#
$PNTIT	  6148	  6796#
$PNTIX	  6756	  6764#
$PNTLN	  6854	  7042#
$PNTNM	  6168	  6291#	  6770
$PNTSV	  7009#	  7009	  7016
$PNTSX	  6166	  6875#
$PNTTY	  6778#	  6778	  6797	  6808	  6831	  7118	  7189
$PNTYC	  7100#	  7100
$POCS	  6182	  6957#
$POCS1	  6965	  6972#
$POCS2	  6977#	  6986
$POCS3	  6974	  6981#	  6995
$POCS4	  6986#	  6994
$POCS5	  6979	  6994#
$POCSF	  6182	  6953#
$POINT	  7044#	  7044	  7046	  7053
$PRNTX	  6804	  6815#	  6823
$PSIX	  6181	  6909#
$PSIX1	  6918#	  6934
$PSIX2	  6921#	  6933
$PSIX3	  6933#	  6939
$PSIX4	  6926	  6936#
$PSIX5	  6924	  6941#
$PSIXF	  6181	  6905#                                                                                                    SEQ 0267
$PTINH	  6742#	  6742	  6779	  7109	  7112
$PTSXF	  6166	  6888#
$PUT10	  7196	  7314#
$PUTCR	  7188	  7195#
$PUTER	  7202	  7207#
$PVER	  6003#
$RADIX	  7068	  7071#	  7079
$SJBFF	  3775#	  3775
$SUBUO	  6100	  6119#
$SVCSW	  6066#	  6066
$SVUPC	   477#	  6103
$SVUUO	   476#	  6105	  6106
$SWFLG	  6068#	  6068
$TABF	   514#	  6751
$TACB4	  6419#	  6419	  6425
$TACC1	  6530#	  6530	  6555
$TACC2	  6531#	  6531	  6553
$TACD1	  6578#	  6578	  6626	  6633
$TACD2	  6579#	  6579	  6622	  6632
$TACD3	  6580#	  6580	  6621	  6631
$TALT1	  6437	  6441#
$TALT2	  6435#
$TALTM	  6178	  6432#
$TISIX	  6179	  6691#
$TOUB1	  7111	  7116#
$TOUB2	  7119	  7123#
$TOUB3	  7125#
$TOUT	  7007	  7013	  7035	  7051	  7066	  7083	  7091	  7099#
$TOUT2	  7123	  7143	  7154#
$TOUT3	  7159	  7186#
$TOUT4	  7163	  7172#
$TOUT5	  7164#	  7173	  7181
$TOUT6	  7161#	  7191
$TOUTA	  7129	  7134	  7139	  7141	  7148#
$TOUTB	  7106#
$TPCK	  6603	  6640#
$TPCLR	  6180	  6475#	  6559
$TPCNV	  6177	  6572#
$TPCV1	  6573	  6575	  6578#
$TPDEC	  6177	  6574#
$TPERR	  6593	  6604	  6616	  6630#	  6650	  6655	  6668
$TPEX1	  6621#	  6673	  6682
$TPEXT	  6599	  6601	  6615#
$TPMUL	  6608	  6643#
$TPNBR	  6615	  6646#
$TPOCT	  6176	  6576#
$TSX1	  6691#	  6691	  6719
$TSX2	  6692#	  6692	  6720
$TSXB1	  6696#	  6714
$TSXB2	  6699	  6701	  6716#
$TSXB3	  6697	  6704	  6708	  6712	  6718#
$TSXB4	  6707	  6710#
$TTCHR	   510#	   772	   773	  6385	  6397	  6413	  6450	  6456	  6490                                             SEQ 0268
$TTLK	  6178	  6380#	  6432
$TTYIN	  6179	  6407#
$TWCNT	   508#	  6424
$TYPIN	  6078	  6372#
$TYPL1	  6606#
$TYPLP	  6592#	  6611	  6652	  6657
$TYPNB	   512#	  6583#	  6583	  6630
$UOERX	  6089	  6131#	  6167	  6169	  6170	  6171	  6172	  6173	  6180	  6184	  6185	  6186	  6187	  6188
	  6189	  6191
$UORTN	  6087	  6096#
$UOTAB	  6162	  6165#
$UPLER	  6091#	  6091
$USRF1	  7136	  7141#	  7144
$USRFC	  7128	  7133#
$USRFL	  7126	  7138#
$USRUO	  6101#
$UUO37	  6123	  6147#
$UUOER	   468#	   483	  6090
$UUOIN	  6076	  6087#
$VTF	   516#	  6753
$XUUO	  6111#	  6163
$YESNO	  6175	  6529#
$YN1	  6534#	  6560
$YN2	  6537	  6545	  6553#
$YN3	  6541	  6551	  6558#
$YN4	  6547	  6549	  6562#
..0001	   794#	   795
..0002	   800#	   801
..0003	   830#	   831
..0004	   859#	   860
..0005	   972#	   973
..0006	  1020#	  1021
..0007	  1023#	  1024
..0010	  1025#	  1026
..0011	  1037#	  1038
..0012	  1038#	  1039
..0013	  1051#	  1052
..0014	  1060#	  1061
..0015	  1061#	  1062
..0016	  1073#	  1074
..0017	  1074#	  1075
..0020	  1107#	  1108
..0021	  1116#	  1117
..0022	  1117#	  1118
..0023	  1147#	  1148
..0024	  1222#	  1223
..0025	  1250#	  1251
..0026	  1584#	  1585
..0027	  1704#	  1705
..0030	  1826#	  1827
..0031	  2672#	  2673
..0032	  2725#	  2726
..0033	  2740#	  2741                                                                                                     SEQ 0269
..0034	  2935#	  2936
..0035	  2939#	  2940
..0036	  3260#	  3261
..0037	  3271#	  3272
..0040	  4458#	  4459
..0041	  4466#	  4467
..0042	  4476#	  4477
..0043	  4566#	  4567
..0044	  4572#	  4573
..0045	  4582#	  4583
..0046	  5175#	  5176
..0047	  5184#	  5185
..TYPE	  2931#	  2933	  2936
..XX	   586#	   586	   621#	   621	   623#	   623	   860#	   860	   973#	   973	  1021#	  1021	  1024#	  1024
	  1026#	  1026	  1038#	  1038	  1039#	  1039	  1052#	  1052	  1061#	  1061	  1062#	  1062	  1074#	  1074
	  1075#	  1075	  1104#	  1104	  1117#	  1117	  1118#	  1118	  1148#	  1148	  1223#	  1223	  1251#	  1251
	  1585#	  1585	  1705#	  1705	  1827#	  1827	  2673#	  2673	  2726#	  2726	  2741#	  2741	  2936#	  2936
	  2940#	  2940	  3261#	  3261	  3272#	  3272	  4459#	  4459	  4467#	  4467	  4477#	  4477	  4567#	  4567
	  4573#	  4573	  4583#	  4583	  5176#	  5176	  5185#	  5185
.AC1	   652	   656	   659	   664	   668	   672	   676	   680	   684	   689	   692	   702	   742	   748
	   811	   931	   980	   985	   991	   996	   999	  1002	  1262	  1276	  1283	  2692	  2710	  3241
	  5884	  5929	  5936	  5944	  7210
.BFCTR	  3395#	  3397	  3399
.BFPTR	  3394#	  3398	  3400
.CMABC	   790
.CMABP	   792
.CMBFP	   786
.CMCFM	   623
.CMCNT	   789
.CMFIL	  1251	  1585	  1705	  1827	  2741	  3272	  4477	  4567	  4583	  5185
.CMINI	   621
.CMIOJ	   638	   782	   820	   824	   831	  3778	  5191	  5202	  5565	  5573
.CMKEY	   586	   860	  1021	  1024	  1039	  1052	  1104	  1223	  2936	  4459
.CMNOI	   973	  1026	  1038	  1061	  1074	  1117	  1148	  2673	  3261	  4467	  4573	  5176
.CMNUM	  1062	  1075	  1118	  2726	  2940
.CMPTR	   787
.DCUPN	  3396#	  3401	  3402
.DCUR3	   964	  3417#	  3840
.DCUR4	   960	  3415#	  3836
.DCUR6	   962	  3416#	  3838
.EXIT	   597	   599	  1147#
.FBBYV	  1280	  2761	  3292	  4140	  4659
.FBCTL	  1273
.FBSIZ	  4665
.FHSLF	   654	   661	   686	   700	   722	   809	  1295	  1669	  1791	  1913	  1965	  1972	  2769	  2783
	  2963	  3149	  3239	  3303	  3305	  4247	  4422	  4641	  4689	  4704	  7281
.IOBIN	  3410#	  3579
.IODMP	  3411#	  3581	  3620	  3654	  3701	  3928	  3968	  3979
.JB41	   298#
.JBAPR	   306#
.JBCNI	   307#
.JBDDT	   300#
.JBFF	   304#	  3556	  3587	  3774                                                                                     SEQ 0270
.JBOPC	   309#
.JBREL	   299#
.JBREN	   305#
.JBSA	   303#	  2098	  2251	  2409	  4849
.JBSYM	   301#
.JBTPC	   308#
.JBUSY	   302#
.JBUUO	   297#
.JBVER	   310#
.MSRCH	  1360	  1435
.MSRCT	  1361	  1436
.MSRLN	  1371	  1407	  1446
.MSRNU	  1371	  1446
.MSRP4	   940	  1395	  1469
.MSRP5	   942	  1397	  1471
.MSRP6	   944	  1399	  1473
.MSRSA	  1444
.MSRSN	  1369
.MSRST	  1364	  1365	  1379	  1390	  1439	  1440	  1454	  1464
.MSRUN	  1362	  1437
.NULIO	  3777	  5201
.PRIIN	   637	   781	   823	   832	  5192	  5961	  5973	  6390	  6477
.PRIOU	   637	   721	   781	   823	  1166	  3777	  5923	  5939	  5961	  5973	  6758	  6787	  7280
.RBALC	  3403	  3405	  3430#	  3885
.RBCNT	  3421#
.RBDEV	  3435#
.RBEST	  3429#
.RBEXT	  2009	  2162	  2315	  3344	  3424#	  3597	  3630	  3667	  3676	  3714	  3722	  4725
.RBMTA	  3434#
.RBNAM	  1997	  2150	  2303	  3423#	  3594	  3627	  3664	  3712
.RBNCA	  3433#
.RBPOS	  3431#
.RBPPN	  3422#	  3600	  3633	  3670	  3718
.RBPRV	  2006	  2011	  2159	  2164	  2312	  2317	  3341	  3346	  3425#	  3673	  3678	  3680	  3720	  3724
	  3726	  4722	  4727
.RBSIZ	  2023	  2176	  2329	  2815	  3349	  3426#
.RBSPL	  3428#
.RBSTS	  3404	  3406	  3436#
.RBTF1	  3432#
.RBVER	  2003	  2156	  2309	  3338	  3427#	  3683	  3728	  4719
.TICCC	   670
.TICCO	   682
.TICCT	   678
.TICCX	   666
.TICCZ	   674
.TYPE	   615	  2935#

AIC	   688
ATI	   667	   671	   675	   679	   683                                                                             SEQ 0271
BIN	  1167	  5566	  5582
BKJFN	  5571
BOUT	  1170	  2699	  2701	  2703	  4495	  4497	  4499	  7201
CALL	   656	   659	   664	   668	   672	   676	   680	   684	   689	   692	   702	   811	   814	   931
	   980	   985	   991	   996	   999	  1002	  1262	  1276	  1283	  1291	  1298	  1418	  1490	  1603
	  1611	  1672	  1681	  1686	  1725	  1733	  1794	  1803	  1808	  1847	  1855	  1916	  1925	  1930
	  1968	  1975	  1984	  2692	  2710	  2772	  2788	  2966	  3152	  3241	  3309	  4251	  4426	  4596
	  4604	  4646	  4651	  4692	  4708
CFIBF	  5925	  6481
CFORK	   984	  1602	  1724	  1846	  4595
CHFDB	  4662	  4669
CLOSF	   821	  1174	  2778	  2807	  3156	  3322	  3329	  4255	  4505	  4656	  5194	  7274
CLRBFI	   762	  6479
CMABR	   346#	   590	   591	   595	   597
CMD	   358#	   794	   800	   830	   859	   972	  1020	  1023	  1025	  1037	  1038	  1051	  1060	  1061
	  1073	  1074	  1107	  1116	  1117	  1147	  1222	  1250	  1584	  1704	  1826	  2672	  2725	  2740
	  2935	  2939	  3260	  3271	  4458	  4466	  4476	  4566	  4572	  4582	  5175	  5184
CMDNOP	   382#
CMTAB	   342#	   592	   593	   596	   598	   599	   601	   603	   605	   607	   609	   610	   612	   614
	   615	   617	   853	   854	   855	   856	  1011	  1012	  1016	  1033	  1034	  1047	  1048	  1100
	  1101	  1211	  1212	  1213	  1214	  1215	  1216	  1217	  1218	  1219	  2932	  4452	  4453	  4454
	  4455
COMND	   795	   801	   831	   860	   973	  1021	  1024	  1026	  1038	  1039	  1052	  1061	  1062	  1074
	  1075	  1108	  1117	  1118	  1148	  1223	  1251	  1585	  1705	  1827	  2673	  2726	  2741	  2936
	  2940	  3261	  3272	  4459	  4467	  4477	  4567	  4573	  4583	  5176	  5185
CONFIR	   422#	   862	   973	  1026	  1041	  1066	  1076	  1119	  1148	  1156	  1253	  1319	  1587	  1707
	  1829	  2673	  2743	  2945	  3129	  3273	  4479	  4585	  5186
CORE	  5793
CRMBIT	  4259#	  4282	  4283	  4284	  4285	  4286	  4287	  4288	  4289	  4290	  4291	  4292	  4293	  4294
	  4295	  4296	  4297	  4298	  4299	  4300	  4301	  4302	  4303	  4304	  4305	  4306	  4307	  4308
	  4309	  4310	  4311	  4313	  4314	  4315	  4316	  4317	  4318	  4319	  4320	  4321	  4322	  4323
	  4324	  4325	  4326	  4327	  4328	  4329	  4330	  4331	  4332	  4333	  4334	  4335	  4336	  4337
	  4338	  4339	  4340	  4341	  4342	  4343	  4344	  4345	  4346	  4347	  4348	  4349	  4350	  4351
	  4352	  4353	  4354	  4355	  4356	  4357	  4358	  4359	  4360	  4361	  4362	  4363	  4365	  4366
	  4367	  4368	  4369	  4370	  4371	  4372	  4373	  4374	  4375	  4376	  4377	  4378	  4379	  4380
	  4381	  4382	  4383	  4384	  4385	  4386	  4387	  4388	  4389	  4390	  4391	  4393	  4394
CRMRNG	  4273#	  4282	  4294	  4303	  4308	  4315	  4319	  4323	  4325	  4334	  4337	  4340	  4343	  4346
	  4349	  4353	  4356	  4360	  4374	  4380
DEBRK	  5876	  5888	  5894	  5900	  5905	  5909	  5913	  5922
DEVCHR	  7335
DISK.	  3860
DOBE	  5924
DPYNOF	  5208#	  5233	  5242	  5256	  5265	  5275	  5284	  5293	  5303	  5312	  5322	  5331	  5339	  5353
	  5367	  5381	  5389	  5398	  5407	  5416	  5424	  5433	  5442	  5451	  5460	  5469	  5478	  5487
	  5496	  5504	  5513	  5522
DROPDV	   222#	  6017	  7160
DSKCHR	  3825	  3847	  3852
DSKOP	  3234
ECMTAB	   589#	   619	   853#	   857	  1011#	  1013	  1016#	  1017	  1033#	  1035	  1047#	  1049	  1100#	  1102
	  1211#	  1220	  2932#	  2933	  4452#	  4456
EIR	   691
ENDUUO	   250#
EOPUUO	   251#                                                                                                            SEQ 0272
EPCAP	   658
ERCAL	  1374	  1449
ERJMP	   656	   659	   664	   668	   672	   676	   680	   684	   689	   692	   702	   725	   726	   795
	   801	   811	   831	   860	   931	   973	   980	   985	   991	   996	   999	  1002	  1021	  1024
	  1026	  1038	  1039	  1052	  1061	  1062	  1074	  1075	  1108	  1117	  1118	  1148	  1168	  1223
	  1251	  1262	  1276	  1283	  1298	  1585	  1603	  1611	  1672	  1681	  1686	  1705	  1725	  1733
	  1794	  1803	  1808	  1827	  1847	  1855	  1916	  1925	  1930	  1968	  1975	  1984	  2673	  2692
	  2710	  2726	  2741	  2772	  2788	  2936	  2940	  2966	  3152	  3235	  3241	  3261	  3272	  3309
	  4251	  4426	  4459	  4467	  4477	  4567	  4573	  4583	  4596	  4604	  4646	  4651	  4692	  4708
	  5176	  5185	  7202	  7242
ERMSG	   656	   659	   664	   668	   672	   676	   680	   684	   689	   692	   702	   811	   931	   980
	   985	   991	   996	   999	  1002	  1262	  1276	  1283	  2692	  2710	  3241
ERR	   403#	   822	   869	   884	   922	  1064	  1081	  1083	  1086	  1123	  1175	  1198	  1269	  1278
	  1286	  1309	  1312	  1321	  1402	  1476	  1489	  1500	  1590	  1592	  1630	  1710	  1712	  1752
	  1832	  1834	  1874	  1941	  1995	  2025	  2033	  2044	  2069	  2078	  2094	  2148	  2178	  2186
	  2197	  2222	  2231	  2247	  2301	  2331	  2339	  2349	  2374	  2383	  2405	  2676	  2678	  2729
	  2746	  2753	  2758	  2779	  2808	  2809	  2813	  2817	  2864	  2869	  2928	  2942	  2948	  2960
	  3005	  3027	  3131	  3157	  3196	  3210	  3237	  3244	  3280	  3323	  3330	  3331	  3336	  3356
	  3531	  3534	  3549	  3585	  3624	  3657	  3705	  3743	  3767	  3772	  3789	  3826	  3831	  3843
	  3848	  3853	  3865	  3869	  3887	  3894	  3898	  3912	  3914	  3945	  3960	  3996	  4002	  4007
	  4013	  4020	  4055	  4080	  4091	  4096	  4111	  4116	  4163	  4256	  4409	  4487	  4506	  4529
	  4545	  4593	  4657	  4673	  4683	  4717	  4750	  4785	  4794	  4814	  4823	  4845	  4906	  5195
	  5199	  5572	  5584	  5794	  5798	  5808	  5942
ERRHLT	   154#
ERSTR	   724	  7283
ESOUT	   741
EXIT	  1150	  5820	  7368
FATAL	   153#	  6140
FLD	   586	   621	   623	   860	   973	  1021	  1024	  1026	  1038	  1039	  1052	  1061	  1062	  1074
	  1075	  1104	  1117	  1118	  1148	  1223	  1251	  1585	  1705	  1827	  2673	  2726	  2741	  2936
	  2940	  3261	  3272	  4459	  4467	  4477	  4567	  4573	  4583	  5176	  5185
FLDDB.	   586	   621	   623	   860	   973	  1021	  1024	  1026	  1038	  1039	  1052	  1061	  1062	  1074
	  1075	  1104	  1117	  1118	  1148	  1223	  1251	  1585	  1705	  1827	  2673	  2726	  2741	  2936
	  2940	  3261	  3272	  4459	  4467	  4477	  4567	  4573	  4583	  5176	  5185
GET	   990	  1610	  1732	  1854	  4603
GETER	   701	   810	  1413	  1484	  3240
GETIT	   140#	   863	  1042	  1420	  1945	  1946	  1956	  1987	  2088	  2241	  2393	  2399	  3099	  3122
	  4711	  4833	  4839	  5921	  6115	  6130	  6133	  6136	  6211	  6258	  6265	  6393	  6394	  6398
	  6399	  6414	  6470	  6471	  6472	  6482	  6791	  6792	  6803	  6821	  6847	  6882	  6895	  6941
	  6942	  6943	  6944	  6945	  6987	  6988	  6989	  6990	  6991	  7180	  7203	  7204	  7217	  7218
	  7276	  7301	  7302	  7303
GETTAB	  6049	  6234
GEVEC	  1615	  1737	  1859	  4608
GO	   137#	   422	   645	   646	   647	   648	   649	   736	   766	   768	   795	   801	   804	   822
	   831	   860	   869	   884	   922	   973	  1021	  1024	  1026	  1038	  1039	  1052	  1061	  1062
	  1064	  1069	  1074	  1075	  1081	  1083	  1086	  1108	  1117	  1118	  1123	  1142	  1148	  1175
	  1197	  1198	  1200	  1223	  1251	  1265	  1269	  1278	  1286	  1305	  1309	  1312	  1321	  1387
	  1402	  1462	  1476	  1489	  1500	  1585	  1590	  1592	  1630	  1649	  1705	  1710	  1712	  1714
	  1752	  1771	  1827	  1832	  1834	  1836	  1874	  1893	  1941	  1953	  1994	  1995	  2025	  2032
	  2033	  2038	  2044	  2069	  2074	  2078	  2080	  2094	  2119	  2132	  2147	  2148	  2178	  2185
	  2186	  2191	  2197	  2222	  2227	  2231	  2233	  2247	  2272	  2285	  2300	  2301	  2331	  2338
	  2339	  2343	  2349	  2374	  2379	  2383	  2385	  2405	  2430	  2443	  2673	  2676	  2678	  2718
	  2726	  2729	  2741	  2746	  2753	  2758	  2779	  2781	  2808	  2809	  2812	  2813	  2817	  2824     SEQ 0273
	  2830	  2832	  2863	  2864	  2869	  2874	  2883	  2897	  2901	  2905	  2909	  2928	  2936	  2940
	  2942	  2948	  2960	  2972	  2980	  2984	  2988	  2992	  3005	  3026	  3027	  3030	  3034	  3088
	  3111	  3131	  3141	  3157	  3160	  3163	  3172	  3176	  3182	  3192	  3196	  3210	  3237	  3244
	  3261	  3272	  3280	  3323	  3330	  3331	  3335	  3336	  3356	  3363	  3531	  3534	  3549	  3585
	  3624	  3657	  3705	  3743	  3767	  3772	  3789	  3826	  3831	  3843	  3848	  3853	  3864	  3865
	  3868	  3869	  3882	  3887	  3894	  3895	  3898	  3912	  3914	  3945	  3960	  3995	  3996	  4002
	  4006	  4007	  4013	  4020	  4054	  4055	  4062	  4067	  4079	  4080	  4091	  4096	  4111	  4116
	  4145	  4146	  4153	  4161	  4163	  4175	  4192	  4234	  4237	  4256	  4401	  4408	  4409	  4439
	  4459	  4467	  4477	  4487	  4506	  4528	  4529	  4545	  4549	  4567	  4570	  4573	  4583	  4593
	  4629	  4657	  4673	  4683	  4716	  4717	  4749	  4750	  4779	  4785	  4794	  4814	  4819	  4823
	  4825	  4845	  4873	  4875	  4876	  4892	  4906	  5176	  5185	  5195	  5199	  5208	  5228	  5237
	  5249	  5260	  5270	  5279	  5288	  5298	  5307	  5317	  5326	  5334	  5346	  5360	  5374	  5384
	  5393	  5402	  5411	  5419	  5428	  5437	  5446	  5455	  5464	  5473	  5482	  5491	  5499	  5508
	  5517	  5545	  5572	  5584	  5794	  5798	  5808	  5907	  5942	  6075	  6076	  6077	  6078	  6087
	  6415	  6420	  6432	  6536	  6544	  6559	  6592	  6696	  7068	  7079	  7187	  7188	  7216	  7238
	  7294	  7299
GTFDB	  1275	  1282	  2763	  3295	  4142
GTJFN	   979	  1161	  7241
HALTF	  1151	  1604	  1726	  1848	  4597	  5877	  6024	  6270	  6347	  7284	  7285	  7286
HPQ	  3856
INCHRS	  6385
INCHRW	   772	   778	  6409	  6501
INCHWL	  6450
JFNS	   930	  1261	  3286
JSERR	  1291	  1298	  1418	  1490	  1603	  1611	  1672	  1681	  1686	  1725	  1733	  1794	  1803	  1808
	  1847	  1855	  1916	  1925	  1930	  1968	  1975	  1984	  2772	  2788	  2966	  3152	  3309	  4251
	  4426	  4596	  4604	  4646	  4651	  4692	  4708
JSHLT	   656	   659	   664	   668	   672	   676	   680	   684	   689	   692	   702	   811	   931	   980
	   985	   991	   996	   999	  1002	  1262	  1276	  1283	  2692	  2710	  3241
KFORK	  1001	  1685	  1807	  1929	  4650
MOVSLJ	   414#
MOVST	   418#
MSTR	  1373	  1448
NAME	     7#	    10
NIN	  5575
NOISE	   379#	   972	  1025	  1037	  1060	  1073	  1116	  1147	  2672	  3260	  4466	  4572	  5175
NOUT	  5941
OP$$AC	   424#	  5906	  5908
OPENF	  1164	  1290	  2757	  3279	  4486	  4592	  5198	  7245
OUTCHR	  7167	  7177
OUTSTR	   590	   591	   595	   597	   643	   731	   732	   733	   754	   755	   756	   760	  7340	  7356
	  7363	  7371	  7375
PBELL	   231#
PBIN	  6396	  6412
PBOUT	  7169	  7179
PCRL	   223#	  6139	  6322	  6507	  6938
PCRL2	   229#
PCRL2F	   230#	  5217
PCRLF	   224#	   876	   877	   901	   902	   917	   918	   949	   950	   967	   968	  1143	  1181	  2969
	  2974	  3029	  3037	  3057	  3072	  3073	  5589	  5621	  5785	  6263	  6283	  6337	  6558	  6936
PFORCE	   233#
PGMINT	   147#	   628
PJRST	   141#                                                                                                            SEQ 0274
PMAP	  1297	  1671	  1680	  1793	  1802	  1915	  1924	  1967	  1974	  1983	  2771	  2787	  2965	  3151
	  3308	  4250	  4425	  4645	  4691	  4707
PMSG	   235#	   871	  6132	  6294	  6301	  6303	  6307	  6309	  6312	  6314	  6318
PMSGF	   238#	   880	   889	   893	   897	   905	   909	   913	   933	   941	   943	   945	   947	   953
	   961	   963	   965	  1006	  1178	  3041	  3068	  5226	  5235	  5244	  5258	  5267	  5268	  5277
	  5286	  5295	  5296	  5305	  5314	  5315	  5324	  5332	  5341	  5355	  5369	  5382	  5391	  5400
	  5409	  5417	  5426	  5435	  5444	  5453	  5461	  5462	  5471	  5480	  5489	  5497	  5506	  5515
	  6257	  6279	  6333	  6534
PNT1	   189#
PNT11	   205#
PNT11F	   206#
PNT1F	   190#	  5631	  5649	  5712	  5717	  5723	  5728	  5734	  5740	  5746	  5755	  5767	  5778	  5783
PNT2	   191#
PNT2F	   192#	  5688	  5698	  5707
PNT3	   193#
PNT3F	   194#	  5660	  5678
PNT4	   195#
PNT4F	   196#	  5636	  5667
PNT5	   197#
PNT5F	   198#
PNT6	   199#
PNT6F	   200#	  1127	  5644	  6262	  6282
PNT7	   201#
PNT7F	   202#
PNT8	   203#
PNT8F	   204#	  1136
PNTA	   175#	  1206
PNTADF	   208#
PNTADR	   207#
PNTAF	   176#
PNTAL	   177#	   840	  6210
PNTALF	   178#	   819	   836	   935	  1180	  3794	  6208
PNTCHF	   188#	   847	  2998	  3000	  6195	  6893	  6930	  6967	  6982
PNTCHR	   187#	   775	   779	  6197	  6516	  6880	  6932	  6969	  6984
PNTCI	   185#	  6297
PNTCIF	   186#	  1128	  6336
PNTDCF	   216#	   874	  3070	  6335
PNTDEC	   215#	  6320
PNTDS	   217#
PNTDSF	   218#
PNTHW	   211#	  6134	  6138
PNTHWF	   212#	   891	   895	   899	   907	   911	   915
PNTMSF	   182#	  1125	  3185	  3245	  5210	  5576	  5599	  5617	  5625
PNTMSG	   181#	  6293
PNTNM	   219#	  6256	  6278
PNTOCF	   214#	   746	   759	  3052	  5558
PNTOCS	   213#	  6296	  6299
PNTOCT	   209#
PNTOTF	   210#	  1138	  1140
PNTSIX	   220#
PNTSXF	   221#	   955
POS	   586	   621	   623	   860	   973	  1021	  1024	  1026	  1038	  1039	  1052	  1061	  1062	  1074
	  1075	  1104	  1117	  1118	  1148	  1223	  1251	  1585	  1705	  1827	  2673	  2726	  2741	  2936     SEQ 0275
	  2940	  3261	  3272	  4459	  4467	  4477	  4567	  4573	  4583	  5176	  5185
PSIXL	   179#	  6205
PSIXLF	   180#	  6202
PSIXM	   183#	   871	  6132	  6294	  6301	  6303	  6307	  6309	  6312	  6314	  6318
PSIXMF	   184#	   880	   889	   893	   897	   905	   909	   913	   933	   941	   943	   945	   947	   953
	   961	   963	   965	  1006	  1178	  3041	  3068	  5226	  5235	  5244	  5258	  5267	  5268	  5277
	  5286	  5295	  5296	  5305	  5314	  5315	  5324	  5332	  5341	  5355	  5369	  5382	  5391	  5400
	  5409	  5417	  5426	  5435	  5444	  5453	  5461	  5462	  5471	  5480	  5489	  5497	  5506	  5515
	  6257	  6279	  6333	  6535
PSOUT	   590	   591	   595	   597	   653	   656	   659	   664	   668	   672	   676	   680	   684	   689
	   692	   702	   713	   715	   720	   743	   749	   811	   931	   980	   985	   991	   996	   999
	  1002	  1262	  1276	  1283	  2692	  2710	  3241	  5885	  5930	  5937	  5945	  5952	  7213	  7259
PSP	   225#	  6135
PSPACE	   227#	  5632	  5637	  5645	  5650	  5661	  5668	  5679	  5680	  5681	  5689	  5690	  5691	  5699
	  5700	  5701	  5708	  5713	  5718	  5719	  5724	  5725	  5729	  5730	  5735	  5736	  5741	  5742
	  5747	  5748	  5756	  5757	  5768	  5779
PSPF	   226#
PTAB	   228#	   937	   957	  3059	  5562
PUT	   139#	   861	  1040	  1935	  1936	  1951	  1960	  2084	  2237	  2389	  2395	  3091	  3114	  4678
	  4829	  4835	  5918	  6096	  6108	  6131	  6155	  6259	  6388	  6389	  6411	  6459	  6460	  6461
	  6475	  6785	  6786	  6875	  6888	  6905	  6909	  6911	  6912	  6913	  6914	  6953	  6957	  6959
	  6960	  6961	  6962	  7174	  7197	  7198	  7272	  7288	  7289	  7290
RDIO	  1516#	  2523	  2553	  2555	  2557	  2559	  2561	  2563	  2566	  2568	  4973	  4980	  5029	  5031
	  5033	  5035	  5042	  5044
RDTTY	  6467
RESET	  6023	  6062
RESTAC	   436#	  5908
RET	   706	   837	  1144	  3161	  3173	  3177	  3183	  3188	  3248	  5212	  5786
RETSKP	  5560
RFMOD	  6759	  6788
RLJFN	  4672
RPACS	  1623	  1647	  1745	  1769	  1867	  1891	  4627
RPCAP	   655
RTN	   138#	   467	   770	   776	   780	   826	   841	   849	   878	   881	   903	   919	   951	   969
	  1004	  1007	  1028	  1043	  1070	  1176	  1182	  1306	  1316	  1356	  1405	  1416	  1428	  1479
	  1487	  1507	  1689	  1811	  1933	  1949	  1991	  2144	  2297	  2455	  2720	  2804	  2885	  2917
	  2924	  2976	  2994	  3001	  3074	  3104	  3126	  3167	  3193	  3215	  3326	  3332	  3519	  3522
	  3538	  3545	  3558	  3563	  3606	  3639	  3688	  3738	  3781	  3810	  3933	  3950	  3965	  3973
	  3984	  4028	  4232	  4258	  4403	  4414	  4419	  4437	  4442	  4448	  4508	  4551	  4675	  4713
	  4730	  4878	  4899	  4907	  5205	  5547	  5580	  5587	  5590	  5603	  5610	  5804	  5809	  5814
	  5946	  5953	  6092	  6117	  6212	  6238	  6241	  6323	  6339	  6373	  6382	  6386	  6395	  6417
	  6426	  6433	  6443	  6483	  6510	  6556	  6628	  6634	  6721	  6767	  6769	  6816	  6883	  6896
	  6946	  6992	  7084	  7205	  7219	  7250	  7269	  7278	  7304	  7311	  7319	  7361
S	    38#	    40	    42	   133	   135	   143	   145	   149	   151	   156	   158	   171	   173	   246
	   248	   254	   256	   268	   270	   275	   277	   293	   295	   312	   314	   324	   328	   441
	   443	   460	   462	   470	   472	   478	   480	   498	   500	   529	   531	   538	   540	   546
	   548	   552	   554	   558	   560	   564	   566	   570	   572	  6028	  6030	  6037	  6039	  6053
	  6055	  6071	  6073	  6083	  6085	  6125	  6127	  6143	  6145	  6215	  6253	  6275	  6289	  6329
	  6343	  6352	  6368	  6371	  6375	  6378	  6401	  6405	  6428	  6430	  6444	  6446	  6484	  6488
	  6520	  6525	  6567	  6570	  6590	  6613	  6638	  6661	  6686	  6689	  6724	  6732	  6734	  6737
	  6772	  6775	  6806	  6819	  6837	  6840	  6867	  6870	  6873	  6886	  6897	  6903	  6947	  6951
	  6996	  6999	  7028	  7031	  7038	  7040	  7057	  7060	  7095	  7097	  7102	  7104	  7131	  7147
	  7150	  7152	  7184	  7193	  7220	  7223	  7266                                                             SEQ 0276
SAVEAC	   432#	  5906
SCMTAB	   334#	   588	   852	  1010	  1015	  1032	  1046	  1099	  1210	  2931	  4451
SETUWP	  5797	  5807
SFMOD	  6762	  6790
SFPTR	  2691	  2709
SFRKV	   995
SIBE	  6391
SIR	   663
SIXBTZ	   244#
STDEV	  1268
SUSET.	  3944	  3959	  4090	  4110
SYSGT	  6230
TION	  1517#	  2493
TMSG	   651	   656	   659	   664	   668	   672	   676	   680	   684	   689	   692	   702	   742	   747
	   811	   931	   980	   985	   991	   996	   999	  1002	  1262	  1276	  1283	  2692	  2710	  3241
	  5882	  5926	  5935	  5943	  7207
TTALTM	   167#
TTICHR	   160#
TTICLR	   170#
TTICNV	   165#
TTIDEC	   164#
TTINO	   162#
TTIOCT	   163#	  5592
TTIYES	   161#
TTLOOK	   166#
TTSIXB	   168#
TTYINP	   169#
WARN	   408#
WFORK	   998
WRIO	  1518#	  2484	  2488	  2491	  2503	  2505	  2508	  2511	  2519	  2522	  2534	  2537	  4958	  4961
	  4964	  4967	  4987	  4990	  4993	  4996	  5005	  5008	  5068
WRUBR	  1515#	  2586	  2592	  2598	  2604	  2610	  2616	  2622	  2628	  5083	  5089	  5095	  5101	  5107
	  5113	  5119	  5125
SMPREB	DECSYSTEM 2020 DIAGNOSTICS PRE-BOOT PROGRAM, VER 0,2	MACRO %53(1020) 10:57 19-Feb-79 Page 1
SMPREB	MAC	27-Oct-78 11:53	                                                                                           SEQ 0277

     1					;MAINDEC-10-SMPREB
     2
     3			000000		MCNVER=0
     4			000002		DECVER=2
     5
     6						XLIST
     7						LIST
     8						LALL
     9
    10					NAME	\MCNVER,\DECVER^
    11
    12					TITLE	SMPREB	DECSYSTEM 2020 DIAGNOSTICS PRE-BOOT PROGRAM, VER 0,2^
    13
    14					;*JOHN R. KIRCHOFF
    15
    16						NOSYM
    17
    18					INTERN	SMPREB		;LET EXTERNAL PROGRAM KNOW WHERE THIS IS
    19	000000'				SMPREB:			;INTERNAL REFERENCE ADDRESS
    20					INTERN	SMPEND		;INTERNAL REFERENCE END ADDRESS
    21
    22	001000				PHASE	1000		;THE PRE-BOOT IS REALLY AT LOC 1000
SMPREB	DECSYSTEM 2020 DIAGNOSTICS PRE-BOOT PROGRAM, VER 0,2	MACRO %53(1020) 10:57 19-Feb-79 Page 2
SMPREB	MAC	27-Oct-78 11:53		PARAMETERS                                                                         SEQ 0278

    23					SUBTTL	PARAMETERS
    24
    25					; ********************************************************************
    26
    27					; THIS PROGRAM IS THE PRE-BOOT FOR THE DIAGNOSTICS DISK LOADER AND
    28					; FOR BOOTCHECK II.  THE PROGRAM PERFORMS A BASIC VERIFICATION OF THE
    29					; KS-10 CPU BEFORE TRYING TO LOAD THE PRIMARY LOADER OR BOOTCHECK II
    30					; CODE.
    31
    32					; THIS WILL ALSO GIVE A VERY PRESCRIBED SEQUENCE OF OPERATIONS TO BE
    33					; DEBUGGED IF THIS CODE DOES NOT RUN TO COMPLETION.
    34
    35					;DEFINITIONS FOR SM10
    36
    37			001000		BOORG=1000	;START OF HARDWARE BOOT
    38
    39		701140	000000		OPDEF	WRUBR	[701B8+3B12]	;WRITE USER BASE REGISTER
    40		712000	000000		OPDEF	RDIO	[712B8]		;READ I/O
    41		713000	000000		OPDEF	WRIO	[713B8]		;WRITE I/O
    42
    43			763000		UBAP0=	763000	;ADDRESS OF UNIBUS MAP
    44			763100		UBSTAT=	763100	;ADDRESS OF UNIBUS STATUS
    45
    46			000031		KPALIVE=31	;KEEP-ALIVE & STATUS WORD
    47			000036		MSRH=	36	;RH-11 BASE ADDRESS
    48			000037		MSDRIVE=37	;DRIVE NUMBER
    49			000040		MSSLAVE=40	;SLAVE & FORMAT
    50
    51			000021		RIPST=21	;READ IN PRESET
    52			000071		RDATA=71	;READ DATA
    53			000200		RDY=200		;READY
    54			020000		MCPE=20000	;MASS I/O CONTROL BUS PARITY ERROR
    55			040000		TRE=40000	;TRANSFER ERROR
    56			100000		SC=100000	;SPECIAL CONDITION
    57			010000		FMT22=10000	;FORMAT 22 (FORMAT BIT)
    58
    59			000040		RHCLR=	40	;CONTROLLER CLEAR
SMPREB	DECSYSTEM 2020 DIAGNOSTICS PRE-BOOT PROGRAM, VER 0,2	MACRO %53(1020) 10:57 19-Feb-79 Page 3
SMPREB	MAC	27-Oct-78 11:53		PARAMETERS                                                                         SEQ 0279

    60
    61					;REGISTER DEFINITIONS
    62
    63			000000		RPCS1=	00	;CONTROL AND STATUS 1
    64			000002		RPWC=	02	;WORD COUNT REGISTER
    65			000004		RPBA=	04	;UNIBUS ADDRESS REGISTER
    66			000006		RPDA=	06	;DESIRED SECTOR/TRACK ADDRESS REGISTER
    67			000010		RPCS2=	10	;CONTROL AND STATUS 2
    68			000012		RPDS=	12	;DRIVE STATUS
    69			000014		RPER1=	14	;ERROR 1
    70			000040		RPER2=	40	;ERROR 2
    71			000042		RPER3=	42	;ERROR 3
    72			000032		RPOF=	32	;OFFSET REGISTER
    73			000034		RPDC=	34	;DESIRED CYLINDER REGISTER
    74			000006		RPFC=	6	;MAGTAPE FRAME COUNTER
    75			000032		RPTC=	32	;MAGTAPE TAPE CONTROL
    76
    77			100000		UNV36X=100000	;UNIBUS 36 BIT TRANSFER BIT
    78			040000		UBVBIT==40000	;UNIBUS VALID BIT
    79
    80					;PRE-BOOT AC DEFINITIONS
    81
    82			000001		T1=1		;TEMPS
    83			000002		T2=2
    84			000003		T3=3
    85			000004		T4=4
    86			000005		T5=5
    87
    88			000006		P1=6
    89
    90			000001		PBMADR=1
    91			000002		PBLIM=2
    92			000003		PBBITS=3
    93			000004		PBERR=4
SMPREB	DECSYSTEM 2020 DIAGNOSTICS PRE-BOOT PROGRAM, VER 0,2	MACRO %53(1020) 10:57 19-Feb-79 Page 4
SMPREB	MAC	27-Oct-78 11:53		PRE-BOOT PROGRAM TO BE WRITTEN ON THE DISK                                         SEQ 0280

    94					SUBTTL	PRE-BOOT PROGRAM TO BE WRITTEN ON THE DISK
    95
    96	001000	254 00 0 00 001007 	PBSTRT:!JRST	PBSTAR
    97
    98	001001	254 04 0 00 001001 	PBHLT0:!HALT	.		;TRIED TO OVERLOAD PRE-BOOT
    99	001002	254 04 0 00 001002 	PBHLT1:!HALT	.		;DISK RETRY FAILURE
   100	001003	254 04 0 00 001003 	PBHLT2:!HALT	.		;NO RH-11 BASE ADDRESS
   101	001004	254 04 0 00 001004 	PBHLT3:!HALT	.		;RESERVED
   102
   103	001005	123456	001662		PBPAGP:!123456,,PBPAG		;CODE,,POINTER TO DISK ADR & MEM ADR POINTERS
   104	001006	000000	000000		BC2RES:	0			;BC2 RESTART ADDRESS, 0 FOR DISK
   105
   106					;VERIFY ACCUMULATOR AC0
   107
   108	001007	402 00 0 00 000000 	PBSTAR:!SETZM	0		;SET AC 0 TO ALL ZEROS
   109	001010	332 00 0 00 000000 		SKIPE			;SHOULD CAUSE A SKIP
   110	001011	254 04 0 00 001011 		HALT	.		;ERROR, DIDN'T SKIP
   111	001012	336 00 0 00 000000 		SKIPN			;THIS SHOULD NOT SKIP
   112	001013	334 00 0 00 000000 		SKIPA			;WHICH COMES HERE AND THEN SKIPS
   113	001014	254 04 0 00 001014 		HALT	.		;ERROR, EITHER SKIPN OR SKIPA FAILED
   114	001015	312 00 0 00 001626 		CAME	0,PBZERO
   115	001016	254 04 0 00 001016 		HALT	.		;ERROR, DOES NOT COMPARE
   116
   117	001017	476 00 0 00 000000 		SETOM	0		;SET AC 0 TO ALL ONES
   118	001020	336 00 0 00 000000 		SKIPN			;SHOULD CAUSE A SKIP
   119	001021	254 04 0 00 001021 		HALT	.		;ERROR, DIDN'T SKIP
   120	001022	332 00 0 00 000000 		SKIPE			;THIS SHOULD NOT SKIP
   121	001023	326 00 0 00 001025 		JUMPN	0,.+2		;BUT THIS JUMP SHOULD JUMP
   122	001024	254 04 0 00 001024 		HALT	.		;ERROR, EITHER SKIPE OR JUMPN FAILED
   123	001025	327 00 0 00 001027 		JUMPG	0,.+2		;THIS SHOULD NOT JUMP
   124	001026	321 00 0 00 001030 		JUMPL	0,.+2		;THIS ONE SHOULD JUMP
   125	001027	254 04 0 00 001027 		HALT	.		;ERROR, EITHER JUMPG OR JUMPL FAILED
   126	001030	312 00 0 00 001627 		CAME	0,PBMONE
   127	001031	254 04 0 00 001031 		HALT	.		;ERROR, DOES NOT COMPARE
   128
   129	001032	462 00 0 00 000000 		SETCMM	0		;COMPLEMENT AC0
   130	001033	322 00 0 00 001035 		JUMPE	0,.+2		;THIS JUMP SHOULD JUMP
   131	001034	254 04 0 00 001034 		HALT	.		;ERROR, DATA WRONG OR JUMP DIDN'T JUMP
   132	001035	312 00 0 00 001626 		CAME	0,PBZERO
   133	001036	254 04 0 00 001036 		HALT	.		;ERROR, DOES NOT COMPARE
SMPREB	DECSYSTEM 2020 DIAGNOSTICS PRE-BOOT PROGRAM, VER 0,2	MACRO %53(1020) 10:57 19-Feb-79 Page 5
SMPREB	MAC	27-Oct-78 11:53		PRE-BOOT PROGRAM TO BE WRITTEN ON THE DISK                                         SEQ 0281

   134
   135					;VERIFY BASIC CPU OPERATION
   136
   137	001037	400 00 0 00 000000 		SETZ	0,		;CLEAR AC0
   138	001040	271 00 0 00 000001 		ADDI	0,1		;ADD ONE
   139	001041	302 00 0 00 000001 		CAIE	0,1		;DID IT ADD CORRECTLY ?
   140	001042	254 04 0 00 001042 		HALT	.		;ERROR, CPU CAN'T ADD
   141	001043	306 00 0 00 000001 		CAIN	0,1		;THIS COMPARE SHOULDN'T SKIP
   142	001044	326 00 0 00 001046 		JUMPN	0,.+2		;BUT THIS JUMP SHOULD
   143	001045	254 04 0 00 001045 		HALT	.		;ERROR, EITHER CAIN OR JUMPN FAILED
   144	001046	321 00 0 00 001050 		JUMPL	0,.+2		;THIS SHOULD NOT JUMP
   145	001047	327 00 0 00 001051 		JUMPG	0,.+2		;THIS ONE SHOULD JUMP
   146	001050	254 04 0 00 001050 		HALT	.		;ERROR, EITHER JUMPL OR JUMPG FAILED
   147
   148	001051	271 00 0 00 000001 		ADDI	0,1		;ADD ONE AGAIN
   149	001052	302 00 0 00 000002 		CAIE	0,2		;SHOULD NOW BE TWO
   150	001053	254 04 0 00 001053 		HALT	.		;ERROR, CPU CAN'T ADD
   151
   152	001054	275 00 0 00 000002 		SUBI	0,2		;SUBTRACT TWO
   153	001055	302 00 0 00 000000 		CAIE	0,0		;SHOULD NOW BE ZERO AGAIN
   154	001056	254 04 0 00 001056 		HALT	.		;ERROR, CPU CAN'T SUBTRACT EITHER
   155
   156	001057	350 00 0 00 000000 		AOS	0		;ADD ONE A DIFFERENT WAY
   157	001060	302 00 0 00 000001 		CAIE	0,1		;THIS SHOULD GIVE A ONE
   158	001061	254 04 0 00 001061 		HALT	.		;ERROR, CPU STILL CAN'T ADD
   159
   160	001062	207 00 0 00 000000 		MOVSS	0,0		;SWAP AC0
   161	001063	312 00 0 00 001630 		CAME	0,PBLONE	;DID IT SWAP CORRECTLY ?
   162	001064	254 04 0 00 001064 		HALT	.		;NO, ERROR
   163
   164	001065	211 00 0 00 002000 		MOVNI	0,2000		;GENERATE A NEGATIVE NUMBER (BOOT WORD COUNT)
   165	001066	312 00 0 00 001631 		CAME	0,PBNEG		;SHOULD GIVE A MINUS 2000
   166	001067	254 04 0 00 001067 		HALT	.		;DIDN'T, ERROR
   167
   168	001070	400 00 0 00 000000 		SETZ	0,		;ZERO AC0
   169	001071	435 00 0 00 140000 		IORI	0,140000	;OR IN SAME BITS AS UBVBIT AND UNV36X
   170	001072	312 00 0 00 001632 		CAME	0,PBIOR		;ARE THE CORRECT BIT SET ?
   171	001073	254 04 0 00 001073 		HALT	.		;NO, ERROR
   172
   173	001074	201 00 0 00 000002 		MOVEI	0,2		;START WITH A TWO
   174	001075	363 00 0 00 001077 		SOJLE	0,.+2		;SUBTRACT ONE BUT SHOULD NOT JUMP
   175	001076	334 00 0 00 000000 		SKIPA			;WHICH SHOULD COME HERE AND SKIP
   176	001077	254 04 0 00 001077 		HALT	.		;ERROR, SOJLE MUST HAVE JUMPED
   177	001100	302 00 0 00 000001 		CAIE	0,1		;DID SUBTRACT WORK ?
   178	001101	254 04 0 00 001101 		HALT	.		;NO, ERROR
   179	001102	363 00 0 00 001104 		SOJLE	0,.+2		;DO IT AGAIN, THIS SHOULD JUMP
   180	001103	254 04 0 00 001103 		HALT	.		;DIDN'T, ERROR
SMPREB	DECSYSTEM 2020 DIAGNOSTICS PRE-BOOT PROGRAM, VER 0,2	MACRO %53(1020) 10:57 19-Feb-79 Page 6
SMPREB	MAC	27-Oct-78 11:53		PRE-BOOT PROGRAM TO BE WRITTEN ON THE DISK                                         SEQ 0282

   181
   182					;VERIFY BASIC ADDITION
   183
   184	001104	400 00 0 00 000000 		SETZ	0,		;CLEAR AC 0
   185	001105	270 00 0 00 001633 		ADD	0,PBONES	;ADD A SET OF OCTAL ONES
   186	001106	312 00 0 00 001633 		CAME	0,PBONES	;DID IT ADD CORRECTLY ?
   187	001107	254 04 0 00 001107 		HALT	.		;ERROR, CPU CAN'T ADD
   188
   189	001110	270 00 0 00 001633 		ADD	0,PBONES	;ADD A SET OF OCTAL ONES AGAIN
   190	001111	312 00 0 00 001634 		CAME	0,PBTWOS	;SHOULD GIVE A SET OF OCTAL TWOS
   191	001112	254 04 0 00 001112 		HALT	.		;ERROR
   192
   193	001113	270 00 0 00 001633 		ADD	0,PBONES	;ADD AGAIN
   194	001114	312 00 0 00 001635 		CAME	0,PBTHRE	;SHOULD GIVE A SET OF OCTAL THREES
   195	001115	254 04 0 00 001115 		HALT	.		;ERROR
   196
   197	001116	270 00 0 00 001633 		ADD	0,PBONES	;ADD AGAIN
   198	001117	312 00 0 00 001636 		CAME	0,PBFOUR	;SHOULD GIVE A SET OF OCTAL FOURS
   199	001120	254 04 0 00 001120 		HALT	.		;ERROR
   200
   201	001121	270 00 0 00 001633 		ADD	0,PBONES	;ADD AGAIN
   202	001122	312 00 0 00 001637 		CAME	0,PBFIVE	;SHOULD GIVE A SET OF OCTAL FIVES
   203	001123	254 04 0 00 001123 		HALT	.		;ERROR
   204
   205	001124	270 00 0 00 001633 		ADD	0,PBONES	;ADD AGAIN
   206	001125	312 00 0 00 001640 		CAME	0,PBSIX		;SHOULD GIVE A SET OF OCTAL SIXES
   207	001126	254 04 0 00 001126 		HALT	.		;ERROR
   208
   209	001127	270 00 0 00 001633 		ADD	0,PBONES	;ADD AGAIN
   210	001130	312 00 0 00 001627 		CAME	0,PBMONE	;SHOULD GIVE A SET OF OCTAL SEVENS
   211	001131	254 04 0 00 001131 		HALT	.		;ERROR
   212
   213	001132	271 00 0 00 000001 		ADDI	0,1		;ADD JUST A ONE
   214	001133	322 00 0 00 001135 		JUMPE	0,.+2		;COMPARE IT A DIFFERENT WAY
   215	001134	254 04 0 00 001134 		HALT	.		;DIDN'T GIVE A FULL WORD OF ZEROS
   216
   217					;VERIFY AOBJN ADDITION AND JUMP TRANSFER
   218
   219	001135	253 00 0 00 001137 		AOBJN	0,.+2		;ADD 1 TO BOTH HALVES OF THE WORD
   220	001136	312 00 0 00 001641 		CAME	0,PB11		;GIVE THE RIGHT ANSWER AND NO JUMP ?
   221	001137	254 04 0 00 001137 		HALT	.		;NO, ERROR
   222
   223	001140	474 00 0 00 000000 		SETO	0,		;PRESET AC 0 TO -1
   224	001141	253 00 0 00 001143 		AOBJN	0,.+2		;GIVE THE RIGHT ANSWER AND NO JUMP ?
   225	001142	312 00 0 00 001626 		CAME	0,PBZERO
   226	001143	254 04 0 00 001143 		HALT	.		;NO, ERROR
   227
   228	001144	200 00 0 00 001640 		MOVE	0,PBSIX		;VERIFY THAT AOBJN DOES JUMP
   229	001145	253 00 0 00 001147 		AOBJN	0,.+2
   230	001146	254 04 0 00 001146 		HALT	.		;ERROR, DIDN'T DO THE JUMP
SMPREB	DECSYSTEM 2020 DIAGNOSTICS PRE-BOOT PROGRAM, VER 0,2	MACRO %53(1020) 10:57 19-Feb-79 Page 7
SMPREB	MAC	27-Oct-78 11:53		PRE-BOOT PROGRAM TO BE WRITTEN ON THE DISK                                         SEQ 0283

   231
   232					;VERIFY ACCUMULATOR ADDRESSING
   233
   234	001147	201 00 0 00 000000 		MOVEI	0,0		;LOAD EACH AC WITH ITS OWN ADDRESS
   235	001150	201 01 0 00 000001 		MOVEI	1,1
   236	001151	201 02 0 00 000002 		MOVEI	2,2
   237	001152	201 03 0 00 000003 		MOVEI	3,3
   238	001153	201 04 0 00 000004 		MOVEI	4,4
   239	001154	201 05 0 00 000005 		MOVEI	5,5
   240	001155	201 06 0 00 000006 		MOVEI	6,6
   241	001156	201 07 0 00 000007 		MOVEI	7,7
   242	001157	201 10 0 00 000010 		MOVEI	10,10
   243	001160	201 11 0 00 000011 		MOVEI	11,11
   244	001161	201 12 0 00 000012 		MOVEI	12,12
   245	001162	201 13 0 00 000013 		MOVEI	13,13
   246	001163	201 14 0 00 000014 		MOVEI	14,14
   247	001164	201 15 0 00 000015 		MOVEI	15,15
   248	001165	201 16 0 00 000016 		MOVEI	16,16
   249	001166	201 17 0 00 000017 		MOVEI	17,17
   250
   251	001167	302 17 0 00 000017 		CAIE	17,17		;VERIFY THAT EACH AC ADDRESSES CORRECTLY
   252	001170	254 04 0 00 001170 		HALT	.		;ERROR
   253	001171	302 16 0 00 000016 		CAIE	16,16
   254	001172	254 04 0 00 001172 		HALT	.
   255	001173	302 15 0 00 000015 		CAIE	15,15
   256	001174	254 04 0 00 001174 		HALT	.
   257	001175	302 14 0 00 000014 		CAIE	14,14
   258	001176	254 04 0 00 001176 		HALT	.
   259	001177	302 13 0 00 000013 		CAIE	13,13
   260	001200	254 04 0 00 001200 		HALT	.
   261	001201	302 12 0 00 000012 		CAIE	12,12
   262	001202	254 04 0 00 001202 		HALT	.
   263	001203	302 11 0 00 000011 		CAIE	11,11
   264	001204	254 04 0 00 001204 		HALT	.
   265	001205	302 10 0 00 000010 		CAIE	10,10
   266	001206	254 04 0 00 001206 		HALT	.
   267	001207	302 07 0 00 000007 		CAIE	7,7
   268	001210	254 04 0 00 001210 		HALT	.
   269	001211	302 06 0 00 000006 		CAIE	6,6
   270	001212	254 04 0 00 001212 		HALT	.
   271	001213	302 05 0 00 000005 		CAIE	5,5
   272	001214	254 04 0 00 001214 		HALT	.
   273	001215	302 04 0 00 000004 		CAIE	4,4
   274	001216	254 04 0 00 001216 		HALT	.
   275	001217	302 03 0 00 000003 		CAIE	3,3
   276	001220	254 04 0 00 001220 		HALT	.
   277	001221	302 02 0 00 000002 		CAIE	2,2
   278	001222	254 04 0 00 001222 		HALT	.
   279	001223	302 01 0 00 000001 		CAIE	1,1
   280	001224	254 04 0 00 001224 		HALT	.
   281	001225	302 00 0 00 000000 		CAIE	0,0
   282	001226	254 04 0 00 001226 		HALT	.
SMPREB	DECSYSTEM 2020 DIAGNOSTICS PRE-BOOT PROGRAM, VER 0,2	MACRO %53(1020) 10:57 19-Feb-79 Page 8
SMPREB	MAC	27-Oct-78 11:53		PRE-BOOT PROGRAM TO BE WRITTEN ON THE DISK                                         SEQ 0284

   283
   284					;VERIFY ACCUMULATOR INDEXING
   285
   286	001227	312 01 0 01 000000 		CAME	1,(1)		;SHOULD COMPARE AC1 AGAINST CONTENTS OF AC1
   287	001230	254 04 0 00 001230 		HALT	.		;ERROR
   288	001231	312 02 0 02 000000 		CAME	2,(2)
   289	001232	254 04 0 00 001232 		HALT	.
   290	001233	312 03 0 03 000000 		CAME	3,(3)
   291	001234	254 04 0 00 001234 		HALT	.
   292	001235	312 04 0 04 000000 		CAME	4,(4)
   293	001236	254 04 0 00 001236 		HALT	.
   294	001237	312 05 0 05 000000 		CAME	5,(5)
   295	001240	254 04 0 00 001240 		HALT	.
   296	001241	312 06 0 06 000000 		CAME	6,(6)
   297	001242	254 04 0 00 001242 		HALT	.
   298	001243	312 07 0 07 000000 		CAME	7,(7)
   299	001244	254 04 0 00 001244 		HALT	.
   300	001245	312 10 0 10 000000 		CAME	10,(10)
   301	001246	254 04 0 00 001246 		HALT	.
   302	001247	312 11 0 11 000000 		CAME	11,(11)
   303	001250	254 04 0 00 001250 		HALT	.
   304	001251	312 12 0 12 000000 		CAME	12,(12)
   305	001252	254 04 0 00 001252 		HALT	.
   306	001253	312 13 0 13 000000 		CAME	13,(13)
   307	001254	254 04 0 00 001254 		HALT	.
   308	001255	312 14 0 14 000000 		CAME	14,(14)
   309	001256	254 04 0 00 001256 		HALT	.
   310	001257	312 15 0 15 000000 		CAME	15,(15)
   311	001260	254 04 0 00 001260 		HALT	.
   312	001261	312 16 0 16 000000 		CAME	16,(16)
   313	001262	254 04 0 00 001262 		HALT	.
   314	001263	312 17 0 17 000000 		CAME	17,(17)
   315	001264	254 04 0 00 001264 		HALT	.
   316
   317					;VERIFY INDIRECT ADDRESSING
   318
   319	001265	200 00 1 00 000017 		MOVE	0,@17		;FETCH THE CONTENTS OF AC17
   320	001266	302 00 0 00 000017 		CAIE	0,17		;SHOULD BE 17
   321	001267	254 04 0 00 001267 		HALT	.		;WASN'T, ERROR
   322
   323					;VERIFY INDIRECT AND INDEXING
   324
   325	001270	200 00 1 03 000004 		MOVE	0,@4(3)		;SHOULD FETCH THE CONTENTS OF AC7
   326	001271	302 00 0 00 000007 		CAIE	0,7		;CONTENTS OF 4 PLUS CONTENTS OF 3
   327	001272	254 04 0 00 001272 		HALT	.		;DIDN'T, ERROR
SMPREB	DECSYSTEM 2020 DIAGNOSTICS PRE-BOOT PROGRAM, VER 0,2	MACRO %53(1020) 10:57 19-Feb-79 Page 9
SMPREB	MAC	27-Oct-78 11:53		PRE-BOOT PROGRAM TO BE WRITTEN ON THE DISK                                         SEQ 0285

   328
   329					;VERIFY ACCUMULATOR AC17
   330
   331	001273	402 00 0 00 000017 		SETZM	17		;SET ZEROS TO AC17
   332	001274	312 17 0 00 001626 		CAME	17,PBZERO	;IS IT CORRECT ?
   333	001275	254 04 0 00 001275 		HALT	.		;NO, COULD BE ABOUT ANYTHING
   334
   335	001276	476 00 0 00 000017 		SETOM	17		;SET ONES TO AC17
   336	001277	312 17 0 00 001627 		CAME	17,PBMONE	;IS IT CORRECT ?
   337	001300	254 04 0 00 001300 		HALT	.		;NO, COULD BE ABOUT ANYTHING
   338
   339					;VERIFY ACCUMULATOR DATA STORAGE
   340
   341	001301	205 17 0 00 777761 		MOVSI	17,-17
   342	001302	312 17 0 00 001642 		CAME	17,PB17		;DID MOVE SWAPPED IMMEDIATE WORK ?
   343	001303	254 04 0 00 001303 		HALT	.		;NO, ERROR
   344
   345	001304	476 00 0 17 000000 		SETOM	(17)		;SET ONES TO AC'S 0 TO 16
   346	001305	253 17 0 00 001304 		AOBJN	17,.-1
   347
   348	001306	205 17 0 00 777761 		MOVSI	17,-17
   349	001307	462 00 0 17 000000 		SETCMM	(17)		;COMPLEMENT AC, SHOULD THEN BE ZERO
   350	001310	332 00 0 17 000000 		SKIPE	(17)
   351	001311	254 04 0 00 001311 		HALT	.		;WASN'T, STILL COULD BE ABOUT ANYTHING
   352	001312	253 17 0 00 001307 		AOBJN	17,.-3
   353	001313	402 00 0 00 000017 		SETZM	17
   354
   355					;VERIFY SUBROUTINE CALLING
   356
   357	001314	254 02 1 00 001315 		JRSTF	@.+1		;CLEAR PROCESSOR FLAGS
   358	001315	000000	001316				0,,.+1
   359	001316	264 00 0 00 001321 		JSR	.+3		;TRANSFER TO SUBROUTINE
   360	001317	254 04 0 00 001317 	PBJSR:!	HALT	.		;DIDN'T TRANSFER
   361
   362	001320	254 00 0 00 001327 		JRST	.+7		;CONTINUE AFTER SUBROUTINE FROM HERE
   363
   364	001321	000000	000000			0			;SAVED PC STORAGE
   365	001322	200 00 0 00 001321 		MOVE	0,.-1		;GET SAVED PC
   366	001323	312 00 0 00 001643 		CAME	0,PBSPC		;DID CORRECT PC GET STORED ?
   367	001324	254 04 0 00 001324 		HALT	.		;NO, ERROR
   368	001325	350 00 0 00 001321 		AOS	PBJSR+2		;PLUS ONE TO PC TO SKIP HALT
   369	001326	254 02 1 00 001321 		JRSTF	@PBJSR+2	;NOW CONTINUE BACK IN MAINLINE
SMPREB	DECSYSTEM 2020 DIAGNOSTICS PRE-BOOT PROGRAM, VER 0,2	MACRO %53(1020) 10:57 19-Feb-79 Page 10
SMPREB	MAC	27-Oct-78 11:53		PRE-BOOT PROGRAM TO BE WRITTEN ON THE DISK                                         SEQ 0286

   370
   371					;VERIFY BIT TESTS USED IN PRE-BOOT
   372
   373	001327	201 00 0 00 000200 		MOVEI	0,200		;SAME BIT AS DISK READY
   374	001330	606 00 0 00 000200 		TRNN	0,200		;SHOULD SKIP
   375	001331	254 04 0 00 001331 		HALT	.		;ERROR, DIDN'T
   376	001332	602 00 0 00 000200 		TRNE	0,200		;SHOULD NOT SKIP
   377	001333	324 00 0 00 001335 		JUMPA	.+2		;WHICH COMES HERE AND JUMPA SHOULD JUMP
   378	001334	254 04 0 00 001334 		HALT	.		;EITHER TRNE OR JUMPA FAILED
   379	001335	302 00 0 00 000200 		CAIE	0,200		;DO IMMEDIATE MODE COMPARE
   380	001336	254 04 0 00 001336 		HALT	.		;ERROR, DOES NOT COMPARE
   381
   382	001337	201 00 0 00 040000 		MOVEI	0,40000		;SAME BIT AS TRE ERROR
   383	001340	606 00 0 00 040000 		TRNN	0,40000		;SHOULD SKIP
   384	001341	254 04 0 00 001341 		HALT	.		;ERROR, DIDN'T
   385	001342	602 00 0 00 040000 		TRNE	0,40000		;SHOULD NOT SKIP
   386	001343	324 00 0 00 001345 		JUMPA	.+2		;WHICH COMES HERE AND JUMPA SHOULD JUMP
   387	001344	254 04 0 00 001344 		HALT	.		;EITHER TRNE OR JUMPA FAILED
   388	001345	302 00 0 00 040000 		CAIE	0,40000		;DO IMMEDIATE MODE COMPARE
   389	001346	254 04 0 00 001346 		HALT	.		;ERROR, DOES NOT COMPARE
   390
   391					;SAVE BOOT DISK PARAMETERS
   392
   393	001347	200 00 0 00 000036 		MOVE	0,MSRH		;GET DISK ADDRESS
   394	001350	202 00 0 00 001655 		MOVEM	0,PBRHSV
   395	001351	336 00 0 00 000000 		SKIPN	0
   396	001352	254 00 0 00 001003 		JRST	PBHLT2		;NO RH-11 BASE ADDRESS ?
   397	001353	502 00 0 00 001660 		HLLM	0,PBUBP0	;SETUP UBA MAP POINTER
   398	001354	502 00 0 00 001661 		HLLM	0,PBUBST	;SETUP UBA STATUS POINTER
   399
   400	001355	200 00 0 00 000031 		MOVE	0,KPALIVE
   401	001356	202 00 0 00 001654 		MOVEM	0,PBKPAL	;SAVE KEEP-ALIVE WORD
   402
   403	001357	200 00 0 00 000037 		MOVE	0,MSDRIVE
   404	001360	202 00 0 00 001656 		MOVEM	0,PBDRSV	;SAVE DRIVE SELECTION
   405
   406					;VERIFY XOR INSTRUCTION
   407
   408	001361	400 00 0 00 000000 		SETZ	0,		;XOR 0 WITH 0
   409	001362	430 00 0 00 000000 		XOR	0,0
   410	001363	302 00 0 00 000000 		CAIE	0,0		;SHOULD GIVE ALL ZEROS
   411	001364	254 04 0 00 001364 		HALT	.		;DIDN'T, ERROR
   412
   413	001365	474 00 0 00 000000 		SETO	0,		;XOR -1 WITH -1
   414	001366	430 00 0 00 000000 		XOR	0,0
   415	001367	302 00 0 00 000000 		CAIE	0,0		;SHOULD GIVE ALL ZEROS
   416	001370	254 04 0 00 001370 		HALT	.		;DIDN'T, ERROR
SMPREB	DECSYSTEM 2020 DIAGNOSTICS PRE-BOOT PROGRAM, VER 0,2	MACRO %53(1020) 10:57 19-Feb-79 Page 11
SMPREB	MAC	27-Oct-78 11:53		PRE-BOOT PROGRAM TO BE WRITTEN ON THE DISK                                         SEQ 0287

   417
   418	001371	474 01 0 00 000000 		SETO	1,		;ALL ONES TO AC1
   419	001372	430 00 0 00 000001 		XOR	0,1		;XOR 0 AND -1
   420	001373	312 00 0 00 001627 		CAME	0,PBMONE	;SHOULD GIVE ALL ONES
   421	001374	254 04 0 00 001374 		HALT	.		;DIDN'T, ERROR
   422
   423	001375	400 01 0 00 000000 		SETZ	1,		;ALL ZEROS TO AC1
   424	001376	430 00 0 00 000001 		XOR	0,1		;XOR -1 AND 0
   425	001377	312 00 0 00 001627 		CAME	0,PBMONE	;SHOULD GIVE ALL ONES
   426	001400	254 04 0 00 001400 		HALT	.		;DIDN'T, ERROR
   427
   428					;VERIFY MEMORY FROM 20 TO 777
   429
   430	001401	201 01 0 00 000020 		MOVEI	PBMADR,20	;TEST MEMORY 20 TO 777 FOR ONES
   431	001402	201 02 0 00 000777 		MOVEI	PBLIM,777
   432	001403	476 00 0 00 000003 		SETOM	PBBITS
   433	001404	264 00 0 00 001430 		JSR	PBTST1		;DO MEMORY TEST
   434
   435	001405	201 01 0 00 000020 		MOVEI	PBMADR,20	;TEST MEMORY 20 TO 777 FOR ADDRESS
   436	001406	201 02 0 00 000777 		MOVEI	PBLIM,777
   437	001407	264 00 0 00 001441 		JSR	PBTST2		;DO MEMORY TEST
   438
   439	001410	201 01 0 00 000020 		MOVEI	PBMADR,20	;TEST MEMORY 20 TO 777 FOR ZEROS
   440	001411	201 02 0 00 000777 		MOVEI	PBLIM,777
   441	001412	402 00 0 00 000003 		SETZM	PBBITS
   442	001413	264 00 0 00 001430 		JSR	PBTST1		;DO MEMORY TEST
   443
   444					;VERIFY MEMORY FROM 2000 TO END OF 32K
   445
   446	001414	201 01 0 00 002000 		MOVEI	PBMADR,2000	;TEST MEMORY 2000 TO 77777 FOR ONES
   447	001415	201 02 0 00 077777 		MOVEI	PBLIM,77777
   448	001416	476 00 0 00 000003 		SETOM	PBBITS
   449	001417	264 00 0 00 001430 		JSR	PBTST1		;DO MEMORY TEST
   450
   451	001420	201 01 0 00 002000 		MOVEI	PBMADR,2000	;TEST MEMORY 2000 TO 77777 FOR ADDRESS
   452	001421	201 02 0 00 077777 		MOVEI	PBLIM,77777
   453	001422	264 00 0 00 001441 		JSR	PBTST2		;DO MEMORY TEST
   454
   455	001423	201 01 0 00 002000 		MOVEI	PBMADR,2000	;TEST MEMORY 2000 TO 77777 FOR ZEROS
   456	001424	201 02 0 00 077777 		MOVEI	PBLIM,77777
   457	001425	402 00 0 00 000003 		SETZM	PBBITS
   458	001426	264 00 0 00 001430 		JSR	PBTST1		;DO MEMORY TEST
   459
   460	001427	254 00 0 00 001452 		JRST	PBSTA1		;NOW GO LOAD FROM DISK
SMPREB	DECSYSTEM 2020 DIAGNOSTICS PRE-BOOT PROGRAM, VER 0,2	MACRO %53(1020) 10:57 19-Feb-79 Page 12
SMPREB	MAC	27-Oct-78 11:53		PRE-BOOT PROGRAM TO BE WRITTEN ON THE DISK                                         SEQ 0288

   461
   462					;MEMORY DATA SUBROUTINE
   463
   464	001430	000000	000000		PBTST1:!	0
   465	001431	202 03 0 01 000000 		MOVEM	PBBITS,(PBMADR)	;MOVE DATA TO MEMORY
   466	001432	200 04 0 01 000000 		MOVE	PBERR,(PBMADR)	;READ DATA BACK FROM MEMORY
   467	001433	430 04 0 00 000003 		XOR	PBERR,PBBITS	;XOR DATA, WILL BE ZERO IF NO ERROR
   468	001434	322 04 0 00 001436 		JUMPE	PBERR,.+2
   469	001435	254 04 0 00 001435 		HALT	.		;MEMORY DATA ERROR
   470	001436	305 01 0 02 000000 		CAIGE	PBMADR,(PBLIM)	;COMPLETED MEMORY SECTION ?
   471	001437	344 01 0 00 001431 		AOJA	PBMADR,PBTST1+1	;NO, CONTINUE TO NEXT ADDRESS
   472	001440	254 02 1 00 001430 		JRSTF	@PBTST1		;YES, RETURN TO MAIN LINE
   473
   474					;MEMORY ADDRESS SUBROUTINE
   475
   476	001441	000000	000000		PBTST2:!	0
   477	001442	200 03 0 00 000001 		MOVE	PBBITS,PBMADR	;SETUP ADDRESS AS TEST DATA
   478	001443	202 03 0 01 000000 		MOVEM	PBBITS,(PBMADR)	;MOVE DATA TO MEMORY
   479	001444	200 04 0 01 000000 		MOVE	PBERR,(PBMADR)	;READ DATA BACK FROM MEMORY
   480	001445	312 03 0 00 000004 		CAME	PBBITS,PBERR	;DATA WILL BE THE SAME IF NO ERROR
   481	001446	254 04 0 00 001446 		HALT	.		;MEMORY DATA ERROR
   482	001447	305 01 0 02 000000 		CAIGE	PBMADR,(PBLIM)	;COMPLETED MEMORY SECTION ?
   483	001450	344 01 0 00 001442 		AOJA	PBMADR,PBTST2+1	;NO, CONTINUE TO NEXT ADDRESS
   484	001451	254 02 1 00 001441 		JRSTF	@PBTST2		;YES, RETURN TO MAIN LINE
   485
   486					;NOW GO LOAD LOAD FROM THE DISK
   487
   488	001452	200 06 0 00 001655 	PBSTA1:!MOVE	P1,PBRHSV
   489
   490	001453	201 01 0 00 000040 		MOVEI	T1,RHCLR
   491	001454	713 01 0 06 000010 		WRIO	T1,RPCS2(P1)	;CLEAR CONTROLLER
   492
   493	001455	200 01 0 00 001656 		MOVE	T1,PBDRSV
   494	001456	713 01 0 06 000010 		WRIO	T1,RPCS2(P1)	;SELECT DRIVE
   495
   496	001457	201 01 0 00 000021 		MOVEI	T1,RIPST	;DO READIN PRESET
   497	001460	713 01 0 06 000000 		WRIO	T1,RPCS1(P1)	;WRITE REGISTER
   498	001461	712 02 0 06 000012 		RDIO	T2,RPDS(P1)	;CHECK READY?
   499	001462	606 02 0 00 000200 		TRNN	T2,RDY		;WAIT FOR READY
   500	001463	254 00 0 00 001461 		JRST	.-2		;NO -- CONTINUE WAIT
   501
   502	001464	201 03 0 00 001662 		MOVEI	T3,PBPAG	;FIND THE OFFSET STUFF
   503	001465	201 05 0 00 000012 		MOVEI	T5,^D10		;SET RETRY COUNT
SMPREB	DECSYSTEM 2020 DIAGNOSTICS PRE-BOOT PROGRAM, VER 0,2	MACRO %53(1020) 10:57 19-Feb-79 Page 13
SMPREB	MAC	27-Oct-78 11:53		PRE-BOOT PROGRAM TO BE WRITTEN ON THE DISK                                         SEQ 0289

   504
   505					;READ BOOT PAGES FROM THE DISK INTO MEMORY
   506
   507	001466	200 04 0 03 000000 	PBREAD:!MOVE	T4,0(T3)	;FIND THE DISK ADDRESS
   508	001467	321 04 0 00 001566 		JUMPL	T4,PBDONE	;QUIT IF ALL DONE WITH PAGES
   509
   510	001470	350 00 0 00 000003 		AOS	T3		;POINT TO BLOCK ENTRIES
   511	001471	713 04 0 06 000006 		WRIO	T4,RPDA(P1)	;SET DISK ADDRESS
   512	001472	207 00 0 00 000004 		MOVSS	T4		;FIND CYL ADDRESS
   513	001473	713 04 0 06 000034 		WRIO	T4,RPDC(P1)	;SET CYL ADDRESS
   514
   515	001474	211 04 0 00 002000 		MOVNI	T4,2000		;READ A PAGE (WORD COUNT)
   516	001475	713 04 0 06 000002 		WRIO	T4,RPWC(P1)	;SET WORD COUNT
   517
   518	001476	400 04 0 00 000000 		SETZ	T4,		;CLEAR CURRENT ADDRESS REGISTER
   519	001477	713 04 0 06 000004 		WRIO	T4,RPBA(P1)	;SET UNIBUS ADDRESS TO 0
   520
   521	001500	200 04 0 03 000000 		MOVE	T4,0(T3)	;FIND THE CORE ADDRESS
   522	001501	350 00 0 00 000003 		AOS	T3		;POINT TO NEXT ENTRY
   523	001502	306 04 0 00 000001 		CAIN	T4,1		;CAN'T OVERLOAD PRE-BOOT
   524	001503	254 00 0 00 001524 		JRST	PBBADR		;PAGE 1 REQUESTED TO BE LOADED ?
   525
   526	001504	435 04 0 00 140000 		IORI	T4,UBVBIT!UNV36X
   527	001505	713 04 1 00 001660 		WRIO	T4,@PBUBP0	;SET UP UNIBUS ADAPTOR PAGE 0
   528
   529	001506	201 04 0 00 000071 		MOVEI	T4,RDATA	;SET GO
   530	001507	713 04 0 06 000000 		WRIO	T4,RPCS1(P1)	;WAIT FOR GO
   531	001510	712 04 0 06 000000 		RDIO	T4,RPCS1(P1)
   532	001511	606 04 0 00 000200 		TRNN	T4,RDY
   533	001512	254 00 0 00 001510 		JRST	.-2		;HO HUM WAIT
   534
   535	001513	606 04 0 00 060000 		TRNN	T4,TRE!MCPE	;CHECK ERROR CONDITION SUMMARY
   536	001514	254 00 0 00 001466 		JRST	PBREAD		;DO NEXT PAGE
   537
   538	001515	275 03 0 00 000002 		SUBI	T3,2		;BACKUP TO SAME ENTRY
   539	001516	363 05 0 00 001527 		SOJLE	T5,PBFAIL	;TRY AGAIN TILL RETRY RUNS OUT
   540
   541					;DISK ERROR RETRY
   542
   543	001517	201 01 0 00 000040 	PBRTRY:!MOVEI	T1,RHCLR	;ERROR, CLEAR & TRY AGAIN
   544	001520	713 01 0 06 000010 		WRIO	T1,RPCS2(P1)	;CLEAR CONTROLLER
   545
   546	001521	200 01 0 00 001656 		MOVE	T1,PBDRSV
   547	001522	713 01 0 06 000010 		WRIO	T1,RPCS2(P1)	;SELECT DRIVE
   548
   549	001523	254 00 0 00 001466 		JRST	PBREAD		;TRY AGAIN
SMPREB	DECSYSTEM 2020 DIAGNOSTICS PRE-BOOT PROGRAM, VER 0,2	MACRO %53(1020) 10:57 19-Feb-79 Page 14
SMPREB	MAC	27-Oct-78 11:53		PRE-BOOT PROGRAM TO BE WRITTEN ON THE DISK                                         SEQ 0290

   550
   551					;PRE-BOOT ERROR, TRIED TO OVERLOAD PAGE 1
   552
   553	001524	201 17 0 00 001001 	PBBADR:!MOVEI	17,PBHLT0	;SET HALT ADDRESS
   554	001525	275 03 0 00 000002 		SUBI	T3,2		;POINT TO FAILING ENTRY
   555	001526	254 00 0 00 001530 		JRST	.+2
   556
   557					;PRE-BOOT ERROR, DISK TRANSFER ERROR AND EXCEEDED RETRY LIMIT
   558
   559	001527	201 17 0 00 001002 	PBFAIL:!MOVEI	17,PBHLT1	;SET HALT ADDRESS
   560	001530	200 00 0 03 000000 		MOVE	(T3)
   561	001531	202 00 0 00 000100 		MOVEM	100		;SAVE 8080 DISK ADDRESS
   562	001532	200 00 0 03 000001 		MOVE	1(T3)
   563	001533	202 00 0 00 000101 		MOVEM	101		;SAVE MEMORY PAGE ADDRESS
   564
   565	001534	202 03 0 00 000102 		MOVEM	T3,102		;SAVE SELECTION PICKUP POINTER
   566
   567	001535	712 00 0 06 000000 		RDIO	RPCS1(P1)
   568	001536	202 00 0 00 000103 		MOVEM	103		;SAVE CONTROL AND STATUS 1
   569	001537	712 00 0 06 000010 		RDIO	RPCS2(P1)
   570	001540	202 00 0 00 000104 		MOVEM	104		;SAVE CONTROL AND STATUS 2
   571	001541	712 00 0 06 000012 		RDIO	RPDS(P1)
   572	001542	202 00 0 00 000105 		MOVEM	105		;SAVE DRIVE STATUS
   573	001543	712 00 0 06 000014 		RDIO	RPER1(P1)
   574	001544	202 00 0 00 000106 		MOVEM	106		;SAVE ERROR 1
   575	001545	712 00 0 06 000040 		RDIO	RPER2(P1)
   576	001546	202 00 0 00 000107 		MOVEM	107		;SAVE ERROR 2
   577	001547	712 00 0 06 000042 		RDIO	RPER3(P1)
   578	001550	202 00 0 00 000110 		MOVEM	110		;SAVE ERROR 3
   579
   580	001551	712 00 1 00 001660 		RDIO	@PBUBP0
   581	001552	202 00 0 00 000111 		MOVEM	111		;SAVE UBA PAGING RAM LOC 0
   582	001553	712 00 1 00 001661 		RDIO	@PBUBST
   583	001554	202 00 0 00 000112 		MOVEM	112		;SAVE UBA STATUS REG
   584
   585	001555	200 00 0 00 001657 		MOVE	PBVER
   586	001556	202 00 0 00 000113 		MOVEM	113		;SAVE PRE-BOOT VERSION
   587
   588	001557	200 00 0 00 001655 		MOVE	PBRHSV
   589	001560	202 00 0 00 000036 		MOVEM	MSRH		;REINSTALL RH-11 BASE ADDRESS
   590	001561	200 00 0 00 001656 		MOVE	PBDRSV
   591	001562	202 00 0 00 000037 		MOVEM	MSDRIVE		;REINSTALL DRIVE NUMBER
   592	001563	200 00 0 00 001654 		MOVE	PBKPAL
   593	001564	202 00 0 00 000031 		MOVEM	KPALIVE		;REINSTALL KEEP-ALIVE
   594
   595	001565	254 00 1 00 000017 		JRST	@17		;HALT AT APPROPRIATE HALT
SMPREB	DECSYSTEM 2020 DIAGNOSTICS PRE-BOOT PROGRAM, VER 0,2	MACRO %53(1020) 10:57 19-Feb-79 Page 15
SMPREB	MAC	27-Oct-78 11:53		PRE-BOOT PROGRAM TO BE WRITTEN ON THE DISK                                         SEQ 0291

   596
   597					;CLEAR ALL ACCUMULATOR BLOCKS
   598
   599	001566	200 00 0 03 000001 	PBDONE:!MOVE	1(T3)		;GET START ADDRESS
   600	001567	202 00 0 00 000020 		MOVEM	20		;SAVE
   601
   602	001570	701 03 0 00 001644 		WRUBR	PBACB7
   603	001571	264 00 0 00 001620 		JSR	PBWRAC		;CLEAR AC BLOCK 7
   604
   605	001572	701 03 0 00 001645 		WRUBR	PBACB6
   606	001573	264 00 0 00 001620 		JSR	PBWRAC		;CLEAR AC BLOCK 6
   607
   608	001574	701 03 0 00 001646 		WRUBR	PBACB5
   609	001575	264 00 0 00 001620 		JSR	PBWRAC		;CLEAR AC BLOCK 5
   610
   611	001576	701 03 0 00 001647 		WRUBR	PBACB4
   612	001577	264 00 0 00 001620 		JSR	PBWRAC		;CLEAR AC BLOCK 4
   613
   614	001600	701 03 0 00 001650 		WRUBR	PBACB3
   615	001601	264 00 0 00 001620 		JSR	PBWRAC		;CLEAR AC BLOCK 3
   616
   617	001602	701 03 0 00 001651 		WRUBR	PBACB2
   618	001603	264 00 0 00 001620 		JSR	PBWRAC		;CLEAR AC BLOCK 2
   619
   620	001604	701 03 0 00 001652 		WRUBR	PBACB1
   621	001605	264 00 0 00 001620 		JSR	PBWRAC		;CLEAR AC BLOCK 1
   622
   623	001606	701 03 0 00 001653 		WRUBR	PBACB0
   624	001607	264 00 0 00 001620 		JSR	PBWRAC		;CLEAR AC BLOCK 0
   625
   626					;REINSTALL 8080 PARAMETERS
   627
   628	001610	200 00 0 00 001655 		MOVE	PBRHSV
   629	001611	202 00 0 00 000036 		MOVEM	MSRH		;REINSTALL RH-11 BASE ADDRESS
   630	001612	200 00 0 00 001656 		MOVE	PBDRSV
   631	001613	202 00 0 00 000037 		MOVEM	MSDRIVE		;REINSTALL DRIVE NUMBER
   632	001614	200 00 0 00 001654 		MOVE	PBKPAL
   633	001615	202 00 0 00 000031 		MOVEM	KPALIVE		;REINSTALL KEEP-ALIVE
   634
   635					;NOW START CODE JUST READ IN
   636
   637	001616	400 00 0 00 000000 		SETZ
   638	001617	254 00 1 00 000020 		JRST	@20		;NOW START BOOT
   639
   640					;AC BLOCK CLEAR SUBROUTINE
   641
   642	001620	000000	000000		PBWRAC:!0
   643	001621	205 17 0 00 777761 		MOVSI	17,-17
   644	001622	402 00 0 17 000000 		SETZM	(17)		;ZERO AC'S
   645	001623	253 17 0 00 001622 		AOBJN	17,.-1
   646	001624	402 00 0 00 000017 		SETZM	17
   647	001625	254 02 1 00 001620 		JRSTF	@PBWRAC
SMPREB	DECSYSTEM 2020 DIAGNOSTICS PRE-BOOT PROGRAM, VER 0,2	MACRO %53(1020) 10:57 19-Feb-79 Page 16
SMPREB	MAC	27-Oct-78 11:53		PRE-BOOT PROGRAM TO BE WRITTEN ON THE DISK                                         SEQ 0292

   648
   649					;PRE-BOOT PARAMETERS AND STORAGE
   650
   651	001626	000000	000000		PBZERO:!0			;CONSTANT ZERO TEST WORD
   652	001627	777777	777777		PBMONE:!-1			;CONSTANT ONE TEST WORD
   653	001630	000001	000000		PBLONE:!1,,0			;CONSTANT LEFT HALF ONE
   654	001631	777777	776000		PBNEG:!	-2000			;CONSTANT MINUS 2000
   655	001632	000000	140000		PBIOR:!	0,,140000		;CONSTANT FOR IORI CHECK
   656	001633	111111	111111		PBONES:!111111,,111111		;CONSTANT ONES TEST WORD
   657	001634	222222	222222		PBTWOS:!222222,,222222		;CONSTANT TWOS TEST WORD
   658	001635	333333	333333		PBTHRE:!333333,,333333		;CONSTANT THREES TEST WORD
   659	001636	444444	444444		PBFOUR:!444444,,444444		;CONSTANT FOURS TEST WORD
   660	001637	555555	555555		PBFIVE:!555555,,555555		;CONSTANT FIVES TEST WORD
   661	001640	666666	666666		PBSIX:!	666666,,666666		;CONSTANT SIXES TEST WORD
   662	001641	000001	000001		PB11:!	1,,1			;CONSTANT ONE IN EACH HALF
   663	001642	777761	000000		PB17:!	-17,,0			;CONSTANT AC'S AOBJN POINTER
   664	001643	000000	001317		PBSPC:!	0,,PBJSR		;CONSTANT FOR SUBROUTINE TEST PC
   665
   666	001644	407000	000000		PBACB7:!	1B0!7B8		;WRUBR ARGUMENTS
   667	001645	406000	000000		PBACB6:!	1B0!6B8
   668	001646	405000	000000		PBACB5:!	1B0!5B8
   669	001647	404000	000000		PBACB4:!	1B0!4B8
   670	001650	403000	000000		PBACB3:!	1B0!3B8
   671	001651	402000	000000		PBACB2:!	1B0!2B8
   672	001652	401000	000000		PBACB1:!	1B0!1B8
   673	001653	400000	000000		PBACB0:!	1B0!0B8
   674
   675	001654	000000	000000		PBKPAL:!	0		;KEEP-ALIVE & STATUS WORD
   676	001655	000000	000000		PBRHSV:!	0		;RH-11 BASE ADDRESS
   677	001656	000000	000000		PBDRSV:!	0		;DRIVE NUMBER
   678
   679	001657	000000	000002		PBVER:!	MCNVER,,DECVER		;PRE-BOOT VERSION
   680
   681	001660	000001	763000		PBUBP0:!	1,,763000	;ADDRESS OF FIRST WINDOW
   682	001661	000001	763100		PBUBST:!	1,,763100	;ADDRESS OF UBA STATUS
   683
   684	001662				SMPBPG:
   685	001662	000000	000000		PBPAG:!		0		;DISK ADDRESS AND MEMORY ADDRESS POINTERS
   686	001663				PBPAGX:!	BLOCK	114	;STORAGE BLOCK
   687	000777'					DEPHASE
   688	000777'	000000	000000		SMPEND:	0			;ENDING REFERENCE ADDRESS
   689						END

NO ERRORS DETECTED

PROGRAM BREAK IS 001000
CPU TIME USED 00:02.255

18P CORE USED

BC2RES	   104#
BOORG	    37#                                                                                                            SEQ 0293
DECVER	     4#	    10	   679
FMT22	    57#
KPALIV	    46#	   400	   593	   633
MCNVER	     3#	    10	   679
MCPE	    54#	   535
MSDRIV	    48#	   403	   591	   631
MSRH	    47#	   393	   589	   629
MSSLAV	    49#
P1	    88#	   488	   491	   494	   497	   498	   511	   513	   516	   519	   530	   531	   544	   547
	   567	   569	   571	   573	   575	   577
PB11	   220	   662#
PB17	   342	   663#
PBACB0	   623	   673#
PBACB1	   620	   672#
PBACB2	   617	   671#
PBACB3	   614	   670#
PBACB4	   611	   669#
PBACB5	   608	   668#
PBACB6	   605	   667#
PBACB7	   602	   666#
PBBADR	   524	   553#
PBBITS	    92#	   432	   441	   448	   457	   465	   467	   477	   478	   480
PBDONE	   508	   599#
PBDRSV	   404	   493	   546	   590	   630	   677#
PBERR	    93#	   466	   467	   468	   479	   480
PBFAIL	   539	   559#
PBFIVE	   202	   660#
PBFOUR	   198	   659#
PBHLT0	    98#	   553
PBHLT1	    99#	   559
PBHLT2	   100#	   396
PBHLT3	   101#
PBIOR	   170	   655#
PBJSR	   360#	   368	   369	   664
PBKPAL	   401	   592	   632	   675#
PBLIM	    91#	   431	   436	   440	   447	   452	   456	   470	   482
PBLONE	   161	   653#
PBMADR	    90#	   430	   435	   439	   446	   451	   455	   465	   466	   470	   471	   477	   478	   479
	   482	   483
PBMONE	   126	   210	   336	   420	   425	   652#
PBNEG	   165	   654#
PBONES	   185	   186	   189	   193	   197	   201	   205	   209	   656#
PBPAG	   103	   502	   685#
PBPAGP	   103#
PBPAGX	   686#
PBREAD	   507#	   536	   549
PBRHSV	   394	   488	   588	   628	   676#
PBRTRY	   543#
PBSIX	   206	   228	   661#
PBSPC	   366	   664#
PBSTA1	   460	   488#
PBSTAR	    96	   108#
PBSTRT	    96#                                                                                                            SEQ 0294
PBTHRE	   194	   658#
PBTST1	   433	   442	   449	   458	   464#	   471	   472
PBTST2	   437	   453	   476#	   483	   484
PBTWOS	   190	   657#
PBUBP0	   397	   527	   580	   681#
PBUBST	   398	   582	   682#
PBVER	   585	   679#
PBWRAC	   603	   606	   609	   612	   615	   618	   621	   624	   642#	   647
PBZERO	   114	   132	   225	   332	   651#
RDATA	    52#	   529
RDY	    53#	   499	   532
RHCLR	    59#	   490	   543
RIPST	    51#	   496
RPBA	    65#	   519
RPCS1	    63#	   497	   530	   531	   567
RPCS2	    67#	   491	   494	   544	   547	   569
RPDA	    66#	   511
RPDC	    73#	   513
RPDS	    68#	   498	   571
RPER1	    69#	   573
RPER2	    70#	   575
RPER3	    71#	   577
RPFC	    74#
RPOF	    72#
RPTC	    75#
RPWC	    64#	   516
SC	    56#
SMPBPG	   684#
SMPEND	    20	   688#
SMPREB	    18	    19#
T1	    82#	   490	   491	   493	   494	   496	   497	   543	   544	   546	   547
T2	    83#	   498	   499
T3	    84#	   502	   507	   510	   521	   522	   538	   554	   560	   562	   565	   599
T4	    85#	   507	   508	   511	   512	   513	   515	   516	   518	   519	   521	   523	   526	   527
	   529	   530	   531	   532	   535
T5	    86#	   503	   539
TRE	    55#	   535
UBAP0	    43#
UBSTAT	    44#
UBVBIT	    78#	   526
UNV36X	    77#	   526

NAME	     7#	    10
RDIO	    40#	   498	   531	   567	   569	   571	   573	   575	   577	   580	   582                             SEQ 0295
WRIO	    41#	   491	   494	   497	   511	   513	   516	   519	   527	   530	   544	   547
WRUBR	    39#	   602	   605	   608	   611	   614	   617	   620	   623
