	  3755	  3756	  3767	  3768	  3776	  3777	  3783	  3783#	  3784	  3788	  3789	  3790	  3801	  3802
	  3810	  3811	  3817	  3817#	  3818	  3822	  3823	  3824	  3835	  3836	  3844	  3845	  3851	  3851#    SEQ 0400
	  3852	  3856	  3857	  3858	  3869	  3870	  3878	  3879	  3885	  3885#	  3886	  3890	  3891	  3892
	  3903	  3904	  3912	  3913	  3919	  3919#	  3920	  3924	  3925	  3926	  3937	  3938	  3946	  3947
	  3953	  3953#	  3954	  3958	  3959	  3960	  3971	  3972	  3980	  3981	  3987	  3987#	  3988	  3992
	  3993	  3994	  4005	  4006	  4014	  4015	  4021	  4021#	  4022	  4026	  4027	  4028	  4039	  4040
	  4048	  4049	  4055	  4055#	  4056	  4060	  4061	  4062	  4073	  4074	  4082	  4083	  4089	  4089#
	  4090	  4094	  4095	  4096	  4107	  4108	  4116	  4117	  4123	  4123#	  4124	  4128	  4129	  4130
	  4141	  4142	  4150	  4151	  4157	  4157#	  4158	  4162	  4163	  4164	  4175	  4176	  4184	  4185
	  4191	  4191#	  4192	  4196	  4197	  4198	  4209	  4210	  4218	  4219	  4225	  4225#	  4226	  4230
	  4231	  4232	  4243	  4244	  4252	  4253	  4259	  4259#	  4260	  4264	  4265	  4266	  4277	  4278
	  4286	  4287	  4293	  4293#	  4294	  4298	  4299	  4300	  4311	  4312	  4320	  4321	  4327	  4327#
	  4328	  4332	  4333	  4334	  4345	  4346	  4354	  4355	  4361	  4361#	  4362	  4366	  4367	  4368
	  4379	  4380	  4388	  4389	  4395	  4395#	  4396	  4400	  4401	  4402	  4413	  4414	  4422	  4423
	  4429	  4429#	  4430	  4434	  4435	  4436	  4447	  4448	  4456	  4457	  4463	  4463#	  4464	  4468
	  4469	  4470	  4481	  4482	  4490	  4491	  4501#	  4515	  4515#	  4516	  4516#	  4519	  4520	  4521
	  4528	  4529	  4532	  4533	  4541	  4542	  4547	  4547#	  4548	  4551	  4552	  4553	  4560	  4561
	  4564	  4565	  4573	  4574	  4579	  4579#	  4580	  4583	  4584	  4585	  4592	  4593	  4596	  4597
	  4605	  4606	  4611	  4611#	  4612	  4615	  4616	  4617	  4624	  4625	  4628	  4629	  4637	  4638
	  4643	  4643#	  4644	  4647	  4648	  4649	  4656	  4657	  4660	  4661	  4669	  4670	  4675	  4675#
	  4676	  4679	  4680	  4681	  4688	  4689	  4692	  4693	  4701	  4702	  4707	  4707#	  4708	  4711
	  4712	  4713	  4720	  4721	  4724	  4725	  4733	  4734	  4739	  4739#	  4740	  4743	  4744	  4745
	  4752	  4753	  4756	  4757	  4765	  4766	  4771	  4771#	  4772	  4775	  4776	  4777	  4784	  4785
	  4788	  4789	  4797	  4798	  4803	  4803#	  4804	  4807	  4808	  4809	  4816	  4817	  4820	  4821
	  4829	  4830	  4835	  4835#	  4836	  4839	  4840	  4841	  4848	  4849	  4852	  4853	  4861	  4862
	  4867	  4867#	  4868	  4871	  4872	  4873	  4880	  4881	  4884	  4885	  4893	  4894	  4899	  4899#
	  4900	  4903	  4904	  4905	  4912	  4913	  4916	  4917	  4925	  4926	  4931	  4931#	  4932	  4935
	  4936	  4937	  4944	  4945	  4948	  4949	  4957	  4958	  4963	  4963#	  4964	  4967	  4968	  4969
	  4976	  4977	  4980	  4981	  4989	  4990	  4995	  4995#	  4996	  4999	  5000	  5001	  5008	  5009
	  5012	  5013	  5021	  5022	  5027	  5027#	  5028	  5031	  5032	  5033	  5040	  5041	  5044	  5045
	  5053	  5054	  5059	  5059#	  5060	  5063	  5064	  5065	  5072	  5073	  5076	  5077	  5085	  5086
	  5091	  5091#	  5092	  5095	  5096	  5097	  5104	  5105	  5108	  5109	  5117	  5118	  5123	  5123#
	  5124	  5127	  5128	  5129	  5136	  5137	  5140	  5141	  5149	  5150	  5155	  5155#	  5156	  5159
	  5160	  5161	  5168	  5169	  5172	  5173	  5181	  5182	  5187	  5187#	  5188	  5191	  5192	  5193
	  5200	  5201	  5204	  5205	  5213	  5214	  5219	  5219#	  5220	  5223	  5224	  5225	  5232	  5233
	  5236	  5237	  5245	  5246	  5251	  5251#	  5252	  5255	  5256	  5257	  5264	  5265	  5268	  5269
	  5277	  5278	  5283	  5283#	  5284	  5287	  5288	  5289	  5296	  5297	  5300	  5301	  5309	  5310
	  5315	  5315#	  5316	  5319	  5320	  5321	  5328	  5329	  5332	  5333	  5341	  5342	  5347	  5347#
	  5348	  5351	  5352	  5353	  5360	  5361	  5364	  5365	  5373	  5374	  5379	  5379#	  5380	  5383
	  5384	  5385	  5392	  5393	  5396	  5397	  5405	  5406	  5411	  5411#	  5412	  5415	  5416	  5417
	  5424	  5425	  5428	  5429	  5437	  5438	  5443	  5443#	  5444	  5447	  5448	  5449	  5456	  5457
	  5460	  5461	  5469	  5470	  5475	  5475#	  5476	  5479	  5480	  5481	  5488	  5489	  5492	  5493
	  5501	  5502	  5507	  5507#	  5508	  5511	  5512	  5513	  5520	  5521	  5524	  5525	  5533	  5534
	  5539	  5539#	  5540	  5543	  5544	  5545	  5552	  5553	  5556	  5557	  5565	  5566	  5571	  5571#
	  5572	  5575	  5576	  5577	  5584	  5585	  5588	  5589	  5597	  5598	  5603	  5603#	  5604	  5607
	  5608	  5609	  5616	  5617	  5620	  5621	  5629	  5630	  5635	  5635#	  5636	  5639	  5640	  5641
	  5648	  5649	  5652	  5653	  5661	  5662	  5672#	  5688	  5688#	  5689	  5689#	  5692	  5693	  5694
	  5695	  5696	  5703	  5704	  5707	  5708	  5716	  5717	  5722	  5722#	  5723	  5726	  5727	  5728
	  5729	  5730	  5737	  5738	  5741	  5742	  5750	  5751	  5756	  5756#	  5757	  5760	  5761	  5762
	  5763	  5764	  5771	  5772	  5775	  5776	  5784	  5785	  5790	  5790#	  5791	  5794	  5795	  5796
	  5797	  5798	  5805	  5806	  5809	  5810	  5818	  5819	  5824	  5824#	  5825	  5828	  5829	  5830
	  5831	  5832	  5839	  5840	  5843	  5844	  5852	  5853	  5858	  5858#	  5859	  5862	  5863	  5864
	  5865	  5866	  5873	  5874	  5877	  5878	  5886	  5887	  5892	  5892#	  5893	  5896	  5897	  5898
	  5899	  5900	  5907	  5908	  5911	  5912	  5920	  5921	  5926	  5926#	  5927	  5930	  5931	  5932
	  5933	  5934	  5941	  5942	  5945	  5946	  5954	  5955	  5960	  5960#	  5961	  5964	  5965	  5966     SEQ 0401
	  5967	  5968	  5975	  5976	  5979	  5980	  5988	  5989	  5994	  5994#	  5995	  5998	  5999	  6000
	  6001	  6002	  6009	  6010	  6013	  6014	  6022	  6023	  6028	  6028#	  6029	  6032	  6033	  6034
	  6035	  6036	  6043	  6044	  6047	  6048	  6056	  6057	  6062	  6062#	  6063	  6066	  6067	  6068
	  6069	  6070	  6077	  6078	  6081	  6082	  6090	  6091	  6096	  6096#	  6097	  6100	  6101	  6102
	  6103	  6104	  6111	  6112	  6115	  6116	  6124	  6125	  6130	  6130#	  6131	  6134	  6135	  6136
	  6137	  6138	  6145	  6146	  6149	  6150	  6158	  6159	  6164	  6164#	  6165	  6168	  6169	  6170
	  6171	  6172	  6179	  6180	  6183	  6184	  6192	  6193	  6198	  6198#	  6199	  6202	  6203	  6204
	  6205	  6206	  6213	  6214	  6217	  6218	  6226	  6227	  6232	  6232#	  6233	  6236	  6237	  6238
	  6239	  6240	  6247	  6248	  6251	  6252	  6260	  6261	  6266	  6266#	  6267	  6270	  6271	  6272
	  6273	  6274	  6281	  6282	  6285	  6286	  6294	  6295	  6300	  6300#	  6301	  6304	  6305	  6306
	  6307	  6308	  6315	  6316	  6319	  6320	  6328	  6329	  6334	  6334#	  6335	  6338	  6339	  6340
	  6341	  6342	  6349	  6350	  6353	  6354	  6362	  6363	  6368	  6368#	  6369	  6372	  6373	  6374
	  6375	  6376	  6383	  6384	  6387	  6388	  6396	  6397	  6402	  6402#	  6403	  6406	  6407	  6408
	  6409	  6410	  6417	  6418	  6421	  6422	  6430	  6431	  6436	  6436#	  6437	  6440	  6441	  6442
	  6443	  6444	  6451	  6452	  6455	  6456	  6464	  6465	  6470	  6470#	  6471	  6474	  6475	  6476
	  6477	  6478	  6485	  6486	  6489	  6490	  6498	  6499	  6504	  6504#	  6505	  6508	  6509	  6510
	  6511	  6512	  6519	  6520	  6523	  6524	  6532	  6533	  6538	  6538#	  6539	  6542	  6543	  6544
	  6545	  6546	  6553	  6554	  6557	  6558	  6566	  6567	  6572	  6572#	  6573	  6576	  6577	  6578
	  6579	  6580	  6587	  6588	  6591	  6592	  6600	  6601	  6606	  6606#	  6607	  6610	  6611	  6612
	  6613	  6614	  6621	  6622	  6625	  6626	  6634	  6635	  6640	  6640#	  6641	  6644	  6645	  6646
	  6647	  6648	  6655	  6656	  6659	  6660	  6668	  6669	  6674	  6674#	  6675	  6678	  6679	  6680
	  6681	  6682	  6689	  6690	  6693	  6694	  6702	  6703	  6708	  6708#	  6709	  6712	  6713	  6714
	  6715	  6716	  6723	  6724	  6727	  6728	  6736	  6737	  6742	  6742#	  6743	  6746	  6747	  6748
	  6749	  6750	  6757	  6758	  6761	  6762	  6770	  6771	  6776	  6776#	  6777	  6780	  6781	  6782
	  6783	  6784	  6791	  6792	  6795	  6796	  6804	  6805	  6810	  6810#	  6811	  6814	  6815	  6816
	  6817	  6818	  6825	  6826	  6829	  6830	  6838	  6839	  6844	  6844#	  6845	  6848	  6849	  6850
	  6851	  6852	  6859	  6860	  6863	  6864	  6872	  6873	  6878	  6878#	  6879	  6882	  6883	  6884
	  6885	  6886	  6893	  6894	  6897	  6898	  6906	  6907	  6917#	  6936	  6936#	  6938	  6938#	  6942
	  6943	  6944	  6945	  6946	  6957	  6958	  6966	  6967	  6972	  6972#	  6974	  6978	  6979	  6980
	  6981	  6982	  6993	  6994	  7002	  7003	  7008	  7008#	  7010	  7014	  7015	  7016	  7017	  7018
	  7029	  7030	  7038	  7039	  7044	  7044#	  7046	  7050	  7051	  7052	  7053	  7054	  7065	  7066
	  7074	  7075	  7080	  7080#	  7082	  7086	  7087	  7088	  7089	  7090	  7101	  7102	  7110	  7111
	  7116	  7116#	  7118	  7122	  7123	  7124	  7125	  7126	  7137	  7138	  7146	  7147	  7152	  7152#
	  7154	  7158	  7159	  7160	  7161	  7162	  7173	  7174	  7182	  7183	  7188	  7188#	  7190	  7194
	  7195	  7196	  7197	  7198	  7209	  7210	  7218	  7219	  7224	  7224#	  7226	  7230	  7231	  7232
	  7233	  7234	  7245	  7246	  7254	  7255	  7260	  7260#	  7262	  7266	  7267	  7268	  7269	  7270
	  7281	  7282	  7290	  7291	  7296	  7296#	  7298	  7302	  7303	  7304	  7305	  7306	  7317	  7318
	  7326	  7327	  7332	  7332#	  7334	  7338	  7339	  7340	  7341	  7342	  7353	  7354	  7362	  7363
	  7368	  7368#	  7370	  7374	  7375	  7376	  7377	  7378	  7389	  7390	  7398	  7399	  7404	  7404#
	  7406	  7410	  7411	  7412	  7413	  7414	  7425	  7426	  7434	  7435	  7440	  7440#	  7442	  7446
	  7447	  7448	  7449	  7450	  7461	  7462	  7470	  7471	  7476	  7476#	  7478	  7482	  7483	  7484
	  7485	  7486	  7497	  7498	  7506	  7507	  7512	  7512#	  7514	  7518	  7519	  7520	  7521	  7522
	  7533	  7534	  7542	  7543	  7548	  7548#	  7550	  7554	  7555	  7556	  7557	  7558	  7569	  7570
	  7578	  7579	  7584	  7584#	  7586	  7590	  7591	  7592	  7593	  7594	  7605	  7606	  7614	  7615
	  7620	  7620#	  7622	  7626	  7627	  7628	  7629	  7630	  7641	  7642	  7650	  7651	  7656	  7656#
	  7658	  7662	  7663	  7664	  7665	  7666	  7677	  7678	  7686	  7687	  7692	  7692#	  7694	  7698
	  7699	  7700	  7701	  7702	  7713	  7714	  7722	  7723	  7728	  7728#	  7730	  7734	  7735	  7736
	  7737	  7738	  7749	  7750	  7758	  7759	  7764	  7764#	  7766	  7770	  7771	  7772	  7773	  7774
	  7785	  7786	  7794	  7795	  7800	  7800#	  7802	  7806	  7807	  7808	  7809	  7810	  7821	  7822
	  7830	  7831	  7836	  7836#	  7838	  7842	  7843	  7844	  7845	  7846	  7857	  7858	  7866	  7867
	  7872	  7872#	  7874	  7878	  7879	  7880	  7881	  7882	  7893	  7894	  7902	  7903	  7908	  7908#
	  7910	  7914	  7915	  7916	  7917	  7918	  7929	  7930	  7938	  7939	  7944	  7944#	  7946	  7950
	  7951	  7952	  7953	  7954	  7965	  7966	  7974	  7975	  7980	  7980#	  7982	  7986	  7987	  7988     SEQ 0402
	  7989	  7990	  8001	  8002	  8010	  8011	  8016	  8016#	  8018	  8022	  8023	  8024	  8025	  8026
	  8037	  8038	  8046	  8047	  8052	  8052#	  8054	  8058	  8059	  8060	  8061	  8062	  8073	  8074
	  8082	  8083	  8088	  8088#	  8090	  8094	  8095	  8096	  8097	  8098	  8109	  8110	  8118	  8119
	  8124	  8124#	  8126	  8130	  8131	  8132	  8133	  8134	  8145	  8146	  8154	  8155	  8160	  8160#
	  8162	  8166	  8167	  8168	  8169	  8170	  8181	  8182	  8190	  8191	  8196	  8196#	  8198	  8202
	  8203	  8204	  8205	  8206	  8217	  8218	  8226	  8227	  8237#	  8256	  8256#	  8258	  8258#	  8262
	  8263	  8264	  8265	  8266	  8273	  8274	  8292	  8292#	  8294	  8298	  8299	  8300	  8301	  8302
	  8309	  8310	  8328	  8328#	  8330	  8334	  8335	  8336	  8337	  8338	  8345	  8346	  8364	  8364#
	  8366	  8370	  8371	  8372	  8373	  8374	  8381	  8382	  8400	  8400#	  8402	  8406	  8407	  8408
	  8409	  8410	  8417	  8418	  8436	  8436#	  8438	  8442	  8443	  8444	  8445	  8446	  8453	  8454
	  8472	  8472#	  8474	  8478	  8479	  8480	  8481	  8482	  8489	  8490	  8508	  8508#	  8510	  8514
	  8515	  8516	  8517	  8518	  8525	  8526	  8544	  8544#	  8546	  8550	  8551	  8552	  8553	  8554
	  8561	  8562	  8580	  8580#	  8582	  8586	  8587	  8588	  8589	  8590	  8597	  8598	  8616	  8616#
	  8618	  8622	  8623	  8624	  8625	  8626	  8633	  8634	  8652	  8652#	  8654	  8658	  8659	  8660
	  8661	  8662	  8669	  8670	  8688	  8688#	  8690	  8694	  8695	  8696	  8697	  8698	  8705	  8706
	  8724	  8724#	  8726	  8730	  8731	  8732	  8733	  8734	  8741	  8742	  8760	  8760#	  8762	  8766
	  8767	  8768	  8769	  8770	  8777	  8778	  8796	  8796#	  8798	  8802	  8803	  8804	  8805	  8806
	  8813	  8814	  8832	  8832#	  8834	  8838	  8839	  8840	  8841	  8842	  8849	  8850	  8868	  8868#
	  8870	  8874	  8875	  8876	  8877	  8878	  8885	  8886	  8904	  8904#	  8906	  8910	  8911	  8912
	  8913	  8914	  8921	  8922	  8940	  8940#	  8942	  8946	  8947	  8948	  8949	  8950	  8957	  8958
	  8976	  8976#	  8978	  8982	  8983	  8984	  8985	  8986	  8993	  8994	  9012	  9012#	  9014	  9018
	  9019	  9020	  9021	  9022	  9029	  9030	  9048	  9048#	  9050	  9054	  9055	  9056	  9057	  9058
	  9065	  9066	  9084	  9084#	  9086	  9090	  9091	  9092	  9093	  9094	  9101	  9102	  9120	  9120#
	  9122	  9126	  9127	  9128	  9129	  9130	  9137	  9138	  9156	  9156#	  9158	  9162	  9163	  9164
	  9165	  9166	  9173	  9174	  9192	  9192#	  9194	  9198	  9199	  9200	  9201	  9202	  9209	  9210
	  9228	  9228#	  9230	  9234	  9235	  9236	  9237	  9238	  9245	  9246	  9264	  9264#	  9266	  9270
	  9271	  9272	  9273	  9274	  9281	  9282	  9300	  9300#	  9302	  9306	  9307	  9308	  9309	  9310
	  9317	  9318	  9336	  9336#	  9338	  9342	  9343	  9344	  9345	  9346	  9353	  9354	  9372	  9372#
	  9374	  9378	  9379	  9380	  9381	  9382	  9389	  9390	  9408	  9408#	  9410	  9414	  9415	  9416
	  9417	  9418	  9425	  9426	  9444	  9444#	  9446	  9450	  9451	  9452	  9453	  9454	  9461	  9462
	  9480	  9480#	  9482	  9486	  9487	  9488	  9489	  9490	  9497	  9498	  9516	  9516#	  9518	  9522
	  9523	  9524	  9525	  9526	  9533	  9534	  9561#	  9581	  9581#	  9588	  9595	  9595#	  9602	  9620#
	  9639	  9639#	  9647	  9653	  9653#	  9661	  9677#	  9694	  9694#	  9701	  9706	  9706#	  9713	  9776#
	  9794	  9794#	  9796	  9796#	  9807	  9807#	  9809	  9830#	  9849	  9849#	  9851	  9863	  9863#	  9865
	  9887#	  9909	  9909#	  9925	  9925#	  9953#	  9970	  9970#	  9974	  9982	  9982#	  9986	 10003#	 10020
	 10020#	 10022	 10033	 10033#	 10035	 10056#	 10077	 10077#	 10079	 10079#	 10083	 10093	 10093#	 10095
	 10099	 10120#	 10137	 10137#	 10142	 10149	 10149#	 10154	 10366#	 10387	 10387#	 10398	 10403	 10403#
	 10414	 10516#	 10536	 10536#	 10543	 10551	 10551#	 10558	 10567#	 10587	 10587#	 10592	 10602	 10602#
	 10607	 10617#	 10637	 10637#	 10644	 10652	 10652#	 10659	 10711#	 10732	 10732#	 10737	 10748	 10748#
	 10753	 10774#	 10795	 10795#	 10803	 10811	 10811#	 10819	 10838#	 10859	 10859#	 10864	 10875	 10875#
	 10880	 10901#	 10922	 10922#	 10927	 10938	 10938#	 10943	 11488#	 11507	 11507#	 11509	 11509#	 11521
	 11521#	 11523	 11786#	 11804	 11804#	 11806	 11817	 11817#	 11819	 11840#	 11859	 11859#	 11862	 11873
	 11873#	 11876	 12427#	 12430	 12474#	 12492	 12492#	 12498	 12505	 12505#	 12511	 12649#	 12668	 12668#
	 12670	 12682	 12682#	 12684	 12707#	 12735	 12735#	 12741	 12757	 12757#	 12763	 12791#	 12811	 12811#
	 12816	 12825	 12825#	 12830	 12853#	 12880	 12880#	 12886	 12901	 12901#	 12907	 12933#	 12953	 12953#
	 12963	 12968	 12968#	 12978	 13117#	 13136	 13136#	 13138	 13150	 13150#	 13152	 13255#	 13276	 13276#
	 13279	 13292	 13292#	 13295	 13308	 13308#	 13311	 13324	 13324#	 13327	 13340	 13340#	 13343	 13356
	 13356#	 13359	 13372	 13372#	 13375	 13388	 13388#	 13391	 13404	 13404#	 13407	 13420	 13420#	 13423
	 13451#	 13470	 13470#	 13473	 13484	 13484#	 13487	 13498	 13498#	 13501	 13512	 13512#	 13515	 13526
	 13526#	 13529	 13633#	 13655	 13655#	 13657	 13657#	 13659	 13672	 13672#	 13674	 13676	 13689	 13689#
	 13691	 13693	 13706	 13706#	 13708	 13710	 13723	 13723#	 13725	 13727	 13754#	 13776	 13776#	 13779
	 13793	 13793#	 13796	 13810	 13810#	 13813	 13827	 13827#	 13830	 13844	 13844#	 13847	 13876#	 13895
	 13895#	 13898	 13909	 13909#	 13912	 13923	 13923#	 13926	 13937	 13937#	 13940	 13951	 13951#	 13954     SEQ 0403
	 13979#	 13994	 13994#	 13996	 14004	 14004#	 14006	 14014	 14014#	 14016	 14024	 14024#	 14026	 14034
	 14034#	 14036	 14058#	 14079	 14079#	 14081	 14095	 14095#	 14097	 14111	 14111#	 14113	 14127	 14127#
	 14129	 14143	 14143#	 14145	 15313#	 15330	 15330#	 15332	 15342	 15342#	 15344	 15354	 15354#	 15356
	 15366	 15366#	 15368	 15378	 15378#	 15380	 15390	 15390#	 15392	 15402	 15402#	 15404	 15414	 15414#
	 15416	 15426	 15426#	 15428	 15438	 15438#	 15440	 15465#	 15488	 15488#	 15490	 15490#	 15492	 15506
	 15506#	 15508	 15510	 15524	 15524#	 15526	 15528	 15542	 15542#	 15544	 15546	 15560	 15560#	 15562
	 15564	 15593#	 15613	 15613#	 15615	 15628	 15628#	 15630	 15643	 15643#	 15645	 15658	 15658#	 15660
	 15673	 15673#	 15675	 15702#	 15723	 15723#	 15725	 15739	 15739#	 15741	 15755	 15755#	 15757	 15771
	 15771#	 15773	 15787	 15787#	 15789	 15817#	 15833	 15833#	 15837	 15845	 15845#	 15849	 15857	 15857#
	 15861	 15869	 15869#	 15873	 15881	 15881#	 15885	 15907#	 15928	 15928#	 15930	 15944	 15944#	 15946
	 15960	 15960#	 15962	 15976	 15976#	 15978	 15992	 15992#	 15994	 16022#	 16043	 16043#	 16045	 16059
	 16059#	 16061	 16075	 16075#	 16077	 16091	 16091#	 16093	 16107	 16107#	 16109
YY	  6918#	  6937	  6937#	  6939	  6939#	  6942	  6953	  6954	  6973	  6973#	  6975	  6978	  6989	  6990
	  7009	  7009#	  7011	  7014	  7025	  7026	  7045	  7045#	  7047	  7050	  7061	  7062	  7081	  7081#
	  7083	  7086	  7097	  7098	  7117	  7117#	  7119	  7122	  7133	  7134	  7153	  7153#	  7155	  7158
	  7169	  7170	  7189	  7189#	  7191	  7194	  7205	  7206	  7225	  7225#	  7227	  7230	  7241	  7242
	  7261	  7261#	  7263	  7266	  7277	  7278	  7297	  7297#	  7299	  7302	  7313	  7314	  7333	  7333#
	  7335	  7338	  7349	  7350	  7369	  7369#	  7371	  7374	  7385	  7386	  7405	  7405#	  7407	  7410
	  7421	  7422	  7441	  7441#	  7443	  7446	  7457	  7458	  7477	  7477#	  7479	  7482	  7493	  7494
	  7513	  7513#	  7515	  7518	  7529	  7530	  7549	  7549#	  7551	  7554	  7565	  7566	  7585	  7585#
	  7587	  7590	  7592	  7601	  7602	  7621	  7621#	  7623	  7626	  7628	  7637	  7638	  7657	  7657#
	  7659	  7662	  7664	  7673	  7674	  7693	  7693#	  7695	  7698	  7700	  7709	  7710	  7729	  7729#
	  7731	  7734	  7736	  7745	  7746	  7765	  7765#	  7767	  7770	  7772	  7781	  7782	  7801	  7801#
	  7803	  7806	  7808	  7817	  7818	  7837	  7837#	  7839	  7842	  7844	  7853	  7854	  7873	  7873#
	  7875	  7878	  7880	  7889	  7890	  7909	  7909#	  7911	  7914	  7916	  7925	  7926	  7945	  7945#
	  7947	  7950	  7952	  7961	  7962	  7981	  7981#	  7983	  7986	  7988	  7997	  7998	  8017	  8017#
	  8019	  8022	  8024	  8033	  8034	  8053	  8053#	  8055	  8058	  8060	  8069	  8070	  8089	  8089#
	  8091	  8094	  8096	  8105	  8106	  8125	  8125#	  8127	  8130	  8132	  8141	  8142	  8161	  8161#
	  8163	  8166	  8168	  8177	  8178	  8197	  8197#	  8199	  8202	  8204	  8213	  8214	  8238#	  8257
	  8257#	  8259	  8259#	  8262	  8277	  8278	  8286	  8287	  8293	  8293#	  8295	  8298	  8313	  8314
	  8322	  8323	  8329	  8329#	  8331	  8334	  8349	  8350	  8358	  8359	  8365	  8365#	  8367	  8370
	  8385	  8386	  8394	  8395	  8401	  8401#	  8403	  8406	  8421	  8422	  8430	  8431	  8437	  8437#
	  8439	  8442	  8457	  8458	  8466	  8467	  8473	  8473#	  8475	  8478	  8493	  8494	  8502	  8503
	  8509	  8509#	  8511	  8514	  8529	  8530	  8538	  8539	  8545	  8545#	  8547	  8550	  8565	  8566
	  8574	  8575	  8581	  8581#	  8583	  8586	  8601	  8602	  8610	  8611	  8617	  8617#	  8619	  8622
	  8637	  8638	  8646	  8647	  8653	  8653#	  8655	  8658	  8673	  8674	  8682	  8683	  8689	  8689#
	  8691	  8694	  8709	  8710	  8718	  8719	  8725	  8725#	  8727	  8730	  8745	  8746	  8754	  8755
	  8761	  8761#	  8763	  8766	  8781	  8782	  8790	  8791	  8797	  8797#	  8799	  8802	  8817	  8818
	  8826	  8827	  8833	  8833#	  8835	  8838	  8853	  8854	  8862	  8863	  8869	  8869#	  8871	  8874
	  8889	  8890	  8898	  8899	  8905	  8905#	  8907	  8910	  8912	  8925	  8926	  8934	  8935	  8941
	  8941#	  8943	  8946	  8948	  8961	  8962	  8970	  8971	  8977	  8977#	  8979	  8982	  8984	  8997
	  8998	  9006	  9007	  9013	  9013#	  9015	  9018	  9020	  9033	  9034	  9042	  9043	  9049	  9049#
	  9051	  9054	  9056	  9069	  9070	  9078	  9079	  9085	  9085#	  9087	  9090	  9092	  9105	  9106
	  9114	  9115	  9121	  9121#	  9123	  9126	  9128	  9141	  9142	  9150	  9151	  9157	  9157#	  9159
	  9162	  9164	  9177	  9178	  9186	  9187	  9193	  9193#	  9195	  9198	  9200	  9213	  9214	  9222
	  9223	  9229	  9229#	  9231	  9234	  9236	  9249	  9250	  9258	  9259	  9265	  9265#	  9267	  9270
	  9272	  9285	  9286	  9294	  9295	  9301	  9301#	  9303	  9306	  9308	  9321	  9322	  9330	  9331
	  9337	  9337#	  9339	  9342	  9344	  9357	  9358	  9366	  9367	  9373	  9373#	  9375	  9378	  9380
	  9393	  9394	  9402	  9403	  9409	  9409#	  9411	  9414	  9416	  9429	  9430	  9438	  9439	  9445
	  9445#	  9447	  9450	  9452	  9465	  9466	  9474	  9475	  9481	  9481#	  9483	  9486	  9488	  9501
	  9502	  9510	  9511	  9517	  9517#	  9519	  9522	  9524	  9537	  9538	  9546	  9547	  9562#	  9582
	  9582#	  9583	  9583#	  9590	  9596	  9596#	  9597	  9604	  9888#	  9910	  9910#	  9919	  9926	  9926#
	  9935	 12708#	 12736	 12736#	 12742	 12758	 12758#	 12764	 12792#	 12812	 12812#	 12818	 12826	 12826#    SEQ 0404
	 12832
ZZ	  9563#	  9584	  9584#	  9585	  9598	  9598#	  9599	  9621#	  9640	  9640#	  9643	  9654	  9654#	  9657
	  9678#	  9695	  9695#	  9696	  9699	  9707	  9707#	  9708	  9711	  9728#	  9743	  9743#	  9745	  9754
	  9754#	  9756	  9777#	  9795	  9795#	  9797	  9808	  9808#	  9810	  9831#	  9850	  9850#	  9852	  9864
	  9864#	  9866	  9889#	  9911	  9911#	  9912	  9912#	  9913	  9914	  9927	  9927#	  9928	  9929	  9930
	  9952#	  9969	  9969#	  9972	  9981	  9981#	  9984	 10004#	 10021	 10021#	 10023	 10034	 10034#	 10036
	 10057#	 10078	 10078#	 10080	 10080#	 10084	 10094	 10094#	 10096	 10100	 10121#	 10138	 10138#	 10140
	 10150	 10150#	 10152	 10235#	 10254	 10254#	 10258	 10264	 10269	 10269#	 10273	 10279	 10285#	 10298
	 10298#	 10300	 10307	 10307#	 10309	 10317#	 10331	 10331#	 10334	 10341	 10341#	 10344	 10367#	 10388
	 10388#	 10392	 10404	 10404#	 10408	 10471#	 10484	 10484#	 10486	 10493	 10493#	 10495	 10517#	 10537
	 10537#	 10540	 10552	 10552#	 10555	 10568#	 10588	 10588#	 10591	 10603	 10603#	 10606	 10618#	 10638
	 10638#	 10641	 10653	 10653#	 10656	 10668#	 10685	 10685#	 10688	 10698	 10698#	 10701	 10712#	 10733
	 10733#	 10736	 10749	 10749#	 10752	 10775#	 10796	 10796#	 10797	 10797#	 10800	 10812	 10812#	 10813
	 10816	 10839#	 10860	 10860#	 10863	 10876	 10876#	 10879	 10902#	 10923	 10923#	 10925	 10939	 10939#
	 10941	 10983#	 10997	 10997#	 11000	 11007	 11007#	 11010	 11026#	 11042	 11042#	 11043	 11044	 11049
	 11054	 11054#	 11055	 11056	 11061	 11078#	 11090	 11090#	 11091	 11099	 11099#	 11100	 11126#	 11148
	 11148#	 11149	 11149#	 11151	 11152	 11166	 11166#	 11167	 11169	 11170	 11205#	 11217	 11217#	 11218
	 11226	 11226#	 11227	 11246#	 11268	 11268#	 11270	 11271	 11275	 11277	 11286	 11286#	 11288	 11289
	 11293	 11295	 11315#	 11335	 11335#	 11337	 11338	 11351	 11351#	 11353	 11354	 11377#	 11397	 11397#
	 11399	 11405	 11413	 11413#	 11415	 11421	 11441#	 11456	 11456#	 11457	 11460	 11467	 11467#	 11468
	 11471	 11489#	 11508	 11508#	 11511	 11512	 11522	 11522#	 11525	 11526	 11545#	 11561	 11561#	 11562
	 11563	 11573	 11573#	 11574	 11575	 11599#	 11615	 11615#	 11617	 11620	 11627	 11627#	 11629	 11632
	 11651#	 11666	 11666#	 11667	 11670	 11677	 11677#	 11678	 11681	 11689#	 11706	 11706#	 11707	 11707#
	 11708	 11709	 11719	 11719#	 11720	 11721	 11722	 11743#	 11756	 11756#	 11758	 11760	 11765	 11765#
	 11767	 11769	 11787#	 11805	 11805#	 11807	 11818	 11818#	 11820	 11841#	 11860	 11860#	 11861	 11861#
	 11863	 11874	 11874#	 11875	 11877	 11890#	 11905	 11905#	 11906	 11911	 11916	 11916#	 11917	 11922
	 11937#	 11952	 11952#	 11953	 11956	 11963	 11963#	 11964	 11967	 11984#	 12000	 12000#	 12001	 12002
	 12012	 12012#	 12013	 12014	 12037#	 12054	 12054#	 12055	 12056	 12067	 12067#	 12068	 12069	 12090#
	 12107	 12107#	 12109	 12114	 12120	 12120#	 12122	 12127	 12143#	 12159	 12159#	 12160	 12161	 12171
	 12171#	 12172	 12173	 12198#	 12213	 12213#	 12214	 12215	 12224	 12224#	 12225	 12226	 12241#	 12263
	 12263#	 12271	 12277	 12285	 12285#	 12293	 12299	 12320#	 12336	 12336#	 12337	 12338	 12343	 12348
	 12348#	 12349	 12350	 12355	 12373#	 12389	 12389#	 12391	 12401	 12401#	 12403	 12426#	 12432	 12475#
	 12493	 12493#	 12494	 12506	 12506#	 12507	 12529#	 12551	 12551#	 12553	 12555	 12562	 12569	 12569#
	 12571	 12573	 12580	 12601#	 12616	 12616#	 12620	 12627	 12627#	 12631	 12650#	 12669	 12669#	 12672
	 12683	 12683#	 12686	 12709#	 12737	 12737#	 12740	 12759	 12759#	 12762	 12793#	 12813	 12813#	 12814
	 12827	 12827#	 12828	 12854#	 12881	 12881#	 12884	 12902	 12902#	 12905	 12934#	 12954	 12954#	 12956
	 12969	 12969#	 12971	 12995#	 13013	 13013#	 13014	 13014#	 13016	 13018	 13027	 13027#	 13028	 13030
	 13032	 13048#	 13068	 13068#	 13078	 13087	 13087#	 13097	 13118#	 13137	 13137#	 13139	 13140	 13151
	 13151#	 13153	 13154	 13177#	 13193	 13193#	 13194	 13205	 13205#	 13206	 13256#	 13277	 13277#	 13278
	 13278#	 13280	 13293	 13293#	 13294	 13296	 13309	 13309#	 13310	 13312	 13325	 13325#	 13326	 13328
	 13341	 13341#	 13342	 13344	 13357	 13357#	 13358	 13360	 13373	 13373#	 13374	 13376	 13389	 13389#
	 13390	 13392	 13405	 13405#	 13406	 13408	 13421	 13421#	 13422	 13424	 13452#	 13471	 13471#	 13472
	 13472#	 13474	 13478	 13485	 13485#	 13486	 13488	 13492	 13499	 13499#	 13500	 13502	 13506	 13513
	 13513#	 13514	 13516	 13520	 13527	 13527#	 13528	 13530	 13534	 13554#	 13568	 13568#	 13569	 13569#
	 13571	 13578	 13578#	 13579	 13581	 13588	 13588#	 13589	 13591	 13598	 13598#	 13599	 13601	 13608
	 13608#	 13609	 13611	 13634#	 13656	 13656#	 13658	 13658#	 13660	 13673	 13673#	 13675	 13677	 13690
	 13690#	 13692	 13694	 13707	 13707#	 13709	 13711	 13724	 13724#	 13726	 13728	 13755#	 13777	 13777#
	 13778	 13778#	 13780	 13786	 13794	 13794#	 13795	 13797	 13803	 13811	 13811#	 13812	 13814	 13820
	 13828	 13828#	 13829	 13831	 13837	 13845	 13845#	 13846	 13848	 13854	 13877#	 13896	 13896#	 13897
	 13899	 13900	 13904	 13910	 13910#	 13911	 13913	 13914	 13918	 13924	 13924#	 13925	 13927	 13928
	 13932	 13938	 13938#	 13939	 13941	 13942	 13946	 13952	 13952#	 13953	 13955	 13956	 13960	 13980#
	 13995	 13995#	 13998	 14005	 14005#	 14008	 14015	 14015#	 14018	 14025	 14025#	 14028	 14035	 14035#
	 14038	 14059#	 14080	 14080#	 14082	 14083	 14088	 14096	 14096#	 14098	 14099	 14104	 14112	 14112#    SEQ 0405
	 14114	 14115	 14120	 14128	 14128#	 14130	 14131	 14136	 14144	 14144#	 14146	 14147	 14152	 14173#
	 14189	 14189#	 14190	 14190#	 14192	 14201	 14201#	 14202	 14204	 14213	 14213#	 14214	 14216	 14225
	 14225#	 14226	 14228	 14237	 14237#	 14238	 14240	 14266#	 14282	 14282#	 14283	 14283#	 14284	 14285
	 14294	 14294#	 14295	 14296	 14297	 14306	 14306#	 14307	 14308	 14309	 14318	 14318#	 14319	 14320
	 14321	 14330	 14330#	 14331	 14332	 14333	 14342	 14342#	 14343	 14344	 14345	 14354	 14354#	 14355
	 14356	 14357	 14366	 14366#	 14367	 14368	 14369	 14378	 14378#	 14379	 14380	 14381	 14390	 14390#
	 14391	 14392	 14393	 14402	 14402#	 14403	 14404	 14405	 14414	 14414#	 14415	 14416	 14417	 14426
	 14426#	 14427	 14428	 14429	 14438	 14438#	 14439	 14440	 14441	 14450	 14450#	 14451	 14452	 14453
	 14462	 14462#	 14463	 14464	 14465	 14474	 14474#	 14475	 14476	 14477	 14486	 14486#	 14487	 14488
	 14489	 14498#	 14514	 14514#	 14515	 14515#	 14516	 14517	 14526	 14526#	 14527	 14528	 14529	 14538
	 14538#	 14539	 14540	 14541	 14550	 14550#	 14551	 14552	 14553	 14562	 14562#	 14563	 14564	 14565
	 14574	 14574#	 14575	 14576	 14577	 14586	 14586#	 14587	 14588	 14589	 14598	 14598#	 14599	 14600
	 14601	 14610	 14610#	 14611	 14612	 14613	 14622	 14622#	 14623	 14624	 14625	 14634	 14634#	 14635
	 14636	 14637	 14646	 14646#	 14647	 14648	 14649	 14658	 14658#	 14659	 14660	 14661	 14670	 14670#
	 14671	 14672	 14673	 14682	 14682#	 14683	 14684	 14685	 14694	 14694#	 14695	 14696	 14697	 14706
	 14706#	 14707	 14708	 14709	 14735#	 14754	 14754#	 14755	 14755#	 14756	 14757	 14769	 14769#	 14770
	 14771	 14772	 14784	 14784#	 14785	 14786	 14787	 14799	 14799#	 14800	 14801	 14802	 14814	 14814#
	 14815	 14816	 14817	 14829	 14829#	 14830	 14831	 14832	 14844	 14844#	 14845	 14846	 14847	 14859
	 14859#	 14860	 14861	 14862	 14874	 14874#	 14875	 14876	 14877	 14889	 14889#	 14890	 14891	 14892
	 14904	 14904#	 14905	 14906	 14907	 14919	 14919#	 14920	 14921	 14922	 14934	 14934#	 14935	 14936
	 14937	 14949	 14949#	 14950	 14951	 14952	 14964	 14964#	 14965	 14966	 14967	 14979	 14979#	 14980
	 14981	 14982	 14994	 14994#	 14995	 14996	 14997	 15009	 15009#	 15010	 15011	 15012	 15024#	 15043
	 15043#	 15044	 15044#	 15045	 15046	 15058	 15058#	 15059	 15060	 15061	 15073	 15073#	 15074	 15075
	 15076	 15088	 15088#	 15089	 15090	 15091	 15103	 15103#	 15104	 15105	 15106	 15118	 15118#	 15119
	 15120	 15121	 15133	 15133#	 15134	 15135	 15136	 15148	 15148#	 15149	 15150	 15151	 15163	 15163#
	 15164	 15165	 15166	 15178	 15178#	 15179	 15180	 15181	 15193	 15193#	 15194	 15195	 15196	 15208
	 15208#	 15209	 15210	 15211	 15223	 15223#	 15224	 15225	 15226	 15238	 15238#	 15239	 15240	 15241
	 15253	 15253#	 15254	 15255	 15256	 15268	 15268#	 15269	 15270	 15271	 15283	 15283#	 15284	 15285
	 15286	 15314#	 15331	 15331#	 15333	 15343	 15343#	 15345	 15355	 15355#	 15357	 15367	 15367#	 15369
	 15379	 15379#	 15381	 15391	 15391#	 15393	 15403	 15403#	 15405	 15415	 15415#	 15417	 15427	 15427#
	 15429	 15439	 15439#	 15441	 15466#	 15489	 15489#	 15491	 15491#	 15493	 15499	 15507	 15507#	 15509
	 15511	 15517	 15525	 15525#	 15527	 15529	 15535	 15543	 15543#	 15545	 15547	 15553	 15561	 15561#
	 15563	 15565	 15571	 15594#	 15614	 15614#	 15616	 15629	 15629#	 15631	 15644	 15644#	 15646	 15659
	 15659#	 15661	 15674	 15674#	 15676	 15703#	 15724	 15724#	 15726	 15740	 15740#	 15742	 15756	 15756#
	 15758	 15772	 15772#	 15774	 15788	 15788#	 15790	 15818#	 15834	 15834#	 15836	 15846	 15846#	 15848
	 15858	 15858#	 15860	 15870	 15870#	 15872	 15882	 15882#	 15884	 15908#	 15929	 15929#	 15931	 15937
	 15945	 15945#	 15947	 15953	 15961	 15961#	 15963	 15969	 15977	 15977#	 15979	 15985	 15993	 15993#
	 15995	 16001	 16023#	 16044	 16044#	 16046	 16047	 16054	 16060	 16060#	 16062	 16063	 16070	 16076
	 16076#	 16078	 16079	 16086	 16092	 16092#	 16094	 16095	 16102	 16108	 16108#	 16110	 16111	 16118
$$MUUO	   680#
$$OUTE	   686#
$$TAX1	   698#
$$TAX2	   699#
$$TOGG	   692#
$$UUO	   669#
$ACC0	   507#
$ACF	 16225#
$BEND1	   477#
$BEND2	    71	   478#	 16278
$CHRIN	   568#
$CRLF	   570#
$DEVCH	   394#
$DSKUP	   447#                                                                                                            SEQ 0406
$DVOFF	   564#
$EMODE	   445#
$FFF	   572#
$IBUF	   620#
$INEXT	   622#
$INNM	   621#
$ITRHL	   488#
$ITRX1	   489#
$LPAPE	 16284
$MMAP	   448#
$MODVL	   443#
$MODVU	   444#
$OBUF	   611#
$ONETM	   471#
$OUTEX	   613#
$OUTNM	   612#
$PAPER	   394
$PARER	   495#
$PNAME	   441#
$PSHER	   499#
$PVER	   442#
$RSRTX	   491#
$RSRTY	   492#
$SPAG1	   511#
$START	   408#
$SVAPR	   509#
$SVPAG	   510#
$SVPI	   508#
$SVUPC	   514#	 16132	 16136	 16162
$SVUUO	   513#	 16141	 16173	 16201
$TABF	   571#
$TTCHR	   567#
$TWCNT	   563#
$TYPNB	   569#
$UMODE	   446#
$UORTX	   486#
$USRHL	   490#
$UUOER	   487#	   528
$VTF	   573#
%AC1F	 16226#
%ACS1A	 16143#	 16143	 16187
%ACTFL	   520#
%ACTUL	   521#
%ALF	 16231#
%AR1F	 16230#
%ARF	 16229#
%COREC	   519#
%CORFL	   518#
%DISCR	   522#
%E1F	 16228#
%EEF	 16232#
%EF	 16227#
%ER4X	 16207	 16212#                                                                                                    SEQ 0407
%ER5X	 16205	 16214#
%ER6X	 16203	 16216#
%ER7X	 16209#	 16213	 16215	 16217
%ERAC0	 16128#	 16128	 16144	 16178	 16268
%ERAC1	 16129#	 16129	 16145	 16256
%ERAC2	 16130#	 16130	 16255
%ERFST	 16151#	 16151	 16153
%ERHI1	   661#
%ERHI2	   662#
%ERHI3	   663#
%ERMOR	 16183	 16210	 16239#
%ERMS1	 16148#	 16274
%ERMS2	 16171#
%ERMS3	 16189	 16196#
%ERRS1	 16140	 16242#	 16273
%ERRS2	 16255#
%ERRS4	 16147	 16271#
%ERRS5	 16259	 16263	 16268#
%ERRS6	 16266	 16276#
%FF	 16233#
%FLTTB	 16191	 16222#
%NODES	 16223#
.JB41	   394#
.JBAPR	   394#
.JBCNI	   394#
.JBDDT	   394#
.JBFF	   394#
.JBOPC	   394#
.JBREL	   394#
.JBREN	   394#
.JBSA	   394#
.JBSYM	   394#
.JBTPC	   394#
.JBUSY	   394#
.JBUUO	   394#
.JBVER	   394#

APRID	   394#
BCIO	   394#                                                                                                            SEQ 0408
BCIOB	   394#
BSIO	   394#
BSIOB	   394#
CFLUSH	   316#
CINVAL	   315#
CLOKOP	   310#
CLRPT	   394#
CWRTBI	   317#
DROPDV	   277#	   723
ENDUUO	   323#	   476
EOPUUO	   324#	   478
ER1	    34#
ER10	    41#
ER11	    42#
ER12	    43#
ER13	    44#	 10434	 10455	 10547	 10562	 10598	 10613	 10648	 10663	 10694	 10707	 10744	 10760	 10807
	 10823	 10871	 10887	 10934	 10950	 10964	 11157	 11175	 11280	 11282	 11298	 11300	 11347	 11363
	 11409	 11425	 12281	 12303	 12455	 12457	 12559	 12561	 12577	 12579	 12751	 12753	 12773	 12775
	 12890	 12892	 12911	 12913	 12962	 12977	 13023	 13037	 13082	 13101	 13232	 13234
ER2	    35#
ER3	    36#	   803	   837	   871	   905	   939	   973	  1007	  1041	  1075	  1109	  1143	  1177	  1211
	  1245	  1279	  1313	  1347	  1381	  1415	  1449	  1483	  1517	  1551	  1585	  1619	  1653	  1687
	  1721	  1755	  1789	  1823	  1857	  1891	  1925	  1959	  1993	  2050	  2084	  2118	  2152	  2186
	  2220	  2254	  2288	  2322	  2356	  2390	  2424	  2458	  2492	  2526	  2560	  2594	  2628	  2662
	  2696	  2730	  2764	  2798	  2832	  2866	  2900	  2934	  2968	  3002	  3036	  3070	  3104	  3138
	  3172	  3206	  3240	  3296	  3330	  3364	  3398	  3432	  3466	  3500	  3534	  3568	  3602	  3636
	  3670	  3704	  3738	  3772	  3806	  3840	  3874	  3908	  3942	  3976	  4010	  4044	  4078	  4112
	  4146	  4180	  4214	  4248	  4282	  4316	  4350	  4384	  4418	  4452	  4486	  4537	  4569	  4601
	  4633	  4665	  4697	  4729	  4761	  4793	  4825	  4857	  4889	  4921	  4953	  4985	  5017	  5049
	  5081	  5113	  5145	  5177	  5209	  5241	  5273	  5305	  5337	  5369	  5401	  5433	  5465	  5497
	  5529	  5561	  5593	  5625	  5657	  5712	  5746	  5780	  5814	  5848	  5882	  5916	  5950	  5984
	  6018	  6052	  6086	  6120	  6154	  6188	  6222	  6256	  6290	  6324	  6358	  6392	  6426	  6460
	  6494	  6528	  6562	  6596	  6630	  6664	  6698	  6732	  6766	  6800	  6834	  6868	  6902	  6962
	  6998	  7034	  7070	  7106	  7142	  7178	  7214	  7250	  7286	  7322	  7358	  7394	  7430	  7466
	  7502	  7538	  7574	  7610	  7646	  7682	  7718	  7754	  7790	  7826	  7862	  7898	  7934	  7970
	  8006	  8042	  8078	  8114	  8150	  8186	  8222	  8282	  8318	  8354	  8390	  8426	  8462	  8498
	  8534	  8570	  8606	  8642	  8678	  8714	  8750	  8786	  8822	  8858	  8894	  8930	  8966	  9002
	  9038	  9074	  9110	  9146	  9182	  9218	  9254	  9290	  9326	  9362	  9398	  9434	  9470	  9506
	  9542	  9589	  9603	  9649	  9663	  9702	  9714	  9750	  9761	  9803	  9816	  9859	  9873	  9921
	  9937	  9975	  9987	 10029	 10042	 10087	 10103	 10143	 10155	 10198	 10216	 10261	 10276	 10303
	 10312	 10395	 10411	 10430	 10449	 10489	 10498	 10544	 10559	 10596	 10611	 10645	 10660	 10692
	 10705	 10741	 10757	 10804	 10820	 10868	 10884	 10931	 10947	 10960	 11003	 11013	 11048	 11060
	 11095	 11104	 11159	 11177	 11190	 11276	 11294	 11342	 11358	 11404	 11420	 11461	 11472	 11515
	 11529	 11567	 11579	 11621	 11633	 11671	 11682	 11713	 11726	 11761	 11770	 11813	 11826	 11869
	 11883	 11910	 11921	 11957	 11968	 12006	 12018	 12060	 12073	 12116	 12129	 12165	 12177	 12218
	 12229	 12276	 12298	 12342	 12354	 12395	 12407	 12436	 12449	 12499	 12512	 12563	 12581	 12678
	 12692	 12746	 12768	 12819	 12833	 12894	 12915	 12964	 12979	 13146	 13160	 13199	 13211	 13226
	 13286	 13302	 13318	 13334	 13350	 13366	 13382	 13398	 13414	 13430	 13477	 13491	 13505	 13519
	 13533	 13664	 13681	 13698	 13715	 13732	 13787	 13804	 13821	 13838	 13855	 13903	 13917	 13931
	 13945	 13959	 14000	 14010	 14020	 14030	 14040	 14089	 14105	 14121	 14137	 14153	 14195	 14207
	 14219	 14231	 14243	 14288	 14300	 14312	 14324	 14336	 14348	 14360	 14372	 14384	 14396	 14408
	 14420	 14432	 14444	 14456	 14468	 14480	 14492	 14520	 14532	 14544	 14556	 14568	 14580	 14592
	 14604	 14616	 14628	 14640	 14652	 14664	 14676	 14688	 14700	 14712	 14761	 14776	 14791	 14806     SEQ 0409
	 14821	 14836	 14851	 14866	 14881	 14896	 14911	 14926	 14941	 14956	 14971	 14986	 15001	 15016
	 15050	 15065	 15080	 15095	 15110	 15125	 15140	 15155	 15170	 15185	 15200	 15215	 15230	 15245
	 15260	 15275	 15290	 15336	 15348	 15360	 15372	 15384	 15396	 15408	 15420	 15432	 15444	 15500
	 15518	 15536	 15554	 15572	 15620	 15635	 15650	 15665	 15680	 15731	 15747	 15763	 15779	 15795
	 15839	 15851	 15863	 15875	 15887	 15938	 15954	 15970	 15986	 16002	 16051	 16067	 16083	 16099
	 16115
ER4	    37#	   806	   840	   874	   908	   942	   976	  1010	  1044	  1078	  1112	  1146	  1180	  1214
	  1248	  1282	  1316	  1350	  1384	  1418	  1452	  1486	  1520	  1554	  1588	  1622	  1656	  1690
	  1724	  1758	  1792	  1826	  1860	  1894	  1928	  1962	  1996	  2053	  2087	  2121	  2155	  2189
	  2223	  2257	  2291	  2325	  2359	  2393	  2427	  2461	  2495	  2529	  2563	  2597	  2631	  2665
	  2699	  2733	  2767	  2801	  2835	  2869	  2903	  2937	  2971	  3005	  3039	  3073	  3107	  3141
	  3175	  3209	  3243	  3299	  3333	  3367	  3401	  3435	  3469	  3503	  3537	  3571	  3605	  3639
	  3673	  3707	  3741	  3775	  3809	  3843	  3877	  3911	  3945	  3979	  4013	  4047	  4081	  4115
	  4149	  4183	  4217	  4251	  4285	  4319	  4353	  4387	  4421	  4455	  4489	  4540	  4572	  4604
	  4636	  4668	  4700	  4732	  4764	  4796	  4828	  4860	  4892	  4924	  4956	  4988	  5020	  5052
	  5084	  5116	  5148	  5180	  5212	  5244	  5276	  5308	  5340	  5372	  5404	  5436	  5468	  5500
	  5532	  5564	  5596	  5628	  5660	  5715	  5749	  5783	  5817	  5851	  5885	  5919	  5953	  5987
	  6021	  6055	  6089	  6123	  6157	  6191	  6225	  6259	  6293	  6327	  6361	  6395	  6429	  6463
	  6497	  6531	  6565	  6599	  6633	  6667	  6701	  6735	  6769	  6803	  6837	  6871	  6905	  6965
	  7001	  7037	  7073	  7109	  7145	  7181	  7217	  7253	  7289	  7325	  7361	  7397	  7433	  7469
	  7505	  7541	  7577	  7613	  7649	  7685	  7721	  7757	  7793	  7829	  7865	  7901	  7937	  7973
	  8009	  8045	  8081	  8117	  8153	  8189	  8225	  8285	  8321	  8357	  8393	  8429	  8465	  8501
	  8537	  8573	  8609	  8645	  8681	  8717	  8753	  8789	  8825	  8861	  8897	  8933	  8969	  9005
	  9041	  9077	  9113	  9149	  9185	  9221	  9257	  9293	  9329	  9365	  9401	  9437	  9473	  9509
	  9545	  9591	  9605	  9646	  9660	  9700	  9712	  9748	  9759	  9801	  9814	  9856	  9870	  9918
	  9934	  9977	  9989	 10027	 10040	 10089	 10105	 10145	 10157	 10196	 10214	 10263	 10278	 10337
	 10347	 10397	 10413	 10432	 10451	 11161	 11179	 11222	 11231	 11278	 11296	 11344	 11360	 11406
	 11422	 11463	 11474	 11517	 11531	 11569	 11581	 11623	 11635	 11673	 11684	 11715	 11728	 11811
	 11824	 11867	 11881	 11912	 11923	 11959	 11970	 12008	 12020	 12063	 12076	 12113	 12126	 12167
	 12179	 12220	 12231	 12278	 12300	 12397	 12409	 12438	 12451	 12501	 12514	 12565	 12583	 12623
	 12634	 12676	 12690	 12748	 12770	 12821	 12835	 12896	 12917	 13201	 13213	 13228	 13284	 13300
	 13316	 13332	 13348	 13364	 13380	 13396	 13412	 13428	 13480	 13494	 13508	 13522	 13536	 13668
	 13685	 13702	 13719	 13736	 13789	 13806	 13823	 13840	 13857	 14091	 14107	 14123	 14139	 14155
	 14290	 14302	 14314	 14326	 14338	 14350	 14362	 14374	 14386	 14398	 14410	 14422	 14434	 14446
	 14458	 14470	 14482	 14494	 14522	 14534	 14546	 14558	 14570	 14582	 14594	 14606	 14618	 14630
	 14642	 14654	 14666	 14678	 14690	 14702	 14714	 14763	 14778	 14793	 14808	 14823	 14838	 14853
	 14868	 14883	 14898	 14913	 14928	 14943	 14958	 14973	 14988	 15003	 15018	 15052	 15067	 15082
	 15097	 15112	 15127	 15142	 15157	 15172	 15187	 15202	 15217	 15232	 15247	 15262	 15277	 15292
	 15338	 15350	 15362	 15374	 15386	 15398	 15410	 15422	 15434	 15446	 15502	 15520	 15538	 15556
	 15574	 15624	 15639	 15654	 15669	 15684	 15733	 15749	 15765	 15781	 15797	 15841	 15853	 15865
	 15877	 15889	 15940	 15956	 15972	 15988	 16004	 16055	 16071	 16087	 16103	 16119
ER5	    38#	   809	   843	   877	   911	   945	   979	  1013	  1047	  1081	  1115	  1149	  1183	  1217
	  1251	  1285	  1319	  1353	  1387	  1421	  1455	  1489	  1523	  1557	  1591	  1625	  1659	  1693
	  1727	  1761	  1795	  1829	  1863	  1897	  1931	  1965	  1999	  2056	  2090	  2124	  2158	  2192
	  2226	  2260	  2294	  2328	  2362	  2396	  2430	  2464	  2498	  2532	  2566	  2600	  2634	  2668
	  2702	  2736	  2770	  2804	  2838	  2872	  2906	  2940	  2974	  3008	  3042	  3076	  3110	  3144
	  3178	  3212	  3246	  3302	  3336	  3370	  3404	  3438	  3472	  3506	  3540	  3574	  3608	  3642
	  3676	  3710	  3744	  3778	  3812	  3846	  3880	  3914	  3948	  3982	  4016	  4050	  4084	  4118
	  4152	  4186	  4220	  4254	  4288	  4322	  4356	  4390	  4424	  4458	  4492	  4543	  4575	  4607
	  4639	  4671	  4703	  4735	  4767	  4799	  4831	  4863	  4895	  4927	  4959	  4991	  5023	  5055
	  5087	  5119	  5151	  5183	  5215	  5247	  5279	  5311	  5343	  5375	  5407	  5439	  5471	  5503
	  5535	  5567	  5599	  5631	  5663	  5718	  5752	  5786	  5820	  5854	  5888	  5922	  5956	  5990
	  6024	  6058	  6092	  6126	  6160	  6194	  6228	  6262	  6296	  6330	  6364	  6398	  6432	  6466     SEQ 0410
	  6500	  6534	  6568	  6602	  6636	  6670	  6704	  6738	  6772	  6806	  6840	  6874	  6908	  6968
	  7004	  7040	  7076	  7112	  7148	  7184	  7220	  7256	  7292	  7328	  7364	  7400	  7436	  7472
	  7508	  7544	  7580	  7616	  7652	  7688	  7724	  7760	  7796	  7832	  7868	  7904	  7940	  7976
	  8012	  8048	  8084	  8120	  8156	  8192	  8228	  8288	  8324	  8360	  8396	  8432	  8468	  8504
	  8540	  8576	  8612	  8648	  8684	  8720	  8756	  8792	  8828	  8864	  8900	  8936	  8972	  9008
	  9044	  9080	  9116	  9152	  9188	  9224	  9260	  9296	  9332	  9368	  9404	  9440	  9476	  9512
	  9548	 10265	 10280	 10399	 10415	 10453	 10962	 11050	 11062	 12344	 12356	 12453	 13144	 13158
	 13230	 13288	 13304	 13320	 13336	 13352	 13368	 13384	 13400	 13416	 13432	 13574	 13584	 13594
	 13604	 13614	 13666	 13683	 13700	 13717	 13734	 13785	 13802	 13819	 13836	 13853	 13905	 13919
	 13933	 13947	 13961	 14087	 14103	 14119	 14135	 14151	 14197	 14209	 14221	 14233	 14245	 14765
	 14780	 14795	 14810	 14825	 14840	 14855	 14870	 14885	 14900	 14915	 14930	 14945	 14960	 14975
	 14990	 15005	 15020	 15054	 15069	 15084	 15099	 15114	 15129	 15144	 15159	 15174	 15189	 15204
	 15219	 15234	 15249	 15264	 15279	 15294	 15498	 15516	 15534	 15552	 15570	 15622	 15637	 15652
	 15667	 15682	 15735	 15751	 15767	 15783	 15799	 15936	 15952	 15968	 15984	 16000	 16053	 16069
	 16085	 16101	 16117
ER6	    39#
ER7	    40#
ERLOOP	   364#
ERLP1	   365#
ERLP2	   366#
ERRHLT	   211#	 16249
ERROR	   373#
ERROR1	   384#
ERUUO	   363#
FATAL	   210#
FRD36	   352#
FRD8	   353#
FREAD	   351#
FSELEC	   350#
GET	   194#
GO	   191#
HALT	   196#	   497
JEN	   198#
JRSTF	   197#	 10424	 10443	 10468	 10538	 10553	 10589	 10604	 10639	 10654	 10686	 10699	 10734	 10750
	 10798	 10814	 10861	 10877	 10924	 10940	 10954	 10980	 11150	 11163	 11168	 11181	 11269	 11287
	 11336	 11352	 11398	 11414	 11438	 12270	 12292	 12317	 12442	 12471	 12552	 12570	 12598	 12738
	 12760	 12788	 12882	 12903	 12955	 12970	 13015	 13029	 13074	 13093	 13114	 13219
MAPADR	   333#
MAPCNK	   334#
MAPMEM	   330#
MAPPNT	   336#
MAPSET	   335#
MEMSEG	   332#
MEMZRO	   331#
MODPCP	   343#
MODPCU	   342#
MOP1	    97#	   788	   822	   856	   890	   924	   958	   992	  1026	  1060	  1094	  1128	  1162	  1196
	  1230	  1264	  1298	  1332	  1366	  1400	  1434	  1468	  1502	  1536	  1570	  1604	  1638	  1672
	  1706	  1740	  1774	  1808	  1842	  1876	  1910	  1944	  1978	  2035	  2069	  2103	  2137	  2171
	  2205	  2239	  2273	  2307	  2341	  2375	  2409	  2443	  2477	  2511	  2545	  2579	  2613	  2647
	  2681	  2715	  2749	  2783	  2817	  2851	  2885	  2919	  2953	  2987	  3021	  3055	  3089	  3123
	  3157	  3191	  3225	  3281	  3315	  3349	  3383	  3417	  3451	  3485	  3519	  3553	  3587	  3621
	  3655	  3689	  3723	  3757	  3791	  3825	  3859	  3893	  3927	  3961	  3995	  4029	  4063	  4097     SEQ 0411
	  4131	  4165	  4199	  4233	  4267	  4301	  4335	  4369	  4403	  4437	  4471	  4522	  4554	  4586
	  4618	  4650	  4682	  4714	  4746	  4778	  4810	  4842	  4874	  4906	  4938	  4970	  5002	  5034
	  5066	  5098	  5130	  5162	  5194	  5226	  5258	  5290	  5322	  5354	  5386	  5418	  5450	  5482
	  5514	  5546	  5578	  5610	  5642	  5697	  5731	  5765	  5799	  5833	  5867	  5901	  5935	  5969
	  6003	  6037	  6071	  6105	  6139	  6173	  6207	  6241	  6275	  6309	  6343	  6377	  6411	  6445
	  6479	  6513	  6547	  6581	  6615	  6649	  6683	  6717	  6751	  6785	  6819	  6853	  6887	  6947
	  6983	  7019	  7055	  7091	  7127	  7163	  7199	  7235	  7271	  7307	  7343	  7379	  7415	  7451
	  7487	  7523	  7559	  7595	  7631	  7667	  7703	  7739	  7775	  7811	  7847	  7883	  7919	  7955
	  7991	  8027	  8063	  8099	  8135	  8171	  8207	  8267	  8303	  8339	  8375	  8411	  8447	  8483
	  8519	  8555	  8591	  8627	  8663	  8699	  8735	  8771	  8807	  8843	  8879	  8915	  8951	  8987
	  9023	  9059	  9095	  9131	  9167	  9203	  9239	  9275	  9311	  9347	  9383	  9419	  9455	  9491
	  9527
MTROP	   311#
NAME	     8#	    11
PBELL	   286#	 16253
PCRL	   280#	 16190	 16209
PCRL2	   284#
PCRL2F	   285#
PCRLF	   281#
PFORCE	   288#
PGMINT	   204#	   745
PJRST	   195#
PMSG	   290#	 16156	 16160	 16171	 16196
PMSGF	   293#	 16276
PNT1	   246#
PNT11	   260#
PNT11F	   261#
PNT1F	   247#
PNT2	   248#
PNT2F	   249#
PNT3	   250#	 16208
PNT3F	   251#
PNT4	   252#	 16212
PNT4F	   253#
PNT5	   254#	 16214
PNT5F	   255#
PNT6	   256#	 16164	 16216
PNT6F	   257#
PNT7	   258#
PNT7F	   259#
PNTA	   232#	 16199
PNTADF	   263#
PNTADR	   262#
PNTAF	   233#
PNTAL	   234#	 16192
PNTALF	   235#
PNTCHF	   245#
PNTCHR	   244#
PNTCI	   242#
PNTCIF	   243#
PNTCW	   278#
PNTCWF	   279#
PNTDCF	   271#                                                                                                            SEQ 0412
PNTDEC	   270#	 16159
PNTDS	   272#
PNTDSF	   273#
PNTHW	   266#	 16179
PNTHWF	   267#
PNTMSF	   239#
PNTMSG	   238#
PNTNM	   274#	 16152
PNTOCF	   269#
PNTOCS	   268#
PNTOCT	   264#
PNTOTF	   265#
PNTSIX	   275#
PNTSXF	   276#
PSIXL	   236#
PSIXLF	   237#
PSIXM	   240#	 16157	 16161	 16172	 16197
PSIXMF	   241#	 16277
PSP	   282#
PSPF	   283#
PUT	   193#
RDAPR	   394#
RDCSB	   394#
RDCSTM	   394#
RDEBR	   394#
RDHSB	   394#
RDINT	   394#
RDIO	   394#
RDIOB	   394#
RDPI	   394#
RDPUR	   394#
RDSPB	   394#
RDTIM	   394#
RDUBR	   394#
REPTUO	   367#
RTN	   192#	   484
S	   122#	   124	   128	   157	   159	   168	   171	   186	   187	   189	   200	   202	   206	   208
	   213	   217	   359	   361	   394	   399	   405	   432	   434	   452	   454	   472	   474	   503
	   505	   523	   525	   543	   545	   553	   555	   576	   581	   607	   609	   616	   618	   624
	   626	   632	   634	   638	   640	   645	   647	   651	   653	   657	   659	   665	   667	   670
	   672	   676	   678	   682	   684	   688	   690	   694	   696	   701	   703	   707	   709	   713
	   715	   717	   719
SAVEAC	    92#	   757	  2003	  3250	  4496	  5667	  6912	  8232	  9554	  9613	  9670	  9721	  9769	  9823
	  9880	  9945	  9996	 10049	 10113	 10185	 10203	 10228	 10359	 10463	 10509	 10767	 10831	 10894
	 10975	 11019	 11072	 11119	 11198	 11239	 11308	 11370	 11433	 11481	 11538	 11592	 11644	 11736
	 11779	 11833	 11930	 11977	 12030	 12083	 12136	 12191	 12265	 12287	 12312	 12366	 12420	 12466
	 12522	 12593	 12642	 12700	 12783	 12845	 12926	 12988	 13069	 13088	 13109	 13170	 13248	 13444
	 13547	 13626	 13747	 13869	 13972	 14051	 14166	 14259	 14728	 15306	 15458	 15586	 15695	 15810
	 15900	 16015
SIXBTZ	   299#
SWITCH	   305#	 16138	 16240
TIOE	   394#
TIOEB	   394#                                                                                                            SEQ 0413
TION	   394#
TIONB	   394#
TTALTM	   226#	 16242
TTICHR	   219#
TTICLR	   229#
TTICNV	   224#
TTIDEC	   223#
TTINO	   221#
TTIOCT	   222#
TTIYES	   220#
TTLOOK	   225#
TTSIXB	   227#
TTYINP	   228#
WRAPR	   394#
WRCSB	   394#
WRCSTM	   394#
WREBR	   394#
WRHSB	   394#
WRINT	   394#
WRIO	   394#
WRIOB	   394#
WRPI	   394#
WRPUR	   394#
WRSPB	   394#
WRTIM	   394#
WRUBR	   394#

ANDI	 16175
AOS	   482	 16131	 16134	 16260	 16261                                                                             SEQ 0414
ASCII	   583	   585	   588	   589	   590	   591	   593	   594	   595	   596	   597	   598	   600	   601
	   602
ASCIZ	   726	   746	 16225	 16226	 16227	 16228	 16229	 16230	 16231	 16232	 16233
BLOCK	   551	   611	   614	   620	   623	   629	 16674
BYTE	   599
CAIE	  9974	  9986	 10142	 10154	 10264	 10279	 10398	 10414	 10543	 10558	 10644	 10659	 10803	 10819
	 10959	 10961	 11049	 11061	 11158	 11160	 11176	 11178	 11275	 11277	 11293	 11295	 11341	 11343
	 11357	 11359	 11403	 11405	 11419	 11421	 11460	 11462	 11471	 11473	 11514	 11528	 11620	 11632
	 11670	 11681	 11760	 11769	 11866	 11880	 11911	 11922	 12217	 12228	 12275	 12277	 12297	 12299
	 12343	 12355	 12396	 12408	 12448	 12450	 12452	 12562	 12580	 12747	 12769	 12895	 12916	 13225
	 13227	 13229	 13904	 13918	 13932	 13946	 13960	 14287	 14299	 14311	 14323	 14335	 14347	 14359
	 14371	 14383	 14395	 14407	 14419	 14431	 14443	 14455	 14467	 14479	 14491	 14519	 14531	 14543
	 14555	 14567	 14579	 14591	 14603	 14615	 14627	 14639	 14651	 14663	 14675	 14687	 14699	 14711
	 14764	 14779	 14794	 14809	 14824	 14839	 14854	 14869	 14884	 14899	 14914	 14929	 14944	 14959
	 14974	 14989	 15004	 15019	 15053	 15068	 15083	 15098	 15113	 15128	 15143	 15158	 15173	 15188
	 15203	 15218	 15233	 15248	 15263	 15278	 15293	 15337	 15349	 15361	 15373	 15385	 15397	 15409
	 15421	 15433	 15445	 15623	 15638	 15653	 15668	 15683	 15734	 15750	 15766	 15782	 15798	 15838
	 15840	 15850	 15852	 15862	 15864	 15874	 15876	 15886	 15888	 16054	 16070	 16086	 16102	 16118
CAIG	 16177	 16188
CAIL	 16265
CAME	   802	   805	   808	   836	   839	   842	   870	   873	   876	   904	   907	   910	   938	   941
	   944	   972	   975	   978	  1006	  1009	  1012	  1040	  1043	  1046	  1074	  1077	  1080	  1108
	  1111	  1114	  1142	  1145	  1148	  1176	  1179	  1182	  1210	  1213	  1216	  1244	  1247	  1250
	  1278	  1281	  1284	  1312	  1315	  1318	  1346	  1349	  1352	  1380	  1383	  1386	  1414	  1417
	  1420	  1448	  1451	  1454	  1482	  1485	  1488	  1516	  1519	  1522	  1550	  1553	  1556	  1584
	  1587	  1590	  1618	  1621	  1624	  1652	  1655	  1658	  1686	  1689	  1692	  1720	  1723	  1726
	  1754	  1757	  1760	  1788	  1791	  1794	  1822	  1825	  1828	  1856	  1859	  1862	  1890	  1893
	  1896	  1924	  1927	  1930	  1958	  1961	  1964	  1992	  1995	  1998	  2049	  2052	  2055	  2083
	  2086	  2089	  2117	  2120	  2123	  2151	  2154	  2157	  2185	  2188	  2191	  2219	  2222	  2225
	  2253	  2256	  2259	  2287	  2290	  2293	  2321	  2324	  2327	  2355	  2358	  2361	  2389	  2392
	  2395	  2423	  2426	  2429	  2457	  2460	  2463	  2491	  2494	  2497	  2525	  2528	  2531	  2559
	  2562	  2565	  2593	  2596	  2599	  2627	  2630	  2633	  2661	  2664	  2667	  2695	  2698	  2701
	  2729	  2732	  2735	  2763	  2766	  2769	  2797	  2800	  2803	  2831	  2834	  2837	  2865	  2868
	  2871	  2899	  2902	  2905	  2933	  2936	  2939	  2967	  2970	  2973	  3001	  3004	  3007	  3035
	  3038	  3041	  3069	  3072	  3075	  3103	  3106	  3109	  3137	  3140	  3143	  3171	  3174	  3177
	  3205	  3208	  3211	  3239	  3242	  3245	  3295	  3298	  3301	  3329	  3332	  3335	  3363	  3366
	  3369	  3397	  3400	  3403	  3431	  3434	  3437	  3465	  3468	  3471	  3499	  3502	  3505	  3533
	  3536	  3539	  3567	  3570	  3573	  3601	  3604	  3607	  3635	  3638	  3641	  3669	  3672	  3675
	  3703	  3706	  3709	  3737	  3740	  3743	  3771	  3774	  3777	  3805	  3808	  3811	  3839	  3842
	  3845	  3873	  3876	  3879	  3907	  3910	  3913	  3941	  3944	  3947	  3975	  3978	  3981	  4009
	  4012	  4015	  4043	  4046	  4049	  4077	  4080	  4083	  4111	  4114	  4117	  4145	  4148	  4151
	  4179	  4182	  4185	  4213	  4216	  4219	  4247	  4250	  4253	  4281	  4284	  4287	  4315	  4318
	  4321	  4349	  4352	  4355	  4383	  4386	  4389	  4417	  4420	  4423	  4451	  4454	  4457	  4485
	  4488	  4491	  4536	  4539	  4542	  4568	  4571	  4574	  4600	  4603	  4606	  4632	  4635	  4638
	  4664	  4667	  4670	  4696	  4699	  4702	  4728	  4731	  4734	  4760	  4763	  4766	  4792	  4795
	  4798	  4824	  4827	  4830	  4856	  4859	  4862	  4888	  4891	  4894	  4920	  4923	  4926	  4952
	  4955	  4958	  4984	  4987	  4990	  5016	  5019	  5022	  5048	  5051	  5054	  5080	  5083	  5086
	  5112	  5115	  5118	  5144	  5147	  5150	  5176	  5179	  5182	  5208	  5211	  5214	  5240	  5243
	  5246	  5272	  5275	  5278	  5304	  5307	  5310	  5336	  5339	  5342	  5368	  5371	  5374	  5400
	  5403	  5406	  5432	  5435	  5438	  5464	  5467	  5470	  5496	  5499	  5502	  5528	  5531	  5534
	  5560	  5563	  5566	  5592	  5595	  5598	  5624	  5627	  5630	  5656	  5659	  5662	  5711	  5714
	  5717	  5745	  5748	  5751	  5779	  5782	  5785	  5813	  5816	  5819	  5847	  5850	  5853	  5881
	  5884	  5887	  5915	  5918	  5921	  5949	  5952	  5955	  5983	  5986	  5989	  6017	  6020	  6023     SEQ 0415
	  6051	  6054	  6057	  6085	  6088	  6091	  6119	  6122	  6125	  6153	  6156	  6159	  6187	  6190
	  6193	  6221	  6224	  6227	  6255	  6258	  6261	  6289	  6292	  6295	  6323	  6326	  6329	  6357
	  6360	  6363	  6391	  6394	  6397	  6425	  6428	  6431	  6459	  6462	  6465	  6493	  6496	  6499
	  6527	  6530	  6533	  6561	  6564	  6567	  6595	  6598	  6601	  6629	  6632	  6635	  6663	  6666
	  6669	  6697	  6700	  6703	  6731	  6734	  6737	  6765	  6768	  6771	  6799	  6802	  6805	  6833
	  6836	  6839	  6867	  6870	  6873	  6901	  6904	  6907	  6961	  6964	  6967	  6997	  7000	  7003
	  7033	  7036	  7039	  7069	  7072	  7075	  7105	  7108	  7111	  7141	  7144	  7147	  7177	  7180
	  7183	  7213	  7216	  7219	  7249	  7252	  7255	  7285	  7288	  7291	  7321	  7324	  7327	  7357
	  7360	  7363	  7393	  7396	  7399	  7429	  7432	  7435	  7465	  7468	  7471	  7501	  7504	  7507
	  7537	  7540	  7543	  7573	  7576	  7579	  7609	  7612	  7615	  7645	  7648	  7651	  7681	  7684
	  7687	  7717	  7720	  7723	  7753	  7756	  7759	  7789	  7792	  7795	  7825	  7828	  7831	  7861
	  7864	  7867	  7897	  7900	  7903	  7933	  7936	  7939	  7969	  7972	  7975	  8005	  8008	  8011
	  8041	  8044	  8047	  8077	  8080	  8083	  8113	  8116	  8119	  8149	  8152	  8155	  8185	  8188
	  8191	  8221	  8224	  8227	  8281	  8284	  8287	  8317	  8320	  8323	  8353	  8356	  8359	  8389
	  8392	  8395	  8425	  8428	  8431	  8461	  8464	  8467	  8497	  8500	  8503	  8533	  8536	  8539
	  8569	  8572	  8575	  8605	  8608	  8611	  8641	  8644	  8647	  8677	  8680	  8683	  8713	  8716
	  8719	  8749	  8752	  8755	  8785	  8788	  8791	  8821	  8824	  8827	  8857	  8860	  8863	  8893
	  8896	  8899	  8929	  8932	  8935	  8965	  8968	  8971	  9001	  9004	  9007	  9037	  9040	  9043
	  9073	  9076	  9079	  9109	  9112	  9115	  9145	  9148	  9151	  9181	  9184	  9187	  9217	  9220
	  9223	  9253	  9256	  9259	  9289	  9292	  9295	  9325	  9328	  9331	  9361	  9364	  9367	  9397
	  9400	  9403	  9433	  9436	  9439	  9469	  9472	  9475	  9505	  9508	  9511	  9541	  9544	  9547
	  9588	  9590	  9602	  9604	  9645	  9648	  9659	  9662	  9699	  9701	  9711	  9713	  9855	  9869
	  9917	  9920	  9933	  9936	 10026	 10039	 10088	 10104	 10195	 10213	 10260	 10275	 10394	 10396
	 10410	 10412	 10429	 10431	 10448	 10450	 10452	 10488	 10497	 10595	 10610	 10740	 10756	 10867
	 10883	 10930	 10946	 11002	 11012	 11047	 11059	 11094	 11103	 11189	 11566	 11578	 11622	 11634
	 11712	 11725	 11812	 11825	 11868	 11882	 11956	 11967	 12005	 12017	 12059	 12062	 12072	 12075
	 12112	 12115	 12125	 12128	 12164	 12176	 12341	 12353	 12394	 12406	 12435	 12437	 12498	 12511
	 12622	 12633	 12677	 12691	 12745	 12767	 12818	 12820	 12832	 12834	 12893	 12914	 12963	 12978
	 13143	 13145	 13157	 13159	 13198	 13210	 13285	 13287	 13301	 13303	 13317	 13319	 13333	 13335
	 13349	 13351	 13365	 13367	 13381	 13383	 13397	 13399	 13413	 13415	 13429	 13431	 13476	 13479
	 13490	 13493	 13504	 13507	 13518	 13521	 13532	 13535	 13667	 13684	 13701	 13718	 13735	 13784
	 13786	 13788	 13801	 13803	 13805	 13818	 13820	 13822	 13835	 13837	 13839	 13852	 13854	 13856
	 13902	 13916	 13930	 13944	 13958	 13999	 14009	 14019	 14029	 14039	 14086	 14088	 14090	 14102
	 14104	 14106	 14118	 14120	 14122	 14134	 14136	 14138	 14150	 14152	 14154	 14760	 14775	 14790
	 14805	 14820	 14835	 14850	 14865	 14880	 14895	 14910	 14925	 14940	 14955	 14970	 14985	 15000
	 15015	 15049	 15064	 15079	 15094	 15109	 15124	 15139	 15154	 15169	 15184	 15199	 15214	 15229
	 15244	 15259	 15274	 15289	 15335	 15347	 15359	 15371	 15383	 15395	 15407	 15419	 15431	 15443
	 15497	 15499	 15501	 15515	 15517	 15519	 15533	 15535	 15537	 15551	 15553	 15555	 15569	 15571
	 15573	 15619	 15621	 15634	 15636	 15649	 15651	 15664	 15666	 15679	 15681	 15730	 15746	 15762
	 15778	 15794	 15935	 15937	 15951	 15953	 15967	 15969	 15983	 15985	 15999	 16001	 16050	 16052
	 16066	 16068	 16082	 16084	 16098	 16100	 16114	 16116
CAMN	 16133
DEFINE	     8	    92	    97	   122	   290	   293	   299	   373	   384
DIV	 12497	 12510	 12556	 12574	 12621	 12632	 12674	 12688	 12743	 12765	 12817	 12831	 12887	 12908
	 12959	 12974	 13019	 13033	 15729	 15745	 15761	 15777	 15793
DIVB	 13197	 13209	 13223	 16049	 16065	 16081	 16097	 16113
DIVI	 13078	 13097	 15837	 15849	 15861	 15873	 15885
DIVM	 13142	 13156	 15934	 15950	 15966	 15982	 15998
END	 16682
HRL	 16136
HRLOI	  9586	  9600	  9697	  9709	 11562	 11563	 11574	 11575	 11708	 11709	 11721	 11722	 11862	 11863
	 11876	 11877	 12742	 12764
HRROI	  9745	  9756	  9797	  9810	  9972	  9984	 10140	 10152	 10193	 10211	 10640	 10641	 10655	 10656     SEQ 0416
	 10688	 10701	 10736	 10737	 10752	 10753	 10800	 10816	 11806	 11808	 11819	 11821	 11953	 11964
	 12001	 12002	 12013	 12014	 12055	 12056	 12061	 12068	 12069	 12074	 12108	 12109	 12114	 12121
	 12122	 12127	 12160	 12161	 12172	 12173	 12214	 12215	 12225	 12226	 12670	 12672	 12684	 12686
	 12741	 12763	 12814	 12828	 12883	 12884	 12904	 12905	 12956	 12971	 13016	 13018	 13030	 13032
	 13571	 13581	 13591	 13601	 13611	 13660	 13677	 13694	 13711	 13728	 13781	 13798	 13815	 13832
	 13849	 14082	 14083	 14098	 14099	 14114	 14115	 14130	 14131	 14146	 14147	 14192	 14204	 14216
	 14228	 14240	 15493	 15511	 15529	 15547	 15565	 15931	 15933	 15947	 15949	 15963	 15965	 15979
	 15981	 15995	 15997
HRRZ	 16132	 16162	 16201
HRRZI	  9851	  9865
IDIV	 11153	 11171	 11188	 11220	 11229	 11273	 11291	 11339	 11355	 11401	 11417	 11459	 11470	 11513
	 11527	 11565	 11577	 11619	 11631	 11669	 11680	 11711	 11724	 11759	 11768	 11809	 11822	 11865
	 11879	 11908	 11919	 11955	 11966	 12004	 12016	 12058	 12071	 12111	 12124	 12163	 12175	 12216
	 12227	 12434	 14286	 14298	 14310	 14322	 14334	 14346	 14358	 14370	 14382	 14394	 14406	 14418
	 14430	 14442	 14454	 14466	 14478	 14490	 14518	 14530	 14542	 14554	 14566	 14578	 14590	 14602
	 14614	 14626	 14638	 14650	 14662	 14674	 14686	 14698	 14710	 14759	 14774	 14789	 14804	 14819
	 14834	 14849	 14864	 14879	 14894	 14909	 14924	 14939	 14954	 14969	 14984	 14999	 15014	 15048
	 15063	 15078	 15093	 15108	 15123	 15138	 15153	 15168	 15183	 15198	 15213	 15228	 15243	 15258
	 15273	 15288
IDIVB	 12393	 12405	 12446	 15618	 15633	 15648	 15663	 15678
IDIVI	 12273	 12295	 15334	 15346	 15358	 15370	 15382	 15394	 15406	 15418	 15430	 15442
IDIVM	 12340	 12352	 15496	 15514	 15532	 15550	 15568
IFDEF	   394	   445	   446	   447	   448	 16166	 16236	 16673	 16680
IFE	   781	   815	   849	   883	   917	   951	   985	  1019	  1053	  1087	  1121	  1155	  1189	  1223
	  1257	  1291	  1325	  1359	  1393	  1427	  1461	  1495	  1529	  1563	  1597	  1631	  1665	  1699
	  1733	  1767	  1801	  1835	  1869	  1903	  1937	  1971	  2028	  2062	  2096	  2130	  2164	  2198
	  2232	  2266	  2300	  2334	  2368	  2402	  2436	  2470	  2504	  2538	  2572	  2606	  2640	  2674
	  2708	  2742	  2776	  2810	  2844	  2878	  2912	  2946	  2980	  3014	  3048	  3082	  3116	  3150
	  3184	  3218	  3274	  3308	  3342	  3376	  3410	  3444	  3478	  3512	  3546	  3580	  3614	  3648
	  3682	  3716	  3750	  3784	  3818	  3852	  3886	  3920	  3954	  3988	  4022	  4056	  4090	  4124
	  4158	  4192	  4226	  4260	  4294	  4328	  4362	  4396	  4430	  4464	  4516	  4548	  4580	  4612
	  4644	  4676	  4708	  4740	  4772	  4804	  4836	  4868	  4900	  4932	  4964	  4996	  5028	  5060
	  5092	  5124	  5156	  5188	  5220	  5252	  5284	  5316	  5348	  5380	  5412	  5444	  5476	  5508
	  5540	  5572	  5604	  5636	  5689	  5693	  5723	  5727	  5757	  5761	  5791	  5795	  5825	  5829
	  5859	  5863	  5893	  5897	  5927	  5931	  5961	  5965	  5995	  5999	  6029	  6033	  6063	  6067
	  6097	  6101	  6131	  6135	  6165	  6169	  6199	  6203	  6233	  6237	  6267	  6271	  6301	  6305
	  6335	  6339	  6369	  6373	  6403	  6407	  6437	  6441	  6471	  6475	  6505	  6509	  6539	  6543
	  6573	  6577	  6607	  6611	  6641	  6645	  6675	  6679	  6709	  6713	  6743	  6747	  6777	  6781
	  6811	  6815	  6845	  6849	  6879	  6883	  6938	  6939	  6943	  6974	  6975	  6979	  7010	  7011
	  7015	  7046	  7047	  7051	  7082	  7083	  7087	  7118	  7119	  7123	  7154	  7155	  7159	  7190
	  7191	  7195	  7226	  7227	  7231	  7262	  7263	  7267	  7298	  7299	  7303	  7334	  7335	  7339
	  7370	  7371	  7375	  7406	  7407	  7411	  7442	  7443	  7447	  7478	  7479	  7483	  7514	  7515
	  7519	  7550	  7551	  7555	  7586	  7587	  7591	  7622	  7623	  7627	  7658	  7659	  7663	  7694
	  7695	  7699	  7730	  7731	  7735	  7766	  7767	  7771	  7802	  7803	  7807	  7838	  7839	  7843
	  7874	  7875	  7879	  7910	  7911	  7915	  7946	  7947	  7951	  7982	  7983	  7987	  8018	  8019
	  8023	  8054	  8055	  8059	  8090	  8091	  8095	  8126	  8127	  8131	  8162	  8163	  8167	  8198
	  8199	  8203	  8258	  8259	  8263	  8294	  8295	  8299	  8330	  8331	  8335	  8366	  8367	  8371
	  8402	  8403	  8407	  8438	  8439	  8443	  8474	  8475	  8479	  8510	  8511	  8515	  8546	  8547
	  8551	  8582	  8583	  8587	  8618	  8619	  8623	  8654	  8655	  8659	  8690	  8691	  8695	  8726
	  8727	  8731	  8762	  8763	  8767	  8798	  8799	  8803	  8834	  8835	  8839	  8870	  8871	  8875
	  8906	  8907	  8911	  8942	  8943	  8947	  8978	  8979	  8983	  9014	  9015	  9019	  9050	  9051
	  9055	  9086	  9087	  9091	  9122	  9123	  9127	  9158	  9159	  9163	  9194	  9195	  9199	  9230
	  9231	  9235	  9266	  9267	  9271	  9302	  9303	  9307	  9338	  9339	  9343	  9374	  9375	  9379     SEQ 0417
	  9410	  9411	  9415	  9446	  9447	  9451	  9482	  9483	  9487	  9518	  9519	  9523	  9583	  9597
	  9796	  9809	  9912	  9928	 10079	 10080	 10095	 10096	 10797	 10813	 11149	 11167	 11509	 11523
	 11707	 11720	 11861	 11875	 13014	 13028	 13278	 13294	 13310	 13326	 13342	 13358	 13374	 13390
	 13406	 13422	 13472	 13486	 13500	 13514	 13528	 13569	 13579	 13589	 13599	 13609	 13657	 13658
	 13674	 13675	 13691	 13692	 13708	 13709	 13725	 13726	 13778	 13795	 13812	 13829	 13846	 13897
	 13911	 13925	 13939	 13953	 14190	 14202	 14214	 14226	 14238	 14283	 14295	 14307	 14319	 14331
	 14343	 14355	 14367	 14379	 14391	 14403	 14415	 14427	 14439	 14451	 14463	 14475	 14487	 14515
	 14527	 14539	 14551	 14563	 14575	 14587	 14599	 14611	 14623	 14635	 14647	 14659	 14671	 14683
	 14695	 14707	 14755	 14770	 14785	 14800	 14815	 14830	 14845	 14860	 14875	 14890	 14905	 14920
	 14935	 14950	 14965	 14980	 14995	 15010	 15044	 15059	 15074	 15089	 15104	 15119	 15134	 15149
	 15164	 15179	 15194	 15209	 15224	 15239	 15254	 15269	 15284	 15490	 15491	 15508	 15509	 15526
	 15527	 15544	 15545	 15562	 15563
IFG	   787	   821	   855	   889	   923	   957	   991	  1025	  1059	  1093	  1127	  1161	  1195	  1229
	  1263	  1297	  1331	  1365	  1399	  1433	  1467	  1501	  1535	  1569	  1603	  1637	  1671	  1705
	  1739	  1773	  1807	  1841	  1875	  1909	  1943	  1977	  2033	  2067	  2101	  2135	  2169	  2203
	  2237	  2271	  2305	  2339	  2373	  2407	  2441	  2475	  2509	  2543	  2577	  2611	  2645	  2679
	  2713	  2747	  2781	  2815	  2849	  2883	  2917	  2951	  2985	  3019	  3053	  3087	  3121	  3155
	  3189	  3223	  3279	  3313	  3347	  3381	  3415	  3449	  3483	  3517	  3551	  3585	  3619	  3653
	  3687	  3721	  3755	  3789	  3823	  3857	  3891	  3925	  3959	  3993	  4027	  4061	  4095	  4129
	  4163	  4197	  4231	  4265	  4299	  4333	  4367	  4401	  4435	  4469	  4520	  4552	  4584	  4616
	  4648	  4680	  4712	  4744	  4776	  4808	  4840	  4872	  4904	  4936	  4968	  5000	  5032	  5064
	  5096	  5128	  5160	  5192	  5224	  5256	  5288	  5320	  5352	  5384	  5416	  5448	  5480	  5512
	  5544	  5576	  5608	  5640	  5696	  5730	  5764	  5798	  5832	  5866	  5900	  5934	  5968	  6002
	  6036	  6070	  6104	  6138	  6172	  6206	  6240	  6274	  6308	  6342	  6376	  6410	  6444	  6478
	  6512	  6546	  6580	  6614	  6648	  6682	  6716	  6750	  6784	  6818	  6852	  6886	  6945	  6981
	  7017	  7053	  7089	  7125	  7161	  7197	  7233	  7269	  7305	  7341	  7377	  7413	  7449	  7485
	  7521	  7557	  7593	  7629	  7665	  7701	  7737	  7773	  7809	  7845	  7881	  7917	  7953	  7989
	  8025	  8061	  8097	  8133	  8169	  8205	  8265	  8301	  8337	  8373	  8409	  8445	  8481	  8517
	  8553	  8589	  8625	  8661	  8697	  8733	  8769	  8805	  8841	  8877	  8913	  8949	  8985	  9021
	  9057	  9093	  9129	  9165	  9201	  9237	  9273	  9309	  9345	  9381	  9417	  9453	  9489	  9525
IFL	   786	   820	   854	   888	   922	   956	   990	  1024	  1058	  1092	  1126	  1160	  1194	  1228
	  1262	  1296	  1330	  1364	  1398	  1432	  1466	  1500	  1534	  1568	  1602	  1636	  1670	  1704
	  1738	  1772	  1806	  1840	  1874	  1908	  1942	  1976	  2034	  2068	  2102	  2136	  2170	  2204
	  2238	  2272	  2306	  2340	  2374	  2408	  2442	  2476	  2510	  2544	  2578	  2612	  2646	  2680
	  2714	  2748	  2782	  2816	  2850	  2884	  2918	  2952	  2986	  3020	  3054	  3088	  3122	  3156
	  3190	  3224	  3280	  3314	  3348	  3382	  3416	  3450	  3484	  3518	  3552	  3586	  3620	  3654
	  3688	  3722	  3756	  3790	  3824	  3858	  3892	  3926	  3960	  3994	  4028	  4062	  4096	  4130
	  4164	  4198	  4232	  4266	  4300	  4334	  4368	  4402	  4436	  4470	  4521	  4553	  4585	  4617
	  4649	  4681	  4713	  4745	  4777	  4809	  4841	  4873	  4905	  4937	  4969	  5001	  5033	  5065
	  5097	  5129	  5161	  5193	  5225	  5257	  5289	  5321	  5353	  5385	  5417	  5449	  5481	  5513
	  5545	  5577	  5609	  5641	  5695	  5729	  5763	  5797	  5831	  5865	  5899	  5933	  5967	  6001
	  6035	  6069	  6103	  6137	  6171	  6205	  6239	  6273	  6307	  6341	  6375	  6409	  6443	  6477
	  6511	  6545	  6579	  6613	  6647	  6681	  6715	  6749	  6783	  6817	  6851	  6885	  6946	  6982
	  7018	  7054	  7090	  7126	  7162	  7198	  7234	  7270	  7306	  7342	  7378	  7414	  7450	  7486
	  7522	  7558	  7594	  7630	  7666	  7702	  7738	  7774	  7810	  7846	  7882	  7918	  7954	  7990
	  8026	  8062	  8098	  8134	  8170	  8206	  8266	  8302	  8338	  8374	  8410	  8446	  8482	  8518
	  8554	  8590	  8626	  8662	  8698	  8734	  8770	  8806	  8842	  8878	  8914	  8950	  8986	  9022
	  9058	  9094	  9130	  9166	  9202	  9238	  9274	  9310	  9346	  9382	  9418	  9454	  9490	  9526
IFN	  5694	  5728	  5762	  5796	  5830	  5864	  5898	  5932	  5966	  6000	  6034	  6068	  6102	  6136
	  6170	  6204	  6238	  6272	  6306	  6340	  6374	  6408	  6442	  6476	  6510	  6544	  6578	  6612
	  6646	  6680	  6714	  6748	  6782	  6816	  6850	  6884	  6944	  6980	  7016	  7052	  7088	  7124
	  7160	  7196	  7232	  7268	  7304	  7340	  7376	  7412	  7448	  7484	  7520	  7556	  7592	  7628
	  7664	  7700	  7736	  7772	  7808	  7844	  7880	  7916	  7952	  7988	  8024	  8060	  8096	  8132     SEQ 0418
	  8168	  8204	  8264	  8300	  8336	  8372	  8408	  8444	  8480	  8516	  8552	  8588	  8624	  8660
	  8696	  8732	  8768	  8804	  8840	  8876	  8912	  8948	  8984	  9020	  9056	  9092	  9128	  9164
	  9200	  9236	  9272	  9308	  9344	  9380	  9416	  9452	  9488	  9524
IFNDEF	   345	   346	   356	   445	   446	   447	   448	   527	 16284
IMUL	 10487	 10496	 10541	 10556	 10593	 10608	 10642	 10657	 10689	 10702	 10738	 10754	 10801	 10817
	 10865	 10881	 10928	 10944	 13901	 13915	 13929	 13943	 13957
IMULB	 10957	 11093	 11102	 14193	 14205	 14217	 14229	 14241
IMULI	 11001	 11011	 13998	 14008	 14018	 14028	 14038
IMULM	 11046	 11058	 14085	 14101	 14117	 14133	 14149
JFCL	   485	   486	   487	   488	   489	   490	   491	   492	   493	   494	   495	   496
JOV	 10433	 10454	 10545	 10560	 10597	 10612	 10646	 10661	 10693	 10706	 10742	 10758	 10805	 10821
	 10869	 10885	 10932	 10948	 10963	 11155	 11173	 11279	 11297	 11345	 11361	 11407	 11423	 12279
	 12301	 12454	 12558	 12576	 12749	 12771	 12889	 12910	 12961	 12976	 13021	 13035	 13080	 13099
	 13231
JRST	    71	    72	    73	    74	    75	    76	    77	   195	   196	   197	   198	   407	   408	   410
	   412	   414	   416	   418	   421	   423	   424	   477	   749	 10546	 10561	 10647	 10662	 10743
	 10759	 10806	 10822	 10870	 10886	 10933	 10949	 11156	 11174	 11346	 11362	 11408	 11424	 12280
	 12302	 12750	 12772	 13022	 13036	 13081	 13100	 16123	 16140	 16147	 16150	 16155	 16183	 16189
	 16203	 16205	 16207	 16210	 16213	 16215	 16217	 16243	 16246	 16259	 16263	 16266	 16269	 16273
	 16274	 16278
JSP	   204	 10428	 10447	 10542	 10557	 10594	 10609	 10643	 10658	 10690	 10703	 10739	 10755	 10802
	 10818	 10866	 10882	 10929	 10945	 10958	 11154	 11172	 11274	 11292	 11340	 11356	 11402	 11418
	 12274	 12296	 12447	 12557	 12575	 12744	 12766	 12888	 12909	 12960	 12975	 13020	 13034	 13079
	 13098	 13224
JUMPE	 14289	 14301	 14313	 14325	 14337	 14349	 14361	 14373	 14385	 14397	 14409	 14421	 14433	 14445
	 14457	 14469	 14481	 14493	 14521	 14533	 14545	 14557	 14569	 14581	 14593	 14605	 14617	 14629
	 14641	 14653	 14665	 14677	 14689	 14701	 14713	 14762	 14777	 14792	 14807	 14822	 14837	 14852
	 14867	 14882	 14897	 14912	 14927	 14942	 14957	 14972	 14987	 15002	 15017	 15051	 15066	 15081
	 15096	 15111	 15126	 15141	 15156	 15171	 15186	 15201	 15216	 15231	 15246	 15261	 15276	 15291
	 15732	 15748	 15764	 15780	 15796
JUMPL	   810	   844	   878	   912	   946	   980	  1014	  1048	  1082	  1116	  1150	  1184	  1218	  1252
	  1286	  1320	  1354	  1388	  1422	  1456	  1490	  1524	  1558	  1592	  1626	  1660	  1694	  1728
	  1762	  1796	  1830	  1864	  1898	  1932	  1966	  2000	  2057	  2091	  2125	  2159	  2193	  2227
	  2261	  2295	  2329	  2363	  2397	  2431	  2465	  2499	  2533	  2567	  2601	  2635	  2669	  2703
	  2737	  2771	  2805	  2839	  2873	  2907	  2941	  2975	  3009	  3043	  3077	  3111	  3145	  3179
	  3213	  3247	  3303	  3337	  3371	  3405	  3439	  3473	  3507	  3541	  3575	  3609	  3643	  3677
	  3711	  3745	  3779	  3813	  3847	  3881	  3915	  3949	  3983	  4017	  4051	  4085	  4119	  4153
	  4187	  4221	  4255	  4289	  4323	  4357	  4391	  4425	  4459	  4493	  4544	  4576	  4608	  4640
	  4672	  4704	  4736	  4768	  4800	  4832	  4864	  4896	  4928	  4960	  4992	  5024	  5056	  5088
	  5120	  5152	  5184	  5216	  5248	  5280	  5312	  5344	  5376	  5408	  5440	  5472	  5504	  5536
	  5568	  5600	  5632	  5664	  5719	  5753	  5787	  5821	  5855	  5889	  5923	  5957	  5991	  6025
	  6059	  6093	  6127	  6161	  6195	  6229	  6263	  6297	  6331	  6365	  6399	  6433	  6467	  6501
	  6535	  6569	  6603	  6637	  6671	  6705	  6739	  6773	  6807	  6841	  6875	  6909	  6969	  7005
	  7041	  7077	  7113	  7149	  7185	  7221	  7257	  7293	  7329	  7365	  7401	  7437	  7473	  7509
	  7545	  7581	  7617	  7653	  7689	  7725	  7761	  7797	  7833	  7869	  7905	  7941	  7977	  8013
	  8049	  8085	  8121	  8157	  8193	  8229	  8289	  8325	  8361	  8397	  8433	  8469	  8505	  8541
	  8577	  8613	  8649	  8685	  8721	  8757	  8793	  8829	  8865	  8901	  8937	  8973	  9009	  9045
	  9081	  9117	  9153	  9189	  9225	  9261	  9297	  9333	  9369	  9405	  9441	  9477	  9513	  9549
	  9592	  9606	  9650	  9664	  9703	  9715	  9751	  9762	  9804	  9817	  9860	  9874	  9922	  9938
	  9978	  9990	 10030	 10043	 10090	 10106	 10146	 10158	 10199	 10217	 10266	 10281	 10304	 10313
	 10338	 10348	 10400	 10416	 10435	 10456	 10490	 10499	 10548	 10563	 10599	 10614	 10649	 10664
	 10695	 10708	 10745	 10761	 10808	 10824	 10872	 10888	 10935	 10951	 10965	 11004	 11014	 11051
	 11063	 11096	 11105	 11162	 11180	 11191	 11223	 11232	 11283	 11301	 11348	 11364	 11410	 11426     SEQ 0419
	 11464	 11475	 11518	 11532	 11570	 11582	 11624	 11636	 11674	 11685	 11716	 11729	 11762	 11771
	 11814	 11827	 11870	 11884	 11913	 11924	 11960	 11971	 12009	 12021	 12064	 12077	 12117	 12130
	 12168	 12180	 12221	 12232	 12282	 12304	 12345	 12357	 12398	 12410	 12439	 12458	 12502	 12515
	 12566	 12584	 12624	 12635	 12679	 12693	 12754	 12776	 12822	 12836	 12897	 12918	 12965	 12980
	 13024	 13038	 13083	 13102	 13147	 13161	 13202	 13214	 13235	 13289	 13305	 13321	 13337	 13353
	 13369	 13385	 13401	 13417	 13433	 13481	 13495	 13509	 13523	 13537	 13575	 13585	 13595	 13605
	 13615	 13669	 13686	 13703	 13720	 13737	 13790	 13807	 13824	 13841	 13858	 13906	 13920	 13934
	 13948	 13962	 14001	 14011	 14021	 14031	 14041	 14092	 14108	 14124	 14140	 14156	 14198	 14210
	 14222	 14234	 14246	 14291	 14303	 14315	 14327	 14339	 14351	 14363	 14375	 14387	 14399	 14411
	 14423	 14435	 14447	 14459	 14471	 14483	 14495	 14523	 14535	 14547	 14559	 14571	 14583	 14595
	 14607	 14619	 14631	 14643	 14655	 14667	 14679	 14691	 14703	 14715	 14766	 14781	 14796	 14811
	 14826	 14841	 14856	 14871	 14886	 14901	 14916	 14931	 14946	 14961	 14976	 14991	 15006	 15021
	 15055	 15070	 15085	 15100	 15115	 15130	 15145	 15160	 15175	 15190	 15205	 15220	 15235	 15250
	 15265	 15280	 15295	 15339	 15351	 15363	 15375	 15387	 15399	 15411	 15423	 15435	 15447	 15503
	 15521	 15539	 15557	 15575	 15625	 15640	 15655	 15670	 15685	 15736	 15752	 15768	 15784	 15800
	 15842	 15854	 15866	 15878	 15890	 15941	 15957	 15973	 15989	 16005	 16056	 16072	 16088	 16104
	 16120
LALL	     9
LIST	     8	   356	   394	   527	 16166	 16236	 16284	 16670
LIT	 16285
LOC	    25	   397	   721
LSH	 16142	 16174
MOVE	   746	   795	   797	   799	   829	   831	   833	   863	   865	   867	   897	   899	   901	   931
	   933	   935	   965	   967	   969	   999	  1001	  1003	  1033	  1035	  1037	  1067	  1069	  1071
	  1101	  1103	  1105	  1135	  1137	  1139	  1169	  1171	  1173	  1203	  1205	  1207	  1237	  1239
	  1241	  1271	  1273	  1275	  1305	  1307	  1309	  1339	  1341	  1343	  1373	  1375	  1377	  1407
	  1409	  1411	  1441	  1443	  1445	  1475	  1477	  1479	  1509	  1511	  1513	  1543	  1545	  1547
	  1577	  1579	  1581	  1611	  1613	  1615	  1645	  1647	  1649	  1679	  1681	  1683	  1713	  1715
	  1717	  1747	  1749	  1751	  1781	  1783	  1785	  1815	  1817	  1819	  1849	  1851	  1853	  1883
	  1885	  1887	  1917	  1919	  1921	  1951	  1953	  1955	  1985	  1987	  1989	  2042	  2044	  2046
	  2076	  2078	  2080	  2110	  2112	  2114	  2144	  2146	  2148	  2178	  2180	  2182	  2212	  2214
	  2216	  2246	  2248	  2250	  2280	  2282	  2284	  2314	  2316	  2318	  2348	  2350	  2352	  2382
	  2384	  2386	  2416	  2418	  2420	  2450	  2452	  2454	  2484	  2486	  2488	  2518	  2520	  2522
	  2552	  2554	  2556	  2586	  2588	  2590	  2620	  2622	  2624	  2654	  2656	  2658	  2688	  2690
	  2692	  2722	  2724	  2726	  2756	  2758	  2760	  2790	  2792	  2794	  2824	  2826	  2828	  2858
	  2860	  2862	  2892	  2894	  2896	  2926	  2928	  2930	  2960	  2962	  2964	  2994	  2996	  2998
	  3028	  3030	  3032	  3062	  3064	  3066	  3096	  3098	  3100	  3130	  3132	  3134	  3164	  3166
	  3168	  3198	  3200	  3202	  3232	  3234	  3236	  3288	  3290	  3292	  3322	  3324	  3326	  3356
	  3358	  3360	  3390	  3392	  3394	  3424	  3426	  3428	  3458	  3460	  3462	  3492	  3494	  3496
	  3526	  3528	  3530	  3560	  3562	  3564	  3594	  3596	  3598	  3628	  3630	  3632	  3662	  3664
	  3666	  3696	  3698	  3700	  3730	  3732	  3734	  3764	  3766	  3768	  3798	  3800	  3802	  3832
	  3834	  3836	  3866	  3868	  3870	  3900	  3902	  3904	  3934	  3936	  3938	  3968	  3970	  3972
	  4002	  4004	  4006	  4036	  4038	  4040	  4070	  4072	  4074	  4104	  4106	  4108	  4138	  4140
	  4142	  4172	  4174	  4176	  4206	  4208	  4210	  4240	  4242	  4244	  4274	  4276	  4278	  4308
	  4310	  4312	  4342	  4344	  4346	  4376	  4378	  4380	  4410	  4412	  4414	  4444	  4446	  4448
	  4478	  4480	  4482	  4529	  4531	  4533	  4561	  4563	  4565	  4593	  4595	  4597	  4625	  4627
	  4629	  4657	  4659	  4661	  4689	  4691	  4693	  4721	  4723	  4725	  4753	  4755	  4757	  4785
	  4787	  4789	  4817	  4819	  4821	  4849	  4851	  4853	  4881	  4883	  4885	  4913	  4915	  4917
	  4945	  4947	  4949	  4977	  4979	  4981	  5009	  5011	  5013	  5041	  5043	  5045	  5073	  5075
	  5077	  5105	  5107	  5109	  5137	  5139	  5141	  5169	  5171	  5173	  5201	  5203	  5205	  5233
	  5235	  5237	  5265	  5267	  5269	  5297	  5299	  5301	  5329	  5331	  5333	  5361	  5363	  5365
	  5393	  5395	  5397	  5425	  5427	  5429	  5457	  5459	  5461	  5489	  5491	  5493	  5521	  5523
	  5525	  5553	  5555	  5557	  5585	  5587	  5589	  5617	  5619	  5621	  5649	  5651	  5653	  5704     SEQ 0420
	  5706	  5708	  5738	  5740	  5742	  5772	  5774	  5776	  5806	  5808	  5810	  5840	  5842	  5844
	  5874	  5876	  5878	  5908	  5910	  5912	  5942	  5944	  5946	  5976	  5978	  5980	  6010	  6012
	  6014	  6044	  6046	  6048	  6078	  6080	  6082	  6112	  6114	  6116	  6146	  6148	  6150	  6180
	  6182	  6184	  6214	  6216	  6218	  6248	  6250	  6252	  6282	  6284	  6286	  6316	  6318	  6320
	  6350	  6352	  6354	  6384	  6386	  6388	  6418	  6420	  6422	  6452	  6454	  6456	  6486	  6488
	  6490	  6520	  6522	  6524	  6554	  6556	  6558	  6588	  6590	  6592	  6622	  6624	  6626	  6656
	  6658	  6660	  6690	  6692	  6694	  6724	  6726	  6728	  6758	  6760	  6762	  6792	  6794	  6796
	  6826	  6828	  6830	  6860	  6862	  6864	  6894	  6896	  6898	  6954	  6956	  6958	  6990	  6992
	  6994	  7026	  7028	  7030	  7062	  7064	  7066	  7098	  7100	  7102	  7134	  7136	  7138	  7170
	  7172	  7174	  7206	  7208	  7210	  7242	  7244	  7246	  7278	  7280	  7282	  7314	  7316	  7318
	  7350	  7352	  7354	  7386	  7388	  7390	  7422	  7424	  7426	  7458	  7460	  7462	  7494	  7496
	  7498	  7530	  7532	  7534	  7566	  7568	  7570	  7602	  7604	  7606	  7638	  7640	  7642	  7674
	  7676	  7678	  7710	  7712	  7714	  7746	  7748	  7750	  7782	  7784	  7786	  7818	  7820	  7822
	  7854	  7856	  7858	  7890	  7892	  7894	  7926	  7928	  7930	  7962	  7964	  7966	  7998	  8000
	  8002	  8034	  8036	  8038	  8070	  8072	  8074	  8106	  8108	  8110	  8142	  8144	  8146	  8178
	  8180	  8182	  8214	  8216	  8218	  8274	  8276	  8278	  8310	  8312	  8314	  8346	  8348	  8350
	  8382	  8384	  8386	  8418	  8420	  8422	  8454	  8456	  8458	  8490	  8492	  8494	  8526	  8528
	  8530	  8562	  8564	  8566	  8598	  8600	  8602	  8634	  8636	  8638	  8670	  8672	  8674	  8706
	  8708	  8710	  8742	  8744	  8746	  8778	  8780	  8782	  8814	  8816	  8818	  8850	  8852	  8854
	  8886	  8888	  8890	  8922	  8924	  8926	  8958	  8960	  8962	  8994	  8996	  8998	  9030	  9032
	  9034	  9066	  9068	  9070	  9102	  9104	  9106	  9138	  9140	  9142	  9174	  9176	  9178	  9210
	  9212	  9214	  9246	  9248	  9250	  9282	  9284	  9286	  9318	  9320	  9322	  9354	  9356	  9358
	  9390	  9392	  9394	  9426	  9428	  9430	  9462	  9464	  9466	  9498	  9500	  9502	  9534	  9536
	  9538	 13782	 13799	 13816	 13833	 13850	 14084	 14100	 14116	 14132	 14148	 15495	 15513	 15531
	 15549	 15567	 16135	 16141	 16144	 16145	 16158	 16173	 16176	 16178	 16181	 16187	 16191	 16247
	 16255	 16256	 16264	 16268	 16271
MOVEI	   758	   760	  2004	  2006	  3251	  3253	  4497	  4499	  5668	  5670	  6913	  6915	  8233	  8235
	  9555	  9557	  9585	  9599	  9614	  9616	  9643	  9647	  9657	  9661	  9671	  9673	  9696	  9708
	  9722	  9724	  9770	  9772	  9824	  9826	  9852	  9853	  9866	  9867	  9881	  9883	  9915	  9919
	  9931	  9935	  9946	  9948	  9997	  9999	 10022	 10023	 10024	 10035	 10036	 10037	 10050	 10052
	 10083	 10099	 10114	 10116	 10186	 10188	 10191	 10192	 10204	 10206	 10209	 10210	 10229	 10231
	 10258	 10273	 10300	 10309	 10334	 10344	 10360	 10362	 10392	 10408	 10464	 10466	 10486	 10495
	 10510	 10512	 10539	 10540	 10554	 10555	 10591	 10606	 10735	 10751	 10768	 10770	 10832	 10834
	 10895	 10897	 10925	 10941	 10956	 10976	 10978	 10998	 10999	 11000	 11008	 11009	 11010	 11020
	 11022	 11043	 11044	 11045	 11055	 11056	 11057	 11073	 11075	 11091	 11092	 11100	 11101	 11120
	 11122	 11151	 11152	 11169	 11170	 11185	 11186	 11187	 11199	 11201	 11218	 11219	 11227	 11228
	 11240	 11242	 11270	 11271	 11288	 11289	 11309	 11311	 11337	 11338	 11353	 11354	 11371	 11373
	 11399	 11415	 11434	 11436	 11457	 11458	 11468	 11469	 11482	 11484	 11511	 11512	 11525	 11526
	 11539	 11541	 11564	 11576	 11593	 11595	 11616	 11617	 11618	 11628	 11629	 11630	 11645	 11647
	 11667	 11668	 11678	 11679	 11710	 11723	 11737	 11739	 11757	 11758	 11766	 11767	 11780	 11782
	 11807	 11820	 11834	 11836	 11864	 11878	 11906	 11917	 11931	 11933	 11954	 11965	 11978	 11980
	 12003	 12015	 12031	 12033	 12057	 12070	 12084	 12086	 12110	 12123	 12137	 12139	 12162	 12174
	 12192	 12194	 12266	 12268	 12271	 12288	 12290	 12293	 12313	 12315	 12337	 12338	 12339	 12349
	 12350	 12351	 12367	 12369	 12391	 12392	 12403	 12404	 12421	 12423	 12433	 12443	 12444	 12467
	 12469	 12494	 12495	 12496	 12507	 12508	 12509	 12523	 12525	 12553	 12555	 12571	 12573	 12594
	 12596	 12617	 12618	 12619	 12620	 12628	 12629	 12630	 12631	 12643	 12645	 12673	 12687	 12701
	 12703	 12740	 12762	 12784	 12786	 12816	 12830	 12846	 12848	 12886	 12907	 12927	 12929	 12958
	 12973	 12989	 12991	 13070	 13072	 13075	 13077	 13089	 13091	 13094	 13096	 13110	 13112	 13139
	 13140	 13141	 13153	 13154	 13155	 13171	 13173	 13194	 13195	 13196	 13206	 13207	 13208	 13220
	 13221	 13222	 13249	 13251	 13445	 13447	 13473	 13487	 13501	 13515	 13529	 13548	 13550	 13627
	 13629	 13659	 13676	 13693	 13710	 13727	 13748	 13750	 13779	 13796	 13813	 13830	 13847	 13870
	 13872	 13898	 13899	 13900	 13912	 13913	 13914	 13926	 13927	 13928	 13940	 13941	 13942	 13954
	 13955	 13956	 13973	 13975	 13996	 13997	 14006	 14007	 14016	 14017	 14026	 14027	 14036	 14037     SEQ 0421
	 14052	 14054	 14081	 14097	 14113	 14129	 14145	 14167	 14169	 14260	 14262	 14284	 14285	 14296
	 14297	 14308	 14309	 14320	 14321	 14332	 14333	 14344	 14345	 14356	 14357	 14368	 14369	 14380
	 14381	 14392	 14393	 14404	 14405	 14416	 14417	 14428	 14429	 14440	 14441	 14452	 14453	 14464
	 14465	 14476	 14477	 14488	 14489	 14729	 14731	 14756	 14757	 14758	 14771	 14772	 14773	 14786
	 14787	 14788	 14801	 14802	 14803	 14816	 14817	 14818	 14831	 14832	 14833	 14846	 14847	 14848
	 14861	 14862	 14863	 14876	 14877	 14878	 14891	 14892	 14893	 14906	 14907	 14908	 14921	 14922
	 14923	 14936	 14937	 14938	 14951	 14952	 14953	 14966	 14967	 14968	 14981	 14982	 14983	 14996
	 14997	 14998	 15011	 15012	 15013	 15047	 15062	 15077	 15092	 15107	 15122	 15137	 15152	 15167
	 15182	 15197	 15212	 15227	 15242	 15257	 15272	 15287	 15307	 15309	 15332	 15333	 15344	 15345
	 15356	 15357	 15368	 15369	 15380	 15381	 15392	 15393	 15404	 15405	 15416	 15417	 15428	 15429
	 15440	 15441	 15459	 15461	 15492	 15510	 15528	 15546	 15564	 15587	 15589	 15615	 15616	 15617
	 15630	 15631	 15632	 15645	 15646	 15647	 15660	 15661	 15662	 15675	 15676	 15677	 15696	 15698
	 15726	 15728	 15742	 15744	 15758	 15760	 15774	 15776	 15790	 15792	 15811	 15813	 15836	 15848
	 15860	 15872	 15884	 15901	 15903	 16016	 16018	 16046	 16047	 16048	 16062	 16063	 16064	 16078
	 16079	 16080	 16094	 16095	 16096	 16110	 16111	 16112	 16198	 16244
MOVEM	   747	   759	   761	  2005	  2007	  3252	  3254	  4498	  4500	  5669	  5671	  6914	  6916	  8234
	  8236	  9556	  9558	  9615	  9617	  9672	  9674	  9723	  9725	  9771	  9773	  9825	  9827	  9882
	  9884	  9947	  9949	  9998	 10000	 10051	 10053	 10115	 10117	 10187	 10189	 10205	 10207	 10230
	 10232	 10361	 10363	 10465	 10467	 10511	 10513	 10769	 10771	 10833	 10835	 10896	 10898	 10977
	 10979	 11021	 11023	 11074	 11076	 11121	 11123	 11200	 11202	 11241	 11243	 11310	 11312	 11372
	 11374	 11435	 11437	 11483	 11485	 11540	 11542	 11594	 11596	 11646	 11648	 11738	 11740	 11781
	 11783	 11835	 11837	 11932	 11934	 11979	 11981	 12032	 12034	 12085	 12087	 12138	 12140	 12193
	 12195	 12267	 12269	 12289	 12291	 12314	 12316	 12368	 12370	 12422	 12424	 12468	 12470	 12524
	 12526	 12595	 12597	 12644	 12646	 12702	 12704	 12785	 12787	 12847	 12849	 12928	 12930	 12990
	 12992	 13071	 13073	 13090	 13092	 13111	 13113	 13172	 13174	 13250	 13252	 13446	 13448	 13549
	 13551	 13628	 13630	 13749	 13751	 13871	 13873	 13974	 13976	 14053	 14055	 14168	 14170	 14261
	 14263	 14730	 14732	 15308	 15310	 15460	 15462	 15588	 15590	 15697	 15699	 15812	 15814	 15902
	 15904	 16017	 16019	 16128	 16129	 16130	 16143	 16163	 16245
MOVSI	  9641	  9642	  9655	  9656	  9913	  9914	  9929	  9930	  9971	  9983	 10081	 10084	 10097	 10100
	 10139	 10151	 10255	 10257	 10270	 10272	 10299	 10308	 10333	 10343	 10389	 10391	 10405	 10407
	 10425	 10426	 10444	 10445	 10485	 10494	 10590	 10592	 10605	 10607	 10687	 10700	 10863	 10864
	 10879	 10880	 10926	 10927	 10942	 10943	 10955	 11400	 11416	 11907	 11918	 12430	 12432	 13138
	 13152	 13279	 13280	 13281	 13295	 13296	 13297	 13311	 13312	 13313	 13327	 13328	 13329	 13343
	 13344	 13345	 13359	 13360	 13361	 13375	 13376	 13377	 13391	 13392	 13393	 13407	 13408	 13409
	 13423	 13424	 13425	 13474	 13478	 13488	 13492	 13502	 13506	 13516	 13520	 13530	 13534	 13780
	 13797	 13814	 13831	 13848	 14516	 14517	 14528	 14529	 14540	 14541	 14552	 14553	 14564	 14565
	 14576	 14577	 14588	 14589	 14600	 14601	 14612	 14613	 14624	 14625	 14636	 14637	 14648	 14649
	 14660	 14661	 14672	 14673	 14684	 14685	 14696	 14697	 14708	 14709	 15045	 15046	 15060	 15061
	 15075	 15076	 15090	 15091	 15105	 15106	 15120	 15121	 15135	 15136	 15150	 15151	 15165	 15166
	 15180	 15181	 15195	 15196	 15210	 15211	 15225	 15226	 15240	 15241	 15255	 15256	 15270	 15271
	 15285	 15286	 15725	 15741	 15757	 15773	 15789	 15930	 15946	 15962	 15978	 15994	 16045	 16061
	 16077	 16093	 16109
MUL	   800	   834	   868	   902	   936	   970	  1004	  1038	  1072	  1106	  1140	  1174	  1208	  1242
	  1276	  1310	  1344	  1378	  1412	  1446	  1480	  1514	  1548	  1582	  1616	  1650	  1684	  1718
	  1752	  1786	  1820	  1854	  1888	  1922	  1956	  1990	  2047	  2081	  2115	  2149	  2183	  2217
	  2251	  2285	  2319	  2353	  2387	  2421	  2455	  2489	  2523	  2557	  2591	  2625	  2659	  2693
	  2727	  2761	  2795	  2829	  2863	  2897	  2931	  2965	  2999	  3033	  3067	  3101	  3135	  3169
	  3203	  3237	  3293	  3327	  3361	  3395	  3429	  3463	  3497	  3531	  3565	  3599	  3633	  3667
	  3701	  3735	  3769	  3803	  3837	  3871	  3905	  3939	  3973	  4007	  4041	  4075	  4109	  4143
	  4177	  4211	  4245	  4279	  4313	  4347	  4381	  4415	  4449	  4483	  4534	  4566	  4598	  4630
	  4662	  4694	  4726	  4758	  4790	  4822	  4854	  4886	  4918	  4950	  4982	  5014	  5046	  5078
	  5110	  5142	  5174	  5206	  5238	  5270	  5302	  5334	  5366	  5398	  5430	  5462	  5494	  5526
	  5558	  5590	  5622	  5654	  5709	  5743	  5777	  5811	  5845	  5879	  5913	  5947	  5981	  6015     SEQ 0422
	  6049	  6083	  6117	  6151	  6185	  6219	  6253	  6287	  6321	  6355	  6389	  6423	  6457	  6491
	  6525	  6559	  6593	  6627	  6661	  6695	  6729	  6763	  6797	  6831	  6865	  6899	  6959	  6995
	  7031	  7067	  7103	  7139	  7175	  7211	  7247	  7283	  7319	  7355	  7391	  7427	  7463	  7499
	  7535	  7571	  7607	  7643	  7679	  7715	  7751	  7787	  7823	  7859	  7895	  7931	  7967	  8003
	  8039	  8075	  8111	  8147	  8183	  8219	  8279	  8315	  8351	  8387	  8423	  8459	  8495	  8531
	  8567	  8603	  8639	  8675	  8711	  8747	  8783	  8819	  8855	  8891	  8927	  8963	  8999	  9035
	  9071	  9107	  9143	  9179	  9215	  9251	  9287	  9323	  9359	  9395	  9431	  9467	  9503	  9539
	  9587	  9601	  9644	  9658	  9698	  9710	  9746	  9757	  9799	  9812	  9854	  9868	  9916	  9932
	  9973	  9985	 10025	 10038	 10085	 10101	 10141	 10153	 10427	 13282	 13298	 13314	 13330	 13346
	 13362	 13378	 13394	 13410	 13426
MULB	 10393	 10409	 10446	 13662	 13679	 13696	 13713	 13730
MULI	 10194	 10212	 13475	 13489	 13503	 13517	 13531
MULM	 10259	 10274	 10301	 10310	 10335	 10345	 13572	 13582	 13592	 13602	 13612	 13783	 13800	 13817
	 13834	 13851
NOSYM	    29
OPDEF	    34	    35	    36	    37	    38	    39	    40	    41	    42	    43	    44	   191	   192	   193
	   194	   195	   196	   197	   198	   204	   210	   211	   219	   220	   221	   222	   223	   224
	   225	   226	   227	   228	   229	   232	   233	   234	   235	   236	   237	   238	   239	   240
	   241	   242	   243	   244	   245	   246	   247	   248	   249	   250	   251	   252	   253	   254
	   255	   256	   257	   258	   259	   260	   261	   262	   263	   264	   265	   266	   267	   268
	   269	   270	   271	   272	   273	   274	   275	   276	   277	   278	   279	   280	   281	   282
	   283	   284	   285	   286	   288	   305	   310	   311	   315	   316	   317	   323	   324	   330
	   331	   332	   333	   334	   335	   336	   342	   343	   350	   351	   352	   353	   363	   364
	   365	   366	   367	   394
PAGE	  9764	 10283	 10315	 10565	 10666	 10826	 10953	 11183	 11303	 11428	 11687	 12306	 12412	 12586
	 13216
POP	   194
POPJ	   192
PUSH	   193
PUSHJ	   191
REPEAT	   765	  2012	  3258	  4503	  5674	  6920	  8240	  9565	  9623	  9680	  9730	  9779	  9833	  9891
	  9955	 10005	 10059	 10123	 10169	 10237	 10287	 10319	 10369	 10473	 10519	 10570	 10620	 10670
	 10714	 10777	 10841	 10904	 10985	 11028	 11079	 11128	 11206	 11248	 11317	 11379	 11443	 11491
	 11547	 11601	 11653	 11691	 11745	 11789	 11843	 11892	 11939	 11986	 12039	 12092	 12145	 12200
	 12243	 12322	 12375	 12477	 12531	 12603	 12652	 12711	 12795	 12856	 12936	 12997	 13050	 13120
	 13179	 13258	 13454	 13556	 13636	 13757	 13879	 13982	 14061	 14175	 14268	 14500	 14737	 15026
	 15316	 15468	 15596	 15705	 15819	 15910	 16025
SETO	  9857	  9871	 10082	 10098	 10799	 10815	 10862	 10878	 12429	 12671	 12685	 12739	 12761	 12815
	 12829	 13017	 13031	 13570	 13580	 13590	 13600	 13610	 13661	 13678	 13695	 13712	 13729	 15494
	 15512	 15530	 15548	 15566
SETOM	 11510	 11524	 16153	 16251	 16257
SETZ	  9744	  9755	  9798	  9811	 10332	 10342	 11272	 11290	 12272	 12294	 12390	 12402	 12431	 12445
	 12554	 12572	 12885	 12906	 12957	 12972	 13076	 13095	 14191	 14203	 14215	 14227	 14239	 15727
	 15743	 15759	 15775	 15791	 15835	 15847	 15859	 15871	 15883	 15932	 15948	 15964	 15980	 15996
SETZM	 10256	 10271	 10390	 10406	 16137	 16148
SIXBIT	    84	    85	   612	   613	   621	   622	 16157	 16161	 16172	 16197	 16277
SKIPE	  9747	  9749	  9758	  9760	  9800	  9802	  9813	  9815	  9858	  9872	  9976	  9988	 10028	 10041
	 10086	 10102	 10144	 10156	 10197	 10215	 10262	 10277	 10336	 10346	 10691	 10704	 11221	 11230
	 11516	 11530	 11568	 11580	 11672	 11683	 11714	 11727	 11810	 11823	 11909	 11920	 11958	 11969
	 12007	 12019	 12166	 12178	 12219	 12230	 12500	 12513	 12564	 12582	 12675	 12689	 13200	 13212
	 13283	 13299	 13315	 13331	 13347	 13363	 13379	 13395	 13411	 13427	 13573	 13583	 13593	 13603
	 13613	 13663	 13665	 13680	 13682	 13697	 13699	 13714	 13716	 13731	 13733	 14194	 14196	 14206
	 14208	 14218	 14220	 14230	 14232	 14242	 14244	 15939	 15955	 15971	 15987	 16003                     SEQ 0423
SKIPGE	 16146
SKIPL	 16149	 16262
SKIPN	 16151	 16154	 16258
SUBTTL	    30	   120	   155	   357	   394	   395	   750	 10457	 11108	 12459	 13237	 16124	 16279
TITLE	    13
TLNE	 12752	 12774	 16139	 16182	 16248	 16252
TLNN	 10302	 10311	 11281	 11299	 12456	 12560	 12578	 12891	 12912	 13233	 16250	 16272
TRNE	 16202	 16204	 16206
VAR	 16678
XCT	 16239
XLIST	     7	   355	   393	   526	 16165	 16235	 16283
.DIREC	    28
